{
	"contracts/DataPunk.sol": {
		"DataPunk": {
			"abi": [
				{
					"inputs": [],
					"stateMutability": "nonpayable",
					"type": "constructor"
				},
				{
					"anonymous": false,
					"inputs": [
						{
							"indexed": false,
							"internalType": "address",
							"name": "tokenAddress",
							"type": "address"
						}
					],
					"name": "DataPunkCoinDeployed",
					"type": "event"
				},
				{
					"anonymous": false,
					"inputs": [
						{
							"indexed": true,
							"internalType": "uint256",
							"name": "datasetId",
							"type": "uint256"
						},
						{
							"indexed": true,
							"internalType": "address",
							"name": "maker",
							"type": "address"
						},
						{
							"indexed": false,
							"internalType": "uint256",
							"name": "cost",
							"type": "uint256"
						}
					],
					"name": "DatasetMaked",
					"type": "event"
				},
				{
					"anonymous": false,
					"inputs": [
						{
							"indexed": true,
							"internalType": "uint256",
							"name": "datasetId",
							"type": "uint256"
						},
						{
							"indexed": true,
							"internalType": "address",
							"name": "purchaser",
							"type": "address"
						},
						{
							"indexed": false,
							"internalType": "uint256",
							"name": "cost",
							"type": "uint256"
						}
					],
					"name": "DatasetPurchased",
					"type": "event"
				},
				{
					"anonymous": false,
					"inputs": [
						{
							"indexed": true,
							"internalType": "uint256",
							"name": "datasetId",
							"type": "uint256"
						},
						{
							"indexed": true,
							"internalType": "address",
							"name": "creator",
							"type": "address"
						},
						{
							"indexed": false,
							"internalType": "uint256",
							"name": "reward",
							"type": "uint256"
						}
					],
					"name": "DatasetUpload",
					"type": "event"
				},
				{
					"anonymous": false,
					"inputs": [
						{
							"indexed": true,
							"internalType": "uint256",
							"name": "datasetId",
							"type": "uint256"
						},
						{
							"indexed": true,
							"internalType": "address",
							"name": "validator",
							"type": "address"
						},
						{
							"indexed": false,
							"internalType": "uint256",
							"name": "reward",
							"type": "uint256"
						}
					],
					"name": "DatasetValidated",
					"type": "event"
				},
				{
					"anonymous": false,
					"inputs": [
						{
							"indexed": true,
							"internalType": "address",
							"name": "validator",
							"type": "address"
						}
					],
					"name": "ValidatorRegistered",
					"type": "event"
				},
				{
					"inputs": [
						{
							"internalType": "address",
							"name": "",
							"type": "address"
						},
						{
							"internalType": "address",
							"name": "",
							"type": "address"
						}
					],
					"name": "allowance",
					"outputs": [
						{
							"internalType": "uint256",
							"name": "",
							"type": "uint256"
						}
					],
					"stateMutability": "view",
					"type": "function"
				},
				{
					"inputs": [
						{
							"internalType": "address",
							"name": "",
							"type": "address"
						}
					],
					"name": "balanceOf",
					"outputs": [
						{
							"internalType": "uint256",
							"name": "",
							"type": "uint256"
						}
					],
					"stateMutability": "view",
					"type": "function"
				},
				{
					"inputs": [
						{
							"internalType": "uint256",
							"name": "",
							"type": "uint256"
						}
					],
					"name": "datasets",
					"outputs": [
						{
							"internalType": "address",
							"name": "creator",
							"type": "address"
						},
						{
							"internalType": "uint256",
							"name": "price",
							"type": "uint256"
						},
						{
							"internalType": "uint256",
							"name": "validationReward",
							"type": "uint256"
						},
						{
							"internalType": "bool",
							"name": "isValidated",
							"type": "bool"
						}
					],
					"stateMutability": "view",
					"type": "function"
				},
				{
					"inputs": [],
					"name": "deployDataPunkCoin",
					"outputs": [],
					"stateMutability": "nonpayable",
					"type": "function"
				},
				{
					"inputs": [],
					"name": "dpcToken",
					"outputs": [
						{
							"internalType": "contract IERC20",
							"name": "",
							"type": "address"
						}
					],
					"stateMutability": "view",
					"type": "function"
				},
				{
					"inputs": [],
					"name": "dpcTokenAddress",
					"outputs": [
						{
							"internalType": "address",
							"name": "",
							"type": "address"
						}
					],
					"stateMutability": "view",
					"type": "function"
				},
				{
					"inputs": [],
					"name": "getAllDatasets",
					"outputs": [
						{
							"internalType": "address[]",
							"name": "creators",
							"type": "address[]"
						},
						{
							"internalType": "uint256[]",
							"name": "prices",
							"type": "uint256[]"
						},
						{
							"internalType": "uint256[]",
							"name": "validationRewards",
							"type": "uint256[]"
						},
						{
							"internalType": "bool[]",
							"name": "isValidatedFlags",
							"type": "bool[]"
						}
					],
					"stateMutability": "view",
					"type": "function"
				},
				{
					"inputs": [],
					"name": "getAllValidators",
					"outputs": [
						{
							"internalType": "address[]",
							"name": "",
							"type": "address[]"
						}
					],
					"stateMutability": "view",
					"type": "function"
				},
				{
					"inputs": [
						{
							"internalType": "address",
							"name": "account",
							"type": "address"
						}
					],
					"name": "getDPCBalanceOf",
					"outputs": [
						{
							"internalType": "uint256",
							"name": "",
							"type": "uint256"
						}
					],
					"stateMutability": "view",
					"type": "function"
				},
				{
					"inputs": [],
					"name": "getDPCSupply",
					"outputs": [
						{
							"internalType": "uint256",
							"name": "",
							"type": "uint256"
						}
					],
					"stateMutability": "view",
					"type": "function"
				},
				{
					"inputs": [],
					"name": "isDataPunkCoinDeployed",
					"outputs": [
						{
							"internalType": "bool",
							"name": "",
							"type": "bool"
						}
					],
					"stateMutability": "view",
					"type": "function"
				},
				{
					"inputs": [],
					"name": "makeDatasePrice",
					"outputs": [
						{
							"internalType": "uint256",
							"name": "",
							"type": "uint256"
						}
					],
					"stateMutability": "view",
					"type": "function"
				},
				{
					"inputs": [
						{
							"internalType": "uint256",
							"name": "price",
							"type": "uint256"
						},
						{
							"internalType": "uint256",
							"name": "validationReward",
							"type": "uint256"
						}
					],
					"name": "makeDataset",
					"outputs": [],
					"stateMutability": "nonpayable",
					"type": "function"
				},
				{
					"inputs": [],
					"name": "owner",
					"outputs": [
						{
							"internalType": "address",
							"name": "",
							"type": "address"
						}
					],
					"stateMutability": "view",
					"type": "function"
				},
				{
					"inputs": [
						{
							"internalType": "uint256",
							"name": "",
							"type": "uint256"
						}
					],
					"name": "publicValidators",
					"outputs": [
						{
							"internalType": "address",
							"name": "",
							"type": "address"
						}
					],
					"stateMutability": "view",
					"type": "function"
				},
				{
					"inputs": [
						{
							"internalType": "uint256",
							"name": "datasetId",
							"type": "uint256"
						}
					],
					"name": "purchaseDataset",
					"outputs": [],
					"stateMutability": "nonpayable",
					"type": "function"
				},
				{
					"inputs": [],
					"name": "registerAsValidator",
					"outputs": [],
					"stateMutability": "nonpayable",
					"type": "function"
				},
				{
					"inputs": [
						{
							"internalType": "uint256",
							"name": "price",
							"type": "uint256"
						},
						{
							"internalType": "uint256",
							"name": "validationReward",
							"type": "uint256"
						}
					],
					"name": "updateDataset",
					"outputs": [
						{
							"internalType": "uint256",
							"name": "",
							"type": "uint256"
						}
					],
					"stateMutability": "nonpayable",
					"type": "function"
				},
				{
					"inputs": [
						{
							"internalType": "uint256",
							"name": "datasetId",
							"type": "uint256"
						}
					],
					"name": "validateDataset",
					"outputs": [],
					"stateMutability": "nonpayable",
					"type": "function"
				}
			],
			"devdoc": {
				"kind": "dev",
				"methods": {},
				"version": 1
			},
			"evm": {
				"assembly": "    /* \"contracts/DataPunk.sol\":563:7797  contract DataPunk {... */\n  mstore(0x40, 0xc0)\n    /* \"contracts/DataPunk.sol\":652:657  false */\n  0x00\n    /* \"contracts/DataPunk.sol\":615:657  bool public isDataPunkCoinDeployed = false */\n  dup1\n  exp(0x0100, 0x14)\n  dup2\n  sload\n  dup2\n  0xff\n  mul\n  not\n  and\n  swap1\n  dup4\n  iszero\n  iszero\n  mul\n  or\n  swap1\n  sstore\n  pop\n    /* \"contracts/DataPunk.sol\":696:698  10 */\n  0x0a\n    /* \"contracts/DataPunk.sol\":663:698  uint256 public makeDatasePrice = 10 */\n  0x01\n  sstore\n    /* \"contracts/DataPunk.sol\":840:843  100 */\n  0x64\n    /* \"contracts/DataPunk.sol\":807:843  uint256 immutable UPDATAREWARD = 100 */\n  0x80\n  swap1\n  dup2\n  mstore\n  pop\n    /* \"contracts/DataPunk.sol\":879:891  100 * 10**18 */\n  0x056bc75e2d63100000\n    /* \"contracts/DataPunk.sol\":849:891  uint256 immutable SUMSUPPLY = 100 * 10**18 */\n  0xa0\n  swap1\n  dup2\n  mstore\n  pop\n    /* \"contracts/DataPunk.sol\":1803:1906  constructor() {... */\n  callvalue\n  dup1\n  iszero\n  tag_1\n  jumpi\n  0x00\n  dup1\n  revert\ntag_1:\n  pop\n    /* \"contracts/DataPunk.sol\":1889:1899  msg.sender */\n  caller\n    /* \"contracts/DataPunk.sol\":1880:1886  _owner */\n  0x00\n  dup1\n    /* \"contracts/DataPunk.sol\":1880:1899  _owner = msg.sender */\n  0x0100\n  exp\n  dup2\n  sload\n  dup2\n  0xffffffffffffffffffffffffffffffffffffffff\n  mul\n  not\n  and\n  swap1\n  dup4\n  0xffffffffffffffffffffffffffffffffffffffff\n  and\n  mul\n  or\n  swap1\n  sstore\n  pop\n    /* \"contracts/DataPunk.sol\":563:7797  contract DataPunk {... */\n  mload(0x80)\n  mload(0xa0)\n  codecopy(0x00, dataOffset(sub_0), dataSize(sub_0))\n  0x00\n  assignImmutable(\"0x94bf69fb65508f6e4ddb8e9d68af175b29ca55b7385169421c8fce2c4390b244\")\n  0x00\n  assignImmutable(\"0xb04b25fbd922f0b2f3d5e6f436799268646bade75fac61aceac1565745d10265\")\n  return(0x00, dataSize(sub_0))\nstop\n\nsub_0: assembly {\n        /* \"contracts/DataPunk.sol\":563:7797  contract DataPunk {... */\n      mstore(0x40, 0x80)\n      callvalue\n      dup1\n      iszero\n      tag_1\n      jumpi\n      0x00\n      dup1\n      revert\n    tag_1:\n      pop\n      jumpi(tag_2, lt(calldatasize, 0x04))\n      shr(0xe0, calldataload(0x00))\n      dup1\n      0x7da0a948\n      gt\n      tag_22\n      jumpi\n      dup1\n      0xc76cc728\n      gt\n      tag_23\n      jumpi\n      dup1\n      0xc76cc728\n      eq\n      tag_17\n      jumpi\n      dup1\n      0xdd62ed3e\n      eq\n      tag_18\n      jumpi\n      dup1\n      0xeb97ffa2\n      eq\n      tag_19\n      jumpi\n      dup1\n      0xf0acd184\n      eq\n      tag_20\n      jumpi\n      dup1\n      0xf3513a37\n      eq\n      tag_21\n      jumpi\n      jump(tag_2)\n    tag_23:\n      dup1\n      0x7da0a948\n      eq\n      tag_12\n      jumpi\n      dup1\n      0x8da5cb5b\n      eq\n      tag_13\n      jumpi\n      dup1\n      0x90d64271\n      eq\n      tag_14\n      jumpi\n      dup1\n      0xa6359308\n      eq\n      tag_15\n      jumpi\n      dup1\n      0xb3a1c41a\n      eq\n      tag_16\n      jumpi\n      jump(tag_2)\n    tag_22:\n      dup1\n      0x49ee56f9\n      gt\n      tag_24\n      jumpi\n      dup1\n      0x49ee56f9\n      eq\n      tag_7\n      jumpi\n      dup1\n      0x4d72cd12\n      eq\n      tag_8\n      jumpi\n      dup1\n      0x70a08231\n      eq\n      tag_9\n      jumpi\n      dup1\n      0x7ac64245\n      eq\n      tag_10\n      jumpi\n      dup1\n      0x7c1a4bcd\n      eq\n      tag_11\n      jumpi\n      jump(tag_2)\n    tag_24:\n      dup1\n      0x01c427d7\n      eq\n      tag_3\n      jumpi\n      dup1\n      0x1cff85e1\n      eq\n      tag_4\n      jumpi\n      dup1\n      0x204b317b\n      eq\n      tag_5\n      jumpi\n      dup1\n      0x3b103d33\n      eq\n      tag_6\n      jumpi\n    tag_2:\n      0x00\n      dup1\n      revert\n        /* \"contracts/DataPunk.sol\":704:726  IERC20 public dpcToken */\n    tag_3:\n      tag_25\n      tag_26\n      jump\t// in\n    tag_25:\n      mload(0x40)\n      tag_27\n      swap2\n      swap1\n      tag_28\n      jump\t// in\n    tag_27:\n      mload(0x40)\n      dup1\n      swap2\n      sub\n      swap1\n      return\n        /* \"contracts/DataPunk.sol\":1703:1728  Dataset[] public datasets */\n    tag_4:\n      tag_29\n      0x04\n      dup1\n      calldatasize\n      sub\n      dup2\n      add\n      swap1\n      tag_30\n      swap2\n      swap1\n      tag_31\n      jump\t// in\n    tag_30:\n      tag_32\n      jump\t// in\n    tag_29:\n      mload(0x40)\n      tag_33\n      swap5\n      swap4\n      swap3\n      swap2\n      swap1\n      tag_34\n      jump\t// in\n    tag_33:\n      mload(0x40)\n      dup1\n      swap2\n      sub\n      swap1\n      return\n        /* \"contracts/DataPunk.sol\":5693:6330  function makeDataset(uint256 price, uint256 validationReward) public {... */\n    tag_5:\n      tag_35\n      0x04\n      dup1\n      calldatasize\n      sub\n      dup2\n      add\n      swap1\n      tag_36\n      swap2\n      swap1\n      tag_37\n      jump\t// in\n    tag_36:\n      tag_38\n      jump\t// in\n    tag_35:\n      stop\n        /* \"contracts/DataPunk.sol\":4462:5133  function updateDataset(uint256 price, uint256 validationReward) public returns (uint256) {... */\n    tag_6:\n      tag_39\n      0x04\n      dup1\n      calldatasize\n      sub\n      dup2\n      add\n      swap1\n      tag_40\n      swap2\n      swap1\n      tag_37\n      jump\t// in\n    tag_40:\n      tag_41\n      jump\t// in\n    tag_39:\n      mload(0x40)\n      tag_42\n      swap2\n      swap1\n      tag_43\n      jump\t// in\n    tag_42:\n      mload(0x40)\n      dup1\n      swap2\n      sub\n      swap1\n      return\n        /* \"contracts/DataPunk.sol\":5171:5664  function purchaseDataset(uint256 datasetId) public {... */\n    tag_7:\n      tag_44\n      0x04\n      dup1\n      calldatasize\n      sub\n      dup2\n      add\n      swap1\n      tag_45\n      swap2\n      swap1\n      tag_31\n      jump\t// in\n    tag_45:\n      tag_46\n      jump\t// in\n    tag_44:\n      stop\n        /* \"contracts/DataPunk.sol\":3152:4003  function getAllDatasets() public view returns (... */\n    tag_8:\n      tag_47\n      tag_48\n      jump\t// in\n    tag_47:\n      mload(0x40)\n      tag_49\n      swap5\n      swap4\n      swap3\n      swap2\n      swap1\n      tag_50\n      jump\t// in\n    tag_49:\n      mload(0x40)\n      dup1\n      swap2\n      sub\n      swap1\n      return\n        /* \"contracts/DataPunk.sol\":898:942  mapping(address => uint256) public balanceOf */\n    tag_9:\n      tag_51\n      0x04\n      dup1\n      calldatasize\n      sub\n      dup2\n      add\n      swap1\n      tag_52\n      swap2\n      swap1\n      tag_53\n      jump\t// in\n    tag_52:\n      tag_54\n      jump\t// in\n    tag_51:\n      mload(0x40)\n      tag_55\n      swap2\n      swap1\n      tag_43\n      jump\t// in\n    tag_55:\n      mload(0x40)\n      dup1\n      swap2\n      sub\n      swap1\n      return\n        /* \"contracts/DataPunk.sol\":768:801  address[] public publicValidators */\n    tag_10:\n      tag_56\n      0x04\n      dup1\n      calldatasize\n      sub\n      dup2\n      add\n      swap1\n      tag_57\n      swap2\n      swap1\n      tag_31\n      jump\t// in\n    tag_57:\n      tag_58\n      jump\t// in\n    tag_56:\n      mload(0x40)\n      tag_59\n      swap2\n      swap1\n      tag_60\n      jump\t// in\n    tag_59:\n      mload(0x40)\n      dup1\n      swap2\n      sub\n      swap1\n      return\n        /* \"contracts/DataPunk.sol\":4304:4427  function getDPCBalanceOf(address account) public view returns (uint256) {... */\n    tag_11:\n      tag_61\n      0x04\n      dup1\n      calldatasize\n      sub\n      dup2\n      add\n      swap1\n      tag_62\n      swap2\n      swap1\n      tag_53\n      jump\t// in\n    tag_62:\n      tag_63\n      jump\t// in\n    tag_61:\n      mload(0x40)\n      tag_64\n      swap2\n      swap1\n      tag_43\n      jump\t// in\n    tag_64:\n      mload(0x40)\n      dup1\n      swap2\n      sub\n      swap1\n      return\n        /* \"contracts/DataPunk.sol\":663:698  uint256 public makeDatasePrice = 10 */\n    tag_12:\n      tag_65\n      tag_66\n      jump\t// in\n    tag_65:\n      mload(0x40)\n      tag_67\n      swap2\n      swap1\n      tag_43\n      jump\t// in\n    tag_67:\n      mload(0x40)\n      dup1\n      swap2\n      sub\n      swap1\n      return\n        /* \"contracts/DataPunk.sol\":4053:4138  function owner() public view virtual returns (address) {... */\n    tag_13:\n      tag_68\n      tag_69\n      jump\t// in\n    tag_68:\n      mload(0x40)\n      tag_70\n      swap2\n      swap1\n      tag_60\n      jump\t// in\n    tag_70:\n      mload(0x40)\n      dup1\n      swap2\n      sub\n      swap1\n      return\n        /* \"contracts/DataPunk.sol\":615:657  bool public isDataPunkCoinDeployed = false */\n    tag_14:\n      tag_71\n      tag_72\n      jump\t// in\n    tag_71:\n      mload(0x40)\n      tag_73\n      swap2\n      swap1\n      tag_74\n      jump\t// in\n    tag_73:\n      mload(0x40)\n      dup1\n      swap2\n      sub\n      swap1\n      return\n        /* \"contracts/DataPunk.sol\":6546:7795  function validateDataset(uint256 datasetId) public {... */\n    tag_15:\n      tag_75\n      0x04\n      dup1\n      calldatasize\n      sub\n      dup2\n      add\n      swap1\n      tag_76\n      swap2\n      swap1\n      tag_31\n      jump\t// in\n    tag_76:\n      tag_77\n      jump\t// in\n    tag_75:\n      stop\n        /* \"contracts/DataPunk.sol\":732:762  address public dpcTokenAddress */\n    tag_16:\n      tag_78\n      tag_79\n      jump\t// in\n    tag_78:\n      mload(0x40)\n      tag_80\n      swap2\n      swap1\n      tag_60\n      jump\t// in\n    tag_80:\n      mload(0x40)\n      dup1\n      swap2\n      sub\n      swap1\n      return\n        /* \"contracts/DataPunk.sol\":2228:2960  function deployDataPunkCoin() public onlyOwner {... */\n    tag_17:\n      tag_81\n      tag_82\n      jump\t// in\n    tag_81:\n      stop\n        /* \"contracts/DataPunk.sol\":948:1012  mapping(address => mapping(address => uint256)) public allowance */\n    tag_18:\n      tag_83\n      0x04\n      dup1\n      calldatasize\n      sub\n      dup2\n      add\n      swap1\n      tag_84\n      swap2\n      swap1\n      tag_85\n      jump\t// in\n    tag_84:\n      tag_86\n      jump\t// in\n    tag_83:\n      mload(0x40)\n      tag_87\n      swap2\n      swap1\n      tag_43\n      jump\t// in\n    tag_87:\n      mload(0x40)\n      dup1\n      swap2\n      sub\n      swap1\n      return\n        /* \"contracts/DataPunk.sol\":4168:4268  function getDPCSupply() public view returns (uint256) {... */\n    tag_19:\n      tag_88\n      tag_89\n      jump\t// in\n    tag_88:\n      mload(0x40)\n      tag_90\n      swap2\n      swap1\n      tag_43\n      jump\t// in\n    tag_90:\n      mload(0x40)\n      dup1\n      swap2\n      sub\n      swap1\n      return\n        /* \"contracts/DataPunk.sol\":6383:6517  function registerAsValidator() public {... */\n    tag_20:\n      tag_91\n      tag_92\n      jump\t// in\n    tag_91:\n      stop\n        /* \"contracts/DataPunk.sol\":3004:3111  function getAllValidators() public view returns (address[] memory) {... */\n    tag_21:\n      tag_93\n      tag_94\n      jump\t// in\n    tag_93:\n      mload(0x40)\n      tag_95\n      swap2\n      swap1\n      tag_96\n      jump\t// in\n    tag_95:\n      mload(0x40)\n      dup1\n      swap2\n      sub\n      swap1\n      return\n        /* \"contracts/DataPunk.sol\":704:726  IERC20 public dpcToken */\n    tag_26:\n      0x02\n      0x00\n      swap1\n      sload\n      swap1\n      0x0100\n      exp\n      swap1\n      div\n      0xffffffffffffffffffffffffffffffffffffffff\n      and\n      dup2\n      jump\t// out\n        /* \"contracts/DataPunk.sol\":1703:1728  Dataset[] public datasets */\n    tag_32:\n      0x07\n      dup2\n      dup2\n      sload\n      dup2\n      lt\n      tag_97\n      jumpi\n      0x00\n      dup1\n      revert\n    tag_97:\n      swap1\n      0x00\n      mstore\n      keccak256(0x00, 0x20)\n      swap1\n      0x05\n      mul\n      add\n      0x00\n      swap2\n      pop\n      swap1\n      pop\n      dup1\n      0x00\n      add\n      0x00\n      swap1\n      sload\n      swap1\n      0x0100\n      exp\n      swap1\n      div\n      0xffffffffffffffffffffffffffffffffffffffff\n      and\n      swap1\n      dup1\n      0x01\n      add\n      sload\n      swap1\n      dup1\n      0x02\n      add\n      sload\n      swap1\n      dup1\n      0x04\n      add\n      0x00\n      swap1\n      sload\n      swap1\n      0x0100\n      exp\n      swap1\n      div\n      0xff\n      and\n      swap1\n      pop\n      dup5\n      jump\t// out\n        /* \"contracts/DataPunk.sol\":5693:6330  function makeDataset(uint256 price, uint256 validationReward) public {... */\n    tag_38:\n        /* \"contracts/DataPunk.sol\":5814:5829  makeDatasePrice */\n      sload(0x01)\n        /* \"contracts/DataPunk.sol\":5780:5788  dpcToken */\n      0x02\n      0x00\n      swap1\n      sload\n      swap1\n      0x0100\n      exp\n      swap1\n      div\n      0xffffffffffffffffffffffffffffffffffffffff\n      and\n        /* \"contracts/DataPunk.sol\":5780:5798  dpcToken.balanceOf */\n      0xffffffffffffffffffffffffffffffffffffffff\n      and\n      0x70a08231\n        /* \"contracts/DataPunk.sol\":5799:5809  msg.sender */\n      caller\n        /* \"contracts/DataPunk.sol\":5780:5810  dpcToken.balanceOf(msg.sender) */\n      mload(0x40)\n      dup3\n      0xffffffff\n      and\n      0xe0\n      shl\n      dup2\n      mstore\n      0x04\n      add\n      tag_100\n      swap2\n      swap1\n      tag_60\n      jump\t// in\n    tag_100:\n      0x20\n      mload(0x40)\n      dup1\n      dup4\n      sub\n      dup2\n      dup7\n      gas\n      staticcall\n      iszero\n      dup1\n      iszero\n      tag_102\n      jumpi\n      returndatasize\n      0x00\n      dup1\n      returndatacopy\n      revert(0x00, returndatasize)\n    tag_102:\n      pop\n      pop\n      pop\n      pop\n      mload(0x40)\n      returndatasize\n      not(0x1f)\n      0x1f\n      dup3\n      add\n      and\n      dup3\n      add\n      dup1\n      0x40\n      mstore\n      pop\n      dup2\n      add\n      swap1\n      tag_103\n      swap2\n      swap1\n      tag_104\n      jump\t// in\n    tag_103:\n        /* \"contracts/DataPunk.sol\":5780:5829  dpcToken.balanceOf(msg.sender) >= makeDatasePrice */\n      lt\n      iszero\n        /* \"contracts/DataPunk.sol\":5772:5866  require(dpcToken.balanceOf(msg.sender) >= makeDatasePrice, \"Insufficient balance to purchase\") */\n      tag_105\n      jumpi\n      mload(0x40)\n      0x08c379a000000000000000000000000000000000000000000000000000000000\n      dup2\n      mstore\n      0x04\n      add\n      tag_106\n      swap1\n      tag_107\n      jump\t// in\n    tag_106:\n      mload(0x40)\n      dup1\n      swap2\n      sub\n      swap1\n      revert\n    tag_105:\n        /* \"contracts/DataPunk.sol\":5885:5912  address[] memory emptyArray */\n      0x60\n        /* \"contracts/DataPunk.sol\":5922:5930  datasets */\n      0x07\n        /* \"contracts/DataPunk.sol\":5936:6129  Dataset({... */\n      mload(0x40)\n      dup1\n      0xa0\n      add\n      0x40\n      mstore\n      dup1\n        /* \"contracts/DataPunk.sol\":5967:5977  msg.sender */\n      caller\n        /* \"contracts/DataPunk.sol\":5936:6129  Dataset({... */\n      0xffffffffffffffffffffffffffffffffffffffff\n      and\n      dup2\n      mstore\n      0x20\n      add\n        /* \"contracts/DataPunk.sol\":5998:6003  price */\n      dup6\n        /* \"contracts/DataPunk.sol\":5936:6129  Dataset({... */\n      dup2\n      mstore\n      0x20\n      add\n        /* \"contracts/DataPunk.sol\":6035:6051  validationReward */\n      dup5\n        /* \"contracts/DataPunk.sol\":5936:6129  Dataset({... */\n      dup2\n      mstore\n      0x20\n      add\n        /* \"contracts/DataPunk.sol\":6077:6087  emptyArray */\n      dup4\n        /* \"contracts/DataPunk.sol\":5936:6129  Dataset({... */\n      dup2\n      mstore\n      0x20\n      add\n        /* \"contracts/DataPunk.sol\":6114:6118  true */\n      0x01\n        /* \"contracts/DataPunk.sol\":5936:6129  Dataset({... */\n      iszero\n      iszero\n      dup2\n      mstore\n      pop\n        /* \"contracts/DataPunk.sol\":5922:6130  datasets.push(Dataset({... */\n      swap1\n      dup1\n      0x01\n      dup2\n      sload\n      add\n      dup1\n      dup3\n      sstore\n      dup1\n      swap2\n      pop\n      pop\n      0x01\n      swap1\n      sub\n      swap1\n      0x00\n      mstore\n      keccak256(0x00, 0x20)\n      swap1\n      0x05\n      mul\n      add\n      0x00\n      swap1\n      swap2\n      swap1\n      swap2\n      swap1\n      swap2\n      pop\n      0x00\n      dup3\n      add\n      mload\n      dup2\n      0x00\n      add\n      exp(0x0100, 0x00)\n      dup2\n      sload\n      dup2\n      0xffffffffffffffffffffffffffffffffffffffff\n      mul\n      not\n      and\n      swap1\n      dup4\n      0xffffffffffffffffffffffffffffffffffffffff\n      and\n      mul\n      or\n      swap1\n      sstore\n      pop\n      0x20\n      dup3\n      add\n      mload\n      dup2\n      0x01\n      add\n      sstore\n      0x40\n      dup3\n      add\n      mload\n      dup2\n      0x02\n      add\n      sstore\n      0x60\n      dup3\n      add\n      mload\n      dup2\n      0x03\n      add\n      swap1\n      dup1\n      mload\n      swap1\n      0x20\n      add\n      swap1\n      tag_109\n      swap3\n      swap2\n      swap1\n      tag_110\n      jump\t// in\n    tag_109:\n      pop\n      0x80\n      dup3\n      add\n      mload\n      dup2\n      0x04\n      add\n      exp(0x0100, 0x00)\n      dup2\n      sload\n      dup2\n      0xff\n      mul\n      not\n      and\n      swap1\n      dup4\n      iszero\n      iszero\n      mul\n      or\n      swap1\n      sstore\n      pop\n      pop\n      pop\n        /* \"contracts/DataPunk.sol\":6140:6157  uint256 datasetId */\n      0x00\n        /* \"contracts/DataPunk.sol\":6178:6179  1 */\n      0x01\n        /* \"contracts/DataPunk.sol\":6160:6168  datasets */\n      0x07\n        /* \"contracts/DataPunk.sol\":6160:6175  datasets.length */\n      dup1\n      sload\n      swap1\n      pop\n        /* \"contracts/DataPunk.sol\":6160:6179  datasets.length - 1 */\n      tag_111\n      swap2\n      swap1\n      tag_112\n      jump\t// in\n    tag_111:\n        /* \"contracts/DataPunk.sol\":6140:6179  uint256 datasetId = datasets.length - 1 */\n      swap1\n      pop\n        /* \"contracts/DataPunk.sol\":6190:6198  dpcToken */\n      0x02\n      0x00\n      swap1\n      sload\n      swap1\n      0x0100\n      exp\n      swap1\n      div\n      0xffffffffffffffffffffffffffffffffffffffff\n      and\n        /* \"contracts/DataPunk.sol\":6190:6211  dpcToken.transferFrom */\n      0xffffffffffffffffffffffffffffffffffffffff\n      and\n      0x23b872dd\n        /* \"contracts/DataPunk.sol\":6212:6222  msg.sender */\n      caller\n        /* \"contracts/DataPunk.sol\":6232:6236  this */\n      address\n        /* \"contracts/DataPunk.sol\":6239:6254  makeDatasePrice */\n      sload(0x01)\n        /* \"contracts/DataPunk.sol\":6190:6255  dpcToken.transferFrom(msg.sender, address(this), makeDatasePrice) */\n      mload(0x40)\n      dup5\n      0xffffffff\n      and\n      0xe0\n      shl\n      dup2\n      mstore\n      0x04\n      add\n      tag_113\n      swap4\n      swap3\n      swap2\n      swap1\n      tag_114\n      jump\t// in\n    tag_113:\n      0x20\n      mload(0x40)\n      dup1\n      dup4\n      sub\n      dup2\n      0x00\n      dup8\n      gas\n      call\n      iszero\n      dup1\n      iszero\n      tag_116\n      jumpi\n      returndatasize\n      0x00\n      dup1\n      returndatacopy\n      revert(0x00, returndatasize)\n    tag_116:\n      pop\n      pop\n      pop\n      pop\n      mload(0x40)\n      returndatasize\n      not(0x1f)\n      0x1f\n      dup3\n      add\n      and\n      dup3\n      add\n      dup1\n      0x40\n      mstore\n      pop\n      dup2\n      add\n      swap1\n      tag_117\n      swap2\n      swap1\n      tag_118\n      jump\t// in\n    tag_117:\n      pop\n        /* \"contracts/DataPunk.sol\":6295:6305  msg.sender */\n      caller\n        /* \"contracts/DataPunk.sol\":6271:6323  DatasetMaked(datasetId, msg.sender, makeDatasePrice) */\n      0xffffffffffffffffffffffffffffffffffffffff\n      and\n        /* \"contracts/DataPunk.sol\":6284:6293  datasetId */\n      dup2\n        /* \"contracts/DataPunk.sol\":6271:6323  DatasetMaked(datasetId, msg.sender, makeDatasePrice) */\n      0x571a5dfc09c77bbe59e7a00b078fec1a53f090e992ccacde1856dab24624c968\n        /* \"contracts/DataPunk.sol\":6307:6322  makeDatasePrice */\n      sload(0x01)\n        /* \"contracts/DataPunk.sol\":6271:6323  DatasetMaked(datasetId, msg.sender, makeDatasePrice) */\n      mload(0x40)\n      tag_119\n      swap2\n      swap1\n      tag_43\n      jump\t// in\n    tag_119:\n      mload(0x40)\n      dup1\n      swap2\n      sub\n      swap1\n      log3\n        /* \"contracts/DataPunk.sol\":5762:6330  {... */\n      pop\n      pop\n        /* \"contracts/DataPunk.sol\":5693:6330  function makeDataset(uint256 price, uint256 validationReward) public {... */\n      pop\n      pop\n      jump\t// out\n        /* \"contracts/DataPunk.sol\":4462:5133  function updateDataset(uint256 price, uint256 validationReward) public returns (uint256) {... */\n    tag_41:\n        /* \"contracts/DataPunk.sol\":4542:4549  uint256 */\n      0x00\n        /* \"contracts/DataPunk.sol\":4561:4588  address[] memory emptyArray */\n      0x60\n        /* \"contracts/DataPunk.sol\":4598:4606  datasets */\n      0x07\n        /* \"contracts/DataPunk.sol\":4612:4806  Dataset({... */\n      mload(0x40)\n      dup1\n      0xa0\n      add\n      0x40\n      mstore\n      dup1\n        /* \"contracts/DataPunk.sol\":4643:4653  msg.sender */\n      caller\n        /* \"contracts/DataPunk.sol\":4612:4806  Dataset({... */\n      0xffffffffffffffffffffffffffffffffffffffff\n      and\n      dup2\n      mstore\n      0x20\n      add\n        /* \"contracts/DataPunk.sol\":4674:4679  price */\n      dup7\n        /* \"contracts/DataPunk.sol\":4612:4806  Dataset({... */\n      dup2\n      mstore\n      0x20\n      add\n        /* \"contracts/DataPunk.sol\":4711:4727  validationReward */\n      dup6\n        /* \"contracts/DataPunk.sol\":4612:4806  Dataset({... */\n      dup2\n      mstore\n      0x20\n      add\n        /* \"contracts/DataPunk.sol\":4753:4763  emptyArray */\n      dup4\n        /* \"contracts/DataPunk.sol\":4612:4806  Dataset({... */\n      dup2\n      mstore\n      0x20\n      add\n        /* \"contracts/DataPunk.sol\":4790:4795  false */\n      0x00\n        /* \"contracts/DataPunk.sol\":4612:4806  Dataset({... */\n      iszero\n      iszero\n      dup2\n      mstore\n      pop\n        /* \"contracts/DataPunk.sol\":4598:4807  datasets.push(Dataset({... */\n      swap1\n      dup1\n      0x01\n      dup2\n      sload\n      add\n      dup1\n      dup3\n      sstore\n      dup1\n      swap2\n      pop\n      pop\n      0x01\n      swap1\n      sub\n      swap1\n      0x00\n      mstore\n      keccak256(0x00, 0x20)\n      swap1\n      0x05\n      mul\n      add\n      0x00\n      swap1\n      swap2\n      swap1\n      swap2\n      swap1\n      swap2\n      pop\n      0x00\n      dup3\n      add\n      mload\n      dup2\n      0x00\n      add\n      exp(0x0100, 0x00)\n      dup2\n      sload\n      dup2\n      0xffffffffffffffffffffffffffffffffffffffff\n      mul\n      not\n      and\n      swap1\n      dup4\n      0xffffffffffffffffffffffffffffffffffffffff\n      and\n      mul\n      or\n      swap1\n      sstore\n      pop\n      0x20\n      dup3\n      add\n      mload\n      dup2\n      0x01\n      add\n      sstore\n      0x40\n      dup3\n      add\n      mload\n      dup2\n      0x02\n      add\n      sstore\n      0x60\n      dup3\n      add\n      mload\n      dup2\n      0x03\n      add\n      swap1\n      dup1\n      mload\n      swap1\n      0x20\n      add\n      swap1\n      tag_122\n      swap3\n      swap2\n      swap1\n      tag_110\n      jump\t// in\n    tag_122:\n      pop\n      0x80\n      dup3\n      add\n      mload\n      dup2\n      0x04\n      add\n      exp(0x0100, 0x00)\n      dup2\n      sload\n      dup2\n      0xff\n      mul\n      not\n      and\n      swap1\n      dup4\n      iszero\n      iszero\n      mul\n      or\n      swap1\n      sstore\n      pop\n      pop\n      pop\n        /* \"contracts/DataPunk.sol\":4817:4834  uint256 datasetId */\n      0x00\n        /* \"contracts/DataPunk.sol\":4855:4856  1 */\n      0x01\n        /* \"contracts/DataPunk.sol\":4837:4845  datasets */\n      0x07\n        /* \"contracts/DataPunk.sol\":4837:4852  datasets.length */\n      dup1\n      sload\n      swap1\n      pop\n        /* \"contracts/DataPunk.sol\":4837:4856  datasets.length - 1 */\n      tag_123\n      swap2\n      swap1\n      tag_112\n      jump\t// in\n    tag_123:\n        /* \"contracts/DataPunk.sol\":4817:4856  uint256 datasetId = datasets.length - 1 */\n      swap1\n      pop\n        /* \"contracts/DataPunk.sol\":4939:4944  price */\n      dup5\n        /* \"contracts/DataPunk.sol\":4902:4910  dpcToken */\n      0x02\n      0x00\n      swap1\n      sload\n      swap1\n      0x0100\n      exp\n      swap1\n      div\n      0xffffffffffffffffffffffffffffffffffffffff\n      and\n        /* \"contracts/DataPunk.sol\":4902:4920  dpcToken.balanceOf */\n      0xffffffffffffffffffffffffffffffffffffffff\n      and\n      0x70a08231\n        /* \"contracts/DataPunk.sol\":4929:4933  this */\n      address\n        /* \"contracts/DataPunk.sol\":4902:4935  dpcToken.balanceOf(address(this)) */\n      mload(0x40)\n      dup3\n      0xffffffff\n      and\n      0xe0\n      shl\n      dup2\n      mstore\n      0x04\n      add\n      tag_124\n      swap2\n      swap1\n      tag_60\n      jump\t// in\n    tag_124:\n      0x20\n      mload(0x40)\n      dup1\n      dup4\n      sub\n      dup2\n      dup7\n      gas\n      staticcall\n      iszero\n      dup1\n      iszero\n      tag_126\n      jumpi\n      returndatasize\n      0x00\n      dup1\n      returndatacopy\n      revert(0x00, returndatasize)\n    tag_126:\n      pop\n      pop\n      pop\n      pop\n      mload(0x40)\n      returndatasize\n      not(0x1f)\n      0x1f\n      dup3\n      add\n      and\n      dup3\n      add\n      dup1\n      0x40\n      mstore\n      pop\n      dup2\n      add\n      swap1\n      tag_127\n      swap2\n      swap1\n      tag_104\n      jump\t// in\n    tag_127:\n        /* \"contracts/DataPunk.sol\":4902:4944  dpcToken.balanceOf(address(this)) >= price */\n      lt\n      iszero\n        /* \"contracts/DataPunk.sol\":4894:4988  require(dpcToken.balanceOf(address(this)) >= price, \"Contract has insufficient DPC to reward\") */\n      tag_128\n      jumpi\n      mload(0x40)\n      0x08c379a000000000000000000000000000000000000000000000000000000000\n      dup2\n      mstore\n      0x04\n      add\n      tag_129\n      swap1\n      tag_130\n      jump\t// in\n    tag_129:\n      mload(0x40)\n      dup1\n      swap2\n      sub\n      swap1\n      revert\n    tag_128:\n        /* \"contracts/DataPunk.sol\":4998:5006  dpcToken */\n      0x02\n      0x00\n      swap1\n      sload\n      swap1\n      0x0100\n      exp\n      swap1\n      div\n      0xffffffffffffffffffffffffffffffffffffffff\n      and\n        /* \"contracts/DataPunk.sol\":4998:5015  dpcToken.transfer */\n      0xffffffffffffffffffffffffffffffffffffffff\n      and\n      0xa9059cbb\n        /* \"contracts/DataPunk.sol\":5016:5026  msg.sender */\n      caller\n        /* \"contracts/DataPunk.sol\":5028:5040  UPDATAREWARD */\n      immutable(\"0xb04b25fbd922f0b2f3d5e6f436799268646bade75fac61aceac1565745d10265\")\n        /* \"contracts/DataPunk.sol\":4998:5041  dpcToken.transfer(msg.sender, UPDATAREWARD) */\n      mload(0x40)\n      dup4\n      0xffffffff\n      and\n      0xe0\n      shl\n      dup2\n      mstore\n      0x04\n      add\n      tag_131\n      swap3\n      swap2\n      swap1\n      tag_132\n      jump\t// in\n    tag_131:\n      0x20\n      mload(0x40)\n      dup1\n      dup4\n      sub\n      dup2\n      0x00\n      dup8\n      gas\n      call\n      iszero\n      dup1\n      iszero\n      tag_134\n      jumpi\n      returndatasize\n      0x00\n      dup1\n      returndatacopy\n      revert(0x00, returndatasize)\n    tag_134:\n      pop\n      pop\n      pop\n      pop\n      mload(0x40)\n      returndatasize\n      not(0x1f)\n      0x1f\n      dup3\n      add\n      and\n      dup3\n      add\n      dup1\n      0x40\n      mstore\n      pop\n      dup2\n      add\n      swap1\n      tag_135\n      swap2\n      swap1\n      tag_118\n      jump\t// in\n    tag_135:\n      pop\n        /* \"contracts/DataPunk.sol\":5082:5092  msg.sender */\n      caller\n        /* \"contracts/DataPunk.sol\":5057:5100  DatasetUpload(datasetId, msg.sender, price) */\n      0xffffffffffffffffffffffffffffffffffffffff\n      and\n        /* \"contracts/DataPunk.sol\":5071:5080  datasetId */\n      dup2\n        /* \"contracts/DataPunk.sol\":5057:5100  DatasetUpload(datasetId, msg.sender, price) */\n      0xf18e92c00977b9ca5951f9775e5cf053c54bdaec0794874261786ee3e9460ebd\n        /* \"contracts/DataPunk.sol\":5094:5099  price */\n      dup8\n        /* \"contracts/DataPunk.sol\":5057:5100  DatasetUpload(datasetId, msg.sender, price) */\n      mload(0x40)\n      tag_136\n      swap2\n      swap1\n      tag_43\n      jump\t// in\n    tag_136:\n      mload(0x40)\n      dup1\n      swap2\n      sub\n      swap1\n      log3\n        /* \"contracts/DataPunk.sol\":5117:5126  datasetId */\n      dup1\n        /* \"contracts/DataPunk.sol\":5110:5126  return datasetId */\n      swap3\n      pop\n      pop\n      pop\n        /* \"contracts/DataPunk.sol\":4462:5133  function updateDataset(uint256 price, uint256 validationReward) public returns (uint256) {... */\n      swap3\n      swap2\n      pop\n      pop\n      jump\t// out\n        /* \"contracts/DataPunk.sol\":5171:5664  function purchaseDataset(uint256 datasetId) public {... */\n    tag_46:\n        /* \"contracts/DataPunk.sol\":5232:5255  Dataset storage dataset */\n      0x00\n        /* \"contracts/DataPunk.sol\":5258:5266  datasets */\n      0x07\n        /* \"contracts/DataPunk.sol\":5267:5276  datasetId */\n      dup3\n        /* \"contracts/DataPunk.sol\":5258:5277  datasets[datasetId] */\n      dup2\n      sload\n      dup2\n      lt\n      tag_138\n      jumpi\n      tag_139\n      tag_140\n      jump\t// in\n    tag_139:\n    tag_138:\n      swap1\n      0x00\n      mstore\n      keccak256(0x00, 0x20)\n      swap1\n      0x05\n      mul\n      add\n        /* \"contracts/DataPunk.sol\":5232:5277  Dataset storage dataset = datasets[datasetId] */\n      swap1\n      pop\n        /* \"contracts/DataPunk.sol\":5329:5336  dataset */\n      dup1\n        /* \"contracts/DataPunk.sol\":5329:5342  dataset.price */\n      0x01\n      add\n      sload\n        /* \"contracts/DataPunk.sol\":5295:5303  dpcToken */\n      0x02\n      0x00\n      swap1\n      sload\n      swap1\n      0x0100\n      exp\n      swap1\n      div\n      0xffffffffffffffffffffffffffffffffffffffff\n      and\n        /* \"contracts/DataPunk.sol\":5295:5313  dpcToken.balanceOf */\n      0xffffffffffffffffffffffffffffffffffffffff\n      and\n      0x70a08231\n        /* \"contracts/DataPunk.sol\":5314:5324  msg.sender */\n      caller\n        /* \"contracts/DataPunk.sol\":5295:5325  dpcToken.balanceOf(msg.sender) */\n      mload(0x40)\n      dup3\n      0xffffffff\n      and\n      0xe0\n      shl\n      dup2\n      mstore\n      0x04\n      add\n      tag_142\n      swap2\n      swap1\n      tag_60\n      jump\t// in\n    tag_142:\n      0x20\n      mload(0x40)\n      dup1\n      dup4\n      sub\n      dup2\n      dup7\n      gas\n      staticcall\n      iszero\n      dup1\n      iszero\n      tag_144\n      jumpi\n      returndatasize\n      0x00\n      dup1\n      returndatacopy\n      revert(0x00, returndatasize)\n    tag_144:\n      pop\n      pop\n      pop\n      pop\n      mload(0x40)\n      returndatasize\n      not(0x1f)\n      0x1f\n      dup3\n      add\n      and\n      dup3\n      add\n      dup1\n      0x40\n      mstore\n      pop\n      dup2\n      add\n      swap1\n      tag_145\n      swap2\n      swap1\n      tag_104\n      jump\t// in\n    tag_145:\n        /* \"contracts/DataPunk.sol\":5295:5342  dpcToken.balanceOf(msg.sender) >= dataset.price */\n      lt\n      iszero\n        /* \"contracts/DataPunk.sol\":5287:5379  require(dpcToken.balanceOf(msg.sender) >= dataset.price, \"Insufficient balance to purchase\") */\n      tag_146\n      jumpi\n      mload(0x40)\n      0x08c379a000000000000000000000000000000000000000000000000000000000\n      dup2\n      mstore\n      0x04\n      add\n      tag_147\n      swap1\n      tag_107\n      jump\t// in\n    tag_147:\n      mload(0x40)\n      dup1\n      swap2\n      sub\n      swap1\n      revert\n    tag_146:\n        /* \"contracts/DataPunk.sol\":5411:5418  dataset */\n      dup1\n        /* \"contracts/DataPunk.sol\":5411:5426  dataset.creator */\n      0x00\n      add\n      0x00\n      swap1\n      sload\n      swap1\n      0x0100\n      exp\n      swap1\n      div\n      0xffffffffffffffffffffffffffffffffffffffff\n      and\n        /* \"contracts/DataPunk.sol\":5397:5426  msg.sender != dataset.creator */\n      0xffffffffffffffffffffffffffffffffffffffff\n      and\n        /* \"contracts/DataPunk.sol\":5397:5407  msg.sender */\n      caller\n        /* \"contracts/DataPunk.sol\":5397:5426  msg.sender != dataset.creator */\n      0xffffffffffffffffffffffffffffffffffffffff\n      and\n      sub\n        /* \"contracts/DataPunk.sol\":5389:5455  require(msg.sender != dataset.creator, \"Cannot buy yours dataset\") */\n      tag_148\n      jumpi\n      mload(0x40)\n      0x08c379a000000000000000000000000000000000000000000000000000000000\n      dup2\n      mstore\n      0x04\n      add\n      tag_149\n      swap1\n      tag_150\n      jump\t// in\n    tag_149:\n      mload(0x40)\n      dup1\n      swap2\n      sub\n      swap1\n      revert\n    tag_148:\n        /* \"contracts/DataPunk.sol\":5466:5474  dpcToken */\n      0x02\n      0x00\n      swap1\n      sload\n      swap1\n      0x0100\n      exp\n      swap1\n      div\n      0xffffffffffffffffffffffffffffffffffffffff\n      and\n        /* \"contracts/DataPunk.sol\":5466:5482  dpcToken.approve */\n      0xffffffffffffffffffffffffffffffffffffffff\n      and\n      0x095ea7b3\n        /* \"contracts/DataPunk.sol\":5491:5495  this */\n      address\n        /* \"contracts/DataPunk.sol\":5498:5505  dataset */\n      dup4\n        /* \"contracts/DataPunk.sol\":5498:5511  dataset.price */\n      0x01\n      add\n      sload\n        /* \"contracts/DataPunk.sol\":5466:5512  dpcToken.approve(address(this), dataset.price) */\n      mload(0x40)\n      dup4\n      0xffffffff\n      and\n      0xe0\n      shl\n      dup2\n      mstore\n      0x04\n      add\n      tag_151\n      swap3\n      swap2\n      swap1\n      tag_132\n      jump\t// in\n    tag_151:\n      0x20\n      mload(0x40)\n      dup1\n      dup4\n      sub\n      dup2\n      0x00\n      dup8\n      gas\n      call\n      iszero\n      dup1\n      iszero\n      tag_153\n      jumpi\n      returndatasize\n      0x00\n      dup1\n      returndatacopy\n      revert(0x00, returndatasize)\n    tag_153:\n      pop\n      pop\n      pop\n      pop\n      mload(0x40)\n      returndatasize\n      not(0x1f)\n      0x1f\n      dup3\n      add\n      and\n      dup3\n      add\n      dup1\n      0x40\n      mstore\n      pop\n      dup2\n      add\n      swap1\n      tag_154\n      swap2\n      swap1\n      tag_118\n      jump\t// in\n    tag_154:\n      pop\n        /* \"contracts/DataPunk.sol\":5522:5530  dpcToken */\n      0x02\n      0x00\n      swap1\n      sload\n      swap1\n      0x0100\n      exp\n      swap1\n      div\n      0xffffffffffffffffffffffffffffffffffffffff\n      and\n        /* \"contracts/DataPunk.sol\":5522:5543  dpcToken.transferFrom */\n      0xffffffffffffffffffffffffffffffffffffffff\n      and\n      0x23b872dd\n        /* \"contracts/DataPunk.sol\":5544:5554  msg.sender */\n      caller\n        /* \"contracts/DataPunk.sol\":5556:5563  dataset */\n      dup4\n        /* \"contracts/DataPunk.sol\":5556:5571  dataset.creator */\n      0x00\n      add\n      0x00\n      swap1\n      sload\n      swap1\n      0x0100\n      exp\n      swap1\n      div\n      0xffffffffffffffffffffffffffffffffffffffff\n      and\n        /* \"contracts/DataPunk.sol\":5573:5580  dataset */\n      dup5\n        /* \"contracts/DataPunk.sol\":5573:5586  dataset.price */\n      0x01\n      add\n      sload\n        /* \"contracts/DataPunk.sol\":5522:5587  dpcToken.transferFrom(msg.sender, dataset.creator, dataset.price) */\n      mload(0x40)\n      dup5\n      0xffffffff\n      and\n      0xe0\n      shl\n      dup2\n      mstore\n      0x04\n      add\n      tag_155\n      swap4\n      swap3\n      swap2\n      swap1\n      tag_114\n      jump\t// in\n    tag_155:\n      0x20\n      mload(0x40)\n      dup1\n      dup4\n      sub\n      dup2\n      0x00\n      dup8\n      gas\n      call\n      iszero\n      dup1\n      iszero\n      tag_157\n      jumpi\n      returndatasize\n      0x00\n      dup1\n      returndatacopy\n      revert(0x00, returndatasize)\n    tag_157:\n      pop\n      pop\n      pop\n      pop\n      mload(0x40)\n      returndatasize\n      not(0x1f)\n      0x1f\n      dup3\n      add\n      and\n      dup3\n      add\n      dup1\n      0x40\n      mstore\n      pop\n      dup2\n      add\n      swap1\n      tag_158\n      swap2\n      swap1\n      tag_118\n      jump\t// in\n    tag_158:\n      pop\n        /* \"contracts/DataPunk.sol\":5631:5641  msg.sender */\n      caller\n        /* \"contracts/DataPunk.sol\":5603:5657  DatasetPurchased(datasetId, msg.sender, dataset.price) */\n      0xffffffffffffffffffffffffffffffffffffffff\n      and\n        /* \"contracts/DataPunk.sol\":5620:5629  datasetId */\n      dup3\n        /* \"contracts/DataPunk.sol\":5603:5657  DatasetPurchased(datasetId, msg.sender, dataset.price) */\n      0x313d5c7bf54e15a1b7dc24a51b097c6458663a33e7a4be386f80fea411dcda65\n        /* \"contracts/DataPunk.sol\":5643:5650  dataset */\n      dup4\n        /* \"contracts/DataPunk.sol\":5643:5656  dataset.price */\n      0x01\n      add\n      sload\n        /* \"contracts/DataPunk.sol\":5603:5657  DatasetPurchased(datasetId, msg.sender, dataset.price) */\n      mload(0x40)\n      tag_159\n      swap2\n      swap1\n      tag_43\n      jump\t// in\n    tag_159:\n      mload(0x40)\n      dup1\n      swap2\n      sub\n      swap1\n      log3\n        /* \"contracts/DataPunk.sol\":5222:5664  {... */\n      pop\n        /* \"contracts/DataPunk.sol\":5171:5664  function purchaseDataset(uint256 datasetId) public {... */\n      pop\n      jump\t// out\n        /* \"contracts/DataPunk.sol\":3152:4003  function getAllDatasets() public view returns (... */\n    tag_48:\n        /* \"contracts/DataPunk.sol\":3208:3233  address[] memory creators */\n      0x60\n        /* \"contracts/DataPunk.sol\":3243:3266  uint256[] memory prices */\n      dup1\n        /* \"contracts/DataPunk.sol\":3276:3310  uint256[] memory validationRewards */\n      0x60\n        /* \"contracts/DataPunk.sol\":3320:3350  bool[] memory isValidatedFlags */\n      dup1\n        /* \"contracts/DataPunk.sol\":3367:3387  uint256 datasetCount */\n      0x00\n        /* \"contracts/DataPunk.sol\":3390:3398  datasets */\n      0x07\n        /* \"contracts/DataPunk.sol\":3390:3405  datasets.length */\n      dup1\n      sload\n      swap1\n      pop\n        /* \"contracts/DataPunk.sol\":3367:3405  uint256 datasetCount = datasets.length */\n      swap1\n      pop\n        /* \"contracts/DataPunk.sol\":3441:3453  datasetCount */\n      dup1\n        /* \"contracts/DataPunk.sol\":3427:3454  new address[](datasetCount) */\n      0xffffffffffffffff\n      dup2\n      gt\n      iszero\n      tag_161\n      jumpi\n      tag_162\n      tag_163\n      jump\t// in\n    tag_162:\n    tag_161:\n      mload(0x40)\n      swap1\n      dup1\n      dup3\n      mstore\n      dup1\n      0x20\n      mul\n      0x20\n      add\n      dup3\n      add\n      0x40\n      mstore\n      dup1\n      iszero\n      tag_164\n      jumpi\n      dup2\n      0x20\n      add\n      0x20\n      dup3\n      mul\n      dup1\n      calldatasize\n      dup4\n      calldatacopy\n      dup1\n      dup3\n      add\n      swap2\n      pop\n      pop\n      swap1\n      pop\n    tag_164:\n      pop\n        /* \"contracts/DataPunk.sol\":3416:3454  creators = new address[](datasetCount) */\n      swap5\n      pop\n        /* \"contracts/DataPunk.sol\":3487:3499  datasetCount */\n      dup1\n        /* \"contracts/DataPunk.sol\":3473:3500  new uint256[](datasetCount) */\n      0xffffffffffffffff\n      dup2\n      gt\n      iszero\n      tag_165\n      jumpi\n      tag_166\n      tag_163\n      jump\t// in\n    tag_166:\n    tag_165:\n      mload(0x40)\n      swap1\n      dup1\n      dup3\n      mstore\n      dup1\n      0x20\n      mul\n      0x20\n      add\n      dup3\n      add\n      0x40\n      mstore\n      dup1\n      iszero\n      tag_167\n      jumpi\n      dup2\n      0x20\n      add\n      0x20\n      dup3\n      mul\n      dup1\n      calldatasize\n      dup4\n      calldatacopy\n      dup1\n      dup3\n      add\n      swap2\n      pop\n      pop\n      swap1\n      pop\n    tag_167:\n      pop\n        /* \"contracts/DataPunk.sol\":3464:3500  prices = new uint256[](datasetCount) */\n      swap4\n      pop\n        /* \"contracts/DataPunk.sol\":3544:3556  datasetCount */\n      dup1\n        /* \"contracts/DataPunk.sol\":3530:3557  new uint256[](datasetCount) */\n      0xffffffffffffffff\n      dup2\n      gt\n      iszero\n      tag_168\n      jumpi\n      tag_169\n      tag_163\n      jump\t// in\n    tag_169:\n    tag_168:\n      mload(0x40)\n      swap1\n      dup1\n      dup3\n      mstore\n      dup1\n      0x20\n      mul\n      0x20\n      add\n      dup3\n      add\n      0x40\n      mstore\n      dup1\n      iszero\n      tag_170\n      jumpi\n      dup2\n      0x20\n      add\n      0x20\n      dup3\n      mul\n      dup1\n      calldatasize\n      dup4\n      calldatacopy\n      dup1\n      dup3\n      add\n      swap2\n      pop\n      pop\n      swap1\n      pop\n    tag_170:\n      pop\n        /* \"contracts/DataPunk.sol\":3510:3557  validationRewards = new uint256[](datasetCount) */\n      swap3\n      pop\n        /* \"contracts/DataPunk.sol\":3597:3609  datasetCount */\n      dup1\n        /* \"contracts/DataPunk.sol\":3586:3610  new bool[](datasetCount) */\n      0xffffffffffffffff\n      dup2\n      gt\n      iszero\n      tag_171\n      jumpi\n      tag_172\n      tag_163\n      jump\t// in\n    tag_172:\n    tag_171:\n      mload(0x40)\n      swap1\n      dup1\n      dup3\n      mstore\n      dup1\n      0x20\n      mul\n      0x20\n      add\n      dup3\n      add\n      0x40\n      mstore\n      dup1\n      iszero\n      tag_173\n      jumpi\n      dup2\n      0x20\n      add\n      0x20\n      dup3\n      mul\n      dup1\n      calldatasize\n      dup4\n      calldatacopy\n      dup1\n      dup3\n      add\n      swap2\n      pop\n      pop\n      swap1\n      pop\n    tag_173:\n      pop\n        /* \"contracts/DataPunk.sol\":3567:3610  isValidatedFlags = new bool[](datasetCount) */\n      swap2\n      pop\n        /* \"contracts/DataPunk.sol\":3626:3635  uint256 i */\n      0x00\n        /* \"contracts/DataPunk.sol\":3621:3924  for (uint256 i = 0; i < datasetCount; i++) {... */\n    tag_174:\n        /* \"contracts/DataPunk.sol\":3645:3657  datasetCount */\n      dup2\n        /* \"contracts/DataPunk.sol\":3641:3642  i */\n      dup2\n        /* \"contracts/DataPunk.sol\":3641:3657  i < datasetCount */\n      lt\n        /* \"contracts/DataPunk.sol\":3621:3924  for (uint256 i = 0; i < datasetCount; i++) {... */\n      iszero\n      tag_175\n      jumpi\n        /* \"contracts/DataPunk.sol\":3678:3701  Dataset storage dataset */\n      0x00\n        /* \"contracts/DataPunk.sol\":3704:3712  datasets */\n      0x07\n        /* \"contracts/DataPunk.sol\":3713:3714  i */\n      dup3\n        /* \"contracts/DataPunk.sol\":3704:3715  datasets[i] */\n      dup2\n      sload\n      dup2\n      lt\n      tag_177\n      jumpi\n      tag_178\n      tag_140\n      jump\t// in\n    tag_178:\n    tag_177:\n      swap1\n      0x00\n      mstore\n      keccak256(0x00, 0x20)\n      swap1\n      0x05\n      mul\n      add\n        /* \"contracts/DataPunk.sol\":3678:3715  Dataset storage dataset = datasets[i] */\n      swap1\n      pop\n        /* \"contracts/DataPunk.sol\":3743:3750  dataset */\n      dup1\n        /* \"contracts/DataPunk.sol\":3743:3758  dataset.creator */\n      0x00\n      add\n      0x00\n      swap1\n      sload\n      swap1\n      0x0100\n      exp\n      swap1\n      div\n      0xffffffffffffffffffffffffffffffffffffffff\n      and\n        /* \"contracts/DataPunk.sol\":3729:3737  creators */\n      dup8\n        /* \"contracts/DataPunk.sol\":3738:3739  i */\n      dup4\n        /* \"contracts/DataPunk.sol\":3729:3740  creators[i] */\n      dup2\n      mload\n      dup2\n      lt\n      tag_180\n      jumpi\n      tag_181\n      tag_140\n      jump\t// in\n    tag_181:\n    tag_180:\n      0x20\n      mul\n      0x20\n      add\n      add\n        /* \"contracts/DataPunk.sol\":3729:3758  creators[i] = dataset.creator */\n      swap1\n      0xffffffffffffffffffffffffffffffffffffffff\n      and\n      swap1\n      dup2\n      0xffffffffffffffffffffffffffffffffffffffff\n      and\n      dup2\n      mstore\n      pop\n      pop\n        /* \"contracts/DataPunk.sol\":3784:3791  dataset */\n      dup1\n        /* \"contracts/DataPunk.sol\":3784:3797  dataset.price */\n      0x01\n      add\n      sload\n        /* \"contracts/DataPunk.sol\":3772:3778  prices */\n      dup7\n        /* \"contracts/DataPunk.sol\":3779:3780  i */\n      dup4\n        /* \"contracts/DataPunk.sol\":3772:3781  prices[i] */\n      dup2\n      mload\n      dup2\n      lt\n      tag_182\n      jumpi\n      tag_183\n      tag_140\n      jump\t// in\n    tag_183:\n    tag_182:\n      0x20\n      mul\n      0x20\n      add\n      add\n        /* \"contracts/DataPunk.sol\":3772:3797  prices[i] = dataset.price */\n      dup2\n      dup2\n      mstore\n      pop\n      pop\n        /* \"contracts/DataPunk.sol\":3834:3841  dataset */\n      dup1\n        /* \"contracts/DataPunk.sol\":3834:3858  dataset.validationReward */\n      0x02\n      add\n      sload\n        /* \"contracts/DataPunk.sol\":3811:3828  validationRewards */\n      dup6\n        /* \"contracts/DataPunk.sol\":3829:3830  i */\n      dup4\n        /* \"contracts/DataPunk.sol\":3811:3831  validationRewards[i] */\n      dup2\n      mload\n      dup2\n      lt\n      tag_184\n      jumpi\n      tag_185\n      tag_140\n      jump\t// in\n    tag_185:\n    tag_184:\n      0x20\n      mul\n      0x20\n      add\n      add\n        /* \"contracts/DataPunk.sol\":3811:3858  validationRewards[i] = dataset.validationReward */\n      dup2\n      dup2\n      mstore\n      pop\n      pop\n        /* \"contracts/DataPunk.sol\":3894:3901  dataset */\n      dup1\n        /* \"contracts/DataPunk.sol\":3894:3913  dataset.isValidated */\n      0x04\n      add\n      0x00\n      swap1\n      sload\n      swap1\n      0x0100\n      exp\n      swap1\n      div\n      0xff\n      and\n        /* \"contracts/DataPunk.sol\":3872:3888  isValidatedFlags */\n      dup5\n        /* \"contracts/DataPunk.sol\":3889:3890  i */\n      dup4\n        /* \"contracts/DataPunk.sol\":3872:3891  isValidatedFlags[i] */\n      dup2\n      mload\n      dup2\n      lt\n      tag_186\n      jumpi\n      tag_187\n      tag_140\n      jump\t// in\n    tag_187:\n    tag_186:\n      0x20\n      mul\n      0x20\n      add\n      add\n        /* \"contracts/DataPunk.sol\":3872:3913  isValidatedFlags[i] = dataset.isValidated */\n      swap1\n      iszero\n      iszero\n      swap1\n      dup2\n      iszero\n      iszero\n      dup2\n      mstore\n      pop\n      pop\n        /* \"contracts/DataPunk.sol\":3664:3924  {... */\n      pop\n        /* \"contracts/DataPunk.sol\":3659:3662  i++ */\n      dup1\n      dup1\n      0x01\n      add\n      swap2\n      pop\n      pop\n        /* \"contracts/DataPunk.sol\":3621:3924  for (uint256 i = 0; i < datasetCount; i++) {... */\n      jump(tag_174)\n    tag_175:\n      pop\n        /* \"contracts/DataPunk.sol\":3934:3996  return (creators, prices, validationRewards, isValidatedFlags) */\n      pop\n        /* \"contracts/DataPunk.sol\":3152:4003  function getAllDatasets() public view returns (... */\n      swap1\n      swap2\n      swap3\n      swap4\n      jump\t// out\n        /* \"contracts/DataPunk.sol\":898:942  mapping(address => uint256) public balanceOf */\n    tag_54:\n      mstore(0x20, 0x05)\n      dup1\n      0x00\n      mstore\n      keccak256(0x00, 0x40)\n      0x00\n      swap2\n      pop\n      swap1\n      pop\n      sload\n      dup2\n      jump\t// out\n        /* \"contracts/DataPunk.sol\":768:801  address[] public publicValidators */\n    tag_58:\n      0x04\n      dup2\n      dup2\n      sload\n      dup2\n      lt\n      tag_188\n      jumpi\n      0x00\n      dup1\n      revert\n    tag_188:\n      swap1\n      0x00\n      mstore\n      keccak256(0x00, 0x20)\n      add\n      0x00\n      swap2\n      pop\n      sload\n      swap1\n      0x0100\n      exp\n      swap1\n      div\n      0xffffffffffffffffffffffffffffffffffffffff\n      and\n      dup2\n      jump\t// out\n        /* \"contracts/DataPunk.sol\":4304:4427  function getDPCBalanceOf(address account) public view returns (uint256) {... */\n    tag_63:\n        /* \"contracts/DataPunk.sol\":4367:4374  uint256 */\n      0x00\n        /* \"contracts/DataPunk.sol\":4393:4401  dpcToken */\n      0x02\n      0x00\n      swap1\n      sload\n      swap1\n      0x0100\n      exp\n      swap1\n      div\n      0xffffffffffffffffffffffffffffffffffffffff\n      and\n        /* \"contracts/DataPunk.sol\":4393:4411  dpcToken.balanceOf */\n      0xffffffffffffffffffffffffffffffffffffffff\n      and\n      0x70a08231\n        /* \"contracts/DataPunk.sol\":4412:4419  account */\n      dup4\n        /* \"contracts/DataPunk.sol\":4393:4420  dpcToken.balanceOf(account) */\n      mload(0x40)\n      dup3\n      0xffffffff\n      and\n      0xe0\n      shl\n      dup2\n      mstore\n      0x04\n      add\n      tag_191\n      swap2\n      swap1\n      tag_60\n      jump\t// in\n    tag_191:\n      0x20\n      mload(0x40)\n      dup1\n      dup4\n      sub\n      dup2\n      dup7\n      gas\n      staticcall\n      iszero\n      dup1\n      iszero\n      tag_193\n      jumpi\n      returndatasize\n      0x00\n      dup1\n      returndatacopy\n      revert(0x00, returndatasize)\n    tag_193:\n      pop\n      pop\n      pop\n      pop\n      mload(0x40)\n      returndatasize\n      not(0x1f)\n      0x1f\n      dup3\n      add\n      and\n      dup3\n      add\n      dup1\n      0x40\n      mstore\n      pop\n      dup2\n      add\n      swap1\n      tag_194\n      swap2\n      swap1\n      tag_104\n      jump\t// in\n    tag_194:\n        /* \"contracts/DataPunk.sol\":4386:4420  return dpcToken.balanceOf(account) */\n      swap1\n      pop\n        /* \"contracts/DataPunk.sol\":4304:4427  function getDPCBalanceOf(address account) public view returns (uint256) {... */\n      swap2\n      swap1\n      pop\n      jump\t// out\n        /* \"contracts/DataPunk.sol\":663:698  uint256 public makeDatasePrice = 10 */\n    tag_66:\n      sload(0x01)\n      dup2\n      jump\t// out\n        /* \"contracts/DataPunk.sol\":4053:4138  function owner() public view virtual returns (address) {... */\n    tag_69:\n        /* \"contracts/DataPunk.sol\":4099:4106  address */\n      0x00\n        /* \"contracts/DataPunk.sol\":4125:4131  _owner */\n      dup1\n      0x00\n      swap1\n      sload\n      swap1\n      0x0100\n      exp\n      swap1\n      div\n      0xffffffffffffffffffffffffffffffffffffffff\n      and\n        /* \"contracts/DataPunk.sol\":4118:4131  return _owner */\n      swap1\n      pop\n        /* \"contracts/DataPunk.sol\":4053:4138  function owner() public view virtual returns (address) {... */\n      swap1\n      jump\t// out\n        /* \"contracts/DataPunk.sol\":615:657  bool public isDataPunkCoinDeployed = false */\n    tag_72:\n      0x00\n      0x14\n      swap1\n      sload\n      swap1\n      0x0100\n      exp\n      swap1\n      div\n      0xff\n      and\n      dup2\n      jump\t// out\n        /* \"contracts/DataPunk.sol\":6546:7795  function validateDataset(uint256 datasetId) public {... */\n    tag_77:\n        /* \"contracts/DataPunk.sol\":6607:6630  Dataset storage dataset */\n      0x00\n        /* \"contracts/DataPunk.sol\":6633:6641  datasets */\n      0x07\n        /* \"contracts/DataPunk.sol\":6642:6651  datasetId */\n      dup3\n        /* \"contracts/DataPunk.sol\":6633:6652  datasets[datasetId] */\n      dup2\n      sload\n      dup2\n      lt\n      tag_197\n      jumpi\n      tag_198\n      tag_140\n      jump\t// in\n    tag_198:\n    tag_197:\n      swap1\n      0x00\n      mstore\n      keccak256(0x00, 0x20)\n      swap1\n      0x05\n      mul\n      add\n        /* \"contracts/DataPunk.sol\":6607:6652  Dataset storage dataset = datasets[datasetId] */\n      swap1\n      pop\n        /* \"contracts/DataPunk.sol\":6671:6678  dataset */\n      dup1\n        /* \"contracts/DataPunk.sol\":6671:6690  dataset.isValidated */\n      0x04\n      add\n      0x00\n      swap1\n      sload\n      swap1\n      0x0100\n      exp\n      swap1\n      div\n      0xff\n      and\n        /* \"contracts/DataPunk.sol\":6670:6690  !dataset.isValidated */\n      iszero\n        /* \"contracts/DataPunk.sol\":6662:6720  require(!dataset.isValidated, \"Dataset already validated\") */\n      tag_200\n      jumpi\n      mload(0x40)\n      0x08c379a000000000000000000000000000000000000000000000000000000000\n      dup2\n      mstore\n      0x04\n      add\n      tag_201\n      swap1\n      tag_202\n      jump\t// in\n    tag_201:\n      mload(0x40)\n      dup1\n      swap2\n      sub\n      swap1\n      revert\n    tag_200:\n        /* \"contracts/DataPunk.sol\":6788:6804  bool isValidator */\n      0x00\n        /* \"contracts/DataPunk.sol\":6827:6833  uint i */\n      dup1\n        /* \"contracts/DataPunk.sol\":6822:7010  for (uint i = 0; i < publicValidators.length; i++) {... */\n    tag_203:\n        /* \"contracts/DataPunk.sol\":6843:6859  publicValidators */\n      0x04\n        /* \"contracts/DataPunk.sol\":6843:6866  publicValidators.length */\n      dup1\n      sload\n      swap1\n      pop\n        /* \"contracts/DataPunk.sol\":6839:6840  i */\n      dup2\n        /* \"contracts/DataPunk.sol\":6839:6866  i < publicValidators.length */\n      lt\n        /* \"contracts/DataPunk.sol\":6822:7010  for (uint i = 0; i < publicValidators.length; i++) {... */\n      iszero\n      tag_204\n      jumpi\n        /* \"contracts/DataPunk.sol\":6914:6924  msg.sender */\n      caller\n        /* \"contracts/DataPunk.sol\":6891:6924  publicValidators[i] == msg.sender */\n      0xffffffffffffffffffffffffffffffffffffffff\n      and\n        /* \"contracts/DataPunk.sol\":6891:6907  publicValidators */\n      0x04\n        /* \"contracts/DataPunk.sol\":6908:6909  i */\n      dup3\n        /* \"contracts/DataPunk.sol\":6891:6910  publicValidators[i] */\n      dup2\n      sload\n      dup2\n      lt\n      tag_206\n      jumpi\n      tag_207\n      tag_140\n      jump\t// in\n    tag_207:\n    tag_206:\n      swap1\n      0x00\n      mstore\n      keccak256(0x00, 0x20)\n      add\n      0x00\n      swap1\n      sload\n      swap1\n      0x0100\n      exp\n      swap1\n      div\n      0xffffffffffffffffffffffffffffffffffffffff\n      and\n        /* \"contracts/DataPunk.sol\":6891:6924  publicValidators[i] == msg.sender */\n      0xffffffffffffffffffffffffffffffffffffffff\n      and\n      sub\n        /* \"contracts/DataPunk.sol\":6887:7000  if (publicValidators[i] == msg.sender) {... */\n      tag_209\n      jumpi\n        /* \"contracts/DataPunk.sol\":6958:6962  true */\n      0x01\n        /* \"contracts/DataPunk.sol\":6944:6962  isValidator = true */\n      swap2\n      pop\n        /* \"contracts/DataPunk.sol\":6980:6985  break */\n      jump(tag_204)\n        /* \"contracts/DataPunk.sol\":6887:7000  if (publicValidators[i] == msg.sender) {... */\n    tag_209:\n        /* \"contracts/DataPunk.sol\":6868:6871  i++ */\n      dup1\n      dup1\n      0x01\n      add\n      swap2\n      pop\n      pop\n        /* \"contracts/DataPunk.sol\":6822:7010  for (uint i = 0; i < publicValidators.length; i++) {... */\n      jump(tag_203)\n    tag_204:\n      pop\n        /* \"contracts/DataPunk.sol\":7027:7038  isValidator */\n      dup1\n        /* \"contracts/DataPunk.sol\":7019:7077  require(isValidator, \"You must be a registered validator\") */\n      tag_210\n      jumpi\n      mload(0x40)\n      0x08c379a000000000000000000000000000000000000000000000000000000000\n      dup2\n      mstore\n      0x04\n      add\n      tag_211\n      swap1\n      tag_212\n      jump\t// in\n    tag_211:\n      mload(0x40)\n      dup1\n      swap2\n      sub\n      swap1\n      revert\n    tag_210:\n        /* \"contracts/DataPunk.sol\":7166:7173  dataset */\n      dup2\n        /* \"contracts/DataPunk.sol\":7166:7181  dataset.creator */\n      0x00\n      add\n      0x00\n      swap1\n      sload\n      swap1\n      0x0100\n      exp\n      swap1\n      div\n      0xffffffffffffffffffffffffffffffffffffffff\n      and\n        /* \"contracts/DataPunk.sol\":7152:7181  msg.sender != dataset.creator */\n      0xffffffffffffffffffffffffffffffffffffffff\n      and\n        /* \"contracts/DataPunk.sol\":7152:7162  msg.sender */\n      caller\n        /* \"contracts/DataPunk.sol\":7152:7181  msg.sender != dataset.creator */\n      0xffffffffffffffffffffffffffffffffffffffff\n      and\n      sub\n        /* \"contracts/DataPunk.sol\":7144:7217  require(msg.sender != dataset.creator, \"Validator cannot be the creator\") */\n      tag_213\n      jumpi\n      mload(0x40)\n      0x08c379a000000000000000000000000000000000000000000000000000000000\n      dup2\n      mstore\n      0x04\n      add\n      tag_214\n      swap1\n      tag_215\n      jump\t// in\n    tag_214:\n      mload(0x40)\n      dup1\n      swap2\n      sub\n      swap1\n      revert\n    tag_213:\n        /* \"contracts/DataPunk.sol\":7288:7295  dataset */\n      dup2\n        /* \"contracts/DataPunk.sol\":7288:7306  dataset.validators */\n      0x03\n      add\n        /* \"contracts/DataPunk.sol\":7312:7322  msg.sender */\n      caller\n        /* \"contracts/DataPunk.sol\":7288:7323  dataset.validators.push(msg.sender) */\n      swap1\n      dup1\n      0x01\n      dup2\n      sload\n      add\n      dup1\n      dup3\n      sstore\n      dup1\n      swap2\n      pop\n      pop\n      0x01\n      swap1\n      sub\n      swap1\n      0x00\n      mstore\n      keccak256(0x00, 0x20)\n      add\n      0x00\n      swap1\n      swap2\n      swap1\n      swap2\n      swap1\n      swap2\n      0x0100\n      exp\n      dup2\n      sload\n      dup2\n      0xffffffffffffffffffffffffffffffffffffffff\n      mul\n      not\n      and\n      swap1\n      dup4\n      0xffffffffffffffffffffffffffffffffffffffff\n      and\n      mul\n      or\n      swap1\n      sstore\n      pop\n        /* \"contracts/DataPunk.sol\":7333:7341  dpcToken */\n      0x02\n      0x00\n      swap1\n      sload\n      swap1\n      0x0100\n      exp\n      swap1\n      div\n      0xffffffffffffffffffffffffffffffffffffffff\n      and\n        /* \"contracts/DataPunk.sol\":7333:7350  dpcToken.transfer */\n      0xffffffffffffffffffffffffffffffffffffffff\n      and\n      0xa9059cbb\n        /* \"contracts/DataPunk.sol\":7351:7361  msg.sender */\n      caller\n        /* \"contracts/DataPunk.sol\":7363:7370  dataset */\n      dup5\n        /* \"contracts/DataPunk.sol\":7363:7387  dataset.validationReward */\n      0x02\n      add\n      sload\n        /* \"contracts/DataPunk.sol\":7333:7388  dpcToken.transfer(msg.sender, dataset.validationReward) */\n      mload(0x40)\n      dup4\n      0xffffffff\n      and\n      0xe0\n      shl\n      dup2\n      mstore\n      0x04\n      add\n      tag_217\n      swap3\n      swap2\n      swap1\n      tag_132\n      jump\t// in\n    tag_217:\n      0x20\n      mload(0x40)\n      dup1\n      dup4\n      sub\n      dup2\n      0x00\n      dup8\n      gas\n      call\n      iszero\n      dup1\n      iszero\n      tag_219\n      jumpi\n      returndatasize\n      0x00\n      dup1\n      returndatacopy\n      revert(0x00, returndatasize)\n    tag_219:\n      pop\n      pop\n      pop\n      pop\n      mload(0x40)\n      returndatasize\n      not(0x1f)\n      0x1f\n      dup3\n      add\n      and\n      dup3\n      add\n      dup1\n      0x40\n      mstore\n      pop\n      dup2\n      add\n      swap1\n      tag_220\n      swap2\n      swap1\n      tag_118\n      jump\t// in\n    tag_220:\n      pop\n        /* \"contracts/DataPunk.sol\":7496:7500  true */\n      0x01\n        /* \"contracts/DataPunk.sol\":7474:7481  dataset */\n      dup3\n        /* \"contracts/DataPunk.sol\":7474:7493  dataset.isValidated */\n      0x04\n      add\n      0x00\n        /* \"contracts/DataPunk.sol\":7474:7500  dataset.isValidated = true */\n      0x0100\n      exp\n      dup2\n      sload\n      dup2\n      0xff\n      mul\n      not\n      and\n      swap1\n      dup4\n      iszero\n      iszero\n      mul\n      or\n      swap1\n      sstore\n      pop\n        /* \"contracts/DataPunk.sol\":7583:7590  dataset */\n      dup2\n        /* \"contracts/DataPunk.sol\":7583:7607  dataset.validationReward */\n      0x02\n      add\n      sload\n        /* \"contracts/DataPunk.sol\":7546:7554  dpcToken */\n      0x02\n      0x00\n      swap1\n      sload\n      swap1\n      0x0100\n      exp\n      swap1\n      div\n      0xffffffffffffffffffffffffffffffffffffffff\n      and\n        /* \"contracts/DataPunk.sol\":7546:7564  dpcToken.balanceOf */\n      0xffffffffffffffffffffffffffffffffffffffff\n      and\n      0x70a08231\n        /* \"contracts/DataPunk.sol\":7573:7577  this */\n      address\n        /* \"contracts/DataPunk.sol\":7546:7579  dpcToken.balanceOf(address(this)) */\n      mload(0x40)\n      dup3\n      0xffffffff\n      and\n      0xe0\n      shl\n      dup2\n      mstore\n      0x04\n      add\n      tag_221\n      swap2\n      swap1\n      tag_60\n      jump\t// in\n    tag_221:\n      0x20\n      mload(0x40)\n      dup1\n      dup4\n      sub\n      dup2\n      dup7\n      gas\n      staticcall\n      iszero\n      dup1\n      iszero\n      tag_223\n      jumpi\n      returndatasize\n      0x00\n      dup1\n      returndatacopy\n      revert(0x00, returndatasize)\n    tag_223:\n      pop\n      pop\n      pop\n      pop\n      mload(0x40)\n      returndatasize\n      not(0x1f)\n      0x1f\n      dup3\n      add\n      and\n      dup3\n      add\n      dup1\n      0x40\n      mstore\n      pop\n      dup2\n      add\n      swap1\n      tag_224\n      swap2\n      swap1\n      tag_104\n      jump\t// in\n    tag_224:\n        /* \"contracts/DataPunk.sol\":7546:7607  dpcToken.balanceOf(address(this)) >= dataset.validationReward */\n      lt\n      iszero\n        /* \"contracts/DataPunk.sol\":7538:7642  require(dpcToken.balanceOf(address(this)) >= dataset.validationReward, \"Insufficient balance to reward\") */\n      tag_225\n      jumpi\n      mload(0x40)\n      0x08c379a000000000000000000000000000000000000000000000000000000000\n      dup2\n      mstore\n      0x04\n      add\n      tag_226\n      swap1\n      tag_227\n      jump\t// in\n    tag_226:\n      mload(0x40)\n      dup1\n      swap2\n      sub\n      swap1\n      revert\n    tag_225:\n        /* \"contracts/DataPunk.sol\":7652:7660  dpcToken */\n      0x02\n      0x00\n      swap1\n      sload\n      swap1\n      0x0100\n      exp\n      swap1\n      div\n      0xffffffffffffffffffffffffffffffffffffffff\n      and\n        /* \"contracts/DataPunk.sol\":7652:7669  dpcToken.transfer */\n      0xffffffffffffffffffffffffffffffffffffffff\n      and\n      0xa9059cbb\n        /* \"contracts/DataPunk.sol\":7670:7680  msg.sender */\n      caller\n        /* \"contracts/DataPunk.sol\":7682:7689  dataset */\n      dup5\n        /* \"contracts/DataPunk.sol\":7682:7706  dataset.validationReward */\n      0x02\n      add\n      sload\n        /* \"contracts/DataPunk.sol\":7652:7707  dpcToken.transfer(msg.sender, dataset.validationReward) */\n      mload(0x40)\n      dup4\n      0xffffffff\n      and\n      0xe0\n      shl\n      dup2\n      mstore\n      0x04\n      add\n      tag_228\n      swap3\n      swap2\n      swap1\n      tag_132\n      jump\t// in\n    tag_228:\n      0x20\n      mload(0x40)\n      dup1\n      dup4\n      sub\n      dup2\n      0x00\n      dup8\n      gas\n      call\n      iszero\n      dup1\n      iszero\n      tag_230\n      jumpi\n      returndatasize\n      0x00\n      dup1\n      returndatacopy\n      revert(0x00, returndatasize)\n    tag_230:\n      pop\n      pop\n      pop\n      pop\n      mload(0x40)\n      returndatasize\n      not(0x1f)\n      0x1f\n      dup3\n      add\n      and\n      dup3\n      add\n      dup1\n      0x40\n      mstore\n      pop\n      dup2\n      add\n      swap1\n      tag_231\n      swap2\n      swap1\n      tag_118\n      jump\t// in\n    tag_231:\n      pop\n        /* \"contracts/DataPunk.sol\":7751:7761  msg.sender */\n      caller\n        /* \"contracts/DataPunk.sol\":7723:7788  DatasetValidated(datasetId, msg.sender, dataset.validationReward) */\n      0xffffffffffffffffffffffffffffffffffffffff\n      and\n        /* \"contracts/DataPunk.sol\":7740:7749  datasetId */\n      dup4\n        /* \"contracts/DataPunk.sol\":7723:7788  DatasetValidated(datasetId, msg.sender, dataset.validationReward) */\n      0x1dc73a35285fda24d55673e615930ad58eab11f47d6838526ffbd7d2c1847af4\n        /* \"contracts/DataPunk.sol\":7763:7770  dataset */\n      dup5\n        /* \"contracts/DataPunk.sol\":7763:7787  dataset.validationReward */\n      0x02\n      add\n      sload\n        /* \"contracts/DataPunk.sol\":7723:7788  DatasetValidated(datasetId, msg.sender, dataset.validationReward) */\n      mload(0x40)\n      tag_232\n      swap2\n      swap1\n      tag_43\n      jump\t// in\n    tag_232:\n      mload(0x40)\n      dup1\n      swap2\n      sub\n      swap1\n      log3\n        /* \"contracts/DataPunk.sol\":6597:7795  {... */\n      pop\n      pop\n        /* \"contracts/DataPunk.sol\":6546:7795  function validateDataset(uint256 datasetId) public {... */\n      pop\n      jump\t// out\n        /* \"contracts/DataPunk.sol\":732:762  address public dpcTokenAddress */\n    tag_79:\n      0x03\n      0x00\n      swap1\n      sload\n      swap1\n      0x0100\n      exp\n      swap1\n      div\n      0xffffffffffffffffffffffffffffffffffffffff\n      and\n      dup2\n      jump\t// out\n        /* \"contracts/DataPunk.sol\":2228:2960  function deployDataPunkCoin() public onlyOwner {... */\n    tag_82:\n        /* \"contracts/DataPunk.sol\":2081:2091  msg.sender */\n      caller\n        /* \"contracts/DataPunk.sol\":2070:2091  owner() == msg.sender */\n      0xffffffffffffffffffffffffffffffffffffffff\n      and\n        /* \"contracts/DataPunk.sol\":2070:2077  owner() */\n      tag_234\n        /* \"contracts/DataPunk.sol\":2070:2075  owner */\n      tag_69\n        /* \"contracts/DataPunk.sol\":2070:2077  owner() */\n      jump\t// in\n    tag_234:\n        /* \"contracts/DataPunk.sol\":2070:2091  owner() == msg.sender */\n      0xffffffffffffffffffffffffffffffffffffffff\n      and\n      eq\n        /* \"contracts/DataPunk.sol\":2062:2128  require(owner() == msg.sender, \"Ownable: caller is not the owner\") */\n      tag_235\n      jumpi\n      mload(0x40)\n      0x08c379a000000000000000000000000000000000000000000000000000000000\n      dup2\n      mstore\n      0x04\n      add\n      tag_236\n      swap1\n      tag_237\n      jump\t// in\n    tag_236:\n      mload(0x40)\n      dup1\n      swap2\n      sub\n      swap1\n      revert\n    tag_235:\n        /* \"contracts/DataPunk.sol\":2294:2316  isDataPunkCoinDeployed */\n      0x00\n      0x14\n      swap1\n      sload\n      swap1\n      0x0100\n      exp\n      swap1\n      div\n      0xff\n      and\n        /* \"contracts/DataPunk.sol\":2293:2316  !isDataPunkCoinDeployed */\n      iszero\n        /* \"contracts/DataPunk.sol\":2285:2359  require(!isDataPunkCoinDeployed, \"DataPunkCoin has already been deployed\") */\n      tag_239\n      jumpi\n      mload(0x40)\n      0x08c379a000000000000000000000000000000000000000000000000000000000\n      dup2\n      mstore\n      0x04\n      add\n      tag_240\n      swap1\n      tag_241\n      jump\t// in\n    tag_240:\n      mload(0x40)\n      dup1\n      swap2\n      sub\n      swap1\n      revert\n    tag_239:\n        /* \"contracts/DataPunk.sol\":2370:2399  DataPunkCoin dpcTokenContract */\n      0x00\n        /* \"contracts/DataPunk.sol\":2419:2428  SUMSUPPLY */\n      immutable(\"0x94bf69fb65508f6e4ddb8e9d68af175b29ca55b7385169421c8fce2c4390b244\")\n        /* \"contracts/DataPunk.sol\":2402:2429  new DataPunkCoin(SUMSUPPLY) */\n      mload(0x40)\n      tag_242\n      swap1\n      tag_243\n      jump\t// in\n    tag_242:\n      tag_244\n      swap2\n      swap1\n      tag_43\n      jump\t// in\n    tag_244:\n      mload(0x40)\n      dup1\n      swap2\n      sub\n      swap1\n      0x00\n      create\n      dup1\n      iszero\n      dup1\n      iszero\n      tag_245\n      jumpi\n      returndatasize\n      0x00\n      dup1\n      returndatacopy\n      revert(0x00, returndatasize)\n    tag_245:\n      pop\n        /* \"contracts/DataPunk.sol\":2370:2429  DataPunkCoin dpcTokenContract = new DataPunkCoin(SUMSUPPLY) */\n      swap1\n      pop\n        /* \"contracts/DataPunk.sol\":2465:2481  dpcTokenContract */\n      dup1\n        /* \"contracts/DataPunk.sol\":2439:2454  dpcTokenAddress */\n      0x03\n      0x00\n        /* \"contracts/DataPunk.sol\":2439:2482  dpcTokenAddress = address(dpcTokenContract) */\n      0x0100\n      exp\n      dup2\n      sload\n      dup2\n      0xffffffffffffffffffffffffffffffffffffffff\n      mul\n      not\n      and\n      swap1\n      dup4\n      0xffffffffffffffffffffffffffffffffffffffff\n      and\n      mul\n      or\n      swap1\n      sstore\n      pop\n        /* \"contracts/DataPunk.sol\":2510:2525  dpcTokenAddress */\n      0x03\n      0x00\n      swap1\n      sload\n      swap1\n      0x0100\n      exp\n      swap1\n      div\n      0xffffffffffffffffffffffffffffffffffffffff\n      and\n        /* \"contracts/DataPunk.sol\":2492:2500  dpcToken */\n      0x02\n      0x00\n        /* \"contracts/DataPunk.sol\":2492:2526  dpcToken = IERC20(dpcTokenAddress) */\n      0x0100\n      exp\n      dup2\n      sload\n      dup2\n      0xffffffffffffffffffffffffffffffffffffffff\n      mul\n      not\n      and\n      swap1\n      dup4\n      0xffffffffffffffffffffffffffffffffffffffff\n      and\n      mul\n      or\n      swap1\n      sstore\n      pop\n        /* \"contracts/DataPunk.sol\":2681:2689  dpcToken */\n      0x02\n      0x00\n      swap1\n      sload\n      swap1\n      0x0100\n      exp\n      swap1\n      div\n      0xffffffffffffffffffffffffffffffffffffffff\n      and\n        /* \"contracts/DataPunk.sol\":2681:2698  dpcToken.transfer */\n      0xffffffffffffffffffffffffffffffffffffffff\n      and\n      0xa9059cbb\n        /* \"contracts/DataPunk.sol\":2707:2711  this */\n      address\n        /* \"contracts/DataPunk.sol\":2714:2726  100 * 10**18 */\n      0x056bc75e2d63100000\n        /* \"contracts/DataPunk.sol\":2681:2727  dpcToken.transfer(address(this), 100 * 10**18) */\n      mload(0x40)\n      dup4\n      0xffffffff\n      and\n      0xe0\n      shl\n      dup2\n      mstore\n      0x04\n      add\n      tag_246\n      swap3\n      swap2\n      swap1\n      tag_247\n      jump\t// in\n    tag_246:\n      0x20\n      mload(0x40)\n      dup1\n      dup4\n      sub\n      dup2\n      0x00\n      dup8\n      gas\n      call\n      iszero\n      dup1\n      iszero\n      tag_249\n      jumpi\n      returndatasize\n      0x00\n      dup1\n      returndatacopy\n      revert(0x00, returndatasize)\n    tag_249:\n      pop\n      pop\n      pop\n      pop\n      mload(0x40)\n      returndatasize\n      not(0x1f)\n      0x1f\n      dup3\n      add\n      and\n      dup3\n      add\n      dup1\n      0x40\n      mstore\n      pop\n      dup2\n      add\n      swap1\n      tag_250\n      swap2\n      swap1\n      tag_118\n      jump\t// in\n    tag_250:\n      pop\n        /* \"contracts/DataPunk.sol\":2798:2806  dpcToken */\n      0x02\n      0x00\n      swap1\n      sload\n      swap1\n      0x0100\n      exp\n      swap1\n      div\n      0xffffffffffffffffffffffffffffffffffffffff\n      and\n        /* \"contracts/DataPunk.sol\":2798:2818  dpcToken.totalSupply */\n      0xffffffffffffffffffffffffffffffffffffffff\n      and\n      0x18160ddd\n        /* \"contracts/DataPunk.sol\":2798:2820  dpcToken.totalSupply() */\n      mload(0x40)\n      dup2\n      0xffffffff\n      and\n      0xe0\n      shl\n      dup2\n      mstore\n      0x04\n      add\n      0x20\n      mload(0x40)\n      dup1\n      dup4\n      sub\n      dup2\n      dup7\n      gas\n      staticcall\n      iszero\n      dup1\n      iszero\n      tag_252\n      jumpi\n      returndatasize\n      0x00\n      dup1\n      returndatacopy\n      revert(0x00, returndatasize)\n    tag_252:\n      pop\n      pop\n      pop\n      pop\n      mload(0x40)\n      returndatasize\n      not(0x1f)\n      0x1f\n      dup3\n      add\n      and\n      dup3\n      add\n      dup1\n      0x40\n      mstore\n      pop\n      dup2\n      add\n      swap1\n      tag_253\n      swap2\n      swap1\n      tag_104\n      jump\t// in\n    tag_253:\n        /* \"contracts/DataPunk.sol\":2771:2780  balanceOf */\n      0x05\n        /* \"contracts/DataPunk.sol\":2771:2795  balanceOf[address(this)] */\n      0x00\n        /* \"contracts/DataPunk.sol\":2789:2793  this */\n      address\n        /* \"contracts/DataPunk.sol\":2771:2795  balanceOf[address(this)] */\n      0xffffffffffffffffffffffffffffffffffffffff\n      and\n      0xffffffffffffffffffffffffffffffffffffffff\n      and\n      dup2\n      mstore\n      0x20\n      add\n      swap1\n      dup2\n      mstore\n      0x20\n      add\n      0x00\n      keccak256\n        /* \"contracts/DataPunk.sol\":2771:2820  balanceOf[address(this)] = dpcToken.totalSupply() */\n      dup2\n      swap1\n      sstore\n      pop\n        /* \"contracts/DataPunk.sol\":2856:2860  true */\n      0x01\n        /* \"contracts/DataPunk.sol\":2831:2853  isDataPunkCoinDeployed */\n      0x00\n      0x14\n        /* \"contracts/DataPunk.sol\":2831:2860  isDataPunkCoinDeployed = true */\n      0x0100\n      exp\n      dup2\n      sload\n      dup2\n      0xff\n      mul\n      not\n      and\n      swap1\n      dup4\n      iszero\n      iszero\n      mul\n      or\n      swap1\n      sstore\n      pop\n        /* \"contracts/DataPunk.sol\":2916:2953  DataPunkCoinDeployed(dpcTokenAddress) */\n      0x5a328b2a6ca99d3f214e0a041dcd254e948aa9a2e1b8b97233531b6a1d1872c9\n        /* \"contracts/DataPunk.sol\":2937:2952  dpcTokenAddress */\n      0x03\n      0x00\n      swap1\n      sload\n      swap1\n      0x0100\n      exp\n      swap1\n      div\n      0xffffffffffffffffffffffffffffffffffffffff\n      and\n        /* \"contracts/DataPunk.sol\":2916:2953  DataPunkCoinDeployed(dpcTokenAddress) */\n      mload(0x40)\n      tag_254\n      swap2\n      swap1\n      tag_60\n      jump\t// in\n    tag_254:\n      mload(0x40)\n      dup1\n      swap2\n      sub\n      swap1\n      log1\n        /* \"contracts/DataPunk.sol\":2275:2960  {... */\n      pop\n        /* \"contracts/DataPunk.sol\":2228:2960  function deployDataPunkCoin() public onlyOwner {... */\n      jump\t// out\n        /* \"contracts/DataPunk.sol\":948:1012  mapping(address => mapping(address => uint256)) public allowance */\n    tag_86:\n      mstore(0x20, 0x06)\n      dup2\n      0x00\n      mstore\n      mstore(0x20, keccak256(0x00, 0x40))\n      dup1\n      0x00\n      mstore\n      keccak256(0x00, 0x40)\n      0x00\n      swap2\n      pop\n      swap2\n      pop\n      pop\n      sload\n      dup2\n      jump\t// out\n        /* \"contracts/DataPunk.sol\":4168:4268  function getDPCSupply() public view returns (uint256) {... */\n    tag_89:\n        /* \"contracts/DataPunk.sol\":4213:4220  uint256 */\n      0x00\n        /* \"contracts/DataPunk.sol\":4239:4247  dpcToken */\n      0x02\n      0x00\n      swap1\n      sload\n      swap1\n      0x0100\n      exp\n      swap1\n      div\n      0xffffffffffffffffffffffffffffffffffffffff\n      and\n        /* \"contracts/DataPunk.sol\":4239:4259  dpcToken.totalSupply */\n      0xffffffffffffffffffffffffffffffffffffffff\n      and\n      0x18160ddd\n        /* \"contracts/DataPunk.sol\":4239:4261  dpcToken.totalSupply() */\n      mload(0x40)\n      dup2\n      0xffffffff\n      and\n      0xe0\n      shl\n      dup2\n      mstore\n      0x04\n      add\n      0x20\n      mload(0x40)\n      dup1\n      dup4\n      sub\n      dup2\n      dup7\n      gas\n      staticcall\n      iszero\n      dup1\n      iszero\n      tag_257\n      jumpi\n      returndatasize\n      0x00\n      dup1\n      returndatacopy\n      revert(0x00, returndatasize)\n    tag_257:\n      pop\n      pop\n      pop\n      pop\n      mload(0x40)\n      returndatasize\n      not(0x1f)\n      0x1f\n      dup3\n      add\n      and\n      dup3\n      add\n      dup1\n      0x40\n      mstore\n      pop\n      dup2\n      add\n      swap1\n      tag_258\n      swap2\n      swap1\n      tag_104\n      jump\t// in\n    tag_258:\n        /* \"contracts/DataPunk.sol\":4232:4261  return dpcToken.totalSupply() */\n      swap1\n      pop\n        /* \"contracts/DataPunk.sol\":4168:4268  function getDPCSupply() public view returns (uint256) {... */\n      swap1\n      jump\t// out\n        /* \"contracts/DataPunk.sol\":6383:6517  function registerAsValidator() public {... */\n    tag_92:\n        /* \"contracts/DataPunk.sol\":6431:6447  publicValidators */\n      0x04\n        /* \"contracts/DataPunk.sol\":6453:6463  msg.sender */\n      caller\n        /* \"contracts/DataPunk.sol\":6431:6464  publicValidators.push(msg.sender) */\n      swap1\n      dup1\n      0x01\n      dup2\n      sload\n      add\n      dup1\n      dup3\n      sstore\n      dup1\n      swap2\n      pop\n      pop\n      0x01\n      swap1\n      sub\n      swap1\n      0x00\n      mstore\n      keccak256(0x00, 0x20)\n      add\n      0x00\n      swap1\n      swap2\n      swap1\n      swap2\n      swap1\n      swap2\n      0x0100\n      exp\n      dup2\n      sload\n      dup2\n      0xffffffffffffffffffffffffffffffffffffffff\n      mul\n      not\n      and\n      swap1\n      dup4\n      0xffffffffffffffffffffffffffffffffffffffff\n      and\n      mul\n      or\n      swap1\n      sstore\n      pop\n        /* \"contracts/DataPunk.sol\":6499:6509  msg.sender */\n      caller\n        /* \"contracts/DataPunk.sol\":6479:6510  ValidatorRegistered(msg.sender) */\n      0xffffffffffffffffffffffffffffffffffffffff\n      and\n      0xd09501348473474a20c772c79c653e1fd7e8b437e418fe235d277d2c88853251\n      mload(0x40)\n      mload(0x40)\n      dup1\n      swap2\n      sub\n      swap1\n      log2\n        /* \"contracts/DataPunk.sol\":6383:6517  function registerAsValidator() public {... */\n      jump\t// out\n        /* \"contracts/DataPunk.sol\":3004:3111  function getAllValidators() public view returns (address[] memory) {... */\n    tag_94:\n        /* \"contracts/DataPunk.sol\":3053:3069  address[] memory */\n      0x60\n        /* \"contracts/DataPunk.sol\":3088:3104  publicValidators */\n      0x04\n        /* \"contracts/DataPunk.sol\":3081:3104  return publicValidators */\n      dup1\n      sload\n      dup1\n      0x20\n      mul\n      0x20\n      add\n      mload(0x40)\n      swap1\n      dup2\n      add\n      0x40\n      mstore\n      dup1\n      swap3\n      swap2\n      swap1\n      dup2\n      dup2\n      mstore\n      0x20\n      add\n      dup3\n      dup1\n      sload\n      dup1\n      iszero\n      tag_262\n      jumpi\n      0x20\n      mul\n      dup3\n      add\n      swap2\n      swap1\n      0x00\n      mstore\n      keccak256(0x00, 0x20)\n      swap1\n    tag_263:\n      dup2\n      0x00\n      swap1\n      sload\n      swap1\n      0x0100\n      exp\n      swap1\n      div\n      0xffffffffffffffffffffffffffffffffffffffff\n      and\n      0xffffffffffffffffffffffffffffffffffffffff\n      and\n      dup2\n      mstore\n      0x20\n      add\n      swap1\n      0x01\n      add\n      swap1\n      dup1\n      dup4\n      gt\n      tag_263\n      jumpi\n    tag_262:\n      pop\n      pop\n      pop\n      pop\n      pop\n      swap1\n      pop\n        /* \"contracts/DataPunk.sol\":3004:3111  function getAllValidators() public view returns (address[] memory) {... */\n      swap1\n      jump\t// out\n    tag_110:\n      dup3\n      dup1\n      sload\n      dup3\n      dup3\n      sstore\n      swap1\n      0x00\n      mstore\n      keccak256(0x00, 0x20)\n      swap1\n      dup2\n      add\n      swap3\n      dup3\n      iszero\n      tag_264\n      jumpi\n      swap2\n      0x20\n      mul\n      dup3\n      add\n    tag_265:\n      dup3\n      dup2\n      gt\n      iszero\n      tag_266\n      jumpi\n      dup3\n      mload\n      dup3\n      exp(0x0100, 0x00)\n      dup2\n      sload\n      dup2\n      0xffffffffffffffffffffffffffffffffffffffff\n      mul\n      not\n      and\n      swap1\n      dup4\n      0xffffffffffffffffffffffffffffffffffffffff\n      and\n      mul\n      or\n      swap1\n      sstore\n      pop\n      swap2\n      0x20\n      add\n      swap2\n      swap1\n      0x01\n      add\n      swap1\n      jump(tag_265)\n    tag_266:\n    tag_264:\n      pop\n      swap1\n      pop\n      tag_267\n      swap2\n      swap1\n      tag_268\n      jump\t// in\n    tag_267:\n      pop\n      swap1\n      jump\t// out\n    tag_243:\n      dataSize(sub_0)\n      dup1\n      dataOffset(sub_0)\n      dup4\n      codecopy\n      add\n      swap1\n      jump\t// out\n    tag_268:\n    tag_269:\n      dup1\n      dup3\n      gt\n      iszero\n      tag_270\n      jumpi\n      0x00\n      dup2\n      0x00\n      swap1\n      sstore\n      pop\n      0x01\n      add\n      jump(tag_269)\n    tag_270:\n      pop\n      swap1\n      jump\t// out\n        /* \"#utility.yul\":7:133   */\n    tag_271:\n        /* \"#utility.yul\":44:51   */\n      0x00\n        /* \"#utility.yul\":84:126   */\n      0xffffffffffffffffffffffffffffffffffffffff\n        /* \"#utility.yul\":77:82   */\n      dup3\n        /* \"#utility.yul\":73:127   */\n      and\n        /* \"#utility.yul\":62:127   */\n      swap1\n      pop\n        /* \"#utility.yul\":7:133   */\n      swap2\n      swap1\n      pop\n      jump\t// out\n        /* \"#utility.yul\":139:199   */\n    tag_272:\n        /* \"#utility.yul\":167:170   */\n      0x00\n        /* \"#utility.yul\":188:193   */\n      dup2\n        /* \"#utility.yul\":181:193   */\n      swap1\n      pop\n        /* \"#utility.yul\":139:199   */\n      swap2\n      swap1\n      pop\n      jump\t// out\n        /* \"#utility.yul\":205:347   */\n    tag_273:\n        /* \"#utility.yul\":255:264   */\n      0x00\n        /* \"#utility.yul\":288:341   */\n      tag_341\n        /* \"#utility.yul\":306:340   */\n      tag_342\n        /* \"#utility.yul\":315:339   */\n      tag_343\n        /* \"#utility.yul\":333:338   */\n      dup5\n        /* \"#utility.yul\":315:339   */\n      tag_271\n      jump\t// in\n    tag_343:\n        /* \"#utility.yul\":306:340   */\n      tag_272\n      jump\t// in\n    tag_342:\n        /* \"#utility.yul\":288:341   */\n      tag_271\n      jump\t// in\n    tag_341:\n        /* \"#utility.yul\":275:341   */\n      swap1\n      pop\n        /* \"#utility.yul\":205:347   */\n      swap2\n      swap1\n      pop\n      jump\t// out\n        /* \"#utility.yul\":353:479   */\n    tag_274:\n        /* \"#utility.yul\":403:412   */\n      0x00\n        /* \"#utility.yul\":436:473   */\n      tag_345\n        /* \"#utility.yul\":467:472   */\n      dup3\n        /* \"#utility.yul\":436:473   */\n      tag_273\n      jump\t// in\n    tag_345:\n        /* \"#utility.yul\":423:473   */\n      swap1\n      pop\n        /* \"#utility.yul\":353:479   */\n      swap2\n      swap1\n      pop\n      jump\t// out\n        /* \"#utility.yul\":485:625   */\n    tag_275:\n        /* \"#utility.yul\":549:558   */\n      0x00\n        /* \"#utility.yul\":582:619   */\n      tag_347\n        /* \"#utility.yul\":613:618   */\n      dup3\n        /* \"#utility.yul\":582:619   */\n      tag_274\n      jump\t// in\n    tag_347:\n        /* \"#utility.yul\":569:619   */\n      swap1\n      pop\n        /* \"#utility.yul\":485:625   */\n      swap2\n      swap1\n      pop\n      jump\t// out\n        /* \"#utility.yul\":631:790   */\n    tag_276:\n        /* \"#utility.yul\":732:783   */\n      tag_349\n        /* \"#utility.yul\":777:782   */\n      dup2\n        /* \"#utility.yul\":732:783   */\n      tag_275\n      jump\t// in\n    tag_349:\n        /* \"#utility.yul\":727:730   */\n      dup3\n        /* \"#utility.yul\":720:784   */\n      mstore\n        /* \"#utility.yul\":631:790   */\n      pop\n      pop\n      jump\t// out\n        /* \"#utility.yul\":796:1046   */\n    tag_28:\n        /* \"#utility.yul\":903:907   */\n      0x00\n        /* \"#utility.yul\":941:943   */\n      0x20\n        /* \"#utility.yul\":930:939   */\n      dup3\n        /* \"#utility.yul\":926:944   */\n      add\n        /* \"#utility.yul\":918:944   */\n      swap1\n      pop\n        /* \"#utility.yul\":954:1039   */\n      tag_351\n        /* \"#utility.yul\":1036:1037   */\n      0x00\n        /* \"#utility.yul\":1025:1034   */\n      dup4\n        /* \"#utility.yul\":1021:1038   */\n      add\n        /* \"#utility.yul\":1012:1018   */\n      dup5\n        /* \"#utility.yul\":954:1039   */\n      tag_276\n      jump\t// in\n    tag_351:\n        /* \"#utility.yul\":796:1046   */\n      swap3\n      swap2\n      pop\n      pop\n      jump\t// out\n        /* \"#utility.yul\":1133:1250   */\n    tag_278:\n        /* \"#utility.yul\":1242:1243   */\n      0x00\n        /* \"#utility.yul\":1239:1240   */\n      dup1\n        /* \"#utility.yul\":1232:1244   */\n      revert\n        /* \"#utility.yul\":1379:1456   */\n    tag_280:\n        /* \"#utility.yul\":1416:1423   */\n      0x00\n        /* \"#utility.yul\":1445:1450   */\n      dup2\n        /* \"#utility.yul\":1434:1450   */\n      swap1\n      pop\n        /* \"#utility.yul\":1379:1456   */\n      swap2\n      swap1\n      pop\n      jump\t// out\n        /* \"#utility.yul\":1462:1584   */\n    tag_281:\n        /* \"#utility.yul\":1535:1559   */\n      tag_357\n        /* \"#utility.yul\":1553:1558   */\n      dup2\n        /* \"#utility.yul\":1535:1559   */\n      tag_280\n      jump\t// in\n    tag_357:\n        /* \"#utility.yul\":1528:1533   */\n      dup2\n        /* \"#utility.yul\":1525:1560   */\n      eq\n        /* \"#utility.yul\":1515:1578   */\n      tag_358\n      jumpi\n        /* \"#utility.yul\":1574:1575   */\n      0x00\n        /* \"#utility.yul\":1571:1572   */\n      dup1\n        /* \"#utility.yul\":1564:1576   */\n      revert\n        /* \"#utility.yul\":1515:1578   */\n    tag_358:\n        /* \"#utility.yul\":1462:1584   */\n      pop\n      jump\t// out\n        /* \"#utility.yul\":1590:1729   */\n    tag_282:\n        /* \"#utility.yul\":1636:1641   */\n      0x00\n        /* \"#utility.yul\":1674:1680   */\n      dup2\n        /* \"#utility.yul\":1661:1681   */\n      calldataload\n        /* \"#utility.yul\":1652:1681   */\n      swap1\n      pop\n        /* \"#utility.yul\":1690:1723   */\n      tag_360\n        /* \"#utility.yul\":1717:1722   */\n      dup2\n        /* \"#utility.yul\":1690:1723   */\n      tag_281\n      jump\t// in\n    tag_360:\n        /* \"#utility.yul\":1590:1729   */\n      swap3\n      swap2\n      pop\n      pop\n      jump\t// out\n        /* \"#utility.yul\":1735:2064   */\n    tag_31:\n        /* \"#utility.yul\":1794:1800   */\n      0x00\n        /* \"#utility.yul\":1843:1845   */\n      0x20\n        /* \"#utility.yul\":1831:1840   */\n      dup3\n        /* \"#utility.yul\":1822:1829   */\n      dup5\n        /* \"#utility.yul\":1818:1841   */\n      sub\n        /* \"#utility.yul\":1814:1846   */\n      slt\n        /* \"#utility.yul\":1811:1930   */\n      iszero\n      tag_362\n      jumpi\n        /* \"#utility.yul\":1849:1928   */\n      tag_363\n      tag_278\n      jump\t// in\n    tag_363:\n        /* \"#utility.yul\":1811:1930   */\n    tag_362:\n        /* \"#utility.yul\":1969:1970   */\n      0x00\n        /* \"#utility.yul\":1994:2047   */\n      tag_364\n        /* \"#utility.yul\":2039:2046   */\n      dup5\n        /* \"#utility.yul\":2030:2036   */\n      dup3\n        /* \"#utility.yul\":2019:2028   */\n      dup6\n        /* \"#utility.yul\":2015:2037   */\n      add\n        /* \"#utility.yul\":1994:2047   */\n      tag_282\n      jump\t// in\n    tag_364:\n        /* \"#utility.yul\":1984:2047   */\n      swap2\n      pop\n        /* \"#utility.yul\":1940:2057   */\n      pop\n        /* \"#utility.yul\":1735:2064   */\n      swap3\n      swap2\n      pop\n      pop\n      jump\t// out\n        /* \"#utility.yul\":2070:2166   */\n    tag_283:\n        /* \"#utility.yul\":2107:2114   */\n      0x00\n        /* \"#utility.yul\":2136:2160   */\n      tag_366\n        /* \"#utility.yul\":2154:2159   */\n      dup3\n        /* \"#utility.yul\":2136:2160   */\n      tag_271\n      jump\t// in\n    tag_366:\n        /* \"#utility.yul\":2125:2160   */\n      swap1\n      pop\n        /* \"#utility.yul\":2070:2166   */\n      swap2\n      swap1\n      pop\n      jump\t// out\n        /* \"#utility.yul\":2172:2290   */\n    tag_284:\n        /* \"#utility.yul\":2259:2283   */\n      tag_368\n        /* \"#utility.yul\":2277:2282   */\n      dup2\n        /* \"#utility.yul\":2259:2283   */\n      tag_283\n      jump\t// in\n    tag_368:\n        /* \"#utility.yul\":2254:2257   */\n      dup3\n        /* \"#utility.yul\":2247:2284   */\n      mstore\n        /* \"#utility.yul\":2172:2290   */\n      pop\n      pop\n      jump\t// out\n        /* \"#utility.yul\":2296:2414   */\n    tag_285:\n        /* \"#utility.yul\":2383:2407   */\n      tag_370\n        /* \"#utility.yul\":2401:2406   */\n      dup2\n        /* \"#utility.yul\":2383:2407   */\n      tag_280\n      jump\t// in\n    tag_370:\n        /* \"#utility.yul\":2378:2381   */\n      dup3\n        /* \"#utility.yul\":2371:2408   */\n      mstore\n        /* \"#utility.yul\":2296:2414   */\n      pop\n      pop\n      jump\t// out\n        /* \"#utility.yul\":2420:2510   */\n    tag_286:\n        /* \"#utility.yul\":2454:2461   */\n      0x00\n        /* \"#utility.yul\":2497:2502   */\n      dup2\n        /* \"#utility.yul\":2490:2503   */\n      iszero\n        /* \"#utility.yul\":2483:2504   */\n      iszero\n        /* \"#utility.yul\":2472:2504   */\n      swap1\n      pop\n        /* \"#utility.yul\":2420:2510   */\n      swap2\n      swap1\n      pop\n      jump\t// out\n        /* \"#utility.yul\":2516:2625   */\n    tag_287:\n        /* \"#utility.yul\":2597:2618   */\n      tag_373\n        /* \"#utility.yul\":2612:2617   */\n      dup2\n        /* \"#utility.yul\":2597:2618   */\n      tag_286\n      jump\t// in\n    tag_373:\n        /* \"#utility.yul\":2592:2595   */\n      dup3\n        /* \"#utility.yul\":2585:2619   */\n      mstore\n        /* \"#utility.yul\":2516:2625   */\n      pop\n      pop\n      jump\t// out\n        /* \"#utility.yul\":2631:3172   */\n    tag_34:\n        /* \"#utility.yul\":2802:2806   */\n      0x00\n        /* \"#utility.yul\":2840:2843   */\n      0x80\n        /* \"#utility.yul\":2829:2838   */\n      dup3\n        /* \"#utility.yul\":2825:2844   */\n      add\n        /* \"#utility.yul\":2817:2844   */\n      swap1\n      pop\n        /* \"#utility.yul\":2854:2925   */\n      tag_375\n        /* \"#utility.yul\":2922:2923   */\n      0x00\n        /* \"#utility.yul\":2911:2920   */\n      dup4\n        /* \"#utility.yul\":2907:2924   */\n      add\n        /* \"#utility.yul\":2898:2904   */\n      dup8\n        /* \"#utility.yul\":2854:2925   */\n      tag_284\n      jump\t// in\n    tag_375:\n        /* \"#utility.yul\":2935:3007   */\n      tag_376\n        /* \"#utility.yul\":3003:3005   */\n      0x20\n        /* \"#utility.yul\":2992:3001   */\n      dup4\n        /* \"#utility.yul\":2988:3006   */\n      add\n        /* \"#utility.yul\":2979:2985   */\n      dup7\n        /* \"#utility.yul\":2935:3007   */\n      tag_285\n      jump\t// in\n    tag_376:\n        /* \"#utility.yul\":3017:3089   */\n      tag_377\n        /* \"#utility.yul\":3085:3087   */\n      0x40\n        /* \"#utility.yul\":3074:3083   */\n      dup4\n        /* \"#utility.yul\":3070:3088   */\n      add\n        /* \"#utility.yul\":3061:3067   */\n      dup6\n        /* \"#utility.yul\":3017:3089   */\n      tag_285\n      jump\t// in\n    tag_377:\n        /* \"#utility.yul\":3099:3165   */\n      tag_378\n        /* \"#utility.yul\":3161:3163   */\n      0x60\n        /* \"#utility.yul\":3150:3159   */\n      dup4\n        /* \"#utility.yul\":3146:3164   */\n      add\n        /* \"#utility.yul\":3137:3143   */\n      dup5\n        /* \"#utility.yul\":3099:3165   */\n      tag_287\n      jump\t// in\n    tag_378:\n        /* \"#utility.yul\":2631:3172   */\n      swap6\n      swap5\n      pop\n      pop\n      pop\n      pop\n      pop\n      jump\t// out\n        /* \"#utility.yul\":3178:3652   */\n    tag_37:\n        /* \"#utility.yul\":3246:3252   */\n      0x00\n        /* \"#utility.yul\":3254:3260   */\n      dup1\n        /* \"#utility.yul\":3303:3305   */\n      0x40\n        /* \"#utility.yul\":3291:3300   */\n      dup4\n        /* \"#utility.yul\":3282:3289   */\n      dup6\n        /* \"#utility.yul\":3278:3301   */\n      sub\n        /* \"#utility.yul\":3274:3306   */\n      slt\n        /* \"#utility.yul\":3271:3390   */\n      iszero\n      tag_380\n      jumpi\n        /* \"#utility.yul\":3309:3388   */\n      tag_381\n      tag_278\n      jump\t// in\n    tag_381:\n        /* \"#utility.yul\":3271:3390   */\n    tag_380:\n        /* \"#utility.yul\":3429:3430   */\n      0x00\n        /* \"#utility.yul\":3454:3507   */\n      tag_382\n        /* \"#utility.yul\":3499:3506   */\n      dup6\n        /* \"#utility.yul\":3490:3496   */\n      dup3\n        /* \"#utility.yul\":3479:3488   */\n      dup7\n        /* \"#utility.yul\":3475:3497   */\n      add\n        /* \"#utility.yul\":3454:3507   */\n      tag_282\n      jump\t// in\n    tag_382:\n        /* \"#utility.yul\":3444:3507   */\n      swap3\n      pop\n        /* \"#utility.yul\":3400:3517   */\n      pop\n        /* \"#utility.yul\":3556:3558   */\n      0x20\n        /* \"#utility.yul\":3582:3635   */\n      tag_383\n        /* \"#utility.yul\":3627:3634   */\n      dup6\n        /* \"#utility.yul\":3618:3624   */\n      dup3\n        /* \"#utility.yul\":3607:3616   */\n      dup7\n        /* \"#utility.yul\":3603:3625   */\n      add\n        /* \"#utility.yul\":3582:3635   */\n      tag_282\n      jump\t// in\n    tag_383:\n        /* \"#utility.yul\":3572:3635   */\n      swap2\n      pop\n        /* \"#utility.yul\":3527:3645   */\n      pop\n        /* \"#utility.yul\":3178:3652   */\n      swap3\n      pop\n      swap3\n      swap1\n      pop\n      jump\t// out\n        /* \"#utility.yul\":3658:3880   */\n    tag_43:\n        /* \"#utility.yul\":3751:3755   */\n      0x00\n        /* \"#utility.yul\":3789:3791   */\n      0x20\n        /* \"#utility.yul\":3778:3787   */\n      dup3\n        /* \"#utility.yul\":3774:3792   */\n      add\n        /* \"#utility.yul\":3766:3792   */\n      swap1\n      pop\n        /* \"#utility.yul\":3802:3873   */\n      tag_385\n        /* \"#utility.yul\":3870:3871   */\n      0x00\n        /* \"#utility.yul\":3859:3868   */\n      dup4\n        /* \"#utility.yul\":3855:3872   */\n      add\n        /* \"#utility.yul\":3846:3852   */\n      dup5\n        /* \"#utility.yul\":3802:3873   */\n      tag_285\n      jump\t// in\n    tag_385:\n        /* \"#utility.yul\":3658:3880   */\n      swap3\n      swap2\n      pop\n      pop\n      jump\t// out\n        /* \"#utility.yul\":3886:4000   */\n    tag_288:\n        /* \"#utility.yul\":3953:3959   */\n      0x00\n        /* \"#utility.yul\":3987:3992   */\n      dup2\n        /* \"#utility.yul\":3981:3993   */\n      mload\n        /* \"#utility.yul\":3971:3993   */\n      swap1\n      pop\n        /* \"#utility.yul\":3886:4000   */\n      swap2\n      swap1\n      pop\n      jump\t// out\n        /* \"#utility.yul\":4006:4190   */\n    tag_289:\n        /* \"#utility.yul\":4105:4116   */\n      0x00\n        /* \"#utility.yul\":4139:4145   */\n      dup3\n        /* \"#utility.yul\":4134:4137   */\n      dup3\n        /* \"#utility.yul\":4127:4146   */\n      mstore\n        /* \"#utility.yul\":4179:4183   */\n      0x20\n        /* \"#utility.yul\":4174:4177   */\n      dup3\n        /* \"#utility.yul\":4170:4184   */\n      add\n        /* \"#utility.yul\":4155:4184   */\n      swap1\n      pop\n        /* \"#utility.yul\":4006:4190   */\n      swap3\n      swap2\n      pop\n      pop\n      jump\t// out\n        /* \"#utility.yul\":4196:4328   */\n    tag_290:\n        /* \"#utility.yul\":4263:4267   */\n      0x00\n        /* \"#utility.yul\":4286:4289   */\n      dup2\n        /* \"#utility.yul\":4278:4289   */\n      swap1\n      pop\n        /* \"#utility.yul\":4316:4320   */\n      0x20\n        /* \"#utility.yul\":4311:4314   */\n      dup3\n        /* \"#utility.yul\":4307:4321   */\n      add\n        /* \"#utility.yul\":4299:4321   */\n      swap1\n      pop\n        /* \"#utility.yul\":4196:4328   */\n      swap2\n      swap1\n      pop\n      jump\t// out\n        /* \"#utility.yul\":4334:4442   */\n    tag_291:\n        /* \"#utility.yul\":4411:4435   */\n      tag_390\n        /* \"#utility.yul\":4429:4434   */\n      dup2\n        /* \"#utility.yul\":4411:4435   */\n      tag_283\n      jump\t// in\n    tag_390:\n        /* \"#utility.yul\":4406:4409   */\n      dup3\n        /* \"#utility.yul\":4399:4436   */\n      mstore\n        /* \"#utility.yul\":4334:4442   */\n      pop\n      pop\n      jump\t// out\n        /* \"#utility.yul\":4448:4627   */\n    tag_292:\n        /* \"#utility.yul\":4517:4527   */\n      0x00\n        /* \"#utility.yul\":4538:4584   */\n      tag_392\n        /* \"#utility.yul\":4580:4583   */\n      dup4\n        /* \"#utility.yul\":4572:4578   */\n      dup4\n        /* \"#utility.yul\":4538:4584   */\n      tag_291\n      jump\t// in\n    tag_392:\n        /* \"#utility.yul\":4616:4620   */\n      0x20\n        /* \"#utility.yul\":4611:4614   */\n      dup4\n        /* \"#utility.yul\":4607:4621   */\n      add\n        /* \"#utility.yul\":4593:4621   */\n      swap1\n      pop\n        /* \"#utility.yul\":4448:4627   */\n      swap3\n      swap2\n      pop\n      pop\n      jump\t// out\n        /* \"#utility.yul\":4633:4746   */\n    tag_293:\n        /* \"#utility.yul\":4703:4707   */\n      0x00\n        /* \"#utility.yul\":4735:4739   */\n      0x20\n        /* \"#utility.yul\":4730:4733   */\n      dup3\n        /* \"#utility.yul\":4726:4740   */\n      add\n        /* \"#utility.yul\":4718:4740   */\n      swap1\n      pop\n        /* \"#utility.yul\":4633:4746   */\n      swap2\n      swap1\n      pop\n      jump\t// out\n        /* \"#utility.yul\":4782:5514   */\n    tag_294:\n        /* \"#utility.yul\":4901:4904   */\n      0x00\n        /* \"#utility.yul\":4930:4984   */\n      tag_395\n        /* \"#utility.yul\":4978:4983   */\n      dup3\n        /* \"#utility.yul\":4930:4984   */\n      tag_288\n      jump\t// in\n    tag_395:\n        /* \"#utility.yul\":5000:5086   */\n      tag_396\n        /* \"#utility.yul\":5079:5085   */\n      dup2\n        /* \"#utility.yul\":5074:5077   */\n      dup6\n        /* \"#utility.yul\":5000:5086   */\n      tag_289\n      jump\t// in\n    tag_396:\n        /* \"#utility.yul\":4993:5086   */\n      swap4\n      pop\n        /* \"#utility.yul\":5110:5166   */\n      tag_397\n        /* \"#utility.yul\":5160:5165   */\n      dup4\n        /* \"#utility.yul\":5110:5166   */\n      tag_290\n      jump\t// in\n    tag_397:\n        /* \"#utility.yul\":5189:5196   */\n      dup1\n        /* \"#utility.yul\":5220:5221   */\n      0x00\n        /* \"#utility.yul\":5205:5489   */\n    tag_398:\n        /* \"#utility.yul\":5230:5236   */\n      dup4\n        /* \"#utility.yul\":5227:5228   */\n      dup2\n        /* \"#utility.yul\":5224:5237   */\n      lt\n        /* \"#utility.yul\":5205:5489   */\n      iszero\n      tag_400\n      jumpi\n        /* \"#utility.yul\":5306:5312   */\n      dup2\n        /* \"#utility.yul\":5300:5313   */\n      mload\n        /* \"#utility.yul\":5333:5396   */\n      tag_401\n        /* \"#utility.yul\":5392:5395   */\n      dup9\n        /* \"#utility.yul\":5377:5390   */\n      dup3\n        /* \"#utility.yul\":5333:5396   */\n      tag_292\n      jump\t// in\n    tag_401:\n        /* \"#utility.yul\":5326:5396   */\n      swap8\n      pop\n        /* \"#utility.yul\":5419:5479   */\n      tag_402\n        /* \"#utility.yul\":5472:5478   */\n      dup4\n        /* \"#utility.yul\":5419:5479   */\n      tag_293\n      jump\t// in\n    tag_402:\n        /* \"#utility.yul\":5409:5479   */\n      swap3\n      pop\n        /* \"#utility.yul\":5265:5489   */\n      pop\n        /* \"#utility.yul\":5252:5253   */\n      0x01\n        /* \"#utility.yul\":5249:5250   */\n      dup2\n        /* \"#utility.yul\":5245:5254   */\n      add\n        /* \"#utility.yul\":5240:5254   */\n      swap1\n      pop\n        /* \"#utility.yul\":5205:5489   */\n      jump(tag_398)\n    tag_400:\n        /* \"#utility.yul\":5209:5223   */\n      pop\n        /* \"#utility.yul\":5505:5508   */\n      dup6\n        /* \"#utility.yul\":5498:5508   */\n      swap4\n      pop\n        /* \"#utility.yul\":4906:5514   */\n      pop\n      pop\n      pop\n        /* \"#utility.yul\":4782:5514   */\n      swap3\n      swap2\n      pop\n      pop\n      jump\t// out\n        /* \"#utility.yul\":5520:5634   */\n    tag_295:\n        /* \"#utility.yul\":5587:5593   */\n      0x00\n        /* \"#utility.yul\":5621:5626   */\n      dup2\n        /* \"#utility.yul\":5615:5627   */\n      mload\n        /* \"#utility.yul\":5605:5627   */\n      swap1\n      pop\n        /* \"#utility.yul\":5520:5634   */\n      swap2\n      swap1\n      pop\n      jump\t// out\n        /* \"#utility.yul\":5640:5824   */\n    tag_296:\n        /* \"#utility.yul\":5739:5750   */\n      0x00\n        /* \"#utility.yul\":5773:5779   */\n      dup3\n        /* \"#utility.yul\":5768:5771   */\n      dup3\n        /* \"#utility.yul\":5761:5780   */\n      mstore\n        /* \"#utility.yul\":5813:5817   */\n      0x20\n        /* \"#utility.yul\":5808:5811   */\n      dup3\n        /* \"#utility.yul\":5804:5818   */\n      add\n        /* \"#utility.yul\":5789:5818   */\n      swap1\n      pop\n        /* \"#utility.yul\":5640:5824   */\n      swap3\n      swap2\n      pop\n      pop\n      jump\t// out\n        /* \"#utility.yul\":5830:5962   */\n    tag_297:\n        /* \"#utility.yul\":5897:5901   */\n      0x00\n        /* \"#utility.yul\":5920:5923   */\n      dup2\n        /* \"#utility.yul\":5912:5923   */\n      swap1\n      pop\n        /* \"#utility.yul\":5950:5954   */\n      0x20\n        /* \"#utility.yul\":5945:5948   */\n      dup3\n        /* \"#utility.yul\":5941:5955   */\n      add\n        /* \"#utility.yul\":5933:5955   */\n      swap1\n      pop\n        /* \"#utility.yul\":5830:5962   */\n      swap2\n      swap1\n      pop\n      jump\t// out\n        /* \"#utility.yul\":5968:6076   */\n    tag_298:\n        /* \"#utility.yul\":6045:6069   */\n      tag_407\n        /* \"#utility.yul\":6063:6068   */\n      dup2\n        /* \"#utility.yul\":6045:6069   */\n      tag_280\n      jump\t// in\n    tag_407:\n        /* \"#utility.yul\":6040:6043   */\n      dup3\n        /* \"#utility.yul\":6033:6070   */\n      mstore\n        /* \"#utility.yul\":5968:6076   */\n      pop\n      pop\n      jump\t// out\n        /* \"#utility.yul\":6082:6261   */\n    tag_299:\n        /* \"#utility.yul\":6151:6161   */\n      0x00\n        /* \"#utility.yul\":6172:6218   */\n      tag_409\n        /* \"#utility.yul\":6214:6217   */\n      dup4\n        /* \"#utility.yul\":6206:6212   */\n      dup4\n        /* \"#utility.yul\":6172:6218   */\n      tag_298\n      jump\t// in\n    tag_409:\n        /* \"#utility.yul\":6250:6254   */\n      0x20\n        /* \"#utility.yul\":6245:6248   */\n      dup4\n        /* \"#utility.yul\":6241:6255   */\n      add\n        /* \"#utility.yul\":6227:6255   */\n      swap1\n      pop\n        /* \"#utility.yul\":6082:6261   */\n      swap3\n      swap2\n      pop\n      pop\n      jump\t// out\n        /* \"#utility.yul\":6267:6380   */\n    tag_300:\n        /* \"#utility.yul\":6337:6341   */\n      0x00\n        /* \"#utility.yul\":6369:6373   */\n      0x20\n        /* \"#utility.yul\":6364:6367   */\n      dup3\n        /* \"#utility.yul\":6360:6374   */\n      add\n        /* \"#utility.yul\":6352:6374   */\n      swap1\n      pop\n        /* \"#utility.yul\":6267:6380   */\n      swap2\n      swap1\n      pop\n      jump\t// out\n        /* \"#utility.yul\":6416:7148   */\n    tag_301:\n        /* \"#utility.yul\":6535:6538   */\n      0x00\n        /* \"#utility.yul\":6564:6618   */\n      tag_412\n        /* \"#utility.yul\":6612:6617   */\n      dup3\n        /* \"#utility.yul\":6564:6618   */\n      tag_295\n      jump\t// in\n    tag_412:\n        /* \"#utility.yul\":6634:6720   */\n      tag_413\n        /* \"#utility.yul\":6713:6719   */\n      dup2\n        /* \"#utility.yul\":6708:6711   */\n      dup6\n        /* \"#utility.yul\":6634:6720   */\n      tag_296\n      jump\t// in\n    tag_413:\n        /* \"#utility.yul\":6627:6720   */\n      swap4\n      pop\n        /* \"#utility.yul\":6744:6800   */\n      tag_414\n        /* \"#utility.yul\":6794:6799   */\n      dup4\n        /* \"#utility.yul\":6744:6800   */\n      tag_297\n      jump\t// in\n    tag_414:\n        /* \"#utility.yul\":6823:6830   */\n      dup1\n        /* \"#utility.yul\":6854:6855   */\n      0x00\n        /* \"#utility.yul\":6839:7123   */\n    tag_415:\n        /* \"#utility.yul\":6864:6870   */\n      dup4\n        /* \"#utility.yul\":6861:6862   */\n      dup2\n        /* \"#utility.yul\":6858:6871   */\n      lt\n        /* \"#utility.yul\":6839:7123   */\n      iszero\n      tag_417\n      jumpi\n        /* \"#utility.yul\":6940:6946   */\n      dup2\n        /* \"#utility.yul\":6934:6947   */\n      mload\n        /* \"#utility.yul\":6967:7030   */\n      tag_418\n        /* \"#utility.yul\":7026:7029   */\n      dup9\n        /* \"#utility.yul\":7011:7024   */\n      dup3\n        /* \"#utility.yul\":6967:7030   */\n      tag_299\n      jump\t// in\n    tag_418:\n        /* \"#utility.yul\":6960:7030   */\n      swap8\n      pop\n        /* \"#utility.yul\":7053:7113   */\n      tag_419\n        /* \"#utility.yul\":7106:7112   */\n      dup4\n        /* \"#utility.yul\":7053:7113   */\n      tag_300\n      jump\t// in\n    tag_419:\n        /* \"#utility.yul\":7043:7113   */\n      swap3\n      pop\n        /* \"#utility.yul\":6899:7123   */\n      pop\n        /* \"#utility.yul\":6886:6887   */\n      0x01\n        /* \"#utility.yul\":6883:6884   */\n      dup2\n        /* \"#utility.yul\":6879:6888   */\n      add\n        /* \"#utility.yul\":6874:6888   */\n      swap1\n      pop\n        /* \"#utility.yul\":6839:7123   */\n      jump(tag_415)\n    tag_417:\n        /* \"#utility.yul\":6843:6857   */\n      pop\n        /* \"#utility.yul\":7139:7142   */\n      dup6\n        /* \"#utility.yul\":7132:7142   */\n      swap4\n      pop\n        /* \"#utility.yul\":6540:7148   */\n      pop\n      pop\n      pop\n        /* \"#utility.yul\":6416:7148   */\n      swap3\n      swap2\n      pop\n      pop\n      jump\t// out\n        /* \"#utility.yul\":7154:7265   */\n    tag_302:\n        /* \"#utility.yul\":7218:7224   */\n      0x00\n        /* \"#utility.yul\":7252:7257   */\n      dup2\n        /* \"#utility.yul\":7246:7258   */\n      mload\n        /* \"#utility.yul\":7236:7258   */\n      swap1\n      pop\n        /* \"#utility.yul\":7154:7265   */\n      swap2\n      swap1\n      pop\n      jump\t// out\n        /* \"#utility.yul\":7271:7452   */\n    tag_303:\n        /* \"#utility.yul\":7367:7378   */\n      0x00\n        /* \"#utility.yul\":7401:7407   */\n      dup3\n        /* \"#utility.yul\":7396:7399   */\n      dup3\n        /* \"#utility.yul\":7389:7408   */\n      mstore\n        /* \"#utility.yul\":7441:7445   */\n      0x20\n        /* \"#utility.yul\":7436:7439   */\n      dup3\n        /* \"#utility.yul\":7432:7446   */\n      add\n        /* \"#utility.yul\":7417:7446   */\n      swap1\n      pop\n        /* \"#utility.yul\":7271:7452   */\n      swap3\n      swap2\n      pop\n      pop\n      jump\t// out\n        /* \"#utility.yul\":7458:7587   */\n    tag_304:\n        /* \"#utility.yul\":7522:7526   */\n      0x00\n        /* \"#utility.yul\":7545:7548   */\n      dup2\n        /* \"#utility.yul\":7537:7548   */\n      swap1\n      pop\n        /* \"#utility.yul\":7575:7579   */\n      0x20\n        /* \"#utility.yul\":7570:7573   */\n      dup3\n        /* \"#utility.yul\":7566:7580   */\n      add\n        /* \"#utility.yul\":7558:7580   */\n      swap1\n      pop\n        /* \"#utility.yul\":7458:7587   */\n      swap2\n      swap1\n      pop\n      jump\t// out\n        /* \"#utility.yul\":7593:7692   */\n    tag_305:\n        /* \"#utility.yul\":7664:7685   */\n      tag_424\n        /* \"#utility.yul\":7679:7684   */\n      dup2\n        /* \"#utility.yul\":7664:7685   */\n      tag_286\n      jump\t// in\n    tag_424:\n        /* \"#utility.yul\":7659:7662   */\n      dup3\n        /* \"#utility.yul\":7652:7686   */\n      mstore\n        /* \"#utility.yul\":7593:7692   */\n      pop\n      pop\n      jump\t// out\n        /* \"#utility.yul\":7698:7865   */\n    tag_306:\n        /* \"#utility.yul\":7761:7771   */\n      0x00\n        /* \"#utility.yul\":7782:7822   */\n      tag_426\n        /* \"#utility.yul\":7818:7821   */\n      dup4\n        /* \"#utility.yul\":7810:7816   */\n      dup4\n        /* \"#utility.yul\":7782:7822   */\n      tag_305\n      jump\t// in\n    tag_426:\n        /* \"#utility.yul\":7854:7858   */\n      0x20\n        /* \"#utility.yul\":7849:7852   */\n      dup4\n        /* \"#utility.yul\":7845:7859   */\n      add\n        /* \"#utility.yul\":7831:7859   */\n      swap1\n      pop\n        /* \"#utility.yul\":7698:7865   */\n      swap3\n      swap2\n      pop\n      pop\n      jump\t// out\n        /* \"#utility.yul\":7871:7981   */\n    tag_307:\n        /* \"#utility.yul\":7938:7942   */\n      0x00\n        /* \"#utility.yul\":7970:7974   */\n      0x20\n        /* \"#utility.yul\":7965:7968   */\n      dup3\n        /* \"#utility.yul\":7961:7975   */\n      add\n        /* \"#utility.yul\":7953:7975   */\n      swap1\n      pop\n        /* \"#utility.yul\":7871:7981   */\n      swap2\n      swap1\n      pop\n      jump\t// out\n        /* \"#utility.yul\":8011:8719   */\n    tag_308:\n        /* \"#utility.yul\":8124:8127   */\n      0x00\n        /* \"#utility.yul\":8153:8204   */\n      tag_429\n        /* \"#utility.yul\":8198:8203   */\n      dup3\n        /* \"#utility.yul\":8153:8204   */\n      tag_302\n      jump\t// in\n    tag_429:\n        /* \"#utility.yul\":8220:8303   */\n      tag_430\n        /* \"#utility.yul\":8296:8302   */\n      dup2\n        /* \"#utility.yul\":8291:8294   */\n      dup6\n        /* \"#utility.yul\":8220:8303   */\n      tag_303\n      jump\t// in\n    tag_430:\n        /* \"#utility.yul\":8213:8303   */\n      swap4\n      pop\n        /* \"#utility.yul\":8327:8380   */\n      tag_431\n        /* \"#utility.yul\":8374:8379   */\n      dup4\n        /* \"#utility.yul\":8327:8380   */\n      tag_304\n      jump\t// in\n    tag_431:\n        /* \"#utility.yul\":8403:8410   */\n      dup1\n        /* \"#utility.yul\":8434:8435   */\n      0x00\n        /* \"#utility.yul\":8419:8694   */\n    tag_432:\n        /* \"#utility.yul\":8444:8450   */\n      dup4\n        /* \"#utility.yul\":8441:8442   */\n      dup2\n        /* \"#utility.yul\":8438:8451   */\n      lt\n        /* \"#utility.yul\":8419:8694   */\n      iszero\n      tag_434\n      jumpi\n        /* \"#utility.yul\":8520:8526   */\n      dup2\n        /* \"#utility.yul\":8514:8527   */\n      mload\n        /* \"#utility.yul\":8547:8604   */\n      tag_435\n        /* \"#utility.yul\":8600:8603   */\n      dup9\n        /* \"#utility.yul\":8585:8598   */\n      dup3\n        /* \"#utility.yul\":8547:8604   */\n      tag_306\n      jump\t// in\n    tag_435:\n        /* \"#utility.yul\":8540:8604   */\n      swap8\n      pop\n        /* \"#utility.yul\":8627:8684   */\n      tag_436\n        /* \"#utility.yul\":8677:8683   */\n      dup4\n        /* \"#utility.yul\":8627:8684   */\n      tag_307\n      jump\t// in\n    tag_436:\n        /* \"#utility.yul\":8617:8684   */\n      swap3\n      pop\n        /* \"#utility.yul\":8479:8694   */\n      pop\n        /* \"#utility.yul\":8466:8467   */\n      0x01\n        /* \"#utility.yul\":8463:8464   */\n      dup2\n        /* \"#utility.yul\":8459:8468   */\n      add\n        /* \"#utility.yul\":8454:8468   */\n      swap1\n      pop\n        /* \"#utility.yul\":8419:8694   */\n      jump(tag_432)\n    tag_434:\n        /* \"#utility.yul\":8423:8437   */\n      pop\n        /* \"#utility.yul\":8710:8713   */\n      dup6\n        /* \"#utility.yul\":8703:8713   */\n      swap4\n      pop\n        /* \"#utility.yul\":8129:8719   */\n      pop\n      pop\n      pop\n        /* \"#utility.yul\":8011:8719   */\n      swap3\n      swap2\n      pop\n      pop\n      jump\t// out\n        /* \"#utility.yul\":8725:9870   */\n    tag_50:\n        /* \"#utility.yul\":9096:9100   */\n      0x00\n        /* \"#utility.yul\":9134:9137   */\n      0x80\n        /* \"#utility.yul\":9123:9132   */\n      dup3\n        /* \"#utility.yul\":9119:9138   */\n      add\n        /* \"#utility.yul\":9111:9138   */\n      swap1\n      pop\n        /* \"#utility.yul\":9184:9193   */\n      dup2\n        /* \"#utility.yul\":9178:9182   */\n      dup2\n        /* \"#utility.yul\":9174:9194   */\n      sub\n        /* \"#utility.yul\":9170:9171   */\n      0x00\n        /* \"#utility.yul\":9159:9168   */\n      dup4\n        /* \"#utility.yul\":9155:9172   */\n      add\n        /* \"#utility.yul\":9148:9195   */\n      mstore\n        /* \"#utility.yul\":9212:9320   */\n      tag_438\n        /* \"#utility.yul\":9315:9319   */\n      dup2\n        /* \"#utility.yul\":9306:9312   */\n      dup8\n        /* \"#utility.yul\":9212:9320   */\n      tag_294\n      jump\t// in\n    tag_438:\n        /* \"#utility.yul\":9204:9320   */\n      swap1\n      pop\n        /* \"#utility.yul\":9367:9376   */\n      dup2\n        /* \"#utility.yul\":9361:9365   */\n      dup2\n        /* \"#utility.yul\":9357:9377   */\n      sub\n        /* \"#utility.yul\":9352:9354   */\n      0x20\n        /* \"#utility.yul\":9341:9350   */\n      dup4\n        /* \"#utility.yul\":9337:9355   */\n      add\n        /* \"#utility.yul\":9330:9378   */\n      mstore\n        /* \"#utility.yul\":9395:9503   */\n      tag_439\n        /* \"#utility.yul\":9498:9502   */\n      dup2\n        /* \"#utility.yul\":9489:9495   */\n      dup7\n        /* \"#utility.yul\":9395:9503   */\n      tag_301\n      jump\t// in\n    tag_439:\n        /* \"#utility.yul\":9387:9503   */\n      swap1\n      pop\n        /* \"#utility.yul\":9550:9559   */\n      dup2\n        /* \"#utility.yul\":9544:9548   */\n      dup2\n        /* \"#utility.yul\":9540:9560   */\n      sub\n        /* \"#utility.yul\":9535:9537   */\n      0x40\n        /* \"#utility.yul\":9524:9533   */\n      dup4\n        /* \"#utility.yul\":9520:9538   */\n      add\n        /* \"#utility.yul\":9513:9561   */\n      mstore\n        /* \"#utility.yul\":9578:9686   */\n      tag_440\n        /* \"#utility.yul\":9681:9685   */\n      dup2\n        /* \"#utility.yul\":9672:9678   */\n      dup6\n        /* \"#utility.yul\":9578:9686   */\n      tag_301\n      jump\t// in\n    tag_440:\n        /* \"#utility.yul\":9570:9686   */\n      swap1\n      pop\n        /* \"#utility.yul\":9733:9742   */\n      dup2\n        /* \"#utility.yul\":9727:9731   */\n      dup2\n        /* \"#utility.yul\":9723:9743   */\n      sub\n        /* \"#utility.yul\":9718:9720   */\n      0x60\n        /* \"#utility.yul\":9707:9716   */\n      dup4\n        /* \"#utility.yul\":9703:9721   */\n      add\n        /* \"#utility.yul\":9696:9744   */\n      mstore\n        /* \"#utility.yul\":9761:9863   */\n      tag_441\n        /* \"#utility.yul\":9858:9862   */\n      dup2\n        /* \"#utility.yul\":9849:9855   */\n      dup5\n        /* \"#utility.yul\":9761:9863   */\n      tag_308\n      jump\t// in\n    tag_441:\n        /* \"#utility.yul\":9753:9863   */\n      swap1\n      pop\n        /* \"#utility.yul\":8725:9870   */\n      swap6\n      swap5\n      pop\n      pop\n      pop\n      pop\n      pop\n      jump\t// out\n        /* \"#utility.yul\":9876:9998   */\n    tag_309:\n        /* \"#utility.yul\":9949:9973   */\n      tag_443\n        /* \"#utility.yul\":9967:9972   */\n      dup2\n        /* \"#utility.yul\":9949:9973   */\n      tag_283\n      jump\t// in\n    tag_443:\n        /* \"#utility.yul\":9942:9947   */\n      dup2\n        /* \"#utility.yul\":9939:9974   */\n      eq\n        /* \"#utility.yul\":9929:9992   */\n      tag_444\n      jumpi\n        /* \"#utility.yul\":9988:9989   */\n      0x00\n        /* \"#utility.yul\":9985:9986   */\n      dup1\n        /* \"#utility.yul\":9978:9990   */\n      revert\n        /* \"#utility.yul\":9929:9992   */\n    tag_444:\n        /* \"#utility.yul\":9876:9998   */\n      pop\n      jump\t// out\n        /* \"#utility.yul\":10004:10143   */\n    tag_310:\n        /* \"#utility.yul\":10050:10055   */\n      0x00\n        /* \"#utility.yul\":10088:10094   */\n      dup2\n        /* \"#utility.yul\":10075:10095   */\n      calldataload\n        /* \"#utility.yul\":10066:10095   */\n      swap1\n      pop\n        /* \"#utility.yul\":10104:10137   */\n      tag_446\n        /* \"#utility.yul\":10131:10136   */\n      dup2\n        /* \"#utility.yul\":10104:10137   */\n      tag_309\n      jump\t// in\n    tag_446:\n        /* \"#utility.yul\":10004:10143   */\n      swap3\n      swap2\n      pop\n      pop\n      jump\t// out\n        /* \"#utility.yul\":10149:10478   */\n    tag_53:\n        /* \"#utility.yul\":10208:10214   */\n      0x00\n        /* \"#utility.yul\":10257:10259   */\n      0x20\n        /* \"#utility.yul\":10245:10254   */\n      dup3\n        /* \"#utility.yul\":10236:10243   */\n      dup5\n        /* \"#utility.yul\":10232:10255   */\n      sub\n        /* \"#utility.yul\":10228:10260   */\n      slt\n        /* \"#utility.yul\":10225:10344   */\n      iszero\n      tag_448\n      jumpi\n        /* \"#utility.yul\":10263:10342   */\n      tag_449\n      tag_278\n      jump\t// in\n    tag_449:\n        /* \"#utility.yul\":10225:10344   */\n    tag_448:\n        /* \"#utility.yul\":10383:10384   */\n      0x00\n        /* \"#utility.yul\":10408:10461   */\n      tag_450\n        /* \"#utility.yul\":10453:10460   */\n      dup5\n        /* \"#utility.yul\":10444:10450   */\n      dup3\n        /* \"#utility.yul\":10433:10442   */\n      dup6\n        /* \"#utility.yul\":10429:10451   */\n      add\n        /* \"#utility.yul\":10408:10461   */\n      tag_310\n      jump\t// in\n    tag_450:\n        /* \"#utility.yul\":10398:10461   */\n      swap2\n      pop\n        /* \"#utility.yul\":10354:10471   */\n      pop\n        /* \"#utility.yul\":10149:10478   */\n      swap3\n      swap2\n      pop\n      pop\n      jump\t// out\n        /* \"#utility.yul\":10484:10706   */\n    tag_60:\n        /* \"#utility.yul\":10577:10581   */\n      0x00\n        /* \"#utility.yul\":10615:10617   */\n      0x20\n        /* \"#utility.yul\":10604:10613   */\n      dup3\n        /* \"#utility.yul\":10600:10618   */\n      add\n        /* \"#utility.yul\":10592:10618   */\n      swap1\n      pop\n        /* \"#utility.yul\":10628:10699   */\n      tag_452\n        /* \"#utility.yul\":10696:10697   */\n      0x00\n        /* \"#utility.yul\":10685:10694   */\n      dup4\n        /* \"#utility.yul\":10681:10698   */\n      add\n        /* \"#utility.yul\":10672:10678   */\n      dup5\n        /* \"#utility.yul\":10628:10699   */\n      tag_284\n      jump\t// in\n    tag_452:\n        /* \"#utility.yul\":10484:10706   */\n      swap3\n      swap2\n      pop\n      pop\n      jump\t// out\n        /* \"#utility.yul\":10712:10922   */\n    tag_74:\n        /* \"#utility.yul\":10799:10803   */\n      0x00\n        /* \"#utility.yul\":10837:10839   */\n      0x20\n        /* \"#utility.yul\":10826:10835   */\n      dup3\n        /* \"#utility.yul\":10822:10840   */\n      add\n        /* \"#utility.yul\":10814:10840   */\n      swap1\n      pop\n        /* \"#utility.yul\":10850:10915   */\n      tag_454\n        /* \"#utility.yul\":10912:10913   */\n      0x00\n        /* \"#utility.yul\":10901:10910   */\n      dup4\n        /* \"#utility.yul\":10897:10914   */\n      add\n        /* \"#utility.yul\":10888:10894   */\n      dup5\n        /* \"#utility.yul\":10850:10915   */\n      tag_287\n      jump\t// in\n    tag_454:\n        /* \"#utility.yul\":10712:10922   */\n      swap3\n      swap2\n      pop\n      pop\n      jump\t// out\n        /* \"#utility.yul\":10928:11402   */\n    tag_85:\n        /* \"#utility.yul\":10996:11002   */\n      0x00\n        /* \"#utility.yul\":11004:11010   */\n      dup1\n        /* \"#utility.yul\":11053:11055   */\n      0x40\n        /* \"#utility.yul\":11041:11050   */\n      dup4\n        /* \"#utility.yul\":11032:11039   */\n      dup6\n        /* \"#utility.yul\":11028:11051   */\n      sub\n        /* \"#utility.yul\":11024:11056   */\n      slt\n        /* \"#utility.yul\":11021:11140   */\n      iszero\n      tag_456\n      jumpi\n        /* \"#utility.yul\":11059:11138   */\n      tag_457\n      tag_278\n      jump\t// in\n    tag_457:\n        /* \"#utility.yul\":11021:11140   */\n    tag_456:\n        /* \"#utility.yul\":11179:11180   */\n      0x00\n        /* \"#utility.yul\":11204:11257   */\n      tag_458\n        /* \"#utility.yul\":11249:11256   */\n      dup6\n        /* \"#utility.yul\":11240:11246   */\n      dup3\n        /* \"#utility.yul\":11229:11238   */\n      dup7\n        /* \"#utility.yul\":11225:11247   */\n      add\n        /* \"#utility.yul\":11204:11257   */\n      tag_310\n      jump\t// in\n    tag_458:\n        /* \"#utility.yul\":11194:11257   */\n      swap3\n      pop\n        /* \"#utility.yul\":11150:11267   */\n      pop\n        /* \"#utility.yul\":11306:11308   */\n      0x20\n        /* \"#utility.yul\":11332:11385   */\n      tag_459\n        /* \"#utility.yul\":11377:11384   */\n      dup6\n        /* \"#utility.yul\":11368:11374   */\n      dup3\n        /* \"#utility.yul\":11357:11366   */\n      dup7\n        /* \"#utility.yul\":11353:11375   */\n      add\n        /* \"#utility.yul\":11332:11385   */\n      tag_310\n      jump\t// in\n    tag_459:\n        /* \"#utility.yul\":11322:11385   */\n      swap2\n      pop\n        /* \"#utility.yul\":11277:11395   */\n      pop\n        /* \"#utility.yul\":10928:11402   */\n      swap3\n      pop\n      swap3\n      swap1\n      pop\n      jump\t// out\n        /* \"#utility.yul\":11408:11781   */\n    tag_96:\n        /* \"#utility.yul\":11551:11555   */\n      0x00\n        /* \"#utility.yul\":11589:11591   */\n      0x20\n        /* \"#utility.yul\":11578:11587   */\n      dup3\n        /* \"#utility.yul\":11574:11592   */\n      add\n        /* \"#utility.yul\":11566:11592   */\n      swap1\n      pop\n        /* \"#utility.yul\":11638:11647   */\n      dup2\n        /* \"#utility.yul\":11632:11636   */\n      dup2\n        /* \"#utility.yul\":11628:11648   */\n      sub\n        /* \"#utility.yul\":11624:11625   */\n      0x00\n        /* \"#utility.yul\":11613:11622   */\n      dup4\n        /* \"#utility.yul\":11609:11626   */\n      add\n        /* \"#utility.yul\":11602:11649   */\n      mstore\n        /* \"#utility.yul\":11666:11774   */\n      tag_461\n        /* \"#utility.yul\":11769:11773   */\n      dup2\n        /* \"#utility.yul\":11760:11766   */\n      dup5\n        /* \"#utility.yul\":11666:11774   */\n      tag_294\n      jump\t// in\n    tag_461:\n        /* \"#utility.yul\":11658:11774   */\n      swap1\n      pop\n        /* \"#utility.yul\":11408:11781   */\n      swap3\n      swap2\n      pop\n      pop\n      jump\t// out\n        /* \"#utility.yul\":11787:11930   */\n    tag_311:\n        /* \"#utility.yul\":11844:11849   */\n      0x00\n        /* \"#utility.yul\":11875:11881   */\n      dup2\n        /* \"#utility.yul\":11869:11882   */\n      mload\n        /* \"#utility.yul\":11860:11882   */\n      swap1\n      pop\n        /* \"#utility.yul\":11891:11924   */\n      tag_463\n        /* \"#utility.yul\":11918:11923   */\n      dup2\n        /* \"#utility.yul\":11891:11924   */\n      tag_281\n      jump\t// in\n    tag_463:\n        /* \"#utility.yul\":11787:11930   */\n      swap3\n      swap2\n      pop\n      pop\n      jump\t// out\n        /* \"#utility.yul\":11936:12287   */\n    tag_104:\n        /* \"#utility.yul\":12006:12012   */\n      0x00\n        /* \"#utility.yul\":12055:12057   */\n      0x20\n        /* \"#utility.yul\":12043:12052   */\n      dup3\n        /* \"#utility.yul\":12034:12041   */\n      dup5\n        /* \"#utility.yul\":12030:12053   */\n      sub\n        /* \"#utility.yul\":12026:12058   */\n      slt\n        /* \"#utility.yul\":12023:12142   */\n      iszero\n      tag_465\n      jumpi\n        /* \"#utility.yul\":12061:12140   */\n      tag_466\n      tag_278\n      jump\t// in\n    tag_466:\n        /* \"#utility.yul\":12023:12142   */\n    tag_465:\n        /* \"#utility.yul\":12181:12182   */\n      0x00\n        /* \"#utility.yul\":12206:12270   */\n      tag_467\n        /* \"#utility.yul\":12262:12269   */\n      dup5\n        /* \"#utility.yul\":12253:12259   */\n      dup3\n        /* \"#utility.yul\":12242:12251   */\n      dup6\n        /* \"#utility.yul\":12238:12260   */\n      add\n        /* \"#utility.yul\":12206:12270   */\n      tag_311\n      jump\t// in\n    tag_467:\n        /* \"#utility.yul\":12196:12270   */\n      swap2\n      pop\n        /* \"#utility.yul\":12152:12280   */\n      pop\n        /* \"#utility.yul\":11936:12287   */\n      swap3\n      swap2\n      pop\n      pop\n      jump\t// out\n        /* \"#utility.yul\":12293:12462   */\n    tag_312:\n        /* \"#utility.yul\":12377:12388   */\n      0x00\n        /* \"#utility.yul\":12411:12417   */\n      dup3\n        /* \"#utility.yul\":12406:12409   */\n      dup3\n        /* \"#utility.yul\":12399:12418   */\n      mstore\n        /* \"#utility.yul\":12451:12455   */\n      0x20\n        /* \"#utility.yul\":12446:12449   */\n      dup3\n        /* \"#utility.yul\":12442:12456   */\n      add\n        /* \"#utility.yul\":12427:12456   */\n      swap1\n      pop\n        /* \"#utility.yul\":12293:12462   */\n      swap3\n      swap2\n      pop\n      pop\n      jump\t// out\n        /* \"#utility.yul\":12468:12650   */\n    tag_313:\n        /* \"#utility.yul\":12608:12642   */\n      0x496e73756666696369656e742062616c616e636520746f207075726368617365\n        /* \"#utility.yul\":12604:12605   */\n      0x00\n        /* \"#utility.yul\":12596:12602   */\n      dup3\n        /* \"#utility.yul\":12592:12606   */\n      add\n        /* \"#utility.yul\":12585:12643   */\n      mstore\n        /* \"#utility.yul\":12468:12650   */\n      pop\n      jump\t// out\n        /* \"#utility.yul\":12656:13022   */\n    tag_314:\n        /* \"#utility.yul\":12798:12801   */\n      0x00\n        /* \"#utility.yul\":12819:12886   */\n      tag_471\n        /* \"#utility.yul\":12883:12885   */\n      0x20\n        /* \"#utility.yul\":12878:12881   */\n      dup4\n        /* \"#utility.yul\":12819:12886   */\n      tag_312\n      jump\t// in\n    tag_471:\n        /* \"#utility.yul\":12812:12886   */\n      swap2\n      pop\n        /* \"#utility.yul\":12895:12988   */\n      tag_472\n        /* \"#utility.yul\":12984:12987   */\n      dup3\n        /* \"#utility.yul\":12895:12988   */\n      tag_313\n      jump\t// in\n    tag_472:\n        /* \"#utility.yul\":13013:13015   */\n      0x20\n        /* \"#utility.yul\":13008:13011   */\n      dup3\n        /* \"#utility.yul\":13004:13016   */\n      add\n        /* \"#utility.yul\":12997:13016   */\n      swap1\n      pop\n        /* \"#utility.yul\":12656:13022   */\n      swap2\n      swap1\n      pop\n      jump\t// out\n        /* \"#utility.yul\":13028:13447   */\n    tag_107:\n        /* \"#utility.yul\":13194:13198   */\n      0x00\n        /* \"#utility.yul\":13232:13234   */\n      0x20\n        /* \"#utility.yul\":13221:13230   */\n      dup3\n        /* \"#utility.yul\":13217:13235   */\n      add\n        /* \"#utility.yul\":13209:13235   */\n      swap1\n      pop\n        /* \"#utility.yul\":13281:13290   */\n      dup2\n        /* \"#utility.yul\":13275:13279   */\n      dup2\n        /* \"#utility.yul\":13271:13291   */\n      sub\n        /* \"#utility.yul\":13267:13268   */\n      0x00\n        /* \"#utility.yul\":13256:13265   */\n      dup4\n        /* \"#utility.yul\":13252:13269   */\n      add\n        /* \"#utility.yul\":13245:13292   */\n      mstore\n        /* \"#utility.yul\":13309:13440   */\n      tag_474\n        /* \"#utility.yul\":13435:13439   */\n      dup2\n        /* \"#utility.yul\":13309:13440   */\n      tag_314\n      jump\t// in\n    tag_474:\n        /* \"#utility.yul\":13301:13440   */\n      swap1\n      pop\n        /* \"#utility.yul\":13028:13447   */\n      swap2\n      swap1\n      pop\n      jump\t// out\n        /* \"#utility.yul\":13453:13633   */\n    tag_315:\n        /* \"#utility.yul\":13501:13578   */\n      0x4e487b7100000000000000000000000000000000000000000000000000000000\n        /* \"#utility.yul\":13498:13499   */\n      0x00\n        /* \"#utility.yul\":13491:13579   */\n      mstore\n        /* \"#utility.yul\":13598:13602   */\n      0x11\n        /* \"#utility.yul\":13595:13596   */\n      0x04\n        /* \"#utility.yul\":13588:13603   */\n      mstore\n        /* \"#utility.yul\":13622:13626   */\n      0x24\n        /* \"#utility.yul\":13619:13620   */\n      0x00\n        /* \"#utility.yul\":13612:13627   */\n      revert\n        /* \"#utility.yul\":13639:13833   */\n    tag_112:\n        /* \"#utility.yul\":13679:13683   */\n      0x00\n        /* \"#utility.yul\":13699:13719   */\n      tag_477\n        /* \"#utility.yul\":13717:13718   */\n      dup3\n        /* \"#utility.yul\":13699:13719   */\n      tag_280\n      jump\t// in\n    tag_477:\n        /* \"#utility.yul\":13694:13719   */\n      swap2\n      pop\n        /* \"#utility.yul\":13733:13753   */\n      tag_478\n        /* \"#utility.yul\":13751:13752   */\n      dup4\n        /* \"#utility.yul\":13733:13753   */\n      tag_280\n      jump\t// in\n    tag_478:\n        /* \"#utility.yul\":13728:13753   */\n      swap3\n      pop\n        /* \"#utility.yul\":13777:13778   */\n      dup3\n        /* \"#utility.yul\":13774:13775   */\n      dup3\n        /* \"#utility.yul\":13770:13779   */\n      sub\n        /* \"#utility.yul\":13762:13779   */\n      swap1\n      pop\n        /* \"#utility.yul\":13801:13802   */\n      dup2\n        /* \"#utility.yul\":13795:13799   */\n      dup2\n        /* \"#utility.yul\":13792:13803   */\n      gt\n        /* \"#utility.yul\":13789:13826   */\n      iszero\n      tag_479\n      jumpi\n        /* \"#utility.yul\":13806:13824   */\n      tag_480\n      tag_315\n      jump\t// in\n    tag_480:\n        /* \"#utility.yul\":13789:13826   */\n    tag_479:\n        /* \"#utility.yul\":13639:13833   */\n      swap3\n      swap2\n      pop\n      pop\n      jump\t// out\n        /* \"#utility.yul\":13839:14281   */\n    tag_114:\n        /* \"#utility.yul\":13988:13992   */\n      0x00\n        /* \"#utility.yul\":14026:14028   */\n      0x60\n        /* \"#utility.yul\":14015:14024   */\n      dup3\n        /* \"#utility.yul\":14011:14029   */\n      add\n        /* \"#utility.yul\":14003:14029   */\n      swap1\n      pop\n        /* \"#utility.yul\":14039:14110   */\n      tag_482\n        /* \"#utility.yul\":14107:14108   */\n      0x00\n        /* \"#utility.yul\":14096:14105   */\n      dup4\n        /* \"#utility.yul\":14092:14109   */\n      add\n        /* \"#utility.yul\":14083:14089   */\n      dup7\n        /* \"#utility.yul\":14039:14110   */\n      tag_284\n      jump\t// in\n    tag_482:\n        /* \"#utility.yul\":14120:14192   */\n      tag_483\n        /* \"#utility.yul\":14188:14190   */\n      0x20\n        /* \"#utility.yul\":14177:14186   */\n      dup4\n        /* \"#utility.yul\":14173:14191   */\n      add\n        /* \"#utility.yul\":14164:14170   */\n      dup6\n        /* \"#utility.yul\":14120:14192   */\n      tag_284\n      jump\t// in\n    tag_483:\n        /* \"#utility.yul\":14202:14274   */\n      tag_484\n        /* \"#utility.yul\":14270:14272   */\n      0x40\n        /* \"#utility.yul\":14259:14268   */\n      dup4\n        /* \"#utility.yul\":14255:14273   */\n      add\n        /* \"#utility.yul\":14246:14252   */\n      dup5\n        /* \"#utility.yul\":14202:14274   */\n      tag_285\n      jump\t// in\n    tag_484:\n        /* \"#utility.yul\":13839:14281   */\n      swap5\n      swap4\n      pop\n      pop\n      pop\n      pop\n      jump\t// out\n        /* \"#utility.yul\":14287:14403   */\n    tag_316:\n        /* \"#utility.yul\":14357:14378   */\n      tag_486\n        /* \"#utility.yul\":14372:14377   */\n      dup2\n        /* \"#utility.yul\":14357:14378   */\n      tag_286\n      jump\t// in\n    tag_486:\n        /* \"#utility.yul\":14350:14355   */\n      dup2\n        /* \"#utility.yul\":14347:14379   */\n      eq\n        /* \"#utility.yul\":14337:14397   */\n      tag_487\n      jumpi\n        /* \"#utility.yul\":14393:14394   */\n      0x00\n        /* \"#utility.yul\":14390:14391   */\n      dup1\n        /* \"#utility.yul\":14383:14395   */\n      revert\n        /* \"#utility.yul\":14337:14397   */\n    tag_487:\n        /* \"#utility.yul\":14287:14403   */\n      pop\n      jump\t// out\n        /* \"#utility.yul\":14409:14546   */\n    tag_317:\n        /* \"#utility.yul\":14463:14468   */\n      0x00\n        /* \"#utility.yul\":14494:14500   */\n      dup2\n        /* \"#utility.yul\":14488:14501   */\n      mload\n        /* \"#utility.yul\":14479:14501   */\n      swap1\n      pop\n        /* \"#utility.yul\":14510:14540   */\n      tag_489\n        /* \"#utility.yul\":14534:14539   */\n      dup2\n        /* \"#utility.yul\":14510:14540   */\n      tag_316\n      jump\t// in\n    tag_489:\n        /* \"#utility.yul\":14409:14546   */\n      swap3\n      swap2\n      pop\n      pop\n      jump\t// out\n        /* \"#utility.yul\":14552:14897   */\n    tag_118:\n        /* \"#utility.yul\":14619:14625   */\n      0x00\n        /* \"#utility.yul\":14668:14670   */\n      0x20\n        /* \"#utility.yul\":14656:14665   */\n      dup3\n        /* \"#utility.yul\":14647:14654   */\n      dup5\n        /* \"#utility.yul\":14643:14666   */\n      sub\n        /* \"#utility.yul\":14639:14671   */\n      slt\n        /* \"#utility.yul\":14636:14755   */\n      iszero\n      tag_491\n      jumpi\n        /* \"#utility.yul\":14674:14753   */\n      tag_492\n      tag_278\n      jump\t// in\n    tag_492:\n        /* \"#utility.yul\":14636:14755   */\n    tag_491:\n        /* \"#utility.yul\":14794:14795   */\n      0x00\n        /* \"#utility.yul\":14819:14880   */\n      tag_493\n        /* \"#utility.yul\":14872:14879   */\n      dup5\n        /* \"#utility.yul\":14863:14869   */\n      dup3\n        /* \"#utility.yul\":14852:14861   */\n      dup6\n        /* \"#utility.yul\":14848:14870   */\n      add\n        /* \"#utility.yul\":14819:14880   */\n      tag_317\n      jump\t// in\n    tag_493:\n        /* \"#utility.yul\":14809:14880   */\n      swap2\n      pop\n        /* \"#utility.yul\":14765:14890   */\n      pop\n        /* \"#utility.yul\":14552:14897   */\n      swap3\n      swap2\n      pop\n      pop\n      jump\t// out\n        /* \"#utility.yul\":14903:15129   */\n    tag_318:\n        /* \"#utility.yul\":15043:15077   */\n      0x436f6e74726163742068617320696e73756666696369656e742044504320746f\n        /* \"#utility.yul\":15039:15040   */\n      0x00\n        /* \"#utility.yul\":15031:15037   */\n      dup3\n        /* \"#utility.yul\":15027:15041   */\n      add\n        /* \"#utility.yul\":15020:15078   */\n      mstore\n        /* \"#utility.yul\":15112:15121   */\n      0x2072657761726400000000000000000000000000000000000000000000000000\n        /* \"#utility.yul\":15107:15109   */\n      0x20\n        /* \"#utility.yul\":15099:15105   */\n      dup3\n        /* \"#utility.yul\":15095:15110   */\n      add\n        /* \"#utility.yul\":15088:15122   */\n      mstore\n        /* \"#utility.yul\":14903:15129   */\n      pop\n      jump\t// out\n        /* \"#utility.yul\":15135:15501   */\n    tag_319:\n        /* \"#utility.yul\":15277:15280   */\n      0x00\n        /* \"#utility.yul\":15298:15365   */\n      tag_496\n        /* \"#utility.yul\":15362:15364   */\n      0x27\n        /* \"#utility.yul\":15357:15360   */\n      dup4\n        /* \"#utility.yul\":15298:15365   */\n      tag_312\n      jump\t// in\n    tag_496:\n        /* \"#utility.yul\":15291:15365   */\n      swap2\n      pop\n        /* \"#utility.yul\":15374:15467   */\n      tag_497\n        /* \"#utility.yul\":15463:15466   */\n      dup3\n        /* \"#utility.yul\":15374:15467   */\n      tag_318\n      jump\t// in\n    tag_497:\n        /* \"#utility.yul\":15492:15494   */\n      0x40\n        /* \"#utility.yul\":15487:15490   */\n      dup3\n        /* \"#utility.yul\":15483:15495   */\n      add\n        /* \"#utility.yul\":15476:15495   */\n      swap1\n      pop\n        /* \"#utility.yul\":15135:15501   */\n      swap2\n      swap1\n      pop\n      jump\t// out\n        /* \"#utility.yul\":15507:15926   */\n    tag_130:\n        /* \"#utility.yul\":15673:15677   */\n      0x00\n        /* \"#utility.yul\":15711:15713   */\n      0x20\n        /* \"#utility.yul\":15700:15709   */\n      dup3\n        /* \"#utility.yul\":15696:15714   */\n      add\n        /* \"#utility.yul\":15688:15714   */\n      swap1\n      pop\n        /* \"#utility.yul\":15760:15769   */\n      dup2\n        /* \"#utility.yul\":15754:15758   */\n      dup2\n        /* \"#utility.yul\":15750:15770   */\n      sub\n        /* \"#utility.yul\":15746:15747   */\n      0x00\n        /* \"#utility.yul\":15735:15744   */\n      dup4\n        /* \"#utility.yul\":15731:15748   */\n      add\n        /* \"#utility.yul\":15724:15771   */\n      mstore\n        /* \"#utility.yul\":15788:15919   */\n      tag_499\n        /* \"#utility.yul\":15914:15918   */\n      dup2\n        /* \"#utility.yul\":15788:15919   */\n      tag_319\n      jump\t// in\n    tag_499:\n        /* \"#utility.yul\":15780:15919   */\n      swap1\n      pop\n        /* \"#utility.yul\":15507:15926   */\n      swap2\n      swap1\n      pop\n      jump\t// out\n        /* \"#utility.yul\":15932:16264   */\n    tag_132:\n        /* \"#utility.yul\":16053:16057   */\n      0x00\n        /* \"#utility.yul\":16091:16093   */\n      0x40\n        /* \"#utility.yul\":16080:16089   */\n      dup3\n        /* \"#utility.yul\":16076:16094   */\n      add\n        /* \"#utility.yul\":16068:16094   */\n      swap1\n      pop\n        /* \"#utility.yul\":16104:16175   */\n      tag_501\n        /* \"#utility.yul\":16172:16173   */\n      0x00\n        /* \"#utility.yul\":16161:16170   */\n      dup4\n        /* \"#utility.yul\":16157:16174   */\n      add\n        /* \"#utility.yul\":16148:16154   */\n      dup6\n        /* \"#utility.yul\":16104:16175   */\n      tag_284\n      jump\t// in\n    tag_501:\n        /* \"#utility.yul\":16185:16257   */\n      tag_502\n        /* \"#utility.yul\":16253:16255   */\n      0x20\n        /* \"#utility.yul\":16242:16251   */\n      dup4\n        /* \"#utility.yul\":16238:16256   */\n      add\n        /* \"#utility.yul\":16229:16235   */\n      dup5\n        /* \"#utility.yul\":16185:16257   */\n      tag_285\n      jump\t// in\n    tag_502:\n        /* \"#utility.yul\":15932:16264   */\n      swap4\n      swap3\n      pop\n      pop\n      pop\n      jump\t// out\n        /* \"#utility.yul\":16270:16450   */\n    tag_140:\n        /* \"#utility.yul\":16318:16395   */\n      0x4e487b7100000000000000000000000000000000000000000000000000000000\n        /* \"#utility.yul\":16315:16316   */\n      0x00\n        /* \"#utility.yul\":16308:16396   */\n      mstore\n        /* \"#utility.yul\":16415:16419   */\n      0x32\n        /* \"#utility.yul\":16412:16413   */\n      0x04\n        /* \"#utility.yul\":16405:16420   */\n      mstore\n        /* \"#utility.yul\":16439:16443   */\n      0x24\n        /* \"#utility.yul\":16436:16437   */\n      0x00\n        /* \"#utility.yul\":16429:16444   */\n      revert\n        /* \"#utility.yul\":16456:16630   */\n    tag_320:\n        /* \"#utility.yul\":16596:16622   */\n      0x43616e6e6f742062757920796f75727320646174617365740000000000000000\n        /* \"#utility.yul\":16592:16593   */\n      0x00\n        /* \"#utility.yul\":16584:16590   */\n      dup3\n        /* \"#utility.yul\":16580:16594   */\n      add\n        /* \"#utility.yul\":16573:16623   */\n      mstore\n        /* \"#utility.yul\":16456:16630   */\n      pop\n      jump\t// out\n        /* \"#utility.yul\":16636:17002   */\n    tag_321:\n        /* \"#utility.yul\":16778:16781   */\n      0x00\n        /* \"#utility.yul\":16799:16866   */\n      tag_506\n        /* \"#utility.yul\":16863:16865   */\n      0x18\n        /* \"#utility.yul\":16858:16861   */\n      dup4\n        /* \"#utility.yul\":16799:16866   */\n      tag_312\n      jump\t// in\n    tag_506:\n        /* \"#utility.yul\":16792:16866   */\n      swap2\n      pop\n        /* \"#utility.yul\":16875:16968   */\n      tag_507\n        /* \"#utility.yul\":16964:16967   */\n      dup3\n        /* \"#utility.yul\":16875:16968   */\n      tag_320\n      jump\t// in\n    tag_507:\n        /* \"#utility.yul\":16993:16995   */\n      0x20\n        /* \"#utility.yul\":16988:16991   */\n      dup3\n        /* \"#utility.yul\":16984:16996   */\n      add\n        /* \"#utility.yul\":16977:16996   */\n      swap1\n      pop\n        /* \"#utility.yul\":16636:17002   */\n      swap2\n      swap1\n      pop\n      jump\t// out\n        /* \"#utility.yul\":17008:17427   */\n    tag_150:\n        /* \"#utility.yul\":17174:17178   */\n      0x00\n        /* \"#utility.yul\":17212:17214   */\n      0x20\n        /* \"#utility.yul\":17201:17210   */\n      dup3\n        /* \"#utility.yul\":17197:17215   */\n      add\n        /* \"#utility.yul\":17189:17215   */\n      swap1\n      pop\n        /* \"#utility.yul\":17261:17270   */\n      dup2\n        /* \"#utility.yul\":17255:17259   */\n      dup2\n        /* \"#utility.yul\":17251:17271   */\n      sub\n        /* \"#utility.yul\":17247:17248   */\n      0x00\n        /* \"#utility.yul\":17236:17245   */\n      dup4\n        /* \"#utility.yul\":17232:17249   */\n      add\n        /* \"#utility.yul\":17225:17272   */\n      mstore\n        /* \"#utility.yul\":17289:17420   */\n      tag_509\n        /* \"#utility.yul\":17415:17419   */\n      dup2\n        /* \"#utility.yul\":17289:17420   */\n      tag_321\n      jump\t// in\n    tag_509:\n        /* \"#utility.yul\":17281:17420   */\n      swap1\n      pop\n        /* \"#utility.yul\":17008:17427   */\n      swap2\n      swap1\n      pop\n      jump\t// out\n        /* \"#utility.yul\":17433:17613   */\n    tag_163:\n        /* \"#utility.yul\":17481:17558   */\n      0x4e487b7100000000000000000000000000000000000000000000000000000000\n        /* \"#utility.yul\":17478:17479   */\n      0x00\n        /* \"#utility.yul\":17471:17559   */\n      mstore\n        /* \"#utility.yul\":17578:17582   */\n      0x41\n        /* \"#utility.yul\":17575:17576   */\n      0x04\n        /* \"#utility.yul\":17568:17583   */\n      mstore\n        /* \"#utility.yul\":17602:17606   */\n      0x24\n        /* \"#utility.yul\":17599:17600   */\n      0x00\n        /* \"#utility.yul\":17592:17607   */\n      revert\n        /* \"#utility.yul\":17619:17794   */\n    tag_322:\n        /* \"#utility.yul\":17759:17786   */\n      0x4461746173657420616c72656164792076616c69646174656400000000000000\n        /* \"#utility.yul\":17755:17756   */\n      0x00\n        /* \"#utility.yul\":17747:17753   */\n      dup3\n        /* \"#utility.yul\":17743:17757   */\n      add\n        /* \"#utility.yul\":17736:17787   */\n      mstore\n        /* \"#utility.yul\":17619:17794   */\n      pop\n      jump\t// out\n        /* \"#utility.yul\":17800:18166   */\n    tag_323:\n        /* \"#utility.yul\":17942:17945   */\n      0x00\n        /* \"#utility.yul\":17963:18030   */\n      tag_513\n        /* \"#utility.yul\":18027:18029   */\n      0x19\n        /* \"#utility.yul\":18022:18025   */\n      dup4\n        /* \"#utility.yul\":17963:18030   */\n      tag_312\n      jump\t// in\n    tag_513:\n        /* \"#utility.yul\":17956:18030   */\n      swap2\n      pop\n        /* \"#utility.yul\":18039:18132   */\n      tag_514\n        /* \"#utility.yul\":18128:18131   */\n      dup3\n        /* \"#utility.yul\":18039:18132   */\n      tag_322\n      jump\t// in\n    tag_514:\n        /* \"#utility.yul\":18157:18159   */\n      0x20\n        /* \"#utility.yul\":18152:18155   */\n      dup3\n        /* \"#utility.yul\":18148:18160   */\n      add\n        /* \"#utility.yul\":18141:18160   */\n      swap1\n      pop\n        /* \"#utility.yul\":17800:18166   */\n      swap2\n      swap1\n      pop\n      jump\t// out\n        /* \"#utility.yul\":18172:18591   */\n    tag_202:\n        /* \"#utility.yul\":18338:18342   */\n      0x00\n        /* \"#utility.yul\":18376:18378   */\n      0x20\n        /* \"#utility.yul\":18365:18374   */\n      dup3\n        /* \"#utility.yul\":18361:18379   */\n      add\n        /* \"#utility.yul\":18353:18379   */\n      swap1\n      pop\n        /* \"#utility.yul\":18425:18434   */\n      dup2\n        /* \"#utility.yul\":18419:18423   */\n      dup2\n        /* \"#utility.yul\":18415:18435   */\n      sub\n        /* \"#utility.yul\":18411:18412   */\n      0x00\n        /* \"#utility.yul\":18400:18409   */\n      dup4\n        /* \"#utility.yul\":18396:18413   */\n      add\n        /* \"#utility.yul\":18389:18436   */\n      mstore\n        /* \"#utility.yul\":18453:18584   */\n      tag_516\n        /* \"#utility.yul\":18579:18583   */\n      dup2\n        /* \"#utility.yul\":18453:18584   */\n      tag_323\n      jump\t// in\n    tag_516:\n        /* \"#utility.yul\":18445:18584   */\n      swap1\n      pop\n        /* \"#utility.yul\":18172:18591   */\n      swap2\n      swap1\n      pop\n      jump\t// out\n        /* \"#utility.yul\":18597:18818   */\n    tag_324:\n        /* \"#utility.yul\":18737:18771   */\n      0x596f75206d757374206265206120726567697374657265642076616c69646174\n        /* \"#utility.yul\":18733:18734   */\n      0x00\n        /* \"#utility.yul\":18725:18731   */\n      dup3\n        /* \"#utility.yul\":18721:18735   */\n      add\n        /* \"#utility.yul\":18714:18772   */\n      mstore\n        /* \"#utility.yul\":18806:18810   */\n      0x6f72000000000000000000000000000000000000000000000000000000000000\n        /* \"#utility.yul\":18801:18803   */\n      0x20\n        /* \"#utility.yul\":18793:18799   */\n      dup3\n        /* \"#utility.yul\":18789:18804   */\n      add\n        /* \"#utility.yul\":18782:18811   */\n      mstore\n        /* \"#utility.yul\":18597:18818   */\n      pop\n      jump\t// out\n        /* \"#utility.yul\":18824:19190   */\n    tag_325:\n        /* \"#utility.yul\":18966:18969   */\n      0x00\n        /* \"#utility.yul\":18987:19054   */\n      tag_519\n        /* \"#utility.yul\":19051:19053   */\n      0x22\n        /* \"#utility.yul\":19046:19049   */\n      dup4\n        /* \"#utility.yul\":18987:19054   */\n      tag_312\n      jump\t// in\n    tag_519:\n        /* \"#utility.yul\":18980:19054   */\n      swap2\n      pop\n        /* \"#utility.yul\":19063:19156   */\n      tag_520\n        /* \"#utility.yul\":19152:19155   */\n      dup3\n        /* \"#utility.yul\":19063:19156   */\n      tag_324\n      jump\t// in\n    tag_520:\n        /* \"#utility.yul\":19181:19183   */\n      0x40\n        /* \"#utility.yul\":19176:19179   */\n      dup3\n        /* \"#utility.yul\":19172:19184   */\n      add\n        /* \"#utility.yul\":19165:19184   */\n      swap1\n      pop\n        /* \"#utility.yul\":18824:19190   */\n      swap2\n      swap1\n      pop\n      jump\t// out\n        /* \"#utility.yul\":19196:19615   */\n    tag_212:\n        /* \"#utility.yul\":19362:19366   */\n      0x00\n        /* \"#utility.yul\":19400:19402   */\n      0x20\n        /* \"#utility.yul\":19389:19398   */\n      dup3\n        /* \"#utility.yul\":19385:19403   */\n      add\n        /* \"#utility.yul\":19377:19403   */\n      swap1\n      pop\n        /* \"#utility.yul\":19449:19458   */\n      dup2\n        /* \"#utility.yul\":19443:19447   */\n      dup2\n        /* \"#utility.yul\":19439:19459   */\n      sub\n        /* \"#utility.yul\":19435:19436   */\n      0x00\n        /* \"#utility.yul\":19424:19433   */\n      dup4\n        /* \"#utility.yul\":19420:19437   */\n      add\n        /* \"#utility.yul\":19413:19460   */\n      mstore\n        /* \"#utility.yul\":19477:19608   */\n      tag_522\n        /* \"#utility.yul\":19603:19607   */\n      dup2\n        /* \"#utility.yul\":19477:19608   */\n      tag_325\n      jump\t// in\n    tag_522:\n        /* \"#utility.yul\":19469:19608   */\n      swap1\n      pop\n        /* \"#utility.yul\":19196:19615   */\n      swap2\n      swap1\n      pop\n      jump\t// out\n        /* \"#utility.yul\":19621:19802   */\n    tag_326:\n        /* \"#utility.yul\":19761:19794   */\n      0x56616c696461746f722063616e6e6f74206265207468652063726561746f7200\n        /* \"#utility.yul\":19757:19758   */\n      0x00\n        /* \"#utility.yul\":19749:19755   */\n      dup3\n        /* \"#utility.yul\":19745:19759   */\n      add\n        /* \"#utility.yul\":19738:19795   */\n      mstore\n        /* \"#utility.yul\":19621:19802   */\n      pop\n      jump\t// out\n        /* \"#utility.yul\":19808:20174   */\n    tag_327:\n        /* \"#utility.yul\":19950:19953   */\n      0x00\n        /* \"#utility.yul\":19971:20038   */\n      tag_525\n        /* \"#utility.yul\":20035:20037   */\n      0x1f\n        /* \"#utility.yul\":20030:20033   */\n      dup4\n        /* \"#utility.yul\":19971:20038   */\n      tag_312\n      jump\t// in\n    tag_525:\n        /* \"#utility.yul\":19964:20038   */\n      swap2\n      pop\n        /* \"#utility.yul\":20047:20140   */\n      tag_526\n        /* \"#utility.yul\":20136:20139   */\n      dup3\n        /* \"#utility.yul\":20047:20140   */\n      tag_326\n      jump\t// in\n    tag_526:\n        /* \"#utility.yul\":20165:20167   */\n      0x20\n        /* \"#utility.yul\":20160:20163   */\n      dup3\n        /* \"#utility.yul\":20156:20168   */\n      add\n        /* \"#utility.yul\":20149:20168   */\n      swap1\n      pop\n        /* \"#utility.yul\":19808:20174   */\n      swap2\n      swap1\n      pop\n      jump\t// out\n        /* \"#utility.yul\":20180:20599   */\n    tag_215:\n        /* \"#utility.yul\":20346:20350   */\n      0x00\n        /* \"#utility.yul\":20384:20386   */\n      0x20\n        /* \"#utility.yul\":20373:20382   */\n      dup3\n        /* \"#utility.yul\":20369:20387   */\n      add\n        /* \"#utility.yul\":20361:20387   */\n      swap1\n      pop\n        /* \"#utility.yul\":20433:20442   */\n      dup2\n        /* \"#utility.yul\":20427:20431   */\n      dup2\n        /* \"#utility.yul\":20423:20443   */\n      sub\n        /* \"#utility.yul\":20419:20420   */\n      0x00\n        /* \"#utility.yul\":20408:20417   */\n      dup4\n        /* \"#utility.yul\":20404:20421   */\n      add\n        /* \"#utility.yul\":20397:20444   */\n      mstore\n        /* \"#utility.yul\":20461:20592   */\n      tag_528\n        /* \"#utility.yul\":20587:20591   */\n      dup2\n        /* \"#utility.yul\":20461:20592   */\n      tag_327\n      jump\t// in\n    tag_528:\n        /* \"#utility.yul\":20453:20592   */\n      swap1\n      pop\n        /* \"#utility.yul\":20180:20599   */\n      swap2\n      swap1\n      pop\n      jump\t// out\n        /* \"#utility.yul\":20605:20785   */\n    tag_328:\n        /* \"#utility.yul\":20745:20777   */\n      0x496e73756666696369656e742062616c616e636520746f207265776172640000\n        /* \"#utility.yul\":20741:20742   */\n      0x00\n        /* \"#utility.yul\":20733:20739   */\n      dup3\n        /* \"#utility.yul\":20729:20743   */\n      add\n        /* \"#utility.yul\":20722:20778   */\n      mstore\n        /* \"#utility.yul\":20605:20785   */\n      pop\n      jump\t// out\n        /* \"#utility.yul\":20791:21157   */\n    tag_329:\n        /* \"#utility.yul\":20933:20936   */\n      0x00\n        /* \"#utility.yul\":20954:21021   */\n      tag_531\n        /* \"#utility.yul\":21018:21020   */\n      0x1e\n        /* \"#utility.yul\":21013:21016   */\n      dup4\n        /* \"#utility.yul\":20954:21021   */\n      tag_312\n      jump\t// in\n    tag_531:\n        /* \"#utility.yul\":20947:21021   */\n      swap2\n      pop\n        /* \"#utility.yul\":21030:21123   */\n      tag_532\n        /* \"#utility.yul\":21119:21122   */\n      dup3\n        /* \"#utility.yul\":21030:21123   */\n      tag_328\n      jump\t// in\n    tag_532:\n        /* \"#utility.yul\":21148:21150   */\n      0x20\n        /* \"#utility.yul\":21143:21146   */\n      dup3\n        /* \"#utility.yul\":21139:21151   */\n      add\n        /* \"#utility.yul\":21132:21151   */\n      swap1\n      pop\n        /* \"#utility.yul\":20791:21157   */\n      swap2\n      swap1\n      pop\n      jump\t// out\n        /* \"#utility.yul\":21163:21582   */\n    tag_227:\n        /* \"#utility.yul\":21329:21333   */\n      0x00\n        /* \"#utility.yul\":21367:21369   */\n      0x20\n        /* \"#utility.yul\":21356:21365   */\n      dup3\n        /* \"#utility.yul\":21352:21370   */\n      add\n        /* \"#utility.yul\":21344:21370   */\n      swap1\n      pop\n        /* \"#utility.yul\":21416:21425   */\n      dup2\n        /* \"#utility.yul\":21410:21414   */\n      dup2\n        /* \"#utility.yul\":21406:21426   */\n      sub\n        /* \"#utility.yul\":21402:21403   */\n      0x00\n        /* \"#utility.yul\":21391:21400   */\n      dup4\n        /* \"#utility.yul\":21387:21404   */\n      add\n        /* \"#utility.yul\":21380:21427   */\n      mstore\n        /* \"#utility.yul\":21444:21575   */\n      tag_534\n        /* \"#utility.yul\":21570:21574   */\n      dup2\n        /* \"#utility.yul\":21444:21575   */\n      tag_329\n      jump\t// in\n    tag_534:\n        /* \"#utility.yul\":21436:21575   */\n      swap1\n      pop\n        /* \"#utility.yul\":21163:21582   */\n      swap2\n      swap1\n      pop\n      jump\t// out\n        /* \"#utility.yul\":21588:21770   */\n    tag_330:\n        /* \"#utility.yul\":21728:21762   */\n      0x4f776e61626c653a2063616c6c6572206973206e6f7420746865206f776e6572\n        /* \"#utility.yul\":21724:21725   */\n      0x00\n        /* \"#utility.yul\":21716:21722   */\n      dup3\n        /* \"#utility.yul\":21712:21726   */\n      add\n        /* \"#utility.yul\":21705:21763   */\n      mstore\n        /* \"#utility.yul\":21588:21770   */\n      pop\n      jump\t// out\n        /* \"#utility.yul\":21776:22142   */\n    tag_331:\n        /* \"#utility.yul\":21918:21921   */\n      0x00\n        /* \"#utility.yul\":21939:22006   */\n      tag_537\n        /* \"#utility.yul\":22003:22005   */\n      0x20\n        /* \"#utility.yul\":21998:22001   */\n      dup4\n        /* \"#utility.yul\":21939:22006   */\n      tag_312\n      jump\t// in\n    tag_537:\n        /* \"#utility.yul\":21932:22006   */\n      swap2\n      pop\n        /* \"#utility.yul\":22015:22108   */\n      tag_538\n        /* \"#utility.yul\":22104:22107   */\n      dup3\n        /* \"#utility.yul\":22015:22108   */\n      tag_330\n      jump\t// in\n    tag_538:\n        /* \"#utility.yul\":22133:22135   */\n      0x20\n        /* \"#utility.yul\":22128:22131   */\n      dup3\n        /* \"#utility.yul\":22124:22136   */\n      add\n        /* \"#utility.yul\":22117:22136   */\n      swap1\n      pop\n        /* \"#utility.yul\":21776:22142   */\n      swap2\n      swap1\n      pop\n      jump\t// out\n        /* \"#utility.yul\":22148:22567   */\n    tag_237:\n        /* \"#utility.yul\":22314:22318   */\n      0x00\n        /* \"#utility.yul\":22352:22354   */\n      0x20\n        /* \"#utility.yul\":22341:22350   */\n      dup3\n        /* \"#utility.yul\":22337:22355   */\n      add\n        /* \"#utility.yul\":22329:22355   */\n      swap1\n      pop\n        /* \"#utility.yul\":22401:22410   */\n      dup2\n        /* \"#utility.yul\":22395:22399   */\n      dup2\n        /* \"#utility.yul\":22391:22411   */\n      sub\n        /* \"#utility.yul\":22387:22388   */\n      0x00\n        /* \"#utility.yul\":22376:22385   */\n      dup4\n        /* \"#utility.yul\":22372:22389   */\n      add\n        /* \"#utility.yul\":22365:22412   */\n      mstore\n        /* \"#utility.yul\":22429:22560   */\n      tag_540\n        /* \"#utility.yul\":22555:22559   */\n      dup2\n        /* \"#utility.yul\":22429:22560   */\n      tag_331\n      jump\t// in\n    tag_540:\n        /* \"#utility.yul\":22421:22560   */\n      swap1\n      pop\n        /* \"#utility.yul\":22148:22567   */\n      swap2\n      swap1\n      pop\n      jump\t// out\n        /* \"#utility.yul\":22573:22798   */\n    tag_332:\n        /* \"#utility.yul\":22713:22747   */\n      0x4461746150756e6b436f696e2068617320616c7265616479206265656e206465\n        /* \"#utility.yul\":22709:22710   */\n      0x00\n        /* \"#utility.yul\":22701:22707   */\n      dup3\n        /* \"#utility.yul\":22697:22711   */\n      add\n        /* \"#utility.yul\":22690:22748   */\n      mstore\n        /* \"#utility.yul\":22782:22790   */\n      0x706c6f7965640000000000000000000000000000000000000000000000000000\n        /* \"#utility.yul\":22777:22779   */\n      0x20\n        /* \"#utility.yul\":22769:22775   */\n      dup3\n        /* \"#utility.yul\":22765:22780   */\n      add\n        /* \"#utility.yul\":22758:22791   */\n      mstore\n        /* \"#utility.yul\":22573:22798   */\n      pop\n      jump\t// out\n        /* \"#utility.yul\":22804:23170   */\n    tag_333:\n        /* \"#utility.yul\":22946:22949   */\n      0x00\n        /* \"#utility.yul\":22967:23034   */\n      tag_543\n        /* \"#utility.yul\":23031:23033   */\n      0x26\n        /* \"#utility.yul\":23026:23029   */\n      dup4\n        /* \"#utility.yul\":22967:23034   */\n      tag_312\n      jump\t// in\n    tag_543:\n        /* \"#utility.yul\":22960:23034   */\n      swap2\n      pop\n        /* \"#utility.yul\":23043:23136   */\n      tag_544\n        /* \"#utility.yul\":23132:23135   */\n      dup3\n        /* \"#utility.yul\":23043:23136   */\n      tag_332\n      jump\t// in\n    tag_544:\n        /* \"#utility.yul\":23161:23163   */\n      0x40\n        /* \"#utility.yul\":23156:23159   */\n      dup3\n        /* \"#utility.yul\":23152:23164   */\n      add\n        /* \"#utility.yul\":23145:23164   */\n      swap1\n      pop\n        /* \"#utility.yul\":22804:23170   */\n      swap2\n      swap1\n      pop\n      jump\t// out\n        /* \"#utility.yul\":23176:23595   */\n    tag_241:\n        /* \"#utility.yul\":23342:23346   */\n      0x00\n        /* \"#utility.yul\":23380:23382   */\n      0x20\n        /* \"#utility.yul\":23369:23378   */\n      dup3\n        /* \"#utility.yul\":23365:23383   */\n      add\n        /* \"#utility.yul\":23357:23383   */\n      swap1\n      pop\n        /* \"#utility.yul\":23429:23438   */\n      dup2\n        /* \"#utility.yul\":23423:23427   */\n      dup2\n        /* \"#utility.yul\":23419:23439   */\n      sub\n        /* \"#utility.yul\":23415:23416   */\n      0x00\n        /* \"#utility.yul\":23404:23413   */\n      dup4\n        /* \"#utility.yul\":23400:23417   */\n      add\n        /* \"#utility.yul\":23393:23440   */\n      mstore\n        /* \"#utility.yul\":23457:23588   */\n      tag_546\n        /* \"#utility.yul\":23583:23587   */\n      dup2\n        /* \"#utility.yul\":23457:23588   */\n      tag_333\n      jump\t// in\n    tag_546:\n        /* \"#utility.yul\":23449:23588   */\n      swap1\n      pop\n        /* \"#utility.yul\":23176:23595   */\n      swap2\n      swap1\n      pop\n      jump\t// out\n        /* \"#utility.yul\":23601:23706   */\n    tag_334:\n        /* \"#utility.yul\":23666:23673   */\n      0x00\n        /* \"#utility.yul\":23695:23700   */\n      dup2\n        /* \"#utility.yul\":23684:23700   */\n      swap1\n      pop\n        /* \"#utility.yul\":23601:23706   */\n      swap2\n      swap1\n      pop\n      jump\t// out\n        /* \"#utility.yul\":23712:23910   */\n    tag_335:\n        /* \"#utility.yul\":23790:23799   */\n      0x00\n        /* \"#utility.yul\":23823:23904   */\n      tag_549\n        /* \"#utility.yul\":23841:23903   */\n      tag_550\n        /* \"#utility.yul\":23850:23902   */\n      tag_551\n        /* \"#utility.yul\":23896:23901   */\n      dup5\n        /* \"#utility.yul\":23850:23902   */\n      tag_334\n      jump\t// in\n    tag_551:\n        /* \"#utility.yul\":23841:23903   */\n      tag_272\n      jump\t// in\n    tag_550:\n        /* \"#utility.yul\":23823:23904   */\n      tag_280\n      jump\t// in\n    tag_549:\n        /* \"#utility.yul\":23810:23904   */\n      swap1\n      pop\n        /* \"#utility.yul\":23712:23910   */\n      swap2\n      swap1\n      pop\n      jump\t// out\n        /* \"#utility.yul\":23916:24103   */\n    tag_336:\n        /* \"#utility.yul\":24031:24096   */\n      tag_553\n        /* \"#utility.yul\":24090:24095   */\n      dup2\n        /* \"#utility.yul\":24031:24096   */\n      tag_335\n      jump\t// in\n    tag_553:\n        /* \"#utility.yul\":24026:24029   */\n      dup3\n        /* \"#utility.yul\":24019:24097   */\n      mstore\n        /* \"#utility.yul\":23916:24103   */\n      pop\n      pop\n      jump\t// out\n        /* \"#utility.yul\":24109:24497   */\n    tag_247:\n        /* \"#utility.yul\":24258:24262   */\n      0x00\n        /* \"#utility.yul\":24296:24298   */\n      0x40\n        /* \"#utility.yul\":24285:24294   */\n      dup3\n        /* \"#utility.yul\":24281:24299   */\n      add\n        /* \"#utility.yul\":24273:24299   */\n      swap1\n      pop\n        /* \"#utility.yul\":24309:24380   */\n      tag_555\n        /* \"#utility.yul\":24377:24378   */\n      0x00\n        /* \"#utility.yul\":24366:24375   */\n      dup4\n        /* \"#utility.yul\":24362:24379   */\n      add\n        /* \"#utility.yul\":24353:24359   */\n      dup6\n        /* \"#utility.yul\":24309:24380   */\n      tag_284\n      jump\t// in\n    tag_555:\n        /* \"#utility.yul\":24390:24490   */\n      tag_556\n        /* \"#utility.yul\":24486:24488   */\n      0x20\n        /* \"#utility.yul\":24475:24484   */\n      dup4\n        /* \"#utility.yul\":24471:24489   */\n      add\n        /* \"#utility.yul\":24462:24468   */\n      dup5\n        /* \"#utility.yul\":24390:24490   */\n      tag_336\n      jump\t// in\n    tag_556:\n        /* \"#utility.yul\":24109:24497   */\n      swap4\n      swap3\n      pop\n      pop\n      pop\n      jump\t// out\n    stop\n\n    sub_0: assembly {\n            /* \"contracts/DataPunk.sol\":318:535  contract DataPunkCoin is ERC20 {... */\n          mstore(0x40, 0x80)\n            /* \"contracts/DataPunk.sol\":422:533  constructor(uint256 _amount) ERC20(\"DataPunk Coin\", \"DPC\") {... */\n          callvalue\n          dup1\n          iszero\n          tag_1\n          jumpi\n          0x00\n          dup1\n          revert\n        tag_1:\n          pop\n          mload(0x40)\n          sub(codesize, bytecodeSize)\n          dup1\n          bytecodeSize\n          dup4\n          codecopy\n          dup2\n          dup2\n          add\n          0x40\n          mstore\n          dup2\n          add\n          swap1\n          tag_2\n          swap2\n          swap1\n          tag_3\n          jump\t// in\n        tag_2:\n            /* \"@openzeppelin/contracts/token/ERC20/ERC20.sol\":1896:2009  constructor(string memory name_, string memory symbol_) {... */\n          mload(0x40)\n          dup1\n          0x40\n          add\n          0x40\n          mstore\n          dup1\n          0x0d\n          dup2\n          mstore\n          0x20\n          add\n          0x4461746150756e6b20436f696e00000000000000000000000000000000000000\n          dup2\n          mstore\n          pop\n          mload(0x40)\n          dup1\n          0x40\n          add\n          0x40\n          mstore\n          dup1\n          0x03\n          dup2\n          mstore\n          0x20\n          add\n          0x4450430000000000000000000000000000000000000000000000000000000000\n          dup2\n          mstore\n          pop\n            /* \"@openzeppelin/contracts/token/ERC20/ERC20.sol\":1970:1975  name_ */\n          dup2\n            /* \"@openzeppelin/contracts/token/ERC20/ERC20.sol\":1962:1967  _name */\n          0x03\n            /* \"@openzeppelin/contracts/token/ERC20/ERC20.sol\":1962:1975  _name = name_ */\n          swap1\n          dup2\n          tag_7\n          swap2\n          swap1\n          tag_8\n          jump\t// in\n        tag_7:\n          pop\n            /* \"@openzeppelin/contracts/token/ERC20/ERC20.sol\":1995:2002  symbol_ */\n          dup1\n            /* \"@openzeppelin/contracts/token/ERC20/ERC20.sol\":1985:1992  _symbol */\n          0x04\n            /* \"@openzeppelin/contracts/token/ERC20/ERC20.sol\":1985:2002  _symbol = symbol_ */\n          swap1\n          dup2\n          tag_9\n          swap2\n          swap1\n          tag_8\n          jump\t// in\n        tag_9:\n          pop\n            /* \"@openzeppelin/contracts/token/ERC20/ERC20.sol\":1896:2009  constructor(string memory name_, string memory symbol_) {... */\n          pop\n          pop\n            /* \"contracts/DataPunk.sol\":491:526  _mint(msg.sender, _amount * 10**18) */\n          tag_11\n            /* \"contracts/DataPunk.sol\":497:507  msg.sender */\n          caller\n            /* \"contracts/DataPunk.sol\":519:525  10**18 */\n          0x0de0b6b3a7640000\n            /* \"contracts/DataPunk.sol\":509:516  _amount */\n          dup4\n            /* \"contracts/DataPunk.sol\":509:525  _amount * 10**18 */\n          tag_12\n          swap2\n          swap1\n          tag_13\n          jump\t// in\n        tag_12:\n            /* \"contracts/DataPunk.sol\":491:496  _mint */\n          shl(0x20, tag_14)\n            /* \"contracts/DataPunk.sol\":491:526  _mint(msg.sender, _amount * 10**18) */\n          0x20\n          shr\n          jump\t// in\n        tag_11:\n            /* \"contracts/DataPunk.sol\":422:533  constructor(uint256 _amount) ERC20(\"DataPunk Coin\", \"DPC\") {... */\n          pop\n            /* \"contracts/DataPunk.sol\":318:535  contract DataPunkCoin is ERC20 {... */\n          jump(tag_15)\n            /* \"@openzeppelin/contracts/token/ERC20/ERC20.sol\":7721:7929  function _mint(address account, uint256 value) internal {... */\n        tag_14:\n            /* \"@openzeppelin/contracts/token/ERC20/ERC20.sol\":7810:7811  0 */\n          0x00\n            /* \"@openzeppelin/contracts/token/ERC20/ERC20.sol\":7791:7812  account == address(0) */\n          0xffffffffffffffffffffffffffffffffffffffff\n          and\n            /* \"@openzeppelin/contracts/token/ERC20/ERC20.sol\":7791:7798  account */\n          dup3\n            /* \"@openzeppelin/contracts/token/ERC20/ERC20.sol\":7791:7812  account == address(0) */\n          0xffffffffffffffffffffffffffffffffffffffff\n          and\n          sub\n            /* \"@openzeppelin/contracts/token/ERC20/ERC20.sol\":7787:7878  if (account == address(0)) {... */\n          tag_17\n          jumpi\n            /* \"@openzeppelin/contracts/token/ERC20/ERC20.sol\":7864:7865  0 */\n          0x00\n            /* \"@openzeppelin/contracts/token/ERC20/ERC20.sol\":7835:7867  ERC20InvalidReceiver(address(0)) */\n          mload(0x40)\n          0xec442f0500000000000000000000000000000000000000000000000000000000\n          dup2\n          mstore\n          0x04\n          add\n          tag_18\n          swap2\n          swap1\n          tag_19\n          jump\t// in\n        tag_18:\n          mload(0x40)\n          dup1\n          swap2\n          sub\n          swap1\n          revert\n            /* \"@openzeppelin/contracts/token/ERC20/ERC20.sol\":7787:7878  if (account == address(0)) {... */\n        tag_17:\n            /* \"@openzeppelin/contracts/token/ERC20/ERC20.sol\":7887:7922  _update(address(0), account, value) */\n          tag_20\n            /* \"@openzeppelin/contracts/token/ERC20/ERC20.sol\":7903:7904  0 */\n          0x00\n            /* \"@openzeppelin/contracts/token/ERC20/ERC20.sol\":7907:7914  account */\n          dup4\n            /* \"@openzeppelin/contracts/token/ERC20/ERC20.sol\":7916:7921  value */\n          dup4\n            /* \"@openzeppelin/contracts/token/ERC20/ERC20.sol\":7887:7894  _update */\n          shl(0x20, tag_21)\n            /* \"@openzeppelin/contracts/token/ERC20/ERC20.sol\":7887:7922  _update(address(0), account, value) */\n          0x20\n          shr\n          jump\t// in\n        tag_20:\n            /* \"@openzeppelin/contracts/token/ERC20/ERC20.sol\":7721:7929  function _mint(address account, uint256 value) internal {... */\n          pop\n          pop\n          jump\t// out\n            /* \"@openzeppelin/contracts/token/ERC20/ERC20.sol\":6271:7378  function _update(address from, address to, uint256 value) internal virtual {... */\n        tag_21:\n            /* \"@openzeppelin/contracts/token/ERC20/ERC20.sol\":6376:6377  0 */\n          0x00\n            /* \"@openzeppelin/contracts/token/ERC20/ERC20.sol\":6360:6378  from == address(0) */\n          0xffffffffffffffffffffffffffffffffffffffff\n          and\n            /* \"@openzeppelin/contracts/token/ERC20/ERC20.sol\":6360:6364  from */\n          dup4\n            /* \"@openzeppelin/contracts/token/ERC20/ERC20.sol\":6360:6378  from == address(0) */\n          0xffffffffffffffffffffffffffffffffffffffff\n          and\n          sub\n            /* \"@openzeppelin/contracts/token/ERC20/ERC20.sol\":6356:6896  if (from == address(0)) {... */\n          tag_23\n          jumpi\n            /* \"@openzeppelin/contracts/token/ERC20/ERC20.sol\":6512:6517  value */\n          dup1\n            /* \"@openzeppelin/contracts/token/ERC20/ERC20.sol\":6496:6508  _totalSupply */\n          0x02\n          0x00\n            /* \"@openzeppelin/contracts/token/ERC20/ERC20.sol\":6496:6517  _totalSupply += value */\n          dup3\n          dup3\n          sload\n          tag_24\n          swap2\n          swap1\n          tag_25\n          jump\t// in\n        tag_24:\n          swap3\n          pop\n          pop\n          dup2\n          swap1\n          sstore\n          pop\n            /* \"@openzeppelin/contracts/token/ERC20/ERC20.sol\":6356:6896  if (from == address(0)) {... */\n          jump(tag_26)\n        tag_23:\n            /* \"@openzeppelin/contracts/token/ERC20/ERC20.sol\":6548:6567  uint256 fromBalance */\n          0x00\n            /* \"@openzeppelin/contracts/token/ERC20/ERC20.sol\":6570:6579  _balances */\n          dup1\n            /* \"@openzeppelin/contracts/token/ERC20/ERC20.sol\":6570:6585  _balances[from] */\n          0x00\n            /* \"@openzeppelin/contracts/token/ERC20/ERC20.sol\":6580:6584  from */\n          dup6\n            /* \"@openzeppelin/contracts/token/ERC20/ERC20.sol\":6570:6585  _balances[from] */\n          0xffffffffffffffffffffffffffffffffffffffff\n          and\n          0xffffffffffffffffffffffffffffffffffffffff\n          and\n          dup2\n          mstore\n          0x20\n          add\n          swap1\n          dup2\n          mstore\n          0x20\n          add\n          0x00\n          keccak256\n          sload\n            /* \"@openzeppelin/contracts/token/ERC20/ERC20.sol\":6548:6585  uint256 fromBalance = _balances[from] */\n          swap1\n          pop\n            /* \"@openzeppelin/contracts/token/ERC20/ERC20.sol\":6617:6622  value */\n          dup2\n            /* \"@openzeppelin/contracts/token/ERC20/ERC20.sol\":6603:6614  fromBalance */\n          dup2\n            /* \"@openzeppelin/contracts/token/ERC20/ERC20.sol\":6603:6622  fromBalance < value */\n          lt\n            /* \"@openzeppelin/contracts/token/ERC20/ERC20.sol\":6599:6714  if (fromBalance < value) {... */\n          iszero\n          tag_27\n          jumpi\n            /* \"@openzeppelin/contracts/token/ERC20/ERC20.sol\":6674:6678  from */\n          dup4\n            /* \"@openzeppelin/contracts/token/ERC20/ERC20.sol\":6680:6691  fromBalance */\n          dup2\n            /* \"@openzeppelin/contracts/token/ERC20/ERC20.sol\":6693:6698  value */\n          dup4\n            /* \"@openzeppelin/contracts/token/ERC20/ERC20.sol\":6649:6699  ERC20InsufficientBalance(from, fromBalance, value) */\n          mload(0x40)\n          0xe450d38c00000000000000000000000000000000000000000000000000000000\n          dup2\n          mstore\n          0x04\n          add\n          tag_28\n          swap4\n          swap3\n          swap2\n          swap1\n          tag_29\n          jump\t// in\n        tag_28:\n          mload(0x40)\n          dup1\n          swap2\n          sub\n          swap1\n          revert\n            /* \"@openzeppelin/contracts/token/ERC20/ERC20.sol\":6599:6714  if (fromBalance < value) {... */\n        tag_27:\n            /* \"@openzeppelin/contracts/token/ERC20/ERC20.sol\":6866:6871  value */\n          dup2\n            /* \"@openzeppelin/contracts/token/ERC20/ERC20.sol\":6852:6863  fromBalance */\n          dup2\n            /* \"@openzeppelin/contracts/token/ERC20/ERC20.sol\":6852:6871  fromBalance - value */\n          sub\n            /* \"@openzeppelin/contracts/token/ERC20/ERC20.sol\":6834:6843  _balances */\n          0x00\n            /* \"@openzeppelin/contracts/token/ERC20/ERC20.sol\":6834:6849  _balances[from] */\n          dup1\n            /* \"@openzeppelin/contracts/token/ERC20/ERC20.sol\":6844:6848  from */\n          dup7\n            /* \"@openzeppelin/contracts/token/ERC20/ERC20.sol\":6834:6849  _balances[from] */\n          0xffffffffffffffffffffffffffffffffffffffff\n          and\n          0xffffffffffffffffffffffffffffffffffffffff\n          and\n          dup2\n          mstore\n          0x20\n          add\n          swap1\n          dup2\n          mstore\n          0x20\n          add\n          0x00\n          keccak256\n            /* \"@openzeppelin/contracts/token/ERC20/ERC20.sol\":6834:6871  _balances[from] = fromBalance - value */\n          dup2\n          swap1\n          sstore\n          pop\n            /* \"@openzeppelin/contracts/token/ERC20/ERC20.sol\":6534:6896  {... */\n          pop\n            /* \"@openzeppelin/contracts/token/ERC20/ERC20.sol\":6356:6896  if (from == address(0)) {... */\n        tag_26:\n            /* \"@openzeppelin/contracts/token/ERC20/ERC20.sol\":6924:6925  0 */\n          0x00\n            /* \"@openzeppelin/contracts/token/ERC20/ERC20.sol\":6910:6926  to == address(0) */\n          0xffffffffffffffffffffffffffffffffffffffff\n          and\n            /* \"@openzeppelin/contracts/token/ERC20/ERC20.sol\":6910:6912  to */\n          dup3\n            /* \"@openzeppelin/contracts/token/ERC20/ERC20.sol\":6910:6926  to == address(0) */\n          0xffffffffffffffffffffffffffffffffffffffff\n          and\n          sub\n            /* \"@openzeppelin/contracts/token/ERC20/ERC20.sol\":6906:7331  if (to == address(0)) {... */\n          tag_30\n          jumpi\n            /* \"@openzeppelin/contracts/token/ERC20/ERC20.sol\":7089:7094  value */\n          dup1\n            /* \"@openzeppelin/contracts/token/ERC20/ERC20.sol\":7073:7085  _totalSupply */\n          0x02\n          0x00\n            /* \"@openzeppelin/contracts/token/ERC20/ERC20.sol\":7073:7094  _totalSupply -= value */\n          dup3\n          dup3\n          sload\n          sub\n          swap3\n          pop\n          pop\n          dup2\n          swap1\n          sstore\n          pop\n            /* \"@openzeppelin/contracts/token/ERC20/ERC20.sol\":6906:7331  if (to == address(0)) {... */\n          jump(tag_31)\n        tag_30:\n            /* \"@openzeppelin/contracts/token/ERC20/ERC20.sol\":7301:7306  value */\n          dup1\n            /* \"@openzeppelin/contracts/token/ERC20/ERC20.sol\":7284:7293  _balances */\n          0x00\n            /* \"@openzeppelin/contracts/token/ERC20/ERC20.sol\":7284:7297  _balances[to] */\n          dup1\n            /* \"@openzeppelin/contracts/token/ERC20/ERC20.sol\":7294:7296  to */\n          dup5\n            /* \"@openzeppelin/contracts/token/ERC20/ERC20.sol\":7284:7297  _balances[to] */\n          0xffffffffffffffffffffffffffffffffffffffff\n          and\n          0xffffffffffffffffffffffffffffffffffffffff\n          and\n          dup2\n          mstore\n          0x20\n          add\n          swap1\n          dup2\n          mstore\n          0x20\n          add\n          0x00\n          keccak256\n          0x00\n            /* \"@openzeppelin/contracts/token/ERC20/ERC20.sol\":7284:7306  _balances[to] += value */\n          dup3\n          dup3\n          sload\n          add\n          swap3\n          pop\n          pop\n          dup2\n          swap1\n          sstore\n          pop\n            /* \"@openzeppelin/contracts/token/ERC20/ERC20.sol\":6906:7331  if (to == address(0)) {... */\n        tag_31:\n            /* \"@openzeppelin/contracts/token/ERC20/ERC20.sol\":7361:7363  to */\n          dup2\n            /* \"@openzeppelin/contracts/token/ERC20/ERC20.sol\":7346:7371  Transfer(from, to, value) */\n          0xffffffffffffffffffffffffffffffffffffffff\n          and\n            /* \"@openzeppelin/contracts/token/ERC20/ERC20.sol\":7355:7359  from */\n          dup4\n            /* \"@openzeppelin/contracts/token/ERC20/ERC20.sol\":7346:7371  Transfer(from, to, value) */\n          0xffffffffffffffffffffffffffffffffffffffff\n          and\n          0xddf252ad1be2c89b69c2b068fc378daa952ba7f163c4a11628f55a4df523b3ef\n            /* \"@openzeppelin/contracts/token/ERC20/ERC20.sol\":7365:7370  value */\n          dup4\n            /* \"@openzeppelin/contracts/token/ERC20/ERC20.sol\":7346:7371  Transfer(from, to, value) */\n          mload(0x40)\n          tag_32\n          swap2\n          swap1\n          tag_33\n          jump\t// in\n        tag_32:\n          mload(0x40)\n          dup1\n          swap2\n          sub\n          swap1\n          log3\n            /* \"@openzeppelin/contracts/token/ERC20/ERC20.sol\":6271:7378  function _update(address from, address to, uint256 value) internal virtual {... */\n          pop\n          pop\n          pop\n          jump\t// out\n            /* \"#utility.yul\":88:205   */\n        tag_35:\n            /* \"#utility.yul\":197:198   */\n          0x00\n            /* \"#utility.yul\":194:195   */\n          dup1\n            /* \"#utility.yul\":187:199   */\n          revert\n            /* \"#utility.yul\":334:411   */\n        tag_37:\n            /* \"#utility.yul\":371:378   */\n          0x00\n            /* \"#utility.yul\":400:405   */\n          dup2\n            /* \"#utility.yul\":389:405   */\n          swap1\n          pop\n            /* \"#utility.yul\":334:411   */\n          swap2\n          swap1\n          pop\n          jump\t// out\n            /* \"#utility.yul\":417:539   */\n        tag_38:\n            /* \"#utility.yul\":490:514   */\n          tag_70\n            /* \"#utility.yul\":508:513   */\n          dup2\n            /* \"#utility.yul\":490:514   */\n          tag_37\n          jump\t// in\n        tag_70:\n            /* \"#utility.yul\":483:488   */\n          dup2\n            /* \"#utility.yul\":480:515   */\n          eq\n            /* \"#utility.yul\":470:533   */\n          tag_71\n          jumpi\n            /* \"#utility.yul\":529:530   */\n          0x00\n            /* \"#utility.yul\":526:527   */\n          dup1\n            /* \"#utility.yul\":519:531   */\n          revert\n            /* \"#utility.yul\":470:533   */\n        tag_71:\n            /* \"#utility.yul\":417:539   */\n          pop\n          jump\t// out\n            /* \"#utility.yul\":545:688   */\n        tag_39:\n            /* \"#utility.yul\":602:607   */\n          0x00\n            /* \"#utility.yul\":633:639   */\n          dup2\n            /* \"#utility.yul\":627:640   */\n          mload\n            /* \"#utility.yul\":618:640   */\n          swap1\n          pop\n            /* \"#utility.yul\":649:682   */\n          tag_73\n            /* \"#utility.yul\":676:681   */\n          dup2\n            /* \"#utility.yul\":649:682   */\n          tag_38\n          jump\t// in\n        tag_73:\n            /* \"#utility.yul\":545:688   */\n          swap3\n          swap2\n          pop\n          pop\n          jump\t// out\n            /* \"#utility.yul\":694:1045   */\n        tag_3:\n            /* \"#utility.yul\":764:770   */\n          0x00\n            /* \"#utility.yul\":813:815   */\n          0x20\n            /* \"#utility.yul\":801:810   */\n          dup3\n            /* \"#utility.yul\":792:799   */\n          dup5\n            /* \"#utility.yul\":788:811   */\n          sub\n            /* \"#utility.yul\":784:816   */\n          slt\n            /* \"#utility.yul\":781:900   */\n          iszero\n          tag_75\n          jumpi\n            /* \"#utility.yul\":819:898   */\n          tag_76\n          tag_35\n          jump\t// in\n        tag_76:\n            /* \"#utility.yul\":781:900   */\n        tag_75:\n            /* \"#utility.yul\":939:940   */\n          0x00\n            /* \"#utility.yul\":964:1028   */\n          tag_77\n            /* \"#utility.yul\":1020:1027   */\n          dup5\n            /* \"#utility.yul\":1011:1017   */\n          dup3\n            /* \"#utility.yul\":1000:1009   */\n          dup6\n            /* \"#utility.yul\":996:1018   */\n          add\n            /* \"#utility.yul\":964:1028   */\n          tag_39\n          jump\t// in\n        tag_77:\n            /* \"#utility.yul\":954:1028   */\n          swap2\n          pop\n            /* \"#utility.yul\":910:1038   */\n          pop\n            /* \"#utility.yul\":694:1045   */\n          swap3\n          swap2\n          pop\n          pop\n          jump\t// out\n            /* \"#utility.yul\":1051:1150   */\n        tag_40:\n            /* \"#utility.yul\":1103:1109   */\n          0x00\n            /* \"#utility.yul\":1137:1142   */\n          dup2\n            /* \"#utility.yul\":1131:1143   */\n          mload\n            /* \"#utility.yul\":1121:1143   */\n          swap1\n          pop\n            /* \"#utility.yul\":1051:1150   */\n          swap2\n          swap1\n          pop\n          jump\t// out\n            /* \"#utility.yul\":1156:1336   */\n        tag_41:\n            /* \"#utility.yul\":1204:1281   */\n          0x4e487b7100000000000000000000000000000000000000000000000000000000\n            /* \"#utility.yul\":1201:1202   */\n          0x00\n            /* \"#utility.yul\":1194:1282   */\n          mstore\n            /* \"#utility.yul\":1301:1305   */\n          0x41\n            /* \"#utility.yul\":1298:1299   */\n          0x04\n            /* \"#utility.yul\":1291:1306   */\n          mstore\n            /* \"#utility.yul\":1325:1329   */\n          0x24\n            /* \"#utility.yul\":1322:1323   */\n          0x00\n            /* \"#utility.yul\":1315:1330   */\n          revert\n            /* \"#utility.yul\":1342:1522   */\n        tag_42:\n            /* \"#utility.yul\":1390:1467   */\n          0x4e487b7100000000000000000000000000000000000000000000000000000000\n            /* \"#utility.yul\":1387:1388   */\n          0x00\n            /* \"#utility.yul\":1380:1468   */\n          mstore\n            /* \"#utility.yul\":1487:1491   */\n          0x22\n            /* \"#utility.yul\":1484:1485   */\n          0x04\n            /* \"#utility.yul\":1477:1492   */\n          mstore\n            /* \"#utility.yul\":1511:1515   */\n          0x24\n            /* \"#utility.yul\":1508:1509   */\n          0x00\n            /* \"#utility.yul\":1501:1516   */\n          revert\n            /* \"#utility.yul\":1528:1848   */\n        tag_43:\n            /* \"#utility.yul\":1572:1578   */\n          0x00\n            /* \"#utility.yul\":1609:1610   */\n          0x02\n            /* \"#utility.yul\":1603:1607   */\n          dup3\n            /* \"#utility.yul\":1599:1611   */\n          div\n            /* \"#utility.yul\":1589:1611   */\n          swap1\n          pop\n            /* \"#utility.yul\":1656:1657   */\n          0x01\n            /* \"#utility.yul\":1650:1654   */\n          dup3\n            /* \"#utility.yul\":1646:1658   */\n          and\n            /* \"#utility.yul\":1677:1695   */\n          dup1\n            /* \"#utility.yul\":1667:1748   */\n          tag_82\n          jumpi\n            /* \"#utility.yul\":1733:1737   */\n          0x7f\n            /* \"#utility.yul\":1725:1731   */\n          dup3\n            /* \"#utility.yul\":1721:1738   */\n          and\n            /* \"#utility.yul\":1711:1738   */\n          swap2\n          pop\n            /* \"#utility.yul\":1667:1748   */\n        tag_82:\n            /* \"#utility.yul\":1795:1797   */\n          0x20\n            /* \"#utility.yul\":1787:1793   */\n          dup3\n            /* \"#utility.yul\":1784:1798   */\n          lt\n            /* \"#utility.yul\":1764:1782   */\n          dup2\n            /* \"#utility.yul\":1761:1799   */\n          sub\n            /* \"#utility.yul\":1758:1842   */\n          tag_83\n          jumpi\n            /* \"#utility.yul\":1814:1832   */\n          tag_84\n          tag_42\n          jump\t// in\n        tag_84:\n            /* \"#utility.yul\":1758:1842   */\n        tag_83:\n            /* \"#utility.yul\":1579:1848   */\n          pop\n            /* \"#utility.yul\":1528:1848   */\n          swap2\n          swap1\n          pop\n          jump\t// out\n            /* \"#utility.yul\":1854:1995   */\n        tag_44:\n            /* \"#utility.yul\":1903:1907   */\n          0x00\n            /* \"#utility.yul\":1926:1929   */\n          dup2\n            /* \"#utility.yul\":1918:1929   */\n          swap1\n          pop\n            /* \"#utility.yul\":1949:1952   */\n          dup2\n            /* \"#utility.yul\":1946:1947   */\n          0x00\n            /* \"#utility.yul\":1939:1953   */\n          mstore\n            /* \"#utility.yul\":1983:1987   */\n          0x20\n            /* \"#utility.yul\":1980:1981   */\n          0x00\n            /* \"#utility.yul\":1970:1988   */\n          keccak256\n            /* \"#utility.yul\":1962:1988   */\n          swap1\n          pop\n            /* \"#utility.yul\":1854:1995   */\n          swap2\n          swap1\n          pop\n          jump\t// out\n            /* \"#utility.yul\":2001:2094   */\n        tag_45:\n            /* \"#utility.yul\":2038:2044   */\n          0x00\n            /* \"#utility.yul\":2085:2087   */\n          0x20\n            /* \"#utility.yul\":2080:2082   */\n          0x1f\n            /* \"#utility.yul\":2073:2078   */\n          dup4\n            /* \"#utility.yul\":2069:2083   */\n          add\n            /* \"#utility.yul\":2065:2088   */\n          div\n            /* \"#utility.yul\":2055:2088   */\n          swap1\n          pop\n            /* \"#utility.yul\":2001:2094   */\n          swap2\n          swap1\n          pop\n          jump\t// out\n            /* \"#utility.yul\":2100:2207   */\n        tag_46:\n            /* \"#utility.yul\":2144:2152   */\n          0x00\n            /* \"#utility.yul\":2194:2199   */\n          dup3\n            /* \"#utility.yul\":2188:2192   */\n          dup3\n            /* \"#utility.yul\":2184:2200   */\n          shl\n            /* \"#utility.yul\":2163:2200   */\n          swap1\n          pop\n            /* \"#utility.yul\":2100:2207   */\n          swap3\n          swap2\n          pop\n          pop\n          jump\t// out\n            /* \"#utility.yul\":2213:2606   */\n        tag_47:\n            /* \"#utility.yul\":2282:2288   */\n          0x00\n            /* \"#utility.yul\":2332:2333   */\n          0x08\n            /* \"#utility.yul\":2320:2330   */\n          dup4\n            /* \"#utility.yul\":2316:2334   */\n          mul\n            /* \"#utility.yul\":2355:2452   */\n          tag_89\n            /* \"#utility.yul\":2385:2451   */\n          0xffffffffffffffffffffffffffffffffffffffffffffffffffffffffffffffff\n            /* \"#utility.yul\":2374:2383   */\n          dup3\n            /* \"#utility.yul\":2355:2452   */\n          tag_46\n          jump\t// in\n        tag_89:\n            /* \"#utility.yul\":2473:2512   */\n          tag_90\n            /* \"#utility.yul\":2503:2511   */\n          dup7\n            /* \"#utility.yul\":2492:2501   */\n          dup4\n            /* \"#utility.yul\":2473:2512   */\n          tag_46\n          jump\t// in\n        tag_90:\n            /* \"#utility.yul\":2461:2512   */\n          swap6\n          pop\n            /* \"#utility.yul\":2545:2549   */\n          dup1\n            /* \"#utility.yul\":2541:2550   */\n          not\n            /* \"#utility.yul\":2534:2539   */\n          dup5\n            /* \"#utility.yul\":2530:2551   */\n          and\n            /* \"#utility.yul\":2521:2551   */\n          swap4\n          pop\n            /* \"#utility.yul\":2594:2598   */\n          dup1\n            /* \"#utility.yul\":2584:2592   */\n          dup7\n            /* \"#utility.yul\":2580:2599   */\n          and\n            /* \"#utility.yul\":2573:2578   */\n          dup5\n            /* \"#utility.yul\":2570:2600   */\n          or\n            /* \"#utility.yul\":2560:2600   */\n          swap3\n          pop\n            /* \"#utility.yul\":2289:2606   */\n          pop\n          pop\n            /* \"#utility.yul\":2213:2606   */\n          swap4\n          swap3\n          pop\n          pop\n          pop\n          jump\t// out\n            /* \"#utility.yul\":2612:2672   */\n        tag_48:\n            /* \"#utility.yul\":2640:2643   */\n          0x00\n            /* \"#utility.yul\":2661:2666   */\n          dup2\n            /* \"#utility.yul\":2654:2666   */\n          swap1\n          pop\n            /* \"#utility.yul\":2612:2672   */\n          swap2\n          swap1\n          pop\n          jump\t// out\n            /* \"#utility.yul\":2678:2820   */\n        tag_49:\n            /* \"#utility.yul\":2728:2737   */\n          0x00\n            /* \"#utility.yul\":2761:2814   */\n          tag_93\n            /* \"#utility.yul\":2779:2813   */\n          tag_94\n            /* \"#utility.yul\":2788:2812   */\n          tag_95\n            /* \"#utility.yul\":2806:2811   */\n          dup5\n            /* \"#utility.yul\":2788:2812   */\n          tag_37\n          jump\t// in\n        tag_95:\n            /* \"#utility.yul\":2779:2813   */\n          tag_48\n          jump\t// in\n        tag_94:\n            /* \"#utility.yul\":2761:2814   */\n          tag_37\n          jump\t// in\n        tag_93:\n            /* \"#utility.yul\":2748:2814   */\n          swap1\n          pop\n            /* \"#utility.yul\":2678:2820   */\n          swap2\n          swap1\n          pop\n          jump\t// out\n            /* \"#utility.yul\":2826:2901   */\n        tag_50:\n            /* \"#utility.yul\":2869:2872   */\n          0x00\n            /* \"#utility.yul\":2890:2895   */\n          dup2\n            /* \"#utility.yul\":2883:2895   */\n          swap1\n          pop\n            /* \"#utility.yul\":2826:2901   */\n          swap2\n          swap1\n          pop\n          jump\t// out\n            /* \"#utility.yul\":2907:3176   */\n        tag_51:\n            /* \"#utility.yul\":3017:3056   */\n          tag_98\n            /* \"#utility.yul\":3048:3055   */\n          dup4\n            /* \"#utility.yul\":3017:3056   */\n          tag_49\n          jump\t// in\n        tag_98:\n            /* \"#utility.yul\":3078:3169   */\n          tag_99\n            /* \"#utility.yul\":3127:3168   */\n          tag_100\n            /* \"#utility.yul\":3151:3167   */\n          dup3\n            /* \"#utility.yul\":3127:3168   */\n          tag_50\n          jump\t// in\n        tag_100:\n            /* \"#utility.yul\":3119:3125   */\n          dup5\n            /* \"#utility.yul\":3112:3116   */\n          dup5\n            /* \"#utility.yul\":3106:3117   */\n          sload\n            /* \"#utility.yul\":3078:3169   */\n          tag_47\n          jump\t// in\n        tag_99:\n            /* \"#utility.yul\":3072:3076   */\n          dup3\n            /* \"#utility.yul\":3065:3170   */\n          sstore\n            /* \"#utility.yul\":2983:3176   */\n          pop\n            /* \"#utility.yul\":2907:3176   */\n          pop\n          pop\n          pop\n          jump\t// out\n            /* \"#utility.yul\":3182:3255   */\n        tag_52:\n            /* \"#utility.yul\":3227:3230   */\n          0x00\n            /* \"#utility.yul\":3182:3255   */\n          swap1\n          jump\t// out\n            /* \"#utility.yul\":3261:3450   */\n        tag_53:\n            /* \"#utility.yul\":3338:3370   */\n          tag_103\n          tag_52\n          jump\t// in\n        tag_103:\n            /* \"#utility.yul\":3379:3444   */\n          tag_104\n            /* \"#utility.yul\":3437:3443   */\n          dup2\n            /* \"#utility.yul\":3429:3435   */\n          dup5\n            /* \"#utility.yul\":3423:3427   */\n          dup5\n            /* \"#utility.yul\":3379:3444   */\n          tag_51\n          jump\t// in\n        tag_104:\n            /* \"#utility.yul\":3314:3450   */\n          pop\n            /* \"#utility.yul\":3261:3450   */\n          pop\n          pop\n          jump\t// out\n            /* \"#utility.yul\":3456:3642   */\n        tag_54:\n            /* \"#utility.yul\":3516:3636   */\n        tag_106:\n            /* \"#utility.yul\":3533:3536   */\n          dup2\n            /* \"#utility.yul\":3526:3531   */\n          dup2\n            /* \"#utility.yul\":3523:3537   */\n          lt\n            /* \"#utility.yul\":3516:3636   */\n          iszero\n          tag_108\n          jumpi\n            /* \"#utility.yul\":3587:3626   */\n          tag_109\n            /* \"#utility.yul\":3624:3625   */\n          0x00\n            /* \"#utility.yul\":3617:3622   */\n          dup3\n            /* \"#utility.yul\":3587:3626   */\n          tag_53\n          jump\t// in\n        tag_109:\n            /* \"#utility.yul\":3560:3561   */\n          0x01\n            /* \"#utility.yul\":3553:3558   */\n          dup2\n            /* \"#utility.yul\":3549:3562   */\n          add\n            /* \"#utility.yul\":3540:3562   */\n          swap1\n          pop\n            /* \"#utility.yul\":3516:3636   */\n          jump(tag_106)\n        tag_108:\n            /* \"#utility.yul\":3456:3642   */\n          pop\n          pop\n          jump\t// out\n            /* \"#utility.yul\":3648:4191   */\n        tag_55:\n            /* \"#utility.yul\":3749:3751   */\n          0x1f\n            /* \"#utility.yul\":3744:3747   */\n          dup3\n            /* \"#utility.yul\":3741:3752   */\n          gt\n            /* \"#utility.yul\":3738:4184   */\n          iszero\n          tag_111\n          jumpi\n            /* \"#utility.yul\":3783:3821   */\n          tag_112\n            /* \"#utility.yul\":3815:3820   */\n          dup2\n            /* \"#utility.yul\":3783:3821   */\n          tag_44\n          jump\t// in\n        tag_112:\n            /* \"#utility.yul\":3867:3896   */\n          tag_113\n            /* \"#utility.yul\":3885:3895   */\n          dup5\n            /* \"#utility.yul\":3867:3896   */\n          tag_45\n          jump\t// in\n        tag_113:\n            /* \"#utility.yul\":3857:3865   */\n          dup2\n            /* \"#utility.yul\":3853:3897   */\n          add\n            /* \"#utility.yul\":4050:4052   */\n          0x20\n            /* \"#utility.yul\":4038:4048   */\n          dup6\n            /* \"#utility.yul\":4035:4053   */\n          lt\n            /* \"#utility.yul\":4032:4081   */\n          iszero\n          tag_114\n          jumpi\n            /* \"#utility.yul\":4071:4079   */\n          dup2\n            /* \"#utility.yul\":4056:4079   */\n          swap1\n          pop\n            /* \"#utility.yul\":4032:4081   */\n        tag_114:\n            /* \"#utility.yul\":4094:4174   */\n          tag_115\n            /* \"#utility.yul\":4150:4172   */\n          tag_116\n            /* \"#utility.yul\":4168:4171   */\n          dup6\n            /* \"#utility.yul\":4150:4172   */\n          tag_45\n          jump\t// in\n        tag_116:\n            /* \"#utility.yul\":4140:4148   */\n          dup4\n            /* \"#utility.yul\":4136:4173   */\n          add\n            /* \"#utility.yul\":4123:4134   */\n          dup3\n            /* \"#utility.yul\":4094:4174   */\n          tag_54\n          jump\t// in\n        tag_115:\n            /* \"#utility.yul\":3753:4184   */\n          pop\n          pop\n            /* \"#utility.yul\":3738:4184   */\n        tag_111:\n            /* \"#utility.yul\":3648:4191   */\n          pop\n          pop\n          pop\n          jump\t// out\n            /* \"#utility.yul\":4197:4314   */\n        tag_56:\n            /* \"#utility.yul\":4251:4259   */\n          0x00\n            /* \"#utility.yul\":4301:4306   */\n          dup3\n            /* \"#utility.yul\":4295:4299   */\n          dup3\n            /* \"#utility.yul\":4291:4307   */\n          shr\n            /* \"#utility.yul\":4270:4307   */\n          swap1\n          pop\n            /* \"#utility.yul\":4197:4314   */\n          swap3\n          swap2\n          pop\n          pop\n          jump\t// out\n            /* \"#utility.yul\":4320:4489   */\n        tag_57:\n            /* \"#utility.yul\":4364:4370   */\n          0x00\n            /* \"#utility.yul\":4397:4448   */\n          tag_119\n            /* \"#utility.yul\":4445:4446   */\n          0x00\n            /* \"#utility.yul\":4441:4447   */\n          not\n            /* \"#utility.yul\":4433:4438   */\n          dup5\n            /* \"#utility.yul\":4430:4431   */\n          0x08\n            /* \"#utility.yul\":4426:4439   */\n          mul\n            /* \"#utility.yul\":4397:4448   */\n          tag_56\n          jump\t// in\n        tag_119:\n            /* \"#utility.yul\":4393:4449   */\n          not\n            /* \"#utility.yul\":4478:4482   */\n          dup1\n            /* \"#utility.yul\":4472:4476   */\n          dup4\n            /* \"#utility.yul\":4468:4483   */\n          and\n            /* \"#utility.yul\":4458:4483   */\n          swap2\n          pop\n            /* \"#utility.yul\":4371:4489   */\n          pop\n            /* \"#utility.yul\":4320:4489   */\n          swap3\n          swap2\n          pop\n          pop\n          jump\t// out\n            /* \"#utility.yul\":4494:4789   */\n        tag_58:\n            /* \"#utility.yul\":4570:4574   */\n          0x00\n            /* \"#utility.yul\":4716:4745   */\n          tag_121\n            /* \"#utility.yul\":4741:4744   */\n          dup4\n            /* \"#utility.yul\":4735:4739   */\n          dup4\n            /* \"#utility.yul\":4716:4745   */\n          tag_57\n          jump\t// in\n        tag_121:\n            /* \"#utility.yul\":4708:4745   */\n          swap2\n          pop\n            /* \"#utility.yul\":4778:4781   */\n          dup3\n            /* \"#utility.yul\":4775:4776   */\n          0x02\n            /* \"#utility.yul\":4771:4782   */\n          mul\n            /* \"#utility.yul\":4765:4769   */\n          dup3\n            /* \"#utility.yul\":4762:4783   */\n          or\n            /* \"#utility.yul\":4754:4783   */\n          swap1\n          pop\n            /* \"#utility.yul\":4494:4789   */\n          swap3\n          swap2\n          pop\n          pop\n          jump\t// out\n            /* \"#utility.yul\":4794:6189   */\n        tag_8:\n            /* \"#utility.yul\":4911:4948   */\n          tag_123\n            /* \"#utility.yul\":4944:4947   */\n          dup3\n            /* \"#utility.yul\":4911:4948   */\n          tag_40\n          jump\t// in\n        tag_123:\n            /* \"#utility.yul\":5013:5031   */\n          0xffffffffffffffff\n            /* \"#utility.yul\":5005:5011   */\n          dup2\n            /* \"#utility.yul\":5002:5032   */\n          gt\n            /* \"#utility.yul\":4999:5055   */\n          iszero\n          tag_124\n          jumpi\n            /* \"#utility.yul\":5035:5053   */\n          tag_125\n          tag_41\n          jump\t// in\n        tag_125:\n            /* \"#utility.yul\":4999:5055   */\n        tag_124:\n            /* \"#utility.yul\":5079:5117   */\n          tag_126\n            /* \"#utility.yul\":5111:5115   */\n          dup3\n            /* \"#utility.yul\":5105:5116   */\n          sload\n            /* \"#utility.yul\":5079:5117   */\n          tag_43\n          jump\t// in\n        tag_126:\n            /* \"#utility.yul\":5164:5231   */\n          tag_127\n            /* \"#utility.yul\":5224:5230   */\n          dup3\n            /* \"#utility.yul\":5216:5222   */\n          dup3\n            /* \"#utility.yul\":5210:5214   */\n          dup6\n            /* \"#utility.yul\":5164:5231   */\n          tag_55\n          jump\t// in\n        tag_127:\n            /* \"#utility.yul\":5258:5259   */\n          0x00\n            /* \"#utility.yul\":5282:5286   */\n          0x20\n            /* \"#utility.yul\":5269:5286   */\n          swap1\n          pop\n            /* \"#utility.yul\":5314:5316   */\n          0x1f\n            /* \"#utility.yul\":5306:5312   */\n          dup4\n            /* \"#utility.yul\":5303:5317   */\n          gt\n            /* \"#utility.yul\":5331:5332   */\n          0x01\n            /* \"#utility.yul\":5326:5944   */\n          dup2\n          eq\n          tag_129\n          jumpi\n            /* \"#utility.yul\":5988:5989   */\n          0x00\n            /* \"#utility.yul\":6005:6011   */\n          dup5\n            /* \"#utility.yul\":6002:6079   */\n          iszero\n          tag_130\n          jumpi\n            /* \"#utility.yul\":6054:6063   */\n          dup3\n            /* \"#utility.yul\":6049:6052   */\n          dup8\n            /* \"#utility.yul\":6045:6064   */\n          add\n            /* \"#utility.yul\":6039:6065   */\n          mload\n            /* \"#utility.yul\":6030:6065   */\n          swap1\n          pop\n            /* \"#utility.yul\":6002:6079   */\n        tag_130:\n            /* \"#utility.yul\":6105:6172   */\n          tag_131\n            /* \"#utility.yul\":6165:6171   */\n          dup6\n            /* \"#utility.yul\":6158:6163   */\n          dup3\n            /* \"#utility.yul\":6105:6172   */\n          tag_58\n          jump\t// in\n        tag_131:\n            /* \"#utility.yul\":6099:6103   */\n          dup7\n            /* \"#utility.yul\":6092:6173   */\n          sstore\n            /* \"#utility.yul\":5961:6183   */\n          pop\n            /* \"#utility.yul\":5296:6183   */\n          jump(tag_128)\n            /* \"#utility.yul\":5326:5944   */\n        tag_129:\n            /* \"#utility.yul\":5378:5382   */\n          0x1f\n            /* \"#utility.yul\":5374:5383   */\n          not\n            /* \"#utility.yul\":5366:5372   */\n          dup5\n            /* \"#utility.yul\":5362:5384   */\n          and\n            /* \"#utility.yul\":5412:5449   */\n          tag_132\n            /* \"#utility.yul\":5444:5448   */\n          dup7\n            /* \"#utility.yul\":5412:5449   */\n          tag_44\n          jump\t// in\n        tag_132:\n            /* \"#utility.yul\":5471:5472   */\n          0x00\n            /* \"#utility.yul\":5485:5693   */\n        tag_133:\n            /* \"#utility.yul\":5499:5506   */\n          dup3\n            /* \"#utility.yul\":5496:5497   */\n          dup2\n            /* \"#utility.yul\":5493:5507   */\n          lt\n            /* \"#utility.yul\":5485:5693   */\n          iszero\n          tag_135\n          jumpi\n            /* \"#utility.yul\":5578:5587   */\n          dup5\n            /* \"#utility.yul\":5573:5576   */\n          dup10\n            /* \"#utility.yul\":5569:5588   */\n          add\n            /* \"#utility.yul\":5563:5589   */\n          mload\n            /* \"#utility.yul\":5555:5561   */\n          dup3\n            /* \"#utility.yul\":5548:5590   */\n          sstore\n            /* \"#utility.yul\":5629:5630   */\n          0x01\n            /* \"#utility.yul\":5621:5627   */\n          dup3\n            /* \"#utility.yul\":5617:5631   */\n          add\n            /* \"#utility.yul\":5607:5631   */\n          swap2\n          pop\n            /* \"#utility.yul\":5676:5678   */\n          0x20\n            /* \"#utility.yul\":5665:5674   */\n          dup6\n            /* \"#utility.yul\":5661:5679   */\n          add\n            /* \"#utility.yul\":5648:5679   */\n          swap5\n          pop\n            /* \"#utility.yul\":5522:5526   */\n          0x20\n            /* \"#utility.yul\":5519:5520   */\n          dup2\n            /* \"#utility.yul\":5515:5527   */\n          add\n            /* \"#utility.yul\":5510:5527   */\n          swap1\n          pop\n            /* \"#utility.yul\":5485:5693   */\n          jump(tag_133)\n        tag_135:\n            /* \"#utility.yul\":5721:5727   */\n          dup7\n            /* \"#utility.yul\":5712:5719   */\n          dup4\n            /* \"#utility.yul\":5709:5728   */\n          lt\n            /* \"#utility.yul\":5706:5885   */\n          iszero\n          tag_136\n          jumpi\n            /* \"#utility.yul\":5779:5788   */\n          dup5\n            /* \"#utility.yul\":5774:5777   */\n          dup10\n            /* \"#utility.yul\":5770:5789   */\n          add\n            /* \"#utility.yul\":5764:5790   */\n          mload\n            /* \"#utility.yul\":5822:5870   */\n          tag_137\n            /* \"#utility.yul\":5864:5868   */\n          0x1f\n            /* \"#utility.yul\":5856:5862   */\n          dup10\n            /* \"#utility.yul\":5852:5869   */\n          and\n            /* \"#utility.yul\":5841:5850   */\n          dup3\n            /* \"#utility.yul\":5822:5870   */\n          tag_57\n          jump\t// in\n        tag_137:\n            /* \"#utility.yul\":5814:5820   */\n          dup4\n            /* \"#utility.yul\":5807:5871   */\n          sstore\n            /* \"#utility.yul\":5729:5885   */\n          pop\n            /* \"#utility.yul\":5706:5885   */\n        tag_136:\n            /* \"#utility.yul\":5931:5932   */\n          0x01\n            /* \"#utility.yul\":5927:5928   */\n          0x02\n            /* \"#utility.yul\":5919:5925   */\n          dup9\n            /* \"#utility.yul\":5915:5929   */\n          mul\n            /* \"#utility.yul\":5911:5933   */\n          add\n            /* \"#utility.yul\":5905:5909   */\n          dup9\n            /* \"#utility.yul\":5898:5934   */\n          sstore\n            /* \"#utility.yul\":5333:5944   */\n          pop\n          pop\n          pop\n            /* \"#utility.yul\":5296:6183   */\n        tag_128:\n          pop\n            /* \"#utility.yul\":4886:6189   */\n          pop\n          pop\n          pop\n            /* \"#utility.yul\":4794:6189   */\n          pop\n          pop\n          jump\t// out\n            /* \"#utility.yul\":6195:6375   */\n        tag_59:\n            /* \"#utility.yul\":6243:6320   */\n          0x4e487b7100000000000000000000000000000000000000000000000000000000\n            /* \"#utility.yul\":6240:6241   */\n          0x00\n            /* \"#utility.yul\":6233:6321   */\n          mstore\n            /* \"#utility.yul\":6340:6344   */\n          0x11\n            /* \"#utility.yul\":6337:6338   */\n          0x04\n            /* \"#utility.yul\":6330:6345   */\n          mstore\n            /* \"#utility.yul\":6364:6368   */\n          0x24\n            /* \"#utility.yul\":6361:6362   */\n          0x00\n            /* \"#utility.yul\":6354:6369   */\n          revert\n            /* \"#utility.yul\":6381:6791   */\n        tag_13:\n            /* \"#utility.yul\":6421:6428   */\n          0x00\n            /* \"#utility.yul\":6444:6464   */\n          tag_140\n            /* \"#utility.yul\":6462:6463   */\n          dup3\n            /* \"#utility.yul\":6444:6464   */\n          tag_37\n          jump\t// in\n        tag_140:\n            /* \"#utility.yul\":6439:6464   */\n          swap2\n          pop\n            /* \"#utility.yul\":6478:6498   */\n          tag_141\n            /* \"#utility.yul\":6496:6497   */\n          dup4\n            /* \"#utility.yul\":6478:6498   */\n          tag_37\n          jump\t// in\n        tag_141:\n            /* \"#utility.yul\":6473:6498   */\n          swap3\n          pop\n            /* \"#utility.yul\":6533:6534   */\n          dup3\n            /* \"#utility.yul\":6530:6531   */\n          dup3\n            /* \"#utility.yul\":6526:6535   */\n          mul\n            /* \"#utility.yul\":6555:6585   */\n          tag_142\n            /* \"#utility.yul\":6573:6584   */\n          dup2\n            /* \"#utility.yul\":6555:6585   */\n          tag_37\n          jump\t// in\n        tag_142:\n            /* \"#utility.yul\":6544:6585   */\n          swap2\n          pop\n            /* \"#utility.yul\":6734:6735   */\n          dup3\n            /* \"#utility.yul\":6725:6732   */\n          dup3\n            /* \"#utility.yul\":6721:6736   */\n          div\n            /* \"#utility.yul\":6718:6719   */\n          dup5\n            /* \"#utility.yul\":6715:6737   */\n          eq\n            /* \"#utility.yul\":6695:6696   */\n          dup4\n            /* \"#utility.yul\":6688:6697   */\n          iszero\n            /* \"#utility.yul\":6668:6751   */\n          or\n            /* \"#utility.yul\":6645:6784   */\n          tag_143\n          jumpi\n            /* \"#utility.yul\":6764:6782   */\n          tag_144\n          tag_59\n          jump\t// in\n        tag_144:\n            /* \"#utility.yul\":6645:6784   */\n        tag_143:\n            /* \"#utility.yul\":6429:6791   */\n          pop\n            /* \"#utility.yul\":6381:6791   */\n          swap3\n          swap2\n          pop\n          pop\n          jump\t// out\n            /* \"#utility.yul\":6797:6923   */\n        tag_60:\n            /* \"#utility.yul\":6834:6841   */\n          0x00\n            /* \"#utility.yul\":6874:6916   */\n          0xffffffffffffffffffffffffffffffffffffffff\n            /* \"#utility.yul\":6867:6872   */\n          dup3\n            /* \"#utility.yul\":6863:6917   */\n          and\n            /* \"#utility.yul\":6852:6917   */\n          swap1\n          pop\n            /* \"#utility.yul\":6797:6923   */\n          swap2\n          swap1\n          pop\n          jump\t// out\n            /* \"#utility.yul\":6929:7025   */\n        tag_61:\n            /* \"#utility.yul\":6966:6973   */\n          0x00\n            /* \"#utility.yul\":6995:7019   */\n          tag_147\n            /* \"#utility.yul\":7013:7018   */\n          dup3\n            /* \"#utility.yul\":6995:7019   */\n          tag_60\n          jump\t// in\n        tag_147:\n            /* \"#utility.yul\":6984:7019   */\n          swap1\n          pop\n            /* \"#utility.yul\":6929:7025   */\n          swap2\n          swap1\n          pop\n          jump\t// out\n            /* \"#utility.yul\":7031:7149   */\n        tag_62:\n            /* \"#utility.yul\":7118:7142   */\n          tag_149\n            /* \"#utility.yul\":7136:7141   */\n          dup2\n            /* \"#utility.yul\":7118:7142   */\n          tag_61\n          jump\t// in\n        tag_149:\n            /* \"#utility.yul\":7113:7116   */\n          dup3\n            /* \"#utility.yul\":7106:7143   */\n          mstore\n            /* \"#utility.yul\":7031:7149   */\n          pop\n          pop\n          jump\t// out\n            /* \"#utility.yul\":7155:7377   */\n        tag_19:\n            /* \"#utility.yul\":7248:7252   */\n          0x00\n            /* \"#utility.yul\":7286:7288   */\n          0x20\n            /* \"#utility.yul\":7275:7284   */\n          dup3\n            /* \"#utility.yul\":7271:7289   */\n          add\n            /* \"#utility.yul\":7263:7289   */\n          swap1\n          pop\n            /* \"#utility.yul\":7299:7370   */\n          tag_151\n            /* \"#utility.yul\":7367:7368   */\n          0x00\n            /* \"#utility.yul\":7356:7365   */\n          dup4\n            /* \"#utility.yul\":7352:7369   */\n          add\n            /* \"#utility.yul\":7343:7349   */\n          dup5\n            /* \"#utility.yul\":7299:7370   */\n          tag_62\n          jump\t// in\n        tag_151:\n            /* \"#utility.yul\":7155:7377   */\n          swap3\n          swap2\n          pop\n          pop\n          jump\t// out\n            /* \"#utility.yul\":7383:7574   */\n        tag_25:\n            /* \"#utility.yul\":7423:7426   */\n          0x00\n            /* \"#utility.yul\":7442:7462   */\n          tag_153\n            /* \"#utility.yul\":7460:7461   */\n          dup3\n            /* \"#utility.yul\":7442:7462   */\n          tag_37\n          jump\t// in\n        tag_153:\n            /* \"#utility.yul\":7437:7462   */\n          swap2\n          pop\n            /* \"#utility.yul\":7476:7496   */\n          tag_154\n            /* \"#utility.yul\":7494:7495   */\n          dup4\n            /* \"#utility.yul\":7476:7496   */\n          tag_37\n          jump\t// in\n        tag_154:\n            /* \"#utility.yul\":7471:7496   */\n          swap3\n          pop\n            /* \"#utility.yul\":7519:7520   */\n          dup3\n            /* \"#utility.yul\":7516:7517   */\n          dup3\n            /* \"#utility.yul\":7512:7521   */\n          add\n            /* \"#utility.yul\":7505:7521   */\n          swap1\n          pop\n            /* \"#utility.yul\":7540:7543   */\n          dup1\n            /* \"#utility.yul\":7537:7538   */\n          dup3\n            /* \"#utility.yul\":7534:7544   */\n          gt\n            /* \"#utility.yul\":7531:7567   */\n          iszero\n          tag_155\n          jumpi\n            /* \"#utility.yul\":7547:7565   */\n          tag_156\n          tag_59\n          jump\t// in\n        tag_156:\n            /* \"#utility.yul\":7531:7567   */\n        tag_155:\n            /* \"#utility.yul\":7383:7574   */\n          swap3\n          swap2\n          pop\n          pop\n          jump\t// out\n            /* \"#utility.yul\":7580:7698   */\n        tag_63:\n            /* \"#utility.yul\":7667:7691   */\n          tag_158\n            /* \"#utility.yul\":7685:7690   */\n          dup2\n            /* \"#utility.yul\":7667:7691   */\n          tag_37\n          jump\t// in\n        tag_158:\n            /* \"#utility.yul\":7662:7665   */\n          dup3\n            /* \"#utility.yul\":7655:7692   */\n          mstore\n            /* \"#utility.yul\":7580:7698   */\n          pop\n          pop\n          jump\t// out\n            /* \"#utility.yul\":7704:8146   */\n        tag_29:\n            /* \"#utility.yul\":7853:7857   */\n          0x00\n            /* \"#utility.yul\":7891:7893   */\n          0x60\n            /* \"#utility.yul\":7880:7889   */\n          dup3\n            /* \"#utility.yul\":7876:7894   */\n          add\n            /* \"#utility.yul\":7868:7894   */\n          swap1\n          pop\n            /* \"#utility.yul\":7904:7975   */\n          tag_160\n            /* \"#utility.yul\":7972:7973   */\n          0x00\n            /* \"#utility.yul\":7961:7970   */\n          dup4\n            /* \"#utility.yul\":7957:7974   */\n          add\n            /* \"#utility.yul\":7948:7954   */\n          dup7\n            /* \"#utility.yul\":7904:7975   */\n          tag_62\n          jump\t// in\n        tag_160:\n            /* \"#utility.yul\":7985:8057   */\n          tag_161\n            /* \"#utility.yul\":8053:8055   */\n          0x20\n            /* \"#utility.yul\":8042:8051   */\n          dup4\n            /* \"#utility.yul\":8038:8056   */\n          add\n            /* \"#utility.yul\":8029:8035   */\n          dup6\n            /* \"#utility.yul\":7985:8057   */\n          tag_63\n          jump\t// in\n        tag_161:\n            /* \"#utility.yul\":8067:8139   */\n          tag_162\n            /* \"#utility.yul\":8135:8137   */\n          0x40\n            /* \"#utility.yul\":8124:8133   */\n          dup4\n            /* \"#utility.yul\":8120:8138   */\n          add\n            /* \"#utility.yul\":8111:8117   */\n          dup5\n            /* \"#utility.yul\":8067:8139   */\n          tag_63\n          jump\t// in\n        tag_162:\n            /* \"#utility.yul\":7704:8146   */\n          swap5\n          swap4\n          pop\n          pop\n          pop\n          pop\n          jump\t// out\n            /* \"#utility.yul\":8152:8374   */\n        tag_33:\n            /* \"#utility.yul\":8245:8249   */\n          0x00\n            /* \"#utility.yul\":8283:8285   */\n          0x20\n            /* \"#utility.yul\":8272:8281   */\n          dup3\n            /* \"#utility.yul\":8268:8286   */\n          add\n            /* \"#utility.yul\":8260:8286   */\n          swap1\n          pop\n            /* \"#utility.yul\":8296:8367   */\n          tag_164\n            /* \"#utility.yul\":8364:8365   */\n          0x00\n            /* \"#utility.yul\":8353:8362   */\n          dup4\n            /* \"#utility.yul\":8349:8366   */\n          add\n            /* \"#utility.yul\":8340:8346   */\n          dup5\n            /* \"#utility.yul\":8296:8367   */\n          tag_63\n          jump\t// in\n        tag_164:\n            /* \"#utility.yul\":8152:8374   */\n          swap3\n          swap2\n          pop\n          pop\n          jump\t// out\n            /* \"contracts/DataPunk.sol\":318:535  contract DataPunkCoin is ERC20 {... */\n        tag_15:\n          dataSize(sub_0)\n          dup1\n          dataOffset(sub_0)\n          0x00\n          codecopy\n          0x00\n          return\n        stop\n\n        sub_0: assembly {\n                /* \"contracts/DataPunk.sol\":318:535  contract DataPunkCoin is ERC20 {... */\n              mstore(0x40, 0x80)\n              callvalue\n              dup1\n              iszero\n              tag_1\n              jumpi\n              0x00\n              dup1\n              revert\n            tag_1:\n              pop\n              jumpi(tag_2, lt(calldatasize, 0x04))\n              shr(0xe0, calldataload(0x00))\n              dup1\n              0x313ce567\n              gt\n              tag_12\n              jumpi\n              dup1\n              0x313ce567\n              eq\n              tag_7\n              jumpi\n              dup1\n              0x70a08231\n              eq\n              tag_8\n              jumpi\n              dup1\n              0x95d89b41\n              eq\n              tag_9\n              jumpi\n              dup1\n              0xa9059cbb\n              eq\n              tag_10\n              jumpi\n              dup1\n              0xdd62ed3e\n              eq\n              tag_11\n              jumpi\n              jump(tag_2)\n            tag_12:\n              dup1\n              0x06fdde03\n              eq\n              tag_3\n              jumpi\n              dup1\n              0x095ea7b3\n              eq\n              tag_4\n              jumpi\n              dup1\n              0x18160ddd\n              eq\n              tag_5\n              jumpi\n              dup1\n              0x23b872dd\n              eq\n              tag_6\n              jumpi\n            tag_2:\n              0x00\n              dup1\n              revert\n                /* \"@openzeppelin/contracts/token/ERC20/ERC20.sol\":2074:2163  function name() public view virtual returns (string memory) {... */\n            tag_3:\n              tag_13\n              tag_14\n              jump\t// in\n            tag_13:\n              mload(0x40)\n              tag_15\n              swap2\n              swap1\n              tag_16\n              jump\t// in\n            tag_15:\n              mload(0x40)\n              dup1\n              swap2\n              sub\n              swap1\n              return\n                /* \"@openzeppelin/contracts/token/ERC20/ERC20.sol\":4293:4479  function approve(address spender, uint256 value) public virtual returns (bool) {... */\n            tag_4:\n              tag_17\n              0x04\n              dup1\n              calldatasize\n              sub\n              dup2\n              add\n              swap1\n              tag_18\n              swap2\n              swap1\n              tag_19\n              jump\t// in\n            tag_18:\n              tag_20\n              jump\t// in\n            tag_17:\n              mload(0x40)\n              tag_21\n              swap2\n              swap1\n              tag_22\n              jump\t// in\n            tag_21:\n              mload(0x40)\n              dup1\n              swap2\n              sub\n              swap1\n              return\n                /* \"@openzeppelin/contracts/token/ERC20/ERC20.sol\":3144:3241  function totalSupply() public view virtual returns (uint256) {... */\n            tag_5:\n              tag_23\n              tag_24\n              jump\t// in\n            tag_23:\n              mload(0x40)\n              tag_25\n              swap2\n              swap1\n              tag_26\n              jump\t// in\n            tag_25:\n              mload(0x40)\n              dup1\n              swap2\n              sub\n              swap1\n              return\n                /* \"@openzeppelin/contracts/token/ERC20/ERC20.sol\":5039:5283  function transferFrom(address from, address to, uint256 value) public virtual returns (bool) {... */\n            tag_6:\n              tag_27\n              0x04\n              dup1\n              calldatasize\n              sub\n              dup2\n              add\n              swap1\n              tag_28\n              swap2\n              swap1\n              tag_29\n              jump\t// in\n            tag_28:\n              tag_30\n              jump\t// in\n            tag_27:\n              mload(0x40)\n              tag_31\n              swap2\n              swap1\n              tag_22\n              jump\t// in\n            tag_31:\n              mload(0x40)\n              dup1\n              swap2\n              sub\n              swap1\n              return\n                /* \"@openzeppelin/contracts/token/ERC20/ERC20.sol\":3002:3084  function decimals() public view virtual returns (uint8) {... */\n            tag_7:\n              tag_32\n              tag_33\n              jump\t// in\n            tag_32:\n              mload(0x40)\n              tag_34\n              swap2\n              swap1\n              tag_35\n              jump\t// in\n            tag_34:\n              mload(0x40)\n              dup1\n              swap2\n              sub\n              swap1\n              return\n                /* \"@openzeppelin/contracts/token/ERC20/ERC20.sol\":3299:3415  function balanceOf(address account) public view virtual returns (uint256) {... */\n            tag_8:\n              tag_36\n              0x04\n              dup1\n              calldatasize\n              sub\n              dup2\n              add\n              swap1\n              tag_37\n              swap2\n              swap1\n              tag_38\n              jump\t// in\n            tag_37:\n              tag_39\n              jump\t// in\n            tag_36:\n              mload(0x40)\n              tag_40\n              swap2\n              swap1\n              tag_26\n              jump\t// in\n            tag_40:\n              mload(0x40)\n              dup1\n              swap2\n              sub\n              swap1\n              return\n                /* \"@openzeppelin/contracts/token/ERC20/ERC20.sol\":2276:2369  function symbol() public view virtual returns (string memory) {... */\n            tag_9:\n              tag_41\n              tag_42\n              jump\t// in\n            tag_41:\n              mload(0x40)\n              tag_43\n              swap2\n              swap1\n              tag_16\n              jump\t// in\n            tag_43:\n              mload(0x40)\n              dup1\n              swap2\n              sub\n              swap1\n              return\n                /* \"@openzeppelin/contracts/token/ERC20/ERC20.sol\":3610:3788  function transfer(address to, uint256 value) public virtual returns (bool) {... */\n            tag_10:\n              tag_44\n              0x04\n              dup1\n              calldatasize\n              sub\n              dup2\n              add\n              swap1\n              tag_45\n              swap2\n              swap1\n              tag_19\n              jump\t// in\n            tag_45:\n              tag_46\n              jump\t// in\n            tag_44:\n              mload(0x40)\n              tag_47\n              swap2\n              swap1\n              tag_22\n              jump\t// in\n            tag_47:\n              mload(0x40)\n              dup1\n              swap2\n              sub\n              swap1\n              return\n                /* \"@openzeppelin/contracts/token/ERC20/ERC20.sol\":3846:3986  function allowance(address owner, address spender) public view virtual returns (uint256) {... */\n            tag_11:\n              tag_48\n              0x04\n              dup1\n              calldatasize\n              sub\n              dup2\n              add\n              swap1\n              tag_49\n              swap2\n              swap1\n              tag_50\n              jump\t// in\n            tag_49:\n              tag_51\n              jump\t// in\n            tag_48:\n              mload(0x40)\n              tag_52\n              swap2\n              swap1\n              tag_26\n              jump\t// in\n            tag_52:\n              mload(0x40)\n              dup1\n              swap2\n              sub\n              swap1\n              return\n                /* \"@openzeppelin/contracts/token/ERC20/ERC20.sol\":2074:2163  function name() public view virtual returns (string memory) {... */\n            tag_14:\n                /* \"@openzeppelin/contracts/token/ERC20/ERC20.sol\":2119:2132  string memory */\n              0x60\n                /* \"@openzeppelin/contracts/token/ERC20/ERC20.sol\":2151:2156  _name */\n              0x03\n                /* \"@openzeppelin/contracts/token/ERC20/ERC20.sol\":2144:2156  return _name */\n              dup1\n              sload\n              tag_54\n              swap1\n              tag_55\n              jump\t// in\n            tag_54:\n              dup1\n              0x1f\n              add\n              0x20\n              dup1\n              swap2\n              div\n              mul\n              0x20\n              add\n              mload(0x40)\n              swap1\n              dup2\n              add\n              0x40\n              mstore\n              dup1\n              swap3\n              swap2\n              swap1\n              dup2\n              dup2\n              mstore\n              0x20\n              add\n              dup3\n              dup1\n              sload\n              tag_56\n              swap1\n              tag_55\n              jump\t// in\n            tag_56:\n              dup1\n              iszero\n              tag_57\n              jumpi\n              dup1\n              0x1f\n              lt\n              tag_58\n              jumpi\n              0x0100\n              dup1\n              dup4\n              sload\n              div\n              mul\n              dup4\n              mstore\n              swap2\n              0x20\n              add\n              swap2\n              jump(tag_57)\n            tag_58:\n              dup3\n              add\n              swap2\n              swap1\n              0x00\n              mstore\n              keccak256(0x00, 0x20)\n              swap1\n            tag_59:\n              dup2\n              sload\n              dup2\n              mstore\n              swap1\n              0x01\n              add\n              swap1\n              0x20\n              add\n              dup1\n              dup4\n              gt\n              tag_59\n              jumpi\n              dup3\n              swap1\n              sub\n              0x1f\n              and\n              dup3\n              add\n              swap2\n            tag_57:\n              pop\n              pop\n              pop\n              pop\n              pop\n              swap1\n              pop\n                /* \"@openzeppelin/contracts/token/ERC20/ERC20.sol\":2074:2163  function name() public view virtual returns (string memory) {... */\n              swap1\n              jump\t// out\n                /* \"@openzeppelin/contracts/token/ERC20/ERC20.sol\":4293:4479  function approve(address spender, uint256 value) public virtual returns (bool) {... */\n            tag_20:\n                /* \"@openzeppelin/contracts/token/ERC20/ERC20.sol\":4366:4370  bool */\n              0x00\n                /* \"@openzeppelin/contracts/token/ERC20/ERC20.sol\":4382:4395  address owner */\n              dup1\n                /* \"@openzeppelin/contracts/token/ERC20/ERC20.sol\":4398:4410  _msgSender() */\n              tag_61\n                /* \"@openzeppelin/contracts/token/ERC20/ERC20.sol\":4398:4408  _msgSender */\n              tag_62\n                /* \"@openzeppelin/contracts/token/ERC20/ERC20.sol\":4398:4410  _msgSender() */\n              jump\t// in\n            tag_61:\n                /* \"@openzeppelin/contracts/token/ERC20/ERC20.sol\":4382:4410  address owner = _msgSender() */\n              swap1\n              pop\n                /* \"@openzeppelin/contracts/token/ERC20/ERC20.sol\":4420:4451  _approve(owner, spender, value) */\n              tag_63\n                /* \"@openzeppelin/contracts/token/ERC20/ERC20.sol\":4429:4434  owner */\n              dup2\n                /* \"@openzeppelin/contracts/token/ERC20/ERC20.sol\":4436:4443  spender */\n              dup6\n                /* \"@openzeppelin/contracts/token/ERC20/ERC20.sol\":4445:4450  value */\n              dup6\n                /* \"@openzeppelin/contracts/token/ERC20/ERC20.sol\":4420:4428  _approve */\n              tag_64\n                /* \"@openzeppelin/contracts/token/ERC20/ERC20.sol\":4420:4451  _approve(owner, spender, value) */\n              jump\t// in\n            tag_63:\n                /* \"@openzeppelin/contracts/token/ERC20/ERC20.sol\":4468:4472  true */\n              0x01\n                /* \"@openzeppelin/contracts/token/ERC20/ERC20.sol\":4461:4472  return true */\n              swap2\n              pop\n              pop\n                /* \"@openzeppelin/contracts/token/ERC20/ERC20.sol\":4293:4479  function approve(address spender, uint256 value) public virtual returns (bool) {... */\n              swap3\n              swap2\n              pop\n              pop\n              jump\t// out\n                /* \"@openzeppelin/contracts/token/ERC20/ERC20.sol\":3144:3241  function totalSupply() public view virtual returns (uint256) {... */\n            tag_24:\n                /* \"@openzeppelin/contracts/token/ERC20/ERC20.sol\":3196:3203  uint256 */\n              0x00\n                /* \"@openzeppelin/contracts/token/ERC20/ERC20.sol\":3222:3234  _totalSupply */\n              sload(0x02)\n                /* \"@openzeppelin/contracts/token/ERC20/ERC20.sol\":3215:3234  return _totalSupply */\n              swap1\n              pop\n                /* \"@openzeppelin/contracts/token/ERC20/ERC20.sol\":3144:3241  function totalSupply() public view virtual returns (uint256) {... */\n              swap1\n              jump\t// out\n                /* \"@openzeppelin/contracts/token/ERC20/ERC20.sol\":5039:5283  function transferFrom(address from, address to, uint256 value) public virtual returns (bool) {... */\n            tag_30:\n                /* \"@openzeppelin/contracts/token/ERC20/ERC20.sol\":5126:5130  bool */\n              0x00\n                /* \"@openzeppelin/contracts/token/ERC20/ERC20.sol\":5142:5157  address spender */\n              dup1\n                /* \"@openzeppelin/contracts/token/ERC20/ERC20.sol\":5160:5172  _msgSender() */\n              tag_67\n                /* \"@openzeppelin/contracts/token/ERC20/ERC20.sol\":5160:5170  _msgSender */\n              tag_62\n                /* \"@openzeppelin/contracts/token/ERC20/ERC20.sol\":5160:5172  _msgSender() */\n              jump\t// in\n            tag_67:\n                /* \"@openzeppelin/contracts/token/ERC20/ERC20.sol\":5142:5172  address spender = _msgSender() */\n              swap1\n              pop\n                /* \"@openzeppelin/contracts/token/ERC20/ERC20.sol\":5182:5219  _spendAllowance(from, spender, value) */\n              tag_68\n                /* \"@openzeppelin/contracts/token/ERC20/ERC20.sol\":5198:5202  from */\n              dup6\n                /* \"@openzeppelin/contracts/token/ERC20/ERC20.sol\":5204:5211  spender */\n              dup3\n                /* \"@openzeppelin/contracts/token/ERC20/ERC20.sol\":5213:5218  value */\n              dup6\n                /* \"@openzeppelin/contracts/token/ERC20/ERC20.sol\":5182:5197  _spendAllowance */\n              tag_69\n                /* \"@openzeppelin/contracts/token/ERC20/ERC20.sol\":5182:5219  _spendAllowance(from, spender, value) */\n              jump\t// in\n            tag_68:\n                /* \"@openzeppelin/contracts/token/ERC20/ERC20.sol\":5229:5255  _transfer(from, to, value) */\n              tag_70\n                /* \"@openzeppelin/contracts/token/ERC20/ERC20.sol\":5239:5243  from */\n              dup6\n                /* \"@openzeppelin/contracts/token/ERC20/ERC20.sol\":5245:5247  to */\n              dup6\n                /* \"@openzeppelin/contracts/token/ERC20/ERC20.sol\":5249:5254  value */\n              dup6\n                /* \"@openzeppelin/contracts/token/ERC20/ERC20.sol\":5229:5238  _transfer */\n              tag_71\n                /* \"@openzeppelin/contracts/token/ERC20/ERC20.sol\":5229:5255  _transfer(from, to, value) */\n              jump\t// in\n            tag_70:\n                /* \"@openzeppelin/contracts/token/ERC20/ERC20.sol\":5272:5276  true */\n              0x01\n                /* \"@openzeppelin/contracts/token/ERC20/ERC20.sol\":5265:5276  return true */\n              swap2\n              pop\n              pop\n                /* \"@openzeppelin/contracts/token/ERC20/ERC20.sol\":5039:5283  function transferFrom(address from, address to, uint256 value) public virtual returns (bool) {... */\n              swap4\n              swap3\n              pop\n              pop\n              pop\n              jump\t// out\n                /* \"@openzeppelin/contracts/token/ERC20/ERC20.sol\":3002:3084  function decimals() public view virtual returns (uint8) {... */\n            tag_33:\n                /* \"@openzeppelin/contracts/token/ERC20/ERC20.sol\":3051:3056  uint8 */\n              0x00\n                /* \"@openzeppelin/contracts/token/ERC20/ERC20.sol\":3075:3077  18 */\n              0x12\n                /* \"@openzeppelin/contracts/token/ERC20/ERC20.sol\":3068:3077  return 18 */\n              swap1\n              pop\n                /* \"@openzeppelin/contracts/token/ERC20/ERC20.sol\":3002:3084  function decimals() public view virtual returns (uint8) {... */\n              swap1\n              jump\t// out\n                /* \"@openzeppelin/contracts/token/ERC20/ERC20.sol\":3299:3415  function balanceOf(address account) public view virtual returns (uint256) {... */\n            tag_39:\n                /* \"@openzeppelin/contracts/token/ERC20/ERC20.sol\":3364:3371  uint256 */\n              0x00\n                /* \"@openzeppelin/contracts/token/ERC20/ERC20.sol\":3390:3399  _balances */\n              dup1\n                /* \"@openzeppelin/contracts/token/ERC20/ERC20.sol\":3390:3408  _balances[account] */\n              0x00\n                /* \"@openzeppelin/contracts/token/ERC20/ERC20.sol\":3400:3407  account */\n              dup4\n                /* \"@openzeppelin/contracts/token/ERC20/ERC20.sol\":3390:3408  _balances[account] */\n              0xffffffffffffffffffffffffffffffffffffffff\n              and\n              0xffffffffffffffffffffffffffffffffffffffff\n              and\n              dup2\n              mstore\n              0x20\n              add\n              swap1\n              dup2\n              mstore\n              0x20\n              add\n              0x00\n              keccak256\n              sload\n                /* \"@openzeppelin/contracts/token/ERC20/ERC20.sol\":3383:3408  return _balances[account] */\n              swap1\n              pop\n                /* \"@openzeppelin/contracts/token/ERC20/ERC20.sol\":3299:3415  function balanceOf(address account) public view virtual returns (uint256) {... */\n              swap2\n              swap1\n              pop\n              jump\t// out\n                /* \"@openzeppelin/contracts/token/ERC20/ERC20.sol\":2276:2369  function symbol() public view virtual returns (string memory) {... */\n            tag_42:\n                /* \"@openzeppelin/contracts/token/ERC20/ERC20.sol\":2323:2336  string memory */\n              0x60\n                /* \"@openzeppelin/contracts/token/ERC20/ERC20.sol\":2355:2362  _symbol */\n              0x04\n                /* \"@openzeppelin/contracts/token/ERC20/ERC20.sol\":2348:2362  return _symbol */\n              dup1\n              sload\n              tag_75\n              swap1\n              tag_55\n              jump\t// in\n            tag_75:\n              dup1\n              0x1f\n              add\n              0x20\n              dup1\n              swap2\n              div\n              mul\n              0x20\n              add\n              mload(0x40)\n              swap1\n              dup2\n              add\n              0x40\n              mstore\n              dup1\n              swap3\n              swap2\n              swap1\n              dup2\n              dup2\n              mstore\n              0x20\n              add\n              dup3\n              dup1\n              sload\n              tag_76\n              swap1\n              tag_55\n              jump\t// in\n            tag_76:\n              dup1\n              iszero\n              tag_77\n              jumpi\n              dup1\n              0x1f\n              lt\n              tag_78\n              jumpi\n              0x0100\n              dup1\n              dup4\n              sload\n              div\n              mul\n              dup4\n              mstore\n              swap2\n              0x20\n              add\n              swap2\n              jump(tag_77)\n            tag_78:\n              dup3\n              add\n              swap2\n              swap1\n              0x00\n              mstore\n              keccak256(0x00, 0x20)\n              swap1\n            tag_79:\n              dup2\n              sload\n              dup2\n              mstore\n              swap1\n              0x01\n              add\n              swap1\n              0x20\n              add\n              dup1\n              dup4\n              gt\n              tag_79\n              jumpi\n              dup3\n              swap1\n              sub\n              0x1f\n              and\n              dup3\n              add\n              swap2\n            tag_77:\n              pop\n              pop\n              pop\n              pop\n              pop\n              swap1\n              pop\n                /* \"@openzeppelin/contracts/token/ERC20/ERC20.sol\":2276:2369  function symbol() public view virtual returns (string memory) {... */\n              swap1\n              jump\t// out\n                /* \"@openzeppelin/contracts/token/ERC20/ERC20.sol\":3610:3788  function transfer(address to, uint256 value) public virtual returns (bool) {... */\n            tag_46:\n                /* \"@openzeppelin/contracts/token/ERC20/ERC20.sol\":3679:3683  bool */\n              0x00\n                /* \"@openzeppelin/contracts/token/ERC20/ERC20.sol\":3695:3708  address owner */\n              dup1\n                /* \"@openzeppelin/contracts/token/ERC20/ERC20.sol\":3711:3723  _msgSender() */\n              tag_81\n                /* \"@openzeppelin/contracts/token/ERC20/ERC20.sol\":3711:3721  _msgSender */\n              tag_62\n                /* \"@openzeppelin/contracts/token/ERC20/ERC20.sol\":3711:3723  _msgSender() */\n              jump\t// in\n            tag_81:\n                /* \"@openzeppelin/contracts/token/ERC20/ERC20.sol\":3695:3723  address owner = _msgSender() */\n              swap1\n              pop\n                /* \"@openzeppelin/contracts/token/ERC20/ERC20.sol\":3733:3760  _transfer(owner, to, value) */\n              tag_82\n                /* \"@openzeppelin/contracts/token/ERC20/ERC20.sol\":3743:3748  owner */\n              dup2\n                /* \"@openzeppelin/contracts/token/ERC20/ERC20.sol\":3750:3752  to */\n              dup6\n                /* \"@openzeppelin/contracts/token/ERC20/ERC20.sol\":3754:3759  value */\n              dup6\n                /* \"@openzeppelin/contracts/token/ERC20/ERC20.sol\":3733:3742  _transfer */\n              tag_71\n                /* \"@openzeppelin/contracts/token/ERC20/ERC20.sol\":3733:3760  _transfer(owner, to, value) */\n              jump\t// in\n            tag_82:\n                /* \"@openzeppelin/contracts/token/ERC20/ERC20.sol\":3777:3781  true */\n              0x01\n                /* \"@openzeppelin/contracts/token/ERC20/ERC20.sol\":3770:3781  return true */\n              swap2\n              pop\n              pop\n                /* \"@openzeppelin/contracts/token/ERC20/ERC20.sol\":3610:3788  function transfer(address to, uint256 value) public virtual returns (bool) {... */\n              swap3\n              swap2\n              pop\n              pop\n              jump\t// out\n                /* \"@openzeppelin/contracts/token/ERC20/ERC20.sol\":3846:3986  function allowance(address owner, address spender) public view virtual returns (uint256) {... */\n            tag_51:\n                /* \"@openzeppelin/contracts/token/ERC20/ERC20.sol\":3926:3933  uint256 */\n              0x00\n                /* \"@openzeppelin/contracts/token/ERC20/ERC20.sol\":3952:3963  _allowances */\n              0x01\n                /* \"@openzeppelin/contracts/token/ERC20/ERC20.sol\":3952:3970  _allowances[owner] */\n              0x00\n                /* \"@openzeppelin/contracts/token/ERC20/ERC20.sol\":3964:3969  owner */\n              dup5\n                /* \"@openzeppelin/contracts/token/ERC20/ERC20.sol\":3952:3970  _allowances[owner] */\n              0xffffffffffffffffffffffffffffffffffffffff\n              and\n              0xffffffffffffffffffffffffffffffffffffffff\n              and\n              dup2\n              mstore\n              0x20\n              add\n              swap1\n              dup2\n              mstore\n              0x20\n              add\n              0x00\n              keccak256\n                /* \"@openzeppelin/contracts/token/ERC20/ERC20.sol\":3952:3979  _allowances[owner][spender] */\n              0x00\n                /* \"@openzeppelin/contracts/token/ERC20/ERC20.sol\":3971:3978  spender */\n              dup4\n                /* \"@openzeppelin/contracts/token/ERC20/ERC20.sol\":3952:3979  _allowances[owner][spender] */\n              0xffffffffffffffffffffffffffffffffffffffff\n              and\n              0xffffffffffffffffffffffffffffffffffffffff\n              and\n              dup2\n              mstore\n              0x20\n              add\n              swap1\n              dup2\n              mstore\n              0x20\n              add\n              0x00\n              keccak256\n              sload\n                /* \"@openzeppelin/contracts/token/ERC20/ERC20.sol\":3945:3979  return _allowances[owner][spender] */\n              swap1\n              pop\n                /* \"@openzeppelin/contracts/token/ERC20/ERC20.sol\":3846:3986  function allowance(address owner, address spender) public view virtual returns (uint256) {... */\n              swap3\n              swap2\n              pop\n              pop\n              jump\t// out\n                /* \"@openzeppelin/contracts/utils/Context.sol\":656:752  function _msgSender() internal view virtual returns (address) {... */\n            tag_62:\n                /* \"@openzeppelin/contracts/utils/Context.sol\":709:716  address */\n              0x00\n                /* \"@openzeppelin/contracts/utils/Context.sol\":735:745  msg.sender */\n              caller\n                /* \"@openzeppelin/contracts/utils/Context.sol\":728:745  return msg.sender */\n              swap1\n              pop\n                /* \"@openzeppelin/contracts/utils/Context.sol\":656:752  function _msgSender() internal view virtual returns (address) {... */\n              swap1\n              jump\t// out\n                /* \"@openzeppelin/contracts/token/ERC20/ERC20.sol\":8989:9117  function _approve(address owner, address spender, uint256 value) internal {... */\n            tag_64:\n                /* \"@openzeppelin/contracts/token/ERC20/ERC20.sol\":9073:9110  _approve(owner, spender, value, true) */\n              tag_86\n                /* \"@openzeppelin/contracts/token/ERC20/ERC20.sol\":9082:9087  owner */\n              dup4\n                /* \"@openzeppelin/contracts/token/ERC20/ERC20.sol\":9089:9096  spender */\n              dup4\n                /* \"@openzeppelin/contracts/token/ERC20/ERC20.sol\":9098:9103  value */\n              dup4\n                /* \"@openzeppelin/contracts/token/ERC20/ERC20.sol\":9105:9109  true */\n              0x01\n                /* \"@openzeppelin/contracts/token/ERC20/ERC20.sol\":9073:9081  _approve */\n              tag_87\n                /* \"@openzeppelin/contracts/token/ERC20/ERC20.sol\":9073:9110  _approve(owner, spender, value, true) */\n              jump\t// in\n            tag_86:\n                /* \"@openzeppelin/contracts/token/ERC20/ERC20.sol\":8989:9117  function _approve(address owner, address spender, uint256 value) internal {... */\n              pop\n              pop\n              pop\n              jump\t// out\n                /* \"@openzeppelin/contracts/token/ERC20/ERC20.sol\":10663:11140  function _spendAllowance(address owner, address spender, uint256 value) internal virtual {... */\n            tag_69:\n                /* \"@openzeppelin/contracts/token/ERC20/ERC20.sol\":10762:10786  uint256 currentAllowance */\n              0x00\n                /* \"@openzeppelin/contracts/token/ERC20/ERC20.sol\":10789:10814  allowance(owner, spender) */\n              tag_89\n                /* \"@openzeppelin/contracts/token/ERC20/ERC20.sol\":10799:10804  owner */\n              dup5\n                /* \"@openzeppelin/contracts/token/ERC20/ERC20.sol\":10806:10813  spender */\n              dup5\n                /* \"@openzeppelin/contracts/token/ERC20/ERC20.sol\":10789:10798  allowance */\n              tag_51\n                /* \"@openzeppelin/contracts/token/ERC20/ERC20.sol\":10789:10814  allowance(owner, spender) */\n              jump\t// in\n            tag_89:\n                /* \"@openzeppelin/contracts/token/ERC20/ERC20.sol\":10762:10814  uint256 currentAllowance = allowance(owner, spender) */\n              swap1\n              pop\n                /* \"@openzeppelin/contracts/token/ERC20/ERC20.sol\":10848:10865  type(uint256).max */\n              0xffffffffffffffffffffffffffffffffffffffffffffffffffffffffffffffff\n                /* \"@openzeppelin/contracts/token/ERC20/ERC20.sol\":10828:10844  currentAllowance */\n              dup2\n                /* \"@openzeppelin/contracts/token/ERC20/ERC20.sol\":10828:10865  currentAllowance != type(uint256).max */\n              eq\n                /* \"@openzeppelin/contracts/token/ERC20/ERC20.sol\":10824:11134  if (currentAllowance != type(uint256).max) {... */\n              tag_90\n              jumpi\n                /* \"@openzeppelin/contracts/token/ERC20/ERC20.sol\":10904:10909  value */\n              dup2\n                /* \"@openzeppelin/contracts/token/ERC20/ERC20.sol\":10885:10901  currentAllowance */\n              dup2\n                /* \"@openzeppelin/contracts/token/ERC20/ERC20.sol\":10885:10909  currentAllowance < value */\n              lt\n                /* \"@openzeppelin/contracts/token/ERC20/ERC20.sol\":10881:11011  if (currentAllowance < value) {... */\n              iszero\n              tag_91\n              jumpi\n                /* \"@openzeppelin/contracts/token/ERC20/ERC20.sol\":10963:10970  spender */\n              dup3\n                /* \"@openzeppelin/contracts/token/ERC20/ERC20.sol\":10972:10988  currentAllowance */\n              dup2\n                /* \"@openzeppelin/contracts/token/ERC20/ERC20.sol\":10990:10995  value */\n              dup4\n                /* \"@openzeppelin/contracts/token/ERC20/ERC20.sol\":10936:10996  ERC20InsufficientAllowance(spender, currentAllowance, value) */\n              mload(0x40)\n              0xfb8f41b200000000000000000000000000000000000000000000000000000000\n              dup2\n              mstore\n              0x04\n              add\n              tag_92\n              swap4\n              swap3\n              swap2\n              swap1\n              tag_93\n              jump\t// in\n            tag_92:\n              mload(0x40)\n              dup1\n              swap2\n              sub\n              swap1\n              revert\n                /* \"@openzeppelin/contracts/token/ERC20/ERC20.sol\":10881:11011  if (currentAllowance < value) {... */\n            tag_91:\n                /* \"@openzeppelin/contracts/token/ERC20/ERC20.sol\":11052:11109  _approve(owner, spender, currentAllowance - value, false) */\n              tag_94\n                /* \"@openzeppelin/contracts/token/ERC20/ERC20.sol\":11061:11066  owner */\n              dup5\n                /* \"@openzeppelin/contracts/token/ERC20/ERC20.sol\":11068:11075  spender */\n              dup5\n                /* \"@openzeppelin/contracts/token/ERC20/ERC20.sol\":11096:11101  value */\n              dup5\n                /* \"@openzeppelin/contracts/token/ERC20/ERC20.sol\":11077:11093  currentAllowance */\n              dup5\n                /* \"@openzeppelin/contracts/token/ERC20/ERC20.sol\":11077:11101  currentAllowance - value */\n              sub\n                /* \"@openzeppelin/contracts/token/ERC20/ERC20.sol\":11103:11108  false */\n              0x00\n                /* \"@openzeppelin/contracts/token/ERC20/ERC20.sol\":11052:11060  _approve */\n              tag_87\n                /* \"@openzeppelin/contracts/token/ERC20/ERC20.sol\":11052:11109  _approve(owner, spender, currentAllowance - value, false) */\n              jump\t// in\n            tag_94:\n                /* \"@openzeppelin/contracts/token/ERC20/ERC20.sol\":10824:11134  if (currentAllowance != type(uint256).max) {... */\n            tag_90:\n                /* \"@openzeppelin/contracts/token/ERC20/ERC20.sol\":10752:11140  {... */\n              pop\n                /* \"@openzeppelin/contracts/token/ERC20/ERC20.sol\":10663:11140  function _spendAllowance(address owner, address spender, uint256 value) internal virtual {... */\n              pop\n              pop\n              pop\n              jump\t// out\n                /* \"@openzeppelin/contracts/token/ERC20/ERC20.sol\":5656:5956  function _transfer(address from, address to, uint256 value) internal {... */\n            tag_71:\n                /* \"@openzeppelin/contracts/token/ERC20/ERC20.sol\":5755:5756  0 */\n              0x00\n                /* \"@openzeppelin/contracts/token/ERC20/ERC20.sol\":5739:5757  from == address(0) */\n              0xffffffffffffffffffffffffffffffffffffffff\n              and\n                /* \"@openzeppelin/contracts/token/ERC20/ERC20.sol\":5739:5743  from */\n              dup4\n                /* \"@openzeppelin/contracts/token/ERC20/ERC20.sol\":5739:5757  from == address(0) */\n              0xffffffffffffffffffffffffffffffffffffffff\n              and\n              sub\n                /* \"@openzeppelin/contracts/token/ERC20/ERC20.sol\":5735:5821  if (from == address(0)) {... */\n              tag_96\n              jumpi\n                /* \"@openzeppelin/contracts/token/ERC20/ERC20.sol\":5807:5808  0 */\n              0x00\n                /* \"@openzeppelin/contracts/token/ERC20/ERC20.sol\":5780:5810  ERC20InvalidSender(address(0)) */\n              mload(0x40)\n              0x96c6fd1e00000000000000000000000000000000000000000000000000000000\n              dup2\n              mstore\n              0x04\n              add\n              tag_97\n              swap2\n              swap1\n              tag_98\n              jump\t// in\n            tag_97:\n              mload(0x40)\n              dup1\n              swap2\n              sub\n              swap1\n              revert\n                /* \"@openzeppelin/contracts/token/ERC20/ERC20.sol\":5735:5821  if (from == address(0)) {... */\n            tag_96:\n                /* \"@openzeppelin/contracts/token/ERC20/ERC20.sol\":5848:5849  0 */\n              0x00\n                /* \"@openzeppelin/contracts/token/ERC20/ERC20.sol\":5834:5850  to == address(0) */\n              0xffffffffffffffffffffffffffffffffffffffff\n              and\n                /* \"@openzeppelin/contracts/token/ERC20/ERC20.sol\":5834:5836  to */\n              dup3\n                /* \"@openzeppelin/contracts/token/ERC20/ERC20.sol\":5834:5850  to == address(0) */\n              0xffffffffffffffffffffffffffffffffffffffff\n              and\n              sub\n                /* \"@openzeppelin/contracts/token/ERC20/ERC20.sol\":5830:5916  if (to == address(0)) {... */\n              tag_99\n              jumpi\n                /* \"@openzeppelin/contracts/token/ERC20/ERC20.sol\":5902:5903  0 */\n              0x00\n                /* \"@openzeppelin/contracts/token/ERC20/ERC20.sol\":5873:5905  ERC20InvalidReceiver(address(0)) */\n              mload(0x40)\n              0xec442f0500000000000000000000000000000000000000000000000000000000\n              dup2\n              mstore\n              0x04\n              add\n              tag_100\n              swap2\n              swap1\n              tag_98\n              jump\t// in\n            tag_100:\n              mload(0x40)\n              dup1\n              swap2\n              sub\n              swap1\n              revert\n                /* \"@openzeppelin/contracts/token/ERC20/ERC20.sol\":5830:5916  if (to == address(0)) {... */\n            tag_99:\n                /* \"@openzeppelin/contracts/token/ERC20/ERC20.sol\":5925:5949  _update(from, to, value) */\n              tag_101\n                /* \"@openzeppelin/contracts/token/ERC20/ERC20.sol\":5933:5937  from */\n              dup4\n                /* \"@openzeppelin/contracts/token/ERC20/ERC20.sol\":5939:5941  to */\n              dup4\n                /* \"@openzeppelin/contracts/token/ERC20/ERC20.sol\":5943:5948  value */\n              dup4\n                /* \"@openzeppelin/contracts/token/ERC20/ERC20.sol\":5925:5932  _update */\n              tag_102\n                /* \"@openzeppelin/contracts/token/ERC20/ERC20.sol\":5925:5949  _update(from, to, value) */\n              jump\t// in\n            tag_101:\n                /* \"@openzeppelin/contracts/token/ERC20/ERC20.sol\":5656:5956  function _transfer(address from, address to, uint256 value) internal {... */\n              pop\n              pop\n              pop\n              jump\t// out\n                /* \"@openzeppelin/contracts/token/ERC20/ERC20.sol\":9949:10381  function _approve(address owner, address spender, uint256 value, bool emitEvent) internal virtual {... */\n            tag_87:\n                /* \"@openzeppelin/contracts/token/ERC20/ERC20.sol\":10078:10079  0 */\n              0x00\n                /* \"@openzeppelin/contracts/token/ERC20/ERC20.sol\":10061:10080  owner == address(0) */\n              0xffffffffffffffffffffffffffffffffffffffff\n              and\n                /* \"@openzeppelin/contracts/token/ERC20/ERC20.sol\":10061:10066  owner */\n              dup5\n                /* \"@openzeppelin/contracts/token/ERC20/ERC20.sol\":10061:10080  owner == address(0) */\n              0xffffffffffffffffffffffffffffffffffffffff\n              and\n              sub\n                /* \"@openzeppelin/contracts/token/ERC20/ERC20.sol\":10057:10146  if (owner == address(0)) {... */\n              tag_104\n              jumpi\n                /* \"@openzeppelin/contracts/token/ERC20/ERC20.sol\":10132:10133  0 */\n              0x00\n                /* \"@openzeppelin/contracts/token/ERC20/ERC20.sol\":10103:10135  ERC20InvalidApprover(address(0)) */\n              mload(0x40)\n              0xe602df0500000000000000000000000000000000000000000000000000000000\n              dup2\n              mstore\n              0x04\n              add\n              tag_105\n              swap2\n              swap1\n              tag_98\n              jump\t// in\n            tag_105:\n              mload(0x40)\n              dup1\n              swap2\n              sub\n              swap1\n              revert\n                /* \"@openzeppelin/contracts/token/ERC20/ERC20.sol\":10057:10146  if (owner == address(0)) {... */\n            tag_104:\n                /* \"@openzeppelin/contracts/token/ERC20/ERC20.sol\":10178:10179  0 */\n              0x00\n                /* \"@openzeppelin/contracts/token/ERC20/ERC20.sol\":10159:10180  spender == address(0) */\n              0xffffffffffffffffffffffffffffffffffffffff\n              and\n                /* \"@openzeppelin/contracts/token/ERC20/ERC20.sol\":10159:10166  spender */\n              dup4\n                /* \"@openzeppelin/contracts/token/ERC20/ERC20.sol\":10159:10180  spender == address(0) */\n              0xffffffffffffffffffffffffffffffffffffffff\n              and\n              sub\n                /* \"@openzeppelin/contracts/token/ERC20/ERC20.sol\":10155:10245  if (spender == address(0)) {... */\n              tag_106\n              jumpi\n                /* \"@openzeppelin/contracts/token/ERC20/ERC20.sol\":10231:10232  0 */\n              0x00\n                /* \"@openzeppelin/contracts/token/ERC20/ERC20.sol\":10203:10234  ERC20InvalidSpender(address(0)) */\n              mload(0x40)\n              0x94280d6200000000000000000000000000000000000000000000000000000000\n              dup2\n              mstore\n              0x04\n              add\n              tag_107\n              swap2\n              swap1\n              tag_98\n              jump\t// in\n            tag_107:\n              mload(0x40)\n              dup1\n              swap2\n              sub\n              swap1\n              revert\n                /* \"@openzeppelin/contracts/token/ERC20/ERC20.sol\":10155:10245  if (spender == address(0)) {... */\n            tag_106:\n                /* \"@openzeppelin/contracts/token/ERC20/ERC20.sol\":10284:10289  value */\n              dup2\n                /* \"@openzeppelin/contracts/token/ERC20/ERC20.sol\":10254:10265  _allowances */\n              0x01\n                /* \"@openzeppelin/contracts/token/ERC20/ERC20.sol\":10254:10272  _allowances[owner] */\n              0x00\n                /* \"@openzeppelin/contracts/token/ERC20/ERC20.sol\":10266:10271  owner */\n              dup7\n                /* \"@openzeppelin/contracts/token/ERC20/ERC20.sol\":10254:10272  _allowances[owner] */\n              0xffffffffffffffffffffffffffffffffffffffff\n              and\n              0xffffffffffffffffffffffffffffffffffffffff\n              and\n              dup2\n              mstore\n              0x20\n              add\n              swap1\n              dup2\n              mstore\n              0x20\n              add\n              0x00\n              keccak256\n                /* \"@openzeppelin/contracts/token/ERC20/ERC20.sol\":10254:10281  _allowances[owner][spender] */\n              0x00\n                /* \"@openzeppelin/contracts/token/ERC20/ERC20.sol\":10273:10280  spender */\n              dup6\n                /* \"@openzeppelin/contracts/token/ERC20/ERC20.sol\":10254:10281  _allowances[owner][spender] */\n              0xffffffffffffffffffffffffffffffffffffffff\n              and\n              0xffffffffffffffffffffffffffffffffffffffff\n              and\n              dup2\n              mstore\n              0x20\n              add\n              swap1\n              dup2\n              mstore\n              0x20\n              add\n              0x00\n              keccak256\n                /* \"@openzeppelin/contracts/token/ERC20/ERC20.sol\":10254:10289  _allowances[owner][spender] = value */\n              dup2\n              swap1\n              sstore\n              pop\n                /* \"@openzeppelin/contracts/token/ERC20/ERC20.sol\":10303:10312  emitEvent */\n              dup1\n                /* \"@openzeppelin/contracts/token/ERC20/ERC20.sol\":10299:10375  if (emitEvent) {... */\n              iszero\n              tag_108\n              jumpi\n                /* \"@openzeppelin/contracts/token/ERC20/ERC20.sol\":10349:10356  spender */\n              dup3\n                /* \"@openzeppelin/contracts/token/ERC20/ERC20.sol\":10333:10364  Approval(owner, spender, value) */\n              0xffffffffffffffffffffffffffffffffffffffff\n              and\n                /* \"@openzeppelin/contracts/token/ERC20/ERC20.sol\":10342:10347  owner */\n              dup5\n                /* \"@openzeppelin/contracts/token/ERC20/ERC20.sol\":10333:10364  Approval(owner, spender, value) */\n              0xffffffffffffffffffffffffffffffffffffffff\n              and\n              0x8c5be1e5ebec7d5bd14f71427d1e84f3dd0314c0f7b2291e5b200ac8c7c3b925\n                /* \"@openzeppelin/contracts/token/ERC20/ERC20.sol\":10358:10363  value */\n              dup5\n                /* \"@openzeppelin/contracts/token/ERC20/ERC20.sol\":10333:10364  Approval(owner, spender, value) */\n              mload(0x40)\n              tag_109\n              swap2\n              swap1\n              tag_26\n              jump\t// in\n            tag_109:\n              mload(0x40)\n              dup1\n              swap2\n              sub\n              swap1\n              log3\n                /* \"@openzeppelin/contracts/token/ERC20/ERC20.sol\":10299:10375  if (emitEvent) {... */\n            tag_108:\n                /* \"@openzeppelin/contracts/token/ERC20/ERC20.sol\":9949:10381  function _approve(address owner, address spender, uint256 value, bool emitEvent) internal virtual {... */\n              pop\n              pop\n              pop\n              pop\n              jump\t// out\n                /* \"@openzeppelin/contracts/token/ERC20/ERC20.sol\":6271:7378  function _update(address from, address to, uint256 value) internal virtual {... */\n            tag_102:\n                /* \"@openzeppelin/contracts/token/ERC20/ERC20.sol\":6376:6377  0 */\n              0x00\n                /* \"@openzeppelin/contracts/token/ERC20/ERC20.sol\":6360:6378  from == address(0) */\n              0xffffffffffffffffffffffffffffffffffffffff\n              and\n                /* \"@openzeppelin/contracts/token/ERC20/ERC20.sol\":6360:6364  from */\n              dup4\n                /* \"@openzeppelin/contracts/token/ERC20/ERC20.sol\":6360:6378  from == address(0) */\n              0xffffffffffffffffffffffffffffffffffffffff\n              and\n              sub\n                /* \"@openzeppelin/contracts/token/ERC20/ERC20.sol\":6356:6896  if (from == address(0)) {... */\n              tag_111\n              jumpi\n                /* \"@openzeppelin/contracts/token/ERC20/ERC20.sol\":6512:6517  value */\n              dup1\n                /* \"@openzeppelin/contracts/token/ERC20/ERC20.sol\":6496:6508  _totalSupply */\n              0x02\n              0x00\n                /* \"@openzeppelin/contracts/token/ERC20/ERC20.sol\":6496:6517  _totalSupply += value */\n              dup3\n              dup3\n              sload\n              tag_112\n              swap2\n              swap1\n              tag_113\n              jump\t// in\n            tag_112:\n              swap3\n              pop\n              pop\n              dup2\n              swap1\n              sstore\n              pop\n                /* \"@openzeppelin/contracts/token/ERC20/ERC20.sol\":6356:6896  if (from == address(0)) {... */\n              jump(tag_114)\n            tag_111:\n                /* \"@openzeppelin/contracts/token/ERC20/ERC20.sol\":6548:6567  uint256 fromBalance */\n              0x00\n                /* \"@openzeppelin/contracts/token/ERC20/ERC20.sol\":6570:6579  _balances */\n              dup1\n                /* \"@openzeppelin/contracts/token/ERC20/ERC20.sol\":6570:6585  _balances[from] */\n              0x00\n                /* \"@openzeppelin/contracts/token/ERC20/ERC20.sol\":6580:6584  from */\n              dup6\n                /* \"@openzeppelin/contracts/token/ERC20/ERC20.sol\":6570:6585  _balances[from] */\n              0xffffffffffffffffffffffffffffffffffffffff\n              and\n              0xffffffffffffffffffffffffffffffffffffffff\n              and\n              dup2\n              mstore\n              0x20\n              add\n              swap1\n              dup2\n              mstore\n              0x20\n              add\n              0x00\n              keccak256\n              sload\n                /* \"@openzeppelin/contracts/token/ERC20/ERC20.sol\":6548:6585  uint256 fromBalance = _balances[from] */\n              swap1\n              pop\n                /* \"@openzeppelin/contracts/token/ERC20/ERC20.sol\":6617:6622  value */\n              dup2\n                /* \"@openzeppelin/contracts/token/ERC20/ERC20.sol\":6603:6614  fromBalance */\n              dup2\n                /* \"@openzeppelin/contracts/token/ERC20/ERC20.sol\":6603:6622  fromBalance < value */\n              lt\n                /* \"@openzeppelin/contracts/token/ERC20/ERC20.sol\":6599:6714  if (fromBalance < value) {... */\n              iszero\n              tag_115\n              jumpi\n                /* \"@openzeppelin/contracts/token/ERC20/ERC20.sol\":6674:6678  from */\n              dup4\n                /* \"@openzeppelin/contracts/token/ERC20/ERC20.sol\":6680:6691  fromBalance */\n              dup2\n                /* \"@openzeppelin/contracts/token/ERC20/ERC20.sol\":6693:6698  value */\n              dup4\n                /* \"@openzeppelin/contracts/token/ERC20/ERC20.sol\":6649:6699  ERC20InsufficientBalance(from, fromBalance, value) */\n              mload(0x40)\n              0xe450d38c00000000000000000000000000000000000000000000000000000000\n              dup2\n              mstore\n              0x04\n              add\n              tag_116\n              swap4\n              swap3\n              swap2\n              swap1\n              tag_93\n              jump\t// in\n            tag_116:\n              mload(0x40)\n              dup1\n              swap2\n              sub\n              swap1\n              revert\n                /* \"@openzeppelin/contracts/token/ERC20/ERC20.sol\":6599:6714  if (fromBalance < value) {... */\n            tag_115:\n                /* \"@openzeppelin/contracts/token/ERC20/ERC20.sol\":6866:6871  value */\n              dup2\n                /* \"@openzeppelin/contracts/token/ERC20/ERC20.sol\":6852:6863  fromBalance */\n              dup2\n                /* \"@openzeppelin/contracts/token/ERC20/ERC20.sol\":6852:6871  fromBalance - value */\n              sub\n                /* \"@openzeppelin/contracts/token/ERC20/ERC20.sol\":6834:6843  _balances */\n              0x00\n                /* \"@openzeppelin/contracts/token/ERC20/ERC20.sol\":6834:6849  _balances[from] */\n              dup1\n                /* \"@openzeppelin/contracts/token/ERC20/ERC20.sol\":6844:6848  from */\n              dup7\n                /* \"@openzeppelin/contracts/token/ERC20/ERC20.sol\":6834:6849  _balances[from] */\n              0xffffffffffffffffffffffffffffffffffffffff\n              and\n              0xffffffffffffffffffffffffffffffffffffffff\n              and\n              dup2\n              mstore\n              0x20\n              add\n              swap1\n              dup2\n              mstore\n              0x20\n              add\n              0x00\n              keccak256\n                /* \"@openzeppelin/contracts/token/ERC20/ERC20.sol\":6834:6871  _balances[from] = fromBalance - value */\n              dup2\n              swap1\n              sstore\n              pop\n                /* \"@openzeppelin/contracts/token/ERC20/ERC20.sol\":6534:6896  {... */\n              pop\n                /* \"@openzeppelin/contracts/token/ERC20/ERC20.sol\":6356:6896  if (from == address(0)) {... */\n            tag_114:\n                /* \"@openzeppelin/contracts/token/ERC20/ERC20.sol\":6924:6925  0 */\n              0x00\n                /* \"@openzeppelin/contracts/token/ERC20/ERC20.sol\":6910:6926  to == address(0) */\n              0xffffffffffffffffffffffffffffffffffffffff\n              and\n                /* \"@openzeppelin/contracts/token/ERC20/ERC20.sol\":6910:6912  to */\n              dup3\n                /* \"@openzeppelin/contracts/token/ERC20/ERC20.sol\":6910:6926  to == address(0) */\n              0xffffffffffffffffffffffffffffffffffffffff\n              and\n              sub\n                /* \"@openzeppelin/contracts/token/ERC20/ERC20.sol\":6906:7331  if (to == address(0)) {... */\n              tag_117\n              jumpi\n                /* \"@openzeppelin/contracts/token/ERC20/ERC20.sol\":7089:7094  value */\n              dup1\n                /* \"@openzeppelin/contracts/token/ERC20/ERC20.sol\":7073:7085  _totalSupply */\n              0x02\n              0x00\n                /* \"@openzeppelin/contracts/token/ERC20/ERC20.sol\":7073:7094  _totalSupply -= value */\n              dup3\n              dup3\n              sload\n              sub\n              swap3\n              pop\n              pop\n              dup2\n              swap1\n              sstore\n              pop\n                /* \"@openzeppelin/contracts/token/ERC20/ERC20.sol\":6906:7331  if (to == address(0)) {... */\n              jump(tag_118)\n            tag_117:\n                /* \"@openzeppelin/contracts/token/ERC20/ERC20.sol\":7301:7306  value */\n              dup1\n                /* \"@openzeppelin/contracts/token/ERC20/ERC20.sol\":7284:7293  _balances */\n              0x00\n                /* \"@openzeppelin/contracts/token/ERC20/ERC20.sol\":7284:7297  _balances[to] */\n              dup1\n                /* \"@openzeppelin/contracts/token/ERC20/ERC20.sol\":7294:7296  to */\n              dup5\n                /* \"@openzeppelin/contracts/token/ERC20/ERC20.sol\":7284:7297  _balances[to] */\n              0xffffffffffffffffffffffffffffffffffffffff\n              and\n              0xffffffffffffffffffffffffffffffffffffffff\n              and\n              dup2\n              mstore\n              0x20\n              add\n              swap1\n              dup2\n              mstore\n              0x20\n              add\n              0x00\n              keccak256\n              0x00\n                /* \"@openzeppelin/contracts/token/ERC20/ERC20.sol\":7284:7306  _balances[to] += value */\n              dup3\n              dup3\n              sload\n              add\n              swap3\n              pop\n              pop\n              dup2\n              swap1\n              sstore\n              pop\n                /* \"@openzeppelin/contracts/token/ERC20/ERC20.sol\":6906:7331  if (to == address(0)) {... */\n            tag_118:\n                /* \"@openzeppelin/contracts/token/ERC20/ERC20.sol\":7361:7363  to */\n              dup2\n                /* \"@openzeppelin/contracts/token/ERC20/ERC20.sol\":7346:7371  Transfer(from, to, value) */\n              0xffffffffffffffffffffffffffffffffffffffff\n              and\n                /* \"@openzeppelin/contracts/token/ERC20/ERC20.sol\":7355:7359  from */\n              dup4\n                /* \"@openzeppelin/contracts/token/ERC20/ERC20.sol\":7346:7371  Transfer(from, to, value) */\n              0xffffffffffffffffffffffffffffffffffffffff\n              and\n              0xddf252ad1be2c89b69c2b068fc378daa952ba7f163c4a11628f55a4df523b3ef\n                /* \"@openzeppelin/contracts/token/ERC20/ERC20.sol\":7365:7370  value */\n              dup4\n                /* \"@openzeppelin/contracts/token/ERC20/ERC20.sol\":7346:7371  Transfer(from, to, value) */\n              mload(0x40)\n              tag_119\n              swap2\n              swap1\n              tag_26\n              jump\t// in\n            tag_119:\n              mload(0x40)\n              dup1\n              swap2\n              sub\n              swap1\n              log3\n                /* \"@openzeppelin/contracts/token/ERC20/ERC20.sol\":6271:7378  function _update(address from, address to, uint256 value) internal virtual {... */\n              pop\n              pop\n              pop\n              jump\t// out\n                /* \"#utility.yul\":7:106   */\n            tag_120:\n                /* \"#utility.yul\":59:65   */\n              0x00\n                /* \"#utility.yul\":93:98   */\n              dup2\n                /* \"#utility.yul\":87:99   */\n              mload\n                /* \"#utility.yul\":77:99   */\n              swap1\n              pop\n                /* \"#utility.yul\":7:106   */\n              swap2\n              swap1\n              pop\n              jump\t// out\n                /* \"#utility.yul\":112:281   */\n            tag_121:\n                /* \"#utility.yul\":196:207   */\n              0x00\n                /* \"#utility.yul\":230:236   */\n              dup3\n                /* \"#utility.yul\":225:228   */\n              dup3\n                /* \"#utility.yul\":218:237   */\n              mstore\n                /* \"#utility.yul\":270:274   */\n              0x20\n                /* \"#utility.yul\":265:268   */\n              dup3\n                /* \"#utility.yul\":261:275   */\n              add\n                /* \"#utility.yul\":246:275   */\n              swap1\n              pop\n                /* \"#utility.yul\":112:281   */\n              swap3\n              swap2\n              pop\n              pop\n              jump\t// out\n                /* \"#utility.yul\":287:426   */\n            tag_122:\n                /* \"#utility.yul\":376:382   */\n              dup3\n                /* \"#utility.yul\":371:374   */\n              dup2\n                /* \"#utility.yul\":366:369   */\n              dup4\n                /* \"#utility.yul\":360:383   */\n              mcopy\n                /* \"#utility.yul\":417:418   */\n              0x00\n                /* \"#utility.yul\":408:414   */\n              dup4\n                /* \"#utility.yul\":403:406   */\n              dup4\n                /* \"#utility.yul\":399:415   */\n              add\n                /* \"#utility.yul\":392:419   */\n              mstore\n                /* \"#utility.yul\":287:426   */\n              pop\n              pop\n              pop\n              jump\t// out\n                /* \"#utility.yul\":432:534   */\n            tag_123:\n                /* \"#utility.yul\":473:479   */\n              0x00\n                /* \"#utility.yul\":524:526   */\n              0x1f\n                /* \"#utility.yul\":520:527   */\n              not\n                /* \"#utility.yul\":515:517   */\n              0x1f\n                /* \"#utility.yul\":508:513   */\n              dup4\n                /* \"#utility.yul\":504:518   */\n              add\n                /* \"#utility.yul\":500:528   */\n              and\n                /* \"#utility.yul\":490:528   */\n              swap1\n              pop\n                /* \"#utility.yul\":432:534   */\n              swap2\n              swap1\n              pop\n              jump\t// out\n                /* \"#utility.yul\":540:917   */\n            tag_124:\n                /* \"#utility.yul\":628:631   */\n              0x00\n                /* \"#utility.yul\":656:695   */\n              tag_149\n                /* \"#utility.yul\":689:694   */\n              dup3\n                /* \"#utility.yul\":656:695   */\n              tag_120\n              jump\t// in\n            tag_149:\n                /* \"#utility.yul\":711:782   */\n              tag_150\n                /* \"#utility.yul\":775:781   */\n              dup2\n                /* \"#utility.yul\":770:773   */\n              dup6\n                /* \"#utility.yul\":711:782   */\n              tag_121\n              jump\t// in\n            tag_150:\n                /* \"#utility.yul\":704:782   */\n              swap4\n              pop\n                /* \"#utility.yul\":791:856   */\n              tag_151\n                /* \"#utility.yul\":849:855   */\n              dup2\n                /* \"#utility.yul\":844:847   */\n              dup6\n                /* \"#utility.yul\":837:841   */\n              0x20\n                /* \"#utility.yul\":830:835   */\n              dup7\n                /* \"#utility.yul\":826:842   */\n              add\n                /* \"#utility.yul\":791:856   */\n              tag_122\n              jump\t// in\n            tag_151:\n                /* \"#utility.yul\":881:910   */\n              tag_152\n                /* \"#utility.yul\":903:909   */\n              dup2\n                /* \"#utility.yul\":881:910   */\n              tag_123\n              jump\t// in\n            tag_152:\n                /* \"#utility.yul\":876:879   */\n              dup5\n                /* \"#utility.yul\":872:911   */\n              add\n                /* \"#utility.yul\":865:911   */\n              swap2\n              pop\n                /* \"#utility.yul\":632:917   */\n              pop\n                /* \"#utility.yul\":540:917   */\n              swap3\n              swap2\n              pop\n              pop\n              jump\t// out\n                /* \"#utility.yul\":923:1236   */\n            tag_16:\n                /* \"#utility.yul\":1036:1040   */\n              0x00\n                /* \"#utility.yul\":1074:1076   */\n              0x20\n                /* \"#utility.yul\":1063:1072   */\n              dup3\n                /* \"#utility.yul\":1059:1077   */\n              add\n                /* \"#utility.yul\":1051:1077   */\n              swap1\n              pop\n                /* \"#utility.yul\":1123:1132   */\n              dup2\n                /* \"#utility.yul\":1117:1121   */\n              dup2\n                /* \"#utility.yul\":1113:1133   */\n              sub\n                /* \"#utility.yul\":1109:1110   */\n              0x00\n                /* \"#utility.yul\":1098:1107   */\n              dup4\n                /* \"#utility.yul\":1094:1111   */\n              add\n                /* \"#utility.yul\":1087:1134   */\n              mstore\n                /* \"#utility.yul\":1151:1229   */\n              tag_154\n                /* \"#utility.yul\":1224:1228   */\n              dup2\n                /* \"#utility.yul\":1215:1221   */\n              dup5\n                /* \"#utility.yul\":1151:1229   */\n              tag_124\n              jump\t// in\n            tag_154:\n                /* \"#utility.yul\":1143:1229   */\n              swap1\n              pop\n                /* \"#utility.yul\":923:1236   */\n              swap3\n              swap2\n              pop\n              pop\n              jump\t// out\n                /* \"#utility.yul\":1323:1440   */\n            tag_126:\n                /* \"#utility.yul\":1432:1433   */\n              0x00\n                /* \"#utility.yul\":1429:1430   */\n              dup1\n                /* \"#utility.yul\":1422:1434   */\n              revert\n                /* \"#utility.yul\":1569:1695   */\n            tag_128:\n                /* \"#utility.yul\":1606:1613   */\n              0x00\n                /* \"#utility.yul\":1646:1688   */\n              0xffffffffffffffffffffffffffffffffffffffff\n                /* \"#utility.yul\":1639:1644   */\n              dup3\n                /* \"#utility.yul\":1635:1689   */\n              and\n                /* \"#utility.yul\":1624:1689   */\n              swap1\n              pop\n                /* \"#utility.yul\":1569:1695   */\n              swap2\n              swap1\n              pop\n              jump\t// out\n                /* \"#utility.yul\":1701:1797   */\n            tag_129:\n                /* \"#utility.yul\":1738:1745   */\n              0x00\n                /* \"#utility.yul\":1767:1791   */\n              tag_160\n                /* \"#utility.yul\":1785:1790   */\n              dup3\n                /* \"#utility.yul\":1767:1791   */\n              tag_128\n              jump\t// in\n            tag_160:\n                /* \"#utility.yul\":1756:1791   */\n              swap1\n              pop\n                /* \"#utility.yul\":1701:1797   */\n              swap2\n              swap1\n              pop\n              jump\t// out\n                /* \"#utility.yul\":1803:1925   */\n            tag_130:\n                /* \"#utility.yul\":1876:1900   */\n              tag_162\n                /* \"#utility.yul\":1894:1899   */\n              dup2\n                /* \"#utility.yul\":1876:1900   */\n              tag_129\n              jump\t// in\n            tag_162:\n                /* \"#utility.yul\":1869:1874   */\n              dup2\n                /* \"#utility.yul\":1866:1901   */\n              eq\n                /* \"#utility.yul\":1856:1919   */\n              tag_163\n              jumpi\n                /* \"#utility.yul\":1915:1916   */\n              0x00\n                /* \"#utility.yul\":1912:1913   */\n              dup1\n                /* \"#utility.yul\":1905:1917   */\n              revert\n                /* \"#utility.yul\":1856:1919   */\n            tag_163:\n                /* \"#utility.yul\":1803:1925   */\n              pop\n              jump\t// out\n                /* \"#utility.yul\":1931:2070   */\n            tag_131:\n                /* \"#utility.yul\":1977:1982   */\n              0x00\n                /* \"#utility.yul\":2015:2021   */\n              dup2\n                /* \"#utility.yul\":2002:2022   */\n              calldataload\n                /* \"#utility.yul\":1993:2022   */\n              swap1\n              pop\n                /* \"#utility.yul\":2031:2064   */\n              tag_165\n                /* \"#utility.yul\":2058:2063   */\n              dup2\n                /* \"#utility.yul\":2031:2064   */\n              tag_130\n              jump\t// in\n            tag_165:\n                /* \"#utility.yul\":1931:2070   */\n              swap3\n              swap2\n              pop\n              pop\n              jump\t// out\n                /* \"#utility.yul\":2076:2153   */\n            tag_132:\n                /* \"#utility.yul\":2113:2120   */\n              0x00\n                /* \"#utility.yul\":2142:2147   */\n              dup2\n                /* \"#utility.yul\":2131:2147   */\n              swap1\n              pop\n                /* \"#utility.yul\":2076:2153   */\n              swap2\n              swap1\n              pop\n              jump\t// out\n                /* \"#utility.yul\":2159:2281   */\n            tag_133:\n                /* \"#utility.yul\":2232:2256   */\n              tag_168\n                /* \"#utility.yul\":2250:2255   */\n              dup2\n                /* \"#utility.yul\":2232:2256   */\n              tag_132\n              jump\t// in\n            tag_168:\n                /* \"#utility.yul\":2225:2230   */\n              dup2\n                /* \"#utility.yul\":2222:2257   */\n              eq\n                /* \"#utility.yul\":2212:2275   */\n              tag_169\n              jumpi\n                /* \"#utility.yul\":2271:2272   */\n              0x00\n                /* \"#utility.yul\":2268:2269   */\n              dup1\n                /* \"#utility.yul\":2261:2273   */\n              revert\n                /* \"#utility.yul\":2212:2275   */\n            tag_169:\n                /* \"#utility.yul\":2159:2281   */\n              pop\n              jump\t// out\n                /* \"#utility.yul\":2287:2426   */\n            tag_134:\n                /* \"#utility.yul\":2333:2338   */\n              0x00\n                /* \"#utility.yul\":2371:2377   */\n              dup2\n                /* \"#utility.yul\":2358:2378   */\n              calldataload\n                /* \"#utility.yul\":2349:2378   */\n              swap1\n              pop\n                /* \"#utility.yul\":2387:2420   */\n              tag_171\n                /* \"#utility.yul\":2414:2419   */\n              dup2\n                /* \"#utility.yul\":2387:2420   */\n              tag_133\n              jump\t// in\n            tag_171:\n                /* \"#utility.yul\":2287:2426   */\n              swap3\n              swap2\n              pop\n              pop\n              jump\t// out\n                /* \"#utility.yul\":2432:2906   */\n            tag_19:\n                /* \"#utility.yul\":2500:2506   */\n              0x00\n                /* \"#utility.yul\":2508:2514   */\n              dup1\n                /* \"#utility.yul\":2557:2559   */\n              0x40\n                /* \"#utility.yul\":2545:2554   */\n              dup4\n                /* \"#utility.yul\":2536:2543   */\n              dup6\n                /* \"#utility.yul\":2532:2555   */\n              sub\n                /* \"#utility.yul\":2528:2560   */\n              slt\n                /* \"#utility.yul\":2525:2644   */\n              iszero\n              tag_173\n              jumpi\n                /* \"#utility.yul\":2563:2642   */\n              tag_174\n              tag_126\n              jump\t// in\n            tag_174:\n                /* \"#utility.yul\":2525:2644   */\n            tag_173:\n                /* \"#utility.yul\":2683:2684   */\n              0x00\n                /* \"#utility.yul\":2708:2761   */\n              tag_175\n                /* \"#utility.yul\":2753:2760   */\n              dup6\n                /* \"#utility.yul\":2744:2750   */\n              dup3\n                /* \"#utility.yul\":2733:2742   */\n              dup7\n                /* \"#utility.yul\":2729:2751   */\n              add\n                /* \"#utility.yul\":2708:2761   */\n              tag_131\n              jump\t// in\n            tag_175:\n                /* \"#utility.yul\":2698:2761   */\n              swap3\n              pop\n                /* \"#utility.yul\":2654:2771   */\n              pop\n                /* \"#utility.yul\":2810:2812   */\n              0x20\n                /* \"#utility.yul\":2836:2889   */\n              tag_176\n                /* \"#utility.yul\":2881:2888   */\n              dup6\n                /* \"#utility.yul\":2872:2878   */\n              dup3\n                /* \"#utility.yul\":2861:2870   */\n              dup7\n                /* \"#utility.yul\":2857:2879   */\n              add\n                /* \"#utility.yul\":2836:2889   */\n              tag_134\n              jump\t// in\n            tag_176:\n                /* \"#utility.yul\":2826:2889   */\n              swap2\n              pop\n                /* \"#utility.yul\":2781:2899   */\n              pop\n                /* \"#utility.yul\":2432:2906   */\n              swap3\n              pop\n              swap3\n              swap1\n              pop\n              jump\t// out\n                /* \"#utility.yul\":2912:3002   */\n            tag_135:\n                /* \"#utility.yul\":2946:2953   */\n              0x00\n                /* \"#utility.yul\":2989:2994   */\n              dup2\n                /* \"#utility.yul\":2982:2995   */\n              iszero\n                /* \"#utility.yul\":2975:2996   */\n              iszero\n                /* \"#utility.yul\":2964:2996   */\n              swap1\n              pop\n                /* \"#utility.yul\":2912:3002   */\n              swap2\n              swap1\n              pop\n              jump\t// out\n                /* \"#utility.yul\":3008:3117   */\n            tag_136:\n                /* \"#utility.yul\":3089:3110   */\n              tag_179\n                /* \"#utility.yul\":3104:3109   */\n              dup2\n                /* \"#utility.yul\":3089:3110   */\n              tag_135\n              jump\t// in\n            tag_179:\n                /* \"#utility.yul\":3084:3087   */\n              dup3\n                /* \"#utility.yul\":3077:3111   */\n              mstore\n                /* \"#utility.yul\":3008:3117   */\n              pop\n              pop\n              jump\t// out\n                /* \"#utility.yul\":3123:3333   */\n            tag_22:\n                /* \"#utility.yul\":3210:3214   */\n              0x00\n                /* \"#utility.yul\":3248:3250   */\n              0x20\n                /* \"#utility.yul\":3237:3246   */\n              dup3\n                /* \"#utility.yul\":3233:3251   */\n              add\n                /* \"#utility.yul\":3225:3251   */\n              swap1\n              pop\n                /* \"#utility.yul\":3261:3326   */\n              tag_181\n                /* \"#utility.yul\":3323:3324   */\n              0x00\n                /* \"#utility.yul\":3312:3321   */\n              dup4\n                /* \"#utility.yul\":3308:3325   */\n              add\n                /* \"#utility.yul\":3299:3305   */\n              dup5\n                /* \"#utility.yul\":3261:3326   */\n              tag_136\n              jump\t// in\n            tag_181:\n                /* \"#utility.yul\":3123:3333   */\n              swap3\n              swap2\n              pop\n              pop\n              jump\t// out\n                /* \"#utility.yul\":3339:3457   */\n            tag_137:\n                /* \"#utility.yul\":3426:3450   */\n              tag_183\n                /* \"#utility.yul\":3444:3449   */\n              dup2\n                /* \"#utility.yul\":3426:3450   */\n              tag_132\n              jump\t// in\n            tag_183:\n                /* \"#utility.yul\":3421:3424   */\n              dup3\n                /* \"#utility.yul\":3414:3451   */\n              mstore\n                /* \"#utility.yul\":3339:3457   */\n              pop\n              pop\n              jump\t// out\n                /* \"#utility.yul\":3463:3685   */\n            tag_26:\n                /* \"#utility.yul\":3556:3560   */\n              0x00\n                /* \"#utility.yul\":3594:3596   */\n              0x20\n                /* \"#utility.yul\":3583:3592   */\n              dup3\n                /* \"#utility.yul\":3579:3597   */\n              add\n                /* \"#utility.yul\":3571:3597   */\n              swap1\n              pop\n                /* \"#utility.yul\":3607:3678   */\n              tag_185\n                /* \"#utility.yul\":3675:3676   */\n              0x00\n                /* \"#utility.yul\":3664:3673   */\n              dup4\n                /* \"#utility.yul\":3660:3677   */\n              add\n                /* \"#utility.yul\":3651:3657   */\n              dup5\n                /* \"#utility.yul\":3607:3678   */\n              tag_137\n              jump\t// in\n            tag_185:\n                /* \"#utility.yul\":3463:3685   */\n              swap3\n              swap2\n              pop\n              pop\n              jump\t// out\n                /* \"#utility.yul\":3691:4310   */\n            tag_29:\n                /* \"#utility.yul\":3768:3774   */\n              0x00\n                /* \"#utility.yul\":3776:3782   */\n              dup1\n                /* \"#utility.yul\":3784:3790   */\n              0x00\n                /* \"#utility.yul\":3833:3835   */\n              0x60\n                /* \"#utility.yul\":3821:3830   */\n              dup5\n                /* \"#utility.yul\":3812:3819   */\n              dup7\n                /* \"#utility.yul\":3808:3831   */\n              sub\n                /* \"#utility.yul\":3804:3836   */\n              slt\n                /* \"#utility.yul\":3801:3920   */\n              iszero\n              tag_187\n              jumpi\n                /* \"#utility.yul\":3839:3918   */\n              tag_188\n              tag_126\n              jump\t// in\n            tag_188:\n                /* \"#utility.yul\":3801:3920   */\n            tag_187:\n                /* \"#utility.yul\":3959:3960   */\n              0x00\n                /* \"#utility.yul\":3984:4037   */\n              tag_189\n                /* \"#utility.yul\":4029:4036   */\n              dup7\n                /* \"#utility.yul\":4020:4026   */\n              dup3\n                /* \"#utility.yul\":4009:4018   */\n              dup8\n                /* \"#utility.yul\":4005:4027   */\n              add\n                /* \"#utility.yul\":3984:4037   */\n              tag_131\n              jump\t// in\n            tag_189:\n                /* \"#utility.yul\":3974:4037   */\n              swap4\n              pop\n                /* \"#utility.yul\":3930:4047   */\n              pop\n                /* \"#utility.yul\":4086:4088   */\n              0x20\n                /* \"#utility.yul\":4112:4165   */\n              tag_190\n                /* \"#utility.yul\":4157:4164   */\n              dup7\n                /* \"#utility.yul\":4148:4154   */\n              dup3\n                /* \"#utility.yul\":4137:4146   */\n              dup8\n                /* \"#utility.yul\":4133:4155   */\n              add\n                /* \"#utility.yul\":4112:4165   */\n              tag_131\n              jump\t// in\n            tag_190:\n                /* \"#utility.yul\":4102:4165   */\n              swap3\n              pop\n                /* \"#utility.yul\":4057:4175   */\n              pop\n                /* \"#utility.yul\":4214:4216   */\n              0x40\n                /* \"#utility.yul\":4240:4293   */\n              tag_191\n                /* \"#utility.yul\":4285:4292   */\n              dup7\n                /* \"#utility.yul\":4276:4282   */\n              dup3\n                /* \"#utility.yul\":4265:4274   */\n              dup8\n                /* \"#utility.yul\":4261:4283   */\n              add\n                /* \"#utility.yul\":4240:4293   */\n              tag_134\n              jump\t// in\n            tag_191:\n                /* \"#utility.yul\":4230:4293   */\n              swap2\n              pop\n                /* \"#utility.yul\":4185:4303   */\n              pop\n                /* \"#utility.yul\":3691:4310   */\n              swap3\n              pop\n              swap3\n              pop\n              swap3\n              jump\t// out\n                /* \"#utility.yul\":4316:4402   */\n            tag_138:\n                /* \"#utility.yul\":4351:4358   */\n              0x00\n                /* \"#utility.yul\":4391:4395   */\n              0xff\n                /* \"#utility.yul\":4384:4389   */\n              dup3\n                /* \"#utility.yul\":4380:4396   */\n              and\n                /* \"#utility.yul\":4369:4396   */\n              swap1\n              pop\n                /* \"#utility.yul\":4316:4402   */\n              swap2\n              swap1\n              pop\n              jump\t// out\n                /* \"#utility.yul\":4408:4520   */\n            tag_139:\n                /* \"#utility.yul\":4491:4513   */\n              tag_194\n                /* \"#utility.yul\":4507:4512   */\n              dup2\n                /* \"#utility.yul\":4491:4513   */\n              tag_138\n              jump\t// in\n            tag_194:\n                /* \"#utility.yul\":4486:4489   */\n              dup3\n                /* \"#utility.yul\":4479:4514   */\n              mstore\n                /* \"#utility.yul\":4408:4520   */\n              pop\n              pop\n              jump\t// out\n                /* \"#utility.yul\":4526:4740   */\n            tag_35:\n                /* \"#utility.yul\":4615:4619   */\n              0x00\n                /* \"#utility.yul\":4653:4655   */\n              0x20\n                /* \"#utility.yul\":4642:4651   */\n              dup3\n                /* \"#utility.yul\":4638:4656   */\n              add\n                /* \"#utility.yul\":4630:4656   */\n              swap1\n              pop\n                /* \"#utility.yul\":4666:4733   */\n              tag_196\n                /* \"#utility.yul\":4730:4731   */\n              0x00\n                /* \"#utility.yul\":4719:4728   */\n              dup4\n                /* \"#utility.yul\":4715:4732   */\n              add\n                /* \"#utility.yul\":4706:4712   */\n              dup5\n                /* \"#utility.yul\":4666:4733   */\n              tag_139\n              jump\t// in\n            tag_196:\n                /* \"#utility.yul\":4526:4740   */\n              swap3\n              swap2\n              pop\n              pop\n              jump\t// out\n                /* \"#utility.yul\":4746:5075   */\n            tag_38:\n                /* \"#utility.yul\":4805:4811   */\n              0x00\n                /* \"#utility.yul\":4854:4856   */\n              0x20\n                /* \"#utility.yul\":4842:4851   */\n              dup3\n                /* \"#utility.yul\":4833:4840   */\n              dup5\n                /* \"#utility.yul\":4829:4852   */\n              sub\n                /* \"#utility.yul\":4825:4857   */\n              slt\n                /* \"#utility.yul\":4822:4941   */\n              iszero\n              tag_198\n              jumpi\n                /* \"#utility.yul\":4860:4939   */\n              tag_199\n              tag_126\n              jump\t// in\n            tag_199:\n                /* \"#utility.yul\":4822:4941   */\n            tag_198:\n                /* \"#utility.yul\":4980:4981   */\n              0x00\n                /* \"#utility.yul\":5005:5058   */\n              tag_200\n                /* \"#utility.yul\":5050:5057   */\n              dup5\n                /* \"#utility.yul\":5041:5047   */\n              dup3\n                /* \"#utility.yul\":5030:5039   */\n              dup6\n                /* \"#utility.yul\":5026:5048   */\n              add\n                /* \"#utility.yul\":5005:5058   */\n              tag_131\n              jump\t// in\n            tag_200:\n                /* \"#utility.yul\":4995:5058   */\n              swap2\n              pop\n                /* \"#utility.yul\":4951:5068   */\n              pop\n                /* \"#utility.yul\":4746:5075   */\n              swap3\n              swap2\n              pop\n              pop\n              jump\t// out\n                /* \"#utility.yul\":5081:5555   */\n            tag_50:\n                /* \"#utility.yul\":5149:5155   */\n              0x00\n                /* \"#utility.yul\":5157:5163   */\n              dup1\n                /* \"#utility.yul\":5206:5208   */\n              0x40\n                /* \"#utility.yul\":5194:5203   */\n              dup4\n                /* \"#utility.yul\":5185:5192   */\n              dup6\n                /* \"#utility.yul\":5181:5204   */\n              sub\n                /* \"#utility.yul\":5177:5209   */\n              slt\n                /* \"#utility.yul\":5174:5293   */\n              iszero\n              tag_202\n              jumpi\n                /* \"#utility.yul\":5212:5291   */\n              tag_203\n              tag_126\n              jump\t// in\n            tag_203:\n                /* \"#utility.yul\":5174:5293   */\n            tag_202:\n                /* \"#utility.yul\":5332:5333   */\n              0x00\n                /* \"#utility.yul\":5357:5410   */\n              tag_204\n                /* \"#utility.yul\":5402:5409   */\n              dup6\n                /* \"#utility.yul\":5393:5399   */\n              dup3\n                /* \"#utility.yul\":5382:5391   */\n              dup7\n                /* \"#utility.yul\":5378:5400   */\n              add\n                /* \"#utility.yul\":5357:5410   */\n              tag_131\n              jump\t// in\n            tag_204:\n                /* \"#utility.yul\":5347:5410   */\n              swap3\n              pop\n                /* \"#utility.yul\":5303:5420   */\n              pop\n                /* \"#utility.yul\":5459:5461   */\n              0x20\n                /* \"#utility.yul\":5485:5538   */\n              tag_205\n                /* \"#utility.yul\":5530:5537   */\n              dup6\n                /* \"#utility.yul\":5521:5527   */\n              dup3\n                /* \"#utility.yul\":5510:5519   */\n              dup7\n                /* \"#utility.yul\":5506:5528   */\n              add\n                /* \"#utility.yul\":5485:5538   */\n              tag_131\n              jump\t// in\n            tag_205:\n                /* \"#utility.yul\":5475:5538   */\n              swap2\n              pop\n                /* \"#utility.yul\":5430:5548   */\n              pop\n                /* \"#utility.yul\":5081:5555   */\n              swap3\n              pop\n              swap3\n              swap1\n              pop\n              jump\t// out\n                /* \"#utility.yul\":5561:5741   */\n            tag_140:\n                /* \"#utility.yul\":5609:5686   */\n              0x4e487b7100000000000000000000000000000000000000000000000000000000\n                /* \"#utility.yul\":5606:5607   */\n              0x00\n                /* \"#utility.yul\":5599:5687   */\n              mstore\n                /* \"#utility.yul\":5706:5710   */\n              0x22\n                /* \"#utility.yul\":5703:5704   */\n              0x04\n                /* \"#utility.yul\":5696:5711   */\n              mstore\n                /* \"#utility.yul\":5730:5734   */\n              0x24\n                /* \"#utility.yul\":5727:5728   */\n              0x00\n                /* \"#utility.yul\":5720:5735   */\n              revert\n                /* \"#utility.yul\":5747:6067   */\n            tag_55:\n                /* \"#utility.yul\":5791:5797   */\n              0x00\n                /* \"#utility.yul\":5828:5829   */\n              0x02\n                /* \"#utility.yul\":5822:5826   */\n              dup3\n                /* \"#utility.yul\":5818:5830   */\n              div\n                /* \"#utility.yul\":5808:5830   */\n              swap1\n              pop\n                /* \"#utility.yul\":5875:5876   */\n              0x01\n                /* \"#utility.yul\":5869:5873   */\n              dup3\n                /* \"#utility.yul\":5865:5877   */\n              and\n                /* \"#utility.yul\":5896:5914   */\n              dup1\n                /* \"#utility.yul\":5886:5967   */\n              tag_208\n              jumpi\n                /* \"#utility.yul\":5952:5956   */\n              0x7f\n                /* \"#utility.yul\":5944:5950   */\n              dup3\n                /* \"#utility.yul\":5940:5957   */\n              and\n                /* \"#utility.yul\":5930:5957   */\n              swap2\n              pop\n                /* \"#utility.yul\":5886:5967   */\n            tag_208:\n                /* \"#utility.yul\":6014:6016   */\n              0x20\n                /* \"#utility.yul\":6006:6012   */\n              dup3\n                /* \"#utility.yul\":6003:6017   */\n              lt\n                /* \"#utility.yul\":5983:6001   */\n              dup2\n                /* \"#utility.yul\":5980:6018   */\n              sub\n                /* \"#utility.yul\":5977:6061   */\n              tag_209\n              jumpi\n                /* \"#utility.yul\":6033:6051   */\n              tag_210\n              tag_140\n              jump\t// in\n            tag_210:\n                /* \"#utility.yul\":5977:6061   */\n            tag_209:\n                /* \"#utility.yul\":5798:6067   */\n              pop\n                /* \"#utility.yul\":5747:6067   */\n              swap2\n              swap1\n              pop\n              jump\t// out\n                /* \"#utility.yul\":6073:6191   */\n            tag_141:\n                /* \"#utility.yul\":6160:6184   */\n              tag_212\n                /* \"#utility.yul\":6178:6183   */\n              dup2\n                /* \"#utility.yul\":6160:6184   */\n              tag_129\n              jump\t// in\n            tag_212:\n                /* \"#utility.yul\":6155:6158   */\n              dup3\n                /* \"#utility.yul\":6148:6185   */\n              mstore\n                /* \"#utility.yul\":6073:6191   */\n              pop\n              pop\n              jump\t// out\n                /* \"#utility.yul\":6197:6639   */\n            tag_93:\n                /* \"#utility.yul\":6346:6350   */\n              0x00\n                /* \"#utility.yul\":6384:6386   */\n              0x60\n                /* \"#utility.yul\":6373:6382   */\n              dup3\n                /* \"#utility.yul\":6369:6387   */\n              add\n                /* \"#utility.yul\":6361:6387   */\n              swap1\n              pop\n                /* \"#utility.yul\":6397:6468   */\n              tag_214\n                /* \"#utility.yul\":6465:6466   */\n              0x00\n                /* \"#utility.yul\":6454:6463   */\n              dup4\n                /* \"#utility.yul\":6450:6467   */\n              add\n                /* \"#utility.yul\":6441:6447   */\n              dup7\n                /* \"#utility.yul\":6397:6468   */\n              tag_141\n              jump\t// in\n            tag_214:\n                /* \"#utility.yul\":6478:6550   */\n              tag_215\n                /* \"#utility.yul\":6546:6548   */\n              0x20\n                /* \"#utility.yul\":6535:6544   */\n              dup4\n                /* \"#utility.yul\":6531:6549   */\n              add\n                /* \"#utility.yul\":6522:6528   */\n              dup6\n                /* \"#utility.yul\":6478:6550   */\n              tag_137\n              jump\t// in\n            tag_215:\n                /* \"#utility.yul\":6560:6632   */\n              tag_216\n                /* \"#utility.yul\":6628:6630   */\n              0x40\n                /* \"#utility.yul\":6617:6626   */\n              dup4\n                /* \"#utility.yul\":6613:6631   */\n              add\n                /* \"#utility.yul\":6604:6610   */\n              dup5\n                /* \"#utility.yul\":6560:6632   */\n              tag_137\n              jump\t// in\n            tag_216:\n                /* \"#utility.yul\":6197:6639   */\n              swap5\n              swap4\n              pop\n              pop\n              pop\n              pop\n              jump\t// out\n                /* \"#utility.yul\":6645:6867   */\n            tag_98:\n                /* \"#utility.yul\":6738:6742   */\n              0x00\n                /* \"#utility.yul\":6776:6778   */\n              0x20\n                /* \"#utility.yul\":6765:6774   */\n              dup3\n                /* \"#utility.yul\":6761:6779   */\n              add\n                /* \"#utility.yul\":6753:6779   */\n              swap1\n              pop\n                /* \"#utility.yul\":6789:6860   */\n              tag_218\n                /* \"#utility.yul\":6857:6858   */\n              0x00\n                /* \"#utility.yul\":6846:6855   */\n              dup4\n                /* \"#utility.yul\":6842:6859   */\n              add\n                /* \"#utility.yul\":6833:6839   */\n              dup5\n                /* \"#utility.yul\":6789:6860   */\n              tag_141\n              jump\t// in\n            tag_218:\n                /* \"#utility.yul\":6645:6867   */\n              swap3\n              swap2\n              pop\n              pop\n              jump\t// out\n                /* \"#utility.yul\":6873:7053   */\n            tag_142:\n                /* \"#utility.yul\":6921:6998   */\n              0x4e487b7100000000000000000000000000000000000000000000000000000000\n                /* \"#utility.yul\":6918:6919   */\n              0x00\n                /* \"#utility.yul\":6911:6999   */\n              mstore\n                /* \"#utility.yul\":7018:7022   */\n              0x11\n                /* \"#utility.yul\":7015:7016   */\n              0x04\n                /* \"#utility.yul\":7008:7023   */\n              mstore\n                /* \"#utility.yul\":7042:7046   */\n              0x24\n                /* \"#utility.yul\":7039:7040   */\n              0x00\n                /* \"#utility.yul\":7032:7047   */\n              revert\n                /* \"#utility.yul\":7059:7250   */\n            tag_113:\n                /* \"#utility.yul\":7099:7102   */\n              0x00\n                /* \"#utility.yul\":7118:7138   */\n              tag_221\n                /* \"#utility.yul\":7136:7137   */\n              dup3\n                /* \"#utility.yul\":7118:7138   */\n              tag_132\n              jump\t// in\n            tag_221:\n                /* \"#utility.yul\":7113:7138   */\n              swap2\n              pop\n                /* \"#utility.yul\":7152:7172   */\n              tag_222\n                /* \"#utility.yul\":7170:7171   */\n              dup4\n                /* \"#utility.yul\":7152:7172   */\n              tag_132\n              jump\t// in\n            tag_222:\n                /* \"#utility.yul\":7147:7172   */\n              swap3\n              pop\n                /* \"#utility.yul\":7195:7196   */\n              dup3\n                /* \"#utility.yul\":7192:7193   */\n              dup3\n                /* \"#utility.yul\":7188:7197   */\n              add\n                /* \"#utility.yul\":7181:7197   */\n              swap1\n              pop\n                /* \"#utility.yul\":7216:7219   */\n              dup1\n                /* \"#utility.yul\":7213:7214   */\n              dup3\n                /* \"#utility.yul\":7210:7220   */\n              gt\n                /* \"#utility.yul\":7207:7243   */\n              iszero\n              tag_223\n              jumpi\n                /* \"#utility.yul\":7223:7241   */\n              tag_224\n              tag_142\n              jump\t// in\n            tag_224:\n                /* \"#utility.yul\":7207:7243   */\n            tag_223:\n                /* \"#utility.yul\":7059:7250   */\n              swap3\n              swap2\n              pop\n              pop\n              jump\t// out\n\n            auxdata: 0xa26469706673582212203cb324b42f344ebb846c67bbc602204c557e6cb64349f6bec19e85853e1c34d564736f6c634300081a0033\n        }\n    }\n\n    auxdata: 0xa2646970667358221220a923248dce1d5839d2e208df153e33cd394d441a78e61d2f8c503f37a2e6f04d64736f6c634300081a0033\n}\n",
				"bytecode": {
					"linkReferences": {},
					"object": "60c06040525f8060146101000a81548160ff021916908315150217905550600a600155606460809081525068056bc75e2d6310000060a0908152503480156044575f80fd5b50335f806101000a81548173ffffffffffffffffffffffffffffffffffffffff021916908373ffffffffffffffffffffffffffffffffffffffff16021790555060805160a051613e0a6100a55f395f6116c401525f6109460152613e0a5ff3fe608060405234801561000f575f80fd5b506004361061011f575f3560e01c80637da0a948116100ab578063c76cc7281161006f578063c76cc72814610321578063dd62ed3e1461032b578063eb97ffa21461035b578063f0acd18414610379578063f3513a37146103835761011f565b80637da0a9481461028d5780638da5cb5b146102ab57806390d64271146102c9578063a6359308146102e7578063b3a1c41a146103035761011f565b806349ee56f9116100f257806349ee56f9146101c05780634d72cd12146101dc57806370a08231146101fd5780637ac642451461022d5780637c1a4bcd1461025d5761011f565b806301c427d7146101235780631cff85e114610141578063204b317b146101745780633b103d3314610190575b5f80fd5b61012b6103a1565b6040516101389190611cad565b60405180910390f35b61015b60048036038101906101569190611cfd565b6103c6565b60405161016b9493929190611d71565b60405180910390f35b61018e60048036038101906101899190611db4565b61042c565b005b6101aa60048036038101906101a59190611db4565b610716565b6040516101b79190611df2565b60405180910390f35b6101da60048036038101906101d59190611cfd565b610a1d565b005b6101e4610d6c565b6040516101f49493929190612030565b60405180910390f35b610217600480360381019061021291906120b9565b610fd8565b6040516102249190611df2565b60405180910390f35b61024760048036038101906102429190611cfd565b610fed565b60405161025491906120e4565b60405180910390f35b610277600480360381019061027291906120b9565b611028565b6040516102849190611df2565b60405180910390f35b6102956110c9565b6040516102a29190611df2565b60405180910390f35b6102b36110cf565b6040516102c091906120e4565b60405180910390f35b6102d16110f6565b6040516102de91906120fd565b60405180910390f35b61030160048036038101906102fc9190611cfd565b611108565b005b61030b6115d8565b60405161031891906120e4565b60405180910390f35b6103296115fd565b005b61034560048036038101906103409190612116565b6119a0565b6040516103529190611df2565b60405180910390f35b6103636119c0565b6040516103709190611df2565b60405180910390f35b610381611a54565b005b61038b611af9565b6040516103989190612154565b60405180910390f35b60025f9054906101000a900473ffffffffffffffffffffffffffffffffffffffff1681565b600781815481106103d5575f80fd5b905f5260205f2090600502015f91509050805f015f9054906101000a900473ffffffffffffffffffffffffffffffffffffffff1690806001015490806002015490806004015f9054906101000a900460ff16905084565b60015460025f9054906101000a900473ffffffffffffffffffffffffffffffffffffffff1673ffffffffffffffffffffffffffffffffffffffff166370a08231336040518263ffffffff1660e01b815260040161048991906120e4565b602060405180830381865afa1580156104a4573d5f803e3d5ffd5b505050506040513d601f19601f820116820180604052508101906104c89190612188565b1015610509576040517f08c379a00000000000000000000000000000000000000000000000000000000081526004016105009061220d565b60405180910390fd5b606060076040518060a001604052803373ffffffffffffffffffffffffffffffffffffffff16815260200185815260200184815260200183815260200160011515815250908060018154018082558091505060019003905f5260205f2090600502015f909190919091505f820151815f015f6101000a81548173ffffffffffffffffffffffffffffffffffffffff021916908373ffffffffffffffffffffffffffffffffffffffff160217905550602082015181600101556040820151816002015560608201518160030190805190602001906105e7929190611b84565b506080820151816004015f6101000a81548160ff02191690831515021790555050505f600160078054905061061c9190612258565b905060025f9054906101000a900473ffffffffffffffffffffffffffffffffffffffff1673ffffffffffffffffffffffffffffffffffffffff166323b872dd33306001546040518463ffffffff1660e01b815260040161067e9392919061228b565b6020604051808303815f875af115801561069a573d5f803e3d5ffd5b505050506040513d601f19601f820116820180604052508101906106be91906122ea565b503373ffffffffffffffffffffffffffffffffffffffff16817f571a5dfc09c77bbe59e7a00b078fec1a53f090e992ccacde1856dab24624c9686001546040516107089190611df2565b60405180910390a350505050565b5f606060076040518060a001604052803373ffffffffffffffffffffffffffffffffffffffff1681526020018681526020018581526020018381526020015f1515815250908060018154018082558091505060019003905f5260205f2090600502015f909190919091505f820151815f015f6101000a81548173ffffffffffffffffffffffffffffffffffffffff021916908373ffffffffffffffffffffffffffffffffffffffff160217905550602082015181600101556040820151816002015560608201518160030190805190602001906107f4929190611b84565b506080820151816004015f6101000a81548160ff02191690831515021790555050505f60016007805490506108299190612258565b90508460025f9054906101000a900473ffffffffffffffffffffffffffffffffffffffff1673ffffffffffffffffffffffffffffffffffffffff166370a08231306040518263ffffffff1660e01b815260040161088691906120e4565b602060405180830381865afa1580156108a1573d5f803e3d5ffd5b505050506040513d601f19601f820116820180604052508101906108c59190612188565b1015610906576040517f08c379a00000000000000000000000000000000000000000000000000000000081526004016108fd90612385565b60405180910390fd5b60025f9054906101000a900473ffffffffffffffffffffffffffffffffffffffff1673ffffffffffffffffffffffffffffffffffffffff1663a9059cbb337f00000000000000000000000000000000000000000000000000000000000000006040518363ffffffff1660e01b81526004016109829291906123a3565b6020604051808303815f875af115801561099e573d5f803e3d5ffd5b505050506040513d601f19601f820116820180604052508101906109c291906122ea565b503373ffffffffffffffffffffffffffffffffffffffff16817ff18e92c00977b9ca5951f9775e5cf053c54bdaec0794874261786ee3e9460ebd87604051610a0a9190611df2565b60405180910390a3809250505092915050565b5f60078281548110610a3257610a316123ca565b5b905f5260205f2090600502019050806001015460025f9054906101000a900473ffffffffffffffffffffffffffffffffffffffff1673ffffffffffffffffffffffffffffffffffffffff166370a08231336040518263ffffffff1660e01b8152600401610a9f91906120e4565b602060405180830381865afa158015610aba573d5f803e3d5ffd5b505050506040513d601f19601f82011682018060405250810190610ade9190612188565b1015610b1f576040517f08c379a0000000000000000000000000000000000000000000000000000000008152600401610b169061220d565b60405180910390fd5b805f015f9054906101000a900473ffffffffffffffffffffffffffffffffffffffff1673ffffffffffffffffffffffffffffffffffffffff163373ffffffffffffffffffffffffffffffffffffffff1603610baf576040517f08c379a0000000000000000000000000000000000000000000000000000000008152600401610ba690612441565b60405180910390fd5b60025f9054906101000a900473ffffffffffffffffffffffffffffffffffffffff1673ffffffffffffffffffffffffffffffffffffffff1663095ea7b33083600101546040518363ffffffff1660e01b8152600401610c0f9291906123a3565b6020604051808303815f875af1158015610c2b573d5f803e3d5ffd5b505050506040513d601f19601f82011682018060405250810190610c4f91906122ea565b5060025f9054906101000a900473ffffffffffffffffffffffffffffffffffffffff1673ffffffffffffffffffffffffffffffffffffffff166323b872dd33835f015f9054906101000a900473ffffffffffffffffffffffffffffffffffffffff1684600101546040518463ffffffff1660e01b8152600401610cd49392919061228b565b6020604051808303815f875af1158015610cf0573d5f803e3d5ffd5b505050506040513d601f19601f82011682018060405250810190610d1491906122ea565b503373ffffffffffffffffffffffffffffffffffffffff16827f313d5c7bf54e15a1b7dc24a51b097c6458663a33e7a4be386f80fea411dcda658360010154604051610d609190611df2565b60405180910390a35050565b6060806060805f60078054905090508067ffffffffffffffff811115610d9557610d9461245f565b5b604051908082528060200260200182016040528015610dc35781602001602082028036833780820191505090505b5094508067ffffffffffffffff811115610de057610ddf61245f565b5b604051908082528060200260200182016040528015610e0e5781602001602082028036833780820191505090505b5093508067ffffffffffffffff811115610e2b57610e2a61245f565b5b604051908082528060200260200182016040528015610e595781602001602082028036833780820191505090505b5092508067ffffffffffffffff811115610e7657610e7561245f565b5b604051908082528060200260200182016040528015610ea45781602001602082028036833780820191505090505b5091505f5b81811015610fd0575f60078281548110610ec657610ec56123ca565b5b905f5260205f2090600502019050805f015f9054906101000a900473ffffffffffffffffffffffffffffffffffffffff16878381518110610f0a57610f096123ca565b5b602002602001019073ffffffffffffffffffffffffffffffffffffffff16908173ffffffffffffffffffffffffffffffffffffffff16815250508060010154868381518110610f5c57610f5b6123ca565b5b6020026020010181815250508060020154858381518110610f8057610f7f6123ca565b5b602002602001018181525050806004015f9054906101000a900460ff16848381518110610fb057610faf6123ca565b5b602002602001019015159081151581525050508080600101915050610ea9565b505090919293565b6005602052805f5260405f205f915090505481565b60048181548110610ffc575f80fd5b905f5260205f20015f915054906101000a900473ffffffffffffffffffffffffffffffffffffffff1681565b5f60025f9054906101000a900473ffffffffffffffffffffffffffffffffffffffff1673ffffffffffffffffffffffffffffffffffffffff166370a08231836040518263ffffffff1660e01b815260040161108391906120e4565b602060405180830381865afa15801561109e573d5f803e3d5ffd5b505050506040513d601f19601f820116820180604052508101906110c29190612188565b9050919050565b60015481565b5f805f9054906101000a900473ffffffffffffffffffffffffffffffffffffffff16905090565b5f60149054906101000a900460ff1681565b5f6007828154811061111d5761111c6123ca565b5b905f5260205f2090600502019050806004015f9054906101000a900460ff161561117c576040517f08c379a0000000000000000000000000000000000000000000000000000000008152600401611173906124d6565b60405180910390fd5b5f805b600480549050811015611210573373ffffffffffffffffffffffffffffffffffffffff16600482815481106111b7576111b66123ca565b5b905f5260205f20015f9054906101000a900473ffffffffffffffffffffffffffffffffffffffff1673ffffffffffffffffffffffffffffffffffffffff16036112035760019150611210565b808060010191505061117f565b5080611251576040517f08c379a000000000000000000000000000000000000000000000000000000000815260040161124890612564565b60405180910390fd5b815f015f9054906101000a900473ffffffffffffffffffffffffffffffffffffffff1673ffffffffffffffffffffffffffffffffffffffff163373ffffffffffffffffffffffffffffffffffffffff16036112e1576040517f08c379a00000000000000000000000000000000000000000000000000000000081526004016112d8906125cc565b60405180910390fd5b8160030133908060018154018082558091505060019003905f5260205f20015f9091909190916101000a81548173ffffffffffffffffffffffffffffffffffffffff021916908373ffffffffffffffffffffffffffffffffffffffff16021790555060025f9054906101000a900473ffffffffffffffffffffffffffffffffffffffff1673ffffffffffffffffffffffffffffffffffffffff1663a9059cbb3384600201546040518363ffffffff1660e01b81526004016113a39291906123a3565b6020604051808303815f875af11580156113bf573d5f803e3d5ffd5b505050506040513d601f19601f820116820180604052508101906113e391906122ea565b506001826004015f6101000a81548160ff021916908315150217905550816002015460025f9054906101000a900473ffffffffffffffffffffffffffffffffffffffff1673ffffffffffffffffffffffffffffffffffffffff166370a08231306040518263ffffffff1660e01b815260040161145f91906120e4565b602060405180830381865afa15801561147a573d5f803e3d5ffd5b505050506040513d601f19601f8201168201806040525081019061149e9190612188565b10156114df576040517f08c379a00000000000000000000000000000000000000000000000000000000081526004016114d690612634565b60405180910390fd5b60025f9054906101000a900473ffffffffffffffffffffffffffffffffffffffff1673ffffffffffffffffffffffffffffffffffffffff1663a9059cbb3384600201546040518363ffffffff1660e01b815260040161153f9291906123a3565b6020604051808303815f875af115801561155b573d5f803e3d5ffd5b505050506040513d601f19601f8201168201806040525081019061157f91906122ea565b503373ffffffffffffffffffffffffffffffffffffffff16837f1dc73a35285fda24d55673e615930ad58eab11f47d6838526ffbd7d2c1847af484600201546040516115cb9190611df2565b60405180910390a3505050565b60035f9054906101000a900473ffffffffffffffffffffffffffffffffffffffff1681565b3373ffffffffffffffffffffffffffffffffffffffff1661161c6110cf565b73ffffffffffffffffffffffffffffffffffffffff1614611672576040517f08c379a00000000000000000000000000000000000000000000000000000000081526004016116699061269c565b60405180910390fd5b5f60149054906101000a900460ff16156116c1576040517f08c379a00000000000000000000000000000000000000000000000000000000081526004016116b89061272a565b60405180910390fd5b5f7f00000000000000000000000000000000000000000000000000000000000000006040516116ef90611c0b565b6116f99190611df2565b604051809103905ff080158015611712573d5f803e3d5ffd5b5090508060035f6101000a81548173ffffffffffffffffffffffffffffffffffffffff021916908373ffffffffffffffffffffffffffffffffffffffff16021790555060035f9054906101000a900473ffffffffffffffffffffffffffffffffffffffff1660025f6101000a81548173ffffffffffffffffffffffffffffffffffffffff021916908373ffffffffffffffffffffffffffffffffffffffff16021790555060025f9054906101000a900473ffffffffffffffffffffffffffffffffffffffff1673ffffffffffffffffffffffffffffffffffffffff1663a9059cbb3068056bc75e2d631000006040518363ffffffff1660e01b815260040161181b929190612781565b6020604051808303815f875af1158015611837573d5f803e3d5ffd5b505050506040513d601f19601f8201168201806040525081019061185b91906122ea565b5060025f9054906101000a900473ffffffffffffffffffffffffffffffffffffffff1673ffffffffffffffffffffffffffffffffffffffff166318160ddd6040518163ffffffff1660e01b8152600401602060405180830381865afa1580156118c6573d5f803e3d5ffd5b505050506040513d601f19601f820116820180604052508101906118ea9190612188565b60055f3073ffffffffffffffffffffffffffffffffffffffff1673ffffffffffffffffffffffffffffffffffffffff1681526020019081526020015f208190555060015f60146101000a81548160ff0219169083151502179055507f5a328b2a6ca99d3f214e0a041dcd254e948aa9a2e1b8b97233531b6a1d1872c960035f9054906101000a900473ffffffffffffffffffffffffffffffffffffffff1660405161199591906120e4565b60405180910390a150565b6006602052815f5260405f20602052805f5260405f205f91509150505481565b5f60025f9054906101000a900473ffffffffffffffffffffffffffffffffffffffff1673ffffffffffffffffffffffffffffffffffffffff166318160ddd6040518163ffffffff1660e01b8152600401602060405180830381865afa158015611a2b573d5f803e3d5ffd5b505050506040513d601f19601f82011682018060405250810190611a4f9190612188565b905090565b600433908060018154018082558091505060019003905f5260205f20015f9091909190916101000a81548173ffffffffffffffffffffffffffffffffffffffff021916908373ffffffffffffffffffffffffffffffffffffffff1602179055503373ffffffffffffffffffffffffffffffffffffffff167fd09501348473474a20c772c79c653e1fd7e8b437e418fe235d277d2c8885325160405160405180910390a2565b60606004805480602002602001604051908101604052809291908181526020018280548015611b7a57602002820191905f5260205f20905b815f9054906101000a900473ffffffffffffffffffffffffffffffffffffffff1673ffffffffffffffffffffffffffffffffffffffff1681526020019060010190808311611b31575b5050505050905090565b828054828255905f5260205f20908101928215611bfa579160200282015b82811115611bf9578251825f6101000a81548173ffffffffffffffffffffffffffffffffffffffff021916908373ffffffffffffffffffffffffffffffffffffffff16021790555091602001919060010190611ba2565b5b509050611c079190611c18565b5090565b61162c806127a983390190565b5b80821115611c2f575f815f905550600101611c19565b5090565b5f73ffffffffffffffffffffffffffffffffffffffff82169050919050565b5f819050919050565b5f611c75611c70611c6b84611c33565b611c52565b611c33565b9050919050565b5f611c8682611c5b565b9050919050565b5f611c9782611c7c565b9050919050565b611ca781611c8d565b82525050565b5f602082019050611cc05f830184611c9e565b92915050565b5f80fd5b5f819050919050565b611cdc81611cca565b8114611ce6575f80fd5b50565b5f81359050611cf781611cd3565b92915050565b5f60208284031215611d1257611d11611cc6565b5b5f611d1f84828501611ce9565b91505092915050565b5f611d3282611c33565b9050919050565b611d4281611d28565b82525050565b611d5181611cca565b82525050565b5f8115159050919050565b611d6b81611d57565b82525050565b5f608082019050611d845f830187611d39565b611d916020830186611d48565b611d9e6040830185611d48565b611dab6060830184611d62565b95945050505050565b5f8060408385031215611dca57611dc9611cc6565b5b5f611dd785828601611ce9565b9250506020611de885828601611ce9565b9150509250929050565b5f602082019050611e055f830184611d48565b92915050565b5f81519050919050565b5f82825260208201905092915050565b5f819050602082019050919050565b611e3d81611d28565b82525050565b5f611e4e8383611e34565b60208301905092915050565b5f602082019050919050565b5f611e7082611e0b565b611e7a8185611e15565b9350611e8583611e25565b805f5b83811015611eb5578151611e9c8882611e43565b9750611ea783611e5a565b925050600181019050611e88565b5085935050505092915050565b5f81519050919050565b5f82825260208201905092915050565b5f819050602082019050919050565b611ef481611cca565b82525050565b5f611f058383611eeb565b60208301905092915050565b5f602082019050919050565b5f611f2782611ec2565b611f318185611ecc565b9350611f3c83611edc565b805f5b83811015611f6c578151611f538882611efa565b9750611f5e83611f11565b925050600181019050611f3f565b5085935050505092915050565b5f81519050919050565b5f82825260208201905092915050565b5f819050602082019050919050565b611fab81611d57565b82525050565b5f611fbc8383611fa2565b60208301905092915050565b5f602082019050919050565b5f611fde82611f79565b611fe88185611f83565b9350611ff383611f93565b805f5b8381101561202357815161200a8882611fb1565b975061201583611fc8565b925050600181019050611ff6565b5085935050505092915050565b5f6080820190508181035f8301526120488187611e66565b9050818103602083015261205c8186611f1d565b905081810360408301526120708185611f1d565b905081810360608301526120848184611fd4565b905095945050505050565b61209881611d28565b81146120a2575f80fd5b50565b5f813590506120b38161208f565b92915050565b5f602082840312156120ce576120cd611cc6565b5b5f6120db848285016120a5565b91505092915050565b5f6020820190506120f75f830184611d39565b92915050565b5f6020820190506121105f830184611d62565b92915050565b5f806040838503121561212c5761212b611cc6565b5b5f612139858286016120a5565b925050602061214a858286016120a5565b9150509250929050565b5f6020820190508181035f83015261216c8184611e66565b905092915050565b5f8151905061218281611cd3565b92915050565b5f6020828403121561219d5761219c611cc6565b5b5f6121aa84828501612174565b91505092915050565b5f82825260208201905092915050565b7f496e73756666696369656e742062616c616e636520746f2070757263686173655f82015250565b5f6121f76020836121b3565b9150612202826121c3565b602082019050919050565b5f6020820190508181035f830152612224816121eb565b9050919050565b7f4e487b71000000000000000000000000000000000000000000000000000000005f52601160045260245ffd5b5f61226282611cca565b915061226d83611cca565b92508282039050818111156122855761228461222b565b5b92915050565b5f60608201905061229e5f830186611d39565b6122ab6020830185611d39565b6122b86040830184611d48565b949350505050565b6122c981611d57565b81146122d3575f80fd5b50565b5f815190506122e4816122c0565b92915050565b5f602082840312156122ff576122fe611cc6565b5b5f61230c848285016122d6565b91505092915050565b7f436f6e74726163742068617320696e73756666696369656e742044504320746f5f8201527f2072657761726400000000000000000000000000000000000000000000000000602082015250565b5f61236f6027836121b3565b915061237a82612315565b604082019050919050565b5f6020820190508181035f83015261239c81612363565b9050919050565b5f6040820190506123b65f830185611d39565b6123c36020830184611d48565b9392505050565b7f4e487b71000000000000000000000000000000000000000000000000000000005f52603260045260245ffd5b7f43616e6e6f742062757920796f757273206461746173657400000000000000005f82015250565b5f61242b6018836121b3565b9150612436826123f7565b602082019050919050565b5f6020820190508181035f8301526124588161241f565b9050919050565b7f4e487b71000000000000000000000000000000000000000000000000000000005f52604160045260245ffd5b7f4461746173657420616c72656164792076616c696461746564000000000000005f82015250565b5f6124c06019836121b3565b91506124cb8261248c565b602082019050919050565b5f6020820190508181035f8301526124ed816124b4565b9050919050565b7f596f75206d757374206265206120726567697374657265642076616c696461745f8201527f6f72000000000000000000000000000000000000000000000000000000000000602082015250565b5f61254e6022836121b3565b9150612559826124f4565b604082019050919050565b5f6020820190508181035f83015261257b81612542565b9050919050565b7f56616c696461746f722063616e6e6f74206265207468652063726561746f72005f82015250565b5f6125b6601f836121b3565b91506125c182612582565b602082019050919050565b5f6020820190508181035f8301526125e3816125aa565b9050919050565b7f496e73756666696369656e742062616c616e636520746f2072657761726400005f82015250565b5f61261e601e836121b3565b9150612629826125ea565b602082019050919050565b5f6020820190508181035f83015261264b81612612565b9050919050565b7f4f776e61626c653a2063616c6c6572206973206e6f7420746865206f776e65725f82015250565b5f6126866020836121b3565b915061269182612652565b602082019050919050565b5f6020820190508181035f8301526126b38161267a565b9050919050565b7f4461746150756e6b436f696e2068617320616c7265616479206265656e2064655f8201527f706c6f7965640000000000000000000000000000000000000000000000000000602082015250565b5f6127146026836121b3565b915061271f826126ba565b604082019050919050565b5f6020820190508181035f83015261274181612708565b9050919050565b5f819050919050565b5f61276b61276661276184612748565b611c52565b611cca565b9050919050565b61277b81612751565b82525050565b5f6040820190506127945f830185611d39565b6127a16020830184612772565b939250505056fe608060405234801561000f575f80fd5b5060405161162c38038061162c833981810160405281019061003191906103bd565b6040518060400160405280600d81526020017f4461746150756e6b20436f696e000000000000000000000000000000000000008152506040518060400160405280600381526020017f445043000000000000000000000000000000000000000000000000000000000081525081600390816100ac9190610619565b5080600490816100bc9190610619565b5050506100e233670de0b6b3a7640000836100d79190610715565b6100e860201b60201c565b5061083e565b5f73ffffffffffffffffffffffffffffffffffffffff168273ffffffffffffffffffffffffffffffffffffffff1603610158575f6040517fec442f0500000000000000000000000000000000000000000000000000000000815260040161014f9190610795565b60405180910390fd5b6101695f838361016d60201b60201c565b5050565b5f73ffffffffffffffffffffffffffffffffffffffff168373ffffffffffffffffffffffffffffffffffffffff16036101bd578060025f8282546101b191906107ae565b9250508190555061028b565b5f805f8573ffffffffffffffffffffffffffffffffffffffff1673ffffffffffffffffffffffffffffffffffffffff1681526020019081526020015f2054905081811015610246578381836040517fe450d38c00000000000000000000000000000000000000000000000000000000815260040161023d939291906107f0565b60405180910390fd5b8181035f808673ffffffffffffffffffffffffffffffffffffffff1673ffffffffffffffffffffffffffffffffffffffff1681526020019081526020015f2081905550505b5f73ffffffffffffffffffffffffffffffffffffffff168273ffffffffffffffffffffffffffffffffffffffff16036102d2578060025f828254039250508190555061031c565b805f808473ffffffffffffffffffffffffffffffffffffffff1673ffffffffffffffffffffffffffffffffffffffff1681526020019081526020015f205f82825401925050819055505b8173ffffffffffffffffffffffffffffffffffffffff168373ffffffffffffffffffffffffffffffffffffffff167fddf252ad1be2c89b69c2b068fc378daa952ba7f163c4a11628f55a4df523b3ef836040516103799190610825565b60405180910390a3505050565b5f80fd5b5f819050919050565b61039c8161038a565b81146103a6575f80fd5b50565b5f815190506103b781610393565b92915050565b5f602082840312156103d2576103d1610386565b5b5f6103df848285016103a9565b91505092915050565b5f81519050919050565b7f4e487b71000000000000000000000000000000000000000000000000000000005f52604160045260245ffd5b7f4e487b71000000000000000000000000000000000000000000000000000000005f52602260045260245ffd5b5f600282049050600182168061046357607f821691505b6020821081036104765761047561041f565b5b50919050565b5f819050815f5260205f209050919050565b5f6020601f8301049050919050565b5f82821b905092915050565b5f600883026104d87fffffffffffffffffffffffffffffffffffffffffffffffffffffffffffffffff8261049d565b6104e2868361049d565b95508019841693508086168417925050509392505050565b5f819050919050565b5f61051d6105186105138461038a565b6104fa565b61038a565b9050919050565b5f819050919050565b61053683610503565b61054a61054282610524565b8484546104a9565b825550505050565b5f90565b61055e610552565b61056981848461052d565b505050565b5b8181101561058c576105815f82610556565b60018101905061056f565b5050565b601f8211156105d1576105a28161047c565b6105ab8461048e565b810160208510156105ba578190505b6105ce6105c68561048e565b83018261056e565b50505b505050565b5f82821c905092915050565b5f6105f15f19846008026105d6565b1980831691505092915050565b5f61060983836105e2565b9150826002028217905092915050565b610622826103e8565b67ffffffffffffffff81111561063b5761063a6103f2565b5b610645825461044c565b610650828285610590565b5f60209050601f831160018114610681575f841561066f578287015190505b61067985826105fe565b8655506106e0565b601f19841661068f8661047c565b5f5b828110156106b657848901518255600182019150602085019450602081019050610691565b868310156106d357848901516106cf601f8916826105e2565b8355505b6001600288020188555050505b505050505050565b7f4e487b71000000000000000000000000000000000000000000000000000000005f52601160045260245ffd5b5f61071f8261038a565b915061072a8361038a565b92508282026107388161038a565b9150828204841483151761074f5761074e6106e8565b5b5092915050565b5f73ffffffffffffffffffffffffffffffffffffffff82169050919050565b5f61077f82610756565b9050919050565b61078f81610775565b82525050565b5f6020820190506107a85f830184610786565b92915050565b5f6107b88261038a565b91506107c38361038a565b92508282019050808211156107db576107da6106e8565b5b92915050565b6107ea8161038a565b82525050565b5f6060820190506108035f830186610786565b61081060208301856107e1565b61081d60408301846107e1565b949350505050565b5f6020820190506108385f8301846107e1565b92915050565b610de18061084b5f395ff3fe608060405234801561000f575f80fd5b5060043610610091575f3560e01c8063313ce56711610064578063313ce5671461013157806370a082311461014f57806395d89b411461017f578063a9059cbb1461019d578063dd62ed3e146101cd57610091565b806306fdde0314610095578063095ea7b3146100b357806318160ddd146100e357806323b872dd14610101575b5f80fd5b61009d6101fd565b6040516100aa9190610a5a565b60405180910390f35b6100cd60048036038101906100c89190610b0b565b61028d565b6040516100da9190610b63565b60405180910390f35b6100eb6102af565b6040516100f89190610b8b565b60405180910390f35b61011b60048036038101906101169190610ba4565b6102b8565b6040516101289190610b63565b60405180910390f35b6101396102e6565b6040516101469190610c0f565b60405180910390f35b61016960048036038101906101649190610c28565b6102ee565b6040516101769190610b8b565b60405180910390f35b610187610333565b6040516101949190610a5a565b60405180910390f35b6101b760048036038101906101b29190610b0b565b6103c3565b6040516101c49190610b63565b60405180910390f35b6101e760048036038101906101e29190610c53565b6103e5565b6040516101f49190610b8b565b60405180910390f35b60606003805461020c90610cbe565b80601f016020809104026020016040519081016040528092919081815260200182805461023890610cbe565b80156102835780601f1061025a57610100808354040283529160200191610283565b820191905f5260205f20905b81548152906001019060200180831161026657829003601f168201915b5050505050905090565b5f80610297610467565b90506102a481858561046e565b600191505092915050565b5f600254905090565b5f806102c2610467565b90506102cf858285610480565b6102da858585610512565b60019150509392505050565b5f6012905090565b5f805f8373ffffffffffffffffffffffffffffffffffffffff1673ffffffffffffffffffffffffffffffffffffffff1681526020019081526020015f20549050919050565b60606004805461034290610cbe565b80601f016020809104026020016040519081016040528092919081815260200182805461036e90610cbe565b80156103b95780601f10610390576101008083540402835291602001916103b9565b820191905f5260205f20905b81548152906001019060200180831161039c57829003601f168201915b5050505050905090565b5f806103cd610467565b90506103da818585610512565b600191505092915050565b5f60015f8473ffffffffffffffffffffffffffffffffffffffff1673ffffffffffffffffffffffffffffffffffffffff1681526020019081526020015f205f8373ffffffffffffffffffffffffffffffffffffffff1673ffffffffffffffffffffffffffffffffffffffff1681526020019081526020015f2054905092915050565b5f33905090565b61047b8383836001610602565b505050565b5f61048b84846103e5565b90507fffffffffffffffffffffffffffffffffffffffffffffffffffffffffffffffff811461050c57818110156104fd578281836040517ffb8f41b20000000000000000000000000000000000000000000000000000000081526004016104f493929190610cfd565b60405180910390fd5b61050b84848484035f610602565b5b50505050565b5f73ffffffffffffffffffffffffffffffffffffffff168373ffffffffffffffffffffffffffffffffffffffff1603610582575f6040517f96c6fd1e0000000000000000000000000000000000000000000000000000000081526004016105799190610d32565b60405180910390fd5b5f73ffffffffffffffffffffffffffffffffffffffff168273ffffffffffffffffffffffffffffffffffffffff16036105f2575f6040517fec442f050000000000000000000000000000000000000000000000000000000081526004016105e99190610d32565b60405180910390fd5b6105fd8383836107d1565b505050565b5f73ffffffffffffffffffffffffffffffffffffffff168473ffffffffffffffffffffffffffffffffffffffff1603610672575f6040517fe602df050000000000000000000000000000000000000000000000000000000081526004016106699190610d32565b60405180910390fd5b5f73ffffffffffffffffffffffffffffffffffffffff168373ffffffffffffffffffffffffffffffffffffffff16036106e2575f6040517f94280d620000000000000000000000000000000000000000000000000000000081526004016106d99190610d32565b60405180910390fd5b8160015f8673ffffffffffffffffffffffffffffffffffffffff1673ffffffffffffffffffffffffffffffffffffffff1681526020019081526020015f205f8573ffffffffffffffffffffffffffffffffffffffff1673ffffffffffffffffffffffffffffffffffffffff1681526020019081526020015f208190555080156107cb578273ffffffffffffffffffffffffffffffffffffffff168473ffffffffffffffffffffffffffffffffffffffff167f8c5be1e5ebec7d5bd14f71427d1e84f3dd0314c0f7b2291e5b200ac8c7c3b925846040516107c29190610b8b565b60405180910390a35b50505050565b5f73ffffffffffffffffffffffffffffffffffffffff168373ffffffffffffffffffffffffffffffffffffffff1603610821578060025f8282546108159190610d78565b925050819055506108ef565b5f805f8573ffffffffffffffffffffffffffffffffffffffff1673ffffffffffffffffffffffffffffffffffffffff1681526020019081526020015f20549050818110156108aa578381836040517fe450d38c0000000000000000000000000000000000000000000000000000000081526004016108a193929190610cfd565b60405180910390fd5b8181035f808673ffffffffffffffffffffffffffffffffffffffff1673ffffffffffffffffffffffffffffffffffffffff1681526020019081526020015f2081905550505b5f73ffffffffffffffffffffffffffffffffffffffff168273ffffffffffffffffffffffffffffffffffffffff1603610936578060025f8282540392505081905550610980565b805f808473ffffffffffffffffffffffffffffffffffffffff1673ffffffffffffffffffffffffffffffffffffffff1681526020019081526020015f205f82825401925050819055505b8173ffffffffffffffffffffffffffffffffffffffff168373ffffffffffffffffffffffffffffffffffffffff167fddf252ad1be2c89b69c2b068fc378daa952ba7f163c4a11628f55a4df523b3ef836040516109dd9190610b8b565b60405180910390a3505050565b5f81519050919050565b5f82825260208201905092915050565b8281835e5f83830152505050565b5f601f19601f8301169050919050565b5f610a2c826109ea565b610a3681856109f4565b9350610a46818560208601610a04565b610a4f81610a12565b840191505092915050565b5f6020820190508181035f830152610a728184610a22565b905092915050565b5f80fd5b5f73ffffffffffffffffffffffffffffffffffffffff82169050919050565b5f610aa782610a7e565b9050919050565b610ab781610a9d565b8114610ac1575f80fd5b50565b5f81359050610ad281610aae565b92915050565b5f819050919050565b610aea81610ad8565b8114610af4575f80fd5b50565b5f81359050610b0581610ae1565b92915050565b5f8060408385031215610b2157610b20610a7a565b5b5f610b2e85828601610ac4565b9250506020610b3f85828601610af7565b9150509250929050565b5f8115159050919050565b610b5d81610b49565b82525050565b5f602082019050610b765f830184610b54565b92915050565b610b8581610ad8565b82525050565b5f602082019050610b9e5f830184610b7c565b92915050565b5f805f60608486031215610bbb57610bba610a7a565b5b5f610bc886828701610ac4565b9350506020610bd986828701610ac4565b9250506040610bea86828701610af7565b9150509250925092565b5f60ff82169050919050565b610c0981610bf4565b82525050565b5f602082019050610c225f830184610c00565b92915050565b5f60208284031215610c3d57610c3c610a7a565b5b5f610c4a84828501610ac4565b91505092915050565b5f8060408385031215610c6957610c68610a7a565b5b5f610c7685828601610ac4565b9250506020610c8785828601610ac4565b9150509250929050565b7f4e487b71000000000000000000000000000000000000000000000000000000005f52602260045260245ffd5b5f6002820490506001821680610cd557607f821691505b602082108103610ce857610ce7610c91565b5b50919050565b610cf781610a9d565b82525050565b5f606082019050610d105f830186610cee565b610d1d6020830185610b7c565b610d2a6040830184610b7c565b949350505050565b5f602082019050610d455f830184610cee565b92915050565b7f4e487b71000000000000000000000000000000000000000000000000000000005f52601160045260245ffd5b5f610d8282610ad8565b9150610d8d83610ad8565b9250828201905080821115610da557610da4610d4b565b5b9291505056fea26469706673582212203cb324b42f344ebb846c67bbc602204c557e6cb64349f6bec19e85853e1c34d564736f6c634300081a0033a2646970667358221220a923248dce1d5839d2e208df153e33cd394d441a78e61d2f8c503f37a2e6f04d64736f6c634300081a0033",
					"opcodes": "PUSH1 0xC0 PUSH1 0x40 MSTORE PUSH0 DUP1 PUSH1 0x14 PUSH2 0x100 EXP DUP2 SLOAD DUP2 PUSH1 0xFF MUL NOT AND SWAP1 DUP4 ISZERO ISZERO MUL OR SWAP1 SSTORE POP PUSH1 0xA PUSH1 0x1 SSTORE PUSH1 0x64 PUSH1 0x80 SWAP1 DUP2 MSTORE POP PUSH9 0x56BC75E2D63100000 PUSH1 0xA0 SWAP1 DUP2 MSTORE POP CALLVALUE DUP1 ISZERO PUSH1 0x44 JUMPI PUSH0 DUP1 REVERT JUMPDEST POP CALLER PUSH0 DUP1 PUSH2 0x100 EXP DUP2 SLOAD DUP2 PUSH20 0xFFFFFFFFFFFFFFFFFFFFFFFFFFFFFFFFFFFFFFFF MUL NOT AND SWAP1 DUP4 PUSH20 0xFFFFFFFFFFFFFFFFFFFFFFFFFFFFFFFFFFFFFFFF AND MUL OR SWAP1 SSTORE POP PUSH1 0x80 MLOAD PUSH1 0xA0 MLOAD PUSH2 0x3E0A PUSH2 0xA5 PUSH0 CODECOPY PUSH0 PUSH2 0x16C4 ADD MSTORE PUSH0 PUSH2 0x946 ADD MSTORE PUSH2 0x3E0A PUSH0 RETURN INVALID PUSH1 0x80 PUSH1 0x40 MSTORE CALLVALUE DUP1 ISZERO PUSH2 0xF JUMPI PUSH0 DUP1 REVERT JUMPDEST POP PUSH1 0x4 CALLDATASIZE LT PUSH2 0x11F JUMPI PUSH0 CALLDATALOAD PUSH1 0xE0 SHR DUP1 PUSH4 0x7DA0A948 GT PUSH2 0xAB JUMPI DUP1 PUSH4 0xC76CC728 GT PUSH2 0x6F JUMPI DUP1 PUSH4 0xC76CC728 EQ PUSH2 0x321 JUMPI DUP1 PUSH4 0xDD62ED3E EQ PUSH2 0x32B JUMPI DUP1 PUSH4 0xEB97FFA2 EQ PUSH2 0x35B JUMPI DUP1 PUSH4 0xF0ACD184 EQ PUSH2 0x379 JUMPI DUP1 PUSH4 0xF3513A37 EQ PUSH2 0x383 JUMPI PUSH2 0x11F JUMP JUMPDEST DUP1 PUSH4 0x7DA0A948 EQ PUSH2 0x28D JUMPI DUP1 PUSH4 0x8DA5CB5B EQ PUSH2 0x2AB JUMPI DUP1 PUSH4 0x90D64271 EQ PUSH2 0x2C9 JUMPI DUP1 PUSH4 0xA6359308 EQ PUSH2 0x2E7 JUMPI DUP1 PUSH4 0xB3A1C41A EQ PUSH2 0x303 JUMPI PUSH2 0x11F JUMP JUMPDEST DUP1 PUSH4 0x49EE56F9 GT PUSH2 0xF2 JUMPI DUP1 PUSH4 0x49EE56F9 EQ PUSH2 0x1C0 JUMPI DUP1 PUSH4 0x4D72CD12 EQ PUSH2 0x1DC JUMPI DUP1 PUSH4 0x70A08231 EQ PUSH2 0x1FD JUMPI DUP1 PUSH4 0x7AC64245 EQ PUSH2 0x22D JUMPI DUP1 PUSH4 0x7C1A4BCD EQ PUSH2 0x25D JUMPI PUSH2 0x11F JUMP JUMPDEST DUP1 PUSH4 0x1C427D7 EQ PUSH2 0x123 JUMPI DUP1 PUSH4 0x1CFF85E1 EQ PUSH2 0x141 JUMPI DUP1 PUSH4 0x204B317B EQ PUSH2 0x174 JUMPI DUP1 PUSH4 0x3B103D33 EQ PUSH2 0x190 JUMPI JUMPDEST PUSH0 DUP1 REVERT JUMPDEST PUSH2 0x12B PUSH2 0x3A1 JUMP JUMPDEST PUSH1 0x40 MLOAD PUSH2 0x138 SWAP2 SWAP1 PUSH2 0x1CAD JUMP JUMPDEST PUSH1 0x40 MLOAD DUP1 SWAP2 SUB SWAP1 RETURN JUMPDEST PUSH2 0x15B PUSH1 0x4 DUP1 CALLDATASIZE SUB DUP2 ADD SWAP1 PUSH2 0x156 SWAP2 SWAP1 PUSH2 0x1CFD JUMP JUMPDEST PUSH2 0x3C6 JUMP JUMPDEST PUSH1 0x40 MLOAD PUSH2 0x16B SWAP5 SWAP4 SWAP3 SWAP2 SWAP1 PUSH2 0x1D71 JUMP JUMPDEST PUSH1 0x40 MLOAD DUP1 SWAP2 SUB SWAP1 RETURN JUMPDEST PUSH2 0x18E PUSH1 0x4 DUP1 CALLDATASIZE SUB DUP2 ADD SWAP1 PUSH2 0x189 SWAP2 SWAP1 PUSH2 0x1DB4 JUMP JUMPDEST PUSH2 0x42C JUMP JUMPDEST STOP JUMPDEST PUSH2 0x1AA PUSH1 0x4 DUP1 CALLDATASIZE SUB DUP2 ADD SWAP1 PUSH2 0x1A5 SWAP2 SWAP1 PUSH2 0x1DB4 JUMP JUMPDEST PUSH2 0x716 JUMP JUMPDEST PUSH1 0x40 MLOAD PUSH2 0x1B7 SWAP2 SWAP1 PUSH2 0x1DF2 JUMP JUMPDEST PUSH1 0x40 MLOAD DUP1 SWAP2 SUB SWAP1 RETURN JUMPDEST PUSH2 0x1DA PUSH1 0x4 DUP1 CALLDATASIZE SUB DUP2 ADD SWAP1 PUSH2 0x1D5 SWAP2 SWAP1 PUSH2 0x1CFD JUMP JUMPDEST PUSH2 0xA1D JUMP JUMPDEST STOP JUMPDEST PUSH2 0x1E4 PUSH2 0xD6C JUMP JUMPDEST PUSH1 0x40 MLOAD PUSH2 0x1F4 SWAP5 SWAP4 SWAP3 SWAP2 SWAP1 PUSH2 0x2030 JUMP JUMPDEST PUSH1 0x40 MLOAD DUP1 SWAP2 SUB SWAP1 RETURN JUMPDEST PUSH2 0x217 PUSH1 0x4 DUP1 CALLDATASIZE SUB DUP2 ADD SWAP1 PUSH2 0x212 SWAP2 SWAP1 PUSH2 0x20B9 JUMP JUMPDEST PUSH2 0xFD8 JUMP JUMPDEST PUSH1 0x40 MLOAD PUSH2 0x224 SWAP2 SWAP1 PUSH2 0x1DF2 JUMP JUMPDEST PUSH1 0x40 MLOAD DUP1 SWAP2 SUB SWAP1 RETURN JUMPDEST PUSH2 0x247 PUSH1 0x4 DUP1 CALLDATASIZE SUB DUP2 ADD SWAP1 PUSH2 0x242 SWAP2 SWAP1 PUSH2 0x1CFD JUMP JUMPDEST PUSH2 0xFED JUMP JUMPDEST PUSH1 0x40 MLOAD PUSH2 0x254 SWAP2 SWAP1 PUSH2 0x20E4 JUMP JUMPDEST PUSH1 0x40 MLOAD DUP1 SWAP2 SUB SWAP1 RETURN JUMPDEST PUSH2 0x277 PUSH1 0x4 DUP1 CALLDATASIZE SUB DUP2 ADD SWAP1 PUSH2 0x272 SWAP2 SWAP1 PUSH2 0x20B9 JUMP JUMPDEST PUSH2 0x1028 JUMP JUMPDEST PUSH1 0x40 MLOAD PUSH2 0x284 SWAP2 SWAP1 PUSH2 0x1DF2 JUMP JUMPDEST PUSH1 0x40 MLOAD DUP1 SWAP2 SUB SWAP1 RETURN JUMPDEST PUSH2 0x295 PUSH2 0x10C9 JUMP JUMPDEST PUSH1 0x40 MLOAD PUSH2 0x2A2 SWAP2 SWAP1 PUSH2 0x1DF2 JUMP JUMPDEST PUSH1 0x40 MLOAD DUP1 SWAP2 SUB SWAP1 RETURN JUMPDEST PUSH2 0x2B3 PUSH2 0x10CF JUMP JUMPDEST PUSH1 0x40 MLOAD PUSH2 0x2C0 SWAP2 SWAP1 PUSH2 0x20E4 JUMP JUMPDEST PUSH1 0x40 MLOAD DUP1 SWAP2 SUB SWAP1 RETURN JUMPDEST PUSH2 0x2D1 PUSH2 0x10F6 JUMP JUMPDEST PUSH1 0x40 MLOAD PUSH2 0x2DE SWAP2 SWAP1 PUSH2 0x20FD JUMP JUMPDEST PUSH1 0x40 MLOAD DUP1 SWAP2 SUB SWAP1 RETURN JUMPDEST PUSH2 0x301 PUSH1 0x4 DUP1 CALLDATASIZE SUB DUP2 ADD SWAP1 PUSH2 0x2FC SWAP2 SWAP1 PUSH2 0x1CFD JUMP JUMPDEST PUSH2 0x1108 JUMP JUMPDEST STOP JUMPDEST PUSH2 0x30B PUSH2 0x15D8 JUMP JUMPDEST PUSH1 0x40 MLOAD PUSH2 0x318 SWAP2 SWAP1 PUSH2 0x20E4 JUMP JUMPDEST PUSH1 0x40 MLOAD DUP1 SWAP2 SUB SWAP1 RETURN JUMPDEST PUSH2 0x329 PUSH2 0x15FD JUMP JUMPDEST STOP JUMPDEST PUSH2 0x345 PUSH1 0x4 DUP1 CALLDATASIZE SUB DUP2 ADD SWAP1 PUSH2 0x340 SWAP2 SWAP1 PUSH2 0x2116 JUMP JUMPDEST PUSH2 0x19A0 JUMP JUMPDEST PUSH1 0x40 MLOAD PUSH2 0x352 SWAP2 SWAP1 PUSH2 0x1DF2 JUMP JUMPDEST PUSH1 0x40 MLOAD DUP1 SWAP2 SUB SWAP1 RETURN JUMPDEST PUSH2 0x363 PUSH2 0x19C0 JUMP JUMPDEST PUSH1 0x40 MLOAD PUSH2 0x370 SWAP2 SWAP1 PUSH2 0x1DF2 JUMP JUMPDEST PUSH1 0x40 MLOAD DUP1 SWAP2 SUB SWAP1 RETURN JUMPDEST PUSH2 0x381 PUSH2 0x1A54 JUMP JUMPDEST STOP JUMPDEST PUSH2 0x38B PUSH2 0x1AF9 JUMP JUMPDEST PUSH1 0x40 MLOAD PUSH2 0x398 SWAP2 SWAP1 PUSH2 0x2154 JUMP JUMPDEST PUSH1 0x40 MLOAD DUP1 SWAP2 SUB SWAP1 RETURN JUMPDEST PUSH1 0x2 PUSH0 SWAP1 SLOAD SWAP1 PUSH2 0x100 EXP SWAP1 DIV PUSH20 0xFFFFFFFFFFFFFFFFFFFFFFFFFFFFFFFFFFFFFFFF AND DUP2 JUMP JUMPDEST PUSH1 0x7 DUP2 DUP2 SLOAD DUP2 LT PUSH2 0x3D5 JUMPI PUSH0 DUP1 REVERT JUMPDEST SWAP1 PUSH0 MSTORE PUSH1 0x20 PUSH0 KECCAK256 SWAP1 PUSH1 0x5 MUL ADD PUSH0 SWAP2 POP SWAP1 POP DUP1 PUSH0 ADD PUSH0 SWAP1 SLOAD SWAP1 PUSH2 0x100 EXP SWAP1 DIV PUSH20 0xFFFFFFFFFFFFFFFFFFFFFFFFFFFFFFFFFFFFFFFF AND SWAP1 DUP1 PUSH1 0x1 ADD SLOAD SWAP1 DUP1 PUSH1 0x2 ADD SLOAD SWAP1 DUP1 PUSH1 0x4 ADD PUSH0 SWAP1 SLOAD SWAP1 PUSH2 0x100 EXP SWAP1 DIV PUSH1 0xFF AND SWAP1 POP DUP5 JUMP JUMPDEST PUSH1 0x1 SLOAD PUSH1 0x2 PUSH0 SWAP1 SLOAD SWAP1 PUSH2 0x100 EXP SWAP1 DIV PUSH20 0xFFFFFFFFFFFFFFFFFFFFFFFFFFFFFFFFFFFFFFFF AND PUSH20 0xFFFFFFFFFFFFFFFFFFFFFFFFFFFFFFFFFFFFFFFF AND PUSH4 0x70A08231 CALLER PUSH1 0x40 MLOAD DUP3 PUSH4 0xFFFFFFFF AND PUSH1 0xE0 SHL DUP2 MSTORE PUSH1 0x4 ADD PUSH2 0x489 SWAP2 SWAP1 PUSH2 0x20E4 JUMP JUMPDEST PUSH1 0x20 PUSH1 0x40 MLOAD DUP1 DUP4 SUB DUP2 DUP7 GAS STATICCALL ISZERO DUP1 ISZERO PUSH2 0x4A4 JUMPI RETURNDATASIZE PUSH0 DUP1 RETURNDATACOPY RETURNDATASIZE PUSH0 REVERT JUMPDEST POP POP POP POP PUSH1 0x40 MLOAD RETURNDATASIZE PUSH1 0x1F NOT PUSH1 0x1F DUP3 ADD AND DUP3 ADD DUP1 PUSH1 0x40 MSTORE POP DUP2 ADD SWAP1 PUSH2 0x4C8 SWAP2 SWAP1 PUSH2 0x2188 JUMP JUMPDEST LT ISZERO PUSH2 0x509 JUMPI PUSH1 0x40 MLOAD PUSH32 0x8C379A000000000000000000000000000000000000000000000000000000000 DUP2 MSTORE PUSH1 0x4 ADD PUSH2 0x500 SWAP1 PUSH2 0x220D JUMP JUMPDEST PUSH1 0x40 MLOAD DUP1 SWAP2 SUB SWAP1 REVERT JUMPDEST PUSH1 0x60 PUSH1 0x7 PUSH1 0x40 MLOAD DUP1 PUSH1 0xA0 ADD PUSH1 0x40 MSTORE DUP1 CALLER PUSH20 0xFFFFFFFFFFFFFFFFFFFFFFFFFFFFFFFFFFFFFFFF AND DUP2 MSTORE PUSH1 0x20 ADD DUP6 DUP2 MSTORE PUSH1 0x20 ADD DUP5 DUP2 MSTORE PUSH1 0x20 ADD DUP4 DUP2 MSTORE PUSH1 0x20 ADD PUSH1 0x1 ISZERO ISZERO DUP2 MSTORE POP SWAP1 DUP1 PUSH1 0x1 DUP2 SLOAD ADD DUP1 DUP3 SSTORE DUP1 SWAP2 POP POP PUSH1 0x1 SWAP1 SUB SWAP1 PUSH0 MSTORE PUSH1 0x20 PUSH0 KECCAK256 SWAP1 PUSH1 0x5 MUL ADD PUSH0 SWAP1 SWAP2 SWAP1 SWAP2 SWAP1 SWAP2 POP PUSH0 DUP3 ADD MLOAD DUP2 PUSH0 ADD PUSH0 PUSH2 0x100 EXP DUP2 SLOAD DUP2 PUSH20 0xFFFFFFFFFFFFFFFFFFFFFFFFFFFFFFFFFFFFFFFF MUL NOT AND SWAP1 DUP4 PUSH20 0xFFFFFFFFFFFFFFFFFFFFFFFFFFFFFFFFFFFFFFFF AND MUL OR SWAP1 SSTORE POP PUSH1 0x20 DUP3 ADD MLOAD DUP2 PUSH1 0x1 ADD SSTORE PUSH1 0x40 DUP3 ADD MLOAD DUP2 PUSH1 0x2 ADD SSTORE PUSH1 0x60 DUP3 ADD MLOAD DUP2 PUSH1 0x3 ADD SWAP1 DUP1 MLOAD SWAP1 PUSH1 0x20 ADD SWAP1 PUSH2 0x5E7 SWAP3 SWAP2 SWAP1 PUSH2 0x1B84 JUMP JUMPDEST POP PUSH1 0x80 DUP3 ADD MLOAD DUP2 PUSH1 0x4 ADD PUSH0 PUSH2 0x100 EXP DUP2 SLOAD DUP2 PUSH1 0xFF MUL NOT AND SWAP1 DUP4 ISZERO ISZERO MUL OR SWAP1 SSTORE POP POP POP PUSH0 PUSH1 0x1 PUSH1 0x7 DUP1 SLOAD SWAP1 POP PUSH2 0x61C SWAP2 SWAP1 PUSH2 0x2258 JUMP JUMPDEST SWAP1 POP PUSH1 0x2 PUSH0 SWAP1 SLOAD SWAP1 PUSH2 0x100 EXP SWAP1 DIV PUSH20 0xFFFFFFFFFFFFFFFFFFFFFFFFFFFFFFFFFFFFFFFF AND PUSH20 0xFFFFFFFFFFFFFFFFFFFFFFFFFFFFFFFFFFFFFFFF AND PUSH4 0x23B872DD CALLER ADDRESS PUSH1 0x1 SLOAD PUSH1 0x40 MLOAD DUP5 PUSH4 0xFFFFFFFF AND PUSH1 0xE0 SHL DUP2 MSTORE PUSH1 0x4 ADD PUSH2 0x67E SWAP4 SWAP3 SWAP2 SWAP1 PUSH2 0x228B JUMP JUMPDEST PUSH1 0x20 PUSH1 0x40 MLOAD DUP1 DUP4 SUB DUP2 PUSH0 DUP8 GAS CALL ISZERO DUP1 ISZERO PUSH2 0x69A JUMPI RETURNDATASIZE PUSH0 DUP1 RETURNDATACOPY RETURNDATASIZE PUSH0 REVERT JUMPDEST POP POP POP POP PUSH1 0x40 MLOAD RETURNDATASIZE PUSH1 0x1F NOT PUSH1 0x1F DUP3 ADD AND DUP3 ADD DUP1 PUSH1 0x40 MSTORE POP DUP2 ADD SWAP1 PUSH2 0x6BE SWAP2 SWAP1 PUSH2 0x22EA JUMP JUMPDEST POP CALLER PUSH20 0xFFFFFFFFFFFFFFFFFFFFFFFFFFFFFFFFFFFFFFFF AND DUP2 PUSH32 0x571A5DFC09C77BBE59E7A00B078FEC1A53F090E992CCACDE1856DAB24624C968 PUSH1 0x1 SLOAD PUSH1 0x40 MLOAD PUSH2 0x708 SWAP2 SWAP1 PUSH2 0x1DF2 JUMP JUMPDEST PUSH1 0x40 MLOAD DUP1 SWAP2 SUB SWAP1 LOG3 POP POP POP POP JUMP JUMPDEST PUSH0 PUSH1 0x60 PUSH1 0x7 PUSH1 0x40 MLOAD DUP1 PUSH1 0xA0 ADD PUSH1 0x40 MSTORE DUP1 CALLER PUSH20 0xFFFFFFFFFFFFFFFFFFFFFFFFFFFFFFFFFFFFFFFF AND DUP2 MSTORE PUSH1 0x20 ADD DUP7 DUP2 MSTORE PUSH1 0x20 ADD DUP6 DUP2 MSTORE PUSH1 0x20 ADD DUP4 DUP2 MSTORE PUSH1 0x20 ADD PUSH0 ISZERO ISZERO DUP2 MSTORE POP SWAP1 DUP1 PUSH1 0x1 DUP2 SLOAD ADD DUP1 DUP3 SSTORE DUP1 SWAP2 POP POP PUSH1 0x1 SWAP1 SUB SWAP1 PUSH0 MSTORE PUSH1 0x20 PUSH0 KECCAK256 SWAP1 PUSH1 0x5 MUL ADD PUSH0 SWAP1 SWAP2 SWAP1 SWAP2 SWAP1 SWAP2 POP PUSH0 DUP3 ADD MLOAD DUP2 PUSH0 ADD PUSH0 PUSH2 0x100 EXP DUP2 SLOAD DUP2 PUSH20 0xFFFFFFFFFFFFFFFFFFFFFFFFFFFFFFFFFFFFFFFF MUL NOT AND SWAP1 DUP4 PUSH20 0xFFFFFFFFFFFFFFFFFFFFFFFFFFFFFFFFFFFFFFFF AND MUL OR SWAP1 SSTORE POP PUSH1 0x20 DUP3 ADD MLOAD DUP2 PUSH1 0x1 ADD SSTORE PUSH1 0x40 DUP3 ADD MLOAD DUP2 PUSH1 0x2 ADD SSTORE PUSH1 0x60 DUP3 ADD MLOAD DUP2 PUSH1 0x3 ADD SWAP1 DUP1 MLOAD SWAP1 PUSH1 0x20 ADD SWAP1 PUSH2 0x7F4 SWAP3 SWAP2 SWAP1 PUSH2 0x1B84 JUMP JUMPDEST POP PUSH1 0x80 DUP3 ADD MLOAD DUP2 PUSH1 0x4 ADD PUSH0 PUSH2 0x100 EXP DUP2 SLOAD DUP2 PUSH1 0xFF MUL NOT AND SWAP1 DUP4 ISZERO ISZERO MUL OR SWAP1 SSTORE POP POP POP PUSH0 PUSH1 0x1 PUSH1 0x7 DUP1 SLOAD SWAP1 POP PUSH2 0x829 SWAP2 SWAP1 PUSH2 0x2258 JUMP JUMPDEST SWAP1 POP DUP5 PUSH1 0x2 PUSH0 SWAP1 SLOAD SWAP1 PUSH2 0x100 EXP SWAP1 DIV PUSH20 0xFFFFFFFFFFFFFFFFFFFFFFFFFFFFFFFFFFFFFFFF AND PUSH20 0xFFFFFFFFFFFFFFFFFFFFFFFFFFFFFFFFFFFFFFFF AND PUSH4 0x70A08231 ADDRESS PUSH1 0x40 MLOAD DUP3 PUSH4 0xFFFFFFFF AND PUSH1 0xE0 SHL DUP2 MSTORE PUSH1 0x4 ADD PUSH2 0x886 SWAP2 SWAP1 PUSH2 0x20E4 JUMP JUMPDEST PUSH1 0x20 PUSH1 0x40 MLOAD DUP1 DUP4 SUB DUP2 DUP7 GAS STATICCALL ISZERO DUP1 ISZERO PUSH2 0x8A1 JUMPI RETURNDATASIZE PUSH0 DUP1 RETURNDATACOPY RETURNDATASIZE PUSH0 REVERT JUMPDEST POP POP POP POP PUSH1 0x40 MLOAD RETURNDATASIZE PUSH1 0x1F NOT PUSH1 0x1F DUP3 ADD AND DUP3 ADD DUP1 PUSH1 0x40 MSTORE POP DUP2 ADD SWAP1 PUSH2 0x8C5 SWAP2 SWAP1 PUSH2 0x2188 JUMP JUMPDEST LT ISZERO PUSH2 0x906 JUMPI PUSH1 0x40 MLOAD PUSH32 0x8C379A000000000000000000000000000000000000000000000000000000000 DUP2 MSTORE PUSH1 0x4 ADD PUSH2 0x8FD SWAP1 PUSH2 0x2385 JUMP JUMPDEST PUSH1 0x40 MLOAD DUP1 SWAP2 SUB SWAP1 REVERT JUMPDEST PUSH1 0x2 PUSH0 SWAP1 SLOAD SWAP1 PUSH2 0x100 EXP SWAP1 DIV PUSH20 0xFFFFFFFFFFFFFFFFFFFFFFFFFFFFFFFFFFFFFFFF AND PUSH20 0xFFFFFFFFFFFFFFFFFFFFFFFFFFFFFFFFFFFFFFFF AND PUSH4 0xA9059CBB CALLER PUSH32 0x0 PUSH1 0x40 MLOAD DUP4 PUSH4 0xFFFFFFFF AND PUSH1 0xE0 SHL DUP2 MSTORE PUSH1 0x4 ADD PUSH2 0x982 SWAP3 SWAP2 SWAP1 PUSH2 0x23A3 JUMP JUMPDEST PUSH1 0x20 PUSH1 0x40 MLOAD DUP1 DUP4 SUB DUP2 PUSH0 DUP8 GAS CALL ISZERO DUP1 ISZERO PUSH2 0x99E JUMPI RETURNDATASIZE PUSH0 DUP1 RETURNDATACOPY RETURNDATASIZE PUSH0 REVERT JUMPDEST POP POP POP POP PUSH1 0x40 MLOAD RETURNDATASIZE PUSH1 0x1F NOT PUSH1 0x1F DUP3 ADD AND DUP3 ADD DUP1 PUSH1 0x40 MSTORE POP DUP2 ADD SWAP1 PUSH2 0x9C2 SWAP2 SWAP1 PUSH2 0x22EA JUMP JUMPDEST POP CALLER PUSH20 0xFFFFFFFFFFFFFFFFFFFFFFFFFFFFFFFFFFFFFFFF AND DUP2 PUSH32 0xF18E92C00977B9CA5951F9775E5CF053C54BDAEC0794874261786EE3E9460EBD DUP8 PUSH1 0x40 MLOAD PUSH2 0xA0A SWAP2 SWAP1 PUSH2 0x1DF2 JUMP JUMPDEST PUSH1 0x40 MLOAD DUP1 SWAP2 SUB SWAP1 LOG3 DUP1 SWAP3 POP POP POP SWAP3 SWAP2 POP POP JUMP JUMPDEST PUSH0 PUSH1 0x7 DUP3 DUP2 SLOAD DUP2 LT PUSH2 0xA32 JUMPI PUSH2 0xA31 PUSH2 0x23CA JUMP JUMPDEST JUMPDEST SWAP1 PUSH0 MSTORE PUSH1 0x20 PUSH0 KECCAK256 SWAP1 PUSH1 0x5 MUL ADD SWAP1 POP DUP1 PUSH1 0x1 ADD SLOAD PUSH1 0x2 PUSH0 SWAP1 SLOAD SWAP1 PUSH2 0x100 EXP SWAP1 DIV PUSH20 0xFFFFFFFFFFFFFFFFFFFFFFFFFFFFFFFFFFFFFFFF AND PUSH20 0xFFFFFFFFFFFFFFFFFFFFFFFFFFFFFFFFFFFFFFFF AND PUSH4 0x70A08231 CALLER PUSH1 0x40 MLOAD DUP3 PUSH4 0xFFFFFFFF AND PUSH1 0xE0 SHL DUP2 MSTORE PUSH1 0x4 ADD PUSH2 0xA9F SWAP2 SWAP1 PUSH2 0x20E4 JUMP JUMPDEST PUSH1 0x20 PUSH1 0x40 MLOAD DUP1 DUP4 SUB DUP2 DUP7 GAS STATICCALL ISZERO DUP1 ISZERO PUSH2 0xABA JUMPI RETURNDATASIZE PUSH0 DUP1 RETURNDATACOPY RETURNDATASIZE PUSH0 REVERT JUMPDEST POP POP POP POP PUSH1 0x40 MLOAD RETURNDATASIZE PUSH1 0x1F NOT PUSH1 0x1F DUP3 ADD AND DUP3 ADD DUP1 PUSH1 0x40 MSTORE POP DUP2 ADD SWAP1 PUSH2 0xADE SWAP2 SWAP1 PUSH2 0x2188 JUMP JUMPDEST LT ISZERO PUSH2 0xB1F JUMPI PUSH1 0x40 MLOAD PUSH32 0x8C379A000000000000000000000000000000000000000000000000000000000 DUP2 MSTORE PUSH1 0x4 ADD PUSH2 0xB16 SWAP1 PUSH2 0x220D JUMP JUMPDEST PUSH1 0x40 MLOAD DUP1 SWAP2 SUB SWAP1 REVERT JUMPDEST DUP1 PUSH0 ADD PUSH0 SWAP1 SLOAD SWAP1 PUSH2 0x100 EXP SWAP1 DIV PUSH20 0xFFFFFFFFFFFFFFFFFFFFFFFFFFFFFFFFFFFFFFFF AND PUSH20 0xFFFFFFFFFFFFFFFFFFFFFFFFFFFFFFFFFFFFFFFF AND CALLER PUSH20 0xFFFFFFFFFFFFFFFFFFFFFFFFFFFFFFFFFFFFFFFF AND SUB PUSH2 0xBAF JUMPI PUSH1 0x40 MLOAD PUSH32 0x8C379A000000000000000000000000000000000000000000000000000000000 DUP2 MSTORE PUSH1 0x4 ADD PUSH2 0xBA6 SWAP1 PUSH2 0x2441 JUMP JUMPDEST PUSH1 0x40 MLOAD DUP1 SWAP2 SUB SWAP1 REVERT JUMPDEST PUSH1 0x2 PUSH0 SWAP1 SLOAD SWAP1 PUSH2 0x100 EXP SWAP1 DIV PUSH20 0xFFFFFFFFFFFFFFFFFFFFFFFFFFFFFFFFFFFFFFFF AND PUSH20 0xFFFFFFFFFFFFFFFFFFFFFFFFFFFFFFFFFFFFFFFF AND PUSH4 0x95EA7B3 ADDRESS DUP4 PUSH1 0x1 ADD SLOAD PUSH1 0x40 MLOAD DUP4 PUSH4 0xFFFFFFFF AND PUSH1 0xE0 SHL DUP2 MSTORE PUSH1 0x4 ADD PUSH2 0xC0F SWAP3 SWAP2 SWAP1 PUSH2 0x23A3 JUMP JUMPDEST PUSH1 0x20 PUSH1 0x40 MLOAD DUP1 DUP4 SUB DUP2 PUSH0 DUP8 GAS CALL ISZERO DUP1 ISZERO PUSH2 0xC2B JUMPI RETURNDATASIZE PUSH0 DUP1 RETURNDATACOPY RETURNDATASIZE PUSH0 REVERT JUMPDEST POP POP POP POP PUSH1 0x40 MLOAD RETURNDATASIZE PUSH1 0x1F NOT PUSH1 0x1F DUP3 ADD AND DUP3 ADD DUP1 PUSH1 0x40 MSTORE POP DUP2 ADD SWAP1 PUSH2 0xC4F SWAP2 SWAP1 PUSH2 0x22EA JUMP JUMPDEST POP PUSH1 0x2 PUSH0 SWAP1 SLOAD SWAP1 PUSH2 0x100 EXP SWAP1 DIV PUSH20 0xFFFFFFFFFFFFFFFFFFFFFFFFFFFFFFFFFFFFFFFF AND PUSH20 0xFFFFFFFFFFFFFFFFFFFFFFFFFFFFFFFFFFFFFFFF AND PUSH4 0x23B872DD CALLER DUP4 PUSH0 ADD PUSH0 SWAP1 SLOAD SWAP1 PUSH2 0x100 EXP SWAP1 DIV PUSH20 0xFFFFFFFFFFFFFFFFFFFFFFFFFFFFFFFFFFFFFFFF AND DUP5 PUSH1 0x1 ADD SLOAD PUSH1 0x40 MLOAD DUP5 PUSH4 0xFFFFFFFF AND PUSH1 0xE0 SHL DUP2 MSTORE PUSH1 0x4 ADD PUSH2 0xCD4 SWAP4 SWAP3 SWAP2 SWAP1 PUSH2 0x228B JUMP JUMPDEST PUSH1 0x20 PUSH1 0x40 MLOAD DUP1 DUP4 SUB DUP2 PUSH0 DUP8 GAS CALL ISZERO DUP1 ISZERO PUSH2 0xCF0 JUMPI RETURNDATASIZE PUSH0 DUP1 RETURNDATACOPY RETURNDATASIZE PUSH0 REVERT JUMPDEST POP POP POP POP PUSH1 0x40 MLOAD RETURNDATASIZE PUSH1 0x1F NOT PUSH1 0x1F DUP3 ADD AND DUP3 ADD DUP1 PUSH1 0x40 MSTORE POP DUP2 ADD SWAP1 PUSH2 0xD14 SWAP2 SWAP1 PUSH2 0x22EA JUMP JUMPDEST POP CALLER PUSH20 0xFFFFFFFFFFFFFFFFFFFFFFFFFFFFFFFFFFFFFFFF AND DUP3 PUSH32 0x313D5C7BF54E15A1B7DC24A51B097C6458663A33E7A4BE386F80FEA411DCDA65 DUP4 PUSH1 0x1 ADD SLOAD PUSH1 0x40 MLOAD PUSH2 0xD60 SWAP2 SWAP1 PUSH2 0x1DF2 JUMP JUMPDEST PUSH1 0x40 MLOAD DUP1 SWAP2 SUB SWAP1 LOG3 POP POP JUMP JUMPDEST PUSH1 0x60 DUP1 PUSH1 0x60 DUP1 PUSH0 PUSH1 0x7 DUP1 SLOAD SWAP1 POP SWAP1 POP DUP1 PUSH8 0xFFFFFFFFFFFFFFFF DUP2 GT ISZERO PUSH2 0xD95 JUMPI PUSH2 0xD94 PUSH2 0x245F JUMP JUMPDEST JUMPDEST PUSH1 0x40 MLOAD SWAP1 DUP1 DUP3 MSTORE DUP1 PUSH1 0x20 MUL PUSH1 0x20 ADD DUP3 ADD PUSH1 0x40 MSTORE DUP1 ISZERO PUSH2 0xDC3 JUMPI DUP2 PUSH1 0x20 ADD PUSH1 0x20 DUP3 MUL DUP1 CALLDATASIZE DUP4 CALLDATACOPY DUP1 DUP3 ADD SWAP2 POP POP SWAP1 POP JUMPDEST POP SWAP5 POP DUP1 PUSH8 0xFFFFFFFFFFFFFFFF DUP2 GT ISZERO PUSH2 0xDE0 JUMPI PUSH2 0xDDF PUSH2 0x245F JUMP JUMPDEST JUMPDEST PUSH1 0x40 MLOAD SWAP1 DUP1 DUP3 MSTORE DUP1 PUSH1 0x20 MUL PUSH1 0x20 ADD DUP3 ADD PUSH1 0x40 MSTORE DUP1 ISZERO PUSH2 0xE0E JUMPI DUP2 PUSH1 0x20 ADD PUSH1 0x20 DUP3 MUL DUP1 CALLDATASIZE DUP4 CALLDATACOPY DUP1 DUP3 ADD SWAP2 POP POP SWAP1 POP JUMPDEST POP SWAP4 POP DUP1 PUSH8 0xFFFFFFFFFFFFFFFF DUP2 GT ISZERO PUSH2 0xE2B JUMPI PUSH2 0xE2A PUSH2 0x245F JUMP JUMPDEST JUMPDEST PUSH1 0x40 MLOAD SWAP1 DUP1 DUP3 MSTORE DUP1 PUSH1 0x20 MUL PUSH1 0x20 ADD DUP3 ADD PUSH1 0x40 MSTORE DUP1 ISZERO PUSH2 0xE59 JUMPI DUP2 PUSH1 0x20 ADD PUSH1 0x20 DUP3 MUL DUP1 CALLDATASIZE DUP4 CALLDATACOPY DUP1 DUP3 ADD SWAP2 POP POP SWAP1 POP JUMPDEST POP SWAP3 POP DUP1 PUSH8 0xFFFFFFFFFFFFFFFF DUP2 GT ISZERO PUSH2 0xE76 JUMPI PUSH2 0xE75 PUSH2 0x245F JUMP JUMPDEST JUMPDEST PUSH1 0x40 MLOAD SWAP1 DUP1 DUP3 MSTORE DUP1 PUSH1 0x20 MUL PUSH1 0x20 ADD DUP3 ADD PUSH1 0x40 MSTORE DUP1 ISZERO PUSH2 0xEA4 JUMPI DUP2 PUSH1 0x20 ADD PUSH1 0x20 DUP3 MUL DUP1 CALLDATASIZE DUP4 CALLDATACOPY DUP1 DUP3 ADD SWAP2 POP POP SWAP1 POP JUMPDEST POP SWAP2 POP PUSH0 JUMPDEST DUP2 DUP2 LT ISZERO PUSH2 0xFD0 JUMPI PUSH0 PUSH1 0x7 DUP3 DUP2 SLOAD DUP2 LT PUSH2 0xEC6 JUMPI PUSH2 0xEC5 PUSH2 0x23CA JUMP JUMPDEST JUMPDEST SWAP1 PUSH0 MSTORE PUSH1 0x20 PUSH0 KECCAK256 SWAP1 PUSH1 0x5 MUL ADD SWAP1 POP DUP1 PUSH0 ADD PUSH0 SWAP1 SLOAD SWAP1 PUSH2 0x100 EXP SWAP1 DIV PUSH20 0xFFFFFFFFFFFFFFFFFFFFFFFFFFFFFFFFFFFFFFFF AND DUP8 DUP4 DUP2 MLOAD DUP2 LT PUSH2 0xF0A JUMPI PUSH2 0xF09 PUSH2 0x23CA JUMP JUMPDEST JUMPDEST PUSH1 0x20 MUL PUSH1 0x20 ADD ADD SWAP1 PUSH20 0xFFFFFFFFFFFFFFFFFFFFFFFFFFFFFFFFFFFFFFFF AND SWAP1 DUP2 PUSH20 0xFFFFFFFFFFFFFFFFFFFFFFFFFFFFFFFFFFFFFFFF AND DUP2 MSTORE POP POP DUP1 PUSH1 0x1 ADD SLOAD DUP7 DUP4 DUP2 MLOAD DUP2 LT PUSH2 0xF5C JUMPI PUSH2 0xF5B PUSH2 0x23CA JUMP JUMPDEST JUMPDEST PUSH1 0x20 MUL PUSH1 0x20 ADD ADD DUP2 DUP2 MSTORE POP POP DUP1 PUSH1 0x2 ADD SLOAD DUP6 DUP4 DUP2 MLOAD DUP2 LT PUSH2 0xF80 JUMPI PUSH2 0xF7F PUSH2 0x23CA JUMP JUMPDEST JUMPDEST PUSH1 0x20 MUL PUSH1 0x20 ADD ADD DUP2 DUP2 MSTORE POP POP DUP1 PUSH1 0x4 ADD PUSH0 SWAP1 SLOAD SWAP1 PUSH2 0x100 EXP SWAP1 DIV PUSH1 0xFF AND DUP5 DUP4 DUP2 MLOAD DUP2 LT PUSH2 0xFB0 JUMPI PUSH2 0xFAF PUSH2 0x23CA JUMP JUMPDEST JUMPDEST PUSH1 0x20 MUL PUSH1 0x20 ADD ADD SWAP1 ISZERO ISZERO SWAP1 DUP2 ISZERO ISZERO DUP2 MSTORE POP POP POP DUP1 DUP1 PUSH1 0x1 ADD SWAP2 POP POP PUSH2 0xEA9 JUMP JUMPDEST POP POP SWAP1 SWAP2 SWAP3 SWAP4 JUMP JUMPDEST PUSH1 0x5 PUSH1 0x20 MSTORE DUP1 PUSH0 MSTORE PUSH1 0x40 PUSH0 KECCAK256 PUSH0 SWAP2 POP SWAP1 POP SLOAD DUP2 JUMP JUMPDEST PUSH1 0x4 DUP2 DUP2 SLOAD DUP2 LT PUSH2 0xFFC JUMPI PUSH0 DUP1 REVERT JUMPDEST SWAP1 PUSH0 MSTORE PUSH1 0x20 PUSH0 KECCAK256 ADD PUSH0 SWAP2 POP SLOAD SWAP1 PUSH2 0x100 EXP SWAP1 DIV PUSH20 0xFFFFFFFFFFFFFFFFFFFFFFFFFFFFFFFFFFFFFFFF AND DUP2 JUMP JUMPDEST PUSH0 PUSH1 0x2 PUSH0 SWAP1 SLOAD SWAP1 PUSH2 0x100 EXP SWAP1 DIV PUSH20 0xFFFFFFFFFFFFFFFFFFFFFFFFFFFFFFFFFFFFFFFF AND PUSH20 0xFFFFFFFFFFFFFFFFFFFFFFFFFFFFFFFFFFFFFFFF AND PUSH4 0x70A08231 DUP4 PUSH1 0x40 MLOAD DUP3 PUSH4 0xFFFFFFFF AND PUSH1 0xE0 SHL DUP2 MSTORE PUSH1 0x4 ADD PUSH2 0x1083 SWAP2 SWAP1 PUSH2 0x20E4 JUMP JUMPDEST PUSH1 0x20 PUSH1 0x40 MLOAD DUP1 DUP4 SUB DUP2 DUP7 GAS STATICCALL ISZERO DUP1 ISZERO PUSH2 0x109E JUMPI RETURNDATASIZE PUSH0 DUP1 RETURNDATACOPY RETURNDATASIZE PUSH0 REVERT JUMPDEST POP POP POP POP PUSH1 0x40 MLOAD RETURNDATASIZE PUSH1 0x1F NOT PUSH1 0x1F DUP3 ADD AND DUP3 ADD DUP1 PUSH1 0x40 MSTORE POP DUP2 ADD SWAP1 PUSH2 0x10C2 SWAP2 SWAP1 PUSH2 0x2188 JUMP JUMPDEST SWAP1 POP SWAP2 SWAP1 POP JUMP JUMPDEST PUSH1 0x1 SLOAD DUP2 JUMP JUMPDEST PUSH0 DUP1 PUSH0 SWAP1 SLOAD SWAP1 PUSH2 0x100 EXP SWAP1 DIV PUSH20 0xFFFFFFFFFFFFFFFFFFFFFFFFFFFFFFFFFFFFFFFF AND SWAP1 POP SWAP1 JUMP JUMPDEST PUSH0 PUSH1 0x14 SWAP1 SLOAD SWAP1 PUSH2 0x100 EXP SWAP1 DIV PUSH1 0xFF AND DUP2 JUMP JUMPDEST PUSH0 PUSH1 0x7 DUP3 DUP2 SLOAD DUP2 LT PUSH2 0x111D JUMPI PUSH2 0x111C PUSH2 0x23CA JUMP JUMPDEST JUMPDEST SWAP1 PUSH0 MSTORE PUSH1 0x20 PUSH0 KECCAK256 SWAP1 PUSH1 0x5 MUL ADD SWAP1 POP DUP1 PUSH1 0x4 ADD PUSH0 SWAP1 SLOAD SWAP1 PUSH2 0x100 EXP SWAP1 DIV PUSH1 0xFF AND ISZERO PUSH2 0x117C JUMPI PUSH1 0x40 MLOAD PUSH32 0x8C379A000000000000000000000000000000000000000000000000000000000 DUP2 MSTORE PUSH1 0x4 ADD PUSH2 0x1173 SWAP1 PUSH2 0x24D6 JUMP JUMPDEST PUSH1 0x40 MLOAD DUP1 SWAP2 SUB SWAP1 REVERT JUMPDEST PUSH0 DUP1 JUMPDEST PUSH1 0x4 DUP1 SLOAD SWAP1 POP DUP2 LT ISZERO PUSH2 0x1210 JUMPI CALLER PUSH20 0xFFFFFFFFFFFFFFFFFFFFFFFFFFFFFFFFFFFFFFFF AND PUSH1 0x4 DUP3 DUP2 SLOAD DUP2 LT PUSH2 0x11B7 JUMPI PUSH2 0x11B6 PUSH2 0x23CA JUMP JUMPDEST JUMPDEST SWAP1 PUSH0 MSTORE PUSH1 0x20 PUSH0 KECCAK256 ADD PUSH0 SWAP1 SLOAD SWAP1 PUSH2 0x100 EXP SWAP1 DIV PUSH20 0xFFFFFFFFFFFFFFFFFFFFFFFFFFFFFFFFFFFFFFFF AND PUSH20 0xFFFFFFFFFFFFFFFFFFFFFFFFFFFFFFFFFFFFFFFF AND SUB PUSH2 0x1203 JUMPI PUSH1 0x1 SWAP2 POP PUSH2 0x1210 JUMP JUMPDEST DUP1 DUP1 PUSH1 0x1 ADD SWAP2 POP POP PUSH2 0x117F JUMP JUMPDEST POP DUP1 PUSH2 0x1251 JUMPI PUSH1 0x40 MLOAD PUSH32 0x8C379A000000000000000000000000000000000000000000000000000000000 DUP2 MSTORE PUSH1 0x4 ADD PUSH2 0x1248 SWAP1 PUSH2 0x2564 JUMP JUMPDEST PUSH1 0x40 MLOAD DUP1 SWAP2 SUB SWAP1 REVERT JUMPDEST DUP2 PUSH0 ADD PUSH0 SWAP1 SLOAD SWAP1 PUSH2 0x100 EXP SWAP1 DIV PUSH20 0xFFFFFFFFFFFFFFFFFFFFFFFFFFFFFFFFFFFFFFFF AND PUSH20 0xFFFFFFFFFFFFFFFFFFFFFFFFFFFFFFFFFFFFFFFF AND CALLER PUSH20 0xFFFFFFFFFFFFFFFFFFFFFFFFFFFFFFFFFFFFFFFF AND SUB PUSH2 0x12E1 JUMPI PUSH1 0x40 MLOAD PUSH32 0x8C379A000000000000000000000000000000000000000000000000000000000 DUP2 MSTORE PUSH1 0x4 ADD PUSH2 0x12D8 SWAP1 PUSH2 0x25CC JUMP JUMPDEST PUSH1 0x40 MLOAD DUP1 SWAP2 SUB SWAP1 REVERT JUMPDEST DUP2 PUSH1 0x3 ADD CALLER SWAP1 DUP1 PUSH1 0x1 DUP2 SLOAD ADD DUP1 DUP3 SSTORE DUP1 SWAP2 POP POP PUSH1 0x1 SWAP1 SUB SWAP1 PUSH0 MSTORE PUSH1 0x20 PUSH0 KECCAK256 ADD PUSH0 SWAP1 SWAP2 SWAP1 SWAP2 SWAP1 SWAP2 PUSH2 0x100 EXP DUP2 SLOAD DUP2 PUSH20 0xFFFFFFFFFFFFFFFFFFFFFFFFFFFFFFFFFFFFFFFF MUL NOT AND SWAP1 DUP4 PUSH20 0xFFFFFFFFFFFFFFFFFFFFFFFFFFFFFFFFFFFFFFFF AND MUL OR SWAP1 SSTORE POP PUSH1 0x2 PUSH0 SWAP1 SLOAD SWAP1 PUSH2 0x100 EXP SWAP1 DIV PUSH20 0xFFFFFFFFFFFFFFFFFFFFFFFFFFFFFFFFFFFFFFFF AND PUSH20 0xFFFFFFFFFFFFFFFFFFFFFFFFFFFFFFFFFFFFFFFF AND PUSH4 0xA9059CBB CALLER DUP5 PUSH1 0x2 ADD SLOAD PUSH1 0x40 MLOAD DUP4 PUSH4 0xFFFFFFFF AND PUSH1 0xE0 SHL DUP2 MSTORE PUSH1 0x4 ADD PUSH2 0x13A3 SWAP3 SWAP2 SWAP1 PUSH2 0x23A3 JUMP JUMPDEST PUSH1 0x20 PUSH1 0x40 MLOAD DUP1 DUP4 SUB DUP2 PUSH0 DUP8 GAS CALL ISZERO DUP1 ISZERO PUSH2 0x13BF JUMPI RETURNDATASIZE PUSH0 DUP1 RETURNDATACOPY RETURNDATASIZE PUSH0 REVERT JUMPDEST POP POP POP POP PUSH1 0x40 MLOAD RETURNDATASIZE PUSH1 0x1F NOT PUSH1 0x1F DUP3 ADD AND DUP3 ADD DUP1 PUSH1 0x40 MSTORE POP DUP2 ADD SWAP1 PUSH2 0x13E3 SWAP2 SWAP1 PUSH2 0x22EA JUMP JUMPDEST POP PUSH1 0x1 DUP3 PUSH1 0x4 ADD PUSH0 PUSH2 0x100 EXP DUP2 SLOAD DUP2 PUSH1 0xFF MUL NOT AND SWAP1 DUP4 ISZERO ISZERO MUL OR SWAP1 SSTORE POP DUP2 PUSH1 0x2 ADD SLOAD PUSH1 0x2 PUSH0 SWAP1 SLOAD SWAP1 PUSH2 0x100 EXP SWAP1 DIV PUSH20 0xFFFFFFFFFFFFFFFFFFFFFFFFFFFFFFFFFFFFFFFF AND PUSH20 0xFFFFFFFFFFFFFFFFFFFFFFFFFFFFFFFFFFFFFFFF AND PUSH4 0x70A08231 ADDRESS PUSH1 0x40 MLOAD DUP3 PUSH4 0xFFFFFFFF AND PUSH1 0xE0 SHL DUP2 MSTORE PUSH1 0x4 ADD PUSH2 0x145F SWAP2 SWAP1 PUSH2 0x20E4 JUMP JUMPDEST PUSH1 0x20 PUSH1 0x40 MLOAD DUP1 DUP4 SUB DUP2 DUP7 GAS STATICCALL ISZERO DUP1 ISZERO PUSH2 0x147A JUMPI RETURNDATASIZE PUSH0 DUP1 RETURNDATACOPY RETURNDATASIZE PUSH0 REVERT JUMPDEST POP POP POP POP PUSH1 0x40 MLOAD RETURNDATASIZE PUSH1 0x1F NOT PUSH1 0x1F DUP3 ADD AND DUP3 ADD DUP1 PUSH1 0x40 MSTORE POP DUP2 ADD SWAP1 PUSH2 0x149E SWAP2 SWAP1 PUSH2 0x2188 JUMP JUMPDEST LT ISZERO PUSH2 0x14DF JUMPI PUSH1 0x40 MLOAD PUSH32 0x8C379A000000000000000000000000000000000000000000000000000000000 DUP2 MSTORE PUSH1 0x4 ADD PUSH2 0x14D6 SWAP1 PUSH2 0x2634 JUMP JUMPDEST PUSH1 0x40 MLOAD DUP1 SWAP2 SUB SWAP1 REVERT JUMPDEST PUSH1 0x2 PUSH0 SWAP1 SLOAD SWAP1 PUSH2 0x100 EXP SWAP1 DIV PUSH20 0xFFFFFFFFFFFFFFFFFFFFFFFFFFFFFFFFFFFFFFFF AND PUSH20 0xFFFFFFFFFFFFFFFFFFFFFFFFFFFFFFFFFFFFFFFF AND PUSH4 0xA9059CBB CALLER DUP5 PUSH1 0x2 ADD SLOAD PUSH1 0x40 MLOAD DUP4 PUSH4 0xFFFFFFFF AND PUSH1 0xE0 SHL DUP2 MSTORE PUSH1 0x4 ADD PUSH2 0x153F SWAP3 SWAP2 SWAP1 PUSH2 0x23A3 JUMP JUMPDEST PUSH1 0x20 PUSH1 0x40 MLOAD DUP1 DUP4 SUB DUP2 PUSH0 DUP8 GAS CALL ISZERO DUP1 ISZERO PUSH2 0x155B JUMPI RETURNDATASIZE PUSH0 DUP1 RETURNDATACOPY RETURNDATASIZE PUSH0 REVERT JUMPDEST POP POP POP POP PUSH1 0x40 MLOAD RETURNDATASIZE PUSH1 0x1F NOT PUSH1 0x1F DUP3 ADD AND DUP3 ADD DUP1 PUSH1 0x40 MSTORE POP DUP2 ADD SWAP1 PUSH2 0x157F SWAP2 SWAP1 PUSH2 0x22EA JUMP JUMPDEST POP CALLER PUSH20 0xFFFFFFFFFFFFFFFFFFFFFFFFFFFFFFFFFFFFFFFF AND DUP4 PUSH32 0x1DC73A35285FDA24D55673E615930AD58EAB11F47D6838526FFBD7D2C1847AF4 DUP5 PUSH1 0x2 ADD SLOAD PUSH1 0x40 MLOAD PUSH2 0x15CB SWAP2 SWAP1 PUSH2 0x1DF2 JUMP JUMPDEST PUSH1 0x40 MLOAD DUP1 SWAP2 SUB SWAP1 LOG3 POP POP POP JUMP JUMPDEST PUSH1 0x3 PUSH0 SWAP1 SLOAD SWAP1 PUSH2 0x100 EXP SWAP1 DIV PUSH20 0xFFFFFFFFFFFFFFFFFFFFFFFFFFFFFFFFFFFFFFFF AND DUP2 JUMP JUMPDEST CALLER PUSH20 0xFFFFFFFFFFFFFFFFFFFFFFFFFFFFFFFFFFFFFFFF AND PUSH2 0x161C PUSH2 0x10CF JUMP JUMPDEST PUSH20 0xFFFFFFFFFFFFFFFFFFFFFFFFFFFFFFFFFFFFFFFF AND EQ PUSH2 0x1672 JUMPI PUSH1 0x40 MLOAD PUSH32 0x8C379A000000000000000000000000000000000000000000000000000000000 DUP2 MSTORE PUSH1 0x4 ADD PUSH2 0x1669 SWAP1 PUSH2 0x269C JUMP JUMPDEST PUSH1 0x40 MLOAD DUP1 SWAP2 SUB SWAP1 REVERT JUMPDEST PUSH0 PUSH1 0x14 SWAP1 SLOAD SWAP1 PUSH2 0x100 EXP SWAP1 DIV PUSH1 0xFF AND ISZERO PUSH2 0x16C1 JUMPI PUSH1 0x40 MLOAD PUSH32 0x8C379A000000000000000000000000000000000000000000000000000000000 DUP2 MSTORE PUSH1 0x4 ADD PUSH2 0x16B8 SWAP1 PUSH2 0x272A JUMP JUMPDEST PUSH1 0x40 MLOAD DUP1 SWAP2 SUB SWAP1 REVERT JUMPDEST PUSH0 PUSH32 0x0 PUSH1 0x40 MLOAD PUSH2 0x16EF SWAP1 PUSH2 0x1C0B JUMP JUMPDEST PUSH2 0x16F9 SWAP2 SWAP1 PUSH2 0x1DF2 JUMP JUMPDEST PUSH1 0x40 MLOAD DUP1 SWAP2 SUB SWAP1 PUSH0 CREATE DUP1 ISZERO DUP1 ISZERO PUSH2 0x1712 JUMPI RETURNDATASIZE PUSH0 DUP1 RETURNDATACOPY RETURNDATASIZE PUSH0 REVERT JUMPDEST POP SWAP1 POP DUP1 PUSH1 0x3 PUSH0 PUSH2 0x100 EXP DUP2 SLOAD DUP2 PUSH20 0xFFFFFFFFFFFFFFFFFFFFFFFFFFFFFFFFFFFFFFFF MUL NOT AND SWAP1 DUP4 PUSH20 0xFFFFFFFFFFFFFFFFFFFFFFFFFFFFFFFFFFFFFFFF AND MUL OR SWAP1 SSTORE POP PUSH1 0x3 PUSH0 SWAP1 SLOAD SWAP1 PUSH2 0x100 EXP SWAP1 DIV PUSH20 0xFFFFFFFFFFFFFFFFFFFFFFFFFFFFFFFFFFFFFFFF AND PUSH1 0x2 PUSH0 PUSH2 0x100 EXP DUP2 SLOAD DUP2 PUSH20 0xFFFFFFFFFFFFFFFFFFFFFFFFFFFFFFFFFFFFFFFF MUL NOT AND SWAP1 DUP4 PUSH20 0xFFFFFFFFFFFFFFFFFFFFFFFFFFFFFFFFFFFFFFFF AND MUL OR SWAP1 SSTORE POP PUSH1 0x2 PUSH0 SWAP1 SLOAD SWAP1 PUSH2 0x100 EXP SWAP1 DIV PUSH20 0xFFFFFFFFFFFFFFFFFFFFFFFFFFFFFFFFFFFFFFFF AND PUSH20 0xFFFFFFFFFFFFFFFFFFFFFFFFFFFFFFFFFFFFFFFF AND PUSH4 0xA9059CBB ADDRESS PUSH9 0x56BC75E2D63100000 PUSH1 0x40 MLOAD DUP4 PUSH4 0xFFFFFFFF AND PUSH1 0xE0 SHL DUP2 MSTORE PUSH1 0x4 ADD PUSH2 0x181B SWAP3 SWAP2 SWAP1 PUSH2 0x2781 JUMP JUMPDEST PUSH1 0x20 PUSH1 0x40 MLOAD DUP1 DUP4 SUB DUP2 PUSH0 DUP8 GAS CALL ISZERO DUP1 ISZERO PUSH2 0x1837 JUMPI RETURNDATASIZE PUSH0 DUP1 RETURNDATACOPY RETURNDATASIZE PUSH0 REVERT JUMPDEST POP POP POP POP PUSH1 0x40 MLOAD RETURNDATASIZE PUSH1 0x1F NOT PUSH1 0x1F DUP3 ADD AND DUP3 ADD DUP1 PUSH1 0x40 MSTORE POP DUP2 ADD SWAP1 PUSH2 0x185B SWAP2 SWAP1 PUSH2 0x22EA JUMP JUMPDEST POP PUSH1 0x2 PUSH0 SWAP1 SLOAD SWAP1 PUSH2 0x100 EXP SWAP1 DIV PUSH20 0xFFFFFFFFFFFFFFFFFFFFFFFFFFFFFFFFFFFFFFFF AND PUSH20 0xFFFFFFFFFFFFFFFFFFFFFFFFFFFFFFFFFFFFFFFF AND PUSH4 0x18160DDD PUSH1 0x40 MLOAD DUP2 PUSH4 0xFFFFFFFF AND PUSH1 0xE0 SHL DUP2 MSTORE PUSH1 0x4 ADD PUSH1 0x20 PUSH1 0x40 MLOAD DUP1 DUP4 SUB DUP2 DUP7 GAS STATICCALL ISZERO DUP1 ISZERO PUSH2 0x18C6 JUMPI RETURNDATASIZE PUSH0 DUP1 RETURNDATACOPY RETURNDATASIZE PUSH0 REVERT JUMPDEST POP POP POP POP PUSH1 0x40 MLOAD RETURNDATASIZE PUSH1 0x1F NOT PUSH1 0x1F DUP3 ADD AND DUP3 ADD DUP1 PUSH1 0x40 MSTORE POP DUP2 ADD SWAP1 PUSH2 0x18EA SWAP2 SWAP1 PUSH2 0x2188 JUMP JUMPDEST PUSH1 0x5 PUSH0 ADDRESS PUSH20 0xFFFFFFFFFFFFFFFFFFFFFFFFFFFFFFFFFFFFFFFF AND PUSH20 0xFFFFFFFFFFFFFFFFFFFFFFFFFFFFFFFFFFFFFFFF AND DUP2 MSTORE PUSH1 0x20 ADD SWAP1 DUP2 MSTORE PUSH1 0x20 ADD PUSH0 KECCAK256 DUP2 SWAP1 SSTORE POP PUSH1 0x1 PUSH0 PUSH1 0x14 PUSH2 0x100 EXP DUP2 SLOAD DUP2 PUSH1 0xFF MUL NOT AND SWAP1 DUP4 ISZERO ISZERO MUL OR SWAP1 SSTORE POP PUSH32 0x5A328B2A6CA99D3F214E0A041DCD254E948AA9A2E1B8B97233531B6A1D1872C9 PUSH1 0x3 PUSH0 SWAP1 SLOAD SWAP1 PUSH2 0x100 EXP SWAP1 DIV PUSH20 0xFFFFFFFFFFFFFFFFFFFFFFFFFFFFFFFFFFFFFFFF AND PUSH1 0x40 MLOAD PUSH2 0x1995 SWAP2 SWAP1 PUSH2 0x20E4 JUMP JUMPDEST PUSH1 0x40 MLOAD DUP1 SWAP2 SUB SWAP1 LOG1 POP JUMP JUMPDEST PUSH1 0x6 PUSH1 0x20 MSTORE DUP2 PUSH0 MSTORE PUSH1 0x40 PUSH0 KECCAK256 PUSH1 0x20 MSTORE DUP1 PUSH0 MSTORE PUSH1 0x40 PUSH0 KECCAK256 PUSH0 SWAP2 POP SWAP2 POP POP SLOAD DUP2 JUMP JUMPDEST PUSH0 PUSH1 0x2 PUSH0 SWAP1 SLOAD SWAP1 PUSH2 0x100 EXP SWAP1 DIV PUSH20 0xFFFFFFFFFFFFFFFFFFFFFFFFFFFFFFFFFFFFFFFF AND PUSH20 0xFFFFFFFFFFFFFFFFFFFFFFFFFFFFFFFFFFFFFFFF AND PUSH4 0x18160DDD PUSH1 0x40 MLOAD DUP2 PUSH4 0xFFFFFFFF AND PUSH1 0xE0 SHL DUP2 MSTORE PUSH1 0x4 ADD PUSH1 0x20 PUSH1 0x40 MLOAD DUP1 DUP4 SUB DUP2 DUP7 GAS STATICCALL ISZERO DUP1 ISZERO PUSH2 0x1A2B JUMPI RETURNDATASIZE PUSH0 DUP1 RETURNDATACOPY RETURNDATASIZE PUSH0 REVERT JUMPDEST POP POP POP POP PUSH1 0x40 MLOAD RETURNDATASIZE PUSH1 0x1F NOT PUSH1 0x1F DUP3 ADD AND DUP3 ADD DUP1 PUSH1 0x40 MSTORE POP DUP2 ADD SWAP1 PUSH2 0x1A4F SWAP2 SWAP1 PUSH2 0x2188 JUMP JUMPDEST SWAP1 POP SWAP1 JUMP JUMPDEST PUSH1 0x4 CALLER SWAP1 DUP1 PUSH1 0x1 DUP2 SLOAD ADD DUP1 DUP3 SSTORE DUP1 SWAP2 POP POP PUSH1 0x1 SWAP1 SUB SWAP1 PUSH0 MSTORE PUSH1 0x20 PUSH0 KECCAK256 ADD PUSH0 SWAP1 SWAP2 SWAP1 SWAP2 SWAP1 SWAP2 PUSH2 0x100 EXP DUP2 SLOAD DUP2 PUSH20 0xFFFFFFFFFFFFFFFFFFFFFFFFFFFFFFFFFFFFFFFF MUL NOT AND SWAP1 DUP4 PUSH20 0xFFFFFFFFFFFFFFFFFFFFFFFFFFFFFFFFFFFFFFFF AND MUL OR SWAP1 SSTORE POP CALLER PUSH20 0xFFFFFFFFFFFFFFFFFFFFFFFFFFFFFFFFFFFFFFFF AND PUSH32 0xD09501348473474A20C772C79C653E1FD7E8B437E418FE235D277D2C88853251 PUSH1 0x40 MLOAD PUSH1 0x40 MLOAD DUP1 SWAP2 SUB SWAP1 LOG2 JUMP JUMPDEST PUSH1 0x60 PUSH1 0x4 DUP1 SLOAD DUP1 PUSH1 0x20 MUL PUSH1 0x20 ADD PUSH1 0x40 MLOAD SWAP1 DUP2 ADD PUSH1 0x40 MSTORE DUP1 SWAP3 SWAP2 SWAP1 DUP2 DUP2 MSTORE PUSH1 0x20 ADD DUP3 DUP1 SLOAD DUP1 ISZERO PUSH2 0x1B7A JUMPI PUSH1 0x20 MUL DUP3 ADD SWAP2 SWAP1 PUSH0 MSTORE PUSH1 0x20 PUSH0 KECCAK256 SWAP1 JUMPDEST DUP2 PUSH0 SWAP1 SLOAD SWAP1 PUSH2 0x100 EXP SWAP1 DIV PUSH20 0xFFFFFFFFFFFFFFFFFFFFFFFFFFFFFFFFFFFFFFFF AND PUSH20 0xFFFFFFFFFFFFFFFFFFFFFFFFFFFFFFFFFFFFFFFF AND DUP2 MSTORE PUSH1 0x20 ADD SWAP1 PUSH1 0x1 ADD SWAP1 DUP1 DUP4 GT PUSH2 0x1B31 JUMPI JUMPDEST POP POP POP POP POP SWAP1 POP SWAP1 JUMP JUMPDEST DUP3 DUP1 SLOAD DUP3 DUP3 SSTORE SWAP1 PUSH0 MSTORE PUSH1 0x20 PUSH0 KECCAK256 SWAP1 DUP2 ADD SWAP3 DUP3 ISZERO PUSH2 0x1BFA JUMPI SWAP2 PUSH1 0x20 MUL DUP3 ADD JUMPDEST DUP3 DUP2 GT ISZERO PUSH2 0x1BF9 JUMPI DUP3 MLOAD DUP3 PUSH0 PUSH2 0x100 EXP DUP2 SLOAD DUP2 PUSH20 0xFFFFFFFFFFFFFFFFFFFFFFFFFFFFFFFFFFFFFFFF MUL NOT AND SWAP1 DUP4 PUSH20 0xFFFFFFFFFFFFFFFFFFFFFFFFFFFFFFFFFFFFFFFF AND MUL OR SWAP1 SSTORE POP SWAP2 PUSH1 0x20 ADD SWAP2 SWAP1 PUSH1 0x1 ADD SWAP1 PUSH2 0x1BA2 JUMP JUMPDEST JUMPDEST POP SWAP1 POP PUSH2 0x1C07 SWAP2 SWAP1 PUSH2 0x1C18 JUMP JUMPDEST POP SWAP1 JUMP JUMPDEST PUSH2 0x162C DUP1 PUSH2 0x27A9 DUP4 CODECOPY ADD SWAP1 JUMP JUMPDEST JUMPDEST DUP1 DUP3 GT ISZERO PUSH2 0x1C2F JUMPI PUSH0 DUP2 PUSH0 SWAP1 SSTORE POP PUSH1 0x1 ADD PUSH2 0x1C19 JUMP JUMPDEST POP SWAP1 JUMP JUMPDEST PUSH0 PUSH20 0xFFFFFFFFFFFFFFFFFFFFFFFFFFFFFFFFFFFFFFFF DUP3 AND SWAP1 POP SWAP2 SWAP1 POP JUMP JUMPDEST PUSH0 DUP2 SWAP1 POP SWAP2 SWAP1 POP JUMP JUMPDEST PUSH0 PUSH2 0x1C75 PUSH2 0x1C70 PUSH2 0x1C6B DUP5 PUSH2 0x1C33 JUMP JUMPDEST PUSH2 0x1C52 JUMP JUMPDEST PUSH2 0x1C33 JUMP JUMPDEST SWAP1 POP SWAP2 SWAP1 POP JUMP JUMPDEST PUSH0 PUSH2 0x1C86 DUP3 PUSH2 0x1C5B JUMP JUMPDEST SWAP1 POP SWAP2 SWAP1 POP JUMP JUMPDEST PUSH0 PUSH2 0x1C97 DUP3 PUSH2 0x1C7C JUMP JUMPDEST SWAP1 POP SWAP2 SWAP1 POP JUMP JUMPDEST PUSH2 0x1CA7 DUP2 PUSH2 0x1C8D JUMP JUMPDEST DUP3 MSTORE POP POP JUMP JUMPDEST PUSH0 PUSH1 0x20 DUP3 ADD SWAP1 POP PUSH2 0x1CC0 PUSH0 DUP4 ADD DUP5 PUSH2 0x1C9E JUMP JUMPDEST SWAP3 SWAP2 POP POP JUMP JUMPDEST PUSH0 DUP1 REVERT JUMPDEST PUSH0 DUP2 SWAP1 POP SWAP2 SWAP1 POP JUMP JUMPDEST PUSH2 0x1CDC DUP2 PUSH2 0x1CCA JUMP JUMPDEST DUP2 EQ PUSH2 0x1CE6 JUMPI PUSH0 DUP1 REVERT JUMPDEST POP JUMP JUMPDEST PUSH0 DUP2 CALLDATALOAD SWAP1 POP PUSH2 0x1CF7 DUP2 PUSH2 0x1CD3 JUMP JUMPDEST SWAP3 SWAP2 POP POP JUMP JUMPDEST PUSH0 PUSH1 0x20 DUP3 DUP5 SUB SLT ISZERO PUSH2 0x1D12 JUMPI PUSH2 0x1D11 PUSH2 0x1CC6 JUMP JUMPDEST JUMPDEST PUSH0 PUSH2 0x1D1F DUP5 DUP3 DUP6 ADD PUSH2 0x1CE9 JUMP JUMPDEST SWAP2 POP POP SWAP3 SWAP2 POP POP JUMP JUMPDEST PUSH0 PUSH2 0x1D32 DUP3 PUSH2 0x1C33 JUMP JUMPDEST SWAP1 POP SWAP2 SWAP1 POP JUMP JUMPDEST PUSH2 0x1D42 DUP2 PUSH2 0x1D28 JUMP JUMPDEST DUP3 MSTORE POP POP JUMP JUMPDEST PUSH2 0x1D51 DUP2 PUSH2 0x1CCA JUMP JUMPDEST DUP3 MSTORE POP POP JUMP JUMPDEST PUSH0 DUP2 ISZERO ISZERO SWAP1 POP SWAP2 SWAP1 POP JUMP JUMPDEST PUSH2 0x1D6B DUP2 PUSH2 0x1D57 JUMP JUMPDEST DUP3 MSTORE POP POP JUMP JUMPDEST PUSH0 PUSH1 0x80 DUP3 ADD SWAP1 POP PUSH2 0x1D84 PUSH0 DUP4 ADD DUP8 PUSH2 0x1D39 JUMP JUMPDEST PUSH2 0x1D91 PUSH1 0x20 DUP4 ADD DUP7 PUSH2 0x1D48 JUMP JUMPDEST PUSH2 0x1D9E PUSH1 0x40 DUP4 ADD DUP6 PUSH2 0x1D48 JUMP JUMPDEST PUSH2 0x1DAB PUSH1 0x60 DUP4 ADD DUP5 PUSH2 0x1D62 JUMP JUMPDEST SWAP6 SWAP5 POP POP POP POP POP JUMP JUMPDEST PUSH0 DUP1 PUSH1 0x40 DUP4 DUP6 SUB SLT ISZERO PUSH2 0x1DCA JUMPI PUSH2 0x1DC9 PUSH2 0x1CC6 JUMP JUMPDEST JUMPDEST PUSH0 PUSH2 0x1DD7 DUP6 DUP3 DUP7 ADD PUSH2 0x1CE9 JUMP JUMPDEST SWAP3 POP POP PUSH1 0x20 PUSH2 0x1DE8 DUP6 DUP3 DUP7 ADD PUSH2 0x1CE9 JUMP JUMPDEST SWAP2 POP POP SWAP3 POP SWAP3 SWAP1 POP JUMP JUMPDEST PUSH0 PUSH1 0x20 DUP3 ADD SWAP1 POP PUSH2 0x1E05 PUSH0 DUP4 ADD DUP5 PUSH2 0x1D48 JUMP JUMPDEST SWAP3 SWAP2 POP POP JUMP JUMPDEST PUSH0 DUP2 MLOAD SWAP1 POP SWAP2 SWAP1 POP JUMP JUMPDEST PUSH0 DUP3 DUP3 MSTORE PUSH1 0x20 DUP3 ADD SWAP1 POP SWAP3 SWAP2 POP POP JUMP JUMPDEST PUSH0 DUP2 SWAP1 POP PUSH1 0x20 DUP3 ADD SWAP1 POP SWAP2 SWAP1 POP JUMP JUMPDEST PUSH2 0x1E3D DUP2 PUSH2 0x1D28 JUMP JUMPDEST DUP3 MSTORE POP POP JUMP JUMPDEST PUSH0 PUSH2 0x1E4E DUP4 DUP4 PUSH2 0x1E34 JUMP JUMPDEST PUSH1 0x20 DUP4 ADD SWAP1 POP SWAP3 SWAP2 POP POP JUMP JUMPDEST PUSH0 PUSH1 0x20 DUP3 ADD SWAP1 POP SWAP2 SWAP1 POP JUMP JUMPDEST PUSH0 PUSH2 0x1E70 DUP3 PUSH2 0x1E0B JUMP JUMPDEST PUSH2 0x1E7A DUP2 DUP6 PUSH2 0x1E15 JUMP JUMPDEST SWAP4 POP PUSH2 0x1E85 DUP4 PUSH2 0x1E25 JUMP JUMPDEST DUP1 PUSH0 JUMPDEST DUP4 DUP2 LT ISZERO PUSH2 0x1EB5 JUMPI DUP2 MLOAD PUSH2 0x1E9C DUP9 DUP3 PUSH2 0x1E43 JUMP JUMPDEST SWAP8 POP PUSH2 0x1EA7 DUP4 PUSH2 0x1E5A JUMP JUMPDEST SWAP3 POP POP PUSH1 0x1 DUP2 ADD SWAP1 POP PUSH2 0x1E88 JUMP JUMPDEST POP DUP6 SWAP4 POP POP POP POP SWAP3 SWAP2 POP POP JUMP JUMPDEST PUSH0 DUP2 MLOAD SWAP1 POP SWAP2 SWAP1 POP JUMP JUMPDEST PUSH0 DUP3 DUP3 MSTORE PUSH1 0x20 DUP3 ADD SWAP1 POP SWAP3 SWAP2 POP POP JUMP JUMPDEST PUSH0 DUP2 SWAP1 POP PUSH1 0x20 DUP3 ADD SWAP1 POP SWAP2 SWAP1 POP JUMP JUMPDEST PUSH2 0x1EF4 DUP2 PUSH2 0x1CCA JUMP JUMPDEST DUP3 MSTORE POP POP JUMP JUMPDEST PUSH0 PUSH2 0x1F05 DUP4 DUP4 PUSH2 0x1EEB JUMP JUMPDEST PUSH1 0x20 DUP4 ADD SWAP1 POP SWAP3 SWAP2 POP POP JUMP JUMPDEST PUSH0 PUSH1 0x20 DUP3 ADD SWAP1 POP SWAP2 SWAP1 POP JUMP JUMPDEST PUSH0 PUSH2 0x1F27 DUP3 PUSH2 0x1EC2 JUMP JUMPDEST PUSH2 0x1F31 DUP2 DUP6 PUSH2 0x1ECC JUMP JUMPDEST SWAP4 POP PUSH2 0x1F3C DUP4 PUSH2 0x1EDC JUMP JUMPDEST DUP1 PUSH0 JUMPDEST DUP4 DUP2 LT ISZERO PUSH2 0x1F6C JUMPI DUP2 MLOAD PUSH2 0x1F53 DUP9 DUP3 PUSH2 0x1EFA JUMP JUMPDEST SWAP8 POP PUSH2 0x1F5E DUP4 PUSH2 0x1F11 JUMP JUMPDEST SWAP3 POP POP PUSH1 0x1 DUP2 ADD SWAP1 POP PUSH2 0x1F3F JUMP JUMPDEST POP DUP6 SWAP4 POP POP POP POP SWAP3 SWAP2 POP POP JUMP JUMPDEST PUSH0 DUP2 MLOAD SWAP1 POP SWAP2 SWAP1 POP JUMP JUMPDEST PUSH0 DUP3 DUP3 MSTORE PUSH1 0x20 DUP3 ADD SWAP1 POP SWAP3 SWAP2 POP POP JUMP JUMPDEST PUSH0 DUP2 SWAP1 POP PUSH1 0x20 DUP3 ADD SWAP1 POP SWAP2 SWAP1 POP JUMP JUMPDEST PUSH2 0x1FAB DUP2 PUSH2 0x1D57 JUMP JUMPDEST DUP3 MSTORE POP POP JUMP JUMPDEST PUSH0 PUSH2 0x1FBC DUP4 DUP4 PUSH2 0x1FA2 JUMP JUMPDEST PUSH1 0x20 DUP4 ADD SWAP1 POP SWAP3 SWAP2 POP POP JUMP JUMPDEST PUSH0 PUSH1 0x20 DUP3 ADD SWAP1 POP SWAP2 SWAP1 POP JUMP JUMPDEST PUSH0 PUSH2 0x1FDE DUP3 PUSH2 0x1F79 JUMP JUMPDEST PUSH2 0x1FE8 DUP2 DUP6 PUSH2 0x1F83 JUMP JUMPDEST SWAP4 POP PUSH2 0x1FF3 DUP4 PUSH2 0x1F93 JUMP JUMPDEST DUP1 PUSH0 JUMPDEST DUP4 DUP2 LT ISZERO PUSH2 0x2023 JUMPI DUP2 MLOAD PUSH2 0x200A DUP9 DUP3 PUSH2 0x1FB1 JUMP JUMPDEST SWAP8 POP PUSH2 0x2015 DUP4 PUSH2 0x1FC8 JUMP JUMPDEST SWAP3 POP POP PUSH1 0x1 DUP2 ADD SWAP1 POP PUSH2 0x1FF6 JUMP JUMPDEST POP DUP6 SWAP4 POP POP POP POP SWAP3 SWAP2 POP POP JUMP JUMPDEST PUSH0 PUSH1 0x80 DUP3 ADD SWAP1 POP DUP2 DUP2 SUB PUSH0 DUP4 ADD MSTORE PUSH2 0x2048 DUP2 DUP8 PUSH2 0x1E66 JUMP JUMPDEST SWAP1 POP DUP2 DUP2 SUB PUSH1 0x20 DUP4 ADD MSTORE PUSH2 0x205C DUP2 DUP7 PUSH2 0x1F1D JUMP JUMPDEST SWAP1 POP DUP2 DUP2 SUB PUSH1 0x40 DUP4 ADD MSTORE PUSH2 0x2070 DUP2 DUP6 PUSH2 0x1F1D JUMP JUMPDEST SWAP1 POP DUP2 DUP2 SUB PUSH1 0x60 DUP4 ADD MSTORE PUSH2 0x2084 DUP2 DUP5 PUSH2 0x1FD4 JUMP JUMPDEST SWAP1 POP SWAP6 SWAP5 POP POP POP POP POP JUMP JUMPDEST PUSH2 0x2098 DUP2 PUSH2 0x1D28 JUMP JUMPDEST DUP2 EQ PUSH2 0x20A2 JUMPI PUSH0 DUP1 REVERT JUMPDEST POP JUMP JUMPDEST PUSH0 DUP2 CALLDATALOAD SWAP1 POP PUSH2 0x20B3 DUP2 PUSH2 0x208F JUMP JUMPDEST SWAP3 SWAP2 POP POP JUMP JUMPDEST PUSH0 PUSH1 0x20 DUP3 DUP5 SUB SLT ISZERO PUSH2 0x20CE JUMPI PUSH2 0x20CD PUSH2 0x1CC6 JUMP JUMPDEST JUMPDEST PUSH0 PUSH2 0x20DB DUP5 DUP3 DUP6 ADD PUSH2 0x20A5 JUMP JUMPDEST SWAP2 POP POP SWAP3 SWAP2 POP POP JUMP JUMPDEST PUSH0 PUSH1 0x20 DUP3 ADD SWAP1 POP PUSH2 0x20F7 PUSH0 DUP4 ADD DUP5 PUSH2 0x1D39 JUMP JUMPDEST SWAP3 SWAP2 POP POP JUMP JUMPDEST PUSH0 PUSH1 0x20 DUP3 ADD SWAP1 POP PUSH2 0x2110 PUSH0 DUP4 ADD DUP5 PUSH2 0x1D62 JUMP JUMPDEST SWAP3 SWAP2 POP POP JUMP JUMPDEST PUSH0 DUP1 PUSH1 0x40 DUP4 DUP6 SUB SLT ISZERO PUSH2 0x212C JUMPI PUSH2 0x212B PUSH2 0x1CC6 JUMP JUMPDEST JUMPDEST PUSH0 PUSH2 0x2139 DUP6 DUP3 DUP7 ADD PUSH2 0x20A5 JUMP JUMPDEST SWAP3 POP POP PUSH1 0x20 PUSH2 0x214A DUP6 DUP3 DUP7 ADD PUSH2 0x20A5 JUMP JUMPDEST SWAP2 POP POP SWAP3 POP SWAP3 SWAP1 POP JUMP JUMPDEST PUSH0 PUSH1 0x20 DUP3 ADD SWAP1 POP DUP2 DUP2 SUB PUSH0 DUP4 ADD MSTORE PUSH2 0x216C DUP2 DUP5 PUSH2 0x1E66 JUMP JUMPDEST SWAP1 POP SWAP3 SWAP2 POP POP JUMP JUMPDEST PUSH0 DUP2 MLOAD SWAP1 POP PUSH2 0x2182 DUP2 PUSH2 0x1CD3 JUMP JUMPDEST SWAP3 SWAP2 POP POP JUMP JUMPDEST PUSH0 PUSH1 0x20 DUP3 DUP5 SUB SLT ISZERO PUSH2 0x219D JUMPI PUSH2 0x219C PUSH2 0x1CC6 JUMP JUMPDEST JUMPDEST PUSH0 PUSH2 0x21AA DUP5 DUP3 DUP6 ADD PUSH2 0x2174 JUMP JUMPDEST SWAP2 POP POP SWAP3 SWAP2 POP POP JUMP JUMPDEST PUSH0 DUP3 DUP3 MSTORE PUSH1 0x20 DUP3 ADD SWAP1 POP SWAP3 SWAP2 POP POP JUMP JUMPDEST PUSH32 0x496E73756666696369656E742062616C616E636520746F207075726368617365 PUSH0 DUP3 ADD MSTORE POP JUMP JUMPDEST PUSH0 PUSH2 0x21F7 PUSH1 0x20 DUP4 PUSH2 0x21B3 JUMP JUMPDEST SWAP2 POP PUSH2 0x2202 DUP3 PUSH2 0x21C3 JUMP JUMPDEST PUSH1 0x20 DUP3 ADD SWAP1 POP SWAP2 SWAP1 POP JUMP JUMPDEST PUSH0 PUSH1 0x20 DUP3 ADD SWAP1 POP DUP2 DUP2 SUB PUSH0 DUP4 ADD MSTORE PUSH2 0x2224 DUP2 PUSH2 0x21EB JUMP JUMPDEST SWAP1 POP SWAP2 SWAP1 POP JUMP JUMPDEST PUSH32 0x4E487B7100000000000000000000000000000000000000000000000000000000 PUSH0 MSTORE PUSH1 0x11 PUSH1 0x4 MSTORE PUSH1 0x24 PUSH0 REVERT JUMPDEST PUSH0 PUSH2 0x2262 DUP3 PUSH2 0x1CCA JUMP JUMPDEST SWAP2 POP PUSH2 0x226D DUP4 PUSH2 0x1CCA JUMP JUMPDEST SWAP3 POP DUP3 DUP3 SUB SWAP1 POP DUP2 DUP2 GT ISZERO PUSH2 0x2285 JUMPI PUSH2 0x2284 PUSH2 0x222B JUMP JUMPDEST JUMPDEST SWAP3 SWAP2 POP POP JUMP JUMPDEST PUSH0 PUSH1 0x60 DUP3 ADD SWAP1 POP PUSH2 0x229E PUSH0 DUP4 ADD DUP7 PUSH2 0x1D39 JUMP JUMPDEST PUSH2 0x22AB PUSH1 0x20 DUP4 ADD DUP6 PUSH2 0x1D39 JUMP JUMPDEST PUSH2 0x22B8 PUSH1 0x40 DUP4 ADD DUP5 PUSH2 0x1D48 JUMP JUMPDEST SWAP5 SWAP4 POP POP POP POP JUMP JUMPDEST PUSH2 0x22C9 DUP2 PUSH2 0x1D57 JUMP JUMPDEST DUP2 EQ PUSH2 0x22D3 JUMPI PUSH0 DUP1 REVERT JUMPDEST POP JUMP JUMPDEST PUSH0 DUP2 MLOAD SWAP1 POP PUSH2 0x22E4 DUP2 PUSH2 0x22C0 JUMP JUMPDEST SWAP3 SWAP2 POP POP JUMP JUMPDEST PUSH0 PUSH1 0x20 DUP3 DUP5 SUB SLT ISZERO PUSH2 0x22FF JUMPI PUSH2 0x22FE PUSH2 0x1CC6 JUMP JUMPDEST JUMPDEST PUSH0 PUSH2 0x230C DUP5 DUP3 DUP6 ADD PUSH2 0x22D6 JUMP JUMPDEST SWAP2 POP POP SWAP3 SWAP2 POP POP JUMP JUMPDEST PUSH32 0x436F6E74726163742068617320696E73756666696369656E742044504320746F PUSH0 DUP3 ADD MSTORE PUSH32 0x2072657761726400000000000000000000000000000000000000000000000000 PUSH1 0x20 DUP3 ADD MSTORE POP JUMP JUMPDEST PUSH0 PUSH2 0x236F PUSH1 0x27 DUP4 PUSH2 0x21B3 JUMP JUMPDEST SWAP2 POP PUSH2 0x237A DUP3 PUSH2 0x2315 JUMP JUMPDEST PUSH1 0x40 DUP3 ADD SWAP1 POP SWAP2 SWAP1 POP JUMP JUMPDEST PUSH0 PUSH1 0x20 DUP3 ADD SWAP1 POP DUP2 DUP2 SUB PUSH0 DUP4 ADD MSTORE PUSH2 0x239C DUP2 PUSH2 0x2363 JUMP JUMPDEST SWAP1 POP SWAP2 SWAP1 POP JUMP JUMPDEST PUSH0 PUSH1 0x40 DUP3 ADD SWAP1 POP PUSH2 0x23B6 PUSH0 DUP4 ADD DUP6 PUSH2 0x1D39 JUMP JUMPDEST PUSH2 0x23C3 PUSH1 0x20 DUP4 ADD DUP5 PUSH2 0x1D48 JUMP JUMPDEST SWAP4 SWAP3 POP POP POP JUMP JUMPDEST PUSH32 0x4E487B7100000000000000000000000000000000000000000000000000000000 PUSH0 MSTORE PUSH1 0x32 PUSH1 0x4 MSTORE PUSH1 0x24 PUSH0 REVERT JUMPDEST PUSH32 0x43616E6E6F742062757920796F75727320646174617365740000000000000000 PUSH0 DUP3 ADD MSTORE POP JUMP JUMPDEST PUSH0 PUSH2 0x242B PUSH1 0x18 DUP4 PUSH2 0x21B3 JUMP JUMPDEST SWAP2 POP PUSH2 0x2436 DUP3 PUSH2 0x23F7 JUMP JUMPDEST PUSH1 0x20 DUP3 ADD SWAP1 POP SWAP2 SWAP1 POP JUMP JUMPDEST PUSH0 PUSH1 0x20 DUP3 ADD SWAP1 POP DUP2 DUP2 SUB PUSH0 DUP4 ADD MSTORE PUSH2 0x2458 DUP2 PUSH2 0x241F JUMP JUMPDEST SWAP1 POP SWAP2 SWAP1 POP JUMP JUMPDEST PUSH32 0x4E487B7100000000000000000000000000000000000000000000000000000000 PUSH0 MSTORE PUSH1 0x41 PUSH1 0x4 MSTORE PUSH1 0x24 PUSH0 REVERT JUMPDEST PUSH32 0x4461746173657420616C72656164792076616C69646174656400000000000000 PUSH0 DUP3 ADD MSTORE POP JUMP JUMPDEST PUSH0 PUSH2 0x24C0 PUSH1 0x19 DUP4 PUSH2 0x21B3 JUMP JUMPDEST SWAP2 POP PUSH2 0x24CB DUP3 PUSH2 0x248C JUMP JUMPDEST PUSH1 0x20 DUP3 ADD SWAP1 POP SWAP2 SWAP1 POP JUMP JUMPDEST PUSH0 PUSH1 0x20 DUP3 ADD SWAP1 POP DUP2 DUP2 SUB PUSH0 DUP4 ADD MSTORE PUSH2 0x24ED DUP2 PUSH2 0x24B4 JUMP JUMPDEST SWAP1 POP SWAP2 SWAP1 POP JUMP JUMPDEST PUSH32 0x596F75206D757374206265206120726567697374657265642076616C69646174 PUSH0 DUP3 ADD MSTORE PUSH32 0x6F72000000000000000000000000000000000000000000000000000000000000 PUSH1 0x20 DUP3 ADD MSTORE POP JUMP JUMPDEST PUSH0 PUSH2 0x254E PUSH1 0x22 DUP4 PUSH2 0x21B3 JUMP JUMPDEST SWAP2 POP PUSH2 0x2559 DUP3 PUSH2 0x24F4 JUMP JUMPDEST PUSH1 0x40 DUP3 ADD SWAP1 POP SWAP2 SWAP1 POP JUMP JUMPDEST PUSH0 PUSH1 0x20 DUP3 ADD SWAP1 POP DUP2 DUP2 SUB PUSH0 DUP4 ADD MSTORE PUSH2 0x257B DUP2 PUSH2 0x2542 JUMP JUMPDEST SWAP1 POP SWAP2 SWAP1 POP JUMP JUMPDEST PUSH32 0x56616C696461746F722063616E6E6F74206265207468652063726561746F7200 PUSH0 DUP3 ADD MSTORE POP JUMP JUMPDEST PUSH0 PUSH2 0x25B6 PUSH1 0x1F DUP4 PUSH2 0x21B3 JUMP JUMPDEST SWAP2 POP PUSH2 0x25C1 DUP3 PUSH2 0x2582 JUMP JUMPDEST PUSH1 0x20 DUP3 ADD SWAP1 POP SWAP2 SWAP1 POP JUMP JUMPDEST PUSH0 PUSH1 0x20 DUP3 ADD SWAP1 POP DUP2 DUP2 SUB PUSH0 DUP4 ADD MSTORE PUSH2 0x25E3 DUP2 PUSH2 0x25AA JUMP JUMPDEST SWAP1 POP SWAP2 SWAP1 POP JUMP JUMPDEST PUSH32 0x496E73756666696369656E742062616C616E636520746F207265776172640000 PUSH0 DUP3 ADD MSTORE POP JUMP JUMPDEST PUSH0 PUSH2 0x261E PUSH1 0x1E DUP4 PUSH2 0x21B3 JUMP JUMPDEST SWAP2 POP PUSH2 0x2629 DUP3 PUSH2 0x25EA JUMP JUMPDEST PUSH1 0x20 DUP3 ADD SWAP1 POP SWAP2 SWAP1 POP JUMP JUMPDEST PUSH0 PUSH1 0x20 DUP3 ADD SWAP1 POP DUP2 DUP2 SUB PUSH0 DUP4 ADD MSTORE PUSH2 0x264B DUP2 PUSH2 0x2612 JUMP JUMPDEST SWAP1 POP SWAP2 SWAP1 POP JUMP JUMPDEST PUSH32 0x4F776E61626C653A2063616C6C6572206973206E6F7420746865206F776E6572 PUSH0 DUP3 ADD MSTORE POP JUMP JUMPDEST PUSH0 PUSH2 0x2686 PUSH1 0x20 DUP4 PUSH2 0x21B3 JUMP JUMPDEST SWAP2 POP PUSH2 0x2691 DUP3 PUSH2 0x2652 JUMP JUMPDEST PUSH1 0x20 DUP3 ADD SWAP1 POP SWAP2 SWAP1 POP JUMP JUMPDEST PUSH0 PUSH1 0x20 DUP3 ADD SWAP1 POP DUP2 DUP2 SUB PUSH0 DUP4 ADD MSTORE PUSH2 0x26B3 DUP2 PUSH2 0x267A JUMP JUMPDEST SWAP1 POP SWAP2 SWAP1 POP JUMP JUMPDEST PUSH32 0x4461746150756E6B436F696E2068617320616C7265616479206265656E206465 PUSH0 DUP3 ADD MSTORE PUSH32 0x706C6F7965640000000000000000000000000000000000000000000000000000 PUSH1 0x20 DUP3 ADD MSTORE POP JUMP JUMPDEST PUSH0 PUSH2 0x2714 PUSH1 0x26 DUP4 PUSH2 0x21B3 JUMP JUMPDEST SWAP2 POP PUSH2 0x271F DUP3 PUSH2 0x26BA JUMP JUMPDEST PUSH1 0x40 DUP3 ADD SWAP1 POP SWAP2 SWAP1 POP JUMP JUMPDEST PUSH0 PUSH1 0x20 DUP3 ADD SWAP1 POP DUP2 DUP2 SUB PUSH0 DUP4 ADD MSTORE PUSH2 0x2741 DUP2 PUSH2 0x2708 JUMP JUMPDEST SWAP1 POP SWAP2 SWAP1 POP JUMP JUMPDEST PUSH0 DUP2 SWAP1 POP SWAP2 SWAP1 POP JUMP JUMPDEST PUSH0 PUSH2 0x276B PUSH2 0x2766 PUSH2 0x2761 DUP5 PUSH2 0x2748 JUMP JUMPDEST PUSH2 0x1C52 JUMP JUMPDEST PUSH2 0x1CCA JUMP JUMPDEST SWAP1 POP SWAP2 SWAP1 POP JUMP JUMPDEST PUSH2 0x277B DUP2 PUSH2 0x2751 JUMP JUMPDEST DUP3 MSTORE POP POP JUMP JUMPDEST PUSH0 PUSH1 0x40 DUP3 ADD SWAP1 POP PUSH2 0x2794 PUSH0 DUP4 ADD DUP6 PUSH2 0x1D39 JUMP JUMPDEST PUSH2 0x27A1 PUSH1 0x20 DUP4 ADD DUP5 PUSH2 0x2772 JUMP JUMPDEST SWAP4 SWAP3 POP POP POP JUMP INVALID PUSH1 0x80 PUSH1 0x40 MSTORE CALLVALUE DUP1 ISZERO PUSH2 0xF JUMPI PUSH0 DUP1 REVERT JUMPDEST POP PUSH1 0x40 MLOAD PUSH2 0x162C CODESIZE SUB DUP1 PUSH2 0x162C DUP4 CODECOPY DUP2 DUP2 ADD PUSH1 0x40 MSTORE DUP2 ADD SWAP1 PUSH2 0x31 SWAP2 SWAP1 PUSH2 0x3BD JUMP JUMPDEST PUSH1 0x40 MLOAD DUP1 PUSH1 0x40 ADD PUSH1 0x40 MSTORE DUP1 PUSH1 0xD DUP2 MSTORE PUSH1 0x20 ADD PUSH32 0x4461746150756E6B20436F696E00000000000000000000000000000000000000 DUP2 MSTORE POP PUSH1 0x40 MLOAD DUP1 PUSH1 0x40 ADD PUSH1 0x40 MSTORE DUP1 PUSH1 0x3 DUP2 MSTORE PUSH1 0x20 ADD PUSH32 0x4450430000000000000000000000000000000000000000000000000000000000 DUP2 MSTORE POP DUP2 PUSH1 0x3 SWAP1 DUP2 PUSH2 0xAC SWAP2 SWAP1 PUSH2 0x619 JUMP JUMPDEST POP DUP1 PUSH1 0x4 SWAP1 DUP2 PUSH2 0xBC SWAP2 SWAP1 PUSH2 0x619 JUMP JUMPDEST POP POP POP PUSH2 0xE2 CALLER PUSH8 0xDE0B6B3A7640000 DUP4 PUSH2 0xD7 SWAP2 SWAP1 PUSH2 0x715 JUMP JUMPDEST PUSH2 0xE8 PUSH1 0x20 SHL PUSH1 0x20 SHR JUMP JUMPDEST POP PUSH2 0x83E JUMP JUMPDEST PUSH0 PUSH20 0xFFFFFFFFFFFFFFFFFFFFFFFFFFFFFFFFFFFFFFFF AND DUP3 PUSH20 0xFFFFFFFFFFFFFFFFFFFFFFFFFFFFFFFFFFFFFFFF AND SUB PUSH2 0x158 JUMPI PUSH0 PUSH1 0x40 MLOAD PUSH32 0xEC442F0500000000000000000000000000000000000000000000000000000000 DUP2 MSTORE PUSH1 0x4 ADD PUSH2 0x14F SWAP2 SWAP1 PUSH2 0x795 JUMP JUMPDEST PUSH1 0x40 MLOAD DUP1 SWAP2 SUB SWAP1 REVERT JUMPDEST PUSH2 0x169 PUSH0 DUP4 DUP4 PUSH2 0x16D PUSH1 0x20 SHL PUSH1 0x20 SHR JUMP JUMPDEST POP POP JUMP JUMPDEST PUSH0 PUSH20 0xFFFFFFFFFFFFFFFFFFFFFFFFFFFFFFFFFFFFFFFF AND DUP4 PUSH20 0xFFFFFFFFFFFFFFFFFFFFFFFFFFFFFFFFFFFFFFFF AND SUB PUSH2 0x1BD JUMPI DUP1 PUSH1 0x2 PUSH0 DUP3 DUP3 SLOAD PUSH2 0x1B1 SWAP2 SWAP1 PUSH2 0x7AE JUMP JUMPDEST SWAP3 POP POP DUP2 SWAP1 SSTORE POP PUSH2 0x28B JUMP JUMPDEST PUSH0 DUP1 PUSH0 DUP6 PUSH20 0xFFFFFFFFFFFFFFFFFFFFFFFFFFFFFFFFFFFFFFFF AND PUSH20 0xFFFFFFFFFFFFFFFFFFFFFFFFFFFFFFFFFFFFFFFF AND DUP2 MSTORE PUSH1 0x20 ADD SWAP1 DUP2 MSTORE PUSH1 0x20 ADD PUSH0 KECCAK256 SLOAD SWAP1 POP DUP2 DUP2 LT ISZERO PUSH2 0x246 JUMPI DUP4 DUP2 DUP4 PUSH1 0x40 MLOAD PUSH32 0xE450D38C00000000000000000000000000000000000000000000000000000000 DUP2 MSTORE PUSH1 0x4 ADD PUSH2 0x23D SWAP4 SWAP3 SWAP2 SWAP1 PUSH2 0x7F0 JUMP JUMPDEST PUSH1 0x40 MLOAD DUP1 SWAP2 SUB SWAP1 REVERT JUMPDEST DUP2 DUP2 SUB PUSH0 DUP1 DUP7 PUSH20 0xFFFFFFFFFFFFFFFFFFFFFFFFFFFFFFFFFFFFFFFF AND PUSH20 0xFFFFFFFFFFFFFFFFFFFFFFFFFFFFFFFFFFFFFFFF AND DUP2 MSTORE PUSH1 0x20 ADD SWAP1 DUP2 MSTORE PUSH1 0x20 ADD PUSH0 KECCAK256 DUP2 SWAP1 SSTORE POP POP JUMPDEST PUSH0 PUSH20 0xFFFFFFFFFFFFFFFFFFFFFFFFFFFFFFFFFFFFFFFF AND DUP3 PUSH20 0xFFFFFFFFFFFFFFFFFFFFFFFFFFFFFFFFFFFFFFFF AND SUB PUSH2 0x2D2 JUMPI DUP1 PUSH1 0x2 PUSH0 DUP3 DUP3 SLOAD SUB SWAP3 POP POP DUP2 SWAP1 SSTORE POP PUSH2 0x31C JUMP JUMPDEST DUP1 PUSH0 DUP1 DUP5 PUSH20 0xFFFFFFFFFFFFFFFFFFFFFFFFFFFFFFFFFFFFFFFF AND PUSH20 0xFFFFFFFFFFFFFFFFFFFFFFFFFFFFFFFFFFFFFFFF AND DUP2 MSTORE PUSH1 0x20 ADD SWAP1 DUP2 MSTORE PUSH1 0x20 ADD PUSH0 KECCAK256 PUSH0 DUP3 DUP3 SLOAD ADD SWAP3 POP POP DUP2 SWAP1 SSTORE POP JUMPDEST DUP2 PUSH20 0xFFFFFFFFFFFFFFFFFFFFFFFFFFFFFFFFFFFFFFFF AND DUP4 PUSH20 0xFFFFFFFFFFFFFFFFFFFFFFFFFFFFFFFFFFFFFFFF AND PUSH32 0xDDF252AD1BE2C89B69C2B068FC378DAA952BA7F163C4A11628F55A4DF523B3EF DUP4 PUSH1 0x40 MLOAD PUSH2 0x379 SWAP2 SWAP1 PUSH2 0x825 JUMP JUMPDEST PUSH1 0x40 MLOAD DUP1 SWAP2 SUB SWAP1 LOG3 POP POP POP JUMP JUMPDEST PUSH0 DUP1 REVERT JUMPDEST PUSH0 DUP2 SWAP1 POP SWAP2 SWAP1 POP JUMP JUMPDEST PUSH2 0x39C DUP2 PUSH2 0x38A JUMP JUMPDEST DUP2 EQ PUSH2 0x3A6 JUMPI PUSH0 DUP1 REVERT JUMPDEST POP JUMP JUMPDEST PUSH0 DUP2 MLOAD SWAP1 POP PUSH2 0x3B7 DUP2 PUSH2 0x393 JUMP JUMPDEST SWAP3 SWAP2 POP POP JUMP JUMPDEST PUSH0 PUSH1 0x20 DUP3 DUP5 SUB SLT ISZERO PUSH2 0x3D2 JUMPI PUSH2 0x3D1 PUSH2 0x386 JUMP JUMPDEST JUMPDEST PUSH0 PUSH2 0x3DF DUP5 DUP3 DUP6 ADD PUSH2 0x3A9 JUMP JUMPDEST SWAP2 POP POP SWAP3 SWAP2 POP POP JUMP JUMPDEST PUSH0 DUP2 MLOAD SWAP1 POP SWAP2 SWAP1 POP JUMP JUMPDEST PUSH32 0x4E487B7100000000000000000000000000000000000000000000000000000000 PUSH0 MSTORE PUSH1 0x41 PUSH1 0x4 MSTORE PUSH1 0x24 PUSH0 REVERT JUMPDEST PUSH32 0x4E487B7100000000000000000000000000000000000000000000000000000000 PUSH0 MSTORE PUSH1 0x22 PUSH1 0x4 MSTORE PUSH1 0x24 PUSH0 REVERT JUMPDEST PUSH0 PUSH1 0x2 DUP3 DIV SWAP1 POP PUSH1 0x1 DUP3 AND DUP1 PUSH2 0x463 JUMPI PUSH1 0x7F DUP3 AND SWAP2 POP JUMPDEST PUSH1 0x20 DUP3 LT DUP2 SUB PUSH2 0x476 JUMPI PUSH2 0x475 PUSH2 0x41F JUMP JUMPDEST JUMPDEST POP SWAP2 SWAP1 POP JUMP JUMPDEST PUSH0 DUP2 SWAP1 POP DUP2 PUSH0 MSTORE PUSH1 0x20 PUSH0 KECCAK256 SWAP1 POP SWAP2 SWAP1 POP JUMP JUMPDEST PUSH0 PUSH1 0x20 PUSH1 0x1F DUP4 ADD DIV SWAP1 POP SWAP2 SWAP1 POP JUMP JUMPDEST PUSH0 DUP3 DUP3 SHL SWAP1 POP SWAP3 SWAP2 POP POP JUMP JUMPDEST PUSH0 PUSH1 0x8 DUP4 MUL PUSH2 0x4D8 PUSH32 0xFFFFFFFFFFFFFFFFFFFFFFFFFFFFFFFFFFFFFFFFFFFFFFFFFFFFFFFFFFFFFFFF DUP3 PUSH2 0x49D JUMP JUMPDEST PUSH2 0x4E2 DUP7 DUP4 PUSH2 0x49D JUMP JUMPDEST SWAP6 POP DUP1 NOT DUP5 AND SWAP4 POP DUP1 DUP7 AND DUP5 OR SWAP3 POP POP POP SWAP4 SWAP3 POP POP POP JUMP JUMPDEST PUSH0 DUP2 SWAP1 POP SWAP2 SWAP1 POP JUMP JUMPDEST PUSH0 PUSH2 0x51D PUSH2 0x518 PUSH2 0x513 DUP5 PUSH2 0x38A JUMP JUMPDEST PUSH2 0x4FA JUMP JUMPDEST PUSH2 0x38A JUMP JUMPDEST SWAP1 POP SWAP2 SWAP1 POP JUMP JUMPDEST PUSH0 DUP2 SWAP1 POP SWAP2 SWAP1 POP JUMP JUMPDEST PUSH2 0x536 DUP4 PUSH2 0x503 JUMP JUMPDEST PUSH2 0x54A PUSH2 0x542 DUP3 PUSH2 0x524 JUMP JUMPDEST DUP5 DUP5 SLOAD PUSH2 0x4A9 JUMP JUMPDEST DUP3 SSTORE POP POP POP POP JUMP JUMPDEST PUSH0 SWAP1 JUMP JUMPDEST PUSH2 0x55E PUSH2 0x552 JUMP JUMPDEST PUSH2 0x569 DUP2 DUP5 DUP5 PUSH2 0x52D JUMP JUMPDEST POP POP POP JUMP JUMPDEST JUMPDEST DUP2 DUP2 LT ISZERO PUSH2 0x58C JUMPI PUSH2 0x581 PUSH0 DUP3 PUSH2 0x556 JUMP JUMPDEST PUSH1 0x1 DUP2 ADD SWAP1 POP PUSH2 0x56F JUMP JUMPDEST POP POP JUMP JUMPDEST PUSH1 0x1F DUP3 GT ISZERO PUSH2 0x5D1 JUMPI PUSH2 0x5A2 DUP2 PUSH2 0x47C JUMP JUMPDEST PUSH2 0x5AB DUP5 PUSH2 0x48E JUMP JUMPDEST DUP2 ADD PUSH1 0x20 DUP6 LT ISZERO PUSH2 0x5BA JUMPI DUP2 SWAP1 POP JUMPDEST PUSH2 0x5CE PUSH2 0x5C6 DUP6 PUSH2 0x48E JUMP JUMPDEST DUP4 ADD DUP3 PUSH2 0x56E JUMP JUMPDEST POP POP JUMPDEST POP POP POP JUMP JUMPDEST PUSH0 DUP3 DUP3 SHR SWAP1 POP SWAP3 SWAP2 POP POP JUMP JUMPDEST PUSH0 PUSH2 0x5F1 PUSH0 NOT DUP5 PUSH1 0x8 MUL PUSH2 0x5D6 JUMP JUMPDEST NOT DUP1 DUP4 AND SWAP2 POP POP SWAP3 SWAP2 POP POP JUMP JUMPDEST PUSH0 PUSH2 0x609 DUP4 DUP4 PUSH2 0x5E2 JUMP JUMPDEST SWAP2 POP DUP3 PUSH1 0x2 MUL DUP3 OR SWAP1 POP SWAP3 SWAP2 POP POP JUMP JUMPDEST PUSH2 0x622 DUP3 PUSH2 0x3E8 JUMP JUMPDEST PUSH8 0xFFFFFFFFFFFFFFFF DUP2 GT ISZERO PUSH2 0x63B JUMPI PUSH2 0x63A PUSH2 0x3F2 JUMP JUMPDEST JUMPDEST PUSH2 0x645 DUP3 SLOAD PUSH2 0x44C JUMP JUMPDEST PUSH2 0x650 DUP3 DUP3 DUP6 PUSH2 0x590 JUMP JUMPDEST PUSH0 PUSH1 0x20 SWAP1 POP PUSH1 0x1F DUP4 GT PUSH1 0x1 DUP2 EQ PUSH2 0x681 JUMPI PUSH0 DUP5 ISZERO PUSH2 0x66F JUMPI DUP3 DUP8 ADD MLOAD SWAP1 POP JUMPDEST PUSH2 0x679 DUP6 DUP3 PUSH2 0x5FE JUMP JUMPDEST DUP7 SSTORE POP PUSH2 0x6E0 JUMP JUMPDEST PUSH1 0x1F NOT DUP5 AND PUSH2 0x68F DUP7 PUSH2 0x47C JUMP JUMPDEST PUSH0 JUMPDEST DUP3 DUP2 LT ISZERO PUSH2 0x6B6 JUMPI DUP5 DUP10 ADD MLOAD DUP3 SSTORE PUSH1 0x1 DUP3 ADD SWAP2 POP PUSH1 0x20 DUP6 ADD SWAP5 POP PUSH1 0x20 DUP2 ADD SWAP1 POP PUSH2 0x691 JUMP JUMPDEST DUP7 DUP4 LT ISZERO PUSH2 0x6D3 JUMPI DUP5 DUP10 ADD MLOAD PUSH2 0x6CF PUSH1 0x1F DUP10 AND DUP3 PUSH2 0x5E2 JUMP JUMPDEST DUP4 SSTORE POP JUMPDEST PUSH1 0x1 PUSH1 0x2 DUP9 MUL ADD DUP9 SSTORE POP POP POP JUMPDEST POP POP POP POP POP POP JUMP JUMPDEST PUSH32 0x4E487B7100000000000000000000000000000000000000000000000000000000 PUSH0 MSTORE PUSH1 0x11 PUSH1 0x4 MSTORE PUSH1 0x24 PUSH0 REVERT JUMPDEST PUSH0 PUSH2 0x71F DUP3 PUSH2 0x38A JUMP JUMPDEST SWAP2 POP PUSH2 0x72A DUP4 PUSH2 0x38A JUMP JUMPDEST SWAP3 POP DUP3 DUP3 MUL PUSH2 0x738 DUP2 PUSH2 0x38A JUMP JUMPDEST SWAP2 POP DUP3 DUP3 DIV DUP5 EQ DUP4 ISZERO OR PUSH2 0x74F JUMPI PUSH2 0x74E PUSH2 0x6E8 JUMP JUMPDEST JUMPDEST POP SWAP3 SWAP2 POP POP JUMP JUMPDEST PUSH0 PUSH20 0xFFFFFFFFFFFFFFFFFFFFFFFFFFFFFFFFFFFFFFFF DUP3 AND SWAP1 POP SWAP2 SWAP1 POP JUMP JUMPDEST PUSH0 PUSH2 0x77F DUP3 PUSH2 0x756 JUMP JUMPDEST SWAP1 POP SWAP2 SWAP1 POP JUMP JUMPDEST PUSH2 0x78F DUP2 PUSH2 0x775 JUMP JUMPDEST DUP3 MSTORE POP POP JUMP JUMPDEST PUSH0 PUSH1 0x20 DUP3 ADD SWAP1 POP PUSH2 0x7A8 PUSH0 DUP4 ADD DUP5 PUSH2 0x786 JUMP JUMPDEST SWAP3 SWAP2 POP POP JUMP JUMPDEST PUSH0 PUSH2 0x7B8 DUP3 PUSH2 0x38A JUMP JUMPDEST SWAP2 POP PUSH2 0x7C3 DUP4 PUSH2 0x38A JUMP JUMPDEST SWAP3 POP DUP3 DUP3 ADD SWAP1 POP DUP1 DUP3 GT ISZERO PUSH2 0x7DB JUMPI PUSH2 0x7DA PUSH2 0x6E8 JUMP JUMPDEST JUMPDEST SWAP3 SWAP2 POP POP JUMP JUMPDEST PUSH2 0x7EA DUP2 PUSH2 0x38A JUMP JUMPDEST DUP3 MSTORE POP POP JUMP JUMPDEST PUSH0 PUSH1 0x60 DUP3 ADD SWAP1 POP PUSH2 0x803 PUSH0 DUP4 ADD DUP7 PUSH2 0x786 JUMP JUMPDEST PUSH2 0x810 PUSH1 0x20 DUP4 ADD DUP6 PUSH2 0x7E1 JUMP JUMPDEST PUSH2 0x81D PUSH1 0x40 DUP4 ADD DUP5 PUSH2 0x7E1 JUMP JUMPDEST SWAP5 SWAP4 POP POP POP POP JUMP JUMPDEST PUSH0 PUSH1 0x20 DUP3 ADD SWAP1 POP PUSH2 0x838 PUSH0 DUP4 ADD DUP5 PUSH2 0x7E1 JUMP JUMPDEST SWAP3 SWAP2 POP POP JUMP JUMPDEST PUSH2 0xDE1 DUP1 PUSH2 0x84B PUSH0 CODECOPY PUSH0 RETURN INVALID PUSH1 0x80 PUSH1 0x40 MSTORE CALLVALUE DUP1 ISZERO PUSH2 0xF JUMPI PUSH0 DUP1 REVERT JUMPDEST POP PUSH1 0x4 CALLDATASIZE LT PUSH2 0x91 JUMPI PUSH0 CALLDATALOAD PUSH1 0xE0 SHR DUP1 PUSH4 0x313CE567 GT PUSH2 0x64 JUMPI DUP1 PUSH4 0x313CE567 EQ PUSH2 0x131 JUMPI DUP1 PUSH4 0x70A08231 EQ PUSH2 0x14F JUMPI DUP1 PUSH4 0x95D89B41 EQ PUSH2 0x17F JUMPI DUP1 PUSH4 0xA9059CBB EQ PUSH2 0x19D JUMPI DUP1 PUSH4 0xDD62ED3E EQ PUSH2 0x1CD JUMPI PUSH2 0x91 JUMP JUMPDEST DUP1 PUSH4 0x6FDDE03 EQ PUSH2 0x95 JUMPI DUP1 PUSH4 0x95EA7B3 EQ PUSH2 0xB3 JUMPI DUP1 PUSH4 0x18160DDD EQ PUSH2 0xE3 JUMPI DUP1 PUSH4 0x23B872DD EQ PUSH2 0x101 JUMPI JUMPDEST PUSH0 DUP1 REVERT JUMPDEST PUSH2 0x9D PUSH2 0x1FD JUMP JUMPDEST PUSH1 0x40 MLOAD PUSH2 0xAA SWAP2 SWAP1 PUSH2 0xA5A JUMP JUMPDEST PUSH1 0x40 MLOAD DUP1 SWAP2 SUB SWAP1 RETURN JUMPDEST PUSH2 0xCD PUSH1 0x4 DUP1 CALLDATASIZE SUB DUP2 ADD SWAP1 PUSH2 0xC8 SWAP2 SWAP1 PUSH2 0xB0B JUMP JUMPDEST PUSH2 0x28D JUMP JUMPDEST PUSH1 0x40 MLOAD PUSH2 0xDA SWAP2 SWAP1 PUSH2 0xB63 JUMP JUMPDEST PUSH1 0x40 MLOAD DUP1 SWAP2 SUB SWAP1 RETURN JUMPDEST PUSH2 0xEB PUSH2 0x2AF JUMP JUMPDEST PUSH1 0x40 MLOAD PUSH2 0xF8 SWAP2 SWAP1 PUSH2 0xB8B JUMP JUMPDEST PUSH1 0x40 MLOAD DUP1 SWAP2 SUB SWAP1 RETURN JUMPDEST PUSH2 0x11B PUSH1 0x4 DUP1 CALLDATASIZE SUB DUP2 ADD SWAP1 PUSH2 0x116 SWAP2 SWAP1 PUSH2 0xBA4 JUMP JUMPDEST PUSH2 0x2B8 JUMP JUMPDEST PUSH1 0x40 MLOAD PUSH2 0x128 SWAP2 SWAP1 PUSH2 0xB63 JUMP JUMPDEST PUSH1 0x40 MLOAD DUP1 SWAP2 SUB SWAP1 RETURN JUMPDEST PUSH2 0x139 PUSH2 0x2E6 JUMP JUMPDEST PUSH1 0x40 MLOAD PUSH2 0x146 SWAP2 SWAP1 PUSH2 0xC0F JUMP JUMPDEST PUSH1 0x40 MLOAD DUP1 SWAP2 SUB SWAP1 RETURN JUMPDEST PUSH2 0x169 PUSH1 0x4 DUP1 CALLDATASIZE SUB DUP2 ADD SWAP1 PUSH2 0x164 SWAP2 SWAP1 PUSH2 0xC28 JUMP JUMPDEST PUSH2 0x2EE JUMP JUMPDEST PUSH1 0x40 MLOAD PUSH2 0x176 SWAP2 SWAP1 PUSH2 0xB8B JUMP JUMPDEST PUSH1 0x40 MLOAD DUP1 SWAP2 SUB SWAP1 RETURN JUMPDEST PUSH2 0x187 PUSH2 0x333 JUMP JUMPDEST PUSH1 0x40 MLOAD PUSH2 0x194 SWAP2 SWAP1 PUSH2 0xA5A JUMP JUMPDEST PUSH1 0x40 MLOAD DUP1 SWAP2 SUB SWAP1 RETURN JUMPDEST PUSH2 0x1B7 PUSH1 0x4 DUP1 CALLDATASIZE SUB DUP2 ADD SWAP1 PUSH2 0x1B2 SWAP2 SWAP1 PUSH2 0xB0B JUMP JUMPDEST PUSH2 0x3C3 JUMP JUMPDEST PUSH1 0x40 MLOAD PUSH2 0x1C4 SWAP2 SWAP1 PUSH2 0xB63 JUMP JUMPDEST PUSH1 0x40 MLOAD DUP1 SWAP2 SUB SWAP1 RETURN JUMPDEST PUSH2 0x1E7 PUSH1 0x4 DUP1 CALLDATASIZE SUB DUP2 ADD SWAP1 PUSH2 0x1E2 SWAP2 SWAP1 PUSH2 0xC53 JUMP JUMPDEST PUSH2 0x3E5 JUMP JUMPDEST PUSH1 0x40 MLOAD PUSH2 0x1F4 SWAP2 SWAP1 PUSH2 0xB8B JUMP JUMPDEST PUSH1 0x40 MLOAD DUP1 SWAP2 SUB SWAP1 RETURN JUMPDEST PUSH1 0x60 PUSH1 0x3 DUP1 SLOAD PUSH2 0x20C SWAP1 PUSH2 0xCBE JUMP JUMPDEST DUP1 PUSH1 0x1F ADD PUSH1 0x20 DUP1 SWAP2 DIV MUL PUSH1 0x20 ADD PUSH1 0x40 MLOAD SWAP1 DUP2 ADD PUSH1 0x40 MSTORE DUP1 SWAP3 SWAP2 SWAP1 DUP2 DUP2 MSTORE PUSH1 0x20 ADD DUP3 DUP1 SLOAD PUSH2 0x238 SWAP1 PUSH2 0xCBE JUMP JUMPDEST DUP1 ISZERO PUSH2 0x283 JUMPI DUP1 PUSH1 0x1F LT PUSH2 0x25A JUMPI PUSH2 0x100 DUP1 DUP4 SLOAD DIV MUL DUP4 MSTORE SWAP2 PUSH1 0x20 ADD SWAP2 PUSH2 0x283 JUMP JUMPDEST DUP3 ADD SWAP2 SWAP1 PUSH0 MSTORE PUSH1 0x20 PUSH0 KECCAK256 SWAP1 JUMPDEST DUP2 SLOAD DUP2 MSTORE SWAP1 PUSH1 0x1 ADD SWAP1 PUSH1 0x20 ADD DUP1 DUP4 GT PUSH2 0x266 JUMPI DUP3 SWAP1 SUB PUSH1 0x1F AND DUP3 ADD SWAP2 JUMPDEST POP POP POP POP POP SWAP1 POP SWAP1 JUMP JUMPDEST PUSH0 DUP1 PUSH2 0x297 PUSH2 0x467 JUMP JUMPDEST SWAP1 POP PUSH2 0x2A4 DUP2 DUP6 DUP6 PUSH2 0x46E JUMP JUMPDEST PUSH1 0x1 SWAP2 POP POP SWAP3 SWAP2 POP POP JUMP JUMPDEST PUSH0 PUSH1 0x2 SLOAD SWAP1 POP SWAP1 JUMP JUMPDEST PUSH0 DUP1 PUSH2 0x2C2 PUSH2 0x467 JUMP JUMPDEST SWAP1 POP PUSH2 0x2CF DUP6 DUP3 DUP6 PUSH2 0x480 JUMP JUMPDEST PUSH2 0x2DA DUP6 DUP6 DUP6 PUSH2 0x512 JUMP JUMPDEST PUSH1 0x1 SWAP2 POP POP SWAP4 SWAP3 POP POP POP JUMP JUMPDEST PUSH0 PUSH1 0x12 SWAP1 POP SWAP1 JUMP JUMPDEST PUSH0 DUP1 PUSH0 DUP4 PUSH20 0xFFFFFFFFFFFFFFFFFFFFFFFFFFFFFFFFFFFFFFFF AND PUSH20 0xFFFFFFFFFFFFFFFFFFFFFFFFFFFFFFFFFFFFFFFF AND DUP2 MSTORE PUSH1 0x20 ADD SWAP1 DUP2 MSTORE PUSH1 0x20 ADD PUSH0 KECCAK256 SLOAD SWAP1 POP SWAP2 SWAP1 POP JUMP JUMPDEST PUSH1 0x60 PUSH1 0x4 DUP1 SLOAD PUSH2 0x342 SWAP1 PUSH2 0xCBE JUMP JUMPDEST DUP1 PUSH1 0x1F ADD PUSH1 0x20 DUP1 SWAP2 DIV MUL PUSH1 0x20 ADD PUSH1 0x40 MLOAD SWAP1 DUP2 ADD PUSH1 0x40 MSTORE DUP1 SWAP3 SWAP2 SWAP1 DUP2 DUP2 MSTORE PUSH1 0x20 ADD DUP3 DUP1 SLOAD PUSH2 0x36E SWAP1 PUSH2 0xCBE JUMP JUMPDEST DUP1 ISZERO PUSH2 0x3B9 JUMPI DUP1 PUSH1 0x1F LT PUSH2 0x390 JUMPI PUSH2 0x100 DUP1 DUP4 SLOAD DIV MUL DUP4 MSTORE SWAP2 PUSH1 0x20 ADD SWAP2 PUSH2 0x3B9 JUMP JUMPDEST DUP3 ADD SWAP2 SWAP1 PUSH0 MSTORE PUSH1 0x20 PUSH0 KECCAK256 SWAP1 JUMPDEST DUP2 SLOAD DUP2 MSTORE SWAP1 PUSH1 0x1 ADD SWAP1 PUSH1 0x20 ADD DUP1 DUP4 GT PUSH2 0x39C JUMPI DUP3 SWAP1 SUB PUSH1 0x1F AND DUP3 ADD SWAP2 JUMPDEST POP POP POP POP POP SWAP1 POP SWAP1 JUMP JUMPDEST PUSH0 DUP1 PUSH2 0x3CD PUSH2 0x467 JUMP JUMPDEST SWAP1 POP PUSH2 0x3DA DUP2 DUP6 DUP6 PUSH2 0x512 JUMP JUMPDEST PUSH1 0x1 SWAP2 POP POP SWAP3 SWAP2 POP POP JUMP JUMPDEST PUSH0 PUSH1 0x1 PUSH0 DUP5 PUSH20 0xFFFFFFFFFFFFFFFFFFFFFFFFFFFFFFFFFFFFFFFF AND PUSH20 0xFFFFFFFFFFFFFFFFFFFFFFFFFFFFFFFFFFFFFFFF AND DUP2 MSTORE PUSH1 0x20 ADD SWAP1 DUP2 MSTORE PUSH1 0x20 ADD PUSH0 KECCAK256 PUSH0 DUP4 PUSH20 0xFFFFFFFFFFFFFFFFFFFFFFFFFFFFFFFFFFFFFFFF AND PUSH20 0xFFFFFFFFFFFFFFFFFFFFFFFFFFFFFFFFFFFFFFFF AND DUP2 MSTORE PUSH1 0x20 ADD SWAP1 DUP2 MSTORE PUSH1 0x20 ADD PUSH0 KECCAK256 SLOAD SWAP1 POP SWAP3 SWAP2 POP POP JUMP JUMPDEST PUSH0 CALLER SWAP1 POP SWAP1 JUMP JUMPDEST PUSH2 0x47B DUP4 DUP4 DUP4 PUSH1 0x1 PUSH2 0x602 JUMP JUMPDEST POP POP POP JUMP JUMPDEST PUSH0 PUSH2 0x48B DUP5 DUP5 PUSH2 0x3E5 JUMP JUMPDEST SWAP1 POP PUSH32 0xFFFFFFFFFFFFFFFFFFFFFFFFFFFFFFFFFFFFFFFFFFFFFFFFFFFFFFFFFFFFFFFF DUP2 EQ PUSH2 0x50C JUMPI DUP2 DUP2 LT ISZERO PUSH2 0x4FD JUMPI DUP3 DUP2 DUP4 PUSH1 0x40 MLOAD PUSH32 0xFB8F41B200000000000000000000000000000000000000000000000000000000 DUP2 MSTORE PUSH1 0x4 ADD PUSH2 0x4F4 SWAP4 SWAP3 SWAP2 SWAP1 PUSH2 0xCFD JUMP JUMPDEST PUSH1 0x40 MLOAD DUP1 SWAP2 SUB SWAP1 REVERT JUMPDEST PUSH2 0x50B DUP5 DUP5 DUP5 DUP5 SUB PUSH0 PUSH2 0x602 JUMP JUMPDEST JUMPDEST POP POP POP POP JUMP JUMPDEST PUSH0 PUSH20 0xFFFFFFFFFFFFFFFFFFFFFFFFFFFFFFFFFFFFFFFF AND DUP4 PUSH20 0xFFFFFFFFFFFFFFFFFFFFFFFFFFFFFFFFFFFFFFFF AND SUB PUSH2 0x582 JUMPI PUSH0 PUSH1 0x40 MLOAD PUSH32 0x96C6FD1E00000000000000000000000000000000000000000000000000000000 DUP2 MSTORE PUSH1 0x4 ADD PUSH2 0x579 SWAP2 SWAP1 PUSH2 0xD32 JUMP JUMPDEST PUSH1 0x40 MLOAD DUP1 SWAP2 SUB SWAP1 REVERT JUMPDEST PUSH0 PUSH20 0xFFFFFFFFFFFFFFFFFFFFFFFFFFFFFFFFFFFFFFFF AND DUP3 PUSH20 0xFFFFFFFFFFFFFFFFFFFFFFFFFFFFFFFFFFFFFFFF AND SUB PUSH2 0x5F2 JUMPI PUSH0 PUSH1 0x40 MLOAD PUSH32 0xEC442F0500000000000000000000000000000000000000000000000000000000 DUP2 MSTORE PUSH1 0x4 ADD PUSH2 0x5E9 SWAP2 SWAP1 PUSH2 0xD32 JUMP JUMPDEST PUSH1 0x40 MLOAD DUP1 SWAP2 SUB SWAP1 REVERT JUMPDEST PUSH2 0x5FD DUP4 DUP4 DUP4 PUSH2 0x7D1 JUMP JUMPDEST POP POP POP JUMP JUMPDEST PUSH0 PUSH20 0xFFFFFFFFFFFFFFFFFFFFFFFFFFFFFFFFFFFFFFFF AND DUP5 PUSH20 0xFFFFFFFFFFFFFFFFFFFFFFFFFFFFFFFFFFFFFFFF AND SUB PUSH2 0x672 JUMPI PUSH0 PUSH1 0x40 MLOAD PUSH32 0xE602DF0500000000000000000000000000000000000000000000000000000000 DUP2 MSTORE PUSH1 0x4 ADD PUSH2 0x669 SWAP2 SWAP1 PUSH2 0xD32 JUMP JUMPDEST PUSH1 0x40 MLOAD DUP1 SWAP2 SUB SWAP1 REVERT JUMPDEST PUSH0 PUSH20 0xFFFFFFFFFFFFFFFFFFFFFFFFFFFFFFFFFFFFFFFF AND DUP4 PUSH20 0xFFFFFFFFFFFFFFFFFFFFFFFFFFFFFFFFFFFFFFFF AND SUB PUSH2 0x6E2 JUMPI PUSH0 PUSH1 0x40 MLOAD PUSH32 0x94280D6200000000000000000000000000000000000000000000000000000000 DUP2 MSTORE PUSH1 0x4 ADD PUSH2 0x6D9 SWAP2 SWAP1 PUSH2 0xD32 JUMP JUMPDEST PUSH1 0x40 MLOAD DUP1 SWAP2 SUB SWAP1 REVERT JUMPDEST DUP2 PUSH1 0x1 PUSH0 DUP7 PUSH20 0xFFFFFFFFFFFFFFFFFFFFFFFFFFFFFFFFFFFFFFFF AND PUSH20 0xFFFFFFFFFFFFFFFFFFFFFFFFFFFFFFFFFFFFFFFF AND DUP2 MSTORE PUSH1 0x20 ADD SWAP1 DUP2 MSTORE PUSH1 0x20 ADD PUSH0 KECCAK256 PUSH0 DUP6 PUSH20 0xFFFFFFFFFFFFFFFFFFFFFFFFFFFFFFFFFFFFFFFF AND PUSH20 0xFFFFFFFFFFFFFFFFFFFFFFFFFFFFFFFFFFFFFFFF AND DUP2 MSTORE PUSH1 0x20 ADD SWAP1 DUP2 MSTORE PUSH1 0x20 ADD PUSH0 KECCAK256 DUP2 SWAP1 SSTORE POP DUP1 ISZERO PUSH2 0x7CB JUMPI DUP3 PUSH20 0xFFFFFFFFFFFFFFFFFFFFFFFFFFFFFFFFFFFFFFFF AND DUP5 PUSH20 0xFFFFFFFFFFFFFFFFFFFFFFFFFFFFFFFFFFFFFFFF AND PUSH32 0x8C5BE1E5EBEC7D5BD14F71427D1E84F3DD0314C0F7B2291E5B200AC8C7C3B925 DUP5 PUSH1 0x40 MLOAD PUSH2 0x7C2 SWAP2 SWAP1 PUSH2 0xB8B JUMP JUMPDEST PUSH1 0x40 MLOAD DUP1 SWAP2 SUB SWAP1 LOG3 JUMPDEST POP POP POP POP JUMP JUMPDEST PUSH0 PUSH20 0xFFFFFFFFFFFFFFFFFFFFFFFFFFFFFFFFFFFFFFFF AND DUP4 PUSH20 0xFFFFFFFFFFFFFFFFFFFFFFFFFFFFFFFFFFFFFFFF AND SUB PUSH2 0x821 JUMPI DUP1 PUSH1 0x2 PUSH0 DUP3 DUP3 SLOAD PUSH2 0x815 SWAP2 SWAP1 PUSH2 0xD78 JUMP JUMPDEST SWAP3 POP POP DUP2 SWAP1 SSTORE POP PUSH2 0x8EF JUMP JUMPDEST PUSH0 DUP1 PUSH0 DUP6 PUSH20 0xFFFFFFFFFFFFFFFFFFFFFFFFFFFFFFFFFFFFFFFF AND PUSH20 0xFFFFFFFFFFFFFFFFFFFFFFFFFFFFFFFFFFFFFFFF AND DUP2 MSTORE PUSH1 0x20 ADD SWAP1 DUP2 MSTORE PUSH1 0x20 ADD PUSH0 KECCAK256 SLOAD SWAP1 POP DUP2 DUP2 LT ISZERO PUSH2 0x8AA JUMPI DUP4 DUP2 DUP4 PUSH1 0x40 MLOAD PUSH32 0xE450D38C00000000000000000000000000000000000000000000000000000000 DUP2 MSTORE PUSH1 0x4 ADD PUSH2 0x8A1 SWAP4 SWAP3 SWAP2 SWAP1 PUSH2 0xCFD JUMP JUMPDEST PUSH1 0x40 MLOAD DUP1 SWAP2 SUB SWAP1 REVERT JUMPDEST DUP2 DUP2 SUB PUSH0 DUP1 DUP7 PUSH20 0xFFFFFFFFFFFFFFFFFFFFFFFFFFFFFFFFFFFFFFFF AND PUSH20 0xFFFFFFFFFFFFFFFFFFFFFFFFFFFFFFFFFFFFFFFF AND DUP2 MSTORE PUSH1 0x20 ADD SWAP1 DUP2 MSTORE PUSH1 0x20 ADD PUSH0 KECCAK256 DUP2 SWAP1 SSTORE POP POP JUMPDEST PUSH0 PUSH20 0xFFFFFFFFFFFFFFFFFFFFFFFFFFFFFFFFFFFFFFFF AND DUP3 PUSH20 0xFFFFFFFFFFFFFFFFFFFFFFFFFFFFFFFFFFFFFFFF AND SUB PUSH2 0x936 JUMPI DUP1 PUSH1 0x2 PUSH0 DUP3 DUP3 SLOAD SUB SWAP3 POP POP DUP2 SWAP1 SSTORE POP PUSH2 0x980 JUMP JUMPDEST DUP1 PUSH0 DUP1 DUP5 PUSH20 0xFFFFFFFFFFFFFFFFFFFFFFFFFFFFFFFFFFFFFFFF AND PUSH20 0xFFFFFFFFFFFFFFFFFFFFFFFFFFFFFFFFFFFFFFFF AND DUP2 MSTORE PUSH1 0x20 ADD SWAP1 DUP2 MSTORE PUSH1 0x20 ADD PUSH0 KECCAK256 PUSH0 DUP3 DUP3 SLOAD ADD SWAP3 POP POP DUP2 SWAP1 SSTORE POP JUMPDEST DUP2 PUSH20 0xFFFFFFFFFFFFFFFFFFFFFFFFFFFFFFFFFFFFFFFF AND DUP4 PUSH20 0xFFFFFFFFFFFFFFFFFFFFFFFFFFFFFFFFFFFFFFFF AND PUSH32 0xDDF252AD1BE2C89B69C2B068FC378DAA952BA7F163C4A11628F55A4DF523B3EF DUP4 PUSH1 0x40 MLOAD PUSH2 0x9DD SWAP2 SWAP1 PUSH2 0xB8B JUMP JUMPDEST PUSH1 0x40 MLOAD DUP1 SWAP2 SUB SWAP1 LOG3 POP POP POP JUMP JUMPDEST PUSH0 DUP2 MLOAD SWAP1 POP SWAP2 SWAP1 POP JUMP JUMPDEST PUSH0 DUP3 DUP3 MSTORE PUSH1 0x20 DUP3 ADD SWAP1 POP SWAP3 SWAP2 POP POP JUMP JUMPDEST DUP3 DUP2 DUP4 MCOPY PUSH0 DUP4 DUP4 ADD MSTORE POP POP POP JUMP JUMPDEST PUSH0 PUSH1 0x1F NOT PUSH1 0x1F DUP4 ADD AND SWAP1 POP SWAP2 SWAP1 POP JUMP JUMPDEST PUSH0 PUSH2 0xA2C DUP3 PUSH2 0x9EA JUMP JUMPDEST PUSH2 0xA36 DUP2 DUP6 PUSH2 0x9F4 JUMP JUMPDEST SWAP4 POP PUSH2 0xA46 DUP2 DUP6 PUSH1 0x20 DUP7 ADD PUSH2 0xA04 JUMP JUMPDEST PUSH2 0xA4F DUP2 PUSH2 0xA12 JUMP JUMPDEST DUP5 ADD SWAP2 POP POP SWAP3 SWAP2 POP POP JUMP JUMPDEST PUSH0 PUSH1 0x20 DUP3 ADD SWAP1 POP DUP2 DUP2 SUB PUSH0 DUP4 ADD MSTORE PUSH2 0xA72 DUP2 DUP5 PUSH2 0xA22 JUMP JUMPDEST SWAP1 POP SWAP3 SWAP2 POP POP JUMP JUMPDEST PUSH0 DUP1 REVERT JUMPDEST PUSH0 PUSH20 0xFFFFFFFFFFFFFFFFFFFFFFFFFFFFFFFFFFFFFFFF DUP3 AND SWAP1 POP SWAP2 SWAP1 POP JUMP JUMPDEST PUSH0 PUSH2 0xAA7 DUP3 PUSH2 0xA7E JUMP JUMPDEST SWAP1 POP SWAP2 SWAP1 POP JUMP JUMPDEST PUSH2 0xAB7 DUP2 PUSH2 0xA9D JUMP JUMPDEST DUP2 EQ PUSH2 0xAC1 JUMPI PUSH0 DUP1 REVERT JUMPDEST POP JUMP JUMPDEST PUSH0 DUP2 CALLDATALOAD SWAP1 POP PUSH2 0xAD2 DUP2 PUSH2 0xAAE JUMP JUMPDEST SWAP3 SWAP2 POP POP JUMP JUMPDEST PUSH0 DUP2 SWAP1 POP SWAP2 SWAP1 POP JUMP JUMPDEST PUSH2 0xAEA DUP2 PUSH2 0xAD8 JUMP JUMPDEST DUP2 EQ PUSH2 0xAF4 JUMPI PUSH0 DUP1 REVERT JUMPDEST POP JUMP JUMPDEST PUSH0 DUP2 CALLDATALOAD SWAP1 POP PUSH2 0xB05 DUP2 PUSH2 0xAE1 JUMP JUMPDEST SWAP3 SWAP2 POP POP JUMP JUMPDEST PUSH0 DUP1 PUSH1 0x40 DUP4 DUP6 SUB SLT ISZERO PUSH2 0xB21 JUMPI PUSH2 0xB20 PUSH2 0xA7A JUMP JUMPDEST JUMPDEST PUSH0 PUSH2 0xB2E DUP6 DUP3 DUP7 ADD PUSH2 0xAC4 JUMP JUMPDEST SWAP3 POP POP PUSH1 0x20 PUSH2 0xB3F DUP6 DUP3 DUP7 ADD PUSH2 0xAF7 JUMP JUMPDEST SWAP2 POP POP SWAP3 POP SWAP3 SWAP1 POP JUMP JUMPDEST PUSH0 DUP2 ISZERO ISZERO SWAP1 POP SWAP2 SWAP1 POP JUMP JUMPDEST PUSH2 0xB5D DUP2 PUSH2 0xB49 JUMP JUMPDEST DUP3 MSTORE POP POP JUMP JUMPDEST PUSH0 PUSH1 0x20 DUP3 ADD SWAP1 POP PUSH2 0xB76 PUSH0 DUP4 ADD DUP5 PUSH2 0xB54 JUMP JUMPDEST SWAP3 SWAP2 POP POP JUMP JUMPDEST PUSH2 0xB85 DUP2 PUSH2 0xAD8 JUMP JUMPDEST DUP3 MSTORE POP POP JUMP JUMPDEST PUSH0 PUSH1 0x20 DUP3 ADD SWAP1 POP PUSH2 0xB9E PUSH0 DUP4 ADD DUP5 PUSH2 0xB7C JUMP JUMPDEST SWAP3 SWAP2 POP POP JUMP JUMPDEST PUSH0 DUP1 PUSH0 PUSH1 0x60 DUP5 DUP7 SUB SLT ISZERO PUSH2 0xBBB JUMPI PUSH2 0xBBA PUSH2 0xA7A JUMP JUMPDEST JUMPDEST PUSH0 PUSH2 0xBC8 DUP7 DUP3 DUP8 ADD PUSH2 0xAC4 JUMP JUMPDEST SWAP4 POP POP PUSH1 0x20 PUSH2 0xBD9 DUP7 DUP3 DUP8 ADD PUSH2 0xAC4 JUMP JUMPDEST SWAP3 POP POP PUSH1 0x40 PUSH2 0xBEA DUP7 DUP3 DUP8 ADD PUSH2 0xAF7 JUMP JUMPDEST SWAP2 POP POP SWAP3 POP SWAP3 POP SWAP3 JUMP JUMPDEST PUSH0 PUSH1 0xFF DUP3 AND SWAP1 POP SWAP2 SWAP1 POP JUMP JUMPDEST PUSH2 0xC09 DUP2 PUSH2 0xBF4 JUMP JUMPDEST DUP3 MSTORE POP POP JUMP JUMPDEST PUSH0 PUSH1 0x20 DUP3 ADD SWAP1 POP PUSH2 0xC22 PUSH0 DUP4 ADD DUP5 PUSH2 0xC00 JUMP JUMPDEST SWAP3 SWAP2 POP POP JUMP JUMPDEST PUSH0 PUSH1 0x20 DUP3 DUP5 SUB SLT ISZERO PUSH2 0xC3D JUMPI PUSH2 0xC3C PUSH2 0xA7A JUMP JUMPDEST JUMPDEST PUSH0 PUSH2 0xC4A DUP5 DUP3 DUP6 ADD PUSH2 0xAC4 JUMP JUMPDEST SWAP2 POP POP SWAP3 SWAP2 POP POP JUMP JUMPDEST PUSH0 DUP1 PUSH1 0x40 DUP4 DUP6 SUB SLT ISZERO PUSH2 0xC69 JUMPI PUSH2 0xC68 PUSH2 0xA7A JUMP JUMPDEST JUMPDEST PUSH0 PUSH2 0xC76 DUP6 DUP3 DUP7 ADD PUSH2 0xAC4 JUMP JUMPDEST SWAP3 POP POP PUSH1 0x20 PUSH2 0xC87 DUP6 DUP3 DUP7 ADD PUSH2 0xAC4 JUMP JUMPDEST SWAP2 POP POP SWAP3 POP SWAP3 SWAP1 POP JUMP JUMPDEST PUSH32 0x4E487B7100000000000000000000000000000000000000000000000000000000 PUSH0 MSTORE PUSH1 0x22 PUSH1 0x4 MSTORE PUSH1 0x24 PUSH0 REVERT JUMPDEST PUSH0 PUSH1 0x2 DUP3 DIV SWAP1 POP PUSH1 0x1 DUP3 AND DUP1 PUSH2 0xCD5 JUMPI PUSH1 0x7F DUP3 AND SWAP2 POP JUMPDEST PUSH1 0x20 DUP3 LT DUP2 SUB PUSH2 0xCE8 JUMPI PUSH2 0xCE7 PUSH2 0xC91 JUMP JUMPDEST JUMPDEST POP SWAP2 SWAP1 POP JUMP JUMPDEST PUSH2 0xCF7 DUP2 PUSH2 0xA9D JUMP JUMPDEST DUP3 MSTORE POP POP JUMP JUMPDEST PUSH0 PUSH1 0x60 DUP3 ADD SWAP1 POP PUSH2 0xD10 PUSH0 DUP4 ADD DUP7 PUSH2 0xCEE JUMP JUMPDEST PUSH2 0xD1D PUSH1 0x20 DUP4 ADD DUP6 PUSH2 0xB7C JUMP JUMPDEST PUSH2 0xD2A PUSH1 0x40 DUP4 ADD DUP5 PUSH2 0xB7C JUMP JUMPDEST SWAP5 SWAP4 POP POP POP POP JUMP JUMPDEST PUSH0 PUSH1 0x20 DUP3 ADD SWAP1 POP PUSH2 0xD45 PUSH0 DUP4 ADD DUP5 PUSH2 0xCEE JUMP JUMPDEST SWAP3 SWAP2 POP POP JUMP JUMPDEST PUSH32 0x4E487B7100000000000000000000000000000000000000000000000000000000 PUSH0 MSTORE PUSH1 0x11 PUSH1 0x4 MSTORE PUSH1 0x24 PUSH0 REVERT JUMPDEST PUSH0 PUSH2 0xD82 DUP3 PUSH2 0xAD8 JUMP JUMPDEST SWAP2 POP PUSH2 0xD8D DUP4 PUSH2 0xAD8 JUMP JUMPDEST SWAP3 POP DUP3 DUP3 ADD SWAP1 POP DUP1 DUP3 GT ISZERO PUSH2 0xDA5 JUMPI PUSH2 0xDA4 PUSH2 0xD4B JUMP JUMPDEST JUMPDEST SWAP3 SWAP2 POP POP JUMP INVALID LOG2 PUSH5 0x6970667358 0x22 SLT KECCAK256 EXTCODECOPY 0xB3 0x24 0xB4 0x2F CALLVALUE 0x4E 0xBB DUP5 PUSH13 0x67BBC602204C557E6CB64349F6 0xBE 0xC1 SWAP15 DUP6 DUP6 RETURNDATACOPY SHR CALLVALUE 0xD5 PUSH5 0x736F6C6343 STOP ADDMOD BYTE STOP CALLER LOG2 PUSH5 0x6970667358 0x22 SLT KECCAK256 0xA9 0x23 0x24 DUP14 0xCE SAR PC CODECOPY 0xD2 0xE2 ADDMOD 0xDF ISZERO RETURNDATACOPY CALLER 0xCD CODECOPY 0x4D PREVRANDAO BYTE PUSH25 0xE61D2F8C503F37A2E6F04D64736F6C634300081A0033000000 "
				},
				"gasEstimates": {
					"creation": {
						"codeDepositCost": "3176400",
						"executionCost": "infinite",
						"totalCost": "infinite"
					},
					"external": {
						"allowance(address,address)": "infinite",
						"balanceOf(address)": "2869",
						"datasets(uint256)": "infinite",
						"deployDataPunkCoin()": "infinite",
						"dpcToken()": "infinite",
						"dpcTokenAddress()": "2619",
						"getAllDatasets()": "infinite",
						"getAllValidators()": "infinite",
						"getDPCBalanceOf(address)": "infinite",
						"getDPCSupply()": "infinite",
						"isDataPunkCoinDeployed()": "2583",
						"makeDatasePrice()": "2448",
						"makeDataset(uint256,uint256)": "infinite",
						"owner()": "2560",
						"publicValidators(uint256)": "5033",
						"purchaseDataset(uint256)": "infinite",
						"registerAsValidator()": "49966",
						"updateDataset(uint256,uint256)": "infinite",
						"validateDataset(uint256)": "infinite"
					}
				},
				"methodIdentifiers": {
					"allowance(address,address)": "dd62ed3e",
					"balanceOf(address)": "70a08231",
					"datasets(uint256)": "1cff85e1",
					"deployDataPunkCoin()": "c76cc728",
					"dpcToken()": "01c427d7",
					"dpcTokenAddress()": "b3a1c41a",
					"getAllDatasets()": "4d72cd12",
					"getAllValidators()": "f3513a37",
					"getDPCBalanceOf(address)": "7c1a4bcd",
					"getDPCSupply()": "eb97ffa2",
					"isDataPunkCoinDeployed()": "90d64271",
					"makeDatasePrice()": "7da0a948",
					"makeDataset(uint256,uint256)": "204b317b",
					"owner()": "8da5cb5b",
					"publicValidators(uint256)": "7ac64245",
					"purchaseDataset(uint256)": "49ee56f9",
					"registerAsValidator()": "f0acd184",
					"updateDataset(uint256,uint256)": "3b103d33",
					"validateDataset(uint256)": "a6359308"
				}
			},
			"storageLayout": {
				"storage": [
					{
						"astId": 814,
						"contract": "contracts/DataPunk.sol:DataPunk",
						"label": "_owner",
						"offset": 0,
						"slot": "0",
						"type": "t_address"
					},
					{
						"astId": 817,
						"contract": "contracts/DataPunk.sol:DataPunk",
						"label": "isDataPunkCoinDeployed",
						"offset": 20,
						"slot": "0",
						"type": "t_bool"
					},
					{
						"astId": 820,
						"contract": "contracts/DataPunk.sol:DataPunk",
						"label": "makeDatasePrice",
						"offset": 0,
						"slot": "1",
						"type": "t_uint256"
					},
					{
						"astId": 823,
						"contract": "contracts/DataPunk.sol:DataPunk",
						"label": "dpcToken",
						"offset": 0,
						"slot": "2",
						"type": "t_contract(IERC20)729"
					},
					{
						"astId": 825,
						"contract": "contracts/DataPunk.sol:DataPunk",
						"label": "dpcTokenAddress",
						"offset": 0,
						"slot": "3",
						"type": "t_address"
					},
					{
						"astId": 828,
						"contract": "contracts/DataPunk.sol:DataPunk",
						"label": "publicValidators",
						"offset": 0,
						"slot": "4",
						"type": "t_array(t_address)dyn_storage"
					},
					{
						"astId": 842,
						"contract": "contracts/DataPunk.sol:DataPunk",
						"label": "balanceOf",
						"offset": 0,
						"slot": "5",
						"type": "t_mapping(t_address,t_uint256)"
					},
					{
						"astId": 848,
						"contract": "contracts/DataPunk.sol:DataPunk",
						"label": "allowance",
						"offset": 0,
						"slot": "6",
						"type": "t_mapping(t_address,t_mapping(t_address,t_uint256))"
					},
					{
						"astId": 904,
						"contract": "contracts/DataPunk.sol:DataPunk",
						"label": "datasets",
						"offset": 0,
						"slot": "7",
						"type": "t_array(t_struct(Dataset)900_storage)dyn_storage"
					}
				],
				"types": {
					"t_address": {
						"encoding": "inplace",
						"label": "address",
						"numberOfBytes": "20"
					},
					"t_array(t_address)dyn_storage": {
						"base": "t_address",
						"encoding": "dynamic_array",
						"label": "address[]",
						"numberOfBytes": "32"
					},
					"t_array(t_struct(Dataset)900_storage)dyn_storage": {
						"base": "t_struct(Dataset)900_storage",
						"encoding": "dynamic_array",
						"label": "struct DataPunk.Dataset[]",
						"numberOfBytes": "32"
					},
					"t_bool": {
						"encoding": "inplace",
						"label": "bool",
						"numberOfBytes": "1"
					},
					"t_contract(IERC20)729": {
						"encoding": "inplace",
						"label": "contract IERC20",
						"numberOfBytes": "20"
					},
					"t_mapping(t_address,t_mapping(t_address,t_uint256))": {
						"encoding": "mapping",
						"key": "t_address",
						"label": "mapping(address => mapping(address => uint256))",
						"numberOfBytes": "32",
						"value": "t_mapping(t_address,t_uint256)"
					},
					"t_mapping(t_address,t_uint256)": {
						"encoding": "mapping",
						"key": "t_address",
						"label": "mapping(address => uint256)",
						"numberOfBytes": "32",
						"value": "t_uint256"
					},
					"t_struct(Dataset)900_storage": {
						"encoding": "inplace",
						"label": "struct DataPunk.Dataset",
						"members": [
							{
								"astId": 890,
								"contract": "contracts/DataPunk.sol:DataPunk",
								"label": "creator",
								"offset": 0,
								"slot": "0",
								"type": "t_address"
							},
							{
								"astId": 892,
								"contract": "contracts/DataPunk.sol:DataPunk",
								"label": "price",
								"offset": 0,
								"slot": "1",
								"type": "t_uint256"
							},
							{
								"astId": 894,
								"contract": "contracts/DataPunk.sol:DataPunk",
								"label": "validationReward",
								"offset": 0,
								"slot": "2",
								"type": "t_uint256"
							},
							{
								"astId": 897,
								"contract": "contracts/DataPunk.sol:DataPunk",
								"label": "validators",
								"offset": 0,
								"slot": "3",
								"type": "t_array(t_address)dyn_storage"
							},
							{
								"astId": 899,
								"contract": "contracts/DataPunk.sol:DataPunk",
								"label": "isValidated",
								"offset": 0,
								"slot": "4",
								"type": "t_bool"
							}
						],
						"numberOfBytes": "160"
					},
					"t_uint256": {
						"encoding": "inplace",
						"label": "uint256",
						"numberOfBytes": "32"
					}
				}
			},
			"userdoc": {
				"kind": "user",
				"methods": {},
				"version": 1
			}
		}
	}
}