{
	"contracts/DataPunk.sol": {
		"DataPunk": {
			"abi": [
				{
					"inputs": [],
					"stateMutability": "nonpayable",
					"type": "constructor"
				},
				{
					"anonymous": false,
					"inputs": [
						{
							"indexed": false,
							"internalType": "address",
							"name": "tokenAddress",
							"type": "address"
						}
					],
					"name": "DataPunkCoinDeployed",
					"type": "event"
				},
				{
					"anonymous": false,
					"inputs": [
						{
							"indexed": true,
							"internalType": "uint256",
							"name": "datasetId",
							"type": "uint256"
						},
						{
							"indexed": true,
							"internalType": "address",
							"name": "creator",
							"type": "address"
						},
						{
							"indexed": false,
							"internalType": "uint256",
							"name": "reward",
							"type": "uint256"
						}
					],
					"name": "DatasetCreated",
					"type": "event"
				},
				{
					"anonymous": false,
					"inputs": [
						{
							"indexed": true,
							"internalType": "uint256",
							"name": "datasetId",
							"type": "uint256"
						},
						{
							"indexed": true,
							"internalType": "address",
							"name": "maker",
							"type": "address"
						},
						{
							"indexed": false,
							"internalType": "uint256",
							"name": "cost",
							"type": "uint256"
						}
					],
					"name": "DatasetMaked",
					"type": "event"
				},
				{
					"anonymous": false,
					"inputs": [
						{
							"indexed": true,
							"internalType": "uint256",
							"name": "datasetId",
							"type": "uint256"
						},
						{
							"indexed": true,
							"internalType": "address",
							"name": "purchaser",
							"type": "address"
						},
						{
							"indexed": false,
							"internalType": "uint256",
							"name": "cost",
							"type": "uint256"
						}
					],
					"name": "DatasetPurchased",
					"type": "event"
				},
				{
					"anonymous": false,
					"inputs": [
						{
							"indexed": true,
							"internalType": "uint256",
							"name": "datasetId",
							"type": "uint256"
						},
						{
							"indexed": true,
							"internalType": "address",
							"name": "validator",
							"type": "address"
						},
						{
							"indexed": false,
							"internalType": "uint256",
							"name": "reward",
							"type": "uint256"
						}
					],
					"name": "DatasetValidated",
					"type": "event"
				},
				{
					"anonymous": false,
					"inputs": [
						{
							"indexed": true,
							"internalType": "address",
							"name": "validator",
							"type": "address"
						}
					],
					"name": "ValidatorRegistered",
					"type": "event"
				},
				{
					"inputs": [
						{
							"internalType": "address",
							"name": "",
							"type": "address"
						},
						{
							"internalType": "address",
							"name": "",
							"type": "address"
						}
					],
					"name": "allowance",
					"outputs": [
						{
							"internalType": "uint256",
							"name": "",
							"type": "uint256"
						}
					],
					"stateMutability": "view",
					"type": "function"
				},
				{
					"inputs": [
						{
							"internalType": "uint256",
							"name": "amount",
							"type": "uint256"
						}
					],
					"name": "approve",
					"outputs": [],
					"stateMutability": "nonpayable",
					"type": "function"
				},
				{
					"inputs": [
						{
							"internalType": "address",
							"name": "",
							"type": "address"
						}
					],
					"name": "balanceOf",
					"outputs": [
						{
							"internalType": "uint256",
							"name": "",
							"type": "uint256"
						}
					],
					"stateMutability": "view",
					"type": "function"
				},
				{
					"inputs": [
						{
							"internalType": "uint256",
							"name": "price",
							"type": "uint256"
						},
						{
							"internalType": "uint256",
							"name": "validationReward",
							"type": "uint256"
						}
					],
					"name": "createDataset",
					"outputs": [
						{
							"internalType": "uint256",
							"name": "",
							"type": "uint256"
						}
					],
					"stateMutability": "nonpayable",
					"type": "function"
				},
				{
					"inputs": [
						{
							"internalType": "uint256",
							"name": "",
							"type": "uint256"
						}
					],
					"name": "datasets",
					"outputs": [
						{
							"internalType": "address",
							"name": "creator",
							"type": "address"
						},
						{
							"internalType": "uint256",
							"name": "price",
							"type": "uint256"
						},
						{
							"internalType": "uint256",
							"name": "validationReward",
							"type": "uint256"
						},
						{
							"internalType": "bool",
							"name": "isValidated",
							"type": "bool"
						}
					],
					"stateMutability": "view",
					"type": "function"
				},
				{
					"inputs": [
						{
							"internalType": "uint256",
							"name": "_amount",
							"type": "uint256"
						}
					],
					"name": "deployDataPunkCoin",
					"outputs": [],
					"stateMutability": "nonpayable",
					"type": "function"
				},
				{
					"inputs": [],
					"name": "dpcToken",
					"outputs": [
						{
							"internalType": "contract IERC20",
							"name": "",
							"type": "address"
						}
					],
					"stateMutability": "view",
					"type": "function"
				},
				{
					"inputs": [],
					"name": "dpcTokenAddress",
					"outputs": [
						{
							"internalType": "address",
							"name": "",
							"type": "address"
						}
					],
					"stateMutability": "view",
					"type": "function"
				},
				{
					"inputs": [],
					"name": "getAllDatasets",
					"outputs": [
						{
							"internalType": "address[]",
							"name": "creators",
							"type": "address[]"
						},
						{
							"internalType": "uint256[]",
							"name": "prices",
							"type": "uint256[]"
						},
						{
							"internalType": "uint256[]",
							"name": "validationRewards",
							"type": "uint256[]"
						},
						{
							"internalType": "bool[]",
							"name": "isValidatedFlags",
							"type": "bool[]"
						}
					],
					"stateMutability": "view",
					"type": "function"
				},
				{
					"inputs": [],
					"name": "getAllValidators",
					"outputs": [
						{
							"internalType": "address[]",
							"name": "",
							"type": "address[]"
						}
					],
					"stateMutability": "view",
					"type": "function"
				},
				{
					"inputs": [
						{
							"internalType": "address",
							"name": "account",
							"type": "address"
						}
					],
					"name": "getDPCBalanceOf",
					"outputs": [
						{
							"internalType": "uint256",
							"name": "",
							"type": "uint256"
						}
					],
					"stateMutability": "view",
					"type": "function"
				},
				{
					"inputs": [],
					"name": "getDPCSupply",
					"outputs": [
						{
							"internalType": "uint256",
							"name": "",
							"type": "uint256"
						}
					],
					"stateMutability": "view",
					"type": "function"
				},
				{
					"inputs": [],
					"name": "isDataPunkCoinDeployed",
					"outputs": [
						{
							"internalType": "bool",
							"name": "",
							"type": "bool"
						}
					],
					"stateMutability": "view",
					"type": "function"
				},
				{
					"inputs": [],
					"name": "makeDatasePrice",
					"outputs": [
						{
							"internalType": "uint256",
							"name": "",
							"type": "uint256"
						}
					],
					"stateMutability": "view",
					"type": "function"
				},
				{
					"inputs": [
						{
							"internalType": "uint256",
							"name": "price",
							"type": "uint256"
						},
						{
							"internalType": "uint256",
							"name": "validationReward",
							"type": "uint256"
						}
					],
					"name": "makeDataset",
					"outputs": [],
					"stateMutability": "nonpayable",
					"type": "function"
				},
				{
					"inputs": [],
					"name": "owner",
					"outputs": [
						{
							"internalType": "address",
							"name": "",
							"type": "address"
						}
					],
					"stateMutability": "view",
					"type": "function"
				},
				{
					"inputs": [
						{
							"internalType": "uint256",
							"name": "",
							"type": "uint256"
						}
					],
					"name": "publicValidators",
					"outputs": [
						{
							"internalType": "address",
							"name": "",
							"type": "address"
						}
					],
					"stateMutability": "view",
					"type": "function"
				},
				{
					"inputs": [
						{
							"internalType": "uint256",
							"name": "datasetId",
							"type": "uint256"
						}
					],
					"name": "purchaseDataset",
					"outputs": [],
					"stateMutability": "nonpayable",
					"type": "function"
				},
				{
					"inputs": [],
					"name": "registerAsValidator",
					"outputs": [],
					"stateMutability": "nonpayable",
					"type": "function"
				},
				{
					"inputs": [
						{
							"internalType": "uint256",
							"name": "datasetId",
							"type": "uint256"
						}
					],
					"name": "validateDataset",
					"outputs": [],
					"stateMutability": "nonpayable",
					"type": "function"
				}
			],
			"devdoc": {
				"kind": "dev",
				"methods": {},
				"version": 1
			},
			"evm": {
				"assembly": "    /* \"contracts/DataPunk.sol\":563:7710  contract DataPunk {... */\n  mstore(0x40, 0x80)\n    /* \"contracts/DataPunk.sol\":652:657  false */\n  0x00\n    /* \"contracts/DataPunk.sol\":615:657  bool public isDataPunkCoinDeployed = false */\n  dup1\n  exp(0x0100, 0x14)\n  dup2\n  sload\n  dup2\n  0xff\n  mul\n  not\n  and\n  swap1\n  dup4\n  iszero\n  iszero\n  mul\n  or\n  swap1\n  sstore\n  pop\n    /* \"contracts/DataPunk.sol\":696:698  10 */\n  0x0a\n    /* \"contracts/DataPunk.sol\":663:698  uint256 public makeDatasePrice = 10 */\n  0x01\n  sstore\n    /* \"contracts/DataPunk.sol\":1714:1817  constructor() {... */\n  callvalue\n  dup1\n  iszero\n  tag_1\n  jumpi\n  0x00\n  dup1\n  revert\ntag_1:\n  pop\n    /* \"contracts/DataPunk.sol\":1800:1810  msg.sender */\n  caller\n    /* \"contracts/DataPunk.sol\":1791:1797  _owner */\n  0x00\n  dup1\n    /* \"contracts/DataPunk.sol\":1791:1810  _owner = msg.sender */\n  0x0100\n  exp\n  dup2\n  sload\n  dup2\n  0xffffffffffffffffffffffffffffffffffffffff\n  mul\n  not\n  and\n  swap1\n  dup4\n  0xffffffffffffffffffffffffffffffffffffffff\n  and\n  mul\n  or\n  swap1\n  sstore\n  pop\n    /* \"contracts/DataPunk.sol\":563:7710  contract DataPunk {... */\n  dataSize(sub_0)\n  dup1\n  dataOffset(sub_0)\n  0x00\n  codecopy\n  0x00\n  return\nstop\n\nsub_0: assembly {\n        /* \"contracts/DataPunk.sol\":563:7710  contract DataPunk {... */\n      mstore(0x40, 0x80)\n      callvalue\n      dup1\n      iszero\n      tag_1\n      jumpi\n      0x00\n      dup1\n      revert\n    tag_1:\n      pop\n      jumpi(tag_2, lt(calldatasize, 0x04))\n      shr(0xe0, calldataload(0x00))\n      dup1\n      0x8da5cb5b\n      gt\n      tag_23\n      jumpi\n      dup1\n      0xb759f954\n      gt\n      tag_24\n      jumpi\n      dup1\n      0xb759f954\n      eq\n      tag_18\n      jumpi\n      dup1\n      0xdd62ed3e\n      eq\n      tag_19\n      jumpi\n      dup1\n      0xeb97ffa2\n      eq\n      tag_20\n      jumpi\n      dup1\n      0xf0acd184\n      eq\n      tag_21\n      jumpi\n      dup1\n      0xf3513a37\n      eq\n      tag_22\n      jumpi\n      jump(tag_2)\n    tag_24:\n      dup1\n      0x8da5cb5b\n      eq\n      tag_13\n      jumpi\n      dup1\n      0x90d64271\n      eq\n      tag_14\n      jumpi\n      dup1\n      0xa6359308\n      eq\n      tag_15\n      jumpi\n      dup1\n      0xa9ef507b\n      eq\n      tag_16\n      jumpi\n      dup1\n      0xb3a1c41a\n      eq\n      tag_17\n      jumpi\n      jump(tag_2)\n    tag_23:\n      dup1\n      0x4d72cd12\n      gt\n      tag_25\n      jumpi\n      dup1\n      0x4d72cd12\n      eq\n      tag_8\n      jumpi\n      dup1\n      0x70a08231\n      eq\n      tag_9\n      jumpi\n      dup1\n      0x7ac64245\n      eq\n      tag_10\n      jumpi\n      dup1\n      0x7c1a4bcd\n      eq\n      tag_11\n      jumpi\n      dup1\n      0x7da0a948\n      eq\n      tag_12\n      jumpi\n      jump(tag_2)\n    tag_25:\n      dup1\n      0x01c427d7\n      eq\n      tag_3\n      jumpi\n      dup1\n      0x1cff85e1\n      eq\n      tag_4\n      jumpi\n      dup1\n      0x204b317b\n      eq\n      tag_5\n      jumpi\n      dup1\n      0x25129b13\n      eq\n      tag_6\n      jumpi\n      dup1\n      0x49ee56f9\n      eq\n      tag_7\n      jumpi\n    tag_2:\n      0x00\n      dup1\n      revert\n        /* \"contracts/DataPunk.sol\":704:726  IERC20 public dpcToken */\n    tag_3:\n      tag_26\n      tag_27\n      jump\t// in\n    tag_26:\n      mload(0x40)\n      tag_28\n      swap2\n      swap1\n      tag_29\n      jump\t// in\n    tag_28:\n      mload(0x40)\n      dup1\n      swap2\n      sub\n      swap1\n      return\n        /* \"contracts/DataPunk.sol\":1614:1639  Dataset[] public datasets */\n    tag_4:\n      tag_30\n      0x04\n      dup1\n      calldatasize\n      sub\n      dup2\n      add\n      swap1\n      tag_31\n      swap2\n      swap1\n      tag_32\n      jump\t// in\n    tag_31:\n      tag_33\n      jump\t// in\n    tag_30:\n      mload(0x40)\n      tag_34\n      swap5\n      swap4\n      swap3\n      swap2\n      swap1\n      tag_35\n      jump\t// in\n    tag_34:\n      mload(0x40)\n      dup1\n      swap2\n      sub\n      swap1\n      return\n        /* \"contracts/DataPunk.sol\":5632:6269  function makeDataset(uint256 price, uint256 validationReward) public {... */\n    tag_5:\n      tag_36\n      0x04\n      dup1\n      calldatasize\n      sub\n      dup2\n      add\n      swap1\n      tag_37\n      swap2\n      swap1\n      tag_38\n      jump\t// in\n    tag_37:\n      tag_39\n      jump\t// in\n    tag_36:\n      stop\n        /* \"contracts/DataPunk.sol\":2139:2884  function deployDataPunkCoin(uint256 _amount) public onlyOwner {... */\n    tag_6:\n      tag_40\n      0x04\n      dup1\n      calldatasize\n      sub\n      dup2\n      add\n      swap1\n      tag_41\n      swap2\n      swap1\n      tag_32\n      jump\t// in\n    tag_41:\n      tag_42\n      jump\t// in\n    tag_40:\n      stop\n        /* \"contracts/DataPunk.sol\":5242:5603  function purchaseDataset(uint256 datasetId) public {... */\n    tag_7:\n      tag_43\n      0x04\n      dup1\n      calldatasize\n      sub\n      dup2\n      add\n      swap1\n      tag_44\n      swap2\n      swap1\n      tag_32\n      jump\t// in\n    tag_44:\n      tag_45\n      jump\t// in\n    tag_43:\n      stop\n        /* \"contracts/DataPunk.sol\":3076:3927  function getAllDatasets() public view returns (... */\n    tag_8:\n      tag_46\n      tag_47\n      jump\t// in\n    tag_46:\n      mload(0x40)\n      tag_48\n      swap5\n      swap4\n      swap3\n      swap2\n      swap1\n      tag_49\n      jump\t// in\n    tag_48:\n      mload(0x40)\n      dup1\n      swap2\n      sub\n      swap1\n      return\n        /* \"contracts/DataPunk.sol\":808:852  mapping(address => uint256) public balanceOf */\n    tag_9:\n      tag_50\n      0x04\n      dup1\n      calldatasize\n      sub\n      dup2\n      add\n      swap1\n      tag_51\n      swap2\n      swap1\n      tag_52\n      jump\t// in\n    tag_51:\n      tag_53\n      jump\t// in\n    tag_50:\n      mload(0x40)\n      tag_54\n      swap2\n      swap1\n      tag_55\n      jump\t// in\n    tag_54:\n      mload(0x40)\n      dup1\n      swap2\n      sub\n      swap1\n      return\n        /* \"contracts/DataPunk.sol\":768:801  address[] public publicValidators */\n    tag_10:\n      tag_56\n      0x04\n      dup1\n      calldatasize\n      sub\n      dup2\n      add\n      swap1\n      tag_57\n      swap2\n      swap1\n      tag_32\n      jump\t// in\n    tag_57:\n      tag_58\n      jump\t// in\n    tag_56:\n      mload(0x40)\n      tag_59\n      swap2\n      swap1\n      tag_60\n      jump\t// in\n    tag_59:\n      mload(0x40)\n      dup1\n      swap2\n      sub\n      swap1\n      return\n        /* \"contracts/DataPunk.sol\":4228:4351  function getDPCBalanceOf(address account) public view returns (uint256) {... */\n    tag_11:\n      tag_61\n      0x04\n      dup1\n      calldatasize\n      sub\n      dup2\n      add\n      swap1\n      tag_62\n      swap2\n      swap1\n      tag_52\n      jump\t// in\n    tag_62:\n      tag_63\n      jump\t// in\n    tag_61:\n      mload(0x40)\n      tag_64\n      swap2\n      swap1\n      tag_55\n      jump\t// in\n    tag_64:\n      mload(0x40)\n      dup1\n      swap2\n      sub\n      swap1\n      return\n        /* \"contracts/DataPunk.sol\":663:698  uint256 public makeDatasePrice = 10 */\n    tag_12:\n      tag_65\n      tag_66\n      jump\t// in\n    tag_65:\n      mload(0x40)\n      tag_67\n      swap2\n      swap1\n      tag_55\n      jump\t// in\n    tag_67:\n      mload(0x40)\n      dup1\n      swap2\n      sub\n      swap1\n      return\n        /* \"contracts/DataPunk.sol\":3977:4062  function owner() public view virtual returns (address) {... */\n    tag_13:\n      tag_68\n      tag_69\n      jump\t// in\n    tag_68:\n      mload(0x40)\n      tag_70\n      swap2\n      swap1\n      tag_60\n      jump\t// in\n    tag_70:\n      mload(0x40)\n      dup1\n      swap2\n      sub\n      swap1\n      return\n        /* \"contracts/DataPunk.sol\":615:657  bool public isDataPunkCoinDeployed = false */\n    tag_14:\n      tag_71\n      tag_72\n      jump\t// in\n    tag_71:\n      mload(0x40)\n      tag_73\n      swap2\n      swap1\n      tag_74\n      jump\t// in\n    tag_73:\n      mload(0x40)\n      dup1\n      swap2\n      sub\n      swap1\n      return\n        /* \"contracts/DataPunk.sol\":6485:7708  function validateDataset(uint256 datasetId) public {... */\n    tag_15:\n      tag_75\n      0x04\n      dup1\n      calldatasize\n      sub\n      dup2\n      add\n      swap1\n      tag_76\n      swap2\n      swap1\n      tag_32\n      jump\t// in\n    tag_76:\n      tag_77\n      jump\t// in\n    tag_75:\n      stop\n        /* \"contracts/DataPunk.sol\":4386:5051  function createDataset(uint256 price, uint256 validationReward) public returns (uint256) {... */\n    tag_16:\n      tag_78\n      0x04\n      dup1\n      calldatasize\n      sub\n      dup2\n      add\n      swap1\n      tag_79\n      swap2\n      swap1\n      tag_38\n      jump\t// in\n    tag_79:\n      tag_80\n      jump\t// in\n    tag_78:\n      mload(0x40)\n      tag_81\n      swap2\n      swap1\n      tag_55\n      jump\t// in\n    tag_81:\n      mload(0x40)\n      dup1\n      swap2\n      sub\n      swap1\n      return\n        /* \"contracts/DataPunk.sol\":732:762  address public dpcTokenAddress */\n    tag_17:\n      tag_82\n      tag_83\n      jump\t// in\n    tag_82:\n      mload(0x40)\n      tag_84\n      swap2\n      swap1\n      tag_60\n      jump\t// in\n    tag_84:\n      mload(0x40)\n      dup1\n      swap2\n      sub\n      swap1\n      return\n        /* \"contracts/DataPunk.sol\":5089:5213  function approve(uint256 amount) public {... */\n    tag_18:\n      tag_85\n      0x04\n      dup1\n      calldatasize\n      sub\n      dup2\n      add\n      swap1\n      tag_86\n      swap2\n      swap1\n      tag_32\n      jump\t// in\n    tag_86:\n      tag_87\n      jump\t// in\n    tag_85:\n      stop\n        /* \"contracts/DataPunk.sol\":858:922  mapping(address => mapping(address => uint256)) public allowance */\n    tag_19:\n      tag_88\n      0x04\n      dup1\n      calldatasize\n      sub\n      dup2\n      add\n      swap1\n      tag_89\n      swap2\n      swap1\n      tag_90\n      jump\t// in\n    tag_89:\n      tag_91\n      jump\t// in\n    tag_88:\n      mload(0x40)\n      tag_92\n      swap2\n      swap1\n      tag_55\n      jump\t// in\n    tag_92:\n      mload(0x40)\n      dup1\n      swap2\n      sub\n      swap1\n      return\n        /* \"contracts/DataPunk.sol\":4092:4192  function getDPCSupply() public view returns (uint256) {... */\n    tag_20:\n      tag_93\n      tag_94\n      jump\t// in\n    tag_93:\n      mload(0x40)\n      tag_95\n      swap2\n      swap1\n      tag_55\n      jump\t// in\n    tag_95:\n      mload(0x40)\n      dup1\n      swap2\n      sub\n      swap1\n      return\n        /* \"contracts/DataPunk.sol\":6322:6456  function registerAsValidator() public {... */\n    tag_21:\n      tag_96\n      tag_97\n      jump\t// in\n    tag_96:\n      stop\n        /* \"contracts/DataPunk.sol\":2928:3035  function getAllValidators() public view returns (address[] memory) {... */\n    tag_22:\n      tag_98\n      tag_99\n      jump\t// in\n    tag_98:\n      mload(0x40)\n      tag_100\n      swap2\n      swap1\n      tag_101\n      jump\t// in\n    tag_100:\n      mload(0x40)\n      dup1\n      swap2\n      sub\n      swap1\n      return\n        /* \"contracts/DataPunk.sol\":704:726  IERC20 public dpcToken */\n    tag_27:\n      0x02\n      0x00\n      swap1\n      sload\n      swap1\n      0x0100\n      exp\n      swap1\n      div\n      0xffffffffffffffffffffffffffffffffffffffff\n      and\n      dup2\n      jump\t// out\n        /* \"contracts/DataPunk.sol\":1614:1639  Dataset[] public datasets */\n    tag_33:\n      0x07\n      dup2\n      dup2\n      sload\n      dup2\n      lt\n      tag_102\n      jumpi\n      0x00\n      dup1\n      revert\n    tag_102:\n      swap1\n      0x00\n      mstore\n      keccak256(0x00, 0x20)\n      swap1\n      0x05\n      mul\n      add\n      0x00\n      swap2\n      pop\n      swap1\n      pop\n      dup1\n      0x00\n      add\n      0x00\n      swap1\n      sload\n      swap1\n      0x0100\n      exp\n      swap1\n      div\n      0xffffffffffffffffffffffffffffffffffffffff\n      and\n      swap1\n      dup1\n      0x01\n      add\n      sload\n      swap1\n      dup1\n      0x02\n      add\n      sload\n      swap1\n      dup1\n      0x04\n      add\n      0x00\n      swap1\n      sload\n      swap1\n      0x0100\n      exp\n      swap1\n      div\n      0xff\n      and\n      swap1\n      pop\n      dup5\n      jump\t// out\n        /* \"contracts/DataPunk.sol\":5632:6269  function makeDataset(uint256 price, uint256 validationReward) public {... */\n    tag_39:\n        /* \"contracts/DataPunk.sol\":5753:5768  makeDatasePrice */\n      sload(0x01)\n        /* \"contracts/DataPunk.sol\":5719:5727  dpcToken */\n      0x02\n      0x00\n      swap1\n      sload\n      swap1\n      0x0100\n      exp\n      swap1\n      div\n      0xffffffffffffffffffffffffffffffffffffffff\n      and\n        /* \"contracts/DataPunk.sol\":5719:5737  dpcToken.balanceOf */\n      0xffffffffffffffffffffffffffffffffffffffff\n      and\n      0x70a08231\n        /* \"contracts/DataPunk.sol\":5738:5748  msg.sender */\n      caller\n        /* \"contracts/DataPunk.sol\":5719:5749  dpcToken.balanceOf(msg.sender) */\n      mload(0x40)\n      dup3\n      0xffffffff\n      and\n      0xe0\n      shl\n      dup2\n      mstore\n      0x04\n      add\n      tag_105\n      swap2\n      swap1\n      tag_60\n      jump\t// in\n    tag_105:\n      0x20\n      mload(0x40)\n      dup1\n      dup4\n      sub\n      dup2\n      dup7\n      gas\n      staticcall\n      iszero\n      dup1\n      iszero\n      tag_107\n      jumpi\n      returndatasize\n      0x00\n      dup1\n      returndatacopy\n      revert(0x00, returndatasize)\n    tag_107:\n      pop\n      pop\n      pop\n      pop\n      mload(0x40)\n      returndatasize\n      not(0x1f)\n      0x1f\n      dup3\n      add\n      and\n      dup3\n      add\n      dup1\n      0x40\n      mstore\n      pop\n      dup2\n      add\n      swap1\n      tag_108\n      swap2\n      swap1\n      tag_109\n      jump\t// in\n    tag_108:\n        /* \"contracts/DataPunk.sol\":5719:5768  dpcToken.balanceOf(msg.sender) >= makeDatasePrice */\n      lt\n      iszero\n        /* \"contracts/DataPunk.sol\":5711:5805  require(dpcToken.balanceOf(msg.sender) >= makeDatasePrice, \"Insufficient balance to purchase\") */\n      tag_110\n      jumpi\n      mload(0x40)\n      0x08c379a000000000000000000000000000000000000000000000000000000000\n      dup2\n      mstore\n      0x04\n      add\n      tag_111\n      swap1\n      tag_112\n      jump\t// in\n    tag_111:\n      mload(0x40)\n      dup1\n      swap2\n      sub\n      swap1\n      revert\n    tag_110:\n        /* \"contracts/DataPunk.sol\":5824:5851  address[] memory emptyArray */\n      0x60\n        /* \"contracts/DataPunk.sol\":5861:5869  datasets */\n      0x07\n        /* \"contracts/DataPunk.sol\":5875:6068  Dataset({... */\n      mload(0x40)\n      dup1\n      0xa0\n      add\n      0x40\n      mstore\n      dup1\n        /* \"contracts/DataPunk.sol\":5906:5916  msg.sender */\n      caller\n        /* \"contracts/DataPunk.sol\":5875:6068  Dataset({... */\n      0xffffffffffffffffffffffffffffffffffffffff\n      and\n      dup2\n      mstore\n      0x20\n      add\n        /* \"contracts/DataPunk.sol\":5937:5942  price */\n      dup6\n        /* \"contracts/DataPunk.sol\":5875:6068  Dataset({... */\n      dup2\n      mstore\n      0x20\n      add\n        /* \"contracts/DataPunk.sol\":5974:5990  validationReward */\n      dup5\n        /* \"contracts/DataPunk.sol\":5875:6068  Dataset({... */\n      dup2\n      mstore\n      0x20\n      add\n        /* \"contracts/DataPunk.sol\":6016:6026  emptyArray */\n      dup4\n        /* \"contracts/DataPunk.sol\":5875:6068  Dataset({... */\n      dup2\n      mstore\n      0x20\n      add\n        /* \"contracts/DataPunk.sol\":6053:6057  true */\n      0x01\n        /* \"contracts/DataPunk.sol\":5875:6068  Dataset({... */\n      iszero\n      iszero\n      dup2\n      mstore\n      pop\n        /* \"contracts/DataPunk.sol\":5861:6069  datasets.push(Dataset({... */\n      swap1\n      dup1\n      0x01\n      dup2\n      sload\n      add\n      dup1\n      dup3\n      sstore\n      dup1\n      swap2\n      pop\n      pop\n      0x01\n      swap1\n      sub\n      swap1\n      0x00\n      mstore\n      keccak256(0x00, 0x20)\n      swap1\n      0x05\n      mul\n      add\n      0x00\n      swap1\n      swap2\n      swap1\n      swap2\n      swap1\n      swap2\n      pop\n      0x00\n      dup3\n      add\n      mload\n      dup2\n      0x00\n      add\n      exp(0x0100, 0x00)\n      dup2\n      sload\n      dup2\n      0xffffffffffffffffffffffffffffffffffffffff\n      mul\n      not\n      and\n      swap1\n      dup4\n      0xffffffffffffffffffffffffffffffffffffffff\n      and\n      mul\n      or\n      swap1\n      sstore\n      pop\n      0x20\n      dup3\n      add\n      mload\n      dup2\n      0x01\n      add\n      sstore\n      0x40\n      dup3\n      add\n      mload\n      dup2\n      0x02\n      add\n      sstore\n      0x60\n      dup3\n      add\n      mload\n      dup2\n      0x03\n      add\n      swap1\n      dup1\n      mload\n      swap1\n      0x20\n      add\n      swap1\n      tag_114\n      swap3\n      swap2\n      swap1\n      tag_115\n      jump\t// in\n    tag_114:\n      pop\n      0x80\n      dup3\n      add\n      mload\n      dup2\n      0x04\n      add\n      exp(0x0100, 0x00)\n      dup2\n      sload\n      dup2\n      0xff\n      mul\n      not\n      and\n      swap1\n      dup4\n      iszero\n      iszero\n      mul\n      or\n      swap1\n      sstore\n      pop\n      pop\n      pop\n        /* \"contracts/DataPunk.sol\":6079:6096  uint256 datasetId */\n      0x00\n        /* \"contracts/DataPunk.sol\":6117:6118  1 */\n      0x01\n        /* \"contracts/DataPunk.sol\":6099:6107  datasets */\n      0x07\n        /* \"contracts/DataPunk.sol\":6099:6114  datasets.length */\n      dup1\n      sload\n      swap1\n      pop\n        /* \"contracts/DataPunk.sol\":6099:6118  datasets.length - 1 */\n      tag_116\n      swap2\n      swap1\n      tag_117\n      jump\t// in\n    tag_116:\n        /* \"contracts/DataPunk.sol\":6079:6118  uint256 datasetId = datasets.length - 1 */\n      swap1\n      pop\n        /* \"contracts/DataPunk.sol\":6129:6137  dpcToken */\n      0x02\n      0x00\n      swap1\n      sload\n      swap1\n      0x0100\n      exp\n      swap1\n      div\n      0xffffffffffffffffffffffffffffffffffffffff\n      and\n        /* \"contracts/DataPunk.sol\":6129:6150  dpcToken.transferFrom */\n      0xffffffffffffffffffffffffffffffffffffffff\n      and\n      0x23b872dd\n        /* \"contracts/DataPunk.sol\":6151:6161  msg.sender */\n      caller\n        /* \"contracts/DataPunk.sol\":6171:6175  this */\n      address\n        /* \"contracts/DataPunk.sol\":6178:6193  makeDatasePrice */\n      sload(0x01)\n        /* \"contracts/DataPunk.sol\":6129:6194  dpcToken.transferFrom(msg.sender, address(this), makeDatasePrice) */\n      mload(0x40)\n      dup5\n      0xffffffff\n      and\n      0xe0\n      shl\n      dup2\n      mstore\n      0x04\n      add\n      tag_118\n      swap4\n      swap3\n      swap2\n      swap1\n      tag_119\n      jump\t// in\n    tag_118:\n      0x20\n      mload(0x40)\n      dup1\n      dup4\n      sub\n      dup2\n      0x00\n      dup8\n      gas\n      call\n      iszero\n      dup1\n      iszero\n      tag_121\n      jumpi\n      returndatasize\n      0x00\n      dup1\n      returndatacopy\n      revert(0x00, returndatasize)\n    tag_121:\n      pop\n      pop\n      pop\n      pop\n      mload(0x40)\n      returndatasize\n      not(0x1f)\n      0x1f\n      dup3\n      add\n      and\n      dup3\n      add\n      dup1\n      0x40\n      mstore\n      pop\n      dup2\n      add\n      swap1\n      tag_122\n      swap2\n      swap1\n      tag_123\n      jump\t// in\n    tag_122:\n      pop\n        /* \"contracts/DataPunk.sol\":6234:6244  msg.sender */\n      caller\n        /* \"contracts/DataPunk.sol\":6210:6262  DatasetMaked(datasetId, msg.sender, makeDatasePrice) */\n      0xffffffffffffffffffffffffffffffffffffffff\n      and\n        /* \"contracts/DataPunk.sol\":6223:6232  datasetId */\n      dup2\n        /* \"contracts/DataPunk.sol\":6210:6262  DatasetMaked(datasetId, msg.sender, makeDatasePrice) */\n      0x571a5dfc09c77bbe59e7a00b078fec1a53f090e992ccacde1856dab24624c968\n        /* \"contracts/DataPunk.sol\":6246:6261  makeDatasePrice */\n      sload(0x01)\n        /* \"contracts/DataPunk.sol\":6210:6262  DatasetMaked(datasetId, msg.sender, makeDatasePrice) */\n      mload(0x40)\n      tag_124\n      swap2\n      swap1\n      tag_55\n      jump\t// in\n    tag_124:\n      mload(0x40)\n      dup1\n      swap2\n      sub\n      swap1\n      log3\n        /* \"contracts/DataPunk.sol\":5701:6269  {... */\n      pop\n      pop\n        /* \"contracts/DataPunk.sol\":5632:6269  function makeDataset(uint256 price, uint256 validationReward) public {... */\n      pop\n      pop\n      jump\t// out\n        /* \"contracts/DataPunk.sol\":2139:2884  function deployDataPunkCoin(uint256 _amount) public onlyOwner {... */\n    tag_42:\n        /* \"contracts/DataPunk.sol\":1992:2002  msg.sender */\n      caller\n        /* \"contracts/DataPunk.sol\":1981:2002  owner() == msg.sender */\n      0xffffffffffffffffffffffffffffffffffffffff\n      and\n        /* \"contracts/DataPunk.sol\":1981:1988  owner() */\n      tag_126\n        /* \"contracts/DataPunk.sol\":1981:1986  owner */\n      tag_69\n        /* \"contracts/DataPunk.sol\":1981:1988  owner() */\n      jump\t// in\n    tag_126:\n        /* \"contracts/DataPunk.sol\":1981:2002  owner() == msg.sender */\n      0xffffffffffffffffffffffffffffffffffffffff\n      and\n      eq\n        /* \"contracts/DataPunk.sol\":1973:2039  require(owner() == msg.sender, \"Ownable: caller is not the owner\") */\n      tag_127\n      jumpi\n      mload(0x40)\n      0x08c379a000000000000000000000000000000000000000000000000000000000\n      dup2\n      mstore\n      0x04\n      add\n      tag_128\n      swap1\n      tag_129\n      jump\t// in\n    tag_128:\n      mload(0x40)\n      dup1\n      swap2\n      sub\n      swap1\n      revert\n    tag_127:\n        /* \"contracts/DataPunk.sol\":2220:2242  isDataPunkCoinDeployed */\n      0x00\n      0x14\n      swap1\n      sload\n      swap1\n      0x0100\n      exp\n      swap1\n      div\n      0xff\n      and\n        /* \"contracts/DataPunk.sol\":2219:2242  !isDataPunkCoinDeployed */\n      iszero\n        /* \"contracts/DataPunk.sol\":2211:2285  require(!isDataPunkCoinDeployed, \"DataPunkCoin has already been deployed\") */\n      tag_131\n      jumpi\n      mload(0x40)\n      0x08c379a000000000000000000000000000000000000000000000000000000000\n      dup2\n      mstore\n      0x04\n      add\n      tag_132\n      swap1\n      tag_133\n      jump\t// in\n    tag_132:\n      mload(0x40)\n      dup1\n      swap2\n      sub\n      swap1\n      revert\n    tag_131:\n        /* \"contracts/DataPunk.sol\":2296:2325  DataPunkCoin dpcTokenContract */\n      0x00\n        /* \"contracts/DataPunk.sol\":2345:2352  _amount */\n      dup2\n        /* \"contracts/DataPunk.sol\":2328:2353  new DataPunkCoin(_amount) */\n      mload(0x40)\n      tag_134\n      swap1\n      tag_135\n      jump\t// in\n    tag_134:\n      tag_136\n      swap2\n      swap1\n      tag_55\n      jump\t// in\n    tag_136:\n      mload(0x40)\n      dup1\n      swap2\n      sub\n      swap1\n      0x00\n      create\n      dup1\n      iszero\n      dup1\n      iszero\n      tag_137\n      jumpi\n      returndatasize\n      0x00\n      dup1\n      returndatacopy\n      revert(0x00, returndatasize)\n    tag_137:\n      pop\n        /* \"contracts/DataPunk.sol\":2296:2353  DataPunkCoin dpcTokenContract = new DataPunkCoin(_amount) */\n      swap1\n      pop\n        /* \"contracts/DataPunk.sol\":2389:2405  dpcTokenContract */\n      dup1\n        /* \"contracts/DataPunk.sol\":2363:2378  dpcTokenAddress */\n      0x03\n      0x00\n        /* \"contracts/DataPunk.sol\":2363:2406  dpcTokenAddress = address(dpcTokenContract) */\n      0x0100\n      exp\n      dup2\n      sload\n      dup2\n      0xffffffffffffffffffffffffffffffffffffffff\n      mul\n      not\n      and\n      swap1\n      dup4\n      0xffffffffffffffffffffffffffffffffffffffff\n      and\n      mul\n      or\n      swap1\n      sstore\n      pop\n        /* \"contracts/DataPunk.sol\":2434:2449  dpcTokenAddress */\n      0x03\n      0x00\n      swap1\n      sload\n      swap1\n      0x0100\n      exp\n      swap1\n      div\n      0xffffffffffffffffffffffffffffffffffffffff\n      and\n        /* \"contracts/DataPunk.sol\":2416:2424  dpcToken */\n      0x02\n      0x00\n        /* \"contracts/DataPunk.sol\":2416:2450  dpcToken = IERC20(dpcTokenAddress) */\n      0x0100\n      exp\n      dup2\n      sload\n      dup2\n      0xffffffffffffffffffffffffffffffffffffffff\n      mul\n      not\n      and\n      swap1\n      dup4\n      0xffffffffffffffffffffffffffffffffffffffff\n      and\n      mul\n      or\n      swap1\n      sstore\n      pop\n        /* \"contracts/DataPunk.sol\":2605:2613  dpcToken */\n      0x02\n      0x00\n      swap1\n      sload\n      swap1\n      0x0100\n      exp\n      swap1\n      div\n      0xffffffffffffffffffffffffffffffffffffffff\n      and\n        /* \"contracts/DataPunk.sol\":2605:2622  dpcToken.transfer */\n      0xffffffffffffffffffffffffffffffffffffffff\n      and\n      0xa9059cbb\n        /* \"contracts/DataPunk.sol\":2631:2635  this */\n      address\n        /* \"contracts/DataPunk.sol\":2638:2650  100 * 10**18 */\n      0x056bc75e2d63100000\n        /* \"contracts/DataPunk.sol\":2605:2651  dpcToken.transfer(address(this), 100 * 10**18) */\n      mload(0x40)\n      dup4\n      0xffffffff\n      and\n      0xe0\n      shl\n      dup2\n      mstore\n      0x04\n      add\n      tag_138\n      swap3\n      swap2\n      swap1\n      tag_139\n      jump\t// in\n    tag_138:\n      0x20\n      mload(0x40)\n      dup1\n      dup4\n      sub\n      dup2\n      0x00\n      dup8\n      gas\n      call\n      iszero\n      dup1\n      iszero\n      tag_141\n      jumpi\n      returndatasize\n      0x00\n      dup1\n      returndatacopy\n      revert(0x00, returndatasize)\n    tag_141:\n      pop\n      pop\n      pop\n      pop\n      mload(0x40)\n      returndatasize\n      not(0x1f)\n      0x1f\n      dup3\n      add\n      and\n      dup3\n      add\n      dup1\n      0x40\n      mstore\n      pop\n      dup2\n      add\n      swap1\n      tag_142\n      swap2\n      swap1\n      tag_123\n      jump\t// in\n    tag_142:\n      pop\n        /* \"contracts/DataPunk.sol\":2722:2730  dpcToken */\n      0x02\n      0x00\n      swap1\n      sload\n      swap1\n      0x0100\n      exp\n      swap1\n      div\n      0xffffffffffffffffffffffffffffffffffffffff\n      and\n        /* \"contracts/DataPunk.sol\":2722:2742  dpcToken.totalSupply */\n      0xffffffffffffffffffffffffffffffffffffffff\n      and\n      0x18160ddd\n        /* \"contracts/DataPunk.sol\":2722:2744  dpcToken.totalSupply() */\n      mload(0x40)\n      dup2\n      0xffffffff\n      and\n      0xe0\n      shl\n      dup2\n      mstore\n      0x04\n      add\n      0x20\n      mload(0x40)\n      dup1\n      dup4\n      sub\n      dup2\n      dup7\n      gas\n      staticcall\n      iszero\n      dup1\n      iszero\n      tag_144\n      jumpi\n      returndatasize\n      0x00\n      dup1\n      returndatacopy\n      revert(0x00, returndatasize)\n    tag_144:\n      pop\n      pop\n      pop\n      pop\n      mload(0x40)\n      returndatasize\n      not(0x1f)\n      0x1f\n      dup3\n      add\n      and\n      dup3\n      add\n      dup1\n      0x40\n      mstore\n      pop\n      dup2\n      add\n      swap1\n      tag_145\n      swap2\n      swap1\n      tag_109\n      jump\t// in\n    tag_145:\n        /* \"contracts/DataPunk.sol\":2695:2704  balanceOf */\n      0x05\n        /* \"contracts/DataPunk.sol\":2695:2719  balanceOf[address(this)] */\n      0x00\n        /* \"contracts/DataPunk.sol\":2713:2717  this */\n      address\n        /* \"contracts/DataPunk.sol\":2695:2719  balanceOf[address(this)] */\n      0xffffffffffffffffffffffffffffffffffffffff\n      and\n      0xffffffffffffffffffffffffffffffffffffffff\n      and\n      dup2\n      mstore\n      0x20\n      add\n      swap1\n      dup2\n      mstore\n      0x20\n      add\n      0x00\n      keccak256\n        /* \"contracts/DataPunk.sol\":2695:2744  balanceOf[address(this)] = dpcToken.totalSupply() */\n      dup2\n      swap1\n      sstore\n      pop\n        /* \"contracts/DataPunk.sol\":2780:2784  true */\n      0x01\n        /* \"contracts/DataPunk.sol\":2755:2777  isDataPunkCoinDeployed */\n      0x00\n      0x14\n        /* \"contracts/DataPunk.sol\":2755:2784  isDataPunkCoinDeployed = true */\n      0x0100\n      exp\n      dup2\n      sload\n      dup2\n      0xff\n      mul\n      not\n      and\n      swap1\n      dup4\n      iszero\n      iszero\n      mul\n      or\n      swap1\n      sstore\n      pop\n        /* \"contracts/DataPunk.sol\":2840:2877  DataPunkCoinDeployed(dpcTokenAddress) */\n      0x5a328b2a6ca99d3f214e0a041dcd254e948aa9a2e1b8b97233531b6a1d1872c9\n        /* \"contracts/DataPunk.sol\":2861:2876  dpcTokenAddress */\n      0x03\n      0x00\n      swap1\n      sload\n      swap1\n      0x0100\n      exp\n      swap1\n      div\n      0xffffffffffffffffffffffffffffffffffffffff\n      and\n        /* \"contracts/DataPunk.sol\":2840:2877  DataPunkCoinDeployed(dpcTokenAddress) */\n      mload(0x40)\n      tag_146\n      swap2\n      swap1\n      tag_60\n      jump\t// in\n    tag_146:\n      mload(0x40)\n      dup1\n      swap2\n      sub\n      swap1\n      log1\n        /* \"contracts/DataPunk.sol\":2201:2884  {... */\n      pop\n        /* \"contracts/DataPunk.sol\":2139:2884  function deployDataPunkCoin(uint256 _amount) public onlyOwner {... */\n      pop\n      jump\t// out\n        /* \"contracts/DataPunk.sol\":5242:5603  function purchaseDataset(uint256 datasetId) public {... */\n    tag_45:\n        /* \"contracts/DataPunk.sol\":5303:5326  Dataset storage dataset */\n      0x00\n        /* \"contracts/DataPunk.sol\":5329:5337  datasets */\n      0x07\n        /* \"contracts/DataPunk.sol\":5338:5347  datasetId */\n      dup3\n        /* \"contracts/DataPunk.sol\":5329:5348  datasets[datasetId] */\n      dup2\n      sload\n      dup2\n      lt\n      tag_148\n      jumpi\n      tag_149\n      tag_150\n      jump\t// in\n    tag_149:\n    tag_148:\n      swap1\n      0x00\n      mstore\n      keccak256(0x00, 0x20)\n      swap1\n      0x05\n      mul\n      add\n        /* \"contracts/DataPunk.sol\":5303:5348  Dataset storage dataset = datasets[datasetId] */\n      swap1\n      pop\n        /* \"contracts/DataPunk.sol\":5400:5407  dataset */\n      dup1\n        /* \"contracts/DataPunk.sol\":5400:5413  dataset.price */\n      0x01\n      add\n      sload\n        /* \"contracts/DataPunk.sol\":5366:5374  dpcToken */\n      0x02\n      0x00\n      swap1\n      sload\n      swap1\n      0x0100\n      exp\n      swap1\n      div\n      0xffffffffffffffffffffffffffffffffffffffff\n      and\n        /* \"contracts/DataPunk.sol\":5366:5384  dpcToken.balanceOf */\n      0xffffffffffffffffffffffffffffffffffffffff\n      and\n      0x70a08231\n        /* \"contracts/DataPunk.sol\":5385:5395  msg.sender */\n      caller\n        /* \"contracts/DataPunk.sol\":5366:5396  dpcToken.balanceOf(msg.sender) */\n      mload(0x40)\n      dup3\n      0xffffffff\n      and\n      0xe0\n      shl\n      dup2\n      mstore\n      0x04\n      add\n      tag_152\n      swap2\n      swap1\n      tag_60\n      jump\t// in\n    tag_152:\n      0x20\n      mload(0x40)\n      dup1\n      dup4\n      sub\n      dup2\n      dup7\n      gas\n      staticcall\n      iszero\n      dup1\n      iszero\n      tag_154\n      jumpi\n      returndatasize\n      0x00\n      dup1\n      returndatacopy\n      revert(0x00, returndatasize)\n    tag_154:\n      pop\n      pop\n      pop\n      pop\n      mload(0x40)\n      returndatasize\n      not(0x1f)\n      0x1f\n      dup3\n      add\n      and\n      dup3\n      add\n      dup1\n      0x40\n      mstore\n      pop\n      dup2\n      add\n      swap1\n      tag_155\n      swap2\n      swap1\n      tag_109\n      jump\t// in\n    tag_155:\n        /* \"contracts/DataPunk.sol\":5366:5413  dpcToken.balanceOf(msg.sender) >= dataset.price */\n      lt\n      iszero\n        /* \"contracts/DataPunk.sol\":5358:5450  require(dpcToken.balanceOf(msg.sender) >= dataset.price, \"Insufficient balance to purchase\") */\n      tag_156\n      jumpi\n      mload(0x40)\n      0x08c379a000000000000000000000000000000000000000000000000000000000\n      dup2\n      mstore\n      0x04\n      add\n      tag_157\n      swap1\n      tag_112\n      jump\t// in\n    tag_157:\n      mload(0x40)\n      dup1\n      swap2\n      sub\n      swap1\n      revert\n    tag_156:\n        /* \"contracts/DataPunk.sol\":5461:5469  dpcToken */\n      0x02\n      0x00\n      swap1\n      sload\n      swap1\n      0x0100\n      exp\n      swap1\n      div\n      0xffffffffffffffffffffffffffffffffffffffff\n      and\n        /* \"contracts/DataPunk.sol\":5461:5482  dpcToken.transferFrom */\n      0xffffffffffffffffffffffffffffffffffffffff\n      and\n      0x23b872dd\n        /* \"contracts/DataPunk.sol\":5483:5493  msg.sender */\n      caller\n        /* \"contracts/DataPunk.sol\":5495:5502  dataset */\n      dup4\n        /* \"contracts/DataPunk.sol\":5495:5510  dataset.creator */\n      0x00\n      add\n      0x00\n      swap1\n      sload\n      swap1\n      0x0100\n      exp\n      swap1\n      div\n      0xffffffffffffffffffffffffffffffffffffffff\n      and\n        /* \"contracts/DataPunk.sol\":5512:5519  dataset */\n      dup5\n        /* \"contracts/DataPunk.sol\":5512:5525  dataset.price */\n      0x01\n      add\n      sload\n        /* \"contracts/DataPunk.sol\":5461:5526  dpcToken.transferFrom(msg.sender, dataset.creator, dataset.price) */\n      mload(0x40)\n      dup5\n      0xffffffff\n      and\n      0xe0\n      shl\n      dup2\n      mstore\n      0x04\n      add\n      tag_158\n      swap4\n      swap3\n      swap2\n      swap1\n      tag_119\n      jump\t// in\n    tag_158:\n      0x20\n      mload(0x40)\n      dup1\n      dup4\n      sub\n      dup2\n      0x00\n      dup8\n      gas\n      call\n      iszero\n      dup1\n      iszero\n      tag_160\n      jumpi\n      returndatasize\n      0x00\n      dup1\n      returndatacopy\n      revert(0x00, returndatasize)\n    tag_160:\n      pop\n      pop\n      pop\n      pop\n      mload(0x40)\n      returndatasize\n      not(0x1f)\n      0x1f\n      dup3\n      add\n      and\n      dup3\n      add\n      dup1\n      0x40\n      mstore\n      pop\n      dup2\n      add\n      swap1\n      tag_161\n      swap2\n      swap1\n      tag_123\n      jump\t// in\n    tag_161:\n      pop\n        /* \"contracts/DataPunk.sol\":5570:5580  msg.sender */\n      caller\n        /* \"contracts/DataPunk.sol\":5542:5596  DatasetPurchased(datasetId, msg.sender, dataset.price) */\n      0xffffffffffffffffffffffffffffffffffffffff\n      and\n        /* \"contracts/DataPunk.sol\":5559:5568  datasetId */\n      dup3\n        /* \"contracts/DataPunk.sol\":5542:5596  DatasetPurchased(datasetId, msg.sender, dataset.price) */\n      0x313d5c7bf54e15a1b7dc24a51b097c6458663a33e7a4be386f80fea411dcda65\n        /* \"contracts/DataPunk.sol\":5582:5589  dataset */\n      dup4\n        /* \"contracts/DataPunk.sol\":5582:5595  dataset.price */\n      0x01\n      add\n      sload\n        /* \"contracts/DataPunk.sol\":5542:5596  DatasetPurchased(datasetId, msg.sender, dataset.price) */\n      mload(0x40)\n      tag_162\n      swap2\n      swap1\n      tag_55\n      jump\t// in\n    tag_162:\n      mload(0x40)\n      dup1\n      swap2\n      sub\n      swap1\n      log3\n        /* \"contracts/DataPunk.sol\":5293:5603  {... */\n      pop\n        /* \"contracts/DataPunk.sol\":5242:5603  function purchaseDataset(uint256 datasetId) public {... */\n      pop\n      jump\t// out\n        /* \"contracts/DataPunk.sol\":3076:3927  function getAllDatasets() public view returns (... */\n    tag_47:\n        /* \"contracts/DataPunk.sol\":3132:3157  address[] memory creators */\n      0x60\n        /* \"contracts/DataPunk.sol\":3167:3190  uint256[] memory prices */\n      dup1\n        /* \"contracts/DataPunk.sol\":3200:3234  uint256[] memory validationRewards */\n      0x60\n        /* \"contracts/DataPunk.sol\":3244:3274  bool[] memory isValidatedFlags */\n      dup1\n        /* \"contracts/DataPunk.sol\":3291:3311  uint256 datasetCount */\n      0x00\n        /* \"contracts/DataPunk.sol\":3314:3322  datasets */\n      0x07\n        /* \"contracts/DataPunk.sol\":3314:3329  datasets.length */\n      dup1\n      sload\n      swap1\n      pop\n        /* \"contracts/DataPunk.sol\":3291:3329  uint256 datasetCount = datasets.length */\n      swap1\n      pop\n        /* \"contracts/DataPunk.sol\":3365:3377  datasetCount */\n      dup1\n        /* \"contracts/DataPunk.sol\":3351:3378  new address[](datasetCount) */\n      0xffffffffffffffff\n      dup2\n      gt\n      iszero\n      tag_164\n      jumpi\n      tag_165\n      tag_166\n      jump\t// in\n    tag_165:\n    tag_164:\n      mload(0x40)\n      swap1\n      dup1\n      dup3\n      mstore\n      dup1\n      0x20\n      mul\n      0x20\n      add\n      dup3\n      add\n      0x40\n      mstore\n      dup1\n      iszero\n      tag_167\n      jumpi\n      dup2\n      0x20\n      add\n      0x20\n      dup3\n      mul\n      dup1\n      calldatasize\n      dup4\n      calldatacopy\n      dup1\n      dup3\n      add\n      swap2\n      pop\n      pop\n      swap1\n      pop\n    tag_167:\n      pop\n        /* \"contracts/DataPunk.sol\":3340:3378  creators = new address[](datasetCount) */\n      swap5\n      pop\n        /* \"contracts/DataPunk.sol\":3411:3423  datasetCount */\n      dup1\n        /* \"contracts/DataPunk.sol\":3397:3424  new uint256[](datasetCount) */\n      0xffffffffffffffff\n      dup2\n      gt\n      iszero\n      tag_168\n      jumpi\n      tag_169\n      tag_166\n      jump\t// in\n    tag_169:\n    tag_168:\n      mload(0x40)\n      swap1\n      dup1\n      dup3\n      mstore\n      dup1\n      0x20\n      mul\n      0x20\n      add\n      dup3\n      add\n      0x40\n      mstore\n      dup1\n      iszero\n      tag_170\n      jumpi\n      dup2\n      0x20\n      add\n      0x20\n      dup3\n      mul\n      dup1\n      calldatasize\n      dup4\n      calldatacopy\n      dup1\n      dup3\n      add\n      swap2\n      pop\n      pop\n      swap1\n      pop\n    tag_170:\n      pop\n        /* \"contracts/DataPunk.sol\":3388:3424  prices = new uint256[](datasetCount) */\n      swap4\n      pop\n        /* \"contracts/DataPunk.sol\":3468:3480  datasetCount */\n      dup1\n        /* \"contracts/DataPunk.sol\":3454:3481  new uint256[](datasetCount) */\n      0xffffffffffffffff\n      dup2\n      gt\n      iszero\n      tag_171\n      jumpi\n      tag_172\n      tag_166\n      jump\t// in\n    tag_172:\n    tag_171:\n      mload(0x40)\n      swap1\n      dup1\n      dup3\n      mstore\n      dup1\n      0x20\n      mul\n      0x20\n      add\n      dup3\n      add\n      0x40\n      mstore\n      dup1\n      iszero\n      tag_173\n      jumpi\n      dup2\n      0x20\n      add\n      0x20\n      dup3\n      mul\n      dup1\n      calldatasize\n      dup4\n      calldatacopy\n      dup1\n      dup3\n      add\n      swap2\n      pop\n      pop\n      swap1\n      pop\n    tag_173:\n      pop\n        /* \"contracts/DataPunk.sol\":3434:3481  validationRewards = new uint256[](datasetCount) */\n      swap3\n      pop\n        /* \"contracts/DataPunk.sol\":3521:3533  datasetCount */\n      dup1\n        /* \"contracts/DataPunk.sol\":3510:3534  new bool[](datasetCount) */\n      0xffffffffffffffff\n      dup2\n      gt\n      iszero\n      tag_174\n      jumpi\n      tag_175\n      tag_166\n      jump\t// in\n    tag_175:\n    tag_174:\n      mload(0x40)\n      swap1\n      dup1\n      dup3\n      mstore\n      dup1\n      0x20\n      mul\n      0x20\n      add\n      dup3\n      add\n      0x40\n      mstore\n      dup1\n      iszero\n      tag_176\n      jumpi\n      dup2\n      0x20\n      add\n      0x20\n      dup3\n      mul\n      dup1\n      calldatasize\n      dup4\n      calldatacopy\n      dup1\n      dup3\n      add\n      swap2\n      pop\n      pop\n      swap1\n      pop\n    tag_176:\n      pop\n        /* \"contracts/DataPunk.sol\":3491:3534  isValidatedFlags = new bool[](datasetCount) */\n      swap2\n      pop\n        /* \"contracts/DataPunk.sol\":3550:3559  uint256 i */\n      0x00\n        /* \"contracts/DataPunk.sol\":3545:3848  for (uint256 i = 0; i < datasetCount; i++) {... */\n    tag_177:\n        /* \"contracts/DataPunk.sol\":3569:3581  datasetCount */\n      dup2\n        /* \"contracts/DataPunk.sol\":3565:3566  i */\n      dup2\n        /* \"contracts/DataPunk.sol\":3565:3581  i < datasetCount */\n      lt\n        /* \"contracts/DataPunk.sol\":3545:3848  for (uint256 i = 0; i < datasetCount; i++) {... */\n      iszero\n      tag_178\n      jumpi\n        /* \"contracts/DataPunk.sol\":3602:3625  Dataset storage dataset */\n      0x00\n        /* \"contracts/DataPunk.sol\":3628:3636  datasets */\n      0x07\n        /* \"contracts/DataPunk.sol\":3637:3638  i */\n      dup3\n        /* \"contracts/DataPunk.sol\":3628:3639  datasets[i] */\n      dup2\n      sload\n      dup2\n      lt\n      tag_180\n      jumpi\n      tag_181\n      tag_150\n      jump\t// in\n    tag_181:\n    tag_180:\n      swap1\n      0x00\n      mstore\n      keccak256(0x00, 0x20)\n      swap1\n      0x05\n      mul\n      add\n        /* \"contracts/DataPunk.sol\":3602:3639  Dataset storage dataset = datasets[i] */\n      swap1\n      pop\n        /* \"contracts/DataPunk.sol\":3667:3674  dataset */\n      dup1\n        /* \"contracts/DataPunk.sol\":3667:3682  dataset.creator */\n      0x00\n      add\n      0x00\n      swap1\n      sload\n      swap1\n      0x0100\n      exp\n      swap1\n      div\n      0xffffffffffffffffffffffffffffffffffffffff\n      and\n        /* \"contracts/DataPunk.sol\":3653:3661  creators */\n      dup8\n        /* \"contracts/DataPunk.sol\":3662:3663  i */\n      dup4\n        /* \"contracts/DataPunk.sol\":3653:3664  creators[i] */\n      dup2\n      mload\n      dup2\n      lt\n      tag_183\n      jumpi\n      tag_184\n      tag_150\n      jump\t// in\n    tag_184:\n    tag_183:\n      0x20\n      mul\n      0x20\n      add\n      add\n        /* \"contracts/DataPunk.sol\":3653:3682  creators[i] = dataset.creator */\n      swap1\n      0xffffffffffffffffffffffffffffffffffffffff\n      and\n      swap1\n      dup2\n      0xffffffffffffffffffffffffffffffffffffffff\n      and\n      dup2\n      mstore\n      pop\n      pop\n        /* \"contracts/DataPunk.sol\":3708:3715  dataset */\n      dup1\n        /* \"contracts/DataPunk.sol\":3708:3721  dataset.price */\n      0x01\n      add\n      sload\n        /* \"contracts/DataPunk.sol\":3696:3702  prices */\n      dup7\n        /* \"contracts/DataPunk.sol\":3703:3704  i */\n      dup4\n        /* \"contracts/DataPunk.sol\":3696:3705  prices[i] */\n      dup2\n      mload\n      dup2\n      lt\n      tag_185\n      jumpi\n      tag_186\n      tag_150\n      jump\t// in\n    tag_186:\n    tag_185:\n      0x20\n      mul\n      0x20\n      add\n      add\n        /* \"contracts/DataPunk.sol\":3696:3721  prices[i] = dataset.price */\n      dup2\n      dup2\n      mstore\n      pop\n      pop\n        /* \"contracts/DataPunk.sol\":3758:3765  dataset */\n      dup1\n        /* \"contracts/DataPunk.sol\":3758:3782  dataset.validationReward */\n      0x02\n      add\n      sload\n        /* \"contracts/DataPunk.sol\":3735:3752  validationRewards */\n      dup6\n        /* \"contracts/DataPunk.sol\":3753:3754  i */\n      dup4\n        /* \"contracts/DataPunk.sol\":3735:3755  validationRewards[i] */\n      dup2\n      mload\n      dup2\n      lt\n      tag_187\n      jumpi\n      tag_188\n      tag_150\n      jump\t// in\n    tag_188:\n    tag_187:\n      0x20\n      mul\n      0x20\n      add\n      add\n        /* \"contracts/DataPunk.sol\":3735:3782  validationRewards[i] = dataset.validationReward */\n      dup2\n      dup2\n      mstore\n      pop\n      pop\n        /* \"contracts/DataPunk.sol\":3818:3825  dataset */\n      dup1\n        /* \"contracts/DataPunk.sol\":3818:3837  dataset.isValidated */\n      0x04\n      add\n      0x00\n      swap1\n      sload\n      swap1\n      0x0100\n      exp\n      swap1\n      div\n      0xff\n      and\n        /* \"contracts/DataPunk.sol\":3796:3812  isValidatedFlags */\n      dup5\n        /* \"contracts/DataPunk.sol\":3813:3814  i */\n      dup4\n        /* \"contracts/DataPunk.sol\":3796:3815  isValidatedFlags[i] */\n      dup2\n      mload\n      dup2\n      lt\n      tag_189\n      jumpi\n      tag_190\n      tag_150\n      jump\t// in\n    tag_190:\n    tag_189:\n      0x20\n      mul\n      0x20\n      add\n      add\n        /* \"contracts/DataPunk.sol\":3796:3837  isValidatedFlags[i] = dataset.isValidated */\n      swap1\n      iszero\n      iszero\n      swap1\n      dup2\n      iszero\n      iszero\n      dup2\n      mstore\n      pop\n      pop\n        /* \"contracts/DataPunk.sol\":3588:3848  {... */\n      pop\n        /* \"contracts/DataPunk.sol\":3583:3586  i++ */\n      dup1\n      dup1\n      0x01\n      add\n      swap2\n      pop\n      pop\n        /* \"contracts/DataPunk.sol\":3545:3848  for (uint256 i = 0; i < datasetCount; i++) {... */\n      jump(tag_177)\n    tag_178:\n      pop\n        /* \"contracts/DataPunk.sol\":3858:3920  return (creators, prices, validationRewards, isValidatedFlags) */\n      pop\n        /* \"contracts/DataPunk.sol\":3076:3927  function getAllDatasets() public view returns (... */\n      swap1\n      swap2\n      swap3\n      swap4\n      jump\t// out\n        /* \"contracts/DataPunk.sol\":808:852  mapping(address => uint256) public balanceOf */\n    tag_53:\n      mstore(0x20, 0x05)\n      dup1\n      0x00\n      mstore\n      keccak256(0x00, 0x40)\n      0x00\n      swap2\n      pop\n      swap1\n      pop\n      sload\n      dup2\n      jump\t// out\n        /* \"contracts/DataPunk.sol\":768:801  address[] public publicValidators */\n    tag_58:\n      0x04\n      dup2\n      dup2\n      sload\n      dup2\n      lt\n      tag_191\n      jumpi\n      0x00\n      dup1\n      revert\n    tag_191:\n      swap1\n      0x00\n      mstore\n      keccak256(0x00, 0x20)\n      add\n      0x00\n      swap2\n      pop\n      sload\n      swap1\n      0x0100\n      exp\n      swap1\n      div\n      0xffffffffffffffffffffffffffffffffffffffff\n      and\n      dup2\n      jump\t// out\n        /* \"contracts/DataPunk.sol\":4228:4351  function getDPCBalanceOf(address account) public view returns (uint256) {... */\n    tag_63:\n        /* \"contracts/DataPunk.sol\":4291:4298  uint256 */\n      0x00\n        /* \"contracts/DataPunk.sol\":4317:4325  dpcToken */\n      0x02\n      0x00\n      swap1\n      sload\n      swap1\n      0x0100\n      exp\n      swap1\n      div\n      0xffffffffffffffffffffffffffffffffffffffff\n      and\n        /* \"contracts/DataPunk.sol\":4317:4335  dpcToken.balanceOf */\n      0xffffffffffffffffffffffffffffffffffffffff\n      and\n      0x70a08231\n        /* \"contracts/DataPunk.sol\":4336:4343  account */\n      dup4\n        /* \"contracts/DataPunk.sol\":4317:4344  dpcToken.balanceOf(account) */\n      mload(0x40)\n      dup3\n      0xffffffff\n      and\n      0xe0\n      shl\n      dup2\n      mstore\n      0x04\n      add\n      tag_194\n      swap2\n      swap1\n      tag_60\n      jump\t// in\n    tag_194:\n      0x20\n      mload(0x40)\n      dup1\n      dup4\n      sub\n      dup2\n      dup7\n      gas\n      staticcall\n      iszero\n      dup1\n      iszero\n      tag_196\n      jumpi\n      returndatasize\n      0x00\n      dup1\n      returndatacopy\n      revert(0x00, returndatasize)\n    tag_196:\n      pop\n      pop\n      pop\n      pop\n      mload(0x40)\n      returndatasize\n      not(0x1f)\n      0x1f\n      dup3\n      add\n      and\n      dup3\n      add\n      dup1\n      0x40\n      mstore\n      pop\n      dup2\n      add\n      swap1\n      tag_197\n      swap2\n      swap1\n      tag_109\n      jump\t// in\n    tag_197:\n        /* \"contracts/DataPunk.sol\":4310:4344  return dpcToken.balanceOf(account) */\n      swap1\n      pop\n        /* \"contracts/DataPunk.sol\":4228:4351  function getDPCBalanceOf(address account) public view returns (uint256) {... */\n      swap2\n      swap1\n      pop\n      jump\t// out\n        /* \"contracts/DataPunk.sol\":663:698  uint256 public makeDatasePrice = 10 */\n    tag_66:\n      sload(0x01)\n      dup2\n      jump\t// out\n        /* \"contracts/DataPunk.sol\":3977:4062  function owner() public view virtual returns (address) {... */\n    tag_69:\n        /* \"contracts/DataPunk.sol\":4023:4030  address */\n      0x00\n        /* \"contracts/DataPunk.sol\":4049:4055  _owner */\n      dup1\n      0x00\n      swap1\n      sload\n      swap1\n      0x0100\n      exp\n      swap1\n      div\n      0xffffffffffffffffffffffffffffffffffffffff\n      and\n        /* \"contracts/DataPunk.sol\":4042:4055  return _owner */\n      swap1\n      pop\n        /* \"contracts/DataPunk.sol\":3977:4062  function owner() public view virtual returns (address) {... */\n      swap1\n      jump\t// out\n        /* \"contracts/DataPunk.sol\":615:657  bool public isDataPunkCoinDeployed = false */\n    tag_72:\n      0x00\n      0x14\n      swap1\n      sload\n      swap1\n      0x0100\n      exp\n      swap1\n      div\n      0xff\n      and\n      dup2\n      jump\t// out\n        /* \"contracts/DataPunk.sol\":6485:7708  function validateDataset(uint256 datasetId) public {... */\n    tag_77:\n        /* \"contracts/DataPunk.sol\":6546:6569  Dataset storage dataset */\n      0x00\n        /* \"contracts/DataPunk.sol\":6572:6580  datasets */\n      0x07\n        /* \"contracts/DataPunk.sol\":6581:6590  datasetId */\n      dup3\n        /* \"contracts/DataPunk.sol\":6572:6591  datasets[datasetId] */\n      dup2\n      sload\n      dup2\n      lt\n      tag_200\n      jumpi\n      tag_201\n      tag_150\n      jump\t// in\n    tag_201:\n    tag_200:\n      swap1\n      0x00\n      mstore\n      keccak256(0x00, 0x20)\n      swap1\n      0x05\n      mul\n      add\n        /* \"contracts/DataPunk.sol\":6546:6591  Dataset storage dataset = datasets[datasetId] */\n      swap1\n      pop\n        /* \"contracts/DataPunk.sol\":6610:6617  dataset */\n      dup1\n        /* \"contracts/DataPunk.sol\":6610:6629  dataset.isValidated */\n      0x04\n      add\n      0x00\n      swap1\n      sload\n      swap1\n      0x0100\n      exp\n      swap1\n      div\n      0xff\n      and\n        /* \"contracts/DataPunk.sol\":6609:6629  !dataset.isValidated */\n      iszero\n        /* \"contracts/DataPunk.sol\":6601:6659  require(!dataset.isValidated, \"Dataset already validated\") */\n      tag_203\n      jumpi\n      mload(0x40)\n      0x08c379a000000000000000000000000000000000000000000000000000000000\n      dup2\n      mstore\n      0x04\n      add\n      tag_204\n      swap1\n      tag_205\n      jump\t// in\n    tag_204:\n      mload(0x40)\n      dup1\n      swap2\n      sub\n      swap1\n      revert\n    tag_203:\n        /* \"contracts/DataPunk.sol\":6727:6743  bool isValidator */\n      0x00\n        /* \"contracts/DataPunk.sol\":6766:6772  uint i */\n      dup1\n        /* \"contracts/DataPunk.sol\":6761:6949  for (uint i = 0; i < publicValidators.length; i++) {... */\n    tag_206:\n        /* \"contracts/DataPunk.sol\":6782:6798  publicValidators */\n      0x04\n        /* \"contracts/DataPunk.sol\":6782:6805  publicValidators.length */\n      dup1\n      sload\n      swap1\n      pop\n        /* \"contracts/DataPunk.sol\":6778:6779  i */\n      dup2\n        /* \"contracts/DataPunk.sol\":6778:6805  i < publicValidators.length */\n      lt\n        /* \"contracts/DataPunk.sol\":6761:6949  for (uint i = 0; i < publicValidators.length; i++) {... */\n      iszero\n      tag_207\n      jumpi\n        /* \"contracts/DataPunk.sol\":6853:6863  msg.sender */\n      caller\n        /* \"contracts/DataPunk.sol\":6830:6863  publicValidators[i] == msg.sender */\n      0xffffffffffffffffffffffffffffffffffffffff\n      and\n        /* \"contracts/DataPunk.sol\":6830:6846  publicValidators */\n      0x04\n        /* \"contracts/DataPunk.sol\":6847:6848  i */\n      dup3\n        /* \"contracts/DataPunk.sol\":6830:6849  publicValidators[i] */\n      dup2\n      sload\n      dup2\n      lt\n      tag_209\n      jumpi\n      tag_210\n      tag_150\n      jump\t// in\n    tag_210:\n    tag_209:\n      swap1\n      0x00\n      mstore\n      keccak256(0x00, 0x20)\n      add\n      0x00\n      swap1\n      sload\n      swap1\n      0x0100\n      exp\n      swap1\n      div\n      0xffffffffffffffffffffffffffffffffffffffff\n      and\n        /* \"contracts/DataPunk.sol\":6830:6863  publicValidators[i] == msg.sender */\n      0xffffffffffffffffffffffffffffffffffffffff\n      and\n      sub\n        /* \"contracts/DataPunk.sol\":6826:6939  if (publicValidators[i] == msg.sender) {... */\n      tag_212\n      jumpi\n        /* \"contracts/DataPunk.sol\":6897:6901  true */\n      0x01\n        /* \"contracts/DataPunk.sol\":6883:6901  isValidator = true */\n      swap2\n      pop\n        /* \"contracts/DataPunk.sol\":6919:6924  break */\n      jump(tag_207)\n        /* \"contracts/DataPunk.sol\":6826:6939  if (publicValidators[i] == msg.sender) {... */\n    tag_212:\n        /* \"contracts/DataPunk.sol\":6807:6810  i++ */\n      dup1\n      dup1\n      0x01\n      add\n      swap2\n      pop\n      pop\n        /* \"contracts/DataPunk.sol\":6761:6949  for (uint i = 0; i < publicValidators.length; i++) {... */\n      jump(tag_206)\n    tag_207:\n      pop\n        /* \"contracts/DataPunk.sol\":6966:6977  isValidator */\n      dup1\n        /* \"contracts/DataPunk.sol\":6958:7016  require(isValidator, \"You must be a registered validator\") */\n      tag_213\n      jumpi\n      mload(0x40)\n      0x08c379a000000000000000000000000000000000000000000000000000000000\n      dup2\n      mstore\n      0x04\n      add\n      tag_214\n      swap1\n      tag_215\n      jump\t// in\n    tag_214:\n      mload(0x40)\n      dup1\n      swap2\n      sub\n      swap1\n      revert\n    tag_213:\n        /* \"contracts/DataPunk.sol\":7105:7112  dataset */\n      dup2\n        /* \"contracts/DataPunk.sol\":7105:7120  dataset.creator */\n      0x00\n      add\n      0x00\n      swap1\n      sload\n      swap1\n      0x0100\n      exp\n      swap1\n      div\n      0xffffffffffffffffffffffffffffffffffffffff\n      and\n        /* \"contracts/DataPunk.sol\":7091:7120  msg.sender != dataset.creator */\n      0xffffffffffffffffffffffffffffffffffffffff\n      and\n        /* \"contracts/DataPunk.sol\":7091:7101  msg.sender */\n      caller\n        /* \"contracts/DataPunk.sol\":7091:7120  msg.sender != dataset.creator */\n      0xffffffffffffffffffffffffffffffffffffffff\n      and\n      sub\n        /* \"contracts/DataPunk.sol\":7083:7156  require(msg.sender != dataset.creator, \"Validator cannot be the creator\") */\n      tag_216\n      jumpi\n      mload(0x40)\n      0x08c379a000000000000000000000000000000000000000000000000000000000\n      dup2\n      mstore\n      0x04\n      add\n      tag_217\n      swap1\n      tag_218\n      jump\t// in\n    tag_217:\n      mload(0x40)\n      dup1\n      swap2\n      sub\n      swap1\n      revert\n    tag_216:\n        /* \"contracts/DataPunk.sol\":7227:7234  dataset */\n      dup2\n        /* \"contracts/DataPunk.sol\":7227:7245  dataset.validators */\n      0x03\n      add\n        /* \"contracts/DataPunk.sol\":7251:7261  msg.sender */\n      caller\n        /* \"contracts/DataPunk.sol\":7227:7262  dataset.validators.push(msg.sender) */\n      swap1\n      dup1\n      0x01\n      dup2\n      sload\n      add\n      dup1\n      dup3\n      sstore\n      dup1\n      swap2\n      pop\n      pop\n      0x01\n      swap1\n      sub\n      swap1\n      0x00\n      mstore\n      keccak256(0x00, 0x20)\n      add\n      0x00\n      swap1\n      swap2\n      swap1\n      swap2\n      swap1\n      swap2\n      0x0100\n      exp\n      dup2\n      sload\n      dup2\n      0xffffffffffffffffffffffffffffffffffffffff\n      mul\n      not\n      and\n      swap1\n      dup4\n      0xffffffffffffffffffffffffffffffffffffffff\n      and\n      mul\n      or\n      swap1\n      sstore\n      pop\n        /* \"contracts/DataPunk.sol\":7272:7280  dpcToken */\n      0x02\n      0x00\n      swap1\n      sload\n      swap1\n      0x0100\n      exp\n      swap1\n      div\n      0xffffffffffffffffffffffffffffffffffffffff\n      and\n        /* \"contracts/DataPunk.sol\":7272:7289  dpcToken.transfer */\n      0xffffffffffffffffffffffffffffffffffffffff\n      and\n      0xa9059cbb\n        /* \"contracts/DataPunk.sol\":7290:7300  msg.sender */\n      caller\n        /* \"contracts/DataPunk.sol\":7302:7309  dataset */\n      dup5\n        /* \"contracts/DataPunk.sol\":7302:7326  dataset.validationReward */\n      0x02\n      add\n      sload\n        /* \"contracts/DataPunk.sol\":7272:7327  dpcToken.transfer(msg.sender, dataset.validationReward) */\n      mload(0x40)\n      dup4\n      0xffffffff\n      and\n      0xe0\n      shl\n      dup2\n      mstore\n      0x04\n      add\n      tag_220\n      swap3\n      swap2\n      swap1\n      tag_221\n      jump\t// in\n    tag_220:\n      0x20\n      mload(0x40)\n      dup1\n      dup4\n      sub\n      dup2\n      0x00\n      dup8\n      gas\n      call\n      iszero\n      dup1\n      iszero\n      tag_223\n      jumpi\n      returndatasize\n      0x00\n      dup1\n      returndatacopy\n      revert(0x00, returndatasize)\n    tag_223:\n      pop\n      pop\n      pop\n      pop\n      mload(0x40)\n      returndatasize\n      not(0x1f)\n      0x1f\n      dup3\n      add\n      and\n      dup3\n      add\n      dup1\n      0x40\n      mstore\n      pop\n      dup2\n      add\n      swap1\n      tag_224\n      swap2\n      swap1\n      tag_123\n      jump\t// in\n    tag_224:\n      pop\n        /* \"contracts/DataPunk.sol\":7435:7439  true */\n      0x01\n        /* \"contracts/DataPunk.sol\":7413:7420  dataset */\n      dup3\n        /* \"contracts/DataPunk.sol\":7413:7432  dataset.isValidated */\n      0x04\n      add\n      0x00\n        /* \"contracts/DataPunk.sol\":7413:7439  dataset.isValidated = true */\n      0x0100\n      exp\n      dup2\n      sload\n      dup2\n      0xff\n      mul\n      not\n      and\n      swap1\n      dup4\n      iszero\n      iszero\n      mul\n      or\n      swap1\n      sstore\n      pop\n        /* \"contracts/DataPunk.sol\":7495:7502  dataset */\n      dup2\n        /* \"contracts/DataPunk.sol\":7495:7519  dataset.validationReward */\n      0x02\n      add\n      sload\n        /* \"contracts/DataPunk.sol\":7458:7466  dpcToken */\n      0x02\n      0x00\n      swap1\n      sload\n      swap1\n      0x0100\n      exp\n      swap1\n      div\n      0xffffffffffffffffffffffffffffffffffffffff\n      and\n        /* \"contracts/DataPunk.sol\":7458:7476  dpcToken.balanceOf */\n      0xffffffffffffffffffffffffffffffffffffffff\n      and\n      0x70a08231\n        /* \"contracts/DataPunk.sol\":7485:7489  this */\n      address\n        /* \"contracts/DataPunk.sol\":7458:7491  dpcToken.balanceOf(address(this)) */\n      mload(0x40)\n      dup3\n      0xffffffff\n      and\n      0xe0\n      shl\n      dup2\n      mstore\n      0x04\n      add\n      tag_225\n      swap2\n      swap1\n      tag_60\n      jump\t// in\n    tag_225:\n      0x20\n      mload(0x40)\n      dup1\n      dup4\n      sub\n      dup2\n      dup7\n      gas\n      staticcall\n      iszero\n      dup1\n      iszero\n      tag_227\n      jumpi\n      returndatasize\n      0x00\n      dup1\n      returndatacopy\n      revert(0x00, returndatasize)\n    tag_227:\n      pop\n      pop\n      pop\n      pop\n      mload(0x40)\n      returndatasize\n      not(0x1f)\n      0x1f\n      dup3\n      add\n      and\n      dup3\n      add\n      dup1\n      0x40\n      mstore\n      pop\n      dup2\n      add\n      swap1\n      tag_228\n      swap2\n      swap1\n      tag_109\n      jump\t// in\n    tag_228:\n        /* \"contracts/DataPunk.sol\":7458:7519  dpcToken.balanceOf(address(this)) >= dataset.validationReward */\n      lt\n      iszero\n        /* \"contracts/DataPunk.sol\":7450:7554  require(dpcToken.balanceOf(address(this)) >= dataset.validationReward, \"Insufficient balance to reward\") */\n      tag_229\n      jumpi\n      mload(0x40)\n      0x08c379a000000000000000000000000000000000000000000000000000000000\n      dup2\n      mstore\n      0x04\n      add\n      tag_230\n      swap1\n      tag_231\n      jump\t// in\n    tag_230:\n      mload(0x40)\n      dup1\n      swap2\n      sub\n      swap1\n      revert\n    tag_229:\n        /* \"contracts/DataPunk.sol\":7564:7572  dpcToken */\n      0x02\n      0x00\n      swap1\n      sload\n      swap1\n      0x0100\n      exp\n      swap1\n      div\n      0xffffffffffffffffffffffffffffffffffffffff\n      and\n        /* \"contracts/DataPunk.sol\":7564:7581  dpcToken.transfer */\n      0xffffffffffffffffffffffffffffffffffffffff\n      and\n      0xa9059cbb\n        /* \"contracts/DataPunk.sol\":7582:7592  msg.sender */\n      caller\n        /* \"contracts/DataPunk.sol\":7594:7601  dataset */\n      dup5\n        /* \"contracts/DataPunk.sol\":7594:7618  dataset.validationReward */\n      0x02\n      add\n      sload\n        /* \"contracts/DataPunk.sol\":7564:7619  dpcToken.transfer(msg.sender, dataset.validationReward) */\n      mload(0x40)\n      dup4\n      0xffffffff\n      and\n      0xe0\n      shl\n      dup2\n      mstore\n      0x04\n      add\n      tag_232\n      swap3\n      swap2\n      swap1\n      tag_221\n      jump\t// in\n    tag_232:\n      0x20\n      mload(0x40)\n      dup1\n      dup4\n      sub\n      dup2\n      0x00\n      dup8\n      gas\n      call\n      iszero\n      dup1\n      iszero\n      tag_234\n      jumpi\n      returndatasize\n      0x00\n      dup1\n      returndatacopy\n      revert(0x00, returndatasize)\n    tag_234:\n      pop\n      pop\n      pop\n      pop\n      mload(0x40)\n      returndatasize\n      not(0x1f)\n      0x1f\n      dup3\n      add\n      and\n      dup3\n      add\n      dup1\n      0x40\n      mstore\n      pop\n      dup2\n      add\n      swap1\n      tag_235\n      swap2\n      swap1\n      tag_123\n      jump\t// in\n    tag_235:\n      pop\n        /* \"contracts/DataPunk.sol\":7663:7673  msg.sender */\n      caller\n        /* \"contracts/DataPunk.sol\":7635:7700  DatasetValidated(datasetId, msg.sender, dataset.validationReward) */\n      0xffffffffffffffffffffffffffffffffffffffff\n      and\n        /* \"contracts/DataPunk.sol\":7652:7661  datasetId */\n      dup4\n        /* \"contracts/DataPunk.sol\":7635:7700  DatasetValidated(datasetId, msg.sender, dataset.validationReward) */\n      0x1dc73a35285fda24d55673e615930ad58eab11f47d6838526ffbd7d2c1847af4\n        /* \"contracts/DataPunk.sol\":7675:7682  dataset */\n      dup5\n        /* \"contracts/DataPunk.sol\":7675:7699  dataset.validationReward */\n      0x02\n      add\n      sload\n        /* \"contracts/DataPunk.sol\":7635:7700  DatasetValidated(datasetId, msg.sender, dataset.validationReward) */\n      mload(0x40)\n      tag_236\n      swap2\n      swap1\n      tag_55\n      jump\t// in\n    tag_236:\n      mload(0x40)\n      dup1\n      swap2\n      sub\n      swap1\n      log3\n        /* \"contracts/DataPunk.sol\":6536:7708  {... */\n      pop\n      pop\n        /* \"contracts/DataPunk.sol\":6485:7708  function validateDataset(uint256 datasetId) public {... */\n      pop\n      jump\t// out\n        /* \"contracts/DataPunk.sol\":4386:5051  function createDataset(uint256 price, uint256 validationReward) public returns (uint256) {... */\n    tag_80:\n        /* \"contracts/DataPunk.sol\":4466:4473  uint256 */\n      0x00\n        /* \"contracts/DataPunk.sol\":4485:4512  address[] memory emptyArray */\n      0x60\n        /* \"contracts/DataPunk.sol\":4522:4530  datasets */\n      0x07\n        /* \"contracts/DataPunk.sol\":4536:4730  Dataset({... */\n      mload(0x40)\n      dup1\n      0xa0\n      add\n      0x40\n      mstore\n      dup1\n        /* \"contracts/DataPunk.sol\":4567:4577  msg.sender */\n      caller\n        /* \"contracts/DataPunk.sol\":4536:4730  Dataset({... */\n      0xffffffffffffffffffffffffffffffffffffffff\n      and\n      dup2\n      mstore\n      0x20\n      add\n        /* \"contracts/DataPunk.sol\":4598:4603  price */\n      dup7\n        /* \"contracts/DataPunk.sol\":4536:4730  Dataset({... */\n      dup2\n      mstore\n      0x20\n      add\n        /* \"contracts/DataPunk.sol\":4635:4651  validationReward */\n      dup6\n        /* \"contracts/DataPunk.sol\":4536:4730  Dataset({... */\n      dup2\n      mstore\n      0x20\n      add\n        /* \"contracts/DataPunk.sol\":4677:4687  emptyArray */\n      dup4\n        /* \"contracts/DataPunk.sol\":4536:4730  Dataset({... */\n      dup2\n      mstore\n      0x20\n      add\n        /* \"contracts/DataPunk.sol\":4714:4719  false */\n      0x00\n        /* \"contracts/DataPunk.sol\":4536:4730  Dataset({... */\n      iszero\n      iszero\n      dup2\n      mstore\n      pop\n        /* \"contracts/DataPunk.sol\":4522:4731  datasets.push(Dataset({... */\n      swap1\n      dup1\n      0x01\n      dup2\n      sload\n      add\n      dup1\n      dup3\n      sstore\n      dup1\n      swap2\n      pop\n      pop\n      0x01\n      swap1\n      sub\n      swap1\n      0x00\n      mstore\n      keccak256(0x00, 0x20)\n      swap1\n      0x05\n      mul\n      add\n      0x00\n      swap1\n      swap2\n      swap1\n      swap2\n      swap1\n      swap2\n      pop\n      0x00\n      dup3\n      add\n      mload\n      dup2\n      0x00\n      add\n      exp(0x0100, 0x00)\n      dup2\n      sload\n      dup2\n      0xffffffffffffffffffffffffffffffffffffffff\n      mul\n      not\n      and\n      swap1\n      dup4\n      0xffffffffffffffffffffffffffffffffffffffff\n      and\n      mul\n      or\n      swap1\n      sstore\n      pop\n      0x20\n      dup3\n      add\n      mload\n      dup2\n      0x01\n      add\n      sstore\n      0x40\n      dup3\n      add\n      mload\n      dup2\n      0x02\n      add\n      sstore\n      0x60\n      dup3\n      add\n      mload\n      dup2\n      0x03\n      add\n      swap1\n      dup1\n      mload\n      swap1\n      0x20\n      add\n      swap1\n      tag_239\n      swap3\n      swap2\n      swap1\n      tag_115\n      jump\t// in\n    tag_239:\n      pop\n      0x80\n      dup3\n      add\n      mload\n      dup2\n      0x04\n      add\n      exp(0x0100, 0x00)\n      dup2\n      sload\n      dup2\n      0xff\n      mul\n      not\n      and\n      swap1\n      dup4\n      iszero\n      iszero\n      mul\n      or\n      swap1\n      sstore\n      pop\n      pop\n      pop\n        /* \"contracts/DataPunk.sol\":4741:4758  uint256 datasetId */\n      0x00\n        /* \"contracts/DataPunk.sol\":4779:4780  1 */\n      0x01\n        /* \"contracts/DataPunk.sol\":4761:4769  datasets */\n      0x07\n        /* \"contracts/DataPunk.sol\":4761:4776  datasets.length */\n      dup1\n      sload\n      swap1\n      pop\n        /* \"contracts/DataPunk.sol\":4761:4780  datasets.length - 1 */\n      tag_240\n      swap2\n      swap1\n      tag_117\n      jump\t// in\n    tag_240:\n        /* \"contracts/DataPunk.sol\":4741:4780  uint256 datasetId = datasets.length - 1 */\n      swap1\n      pop\n        /* \"contracts/DataPunk.sol\":4863:4868  price */\n      dup5\n        /* \"contracts/DataPunk.sol\":4826:4834  dpcToken */\n      0x02\n      0x00\n      swap1\n      sload\n      swap1\n      0x0100\n      exp\n      swap1\n      div\n      0xffffffffffffffffffffffffffffffffffffffff\n      and\n        /* \"contracts/DataPunk.sol\":4826:4844  dpcToken.balanceOf */\n      0xffffffffffffffffffffffffffffffffffffffff\n      and\n      0x70a08231\n        /* \"contracts/DataPunk.sol\":4853:4857  this */\n      address\n        /* \"contracts/DataPunk.sol\":4826:4859  dpcToken.balanceOf(address(this)) */\n      mload(0x40)\n      dup3\n      0xffffffff\n      and\n      0xe0\n      shl\n      dup2\n      mstore\n      0x04\n      add\n      tag_241\n      swap2\n      swap1\n      tag_60\n      jump\t// in\n    tag_241:\n      0x20\n      mload(0x40)\n      dup1\n      dup4\n      sub\n      dup2\n      dup7\n      gas\n      staticcall\n      iszero\n      dup1\n      iszero\n      tag_243\n      jumpi\n      returndatasize\n      0x00\n      dup1\n      returndatacopy\n      revert(0x00, returndatasize)\n    tag_243:\n      pop\n      pop\n      pop\n      pop\n      mload(0x40)\n      returndatasize\n      not(0x1f)\n      0x1f\n      dup3\n      add\n      and\n      dup3\n      add\n      dup1\n      0x40\n      mstore\n      pop\n      dup2\n      add\n      swap1\n      tag_244\n      swap2\n      swap1\n      tag_109\n      jump\t// in\n    tag_244:\n        /* \"contracts/DataPunk.sol\":4826:4868  dpcToken.balanceOf(address(this)) >= price */\n      lt\n      iszero\n        /* \"contracts/DataPunk.sol\":4818:4912  require(dpcToken.balanceOf(address(this)) >= price, \"Contract has insufficient DPC to reward\") */\n      tag_245\n      jumpi\n      mload(0x40)\n      0x08c379a000000000000000000000000000000000000000000000000000000000\n      dup2\n      mstore\n      0x04\n      add\n      tag_246\n      swap1\n      tag_247\n      jump\t// in\n    tag_246:\n      mload(0x40)\n      dup1\n      swap2\n      sub\n      swap1\n      revert\n    tag_245:\n        /* \"contracts/DataPunk.sol\":4922:4930  dpcToken */\n      0x02\n      0x00\n      swap1\n      sload\n      swap1\n      0x0100\n      exp\n      swap1\n      div\n      0xffffffffffffffffffffffffffffffffffffffff\n      and\n        /* \"contracts/DataPunk.sol\":4922:4939  dpcToken.transfer */\n      0xffffffffffffffffffffffffffffffffffffffff\n      and\n      0xa9059cbb\n        /* \"contracts/DataPunk.sol\":4940:4950  msg.sender */\n      caller\n        /* \"contracts/DataPunk.sol\":4952:4957  price */\n      dup8\n        /* \"contracts/DataPunk.sol\":4922:4958  dpcToken.transfer(msg.sender, price) */\n      mload(0x40)\n      dup4\n      0xffffffff\n      and\n      0xe0\n      shl\n      dup2\n      mstore\n      0x04\n      add\n      tag_248\n      swap3\n      swap2\n      swap1\n      tag_221\n      jump\t// in\n    tag_248:\n      0x20\n      mload(0x40)\n      dup1\n      dup4\n      sub\n      dup2\n      0x00\n      dup8\n      gas\n      call\n      iszero\n      dup1\n      iszero\n      tag_250\n      jumpi\n      returndatasize\n      0x00\n      dup1\n      returndatacopy\n      revert(0x00, returndatasize)\n    tag_250:\n      pop\n      pop\n      pop\n      pop\n      mload(0x40)\n      returndatasize\n      not(0x1f)\n      0x1f\n      dup3\n      add\n      and\n      dup3\n      add\n      dup1\n      0x40\n      mstore\n      pop\n      dup2\n      add\n      swap1\n      tag_251\n      swap2\n      swap1\n      tag_123\n      jump\t// in\n    tag_251:\n      pop\n        /* \"contracts/DataPunk.sol\":5000:5010  msg.sender */\n      caller\n        /* \"contracts/DataPunk.sol\":4974:5018  DatasetCreated(datasetId, msg.sender, price) */\n      0xffffffffffffffffffffffffffffffffffffffff\n      and\n        /* \"contracts/DataPunk.sol\":4989:4998  datasetId */\n      dup2\n        /* \"contracts/DataPunk.sol\":4974:5018  DatasetCreated(datasetId, msg.sender, price) */\n      0x030229516c8151b2075f760db01be9df7393e8f7b929097a0fff260b6d903eec\n        /* \"contracts/DataPunk.sol\":5012:5017  price */\n      dup8\n        /* \"contracts/DataPunk.sol\":4974:5018  DatasetCreated(datasetId, msg.sender, price) */\n      mload(0x40)\n      tag_252\n      swap2\n      swap1\n      tag_55\n      jump\t// in\n    tag_252:\n      mload(0x40)\n      dup1\n      swap2\n      sub\n      swap1\n      log3\n        /* \"contracts/DataPunk.sol\":5035:5044  datasetId */\n      dup1\n        /* \"contracts/DataPunk.sol\":5028:5044  return datasetId */\n      swap3\n      pop\n      pop\n      pop\n        /* \"contracts/DataPunk.sol\":4386:5051  function createDataset(uint256 price, uint256 validationReward) public returns (uint256) {... */\n      swap3\n      swap2\n      pop\n      pop\n      jump\t// out\n        /* \"contracts/DataPunk.sol\":732:762  address public dpcTokenAddress */\n    tag_83:\n      0x03\n      0x00\n      swap1\n      sload\n      swap1\n      0x0100\n      exp\n      swap1\n      div\n      0xffffffffffffffffffffffffffffffffffffffff\n      and\n      dup2\n      jump\t// out\n        /* \"contracts/DataPunk.sol\":5089:5213  function approve(uint256 amount) public {... */\n    tag_87:\n        /* \"contracts/DataPunk.sol\":5147:5155  dpcToken */\n      0x02\n      0x00\n      swap1\n      sload\n      swap1\n      0x0100\n      exp\n      swap1\n      div\n      0xffffffffffffffffffffffffffffffffffffffff\n      and\n        /* \"contracts/DataPunk.sol\":5147:5163  dpcToken.approve */\n      0xffffffffffffffffffffffffffffffffffffffff\n      and\n      0x095ea7b3\n        /* \"contracts/DataPunk.sol\":5172:5176  this */\n      address\n        /* \"contracts/DataPunk.sol\":5179:5185  amount */\n      dup4\n        /* \"contracts/DataPunk.sol\":5147:5186  dpcToken.approve(address(this), amount) */\n      mload(0x40)\n      dup4\n      0xffffffff\n      and\n      0xe0\n      shl\n      dup2\n      mstore\n      0x04\n      add\n      tag_254\n      swap3\n      swap2\n      swap1\n      tag_221\n      jump\t// in\n    tag_254:\n      0x20\n      mload(0x40)\n      dup1\n      dup4\n      sub\n      dup2\n      0x00\n      dup8\n      gas\n      call\n      iszero\n      dup1\n      iszero\n      tag_256\n      jumpi\n      returndatasize\n      0x00\n      dup1\n      returndatacopy\n      revert(0x00, returndatasize)\n    tag_256:\n      pop\n      pop\n      pop\n      pop\n      mload(0x40)\n      returndatasize\n      not(0x1f)\n      0x1f\n      dup3\n      add\n      and\n      dup3\n      add\n      dup1\n      0x40\n      mstore\n      pop\n      dup2\n      add\n      swap1\n      tag_257\n      swap2\n      swap1\n      tag_123\n      jump\t// in\n    tag_257:\n        /* \"contracts/DataPunk.sol\":5139:5206  require(dpcToken.approve(address(this), amount), \"Approval failed\") */\n      tag_258\n      jumpi\n      mload(0x40)\n      0x08c379a000000000000000000000000000000000000000000000000000000000\n      dup2\n      mstore\n      0x04\n      add\n      tag_259\n      swap1\n      tag_260\n      jump\t// in\n    tag_259:\n      mload(0x40)\n      dup1\n      swap2\n      sub\n      swap1\n      revert\n    tag_258:\n        /* \"contracts/DataPunk.sol\":5089:5213  function approve(uint256 amount) public {... */\n      pop\n      jump\t// out\n        /* \"contracts/DataPunk.sol\":858:922  mapping(address => mapping(address => uint256)) public allowance */\n    tag_91:\n      mstore(0x20, 0x06)\n      dup2\n      0x00\n      mstore\n      mstore(0x20, keccak256(0x00, 0x40))\n      dup1\n      0x00\n      mstore\n      keccak256(0x00, 0x40)\n      0x00\n      swap2\n      pop\n      swap2\n      pop\n      pop\n      sload\n      dup2\n      jump\t// out\n        /* \"contracts/DataPunk.sol\":4092:4192  function getDPCSupply() public view returns (uint256) {... */\n    tag_94:\n        /* \"contracts/DataPunk.sol\":4137:4144  uint256 */\n      0x00\n        /* \"contracts/DataPunk.sol\":4163:4171  dpcToken */\n      0x02\n      0x00\n      swap1\n      sload\n      swap1\n      0x0100\n      exp\n      swap1\n      div\n      0xffffffffffffffffffffffffffffffffffffffff\n      and\n        /* \"contracts/DataPunk.sol\":4163:4183  dpcToken.totalSupply */\n      0xffffffffffffffffffffffffffffffffffffffff\n      and\n      0x18160ddd\n        /* \"contracts/DataPunk.sol\":4163:4185  dpcToken.totalSupply() */\n      mload(0x40)\n      dup2\n      0xffffffff\n      and\n      0xe0\n      shl\n      dup2\n      mstore\n      0x04\n      add\n      0x20\n      mload(0x40)\n      dup1\n      dup4\n      sub\n      dup2\n      dup7\n      gas\n      staticcall\n      iszero\n      dup1\n      iszero\n      tag_263\n      jumpi\n      returndatasize\n      0x00\n      dup1\n      returndatacopy\n      revert(0x00, returndatasize)\n    tag_263:\n      pop\n      pop\n      pop\n      pop\n      mload(0x40)\n      returndatasize\n      not(0x1f)\n      0x1f\n      dup3\n      add\n      and\n      dup3\n      add\n      dup1\n      0x40\n      mstore\n      pop\n      dup2\n      add\n      swap1\n      tag_264\n      swap2\n      swap1\n      tag_109\n      jump\t// in\n    tag_264:\n        /* \"contracts/DataPunk.sol\":4156:4185  return dpcToken.totalSupply() */\n      swap1\n      pop\n        /* \"contracts/DataPunk.sol\":4092:4192  function getDPCSupply() public view returns (uint256) {... */\n      swap1\n      jump\t// out\n        /* \"contracts/DataPunk.sol\":6322:6456  function registerAsValidator() public {... */\n    tag_97:\n        /* \"contracts/DataPunk.sol\":6370:6386  publicValidators */\n      0x04\n        /* \"contracts/DataPunk.sol\":6392:6402  msg.sender */\n      caller\n        /* \"contracts/DataPunk.sol\":6370:6403  publicValidators.push(msg.sender) */\n      swap1\n      dup1\n      0x01\n      dup2\n      sload\n      add\n      dup1\n      dup3\n      sstore\n      dup1\n      swap2\n      pop\n      pop\n      0x01\n      swap1\n      sub\n      swap1\n      0x00\n      mstore\n      keccak256(0x00, 0x20)\n      add\n      0x00\n      swap1\n      swap2\n      swap1\n      swap2\n      swap1\n      swap2\n      0x0100\n      exp\n      dup2\n      sload\n      dup2\n      0xffffffffffffffffffffffffffffffffffffffff\n      mul\n      not\n      and\n      swap1\n      dup4\n      0xffffffffffffffffffffffffffffffffffffffff\n      and\n      mul\n      or\n      swap1\n      sstore\n      pop\n        /* \"contracts/DataPunk.sol\":6438:6448  msg.sender */\n      caller\n        /* \"contracts/DataPunk.sol\":6418:6449  ValidatorRegistered(msg.sender) */\n      0xffffffffffffffffffffffffffffffffffffffff\n      and\n      0xd09501348473474a20c772c79c653e1fd7e8b437e418fe235d277d2c88853251\n      mload(0x40)\n      mload(0x40)\n      dup1\n      swap2\n      sub\n      swap1\n      log2\n        /* \"contracts/DataPunk.sol\":6322:6456  function registerAsValidator() public {... */\n      jump\t// out\n        /* \"contracts/DataPunk.sol\":2928:3035  function getAllValidators() public view returns (address[] memory) {... */\n    tag_99:\n        /* \"contracts/DataPunk.sol\":2977:2993  address[] memory */\n      0x60\n        /* \"contracts/DataPunk.sol\":3012:3028  publicValidators */\n      0x04\n        /* \"contracts/DataPunk.sol\":3005:3028  return publicValidators */\n      dup1\n      sload\n      dup1\n      0x20\n      mul\n      0x20\n      add\n      mload(0x40)\n      swap1\n      dup2\n      add\n      0x40\n      mstore\n      dup1\n      swap3\n      swap2\n      swap1\n      dup2\n      dup2\n      mstore\n      0x20\n      add\n      dup3\n      dup1\n      sload\n      dup1\n      iszero\n      tag_268\n      jumpi\n      0x20\n      mul\n      dup3\n      add\n      swap2\n      swap1\n      0x00\n      mstore\n      keccak256(0x00, 0x20)\n      swap1\n    tag_269:\n      dup2\n      0x00\n      swap1\n      sload\n      swap1\n      0x0100\n      exp\n      swap1\n      div\n      0xffffffffffffffffffffffffffffffffffffffff\n      and\n      0xffffffffffffffffffffffffffffffffffffffff\n      and\n      dup2\n      mstore\n      0x20\n      add\n      swap1\n      0x01\n      add\n      swap1\n      dup1\n      dup4\n      gt\n      tag_269\n      jumpi\n    tag_268:\n      pop\n      pop\n      pop\n      pop\n      pop\n      swap1\n      pop\n        /* \"contracts/DataPunk.sol\":2928:3035  function getAllValidators() public view returns (address[] memory) {... */\n      swap1\n      jump\t// out\n    tag_115:\n      dup3\n      dup1\n      sload\n      dup3\n      dup3\n      sstore\n      swap1\n      0x00\n      mstore\n      keccak256(0x00, 0x20)\n      swap1\n      dup2\n      add\n      swap3\n      dup3\n      iszero\n      tag_270\n      jumpi\n      swap2\n      0x20\n      mul\n      dup3\n      add\n    tag_271:\n      dup3\n      dup2\n      gt\n      iszero\n      tag_272\n      jumpi\n      dup3\n      mload\n      dup3\n      exp(0x0100, 0x00)\n      dup2\n      sload\n      dup2\n      0xffffffffffffffffffffffffffffffffffffffff\n      mul\n      not\n      and\n      swap1\n      dup4\n      0xffffffffffffffffffffffffffffffffffffffff\n      and\n      mul\n      or\n      swap1\n      sstore\n      pop\n      swap2\n      0x20\n      add\n      swap2\n      swap1\n      0x01\n      add\n      swap1\n      jump(tag_271)\n    tag_272:\n    tag_270:\n      pop\n      swap1\n      pop\n      tag_273\n      swap2\n      swap1\n      tag_274\n      jump\t// in\n    tag_273:\n      pop\n      swap1\n      jump\t// out\n    tag_135:\n      dataSize(sub_0)\n      dup1\n      dataOffset(sub_0)\n      dup4\n      codecopy\n      add\n      swap1\n      jump\t// out\n    tag_274:\n    tag_275:\n      dup1\n      dup3\n      gt\n      iszero\n      tag_276\n      jumpi\n      0x00\n      dup2\n      0x00\n      swap1\n      sstore\n      pop\n      0x01\n      add\n      jump(tag_275)\n    tag_276:\n      pop\n      swap1\n      jump\t// out\n        /* \"#utility.yul\":7:133   */\n    tag_277:\n        /* \"#utility.yul\":44:51   */\n      0x00\n        /* \"#utility.yul\":84:126   */\n      0xffffffffffffffffffffffffffffffffffffffff\n        /* \"#utility.yul\":77:82   */\n      dup3\n        /* \"#utility.yul\":73:127   */\n      and\n        /* \"#utility.yul\":62:127   */\n      swap1\n      pop\n        /* \"#utility.yul\":7:133   */\n      swap2\n      swap1\n      pop\n      jump\t// out\n        /* \"#utility.yul\":139:199   */\n    tag_278:\n        /* \"#utility.yul\":167:170   */\n      0x00\n        /* \"#utility.yul\":188:193   */\n      dup2\n        /* \"#utility.yul\":181:193   */\n      swap1\n      pop\n        /* \"#utility.yul\":139:199   */\n      swap2\n      swap1\n      pop\n      jump\t// out\n        /* \"#utility.yul\":205:347   */\n    tag_279:\n        /* \"#utility.yul\":255:264   */\n      0x00\n        /* \"#utility.yul\":288:341   */\n      tag_347\n        /* \"#utility.yul\":306:340   */\n      tag_348\n        /* \"#utility.yul\":315:339   */\n      tag_349\n        /* \"#utility.yul\":333:338   */\n      dup5\n        /* \"#utility.yul\":315:339   */\n      tag_277\n      jump\t// in\n    tag_349:\n        /* \"#utility.yul\":306:340   */\n      tag_278\n      jump\t// in\n    tag_348:\n        /* \"#utility.yul\":288:341   */\n      tag_277\n      jump\t// in\n    tag_347:\n        /* \"#utility.yul\":275:341   */\n      swap1\n      pop\n        /* \"#utility.yul\":205:347   */\n      swap2\n      swap1\n      pop\n      jump\t// out\n        /* \"#utility.yul\":353:479   */\n    tag_280:\n        /* \"#utility.yul\":403:412   */\n      0x00\n        /* \"#utility.yul\":436:473   */\n      tag_351\n        /* \"#utility.yul\":467:472   */\n      dup3\n        /* \"#utility.yul\":436:473   */\n      tag_279\n      jump\t// in\n    tag_351:\n        /* \"#utility.yul\":423:473   */\n      swap1\n      pop\n        /* \"#utility.yul\":353:479   */\n      swap2\n      swap1\n      pop\n      jump\t// out\n        /* \"#utility.yul\":485:625   */\n    tag_281:\n        /* \"#utility.yul\":549:558   */\n      0x00\n        /* \"#utility.yul\":582:619   */\n      tag_353\n        /* \"#utility.yul\":613:618   */\n      dup3\n        /* \"#utility.yul\":582:619   */\n      tag_280\n      jump\t// in\n    tag_353:\n        /* \"#utility.yul\":569:619   */\n      swap1\n      pop\n        /* \"#utility.yul\":485:625   */\n      swap2\n      swap1\n      pop\n      jump\t// out\n        /* \"#utility.yul\":631:790   */\n    tag_282:\n        /* \"#utility.yul\":732:783   */\n      tag_355\n        /* \"#utility.yul\":777:782   */\n      dup2\n        /* \"#utility.yul\":732:783   */\n      tag_281\n      jump\t// in\n    tag_355:\n        /* \"#utility.yul\":727:730   */\n      dup3\n        /* \"#utility.yul\":720:784   */\n      mstore\n        /* \"#utility.yul\":631:790   */\n      pop\n      pop\n      jump\t// out\n        /* \"#utility.yul\":796:1046   */\n    tag_29:\n        /* \"#utility.yul\":903:907   */\n      0x00\n        /* \"#utility.yul\":941:943   */\n      0x20\n        /* \"#utility.yul\":930:939   */\n      dup3\n        /* \"#utility.yul\":926:944   */\n      add\n        /* \"#utility.yul\":918:944   */\n      swap1\n      pop\n        /* \"#utility.yul\":954:1039   */\n      tag_357\n        /* \"#utility.yul\":1036:1037   */\n      0x00\n        /* \"#utility.yul\":1025:1034   */\n      dup4\n        /* \"#utility.yul\":1021:1038   */\n      add\n        /* \"#utility.yul\":1012:1018   */\n      dup5\n        /* \"#utility.yul\":954:1039   */\n      tag_282\n      jump\t// in\n    tag_357:\n        /* \"#utility.yul\":796:1046   */\n      swap3\n      swap2\n      pop\n      pop\n      jump\t// out\n        /* \"#utility.yul\":1133:1250   */\n    tag_284:\n        /* \"#utility.yul\":1242:1243   */\n      0x00\n        /* \"#utility.yul\":1239:1240   */\n      dup1\n        /* \"#utility.yul\":1232:1244   */\n      revert\n        /* \"#utility.yul\":1379:1456   */\n    tag_286:\n        /* \"#utility.yul\":1416:1423   */\n      0x00\n        /* \"#utility.yul\":1445:1450   */\n      dup2\n        /* \"#utility.yul\":1434:1450   */\n      swap1\n      pop\n        /* \"#utility.yul\":1379:1456   */\n      swap2\n      swap1\n      pop\n      jump\t// out\n        /* \"#utility.yul\":1462:1584   */\n    tag_287:\n        /* \"#utility.yul\":1535:1559   */\n      tag_363\n        /* \"#utility.yul\":1553:1558   */\n      dup2\n        /* \"#utility.yul\":1535:1559   */\n      tag_286\n      jump\t// in\n    tag_363:\n        /* \"#utility.yul\":1528:1533   */\n      dup2\n        /* \"#utility.yul\":1525:1560   */\n      eq\n        /* \"#utility.yul\":1515:1578   */\n      tag_364\n      jumpi\n        /* \"#utility.yul\":1574:1575   */\n      0x00\n        /* \"#utility.yul\":1571:1572   */\n      dup1\n        /* \"#utility.yul\":1564:1576   */\n      revert\n        /* \"#utility.yul\":1515:1578   */\n    tag_364:\n        /* \"#utility.yul\":1462:1584   */\n      pop\n      jump\t// out\n        /* \"#utility.yul\":1590:1729   */\n    tag_288:\n        /* \"#utility.yul\":1636:1641   */\n      0x00\n        /* \"#utility.yul\":1674:1680   */\n      dup2\n        /* \"#utility.yul\":1661:1681   */\n      calldataload\n        /* \"#utility.yul\":1652:1681   */\n      swap1\n      pop\n        /* \"#utility.yul\":1690:1723   */\n      tag_366\n        /* \"#utility.yul\":1717:1722   */\n      dup2\n        /* \"#utility.yul\":1690:1723   */\n      tag_287\n      jump\t// in\n    tag_366:\n        /* \"#utility.yul\":1590:1729   */\n      swap3\n      swap2\n      pop\n      pop\n      jump\t// out\n        /* \"#utility.yul\":1735:2064   */\n    tag_32:\n        /* \"#utility.yul\":1794:1800   */\n      0x00\n        /* \"#utility.yul\":1843:1845   */\n      0x20\n        /* \"#utility.yul\":1831:1840   */\n      dup3\n        /* \"#utility.yul\":1822:1829   */\n      dup5\n        /* \"#utility.yul\":1818:1841   */\n      sub\n        /* \"#utility.yul\":1814:1846   */\n      slt\n        /* \"#utility.yul\":1811:1930   */\n      iszero\n      tag_368\n      jumpi\n        /* \"#utility.yul\":1849:1928   */\n      tag_369\n      tag_284\n      jump\t// in\n    tag_369:\n        /* \"#utility.yul\":1811:1930   */\n    tag_368:\n        /* \"#utility.yul\":1969:1970   */\n      0x00\n        /* \"#utility.yul\":1994:2047   */\n      tag_370\n        /* \"#utility.yul\":2039:2046   */\n      dup5\n        /* \"#utility.yul\":2030:2036   */\n      dup3\n        /* \"#utility.yul\":2019:2028   */\n      dup6\n        /* \"#utility.yul\":2015:2037   */\n      add\n        /* \"#utility.yul\":1994:2047   */\n      tag_288\n      jump\t// in\n    tag_370:\n        /* \"#utility.yul\":1984:2047   */\n      swap2\n      pop\n        /* \"#utility.yul\":1940:2057   */\n      pop\n        /* \"#utility.yul\":1735:2064   */\n      swap3\n      swap2\n      pop\n      pop\n      jump\t// out\n        /* \"#utility.yul\":2070:2166   */\n    tag_289:\n        /* \"#utility.yul\":2107:2114   */\n      0x00\n        /* \"#utility.yul\":2136:2160   */\n      tag_372\n        /* \"#utility.yul\":2154:2159   */\n      dup3\n        /* \"#utility.yul\":2136:2160   */\n      tag_277\n      jump\t// in\n    tag_372:\n        /* \"#utility.yul\":2125:2160   */\n      swap1\n      pop\n        /* \"#utility.yul\":2070:2166   */\n      swap2\n      swap1\n      pop\n      jump\t// out\n        /* \"#utility.yul\":2172:2290   */\n    tag_290:\n        /* \"#utility.yul\":2259:2283   */\n      tag_374\n        /* \"#utility.yul\":2277:2282   */\n      dup2\n        /* \"#utility.yul\":2259:2283   */\n      tag_289\n      jump\t// in\n    tag_374:\n        /* \"#utility.yul\":2254:2257   */\n      dup3\n        /* \"#utility.yul\":2247:2284   */\n      mstore\n        /* \"#utility.yul\":2172:2290   */\n      pop\n      pop\n      jump\t// out\n        /* \"#utility.yul\":2296:2414   */\n    tag_291:\n        /* \"#utility.yul\":2383:2407   */\n      tag_376\n        /* \"#utility.yul\":2401:2406   */\n      dup2\n        /* \"#utility.yul\":2383:2407   */\n      tag_286\n      jump\t// in\n    tag_376:\n        /* \"#utility.yul\":2378:2381   */\n      dup3\n        /* \"#utility.yul\":2371:2408   */\n      mstore\n        /* \"#utility.yul\":2296:2414   */\n      pop\n      pop\n      jump\t// out\n        /* \"#utility.yul\":2420:2510   */\n    tag_292:\n        /* \"#utility.yul\":2454:2461   */\n      0x00\n        /* \"#utility.yul\":2497:2502   */\n      dup2\n        /* \"#utility.yul\":2490:2503   */\n      iszero\n        /* \"#utility.yul\":2483:2504   */\n      iszero\n        /* \"#utility.yul\":2472:2504   */\n      swap1\n      pop\n        /* \"#utility.yul\":2420:2510   */\n      swap2\n      swap1\n      pop\n      jump\t// out\n        /* \"#utility.yul\":2516:2625   */\n    tag_293:\n        /* \"#utility.yul\":2597:2618   */\n      tag_379\n        /* \"#utility.yul\":2612:2617   */\n      dup2\n        /* \"#utility.yul\":2597:2618   */\n      tag_292\n      jump\t// in\n    tag_379:\n        /* \"#utility.yul\":2592:2595   */\n      dup3\n        /* \"#utility.yul\":2585:2619   */\n      mstore\n        /* \"#utility.yul\":2516:2625   */\n      pop\n      pop\n      jump\t// out\n        /* \"#utility.yul\":2631:3172   */\n    tag_35:\n        /* \"#utility.yul\":2802:2806   */\n      0x00\n        /* \"#utility.yul\":2840:2843   */\n      0x80\n        /* \"#utility.yul\":2829:2838   */\n      dup3\n        /* \"#utility.yul\":2825:2844   */\n      add\n        /* \"#utility.yul\":2817:2844   */\n      swap1\n      pop\n        /* \"#utility.yul\":2854:2925   */\n      tag_381\n        /* \"#utility.yul\":2922:2923   */\n      0x00\n        /* \"#utility.yul\":2911:2920   */\n      dup4\n        /* \"#utility.yul\":2907:2924   */\n      add\n        /* \"#utility.yul\":2898:2904   */\n      dup8\n        /* \"#utility.yul\":2854:2925   */\n      tag_290\n      jump\t// in\n    tag_381:\n        /* \"#utility.yul\":2935:3007   */\n      tag_382\n        /* \"#utility.yul\":3003:3005   */\n      0x20\n        /* \"#utility.yul\":2992:3001   */\n      dup4\n        /* \"#utility.yul\":2988:3006   */\n      add\n        /* \"#utility.yul\":2979:2985   */\n      dup7\n        /* \"#utility.yul\":2935:3007   */\n      tag_291\n      jump\t// in\n    tag_382:\n        /* \"#utility.yul\":3017:3089   */\n      tag_383\n        /* \"#utility.yul\":3085:3087   */\n      0x40\n        /* \"#utility.yul\":3074:3083   */\n      dup4\n        /* \"#utility.yul\":3070:3088   */\n      add\n        /* \"#utility.yul\":3061:3067   */\n      dup6\n        /* \"#utility.yul\":3017:3089   */\n      tag_291\n      jump\t// in\n    tag_383:\n        /* \"#utility.yul\":3099:3165   */\n      tag_384\n        /* \"#utility.yul\":3161:3163   */\n      0x60\n        /* \"#utility.yul\":3150:3159   */\n      dup4\n        /* \"#utility.yul\":3146:3164   */\n      add\n        /* \"#utility.yul\":3137:3143   */\n      dup5\n        /* \"#utility.yul\":3099:3165   */\n      tag_293\n      jump\t// in\n    tag_384:\n        /* \"#utility.yul\":2631:3172   */\n      swap6\n      swap5\n      pop\n      pop\n      pop\n      pop\n      pop\n      jump\t// out\n        /* \"#utility.yul\":3178:3652   */\n    tag_38:\n        /* \"#utility.yul\":3246:3252   */\n      0x00\n        /* \"#utility.yul\":3254:3260   */\n      dup1\n        /* \"#utility.yul\":3303:3305   */\n      0x40\n        /* \"#utility.yul\":3291:3300   */\n      dup4\n        /* \"#utility.yul\":3282:3289   */\n      dup6\n        /* \"#utility.yul\":3278:3301   */\n      sub\n        /* \"#utility.yul\":3274:3306   */\n      slt\n        /* \"#utility.yul\":3271:3390   */\n      iszero\n      tag_386\n      jumpi\n        /* \"#utility.yul\":3309:3388   */\n      tag_387\n      tag_284\n      jump\t// in\n    tag_387:\n        /* \"#utility.yul\":3271:3390   */\n    tag_386:\n        /* \"#utility.yul\":3429:3430   */\n      0x00\n        /* \"#utility.yul\":3454:3507   */\n      tag_388\n        /* \"#utility.yul\":3499:3506   */\n      dup6\n        /* \"#utility.yul\":3490:3496   */\n      dup3\n        /* \"#utility.yul\":3479:3488   */\n      dup7\n        /* \"#utility.yul\":3475:3497   */\n      add\n        /* \"#utility.yul\":3454:3507   */\n      tag_288\n      jump\t// in\n    tag_388:\n        /* \"#utility.yul\":3444:3507   */\n      swap3\n      pop\n        /* \"#utility.yul\":3400:3517   */\n      pop\n        /* \"#utility.yul\":3556:3558   */\n      0x20\n        /* \"#utility.yul\":3582:3635   */\n      tag_389\n        /* \"#utility.yul\":3627:3634   */\n      dup6\n        /* \"#utility.yul\":3618:3624   */\n      dup3\n        /* \"#utility.yul\":3607:3616   */\n      dup7\n        /* \"#utility.yul\":3603:3625   */\n      add\n        /* \"#utility.yul\":3582:3635   */\n      tag_288\n      jump\t// in\n    tag_389:\n        /* \"#utility.yul\":3572:3635   */\n      swap2\n      pop\n        /* \"#utility.yul\":3527:3645   */\n      pop\n        /* \"#utility.yul\":3178:3652   */\n      swap3\n      pop\n      swap3\n      swap1\n      pop\n      jump\t// out\n        /* \"#utility.yul\":3658:3772   */\n    tag_294:\n        /* \"#utility.yul\":3725:3731   */\n      0x00\n        /* \"#utility.yul\":3759:3764   */\n      dup2\n        /* \"#utility.yul\":3753:3765   */\n      mload\n        /* \"#utility.yul\":3743:3765   */\n      swap1\n      pop\n        /* \"#utility.yul\":3658:3772   */\n      swap2\n      swap1\n      pop\n      jump\t// out\n        /* \"#utility.yul\":3778:3962   */\n    tag_295:\n        /* \"#utility.yul\":3877:3888   */\n      0x00\n        /* \"#utility.yul\":3911:3917   */\n      dup3\n        /* \"#utility.yul\":3906:3909   */\n      dup3\n        /* \"#utility.yul\":3899:3918   */\n      mstore\n        /* \"#utility.yul\":3951:3955   */\n      0x20\n        /* \"#utility.yul\":3946:3949   */\n      dup3\n        /* \"#utility.yul\":3942:3956   */\n      add\n        /* \"#utility.yul\":3927:3956   */\n      swap1\n      pop\n        /* \"#utility.yul\":3778:3962   */\n      swap3\n      swap2\n      pop\n      pop\n      jump\t// out\n        /* \"#utility.yul\":3968:4100   */\n    tag_296:\n        /* \"#utility.yul\":4035:4039   */\n      0x00\n        /* \"#utility.yul\":4058:4061   */\n      dup2\n        /* \"#utility.yul\":4050:4061   */\n      swap1\n      pop\n        /* \"#utility.yul\":4088:4092   */\n      0x20\n        /* \"#utility.yul\":4083:4086   */\n      dup3\n        /* \"#utility.yul\":4079:4093   */\n      add\n        /* \"#utility.yul\":4071:4093   */\n      swap1\n      pop\n        /* \"#utility.yul\":3968:4100   */\n      swap2\n      swap1\n      pop\n      jump\t// out\n        /* \"#utility.yul\":4106:4214   */\n    tag_297:\n        /* \"#utility.yul\":4183:4207   */\n      tag_394\n        /* \"#utility.yul\":4201:4206   */\n      dup2\n        /* \"#utility.yul\":4183:4207   */\n      tag_289\n      jump\t// in\n    tag_394:\n        /* \"#utility.yul\":4178:4181   */\n      dup3\n        /* \"#utility.yul\":4171:4208   */\n      mstore\n        /* \"#utility.yul\":4106:4214   */\n      pop\n      pop\n      jump\t// out\n        /* \"#utility.yul\":4220:4399   */\n    tag_298:\n        /* \"#utility.yul\":4289:4299   */\n      0x00\n        /* \"#utility.yul\":4310:4356   */\n      tag_396\n        /* \"#utility.yul\":4352:4355   */\n      dup4\n        /* \"#utility.yul\":4344:4350   */\n      dup4\n        /* \"#utility.yul\":4310:4356   */\n      tag_297\n      jump\t// in\n    tag_396:\n        /* \"#utility.yul\":4388:4392   */\n      0x20\n        /* \"#utility.yul\":4383:4386   */\n      dup4\n        /* \"#utility.yul\":4379:4393   */\n      add\n        /* \"#utility.yul\":4365:4393   */\n      swap1\n      pop\n        /* \"#utility.yul\":4220:4399   */\n      swap3\n      swap2\n      pop\n      pop\n      jump\t// out\n        /* \"#utility.yul\":4405:4518   */\n    tag_299:\n        /* \"#utility.yul\":4475:4479   */\n      0x00\n        /* \"#utility.yul\":4507:4511   */\n      0x20\n        /* \"#utility.yul\":4502:4505   */\n      dup3\n        /* \"#utility.yul\":4498:4512   */\n      add\n        /* \"#utility.yul\":4490:4512   */\n      swap1\n      pop\n        /* \"#utility.yul\":4405:4518   */\n      swap2\n      swap1\n      pop\n      jump\t// out\n        /* \"#utility.yul\":4554:5286   */\n    tag_300:\n        /* \"#utility.yul\":4673:4676   */\n      0x00\n        /* \"#utility.yul\":4702:4756   */\n      tag_399\n        /* \"#utility.yul\":4750:4755   */\n      dup3\n        /* \"#utility.yul\":4702:4756   */\n      tag_294\n      jump\t// in\n    tag_399:\n        /* \"#utility.yul\":4772:4858   */\n      tag_400\n        /* \"#utility.yul\":4851:4857   */\n      dup2\n        /* \"#utility.yul\":4846:4849   */\n      dup6\n        /* \"#utility.yul\":4772:4858   */\n      tag_295\n      jump\t// in\n    tag_400:\n        /* \"#utility.yul\":4765:4858   */\n      swap4\n      pop\n        /* \"#utility.yul\":4882:4938   */\n      tag_401\n        /* \"#utility.yul\":4932:4937   */\n      dup4\n        /* \"#utility.yul\":4882:4938   */\n      tag_296\n      jump\t// in\n    tag_401:\n        /* \"#utility.yul\":4961:4968   */\n      dup1\n        /* \"#utility.yul\":4992:4993   */\n      0x00\n        /* \"#utility.yul\":4977:5261   */\n    tag_402:\n        /* \"#utility.yul\":5002:5008   */\n      dup4\n        /* \"#utility.yul\":4999:5000   */\n      dup2\n        /* \"#utility.yul\":4996:5009   */\n      lt\n        /* \"#utility.yul\":4977:5261   */\n      iszero\n      tag_404\n      jumpi\n        /* \"#utility.yul\":5078:5084   */\n      dup2\n        /* \"#utility.yul\":5072:5085   */\n      mload\n        /* \"#utility.yul\":5105:5168   */\n      tag_405\n        /* \"#utility.yul\":5164:5167   */\n      dup9\n        /* \"#utility.yul\":5149:5162   */\n      dup3\n        /* \"#utility.yul\":5105:5168   */\n      tag_298\n      jump\t// in\n    tag_405:\n        /* \"#utility.yul\":5098:5168   */\n      swap8\n      pop\n        /* \"#utility.yul\":5191:5251   */\n      tag_406\n        /* \"#utility.yul\":5244:5250   */\n      dup4\n        /* \"#utility.yul\":5191:5251   */\n      tag_299\n      jump\t// in\n    tag_406:\n        /* \"#utility.yul\":5181:5251   */\n      swap3\n      pop\n        /* \"#utility.yul\":5037:5261   */\n      pop\n        /* \"#utility.yul\":5024:5025   */\n      0x01\n        /* \"#utility.yul\":5021:5022   */\n      dup2\n        /* \"#utility.yul\":5017:5026   */\n      add\n        /* \"#utility.yul\":5012:5026   */\n      swap1\n      pop\n        /* \"#utility.yul\":4977:5261   */\n      jump(tag_402)\n    tag_404:\n        /* \"#utility.yul\":4981:4995   */\n      pop\n        /* \"#utility.yul\":5277:5280   */\n      dup6\n        /* \"#utility.yul\":5270:5280   */\n      swap4\n      pop\n        /* \"#utility.yul\":4678:5286   */\n      pop\n      pop\n      pop\n        /* \"#utility.yul\":4554:5286   */\n      swap3\n      swap2\n      pop\n      pop\n      jump\t// out\n        /* \"#utility.yul\":5292:5406   */\n    tag_301:\n        /* \"#utility.yul\":5359:5365   */\n      0x00\n        /* \"#utility.yul\":5393:5398   */\n      dup2\n        /* \"#utility.yul\":5387:5399   */\n      mload\n        /* \"#utility.yul\":5377:5399   */\n      swap1\n      pop\n        /* \"#utility.yul\":5292:5406   */\n      swap2\n      swap1\n      pop\n      jump\t// out\n        /* \"#utility.yul\":5412:5596   */\n    tag_302:\n        /* \"#utility.yul\":5511:5522   */\n      0x00\n        /* \"#utility.yul\":5545:5551   */\n      dup3\n        /* \"#utility.yul\":5540:5543   */\n      dup3\n        /* \"#utility.yul\":5533:5552   */\n      mstore\n        /* \"#utility.yul\":5585:5589   */\n      0x20\n        /* \"#utility.yul\":5580:5583   */\n      dup3\n        /* \"#utility.yul\":5576:5590   */\n      add\n        /* \"#utility.yul\":5561:5590   */\n      swap1\n      pop\n        /* \"#utility.yul\":5412:5596   */\n      swap3\n      swap2\n      pop\n      pop\n      jump\t// out\n        /* \"#utility.yul\":5602:5734   */\n    tag_303:\n        /* \"#utility.yul\":5669:5673   */\n      0x00\n        /* \"#utility.yul\":5692:5695   */\n      dup2\n        /* \"#utility.yul\":5684:5695   */\n      swap1\n      pop\n        /* \"#utility.yul\":5722:5726   */\n      0x20\n        /* \"#utility.yul\":5717:5720   */\n      dup3\n        /* \"#utility.yul\":5713:5727   */\n      add\n        /* \"#utility.yul\":5705:5727   */\n      swap1\n      pop\n        /* \"#utility.yul\":5602:5734   */\n      swap2\n      swap1\n      pop\n      jump\t// out\n        /* \"#utility.yul\":5740:5848   */\n    tag_304:\n        /* \"#utility.yul\":5817:5841   */\n      tag_411\n        /* \"#utility.yul\":5835:5840   */\n      dup2\n        /* \"#utility.yul\":5817:5841   */\n      tag_286\n      jump\t// in\n    tag_411:\n        /* \"#utility.yul\":5812:5815   */\n      dup3\n        /* \"#utility.yul\":5805:5842   */\n      mstore\n        /* \"#utility.yul\":5740:5848   */\n      pop\n      pop\n      jump\t// out\n        /* \"#utility.yul\":5854:6033   */\n    tag_305:\n        /* \"#utility.yul\":5923:5933   */\n      0x00\n        /* \"#utility.yul\":5944:5990   */\n      tag_413\n        /* \"#utility.yul\":5986:5989   */\n      dup4\n        /* \"#utility.yul\":5978:5984   */\n      dup4\n        /* \"#utility.yul\":5944:5990   */\n      tag_304\n      jump\t// in\n    tag_413:\n        /* \"#utility.yul\":6022:6026   */\n      0x20\n        /* \"#utility.yul\":6017:6020   */\n      dup4\n        /* \"#utility.yul\":6013:6027   */\n      add\n        /* \"#utility.yul\":5999:6027   */\n      swap1\n      pop\n        /* \"#utility.yul\":5854:6033   */\n      swap3\n      swap2\n      pop\n      pop\n      jump\t// out\n        /* \"#utility.yul\":6039:6152   */\n    tag_306:\n        /* \"#utility.yul\":6109:6113   */\n      0x00\n        /* \"#utility.yul\":6141:6145   */\n      0x20\n        /* \"#utility.yul\":6136:6139   */\n      dup3\n        /* \"#utility.yul\":6132:6146   */\n      add\n        /* \"#utility.yul\":6124:6146   */\n      swap1\n      pop\n        /* \"#utility.yul\":6039:6152   */\n      swap2\n      swap1\n      pop\n      jump\t// out\n        /* \"#utility.yul\":6188:6920   */\n    tag_307:\n        /* \"#utility.yul\":6307:6310   */\n      0x00\n        /* \"#utility.yul\":6336:6390   */\n      tag_416\n        /* \"#utility.yul\":6384:6389   */\n      dup3\n        /* \"#utility.yul\":6336:6390   */\n      tag_301\n      jump\t// in\n    tag_416:\n        /* \"#utility.yul\":6406:6492   */\n      tag_417\n        /* \"#utility.yul\":6485:6491   */\n      dup2\n        /* \"#utility.yul\":6480:6483   */\n      dup6\n        /* \"#utility.yul\":6406:6492   */\n      tag_302\n      jump\t// in\n    tag_417:\n        /* \"#utility.yul\":6399:6492   */\n      swap4\n      pop\n        /* \"#utility.yul\":6516:6572   */\n      tag_418\n        /* \"#utility.yul\":6566:6571   */\n      dup4\n        /* \"#utility.yul\":6516:6572   */\n      tag_303\n      jump\t// in\n    tag_418:\n        /* \"#utility.yul\":6595:6602   */\n      dup1\n        /* \"#utility.yul\":6626:6627   */\n      0x00\n        /* \"#utility.yul\":6611:6895   */\n    tag_419:\n        /* \"#utility.yul\":6636:6642   */\n      dup4\n        /* \"#utility.yul\":6633:6634   */\n      dup2\n        /* \"#utility.yul\":6630:6643   */\n      lt\n        /* \"#utility.yul\":6611:6895   */\n      iszero\n      tag_421\n      jumpi\n        /* \"#utility.yul\":6712:6718   */\n      dup2\n        /* \"#utility.yul\":6706:6719   */\n      mload\n        /* \"#utility.yul\":6739:6802   */\n      tag_422\n        /* \"#utility.yul\":6798:6801   */\n      dup9\n        /* \"#utility.yul\":6783:6796   */\n      dup3\n        /* \"#utility.yul\":6739:6802   */\n      tag_305\n      jump\t// in\n    tag_422:\n        /* \"#utility.yul\":6732:6802   */\n      swap8\n      pop\n        /* \"#utility.yul\":6825:6885   */\n      tag_423\n        /* \"#utility.yul\":6878:6884   */\n      dup4\n        /* \"#utility.yul\":6825:6885   */\n      tag_306\n      jump\t// in\n    tag_423:\n        /* \"#utility.yul\":6815:6885   */\n      swap3\n      pop\n        /* \"#utility.yul\":6671:6895   */\n      pop\n        /* \"#utility.yul\":6658:6659   */\n      0x01\n        /* \"#utility.yul\":6655:6656   */\n      dup2\n        /* \"#utility.yul\":6651:6660   */\n      add\n        /* \"#utility.yul\":6646:6660   */\n      swap1\n      pop\n        /* \"#utility.yul\":6611:6895   */\n      jump(tag_419)\n    tag_421:\n        /* \"#utility.yul\":6615:6629   */\n      pop\n        /* \"#utility.yul\":6911:6914   */\n      dup6\n        /* \"#utility.yul\":6904:6914   */\n      swap4\n      pop\n        /* \"#utility.yul\":6312:6920   */\n      pop\n      pop\n      pop\n        /* \"#utility.yul\":6188:6920   */\n      swap3\n      swap2\n      pop\n      pop\n      jump\t// out\n        /* \"#utility.yul\":6926:7037   */\n    tag_308:\n        /* \"#utility.yul\":6990:6996   */\n      0x00\n        /* \"#utility.yul\":7024:7029   */\n      dup2\n        /* \"#utility.yul\":7018:7030   */\n      mload\n        /* \"#utility.yul\":7008:7030   */\n      swap1\n      pop\n        /* \"#utility.yul\":6926:7037   */\n      swap2\n      swap1\n      pop\n      jump\t// out\n        /* \"#utility.yul\":7043:7224   */\n    tag_309:\n        /* \"#utility.yul\":7139:7150   */\n      0x00\n        /* \"#utility.yul\":7173:7179   */\n      dup3\n        /* \"#utility.yul\":7168:7171   */\n      dup3\n        /* \"#utility.yul\":7161:7180   */\n      mstore\n        /* \"#utility.yul\":7213:7217   */\n      0x20\n        /* \"#utility.yul\":7208:7211   */\n      dup3\n        /* \"#utility.yul\":7204:7218   */\n      add\n        /* \"#utility.yul\":7189:7218   */\n      swap1\n      pop\n        /* \"#utility.yul\":7043:7224   */\n      swap3\n      swap2\n      pop\n      pop\n      jump\t// out\n        /* \"#utility.yul\":7230:7359   */\n    tag_310:\n        /* \"#utility.yul\":7294:7298   */\n      0x00\n        /* \"#utility.yul\":7317:7320   */\n      dup2\n        /* \"#utility.yul\":7309:7320   */\n      swap1\n      pop\n        /* \"#utility.yul\":7347:7351   */\n      0x20\n        /* \"#utility.yul\":7342:7345   */\n      dup3\n        /* \"#utility.yul\":7338:7352   */\n      add\n        /* \"#utility.yul\":7330:7352   */\n      swap1\n      pop\n        /* \"#utility.yul\":7230:7359   */\n      swap2\n      swap1\n      pop\n      jump\t// out\n        /* \"#utility.yul\":7365:7464   */\n    tag_311:\n        /* \"#utility.yul\":7436:7457   */\n      tag_428\n        /* \"#utility.yul\":7451:7456   */\n      dup2\n        /* \"#utility.yul\":7436:7457   */\n      tag_292\n      jump\t// in\n    tag_428:\n        /* \"#utility.yul\":7431:7434   */\n      dup3\n        /* \"#utility.yul\":7424:7458   */\n      mstore\n        /* \"#utility.yul\":7365:7464   */\n      pop\n      pop\n      jump\t// out\n        /* \"#utility.yul\":7470:7637   */\n    tag_312:\n        /* \"#utility.yul\":7533:7543   */\n      0x00\n        /* \"#utility.yul\":7554:7594   */\n      tag_430\n        /* \"#utility.yul\":7590:7593   */\n      dup4\n        /* \"#utility.yul\":7582:7588   */\n      dup4\n        /* \"#utility.yul\":7554:7594   */\n      tag_311\n      jump\t// in\n    tag_430:\n        /* \"#utility.yul\":7626:7630   */\n      0x20\n        /* \"#utility.yul\":7621:7624   */\n      dup4\n        /* \"#utility.yul\":7617:7631   */\n      add\n        /* \"#utility.yul\":7603:7631   */\n      swap1\n      pop\n        /* \"#utility.yul\":7470:7637   */\n      swap3\n      swap2\n      pop\n      pop\n      jump\t// out\n        /* \"#utility.yul\":7643:7753   */\n    tag_313:\n        /* \"#utility.yul\":7710:7714   */\n      0x00\n        /* \"#utility.yul\":7742:7746   */\n      0x20\n        /* \"#utility.yul\":7737:7740   */\n      dup3\n        /* \"#utility.yul\":7733:7747   */\n      add\n        /* \"#utility.yul\":7725:7747   */\n      swap1\n      pop\n        /* \"#utility.yul\":7643:7753   */\n      swap2\n      swap1\n      pop\n      jump\t// out\n        /* \"#utility.yul\":7783:8491   */\n    tag_314:\n        /* \"#utility.yul\":7896:7899   */\n      0x00\n        /* \"#utility.yul\":7925:7976   */\n      tag_433\n        /* \"#utility.yul\":7970:7975   */\n      dup3\n        /* \"#utility.yul\":7925:7976   */\n      tag_308\n      jump\t// in\n    tag_433:\n        /* \"#utility.yul\":7992:8075   */\n      tag_434\n        /* \"#utility.yul\":8068:8074   */\n      dup2\n        /* \"#utility.yul\":8063:8066   */\n      dup6\n        /* \"#utility.yul\":7992:8075   */\n      tag_309\n      jump\t// in\n    tag_434:\n        /* \"#utility.yul\":7985:8075   */\n      swap4\n      pop\n        /* \"#utility.yul\":8099:8152   */\n      tag_435\n        /* \"#utility.yul\":8146:8151   */\n      dup4\n        /* \"#utility.yul\":8099:8152   */\n      tag_310\n      jump\t// in\n    tag_435:\n        /* \"#utility.yul\":8175:8182   */\n      dup1\n        /* \"#utility.yul\":8206:8207   */\n      0x00\n        /* \"#utility.yul\":8191:8466   */\n    tag_436:\n        /* \"#utility.yul\":8216:8222   */\n      dup4\n        /* \"#utility.yul\":8213:8214   */\n      dup2\n        /* \"#utility.yul\":8210:8223   */\n      lt\n        /* \"#utility.yul\":8191:8466   */\n      iszero\n      tag_438\n      jumpi\n        /* \"#utility.yul\":8292:8298   */\n      dup2\n        /* \"#utility.yul\":8286:8299   */\n      mload\n        /* \"#utility.yul\":8319:8376   */\n      tag_439\n        /* \"#utility.yul\":8372:8375   */\n      dup9\n        /* \"#utility.yul\":8357:8370   */\n      dup3\n        /* \"#utility.yul\":8319:8376   */\n      tag_312\n      jump\t// in\n    tag_439:\n        /* \"#utility.yul\":8312:8376   */\n      swap8\n      pop\n        /* \"#utility.yul\":8399:8456   */\n      tag_440\n        /* \"#utility.yul\":8449:8455   */\n      dup4\n        /* \"#utility.yul\":8399:8456   */\n      tag_313\n      jump\t// in\n    tag_440:\n        /* \"#utility.yul\":8389:8456   */\n      swap3\n      pop\n        /* \"#utility.yul\":8251:8466   */\n      pop\n        /* \"#utility.yul\":8238:8239   */\n      0x01\n        /* \"#utility.yul\":8235:8236   */\n      dup2\n        /* \"#utility.yul\":8231:8240   */\n      add\n        /* \"#utility.yul\":8226:8240   */\n      swap1\n      pop\n        /* \"#utility.yul\":8191:8466   */\n      jump(tag_436)\n    tag_438:\n        /* \"#utility.yul\":8195:8209   */\n      pop\n        /* \"#utility.yul\":8482:8485   */\n      dup6\n        /* \"#utility.yul\":8475:8485   */\n      swap4\n      pop\n        /* \"#utility.yul\":7901:8491   */\n      pop\n      pop\n      pop\n        /* \"#utility.yul\":7783:8491   */\n      swap3\n      swap2\n      pop\n      pop\n      jump\t// out\n        /* \"#utility.yul\":8497:9642   */\n    tag_49:\n        /* \"#utility.yul\":8868:8872   */\n      0x00\n        /* \"#utility.yul\":8906:8909   */\n      0x80\n        /* \"#utility.yul\":8895:8904   */\n      dup3\n        /* \"#utility.yul\":8891:8910   */\n      add\n        /* \"#utility.yul\":8883:8910   */\n      swap1\n      pop\n        /* \"#utility.yul\":8956:8965   */\n      dup2\n        /* \"#utility.yul\":8950:8954   */\n      dup2\n        /* \"#utility.yul\":8946:8966   */\n      sub\n        /* \"#utility.yul\":8942:8943   */\n      0x00\n        /* \"#utility.yul\":8931:8940   */\n      dup4\n        /* \"#utility.yul\":8927:8944   */\n      add\n        /* \"#utility.yul\":8920:8967   */\n      mstore\n        /* \"#utility.yul\":8984:9092   */\n      tag_442\n        /* \"#utility.yul\":9087:9091   */\n      dup2\n        /* \"#utility.yul\":9078:9084   */\n      dup8\n        /* \"#utility.yul\":8984:9092   */\n      tag_300\n      jump\t// in\n    tag_442:\n        /* \"#utility.yul\":8976:9092   */\n      swap1\n      pop\n        /* \"#utility.yul\":9139:9148   */\n      dup2\n        /* \"#utility.yul\":9133:9137   */\n      dup2\n        /* \"#utility.yul\":9129:9149   */\n      sub\n        /* \"#utility.yul\":9124:9126   */\n      0x20\n        /* \"#utility.yul\":9113:9122   */\n      dup4\n        /* \"#utility.yul\":9109:9127   */\n      add\n        /* \"#utility.yul\":9102:9150   */\n      mstore\n        /* \"#utility.yul\":9167:9275   */\n      tag_443\n        /* \"#utility.yul\":9270:9274   */\n      dup2\n        /* \"#utility.yul\":9261:9267   */\n      dup7\n        /* \"#utility.yul\":9167:9275   */\n      tag_307\n      jump\t// in\n    tag_443:\n        /* \"#utility.yul\":9159:9275   */\n      swap1\n      pop\n        /* \"#utility.yul\":9322:9331   */\n      dup2\n        /* \"#utility.yul\":9316:9320   */\n      dup2\n        /* \"#utility.yul\":9312:9332   */\n      sub\n        /* \"#utility.yul\":9307:9309   */\n      0x40\n        /* \"#utility.yul\":9296:9305   */\n      dup4\n        /* \"#utility.yul\":9292:9310   */\n      add\n        /* \"#utility.yul\":9285:9333   */\n      mstore\n        /* \"#utility.yul\":9350:9458   */\n      tag_444\n        /* \"#utility.yul\":9453:9457   */\n      dup2\n        /* \"#utility.yul\":9444:9450   */\n      dup6\n        /* \"#utility.yul\":9350:9458   */\n      tag_307\n      jump\t// in\n    tag_444:\n        /* \"#utility.yul\":9342:9458   */\n      swap1\n      pop\n        /* \"#utility.yul\":9505:9514   */\n      dup2\n        /* \"#utility.yul\":9499:9503   */\n      dup2\n        /* \"#utility.yul\":9495:9515   */\n      sub\n        /* \"#utility.yul\":9490:9492   */\n      0x60\n        /* \"#utility.yul\":9479:9488   */\n      dup4\n        /* \"#utility.yul\":9475:9493   */\n      add\n        /* \"#utility.yul\":9468:9516   */\n      mstore\n        /* \"#utility.yul\":9533:9635   */\n      tag_445\n        /* \"#utility.yul\":9630:9634   */\n      dup2\n        /* \"#utility.yul\":9621:9627   */\n      dup5\n        /* \"#utility.yul\":9533:9635   */\n      tag_314\n      jump\t// in\n    tag_445:\n        /* \"#utility.yul\":9525:9635   */\n      swap1\n      pop\n        /* \"#utility.yul\":8497:9642   */\n      swap6\n      swap5\n      pop\n      pop\n      pop\n      pop\n      pop\n      jump\t// out\n        /* \"#utility.yul\":9648:9770   */\n    tag_315:\n        /* \"#utility.yul\":9721:9745   */\n      tag_447\n        /* \"#utility.yul\":9739:9744   */\n      dup2\n        /* \"#utility.yul\":9721:9745   */\n      tag_289\n      jump\t// in\n    tag_447:\n        /* \"#utility.yul\":9714:9719   */\n      dup2\n        /* \"#utility.yul\":9711:9746   */\n      eq\n        /* \"#utility.yul\":9701:9764   */\n      tag_448\n      jumpi\n        /* \"#utility.yul\":9760:9761   */\n      0x00\n        /* \"#utility.yul\":9757:9758   */\n      dup1\n        /* \"#utility.yul\":9750:9762   */\n      revert\n        /* \"#utility.yul\":9701:9764   */\n    tag_448:\n        /* \"#utility.yul\":9648:9770   */\n      pop\n      jump\t// out\n        /* \"#utility.yul\":9776:9915   */\n    tag_316:\n        /* \"#utility.yul\":9822:9827   */\n      0x00\n        /* \"#utility.yul\":9860:9866   */\n      dup2\n        /* \"#utility.yul\":9847:9867   */\n      calldataload\n        /* \"#utility.yul\":9838:9867   */\n      swap1\n      pop\n        /* \"#utility.yul\":9876:9909   */\n      tag_450\n        /* \"#utility.yul\":9903:9908   */\n      dup2\n        /* \"#utility.yul\":9876:9909   */\n      tag_315\n      jump\t// in\n    tag_450:\n        /* \"#utility.yul\":9776:9915   */\n      swap3\n      swap2\n      pop\n      pop\n      jump\t// out\n        /* \"#utility.yul\":9921:10250   */\n    tag_52:\n        /* \"#utility.yul\":9980:9986   */\n      0x00\n        /* \"#utility.yul\":10029:10031   */\n      0x20\n        /* \"#utility.yul\":10017:10026   */\n      dup3\n        /* \"#utility.yul\":10008:10015   */\n      dup5\n        /* \"#utility.yul\":10004:10027   */\n      sub\n        /* \"#utility.yul\":10000:10032   */\n      slt\n        /* \"#utility.yul\":9997:10116   */\n      iszero\n      tag_452\n      jumpi\n        /* \"#utility.yul\":10035:10114   */\n      tag_453\n      tag_284\n      jump\t// in\n    tag_453:\n        /* \"#utility.yul\":9997:10116   */\n    tag_452:\n        /* \"#utility.yul\":10155:10156   */\n      0x00\n        /* \"#utility.yul\":10180:10233   */\n      tag_454\n        /* \"#utility.yul\":10225:10232   */\n      dup5\n        /* \"#utility.yul\":10216:10222   */\n      dup3\n        /* \"#utility.yul\":10205:10214   */\n      dup6\n        /* \"#utility.yul\":10201:10223   */\n      add\n        /* \"#utility.yul\":10180:10233   */\n      tag_316\n      jump\t// in\n    tag_454:\n        /* \"#utility.yul\":10170:10233   */\n      swap2\n      pop\n        /* \"#utility.yul\":10126:10243   */\n      pop\n        /* \"#utility.yul\":9921:10250   */\n      swap3\n      swap2\n      pop\n      pop\n      jump\t// out\n        /* \"#utility.yul\":10256:10478   */\n    tag_55:\n        /* \"#utility.yul\":10349:10353   */\n      0x00\n        /* \"#utility.yul\":10387:10389   */\n      0x20\n        /* \"#utility.yul\":10376:10385   */\n      dup3\n        /* \"#utility.yul\":10372:10390   */\n      add\n        /* \"#utility.yul\":10364:10390   */\n      swap1\n      pop\n        /* \"#utility.yul\":10400:10471   */\n      tag_456\n        /* \"#utility.yul\":10468:10469   */\n      0x00\n        /* \"#utility.yul\":10457:10466   */\n      dup4\n        /* \"#utility.yul\":10453:10470   */\n      add\n        /* \"#utility.yul\":10444:10450   */\n      dup5\n        /* \"#utility.yul\":10400:10471   */\n      tag_291\n      jump\t// in\n    tag_456:\n        /* \"#utility.yul\":10256:10478   */\n      swap3\n      swap2\n      pop\n      pop\n      jump\t// out\n        /* \"#utility.yul\":10484:10706   */\n    tag_60:\n        /* \"#utility.yul\":10577:10581   */\n      0x00\n        /* \"#utility.yul\":10615:10617   */\n      0x20\n        /* \"#utility.yul\":10604:10613   */\n      dup3\n        /* \"#utility.yul\":10600:10618   */\n      add\n        /* \"#utility.yul\":10592:10618   */\n      swap1\n      pop\n        /* \"#utility.yul\":10628:10699   */\n      tag_458\n        /* \"#utility.yul\":10696:10697   */\n      0x00\n        /* \"#utility.yul\":10685:10694   */\n      dup4\n        /* \"#utility.yul\":10681:10698   */\n      add\n        /* \"#utility.yul\":10672:10678   */\n      dup5\n        /* \"#utility.yul\":10628:10699   */\n      tag_290\n      jump\t// in\n    tag_458:\n        /* \"#utility.yul\":10484:10706   */\n      swap3\n      swap2\n      pop\n      pop\n      jump\t// out\n        /* \"#utility.yul\":10712:10922   */\n    tag_74:\n        /* \"#utility.yul\":10799:10803   */\n      0x00\n        /* \"#utility.yul\":10837:10839   */\n      0x20\n        /* \"#utility.yul\":10826:10835   */\n      dup3\n        /* \"#utility.yul\":10822:10840   */\n      add\n        /* \"#utility.yul\":10814:10840   */\n      swap1\n      pop\n        /* \"#utility.yul\":10850:10915   */\n      tag_460\n        /* \"#utility.yul\":10912:10913   */\n      0x00\n        /* \"#utility.yul\":10901:10910   */\n      dup4\n        /* \"#utility.yul\":10897:10914   */\n      add\n        /* \"#utility.yul\":10888:10894   */\n      dup5\n        /* \"#utility.yul\":10850:10915   */\n      tag_293\n      jump\t// in\n    tag_460:\n        /* \"#utility.yul\":10712:10922   */\n      swap3\n      swap2\n      pop\n      pop\n      jump\t// out\n        /* \"#utility.yul\":10928:11402   */\n    tag_90:\n        /* \"#utility.yul\":10996:11002   */\n      0x00\n        /* \"#utility.yul\":11004:11010   */\n      dup1\n        /* \"#utility.yul\":11053:11055   */\n      0x40\n        /* \"#utility.yul\":11041:11050   */\n      dup4\n        /* \"#utility.yul\":11032:11039   */\n      dup6\n        /* \"#utility.yul\":11028:11051   */\n      sub\n        /* \"#utility.yul\":11024:11056   */\n      slt\n        /* \"#utility.yul\":11021:11140   */\n      iszero\n      tag_462\n      jumpi\n        /* \"#utility.yul\":11059:11138   */\n      tag_463\n      tag_284\n      jump\t// in\n    tag_463:\n        /* \"#utility.yul\":11021:11140   */\n    tag_462:\n        /* \"#utility.yul\":11179:11180   */\n      0x00\n        /* \"#utility.yul\":11204:11257   */\n      tag_464\n        /* \"#utility.yul\":11249:11256   */\n      dup6\n        /* \"#utility.yul\":11240:11246   */\n      dup3\n        /* \"#utility.yul\":11229:11238   */\n      dup7\n        /* \"#utility.yul\":11225:11247   */\n      add\n        /* \"#utility.yul\":11204:11257   */\n      tag_316\n      jump\t// in\n    tag_464:\n        /* \"#utility.yul\":11194:11257   */\n      swap3\n      pop\n        /* \"#utility.yul\":11150:11267   */\n      pop\n        /* \"#utility.yul\":11306:11308   */\n      0x20\n        /* \"#utility.yul\":11332:11385   */\n      tag_465\n        /* \"#utility.yul\":11377:11384   */\n      dup6\n        /* \"#utility.yul\":11368:11374   */\n      dup3\n        /* \"#utility.yul\":11357:11366   */\n      dup7\n        /* \"#utility.yul\":11353:11375   */\n      add\n        /* \"#utility.yul\":11332:11385   */\n      tag_316\n      jump\t// in\n    tag_465:\n        /* \"#utility.yul\":11322:11385   */\n      swap2\n      pop\n        /* \"#utility.yul\":11277:11395   */\n      pop\n        /* \"#utility.yul\":10928:11402   */\n      swap3\n      pop\n      swap3\n      swap1\n      pop\n      jump\t// out\n        /* \"#utility.yul\":11408:11781   */\n    tag_101:\n        /* \"#utility.yul\":11551:11555   */\n      0x00\n        /* \"#utility.yul\":11589:11591   */\n      0x20\n        /* \"#utility.yul\":11578:11587   */\n      dup3\n        /* \"#utility.yul\":11574:11592   */\n      add\n        /* \"#utility.yul\":11566:11592   */\n      swap1\n      pop\n        /* \"#utility.yul\":11638:11647   */\n      dup2\n        /* \"#utility.yul\":11632:11636   */\n      dup2\n        /* \"#utility.yul\":11628:11648   */\n      sub\n        /* \"#utility.yul\":11624:11625   */\n      0x00\n        /* \"#utility.yul\":11613:11622   */\n      dup4\n        /* \"#utility.yul\":11609:11626   */\n      add\n        /* \"#utility.yul\":11602:11649   */\n      mstore\n        /* \"#utility.yul\":11666:11774   */\n      tag_467\n        /* \"#utility.yul\":11769:11773   */\n      dup2\n        /* \"#utility.yul\":11760:11766   */\n      dup5\n        /* \"#utility.yul\":11666:11774   */\n      tag_300\n      jump\t// in\n    tag_467:\n        /* \"#utility.yul\":11658:11774   */\n      swap1\n      pop\n        /* \"#utility.yul\":11408:11781   */\n      swap3\n      swap2\n      pop\n      pop\n      jump\t// out\n        /* \"#utility.yul\":11787:11930   */\n    tag_317:\n        /* \"#utility.yul\":11844:11849   */\n      0x00\n        /* \"#utility.yul\":11875:11881   */\n      dup2\n        /* \"#utility.yul\":11869:11882   */\n      mload\n        /* \"#utility.yul\":11860:11882   */\n      swap1\n      pop\n        /* \"#utility.yul\":11891:11924   */\n      tag_469\n        /* \"#utility.yul\":11918:11923   */\n      dup2\n        /* \"#utility.yul\":11891:11924   */\n      tag_287\n      jump\t// in\n    tag_469:\n        /* \"#utility.yul\":11787:11930   */\n      swap3\n      swap2\n      pop\n      pop\n      jump\t// out\n        /* \"#utility.yul\":11936:12287   */\n    tag_109:\n        /* \"#utility.yul\":12006:12012   */\n      0x00\n        /* \"#utility.yul\":12055:12057   */\n      0x20\n        /* \"#utility.yul\":12043:12052   */\n      dup3\n        /* \"#utility.yul\":12034:12041   */\n      dup5\n        /* \"#utility.yul\":12030:12053   */\n      sub\n        /* \"#utility.yul\":12026:12058   */\n      slt\n        /* \"#utility.yul\":12023:12142   */\n      iszero\n      tag_471\n      jumpi\n        /* \"#utility.yul\":12061:12140   */\n      tag_472\n      tag_284\n      jump\t// in\n    tag_472:\n        /* \"#utility.yul\":12023:12142   */\n    tag_471:\n        /* \"#utility.yul\":12181:12182   */\n      0x00\n        /* \"#utility.yul\":12206:12270   */\n      tag_473\n        /* \"#utility.yul\":12262:12269   */\n      dup5\n        /* \"#utility.yul\":12253:12259   */\n      dup3\n        /* \"#utility.yul\":12242:12251   */\n      dup6\n        /* \"#utility.yul\":12238:12260   */\n      add\n        /* \"#utility.yul\":12206:12270   */\n      tag_317\n      jump\t// in\n    tag_473:\n        /* \"#utility.yul\":12196:12270   */\n      swap2\n      pop\n        /* \"#utility.yul\":12152:12280   */\n      pop\n        /* \"#utility.yul\":11936:12287   */\n      swap3\n      swap2\n      pop\n      pop\n      jump\t// out\n        /* \"#utility.yul\":12293:12462   */\n    tag_318:\n        /* \"#utility.yul\":12377:12388   */\n      0x00\n        /* \"#utility.yul\":12411:12417   */\n      dup3\n        /* \"#utility.yul\":12406:12409   */\n      dup3\n        /* \"#utility.yul\":12399:12418   */\n      mstore\n        /* \"#utility.yul\":12451:12455   */\n      0x20\n        /* \"#utility.yul\":12446:12449   */\n      dup3\n        /* \"#utility.yul\":12442:12456   */\n      add\n        /* \"#utility.yul\":12427:12456   */\n      swap1\n      pop\n        /* \"#utility.yul\":12293:12462   */\n      swap3\n      swap2\n      pop\n      pop\n      jump\t// out\n        /* \"#utility.yul\":12468:12650   */\n    tag_319:\n        /* \"#utility.yul\":12608:12642   */\n      0x496e73756666696369656e742062616c616e636520746f207075726368617365\n        /* \"#utility.yul\":12604:12605   */\n      0x00\n        /* \"#utility.yul\":12596:12602   */\n      dup3\n        /* \"#utility.yul\":12592:12606   */\n      add\n        /* \"#utility.yul\":12585:12643   */\n      mstore\n        /* \"#utility.yul\":12468:12650   */\n      pop\n      jump\t// out\n        /* \"#utility.yul\":12656:13022   */\n    tag_320:\n        /* \"#utility.yul\":12798:12801   */\n      0x00\n        /* \"#utility.yul\":12819:12886   */\n      tag_477\n        /* \"#utility.yul\":12883:12885   */\n      0x20\n        /* \"#utility.yul\":12878:12881   */\n      dup4\n        /* \"#utility.yul\":12819:12886   */\n      tag_318\n      jump\t// in\n    tag_477:\n        /* \"#utility.yul\":12812:12886   */\n      swap2\n      pop\n        /* \"#utility.yul\":12895:12988   */\n      tag_478\n        /* \"#utility.yul\":12984:12987   */\n      dup3\n        /* \"#utility.yul\":12895:12988   */\n      tag_319\n      jump\t// in\n    tag_478:\n        /* \"#utility.yul\":13013:13015   */\n      0x20\n        /* \"#utility.yul\":13008:13011   */\n      dup3\n        /* \"#utility.yul\":13004:13016   */\n      add\n        /* \"#utility.yul\":12997:13016   */\n      swap1\n      pop\n        /* \"#utility.yul\":12656:13022   */\n      swap2\n      swap1\n      pop\n      jump\t// out\n        /* \"#utility.yul\":13028:13447   */\n    tag_112:\n        /* \"#utility.yul\":13194:13198   */\n      0x00\n        /* \"#utility.yul\":13232:13234   */\n      0x20\n        /* \"#utility.yul\":13221:13230   */\n      dup3\n        /* \"#utility.yul\":13217:13235   */\n      add\n        /* \"#utility.yul\":13209:13235   */\n      swap1\n      pop\n        /* \"#utility.yul\":13281:13290   */\n      dup2\n        /* \"#utility.yul\":13275:13279   */\n      dup2\n        /* \"#utility.yul\":13271:13291   */\n      sub\n        /* \"#utility.yul\":13267:13268   */\n      0x00\n        /* \"#utility.yul\":13256:13265   */\n      dup4\n        /* \"#utility.yul\":13252:13269   */\n      add\n        /* \"#utility.yul\":13245:13292   */\n      mstore\n        /* \"#utility.yul\":13309:13440   */\n      tag_480\n        /* \"#utility.yul\":13435:13439   */\n      dup2\n        /* \"#utility.yul\":13309:13440   */\n      tag_320\n      jump\t// in\n    tag_480:\n        /* \"#utility.yul\":13301:13440   */\n      swap1\n      pop\n        /* \"#utility.yul\":13028:13447   */\n      swap2\n      swap1\n      pop\n      jump\t// out\n        /* \"#utility.yul\":13453:13633   */\n    tag_321:\n        /* \"#utility.yul\":13501:13578   */\n      0x4e487b7100000000000000000000000000000000000000000000000000000000\n        /* \"#utility.yul\":13498:13499   */\n      0x00\n        /* \"#utility.yul\":13491:13579   */\n      mstore\n        /* \"#utility.yul\":13598:13602   */\n      0x11\n        /* \"#utility.yul\":13595:13596   */\n      0x04\n        /* \"#utility.yul\":13588:13603   */\n      mstore\n        /* \"#utility.yul\":13622:13626   */\n      0x24\n        /* \"#utility.yul\":13619:13620   */\n      0x00\n        /* \"#utility.yul\":13612:13627   */\n      revert\n        /* \"#utility.yul\":13639:13833   */\n    tag_117:\n        /* \"#utility.yul\":13679:13683   */\n      0x00\n        /* \"#utility.yul\":13699:13719   */\n      tag_483\n        /* \"#utility.yul\":13717:13718   */\n      dup3\n        /* \"#utility.yul\":13699:13719   */\n      tag_286\n      jump\t// in\n    tag_483:\n        /* \"#utility.yul\":13694:13719   */\n      swap2\n      pop\n        /* \"#utility.yul\":13733:13753   */\n      tag_484\n        /* \"#utility.yul\":13751:13752   */\n      dup4\n        /* \"#utility.yul\":13733:13753   */\n      tag_286\n      jump\t// in\n    tag_484:\n        /* \"#utility.yul\":13728:13753   */\n      swap3\n      pop\n        /* \"#utility.yul\":13777:13778   */\n      dup3\n        /* \"#utility.yul\":13774:13775   */\n      dup3\n        /* \"#utility.yul\":13770:13779   */\n      sub\n        /* \"#utility.yul\":13762:13779   */\n      swap1\n      pop\n        /* \"#utility.yul\":13801:13802   */\n      dup2\n        /* \"#utility.yul\":13795:13799   */\n      dup2\n        /* \"#utility.yul\":13792:13803   */\n      gt\n        /* \"#utility.yul\":13789:13826   */\n      iszero\n      tag_485\n      jumpi\n        /* \"#utility.yul\":13806:13824   */\n      tag_486\n      tag_321\n      jump\t// in\n    tag_486:\n        /* \"#utility.yul\":13789:13826   */\n    tag_485:\n        /* \"#utility.yul\":13639:13833   */\n      swap3\n      swap2\n      pop\n      pop\n      jump\t// out\n        /* \"#utility.yul\":13839:14281   */\n    tag_119:\n        /* \"#utility.yul\":13988:13992   */\n      0x00\n        /* \"#utility.yul\":14026:14028   */\n      0x60\n        /* \"#utility.yul\":14015:14024   */\n      dup3\n        /* \"#utility.yul\":14011:14029   */\n      add\n        /* \"#utility.yul\":14003:14029   */\n      swap1\n      pop\n        /* \"#utility.yul\":14039:14110   */\n      tag_488\n        /* \"#utility.yul\":14107:14108   */\n      0x00\n        /* \"#utility.yul\":14096:14105   */\n      dup4\n        /* \"#utility.yul\":14092:14109   */\n      add\n        /* \"#utility.yul\":14083:14089   */\n      dup7\n        /* \"#utility.yul\":14039:14110   */\n      tag_290\n      jump\t// in\n    tag_488:\n        /* \"#utility.yul\":14120:14192   */\n      tag_489\n        /* \"#utility.yul\":14188:14190   */\n      0x20\n        /* \"#utility.yul\":14177:14186   */\n      dup4\n        /* \"#utility.yul\":14173:14191   */\n      add\n        /* \"#utility.yul\":14164:14170   */\n      dup6\n        /* \"#utility.yul\":14120:14192   */\n      tag_290\n      jump\t// in\n    tag_489:\n        /* \"#utility.yul\":14202:14274   */\n      tag_490\n        /* \"#utility.yul\":14270:14272   */\n      0x40\n        /* \"#utility.yul\":14259:14268   */\n      dup4\n        /* \"#utility.yul\":14255:14273   */\n      add\n        /* \"#utility.yul\":14246:14252   */\n      dup5\n        /* \"#utility.yul\":14202:14274   */\n      tag_291\n      jump\t// in\n    tag_490:\n        /* \"#utility.yul\":13839:14281   */\n      swap5\n      swap4\n      pop\n      pop\n      pop\n      pop\n      jump\t// out\n        /* \"#utility.yul\":14287:14403   */\n    tag_322:\n        /* \"#utility.yul\":14357:14378   */\n      tag_492\n        /* \"#utility.yul\":14372:14377   */\n      dup2\n        /* \"#utility.yul\":14357:14378   */\n      tag_292\n      jump\t// in\n    tag_492:\n        /* \"#utility.yul\":14350:14355   */\n      dup2\n        /* \"#utility.yul\":14347:14379   */\n      eq\n        /* \"#utility.yul\":14337:14397   */\n      tag_493\n      jumpi\n        /* \"#utility.yul\":14393:14394   */\n      0x00\n        /* \"#utility.yul\":14390:14391   */\n      dup1\n        /* \"#utility.yul\":14383:14395   */\n      revert\n        /* \"#utility.yul\":14337:14397   */\n    tag_493:\n        /* \"#utility.yul\":14287:14403   */\n      pop\n      jump\t// out\n        /* \"#utility.yul\":14409:14546   */\n    tag_323:\n        /* \"#utility.yul\":14463:14468   */\n      0x00\n        /* \"#utility.yul\":14494:14500   */\n      dup2\n        /* \"#utility.yul\":14488:14501   */\n      mload\n        /* \"#utility.yul\":14479:14501   */\n      swap1\n      pop\n        /* \"#utility.yul\":14510:14540   */\n      tag_495\n        /* \"#utility.yul\":14534:14539   */\n      dup2\n        /* \"#utility.yul\":14510:14540   */\n      tag_322\n      jump\t// in\n    tag_495:\n        /* \"#utility.yul\":14409:14546   */\n      swap3\n      swap2\n      pop\n      pop\n      jump\t// out\n        /* \"#utility.yul\":14552:14897   */\n    tag_123:\n        /* \"#utility.yul\":14619:14625   */\n      0x00\n        /* \"#utility.yul\":14668:14670   */\n      0x20\n        /* \"#utility.yul\":14656:14665   */\n      dup3\n        /* \"#utility.yul\":14647:14654   */\n      dup5\n        /* \"#utility.yul\":14643:14666   */\n      sub\n        /* \"#utility.yul\":14639:14671   */\n      slt\n        /* \"#utility.yul\":14636:14755   */\n      iszero\n      tag_497\n      jumpi\n        /* \"#utility.yul\":14674:14753   */\n      tag_498\n      tag_284\n      jump\t// in\n    tag_498:\n        /* \"#utility.yul\":14636:14755   */\n    tag_497:\n        /* \"#utility.yul\":14794:14795   */\n      0x00\n        /* \"#utility.yul\":14819:14880   */\n      tag_499\n        /* \"#utility.yul\":14872:14879   */\n      dup5\n        /* \"#utility.yul\":14863:14869   */\n      dup3\n        /* \"#utility.yul\":14852:14861   */\n      dup6\n        /* \"#utility.yul\":14848:14870   */\n      add\n        /* \"#utility.yul\":14819:14880   */\n      tag_323\n      jump\t// in\n    tag_499:\n        /* \"#utility.yul\":14809:14880   */\n      swap2\n      pop\n        /* \"#utility.yul\":14765:14890   */\n      pop\n        /* \"#utility.yul\":14552:14897   */\n      swap3\n      swap2\n      pop\n      pop\n      jump\t// out\n        /* \"#utility.yul\":14903:15085   */\n    tag_324:\n        /* \"#utility.yul\":15043:15077   */\n      0x4f776e61626c653a2063616c6c6572206973206e6f7420746865206f776e6572\n        /* \"#utility.yul\":15039:15040   */\n      0x00\n        /* \"#utility.yul\":15031:15037   */\n      dup3\n        /* \"#utility.yul\":15027:15041   */\n      add\n        /* \"#utility.yul\":15020:15078   */\n      mstore\n        /* \"#utility.yul\":14903:15085   */\n      pop\n      jump\t// out\n        /* \"#utility.yul\":15091:15457   */\n    tag_325:\n        /* \"#utility.yul\":15233:15236   */\n      0x00\n        /* \"#utility.yul\":15254:15321   */\n      tag_502\n        /* \"#utility.yul\":15318:15320   */\n      0x20\n        /* \"#utility.yul\":15313:15316   */\n      dup4\n        /* \"#utility.yul\":15254:15321   */\n      tag_318\n      jump\t// in\n    tag_502:\n        /* \"#utility.yul\":15247:15321   */\n      swap2\n      pop\n        /* \"#utility.yul\":15330:15423   */\n      tag_503\n        /* \"#utility.yul\":15419:15422   */\n      dup3\n        /* \"#utility.yul\":15330:15423   */\n      tag_324\n      jump\t// in\n    tag_503:\n        /* \"#utility.yul\":15448:15450   */\n      0x20\n        /* \"#utility.yul\":15443:15446   */\n      dup3\n        /* \"#utility.yul\":15439:15451   */\n      add\n        /* \"#utility.yul\":15432:15451   */\n      swap1\n      pop\n        /* \"#utility.yul\":15091:15457   */\n      swap2\n      swap1\n      pop\n      jump\t// out\n        /* \"#utility.yul\":15463:15882   */\n    tag_129:\n        /* \"#utility.yul\":15629:15633   */\n      0x00\n        /* \"#utility.yul\":15667:15669   */\n      0x20\n        /* \"#utility.yul\":15656:15665   */\n      dup3\n        /* \"#utility.yul\":15652:15670   */\n      add\n        /* \"#utility.yul\":15644:15670   */\n      swap1\n      pop\n        /* \"#utility.yul\":15716:15725   */\n      dup2\n        /* \"#utility.yul\":15710:15714   */\n      dup2\n        /* \"#utility.yul\":15706:15726   */\n      sub\n        /* \"#utility.yul\":15702:15703   */\n      0x00\n        /* \"#utility.yul\":15691:15700   */\n      dup4\n        /* \"#utility.yul\":15687:15704   */\n      add\n        /* \"#utility.yul\":15680:15727   */\n      mstore\n        /* \"#utility.yul\":15744:15875   */\n      tag_505\n        /* \"#utility.yul\":15870:15874   */\n      dup2\n        /* \"#utility.yul\":15744:15875   */\n      tag_325\n      jump\t// in\n    tag_505:\n        /* \"#utility.yul\":15736:15875   */\n      swap1\n      pop\n        /* \"#utility.yul\":15463:15882   */\n      swap2\n      swap1\n      pop\n      jump\t// out\n        /* \"#utility.yul\":15888:16113   */\n    tag_326:\n        /* \"#utility.yul\":16028:16062   */\n      0x4461746150756e6b436f696e2068617320616c7265616479206265656e206465\n        /* \"#utility.yul\":16024:16025   */\n      0x00\n        /* \"#utility.yul\":16016:16022   */\n      dup3\n        /* \"#utility.yul\":16012:16026   */\n      add\n        /* \"#utility.yul\":16005:16063   */\n      mstore\n        /* \"#utility.yul\":16097:16105   */\n      0x706c6f7965640000000000000000000000000000000000000000000000000000\n        /* \"#utility.yul\":16092:16094   */\n      0x20\n        /* \"#utility.yul\":16084:16090   */\n      dup3\n        /* \"#utility.yul\":16080:16095   */\n      add\n        /* \"#utility.yul\":16073:16106   */\n      mstore\n        /* \"#utility.yul\":15888:16113   */\n      pop\n      jump\t// out\n        /* \"#utility.yul\":16119:16485   */\n    tag_327:\n        /* \"#utility.yul\":16261:16264   */\n      0x00\n        /* \"#utility.yul\":16282:16349   */\n      tag_508\n        /* \"#utility.yul\":16346:16348   */\n      0x26\n        /* \"#utility.yul\":16341:16344   */\n      dup4\n        /* \"#utility.yul\":16282:16349   */\n      tag_318\n      jump\t// in\n    tag_508:\n        /* \"#utility.yul\":16275:16349   */\n      swap2\n      pop\n        /* \"#utility.yul\":16358:16451   */\n      tag_509\n        /* \"#utility.yul\":16447:16450   */\n      dup3\n        /* \"#utility.yul\":16358:16451   */\n      tag_326\n      jump\t// in\n    tag_509:\n        /* \"#utility.yul\":16476:16478   */\n      0x40\n        /* \"#utility.yul\":16471:16474   */\n      dup3\n        /* \"#utility.yul\":16467:16479   */\n      add\n        /* \"#utility.yul\":16460:16479   */\n      swap1\n      pop\n        /* \"#utility.yul\":16119:16485   */\n      swap2\n      swap1\n      pop\n      jump\t// out\n        /* \"#utility.yul\":16491:16910   */\n    tag_133:\n        /* \"#utility.yul\":16657:16661   */\n      0x00\n        /* \"#utility.yul\":16695:16697   */\n      0x20\n        /* \"#utility.yul\":16684:16693   */\n      dup3\n        /* \"#utility.yul\":16680:16698   */\n      add\n        /* \"#utility.yul\":16672:16698   */\n      swap1\n      pop\n        /* \"#utility.yul\":16744:16753   */\n      dup2\n        /* \"#utility.yul\":16738:16742   */\n      dup2\n        /* \"#utility.yul\":16734:16754   */\n      sub\n        /* \"#utility.yul\":16730:16731   */\n      0x00\n        /* \"#utility.yul\":16719:16728   */\n      dup4\n        /* \"#utility.yul\":16715:16732   */\n      add\n        /* \"#utility.yul\":16708:16755   */\n      mstore\n        /* \"#utility.yul\":16772:16903   */\n      tag_511\n        /* \"#utility.yul\":16898:16902   */\n      dup2\n        /* \"#utility.yul\":16772:16903   */\n      tag_327\n      jump\t// in\n    tag_511:\n        /* \"#utility.yul\":16764:16903   */\n      swap1\n      pop\n        /* \"#utility.yul\":16491:16910   */\n      swap2\n      swap1\n      pop\n      jump\t// out\n        /* \"#utility.yul\":16916:17021   */\n    tag_328:\n        /* \"#utility.yul\":16981:16988   */\n      0x00\n        /* \"#utility.yul\":17010:17015   */\n      dup2\n        /* \"#utility.yul\":16999:17015   */\n      swap1\n      pop\n        /* \"#utility.yul\":16916:17021   */\n      swap2\n      swap1\n      pop\n      jump\t// out\n        /* \"#utility.yul\":17027:17225   */\n    tag_329:\n        /* \"#utility.yul\":17105:17114   */\n      0x00\n        /* \"#utility.yul\":17138:17219   */\n      tag_514\n        /* \"#utility.yul\":17156:17218   */\n      tag_515\n        /* \"#utility.yul\":17165:17217   */\n      tag_516\n        /* \"#utility.yul\":17211:17216   */\n      dup5\n        /* \"#utility.yul\":17165:17217   */\n      tag_328\n      jump\t// in\n    tag_516:\n        /* \"#utility.yul\":17156:17218   */\n      tag_278\n      jump\t// in\n    tag_515:\n        /* \"#utility.yul\":17138:17219   */\n      tag_286\n      jump\t// in\n    tag_514:\n        /* \"#utility.yul\":17125:17219   */\n      swap1\n      pop\n        /* \"#utility.yul\":17027:17225   */\n      swap2\n      swap1\n      pop\n      jump\t// out\n        /* \"#utility.yul\":17231:17418   */\n    tag_330:\n        /* \"#utility.yul\":17346:17411   */\n      tag_518\n        /* \"#utility.yul\":17405:17410   */\n      dup2\n        /* \"#utility.yul\":17346:17411   */\n      tag_329\n      jump\t// in\n    tag_518:\n        /* \"#utility.yul\":17341:17344   */\n      dup3\n        /* \"#utility.yul\":17334:17412   */\n      mstore\n        /* \"#utility.yul\":17231:17418   */\n      pop\n      pop\n      jump\t// out\n        /* \"#utility.yul\":17424:17812   */\n    tag_139:\n        /* \"#utility.yul\":17573:17577   */\n      0x00\n        /* \"#utility.yul\":17611:17613   */\n      0x40\n        /* \"#utility.yul\":17600:17609   */\n      dup3\n        /* \"#utility.yul\":17596:17614   */\n      add\n        /* \"#utility.yul\":17588:17614   */\n      swap1\n      pop\n        /* \"#utility.yul\":17624:17695   */\n      tag_520\n        /* \"#utility.yul\":17692:17693   */\n      0x00\n        /* \"#utility.yul\":17681:17690   */\n      dup4\n        /* \"#utility.yul\":17677:17694   */\n      add\n        /* \"#utility.yul\":17668:17674   */\n      dup6\n        /* \"#utility.yul\":17624:17695   */\n      tag_290\n      jump\t// in\n    tag_520:\n        /* \"#utility.yul\":17705:17805   */\n      tag_521\n        /* \"#utility.yul\":17801:17803   */\n      0x20\n        /* \"#utility.yul\":17790:17799   */\n      dup4\n        /* \"#utility.yul\":17786:17804   */\n      add\n        /* \"#utility.yul\":17777:17783   */\n      dup5\n        /* \"#utility.yul\":17705:17805   */\n      tag_330\n      jump\t// in\n    tag_521:\n        /* \"#utility.yul\":17424:17812   */\n      swap4\n      swap3\n      pop\n      pop\n      pop\n      jump\t// out\n        /* \"#utility.yul\":17818:17998   */\n    tag_150:\n        /* \"#utility.yul\":17866:17943   */\n      0x4e487b7100000000000000000000000000000000000000000000000000000000\n        /* \"#utility.yul\":17863:17864   */\n      0x00\n        /* \"#utility.yul\":17856:17944   */\n      mstore\n        /* \"#utility.yul\":17963:17967   */\n      0x32\n        /* \"#utility.yul\":17960:17961   */\n      0x04\n        /* \"#utility.yul\":17953:17968   */\n      mstore\n        /* \"#utility.yul\":17987:17991   */\n      0x24\n        /* \"#utility.yul\":17984:17985   */\n      0x00\n        /* \"#utility.yul\":17977:17992   */\n      revert\n        /* \"#utility.yul\":18004:18184   */\n    tag_166:\n        /* \"#utility.yul\":18052:18129   */\n      0x4e487b7100000000000000000000000000000000000000000000000000000000\n        /* \"#utility.yul\":18049:18050   */\n      0x00\n        /* \"#utility.yul\":18042:18130   */\n      mstore\n        /* \"#utility.yul\":18149:18153   */\n      0x41\n        /* \"#utility.yul\":18146:18147   */\n      0x04\n        /* \"#utility.yul\":18139:18154   */\n      mstore\n        /* \"#utility.yul\":18173:18177   */\n      0x24\n        /* \"#utility.yul\":18170:18171   */\n      0x00\n        /* \"#utility.yul\":18163:18178   */\n      revert\n        /* \"#utility.yul\":18190:18365   */\n    tag_331:\n        /* \"#utility.yul\":18330:18357   */\n      0x4461746173657420616c72656164792076616c69646174656400000000000000\n        /* \"#utility.yul\":18326:18327   */\n      0x00\n        /* \"#utility.yul\":18318:18324   */\n      dup3\n        /* \"#utility.yul\":18314:18328   */\n      add\n        /* \"#utility.yul\":18307:18358   */\n      mstore\n        /* \"#utility.yul\":18190:18365   */\n      pop\n      jump\t// out\n        /* \"#utility.yul\":18371:18737   */\n    tag_332:\n        /* \"#utility.yul\":18513:18516   */\n      0x00\n        /* \"#utility.yul\":18534:18601   */\n      tag_526\n        /* \"#utility.yul\":18598:18600   */\n      0x19\n        /* \"#utility.yul\":18593:18596   */\n      dup4\n        /* \"#utility.yul\":18534:18601   */\n      tag_318\n      jump\t// in\n    tag_526:\n        /* \"#utility.yul\":18527:18601   */\n      swap2\n      pop\n        /* \"#utility.yul\":18610:18703   */\n      tag_527\n        /* \"#utility.yul\":18699:18702   */\n      dup3\n        /* \"#utility.yul\":18610:18703   */\n      tag_331\n      jump\t// in\n    tag_527:\n        /* \"#utility.yul\":18728:18730   */\n      0x20\n        /* \"#utility.yul\":18723:18726   */\n      dup3\n        /* \"#utility.yul\":18719:18731   */\n      add\n        /* \"#utility.yul\":18712:18731   */\n      swap1\n      pop\n        /* \"#utility.yul\":18371:18737   */\n      swap2\n      swap1\n      pop\n      jump\t// out\n        /* \"#utility.yul\":18743:19162   */\n    tag_205:\n        /* \"#utility.yul\":18909:18913   */\n      0x00\n        /* \"#utility.yul\":18947:18949   */\n      0x20\n        /* \"#utility.yul\":18936:18945   */\n      dup3\n        /* \"#utility.yul\":18932:18950   */\n      add\n        /* \"#utility.yul\":18924:18950   */\n      swap1\n      pop\n        /* \"#utility.yul\":18996:19005   */\n      dup2\n        /* \"#utility.yul\":18990:18994   */\n      dup2\n        /* \"#utility.yul\":18986:19006   */\n      sub\n        /* \"#utility.yul\":18982:18983   */\n      0x00\n        /* \"#utility.yul\":18971:18980   */\n      dup4\n        /* \"#utility.yul\":18967:18984   */\n      add\n        /* \"#utility.yul\":18960:19007   */\n      mstore\n        /* \"#utility.yul\":19024:19155   */\n      tag_529\n        /* \"#utility.yul\":19150:19154   */\n      dup2\n        /* \"#utility.yul\":19024:19155   */\n      tag_332\n      jump\t// in\n    tag_529:\n        /* \"#utility.yul\":19016:19155   */\n      swap1\n      pop\n        /* \"#utility.yul\":18743:19162   */\n      swap2\n      swap1\n      pop\n      jump\t// out\n        /* \"#utility.yul\":19168:19389   */\n    tag_333:\n        /* \"#utility.yul\":19308:19342   */\n      0x596f75206d757374206265206120726567697374657265642076616c69646174\n        /* \"#utility.yul\":19304:19305   */\n      0x00\n        /* \"#utility.yul\":19296:19302   */\n      dup3\n        /* \"#utility.yul\":19292:19306   */\n      add\n        /* \"#utility.yul\":19285:19343   */\n      mstore\n        /* \"#utility.yul\":19377:19381   */\n      0x6f72000000000000000000000000000000000000000000000000000000000000\n        /* \"#utility.yul\":19372:19374   */\n      0x20\n        /* \"#utility.yul\":19364:19370   */\n      dup3\n        /* \"#utility.yul\":19360:19375   */\n      add\n        /* \"#utility.yul\":19353:19382   */\n      mstore\n        /* \"#utility.yul\":19168:19389   */\n      pop\n      jump\t// out\n        /* \"#utility.yul\":19395:19761   */\n    tag_334:\n        /* \"#utility.yul\":19537:19540   */\n      0x00\n        /* \"#utility.yul\":19558:19625   */\n      tag_532\n        /* \"#utility.yul\":19622:19624   */\n      0x22\n        /* \"#utility.yul\":19617:19620   */\n      dup4\n        /* \"#utility.yul\":19558:19625   */\n      tag_318\n      jump\t// in\n    tag_532:\n        /* \"#utility.yul\":19551:19625   */\n      swap2\n      pop\n        /* \"#utility.yul\":19634:19727   */\n      tag_533\n        /* \"#utility.yul\":19723:19726   */\n      dup3\n        /* \"#utility.yul\":19634:19727   */\n      tag_333\n      jump\t// in\n    tag_533:\n        /* \"#utility.yul\":19752:19754   */\n      0x40\n        /* \"#utility.yul\":19747:19750   */\n      dup3\n        /* \"#utility.yul\":19743:19755   */\n      add\n        /* \"#utility.yul\":19736:19755   */\n      swap1\n      pop\n        /* \"#utility.yul\":19395:19761   */\n      swap2\n      swap1\n      pop\n      jump\t// out\n        /* \"#utility.yul\":19767:20186   */\n    tag_215:\n        /* \"#utility.yul\":19933:19937   */\n      0x00\n        /* \"#utility.yul\":19971:19973   */\n      0x20\n        /* \"#utility.yul\":19960:19969   */\n      dup3\n        /* \"#utility.yul\":19956:19974   */\n      add\n        /* \"#utility.yul\":19948:19974   */\n      swap1\n      pop\n        /* \"#utility.yul\":20020:20029   */\n      dup2\n        /* \"#utility.yul\":20014:20018   */\n      dup2\n        /* \"#utility.yul\":20010:20030   */\n      sub\n        /* \"#utility.yul\":20006:20007   */\n      0x00\n        /* \"#utility.yul\":19995:20004   */\n      dup4\n        /* \"#utility.yul\":19991:20008   */\n      add\n        /* \"#utility.yul\":19984:20031   */\n      mstore\n        /* \"#utility.yul\":20048:20179   */\n      tag_535\n        /* \"#utility.yul\":20174:20178   */\n      dup2\n        /* \"#utility.yul\":20048:20179   */\n      tag_334\n      jump\t// in\n    tag_535:\n        /* \"#utility.yul\":20040:20179   */\n      swap1\n      pop\n        /* \"#utility.yul\":19767:20186   */\n      swap2\n      swap1\n      pop\n      jump\t// out\n        /* \"#utility.yul\":20192:20373   */\n    tag_335:\n        /* \"#utility.yul\":20332:20365   */\n      0x56616c696461746f722063616e6e6f74206265207468652063726561746f7200\n        /* \"#utility.yul\":20328:20329   */\n      0x00\n        /* \"#utility.yul\":20320:20326   */\n      dup3\n        /* \"#utility.yul\":20316:20330   */\n      add\n        /* \"#utility.yul\":20309:20366   */\n      mstore\n        /* \"#utility.yul\":20192:20373   */\n      pop\n      jump\t// out\n        /* \"#utility.yul\":20379:20745   */\n    tag_336:\n        /* \"#utility.yul\":20521:20524   */\n      0x00\n        /* \"#utility.yul\":20542:20609   */\n      tag_538\n        /* \"#utility.yul\":20606:20608   */\n      0x1f\n        /* \"#utility.yul\":20601:20604   */\n      dup4\n        /* \"#utility.yul\":20542:20609   */\n      tag_318\n      jump\t// in\n    tag_538:\n        /* \"#utility.yul\":20535:20609   */\n      swap2\n      pop\n        /* \"#utility.yul\":20618:20711   */\n      tag_539\n        /* \"#utility.yul\":20707:20710   */\n      dup3\n        /* \"#utility.yul\":20618:20711   */\n      tag_335\n      jump\t// in\n    tag_539:\n        /* \"#utility.yul\":20736:20738   */\n      0x20\n        /* \"#utility.yul\":20731:20734   */\n      dup3\n        /* \"#utility.yul\":20727:20739   */\n      add\n        /* \"#utility.yul\":20720:20739   */\n      swap1\n      pop\n        /* \"#utility.yul\":20379:20745   */\n      swap2\n      swap1\n      pop\n      jump\t// out\n        /* \"#utility.yul\":20751:21170   */\n    tag_218:\n        /* \"#utility.yul\":20917:20921   */\n      0x00\n        /* \"#utility.yul\":20955:20957   */\n      0x20\n        /* \"#utility.yul\":20944:20953   */\n      dup3\n        /* \"#utility.yul\":20940:20958   */\n      add\n        /* \"#utility.yul\":20932:20958   */\n      swap1\n      pop\n        /* \"#utility.yul\":21004:21013   */\n      dup2\n        /* \"#utility.yul\":20998:21002   */\n      dup2\n        /* \"#utility.yul\":20994:21014   */\n      sub\n        /* \"#utility.yul\":20990:20991   */\n      0x00\n        /* \"#utility.yul\":20979:20988   */\n      dup4\n        /* \"#utility.yul\":20975:20992   */\n      add\n        /* \"#utility.yul\":20968:21015   */\n      mstore\n        /* \"#utility.yul\":21032:21163   */\n      tag_541\n        /* \"#utility.yul\":21158:21162   */\n      dup2\n        /* \"#utility.yul\":21032:21163   */\n      tag_336\n      jump\t// in\n    tag_541:\n        /* \"#utility.yul\":21024:21163   */\n      swap1\n      pop\n        /* \"#utility.yul\":20751:21170   */\n      swap2\n      swap1\n      pop\n      jump\t// out\n        /* \"#utility.yul\":21176:21508   */\n    tag_221:\n        /* \"#utility.yul\":21297:21301   */\n      0x00\n        /* \"#utility.yul\":21335:21337   */\n      0x40\n        /* \"#utility.yul\":21324:21333   */\n      dup3\n        /* \"#utility.yul\":21320:21338   */\n      add\n        /* \"#utility.yul\":21312:21338   */\n      swap1\n      pop\n        /* \"#utility.yul\":21348:21419   */\n      tag_543\n        /* \"#utility.yul\":21416:21417   */\n      0x00\n        /* \"#utility.yul\":21405:21414   */\n      dup4\n        /* \"#utility.yul\":21401:21418   */\n      add\n        /* \"#utility.yul\":21392:21398   */\n      dup6\n        /* \"#utility.yul\":21348:21419   */\n      tag_290\n      jump\t// in\n    tag_543:\n        /* \"#utility.yul\":21429:21501   */\n      tag_544\n        /* \"#utility.yul\":21497:21499   */\n      0x20\n        /* \"#utility.yul\":21486:21495   */\n      dup4\n        /* \"#utility.yul\":21482:21500   */\n      add\n        /* \"#utility.yul\":21473:21479   */\n      dup5\n        /* \"#utility.yul\":21429:21501   */\n      tag_291\n      jump\t// in\n    tag_544:\n        /* \"#utility.yul\":21176:21508   */\n      swap4\n      swap3\n      pop\n      pop\n      pop\n      jump\t// out\n        /* \"#utility.yul\":21514:21694   */\n    tag_337:\n        /* \"#utility.yul\":21654:21686   */\n      0x496e73756666696369656e742062616c616e636520746f207265776172640000\n        /* \"#utility.yul\":21650:21651   */\n      0x00\n        /* \"#utility.yul\":21642:21648   */\n      dup3\n        /* \"#utility.yul\":21638:21652   */\n      add\n        /* \"#utility.yul\":21631:21687   */\n      mstore\n        /* \"#utility.yul\":21514:21694   */\n      pop\n      jump\t// out\n        /* \"#utility.yul\":21700:22066   */\n    tag_338:\n        /* \"#utility.yul\":21842:21845   */\n      0x00\n        /* \"#utility.yul\":21863:21930   */\n      tag_547\n        /* \"#utility.yul\":21927:21929   */\n      0x1e\n        /* \"#utility.yul\":21922:21925   */\n      dup4\n        /* \"#utility.yul\":21863:21930   */\n      tag_318\n      jump\t// in\n    tag_547:\n        /* \"#utility.yul\":21856:21930   */\n      swap2\n      pop\n        /* \"#utility.yul\":21939:22032   */\n      tag_548\n        /* \"#utility.yul\":22028:22031   */\n      dup3\n        /* \"#utility.yul\":21939:22032   */\n      tag_337\n      jump\t// in\n    tag_548:\n        /* \"#utility.yul\":22057:22059   */\n      0x20\n        /* \"#utility.yul\":22052:22055   */\n      dup3\n        /* \"#utility.yul\":22048:22060   */\n      add\n        /* \"#utility.yul\":22041:22060   */\n      swap1\n      pop\n        /* \"#utility.yul\":21700:22066   */\n      swap2\n      swap1\n      pop\n      jump\t// out\n        /* \"#utility.yul\":22072:22491   */\n    tag_231:\n        /* \"#utility.yul\":22238:22242   */\n      0x00\n        /* \"#utility.yul\":22276:22278   */\n      0x20\n        /* \"#utility.yul\":22265:22274   */\n      dup3\n        /* \"#utility.yul\":22261:22279   */\n      add\n        /* \"#utility.yul\":22253:22279   */\n      swap1\n      pop\n        /* \"#utility.yul\":22325:22334   */\n      dup2\n        /* \"#utility.yul\":22319:22323   */\n      dup2\n        /* \"#utility.yul\":22315:22335   */\n      sub\n        /* \"#utility.yul\":22311:22312   */\n      0x00\n        /* \"#utility.yul\":22300:22309   */\n      dup4\n        /* \"#utility.yul\":22296:22313   */\n      add\n        /* \"#utility.yul\":22289:22336   */\n      mstore\n        /* \"#utility.yul\":22353:22484   */\n      tag_550\n        /* \"#utility.yul\":22479:22483   */\n      dup2\n        /* \"#utility.yul\":22353:22484   */\n      tag_338\n      jump\t// in\n    tag_550:\n        /* \"#utility.yul\":22345:22484   */\n      swap1\n      pop\n        /* \"#utility.yul\":22072:22491   */\n      swap2\n      swap1\n      pop\n      jump\t// out\n        /* \"#utility.yul\":22497:22723   */\n    tag_339:\n        /* \"#utility.yul\":22637:22671   */\n      0x436f6e74726163742068617320696e73756666696369656e742044504320746f\n        /* \"#utility.yul\":22633:22634   */\n      0x00\n        /* \"#utility.yul\":22625:22631   */\n      dup3\n        /* \"#utility.yul\":22621:22635   */\n      add\n        /* \"#utility.yul\":22614:22672   */\n      mstore\n        /* \"#utility.yul\":22706:22715   */\n      0x2072657761726400000000000000000000000000000000000000000000000000\n        /* \"#utility.yul\":22701:22703   */\n      0x20\n        /* \"#utility.yul\":22693:22699   */\n      dup3\n        /* \"#utility.yul\":22689:22704   */\n      add\n        /* \"#utility.yul\":22682:22716   */\n      mstore\n        /* \"#utility.yul\":22497:22723   */\n      pop\n      jump\t// out\n        /* \"#utility.yul\":22729:23095   */\n    tag_340:\n        /* \"#utility.yul\":22871:22874   */\n      0x00\n        /* \"#utility.yul\":22892:22959   */\n      tag_553\n        /* \"#utility.yul\":22956:22958   */\n      0x27\n        /* \"#utility.yul\":22951:22954   */\n      dup4\n        /* \"#utility.yul\":22892:22959   */\n      tag_318\n      jump\t// in\n    tag_553:\n        /* \"#utility.yul\":22885:22959   */\n      swap2\n      pop\n        /* \"#utility.yul\":22968:23061   */\n      tag_554\n        /* \"#utility.yul\":23057:23060   */\n      dup3\n        /* \"#utility.yul\":22968:23061   */\n      tag_339\n      jump\t// in\n    tag_554:\n        /* \"#utility.yul\":23086:23088   */\n      0x40\n        /* \"#utility.yul\":23081:23084   */\n      dup3\n        /* \"#utility.yul\":23077:23089   */\n      add\n        /* \"#utility.yul\":23070:23089   */\n      swap1\n      pop\n        /* \"#utility.yul\":22729:23095   */\n      swap2\n      swap1\n      pop\n      jump\t// out\n        /* \"#utility.yul\":23101:23520   */\n    tag_247:\n        /* \"#utility.yul\":23267:23271   */\n      0x00\n        /* \"#utility.yul\":23305:23307   */\n      0x20\n        /* \"#utility.yul\":23294:23303   */\n      dup3\n        /* \"#utility.yul\":23290:23308   */\n      add\n        /* \"#utility.yul\":23282:23308   */\n      swap1\n      pop\n        /* \"#utility.yul\":23354:23363   */\n      dup2\n        /* \"#utility.yul\":23348:23352   */\n      dup2\n        /* \"#utility.yul\":23344:23364   */\n      sub\n        /* \"#utility.yul\":23340:23341   */\n      0x00\n        /* \"#utility.yul\":23329:23338   */\n      dup4\n        /* \"#utility.yul\":23325:23342   */\n      add\n        /* \"#utility.yul\":23318:23365   */\n      mstore\n        /* \"#utility.yul\":23382:23513   */\n      tag_556\n        /* \"#utility.yul\":23508:23512   */\n      dup2\n        /* \"#utility.yul\":23382:23513   */\n      tag_340\n      jump\t// in\n    tag_556:\n        /* \"#utility.yul\":23374:23513   */\n      swap1\n      pop\n        /* \"#utility.yul\":23101:23520   */\n      swap2\n      swap1\n      pop\n      jump\t// out\n        /* \"#utility.yul\":23526:23691   */\n    tag_341:\n        /* \"#utility.yul\":23666:23683   */\n      0x417070726f76616c206661696c65640000000000000000000000000000000000\n        /* \"#utility.yul\":23662:23663   */\n      0x00\n        /* \"#utility.yul\":23654:23660   */\n      dup3\n        /* \"#utility.yul\":23650:23664   */\n      add\n        /* \"#utility.yul\":23643:23684   */\n      mstore\n        /* \"#utility.yul\":23526:23691   */\n      pop\n      jump\t// out\n        /* \"#utility.yul\":23697:24063   */\n    tag_342:\n        /* \"#utility.yul\":23839:23842   */\n      0x00\n        /* \"#utility.yul\":23860:23927   */\n      tag_559\n        /* \"#utility.yul\":23924:23926   */\n      0x0f\n        /* \"#utility.yul\":23919:23922   */\n      dup4\n        /* \"#utility.yul\":23860:23927   */\n      tag_318\n      jump\t// in\n    tag_559:\n        /* \"#utility.yul\":23853:23927   */\n      swap2\n      pop\n        /* \"#utility.yul\":23936:24029   */\n      tag_560\n        /* \"#utility.yul\":24025:24028   */\n      dup3\n        /* \"#utility.yul\":23936:24029   */\n      tag_341\n      jump\t// in\n    tag_560:\n        /* \"#utility.yul\":24054:24056   */\n      0x20\n        /* \"#utility.yul\":24049:24052   */\n      dup3\n        /* \"#utility.yul\":24045:24057   */\n      add\n        /* \"#utility.yul\":24038:24057   */\n      swap1\n      pop\n        /* \"#utility.yul\":23697:24063   */\n      swap2\n      swap1\n      pop\n      jump\t// out\n        /* \"#utility.yul\":24069:24488   */\n    tag_260:\n        /* \"#utility.yul\":24235:24239   */\n      0x00\n        /* \"#utility.yul\":24273:24275   */\n      0x20\n        /* \"#utility.yul\":24262:24271   */\n      dup3\n        /* \"#utility.yul\":24258:24276   */\n      add\n        /* \"#utility.yul\":24250:24276   */\n      swap1\n      pop\n        /* \"#utility.yul\":24322:24331   */\n      dup2\n        /* \"#utility.yul\":24316:24320   */\n      dup2\n        /* \"#utility.yul\":24312:24332   */\n      sub\n        /* \"#utility.yul\":24308:24309   */\n      0x00\n        /* \"#utility.yul\":24297:24306   */\n      dup4\n        /* \"#utility.yul\":24293:24310   */\n      add\n        /* \"#utility.yul\":24286:24333   */\n      mstore\n        /* \"#utility.yul\":24350:24481   */\n      tag_562\n        /* \"#utility.yul\":24476:24480   */\n      dup2\n        /* \"#utility.yul\":24350:24481   */\n      tag_342\n      jump\t// in\n    tag_562:\n        /* \"#utility.yul\":24342:24481   */\n      swap1\n      pop\n        /* \"#utility.yul\":24069:24488   */\n      swap2\n      swap1\n      pop\n      jump\t// out\n    stop\n\n    sub_0: assembly {\n            /* \"contracts/DataPunk.sol\":318:535  contract DataPunkCoin is ERC20 {... */\n          mstore(0x40, 0x80)\n            /* \"contracts/DataPunk.sol\":422:533  constructor(uint256 _amount) ERC20(\"DataPunk Coin\", \"DPC\") {... */\n          callvalue\n          dup1\n          iszero\n          tag_1\n          jumpi\n          0x00\n          dup1\n          revert\n        tag_1:\n          pop\n          mload(0x40)\n          sub(codesize, bytecodeSize)\n          dup1\n          bytecodeSize\n          dup4\n          codecopy\n          dup2\n          dup2\n          add\n          0x40\n          mstore\n          dup2\n          add\n          swap1\n          tag_2\n          swap2\n          swap1\n          tag_3\n          jump\t// in\n        tag_2:\n            /* \"@openzeppelin/contracts/token/ERC20/ERC20.sol\":1896:2009  constructor(string memory name_, string memory symbol_) {... */\n          mload(0x40)\n          dup1\n          0x40\n          add\n          0x40\n          mstore\n          dup1\n          0x0d\n          dup2\n          mstore\n          0x20\n          add\n          0x4461746150756e6b20436f696e00000000000000000000000000000000000000\n          dup2\n          mstore\n          pop\n          mload(0x40)\n          dup1\n          0x40\n          add\n          0x40\n          mstore\n          dup1\n          0x03\n          dup2\n          mstore\n          0x20\n          add\n          0x4450430000000000000000000000000000000000000000000000000000000000\n          dup2\n          mstore\n          pop\n            /* \"@openzeppelin/contracts/token/ERC20/ERC20.sol\":1970:1975  name_ */\n          dup2\n            /* \"@openzeppelin/contracts/token/ERC20/ERC20.sol\":1962:1967  _name */\n          0x03\n            /* \"@openzeppelin/contracts/token/ERC20/ERC20.sol\":1962:1975  _name = name_ */\n          swap1\n          dup2\n          tag_7\n          swap2\n          swap1\n          tag_8\n          jump\t// in\n        tag_7:\n          pop\n            /* \"@openzeppelin/contracts/token/ERC20/ERC20.sol\":1995:2002  symbol_ */\n          dup1\n            /* \"@openzeppelin/contracts/token/ERC20/ERC20.sol\":1985:1992  _symbol */\n          0x04\n            /* \"@openzeppelin/contracts/token/ERC20/ERC20.sol\":1985:2002  _symbol = symbol_ */\n          swap1\n          dup2\n          tag_9\n          swap2\n          swap1\n          tag_8\n          jump\t// in\n        tag_9:\n          pop\n            /* \"@openzeppelin/contracts/token/ERC20/ERC20.sol\":1896:2009  constructor(string memory name_, string memory symbol_) {... */\n          pop\n          pop\n            /* \"contracts/DataPunk.sol\":491:526  _mint(msg.sender, _amount * 10**18) */\n          tag_11\n            /* \"contracts/DataPunk.sol\":497:507  msg.sender */\n          caller\n            /* \"contracts/DataPunk.sol\":519:525  10**18 */\n          0x0de0b6b3a7640000\n            /* \"contracts/DataPunk.sol\":509:516  _amount */\n          dup4\n            /* \"contracts/DataPunk.sol\":509:525  _amount * 10**18 */\n          tag_12\n          swap2\n          swap1\n          tag_13\n          jump\t// in\n        tag_12:\n            /* \"contracts/DataPunk.sol\":491:496  _mint */\n          shl(0x20, tag_14)\n            /* \"contracts/DataPunk.sol\":491:526  _mint(msg.sender, _amount * 10**18) */\n          0x20\n          shr\n          jump\t// in\n        tag_11:\n            /* \"contracts/DataPunk.sol\":422:533  constructor(uint256 _amount) ERC20(\"DataPunk Coin\", \"DPC\") {... */\n          pop\n            /* \"contracts/DataPunk.sol\":318:535  contract DataPunkCoin is ERC20 {... */\n          jump(tag_15)\n            /* \"@openzeppelin/contracts/token/ERC20/ERC20.sol\":7721:7929  function _mint(address account, uint256 value) internal {... */\n        tag_14:\n            /* \"@openzeppelin/contracts/token/ERC20/ERC20.sol\":7810:7811  0 */\n          0x00\n            /* \"@openzeppelin/contracts/token/ERC20/ERC20.sol\":7791:7812  account == address(0) */\n          0xffffffffffffffffffffffffffffffffffffffff\n          and\n            /* \"@openzeppelin/contracts/token/ERC20/ERC20.sol\":7791:7798  account */\n          dup3\n            /* \"@openzeppelin/contracts/token/ERC20/ERC20.sol\":7791:7812  account == address(0) */\n          0xffffffffffffffffffffffffffffffffffffffff\n          and\n          sub\n            /* \"@openzeppelin/contracts/token/ERC20/ERC20.sol\":7787:7878  if (account == address(0)) {... */\n          tag_17\n          jumpi\n            /* \"@openzeppelin/contracts/token/ERC20/ERC20.sol\":7864:7865  0 */\n          0x00\n            /* \"@openzeppelin/contracts/token/ERC20/ERC20.sol\":7835:7867  ERC20InvalidReceiver(address(0)) */\n          mload(0x40)\n          0xec442f0500000000000000000000000000000000000000000000000000000000\n          dup2\n          mstore\n          0x04\n          add\n          tag_18\n          swap2\n          swap1\n          tag_19\n          jump\t// in\n        tag_18:\n          mload(0x40)\n          dup1\n          swap2\n          sub\n          swap1\n          revert\n            /* \"@openzeppelin/contracts/token/ERC20/ERC20.sol\":7787:7878  if (account == address(0)) {... */\n        tag_17:\n            /* \"@openzeppelin/contracts/token/ERC20/ERC20.sol\":7887:7922  _update(address(0), account, value) */\n          tag_20\n            /* \"@openzeppelin/contracts/token/ERC20/ERC20.sol\":7903:7904  0 */\n          0x00\n            /* \"@openzeppelin/contracts/token/ERC20/ERC20.sol\":7907:7914  account */\n          dup4\n            /* \"@openzeppelin/contracts/token/ERC20/ERC20.sol\":7916:7921  value */\n          dup4\n            /* \"@openzeppelin/contracts/token/ERC20/ERC20.sol\":7887:7894  _update */\n          shl(0x20, tag_21)\n            /* \"@openzeppelin/contracts/token/ERC20/ERC20.sol\":7887:7922  _update(address(0), account, value) */\n          0x20\n          shr\n          jump\t// in\n        tag_20:\n            /* \"@openzeppelin/contracts/token/ERC20/ERC20.sol\":7721:7929  function _mint(address account, uint256 value) internal {... */\n          pop\n          pop\n          jump\t// out\n            /* \"@openzeppelin/contracts/token/ERC20/ERC20.sol\":6271:7378  function _update(address from, address to, uint256 value) internal virtual {... */\n        tag_21:\n            /* \"@openzeppelin/contracts/token/ERC20/ERC20.sol\":6376:6377  0 */\n          0x00\n            /* \"@openzeppelin/contracts/token/ERC20/ERC20.sol\":6360:6378  from == address(0) */\n          0xffffffffffffffffffffffffffffffffffffffff\n          and\n            /* \"@openzeppelin/contracts/token/ERC20/ERC20.sol\":6360:6364  from */\n          dup4\n            /* \"@openzeppelin/contracts/token/ERC20/ERC20.sol\":6360:6378  from == address(0) */\n          0xffffffffffffffffffffffffffffffffffffffff\n          and\n          sub\n            /* \"@openzeppelin/contracts/token/ERC20/ERC20.sol\":6356:6896  if (from == address(0)) {... */\n          tag_23\n          jumpi\n            /* \"@openzeppelin/contracts/token/ERC20/ERC20.sol\":6512:6517  value */\n          dup1\n            /* \"@openzeppelin/contracts/token/ERC20/ERC20.sol\":6496:6508  _totalSupply */\n          0x02\n          0x00\n            /* \"@openzeppelin/contracts/token/ERC20/ERC20.sol\":6496:6517  _totalSupply += value */\n          dup3\n          dup3\n          sload\n          tag_24\n          swap2\n          swap1\n          tag_25\n          jump\t// in\n        tag_24:\n          swap3\n          pop\n          pop\n          dup2\n          swap1\n          sstore\n          pop\n            /* \"@openzeppelin/contracts/token/ERC20/ERC20.sol\":6356:6896  if (from == address(0)) {... */\n          jump(tag_26)\n        tag_23:\n            /* \"@openzeppelin/contracts/token/ERC20/ERC20.sol\":6548:6567  uint256 fromBalance */\n          0x00\n            /* \"@openzeppelin/contracts/token/ERC20/ERC20.sol\":6570:6579  _balances */\n          dup1\n            /* \"@openzeppelin/contracts/token/ERC20/ERC20.sol\":6570:6585  _balances[from] */\n          0x00\n            /* \"@openzeppelin/contracts/token/ERC20/ERC20.sol\":6580:6584  from */\n          dup6\n            /* \"@openzeppelin/contracts/token/ERC20/ERC20.sol\":6570:6585  _balances[from] */\n          0xffffffffffffffffffffffffffffffffffffffff\n          and\n          0xffffffffffffffffffffffffffffffffffffffff\n          and\n          dup2\n          mstore\n          0x20\n          add\n          swap1\n          dup2\n          mstore\n          0x20\n          add\n          0x00\n          keccak256\n          sload\n            /* \"@openzeppelin/contracts/token/ERC20/ERC20.sol\":6548:6585  uint256 fromBalance = _balances[from] */\n          swap1\n          pop\n            /* \"@openzeppelin/contracts/token/ERC20/ERC20.sol\":6617:6622  value */\n          dup2\n            /* \"@openzeppelin/contracts/token/ERC20/ERC20.sol\":6603:6614  fromBalance */\n          dup2\n            /* \"@openzeppelin/contracts/token/ERC20/ERC20.sol\":6603:6622  fromBalance < value */\n          lt\n            /* \"@openzeppelin/contracts/token/ERC20/ERC20.sol\":6599:6714  if (fromBalance < value) {... */\n          iszero\n          tag_27\n          jumpi\n            /* \"@openzeppelin/contracts/token/ERC20/ERC20.sol\":6674:6678  from */\n          dup4\n            /* \"@openzeppelin/contracts/token/ERC20/ERC20.sol\":6680:6691  fromBalance */\n          dup2\n            /* \"@openzeppelin/contracts/token/ERC20/ERC20.sol\":6693:6698  value */\n          dup4\n            /* \"@openzeppelin/contracts/token/ERC20/ERC20.sol\":6649:6699  ERC20InsufficientBalance(from, fromBalance, value) */\n          mload(0x40)\n          0xe450d38c00000000000000000000000000000000000000000000000000000000\n          dup2\n          mstore\n          0x04\n          add\n          tag_28\n          swap4\n          swap3\n          swap2\n          swap1\n          tag_29\n          jump\t// in\n        tag_28:\n          mload(0x40)\n          dup1\n          swap2\n          sub\n          swap1\n          revert\n            /* \"@openzeppelin/contracts/token/ERC20/ERC20.sol\":6599:6714  if (fromBalance < value) {... */\n        tag_27:\n            /* \"@openzeppelin/contracts/token/ERC20/ERC20.sol\":6866:6871  value */\n          dup2\n            /* \"@openzeppelin/contracts/token/ERC20/ERC20.sol\":6852:6863  fromBalance */\n          dup2\n            /* \"@openzeppelin/contracts/token/ERC20/ERC20.sol\":6852:6871  fromBalance - value */\n          sub\n            /* \"@openzeppelin/contracts/token/ERC20/ERC20.sol\":6834:6843  _balances */\n          0x00\n            /* \"@openzeppelin/contracts/token/ERC20/ERC20.sol\":6834:6849  _balances[from] */\n          dup1\n            /* \"@openzeppelin/contracts/token/ERC20/ERC20.sol\":6844:6848  from */\n          dup7\n            /* \"@openzeppelin/contracts/token/ERC20/ERC20.sol\":6834:6849  _balances[from] */\n          0xffffffffffffffffffffffffffffffffffffffff\n          and\n          0xffffffffffffffffffffffffffffffffffffffff\n          and\n          dup2\n          mstore\n          0x20\n          add\n          swap1\n          dup2\n          mstore\n          0x20\n          add\n          0x00\n          keccak256\n            /* \"@openzeppelin/contracts/token/ERC20/ERC20.sol\":6834:6871  _balances[from] = fromBalance - value */\n          dup2\n          swap1\n          sstore\n          pop\n            /* \"@openzeppelin/contracts/token/ERC20/ERC20.sol\":6534:6896  {... */\n          pop\n            /* \"@openzeppelin/contracts/token/ERC20/ERC20.sol\":6356:6896  if (from == address(0)) {... */\n        tag_26:\n            /* \"@openzeppelin/contracts/token/ERC20/ERC20.sol\":6924:6925  0 */\n          0x00\n            /* \"@openzeppelin/contracts/token/ERC20/ERC20.sol\":6910:6926  to == address(0) */\n          0xffffffffffffffffffffffffffffffffffffffff\n          and\n            /* \"@openzeppelin/contracts/token/ERC20/ERC20.sol\":6910:6912  to */\n          dup3\n            /* \"@openzeppelin/contracts/token/ERC20/ERC20.sol\":6910:6926  to == address(0) */\n          0xffffffffffffffffffffffffffffffffffffffff\n          and\n          sub\n            /* \"@openzeppelin/contracts/token/ERC20/ERC20.sol\":6906:7331  if (to == address(0)) {... */\n          tag_30\n          jumpi\n            /* \"@openzeppelin/contracts/token/ERC20/ERC20.sol\":7089:7094  value */\n          dup1\n            /* \"@openzeppelin/contracts/token/ERC20/ERC20.sol\":7073:7085  _totalSupply */\n          0x02\n          0x00\n            /* \"@openzeppelin/contracts/token/ERC20/ERC20.sol\":7073:7094  _totalSupply -= value */\n          dup3\n          dup3\n          sload\n          sub\n          swap3\n          pop\n          pop\n          dup2\n          swap1\n          sstore\n          pop\n            /* \"@openzeppelin/contracts/token/ERC20/ERC20.sol\":6906:7331  if (to == address(0)) {... */\n          jump(tag_31)\n        tag_30:\n            /* \"@openzeppelin/contracts/token/ERC20/ERC20.sol\":7301:7306  value */\n          dup1\n            /* \"@openzeppelin/contracts/token/ERC20/ERC20.sol\":7284:7293  _balances */\n          0x00\n            /* \"@openzeppelin/contracts/token/ERC20/ERC20.sol\":7284:7297  _balances[to] */\n          dup1\n            /* \"@openzeppelin/contracts/token/ERC20/ERC20.sol\":7294:7296  to */\n          dup5\n            /* \"@openzeppelin/contracts/token/ERC20/ERC20.sol\":7284:7297  _balances[to] */\n          0xffffffffffffffffffffffffffffffffffffffff\n          and\n          0xffffffffffffffffffffffffffffffffffffffff\n          and\n          dup2\n          mstore\n          0x20\n          add\n          swap1\n          dup2\n          mstore\n          0x20\n          add\n          0x00\n          keccak256\n          0x00\n            /* \"@openzeppelin/contracts/token/ERC20/ERC20.sol\":7284:7306  _balances[to] += value */\n          dup3\n          dup3\n          sload\n          add\n          swap3\n          pop\n          pop\n          dup2\n          swap1\n          sstore\n          pop\n            /* \"@openzeppelin/contracts/token/ERC20/ERC20.sol\":6906:7331  if (to == address(0)) {... */\n        tag_31:\n            /* \"@openzeppelin/contracts/token/ERC20/ERC20.sol\":7361:7363  to */\n          dup2\n            /* \"@openzeppelin/contracts/token/ERC20/ERC20.sol\":7346:7371  Transfer(from, to, value) */\n          0xffffffffffffffffffffffffffffffffffffffff\n          and\n            /* \"@openzeppelin/contracts/token/ERC20/ERC20.sol\":7355:7359  from */\n          dup4\n            /* \"@openzeppelin/contracts/token/ERC20/ERC20.sol\":7346:7371  Transfer(from, to, value) */\n          0xffffffffffffffffffffffffffffffffffffffff\n          and\n          0xddf252ad1be2c89b69c2b068fc378daa952ba7f163c4a11628f55a4df523b3ef\n            /* \"@openzeppelin/contracts/token/ERC20/ERC20.sol\":7365:7370  value */\n          dup4\n            /* \"@openzeppelin/contracts/token/ERC20/ERC20.sol\":7346:7371  Transfer(from, to, value) */\n          mload(0x40)\n          tag_32\n          swap2\n          swap1\n          tag_33\n          jump\t// in\n        tag_32:\n          mload(0x40)\n          dup1\n          swap2\n          sub\n          swap1\n          log3\n            /* \"@openzeppelin/contracts/token/ERC20/ERC20.sol\":6271:7378  function _update(address from, address to, uint256 value) internal virtual {... */\n          pop\n          pop\n          pop\n          jump\t// out\n            /* \"#utility.yul\":88:205   */\n        tag_35:\n            /* \"#utility.yul\":197:198   */\n          0x00\n            /* \"#utility.yul\":194:195   */\n          dup1\n            /* \"#utility.yul\":187:199   */\n          revert\n            /* \"#utility.yul\":334:411   */\n        tag_37:\n            /* \"#utility.yul\":371:378   */\n          0x00\n            /* \"#utility.yul\":400:405   */\n          dup2\n            /* \"#utility.yul\":389:405   */\n          swap1\n          pop\n            /* \"#utility.yul\":334:411   */\n          swap2\n          swap1\n          pop\n          jump\t// out\n            /* \"#utility.yul\":417:539   */\n        tag_38:\n            /* \"#utility.yul\":490:514   */\n          tag_70\n            /* \"#utility.yul\":508:513   */\n          dup2\n            /* \"#utility.yul\":490:514   */\n          tag_37\n          jump\t// in\n        tag_70:\n            /* \"#utility.yul\":483:488   */\n          dup2\n            /* \"#utility.yul\":480:515   */\n          eq\n            /* \"#utility.yul\":470:533   */\n          tag_71\n          jumpi\n            /* \"#utility.yul\":529:530   */\n          0x00\n            /* \"#utility.yul\":526:527   */\n          dup1\n            /* \"#utility.yul\":519:531   */\n          revert\n            /* \"#utility.yul\":470:533   */\n        tag_71:\n            /* \"#utility.yul\":417:539   */\n          pop\n          jump\t// out\n            /* \"#utility.yul\":545:688   */\n        tag_39:\n            /* \"#utility.yul\":602:607   */\n          0x00\n            /* \"#utility.yul\":633:639   */\n          dup2\n            /* \"#utility.yul\":627:640   */\n          mload\n            /* \"#utility.yul\":618:640   */\n          swap1\n          pop\n            /* \"#utility.yul\":649:682   */\n          tag_73\n            /* \"#utility.yul\":676:681   */\n          dup2\n            /* \"#utility.yul\":649:682   */\n          tag_38\n          jump\t// in\n        tag_73:\n            /* \"#utility.yul\":545:688   */\n          swap3\n          swap2\n          pop\n          pop\n          jump\t// out\n            /* \"#utility.yul\":694:1045   */\n        tag_3:\n            /* \"#utility.yul\":764:770   */\n          0x00\n            /* \"#utility.yul\":813:815   */\n          0x20\n            /* \"#utility.yul\":801:810   */\n          dup3\n            /* \"#utility.yul\":792:799   */\n          dup5\n            /* \"#utility.yul\":788:811   */\n          sub\n            /* \"#utility.yul\":784:816   */\n          slt\n            /* \"#utility.yul\":781:900   */\n          iszero\n          tag_75\n          jumpi\n            /* \"#utility.yul\":819:898   */\n          tag_76\n          tag_35\n          jump\t// in\n        tag_76:\n            /* \"#utility.yul\":781:900   */\n        tag_75:\n            /* \"#utility.yul\":939:940   */\n          0x00\n            /* \"#utility.yul\":964:1028   */\n          tag_77\n            /* \"#utility.yul\":1020:1027   */\n          dup5\n            /* \"#utility.yul\":1011:1017   */\n          dup3\n            /* \"#utility.yul\":1000:1009   */\n          dup6\n            /* \"#utility.yul\":996:1018   */\n          add\n            /* \"#utility.yul\":964:1028   */\n          tag_39\n          jump\t// in\n        tag_77:\n            /* \"#utility.yul\":954:1028   */\n          swap2\n          pop\n            /* \"#utility.yul\":910:1038   */\n          pop\n            /* \"#utility.yul\":694:1045   */\n          swap3\n          swap2\n          pop\n          pop\n          jump\t// out\n            /* \"#utility.yul\":1051:1150   */\n        tag_40:\n            /* \"#utility.yul\":1103:1109   */\n          0x00\n            /* \"#utility.yul\":1137:1142   */\n          dup2\n            /* \"#utility.yul\":1131:1143   */\n          mload\n            /* \"#utility.yul\":1121:1143   */\n          swap1\n          pop\n            /* \"#utility.yul\":1051:1150   */\n          swap2\n          swap1\n          pop\n          jump\t// out\n            /* \"#utility.yul\":1156:1336   */\n        tag_41:\n            /* \"#utility.yul\":1204:1281   */\n          0x4e487b7100000000000000000000000000000000000000000000000000000000\n            /* \"#utility.yul\":1201:1202   */\n          0x00\n            /* \"#utility.yul\":1194:1282   */\n          mstore\n            /* \"#utility.yul\":1301:1305   */\n          0x41\n            /* \"#utility.yul\":1298:1299   */\n          0x04\n            /* \"#utility.yul\":1291:1306   */\n          mstore\n            /* \"#utility.yul\":1325:1329   */\n          0x24\n            /* \"#utility.yul\":1322:1323   */\n          0x00\n            /* \"#utility.yul\":1315:1330   */\n          revert\n            /* \"#utility.yul\":1342:1522   */\n        tag_42:\n            /* \"#utility.yul\":1390:1467   */\n          0x4e487b7100000000000000000000000000000000000000000000000000000000\n            /* \"#utility.yul\":1387:1388   */\n          0x00\n            /* \"#utility.yul\":1380:1468   */\n          mstore\n            /* \"#utility.yul\":1487:1491   */\n          0x22\n            /* \"#utility.yul\":1484:1485   */\n          0x04\n            /* \"#utility.yul\":1477:1492   */\n          mstore\n            /* \"#utility.yul\":1511:1515   */\n          0x24\n            /* \"#utility.yul\":1508:1509   */\n          0x00\n            /* \"#utility.yul\":1501:1516   */\n          revert\n            /* \"#utility.yul\":1528:1848   */\n        tag_43:\n            /* \"#utility.yul\":1572:1578   */\n          0x00\n            /* \"#utility.yul\":1609:1610   */\n          0x02\n            /* \"#utility.yul\":1603:1607   */\n          dup3\n            /* \"#utility.yul\":1599:1611   */\n          div\n            /* \"#utility.yul\":1589:1611   */\n          swap1\n          pop\n            /* \"#utility.yul\":1656:1657   */\n          0x01\n            /* \"#utility.yul\":1650:1654   */\n          dup3\n            /* \"#utility.yul\":1646:1658   */\n          and\n            /* \"#utility.yul\":1677:1695   */\n          dup1\n            /* \"#utility.yul\":1667:1748   */\n          tag_82\n          jumpi\n            /* \"#utility.yul\":1733:1737   */\n          0x7f\n            /* \"#utility.yul\":1725:1731   */\n          dup3\n            /* \"#utility.yul\":1721:1738   */\n          and\n            /* \"#utility.yul\":1711:1738   */\n          swap2\n          pop\n            /* \"#utility.yul\":1667:1748   */\n        tag_82:\n            /* \"#utility.yul\":1795:1797   */\n          0x20\n            /* \"#utility.yul\":1787:1793   */\n          dup3\n            /* \"#utility.yul\":1784:1798   */\n          lt\n            /* \"#utility.yul\":1764:1782   */\n          dup2\n            /* \"#utility.yul\":1761:1799   */\n          sub\n            /* \"#utility.yul\":1758:1842   */\n          tag_83\n          jumpi\n            /* \"#utility.yul\":1814:1832   */\n          tag_84\n          tag_42\n          jump\t// in\n        tag_84:\n            /* \"#utility.yul\":1758:1842   */\n        tag_83:\n            /* \"#utility.yul\":1579:1848   */\n          pop\n            /* \"#utility.yul\":1528:1848   */\n          swap2\n          swap1\n          pop\n          jump\t// out\n            /* \"#utility.yul\":1854:1995   */\n        tag_44:\n            /* \"#utility.yul\":1903:1907   */\n          0x00\n            /* \"#utility.yul\":1926:1929   */\n          dup2\n            /* \"#utility.yul\":1918:1929   */\n          swap1\n          pop\n            /* \"#utility.yul\":1949:1952   */\n          dup2\n            /* \"#utility.yul\":1946:1947   */\n          0x00\n            /* \"#utility.yul\":1939:1953   */\n          mstore\n            /* \"#utility.yul\":1983:1987   */\n          0x20\n            /* \"#utility.yul\":1980:1981   */\n          0x00\n            /* \"#utility.yul\":1970:1988   */\n          keccak256\n            /* \"#utility.yul\":1962:1988   */\n          swap1\n          pop\n            /* \"#utility.yul\":1854:1995   */\n          swap2\n          swap1\n          pop\n          jump\t// out\n            /* \"#utility.yul\":2001:2094   */\n        tag_45:\n            /* \"#utility.yul\":2038:2044   */\n          0x00\n            /* \"#utility.yul\":2085:2087   */\n          0x20\n            /* \"#utility.yul\":2080:2082   */\n          0x1f\n            /* \"#utility.yul\":2073:2078   */\n          dup4\n            /* \"#utility.yul\":2069:2083   */\n          add\n            /* \"#utility.yul\":2065:2088   */\n          div\n            /* \"#utility.yul\":2055:2088   */\n          swap1\n          pop\n            /* \"#utility.yul\":2001:2094   */\n          swap2\n          swap1\n          pop\n          jump\t// out\n            /* \"#utility.yul\":2100:2207   */\n        tag_46:\n            /* \"#utility.yul\":2144:2152   */\n          0x00\n            /* \"#utility.yul\":2194:2199   */\n          dup3\n            /* \"#utility.yul\":2188:2192   */\n          dup3\n            /* \"#utility.yul\":2184:2200   */\n          shl\n            /* \"#utility.yul\":2163:2200   */\n          swap1\n          pop\n            /* \"#utility.yul\":2100:2207   */\n          swap3\n          swap2\n          pop\n          pop\n          jump\t// out\n            /* \"#utility.yul\":2213:2606   */\n        tag_47:\n            /* \"#utility.yul\":2282:2288   */\n          0x00\n            /* \"#utility.yul\":2332:2333   */\n          0x08\n            /* \"#utility.yul\":2320:2330   */\n          dup4\n            /* \"#utility.yul\":2316:2334   */\n          mul\n            /* \"#utility.yul\":2355:2452   */\n          tag_89\n            /* \"#utility.yul\":2385:2451   */\n          0xffffffffffffffffffffffffffffffffffffffffffffffffffffffffffffffff\n            /* \"#utility.yul\":2374:2383   */\n          dup3\n            /* \"#utility.yul\":2355:2452   */\n          tag_46\n          jump\t// in\n        tag_89:\n            /* \"#utility.yul\":2473:2512   */\n          tag_90\n            /* \"#utility.yul\":2503:2511   */\n          dup7\n            /* \"#utility.yul\":2492:2501   */\n          dup4\n            /* \"#utility.yul\":2473:2512   */\n          tag_46\n          jump\t// in\n        tag_90:\n            /* \"#utility.yul\":2461:2512   */\n          swap6\n          pop\n            /* \"#utility.yul\":2545:2549   */\n          dup1\n            /* \"#utility.yul\":2541:2550   */\n          not\n            /* \"#utility.yul\":2534:2539   */\n          dup5\n            /* \"#utility.yul\":2530:2551   */\n          and\n            /* \"#utility.yul\":2521:2551   */\n          swap4\n          pop\n            /* \"#utility.yul\":2594:2598   */\n          dup1\n            /* \"#utility.yul\":2584:2592   */\n          dup7\n            /* \"#utility.yul\":2580:2599   */\n          and\n            /* \"#utility.yul\":2573:2578   */\n          dup5\n            /* \"#utility.yul\":2570:2600   */\n          or\n            /* \"#utility.yul\":2560:2600   */\n          swap3\n          pop\n            /* \"#utility.yul\":2289:2606   */\n          pop\n          pop\n            /* \"#utility.yul\":2213:2606   */\n          swap4\n          swap3\n          pop\n          pop\n          pop\n          jump\t// out\n            /* \"#utility.yul\":2612:2672   */\n        tag_48:\n            /* \"#utility.yul\":2640:2643   */\n          0x00\n            /* \"#utility.yul\":2661:2666   */\n          dup2\n            /* \"#utility.yul\":2654:2666   */\n          swap1\n          pop\n            /* \"#utility.yul\":2612:2672   */\n          swap2\n          swap1\n          pop\n          jump\t// out\n            /* \"#utility.yul\":2678:2820   */\n        tag_49:\n            /* \"#utility.yul\":2728:2737   */\n          0x00\n            /* \"#utility.yul\":2761:2814   */\n          tag_93\n            /* \"#utility.yul\":2779:2813   */\n          tag_94\n            /* \"#utility.yul\":2788:2812   */\n          tag_95\n            /* \"#utility.yul\":2806:2811   */\n          dup5\n            /* \"#utility.yul\":2788:2812   */\n          tag_37\n          jump\t// in\n        tag_95:\n            /* \"#utility.yul\":2779:2813   */\n          tag_48\n          jump\t// in\n        tag_94:\n            /* \"#utility.yul\":2761:2814   */\n          tag_37\n          jump\t// in\n        tag_93:\n            /* \"#utility.yul\":2748:2814   */\n          swap1\n          pop\n            /* \"#utility.yul\":2678:2820   */\n          swap2\n          swap1\n          pop\n          jump\t// out\n            /* \"#utility.yul\":2826:2901   */\n        tag_50:\n            /* \"#utility.yul\":2869:2872   */\n          0x00\n            /* \"#utility.yul\":2890:2895   */\n          dup2\n            /* \"#utility.yul\":2883:2895   */\n          swap1\n          pop\n            /* \"#utility.yul\":2826:2901   */\n          swap2\n          swap1\n          pop\n          jump\t// out\n            /* \"#utility.yul\":2907:3176   */\n        tag_51:\n            /* \"#utility.yul\":3017:3056   */\n          tag_98\n            /* \"#utility.yul\":3048:3055   */\n          dup4\n            /* \"#utility.yul\":3017:3056   */\n          tag_49\n          jump\t// in\n        tag_98:\n            /* \"#utility.yul\":3078:3169   */\n          tag_99\n            /* \"#utility.yul\":3127:3168   */\n          tag_100\n            /* \"#utility.yul\":3151:3167   */\n          dup3\n            /* \"#utility.yul\":3127:3168   */\n          tag_50\n          jump\t// in\n        tag_100:\n            /* \"#utility.yul\":3119:3125   */\n          dup5\n            /* \"#utility.yul\":3112:3116   */\n          dup5\n            /* \"#utility.yul\":3106:3117   */\n          sload\n            /* \"#utility.yul\":3078:3169   */\n          tag_47\n          jump\t// in\n        tag_99:\n            /* \"#utility.yul\":3072:3076   */\n          dup3\n            /* \"#utility.yul\":3065:3170   */\n          sstore\n            /* \"#utility.yul\":2983:3176   */\n          pop\n            /* \"#utility.yul\":2907:3176   */\n          pop\n          pop\n          pop\n          jump\t// out\n            /* \"#utility.yul\":3182:3255   */\n        tag_52:\n            /* \"#utility.yul\":3227:3230   */\n          0x00\n            /* \"#utility.yul\":3182:3255   */\n          swap1\n          jump\t// out\n            /* \"#utility.yul\":3261:3450   */\n        tag_53:\n            /* \"#utility.yul\":3338:3370   */\n          tag_103\n          tag_52\n          jump\t// in\n        tag_103:\n            /* \"#utility.yul\":3379:3444   */\n          tag_104\n            /* \"#utility.yul\":3437:3443   */\n          dup2\n            /* \"#utility.yul\":3429:3435   */\n          dup5\n            /* \"#utility.yul\":3423:3427   */\n          dup5\n            /* \"#utility.yul\":3379:3444   */\n          tag_51\n          jump\t// in\n        tag_104:\n            /* \"#utility.yul\":3314:3450   */\n          pop\n            /* \"#utility.yul\":3261:3450   */\n          pop\n          pop\n          jump\t// out\n            /* \"#utility.yul\":3456:3642   */\n        tag_54:\n            /* \"#utility.yul\":3516:3636   */\n        tag_106:\n            /* \"#utility.yul\":3533:3536   */\n          dup2\n            /* \"#utility.yul\":3526:3531   */\n          dup2\n            /* \"#utility.yul\":3523:3537   */\n          lt\n            /* \"#utility.yul\":3516:3636   */\n          iszero\n          tag_108\n          jumpi\n            /* \"#utility.yul\":3587:3626   */\n          tag_109\n            /* \"#utility.yul\":3624:3625   */\n          0x00\n            /* \"#utility.yul\":3617:3622   */\n          dup3\n            /* \"#utility.yul\":3587:3626   */\n          tag_53\n          jump\t// in\n        tag_109:\n            /* \"#utility.yul\":3560:3561   */\n          0x01\n            /* \"#utility.yul\":3553:3558   */\n          dup2\n            /* \"#utility.yul\":3549:3562   */\n          add\n            /* \"#utility.yul\":3540:3562   */\n          swap1\n          pop\n            /* \"#utility.yul\":3516:3636   */\n          jump(tag_106)\n        tag_108:\n            /* \"#utility.yul\":3456:3642   */\n          pop\n          pop\n          jump\t// out\n            /* \"#utility.yul\":3648:4191   */\n        tag_55:\n            /* \"#utility.yul\":3749:3751   */\n          0x1f\n            /* \"#utility.yul\":3744:3747   */\n          dup3\n            /* \"#utility.yul\":3741:3752   */\n          gt\n            /* \"#utility.yul\":3738:4184   */\n          iszero\n          tag_111\n          jumpi\n            /* \"#utility.yul\":3783:3821   */\n          tag_112\n            /* \"#utility.yul\":3815:3820   */\n          dup2\n            /* \"#utility.yul\":3783:3821   */\n          tag_44\n          jump\t// in\n        tag_112:\n            /* \"#utility.yul\":3867:3896   */\n          tag_113\n            /* \"#utility.yul\":3885:3895   */\n          dup5\n            /* \"#utility.yul\":3867:3896   */\n          tag_45\n          jump\t// in\n        tag_113:\n            /* \"#utility.yul\":3857:3865   */\n          dup2\n            /* \"#utility.yul\":3853:3897   */\n          add\n            /* \"#utility.yul\":4050:4052   */\n          0x20\n            /* \"#utility.yul\":4038:4048   */\n          dup6\n            /* \"#utility.yul\":4035:4053   */\n          lt\n            /* \"#utility.yul\":4032:4081   */\n          iszero\n          tag_114\n          jumpi\n            /* \"#utility.yul\":4071:4079   */\n          dup2\n            /* \"#utility.yul\":4056:4079   */\n          swap1\n          pop\n            /* \"#utility.yul\":4032:4081   */\n        tag_114:\n            /* \"#utility.yul\":4094:4174   */\n          tag_115\n            /* \"#utility.yul\":4150:4172   */\n          tag_116\n            /* \"#utility.yul\":4168:4171   */\n          dup6\n            /* \"#utility.yul\":4150:4172   */\n          tag_45\n          jump\t// in\n        tag_116:\n            /* \"#utility.yul\":4140:4148   */\n          dup4\n            /* \"#utility.yul\":4136:4173   */\n          add\n            /* \"#utility.yul\":4123:4134   */\n          dup3\n            /* \"#utility.yul\":4094:4174   */\n          tag_54\n          jump\t// in\n        tag_115:\n            /* \"#utility.yul\":3753:4184   */\n          pop\n          pop\n            /* \"#utility.yul\":3738:4184   */\n        tag_111:\n            /* \"#utility.yul\":3648:4191   */\n          pop\n          pop\n          pop\n          jump\t// out\n            /* \"#utility.yul\":4197:4314   */\n        tag_56:\n            /* \"#utility.yul\":4251:4259   */\n          0x00\n            /* \"#utility.yul\":4301:4306   */\n          dup3\n            /* \"#utility.yul\":4295:4299   */\n          dup3\n            /* \"#utility.yul\":4291:4307   */\n          shr\n            /* \"#utility.yul\":4270:4307   */\n          swap1\n          pop\n            /* \"#utility.yul\":4197:4314   */\n          swap3\n          swap2\n          pop\n          pop\n          jump\t// out\n            /* \"#utility.yul\":4320:4489   */\n        tag_57:\n            /* \"#utility.yul\":4364:4370   */\n          0x00\n            /* \"#utility.yul\":4397:4448   */\n          tag_119\n            /* \"#utility.yul\":4445:4446   */\n          0x00\n            /* \"#utility.yul\":4441:4447   */\n          not\n            /* \"#utility.yul\":4433:4438   */\n          dup5\n            /* \"#utility.yul\":4430:4431   */\n          0x08\n            /* \"#utility.yul\":4426:4439   */\n          mul\n            /* \"#utility.yul\":4397:4448   */\n          tag_56\n          jump\t// in\n        tag_119:\n            /* \"#utility.yul\":4393:4449   */\n          not\n            /* \"#utility.yul\":4478:4482   */\n          dup1\n            /* \"#utility.yul\":4472:4476   */\n          dup4\n            /* \"#utility.yul\":4468:4483   */\n          and\n            /* \"#utility.yul\":4458:4483   */\n          swap2\n          pop\n            /* \"#utility.yul\":4371:4489   */\n          pop\n            /* \"#utility.yul\":4320:4489   */\n          swap3\n          swap2\n          pop\n          pop\n          jump\t// out\n            /* \"#utility.yul\":4494:4789   */\n        tag_58:\n            /* \"#utility.yul\":4570:4574   */\n          0x00\n            /* \"#utility.yul\":4716:4745   */\n          tag_121\n            /* \"#utility.yul\":4741:4744   */\n          dup4\n            /* \"#utility.yul\":4735:4739   */\n          dup4\n            /* \"#utility.yul\":4716:4745   */\n          tag_57\n          jump\t// in\n        tag_121:\n            /* \"#utility.yul\":4708:4745   */\n          swap2\n          pop\n            /* \"#utility.yul\":4778:4781   */\n          dup3\n            /* \"#utility.yul\":4775:4776   */\n          0x02\n            /* \"#utility.yul\":4771:4782   */\n          mul\n            /* \"#utility.yul\":4765:4769   */\n          dup3\n            /* \"#utility.yul\":4762:4783   */\n          or\n            /* \"#utility.yul\":4754:4783   */\n          swap1\n          pop\n            /* \"#utility.yul\":4494:4789   */\n          swap3\n          swap2\n          pop\n          pop\n          jump\t// out\n            /* \"#utility.yul\":4794:6189   */\n        tag_8:\n            /* \"#utility.yul\":4911:4948   */\n          tag_123\n            /* \"#utility.yul\":4944:4947   */\n          dup3\n            /* \"#utility.yul\":4911:4948   */\n          tag_40\n          jump\t// in\n        tag_123:\n            /* \"#utility.yul\":5013:5031   */\n          0xffffffffffffffff\n            /* \"#utility.yul\":5005:5011   */\n          dup2\n            /* \"#utility.yul\":5002:5032   */\n          gt\n            /* \"#utility.yul\":4999:5055   */\n          iszero\n          tag_124\n          jumpi\n            /* \"#utility.yul\":5035:5053   */\n          tag_125\n          tag_41\n          jump\t// in\n        tag_125:\n            /* \"#utility.yul\":4999:5055   */\n        tag_124:\n            /* \"#utility.yul\":5079:5117   */\n          tag_126\n            /* \"#utility.yul\":5111:5115   */\n          dup3\n            /* \"#utility.yul\":5105:5116   */\n          sload\n            /* \"#utility.yul\":5079:5117   */\n          tag_43\n          jump\t// in\n        tag_126:\n            /* \"#utility.yul\":5164:5231   */\n          tag_127\n            /* \"#utility.yul\":5224:5230   */\n          dup3\n            /* \"#utility.yul\":5216:5222   */\n          dup3\n            /* \"#utility.yul\":5210:5214   */\n          dup6\n            /* \"#utility.yul\":5164:5231   */\n          tag_55\n          jump\t// in\n        tag_127:\n            /* \"#utility.yul\":5258:5259   */\n          0x00\n            /* \"#utility.yul\":5282:5286   */\n          0x20\n            /* \"#utility.yul\":5269:5286   */\n          swap1\n          pop\n            /* \"#utility.yul\":5314:5316   */\n          0x1f\n            /* \"#utility.yul\":5306:5312   */\n          dup4\n            /* \"#utility.yul\":5303:5317   */\n          gt\n            /* \"#utility.yul\":5331:5332   */\n          0x01\n            /* \"#utility.yul\":5326:5944   */\n          dup2\n          eq\n          tag_129\n          jumpi\n            /* \"#utility.yul\":5988:5989   */\n          0x00\n            /* \"#utility.yul\":6005:6011   */\n          dup5\n            /* \"#utility.yul\":6002:6079   */\n          iszero\n          tag_130\n          jumpi\n            /* \"#utility.yul\":6054:6063   */\n          dup3\n            /* \"#utility.yul\":6049:6052   */\n          dup8\n            /* \"#utility.yul\":6045:6064   */\n          add\n            /* \"#utility.yul\":6039:6065   */\n          mload\n            /* \"#utility.yul\":6030:6065   */\n          swap1\n          pop\n            /* \"#utility.yul\":6002:6079   */\n        tag_130:\n            /* \"#utility.yul\":6105:6172   */\n          tag_131\n            /* \"#utility.yul\":6165:6171   */\n          dup6\n            /* \"#utility.yul\":6158:6163   */\n          dup3\n            /* \"#utility.yul\":6105:6172   */\n          tag_58\n          jump\t// in\n        tag_131:\n            /* \"#utility.yul\":6099:6103   */\n          dup7\n            /* \"#utility.yul\":6092:6173   */\n          sstore\n            /* \"#utility.yul\":5961:6183   */\n          pop\n            /* \"#utility.yul\":5296:6183   */\n          jump(tag_128)\n            /* \"#utility.yul\":5326:5944   */\n        tag_129:\n            /* \"#utility.yul\":5378:5382   */\n          0x1f\n            /* \"#utility.yul\":5374:5383   */\n          not\n            /* \"#utility.yul\":5366:5372   */\n          dup5\n            /* \"#utility.yul\":5362:5384   */\n          and\n            /* \"#utility.yul\":5412:5449   */\n          tag_132\n            /* \"#utility.yul\":5444:5448   */\n          dup7\n            /* \"#utility.yul\":5412:5449   */\n          tag_44\n          jump\t// in\n        tag_132:\n            /* \"#utility.yul\":5471:5472   */\n          0x00\n            /* \"#utility.yul\":5485:5693   */\n        tag_133:\n            /* \"#utility.yul\":5499:5506   */\n          dup3\n            /* \"#utility.yul\":5496:5497   */\n          dup2\n            /* \"#utility.yul\":5493:5507   */\n          lt\n            /* \"#utility.yul\":5485:5693   */\n          iszero\n          tag_135\n          jumpi\n            /* \"#utility.yul\":5578:5587   */\n          dup5\n            /* \"#utility.yul\":5573:5576   */\n          dup10\n            /* \"#utility.yul\":5569:5588   */\n          add\n            /* \"#utility.yul\":5563:5589   */\n          mload\n            /* \"#utility.yul\":5555:5561   */\n          dup3\n            /* \"#utility.yul\":5548:5590   */\n          sstore\n            /* \"#utility.yul\":5629:5630   */\n          0x01\n            /* \"#utility.yul\":5621:5627   */\n          dup3\n            /* \"#utility.yul\":5617:5631   */\n          add\n            /* \"#utility.yul\":5607:5631   */\n          swap2\n          pop\n            /* \"#utility.yul\":5676:5678   */\n          0x20\n            /* \"#utility.yul\":5665:5674   */\n          dup6\n            /* \"#utility.yul\":5661:5679   */\n          add\n            /* \"#utility.yul\":5648:5679   */\n          swap5\n          pop\n            /* \"#utility.yul\":5522:5526   */\n          0x20\n            /* \"#utility.yul\":5519:5520   */\n          dup2\n            /* \"#utility.yul\":5515:5527   */\n          add\n            /* \"#utility.yul\":5510:5527   */\n          swap1\n          pop\n            /* \"#utility.yul\":5485:5693   */\n          jump(tag_133)\n        tag_135:\n            /* \"#utility.yul\":5721:5727   */\n          dup7\n            /* \"#utility.yul\":5712:5719   */\n          dup4\n            /* \"#utility.yul\":5709:5728   */\n          lt\n            /* \"#utility.yul\":5706:5885   */\n          iszero\n          tag_136\n          jumpi\n            /* \"#utility.yul\":5779:5788   */\n          dup5\n            /* \"#utility.yul\":5774:5777   */\n          dup10\n            /* \"#utility.yul\":5770:5789   */\n          add\n            /* \"#utility.yul\":5764:5790   */\n          mload\n            /* \"#utility.yul\":5822:5870   */\n          tag_137\n            /* \"#utility.yul\":5864:5868   */\n          0x1f\n            /* \"#utility.yul\":5856:5862   */\n          dup10\n            /* \"#utility.yul\":5852:5869   */\n          and\n            /* \"#utility.yul\":5841:5850   */\n          dup3\n            /* \"#utility.yul\":5822:5870   */\n          tag_57\n          jump\t// in\n        tag_137:\n            /* \"#utility.yul\":5814:5820   */\n          dup4\n            /* \"#utility.yul\":5807:5871   */\n          sstore\n            /* \"#utility.yul\":5729:5885   */\n          pop\n            /* \"#utility.yul\":5706:5885   */\n        tag_136:\n            /* \"#utility.yul\":5931:5932   */\n          0x01\n            /* \"#utility.yul\":5927:5928   */\n          0x02\n            /* \"#utility.yul\":5919:5925   */\n          dup9\n            /* \"#utility.yul\":5915:5929   */\n          mul\n            /* \"#utility.yul\":5911:5933   */\n          add\n            /* \"#utility.yul\":5905:5909   */\n          dup9\n            /* \"#utility.yul\":5898:5934   */\n          sstore\n            /* \"#utility.yul\":5333:5944   */\n          pop\n          pop\n          pop\n            /* \"#utility.yul\":5296:6183   */\n        tag_128:\n          pop\n            /* \"#utility.yul\":4886:6189   */\n          pop\n          pop\n          pop\n            /* \"#utility.yul\":4794:6189   */\n          pop\n          pop\n          jump\t// out\n            /* \"#utility.yul\":6195:6375   */\n        tag_59:\n            /* \"#utility.yul\":6243:6320   */\n          0x4e487b7100000000000000000000000000000000000000000000000000000000\n            /* \"#utility.yul\":6240:6241   */\n          0x00\n            /* \"#utility.yul\":6233:6321   */\n          mstore\n            /* \"#utility.yul\":6340:6344   */\n          0x11\n            /* \"#utility.yul\":6337:6338   */\n          0x04\n            /* \"#utility.yul\":6330:6345   */\n          mstore\n            /* \"#utility.yul\":6364:6368   */\n          0x24\n            /* \"#utility.yul\":6361:6362   */\n          0x00\n            /* \"#utility.yul\":6354:6369   */\n          revert\n            /* \"#utility.yul\":6381:6791   */\n        tag_13:\n            /* \"#utility.yul\":6421:6428   */\n          0x00\n            /* \"#utility.yul\":6444:6464   */\n          tag_140\n            /* \"#utility.yul\":6462:6463   */\n          dup3\n            /* \"#utility.yul\":6444:6464   */\n          tag_37\n          jump\t// in\n        tag_140:\n            /* \"#utility.yul\":6439:6464   */\n          swap2\n          pop\n            /* \"#utility.yul\":6478:6498   */\n          tag_141\n            /* \"#utility.yul\":6496:6497   */\n          dup4\n            /* \"#utility.yul\":6478:6498   */\n          tag_37\n          jump\t// in\n        tag_141:\n            /* \"#utility.yul\":6473:6498   */\n          swap3\n          pop\n            /* \"#utility.yul\":6533:6534   */\n          dup3\n            /* \"#utility.yul\":6530:6531   */\n          dup3\n            /* \"#utility.yul\":6526:6535   */\n          mul\n            /* \"#utility.yul\":6555:6585   */\n          tag_142\n            /* \"#utility.yul\":6573:6584   */\n          dup2\n            /* \"#utility.yul\":6555:6585   */\n          tag_37\n          jump\t// in\n        tag_142:\n            /* \"#utility.yul\":6544:6585   */\n          swap2\n          pop\n            /* \"#utility.yul\":6734:6735   */\n          dup3\n            /* \"#utility.yul\":6725:6732   */\n          dup3\n            /* \"#utility.yul\":6721:6736   */\n          div\n            /* \"#utility.yul\":6718:6719   */\n          dup5\n            /* \"#utility.yul\":6715:6737   */\n          eq\n            /* \"#utility.yul\":6695:6696   */\n          dup4\n            /* \"#utility.yul\":6688:6697   */\n          iszero\n            /* \"#utility.yul\":6668:6751   */\n          or\n            /* \"#utility.yul\":6645:6784   */\n          tag_143\n          jumpi\n            /* \"#utility.yul\":6764:6782   */\n          tag_144\n          tag_59\n          jump\t// in\n        tag_144:\n            /* \"#utility.yul\":6645:6784   */\n        tag_143:\n            /* \"#utility.yul\":6429:6791   */\n          pop\n            /* \"#utility.yul\":6381:6791   */\n          swap3\n          swap2\n          pop\n          pop\n          jump\t// out\n            /* \"#utility.yul\":6797:6923   */\n        tag_60:\n            /* \"#utility.yul\":6834:6841   */\n          0x00\n            /* \"#utility.yul\":6874:6916   */\n          0xffffffffffffffffffffffffffffffffffffffff\n            /* \"#utility.yul\":6867:6872   */\n          dup3\n            /* \"#utility.yul\":6863:6917   */\n          and\n            /* \"#utility.yul\":6852:6917   */\n          swap1\n          pop\n            /* \"#utility.yul\":6797:6923   */\n          swap2\n          swap1\n          pop\n          jump\t// out\n            /* \"#utility.yul\":6929:7025   */\n        tag_61:\n            /* \"#utility.yul\":6966:6973   */\n          0x00\n            /* \"#utility.yul\":6995:7019   */\n          tag_147\n            /* \"#utility.yul\":7013:7018   */\n          dup3\n            /* \"#utility.yul\":6995:7019   */\n          tag_60\n          jump\t// in\n        tag_147:\n            /* \"#utility.yul\":6984:7019   */\n          swap1\n          pop\n            /* \"#utility.yul\":6929:7025   */\n          swap2\n          swap1\n          pop\n          jump\t// out\n            /* \"#utility.yul\":7031:7149   */\n        tag_62:\n            /* \"#utility.yul\":7118:7142   */\n          tag_149\n            /* \"#utility.yul\":7136:7141   */\n          dup2\n            /* \"#utility.yul\":7118:7142   */\n          tag_61\n          jump\t// in\n        tag_149:\n            /* \"#utility.yul\":7113:7116   */\n          dup3\n            /* \"#utility.yul\":7106:7143   */\n          mstore\n            /* \"#utility.yul\":7031:7149   */\n          pop\n          pop\n          jump\t// out\n            /* \"#utility.yul\":7155:7377   */\n        tag_19:\n            /* \"#utility.yul\":7248:7252   */\n          0x00\n            /* \"#utility.yul\":7286:7288   */\n          0x20\n            /* \"#utility.yul\":7275:7284   */\n          dup3\n            /* \"#utility.yul\":7271:7289   */\n          add\n            /* \"#utility.yul\":7263:7289   */\n          swap1\n          pop\n            /* \"#utility.yul\":7299:7370   */\n          tag_151\n            /* \"#utility.yul\":7367:7368   */\n          0x00\n            /* \"#utility.yul\":7356:7365   */\n          dup4\n            /* \"#utility.yul\":7352:7369   */\n          add\n            /* \"#utility.yul\":7343:7349   */\n          dup5\n            /* \"#utility.yul\":7299:7370   */\n          tag_62\n          jump\t// in\n        tag_151:\n            /* \"#utility.yul\":7155:7377   */\n          swap3\n          swap2\n          pop\n          pop\n          jump\t// out\n            /* \"#utility.yul\":7383:7574   */\n        tag_25:\n            /* \"#utility.yul\":7423:7426   */\n          0x00\n            /* \"#utility.yul\":7442:7462   */\n          tag_153\n            /* \"#utility.yul\":7460:7461   */\n          dup3\n            /* \"#utility.yul\":7442:7462   */\n          tag_37\n          jump\t// in\n        tag_153:\n            /* \"#utility.yul\":7437:7462   */\n          swap2\n          pop\n            /* \"#utility.yul\":7476:7496   */\n          tag_154\n            /* \"#utility.yul\":7494:7495   */\n          dup4\n            /* \"#utility.yul\":7476:7496   */\n          tag_37\n          jump\t// in\n        tag_154:\n            /* \"#utility.yul\":7471:7496   */\n          swap3\n          pop\n            /* \"#utility.yul\":7519:7520   */\n          dup3\n            /* \"#utility.yul\":7516:7517   */\n          dup3\n            /* \"#utility.yul\":7512:7521   */\n          add\n            /* \"#utility.yul\":7505:7521   */\n          swap1\n          pop\n            /* \"#utility.yul\":7540:7543   */\n          dup1\n            /* \"#utility.yul\":7537:7538   */\n          dup3\n            /* \"#utility.yul\":7534:7544   */\n          gt\n            /* \"#utility.yul\":7531:7567   */\n          iszero\n          tag_155\n          jumpi\n            /* \"#utility.yul\":7547:7565   */\n          tag_156\n          tag_59\n          jump\t// in\n        tag_156:\n            /* \"#utility.yul\":7531:7567   */\n        tag_155:\n            /* \"#utility.yul\":7383:7574   */\n          swap3\n          swap2\n          pop\n          pop\n          jump\t// out\n            /* \"#utility.yul\":7580:7698   */\n        tag_63:\n            /* \"#utility.yul\":7667:7691   */\n          tag_158\n            /* \"#utility.yul\":7685:7690   */\n          dup2\n            /* \"#utility.yul\":7667:7691   */\n          tag_37\n          jump\t// in\n        tag_158:\n            /* \"#utility.yul\":7662:7665   */\n          dup3\n            /* \"#utility.yul\":7655:7692   */\n          mstore\n            /* \"#utility.yul\":7580:7698   */\n          pop\n          pop\n          jump\t// out\n            /* \"#utility.yul\":7704:8146   */\n        tag_29:\n            /* \"#utility.yul\":7853:7857   */\n          0x00\n            /* \"#utility.yul\":7891:7893   */\n          0x60\n            /* \"#utility.yul\":7880:7889   */\n          dup3\n            /* \"#utility.yul\":7876:7894   */\n          add\n            /* \"#utility.yul\":7868:7894   */\n          swap1\n          pop\n            /* \"#utility.yul\":7904:7975   */\n          tag_160\n            /* \"#utility.yul\":7972:7973   */\n          0x00\n            /* \"#utility.yul\":7961:7970   */\n          dup4\n            /* \"#utility.yul\":7957:7974   */\n          add\n            /* \"#utility.yul\":7948:7954   */\n          dup7\n            /* \"#utility.yul\":7904:7975   */\n          tag_62\n          jump\t// in\n        tag_160:\n            /* \"#utility.yul\":7985:8057   */\n          tag_161\n            /* \"#utility.yul\":8053:8055   */\n          0x20\n            /* \"#utility.yul\":8042:8051   */\n          dup4\n            /* \"#utility.yul\":8038:8056   */\n          add\n            /* \"#utility.yul\":8029:8035   */\n          dup6\n            /* \"#utility.yul\":7985:8057   */\n          tag_63\n          jump\t// in\n        tag_161:\n            /* \"#utility.yul\":8067:8139   */\n          tag_162\n            /* \"#utility.yul\":8135:8137   */\n          0x40\n            /* \"#utility.yul\":8124:8133   */\n          dup4\n            /* \"#utility.yul\":8120:8138   */\n          add\n            /* \"#utility.yul\":8111:8117   */\n          dup5\n            /* \"#utility.yul\":8067:8139   */\n          tag_63\n          jump\t// in\n        tag_162:\n            /* \"#utility.yul\":7704:8146   */\n          swap5\n          swap4\n          pop\n          pop\n          pop\n          pop\n          jump\t// out\n            /* \"#utility.yul\":8152:8374   */\n        tag_33:\n            /* \"#utility.yul\":8245:8249   */\n          0x00\n            /* \"#utility.yul\":8283:8285   */\n          0x20\n            /* \"#utility.yul\":8272:8281   */\n          dup3\n            /* \"#utility.yul\":8268:8286   */\n          add\n            /* \"#utility.yul\":8260:8286   */\n          swap1\n          pop\n            /* \"#utility.yul\":8296:8367   */\n          tag_164\n            /* \"#utility.yul\":8364:8365   */\n          0x00\n            /* \"#utility.yul\":8353:8362   */\n          dup4\n            /* \"#utility.yul\":8349:8366   */\n          add\n            /* \"#utility.yul\":8340:8346   */\n          dup5\n            /* \"#utility.yul\":8296:8367   */\n          tag_63\n          jump\t// in\n        tag_164:\n            /* \"#utility.yul\":8152:8374   */\n          swap3\n          swap2\n          pop\n          pop\n          jump\t// out\n            /* \"contracts/DataPunk.sol\":318:535  contract DataPunkCoin is ERC20 {... */\n        tag_15:\n          dataSize(sub_0)\n          dup1\n          dataOffset(sub_0)\n          0x00\n          codecopy\n          0x00\n          return\n        stop\n\n        sub_0: assembly {\n                /* \"contracts/DataPunk.sol\":318:535  contract DataPunkCoin is ERC20 {... */\n              mstore(0x40, 0x80)\n              callvalue\n              dup1\n              iszero\n              tag_1\n              jumpi\n              0x00\n              dup1\n              revert\n            tag_1:\n              pop\n              jumpi(tag_2, lt(calldatasize, 0x04))\n              shr(0xe0, calldataload(0x00))\n              dup1\n              0x313ce567\n              gt\n              tag_12\n              jumpi\n              dup1\n              0x313ce567\n              eq\n              tag_7\n              jumpi\n              dup1\n              0x70a08231\n              eq\n              tag_8\n              jumpi\n              dup1\n              0x95d89b41\n              eq\n              tag_9\n              jumpi\n              dup1\n              0xa9059cbb\n              eq\n              tag_10\n              jumpi\n              dup1\n              0xdd62ed3e\n              eq\n              tag_11\n              jumpi\n              jump(tag_2)\n            tag_12:\n              dup1\n              0x06fdde03\n              eq\n              tag_3\n              jumpi\n              dup1\n              0x095ea7b3\n              eq\n              tag_4\n              jumpi\n              dup1\n              0x18160ddd\n              eq\n              tag_5\n              jumpi\n              dup1\n              0x23b872dd\n              eq\n              tag_6\n              jumpi\n            tag_2:\n              0x00\n              dup1\n              revert\n                /* \"@openzeppelin/contracts/token/ERC20/ERC20.sol\":2074:2163  function name() public view virtual returns (string memory) {... */\n            tag_3:\n              tag_13\n              tag_14\n              jump\t// in\n            tag_13:\n              mload(0x40)\n              tag_15\n              swap2\n              swap1\n              tag_16\n              jump\t// in\n            tag_15:\n              mload(0x40)\n              dup1\n              swap2\n              sub\n              swap1\n              return\n                /* \"@openzeppelin/contracts/token/ERC20/ERC20.sol\":4293:4479  function approve(address spender, uint256 value) public virtual returns (bool) {... */\n            tag_4:\n              tag_17\n              0x04\n              dup1\n              calldatasize\n              sub\n              dup2\n              add\n              swap1\n              tag_18\n              swap2\n              swap1\n              tag_19\n              jump\t// in\n            tag_18:\n              tag_20\n              jump\t// in\n            tag_17:\n              mload(0x40)\n              tag_21\n              swap2\n              swap1\n              tag_22\n              jump\t// in\n            tag_21:\n              mload(0x40)\n              dup1\n              swap2\n              sub\n              swap1\n              return\n                /* \"@openzeppelin/contracts/token/ERC20/ERC20.sol\":3144:3241  function totalSupply() public view virtual returns (uint256) {... */\n            tag_5:\n              tag_23\n              tag_24\n              jump\t// in\n            tag_23:\n              mload(0x40)\n              tag_25\n              swap2\n              swap1\n              tag_26\n              jump\t// in\n            tag_25:\n              mload(0x40)\n              dup1\n              swap2\n              sub\n              swap1\n              return\n                /* \"@openzeppelin/contracts/token/ERC20/ERC20.sol\":5039:5283  function transferFrom(address from, address to, uint256 value) public virtual returns (bool) {... */\n            tag_6:\n              tag_27\n              0x04\n              dup1\n              calldatasize\n              sub\n              dup2\n              add\n              swap1\n              tag_28\n              swap2\n              swap1\n              tag_29\n              jump\t// in\n            tag_28:\n              tag_30\n              jump\t// in\n            tag_27:\n              mload(0x40)\n              tag_31\n              swap2\n              swap1\n              tag_22\n              jump\t// in\n            tag_31:\n              mload(0x40)\n              dup1\n              swap2\n              sub\n              swap1\n              return\n                /* \"@openzeppelin/contracts/token/ERC20/ERC20.sol\":3002:3084  function decimals() public view virtual returns (uint8) {... */\n            tag_7:\n              tag_32\n              tag_33\n              jump\t// in\n            tag_32:\n              mload(0x40)\n              tag_34\n              swap2\n              swap1\n              tag_35\n              jump\t// in\n            tag_34:\n              mload(0x40)\n              dup1\n              swap2\n              sub\n              swap1\n              return\n                /* \"@openzeppelin/contracts/token/ERC20/ERC20.sol\":3299:3415  function balanceOf(address account) public view virtual returns (uint256) {... */\n            tag_8:\n              tag_36\n              0x04\n              dup1\n              calldatasize\n              sub\n              dup2\n              add\n              swap1\n              tag_37\n              swap2\n              swap1\n              tag_38\n              jump\t// in\n            tag_37:\n              tag_39\n              jump\t// in\n            tag_36:\n              mload(0x40)\n              tag_40\n              swap2\n              swap1\n              tag_26\n              jump\t// in\n            tag_40:\n              mload(0x40)\n              dup1\n              swap2\n              sub\n              swap1\n              return\n                /* \"@openzeppelin/contracts/token/ERC20/ERC20.sol\":2276:2369  function symbol() public view virtual returns (string memory) {... */\n            tag_9:\n              tag_41\n              tag_42\n              jump\t// in\n            tag_41:\n              mload(0x40)\n              tag_43\n              swap2\n              swap1\n              tag_16\n              jump\t// in\n            tag_43:\n              mload(0x40)\n              dup1\n              swap2\n              sub\n              swap1\n              return\n                /* \"@openzeppelin/contracts/token/ERC20/ERC20.sol\":3610:3788  function transfer(address to, uint256 value) public virtual returns (bool) {... */\n            tag_10:\n              tag_44\n              0x04\n              dup1\n              calldatasize\n              sub\n              dup2\n              add\n              swap1\n              tag_45\n              swap2\n              swap1\n              tag_19\n              jump\t// in\n            tag_45:\n              tag_46\n              jump\t// in\n            tag_44:\n              mload(0x40)\n              tag_47\n              swap2\n              swap1\n              tag_22\n              jump\t// in\n            tag_47:\n              mload(0x40)\n              dup1\n              swap2\n              sub\n              swap1\n              return\n                /* \"@openzeppelin/contracts/token/ERC20/ERC20.sol\":3846:3986  function allowance(address owner, address spender) public view virtual returns (uint256) {... */\n            tag_11:\n              tag_48\n              0x04\n              dup1\n              calldatasize\n              sub\n              dup2\n              add\n              swap1\n              tag_49\n              swap2\n              swap1\n              tag_50\n              jump\t// in\n            tag_49:\n              tag_51\n              jump\t// in\n            tag_48:\n              mload(0x40)\n              tag_52\n              swap2\n              swap1\n              tag_26\n              jump\t// in\n            tag_52:\n              mload(0x40)\n              dup1\n              swap2\n              sub\n              swap1\n              return\n                /* \"@openzeppelin/contracts/token/ERC20/ERC20.sol\":2074:2163  function name() public view virtual returns (string memory) {... */\n            tag_14:\n                /* \"@openzeppelin/contracts/token/ERC20/ERC20.sol\":2119:2132  string memory */\n              0x60\n                /* \"@openzeppelin/contracts/token/ERC20/ERC20.sol\":2151:2156  _name */\n              0x03\n                /* \"@openzeppelin/contracts/token/ERC20/ERC20.sol\":2144:2156  return _name */\n              dup1\n              sload\n              tag_54\n              swap1\n              tag_55\n              jump\t// in\n            tag_54:\n              dup1\n              0x1f\n              add\n              0x20\n              dup1\n              swap2\n              div\n              mul\n              0x20\n              add\n              mload(0x40)\n              swap1\n              dup2\n              add\n              0x40\n              mstore\n              dup1\n              swap3\n              swap2\n              swap1\n              dup2\n              dup2\n              mstore\n              0x20\n              add\n              dup3\n              dup1\n              sload\n              tag_56\n              swap1\n              tag_55\n              jump\t// in\n            tag_56:\n              dup1\n              iszero\n              tag_57\n              jumpi\n              dup1\n              0x1f\n              lt\n              tag_58\n              jumpi\n              0x0100\n              dup1\n              dup4\n              sload\n              div\n              mul\n              dup4\n              mstore\n              swap2\n              0x20\n              add\n              swap2\n              jump(tag_57)\n            tag_58:\n              dup3\n              add\n              swap2\n              swap1\n              0x00\n              mstore\n              keccak256(0x00, 0x20)\n              swap1\n            tag_59:\n              dup2\n              sload\n              dup2\n              mstore\n              swap1\n              0x01\n              add\n              swap1\n              0x20\n              add\n              dup1\n              dup4\n              gt\n              tag_59\n              jumpi\n              dup3\n              swap1\n              sub\n              0x1f\n              and\n              dup3\n              add\n              swap2\n            tag_57:\n              pop\n              pop\n              pop\n              pop\n              pop\n              swap1\n              pop\n                /* \"@openzeppelin/contracts/token/ERC20/ERC20.sol\":2074:2163  function name() public view virtual returns (string memory) {... */\n              swap1\n              jump\t// out\n                /* \"@openzeppelin/contracts/token/ERC20/ERC20.sol\":4293:4479  function approve(address spender, uint256 value) public virtual returns (bool) {... */\n            tag_20:\n                /* \"@openzeppelin/contracts/token/ERC20/ERC20.sol\":4366:4370  bool */\n              0x00\n                /* \"@openzeppelin/contracts/token/ERC20/ERC20.sol\":4382:4395  address owner */\n              dup1\n                /* \"@openzeppelin/contracts/token/ERC20/ERC20.sol\":4398:4410  _msgSender() */\n              tag_61\n                /* \"@openzeppelin/contracts/token/ERC20/ERC20.sol\":4398:4408  _msgSender */\n              tag_62\n                /* \"@openzeppelin/contracts/token/ERC20/ERC20.sol\":4398:4410  _msgSender() */\n              jump\t// in\n            tag_61:\n                /* \"@openzeppelin/contracts/token/ERC20/ERC20.sol\":4382:4410  address owner = _msgSender() */\n              swap1\n              pop\n                /* \"@openzeppelin/contracts/token/ERC20/ERC20.sol\":4420:4451  _approve(owner, spender, value) */\n              tag_63\n                /* \"@openzeppelin/contracts/token/ERC20/ERC20.sol\":4429:4434  owner */\n              dup2\n                /* \"@openzeppelin/contracts/token/ERC20/ERC20.sol\":4436:4443  spender */\n              dup6\n                /* \"@openzeppelin/contracts/token/ERC20/ERC20.sol\":4445:4450  value */\n              dup6\n                /* \"@openzeppelin/contracts/token/ERC20/ERC20.sol\":4420:4428  _approve */\n              tag_64\n                /* \"@openzeppelin/contracts/token/ERC20/ERC20.sol\":4420:4451  _approve(owner, spender, value) */\n              jump\t// in\n            tag_63:\n                /* \"@openzeppelin/contracts/token/ERC20/ERC20.sol\":4468:4472  true */\n              0x01\n                /* \"@openzeppelin/contracts/token/ERC20/ERC20.sol\":4461:4472  return true */\n              swap2\n              pop\n              pop\n                /* \"@openzeppelin/contracts/token/ERC20/ERC20.sol\":4293:4479  function approve(address spender, uint256 value) public virtual returns (bool) {... */\n              swap3\n              swap2\n              pop\n              pop\n              jump\t// out\n                /* \"@openzeppelin/contracts/token/ERC20/ERC20.sol\":3144:3241  function totalSupply() public view virtual returns (uint256) {... */\n            tag_24:\n                /* \"@openzeppelin/contracts/token/ERC20/ERC20.sol\":3196:3203  uint256 */\n              0x00\n                /* \"@openzeppelin/contracts/token/ERC20/ERC20.sol\":3222:3234  _totalSupply */\n              sload(0x02)\n                /* \"@openzeppelin/contracts/token/ERC20/ERC20.sol\":3215:3234  return _totalSupply */\n              swap1\n              pop\n                /* \"@openzeppelin/contracts/token/ERC20/ERC20.sol\":3144:3241  function totalSupply() public view virtual returns (uint256) {... */\n              swap1\n              jump\t// out\n                /* \"@openzeppelin/contracts/token/ERC20/ERC20.sol\":5039:5283  function transferFrom(address from, address to, uint256 value) public virtual returns (bool) {... */\n            tag_30:\n                /* \"@openzeppelin/contracts/token/ERC20/ERC20.sol\":5126:5130  bool */\n              0x00\n                /* \"@openzeppelin/contracts/token/ERC20/ERC20.sol\":5142:5157  address spender */\n              dup1\n                /* \"@openzeppelin/contracts/token/ERC20/ERC20.sol\":5160:5172  _msgSender() */\n              tag_67\n                /* \"@openzeppelin/contracts/token/ERC20/ERC20.sol\":5160:5170  _msgSender */\n              tag_62\n                /* \"@openzeppelin/contracts/token/ERC20/ERC20.sol\":5160:5172  _msgSender() */\n              jump\t// in\n            tag_67:\n                /* \"@openzeppelin/contracts/token/ERC20/ERC20.sol\":5142:5172  address spender = _msgSender() */\n              swap1\n              pop\n                /* \"@openzeppelin/contracts/token/ERC20/ERC20.sol\":5182:5219  _spendAllowance(from, spender, value) */\n              tag_68\n                /* \"@openzeppelin/contracts/token/ERC20/ERC20.sol\":5198:5202  from */\n              dup6\n                /* \"@openzeppelin/contracts/token/ERC20/ERC20.sol\":5204:5211  spender */\n              dup3\n                /* \"@openzeppelin/contracts/token/ERC20/ERC20.sol\":5213:5218  value */\n              dup6\n                /* \"@openzeppelin/contracts/token/ERC20/ERC20.sol\":5182:5197  _spendAllowance */\n              tag_69\n                /* \"@openzeppelin/contracts/token/ERC20/ERC20.sol\":5182:5219  _spendAllowance(from, spender, value) */\n              jump\t// in\n            tag_68:\n                /* \"@openzeppelin/contracts/token/ERC20/ERC20.sol\":5229:5255  _transfer(from, to, value) */\n              tag_70\n                /* \"@openzeppelin/contracts/token/ERC20/ERC20.sol\":5239:5243  from */\n              dup6\n                /* \"@openzeppelin/contracts/token/ERC20/ERC20.sol\":5245:5247  to */\n              dup6\n                /* \"@openzeppelin/contracts/token/ERC20/ERC20.sol\":5249:5254  value */\n              dup6\n                /* \"@openzeppelin/contracts/token/ERC20/ERC20.sol\":5229:5238  _transfer */\n              tag_71\n                /* \"@openzeppelin/contracts/token/ERC20/ERC20.sol\":5229:5255  _transfer(from, to, value) */\n              jump\t// in\n            tag_70:\n                /* \"@openzeppelin/contracts/token/ERC20/ERC20.sol\":5272:5276  true */\n              0x01\n                /* \"@openzeppelin/contracts/token/ERC20/ERC20.sol\":5265:5276  return true */\n              swap2\n              pop\n              pop\n                /* \"@openzeppelin/contracts/token/ERC20/ERC20.sol\":5039:5283  function transferFrom(address from, address to, uint256 value) public virtual returns (bool) {... */\n              swap4\n              swap3\n              pop\n              pop\n              pop\n              jump\t// out\n                /* \"@openzeppelin/contracts/token/ERC20/ERC20.sol\":3002:3084  function decimals() public view virtual returns (uint8) {... */\n            tag_33:\n                /* \"@openzeppelin/contracts/token/ERC20/ERC20.sol\":3051:3056  uint8 */\n              0x00\n                /* \"@openzeppelin/contracts/token/ERC20/ERC20.sol\":3075:3077  18 */\n              0x12\n                /* \"@openzeppelin/contracts/token/ERC20/ERC20.sol\":3068:3077  return 18 */\n              swap1\n              pop\n                /* \"@openzeppelin/contracts/token/ERC20/ERC20.sol\":3002:3084  function decimals() public view virtual returns (uint8) {... */\n              swap1\n              jump\t// out\n                /* \"@openzeppelin/contracts/token/ERC20/ERC20.sol\":3299:3415  function balanceOf(address account) public view virtual returns (uint256) {... */\n            tag_39:\n                /* \"@openzeppelin/contracts/token/ERC20/ERC20.sol\":3364:3371  uint256 */\n              0x00\n                /* \"@openzeppelin/contracts/token/ERC20/ERC20.sol\":3390:3399  _balances */\n              dup1\n                /* \"@openzeppelin/contracts/token/ERC20/ERC20.sol\":3390:3408  _balances[account] */\n              0x00\n                /* \"@openzeppelin/contracts/token/ERC20/ERC20.sol\":3400:3407  account */\n              dup4\n                /* \"@openzeppelin/contracts/token/ERC20/ERC20.sol\":3390:3408  _balances[account] */\n              0xffffffffffffffffffffffffffffffffffffffff\n              and\n              0xffffffffffffffffffffffffffffffffffffffff\n              and\n              dup2\n              mstore\n              0x20\n              add\n              swap1\n              dup2\n              mstore\n              0x20\n              add\n              0x00\n              keccak256\n              sload\n                /* \"@openzeppelin/contracts/token/ERC20/ERC20.sol\":3383:3408  return _balances[account] */\n              swap1\n              pop\n                /* \"@openzeppelin/contracts/token/ERC20/ERC20.sol\":3299:3415  function balanceOf(address account) public view virtual returns (uint256) {... */\n              swap2\n              swap1\n              pop\n              jump\t// out\n                /* \"@openzeppelin/contracts/token/ERC20/ERC20.sol\":2276:2369  function symbol() public view virtual returns (string memory) {... */\n            tag_42:\n                /* \"@openzeppelin/contracts/token/ERC20/ERC20.sol\":2323:2336  string memory */\n              0x60\n                /* \"@openzeppelin/contracts/token/ERC20/ERC20.sol\":2355:2362  _symbol */\n              0x04\n                /* \"@openzeppelin/contracts/token/ERC20/ERC20.sol\":2348:2362  return _symbol */\n              dup1\n              sload\n              tag_75\n              swap1\n              tag_55\n              jump\t// in\n            tag_75:\n              dup1\n              0x1f\n              add\n              0x20\n              dup1\n              swap2\n              div\n              mul\n              0x20\n              add\n              mload(0x40)\n              swap1\n              dup2\n              add\n              0x40\n              mstore\n              dup1\n              swap3\n              swap2\n              swap1\n              dup2\n              dup2\n              mstore\n              0x20\n              add\n              dup3\n              dup1\n              sload\n              tag_76\n              swap1\n              tag_55\n              jump\t// in\n            tag_76:\n              dup1\n              iszero\n              tag_77\n              jumpi\n              dup1\n              0x1f\n              lt\n              tag_78\n              jumpi\n              0x0100\n              dup1\n              dup4\n              sload\n              div\n              mul\n              dup4\n              mstore\n              swap2\n              0x20\n              add\n              swap2\n              jump(tag_77)\n            tag_78:\n              dup3\n              add\n              swap2\n              swap1\n              0x00\n              mstore\n              keccak256(0x00, 0x20)\n              swap1\n            tag_79:\n              dup2\n              sload\n              dup2\n              mstore\n              swap1\n              0x01\n              add\n              swap1\n              0x20\n              add\n              dup1\n              dup4\n              gt\n              tag_79\n              jumpi\n              dup3\n              swap1\n              sub\n              0x1f\n              and\n              dup3\n              add\n              swap2\n            tag_77:\n              pop\n              pop\n              pop\n              pop\n              pop\n              swap1\n              pop\n                /* \"@openzeppelin/contracts/token/ERC20/ERC20.sol\":2276:2369  function symbol() public view virtual returns (string memory) {... */\n              swap1\n              jump\t// out\n                /* \"@openzeppelin/contracts/token/ERC20/ERC20.sol\":3610:3788  function transfer(address to, uint256 value) public virtual returns (bool) {... */\n            tag_46:\n                /* \"@openzeppelin/contracts/token/ERC20/ERC20.sol\":3679:3683  bool */\n              0x00\n                /* \"@openzeppelin/contracts/token/ERC20/ERC20.sol\":3695:3708  address owner */\n              dup1\n                /* \"@openzeppelin/contracts/token/ERC20/ERC20.sol\":3711:3723  _msgSender() */\n              tag_81\n                /* \"@openzeppelin/contracts/token/ERC20/ERC20.sol\":3711:3721  _msgSender */\n              tag_62\n                /* \"@openzeppelin/contracts/token/ERC20/ERC20.sol\":3711:3723  _msgSender() */\n              jump\t// in\n            tag_81:\n                /* \"@openzeppelin/contracts/token/ERC20/ERC20.sol\":3695:3723  address owner = _msgSender() */\n              swap1\n              pop\n                /* \"@openzeppelin/contracts/token/ERC20/ERC20.sol\":3733:3760  _transfer(owner, to, value) */\n              tag_82\n                /* \"@openzeppelin/contracts/token/ERC20/ERC20.sol\":3743:3748  owner */\n              dup2\n                /* \"@openzeppelin/contracts/token/ERC20/ERC20.sol\":3750:3752  to */\n              dup6\n                /* \"@openzeppelin/contracts/token/ERC20/ERC20.sol\":3754:3759  value */\n              dup6\n                /* \"@openzeppelin/contracts/token/ERC20/ERC20.sol\":3733:3742  _transfer */\n              tag_71\n                /* \"@openzeppelin/contracts/token/ERC20/ERC20.sol\":3733:3760  _transfer(owner, to, value) */\n              jump\t// in\n            tag_82:\n                /* \"@openzeppelin/contracts/token/ERC20/ERC20.sol\":3777:3781  true */\n              0x01\n                /* \"@openzeppelin/contracts/token/ERC20/ERC20.sol\":3770:3781  return true */\n              swap2\n              pop\n              pop\n                /* \"@openzeppelin/contracts/token/ERC20/ERC20.sol\":3610:3788  function transfer(address to, uint256 value) public virtual returns (bool) {... */\n              swap3\n              swap2\n              pop\n              pop\n              jump\t// out\n                /* \"@openzeppelin/contracts/token/ERC20/ERC20.sol\":3846:3986  function allowance(address owner, address spender) public view virtual returns (uint256) {... */\n            tag_51:\n                /* \"@openzeppelin/contracts/token/ERC20/ERC20.sol\":3926:3933  uint256 */\n              0x00\n                /* \"@openzeppelin/contracts/token/ERC20/ERC20.sol\":3952:3963  _allowances */\n              0x01\n                /* \"@openzeppelin/contracts/token/ERC20/ERC20.sol\":3952:3970  _allowances[owner] */\n              0x00\n                /* \"@openzeppelin/contracts/token/ERC20/ERC20.sol\":3964:3969  owner */\n              dup5\n                /* \"@openzeppelin/contracts/token/ERC20/ERC20.sol\":3952:3970  _allowances[owner] */\n              0xffffffffffffffffffffffffffffffffffffffff\n              and\n              0xffffffffffffffffffffffffffffffffffffffff\n              and\n              dup2\n              mstore\n              0x20\n              add\n              swap1\n              dup2\n              mstore\n              0x20\n              add\n              0x00\n              keccak256\n                /* \"@openzeppelin/contracts/token/ERC20/ERC20.sol\":3952:3979  _allowances[owner][spender] */\n              0x00\n                /* \"@openzeppelin/contracts/token/ERC20/ERC20.sol\":3971:3978  spender */\n              dup4\n                /* \"@openzeppelin/contracts/token/ERC20/ERC20.sol\":3952:3979  _allowances[owner][spender] */\n              0xffffffffffffffffffffffffffffffffffffffff\n              and\n              0xffffffffffffffffffffffffffffffffffffffff\n              and\n              dup2\n              mstore\n              0x20\n              add\n              swap1\n              dup2\n              mstore\n              0x20\n              add\n              0x00\n              keccak256\n              sload\n                /* \"@openzeppelin/contracts/token/ERC20/ERC20.sol\":3945:3979  return _allowances[owner][spender] */\n              swap1\n              pop\n                /* \"@openzeppelin/contracts/token/ERC20/ERC20.sol\":3846:3986  function allowance(address owner, address spender) public view virtual returns (uint256) {... */\n              swap3\n              swap2\n              pop\n              pop\n              jump\t// out\n                /* \"@openzeppelin/contracts/utils/Context.sol\":656:752  function _msgSender() internal view virtual returns (address) {... */\n            tag_62:\n                /* \"@openzeppelin/contracts/utils/Context.sol\":709:716  address */\n              0x00\n                /* \"@openzeppelin/contracts/utils/Context.sol\":735:745  msg.sender */\n              caller\n                /* \"@openzeppelin/contracts/utils/Context.sol\":728:745  return msg.sender */\n              swap1\n              pop\n                /* \"@openzeppelin/contracts/utils/Context.sol\":656:752  function _msgSender() internal view virtual returns (address) {... */\n              swap1\n              jump\t// out\n                /* \"@openzeppelin/contracts/token/ERC20/ERC20.sol\":8989:9117  function _approve(address owner, address spender, uint256 value) internal {... */\n            tag_64:\n                /* \"@openzeppelin/contracts/token/ERC20/ERC20.sol\":9073:9110  _approve(owner, spender, value, true) */\n              tag_86\n                /* \"@openzeppelin/contracts/token/ERC20/ERC20.sol\":9082:9087  owner */\n              dup4\n                /* \"@openzeppelin/contracts/token/ERC20/ERC20.sol\":9089:9096  spender */\n              dup4\n                /* \"@openzeppelin/contracts/token/ERC20/ERC20.sol\":9098:9103  value */\n              dup4\n                /* \"@openzeppelin/contracts/token/ERC20/ERC20.sol\":9105:9109  true */\n              0x01\n                /* \"@openzeppelin/contracts/token/ERC20/ERC20.sol\":9073:9081  _approve */\n              tag_87\n                /* \"@openzeppelin/contracts/token/ERC20/ERC20.sol\":9073:9110  _approve(owner, spender, value, true) */\n              jump\t// in\n            tag_86:\n                /* \"@openzeppelin/contracts/token/ERC20/ERC20.sol\":8989:9117  function _approve(address owner, address spender, uint256 value) internal {... */\n              pop\n              pop\n              pop\n              jump\t// out\n                /* \"@openzeppelin/contracts/token/ERC20/ERC20.sol\":10663:11140  function _spendAllowance(address owner, address spender, uint256 value) internal virtual {... */\n            tag_69:\n                /* \"@openzeppelin/contracts/token/ERC20/ERC20.sol\":10762:10786  uint256 currentAllowance */\n              0x00\n                /* \"@openzeppelin/contracts/token/ERC20/ERC20.sol\":10789:10814  allowance(owner, spender) */\n              tag_89\n                /* \"@openzeppelin/contracts/token/ERC20/ERC20.sol\":10799:10804  owner */\n              dup5\n                /* \"@openzeppelin/contracts/token/ERC20/ERC20.sol\":10806:10813  spender */\n              dup5\n                /* \"@openzeppelin/contracts/token/ERC20/ERC20.sol\":10789:10798  allowance */\n              tag_51\n                /* \"@openzeppelin/contracts/token/ERC20/ERC20.sol\":10789:10814  allowance(owner, spender) */\n              jump\t// in\n            tag_89:\n                /* \"@openzeppelin/contracts/token/ERC20/ERC20.sol\":10762:10814  uint256 currentAllowance = allowance(owner, spender) */\n              swap1\n              pop\n                /* \"@openzeppelin/contracts/token/ERC20/ERC20.sol\":10848:10865  type(uint256).max */\n              0xffffffffffffffffffffffffffffffffffffffffffffffffffffffffffffffff\n                /* \"@openzeppelin/contracts/token/ERC20/ERC20.sol\":10828:10844  currentAllowance */\n              dup2\n                /* \"@openzeppelin/contracts/token/ERC20/ERC20.sol\":10828:10865  currentAllowance != type(uint256).max */\n              eq\n                /* \"@openzeppelin/contracts/token/ERC20/ERC20.sol\":10824:11134  if (currentAllowance != type(uint256).max) {... */\n              tag_90\n              jumpi\n                /* \"@openzeppelin/contracts/token/ERC20/ERC20.sol\":10904:10909  value */\n              dup2\n                /* \"@openzeppelin/contracts/token/ERC20/ERC20.sol\":10885:10901  currentAllowance */\n              dup2\n                /* \"@openzeppelin/contracts/token/ERC20/ERC20.sol\":10885:10909  currentAllowance < value */\n              lt\n                /* \"@openzeppelin/contracts/token/ERC20/ERC20.sol\":10881:11011  if (currentAllowance < value) {... */\n              iszero\n              tag_91\n              jumpi\n                /* \"@openzeppelin/contracts/token/ERC20/ERC20.sol\":10963:10970  spender */\n              dup3\n                /* \"@openzeppelin/contracts/token/ERC20/ERC20.sol\":10972:10988  currentAllowance */\n              dup2\n                /* \"@openzeppelin/contracts/token/ERC20/ERC20.sol\":10990:10995  value */\n              dup4\n                /* \"@openzeppelin/contracts/token/ERC20/ERC20.sol\":10936:10996  ERC20InsufficientAllowance(spender, currentAllowance, value) */\n              mload(0x40)\n              0xfb8f41b200000000000000000000000000000000000000000000000000000000\n              dup2\n              mstore\n              0x04\n              add\n              tag_92\n              swap4\n              swap3\n              swap2\n              swap1\n              tag_93\n              jump\t// in\n            tag_92:\n              mload(0x40)\n              dup1\n              swap2\n              sub\n              swap1\n              revert\n                /* \"@openzeppelin/contracts/token/ERC20/ERC20.sol\":10881:11011  if (currentAllowance < value) {... */\n            tag_91:\n                /* \"@openzeppelin/contracts/token/ERC20/ERC20.sol\":11052:11109  _approve(owner, spender, currentAllowance - value, false) */\n              tag_94\n                /* \"@openzeppelin/contracts/token/ERC20/ERC20.sol\":11061:11066  owner */\n              dup5\n                /* \"@openzeppelin/contracts/token/ERC20/ERC20.sol\":11068:11075  spender */\n              dup5\n                /* \"@openzeppelin/contracts/token/ERC20/ERC20.sol\":11096:11101  value */\n              dup5\n                /* \"@openzeppelin/contracts/token/ERC20/ERC20.sol\":11077:11093  currentAllowance */\n              dup5\n                /* \"@openzeppelin/contracts/token/ERC20/ERC20.sol\":11077:11101  currentAllowance - value */\n              sub\n                /* \"@openzeppelin/contracts/token/ERC20/ERC20.sol\":11103:11108  false */\n              0x00\n                /* \"@openzeppelin/contracts/token/ERC20/ERC20.sol\":11052:11060  _approve */\n              tag_87\n                /* \"@openzeppelin/contracts/token/ERC20/ERC20.sol\":11052:11109  _approve(owner, spender, currentAllowance - value, false) */\n              jump\t// in\n            tag_94:\n                /* \"@openzeppelin/contracts/token/ERC20/ERC20.sol\":10824:11134  if (currentAllowance != type(uint256).max) {... */\n            tag_90:\n                /* \"@openzeppelin/contracts/token/ERC20/ERC20.sol\":10752:11140  {... */\n              pop\n                /* \"@openzeppelin/contracts/token/ERC20/ERC20.sol\":10663:11140  function _spendAllowance(address owner, address spender, uint256 value) internal virtual {... */\n              pop\n              pop\n              pop\n              jump\t// out\n                /* \"@openzeppelin/contracts/token/ERC20/ERC20.sol\":5656:5956  function _transfer(address from, address to, uint256 value) internal {... */\n            tag_71:\n                /* \"@openzeppelin/contracts/token/ERC20/ERC20.sol\":5755:5756  0 */\n              0x00\n                /* \"@openzeppelin/contracts/token/ERC20/ERC20.sol\":5739:5757  from == address(0) */\n              0xffffffffffffffffffffffffffffffffffffffff\n              and\n                /* \"@openzeppelin/contracts/token/ERC20/ERC20.sol\":5739:5743  from */\n              dup4\n                /* \"@openzeppelin/contracts/token/ERC20/ERC20.sol\":5739:5757  from == address(0) */\n              0xffffffffffffffffffffffffffffffffffffffff\n              and\n              sub\n                /* \"@openzeppelin/contracts/token/ERC20/ERC20.sol\":5735:5821  if (from == address(0)) {... */\n              tag_96\n              jumpi\n                /* \"@openzeppelin/contracts/token/ERC20/ERC20.sol\":5807:5808  0 */\n              0x00\n                /* \"@openzeppelin/contracts/token/ERC20/ERC20.sol\":5780:5810  ERC20InvalidSender(address(0)) */\n              mload(0x40)\n              0x96c6fd1e00000000000000000000000000000000000000000000000000000000\n              dup2\n              mstore\n              0x04\n              add\n              tag_97\n              swap2\n              swap1\n              tag_98\n              jump\t// in\n            tag_97:\n              mload(0x40)\n              dup1\n              swap2\n              sub\n              swap1\n              revert\n                /* \"@openzeppelin/contracts/token/ERC20/ERC20.sol\":5735:5821  if (from == address(0)) {... */\n            tag_96:\n                /* \"@openzeppelin/contracts/token/ERC20/ERC20.sol\":5848:5849  0 */\n              0x00\n                /* \"@openzeppelin/contracts/token/ERC20/ERC20.sol\":5834:5850  to == address(0) */\n              0xffffffffffffffffffffffffffffffffffffffff\n              and\n                /* \"@openzeppelin/contracts/token/ERC20/ERC20.sol\":5834:5836  to */\n              dup3\n                /* \"@openzeppelin/contracts/token/ERC20/ERC20.sol\":5834:5850  to == address(0) */\n              0xffffffffffffffffffffffffffffffffffffffff\n              and\n              sub\n                /* \"@openzeppelin/contracts/token/ERC20/ERC20.sol\":5830:5916  if (to == address(0)) {... */\n              tag_99\n              jumpi\n                /* \"@openzeppelin/contracts/token/ERC20/ERC20.sol\":5902:5903  0 */\n              0x00\n                /* \"@openzeppelin/contracts/token/ERC20/ERC20.sol\":5873:5905  ERC20InvalidReceiver(address(0)) */\n              mload(0x40)\n              0xec442f0500000000000000000000000000000000000000000000000000000000\n              dup2\n              mstore\n              0x04\n              add\n              tag_100\n              swap2\n              swap1\n              tag_98\n              jump\t// in\n            tag_100:\n              mload(0x40)\n              dup1\n              swap2\n              sub\n              swap1\n              revert\n                /* \"@openzeppelin/contracts/token/ERC20/ERC20.sol\":5830:5916  if (to == address(0)) {... */\n            tag_99:\n                /* \"@openzeppelin/contracts/token/ERC20/ERC20.sol\":5925:5949  _update(from, to, value) */\n              tag_101\n                /* \"@openzeppelin/contracts/token/ERC20/ERC20.sol\":5933:5937  from */\n              dup4\n                /* \"@openzeppelin/contracts/token/ERC20/ERC20.sol\":5939:5941  to */\n              dup4\n                /* \"@openzeppelin/contracts/token/ERC20/ERC20.sol\":5943:5948  value */\n              dup4\n                /* \"@openzeppelin/contracts/token/ERC20/ERC20.sol\":5925:5932  _update */\n              tag_102\n                /* \"@openzeppelin/contracts/token/ERC20/ERC20.sol\":5925:5949  _update(from, to, value) */\n              jump\t// in\n            tag_101:\n                /* \"@openzeppelin/contracts/token/ERC20/ERC20.sol\":5656:5956  function _transfer(address from, address to, uint256 value) internal {... */\n              pop\n              pop\n              pop\n              jump\t// out\n                /* \"@openzeppelin/contracts/token/ERC20/ERC20.sol\":9949:10381  function _approve(address owner, address spender, uint256 value, bool emitEvent) internal virtual {... */\n            tag_87:\n                /* \"@openzeppelin/contracts/token/ERC20/ERC20.sol\":10078:10079  0 */\n              0x00\n                /* \"@openzeppelin/contracts/token/ERC20/ERC20.sol\":10061:10080  owner == address(0) */\n              0xffffffffffffffffffffffffffffffffffffffff\n              and\n                /* \"@openzeppelin/contracts/token/ERC20/ERC20.sol\":10061:10066  owner */\n              dup5\n                /* \"@openzeppelin/contracts/token/ERC20/ERC20.sol\":10061:10080  owner == address(0) */\n              0xffffffffffffffffffffffffffffffffffffffff\n              and\n              sub\n                /* \"@openzeppelin/contracts/token/ERC20/ERC20.sol\":10057:10146  if (owner == address(0)) {... */\n              tag_104\n              jumpi\n                /* \"@openzeppelin/contracts/token/ERC20/ERC20.sol\":10132:10133  0 */\n              0x00\n                /* \"@openzeppelin/contracts/token/ERC20/ERC20.sol\":10103:10135  ERC20InvalidApprover(address(0)) */\n              mload(0x40)\n              0xe602df0500000000000000000000000000000000000000000000000000000000\n              dup2\n              mstore\n              0x04\n              add\n              tag_105\n              swap2\n              swap1\n              tag_98\n              jump\t// in\n            tag_105:\n              mload(0x40)\n              dup1\n              swap2\n              sub\n              swap1\n              revert\n                /* \"@openzeppelin/contracts/token/ERC20/ERC20.sol\":10057:10146  if (owner == address(0)) {... */\n            tag_104:\n                /* \"@openzeppelin/contracts/token/ERC20/ERC20.sol\":10178:10179  0 */\n              0x00\n                /* \"@openzeppelin/contracts/token/ERC20/ERC20.sol\":10159:10180  spender == address(0) */\n              0xffffffffffffffffffffffffffffffffffffffff\n              and\n                /* \"@openzeppelin/contracts/token/ERC20/ERC20.sol\":10159:10166  spender */\n              dup4\n                /* \"@openzeppelin/contracts/token/ERC20/ERC20.sol\":10159:10180  spender == address(0) */\n              0xffffffffffffffffffffffffffffffffffffffff\n              and\n              sub\n                /* \"@openzeppelin/contracts/token/ERC20/ERC20.sol\":10155:10245  if (spender == address(0)) {... */\n              tag_106\n              jumpi\n                /* \"@openzeppelin/contracts/token/ERC20/ERC20.sol\":10231:10232  0 */\n              0x00\n                /* \"@openzeppelin/contracts/token/ERC20/ERC20.sol\":10203:10234  ERC20InvalidSpender(address(0)) */\n              mload(0x40)\n              0x94280d6200000000000000000000000000000000000000000000000000000000\n              dup2\n              mstore\n              0x04\n              add\n              tag_107\n              swap2\n              swap1\n              tag_98\n              jump\t// in\n            tag_107:\n              mload(0x40)\n              dup1\n              swap2\n              sub\n              swap1\n              revert\n                /* \"@openzeppelin/contracts/token/ERC20/ERC20.sol\":10155:10245  if (spender == address(0)) {... */\n            tag_106:\n                /* \"@openzeppelin/contracts/token/ERC20/ERC20.sol\":10284:10289  value */\n              dup2\n                /* \"@openzeppelin/contracts/token/ERC20/ERC20.sol\":10254:10265  _allowances */\n              0x01\n                /* \"@openzeppelin/contracts/token/ERC20/ERC20.sol\":10254:10272  _allowances[owner] */\n              0x00\n                /* \"@openzeppelin/contracts/token/ERC20/ERC20.sol\":10266:10271  owner */\n              dup7\n                /* \"@openzeppelin/contracts/token/ERC20/ERC20.sol\":10254:10272  _allowances[owner] */\n              0xffffffffffffffffffffffffffffffffffffffff\n              and\n              0xffffffffffffffffffffffffffffffffffffffff\n              and\n              dup2\n              mstore\n              0x20\n              add\n              swap1\n              dup2\n              mstore\n              0x20\n              add\n              0x00\n              keccak256\n                /* \"@openzeppelin/contracts/token/ERC20/ERC20.sol\":10254:10281  _allowances[owner][spender] */\n              0x00\n                /* \"@openzeppelin/contracts/token/ERC20/ERC20.sol\":10273:10280  spender */\n              dup6\n                /* \"@openzeppelin/contracts/token/ERC20/ERC20.sol\":10254:10281  _allowances[owner][spender] */\n              0xffffffffffffffffffffffffffffffffffffffff\n              and\n              0xffffffffffffffffffffffffffffffffffffffff\n              and\n              dup2\n              mstore\n              0x20\n              add\n              swap1\n              dup2\n              mstore\n              0x20\n              add\n              0x00\n              keccak256\n                /* \"@openzeppelin/contracts/token/ERC20/ERC20.sol\":10254:10289  _allowances[owner][spender] = value */\n              dup2\n              swap1\n              sstore\n              pop\n                /* \"@openzeppelin/contracts/token/ERC20/ERC20.sol\":10303:10312  emitEvent */\n              dup1\n                /* \"@openzeppelin/contracts/token/ERC20/ERC20.sol\":10299:10375  if (emitEvent) {... */\n              iszero\n              tag_108\n              jumpi\n                /* \"@openzeppelin/contracts/token/ERC20/ERC20.sol\":10349:10356  spender */\n              dup3\n                /* \"@openzeppelin/contracts/token/ERC20/ERC20.sol\":10333:10364  Approval(owner, spender, value) */\n              0xffffffffffffffffffffffffffffffffffffffff\n              and\n                /* \"@openzeppelin/contracts/token/ERC20/ERC20.sol\":10342:10347  owner */\n              dup5\n                /* \"@openzeppelin/contracts/token/ERC20/ERC20.sol\":10333:10364  Approval(owner, spender, value) */\n              0xffffffffffffffffffffffffffffffffffffffff\n              and\n              0x8c5be1e5ebec7d5bd14f71427d1e84f3dd0314c0f7b2291e5b200ac8c7c3b925\n                /* \"@openzeppelin/contracts/token/ERC20/ERC20.sol\":10358:10363  value */\n              dup5\n                /* \"@openzeppelin/contracts/token/ERC20/ERC20.sol\":10333:10364  Approval(owner, spender, value) */\n              mload(0x40)\n              tag_109\n              swap2\n              swap1\n              tag_26\n              jump\t// in\n            tag_109:\n              mload(0x40)\n              dup1\n              swap2\n              sub\n              swap1\n              log3\n                /* \"@openzeppelin/contracts/token/ERC20/ERC20.sol\":10299:10375  if (emitEvent) {... */\n            tag_108:\n                /* \"@openzeppelin/contracts/token/ERC20/ERC20.sol\":9949:10381  function _approve(address owner, address spender, uint256 value, bool emitEvent) internal virtual {... */\n              pop\n              pop\n              pop\n              pop\n              jump\t// out\n                /* \"@openzeppelin/contracts/token/ERC20/ERC20.sol\":6271:7378  function _update(address from, address to, uint256 value) internal virtual {... */\n            tag_102:\n                /* \"@openzeppelin/contracts/token/ERC20/ERC20.sol\":6376:6377  0 */\n              0x00\n                /* \"@openzeppelin/contracts/token/ERC20/ERC20.sol\":6360:6378  from == address(0) */\n              0xffffffffffffffffffffffffffffffffffffffff\n              and\n                /* \"@openzeppelin/contracts/token/ERC20/ERC20.sol\":6360:6364  from */\n              dup4\n                /* \"@openzeppelin/contracts/token/ERC20/ERC20.sol\":6360:6378  from == address(0) */\n              0xffffffffffffffffffffffffffffffffffffffff\n              and\n              sub\n                /* \"@openzeppelin/contracts/token/ERC20/ERC20.sol\":6356:6896  if (from == address(0)) {... */\n              tag_111\n              jumpi\n                /* \"@openzeppelin/contracts/token/ERC20/ERC20.sol\":6512:6517  value */\n              dup1\n                /* \"@openzeppelin/contracts/token/ERC20/ERC20.sol\":6496:6508  _totalSupply */\n              0x02\n              0x00\n                /* \"@openzeppelin/contracts/token/ERC20/ERC20.sol\":6496:6517  _totalSupply += value */\n              dup3\n              dup3\n              sload\n              tag_112\n              swap2\n              swap1\n              tag_113\n              jump\t// in\n            tag_112:\n              swap3\n              pop\n              pop\n              dup2\n              swap1\n              sstore\n              pop\n                /* \"@openzeppelin/contracts/token/ERC20/ERC20.sol\":6356:6896  if (from == address(0)) {... */\n              jump(tag_114)\n            tag_111:\n                /* \"@openzeppelin/contracts/token/ERC20/ERC20.sol\":6548:6567  uint256 fromBalance */\n              0x00\n                /* \"@openzeppelin/contracts/token/ERC20/ERC20.sol\":6570:6579  _balances */\n              dup1\n                /* \"@openzeppelin/contracts/token/ERC20/ERC20.sol\":6570:6585  _balances[from] */\n              0x00\n                /* \"@openzeppelin/contracts/token/ERC20/ERC20.sol\":6580:6584  from */\n              dup6\n                /* \"@openzeppelin/contracts/token/ERC20/ERC20.sol\":6570:6585  _balances[from] */\n              0xffffffffffffffffffffffffffffffffffffffff\n              and\n              0xffffffffffffffffffffffffffffffffffffffff\n              and\n              dup2\n              mstore\n              0x20\n              add\n              swap1\n              dup2\n              mstore\n              0x20\n              add\n              0x00\n              keccak256\n              sload\n                /* \"@openzeppelin/contracts/token/ERC20/ERC20.sol\":6548:6585  uint256 fromBalance = _balances[from] */\n              swap1\n              pop\n                /* \"@openzeppelin/contracts/token/ERC20/ERC20.sol\":6617:6622  value */\n              dup2\n                /* \"@openzeppelin/contracts/token/ERC20/ERC20.sol\":6603:6614  fromBalance */\n              dup2\n                /* \"@openzeppelin/contracts/token/ERC20/ERC20.sol\":6603:6622  fromBalance < value */\n              lt\n                /* \"@openzeppelin/contracts/token/ERC20/ERC20.sol\":6599:6714  if (fromBalance < value) {... */\n              iszero\n              tag_115\n              jumpi\n                /* \"@openzeppelin/contracts/token/ERC20/ERC20.sol\":6674:6678  from */\n              dup4\n                /* \"@openzeppelin/contracts/token/ERC20/ERC20.sol\":6680:6691  fromBalance */\n              dup2\n                /* \"@openzeppelin/contracts/token/ERC20/ERC20.sol\":6693:6698  value */\n              dup4\n                /* \"@openzeppelin/contracts/token/ERC20/ERC20.sol\":6649:6699  ERC20InsufficientBalance(from, fromBalance, value) */\n              mload(0x40)\n              0xe450d38c00000000000000000000000000000000000000000000000000000000\n              dup2\n              mstore\n              0x04\n              add\n              tag_116\n              swap4\n              swap3\n              swap2\n              swap1\n              tag_93\n              jump\t// in\n            tag_116:\n              mload(0x40)\n              dup1\n              swap2\n              sub\n              swap1\n              revert\n                /* \"@openzeppelin/contracts/token/ERC20/ERC20.sol\":6599:6714  if (fromBalance < value) {... */\n            tag_115:\n                /* \"@openzeppelin/contracts/token/ERC20/ERC20.sol\":6866:6871  value */\n              dup2\n                /* \"@openzeppelin/contracts/token/ERC20/ERC20.sol\":6852:6863  fromBalance */\n              dup2\n                /* \"@openzeppelin/contracts/token/ERC20/ERC20.sol\":6852:6871  fromBalance - value */\n              sub\n                /* \"@openzeppelin/contracts/token/ERC20/ERC20.sol\":6834:6843  _balances */\n              0x00\n                /* \"@openzeppelin/contracts/token/ERC20/ERC20.sol\":6834:6849  _balances[from] */\n              dup1\n                /* \"@openzeppelin/contracts/token/ERC20/ERC20.sol\":6844:6848  from */\n              dup7\n                /* \"@openzeppelin/contracts/token/ERC20/ERC20.sol\":6834:6849  _balances[from] */\n              0xffffffffffffffffffffffffffffffffffffffff\n              and\n              0xffffffffffffffffffffffffffffffffffffffff\n              and\n              dup2\n              mstore\n              0x20\n              add\n              swap1\n              dup2\n              mstore\n              0x20\n              add\n              0x00\n              keccak256\n                /* \"@openzeppelin/contracts/token/ERC20/ERC20.sol\":6834:6871  _balances[from] = fromBalance - value */\n              dup2\n              swap1\n              sstore\n              pop\n                /* \"@openzeppelin/contracts/token/ERC20/ERC20.sol\":6534:6896  {... */\n              pop\n                /* \"@openzeppelin/contracts/token/ERC20/ERC20.sol\":6356:6896  if (from == address(0)) {... */\n            tag_114:\n                /* \"@openzeppelin/contracts/token/ERC20/ERC20.sol\":6924:6925  0 */\n              0x00\n                /* \"@openzeppelin/contracts/token/ERC20/ERC20.sol\":6910:6926  to == address(0) */\n              0xffffffffffffffffffffffffffffffffffffffff\n              and\n                /* \"@openzeppelin/contracts/token/ERC20/ERC20.sol\":6910:6912  to */\n              dup3\n                /* \"@openzeppelin/contracts/token/ERC20/ERC20.sol\":6910:6926  to == address(0) */\n              0xffffffffffffffffffffffffffffffffffffffff\n              and\n              sub\n                /* \"@openzeppelin/contracts/token/ERC20/ERC20.sol\":6906:7331  if (to == address(0)) {... */\n              tag_117\n              jumpi\n                /* \"@openzeppelin/contracts/token/ERC20/ERC20.sol\":7089:7094  value */\n              dup1\n                /* \"@openzeppelin/contracts/token/ERC20/ERC20.sol\":7073:7085  _totalSupply */\n              0x02\n              0x00\n                /* \"@openzeppelin/contracts/token/ERC20/ERC20.sol\":7073:7094  _totalSupply -= value */\n              dup3\n              dup3\n              sload\n              sub\n              swap3\n              pop\n              pop\n              dup2\n              swap1\n              sstore\n              pop\n                /* \"@openzeppelin/contracts/token/ERC20/ERC20.sol\":6906:7331  if (to == address(0)) {... */\n              jump(tag_118)\n            tag_117:\n                /* \"@openzeppelin/contracts/token/ERC20/ERC20.sol\":7301:7306  value */\n              dup1\n                /* \"@openzeppelin/contracts/token/ERC20/ERC20.sol\":7284:7293  _balances */\n              0x00\n                /* \"@openzeppelin/contracts/token/ERC20/ERC20.sol\":7284:7297  _balances[to] */\n              dup1\n                /* \"@openzeppelin/contracts/token/ERC20/ERC20.sol\":7294:7296  to */\n              dup5\n                /* \"@openzeppelin/contracts/token/ERC20/ERC20.sol\":7284:7297  _balances[to] */\n              0xffffffffffffffffffffffffffffffffffffffff\n              and\n              0xffffffffffffffffffffffffffffffffffffffff\n              and\n              dup2\n              mstore\n              0x20\n              add\n              swap1\n              dup2\n              mstore\n              0x20\n              add\n              0x00\n              keccak256\n              0x00\n                /* \"@openzeppelin/contracts/token/ERC20/ERC20.sol\":7284:7306  _balances[to] += value */\n              dup3\n              dup3\n              sload\n              add\n              swap3\n              pop\n              pop\n              dup2\n              swap1\n              sstore\n              pop\n                /* \"@openzeppelin/contracts/token/ERC20/ERC20.sol\":6906:7331  if (to == address(0)) {... */\n            tag_118:\n                /* \"@openzeppelin/contracts/token/ERC20/ERC20.sol\":7361:7363  to */\n              dup2\n                /* \"@openzeppelin/contracts/token/ERC20/ERC20.sol\":7346:7371  Transfer(from, to, value) */\n              0xffffffffffffffffffffffffffffffffffffffff\n              and\n                /* \"@openzeppelin/contracts/token/ERC20/ERC20.sol\":7355:7359  from */\n              dup4\n                /* \"@openzeppelin/contracts/token/ERC20/ERC20.sol\":7346:7371  Transfer(from, to, value) */\n              0xffffffffffffffffffffffffffffffffffffffff\n              and\n              0xddf252ad1be2c89b69c2b068fc378daa952ba7f163c4a11628f55a4df523b3ef\n                /* \"@openzeppelin/contracts/token/ERC20/ERC20.sol\":7365:7370  value */\n              dup4\n                /* \"@openzeppelin/contracts/token/ERC20/ERC20.sol\":7346:7371  Transfer(from, to, value) */\n              mload(0x40)\n              tag_119\n              swap2\n              swap1\n              tag_26\n              jump\t// in\n            tag_119:\n              mload(0x40)\n              dup1\n              swap2\n              sub\n              swap1\n              log3\n                /* \"@openzeppelin/contracts/token/ERC20/ERC20.sol\":6271:7378  function _update(address from, address to, uint256 value) internal virtual {... */\n              pop\n              pop\n              pop\n              jump\t// out\n                /* \"#utility.yul\":7:106   */\n            tag_120:\n                /* \"#utility.yul\":59:65   */\n              0x00\n                /* \"#utility.yul\":93:98   */\n              dup2\n                /* \"#utility.yul\":87:99   */\n              mload\n                /* \"#utility.yul\":77:99   */\n              swap1\n              pop\n                /* \"#utility.yul\":7:106   */\n              swap2\n              swap1\n              pop\n              jump\t// out\n                /* \"#utility.yul\":112:281   */\n            tag_121:\n                /* \"#utility.yul\":196:207   */\n              0x00\n                /* \"#utility.yul\":230:236   */\n              dup3\n                /* \"#utility.yul\":225:228   */\n              dup3\n                /* \"#utility.yul\":218:237   */\n              mstore\n                /* \"#utility.yul\":270:274   */\n              0x20\n                /* \"#utility.yul\":265:268   */\n              dup3\n                /* \"#utility.yul\":261:275   */\n              add\n                /* \"#utility.yul\":246:275   */\n              swap1\n              pop\n                /* \"#utility.yul\":112:281   */\n              swap3\n              swap2\n              pop\n              pop\n              jump\t// out\n                /* \"#utility.yul\":287:426   */\n            tag_122:\n                /* \"#utility.yul\":376:382   */\n              dup3\n                /* \"#utility.yul\":371:374   */\n              dup2\n                /* \"#utility.yul\":366:369   */\n              dup4\n                /* \"#utility.yul\":360:383   */\n              mcopy\n                /* \"#utility.yul\":417:418   */\n              0x00\n                /* \"#utility.yul\":408:414   */\n              dup4\n                /* \"#utility.yul\":403:406   */\n              dup4\n                /* \"#utility.yul\":399:415   */\n              add\n                /* \"#utility.yul\":392:419   */\n              mstore\n                /* \"#utility.yul\":287:426   */\n              pop\n              pop\n              pop\n              jump\t// out\n                /* \"#utility.yul\":432:534   */\n            tag_123:\n                /* \"#utility.yul\":473:479   */\n              0x00\n                /* \"#utility.yul\":524:526   */\n              0x1f\n                /* \"#utility.yul\":520:527   */\n              not\n                /* \"#utility.yul\":515:517   */\n              0x1f\n                /* \"#utility.yul\":508:513   */\n              dup4\n                /* \"#utility.yul\":504:518   */\n              add\n                /* \"#utility.yul\":500:528   */\n              and\n                /* \"#utility.yul\":490:528   */\n              swap1\n              pop\n                /* \"#utility.yul\":432:534   */\n              swap2\n              swap1\n              pop\n              jump\t// out\n                /* \"#utility.yul\":540:917   */\n            tag_124:\n                /* \"#utility.yul\":628:631   */\n              0x00\n                /* \"#utility.yul\":656:695   */\n              tag_149\n                /* \"#utility.yul\":689:694   */\n              dup3\n                /* \"#utility.yul\":656:695   */\n              tag_120\n              jump\t// in\n            tag_149:\n                /* \"#utility.yul\":711:782   */\n              tag_150\n                /* \"#utility.yul\":775:781   */\n              dup2\n                /* \"#utility.yul\":770:773   */\n              dup6\n                /* \"#utility.yul\":711:782   */\n              tag_121\n              jump\t// in\n            tag_150:\n                /* \"#utility.yul\":704:782   */\n              swap4\n              pop\n                /* \"#utility.yul\":791:856   */\n              tag_151\n                /* \"#utility.yul\":849:855   */\n              dup2\n                /* \"#utility.yul\":844:847   */\n              dup6\n                /* \"#utility.yul\":837:841   */\n              0x20\n                /* \"#utility.yul\":830:835   */\n              dup7\n                /* \"#utility.yul\":826:842   */\n              add\n                /* \"#utility.yul\":791:856   */\n              tag_122\n              jump\t// in\n            tag_151:\n                /* \"#utility.yul\":881:910   */\n              tag_152\n                /* \"#utility.yul\":903:909   */\n              dup2\n                /* \"#utility.yul\":881:910   */\n              tag_123\n              jump\t// in\n            tag_152:\n                /* \"#utility.yul\":876:879   */\n              dup5\n                /* \"#utility.yul\":872:911   */\n              add\n                /* \"#utility.yul\":865:911   */\n              swap2\n              pop\n                /* \"#utility.yul\":632:917   */\n              pop\n                /* \"#utility.yul\":540:917   */\n              swap3\n              swap2\n              pop\n              pop\n              jump\t// out\n                /* \"#utility.yul\":923:1236   */\n            tag_16:\n                /* \"#utility.yul\":1036:1040   */\n              0x00\n                /* \"#utility.yul\":1074:1076   */\n              0x20\n                /* \"#utility.yul\":1063:1072   */\n              dup3\n                /* \"#utility.yul\":1059:1077   */\n              add\n                /* \"#utility.yul\":1051:1077   */\n              swap1\n              pop\n                /* \"#utility.yul\":1123:1132   */\n              dup2\n                /* \"#utility.yul\":1117:1121   */\n              dup2\n                /* \"#utility.yul\":1113:1133   */\n              sub\n                /* \"#utility.yul\":1109:1110   */\n              0x00\n                /* \"#utility.yul\":1098:1107   */\n              dup4\n                /* \"#utility.yul\":1094:1111   */\n              add\n                /* \"#utility.yul\":1087:1134   */\n              mstore\n                /* \"#utility.yul\":1151:1229   */\n              tag_154\n                /* \"#utility.yul\":1224:1228   */\n              dup2\n                /* \"#utility.yul\":1215:1221   */\n              dup5\n                /* \"#utility.yul\":1151:1229   */\n              tag_124\n              jump\t// in\n            tag_154:\n                /* \"#utility.yul\":1143:1229   */\n              swap1\n              pop\n                /* \"#utility.yul\":923:1236   */\n              swap3\n              swap2\n              pop\n              pop\n              jump\t// out\n                /* \"#utility.yul\":1323:1440   */\n            tag_126:\n                /* \"#utility.yul\":1432:1433   */\n              0x00\n                /* \"#utility.yul\":1429:1430   */\n              dup1\n                /* \"#utility.yul\":1422:1434   */\n              revert\n                /* \"#utility.yul\":1569:1695   */\n            tag_128:\n                /* \"#utility.yul\":1606:1613   */\n              0x00\n                /* \"#utility.yul\":1646:1688   */\n              0xffffffffffffffffffffffffffffffffffffffff\n                /* \"#utility.yul\":1639:1644   */\n              dup3\n                /* \"#utility.yul\":1635:1689   */\n              and\n                /* \"#utility.yul\":1624:1689   */\n              swap1\n              pop\n                /* \"#utility.yul\":1569:1695   */\n              swap2\n              swap1\n              pop\n              jump\t// out\n                /* \"#utility.yul\":1701:1797   */\n            tag_129:\n                /* \"#utility.yul\":1738:1745   */\n              0x00\n                /* \"#utility.yul\":1767:1791   */\n              tag_160\n                /* \"#utility.yul\":1785:1790   */\n              dup3\n                /* \"#utility.yul\":1767:1791   */\n              tag_128\n              jump\t// in\n            tag_160:\n                /* \"#utility.yul\":1756:1791   */\n              swap1\n              pop\n                /* \"#utility.yul\":1701:1797   */\n              swap2\n              swap1\n              pop\n              jump\t// out\n                /* \"#utility.yul\":1803:1925   */\n            tag_130:\n                /* \"#utility.yul\":1876:1900   */\n              tag_162\n                /* \"#utility.yul\":1894:1899   */\n              dup2\n                /* \"#utility.yul\":1876:1900   */\n              tag_129\n              jump\t// in\n            tag_162:\n                /* \"#utility.yul\":1869:1874   */\n              dup2\n                /* \"#utility.yul\":1866:1901   */\n              eq\n                /* \"#utility.yul\":1856:1919   */\n              tag_163\n              jumpi\n                /* \"#utility.yul\":1915:1916   */\n              0x00\n                /* \"#utility.yul\":1912:1913   */\n              dup1\n                /* \"#utility.yul\":1905:1917   */\n              revert\n                /* \"#utility.yul\":1856:1919   */\n            tag_163:\n                /* \"#utility.yul\":1803:1925   */\n              pop\n              jump\t// out\n                /* \"#utility.yul\":1931:2070   */\n            tag_131:\n                /* \"#utility.yul\":1977:1982   */\n              0x00\n                /* \"#utility.yul\":2015:2021   */\n              dup2\n                /* \"#utility.yul\":2002:2022   */\n              calldataload\n                /* \"#utility.yul\":1993:2022   */\n              swap1\n              pop\n                /* \"#utility.yul\":2031:2064   */\n              tag_165\n                /* \"#utility.yul\":2058:2063   */\n              dup2\n                /* \"#utility.yul\":2031:2064   */\n              tag_130\n              jump\t// in\n            tag_165:\n                /* \"#utility.yul\":1931:2070   */\n              swap3\n              swap2\n              pop\n              pop\n              jump\t// out\n                /* \"#utility.yul\":2076:2153   */\n            tag_132:\n                /* \"#utility.yul\":2113:2120   */\n              0x00\n                /* \"#utility.yul\":2142:2147   */\n              dup2\n                /* \"#utility.yul\":2131:2147   */\n              swap1\n              pop\n                /* \"#utility.yul\":2076:2153   */\n              swap2\n              swap1\n              pop\n              jump\t// out\n                /* \"#utility.yul\":2159:2281   */\n            tag_133:\n                /* \"#utility.yul\":2232:2256   */\n              tag_168\n                /* \"#utility.yul\":2250:2255   */\n              dup2\n                /* \"#utility.yul\":2232:2256   */\n              tag_132\n              jump\t// in\n            tag_168:\n                /* \"#utility.yul\":2225:2230   */\n              dup2\n                /* \"#utility.yul\":2222:2257   */\n              eq\n                /* \"#utility.yul\":2212:2275   */\n              tag_169\n              jumpi\n                /* \"#utility.yul\":2271:2272   */\n              0x00\n                /* \"#utility.yul\":2268:2269   */\n              dup1\n                /* \"#utility.yul\":2261:2273   */\n              revert\n                /* \"#utility.yul\":2212:2275   */\n            tag_169:\n                /* \"#utility.yul\":2159:2281   */\n              pop\n              jump\t// out\n                /* \"#utility.yul\":2287:2426   */\n            tag_134:\n                /* \"#utility.yul\":2333:2338   */\n              0x00\n                /* \"#utility.yul\":2371:2377   */\n              dup2\n                /* \"#utility.yul\":2358:2378   */\n              calldataload\n                /* \"#utility.yul\":2349:2378   */\n              swap1\n              pop\n                /* \"#utility.yul\":2387:2420   */\n              tag_171\n                /* \"#utility.yul\":2414:2419   */\n              dup2\n                /* \"#utility.yul\":2387:2420   */\n              tag_133\n              jump\t// in\n            tag_171:\n                /* \"#utility.yul\":2287:2426   */\n              swap3\n              swap2\n              pop\n              pop\n              jump\t// out\n                /* \"#utility.yul\":2432:2906   */\n            tag_19:\n                /* \"#utility.yul\":2500:2506   */\n              0x00\n                /* \"#utility.yul\":2508:2514   */\n              dup1\n                /* \"#utility.yul\":2557:2559   */\n              0x40\n                /* \"#utility.yul\":2545:2554   */\n              dup4\n                /* \"#utility.yul\":2536:2543   */\n              dup6\n                /* \"#utility.yul\":2532:2555   */\n              sub\n                /* \"#utility.yul\":2528:2560   */\n              slt\n                /* \"#utility.yul\":2525:2644   */\n              iszero\n              tag_173\n              jumpi\n                /* \"#utility.yul\":2563:2642   */\n              tag_174\n              tag_126\n              jump\t// in\n            tag_174:\n                /* \"#utility.yul\":2525:2644   */\n            tag_173:\n                /* \"#utility.yul\":2683:2684   */\n              0x00\n                /* \"#utility.yul\":2708:2761   */\n              tag_175\n                /* \"#utility.yul\":2753:2760   */\n              dup6\n                /* \"#utility.yul\":2744:2750   */\n              dup3\n                /* \"#utility.yul\":2733:2742   */\n              dup7\n                /* \"#utility.yul\":2729:2751   */\n              add\n                /* \"#utility.yul\":2708:2761   */\n              tag_131\n              jump\t// in\n            tag_175:\n                /* \"#utility.yul\":2698:2761   */\n              swap3\n              pop\n                /* \"#utility.yul\":2654:2771   */\n              pop\n                /* \"#utility.yul\":2810:2812   */\n              0x20\n                /* \"#utility.yul\":2836:2889   */\n              tag_176\n                /* \"#utility.yul\":2881:2888   */\n              dup6\n                /* \"#utility.yul\":2872:2878   */\n              dup3\n                /* \"#utility.yul\":2861:2870   */\n              dup7\n                /* \"#utility.yul\":2857:2879   */\n              add\n                /* \"#utility.yul\":2836:2889   */\n              tag_134\n              jump\t// in\n            tag_176:\n                /* \"#utility.yul\":2826:2889   */\n              swap2\n              pop\n                /* \"#utility.yul\":2781:2899   */\n              pop\n                /* \"#utility.yul\":2432:2906   */\n              swap3\n              pop\n              swap3\n              swap1\n              pop\n              jump\t// out\n                /* \"#utility.yul\":2912:3002   */\n            tag_135:\n                /* \"#utility.yul\":2946:2953   */\n              0x00\n                /* \"#utility.yul\":2989:2994   */\n              dup2\n                /* \"#utility.yul\":2982:2995   */\n              iszero\n                /* \"#utility.yul\":2975:2996   */\n              iszero\n                /* \"#utility.yul\":2964:2996   */\n              swap1\n              pop\n                /* \"#utility.yul\":2912:3002   */\n              swap2\n              swap1\n              pop\n              jump\t// out\n                /* \"#utility.yul\":3008:3117   */\n            tag_136:\n                /* \"#utility.yul\":3089:3110   */\n              tag_179\n                /* \"#utility.yul\":3104:3109   */\n              dup2\n                /* \"#utility.yul\":3089:3110   */\n              tag_135\n              jump\t// in\n            tag_179:\n                /* \"#utility.yul\":3084:3087   */\n              dup3\n                /* \"#utility.yul\":3077:3111   */\n              mstore\n                /* \"#utility.yul\":3008:3117   */\n              pop\n              pop\n              jump\t// out\n                /* \"#utility.yul\":3123:3333   */\n            tag_22:\n                /* \"#utility.yul\":3210:3214   */\n              0x00\n                /* \"#utility.yul\":3248:3250   */\n              0x20\n                /* \"#utility.yul\":3237:3246   */\n              dup3\n                /* \"#utility.yul\":3233:3251   */\n              add\n                /* \"#utility.yul\":3225:3251   */\n              swap1\n              pop\n                /* \"#utility.yul\":3261:3326   */\n              tag_181\n                /* \"#utility.yul\":3323:3324   */\n              0x00\n                /* \"#utility.yul\":3312:3321   */\n              dup4\n                /* \"#utility.yul\":3308:3325   */\n              add\n                /* \"#utility.yul\":3299:3305   */\n              dup5\n                /* \"#utility.yul\":3261:3326   */\n              tag_136\n              jump\t// in\n            tag_181:\n                /* \"#utility.yul\":3123:3333   */\n              swap3\n              swap2\n              pop\n              pop\n              jump\t// out\n                /* \"#utility.yul\":3339:3457   */\n            tag_137:\n                /* \"#utility.yul\":3426:3450   */\n              tag_183\n                /* \"#utility.yul\":3444:3449   */\n              dup2\n                /* \"#utility.yul\":3426:3450   */\n              tag_132\n              jump\t// in\n            tag_183:\n                /* \"#utility.yul\":3421:3424   */\n              dup3\n                /* \"#utility.yul\":3414:3451   */\n              mstore\n                /* \"#utility.yul\":3339:3457   */\n              pop\n              pop\n              jump\t// out\n                /* \"#utility.yul\":3463:3685   */\n            tag_26:\n                /* \"#utility.yul\":3556:3560   */\n              0x00\n                /* \"#utility.yul\":3594:3596   */\n              0x20\n                /* \"#utility.yul\":3583:3592   */\n              dup3\n                /* \"#utility.yul\":3579:3597   */\n              add\n                /* \"#utility.yul\":3571:3597   */\n              swap1\n              pop\n                /* \"#utility.yul\":3607:3678   */\n              tag_185\n                /* \"#utility.yul\":3675:3676   */\n              0x00\n                /* \"#utility.yul\":3664:3673   */\n              dup4\n                /* \"#utility.yul\":3660:3677   */\n              add\n                /* \"#utility.yul\":3651:3657   */\n              dup5\n                /* \"#utility.yul\":3607:3678   */\n              tag_137\n              jump\t// in\n            tag_185:\n                /* \"#utility.yul\":3463:3685   */\n              swap3\n              swap2\n              pop\n              pop\n              jump\t// out\n                /* \"#utility.yul\":3691:4310   */\n            tag_29:\n                /* \"#utility.yul\":3768:3774   */\n              0x00\n                /* \"#utility.yul\":3776:3782   */\n              dup1\n                /* \"#utility.yul\":3784:3790   */\n              0x00\n                /* \"#utility.yul\":3833:3835   */\n              0x60\n                /* \"#utility.yul\":3821:3830   */\n              dup5\n                /* \"#utility.yul\":3812:3819   */\n              dup7\n                /* \"#utility.yul\":3808:3831   */\n              sub\n                /* \"#utility.yul\":3804:3836   */\n              slt\n                /* \"#utility.yul\":3801:3920   */\n              iszero\n              tag_187\n              jumpi\n                /* \"#utility.yul\":3839:3918   */\n              tag_188\n              tag_126\n              jump\t// in\n            tag_188:\n                /* \"#utility.yul\":3801:3920   */\n            tag_187:\n                /* \"#utility.yul\":3959:3960   */\n              0x00\n                /* \"#utility.yul\":3984:4037   */\n              tag_189\n                /* \"#utility.yul\":4029:4036   */\n              dup7\n                /* \"#utility.yul\":4020:4026   */\n              dup3\n                /* \"#utility.yul\":4009:4018   */\n              dup8\n                /* \"#utility.yul\":4005:4027   */\n              add\n                /* \"#utility.yul\":3984:4037   */\n              tag_131\n              jump\t// in\n            tag_189:\n                /* \"#utility.yul\":3974:4037   */\n              swap4\n              pop\n                /* \"#utility.yul\":3930:4047   */\n              pop\n                /* \"#utility.yul\":4086:4088   */\n              0x20\n                /* \"#utility.yul\":4112:4165   */\n              tag_190\n                /* \"#utility.yul\":4157:4164   */\n              dup7\n                /* \"#utility.yul\":4148:4154   */\n              dup3\n                /* \"#utility.yul\":4137:4146   */\n              dup8\n                /* \"#utility.yul\":4133:4155   */\n              add\n                /* \"#utility.yul\":4112:4165   */\n              tag_131\n              jump\t// in\n            tag_190:\n                /* \"#utility.yul\":4102:4165   */\n              swap3\n              pop\n                /* \"#utility.yul\":4057:4175   */\n              pop\n                /* \"#utility.yul\":4214:4216   */\n              0x40\n                /* \"#utility.yul\":4240:4293   */\n              tag_191\n                /* \"#utility.yul\":4285:4292   */\n              dup7\n                /* \"#utility.yul\":4276:4282   */\n              dup3\n                /* \"#utility.yul\":4265:4274   */\n              dup8\n                /* \"#utility.yul\":4261:4283   */\n              add\n                /* \"#utility.yul\":4240:4293   */\n              tag_134\n              jump\t// in\n            tag_191:\n                /* \"#utility.yul\":4230:4293   */\n              swap2\n              pop\n                /* \"#utility.yul\":4185:4303   */\n              pop\n                /* \"#utility.yul\":3691:4310   */\n              swap3\n              pop\n              swap3\n              pop\n              swap3\n              jump\t// out\n                /* \"#utility.yul\":4316:4402   */\n            tag_138:\n                /* \"#utility.yul\":4351:4358   */\n              0x00\n                /* \"#utility.yul\":4391:4395   */\n              0xff\n                /* \"#utility.yul\":4384:4389   */\n              dup3\n                /* \"#utility.yul\":4380:4396   */\n              and\n                /* \"#utility.yul\":4369:4396   */\n              swap1\n              pop\n                /* \"#utility.yul\":4316:4402   */\n              swap2\n              swap1\n              pop\n              jump\t// out\n                /* \"#utility.yul\":4408:4520   */\n            tag_139:\n                /* \"#utility.yul\":4491:4513   */\n              tag_194\n                /* \"#utility.yul\":4507:4512   */\n              dup2\n                /* \"#utility.yul\":4491:4513   */\n              tag_138\n              jump\t// in\n            tag_194:\n                /* \"#utility.yul\":4486:4489   */\n              dup3\n                /* \"#utility.yul\":4479:4514   */\n              mstore\n                /* \"#utility.yul\":4408:4520   */\n              pop\n              pop\n              jump\t// out\n                /* \"#utility.yul\":4526:4740   */\n            tag_35:\n                /* \"#utility.yul\":4615:4619   */\n              0x00\n                /* \"#utility.yul\":4653:4655   */\n              0x20\n                /* \"#utility.yul\":4642:4651   */\n              dup3\n                /* \"#utility.yul\":4638:4656   */\n              add\n                /* \"#utility.yul\":4630:4656   */\n              swap1\n              pop\n                /* \"#utility.yul\":4666:4733   */\n              tag_196\n                /* \"#utility.yul\":4730:4731   */\n              0x00\n                /* \"#utility.yul\":4719:4728   */\n              dup4\n                /* \"#utility.yul\":4715:4732   */\n              add\n                /* \"#utility.yul\":4706:4712   */\n              dup5\n                /* \"#utility.yul\":4666:4733   */\n              tag_139\n              jump\t// in\n            tag_196:\n                /* \"#utility.yul\":4526:4740   */\n              swap3\n              swap2\n              pop\n              pop\n              jump\t// out\n                /* \"#utility.yul\":4746:5075   */\n            tag_38:\n                /* \"#utility.yul\":4805:4811   */\n              0x00\n                /* \"#utility.yul\":4854:4856   */\n              0x20\n                /* \"#utility.yul\":4842:4851   */\n              dup3\n                /* \"#utility.yul\":4833:4840   */\n              dup5\n                /* \"#utility.yul\":4829:4852   */\n              sub\n                /* \"#utility.yul\":4825:4857   */\n              slt\n                /* \"#utility.yul\":4822:4941   */\n              iszero\n              tag_198\n              jumpi\n                /* \"#utility.yul\":4860:4939   */\n              tag_199\n              tag_126\n              jump\t// in\n            tag_199:\n                /* \"#utility.yul\":4822:4941   */\n            tag_198:\n                /* \"#utility.yul\":4980:4981   */\n              0x00\n                /* \"#utility.yul\":5005:5058   */\n              tag_200\n                /* \"#utility.yul\":5050:5057   */\n              dup5\n                /* \"#utility.yul\":5041:5047   */\n              dup3\n                /* \"#utility.yul\":5030:5039   */\n              dup6\n                /* \"#utility.yul\":5026:5048   */\n              add\n                /* \"#utility.yul\":5005:5058   */\n              tag_131\n              jump\t// in\n            tag_200:\n                /* \"#utility.yul\":4995:5058   */\n              swap2\n              pop\n                /* \"#utility.yul\":4951:5068   */\n              pop\n                /* \"#utility.yul\":4746:5075   */\n              swap3\n              swap2\n              pop\n              pop\n              jump\t// out\n                /* \"#utility.yul\":5081:5555   */\n            tag_50:\n                /* \"#utility.yul\":5149:5155   */\n              0x00\n                /* \"#utility.yul\":5157:5163   */\n              dup1\n                /* \"#utility.yul\":5206:5208   */\n              0x40\n                /* \"#utility.yul\":5194:5203   */\n              dup4\n                /* \"#utility.yul\":5185:5192   */\n              dup6\n                /* \"#utility.yul\":5181:5204   */\n              sub\n                /* \"#utility.yul\":5177:5209   */\n              slt\n                /* \"#utility.yul\":5174:5293   */\n              iszero\n              tag_202\n              jumpi\n                /* \"#utility.yul\":5212:5291   */\n              tag_203\n              tag_126\n              jump\t// in\n            tag_203:\n                /* \"#utility.yul\":5174:5293   */\n            tag_202:\n                /* \"#utility.yul\":5332:5333   */\n              0x00\n                /* \"#utility.yul\":5357:5410   */\n              tag_204\n                /* \"#utility.yul\":5402:5409   */\n              dup6\n                /* \"#utility.yul\":5393:5399   */\n              dup3\n                /* \"#utility.yul\":5382:5391   */\n              dup7\n                /* \"#utility.yul\":5378:5400   */\n              add\n                /* \"#utility.yul\":5357:5410   */\n              tag_131\n              jump\t// in\n            tag_204:\n                /* \"#utility.yul\":5347:5410   */\n              swap3\n              pop\n                /* \"#utility.yul\":5303:5420   */\n              pop\n                /* \"#utility.yul\":5459:5461   */\n              0x20\n                /* \"#utility.yul\":5485:5538   */\n              tag_205\n                /* \"#utility.yul\":5530:5537   */\n              dup6\n                /* \"#utility.yul\":5521:5527   */\n              dup3\n                /* \"#utility.yul\":5510:5519   */\n              dup7\n                /* \"#utility.yul\":5506:5528   */\n              add\n                /* \"#utility.yul\":5485:5538   */\n              tag_131\n              jump\t// in\n            tag_205:\n                /* \"#utility.yul\":5475:5538   */\n              swap2\n              pop\n                /* \"#utility.yul\":5430:5548   */\n              pop\n                /* \"#utility.yul\":5081:5555   */\n              swap3\n              pop\n              swap3\n              swap1\n              pop\n              jump\t// out\n                /* \"#utility.yul\":5561:5741   */\n            tag_140:\n                /* \"#utility.yul\":5609:5686   */\n              0x4e487b7100000000000000000000000000000000000000000000000000000000\n                /* \"#utility.yul\":5606:5607   */\n              0x00\n                /* \"#utility.yul\":5599:5687   */\n              mstore\n                /* \"#utility.yul\":5706:5710   */\n              0x22\n                /* \"#utility.yul\":5703:5704   */\n              0x04\n                /* \"#utility.yul\":5696:5711   */\n              mstore\n                /* \"#utility.yul\":5730:5734   */\n              0x24\n                /* \"#utility.yul\":5727:5728   */\n              0x00\n                /* \"#utility.yul\":5720:5735   */\n              revert\n                /* \"#utility.yul\":5747:6067   */\n            tag_55:\n                /* \"#utility.yul\":5791:5797   */\n              0x00\n                /* \"#utility.yul\":5828:5829   */\n              0x02\n                /* \"#utility.yul\":5822:5826   */\n              dup3\n                /* \"#utility.yul\":5818:5830   */\n              div\n                /* \"#utility.yul\":5808:5830   */\n              swap1\n              pop\n                /* \"#utility.yul\":5875:5876   */\n              0x01\n                /* \"#utility.yul\":5869:5873   */\n              dup3\n                /* \"#utility.yul\":5865:5877   */\n              and\n                /* \"#utility.yul\":5896:5914   */\n              dup1\n                /* \"#utility.yul\":5886:5967   */\n              tag_208\n              jumpi\n                /* \"#utility.yul\":5952:5956   */\n              0x7f\n                /* \"#utility.yul\":5944:5950   */\n              dup3\n                /* \"#utility.yul\":5940:5957   */\n              and\n                /* \"#utility.yul\":5930:5957   */\n              swap2\n              pop\n                /* \"#utility.yul\":5886:5967   */\n            tag_208:\n                /* \"#utility.yul\":6014:6016   */\n              0x20\n                /* \"#utility.yul\":6006:6012   */\n              dup3\n                /* \"#utility.yul\":6003:6017   */\n              lt\n                /* \"#utility.yul\":5983:6001   */\n              dup2\n                /* \"#utility.yul\":5980:6018   */\n              sub\n                /* \"#utility.yul\":5977:6061   */\n              tag_209\n              jumpi\n                /* \"#utility.yul\":6033:6051   */\n              tag_210\n              tag_140\n              jump\t// in\n            tag_210:\n                /* \"#utility.yul\":5977:6061   */\n            tag_209:\n                /* \"#utility.yul\":5798:6067   */\n              pop\n                /* \"#utility.yul\":5747:6067   */\n              swap2\n              swap1\n              pop\n              jump\t// out\n                /* \"#utility.yul\":6073:6191   */\n            tag_141:\n                /* \"#utility.yul\":6160:6184   */\n              tag_212\n                /* \"#utility.yul\":6178:6183   */\n              dup2\n                /* \"#utility.yul\":6160:6184   */\n              tag_129\n              jump\t// in\n            tag_212:\n                /* \"#utility.yul\":6155:6158   */\n              dup3\n                /* \"#utility.yul\":6148:6185   */\n              mstore\n                /* \"#utility.yul\":6073:6191   */\n              pop\n              pop\n              jump\t// out\n                /* \"#utility.yul\":6197:6639   */\n            tag_93:\n                /* \"#utility.yul\":6346:6350   */\n              0x00\n                /* \"#utility.yul\":6384:6386   */\n              0x60\n                /* \"#utility.yul\":6373:6382   */\n              dup3\n                /* \"#utility.yul\":6369:6387   */\n              add\n                /* \"#utility.yul\":6361:6387   */\n              swap1\n              pop\n                /* \"#utility.yul\":6397:6468   */\n              tag_214\n                /* \"#utility.yul\":6465:6466   */\n              0x00\n                /* \"#utility.yul\":6454:6463   */\n              dup4\n                /* \"#utility.yul\":6450:6467   */\n              add\n                /* \"#utility.yul\":6441:6447   */\n              dup7\n                /* \"#utility.yul\":6397:6468   */\n              tag_141\n              jump\t// in\n            tag_214:\n                /* \"#utility.yul\":6478:6550   */\n              tag_215\n                /* \"#utility.yul\":6546:6548   */\n              0x20\n                /* \"#utility.yul\":6535:6544   */\n              dup4\n                /* \"#utility.yul\":6531:6549   */\n              add\n                /* \"#utility.yul\":6522:6528   */\n              dup6\n                /* \"#utility.yul\":6478:6550   */\n              tag_137\n              jump\t// in\n            tag_215:\n                /* \"#utility.yul\":6560:6632   */\n              tag_216\n                /* \"#utility.yul\":6628:6630   */\n              0x40\n                /* \"#utility.yul\":6617:6626   */\n              dup4\n                /* \"#utility.yul\":6613:6631   */\n              add\n                /* \"#utility.yul\":6604:6610   */\n              dup5\n                /* \"#utility.yul\":6560:6632   */\n              tag_137\n              jump\t// in\n            tag_216:\n                /* \"#utility.yul\":6197:6639   */\n              swap5\n              swap4\n              pop\n              pop\n              pop\n              pop\n              jump\t// out\n                /* \"#utility.yul\":6645:6867   */\n            tag_98:\n                /* \"#utility.yul\":6738:6742   */\n              0x00\n                /* \"#utility.yul\":6776:6778   */\n              0x20\n                /* \"#utility.yul\":6765:6774   */\n              dup3\n                /* \"#utility.yul\":6761:6779   */\n              add\n                /* \"#utility.yul\":6753:6779   */\n              swap1\n              pop\n                /* \"#utility.yul\":6789:6860   */\n              tag_218\n                /* \"#utility.yul\":6857:6858   */\n              0x00\n                /* \"#utility.yul\":6846:6855   */\n              dup4\n                /* \"#utility.yul\":6842:6859   */\n              add\n                /* \"#utility.yul\":6833:6839   */\n              dup5\n                /* \"#utility.yul\":6789:6860   */\n              tag_141\n              jump\t// in\n            tag_218:\n                /* \"#utility.yul\":6645:6867   */\n              swap3\n              swap2\n              pop\n              pop\n              jump\t// out\n                /* \"#utility.yul\":6873:7053   */\n            tag_142:\n                /* \"#utility.yul\":6921:6998   */\n              0x4e487b7100000000000000000000000000000000000000000000000000000000\n                /* \"#utility.yul\":6918:6919   */\n              0x00\n                /* \"#utility.yul\":6911:6999   */\n              mstore\n                /* \"#utility.yul\":7018:7022   */\n              0x11\n                /* \"#utility.yul\":7015:7016   */\n              0x04\n                /* \"#utility.yul\":7008:7023   */\n              mstore\n                /* \"#utility.yul\":7042:7046   */\n              0x24\n                /* \"#utility.yul\":7039:7040   */\n              0x00\n                /* \"#utility.yul\":7032:7047   */\n              revert\n                /* \"#utility.yul\":7059:7250   */\n            tag_113:\n                /* \"#utility.yul\":7099:7102   */\n              0x00\n                /* \"#utility.yul\":7118:7138   */\n              tag_221\n                /* \"#utility.yul\":7136:7137   */\n              dup3\n                /* \"#utility.yul\":7118:7138   */\n              tag_132\n              jump\t// in\n            tag_221:\n                /* \"#utility.yul\":7113:7138   */\n              swap2\n              pop\n                /* \"#utility.yul\":7152:7172   */\n              tag_222\n                /* \"#utility.yul\":7170:7171   */\n              dup4\n                /* \"#utility.yul\":7152:7172   */\n              tag_132\n              jump\t// in\n            tag_222:\n                /* \"#utility.yul\":7147:7172   */\n              swap3\n              pop\n                /* \"#utility.yul\":7195:7196   */\n              dup3\n                /* \"#utility.yul\":7192:7193   */\n              dup3\n                /* \"#utility.yul\":7188:7197   */\n              add\n                /* \"#utility.yul\":7181:7197   */\n              swap1\n              pop\n                /* \"#utility.yul\":7216:7219   */\n              dup1\n                /* \"#utility.yul\":7213:7214   */\n              dup3\n                /* \"#utility.yul\":7210:7220   */\n              gt\n                /* \"#utility.yul\":7207:7243   */\n              iszero\n              tag_223\n              jumpi\n                /* \"#utility.yul\":7223:7241   */\n              tag_224\n              tag_142\n              jump\t// in\n            tag_224:\n                /* \"#utility.yul\":7207:7243   */\n            tag_223:\n                /* \"#utility.yul\":7059:7250   */\n              swap3\n              swap2\n              pop\n              pop\n              jump\t// out\n\n            auxdata: 0xa26469706673582212208c64f6c94ba2bd4859c68fd4aa700dec433397be99e6803015485d5acbe116c964736f6c634300081a0033\n        }\n    }\n\n    auxdata: 0xa264697066735822122043537f366397fac6f712032cd43296dda18807626d176d26cb93ed1e269be2f664736f6c634300081a0033\n}\n",
				"bytecode": {
					"linkReferences": {},
					"object": "60806040525f8060146101000a81548160ff021916908315150217905550600a600155348015602c575f80fd5b50335f806101000a81548173ffffffffffffffffffffffffffffffffffffffff021916908373ffffffffffffffffffffffffffffffffffffffff160217905550613db1806100795f395ff3fe608060405234801561000f575f80fd5b506004361061012a575f3560e01c80638da5cb5b116100ab578063b759f9541161006f578063b759f95414610348578063dd62ed3e14610364578063eb97ffa214610394578063f0acd184146103b2578063f3513a37146103bc5761012a565b80638da5cb5b146102a257806390d64271146102c0578063a6359308146102de578063a9ef507b146102fa578063b3a1c41a1461032a5761012a565b80634d72cd12116100f25780634d72cd12146101d357806370a08231146101f45780637ac64245146102245780637c1a4bcd146102545780637da0a948146102845761012a565b806301c427d71461012e5780631cff85e11461014c578063204b317b1461017f57806325129b131461019b57806349ee56f9146101b7575b5f80fd5b6101366103da565b6040516101439190611c54565b60405180910390f35b61016660048036038101906101619190611ca4565b6103ff565b6040516101769493929190611d18565b60405180910390f35b61019960048036038101906101949190611d5b565b610465565b005b6101b560048036038101906101b09190611ca4565b61074f565b005b6101d160048036038101906101cc9190611ca4565b610ad3565b005b6101db610cf1565b6040516101eb9493929190611fbe565b60405180910390f35b61020e60048036038101906102099190612047565b610f5d565b60405161021b9190612072565b60405180910390f35b61023e60048036038101906102399190611ca4565b610f72565b60405161024b919061208b565b60405180910390f35b61026e60048036038101906102699190612047565b610fad565b60405161027b9190612072565b60405180910390f35b61028c61104e565b6040516102999190612072565b60405180910390f35b6102aa611054565b6040516102b7919061208b565b60405180910390f35b6102c861107b565b6040516102d591906120a4565b60405180910390f35b6102f860048036038101906102f39190611ca4565b61108d565b005b610314600480360381019061030f9190611d5b565b61155d565b6040516103219190612072565b60405180910390f35b610332611844565b60405161033f919061208b565b60405180910390f35b610362600480360381019061035d9190611ca4565b611869565b005b61037e600480360381019061037991906120bd565b611947565b60405161038b9190612072565b60405180910390f35b61039c611967565b6040516103a99190612072565b60405180910390f35b6103ba6119fb565b005b6103c4611aa0565b6040516103d191906120fb565b60405180910390f35b60025f9054906101000a900473ffffffffffffffffffffffffffffffffffffffff1681565b6007818154811061040e575f80fd5b905f5260205f2090600502015f91509050805f015f9054906101000a900473ffffffffffffffffffffffffffffffffffffffff1690806001015490806002015490806004015f9054906101000a900460ff16905084565b60015460025f9054906101000a900473ffffffffffffffffffffffffffffffffffffffff1673ffffffffffffffffffffffffffffffffffffffff166370a08231336040518263ffffffff1660e01b81526004016104c2919061208b565b602060405180830381865afa1580156104dd573d5f803e3d5ffd5b505050506040513d601f19601f82011682018060405250810190610501919061212f565b1015610542576040517f08c379a0000000000000000000000000000000000000000000000000000000008152600401610539906121b4565b60405180910390fd5b606060076040518060a001604052803373ffffffffffffffffffffffffffffffffffffffff16815260200185815260200184815260200183815260200160011515815250908060018154018082558091505060019003905f5260205f2090600502015f909190919091505f820151815f015f6101000a81548173ffffffffffffffffffffffffffffffffffffffff021916908373ffffffffffffffffffffffffffffffffffffffff16021790555060208201518160010155604082015181600201556060820151816003019080519060200190610620929190611b2b565b506080820151816004015f6101000a81548160ff02191690831515021790555050505f600160078054905061065591906121ff565b905060025f9054906101000a900473ffffffffffffffffffffffffffffffffffffffff1673ffffffffffffffffffffffffffffffffffffffff166323b872dd33306001546040518463ffffffff1660e01b81526004016106b793929190612232565b6020604051808303815f875af11580156106d3573d5f803e3d5ffd5b505050506040513d601f19601f820116820180604052508101906106f79190612291565b503373ffffffffffffffffffffffffffffffffffffffff16817f571a5dfc09c77bbe59e7a00b078fec1a53f090e992ccacde1856dab24624c9686001546040516107419190612072565b60405180910390a350505050565b3373ffffffffffffffffffffffffffffffffffffffff1661076e611054565b73ffffffffffffffffffffffffffffffffffffffff16146107c4576040517f08c379a00000000000000000000000000000000000000000000000000000000081526004016107bb90612306565b60405180910390fd5b5f60149054906101000a900460ff1615610813576040517f08c379a000000000000000000000000000000000000000000000000000000000815260040161080a90612394565b60405180910390fd5b5f8160405161082190611bb2565b61082b9190612072565b604051809103905ff080158015610844573d5f803e3d5ffd5b5090508060035f6101000a81548173ffffffffffffffffffffffffffffffffffffffff021916908373ffffffffffffffffffffffffffffffffffffffff16021790555060035f9054906101000a900473ffffffffffffffffffffffffffffffffffffffff1660025f6101000a81548173ffffffffffffffffffffffffffffffffffffffff021916908373ffffffffffffffffffffffffffffffffffffffff16021790555060025f9054906101000a900473ffffffffffffffffffffffffffffffffffffffff1673ffffffffffffffffffffffffffffffffffffffff1663a9059cbb3068056bc75e2d631000006040518363ffffffff1660e01b815260040161094d9291906123eb565b6020604051808303815f875af1158015610969573d5f803e3d5ffd5b505050506040513d601f19601f8201168201806040525081019061098d9190612291565b5060025f9054906101000a900473ffffffffffffffffffffffffffffffffffffffff1673ffffffffffffffffffffffffffffffffffffffff166318160ddd6040518163ffffffff1660e01b8152600401602060405180830381865afa1580156109f8573d5f803e3d5ffd5b505050506040513d601f19601f82011682018060405250810190610a1c919061212f565b60055f3073ffffffffffffffffffffffffffffffffffffffff1673ffffffffffffffffffffffffffffffffffffffff1681526020019081526020015f208190555060015f60146101000a81548160ff0219169083151502179055507f5a328b2a6ca99d3f214e0a041dcd254e948aa9a2e1b8b97233531b6a1d1872c960035f9054906101000a900473ffffffffffffffffffffffffffffffffffffffff16604051610ac7919061208b565b60405180910390a15050565b5f60078281548110610ae857610ae7612412565b5b905f5260205f2090600502019050806001015460025f9054906101000a900473ffffffffffffffffffffffffffffffffffffffff1673ffffffffffffffffffffffffffffffffffffffff166370a08231336040518263ffffffff1660e01b8152600401610b55919061208b565b602060405180830381865afa158015610b70573d5f803e3d5ffd5b505050506040513d601f19601f82011682018060405250810190610b94919061212f565b1015610bd5576040517f08c379a0000000000000000000000000000000000000000000000000000000008152600401610bcc906121b4565b60405180910390fd5b60025f9054906101000a900473ffffffffffffffffffffffffffffffffffffffff1673ffffffffffffffffffffffffffffffffffffffff166323b872dd33835f015f9054906101000a900473ffffffffffffffffffffffffffffffffffffffff1684600101546040518463ffffffff1660e01b8152600401610c5993929190612232565b6020604051808303815f875af1158015610c75573d5f803e3d5ffd5b505050506040513d601f19601f82011682018060405250810190610c999190612291565b503373ffffffffffffffffffffffffffffffffffffffff16827f313d5c7bf54e15a1b7dc24a51b097c6458663a33e7a4be386f80fea411dcda658360010154604051610ce59190612072565b60405180910390a35050565b6060806060805f60078054905090508067ffffffffffffffff811115610d1a57610d1961243f565b5b604051908082528060200260200182016040528015610d485781602001602082028036833780820191505090505b5094508067ffffffffffffffff811115610d6557610d6461243f565b5b604051908082528060200260200182016040528015610d935781602001602082028036833780820191505090505b5093508067ffffffffffffffff811115610db057610daf61243f565b5b604051908082528060200260200182016040528015610dde5781602001602082028036833780820191505090505b5092508067ffffffffffffffff811115610dfb57610dfa61243f565b5b604051908082528060200260200182016040528015610e295781602001602082028036833780820191505090505b5091505f5b81811015610f55575f60078281548110610e4b57610e4a612412565b5b905f5260205f2090600502019050805f015f9054906101000a900473ffffffffffffffffffffffffffffffffffffffff16878381518110610e8f57610e8e612412565b5b602002602001019073ffffffffffffffffffffffffffffffffffffffff16908173ffffffffffffffffffffffffffffffffffffffff16815250508060010154868381518110610ee157610ee0612412565b5b6020026020010181815250508060020154858381518110610f0557610f04612412565b5b602002602001018181525050806004015f9054906101000a900460ff16848381518110610f3557610f34612412565b5b602002602001019015159081151581525050508080600101915050610e2e565b505090919293565b6005602052805f5260405f205f915090505481565b60048181548110610f81575f80fd5b905f5260205f20015f915054906101000a900473ffffffffffffffffffffffffffffffffffffffff1681565b5f60025f9054906101000a900473ffffffffffffffffffffffffffffffffffffffff1673ffffffffffffffffffffffffffffffffffffffff166370a08231836040518263ffffffff1660e01b8152600401611008919061208b565b602060405180830381865afa158015611023573d5f803e3d5ffd5b505050506040513d601f19601f82011682018060405250810190611047919061212f565b9050919050565b60015481565b5f805f9054906101000a900473ffffffffffffffffffffffffffffffffffffffff16905090565b5f60149054906101000a900460ff1681565b5f600782815481106110a2576110a1612412565b5b905f5260205f2090600502019050806004015f9054906101000a900460ff1615611101576040517f08c379a00000000000000000000000000000000000000000000000000000000081526004016110f8906124b6565b60405180910390fd5b5f805b600480549050811015611195573373ffffffffffffffffffffffffffffffffffffffff166004828154811061113c5761113b612412565b5b905f5260205f20015f9054906101000a900473ffffffffffffffffffffffffffffffffffffffff1673ffffffffffffffffffffffffffffffffffffffff16036111885760019150611195565b8080600101915050611104565b50806111d6576040517f08c379a00000000000000000000000000000000000000000000000000000000081526004016111cd90612544565b60405180910390fd5b815f015f9054906101000a900473ffffffffffffffffffffffffffffffffffffffff1673ffffffffffffffffffffffffffffffffffffffff163373ffffffffffffffffffffffffffffffffffffffff1603611266576040517f08c379a000000000000000000000000000000000000000000000000000000000815260040161125d906125ac565b60405180910390fd5b8160030133908060018154018082558091505060019003905f5260205f20015f9091909190916101000a81548173ffffffffffffffffffffffffffffffffffffffff021916908373ffffffffffffffffffffffffffffffffffffffff16021790555060025f9054906101000a900473ffffffffffffffffffffffffffffffffffffffff1673ffffffffffffffffffffffffffffffffffffffff1663a9059cbb3384600201546040518363ffffffff1660e01b81526004016113289291906125ca565b6020604051808303815f875af1158015611344573d5f803e3d5ffd5b505050506040513d601f19601f820116820180604052508101906113689190612291565b506001826004015f6101000a81548160ff021916908315150217905550816002015460025f9054906101000a900473ffffffffffffffffffffffffffffffffffffffff1673ffffffffffffffffffffffffffffffffffffffff166370a08231306040518263ffffffff1660e01b81526004016113e4919061208b565b602060405180830381865afa1580156113ff573d5f803e3d5ffd5b505050506040513d601f19601f82011682018060405250810190611423919061212f565b1015611464576040517f08c379a000000000000000000000000000000000000000000000000000000000815260040161145b9061263b565b60405180910390fd5b60025f9054906101000a900473ffffffffffffffffffffffffffffffffffffffff1673ffffffffffffffffffffffffffffffffffffffff1663a9059cbb3384600201546040518363ffffffff1660e01b81526004016114c49291906125ca565b6020604051808303815f875af11580156114e0573d5f803e3d5ffd5b505050506040513d601f19601f820116820180604052508101906115049190612291565b503373ffffffffffffffffffffffffffffffffffffffff16837f1dc73a35285fda24d55673e615930ad58eab11f47d6838526ffbd7d2c1847af484600201546040516115509190612072565b60405180910390a3505050565b5f606060076040518060a001604052803373ffffffffffffffffffffffffffffffffffffffff1681526020018681526020018581526020018381526020015f1515815250908060018154018082558091505060019003905f5260205f2090600502015f909190919091505f820151815f015f6101000a81548173ffffffffffffffffffffffffffffffffffffffff021916908373ffffffffffffffffffffffffffffffffffffffff1602179055506020820151816001015560408201518160020155606082015181600301908051906020019061163b929190611b2b565b506080820151816004015f6101000a81548160ff02191690831515021790555050505f600160078054905061167091906121ff565b90508460025f9054906101000a900473ffffffffffffffffffffffffffffffffffffffff1673ffffffffffffffffffffffffffffffffffffffff166370a08231306040518263ffffffff1660e01b81526004016116cd919061208b565b602060405180830381865afa1580156116e8573d5f803e3d5ffd5b505050506040513d601f19601f8201168201806040525081019061170c919061212f565b101561174d576040517f08c379a0000000000000000000000000000000000000000000000000000000008152600401611744906126c9565b60405180910390fd5b60025f9054906101000a900473ffffffffffffffffffffffffffffffffffffffff1673ffffffffffffffffffffffffffffffffffffffff1663a9059cbb33876040518363ffffffff1660e01b81526004016117a99291906125ca565b6020604051808303815f875af11580156117c5573d5f803e3d5ffd5b505050506040513d601f19601f820116820180604052508101906117e99190612291565b503373ffffffffffffffffffffffffffffffffffffffff16817f030229516c8151b2075f760db01be9df7393e8f7b929097a0fff260b6d903eec876040516118319190612072565b60405180910390a3809250505092915050565b60035f9054906101000a900473ffffffffffffffffffffffffffffffffffffffff1681565b60025f9054906101000a900473ffffffffffffffffffffffffffffffffffffffff1673ffffffffffffffffffffffffffffffffffffffff1663095ea7b330836040518363ffffffff1660e01b81526004016118c59291906125ca565b6020604051808303815f875af11580156118e1573d5f803e3d5ffd5b505050506040513d601f19601f820116820180604052508101906119059190612291565b611944576040517f08c379a000000000000000000000000000000000000000000000000000000000815260040161193b90612731565b60405180910390fd5b50565b6006602052815f5260405f20602052805f5260405f205f91509150505481565b5f60025f9054906101000a900473ffffffffffffffffffffffffffffffffffffffff1673ffffffffffffffffffffffffffffffffffffffff166318160ddd6040518163ffffffff1660e01b8152600401602060405180830381865afa1580156119d2573d5f803e3d5ffd5b505050506040513d601f19601f820116820180604052508101906119f6919061212f565b905090565b600433908060018154018082558091505060019003905f5260205f20015f9091909190916101000a81548173ffffffffffffffffffffffffffffffffffffffff021916908373ffffffffffffffffffffffffffffffffffffffff1602179055503373ffffffffffffffffffffffffffffffffffffffff167fd09501348473474a20c772c79c653e1fd7e8b437e418fe235d277d2c8885325160405160405180910390a2565b60606004805480602002602001604051908101604052809291908181526020018280548015611b2157602002820191905f5260205f20905b815f9054906101000a900473ffffffffffffffffffffffffffffffffffffffff1673ffffffffffffffffffffffffffffffffffffffff1681526020019060010190808311611ad8575b5050505050905090565b828054828255905f5260205f20908101928215611ba1579160200282015b82811115611ba0578251825f6101000a81548173ffffffffffffffffffffffffffffffffffffffff021916908373ffffffffffffffffffffffffffffffffffffffff16021790555091602001919060010190611b49565b5b509050611bae9190611bbf565b5090565b61162c8061275083390190565b5b80821115611bd6575f815f905550600101611bc0565b5090565b5f73ffffffffffffffffffffffffffffffffffffffff82169050919050565b5f819050919050565b5f611c1c611c17611c1284611bda565b611bf9565b611bda565b9050919050565b5f611c2d82611c02565b9050919050565b5f611c3e82611c23565b9050919050565b611c4e81611c34565b82525050565b5f602082019050611c675f830184611c45565b92915050565b5f80fd5b5f819050919050565b611c8381611c71565b8114611c8d575f80fd5b50565b5f81359050611c9e81611c7a565b92915050565b5f60208284031215611cb957611cb8611c6d565b5b5f611cc684828501611c90565b91505092915050565b5f611cd982611bda565b9050919050565b611ce981611ccf565b82525050565b611cf881611c71565b82525050565b5f8115159050919050565b611d1281611cfe565b82525050565b5f608082019050611d2b5f830187611ce0565b611d386020830186611cef565b611d456040830185611cef565b611d526060830184611d09565b95945050505050565b5f8060408385031215611d7157611d70611c6d565b5b5f611d7e85828601611c90565b9250506020611d8f85828601611c90565b9150509250929050565b5f81519050919050565b5f82825260208201905092915050565b5f819050602082019050919050565b611dcb81611ccf565b82525050565b5f611ddc8383611dc2565b60208301905092915050565b5f602082019050919050565b5f611dfe82611d99565b611e088185611da3565b9350611e1383611db3565b805f5b83811015611e43578151611e2a8882611dd1565b9750611e3583611de8565b925050600181019050611e16565b5085935050505092915050565b5f81519050919050565b5f82825260208201905092915050565b5f819050602082019050919050565b611e8281611c71565b82525050565b5f611e938383611e79565b60208301905092915050565b5f602082019050919050565b5f611eb582611e50565b611ebf8185611e5a565b9350611eca83611e6a565b805f5b83811015611efa578151611ee18882611e88565b9750611eec83611e9f565b925050600181019050611ecd565b5085935050505092915050565b5f81519050919050565b5f82825260208201905092915050565b5f819050602082019050919050565b611f3981611cfe565b82525050565b5f611f4a8383611f30565b60208301905092915050565b5f602082019050919050565b5f611f6c82611f07565b611f768185611f11565b9350611f8183611f21565b805f5b83811015611fb1578151611f988882611f3f565b9750611fa383611f56565b925050600181019050611f84565b5085935050505092915050565b5f6080820190508181035f830152611fd68187611df4565b90508181036020830152611fea8186611eab565b90508181036040830152611ffe8185611eab565b905081810360608301526120128184611f62565b905095945050505050565b61202681611ccf565b8114612030575f80fd5b50565b5f813590506120418161201d565b92915050565b5f6020828403121561205c5761205b611c6d565b5b5f61206984828501612033565b91505092915050565b5f6020820190506120855f830184611cef565b92915050565b5f60208201905061209e5f830184611ce0565b92915050565b5f6020820190506120b75f830184611d09565b92915050565b5f80604083850312156120d3576120d2611c6d565b5b5f6120e085828601612033565b92505060206120f185828601612033565b9150509250929050565b5f6020820190508181035f8301526121138184611df4565b905092915050565b5f8151905061212981611c7a565b92915050565b5f6020828403121561214457612143611c6d565b5b5f6121518482850161211b565b91505092915050565b5f82825260208201905092915050565b7f496e73756666696369656e742062616c616e636520746f2070757263686173655f82015250565b5f61219e60208361215a565b91506121a98261216a565b602082019050919050565b5f6020820190508181035f8301526121cb81612192565b9050919050565b7f4e487b71000000000000000000000000000000000000000000000000000000005f52601160045260245ffd5b5f61220982611c71565b915061221483611c71565b925082820390508181111561222c5761222b6121d2565b5b92915050565b5f6060820190506122455f830186611ce0565b6122526020830185611ce0565b61225f6040830184611cef565b949350505050565b61227081611cfe565b811461227a575f80fd5b50565b5f8151905061228b81612267565b92915050565b5f602082840312156122a6576122a5611c6d565b5b5f6122b38482850161227d565b91505092915050565b7f4f776e61626c653a2063616c6c6572206973206e6f7420746865206f776e65725f82015250565b5f6122f060208361215a565b91506122fb826122bc565b602082019050919050565b5f6020820190508181035f83015261231d816122e4565b9050919050565b7f4461746150756e6b436f696e2068617320616c7265616479206265656e2064655f8201527f706c6f7965640000000000000000000000000000000000000000000000000000602082015250565b5f61237e60268361215a565b915061238982612324565b604082019050919050565b5f6020820190508181035f8301526123ab81612372565b9050919050565b5f819050919050565b5f6123d56123d06123cb846123b2565b611bf9565b611c71565b9050919050565b6123e5816123bb565b82525050565b5f6040820190506123fe5f830185611ce0565b61240b60208301846123dc565b9392505050565b7f4e487b71000000000000000000000000000000000000000000000000000000005f52603260045260245ffd5b7f4e487b71000000000000000000000000000000000000000000000000000000005f52604160045260245ffd5b7f4461746173657420616c72656164792076616c696461746564000000000000005f82015250565b5f6124a060198361215a565b91506124ab8261246c565b602082019050919050565b5f6020820190508181035f8301526124cd81612494565b9050919050565b7f596f75206d757374206265206120726567697374657265642076616c696461745f8201527f6f72000000000000000000000000000000000000000000000000000000000000602082015250565b5f61252e60228361215a565b9150612539826124d4565b604082019050919050565b5f6020820190508181035f83015261255b81612522565b9050919050565b7f56616c696461746f722063616e6e6f74206265207468652063726561746f72005f82015250565b5f612596601f8361215a565b91506125a182612562565b602082019050919050565b5f6020820190508181035f8301526125c38161258a565b9050919050565b5f6040820190506125dd5f830185611ce0565b6125ea6020830184611cef565b9392505050565b7f496e73756666696369656e742062616c616e636520746f2072657761726400005f82015250565b5f612625601e8361215a565b9150612630826125f1565b602082019050919050565b5f6020820190508181035f83015261265281612619565b9050919050565b7f436f6e74726163742068617320696e73756666696369656e742044504320746f5f8201527f2072657761726400000000000000000000000000000000000000000000000000602082015250565b5f6126b360278361215a565b91506126be82612659565b604082019050919050565b5f6020820190508181035f8301526126e0816126a7565b9050919050565b7f417070726f76616c206661696c656400000000000000000000000000000000005f82015250565b5f61271b600f8361215a565b9150612726826126e7565b602082019050919050565b5f6020820190508181035f8301526127488161270f565b905091905056fe608060405234801561000f575f80fd5b5060405161162c38038061162c833981810160405281019061003191906103bd565b6040518060400160405280600d81526020017f4461746150756e6b20436f696e000000000000000000000000000000000000008152506040518060400160405280600381526020017f445043000000000000000000000000000000000000000000000000000000000081525081600390816100ac9190610619565b5080600490816100bc9190610619565b5050506100e233670de0b6b3a7640000836100d79190610715565b6100e860201b60201c565b5061083e565b5f73ffffffffffffffffffffffffffffffffffffffff168273ffffffffffffffffffffffffffffffffffffffff1603610158575f6040517fec442f0500000000000000000000000000000000000000000000000000000000815260040161014f9190610795565b60405180910390fd5b6101695f838361016d60201b60201c565b5050565b5f73ffffffffffffffffffffffffffffffffffffffff168373ffffffffffffffffffffffffffffffffffffffff16036101bd578060025f8282546101b191906107ae565b9250508190555061028b565b5f805f8573ffffffffffffffffffffffffffffffffffffffff1673ffffffffffffffffffffffffffffffffffffffff1681526020019081526020015f2054905081811015610246578381836040517fe450d38c00000000000000000000000000000000000000000000000000000000815260040161023d939291906107f0565b60405180910390fd5b8181035f808673ffffffffffffffffffffffffffffffffffffffff1673ffffffffffffffffffffffffffffffffffffffff1681526020019081526020015f2081905550505b5f73ffffffffffffffffffffffffffffffffffffffff168273ffffffffffffffffffffffffffffffffffffffff16036102d2578060025f828254039250508190555061031c565b805f808473ffffffffffffffffffffffffffffffffffffffff1673ffffffffffffffffffffffffffffffffffffffff1681526020019081526020015f205f82825401925050819055505b8173ffffffffffffffffffffffffffffffffffffffff168373ffffffffffffffffffffffffffffffffffffffff167fddf252ad1be2c89b69c2b068fc378daa952ba7f163c4a11628f55a4df523b3ef836040516103799190610825565b60405180910390a3505050565b5f80fd5b5f819050919050565b61039c8161038a565b81146103a6575f80fd5b50565b5f815190506103b781610393565b92915050565b5f602082840312156103d2576103d1610386565b5b5f6103df848285016103a9565b91505092915050565b5f81519050919050565b7f4e487b71000000000000000000000000000000000000000000000000000000005f52604160045260245ffd5b7f4e487b71000000000000000000000000000000000000000000000000000000005f52602260045260245ffd5b5f600282049050600182168061046357607f821691505b6020821081036104765761047561041f565b5b50919050565b5f819050815f5260205f209050919050565b5f6020601f8301049050919050565b5f82821b905092915050565b5f600883026104d87fffffffffffffffffffffffffffffffffffffffffffffffffffffffffffffffff8261049d565b6104e2868361049d565b95508019841693508086168417925050509392505050565b5f819050919050565b5f61051d6105186105138461038a565b6104fa565b61038a565b9050919050565b5f819050919050565b61053683610503565b61054a61054282610524565b8484546104a9565b825550505050565b5f90565b61055e610552565b61056981848461052d565b505050565b5b8181101561058c576105815f82610556565b60018101905061056f565b5050565b601f8211156105d1576105a28161047c565b6105ab8461048e565b810160208510156105ba578190505b6105ce6105c68561048e565b83018261056e565b50505b505050565b5f82821c905092915050565b5f6105f15f19846008026105d6565b1980831691505092915050565b5f61060983836105e2565b9150826002028217905092915050565b610622826103e8565b67ffffffffffffffff81111561063b5761063a6103f2565b5b610645825461044c565b610650828285610590565b5f60209050601f831160018114610681575f841561066f578287015190505b61067985826105fe565b8655506106e0565b601f19841661068f8661047c565b5f5b828110156106b657848901518255600182019150602085019450602081019050610691565b868310156106d357848901516106cf601f8916826105e2565b8355505b6001600288020188555050505b505050505050565b7f4e487b71000000000000000000000000000000000000000000000000000000005f52601160045260245ffd5b5f61071f8261038a565b915061072a8361038a565b92508282026107388161038a565b9150828204841483151761074f5761074e6106e8565b5b5092915050565b5f73ffffffffffffffffffffffffffffffffffffffff82169050919050565b5f61077f82610756565b9050919050565b61078f81610775565b82525050565b5f6020820190506107a85f830184610786565b92915050565b5f6107b88261038a565b91506107c38361038a565b92508282019050808211156107db576107da6106e8565b5b92915050565b6107ea8161038a565b82525050565b5f6060820190506108035f830186610786565b61081060208301856107e1565b61081d60408301846107e1565b949350505050565b5f6020820190506108385f8301846107e1565b92915050565b610de18061084b5f395ff3fe608060405234801561000f575f80fd5b5060043610610091575f3560e01c8063313ce56711610064578063313ce5671461013157806370a082311461014f57806395d89b411461017f578063a9059cbb1461019d578063dd62ed3e146101cd57610091565b806306fdde0314610095578063095ea7b3146100b357806318160ddd146100e357806323b872dd14610101575b5f80fd5b61009d6101fd565b6040516100aa9190610a5a565b60405180910390f35b6100cd60048036038101906100c89190610b0b565b61028d565b6040516100da9190610b63565b60405180910390f35b6100eb6102af565b6040516100f89190610b8b565b60405180910390f35b61011b60048036038101906101169190610ba4565b6102b8565b6040516101289190610b63565b60405180910390f35b6101396102e6565b6040516101469190610c0f565b60405180910390f35b61016960048036038101906101649190610c28565b6102ee565b6040516101769190610b8b565b60405180910390f35b610187610333565b6040516101949190610a5a565b60405180910390f35b6101b760048036038101906101b29190610b0b565b6103c3565b6040516101c49190610b63565b60405180910390f35b6101e760048036038101906101e29190610c53565b6103e5565b6040516101f49190610b8b565b60405180910390f35b60606003805461020c90610cbe565b80601f016020809104026020016040519081016040528092919081815260200182805461023890610cbe565b80156102835780601f1061025a57610100808354040283529160200191610283565b820191905f5260205f20905b81548152906001019060200180831161026657829003601f168201915b5050505050905090565b5f80610297610467565b90506102a481858561046e565b600191505092915050565b5f600254905090565b5f806102c2610467565b90506102cf858285610480565b6102da858585610512565b60019150509392505050565b5f6012905090565b5f805f8373ffffffffffffffffffffffffffffffffffffffff1673ffffffffffffffffffffffffffffffffffffffff1681526020019081526020015f20549050919050565b60606004805461034290610cbe565b80601f016020809104026020016040519081016040528092919081815260200182805461036e90610cbe565b80156103b95780601f10610390576101008083540402835291602001916103b9565b820191905f5260205f20905b81548152906001019060200180831161039c57829003601f168201915b5050505050905090565b5f806103cd610467565b90506103da818585610512565b600191505092915050565b5f60015f8473ffffffffffffffffffffffffffffffffffffffff1673ffffffffffffffffffffffffffffffffffffffff1681526020019081526020015f205f8373ffffffffffffffffffffffffffffffffffffffff1673ffffffffffffffffffffffffffffffffffffffff1681526020019081526020015f2054905092915050565b5f33905090565b61047b8383836001610602565b505050565b5f61048b84846103e5565b90507fffffffffffffffffffffffffffffffffffffffffffffffffffffffffffffffff811461050c57818110156104fd578281836040517ffb8f41b20000000000000000000000000000000000000000000000000000000081526004016104f493929190610cfd565b60405180910390fd5b61050b84848484035f610602565b5b50505050565b5f73ffffffffffffffffffffffffffffffffffffffff168373ffffffffffffffffffffffffffffffffffffffff1603610582575f6040517f96c6fd1e0000000000000000000000000000000000000000000000000000000081526004016105799190610d32565b60405180910390fd5b5f73ffffffffffffffffffffffffffffffffffffffff168273ffffffffffffffffffffffffffffffffffffffff16036105f2575f6040517fec442f050000000000000000000000000000000000000000000000000000000081526004016105e99190610d32565b60405180910390fd5b6105fd8383836107d1565b505050565b5f73ffffffffffffffffffffffffffffffffffffffff168473ffffffffffffffffffffffffffffffffffffffff1603610672575f6040517fe602df050000000000000000000000000000000000000000000000000000000081526004016106699190610d32565b60405180910390fd5b5f73ffffffffffffffffffffffffffffffffffffffff168373ffffffffffffffffffffffffffffffffffffffff16036106e2575f6040517f94280d620000000000000000000000000000000000000000000000000000000081526004016106d99190610d32565b60405180910390fd5b8160015f8673ffffffffffffffffffffffffffffffffffffffff1673ffffffffffffffffffffffffffffffffffffffff1681526020019081526020015f205f8573ffffffffffffffffffffffffffffffffffffffff1673ffffffffffffffffffffffffffffffffffffffff1681526020019081526020015f208190555080156107cb578273ffffffffffffffffffffffffffffffffffffffff168473ffffffffffffffffffffffffffffffffffffffff167f8c5be1e5ebec7d5bd14f71427d1e84f3dd0314c0f7b2291e5b200ac8c7c3b925846040516107c29190610b8b565b60405180910390a35b50505050565b5f73ffffffffffffffffffffffffffffffffffffffff168373ffffffffffffffffffffffffffffffffffffffff1603610821578060025f8282546108159190610d78565b925050819055506108ef565b5f805f8573ffffffffffffffffffffffffffffffffffffffff1673ffffffffffffffffffffffffffffffffffffffff1681526020019081526020015f20549050818110156108aa578381836040517fe450d38c0000000000000000000000000000000000000000000000000000000081526004016108a193929190610cfd565b60405180910390fd5b8181035f808673ffffffffffffffffffffffffffffffffffffffff1673ffffffffffffffffffffffffffffffffffffffff1681526020019081526020015f2081905550505b5f73ffffffffffffffffffffffffffffffffffffffff168273ffffffffffffffffffffffffffffffffffffffff1603610936578060025f8282540392505081905550610980565b805f808473ffffffffffffffffffffffffffffffffffffffff1673ffffffffffffffffffffffffffffffffffffffff1681526020019081526020015f205f82825401925050819055505b8173ffffffffffffffffffffffffffffffffffffffff168373ffffffffffffffffffffffffffffffffffffffff167fddf252ad1be2c89b69c2b068fc378daa952ba7f163c4a11628f55a4df523b3ef836040516109dd9190610b8b565b60405180910390a3505050565b5f81519050919050565b5f82825260208201905092915050565b8281835e5f83830152505050565b5f601f19601f8301169050919050565b5f610a2c826109ea565b610a3681856109f4565b9350610a46818560208601610a04565b610a4f81610a12565b840191505092915050565b5f6020820190508181035f830152610a728184610a22565b905092915050565b5f80fd5b5f73ffffffffffffffffffffffffffffffffffffffff82169050919050565b5f610aa782610a7e565b9050919050565b610ab781610a9d565b8114610ac1575f80fd5b50565b5f81359050610ad281610aae565b92915050565b5f819050919050565b610aea81610ad8565b8114610af4575f80fd5b50565b5f81359050610b0581610ae1565b92915050565b5f8060408385031215610b2157610b20610a7a565b5b5f610b2e85828601610ac4565b9250506020610b3f85828601610af7565b9150509250929050565b5f8115159050919050565b610b5d81610b49565b82525050565b5f602082019050610b765f830184610b54565b92915050565b610b8581610ad8565b82525050565b5f602082019050610b9e5f830184610b7c565b92915050565b5f805f60608486031215610bbb57610bba610a7a565b5b5f610bc886828701610ac4565b9350506020610bd986828701610ac4565b9250506040610bea86828701610af7565b9150509250925092565b5f60ff82169050919050565b610c0981610bf4565b82525050565b5f602082019050610c225f830184610c00565b92915050565b5f60208284031215610c3d57610c3c610a7a565b5b5f610c4a84828501610ac4565b91505092915050565b5f8060408385031215610c6957610c68610a7a565b5b5f610c7685828601610ac4565b9250506020610c8785828601610ac4565b9150509250929050565b7f4e487b71000000000000000000000000000000000000000000000000000000005f52602260045260245ffd5b5f6002820490506001821680610cd557607f821691505b602082108103610ce857610ce7610c91565b5b50919050565b610cf781610a9d565b82525050565b5f606082019050610d105f830186610cee565b610d1d6020830185610b7c565b610d2a6040830184610b7c565b949350505050565b5f602082019050610d455f830184610cee565b92915050565b7f4e487b71000000000000000000000000000000000000000000000000000000005f52601160045260245ffd5b5f610d8282610ad8565b9150610d8d83610ad8565b9250828201905080821115610da557610da4610d4b565b5b9291505056fea26469706673582212208c64f6c94ba2bd4859c68fd4aa700dec433397be99e6803015485d5acbe116c964736f6c634300081a0033a264697066735822122043537f366397fac6f712032cd43296dda18807626d176d26cb93ed1e269be2f664736f6c634300081a0033",
					"opcodes": "PUSH1 0x80 PUSH1 0x40 MSTORE PUSH0 DUP1 PUSH1 0x14 PUSH2 0x100 EXP DUP2 SLOAD DUP2 PUSH1 0xFF MUL NOT AND SWAP1 DUP4 ISZERO ISZERO MUL OR SWAP1 SSTORE POP PUSH1 0xA PUSH1 0x1 SSTORE CALLVALUE DUP1 ISZERO PUSH1 0x2C JUMPI PUSH0 DUP1 REVERT JUMPDEST POP CALLER PUSH0 DUP1 PUSH2 0x100 EXP DUP2 SLOAD DUP2 PUSH20 0xFFFFFFFFFFFFFFFFFFFFFFFFFFFFFFFFFFFFFFFF MUL NOT AND SWAP1 DUP4 PUSH20 0xFFFFFFFFFFFFFFFFFFFFFFFFFFFFFFFFFFFFFFFF AND MUL OR SWAP1 SSTORE POP PUSH2 0x3DB1 DUP1 PUSH2 0x79 PUSH0 CODECOPY PUSH0 RETURN INVALID PUSH1 0x80 PUSH1 0x40 MSTORE CALLVALUE DUP1 ISZERO PUSH2 0xF JUMPI PUSH0 DUP1 REVERT JUMPDEST POP PUSH1 0x4 CALLDATASIZE LT PUSH2 0x12A JUMPI PUSH0 CALLDATALOAD PUSH1 0xE0 SHR DUP1 PUSH4 0x8DA5CB5B GT PUSH2 0xAB JUMPI DUP1 PUSH4 0xB759F954 GT PUSH2 0x6F JUMPI DUP1 PUSH4 0xB759F954 EQ PUSH2 0x348 JUMPI DUP1 PUSH4 0xDD62ED3E EQ PUSH2 0x364 JUMPI DUP1 PUSH4 0xEB97FFA2 EQ PUSH2 0x394 JUMPI DUP1 PUSH4 0xF0ACD184 EQ PUSH2 0x3B2 JUMPI DUP1 PUSH4 0xF3513A37 EQ PUSH2 0x3BC JUMPI PUSH2 0x12A JUMP JUMPDEST DUP1 PUSH4 0x8DA5CB5B EQ PUSH2 0x2A2 JUMPI DUP1 PUSH4 0x90D64271 EQ PUSH2 0x2C0 JUMPI DUP1 PUSH4 0xA6359308 EQ PUSH2 0x2DE JUMPI DUP1 PUSH4 0xA9EF507B EQ PUSH2 0x2FA JUMPI DUP1 PUSH4 0xB3A1C41A EQ PUSH2 0x32A JUMPI PUSH2 0x12A JUMP JUMPDEST DUP1 PUSH4 0x4D72CD12 GT PUSH2 0xF2 JUMPI DUP1 PUSH4 0x4D72CD12 EQ PUSH2 0x1D3 JUMPI DUP1 PUSH4 0x70A08231 EQ PUSH2 0x1F4 JUMPI DUP1 PUSH4 0x7AC64245 EQ PUSH2 0x224 JUMPI DUP1 PUSH4 0x7C1A4BCD EQ PUSH2 0x254 JUMPI DUP1 PUSH4 0x7DA0A948 EQ PUSH2 0x284 JUMPI PUSH2 0x12A JUMP JUMPDEST DUP1 PUSH4 0x1C427D7 EQ PUSH2 0x12E JUMPI DUP1 PUSH4 0x1CFF85E1 EQ PUSH2 0x14C JUMPI DUP1 PUSH4 0x204B317B EQ PUSH2 0x17F JUMPI DUP1 PUSH4 0x25129B13 EQ PUSH2 0x19B JUMPI DUP1 PUSH4 0x49EE56F9 EQ PUSH2 0x1B7 JUMPI JUMPDEST PUSH0 DUP1 REVERT JUMPDEST PUSH2 0x136 PUSH2 0x3DA JUMP JUMPDEST PUSH1 0x40 MLOAD PUSH2 0x143 SWAP2 SWAP1 PUSH2 0x1C54 JUMP JUMPDEST PUSH1 0x40 MLOAD DUP1 SWAP2 SUB SWAP1 RETURN JUMPDEST PUSH2 0x166 PUSH1 0x4 DUP1 CALLDATASIZE SUB DUP2 ADD SWAP1 PUSH2 0x161 SWAP2 SWAP1 PUSH2 0x1CA4 JUMP JUMPDEST PUSH2 0x3FF JUMP JUMPDEST PUSH1 0x40 MLOAD PUSH2 0x176 SWAP5 SWAP4 SWAP3 SWAP2 SWAP1 PUSH2 0x1D18 JUMP JUMPDEST PUSH1 0x40 MLOAD DUP1 SWAP2 SUB SWAP1 RETURN JUMPDEST PUSH2 0x199 PUSH1 0x4 DUP1 CALLDATASIZE SUB DUP2 ADD SWAP1 PUSH2 0x194 SWAP2 SWAP1 PUSH2 0x1D5B JUMP JUMPDEST PUSH2 0x465 JUMP JUMPDEST STOP JUMPDEST PUSH2 0x1B5 PUSH1 0x4 DUP1 CALLDATASIZE SUB DUP2 ADD SWAP1 PUSH2 0x1B0 SWAP2 SWAP1 PUSH2 0x1CA4 JUMP JUMPDEST PUSH2 0x74F JUMP JUMPDEST STOP JUMPDEST PUSH2 0x1D1 PUSH1 0x4 DUP1 CALLDATASIZE SUB DUP2 ADD SWAP1 PUSH2 0x1CC SWAP2 SWAP1 PUSH2 0x1CA4 JUMP JUMPDEST PUSH2 0xAD3 JUMP JUMPDEST STOP JUMPDEST PUSH2 0x1DB PUSH2 0xCF1 JUMP JUMPDEST PUSH1 0x40 MLOAD PUSH2 0x1EB SWAP5 SWAP4 SWAP3 SWAP2 SWAP1 PUSH2 0x1FBE JUMP JUMPDEST PUSH1 0x40 MLOAD DUP1 SWAP2 SUB SWAP1 RETURN JUMPDEST PUSH2 0x20E PUSH1 0x4 DUP1 CALLDATASIZE SUB DUP2 ADD SWAP1 PUSH2 0x209 SWAP2 SWAP1 PUSH2 0x2047 JUMP JUMPDEST PUSH2 0xF5D JUMP JUMPDEST PUSH1 0x40 MLOAD PUSH2 0x21B SWAP2 SWAP1 PUSH2 0x2072 JUMP JUMPDEST PUSH1 0x40 MLOAD DUP1 SWAP2 SUB SWAP1 RETURN JUMPDEST PUSH2 0x23E PUSH1 0x4 DUP1 CALLDATASIZE SUB DUP2 ADD SWAP1 PUSH2 0x239 SWAP2 SWAP1 PUSH2 0x1CA4 JUMP JUMPDEST PUSH2 0xF72 JUMP JUMPDEST PUSH1 0x40 MLOAD PUSH2 0x24B SWAP2 SWAP1 PUSH2 0x208B JUMP JUMPDEST PUSH1 0x40 MLOAD DUP1 SWAP2 SUB SWAP1 RETURN JUMPDEST PUSH2 0x26E PUSH1 0x4 DUP1 CALLDATASIZE SUB DUP2 ADD SWAP1 PUSH2 0x269 SWAP2 SWAP1 PUSH2 0x2047 JUMP JUMPDEST PUSH2 0xFAD JUMP JUMPDEST PUSH1 0x40 MLOAD PUSH2 0x27B SWAP2 SWAP1 PUSH2 0x2072 JUMP JUMPDEST PUSH1 0x40 MLOAD DUP1 SWAP2 SUB SWAP1 RETURN JUMPDEST PUSH2 0x28C PUSH2 0x104E JUMP JUMPDEST PUSH1 0x40 MLOAD PUSH2 0x299 SWAP2 SWAP1 PUSH2 0x2072 JUMP JUMPDEST PUSH1 0x40 MLOAD DUP1 SWAP2 SUB SWAP1 RETURN JUMPDEST PUSH2 0x2AA PUSH2 0x1054 JUMP JUMPDEST PUSH1 0x40 MLOAD PUSH2 0x2B7 SWAP2 SWAP1 PUSH2 0x208B JUMP JUMPDEST PUSH1 0x40 MLOAD DUP1 SWAP2 SUB SWAP1 RETURN JUMPDEST PUSH2 0x2C8 PUSH2 0x107B JUMP JUMPDEST PUSH1 0x40 MLOAD PUSH2 0x2D5 SWAP2 SWAP1 PUSH2 0x20A4 JUMP JUMPDEST PUSH1 0x40 MLOAD DUP1 SWAP2 SUB SWAP1 RETURN JUMPDEST PUSH2 0x2F8 PUSH1 0x4 DUP1 CALLDATASIZE SUB DUP2 ADD SWAP1 PUSH2 0x2F3 SWAP2 SWAP1 PUSH2 0x1CA4 JUMP JUMPDEST PUSH2 0x108D JUMP JUMPDEST STOP JUMPDEST PUSH2 0x314 PUSH1 0x4 DUP1 CALLDATASIZE SUB DUP2 ADD SWAP1 PUSH2 0x30F SWAP2 SWAP1 PUSH2 0x1D5B JUMP JUMPDEST PUSH2 0x155D JUMP JUMPDEST PUSH1 0x40 MLOAD PUSH2 0x321 SWAP2 SWAP1 PUSH2 0x2072 JUMP JUMPDEST PUSH1 0x40 MLOAD DUP1 SWAP2 SUB SWAP1 RETURN JUMPDEST PUSH2 0x332 PUSH2 0x1844 JUMP JUMPDEST PUSH1 0x40 MLOAD PUSH2 0x33F SWAP2 SWAP1 PUSH2 0x208B JUMP JUMPDEST PUSH1 0x40 MLOAD DUP1 SWAP2 SUB SWAP1 RETURN JUMPDEST PUSH2 0x362 PUSH1 0x4 DUP1 CALLDATASIZE SUB DUP2 ADD SWAP1 PUSH2 0x35D SWAP2 SWAP1 PUSH2 0x1CA4 JUMP JUMPDEST PUSH2 0x1869 JUMP JUMPDEST STOP JUMPDEST PUSH2 0x37E PUSH1 0x4 DUP1 CALLDATASIZE SUB DUP2 ADD SWAP1 PUSH2 0x379 SWAP2 SWAP1 PUSH2 0x20BD JUMP JUMPDEST PUSH2 0x1947 JUMP JUMPDEST PUSH1 0x40 MLOAD PUSH2 0x38B SWAP2 SWAP1 PUSH2 0x2072 JUMP JUMPDEST PUSH1 0x40 MLOAD DUP1 SWAP2 SUB SWAP1 RETURN JUMPDEST PUSH2 0x39C PUSH2 0x1967 JUMP JUMPDEST PUSH1 0x40 MLOAD PUSH2 0x3A9 SWAP2 SWAP1 PUSH2 0x2072 JUMP JUMPDEST PUSH1 0x40 MLOAD DUP1 SWAP2 SUB SWAP1 RETURN JUMPDEST PUSH2 0x3BA PUSH2 0x19FB JUMP JUMPDEST STOP JUMPDEST PUSH2 0x3C4 PUSH2 0x1AA0 JUMP JUMPDEST PUSH1 0x40 MLOAD PUSH2 0x3D1 SWAP2 SWAP1 PUSH2 0x20FB JUMP JUMPDEST PUSH1 0x40 MLOAD DUP1 SWAP2 SUB SWAP1 RETURN JUMPDEST PUSH1 0x2 PUSH0 SWAP1 SLOAD SWAP1 PUSH2 0x100 EXP SWAP1 DIV PUSH20 0xFFFFFFFFFFFFFFFFFFFFFFFFFFFFFFFFFFFFFFFF AND DUP2 JUMP JUMPDEST PUSH1 0x7 DUP2 DUP2 SLOAD DUP2 LT PUSH2 0x40E JUMPI PUSH0 DUP1 REVERT JUMPDEST SWAP1 PUSH0 MSTORE PUSH1 0x20 PUSH0 KECCAK256 SWAP1 PUSH1 0x5 MUL ADD PUSH0 SWAP2 POP SWAP1 POP DUP1 PUSH0 ADD PUSH0 SWAP1 SLOAD SWAP1 PUSH2 0x100 EXP SWAP1 DIV PUSH20 0xFFFFFFFFFFFFFFFFFFFFFFFFFFFFFFFFFFFFFFFF AND SWAP1 DUP1 PUSH1 0x1 ADD SLOAD SWAP1 DUP1 PUSH1 0x2 ADD SLOAD SWAP1 DUP1 PUSH1 0x4 ADD PUSH0 SWAP1 SLOAD SWAP1 PUSH2 0x100 EXP SWAP1 DIV PUSH1 0xFF AND SWAP1 POP DUP5 JUMP JUMPDEST PUSH1 0x1 SLOAD PUSH1 0x2 PUSH0 SWAP1 SLOAD SWAP1 PUSH2 0x100 EXP SWAP1 DIV PUSH20 0xFFFFFFFFFFFFFFFFFFFFFFFFFFFFFFFFFFFFFFFF AND PUSH20 0xFFFFFFFFFFFFFFFFFFFFFFFFFFFFFFFFFFFFFFFF AND PUSH4 0x70A08231 CALLER PUSH1 0x40 MLOAD DUP3 PUSH4 0xFFFFFFFF AND PUSH1 0xE0 SHL DUP2 MSTORE PUSH1 0x4 ADD PUSH2 0x4C2 SWAP2 SWAP1 PUSH2 0x208B JUMP JUMPDEST PUSH1 0x20 PUSH1 0x40 MLOAD DUP1 DUP4 SUB DUP2 DUP7 GAS STATICCALL ISZERO DUP1 ISZERO PUSH2 0x4DD JUMPI RETURNDATASIZE PUSH0 DUP1 RETURNDATACOPY RETURNDATASIZE PUSH0 REVERT JUMPDEST POP POP POP POP PUSH1 0x40 MLOAD RETURNDATASIZE PUSH1 0x1F NOT PUSH1 0x1F DUP3 ADD AND DUP3 ADD DUP1 PUSH1 0x40 MSTORE POP DUP2 ADD SWAP1 PUSH2 0x501 SWAP2 SWAP1 PUSH2 0x212F JUMP JUMPDEST LT ISZERO PUSH2 0x542 JUMPI PUSH1 0x40 MLOAD PUSH32 0x8C379A000000000000000000000000000000000000000000000000000000000 DUP2 MSTORE PUSH1 0x4 ADD PUSH2 0x539 SWAP1 PUSH2 0x21B4 JUMP JUMPDEST PUSH1 0x40 MLOAD DUP1 SWAP2 SUB SWAP1 REVERT JUMPDEST PUSH1 0x60 PUSH1 0x7 PUSH1 0x40 MLOAD DUP1 PUSH1 0xA0 ADD PUSH1 0x40 MSTORE DUP1 CALLER PUSH20 0xFFFFFFFFFFFFFFFFFFFFFFFFFFFFFFFFFFFFFFFF AND DUP2 MSTORE PUSH1 0x20 ADD DUP6 DUP2 MSTORE PUSH1 0x20 ADD DUP5 DUP2 MSTORE PUSH1 0x20 ADD DUP4 DUP2 MSTORE PUSH1 0x20 ADD PUSH1 0x1 ISZERO ISZERO DUP2 MSTORE POP SWAP1 DUP1 PUSH1 0x1 DUP2 SLOAD ADD DUP1 DUP3 SSTORE DUP1 SWAP2 POP POP PUSH1 0x1 SWAP1 SUB SWAP1 PUSH0 MSTORE PUSH1 0x20 PUSH0 KECCAK256 SWAP1 PUSH1 0x5 MUL ADD PUSH0 SWAP1 SWAP2 SWAP1 SWAP2 SWAP1 SWAP2 POP PUSH0 DUP3 ADD MLOAD DUP2 PUSH0 ADD PUSH0 PUSH2 0x100 EXP DUP2 SLOAD DUP2 PUSH20 0xFFFFFFFFFFFFFFFFFFFFFFFFFFFFFFFFFFFFFFFF MUL NOT AND SWAP1 DUP4 PUSH20 0xFFFFFFFFFFFFFFFFFFFFFFFFFFFFFFFFFFFFFFFF AND MUL OR SWAP1 SSTORE POP PUSH1 0x20 DUP3 ADD MLOAD DUP2 PUSH1 0x1 ADD SSTORE PUSH1 0x40 DUP3 ADD MLOAD DUP2 PUSH1 0x2 ADD SSTORE PUSH1 0x60 DUP3 ADD MLOAD DUP2 PUSH1 0x3 ADD SWAP1 DUP1 MLOAD SWAP1 PUSH1 0x20 ADD SWAP1 PUSH2 0x620 SWAP3 SWAP2 SWAP1 PUSH2 0x1B2B JUMP JUMPDEST POP PUSH1 0x80 DUP3 ADD MLOAD DUP2 PUSH1 0x4 ADD PUSH0 PUSH2 0x100 EXP DUP2 SLOAD DUP2 PUSH1 0xFF MUL NOT AND SWAP1 DUP4 ISZERO ISZERO MUL OR SWAP1 SSTORE POP POP POP PUSH0 PUSH1 0x1 PUSH1 0x7 DUP1 SLOAD SWAP1 POP PUSH2 0x655 SWAP2 SWAP1 PUSH2 0x21FF JUMP JUMPDEST SWAP1 POP PUSH1 0x2 PUSH0 SWAP1 SLOAD SWAP1 PUSH2 0x100 EXP SWAP1 DIV PUSH20 0xFFFFFFFFFFFFFFFFFFFFFFFFFFFFFFFFFFFFFFFF AND PUSH20 0xFFFFFFFFFFFFFFFFFFFFFFFFFFFFFFFFFFFFFFFF AND PUSH4 0x23B872DD CALLER ADDRESS PUSH1 0x1 SLOAD PUSH1 0x40 MLOAD DUP5 PUSH4 0xFFFFFFFF AND PUSH1 0xE0 SHL DUP2 MSTORE PUSH1 0x4 ADD PUSH2 0x6B7 SWAP4 SWAP3 SWAP2 SWAP1 PUSH2 0x2232 JUMP JUMPDEST PUSH1 0x20 PUSH1 0x40 MLOAD DUP1 DUP4 SUB DUP2 PUSH0 DUP8 GAS CALL ISZERO DUP1 ISZERO PUSH2 0x6D3 JUMPI RETURNDATASIZE PUSH0 DUP1 RETURNDATACOPY RETURNDATASIZE PUSH0 REVERT JUMPDEST POP POP POP POP PUSH1 0x40 MLOAD RETURNDATASIZE PUSH1 0x1F NOT PUSH1 0x1F DUP3 ADD AND DUP3 ADD DUP1 PUSH1 0x40 MSTORE POP DUP2 ADD SWAP1 PUSH2 0x6F7 SWAP2 SWAP1 PUSH2 0x2291 JUMP JUMPDEST POP CALLER PUSH20 0xFFFFFFFFFFFFFFFFFFFFFFFFFFFFFFFFFFFFFFFF AND DUP2 PUSH32 0x571A5DFC09C77BBE59E7A00B078FEC1A53F090E992CCACDE1856DAB24624C968 PUSH1 0x1 SLOAD PUSH1 0x40 MLOAD PUSH2 0x741 SWAP2 SWAP1 PUSH2 0x2072 JUMP JUMPDEST PUSH1 0x40 MLOAD DUP1 SWAP2 SUB SWAP1 LOG3 POP POP POP POP JUMP JUMPDEST CALLER PUSH20 0xFFFFFFFFFFFFFFFFFFFFFFFFFFFFFFFFFFFFFFFF AND PUSH2 0x76E PUSH2 0x1054 JUMP JUMPDEST PUSH20 0xFFFFFFFFFFFFFFFFFFFFFFFFFFFFFFFFFFFFFFFF AND EQ PUSH2 0x7C4 JUMPI PUSH1 0x40 MLOAD PUSH32 0x8C379A000000000000000000000000000000000000000000000000000000000 DUP2 MSTORE PUSH1 0x4 ADD PUSH2 0x7BB SWAP1 PUSH2 0x2306 JUMP JUMPDEST PUSH1 0x40 MLOAD DUP1 SWAP2 SUB SWAP1 REVERT JUMPDEST PUSH0 PUSH1 0x14 SWAP1 SLOAD SWAP1 PUSH2 0x100 EXP SWAP1 DIV PUSH1 0xFF AND ISZERO PUSH2 0x813 JUMPI PUSH1 0x40 MLOAD PUSH32 0x8C379A000000000000000000000000000000000000000000000000000000000 DUP2 MSTORE PUSH1 0x4 ADD PUSH2 0x80A SWAP1 PUSH2 0x2394 JUMP JUMPDEST PUSH1 0x40 MLOAD DUP1 SWAP2 SUB SWAP1 REVERT JUMPDEST PUSH0 DUP2 PUSH1 0x40 MLOAD PUSH2 0x821 SWAP1 PUSH2 0x1BB2 JUMP JUMPDEST PUSH2 0x82B SWAP2 SWAP1 PUSH2 0x2072 JUMP JUMPDEST PUSH1 0x40 MLOAD DUP1 SWAP2 SUB SWAP1 PUSH0 CREATE DUP1 ISZERO DUP1 ISZERO PUSH2 0x844 JUMPI RETURNDATASIZE PUSH0 DUP1 RETURNDATACOPY RETURNDATASIZE PUSH0 REVERT JUMPDEST POP SWAP1 POP DUP1 PUSH1 0x3 PUSH0 PUSH2 0x100 EXP DUP2 SLOAD DUP2 PUSH20 0xFFFFFFFFFFFFFFFFFFFFFFFFFFFFFFFFFFFFFFFF MUL NOT AND SWAP1 DUP4 PUSH20 0xFFFFFFFFFFFFFFFFFFFFFFFFFFFFFFFFFFFFFFFF AND MUL OR SWAP1 SSTORE POP PUSH1 0x3 PUSH0 SWAP1 SLOAD SWAP1 PUSH2 0x100 EXP SWAP1 DIV PUSH20 0xFFFFFFFFFFFFFFFFFFFFFFFFFFFFFFFFFFFFFFFF AND PUSH1 0x2 PUSH0 PUSH2 0x100 EXP DUP2 SLOAD DUP2 PUSH20 0xFFFFFFFFFFFFFFFFFFFFFFFFFFFFFFFFFFFFFFFF MUL NOT AND SWAP1 DUP4 PUSH20 0xFFFFFFFFFFFFFFFFFFFFFFFFFFFFFFFFFFFFFFFF AND MUL OR SWAP1 SSTORE POP PUSH1 0x2 PUSH0 SWAP1 SLOAD SWAP1 PUSH2 0x100 EXP SWAP1 DIV PUSH20 0xFFFFFFFFFFFFFFFFFFFFFFFFFFFFFFFFFFFFFFFF AND PUSH20 0xFFFFFFFFFFFFFFFFFFFFFFFFFFFFFFFFFFFFFFFF AND PUSH4 0xA9059CBB ADDRESS PUSH9 0x56BC75E2D63100000 PUSH1 0x40 MLOAD DUP4 PUSH4 0xFFFFFFFF AND PUSH1 0xE0 SHL DUP2 MSTORE PUSH1 0x4 ADD PUSH2 0x94D SWAP3 SWAP2 SWAP1 PUSH2 0x23EB JUMP JUMPDEST PUSH1 0x20 PUSH1 0x40 MLOAD DUP1 DUP4 SUB DUP2 PUSH0 DUP8 GAS CALL ISZERO DUP1 ISZERO PUSH2 0x969 JUMPI RETURNDATASIZE PUSH0 DUP1 RETURNDATACOPY RETURNDATASIZE PUSH0 REVERT JUMPDEST POP POP POP POP PUSH1 0x40 MLOAD RETURNDATASIZE PUSH1 0x1F NOT PUSH1 0x1F DUP3 ADD AND DUP3 ADD DUP1 PUSH1 0x40 MSTORE POP DUP2 ADD SWAP1 PUSH2 0x98D SWAP2 SWAP1 PUSH2 0x2291 JUMP JUMPDEST POP PUSH1 0x2 PUSH0 SWAP1 SLOAD SWAP1 PUSH2 0x100 EXP SWAP1 DIV PUSH20 0xFFFFFFFFFFFFFFFFFFFFFFFFFFFFFFFFFFFFFFFF AND PUSH20 0xFFFFFFFFFFFFFFFFFFFFFFFFFFFFFFFFFFFFFFFF AND PUSH4 0x18160DDD PUSH1 0x40 MLOAD DUP2 PUSH4 0xFFFFFFFF AND PUSH1 0xE0 SHL DUP2 MSTORE PUSH1 0x4 ADD PUSH1 0x20 PUSH1 0x40 MLOAD DUP1 DUP4 SUB DUP2 DUP7 GAS STATICCALL ISZERO DUP1 ISZERO PUSH2 0x9F8 JUMPI RETURNDATASIZE PUSH0 DUP1 RETURNDATACOPY RETURNDATASIZE PUSH0 REVERT JUMPDEST POP POP POP POP PUSH1 0x40 MLOAD RETURNDATASIZE PUSH1 0x1F NOT PUSH1 0x1F DUP3 ADD AND DUP3 ADD DUP1 PUSH1 0x40 MSTORE POP DUP2 ADD SWAP1 PUSH2 0xA1C SWAP2 SWAP1 PUSH2 0x212F JUMP JUMPDEST PUSH1 0x5 PUSH0 ADDRESS PUSH20 0xFFFFFFFFFFFFFFFFFFFFFFFFFFFFFFFFFFFFFFFF AND PUSH20 0xFFFFFFFFFFFFFFFFFFFFFFFFFFFFFFFFFFFFFFFF AND DUP2 MSTORE PUSH1 0x20 ADD SWAP1 DUP2 MSTORE PUSH1 0x20 ADD PUSH0 KECCAK256 DUP2 SWAP1 SSTORE POP PUSH1 0x1 PUSH0 PUSH1 0x14 PUSH2 0x100 EXP DUP2 SLOAD DUP2 PUSH1 0xFF MUL NOT AND SWAP1 DUP4 ISZERO ISZERO MUL OR SWAP1 SSTORE POP PUSH32 0x5A328B2A6CA99D3F214E0A041DCD254E948AA9A2E1B8B97233531B6A1D1872C9 PUSH1 0x3 PUSH0 SWAP1 SLOAD SWAP1 PUSH2 0x100 EXP SWAP1 DIV PUSH20 0xFFFFFFFFFFFFFFFFFFFFFFFFFFFFFFFFFFFFFFFF AND PUSH1 0x40 MLOAD PUSH2 0xAC7 SWAP2 SWAP1 PUSH2 0x208B JUMP JUMPDEST PUSH1 0x40 MLOAD DUP1 SWAP2 SUB SWAP1 LOG1 POP POP JUMP JUMPDEST PUSH0 PUSH1 0x7 DUP3 DUP2 SLOAD DUP2 LT PUSH2 0xAE8 JUMPI PUSH2 0xAE7 PUSH2 0x2412 JUMP JUMPDEST JUMPDEST SWAP1 PUSH0 MSTORE PUSH1 0x20 PUSH0 KECCAK256 SWAP1 PUSH1 0x5 MUL ADD SWAP1 POP DUP1 PUSH1 0x1 ADD SLOAD PUSH1 0x2 PUSH0 SWAP1 SLOAD SWAP1 PUSH2 0x100 EXP SWAP1 DIV PUSH20 0xFFFFFFFFFFFFFFFFFFFFFFFFFFFFFFFFFFFFFFFF AND PUSH20 0xFFFFFFFFFFFFFFFFFFFFFFFFFFFFFFFFFFFFFFFF AND PUSH4 0x70A08231 CALLER PUSH1 0x40 MLOAD DUP3 PUSH4 0xFFFFFFFF AND PUSH1 0xE0 SHL DUP2 MSTORE PUSH1 0x4 ADD PUSH2 0xB55 SWAP2 SWAP1 PUSH2 0x208B JUMP JUMPDEST PUSH1 0x20 PUSH1 0x40 MLOAD DUP1 DUP4 SUB DUP2 DUP7 GAS STATICCALL ISZERO DUP1 ISZERO PUSH2 0xB70 JUMPI RETURNDATASIZE PUSH0 DUP1 RETURNDATACOPY RETURNDATASIZE PUSH0 REVERT JUMPDEST POP POP POP POP PUSH1 0x40 MLOAD RETURNDATASIZE PUSH1 0x1F NOT PUSH1 0x1F DUP3 ADD AND DUP3 ADD DUP1 PUSH1 0x40 MSTORE POP DUP2 ADD SWAP1 PUSH2 0xB94 SWAP2 SWAP1 PUSH2 0x212F JUMP JUMPDEST LT ISZERO PUSH2 0xBD5 JUMPI PUSH1 0x40 MLOAD PUSH32 0x8C379A000000000000000000000000000000000000000000000000000000000 DUP2 MSTORE PUSH1 0x4 ADD PUSH2 0xBCC SWAP1 PUSH2 0x21B4 JUMP JUMPDEST PUSH1 0x40 MLOAD DUP1 SWAP2 SUB SWAP1 REVERT JUMPDEST PUSH1 0x2 PUSH0 SWAP1 SLOAD SWAP1 PUSH2 0x100 EXP SWAP1 DIV PUSH20 0xFFFFFFFFFFFFFFFFFFFFFFFFFFFFFFFFFFFFFFFF AND PUSH20 0xFFFFFFFFFFFFFFFFFFFFFFFFFFFFFFFFFFFFFFFF AND PUSH4 0x23B872DD CALLER DUP4 PUSH0 ADD PUSH0 SWAP1 SLOAD SWAP1 PUSH2 0x100 EXP SWAP1 DIV PUSH20 0xFFFFFFFFFFFFFFFFFFFFFFFFFFFFFFFFFFFFFFFF AND DUP5 PUSH1 0x1 ADD SLOAD PUSH1 0x40 MLOAD DUP5 PUSH4 0xFFFFFFFF AND PUSH1 0xE0 SHL DUP2 MSTORE PUSH1 0x4 ADD PUSH2 0xC59 SWAP4 SWAP3 SWAP2 SWAP1 PUSH2 0x2232 JUMP JUMPDEST PUSH1 0x20 PUSH1 0x40 MLOAD DUP1 DUP4 SUB DUP2 PUSH0 DUP8 GAS CALL ISZERO DUP1 ISZERO PUSH2 0xC75 JUMPI RETURNDATASIZE PUSH0 DUP1 RETURNDATACOPY RETURNDATASIZE PUSH0 REVERT JUMPDEST POP POP POP POP PUSH1 0x40 MLOAD RETURNDATASIZE PUSH1 0x1F NOT PUSH1 0x1F DUP3 ADD AND DUP3 ADD DUP1 PUSH1 0x40 MSTORE POP DUP2 ADD SWAP1 PUSH2 0xC99 SWAP2 SWAP1 PUSH2 0x2291 JUMP JUMPDEST POP CALLER PUSH20 0xFFFFFFFFFFFFFFFFFFFFFFFFFFFFFFFFFFFFFFFF AND DUP3 PUSH32 0x313D5C7BF54E15A1B7DC24A51B097C6458663A33E7A4BE386F80FEA411DCDA65 DUP4 PUSH1 0x1 ADD SLOAD PUSH1 0x40 MLOAD PUSH2 0xCE5 SWAP2 SWAP1 PUSH2 0x2072 JUMP JUMPDEST PUSH1 0x40 MLOAD DUP1 SWAP2 SUB SWAP1 LOG3 POP POP JUMP JUMPDEST PUSH1 0x60 DUP1 PUSH1 0x60 DUP1 PUSH0 PUSH1 0x7 DUP1 SLOAD SWAP1 POP SWAP1 POP DUP1 PUSH8 0xFFFFFFFFFFFFFFFF DUP2 GT ISZERO PUSH2 0xD1A JUMPI PUSH2 0xD19 PUSH2 0x243F JUMP JUMPDEST JUMPDEST PUSH1 0x40 MLOAD SWAP1 DUP1 DUP3 MSTORE DUP1 PUSH1 0x20 MUL PUSH1 0x20 ADD DUP3 ADD PUSH1 0x40 MSTORE DUP1 ISZERO PUSH2 0xD48 JUMPI DUP2 PUSH1 0x20 ADD PUSH1 0x20 DUP3 MUL DUP1 CALLDATASIZE DUP4 CALLDATACOPY DUP1 DUP3 ADD SWAP2 POP POP SWAP1 POP JUMPDEST POP SWAP5 POP DUP1 PUSH8 0xFFFFFFFFFFFFFFFF DUP2 GT ISZERO PUSH2 0xD65 JUMPI PUSH2 0xD64 PUSH2 0x243F JUMP JUMPDEST JUMPDEST PUSH1 0x40 MLOAD SWAP1 DUP1 DUP3 MSTORE DUP1 PUSH1 0x20 MUL PUSH1 0x20 ADD DUP3 ADD PUSH1 0x40 MSTORE DUP1 ISZERO PUSH2 0xD93 JUMPI DUP2 PUSH1 0x20 ADD PUSH1 0x20 DUP3 MUL DUP1 CALLDATASIZE DUP4 CALLDATACOPY DUP1 DUP3 ADD SWAP2 POP POP SWAP1 POP JUMPDEST POP SWAP4 POP DUP1 PUSH8 0xFFFFFFFFFFFFFFFF DUP2 GT ISZERO PUSH2 0xDB0 JUMPI PUSH2 0xDAF PUSH2 0x243F JUMP JUMPDEST JUMPDEST PUSH1 0x40 MLOAD SWAP1 DUP1 DUP3 MSTORE DUP1 PUSH1 0x20 MUL PUSH1 0x20 ADD DUP3 ADD PUSH1 0x40 MSTORE DUP1 ISZERO PUSH2 0xDDE JUMPI DUP2 PUSH1 0x20 ADD PUSH1 0x20 DUP3 MUL DUP1 CALLDATASIZE DUP4 CALLDATACOPY DUP1 DUP3 ADD SWAP2 POP POP SWAP1 POP JUMPDEST POP SWAP3 POP DUP1 PUSH8 0xFFFFFFFFFFFFFFFF DUP2 GT ISZERO PUSH2 0xDFB JUMPI PUSH2 0xDFA PUSH2 0x243F JUMP JUMPDEST JUMPDEST PUSH1 0x40 MLOAD SWAP1 DUP1 DUP3 MSTORE DUP1 PUSH1 0x20 MUL PUSH1 0x20 ADD DUP3 ADD PUSH1 0x40 MSTORE DUP1 ISZERO PUSH2 0xE29 JUMPI DUP2 PUSH1 0x20 ADD PUSH1 0x20 DUP3 MUL DUP1 CALLDATASIZE DUP4 CALLDATACOPY DUP1 DUP3 ADD SWAP2 POP POP SWAP1 POP JUMPDEST POP SWAP2 POP PUSH0 JUMPDEST DUP2 DUP2 LT ISZERO PUSH2 0xF55 JUMPI PUSH0 PUSH1 0x7 DUP3 DUP2 SLOAD DUP2 LT PUSH2 0xE4B JUMPI PUSH2 0xE4A PUSH2 0x2412 JUMP JUMPDEST JUMPDEST SWAP1 PUSH0 MSTORE PUSH1 0x20 PUSH0 KECCAK256 SWAP1 PUSH1 0x5 MUL ADD SWAP1 POP DUP1 PUSH0 ADD PUSH0 SWAP1 SLOAD SWAP1 PUSH2 0x100 EXP SWAP1 DIV PUSH20 0xFFFFFFFFFFFFFFFFFFFFFFFFFFFFFFFFFFFFFFFF AND DUP8 DUP4 DUP2 MLOAD DUP2 LT PUSH2 0xE8F JUMPI PUSH2 0xE8E PUSH2 0x2412 JUMP JUMPDEST JUMPDEST PUSH1 0x20 MUL PUSH1 0x20 ADD ADD SWAP1 PUSH20 0xFFFFFFFFFFFFFFFFFFFFFFFFFFFFFFFFFFFFFFFF AND SWAP1 DUP2 PUSH20 0xFFFFFFFFFFFFFFFFFFFFFFFFFFFFFFFFFFFFFFFF AND DUP2 MSTORE POP POP DUP1 PUSH1 0x1 ADD SLOAD DUP7 DUP4 DUP2 MLOAD DUP2 LT PUSH2 0xEE1 JUMPI PUSH2 0xEE0 PUSH2 0x2412 JUMP JUMPDEST JUMPDEST PUSH1 0x20 MUL PUSH1 0x20 ADD ADD DUP2 DUP2 MSTORE POP POP DUP1 PUSH1 0x2 ADD SLOAD DUP6 DUP4 DUP2 MLOAD DUP2 LT PUSH2 0xF05 JUMPI PUSH2 0xF04 PUSH2 0x2412 JUMP JUMPDEST JUMPDEST PUSH1 0x20 MUL PUSH1 0x20 ADD ADD DUP2 DUP2 MSTORE POP POP DUP1 PUSH1 0x4 ADD PUSH0 SWAP1 SLOAD SWAP1 PUSH2 0x100 EXP SWAP1 DIV PUSH1 0xFF AND DUP5 DUP4 DUP2 MLOAD DUP2 LT PUSH2 0xF35 JUMPI PUSH2 0xF34 PUSH2 0x2412 JUMP JUMPDEST JUMPDEST PUSH1 0x20 MUL PUSH1 0x20 ADD ADD SWAP1 ISZERO ISZERO SWAP1 DUP2 ISZERO ISZERO DUP2 MSTORE POP POP POP DUP1 DUP1 PUSH1 0x1 ADD SWAP2 POP POP PUSH2 0xE2E JUMP JUMPDEST POP POP SWAP1 SWAP2 SWAP3 SWAP4 JUMP JUMPDEST PUSH1 0x5 PUSH1 0x20 MSTORE DUP1 PUSH0 MSTORE PUSH1 0x40 PUSH0 KECCAK256 PUSH0 SWAP2 POP SWAP1 POP SLOAD DUP2 JUMP JUMPDEST PUSH1 0x4 DUP2 DUP2 SLOAD DUP2 LT PUSH2 0xF81 JUMPI PUSH0 DUP1 REVERT JUMPDEST SWAP1 PUSH0 MSTORE PUSH1 0x20 PUSH0 KECCAK256 ADD PUSH0 SWAP2 POP SLOAD SWAP1 PUSH2 0x100 EXP SWAP1 DIV PUSH20 0xFFFFFFFFFFFFFFFFFFFFFFFFFFFFFFFFFFFFFFFF AND DUP2 JUMP JUMPDEST PUSH0 PUSH1 0x2 PUSH0 SWAP1 SLOAD SWAP1 PUSH2 0x100 EXP SWAP1 DIV PUSH20 0xFFFFFFFFFFFFFFFFFFFFFFFFFFFFFFFFFFFFFFFF AND PUSH20 0xFFFFFFFFFFFFFFFFFFFFFFFFFFFFFFFFFFFFFFFF AND PUSH4 0x70A08231 DUP4 PUSH1 0x40 MLOAD DUP3 PUSH4 0xFFFFFFFF AND PUSH1 0xE0 SHL DUP2 MSTORE PUSH1 0x4 ADD PUSH2 0x1008 SWAP2 SWAP1 PUSH2 0x208B JUMP JUMPDEST PUSH1 0x20 PUSH1 0x40 MLOAD DUP1 DUP4 SUB DUP2 DUP7 GAS STATICCALL ISZERO DUP1 ISZERO PUSH2 0x1023 JUMPI RETURNDATASIZE PUSH0 DUP1 RETURNDATACOPY RETURNDATASIZE PUSH0 REVERT JUMPDEST POP POP POP POP PUSH1 0x40 MLOAD RETURNDATASIZE PUSH1 0x1F NOT PUSH1 0x1F DUP3 ADD AND DUP3 ADD DUP1 PUSH1 0x40 MSTORE POP DUP2 ADD SWAP1 PUSH2 0x1047 SWAP2 SWAP1 PUSH2 0x212F JUMP JUMPDEST SWAP1 POP SWAP2 SWAP1 POP JUMP JUMPDEST PUSH1 0x1 SLOAD DUP2 JUMP JUMPDEST PUSH0 DUP1 PUSH0 SWAP1 SLOAD SWAP1 PUSH2 0x100 EXP SWAP1 DIV PUSH20 0xFFFFFFFFFFFFFFFFFFFFFFFFFFFFFFFFFFFFFFFF AND SWAP1 POP SWAP1 JUMP JUMPDEST PUSH0 PUSH1 0x14 SWAP1 SLOAD SWAP1 PUSH2 0x100 EXP SWAP1 DIV PUSH1 0xFF AND DUP2 JUMP JUMPDEST PUSH0 PUSH1 0x7 DUP3 DUP2 SLOAD DUP2 LT PUSH2 0x10A2 JUMPI PUSH2 0x10A1 PUSH2 0x2412 JUMP JUMPDEST JUMPDEST SWAP1 PUSH0 MSTORE PUSH1 0x20 PUSH0 KECCAK256 SWAP1 PUSH1 0x5 MUL ADD SWAP1 POP DUP1 PUSH1 0x4 ADD PUSH0 SWAP1 SLOAD SWAP1 PUSH2 0x100 EXP SWAP1 DIV PUSH1 0xFF AND ISZERO PUSH2 0x1101 JUMPI PUSH1 0x40 MLOAD PUSH32 0x8C379A000000000000000000000000000000000000000000000000000000000 DUP2 MSTORE PUSH1 0x4 ADD PUSH2 0x10F8 SWAP1 PUSH2 0x24B6 JUMP JUMPDEST PUSH1 0x40 MLOAD DUP1 SWAP2 SUB SWAP1 REVERT JUMPDEST PUSH0 DUP1 JUMPDEST PUSH1 0x4 DUP1 SLOAD SWAP1 POP DUP2 LT ISZERO PUSH2 0x1195 JUMPI CALLER PUSH20 0xFFFFFFFFFFFFFFFFFFFFFFFFFFFFFFFFFFFFFFFF AND PUSH1 0x4 DUP3 DUP2 SLOAD DUP2 LT PUSH2 0x113C JUMPI PUSH2 0x113B PUSH2 0x2412 JUMP JUMPDEST JUMPDEST SWAP1 PUSH0 MSTORE PUSH1 0x20 PUSH0 KECCAK256 ADD PUSH0 SWAP1 SLOAD SWAP1 PUSH2 0x100 EXP SWAP1 DIV PUSH20 0xFFFFFFFFFFFFFFFFFFFFFFFFFFFFFFFFFFFFFFFF AND PUSH20 0xFFFFFFFFFFFFFFFFFFFFFFFFFFFFFFFFFFFFFFFF AND SUB PUSH2 0x1188 JUMPI PUSH1 0x1 SWAP2 POP PUSH2 0x1195 JUMP JUMPDEST DUP1 DUP1 PUSH1 0x1 ADD SWAP2 POP POP PUSH2 0x1104 JUMP JUMPDEST POP DUP1 PUSH2 0x11D6 JUMPI PUSH1 0x40 MLOAD PUSH32 0x8C379A000000000000000000000000000000000000000000000000000000000 DUP2 MSTORE PUSH1 0x4 ADD PUSH2 0x11CD SWAP1 PUSH2 0x2544 JUMP JUMPDEST PUSH1 0x40 MLOAD DUP1 SWAP2 SUB SWAP1 REVERT JUMPDEST DUP2 PUSH0 ADD PUSH0 SWAP1 SLOAD SWAP1 PUSH2 0x100 EXP SWAP1 DIV PUSH20 0xFFFFFFFFFFFFFFFFFFFFFFFFFFFFFFFFFFFFFFFF AND PUSH20 0xFFFFFFFFFFFFFFFFFFFFFFFFFFFFFFFFFFFFFFFF AND CALLER PUSH20 0xFFFFFFFFFFFFFFFFFFFFFFFFFFFFFFFFFFFFFFFF AND SUB PUSH2 0x1266 JUMPI PUSH1 0x40 MLOAD PUSH32 0x8C379A000000000000000000000000000000000000000000000000000000000 DUP2 MSTORE PUSH1 0x4 ADD PUSH2 0x125D SWAP1 PUSH2 0x25AC JUMP JUMPDEST PUSH1 0x40 MLOAD DUP1 SWAP2 SUB SWAP1 REVERT JUMPDEST DUP2 PUSH1 0x3 ADD CALLER SWAP1 DUP1 PUSH1 0x1 DUP2 SLOAD ADD DUP1 DUP3 SSTORE DUP1 SWAP2 POP POP PUSH1 0x1 SWAP1 SUB SWAP1 PUSH0 MSTORE PUSH1 0x20 PUSH0 KECCAK256 ADD PUSH0 SWAP1 SWAP2 SWAP1 SWAP2 SWAP1 SWAP2 PUSH2 0x100 EXP DUP2 SLOAD DUP2 PUSH20 0xFFFFFFFFFFFFFFFFFFFFFFFFFFFFFFFFFFFFFFFF MUL NOT AND SWAP1 DUP4 PUSH20 0xFFFFFFFFFFFFFFFFFFFFFFFFFFFFFFFFFFFFFFFF AND MUL OR SWAP1 SSTORE POP PUSH1 0x2 PUSH0 SWAP1 SLOAD SWAP1 PUSH2 0x100 EXP SWAP1 DIV PUSH20 0xFFFFFFFFFFFFFFFFFFFFFFFFFFFFFFFFFFFFFFFF AND PUSH20 0xFFFFFFFFFFFFFFFFFFFFFFFFFFFFFFFFFFFFFFFF AND PUSH4 0xA9059CBB CALLER DUP5 PUSH1 0x2 ADD SLOAD PUSH1 0x40 MLOAD DUP4 PUSH4 0xFFFFFFFF AND PUSH1 0xE0 SHL DUP2 MSTORE PUSH1 0x4 ADD PUSH2 0x1328 SWAP3 SWAP2 SWAP1 PUSH2 0x25CA JUMP JUMPDEST PUSH1 0x20 PUSH1 0x40 MLOAD DUP1 DUP4 SUB DUP2 PUSH0 DUP8 GAS CALL ISZERO DUP1 ISZERO PUSH2 0x1344 JUMPI RETURNDATASIZE PUSH0 DUP1 RETURNDATACOPY RETURNDATASIZE PUSH0 REVERT JUMPDEST POP POP POP POP PUSH1 0x40 MLOAD RETURNDATASIZE PUSH1 0x1F NOT PUSH1 0x1F DUP3 ADD AND DUP3 ADD DUP1 PUSH1 0x40 MSTORE POP DUP2 ADD SWAP1 PUSH2 0x1368 SWAP2 SWAP1 PUSH2 0x2291 JUMP JUMPDEST POP PUSH1 0x1 DUP3 PUSH1 0x4 ADD PUSH0 PUSH2 0x100 EXP DUP2 SLOAD DUP2 PUSH1 0xFF MUL NOT AND SWAP1 DUP4 ISZERO ISZERO MUL OR SWAP1 SSTORE POP DUP2 PUSH1 0x2 ADD SLOAD PUSH1 0x2 PUSH0 SWAP1 SLOAD SWAP1 PUSH2 0x100 EXP SWAP1 DIV PUSH20 0xFFFFFFFFFFFFFFFFFFFFFFFFFFFFFFFFFFFFFFFF AND PUSH20 0xFFFFFFFFFFFFFFFFFFFFFFFFFFFFFFFFFFFFFFFF AND PUSH4 0x70A08231 ADDRESS PUSH1 0x40 MLOAD DUP3 PUSH4 0xFFFFFFFF AND PUSH1 0xE0 SHL DUP2 MSTORE PUSH1 0x4 ADD PUSH2 0x13E4 SWAP2 SWAP1 PUSH2 0x208B JUMP JUMPDEST PUSH1 0x20 PUSH1 0x40 MLOAD DUP1 DUP4 SUB DUP2 DUP7 GAS STATICCALL ISZERO DUP1 ISZERO PUSH2 0x13FF JUMPI RETURNDATASIZE PUSH0 DUP1 RETURNDATACOPY RETURNDATASIZE PUSH0 REVERT JUMPDEST POP POP POP POP PUSH1 0x40 MLOAD RETURNDATASIZE PUSH1 0x1F NOT PUSH1 0x1F DUP3 ADD AND DUP3 ADD DUP1 PUSH1 0x40 MSTORE POP DUP2 ADD SWAP1 PUSH2 0x1423 SWAP2 SWAP1 PUSH2 0x212F JUMP JUMPDEST LT ISZERO PUSH2 0x1464 JUMPI PUSH1 0x40 MLOAD PUSH32 0x8C379A000000000000000000000000000000000000000000000000000000000 DUP2 MSTORE PUSH1 0x4 ADD PUSH2 0x145B SWAP1 PUSH2 0x263B JUMP JUMPDEST PUSH1 0x40 MLOAD DUP1 SWAP2 SUB SWAP1 REVERT JUMPDEST PUSH1 0x2 PUSH0 SWAP1 SLOAD SWAP1 PUSH2 0x100 EXP SWAP1 DIV PUSH20 0xFFFFFFFFFFFFFFFFFFFFFFFFFFFFFFFFFFFFFFFF AND PUSH20 0xFFFFFFFFFFFFFFFFFFFFFFFFFFFFFFFFFFFFFFFF AND PUSH4 0xA9059CBB CALLER DUP5 PUSH1 0x2 ADD SLOAD PUSH1 0x40 MLOAD DUP4 PUSH4 0xFFFFFFFF AND PUSH1 0xE0 SHL DUP2 MSTORE PUSH1 0x4 ADD PUSH2 0x14C4 SWAP3 SWAP2 SWAP1 PUSH2 0x25CA JUMP JUMPDEST PUSH1 0x20 PUSH1 0x40 MLOAD DUP1 DUP4 SUB DUP2 PUSH0 DUP8 GAS CALL ISZERO DUP1 ISZERO PUSH2 0x14E0 JUMPI RETURNDATASIZE PUSH0 DUP1 RETURNDATACOPY RETURNDATASIZE PUSH0 REVERT JUMPDEST POP POP POP POP PUSH1 0x40 MLOAD RETURNDATASIZE PUSH1 0x1F NOT PUSH1 0x1F DUP3 ADD AND DUP3 ADD DUP1 PUSH1 0x40 MSTORE POP DUP2 ADD SWAP1 PUSH2 0x1504 SWAP2 SWAP1 PUSH2 0x2291 JUMP JUMPDEST POP CALLER PUSH20 0xFFFFFFFFFFFFFFFFFFFFFFFFFFFFFFFFFFFFFFFF AND DUP4 PUSH32 0x1DC73A35285FDA24D55673E615930AD58EAB11F47D6838526FFBD7D2C1847AF4 DUP5 PUSH1 0x2 ADD SLOAD PUSH1 0x40 MLOAD PUSH2 0x1550 SWAP2 SWAP1 PUSH2 0x2072 JUMP JUMPDEST PUSH1 0x40 MLOAD DUP1 SWAP2 SUB SWAP1 LOG3 POP POP POP JUMP JUMPDEST PUSH0 PUSH1 0x60 PUSH1 0x7 PUSH1 0x40 MLOAD DUP1 PUSH1 0xA0 ADD PUSH1 0x40 MSTORE DUP1 CALLER PUSH20 0xFFFFFFFFFFFFFFFFFFFFFFFFFFFFFFFFFFFFFFFF AND DUP2 MSTORE PUSH1 0x20 ADD DUP7 DUP2 MSTORE PUSH1 0x20 ADD DUP6 DUP2 MSTORE PUSH1 0x20 ADD DUP4 DUP2 MSTORE PUSH1 0x20 ADD PUSH0 ISZERO ISZERO DUP2 MSTORE POP SWAP1 DUP1 PUSH1 0x1 DUP2 SLOAD ADD DUP1 DUP3 SSTORE DUP1 SWAP2 POP POP PUSH1 0x1 SWAP1 SUB SWAP1 PUSH0 MSTORE PUSH1 0x20 PUSH0 KECCAK256 SWAP1 PUSH1 0x5 MUL ADD PUSH0 SWAP1 SWAP2 SWAP1 SWAP2 SWAP1 SWAP2 POP PUSH0 DUP3 ADD MLOAD DUP2 PUSH0 ADD PUSH0 PUSH2 0x100 EXP DUP2 SLOAD DUP2 PUSH20 0xFFFFFFFFFFFFFFFFFFFFFFFFFFFFFFFFFFFFFFFF MUL NOT AND SWAP1 DUP4 PUSH20 0xFFFFFFFFFFFFFFFFFFFFFFFFFFFFFFFFFFFFFFFF AND MUL OR SWAP1 SSTORE POP PUSH1 0x20 DUP3 ADD MLOAD DUP2 PUSH1 0x1 ADD SSTORE PUSH1 0x40 DUP3 ADD MLOAD DUP2 PUSH1 0x2 ADD SSTORE PUSH1 0x60 DUP3 ADD MLOAD DUP2 PUSH1 0x3 ADD SWAP1 DUP1 MLOAD SWAP1 PUSH1 0x20 ADD SWAP1 PUSH2 0x163B SWAP3 SWAP2 SWAP1 PUSH2 0x1B2B JUMP JUMPDEST POP PUSH1 0x80 DUP3 ADD MLOAD DUP2 PUSH1 0x4 ADD PUSH0 PUSH2 0x100 EXP DUP2 SLOAD DUP2 PUSH1 0xFF MUL NOT AND SWAP1 DUP4 ISZERO ISZERO MUL OR SWAP1 SSTORE POP POP POP PUSH0 PUSH1 0x1 PUSH1 0x7 DUP1 SLOAD SWAP1 POP PUSH2 0x1670 SWAP2 SWAP1 PUSH2 0x21FF JUMP JUMPDEST SWAP1 POP DUP5 PUSH1 0x2 PUSH0 SWAP1 SLOAD SWAP1 PUSH2 0x100 EXP SWAP1 DIV PUSH20 0xFFFFFFFFFFFFFFFFFFFFFFFFFFFFFFFFFFFFFFFF AND PUSH20 0xFFFFFFFFFFFFFFFFFFFFFFFFFFFFFFFFFFFFFFFF AND PUSH4 0x70A08231 ADDRESS PUSH1 0x40 MLOAD DUP3 PUSH4 0xFFFFFFFF AND PUSH1 0xE0 SHL DUP2 MSTORE PUSH1 0x4 ADD PUSH2 0x16CD SWAP2 SWAP1 PUSH2 0x208B JUMP JUMPDEST PUSH1 0x20 PUSH1 0x40 MLOAD DUP1 DUP4 SUB DUP2 DUP7 GAS STATICCALL ISZERO DUP1 ISZERO PUSH2 0x16E8 JUMPI RETURNDATASIZE PUSH0 DUP1 RETURNDATACOPY RETURNDATASIZE PUSH0 REVERT JUMPDEST POP POP POP POP PUSH1 0x40 MLOAD RETURNDATASIZE PUSH1 0x1F NOT PUSH1 0x1F DUP3 ADD AND DUP3 ADD DUP1 PUSH1 0x40 MSTORE POP DUP2 ADD SWAP1 PUSH2 0x170C SWAP2 SWAP1 PUSH2 0x212F JUMP JUMPDEST LT ISZERO PUSH2 0x174D JUMPI PUSH1 0x40 MLOAD PUSH32 0x8C379A000000000000000000000000000000000000000000000000000000000 DUP2 MSTORE PUSH1 0x4 ADD PUSH2 0x1744 SWAP1 PUSH2 0x26C9 JUMP JUMPDEST PUSH1 0x40 MLOAD DUP1 SWAP2 SUB SWAP1 REVERT JUMPDEST PUSH1 0x2 PUSH0 SWAP1 SLOAD SWAP1 PUSH2 0x100 EXP SWAP1 DIV PUSH20 0xFFFFFFFFFFFFFFFFFFFFFFFFFFFFFFFFFFFFFFFF AND PUSH20 0xFFFFFFFFFFFFFFFFFFFFFFFFFFFFFFFFFFFFFFFF AND PUSH4 0xA9059CBB CALLER DUP8 PUSH1 0x40 MLOAD DUP4 PUSH4 0xFFFFFFFF AND PUSH1 0xE0 SHL DUP2 MSTORE PUSH1 0x4 ADD PUSH2 0x17A9 SWAP3 SWAP2 SWAP1 PUSH2 0x25CA JUMP JUMPDEST PUSH1 0x20 PUSH1 0x40 MLOAD DUP1 DUP4 SUB DUP2 PUSH0 DUP8 GAS CALL ISZERO DUP1 ISZERO PUSH2 0x17C5 JUMPI RETURNDATASIZE PUSH0 DUP1 RETURNDATACOPY RETURNDATASIZE PUSH0 REVERT JUMPDEST POP POP POP POP PUSH1 0x40 MLOAD RETURNDATASIZE PUSH1 0x1F NOT PUSH1 0x1F DUP3 ADD AND DUP3 ADD DUP1 PUSH1 0x40 MSTORE POP DUP2 ADD SWAP1 PUSH2 0x17E9 SWAP2 SWAP1 PUSH2 0x2291 JUMP JUMPDEST POP CALLER PUSH20 0xFFFFFFFFFFFFFFFFFFFFFFFFFFFFFFFFFFFFFFFF AND DUP2 PUSH32 0x30229516C8151B2075F760DB01BE9DF7393E8F7B929097A0FFF260B6D903EEC DUP8 PUSH1 0x40 MLOAD PUSH2 0x1831 SWAP2 SWAP1 PUSH2 0x2072 JUMP JUMPDEST PUSH1 0x40 MLOAD DUP1 SWAP2 SUB SWAP1 LOG3 DUP1 SWAP3 POP POP POP SWAP3 SWAP2 POP POP JUMP JUMPDEST PUSH1 0x3 PUSH0 SWAP1 SLOAD SWAP1 PUSH2 0x100 EXP SWAP1 DIV PUSH20 0xFFFFFFFFFFFFFFFFFFFFFFFFFFFFFFFFFFFFFFFF AND DUP2 JUMP JUMPDEST PUSH1 0x2 PUSH0 SWAP1 SLOAD SWAP1 PUSH2 0x100 EXP SWAP1 DIV PUSH20 0xFFFFFFFFFFFFFFFFFFFFFFFFFFFFFFFFFFFFFFFF AND PUSH20 0xFFFFFFFFFFFFFFFFFFFFFFFFFFFFFFFFFFFFFFFF AND PUSH4 0x95EA7B3 ADDRESS DUP4 PUSH1 0x40 MLOAD DUP4 PUSH4 0xFFFFFFFF AND PUSH1 0xE0 SHL DUP2 MSTORE PUSH1 0x4 ADD PUSH2 0x18C5 SWAP3 SWAP2 SWAP1 PUSH2 0x25CA JUMP JUMPDEST PUSH1 0x20 PUSH1 0x40 MLOAD DUP1 DUP4 SUB DUP2 PUSH0 DUP8 GAS CALL ISZERO DUP1 ISZERO PUSH2 0x18E1 JUMPI RETURNDATASIZE PUSH0 DUP1 RETURNDATACOPY RETURNDATASIZE PUSH0 REVERT JUMPDEST POP POP POP POP PUSH1 0x40 MLOAD RETURNDATASIZE PUSH1 0x1F NOT PUSH1 0x1F DUP3 ADD AND DUP3 ADD DUP1 PUSH1 0x40 MSTORE POP DUP2 ADD SWAP1 PUSH2 0x1905 SWAP2 SWAP1 PUSH2 0x2291 JUMP JUMPDEST PUSH2 0x1944 JUMPI PUSH1 0x40 MLOAD PUSH32 0x8C379A000000000000000000000000000000000000000000000000000000000 DUP2 MSTORE PUSH1 0x4 ADD PUSH2 0x193B SWAP1 PUSH2 0x2731 JUMP JUMPDEST PUSH1 0x40 MLOAD DUP1 SWAP2 SUB SWAP1 REVERT JUMPDEST POP JUMP JUMPDEST PUSH1 0x6 PUSH1 0x20 MSTORE DUP2 PUSH0 MSTORE PUSH1 0x40 PUSH0 KECCAK256 PUSH1 0x20 MSTORE DUP1 PUSH0 MSTORE PUSH1 0x40 PUSH0 KECCAK256 PUSH0 SWAP2 POP SWAP2 POP POP SLOAD DUP2 JUMP JUMPDEST PUSH0 PUSH1 0x2 PUSH0 SWAP1 SLOAD SWAP1 PUSH2 0x100 EXP SWAP1 DIV PUSH20 0xFFFFFFFFFFFFFFFFFFFFFFFFFFFFFFFFFFFFFFFF AND PUSH20 0xFFFFFFFFFFFFFFFFFFFFFFFFFFFFFFFFFFFFFFFF AND PUSH4 0x18160DDD PUSH1 0x40 MLOAD DUP2 PUSH4 0xFFFFFFFF AND PUSH1 0xE0 SHL DUP2 MSTORE PUSH1 0x4 ADD PUSH1 0x20 PUSH1 0x40 MLOAD DUP1 DUP4 SUB DUP2 DUP7 GAS STATICCALL ISZERO DUP1 ISZERO PUSH2 0x19D2 JUMPI RETURNDATASIZE PUSH0 DUP1 RETURNDATACOPY RETURNDATASIZE PUSH0 REVERT JUMPDEST POP POP POP POP PUSH1 0x40 MLOAD RETURNDATASIZE PUSH1 0x1F NOT PUSH1 0x1F DUP3 ADD AND DUP3 ADD DUP1 PUSH1 0x40 MSTORE POP DUP2 ADD SWAP1 PUSH2 0x19F6 SWAP2 SWAP1 PUSH2 0x212F JUMP JUMPDEST SWAP1 POP SWAP1 JUMP JUMPDEST PUSH1 0x4 CALLER SWAP1 DUP1 PUSH1 0x1 DUP2 SLOAD ADD DUP1 DUP3 SSTORE DUP1 SWAP2 POP POP PUSH1 0x1 SWAP1 SUB SWAP1 PUSH0 MSTORE PUSH1 0x20 PUSH0 KECCAK256 ADD PUSH0 SWAP1 SWAP2 SWAP1 SWAP2 SWAP1 SWAP2 PUSH2 0x100 EXP DUP2 SLOAD DUP2 PUSH20 0xFFFFFFFFFFFFFFFFFFFFFFFFFFFFFFFFFFFFFFFF MUL NOT AND SWAP1 DUP4 PUSH20 0xFFFFFFFFFFFFFFFFFFFFFFFFFFFFFFFFFFFFFFFF AND MUL OR SWAP1 SSTORE POP CALLER PUSH20 0xFFFFFFFFFFFFFFFFFFFFFFFFFFFFFFFFFFFFFFFF AND PUSH32 0xD09501348473474A20C772C79C653E1FD7E8B437E418FE235D277D2C88853251 PUSH1 0x40 MLOAD PUSH1 0x40 MLOAD DUP1 SWAP2 SUB SWAP1 LOG2 JUMP JUMPDEST PUSH1 0x60 PUSH1 0x4 DUP1 SLOAD DUP1 PUSH1 0x20 MUL PUSH1 0x20 ADD PUSH1 0x40 MLOAD SWAP1 DUP2 ADD PUSH1 0x40 MSTORE DUP1 SWAP3 SWAP2 SWAP1 DUP2 DUP2 MSTORE PUSH1 0x20 ADD DUP3 DUP1 SLOAD DUP1 ISZERO PUSH2 0x1B21 JUMPI PUSH1 0x20 MUL DUP3 ADD SWAP2 SWAP1 PUSH0 MSTORE PUSH1 0x20 PUSH0 KECCAK256 SWAP1 JUMPDEST DUP2 PUSH0 SWAP1 SLOAD SWAP1 PUSH2 0x100 EXP SWAP1 DIV PUSH20 0xFFFFFFFFFFFFFFFFFFFFFFFFFFFFFFFFFFFFFFFF AND PUSH20 0xFFFFFFFFFFFFFFFFFFFFFFFFFFFFFFFFFFFFFFFF AND DUP2 MSTORE PUSH1 0x20 ADD SWAP1 PUSH1 0x1 ADD SWAP1 DUP1 DUP4 GT PUSH2 0x1AD8 JUMPI JUMPDEST POP POP POP POP POP SWAP1 POP SWAP1 JUMP JUMPDEST DUP3 DUP1 SLOAD DUP3 DUP3 SSTORE SWAP1 PUSH0 MSTORE PUSH1 0x20 PUSH0 KECCAK256 SWAP1 DUP2 ADD SWAP3 DUP3 ISZERO PUSH2 0x1BA1 JUMPI SWAP2 PUSH1 0x20 MUL DUP3 ADD JUMPDEST DUP3 DUP2 GT ISZERO PUSH2 0x1BA0 JUMPI DUP3 MLOAD DUP3 PUSH0 PUSH2 0x100 EXP DUP2 SLOAD DUP2 PUSH20 0xFFFFFFFFFFFFFFFFFFFFFFFFFFFFFFFFFFFFFFFF MUL NOT AND SWAP1 DUP4 PUSH20 0xFFFFFFFFFFFFFFFFFFFFFFFFFFFFFFFFFFFFFFFF AND MUL OR SWAP1 SSTORE POP SWAP2 PUSH1 0x20 ADD SWAP2 SWAP1 PUSH1 0x1 ADD SWAP1 PUSH2 0x1B49 JUMP JUMPDEST JUMPDEST POP SWAP1 POP PUSH2 0x1BAE SWAP2 SWAP1 PUSH2 0x1BBF JUMP JUMPDEST POP SWAP1 JUMP JUMPDEST PUSH2 0x162C DUP1 PUSH2 0x2750 DUP4 CODECOPY ADD SWAP1 JUMP JUMPDEST JUMPDEST DUP1 DUP3 GT ISZERO PUSH2 0x1BD6 JUMPI PUSH0 DUP2 PUSH0 SWAP1 SSTORE POP PUSH1 0x1 ADD PUSH2 0x1BC0 JUMP JUMPDEST POP SWAP1 JUMP JUMPDEST PUSH0 PUSH20 0xFFFFFFFFFFFFFFFFFFFFFFFFFFFFFFFFFFFFFFFF DUP3 AND SWAP1 POP SWAP2 SWAP1 POP JUMP JUMPDEST PUSH0 DUP2 SWAP1 POP SWAP2 SWAP1 POP JUMP JUMPDEST PUSH0 PUSH2 0x1C1C PUSH2 0x1C17 PUSH2 0x1C12 DUP5 PUSH2 0x1BDA JUMP JUMPDEST PUSH2 0x1BF9 JUMP JUMPDEST PUSH2 0x1BDA JUMP JUMPDEST SWAP1 POP SWAP2 SWAP1 POP JUMP JUMPDEST PUSH0 PUSH2 0x1C2D DUP3 PUSH2 0x1C02 JUMP JUMPDEST SWAP1 POP SWAP2 SWAP1 POP JUMP JUMPDEST PUSH0 PUSH2 0x1C3E DUP3 PUSH2 0x1C23 JUMP JUMPDEST SWAP1 POP SWAP2 SWAP1 POP JUMP JUMPDEST PUSH2 0x1C4E DUP2 PUSH2 0x1C34 JUMP JUMPDEST DUP3 MSTORE POP POP JUMP JUMPDEST PUSH0 PUSH1 0x20 DUP3 ADD SWAP1 POP PUSH2 0x1C67 PUSH0 DUP4 ADD DUP5 PUSH2 0x1C45 JUMP JUMPDEST SWAP3 SWAP2 POP POP JUMP JUMPDEST PUSH0 DUP1 REVERT JUMPDEST PUSH0 DUP2 SWAP1 POP SWAP2 SWAP1 POP JUMP JUMPDEST PUSH2 0x1C83 DUP2 PUSH2 0x1C71 JUMP JUMPDEST DUP2 EQ PUSH2 0x1C8D JUMPI PUSH0 DUP1 REVERT JUMPDEST POP JUMP JUMPDEST PUSH0 DUP2 CALLDATALOAD SWAP1 POP PUSH2 0x1C9E DUP2 PUSH2 0x1C7A JUMP JUMPDEST SWAP3 SWAP2 POP POP JUMP JUMPDEST PUSH0 PUSH1 0x20 DUP3 DUP5 SUB SLT ISZERO PUSH2 0x1CB9 JUMPI PUSH2 0x1CB8 PUSH2 0x1C6D JUMP JUMPDEST JUMPDEST PUSH0 PUSH2 0x1CC6 DUP5 DUP3 DUP6 ADD PUSH2 0x1C90 JUMP JUMPDEST SWAP2 POP POP SWAP3 SWAP2 POP POP JUMP JUMPDEST PUSH0 PUSH2 0x1CD9 DUP3 PUSH2 0x1BDA JUMP JUMPDEST SWAP1 POP SWAP2 SWAP1 POP JUMP JUMPDEST PUSH2 0x1CE9 DUP2 PUSH2 0x1CCF JUMP JUMPDEST DUP3 MSTORE POP POP JUMP JUMPDEST PUSH2 0x1CF8 DUP2 PUSH2 0x1C71 JUMP JUMPDEST DUP3 MSTORE POP POP JUMP JUMPDEST PUSH0 DUP2 ISZERO ISZERO SWAP1 POP SWAP2 SWAP1 POP JUMP JUMPDEST PUSH2 0x1D12 DUP2 PUSH2 0x1CFE JUMP JUMPDEST DUP3 MSTORE POP POP JUMP JUMPDEST PUSH0 PUSH1 0x80 DUP3 ADD SWAP1 POP PUSH2 0x1D2B PUSH0 DUP4 ADD DUP8 PUSH2 0x1CE0 JUMP JUMPDEST PUSH2 0x1D38 PUSH1 0x20 DUP4 ADD DUP7 PUSH2 0x1CEF JUMP JUMPDEST PUSH2 0x1D45 PUSH1 0x40 DUP4 ADD DUP6 PUSH2 0x1CEF JUMP JUMPDEST PUSH2 0x1D52 PUSH1 0x60 DUP4 ADD DUP5 PUSH2 0x1D09 JUMP JUMPDEST SWAP6 SWAP5 POP POP POP POP POP JUMP JUMPDEST PUSH0 DUP1 PUSH1 0x40 DUP4 DUP6 SUB SLT ISZERO PUSH2 0x1D71 JUMPI PUSH2 0x1D70 PUSH2 0x1C6D JUMP JUMPDEST JUMPDEST PUSH0 PUSH2 0x1D7E DUP6 DUP3 DUP7 ADD PUSH2 0x1C90 JUMP JUMPDEST SWAP3 POP POP PUSH1 0x20 PUSH2 0x1D8F DUP6 DUP3 DUP7 ADD PUSH2 0x1C90 JUMP JUMPDEST SWAP2 POP POP SWAP3 POP SWAP3 SWAP1 POP JUMP JUMPDEST PUSH0 DUP2 MLOAD SWAP1 POP SWAP2 SWAP1 POP JUMP JUMPDEST PUSH0 DUP3 DUP3 MSTORE PUSH1 0x20 DUP3 ADD SWAP1 POP SWAP3 SWAP2 POP POP JUMP JUMPDEST PUSH0 DUP2 SWAP1 POP PUSH1 0x20 DUP3 ADD SWAP1 POP SWAP2 SWAP1 POP JUMP JUMPDEST PUSH2 0x1DCB DUP2 PUSH2 0x1CCF JUMP JUMPDEST DUP3 MSTORE POP POP JUMP JUMPDEST PUSH0 PUSH2 0x1DDC DUP4 DUP4 PUSH2 0x1DC2 JUMP JUMPDEST PUSH1 0x20 DUP4 ADD SWAP1 POP SWAP3 SWAP2 POP POP JUMP JUMPDEST PUSH0 PUSH1 0x20 DUP3 ADD SWAP1 POP SWAP2 SWAP1 POP JUMP JUMPDEST PUSH0 PUSH2 0x1DFE DUP3 PUSH2 0x1D99 JUMP JUMPDEST PUSH2 0x1E08 DUP2 DUP6 PUSH2 0x1DA3 JUMP JUMPDEST SWAP4 POP PUSH2 0x1E13 DUP4 PUSH2 0x1DB3 JUMP JUMPDEST DUP1 PUSH0 JUMPDEST DUP4 DUP2 LT ISZERO PUSH2 0x1E43 JUMPI DUP2 MLOAD PUSH2 0x1E2A DUP9 DUP3 PUSH2 0x1DD1 JUMP JUMPDEST SWAP8 POP PUSH2 0x1E35 DUP4 PUSH2 0x1DE8 JUMP JUMPDEST SWAP3 POP POP PUSH1 0x1 DUP2 ADD SWAP1 POP PUSH2 0x1E16 JUMP JUMPDEST POP DUP6 SWAP4 POP POP POP POP SWAP3 SWAP2 POP POP JUMP JUMPDEST PUSH0 DUP2 MLOAD SWAP1 POP SWAP2 SWAP1 POP JUMP JUMPDEST PUSH0 DUP3 DUP3 MSTORE PUSH1 0x20 DUP3 ADD SWAP1 POP SWAP3 SWAP2 POP POP JUMP JUMPDEST PUSH0 DUP2 SWAP1 POP PUSH1 0x20 DUP3 ADD SWAP1 POP SWAP2 SWAP1 POP JUMP JUMPDEST PUSH2 0x1E82 DUP2 PUSH2 0x1C71 JUMP JUMPDEST DUP3 MSTORE POP POP JUMP JUMPDEST PUSH0 PUSH2 0x1E93 DUP4 DUP4 PUSH2 0x1E79 JUMP JUMPDEST PUSH1 0x20 DUP4 ADD SWAP1 POP SWAP3 SWAP2 POP POP JUMP JUMPDEST PUSH0 PUSH1 0x20 DUP3 ADD SWAP1 POP SWAP2 SWAP1 POP JUMP JUMPDEST PUSH0 PUSH2 0x1EB5 DUP3 PUSH2 0x1E50 JUMP JUMPDEST PUSH2 0x1EBF DUP2 DUP6 PUSH2 0x1E5A JUMP JUMPDEST SWAP4 POP PUSH2 0x1ECA DUP4 PUSH2 0x1E6A JUMP JUMPDEST DUP1 PUSH0 JUMPDEST DUP4 DUP2 LT ISZERO PUSH2 0x1EFA JUMPI DUP2 MLOAD PUSH2 0x1EE1 DUP9 DUP3 PUSH2 0x1E88 JUMP JUMPDEST SWAP8 POP PUSH2 0x1EEC DUP4 PUSH2 0x1E9F JUMP JUMPDEST SWAP3 POP POP PUSH1 0x1 DUP2 ADD SWAP1 POP PUSH2 0x1ECD JUMP JUMPDEST POP DUP6 SWAP4 POP POP POP POP SWAP3 SWAP2 POP POP JUMP JUMPDEST PUSH0 DUP2 MLOAD SWAP1 POP SWAP2 SWAP1 POP JUMP JUMPDEST PUSH0 DUP3 DUP3 MSTORE PUSH1 0x20 DUP3 ADD SWAP1 POP SWAP3 SWAP2 POP POP JUMP JUMPDEST PUSH0 DUP2 SWAP1 POP PUSH1 0x20 DUP3 ADD SWAP1 POP SWAP2 SWAP1 POP JUMP JUMPDEST PUSH2 0x1F39 DUP2 PUSH2 0x1CFE JUMP JUMPDEST DUP3 MSTORE POP POP JUMP JUMPDEST PUSH0 PUSH2 0x1F4A DUP4 DUP4 PUSH2 0x1F30 JUMP JUMPDEST PUSH1 0x20 DUP4 ADD SWAP1 POP SWAP3 SWAP2 POP POP JUMP JUMPDEST PUSH0 PUSH1 0x20 DUP3 ADD SWAP1 POP SWAP2 SWAP1 POP JUMP JUMPDEST PUSH0 PUSH2 0x1F6C DUP3 PUSH2 0x1F07 JUMP JUMPDEST PUSH2 0x1F76 DUP2 DUP6 PUSH2 0x1F11 JUMP JUMPDEST SWAP4 POP PUSH2 0x1F81 DUP4 PUSH2 0x1F21 JUMP JUMPDEST DUP1 PUSH0 JUMPDEST DUP4 DUP2 LT ISZERO PUSH2 0x1FB1 JUMPI DUP2 MLOAD PUSH2 0x1F98 DUP9 DUP3 PUSH2 0x1F3F JUMP JUMPDEST SWAP8 POP PUSH2 0x1FA3 DUP4 PUSH2 0x1F56 JUMP JUMPDEST SWAP3 POP POP PUSH1 0x1 DUP2 ADD SWAP1 POP PUSH2 0x1F84 JUMP JUMPDEST POP DUP6 SWAP4 POP POP POP POP SWAP3 SWAP2 POP POP JUMP JUMPDEST PUSH0 PUSH1 0x80 DUP3 ADD SWAP1 POP DUP2 DUP2 SUB PUSH0 DUP4 ADD MSTORE PUSH2 0x1FD6 DUP2 DUP8 PUSH2 0x1DF4 JUMP JUMPDEST SWAP1 POP DUP2 DUP2 SUB PUSH1 0x20 DUP4 ADD MSTORE PUSH2 0x1FEA DUP2 DUP7 PUSH2 0x1EAB JUMP JUMPDEST SWAP1 POP DUP2 DUP2 SUB PUSH1 0x40 DUP4 ADD MSTORE PUSH2 0x1FFE DUP2 DUP6 PUSH2 0x1EAB JUMP JUMPDEST SWAP1 POP DUP2 DUP2 SUB PUSH1 0x60 DUP4 ADD MSTORE PUSH2 0x2012 DUP2 DUP5 PUSH2 0x1F62 JUMP JUMPDEST SWAP1 POP SWAP6 SWAP5 POP POP POP POP POP JUMP JUMPDEST PUSH2 0x2026 DUP2 PUSH2 0x1CCF JUMP JUMPDEST DUP2 EQ PUSH2 0x2030 JUMPI PUSH0 DUP1 REVERT JUMPDEST POP JUMP JUMPDEST PUSH0 DUP2 CALLDATALOAD SWAP1 POP PUSH2 0x2041 DUP2 PUSH2 0x201D JUMP JUMPDEST SWAP3 SWAP2 POP POP JUMP JUMPDEST PUSH0 PUSH1 0x20 DUP3 DUP5 SUB SLT ISZERO PUSH2 0x205C JUMPI PUSH2 0x205B PUSH2 0x1C6D JUMP JUMPDEST JUMPDEST PUSH0 PUSH2 0x2069 DUP5 DUP3 DUP6 ADD PUSH2 0x2033 JUMP JUMPDEST SWAP2 POP POP SWAP3 SWAP2 POP POP JUMP JUMPDEST PUSH0 PUSH1 0x20 DUP3 ADD SWAP1 POP PUSH2 0x2085 PUSH0 DUP4 ADD DUP5 PUSH2 0x1CEF JUMP JUMPDEST SWAP3 SWAP2 POP POP JUMP JUMPDEST PUSH0 PUSH1 0x20 DUP3 ADD SWAP1 POP PUSH2 0x209E PUSH0 DUP4 ADD DUP5 PUSH2 0x1CE0 JUMP JUMPDEST SWAP3 SWAP2 POP POP JUMP JUMPDEST PUSH0 PUSH1 0x20 DUP3 ADD SWAP1 POP PUSH2 0x20B7 PUSH0 DUP4 ADD DUP5 PUSH2 0x1D09 JUMP JUMPDEST SWAP3 SWAP2 POP POP JUMP JUMPDEST PUSH0 DUP1 PUSH1 0x40 DUP4 DUP6 SUB SLT ISZERO PUSH2 0x20D3 JUMPI PUSH2 0x20D2 PUSH2 0x1C6D JUMP JUMPDEST JUMPDEST PUSH0 PUSH2 0x20E0 DUP6 DUP3 DUP7 ADD PUSH2 0x2033 JUMP JUMPDEST SWAP3 POP POP PUSH1 0x20 PUSH2 0x20F1 DUP6 DUP3 DUP7 ADD PUSH2 0x2033 JUMP JUMPDEST SWAP2 POP POP SWAP3 POP SWAP3 SWAP1 POP JUMP JUMPDEST PUSH0 PUSH1 0x20 DUP3 ADD SWAP1 POP DUP2 DUP2 SUB PUSH0 DUP4 ADD MSTORE PUSH2 0x2113 DUP2 DUP5 PUSH2 0x1DF4 JUMP JUMPDEST SWAP1 POP SWAP3 SWAP2 POP POP JUMP JUMPDEST PUSH0 DUP2 MLOAD SWAP1 POP PUSH2 0x2129 DUP2 PUSH2 0x1C7A JUMP JUMPDEST SWAP3 SWAP2 POP POP JUMP JUMPDEST PUSH0 PUSH1 0x20 DUP3 DUP5 SUB SLT ISZERO PUSH2 0x2144 JUMPI PUSH2 0x2143 PUSH2 0x1C6D JUMP JUMPDEST JUMPDEST PUSH0 PUSH2 0x2151 DUP5 DUP3 DUP6 ADD PUSH2 0x211B JUMP JUMPDEST SWAP2 POP POP SWAP3 SWAP2 POP POP JUMP JUMPDEST PUSH0 DUP3 DUP3 MSTORE PUSH1 0x20 DUP3 ADD SWAP1 POP SWAP3 SWAP2 POP POP JUMP JUMPDEST PUSH32 0x496E73756666696369656E742062616C616E636520746F207075726368617365 PUSH0 DUP3 ADD MSTORE POP JUMP JUMPDEST PUSH0 PUSH2 0x219E PUSH1 0x20 DUP4 PUSH2 0x215A JUMP JUMPDEST SWAP2 POP PUSH2 0x21A9 DUP3 PUSH2 0x216A JUMP JUMPDEST PUSH1 0x20 DUP3 ADD SWAP1 POP SWAP2 SWAP1 POP JUMP JUMPDEST PUSH0 PUSH1 0x20 DUP3 ADD SWAP1 POP DUP2 DUP2 SUB PUSH0 DUP4 ADD MSTORE PUSH2 0x21CB DUP2 PUSH2 0x2192 JUMP JUMPDEST SWAP1 POP SWAP2 SWAP1 POP JUMP JUMPDEST PUSH32 0x4E487B7100000000000000000000000000000000000000000000000000000000 PUSH0 MSTORE PUSH1 0x11 PUSH1 0x4 MSTORE PUSH1 0x24 PUSH0 REVERT JUMPDEST PUSH0 PUSH2 0x2209 DUP3 PUSH2 0x1C71 JUMP JUMPDEST SWAP2 POP PUSH2 0x2214 DUP4 PUSH2 0x1C71 JUMP JUMPDEST SWAP3 POP DUP3 DUP3 SUB SWAP1 POP DUP2 DUP2 GT ISZERO PUSH2 0x222C JUMPI PUSH2 0x222B PUSH2 0x21D2 JUMP JUMPDEST JUMPDEST SWAP3 SWAP2 POP POP JUMP JUMPDEST PUSH0 PUSH1 0x60 DUP3 ADD SWAP1 POP PUSH2 0x2245 PUSH0 DUP4 ADD DUP7 PUSH2 0x1CE0 JUMP JUMPDEST PUSH2 0x2252 PUSH1 0x20 DUP4 ADD DUP6 PUSH2 0x1CE0 JUMP JUMPDEST PUSH2 0x225F PUSH1 0x40 DUP4 ADD DUP5 PUSH2 0x1CEF JUMP JUMPDEST SWAP5 SWAP4 POP POP POP POP JUMP JUMPDEST PUSH2 0x2270 DUP2 PUSH2 0x1CFE JUMP JUMPDEST DUP2 EQ PUSH2 0x227A JUMPI PUSH0 DUP1 REVERT JUMPDEST POP JUMP JUMPDEST PUSH0 DUP2 MLOAD SWAP1 POP PUSH2 0x228B DUP2 PUSH2 0x2267 JUMP JUMPDEST SWAP3 SWAP2 POP POP JUMP JUMPDEST PUSH0 PUSH1 0x20 DUP3 DUP5 SUB SLT ISZERO PUSH2 0x22A6 JUMPI PUSH2 0x22A5 PUSH2 0x1C6D JUMP JUMPDEST JUMPDEST PUSH0 PUSH2 0x22B3 DUP5 DUP3 DUP6 ADD PUSH2 0x227D JUMP JUMPDEST SWAP2 POP POP SWAP3 SWAP2 POP POP JUMP JUMPDEST PUSH32 0x4F776E61626C653A2063616C6C6572206973206E6F7420746865206F776E6572 PUSH0 DUP3 ADD MSTORE POP JUMP JUMPDEST PUSH0 PUSH2 0x22F0 PUSH1 0x20 DUP4 PUSH2 0x215A JUMP JUMPDEST SWAP2 POP PUSH2 0x22FB DUP3 PUSH2 0x22BC JUMP JUMPDEST PUSH1 0x20 DUP3 ADD SWAP1 POP SWAP2 SWAP1 POP JUMP JUMPDEST PUSH0 PUSH1 0x20 DUP3 ADD SWAP1 POP DUP2 DUP2 SUB PUSH0 DUP4 ADD MSTORE PUSH2 0x231D DUP2 PUSH2 0x22E4 JUMP JUMPDEST SWAP1 POP SWAP2 SWAP1 POP JUMP JUMPDEST PUSH32 0x4461746150756E6B436F696E2068617320616C7265616479206265656E206465 PUSH0 DUP3 ADD MSTORE PUSH32 0x706C6F7965640000000000000000000000000000000000000000000000000000 PUSH1 0x20 DUP3 ADD MSTORE POP JUMP JUMPDEST PUSH0 PUSH2 0x237E PUSH1 0x26 DUP4 PUSH2 0x215A JUMP JUMPDEST SWAP2 POP PUSH2 0x2389 DUP3 PUSH2 0x2324 JUMP JUMPDEST PUSH1 0x40 DUP3 ADD SWAP1 POP SWAP2 SWAP1 POP JUMP JUMPDEST PUSH0 PUSH1 0x20 DUP3 ADD SWAP1 POP DUP2 DUP2 SUB PUSH0 DUP4 ADD MSTORE PUSH2 0x23AB DUP2 PUSH2 0x2372 JUMP JUMPDEST SWAP1 POP SWAP2 SWAP1 POP JUMP JUMPDEST PUSH0 DUP2 SWAP1 POP SWAP2 SWAP1 POP JUMP JUMPDEST PUSH0 PUSH2 0x23D5 PUSH2 0x23D0 PUSH2 0x23CB DUP5 PUSH2 0x23B2 JUMP JUMPDEST PUSH2 0x1BF9 JUMP JUMPDEST PUSH2 0x1C71 JUMP JUMPDEST SWAP1 POP SWAP2 SWAP1 POP JUMP JUMPDEST PUSH2 0x23E5 DUP2 PUSH2 0x23BB JUMP JUMPDEST DUP3 MSTORE POP POP JUMP JUMPDEST PUSH0 PUSH1 0x40 DUP3 ADD SWAP1 POP PUSH2 0x23FE PUSH0 DUP4 ADD DUP6 PUSH2 0x1CE0 JUMP JUMPDEST PUSH2 0x240B PUSH1 0x20 DUP4 ADD DUP5 PUSH2 0x23DC JUMP JUMPDEST SWAP4 SWAP3 POP POP POP JUMP JUMPDEST PUSH32 0x4E487B7100000000000000000000000000000000000000000000000000000000 PUSH0 MSTORE PUSH1 0x32 PUSH1 0x4 MSTORE PUSH1 0x24 PUSH0 REVERT JUMPDEST PUSH32 0x4E487B7100000000000000000000000000000000000000000000000000000000 PUSH0 MSTORE PUSH1 0x41 PUSH1 0x4 MSTORE PUSH1 0x24 PUSH0 REVERT JUMPDEST PUSH32 0x4461746173657420616C72656164792076616C69646174656400000000000000 PUSH0 DUP3 ADD MSTORE POP JUMP JUMPDEST PUSH0 PUSH2 0x24A0 PUSH1 0x19 DUP4 PUSH2 0x215A JUMP JUMPDEST SWAP2 POP PUSH2 0x24AB DUP3 PUSH2 0x246C JUMP JUMPDEST PUSH1 0x20 DUP3 ADD SWAP1 POP SWAP2 SWAP1 POP JUMP JUMPDEST PUSH0 PUSH1 0x20 DUP3 ADD SWAP1 POP DUP2 DUP2 SUB PUSH0 DUP4 ADD MSTORE PUSH2 0x24CD DUP2 PUSH2 0x2494 JUMP JUMPDEST SWAP1 POP SWAP2 SWAP1 POP JUMP JUMPDEST PUSH32 0x596F75206D757374206265206120726567697374657265642076616C69646174 PUSH0 DUP3 ADD MSTORE PUSH32 0x6F72000000000000000000000000000000000000000000000000000000000000 PUSH1 0x20 DUP3 ADD MSTORE POP JUMP JUMPDEST PUSH0 PUSH2 0x252E PUSH1 0x22 DUP4 PUSH2 0x215A JUMP JUMPDEST SWAP2 POP PUSH2 0x2539 DUP3 PUSH2 0x24D4 JUMP JUMPDEST PUSH1 0x40 DUP3 ADD SWAP1 POP SWAP2 SWAP1 POP JUMP JUMPDEST PUSH0 PUSH1 0x20 DUP3 ADD SWAP1 POP DUP2 DUP2 SUB PUSH0 DUP4 ADD MSTORE PUSH2 0x255B DUP2 PUSH2 0x2522 JUMP JUMPDEST SWAP1 POP SWAP2 SWAP1 POP JUMP JUMPDEST PUSH32 0x56616C696461746F722063616E6E6F74206265207468652063726561746F7200 PUSH0 DUP3 ADD MSTORE POP JUMP JUMPDEST PUSH0 PUSH2 0x2596 PUSH1 0x1F DUP4 PUSH2 0x215A JUMP JUMPDEST SWAP2 POP PUSH2 0x25A1 DUP3 PUSH2 0x2562 JUMP JUMPDEST PUSH1 0x20 DUP3 ADD SWAP1 POP SWAP2 SWAP1 POP JUMP JUMPDEST PUSH0 PUSH1 0x20 DUP3 ADD SWAP1 POP DUP2 DUP2 SUB PUSH0 DUP4 ADD MSTORE PUSH2 0x25C3 DUP2 PUSH2 0x258A JUMP JUMPDEST SWAP1 POP SWAP2 SWAP1 POP JUMP JUMPDEST PUSH0 PUSH1 0x40 DUP3 ADD SWAP1 POP PUSH2 0x25DD PUSH0 DUP4 ADD DUP6 PUSH2 0x1CE0 JUMP JUMPDEST PUSH2 0x25EA PUSH1 0x20 DUP4 ADD DUP5 PUSH2 0x1CEF JUMP JUMPDEST SWAP4 SWAP3 POP POP POP JUMP JUMPDEST PUSH32 0x496E73756666696369656E742062616C616E636520746F207265776172640000 PUSH0 DUP3 ADD MSTORE POP JUMP JUMPDEST PUSH0 PUSH2 0x2625 PUSH1 0x1E DUP4 PUSH2 0x215A JUMP JUMPDEST SWAP2 POP PUSH2 0x2630 DUP3 PUSH2 0x25F1 JUMP JUMPDEST PUSH1 0x20 DUP3 ADD SWAP1 POP SWAP2 SWAP1 POP JUMP JUMPDEST PUSH0 PUSH1 0x20 DUP3 ADD SWAP1 POP DUP2 DUP2 SUB PUSH0 DUP4 ADD MSTORE PUSH2 0x2652 DUP2 PUSH2 0x2619 JUMP JUMPDEST SWAP1 POP SWAP2 SWAP1 POP JUMP JUMPDEST PUSH32 0x436F6E74726163742068617320696E73756666696369656E742044504320746F PUSH0 DUP3 ADD MSTORE PUSH32 0x2072657761726400000000000000000000000000000000000000000000000000 PUSH1 0x20 DUP3 ADD MSTORE POP JUMP JUMPDEST PUSH0 PUSH2 0x26B3 PUSH1 0x27 DUP4 PUSH2 0x215A JUMP JUMPDEST SWAP2 POP PUSH2 0x26BE DUP3 PUSH2 0x2659 JUMP JUMPDEST PUSH1 0x40 DUP3 ADD SWAP1 POP SWAP2 SWAP1 POP JUMP JUMPDEST PUSH0 PUSH1 0x20 DUP3 ADD SWAP1 POP DUP2 DUP2 SUB PUSH0 DUP4 ADD MSTORE PUSH2 0x26E0 DUP2 PUSH2 0x26A7 JUMP JUMPDEST SWAP1 POP SWAP2 SWAP1 POP JUMP JUMPDEST PUSH32 0x417070726F76616C206661696C65640000000000000000000000000000000000 PUSH0 DUP3 ADD MSTORE POP JUMP JUMPDEST PUSH0 PUSH2 0x271B PUSH1 0xF DUP4 PUSH2 0x215A JUMP JUMPDEST SWAP2 POP PUSH2 0x2726 DUP3 PUSH2 0x26E7 JUMP JUMPDEST PUSH1 0x20 DUP3 ADD SWAP1 POP SWAP2 SWAP1 POP JUMP JUMPDEST PUSH0 PUSH1 0x20 DUP3 ADD SWAP1 POP DUP2 DUP2 SUB PUSH0 DUP4 ADD MSTORE PUSH2 0x2748 DUP2 PUSH2 0x270F JUMP JUMPDEST SWAP1 POP SWAP2 SWAP1 POP JUMP INVALID PUSH1 0x80 PUSH1 0x40 MSTORE CALLVALUE DUP1 ISZERO PUSH2 0xF JUMPI PUSH0 DUP1 REVERT JUMPDEST POP PUSH1 0x40 MLOAD PUSH2 0x162C CODESIZE SUB DUP1 PUSH2 0x162C DUP4 CODECOPY DUP2 DUP2 ADD PUSH1 0x40 MSTORE DUP2 ADD SWAP1 PUSH2 0x31 SWAP2 SWAP1 PUSH2 0x3BD JUMP JUMPDEST PUSH1 0x40 MLOAD DUP1 PUSH1 0x40 ADD PUSH1 0x40 MSTORE DUP1 PUSH1 0xD DUP2 MSTORE PUSH1 0x20 ADD PUSH32 0x4461746150756E6B20436F696E00000000000000000000000000000000000000 DUP2 MSTORE POP PUSH1 0x40 MLOAD DUP1 PUSH1 0x40 ADD PUSH1 0x40 MSTORE DUP1 PUSH1 0x3 DUP2 MSTORE PUSH1 0x20 ADD PUSH32 0x4450430000000000000000000000000000000000000000000000000000000000 DUP2 MSTORE POP DUP2 PUSH1 0x3 SWAP1 DUP2 PUSH2 0xAC SWAP2 SWAP1 PUSH2 0x619 JUMP JUMPDEST POP DUP1 PUSH1 0x4 SWAP1 DUP2 PUSH2 0xBC SWAP2 SWAP1 PUSH2 0x619 JUMP JUMPDEST POP POP POP PUSH2 0xE2 CALLER PUSH8 0xDE0B6B3A7640000 DUP4 PUSH2 0xD7 SWAP2 SWAP1 PUSH2 0x715 JUMP JUMPDEST PUSH2 0xE8 PUSH1 0x20 SHL PUSH1 0x20 SHR JUMP JUMPDEST POP PUSH2 0x83E JUMP JUMPDEST PUSH0 PUSH20 0xFFFFFFFFFFFFFFFFFFFFFFFFFFFFFFFFFFFFFFFF AND DUP3 PUSH20 0xFFFFFFFFFFFFFFFFFFFFFFFFFFFFFFFFFFFFFFFF AND SUB PUSH2 0x158 JUMPI PUSH0 PUSH1 0x40 MLOAD PUSH32 0xEC442F0500000000000000000000000000000000000000000000000000000000 DUP2 MSTORE PUSH1 0x4 ADD PUSH2 0x14F SWAP2 SWAP1 PUSH2 0x795 JUMP JUMPDEST PUSH1 0x40 MLOAD DUP1 SWAP2 SUB SWAP1 REVERT JUMPDEST PUSH2 0x169 PUSH0 DUP4 DUP4 PUSH2 0x16D PUSH1 0x20 SHL PUSH1 0x20 SHR JUMP JUMPDEST POP POP JUMP JUMPDEST PUSH0 PUSH20 0xFFFFFFFFFFFFFFFFFFFFFFFFFFFFFFFFFFFFFFFF AND DUP4 PUSH20 0xFFFFFFFFFFFFFFFFFFFFFFFFFFFFFFFFFFFFFFFF AND SUB PUSH2 0x1BD JUMPI DUP1 PUSH1 0x2 PUSH0 DUP3 DUP3 SLOAD PUSH2 0x1B1 SWAP2 SWAP1 PUSH2 0x7AE JUMP JUMPDEST SWAP3 POP POP DUP2 SWAP1 SSTORE POP PUSH2 0x28B JUMP JUMPDEST PUSH0 DUP1 PUSH0 DUP6 PUSH20 0xFFFFFFFFFFFFFFFFFFFFFFFFFFFFFFFFFFFFFFFF AND PUSH20 0xFFFFFFFFFFFFFFFFFFFFFFFFFFFFFFFFFFFFFFFF AND DUP2 MSTORE PUSH1 0x20 ADD SWAP1 DUP2 MSTORE PUSH1 0x20 ADD PUSH0 KECCAK256 SLOAD SWAP1 POP DUP2 DUP2 LT ISZERO PUSH2 0x246 JUMPI DUP4 DUP2 DUP4 PUSH1 0x40 MLOAD PUSH32 0xE450D38C00000000000000000000000000000000000000000000000000000000 DUP2 MSTORE PUSH1 0x4 ADD PUSH2 0x23D SWAP4 SWAP3 SWAP2 SWAP1 PUSH2 0x7F0 JUMP JUMPDEST PUSH1 0x40 MLOAD DUP1 SWAP2 SUB SWAP1 REVERT JUMPDEST DUP2 DUP2 SUB PUSH0 DUP1 DUP7 PUSH20 0xFFFFFFFFFFFFFFFFFFFFFFFFFFFFFFFFFFFFFFFF AND PUSH20 0xFFFFFFFFFFFFFFFFFFFFFFFFFFFFFFFFFFFFFFFF AND DUP2 MSTORE PUSH1 0x20 ADD SWAP1 DUP2 MSTORE PUSH1 0x20 ADD PUSH0 KECCAK256 DUP2 SWAP1 SSTORE POP POP JUMPDEST PUSH0 PUSH20 0xFFFFFFFFFFFFFFFFFFFFFFFFFFFFFFFFFFFFFFFF AND DUP3 PUSH20 0xFFFFFFFFFFFFFFFFFFFFFFFFFFFFFFFFFFFFFFFF AND SUB PUSH2 0x2D2 JUMPI DUP1 PUSH1 0x2 PUSH0 DUP3 DUP3 SLOAD SUB SWAP3 POP POP DUP2 SWAP1 SSTORE POP PUSH2 0x31C JUMP JUMPDEST DUP1 PUSH0 DUP1 DUP5 PUSH20 0xFFFFFFFFFFFFFFFFFFFFFFFFFFFFFFFFFFFFFFFF AND PUSH20 0xFFFFFFFFFFFFFFFFFFFFFFFFFFFFFFFFFFFFFFFF AND DUP2 MSTORE PUSH1 0x20 ADD SWAP1 DUP2 MSTORE PUSH1 0x20 ADD PUSH0 KECCAK256 PUSH0 DUP3 DUP3 SLOAD ADD SWAP3 POP POP DUP2 SWAP1 SSTORE POP JUMPDEST DUP2 PUSH20 0xFFFFFFFFFFFFFFFFFFFFFFFFFFFFFFFFFFFFFFFF AND DUP4 PUSH20 0xFFFFFFFFFFFFFFFFFFFFFFFFFFFFFFFFFFFFFFFF AND PUSH32 0xDDF252AD1BE2C89B69C2B068FC378DAA952BA7F163C4A11628F55A4DF523B3EF DUP4 PUSH1 0x40 MLOAD PUSH2 0x379 SWAP2 SWAP1 PUSH2 0x825 JUMP JUMPDEST PUSH1 0x40 MLOAD DUP1 SWAP2 SUB SWAP1 LOG3 POP POP POP JUMP JUMPDEST PUSH0 DUP1 REVERT JUMPDEST PUSH0 DUP2 SWAP1 POP SWAP2 SWAP1 POP JUMP JUMPDEST PUSH2 0x39C DUP2 PUSH2 0x38A JUMP JUMPDEST DUP2 EQ PUSH2 0x3A6 JUMPI PUSH0 DUP1 REVERT JUMPDEST POP JUMP JUMPDEST PUSH0 DUP2 MLOAD SWAP1 POP PUSH2 0x3B7 DUP2 PUSH2 0x393 JUMP JUMPDEST SWAP3 SWAP2 POP POP JUMP JUMPDEST PUSH0 PUSH1 0x20 DUP3 DUP5 SUB SLT ISZERO PUSH2 0x3D2 JUMPI PUSH2 0x3D1 PUSH2 0x386 JUMP JUMPDEST JUMPDEST PUSH0 PUSH2 0x3DF DUP5 DUP3 DUP6 ADD PUSH2 0x3A9 JUMP JUMPDEST SWAP2 POP POP SWAP3 SWAP2 POP POP JUMP JUMPDEST PUSH0 DUP2 MLOAD SWAP1 POP SWAP2 SWAP1 POP JUMP JUMPDEST PUSH32 0x4E487B7100000000000000000000000000000000000000000000000000000000 PUSH0 MSTORE PUSH1 0x41 PUSH1 0x4 MSTORE PUSH1 0x24 PUSH0 REVERT JUMPDEST PUSH32 0x4E487B7100000000000000000000000000000000000000000000000000000000 PUSH0 MSTORE PUSH1 0x22 PUSH1 0x4 MSTORE PUSH1 0x24 PUSH0 REVERT JUMPDEST PUSH0 PUSH1 0x2 DUP3 DIV SWAP1 POP PUSH1 0x1 DUP3 AND DUP1 PUSH2 0x463 JUMPI PUSH1 0x7F DUP3 AND SWAP2 POP JUMPDEST PUSH1 0x20 DUP3 LT DUP2 SUB PUSH2 0x476 JUMPI PUSH2 0x475 PUSH2 0x41F JUMP JUMPDEST JUMPDEST POP SWAP2 SWAP1 POP JUMP JUMPDEST PUSH0 DUP2 SWAP1 POP DUP2 PUSH0 MSTORE PUSH1 0x20 PUSH0 KECCAK256 SWAP1 POP SWAP2 SWAP1 POP JUMP JUMPDEST PUSH0 PUSH1 0x20 PUSH1 0x1F DUP4 ADD DIV SWAP1 POP SWAP2 SWAP1 POP JUMP JUMPDEST PUSH0 DUP3 DUP3 SHL SWAP1 POP SWAP3 SWAP2 POP POP JUMP JUMPDEST PUSH0 PUSH1 0x8 DUP4 MUL PUSH2 0x4D8 PUSH32 0xFFFFFFFFFFFFFFFFFFFFFFFFFFFFFFFFFFFFFFFFFFFFFFFFFFFFFFFFFFFFFFFF DUP3 PUSH2 0x49D JUMP JUMPDEST PUSH2 0x4E2 DUP7 DUP4 PUSH2 0x49D JUMP JUMPDEST SWAP6 POP DUP1 NOT DUP5 AND SWAP4 POP DUP1 DUP7 AND DUP5 OR SWAP3 POP POP POP SWAP4 SWAP3 POP POP POP JUMP JUMPDEST PUSH0 DUP2 SWAP1 POP SWAP2 SWAP1 POP JUMP JUMPDEST PUSH0 PUSH2 0x51D PUSH2 0x518 PUSH2 0x513 DUP5 PUSH2 0x38A JUMP JUMPDEST PUSH2 0x4FA JUMP JUMPDEST PUSH2 0x38A JUMP JUMPDEST SWAP1 POP SWAP2 SWAP1 POP JUMP JUMPDEST PUSH0 DUP2 SWAP1 POP SWAP2 SWAP1 POP JUMP JUMPDEST PUSH2 0x536 DUP4 PUSH2 0x503 JUMP JUMPDEST PUSH2 0x54A PUSH2 0x542 DUP3 PUSH2 0x524 JUMP JUMPDEST DUP5 DUP5 SLOAD PUSH2 0x4A9 JUMP JUMPDEST DUP3 SSTORE POP POP POP POP JUMP JUMPDEST PUSH0 SWAP1 JUMP JUMPDEST PUSH2 0x55E PUSH2 0x552 JUMP JUMPDEST PUSH2 0x569 DUP2 DUP5 DUP5 PUSH2 0x52D JUMP JUMPDEST POP POP POP JUMP JUMPDEST JUMPDEST DUP2 DUP2 LT ISZERO PUSH2 0x58C JUMPI PUSH2 0x581 PUSH0 DUP3 PUSH2 0x556 JUMP JUMPDEST PUSH1 0x1 DUP2 ADD SWAP1 POP PUSH2 0x56F JUMP JUMPDEST POP POP JUMP JUMPDEST PUSH1 0x1F DUP3 GT ISZERO PUSH2 0x5D1 JUMPI PUSH2 0x5A2 DUP2 PUSH2 0x47C JUMP JUMPDEST PUSH2 0x5AB DUP5 PUSH2 0x48E JUMP JUMPDEST DUP2 ADD PUSH1 0x20 DUP6 LT ISZERO PUSH2 0x5BA JUMPI DUP2 SWAP1 POP JUMPDEST PUSH2 0x5CE PUSH2 0x5C6 DUP6 PUSH2 0x48E JUMP JUMPDEST DUP4 ADD DUP3 PUSH2 0x56E JUMP JUMPDEST POP POP JUMPDEST POP POP POP JUMP JUMPDEST PUSH0 DUP3 DUP3 SHR SWAP1 POP SWAP3 SWAP2 POP POP JUMP JUMPDEST PUSH0 PUSH2 0x5F1 PUSH0 NOT DUP5 PUSH1 0x8 MUL PUSH2 0x5D6 JUMP JUMPDEST NOT DUP1 DUP4 AND SWAP2 POP POP SWAP3 SWAP2 POP POP JUMP JUMPDEST PUSH0 PUSH2 0x609 DUP4 DUP4 PUSH2 0x5E2 JUMP JUMPDEST SWAP2 POP DUP3 PUSH1 0x2 MUL DUP3 OR SWAP1 POP SWAP3 SWAP2 POP POP JUMP JUMPDEST PUSH2 0x622 DUP3 PUSH2 0x3E8 JUMP JUMPDEST PUSH8 0xFFFFFFFFFFFFFFFF DUP2 GT ISZERO PUSH2 0x63B JUMPI PUSH2 0x63A PUSH2 0x3F2 JUMP JUMPDEST JUMPDEST PUSH2 0x645 DUP3 SLOAD PUSH2 0x44C JUMP JUMPDEST PUSH2 0x650 DUP3 DUP3 DUP6 PUSH2 0x590 JUMP JUMPDEST PUSH0 PUSH1 0x20 SWAP1 POP PUSH1 0x1F DUP4 GT PUSH1 0x1 DUP2 EQ PUSH2 0x681 JUMPI PUSH0 DUP5 ISZERO PUSH2 0x66F JUMPI DUP3 DUP8 ADD MLOAD SWAP1 POP JUMPDEST PUSH2 0x679 DUP6 DUP3 PUSH2 0x5FE JUMP JUMPDEST DUP7 SSTORE POP PUSH2 0x6E0 JUMP JUMPDEST PUSH1 0x1F NOT DUP5 AND PUSH2 0x68F DUP7 PUSH2 0x47C JUMP JUMPDEST PUSH0 JUMPDEST DUP3 DUP2 LT ISZERO PUSH2 0x6B6 JUMPI DUP5 DUP10 ADD MLOAD DUP3 SSTORE PUSH1 0x1 DUP3 ADD SWAP2 POP PUSH1 0x20 DUP6 ADD SWAP5 POP PUSH1 0x20 DUP2 ADD SWAP1 POP PUSH2 0x691 JUMP JUMPDEST DUP7 DUP4 LT ISZERO PUSH2 0x6D3 JUMPI DUP5 DUP10 ADD MLOAD PUSH2 0x6CF PUSH1 0x1F DUP10 AND DUP3 PUSH2 0x5E2 JUMP JUMPDEST DUP4 SSTORE POP JUMPDEST PUSH1 0x1 PUSH1 0x2 DUP9 MUL ADD DUP9 SSTORE POP POP POP JUMPDEST POP POP POP POP POP POP JUMP JUMPDEST PUSH32 0x4E487B7100000000000000000000000000000000000000000000000000000000 PUSH0 MSTORE PUSH1 0x11 PUSH1 0x4 MSTORE PUSH1 0x24 PUSH0 REVERT JUMPDEST PUSH0 PUSH2 0x71F DUP3 PUSH2 0x38A JUMP JUMPDEST SWAP2 POP PUSH2 0x72A DUP4 PUSH2 0x38A JUMP JUMPDEST SWAP3 POP DUP3 DUP3 MUL PUSH2 0x738 DUP2 PUSH2 0x38A JUMP JUMPDEST SWAP2 POP DUP3 DUP3 DIV DUP5 EQ DUP4 ISZERO OR PUSH2 0x74F JUMPI PUSH2 0x74E PUSH2 0x6E8 JUMP JUMPDEST JUMPDEST POP SWAP3 SWAP2 POP POP JUMP JUMPDEST PUSH0 PUSH20 0xFFFFFFFFFFFFFFFFFFFFFFFFFFFFFFFFFFFFFFFF DUP3 AND SWAP1 POP SWAP2 SWAP1 POP JUMP JUMPDEST PUSH0 PUSH2 0x77F DUP3 PUSH2 0x756 JUMP JUMPDEST SWAP1 POP SWAP2 SWAP1 POP JUMP JUMPDEST PUSH2 0x78F DUP2 PUSH2 0x775 JUMP JUMPDEST DUP3 MSTORE POP POP JUMP JUMPDEST PUSH0 PUSH1 0x20 DUP3 ADD SWAP1 POP PUSH2 0x7A8 PUSH0 DUP4 ADD DUP5 PUSH2 0x786 JUMP JUMPDEST SWAP3 SWAP2 POP POP JUMP JUMPDEST PUSH0 PUSH2 0x7B8 DUP3 PUSH2 0x38A JUMP JUMPDEST SWAP2 POP PUSH2 0x7C3 DUP4 PUSH2 0x38A JUMP JUMPDEST SWAP3 POP DUP3 DUP3 ADD SWAP1 POP DUP1 DUP3 GT ISZERO PUSH2 0x7DB JUMPI PUSH2 0x7DA PUSH2 0x6E8 JUMP JUMPDEST JUMPDEST SWAP3 SWAP2 POP POP JUMP JUMPDEST PUSH2 0x7EA DUP2 PUSH2 0x38A JUMP JUMPDEST DUP3 MSTORE POP POP JUMP JUMPDEST PUSH0 PUSH1 0x60 DUP3 ADD SWAP1 POP PUSH2 0x803 PUSH0 DUP4 ADD DUP7 PUSH2 0x786 JUMP JUMPDEST PUSH2 0x810 PUSH1 0x20 DUP4 ADD DUP6 PUSH2 0x7E1 JUMP JUMPDEST PUSH2 0x81D PUSH1 0x40 DUP4 ADD DUP5 PUSH2 0x7E1 JUMP JUMPDEST SWAP5 SWAP4 POP POP POP POP JUMP JUMPDEST PUSH0 PUSH1 0x20 DUP3 ADD SWAP1 POP PUSH2 0x838 PUSH0 DUP4 ADD DUP5 PUSH2 0x7E1 JUMP JUMPDEST SWAP3 SWAP2 POP POP JUMP JUMPDEST PUSH2 0xDE1 DUP1 PUSH2 0x84B PUSH0 CODECOPY PUSH0 RETURN INVALID PUSH1 0x80 PUSH1 0x40 MSTORE CALLVALUE DUP1 ISZERO PUSH2 0xF JUMPI PUSH0 DUP1 REVERT JUMPDEST POP PUSH1 0x4 CALLDATASIZE LT PUSH2 0x91 JUMPI PUSH0 CALLDATALOAD PUSH1 0xE0 SHR DUP1 PUSH4 0x313CE567 GT PUSH2 0x64 JUMPI DUP1 PUSH4 0x313CE567 EQ PUSH2 0x131 JUMPI DUP1 PUSH4 0x70A08231 EQ PUSH2 0x14F JUMPI DUP1 PUSH4 0x95D89B41 EQ PUSH2 0x17F JUMPI DUP1 PUSH4 0xA9059CBB EQ PUSH2 0x19D JUMPI DUP1 PUSH4 0xDD62ED3E EQ PUSH2 0x1CD JUMPI PUSH2 0x91 JUMP JUMPDEST DUP1 PUSH4 0x6FDDE03 EQ PUSH2 0x95 JUMPI DUP1 PUSH4 0x95EA7B3 EQ PUSH2 0xB3 JUMPI DUP1 PUSH4 0x18160DDD EQ PUSH2 0xE3 JUMPI DUP1 PUSH4 0x23B872DD EQ PUSH2 0x101 JUMPI JUMPDEST PUSH0 DUP1 REVERT JUMPDEST PUSH2 0x9D PUSH2 0x1FD JUMP JUMPDEST PUSH1 0x40 MLOAD PUSH2 0xAA SWAP2 SWAP1 PUSH2 0xA5A JUMP JUMPDEST PUSH1 0x40 MLOAD DUP1 SWAP2 SUB SWAP1 RETURN JUMPDEST PUSH2 0xCD PUSH1 0x4 DUP1 CALLDATASIZE SUB DUP2 ADD SWAP1 PUSH2 0xC8 SWAP2 SWAP1 PUSH2 0xB0B JUMP JUMPDEST PUSH2 0x28D JUMP JUMPDEST PUSH1 0x40 MLOAD PUSH2 0xDA SWAP2 SWAP1 PUSH2 0xB63 JUMP JUMPDEST PUSH1 0x40 MLOAD DUP1 SWAP2 SUB SWAP1 RETURN JUMPDEST PUSH2 0xEB PUSH2 0x2AF JUMP JUMPDEST PUSH1 0x40 MLOAD PUSH2 0xF8 SWAP2 SWAP1 PUSH2 0xB8B JUMP JUMPDEST PUSH1 0x40 MLOAD DUP1 SWAP2 SUB SWAP1 RETURN JUMPDEST PUSH2 0x11B PUSH1 0x4 DUP1 CALLDATASIZE SUB DUP2 ADD SWAP1 PUSH2 0x116 SWAP2 SWAP1 PUSH2 0xBA4 JUMP JUMPDEST PUSH2 0x2B8 JUMP JUMPDEST PUSH1 0x40 MLOAD PUSH2 0x128 SWAP2 SWAP1 PUSH2 0xB63 JUMP JUMPDEST PUSH1 0x40 MLOAD DUP1 SWAP2 SUB SWAP1 RETURN JUMPDEST PUSH2 0x139 PUSH2 0x2E6 JUMP JUMPDEST PUSH1 0x40 MLOAD PUSH2 0x146 SWAP2 SWAP1 PUSH2 0xC0F JUMP JUMPDEST PUSH1 0x40 MLOAD DUP1 SWAP2 SUB SWAP1 RETURN JUMPDEST PUSH2 0x169 PUSH1 0x4 DUP1 CALLDATASIZE SUB DUP2 ADD SWAP1 PUSH2 0x164 SWAP2 SWAP1 PUSH2 0xC28 JUMP JUMPDEST PUSH2 0x2EE JUMP JUMPDEST PUSH1 0x40 MLOAD PUSH2 0x176 SWAP2 SWAP1 PUSH2 0xB8B JUMP JUMPDEST PUSH1 0x40 MLOAD DUP1 SWAP2 SUB SWAP1 RETURN JUMPDEST PUSH2 0x187 PUSH2 0x333 JUMP JUMPDEST PUSH1 0x40 MLOAD PUSH2 0x194 SWAP2 SWAP1 PUSH2 0xA5A JUMP JUMPDEST PUSH1 0x40 MLOAD DUP1 SWAP2 SUB SWAP1 RETURN JUMPDEST PUSH2 0x1B7 PUSH1 0x4 DUP1 CALLDATASIZE SUB DUP2 ADD SWAP1 PUSH2 0x1B2 SWAP2 SWAP1 PUSH2 0xB0B JUMP JUMPDEST PUSH2 0x3C3 JUMP JUMPDEST PUSH1 0x40 MLOAD PUSH2 0x1C4 SWAP2 SWAP1 PUSH2 0xB63 JUMP JUMPDEST PUSH1 0x40 MLOAD DUP1 SWAP2 SUB SWAP1 RETURN JUMPDEST PUSH2 0x1E7 PUSH1 0x4 DUP1 CALLDATASIZE SUB DUP2 ADD SWAP1 PUSH2 0x1E2 SWAP2 SWAP1 PUSH2 0xC53 JUMP JUMPDEST PUSH2 0x3E5 JUMP JUMPDEST PUSH1 0x40 MLOAD PUSH2 0x1F4 SWAP2 SWAP1 PUSH2 0xB8B JUMP JUMPDEST PUSH1 0x40 MLOAD DUP1 SWAP2 SUB SWAP1 RETURN JUMPDEST PUSH1 0x60 PUSH1 0x3 DUP1 SLOAD PUSH2 0x20C SWAP1 PUSH2 0xCBE JUMP JUMPDEST DUP1 PUSH1 0x1F ADD PUSH1 0x20 DUP1 SWAP2 DIV MUL PUSH1 0x20 ADD PUSH1 0x40 MLOAD SWAP1 DUP2 ADD PUSH1 0x40 MSTORE DUP1 SWAP3 SWAP2 SWAP1 DUP2 DUP2 MSTORE PUSH1 0x20 ADD DUP3 DUP1 SLOAD PUSH2 0x238 SWAP1 PUSH2 0xCBE JUMP JUMPDEST DUP1 ISZERO PUSH2 0x283 JUMPI DUP1 PUSH1 0x1F LT PUSH2 0x25A JUMPI PUSH2 0x100 DUP1 DUP4 SLOAD DIV MUL DUP4 MSTORE SWAP2 PUSH1 0x20 ADD SWAP2 PUSH2 0x283 JUMP JUMPDEST DUP3 ADD SWAP2 SWAP1 PUSH0 MSTORE PUSH1 0x20 PUSH0 KECCAK256 SWAP1 JUMPDEST DUP2 SLOAD DUP2 MSTORE SWAP1 PUSH1 0x1 ADD SWAP1 PUSH1 0x20 ADD DUP1 DUP4 GT PUSH2 0x266 JUMPI DUP3 SWAP1 SUB PUSH1 0x1F AND DUP3 ADD SWAP2 JUMPDEST POP POP POP POP POP SWAP1 POP SWAP1 JUMP JUMPDEST PUSH0 DUP1 PUSH2 0x297 PUSH2 0x467 JUMP JUMPDEST SWAP1 POP PUSH2 0x2A4 DUP2 DUP6 DUP6 PUSH2 0x46E JUMP JUMPDEST PUSH1 0x1 SWAP2 POP POP SWAP3 SWAP2 POP POP JUMP JUMPDEST PUSH0 PUSH1 0x2 SLOAD SWAP1 POP SWAP1 JUMP JUMPDEST PUSH0 DUP1 PUSH2 0x2C2 PUSH2 0x467 JUMP JUMPDEST SWAP1 POP PUSH2 0x2CF DUP6 DUP3 DUP6 PUSH2 0x480 JUMP JUMPDEST PUSH2 0x2DA DUP6 DUP6 DUP6 PUSH2 0x512 JUMP JUMPDEST PUSH1 0x1 SWAP2 POP POP SWAP4 SWAP3 POP POP POP JUMP JUMPDEST PUSH0 PUSH1 0x12 SWAP1 POP SWAP1 JUMP JUMPDEST PUSH0 DUP1 PUSH0 DUP4 PUSH20 0xFFFFFFFFFFFFFFFFFFFFFFFFFFFFFFFFFFFFFFFF AND PUSH20 0xFFFFFFFFFFFFFFFFFFFFFFFFFFFFFFFFFFFFFFFF AND DUP2 MSTORE PUSH1 0x20 ADD SWAP1 DUP2 MSTORE PUSH1 0x20 ADD PUSH0 KECCAK256 SLOAD SWAP1 POP SWAP2 SWAP1 POP JUMP JUMPDEST PUSH1 0x60 PUSH1 0x4 DUP1 SLOAD PUSH2 0x342 SWAP1 PUSH2 0xCBE JUMP JUMPDEST DUP1 PUSH1 0x1F ADD PUSH1 0x20 DUP1 SWAP2 DIV MUL PUSH1 0x20 ADD PUSH1 0x40 MLOAD SWAP1 DUP2 ADD PUSH1 0x40 MSTORE DUP1 SWAP3 SWAP2 SWAP1 DUP2 DUP2 MSTORE PUSH1 0x20 ADD DUP3 DUP1 SLOAD PUSH2 0x36E SWAP1 PUSH2 0xCBE JUMP JUMPDEST DUP1 ISZERO PUSH2 0x3B9 JUMPI DUP1 PUSH1 0x1F LT PUSH2 0x390 JUMPI PUSH2 0x100 DUP1 DUP4 SLOAD DIV MUL DUP4 MSTORE SWAP2 PUSH1 0x20 ADD SWAP2 PUSH2 0x3B9 JUMP JUMPDEST DUP3 ADD SWAP2 SWAP1 PUSH0 MSTORE PUSH1 0x20 PUSH0 KECCAK256 SWAP1 JUMPDEST DUP2 SLOAD DUP2 MSTORE SWAP1 PUSH1 0x1 ADD SWAP1 PUSH1 0x20 ADD DUP1 DUP4 GT PUSH2 0x39C JUMPI DUP3 SWAP1 SUB PUSH1 0x1F AND DUP3 ADD SWAP2 JUMPDEST POP POP POP POP POP SWAP1 POP SWAP1 JUMP JUMPDEST PUSH0 DUP1 PUSH2 0x3CD PUSH2 0x467 JUMP JUMPDEST SWAP1 POP PUSH2 0x3DA DUP2 DUP6 DUP6 PUSH2 0x512 JUMP JUMPDEST PUSH1 0x1 SWAP2 POP POP SWAP3 SWAP2 POP POP JUMP JUMPDEST PUSH0 PUSH1 0x1 PUSH0 DUP5 PUSH20 0xFFFFFFFFFFFFFFFFFFFFFFFFFFFFFFFFFFFFFFFF AND PUSH20 0xFFFFFFFFFFFFFFFFFFFFFFFFFFFFFFFFFFFFFFFF AND DUP2 MSTORE PUSH1 0x20 ADD SWAP1 DUP2 MSTORE PUSH1 0x20 ADD PUSH0 KECCAK256 PUSH0 DUP4 PUSH20 0xFFFFFFFFFFFFFFFFFFFFFFFFFFFFFFFFFFFFFFFF AND PUSH20 0xFFFFFFFFFFFFFFFFFFFFFFFFFFFFFFFFFFFFFFFF AND DUP2 MSTORE PUSH1 0x20 ADD SWAP1 DUP2 MSTORE PUSH1 0x20 ADD PUSH0 KECCAK256 SLOAD SWAP1 POP SWAP3 SWAP2 POP POP JUMP JUMPDEST PUSH0 CALLER SWAP1 POP SWAP1 JUMP JUMPDEST PUSH2 0x47B DUP4 DUP4 DUP4 PUSH1 0x1 PUSH2 0x602 JUMP JUMPDEST POP POP POP JUMP JUMPDEST PUSH0 PUSH2 0x48B DUP5 DUP5 PUSH2 0x3E5 JUMP JUMPDEST SWAP1 POP PUSH32 0xFFFFFFFFFFFFFFFFFFFFFFFFFFFFFFFFFFFFFFFFFFFFFFFFFFFFFFFFFFFFFFFF DUP2 EQ PUSH2 0x50C JUMPI DUP2 DUP2 LT ISZERO PUSH2 0x4FD JUMPI DUP3 DUP2 DUP4 PUSH1 0x40 MLOAD PUSH32 0xFB8F41B200000000000000000000000000000000000000000000000000000000 DUP2 MSTORE PUSH1 0x4 ADD PUSH2 0x4F4 SWAP4 SWAP3 SWAP2 SWAP1 PUSH2 0xCFD JUMP JUMPDEST PUSH1 0x40 MLOAD DUP1 SWAP2 SUB SWAP1 REVERT JUMPDEST PUSH2 0x50B DUP5 DUP5 DUP5 DUP5 SUB PUSH0 PUSH2 0x602 JUMP JUMPDEST JUMPDEST POP POP POP POP JUMP JUMPDEST PUSH0 PUSH20 0xFFFFFFFFFFFFFFFFFFFFFFFFFFFFFFFFFFFFFFFF AND DUP4 PUSH20 0xFFFFFFFFFFFFFFFFFFFFFFFFFFFFFFFFFFFFFFFF AND SUB PUSH2 0x582 JUMPI PUSH0 PUSH1 0x40 MLOAD PUSH32 0x96C6FD1E00000000000000000000000000000000000000000000000000000000 DUP2 MSTORE PUSH1 0x4 ADD PUSH2 0x579 SWAP2 SWAP1 PUSH2 0xD32 JUMP JUMPDEST PUSH1 0x40 MLOAD DUP1 SWAP2 SUB SWAP1 REVERT JUMPDEST PUSH0 PUSH20 0xFFFFFFFFFFFFFFFFFFFFFFFFFFFFFFFFFFFFFFFF AND DUP3 PUSH20 0xFFFFFFFFFFFFFFFFFFFFFFFFFFFFFFFFFFFFFFFF AND SUB PUSH2 0x5F2 JUMPI PUSH0 PUSH1 0x40 MLOAD PUSH32 0xEC442F0500000000000000000000000000000000000000000000000000000000 DUP2 MSTORE PUSH1 0x4 ADD PUSH2 0x5E9 SWAP2 SWAP1 PUSH2 0xD32 JUMP JUMPDEST PUSH1 0x40 MLOAD DUP1 SWAP2 SUB SWAP1 REVERT JUMPDEST PUSH2 0x5FD DUP4 DUP4 DUP4 PUSH2 0x7D1 JUMP JUMPDEST POP POP POP JUMP JUMPDEST PUSH0 PUSH20 0xFFFFFFFFFFFFFFFFFFFFFFFFFFFFFFFFFFFFFFFF AND DUP5 PUSH20 0xFFFFFFFFFFFFFFFFFFFFFFFFFFFFFFFFFFFFFFFF AND SUB PUSH2 0x672 JUMPI PUSH0 PUSH1 0x40 MLOAD PUSH32 0xE602DF0500000000000000000000000000000000000000000000000000000000 DUP2 MSTORE PUSH1 0x4 ADD PUSH2 0x669 SWAP2 SWAP1 PUSH2 0xD32 JUMP JUMPDEST PUSH1 0x40 MLOAD DUP1 SWAP2 SUB SWAP1 REVERT JUMPDEST PUSH0 PUSH20 0xFFFFFFFFFFFFFFFFFFFFFFFFFFFFFFFFFFFFFFFF AND DUP4 PUSH20 0xFFFFFFFFFFFFFFFFFFFFFFFFFFFFFFFFFFFFFFFF AND SUB PUSH2 0x6E2 JUMPI PUSH0 PUSH1 0x40 MLOAD PUSH32 0x94280D6200000000000000000000000000000000000000000000000000000000 DUP2 MSTORE PUSH1 0x4 ADD PUSH2 0x6D9 SWAP2 SWAP1 PUSH2 0xD32 JUMP JUMPDEST PUSH1 0x40 MLOAD DUP1 SWAP2 SUB SWAP1 REVERT JUMPDEST DUP2 PUSH1 0x1 PUSH0 DUP7 PUSH20 0xFFFFFFFFFFFFFFFFFFFFFFFFFFFFFFFFFFFFFFFF AND PUSH20 0xFFFFFFFFFFFFFFFFFFFFFFFFFFFFFFFFFFFFFFFF AND DUP2 MSTORE PUSH1 0x20 ADD SWAP1 DUP2 MSTORE PUSH1 0x20 ADD PUSH0 KECCAK256 PUSH0 DUP6 PUSH20 0xFFFFFFFFFFFFFFFFFFFFFFFFFFFFFFFFFFFFFFFF AND PUSH20 0xFFFFFFFFFFFFFFFFFFFFFFFFFFFFFFFFFFFFFFFF AND DUP2 MSTORE PUSH1 0x20 ADD SWAP1 DUP2 MSTORE PUSH1 0x20 ADD PUSH0 KECCAK256 DUP2 SWAP1 SSTORE POP DUP1 ISZERO PUSH2 0x7CB JUMPI DUP3 PUSH20 0xFFFFFFFFFFFFFFFFFFFFFFFFFFFFFFFFFFFFFFFF AND DUP5 PUSH20 0xFFFFFFFFFFFFFFFFFFFFFFFFFFFFFFFFFFFFFFFF AND PUSH32 0x8C5BE1E5EBEC7D5BD14F71427D1E84F3DD0314C0F7B2291E5B200AC8C7C3B925 DUP5 PUSH1 0x40 MLOAD PUSH2 0x7C2 SWAP2 SWAP1 PUSH2 0xB8B JUMP JUMPDEST PUSH1 0x40 MLOAD DUP1 SWAP2 SUB SWAP1 LOG3 JUMPDEST POP POP POP POP JUMP JUMPDEST PUSH0 PUSH20 0xFFFFFFFFFFFFFFFFFFFFFFFFFFFFFFFFFFFFFFFF AND DUP4 PUSH20 0xFFFFFFFFFFFFFFFFFFFFFFFFFFFFFFFFFFFFFFFF AND SUB PUSH2 0x821 JUMPI DUP1 PUSH1 0x2 PUSH0 DUP3 DUP3 SLOAD PUSH2 0x815 SWAP2 SWAP1 PUSH2 0xD78 JUMP JUMPDEST SWAP3 POP POP DUP2 SWAP1 SSTORE POP PUSH2 0x8EF JUMP JUMPDEST PUSH0 DUP1 PUSH0 DUP6 PUSH20 0xFFFFFFFFFFFFFFFFFFFFFFFFFFFFFFFFFFFFFFFF AND PUSH20 0xFFFFFFFFFFFFFFFFFFFFFFFFFFFFFFFFFFFFFFFF AND DUP2 MSTORE PUSH1 0x20 ADD SWAP1 DUP2 MSTORE PUSH1 0x20 ADD PUSH0 KECCAK256 SLOAD SWAP1 POP DUP2 DUP2 LT ISZERO PUSH2 0x8AA JUMPI DUP4 DUP2 DUP4 PUSH1 0x40 MLOAD PUSH32 0xE450D38C00000000000000000000000000000000000000000000000000000000 DUP2 MSTORE PUSH1 0x4 ADD PUSH2 0x8A1 SWAP4 SWAP3 SWAP2 SWAP1 PUSH2 0xCFD JUMP JUMPDEST PUSH1 0x40 MLOAD DUP1 SWAP2 SUB SWAP1 REVERT JUMPDEST DUP2 DUP2 SUB PUSH0 DUP1 DUP7 PUSH20 0xFFFFFFFFFFFFFFFFFFFFFFFFFFFFFFFFFFFFFFFF AND PUSH20 0xFFFFFFFFFFFFFFFFFFFFFFFFFFFFFFFFFFFFFFFF AND DUP2 MSTORE PUSH1 0x20 ADD SWAP1 DUP2 MSTORE PUSH1 0x20 ADD PUSH0 KECCAK256 DUP2 SWAP1 SSTORE POP POP JUMPDEST PUSH0 PUSH20 0xFFFFFFFFFFFFFFFFFFFFFFFFFFFFFFFFFFFFFFFF AND DUP3 PUSH20 0xFFFFFFFFFFFFFFFFFFFFFFFFFFFFFFFFFFFFFFFF AND SUB PUSH2 0x936 JUMPI DUP1 PUSH1 0x2 PUSH0 DUP3 DUP3 SLOAD SUB SWAP3 POP POP DUP2 SWAP1 SSTORE POP PUSH2 0x980 JUMP JUMPDEST DUP1 PUSH0 DUP1 DUP5 PUSH20 0xFFFFFFFFFFFFFFFFFFFFFFFFFFFFFFFFFFFFFFFF AND PUSH20 0xFFFFFFFFFFFFFFFFFFFFFFFFFFFFFFFFFFFFFFFF AND DUP2 MSTORE PUSH1 0x20 ADD SWAP1 DUP2 MSTORE PUSH1 0x20 ADD PUSH0 KECCAK256 PUSH0 DUP3 DUP3 SLOAD ADD SWAP3 POP POP DUP2 SWAP1 SSTORE POP JUMPDEST DUP2 PUSH20 0xFFFFFFFFFFFFFFFFFFFFFFFFFFFFFFFFFFFFFFFF AND DUP4 PUSH20 0xFFFFFFFFFFFFFFFFFFFFFFFFFFFFFFFFFFFFFFFF AND PUSH32 0xDDF252AD1BE2C89B69C2B068FC378DAA952BA7F163C4A11628F55A4DF523B3EF DUP4 PUSH1 0x40 MLOAD PUSH2 0x9DD SWAP2 SWAP1 PUSH2 0xB8B JUMP JUMPDEST PUSH1 0x40 MLOAD DUP1 SWAP2 SUB SWAP1 LOG3 POP POP POP JUMP JUMPDEST PUSH0 DUP2 MLOAD SWAP1 POP SWAP2 SWAP1 POP JUMP JUMPDEST PUSH0 DUP3 DUP3 MSTORE PUSH1 0x20 DUP3 ADD SWAP1 POP SWAP3 SWAP2 POP POP JUMP JUMPDEST DUP3 DUP2 DUP4 MCOPY PUSH0 DUP4 DUP4 ADD MSTORE POP POP POP JUMP JUMPDEST PUSH0 PUSH1 0x1F NOT PUSH1 0x1F DUP4 ADD AND SWAP1 POP SWAP2 SWAP1 POP JUMP JUMPDEST PUSH0 PUSH2 0xA2C DUP3 PUSH2 0x9EA JUMP JUMPDEST PUSH2 0xA36 DUP2 DUP6 PUSH2 0x9F4 JUMP JUMPDEST SWAP4 POP PUSH2 0xA46 DUP2 DUP6 PUSH1 0x20 DUP7 ADD PUSH2 0xA04 JUMP JUMPDEST PUSH2 0xA4F DUP2 PUSH2 0xA12 JUMP JUMPDEST DUP5 ADD SWAP2 POP POP SWAP3 SWAP2 POP POP JUMP JUMPDEST PUSH0 PUSH1 0x20 DUP3 ADD SWAP1 POP DUP2 DUP2 SUB PUSH0 DUP4 ADD MSTORE PUSH2 0xA72 DUP2 DUP5 PUSH2 0xA22 JUMP JUMPDEST SWAP1 POP SWAP3 SWAP2 POP POP JUMP JUMPDEST PUSH0 DUP1 REVERT JUMPDEST PUSH0 PUSH20 0xFFFFFFFFFFFFFFFFFFFFFFFFFFFFFFFFFFFFFFFF DUP3 AND SWAP1 POP SWAP2 SWAP1 POP JUMP JUMPDEST PUSH0 PUSH2 0xAA7 DUP3 PUSH2 0xA7E JUMP JUMPDEST SWAP1 POP SWAP2 SWAP1 POP JUMP JUMPDEST PUSH2 0xAB7 DUP2 PUSH2 0xA9D JUMP JUMPDEST DUP2 EQ PUSH2 0xAC1 JUMPI PUSH0 DUP1 REVERT JUMPDEST POP JUMP JUMPDEST PUSH0 DUP2 CALLDATALOAD SWAP1 POP PUSH2 0xAD2 DUP2 PUSH2 0xAAE JUMP JUMPDEST SWAP3 SWAP2 POP POP JUMP JUMPDEST PUSH0 DUP2 SWAP1 POP SWAP2 SWAP1 POP JUMP JUMPDEST PUSH2 0xAEA DUP2 PUSH2 0xAD8 JUMP JUMPDEST DUP2 EQ PUSH2 0xAF4 JUMPI PUSH0 DUP1 REVERT JUMPDEST POP JUMP JUMPDEST PUSH0 DUP2 CALLDATALOAD SWAP1 POP PUSH2 0xB05 DUP2 PUSH2 0xAE1 JUMP JUMPDEST SWAP3 SWAP2 POP POP JUMP JUMPDEST PUSH0 DUP1 PUSH1 0x40 DUP4 DUP6 SUB SLT ISZERO PUSH2 0xB21 JUMPI PUSH2 0xB20 PUSH2 0xA7A JUMP JUMPDEST JUMPDEST PUSH0 PUSH2 0xB2E DUP6 DUP3 DUP7 ADD PUSH2 0xAC4 JUMP JUMPDEST SWAP3 POP POP PUSH1 0x20 PUSH2 0xB3F DUP6 DUP3 DUP7 ADD PUSH2 0xAF7 JUMP JUMPDEST SWAP2 POP POP SWAP3 POP SWAP3 SWAP1 POP JUMP JUMPDEST PUSH0 DUP2 ISZERO ISZERO SWAP1 POP SWAP2 SWAP1 POP JUMP JUMPDEST PUSH2 0xB5D DUP2 PUSH2 0xB49 JUMP JUMPDEST DUP3 MSTORE POP POP JUMP JUMPDEST PUSH0 PUSH1 0x20 DUP3 ADD SWAP1 POP PUSH2 0xB76 PUSH0 DUP4 ADD DUP5 PUSH2 0xB54 JUMP JUMPDEST SWAP3 SWAP2 POP POP JUMP JUMPDEST PUSH2 0xB85 DUP2 PUSH2 0xAD8 JUMP JUMPDEST DUP3 MSTORE POP POP JUMP JUMPDEST PUSH0 PUSH1 0x20 DUP3 ADD SWAP1 POP PUSH2 0xB9E PUSH0 DUP4 ADD DUP5 PUSH2 0xB7C JUMP JUMPDEST SWAP3 SWAP2 POP POP JUMP JUMPDEST PUSH0 DUP1 PUSH0 PUSH1 0x60 DUP5 DUP7 SUB SLT ISZERO PUSH2 0xBBB JUMPI PUSH2 0xBBA PUSH2 0xA7A JUMP JUMPDEST JUMPDEST PUSH0 PUSH2 0xBC8 DUP7 DUP3 DUP8 ADD PUSH2 0xAC4 JUMP JUMPDEST SWAP4 POP POP PUSH1 0x20 PUSH2 0xBD9 DUP7 DUP3 DUP8 ADD PUSH2 0xAC4 JUMP JUMPDEST SWAP3 POP POP PUSH1 0x40 PUSH2 0xBEA DUP7 DUP3 DUP8 ADD PUSH2 0xAF7 JUMP JUMPDEST SWAP2 POP POP SWAP3 POP SWAP3 POP SWAP3 JUMP JUMPDEST PUSH0 PUSH1 0xFF DUP3 AND SWAP1 POP SWAP2 SWAP1 POP JUMP JUMPDEST PUSH2 0xC09 DUP2 PUSH2 0xBF4 JUMP JUMPDEST DUP3 MSTORE POP POP JUMP JUMPDEST PUSH0 PUSH1 0x20 DUP3 ADD SWAP1 POP PUSH2 0xC22 PUSH0 DUP4 ADD DUP5 PUSH2 0xC00 JUMP JUMPDEST SWAP3 SWAP2 POP POP JUMP JUMPDEST PUSH0 PUSH1 0x20 DUP3 DUP5 SUB SLT ISZERO PUSH2 0xC3D JUMPI PUSH2 0xC3C PUSH2 0xA7A JUMP JUMPDEST JUMPDEST PUSH0 PUSH2 0xC4A DUP5 DUP3 DUP6 ADD PUSH2 0xAC4 JUMP JUMPDEST SWAP2 POP POP SWAP3 SWAP2 POP POP JUMP JUMPDEST PUSH0 DUP1 PUSH1 0x40 DUP4 DUP6 SUB SLT ISZERO PUSH2 0xC69 JUMPI PUSH2 0xC68 PUSH2 0xA7A JUMP JUMPDEST JUMPDEST PUSH0 PUSH2 0xC76 DUP6 DUP3 DUP7 ADD PUSH2 0xAC4 JUMP JUMPDEST SWAP3 POP POP PUSH1 0x20 PUSH2 0xC87 DUP6 DUP3 DUP7 ADD PUSH2 0xAC4 JUMP JUMPDEST SWAP2 POP POP SWAP3 POP SWAP3 SWAP1 POP JUMP JUMPDEST PUSH32 0x4E487B7100000000000000000000000000000000000000000000000000000000 PUSH0 MSTORE PUSH1 0x22 PUSH1 0x4 MSTORE PUSH1 0x24 PUSH0 REVERT JUMPDEST PUSH0 PUSH1 0x2 DUP3 DIV SWAP1 POP PUSH1 0x1 DUP3 AND DUP1 PUSH2 0xCD5 JUMPI PUSH1 0x7F DUP3 AND SWAP2 POP JUMPDEST PUSH1 0x20 DUP3 LT DUP2 SUB PUSH2 0xCE8 JUMPI PUSH2 0xCE7 PUSH2 0xC91 JUMP JUMPDEST JUMPDEST POP SWAP2 SWAP1 POP JUMP JUMPDEST PUSH2 0xCF7 DUP2 PUSH2 0xA9D JUMP JUMPDEST DUP3 MSTORE POP POP JUMP JUMPDEST PUSH0 PUSH1 0x60 DUP3 ADD SWAP1 POP PUSH2 0xD10 PUSH0 DUP4 ADD DUP7 PUSH2 0xCEE JUMP JUMPDEST PUSH2 0xD1D PUSH1 0x20 DUP4 ADD DUP6 PUSH2 0xB7C JUMP JUMPDEST PUSH2 0xD2A PUSH1 0x40 DUP4 ADD DUP5 PUSH2 0xB7C JUMP JUMPDEST SWAP5 SWAP4 POP POP POP POP JUMP JUMPDEST PUSH0 PUSH1 0x20 DUP3 ADD SWAP1 POP PUSH2 0xD45 PUSH0 DUP4 ADD DUP5 PUSH2 0xCEE JUMP JUMPDEST SWAP3 SWAP2 POP POP JUMP JUMPDEST PUSH32 0x4E487B7100000000000000000000000000000000000000000000000000000000 PUSH0 MSTORE PUSH1 0x11 PUSH1 0x4 MSTORE PUSH1 0x24 PUSH0 REVERT JUMPDEST PUSH0 PUSH2 0xD82 DUP3 PUSH2 0xAD8 JUMP JUMPDEST SWAP2 POP PUSH2 0xD8D DUP4 PUSH2 0xAD8 JUMP JUMPDEST SWAP3 POP DUP3 DUP3 ADD SWAP1 POP DUP1 DUP3 GT ISZERO PUSH2 0xDA5 JUMPI PUSH2 0xDA4 PUSH2 0xD4B JUMP JUMPDEST JUMPDEST SWAP3 SWAP2 POP POP JUMP INVALID LOG2 PUSH5 0x6970667358 0x22 SLT KECCAK256 DUP13 PUSH5 0xF6C94BA2BD BASEFEE MSIZE 0xC6 DUP16 0xD4 0xAA PUSH17 0xDEC433397BE99E6803015485D5ACBE116 0xC9 PUSH5 0x736F6C6343 STOP ADDMOD BYTE STOP CALLER LOG2 PUSH5 0x6970667358 0x22 SLT KECCAK256 NUMBER MSTORE8 PUSH32 0x366397FAC6F712032CD43296DDA18807626D176D26CB93ED1E269BE2F664736F PUSH13 0x634300081A0033000000000000 "
				},
				"gasEstimates": {
					"creation": {
						"codeDepositCost": "3158600",
						"executionCost": "74176",
						"totalCost": "3232776"
					},
					"external": {
						"allowance(address,address)": "infinite",
						"approve(uint256)": "infinite",
						"balanceOf(address)": "2847",
						"createDataset(uint256,uint256)": "infinite",
						"datasets(uint256)": "infinite",
						"deployDataPunkCoin(uint256)": "infinite",
						"dpcToken()": "infinite",
						"dpcTokenAddress()": "2619",
						"getAllDatasets()": "infinite",
						"getAllValidators()": "infinite",
						"getDPCBalanceOf(address)": "infinite",
						"getDPCSupply()": "infinite",
						"isDataPunkCoinDeployed()": "2561",
						"makeDatasePrice()": "2536",
						"makeDataset(uint256,uint256)": "infinite",
						"owner()": "2538",
						"publicValidators(uint256)": "5011",
						"purchaseDataset(uint256)": "infinite",
						"registerAsValidator()": "49966",
						"validateDataset(uint256)": "infinite"
					}
				},
				"methodIdentifiers": {
					"allowance(address,address)": "dd62ed3e",
					"approve(uint256)": "b759f954",
					"balanceOf(address)": "70a08231",
					"createDataset(uint256,uint256)": "a9ef507b",
					"datasets(uint256)": "1cff85e1",
					"deployDataPunkCoin(uint256)": "25129b13",
					"dpcToken()": "01c427d7",
					"dpcTokenAddress()": "b3a1c41a",
					"getAllDatasets()": "4d72cd12",
					"getAllValidators()": "f3513a37",
					"getDPCBalanceOf(address)": "7c1a4bcd",
					"getDPCSupply()": "eb97ffa2",
					"isDataPunkCoinDeployed()": "90d64271",
					"makeDatasePrice()": "7da0a948",
					"makeDataset(uint256,uint256)": "204b317b",
					"owner()": "8da5cb5b",
					"publicValidators(uint256)": "7ac64245",
					"purchaseDataset(uint256)": "49ee56f9",
					"registerAsValidator()": "f0acd184",
					"validateDataset(uint256)": "a6359308"
				}
			},
			"storageLayout": {
				"storage": [
					{
						"astId": 814,
						"contract": "contracts/DataPunk.sol:DataPunk",
						"label": "_owner",
						"offset": 0,
						"slot": "0",
						"type": "t_address"
					},
					{
						"astId": 817,
						"contract": "contracts/DataPunk.sol:DataPunk",
						"label": "isDataPunkCoinDeployed",
						"offset": 20,
						"slot": "0",
						"type": "t_bool"
					},
					{
						"astId": 820,
						"contract": "contracts/DataPunk.sol:DataPunk",
						"label": "makeDatasePrice",
						"offset": 0,
						"slot": "1",
						"type": "t_uint256"
					},
					{
						"astId": 823,
						"contract": "contracts/DataPunk.sol:DataPunk",
						"label": "dpcToken",
						"offset": 0,
						"slot": "2",
						"type": "t_contract(IERC20)729"
					},
					{
						"astId": 825,
						"contract": "contracts/DataPunk.sol:DataPunk",
						"label": "dpcTokenAddress",
						"offset": 0,
						"slot": "3",
						"type": "t_address"
					},
					{
						"astId": 828,
						"contract": "contracts/DataPunk.sol:DataPunk",
						"label": "publicValidators",
						"offset": 0,
						"slot": "4",
						"type": "t_array(t_address)dyn_storage"
					},
					{
						"astId": 832,
						"contract": "contracts/DataPunk.sol:DataPunk",
						"label": "balanceOf",
						"offset": 0,
						"slot": "5",
						"type": "t_mapping(t_address,t_uint256)"
					},
					{
						"astId": 838,
						"contract": "contracts/DataPunk.sol:DataPunk",
						"label": "allowance",
						"offset": 0,
						"slot": "6",
						"type": "t_mapping(t_address,t_mapping(t_address,t_uint256))"
					},
					{
						"astId": 894,
						"contract": "contracts/DataPunk.sol:DataPunk",
						"label": "datasets",
						"offset": 0,
						"slot": "7",
						"type": "t_array(t_struct(Dataset)890_storage)dyn_storage"
					}
				],
				"types": {
					"t_address": {
						"encoding": "inplace",
						"label": "address",
						"numberOfBytes": "20"
					},
					"t_array(t_address)dyn_storage": {
						"base": "t_address",
						"encoding": "dynamic_array",
						"label": "address[]",
						"numberOfBytes": "32"
					},
					"t_array(t_struct(Dataset)890_storage)dyn_storage": {
						"base": "t_struct(Dataset)890_storage",
						"encoding": "dynamic_array",
						"label": "struct DataPunk.Dataset[]",
						"numberOfBytes": "32"
					},
					"t_bool": {
						"encoding": "inplace",
						"label": "bool",
						"numberOfBytes": "1"
					},
					"t_contract(IERC20)729": {
						"encoding": "inplace",
						"label": "contract IERC20",
						"numberOfBytes": "20"
					},
					"t_mapping(t_address,t_mapping(t_address,t_uint256))": {
						"encoding": "mapping",
						"key": "t_address",
						"label": "mapping(address => mapping(address => uint256))",
						"numberOfBytes": "32",
						"value": "t_mapping(t_address,t_uint256)"
					},
					"t_mapping(t_address,t_uint256)": {
						"encoding": "mapping",
						"key": "t_address",
						"label": "mapping(address => uint256)",
						"numberOfBytes": "32",
						"value": "t_uint256"
					},
					"t_struct(Dataset)890_storage": {
						"encoding": "inplace",
						"label": "struct DataPunk.Dataset",
						"members": [
							{
								"astId": 880,
								"contract": "contracts/DataPunk.sol:DataPunk",
								"label": "creator",
								"offset": 0,
								"slot": "0",
								"type": "t_address"
							},
							{
								"astId": 882,
								"contract": "contracts/DataPunk.sol:DataPunk",
								"label": "price",
								"offset": 0,
								"slot": "1",
								"type": "t_uint256"
							},
							{
								"astId": 884,
								"contract": "contracts/DataPunk.sol:DataPunk",
								"label": "validationReward",
								"offset": 0,
								"slot": "2",
								"type": "t_uint256"
							},
							{
								"astId": 887,
								"contract": "contracts/DataPunk.sol:DataPunk",
								"label": "validators",
								"offset": 0,
								"slot": "3",
								"type": "t_array(t_address)dyn_storage"
							},
							{
								"astId": 889,
								"contract": "contracts/DataPunk.sol:DataPunk",
								"label": "isValidated",
								"offset": 0,
								"slot": "4",
								"type": "t_bool"
							}
						],
						"numberOfBytes": "160"
					},
					"t_uint256": {
						"encoding": "inplace",
						"label": "uint256",
						"numberOfBytes": "32"
					}
				}
			},
			"userdoc": {
				"kind": "user",
				"methods": {},
				"version": 1
			}
		}
	}
}