{
	"contracts/DataPunk/newDataPunk.sol": {
		"NewDataPunk": {
			"abi": [
				{
					"inputs": [
						{
							"internalType": "string",
							"name": "name",
							"type": "string"
						},
						{
							"internalType": "uint256",
							"name": "reward",
							"type": "uint256"
						}
					],
					"name": "deployTask",
					"outputs": [
						{
							"internalType": "uint256",
							"name": "",
							"type": "uint256"
						}
					],
					"stateMutability": "nonpayable",
					"type": "function"
				},
				{
					"inputs": [
						{
							"internalType": "uint256",
							"name": "taskId",
							"type": "uint256"
						}
					],
					"name": "getTask",
					"outputs": [
						{
							"internalType": "uint256",
							"name": "",
							"type": "uint256"
						},
						{
							"internalType": "string",
							"name": "",
							"type": "string"
						},
						{
							"internalType": "address",
							"name": "",
							"type": "address"
						},
						{
							"internalType": "uint256",
							"name": "",
							"type": "uint256"
						},
						{
							"components": [
								{
									"internalType": "uint256",
									"name": "datasetId",
									"type": "uint256"
								},
								{
									"internalType": "address",
									"name": "uploader",
									"type": "address"
								},
								{
									"internalType": "bool",
									"name": "isValidated",
									"type": "bool"
								}
							],
							"internalType": "struct NewDataPunk.Dataset[]",
							"name": "",
							"type": "tuple[]"
						}
					],
					"stateMutability": "view",
					"type": "function"
				},
				{
					"inputs": [
						{
							"internalType": "uint256",
							"name": "taskId",
							"type": "uint256"
						}
					],
					"name": "uploadDataset",
					"outputs": [
						{
							"internalType": "uint256",
							"name": "",
							"type": "uint256"
						}
					],
					"stateMutability": "nonpayable",
					"type": "function"
				},
				{
					"inputs": [
						{
							"internalType": "uint256",
							"name": "taskId",
							"type": "uint256"
						},
						{
							"internalType": "uint256",
							"name": "datasetId",
							"type": "uint256"
						}
					],
					"name": "verifyDataset",
					"outputs": [
						{
							"internalType": "bool",
							"name": "",
							"type": "bool"
						}
					],
					"stateMutability": "nonpayable",
					"type": "function"
				}
			],
			"devdoc": {
				"kind": "dev",
				"methods": {},
				"version": 1
			},
			"evm": {
				"assembly": "    /* \"contracts/DataPunk/newDataPunk.sol\":101:2237  contract NewDataPunk {... */\n  mstore(0x40, 0x80)\n  callvalue\n  dup1\n  iszero\n  tag_1\n  jumpi\n  0x00\n  dup1\n  revert\ntag_1:\n  pop\n  dataSize(sub_0)\n  dup1\n  dataOffset(sub_0)\n  0x00\n  codecopy\n  0x00\n  return\nstop\n\nsub_0: assembly {\n        /* \"contracts/DataPunk/newDataPunk.sol\":101:2237  contract NewDataPunk {... */\n      mstore(0x40, 0x80)\n      callvalue\n      dup1\n      iszero\n      tag_1\n      jumpi\n      0x00\n      dup1\n      revert\n    tag_1:\n      pop\n      jumpi(tag_2, lt(calldatasize, 0x04))\n      shr(0xe0, calldataload(0x00))\n      dup1\n      0x134fe3dc\n      eq\n      tag_3\n      jumpi\n      dup1\n      0x1d65e77e\n      eq\n      tag_4\n      jumpi\n      dup1\n      0x6e17e240\n      eq\n      tag_5\n      jumpi\n      dup1\n      0x851e0a7f\n      eq\n      tag_6\n      jumpi\n    tag_2:\n      0x00\n      dup1\n      revert\n        /* \"contracts/DataPunk/newDataPunk.sol\":1987:2235  function verifyDataset(uint256 taskId, uint256 datasetId) public returns (bool) {... */\n    tag_3:\n      tag_7\n      0x04\n      dup1\n      calldatasize\n      sub\n      dup2\n      add\n      swap1\n      tag_8\n      swap2\n      swap1\n      tag_9\n      jump\t// in\n    tag_8:\n      tag_10\n      jump\t// in\n    tag_7:\n      mload(0x40)\n      tag_11\n      swap2\n      swap1\n      tag_12\n      jump\t// in\n    tag_11:\n      mload(0x40)\n      dup1\n      swap2\n      sub\n      swap1\n      return\n        /* \"contracts/DataPunk/newDataPunk.sol\":617:870  function getTask(uint256 taskId) public view returns (uint256, string memory, address, uint256, Dataset[] memory) {... */\n    tag_4:\n      tag_13\n      0x04\n      dup1\n      calldatasize\n      sub\n      dup2\n      add\n      swap1\n      tag_14\n      swap2\n      swap1\n      tag_15\n      jump\t// in\n    tag_14:\n      tag_16\n      jump\t// in\n    tag_13:\n      mload(0x40)\n      tag_17\n      swap6\n      swap5\n      swap4\n      swap3\n      swap2\n      swap1\n      tag_18\n      jump\t// in\n    tag_17:\n      mload(0x40)\n      dup1\n      swap2\n      sub\n      swap1\n      return\n        /* \"contracts/DataPunk/newDataPunk.sol\":1447:1948  function uploadDataset(uint256 taskId) public returns (uint256) {... */\n    tag_5:\n      tag_19\n      0x04\n      dup1\n      calldatasize\n      sub\n      dup2\n      add\n      swap1\n      tag_20\n      swap2\n      swap1\n      tag_15\n      jump\t// in\n    tag_20:\n      tag_21\n      jump\t// in\n    tag_19:\n      mload(0x40)\n      tag_22\n      swap2\n      swap1\n      tag_23\n      jump\t// in\n    tag_22:\n      mload(0x40)\n      dup1\n      swap2\n      sub\n      swap1\n      return\n        /* \"contracts/DataPunk/newDataPunk.sol\":912:1401  function deployTask(string memory name, uint256 reward) public returns (uint256) {... */\n    tag_6:\n      tag_24\n      0x04\n      dup1\n      calldatasize\n      sub\n      dup2\n      add\n      swap1\n      tag_25\n      swap2\n      swap1\n      tag_26\n      jump\t// in\n    tag_25:\n      tag_27\n      jump\t// in\n    tag_24:\n      mload(0x40)\n      tag_28\n      swap2\n      swap1\n      tag_23\n      jump\t// in\n    tag_28:\n      mload(0x40)\n      dup1\n      swap2\n      sub\n      swap1\n      return\n        /* \"contracts/DataPunk/newDataPunk.sol\":1987:2235  function verifyDataset(uint256 taskId, uint256 datasetId) public returns (bool) {... */\n    tag_10:\n        /* \"contracts/DataPunk/newDataPunk.sol\":2061:2065  bool */\n      0x00\n        /* \"contracts/DataPunk/newDataPunk.sol\":2077:2094  Task storage task */\n      dup1\n        /* \"contracts/DataPunk/newDataPunk.sol\":2097:2102  tasks */\n      0x01\n        /* \"contracts/DataPunk/newDataPunk.sol\":2103:2109  taskId */\n      dup5\n        /* \"contracts/DataPunk/newDataPunk.sol\":2097:2110  tasks[taskId] */\n      dup2\n      sload\n      dup2\n      lt\n      tag_30\n      jumpi\n      tag_31\n      tag_32\n      jump\t// in\n    tag_31:\n    tag_30:\n      swap1\n      0x00\n      mstore\n      keccak256(0x00, 0x20)\n      swap1\n      0x05\n      mul\n      add\n        /* \"contracts/DataPunk/newDataPunk.sol\":2077:2110  Task storage task = tasks[taskId] */\n      swap1\n      pop\n        /* \"contracts/DataPunk/newDataPunk.sol\":2120:2143  Dataset storage dataset */\n      0x00\n        /* \"contracts/DataPunk/newDataPunk.sol\":2146:2150  task */\n      dup2\n        /* \"contracts/DataPunk/newDataPunk.sol\":2146:2159  task.datasets */\n      0x04\n      add\n        /* \"contracts/DataPunk/newDataPunk.sol\":2160:2169  datasetId */\n      dup5\n        /* \"contracts/DataPunk/newDataPunk.sol\":2146:2170  task.datasets[datasetId] */\n      dup2\n      sload\n      dup2\n      lt\n      tag_34\n      jumpi\n      tag_35\n      tag_32\n      jump\t// in\n    tag_35:\n    tag_34:\n      swap1\n      0x00\n      mstore\n      keccak256(0x00, 0x20)\n      swap1\n      0x02\n      mul\n      add\n        /* \"contracts/DataPunk/newDataPunk.sol\":2120:2170  Dataset storage dataset = task.datasets[datasetId] */\n      swap1\n      pop\n        /* \"contracts/DataPunk/newDataPunk.sol\":2202:2206  true */\n      0x01\n        /* \"contracts/DataPunk/newDataPunk.sol\":2180:2187  dataset */\n      dup2\n        /* \"contracts/DataPunk/newDataPunk.sol\":2180:2199  dataset.isValidated */\n      0x01\n      add\n      0x14\n        /* \"contracts/DataPunk/newDataPunk.sol\":2180:2206  dataset.isValidated = true */\n      0x0100\n      exp\n      dup2\n      sload\n      dup2\n      0xff\n      mul\n      not\n      and\n      swap1\n      dup4\n      iszero\n      iszero\n      mul\n      or\n      swap1\n      sstore\n      pop\n        /* \"contracts/DataPunk/newDataPunk.sol\":2224:2228  true */\n      0x01\n        /* \"contracts/DataPunk/newDataPunk.sol\":2217:2228  return true */\n      swap3\n      pop\n      pop\n      pop\n        /* \"contracts/DataPunk/newDataPunk.sol\":1987:2235  function verifyDataset(uint256 taskId, uint256 datasetId) public returns (bool) {... */\n      swap3\n      swap2\n      pop\n      pop\n      jump\t// out\n        /* \"contracts/DataPunk/newDataPunk.sol\":617:870  function getTask(uint256 taskId) public view returns (uint256, string memory, address, uint256, Dataset[] memory) {... */\n    tag_16:\n        /* \"contracts/DataPunk/newDataPunk.sol\":671:678  uint256 */\n      0x00\n        /* \"contracts/DataPunk/newDataPunk.sol\":680:693  string memory */\n      0x60\n        /* \"contracts/DataPunk/newDataPunk.sol\":695:702  address */\n      0x00\n        /* \"contracts/DataPunk/newDataPunk.sol\":704:711  uint256 */\n      dup1\n        /* \"contracts/DataPunk/newDataPunk.sol\":713:729  Dataset[] memory */\n      0x60\n        /* \"contracts/DataPunk/newDataPunk.sol\":741:758  Task storage task */\n      0x00\n        /* \"contracts/DataPunk/newDataPunk.sol\":761:766  tasks */\n      0x01\n        /* \"contracts/DataPunk/newDataPunk.sol\":767:773  taskId */\n      dup8\n        /* \"contracts/DataPunk/newDataPunk.sol\":761:774  tasks[taskId] */\n      dup2\n      sload\n      dup2\n      lt\n      tag_38\n      jumpi\n      tag_39\n      tag_32\n      jump\t// in\n    tag_39:\n    tag_38:\n      swap1\n      0x00\n      mstore\n      keccak256(0x00, 0x20)\n      swap1\n      0x05\n      mul\n      add\n        /* \"contracts/DataPunk/newDataPunk.sol\":741:774  Task storage task = tasks[taskId] */\n      swap1\n      pop\n        /* \"contracts/DataPunk/newDataPunk.sol\":792:796  task */\n      dup1\n        /* \"contracts/DataPunk/newDataPunk.sol\":792:803  task.taskId */\n      0x00\n      add\n      sload\n        /* \"contracts/DataPunk/newDataPunk.sol\":805:809  task */\n      dup2\n        /* \"contracts/DataPunk/newDataPunk.sol\":805:818  task.taskName */\n      0x01\n      add\n        /* \"contracts/DataPunk/newDataPunk.sol\":820:824  task */\n      dup3\n        /* \"contracts/DataPunk/newDataPunk.sol\":820:834  task.publisher */\n      0x02\n      add\n      0x00\n      swap1\n      sload\n      swap1\n      0x0100\n      exp\n      swap1\n      div\n      0xffffffffffffffffffffffffffffffffffffffff\n      and\n        /* \"contracts/DataPunk/newDataPunk.sol\":836:840  task */\n      dup4\n        /* \"contracts/DataPunk/newDataPunk.sol\":836:847  task.reward */\n      0x03\n      add\n      sload\n        /* \"contracts/DataPunk/newDataPunk.sol\":849:853  task */\n      dup5\n        /* \"contracts/DataPunk/newDataPunk.sol\":849:862  task.datasets */\n      0x04\n      add\n        /* \"contracts/DataPunk/newDataPunk.sol\":784:863  return (task.taskId, task.taskName, task.publisher, task.reward, task.datasets) */\n      dup4\n      dup1\n      sload\n      tag_41\n      swap1\n      tag_42\n      jump\t// in\n    tag_41:\n      dup1\n      0x1f\n      add\n      0x20\n      dup1\n      swap2\n      div\n      mul\n      0x20\n      add\n      mload(0x40)\n      swap1\n      dup2\n      add\n      0x40\n      mstore\n      dup1\n      swap3\n      swap2\n      swap1\n      dup2\n      dup2\n      mstore\n      0x20\n      add\n      dup3\n      dup1\n      sload\n      tag_43\n      swap1\n      tag_42\n      jump\t// in\n    tag_43:\n      dup1\n      iszero\n      tag_44\n      jumpi\n      dup1\n      0x1f\n      lt\n      tag_45\n      jumpi\n      0x0100\n      dup1\n      dup4\n      sload\n      div\n      mul\n      dup4\n      mstore\n      swap2\n      0x20\n      add\n      swap2\n      jump(tag_44)\n    tag_45:\n      dup3\n      add\n      swap2\n      swap1\n      0x00\n      mstore\n      keccak256(0x00, 0x20)\n      swap1\n    tag_46:\n      dup2\n      sload\n      dup2\n      mstore\n      swap1\n      0x01\n      add\n      swap1\n      0x20\n      add\n      dup1\n      dup4\n      gt\n      tag_46\n      jumpi\n      dup3\n      swap1\n      sub\n      0x1f\n      and\n      dup3\n      add\n      swap2\n    tag_44:\n      pop\n      pop\n      pop\n      pop\n      pop\n      swap4\n      pop\n      dup1\n      dup1\n      sload\n      dup1\n      0x20\n      mul\n      0x20\n      add\n      mload(0x40)\n      swap1\n      dup2\n      add\n      0x40\n      mstore\n      dup1\n      swap3\n      swap2\n      swap1\n      dup2\n      dup2\n      mstore\n      0x20\n      add\n      0x00\n      swap1\n    tag_47:\n      dup3\n      dup3\n      lt\n      iszero\n      tag_48\n      jumpi\n      dup4\n      dup3\n      swap1\n      0x00\n      mstore\n      keccak256(0x00, 0x20)\n      swap1\n      0x02\n      mul\n      add\n      mload(0x40)\n      dup1\n      0x60\n      add\n      0x40\n      mstore\n      swap1\n      dup2\n      0x00\n      dup3\n      add\n      sload\n      dup2\n      mstore\n      0x20\n      add\n      0x01\n      dup3\n      add\n      0x00\n      swap1\n      sload\n      swap1\n      0x0100\n      exp\n      swap1\n      div\n      0xffffffffffffffffffffffffffffffffffffffff\n      and\n      0xffffffffffffffffffffffffffffffffffffffff\n      and\n      0xffffffffffffffffffffffffffffffffffffffff\n      and\n      dup2\n      mstore\n      0x20\n      add\n      0x01\n      dup3\n      add\n      0x14\n      swap1\n      sload\n      swap1\n      0x0100\n      exp\n      swap1\n      div\n      0xff\n      and\n      iszero\n      iszero\n      iszero\n      iszero\n      dup2\n      mstore\n      pop\n      pop\n      dup2\n      mstore\n      0x20\n      add\n      swap1\n      0x01\n      add\n      swap1\n      jump(tag_47)\n    tag_48:\n      pop\n      pop\n      pop\n      pop\n      swap1\n      pop\n      swap6\n      pop\n      swap6\n      pop\n      swap6\n      pop\n      swap6\n      pop\n      swap6\n      pop\n      pop\n        /* \"contracts/DataPunk/newDataPunk.sol\":617:870  function getTask(uint256 taskId) public view returns (uint256, string memory, address, uint256, Dataset[] memory) {... */\n      swap2\n      swap4\n      swap6\n      swap1\n      swap3\n      swap5\n      pop\n      jump\t// out\n        /* \"contracts/DataPunk/newDataPunk.sol\":1447:1948  function uploadDataset(uint256 taskId) public returns (uint256) {... */\n    tag_21:\n        /* \"contracts/DataPunk/newDataPunk.sol\":1502:1509  uint256 */\n      0x00\n        /* \"contracts/DataPunk/newDataPunk.sol\":1521:1538  uint256 datasetId */\n      dup1\n        /* \"contracts/DataPunk/newDataPunk.sol\":1571:1572  0 */\n      0x00\n        /* \"contracts/DataPunk/newDataPunk.sol\":1552:1560  datasets */\n      0x02\n        /* \"contracts/DataPunk/newDataPunk.sol\":1552:1567  datasets.length */\n      dup1\n      sload\n      swap1\n      pop\n        /* \"contracts/DataPunk/newDataPunk.sol\":1552:1572  datasets.length == 0 */\n      sub\n        /* \"contracts/DataPunk/newDataPunk.sol\":1548:1670  if (datasets.length == 0) {... */\n      tag_51\n      jumpi\n        /* \"contracts/DataPunk/newDataPunk.sol\":1600:1601  0 */\n      0x00\n        /* \"contracts/DataPunk/newDataPunk.sol\":1588:1601  datasetId = 0 */\n      swap1\n      pop\n        /* \"contracts/DataPunk/newDataPunk.sol\":1548:1670  if (datasets.length == 0) {... */\n      jump(tag_52)\n    tag_51:\n        /* \"contracts/DataPunk/newDataPunk.sol\":1644:1652  datasets */\n      0x02\n        /* \"contracts/DataPunk/newDataPunk.sol\":1644:1659  datasets.length */\n      dup1\n      sload\n      swap1\n      pop\n        /* \"contracts/DataPunk/newDataPunk.sol\":1632:1659  datasetId = datasets.length */\n      swap1\n      pop\n        /* \"contracts/DataPunk/newDataPunk.sol\":1548:1670  if (datasets.length == 0) {... */\n    tag_52:\n        /* \"contracts/DataPunk/newDataPunk.sol\":1731:1757  Dataset storage newDataset */\n      0x00\n        /* \"contracts/DataPunk/newDataPunk.sol\":1760:1765  tasks */\n      0x01\n        /* \"contracts/DataPunk/newDataPunk.sol\":1766:1772  taskId */\n      dup5\n        /* \"contracts/DataPunk/newDataPunk.sol\":1760:1773  tasks[taskId] */\n      dup2\n      sload\n      dup2\n      lt\n      tag_53\n      jumpi\n      tag_54\n      tag_32\n      jump\t// in\n    tag_54:\n    tag_53:\n      swap1\n      0x00\n      mstore\n      keccak256(0x00, 0x20)\n      swap1\n      0x05\n      mul\n      add\n        /* \"contracts/DataPunk/newDataPunk.sol\":1760:1782  tasks[taskId].datasets */\n      0x04\n      add\n        /* \"contracts/DataPunk/newDataPunk.sol\":1760:1789  tasks[taskId].datasets.push() */\n      0x01\n      dup2\n      0x01\n      dup2\n      sload\n      add\n      dup1\n      dup3\n      sstore\n      dup1\n      swap2\n      pop\n      pop\n      sub\n      swap1\n      0x00\n      mstore\n      keccak256(0x00, 0x20)\n      swap1\n      0x02\n      mul\n      add\n        /* \"contracts/DataPunk/newDataPunk.sol\":1731:1789  Dataset storage newDataset = tasks[taskId].datasets.push() */\n      swap1\n      pop\n        /* \"contracts/DataPunk/newDataPunk.sol\":1823:1832  datasetId */\n      dup2\n        /* \"contracts/DataPunk/newDataPunk.sol\":1800:1810  newDataset */\n      dup2\n        /* \"contracts/DataPunk/newDataPunk.sol\":1800:1820  newDataset.datasetId */\n      0x00\n      add\n        /* \"contracts/DataPunk/newDataPunk.sol\":1800:1832  newDataset.datasetId = datasetId */\n      dup2\n      swap1\n      sstore\n      pop\n        /* \"contracts/DataPunk/newDataPunk.sol\":1864:1874  msg.sender */\n      caller\n        /* \"contracts/DataPunk/newDataPunk.sol\":1842:1852  newDataset */\n      dup2\n        /* \"contracts/DataPunk/newDataPunk.sol\":1842:1861  newDataset.uploader */\n      0x01\n      add\n      0x00\n        /* \"contracts/DataPunk/newDataPunk.sol\":1842:1874  newDataset.uploader = msg.sender */\n      0x0100\n      exp\n      dup2\n      sload\n      dup2\n      0xffffffffffffffffffffffffffffffffffffffff\n      mul\n      not\n      and\n      swap1\n      dup4\n      0xffffffffffffffffffffffffffffffffffffffff\n      and\n      mul\n      or\n      swap1\n      sstore\n      pop\n        /* \"contracts/DataPunk/newDataPunk.sol\":1909:1914  false */\n      0x00\n        /* \"contracts/DataPunk/newDataPunk.sol\":1884:1894  newDataset */\n      dup2\n        /* \"contracts/DataPunk/newDataPunk.sol\":1884:1906  newDataset.isValidated */\n      0x01\n      add\n      0x14\n        /* \"contracts/DataPunk/newDataPunk.sol\":1884:1914  newDataset.isValidated = false */\n      0x0100\n      exp\n      dup2\n      sload\n      dup2\n      0xff\n      mul\n      not\n      and\n      swap1\n      dup4\n      iszero\n      iszero\n      mul\n      or\n      swap1\n      sstore\n      pop\n        /* \"contracts/DataPunk/newDataPunk.sol\":1932:1941  datasetId */\n      dup2\n        /* \"contracts/DataPunk/newDataPunk.sol\":1925:1941  return datasetId */\n      swap3\n      pop\n      pop\n      pop\n        /* \"contracts/DataPunk/newDataPunk.sol\":1447:1948  function uploadDataset(uint256 taskId) public returns (uint256) {... */\n      swap2\n      swap1\n      pop\n      jump\t// out\n        /* \"contracts/DataPunk/newDataPunk.sol\":912:1401  function deployTask(string memory name, uint256 reward) public returns (uint256) {... */\n    tag_27:\n        /* \"contracts/DataPunk/newDataPunk.sol\":984:991  uint256 */\n      0x00\n        /* \"contracts/DataPunk/newDataPunk.sol\":1003:1017  uint256 taskId */\n      dup1\n        /* \"contracts/DataPunk/newDataPunk.sol\":1047:1048  0 */\n      0x00\n        /* \"contracts/DataPunk/newDataPunk.sol\":1031:1036  tasks */\n      0x01\n        /* \"contracts/DataPunk/newDataPunk.sol\":1031:1043  tasks.length */\n      dup1\n      sload\n      swap1\n      pop\n        /* \"contracts/DataPunk/newDataPunk.sol\":1031:1048  tasks.length == 0 */\n      sub\n        /* \"contracts/DataPunk/newDataPunk.sol\":1027:1137  if (tasks.length == 0) {... */\n      tag_58\n      jumpi\n        /* \"contracts/DataPunk/newDataPunk.sol\":1073:1074  0 */\n      0x00\n        /* \"contracts/DataPunk/newDataPunk.sol\":1064:1074  taskId = 0 */\n      swap1\n      pop\n        /* \"contracts/DataPunk/newDataPunk.sol\":1027:1137  if (tasks.length == 0) {... */\n      jump(tag_59)\n    tag_58:\n        /* \"contracts/DataPunk/newDataPunk.sol\":1114:1119  tasks */\n      0x01\n        /* \"contracts/DataPunk/newDataPunk.sol\":1114:1126  tasks.length */\n      dup1\n      sload\n      swap1\n      pop\n        /* \"contracts/DataPunk/newDataPunk.sol\":1105:1126  taskId = tasks.length */\n      swap1\n      pop\n        /* \"contracts/DataPunk/newDataPunk.sol\":1027:1137  if (tasks.length == 0) {... */\n    tag_59:\n        /* \"contracts/DataPunk/newDataPunk.sol\":1195:1215  Task storage newTask */\n      0x00\n        /* \"contracts/DataPunk/newDataPunk.sol\":1218:1223  tasks */\n      0x01\n        /* \"contracts/DataPunk/newDataPunk.sol\":1218:1230  tasks.push() */\n      dup1\n      dup2\n      0x01\n      dup2\n      sload\n      add\n      dup1\n      dup3\n      sstore\n      dup1\n      swap2\n      pop\n      pop\n      sub\n      swap1\n      0x00\n      mstore\n      keccak256(0x00, 0x20)\n      swap1\n      0x05\n      mul\n      add\n        /* \"contracts/DataPunk/newDataPunk.sol\":1195:1230  Task storage newTask = tasks.push() */\n      swap1\n      pop\n        /* \"contracts/DataPunk/newDataPunk.sol\":1258:1264  taskId */\n      dup2\n        /* \"contracts/DataPunk/newDataPunk.sol\":1241:1248  newTask */\n      dup2\n        /* \"contracts/DataPunk/newDataPunk.sol\":1241:1255  newTask.taskId */\n      0x00\n      add\n        /* \"contracts/DataPunk/newDataPunk.sol\":1241:1264  newTask.taskId = taskId */\n      dup2\n      swap1\n      sstore\n      pop\n        /* \"contracts/DataPunk/newDataPunk.sol\":1293:1297  name */\n      dup5\n        /* \"contracts/DataPunk/newDataPunk.sol\":1274:1281  newTask */\n      dup2\n        /* \"contracts/DataPunk/newDataPunk.sol\":1274:1290  newTask.taskName */\n      0x01\n      add\n        /* \"contracts/DataPunk/newDataPunk.sol\":1274:1297  newTask.taskName = name */\n      swap1\n      dup2\n      tag_61\n      swap2\n      swap1\n      tag_62\n      jump\t// in\n    tag_61:\n      pop\n        /* \"contracts/DataPunk/newDataPunk.sol\":1327:1337  msg.sender */\n      caller\n        /* \"contracts/DataPunk/newDataPunk.sol\":1307:1314  newTask */\n      dup2\n        /* \"contracts/DataPunk/newDataPunk.sol\":1307:1324  newTask.publisher */\n      0x02\n      add\n      0x00\n        /* \"contracts/DataPunk/newDataPunk.sol\":1307:1337  newTask.publisher = msg.sender */\n      0x0100\n      exp\n      dup2\n      sload\n      dup2\n      0xffffffffffffffffffffffffffffffffffffffff\n      mul\n      not\n      and\n      swap1\n      dup4\n      0xffffffffffffffffffffffffffffffffffffffff\n      and\n      mul\n      or\n      swap1\n      sstore\n      pop\n        /* \"contracts/DataPunk/newDataPunk.sol\":1364:1370  reward */\n      dup4\n        /* \"contracts/DataPunk/newDataPunk.sol\":1347:1354  newTask */\n      dup2\n        /* \"contracts/DataPunk/newDataPunk.sol\":1347:1361  newTask.reward */\n      0x03\n      add\n        /* \"contracts/DataPunk/newDataPunk.sol\":1347:1370  newTask.reward = reward */\n      dup2\n      swap1\n      sstore\n      pop\n        /* \"contracts/DataPunk/newDataPunk.sol\":1388:1394  taskId */\n      dup2\n        /* \"contracts/DataPunk/newDataPunk.sol\":1381:1394  return taskId */\n      swap3\n      pop\n      pop\n      pop\n        /* \"contracts/DataPunk/newDataPunk.sol\":912:1401  function deployTask(string memory name, uint256 reward) public returns (uint256) {... */\n      swap3\n      swap2\n      pop\n      pop\n      jump\t// out\n        /* \"#utility.yul\":7:82   */\n    tag_63:\n        /* \"#utility.yul\":40:46   */\n      0x00\n        /* \"#utility.yul\":73:75   */\n      0x40\n        /* \"#utility.yul\":67:76   */\n      mload\n        /* \"#utility.yul\":57:76   */\n      swap1\n      pop\n        /* \"#utility.yul\":7:82   */\n      swap1\n      jump\t// out\n        /* \"#utility.yul\":88:205   */\n    tag_64:\n        /* \"#utility.yul\":197:198   */\n      0x00\n        /* \"#utility.yul\":194:195   */\n      dup1\n        /* \"#utility.yul\":187:199   */\n      revert\n        /* \"#utility.yul\":211:328   */\n    tag_65:\n        /* \"#utility.yul\":320:321   */\n      0x00\n        /* \"#utility.yul\":317:318   */\n      dup1\n        /* \"#utility.yul\":310:322   */\n      revert\n        /* \"#utility.yul\":334:411   */\n    tag_66:\n        /* \"#utility.yul\":371:378   */\n      0x00\n        /* \"#utility.yul\":400:405   */\n      dup2\n        /* \"#utility.yul\":389:405   */\n      swap1\n      pop\n        /* \"#utility.yul\":334:411   */\n      swap2\n      swap1\n      pop\n      jump\t// out\n        /* \"#utility.yul\":417:539   */\n    tag_67:\n        /* \"#utility.yul\":490:514   */\n      tag_121\n        /* \"#utility.yul\":508:513   */\n      dup2\n        /* \"#utility.yul\":490:514   */\n      tag_66\n      jump\t// in\n    tag_121:\n        /* \"#utility.yul\":483:488   */\n      dup2\n        /* \"#utility.yul\":480:515   */\n      eq\n        /* \"#utility.yul\":470:533   */\n      tag_122\n      jumpi\n        /* \"#utility.yul\":529:530   */\n      0x00\n        /* \"#utility.yul\":526:527   */\n      dup1\n        /* \"#utility.yul\":519:531   */\n      revert\n        /* \"#utility.yul\":470:533   */\n    tag_122:\n        /* \"#utility.yul\":417:539   */\n      pop\n      jump\t// out\n        /* \"#utility.yul\":545:684   */\n    tag_68:\n        /* \"#utility.yul\":591:596   */\n      0x00\n        /* \"#utility.yul\":629:635   */\n      dup2\n        /* \"#utility.yul\":616:636   */\n      calldataload\n        /* \"#utility.yul\":607:636   */\n      swap1\n      pop\n        /* \"#utility.yul\":645:678   */\n      tag_124\n        /* \"#utility.yul\":672:677   */\n      dup2\n        /* \"#utility.yul\":645:678   */\n      tag_67\n      jump\t// in\n    tag_124:\n        /* \"#utility.yul\":545:684   */\n      swap3\n      swap2\n      pop\n      pop\n      jump\t// out\n        /* \"#utility.yul\":690:1164   */\n    tag_9:\n        /* \"#utility.yul\":758:764   */\n      0x00\n        /* \"#utility.yul\":766:772   */\n      dup1\n        /* \"#utility.yul\":815:817   */\n      0x40\n        /* \"#utility.yul\":803:812   */\n      dup4\n        /* \"#utility.yul\":794:801   */\n      dup6\n        /* \"#utility.yul\":790:813   */\n      sub\n        /* \"#utility.yul\":786:818   */\n      slt\n        /* \"#utility.yul\":783:902   */\n      iszero\n      tag_126\n      jumpi\n        /* \"#utility.yul\":821:900   */\n      tag_127\n      tag_64\n      jump\t// in\n    tag_127:\n        /* \"#utility.yul\":783:902   */\n    tag_126:\n        /* \"#utility.yul\":941:942   */\n      0x00\n        /* \"#utility.yul\":966:1019   */\n      tag_128\n        /* \"#utility.yul\":1011:1018   */\n      dup6\n        /* \"#utility.yul\":1002:1008   */\n      dup3\n        /* \"#utility.yul\":991:1000   */\n      dup7\n        /* \"#utility.yul\":987:1009   */\n      add\n        /* \"#utility.yul\":966:1019   */\n      tag_68\n      jump\t// in\n    tag_128:\n        /* \"#utility.yul\":956:1019   */\n      swap3\n      pop\n        /* \"#utility.yul\":912:1029   */\n      pop\n        /* \"#utility.yul\":1068:1070   */\n      0x20\n        /* \"#utility.yul\":1094:1147   */\n      tag_129\n        /* \"#utility.yul\":1139:1146   */\n      dup6\n        /* \"#utility.yul\":1130:1136   */\n      dup3\n        /* \"#utility.yul\":1119:1128   */\n      dup7\n        /* \"#utility.yul\":1115:1137   */\n      add\n        /* \"#utility.yul\":1094:1147   */\n      tag_68\n      jump\t// in\n    tag_129:\n        /* \"#utility.yul\":1084:1147   */\n      swap2\n      pop\n        /* \"#utility.yul\":1039:1157   */\n      pop\n        /* \"#utility.yul\":690:1164   */\n      swap3\n      pop\n      swap3\n      swap1\n      pop\n      jump\t// out\n        /* \"#utility.yul\":1170:1260   */\n    tag_69:\n        /* \"#utility.yul\":1204:1211   */\n      0x00\n        /* \"#utility.yul\":1247:1252   */\n      dup2\n        /* \"#utility.yul\":1240:1253   */\n      iszero\n        /* \"#utility.yul\":1233:1254   */\n      iszero\n        /* \"#utility.yul\":1222:1254   */\n      swap1\n      pop\n        /* \"#utility.yul\":1170:1260   */\n      swap2\n      swap1\n      pop\n      jump\t// out\n        /* \"#utility.yul\":1266:1375   */\n    tag_70:\n        /* \"#utility.yul\":1347:1368   */\n      tag_132\n        /* \"#utility.yul\":1362:1367   */\n      dup2\n        /* \"#utility.yul\":1347:1368   */\n      tag_69\n      jump\t// in\n    tag_132:\n        /* \"#utility.yul\":1342:1345   */\n      dup3\n        /* \"#utility.yul\":1335:1369   */\n      mstore\n        /* \"#utility.yul\":1266:1375   */\n      pop\n      pop\n      jump\t// out\n        /* \"#utility.yul\":1381:1591   */\n    tag_12:\n        /* \"#utility.yul\":1468:1472   */\n      0x00\n        /* \"#utility.yul\":1506:1508   */\n      0x20\n        /* \"#utility.yul\":1495:1504   */\n      dup3\n        /* \"#utility.yul\":1491:1509   */\n      add\n        /* \"#utility.yul\":1483:1509   */\n      swap1\n      pop\n        /* \"#utility.yul\":1519:1584   */\n      tag_134\n        /* \"#utility.yul\":1581:1582   */\n      0x00\n        /* \"#utility.yul\":1570:1579   */\n      dup4\n        /* \"#utility.yul\":1566:1583   */\n      add\n        /* \"#utility.yul\":1557:1563   */\n      dup5\n        /* \"#utility.yul\":1519:1584   */\n      tag_70\n      jump\t// in\n    tag_134:\n        /* \"#utility.yul\":1381:1591   */\n      swap3\n      swap2\n      pop\n      pop\n      jump\t// out\n        /* \"#utility.yul\":1597:1926   */\n    tag_15:\n        /* \"#utility.yul\":1656:1662   */\n      0x00\n        /* \"#utility.yul\":1705:1707   */\n      0x20\n        /* \"#utility.yul\":1693:1702   */\n      dup3\n        /* \"#utility.yul\":1684:1691   */\n      dup5\n        /* \"#utility.yul\":1680:1703   */\n      sub\n        /* \"#utility.yul\":1676:1708   */\n      slt\n        /* \"#utility.yul\":1673:1792   */\n      iszero\n      tag_136\n      jumpi\n        /* \"#utility.yul\":1711:1790   */\n      tag_137\n      tag_64\n      jump\t// in\n    tag_137:\n        /* \"#utility.yul\":1673:1792   */\n    tag_136:\n        /* \"#utility.yul\":1831:1832   */\n      0x00\n        /* \"#utility.yul\":1856:1909   */\n      tag_138\n        /* \"#utility.yul\":1901:1908   */\n      dup5\n        /* \"#utility.yul\":1892:1898   */\n      dup3\n        /* \"#utility.yul\":1881:1890   */\n      dup6\n        /* \"#utility.yul\":1877:1899   */\n      add\n        /* \"#utility.yul\":1856:1909   */\n      tag_68\n      jump\t// in\n    tag_138:\n        /* \"#utility.yul\":1846:1909   */\n      swap2\n      pop\n        /* \"#utility.yul\":1802:1919   */\n      pop\n        /* \"#utility.yul\":1597:1926   */\n      swap3\n      swap2\n      pop\n      pop\n      jump\t// out\n        /* \"#utility.yul\":1932:2050   */\n    tag_71:\n        /* \"#utility.yul\":2019:2043   */\n      tag_140\n        /* \"#utility.yul\":2037:2042   */\n      dup2\n        /* \"#utility.yul\":2019:2043   */\n      tag_66\n      jump\t// in\n    tag_140:\n        /* \"#utility.yul\":2014:2017   */\n      dup3\n        /* \"#utility.yul\":2007:2044   */\n      mstore\n        /* \"#utility.yul\":1932:2050   */\n      pop\n      pop\n      jump\t// out\n        /* \"#utility.yul\":2056:2155   */\n    tag_72:\n        /* \"#utility.yul\":2108:2114   */\n      0x00\n        /* \"#utility.yul\":2142:2147   */\n      dup2\n        /* \"#utility.yul\":2136:2148   */\n      mload\n        /* \"#utility.yul\":2126:2148   */\n      swap1\n      pop\n        /* \"#utility.yul\":2056:2155   */\n      swap2\n      swap1\n      pop\n      jump\t// out\n        /* \"#utility.yul\":2161:2330   */\n    tag_73:\n        /* \"#utility.yul\":2245:2256   */\n      0x00\n        /* \"#utility.yul\":2279:2285   */\n      dup3\n        /* \"#utility.yul\":2274:2277   */\n      dup3\n        /* \"#utility.yul\":2267:2286   */\n      mstore\n        /* \"#utility.yul\":2319:2323   */\n      0x20\n        /* \"#utility.yul\":2314:2317   */\n      dup3\n        /* \"#utility.yul\":2310:2324   */\n      add\n        /* \"#utility.yul\":2295:2324   */\n      swap1\n      pop\n        /* \"#utility.yul\":2161:2330   */\n      swap3\n      swap2\n      pop\n      pop\n      jump\t// out\n        /* \"#utility.yul\":2336:2475   */\n    tag_74:\n        /* \"#utility.yul\":2425:2431   */\n      dup3\n        /* \"#utility.yul\":2420:2423   */\n      dup2\n        /* \"#utility.yul\":2415:2418   */\n      dup4\n        /* \"#utility.yul\":2409:2432   */\n      mcopy\n        /* \"#utility.yul\":2466:2467   */\n      0x00\n        /* \"#utility.yul\":2457:2463   */\n      dup4\n        /* \"#utility.yul\":2452:2455   */\n      dup4\n        /* \"#utility.yul\":2448:2464   */\n      add\n        /* \"#utility.yul\":2441:2468   */\n      mstore\n        /* \"#utility.yul\":2336:2475   */\n      pop\n      pop\n      pop\n      jump\t// out\n        /* \"#utility.yul\":2481:2583   */\n    tag_75:\n        /* \"#utility.yul\":2522:2528   */\n      0x00\n        /* \"#utility.yul\":2573:2575   */\n      0x1f\n        /* \"#utility.yul\":2569:2576   */\n      not\n        /* \"#utility.yul\":2564:2566   */\n      0x1f\n        /* \"#utility.yul\":2557:2562   */\n      dup4\n        /* \"#utility.yul\":2553:2567   */\n      add\n        /* \"#utility.yul\":2549:2577   */\n      and\n        /* \"#utility.yul\":2539:2577   */\n      swap1\n      pop\n        /* \"#utility.yul\":2481:2583   */\n      swap2\n      swap1\n      pop\n      jump\t// out\n        /* \"#utility.yul\":2589:2966   */\n    tag_76:\n        /* \"#utility.yul\":2677:2680   */\n      0x00\n        /* \"#utility.yul\":2705:2744   */\n      tag_146\n        /* \"#utility.yul\":2738:2743   */\n      dup3\n        /* \"#utility.yul\":2705:2744   */\n      tag_72\n      jump\t// in\n    tag_146:\n        /* \"#utility.yul\":2760:2831   */\n      tag_147\n        /* \"#utility.yul\":2824:2830   */\n      dup2\n        /* \"#utility.yul\":2819:2822   */\n      dup6\n        /* \"#utility.yul\":2760:2831   */\n      tag_73\n      jump\t// in\n    tag_147:\n        /* \"#utility.yul\":2753:2831   */\n      swap4\n      pop\n        /* \"#utility.yul\":2840:2905   */\n      tag_148\n        /* \"#utility.yul\":2898:2904   */\n      dup2\n        /* \"#utility.yul\":2893:2896   */\n      dup6\n        /* \"#utility.yul\":2886:2890   */\n      0x20\n        /* \"#utility.yul\":2879:2884   */\n      dup7\n        /* \"#utility.yul\":2875:2891   */\n      add\n        /* \"#utility.yul\":2840:2905   */\n      tag_74\n      jump\t// in\n    tag_148:\n        /* \"#utility.yul\":2930:2959   */\n      tag_149\n        /* \"#utility.yul\":2952:2958   */\n      dup2\n        /* \"#utility.yul\":2930:2959   */\n      tag_75\n      jump\t// in\n    tag_149:\n        /* \"#utility.yul\":2925:2928   */\n      dup5\n        /* \"#utility.yul\":2921:2960   */\n      add\n        /* \"#utility.yul\":2914:2960   */\n      swap2\n      pop\n        /* \"#utility.yul\":2681:2966   */\n      pop\n        /* \"#utility.yul\":2589:2966   */\n      swap3\n      swap2\n      pop\n      pop\n      jump\t// out\n        /* \"#utility.yul\":2972:3098   */\n    tag_77:\n        /* \"#utility.yul\":3009:3016   */\n      0x00\n        /* \"#utility.yul\":3049:3091   */\n      0xffffffffffffffffffffffffffffffffffffffff\n        /* \"#utility.yul\":3042:3047   */\n      dup3\n        /* \"#utility.yul\":3038:3092   */\n      and\n        /* \"#utility.yul\":3027:3092   */\n      swap1\n      pop\n        /* \"#utility.yul\":2972:3098   */\n      swap2\n      swap1\n      pop\n      jump\t// out\n        /* \"#utility.yul\":3104:3200   */\n    tag_78:\n        /* \"#utility.yul\":3141:3148   */\n      0x00\n        /* \"#utility.yul\":3170:3194   */\n      tag_152\n        /* \"#utility.yul\":3188:3193   */\n      dup3\n        /* \"#utility.yul\":3170:3194   */\n      tag_77\n      jump\t// in\n    tag_152:\n        /* \"#utility.yul\":3159:3194   */\n      swap1\n      pop\n        /* \"#utility.yul\":3104:3200   */\n      swap2\n      swap1\n      pop\n      jump\t// out\n        /* \"#utility.yul\":3206:3324   */\n    tag_79:\n        /* \"#utility.yul\":3293:3317   */\n      tag_154\n        /* \"#utility.yul\":3311:3316   */\n      dup2\n        /* \"#utility.yul\":3293:3317   */\n      tag_78\n      jump\t// in\n    tag_154:\n        /* \"#utility.yul\":3288:3291   */\n      dup3\n        /* \"#utility.yul\":3281:3318   */\n      mstore\n        /* \"#utility.yul\":3206:3324   */\n      pop\n      pop\n      jump\t// out\n        /* \"#utility.yul\":3330:3467   */\n    tag_80:\n        /* \"#utility.yul\":3420:3426   */\n      0x00\n        /* \"#utility.yul\":3454:3459   */\n      dup2\n        /* \"#utility.yul\":3448:3460   */\n      mload\n        /* \"#utility.yul\":3438:3460   */\n      swap1\n      pop\n        /* \"#utility.yul\":3330:3467   */\n      swap2\n      swap1\n      pop\n      jump\t// out\n        /* \"#utility.yul\":3473:3680   */\n    tag_81:\n        /* \"#utility.yul\":3595:3606   */\n      0x00\n        /* \"#utility.yul\":3629:3635   */\n      dup3\n        /* \"#utility.yul\":3624:3627   */\n      dup3\n        /* \"#utility.yul\":3617:3636   */\n      mstore\n        /* \"#utility.yul\":3669:3673   */\n      0x20\n        /* \"#utility.yul\":3664:3667   */\n      dup3\n        /* \"#utility.yul\":3660:3674   */\n      add\n        /* \"#utility.yul\":3645:3674   */\n      swap1\n      pop\n        /* \"#utility.yul\":3473:3680   */\n      swap3\n      swap2\n      pop\n      pop\n      jump\t// out\n        /* \"#utility.yul\":3686:3841   */\n    tag_82:\n        /* \"#utility.yul\":3776:3780   */\n      0x00\n        /* \"#utility.yul\":3799:3802   */\n      dup2\n        /* \"#utility.yul\":3791:3802   */\n      swap1\n      pop\n        /* \"#utility.yul\":3829:3833   */\n      0x20\n        /* \"#utility.yul\":3824:3827   */\n      dup3\n        /* \"#utility.yul\":3820:3834   */\n      add\n        /* \"#utility.yul\":3812:3834   */\n      swap1\n      pop\n        /* \"#utility.yul\":3686:3841   */\n      swap2\n      swap1\n      pop\n      jump\t// out\n        /* \"#utility.yul\":3847:3955   */\n    tag_83:\n        /* \"#utility.yul\":3924:3948   */\n      tag_159\n        /* \"#utility.yul\":3942:3947   */\n      dup2\n        /* \"#utility.yul\":3924:3948   */\n      tag_66\n      jump\t// in\n    tag_159:\n        /* \"#utility.yul\":3919:3922   */\n      dup3\n        /* \"#utility.yul\":3912:3949   */\n      mstore\n        /* \"#utility.yul\":3847:3955   */\n      pop\n      pop\n      jump\t// out\n        /* \"#utility.yul\":3961:4069   */\n    tag_84:\n        /* \"#utility.yul\":4038:4062   */\n      tag_161\n        /* \"#utility.yul\":4056:4061   */\n      dup2\n        /* \"#utility.yul\":4038:4062   */\n      tag_78\n      jump\t// in\n    tag_161:\n        /* \"#utility.yul\":4033:4036   */\n      dup3\n        /* \"#utility.yul\":4026:4063   */\n      mstore\n        /* \"#utility.yul\":3961:4069   */\n      pop\n      pop\n      jump\t// out\n        /* \"#utility.yul\":4075:4174   */\n    tag_85:\n        /* \"#utility.yul\":4146:4167   */\n      tag_163\n        /* \"#utility.yul\":4161:4166   */\n      dup2\n        /* \"#utility.yul\":4146:4167   */\n      tag_69\n      jump\t// in\n    tag_163:\n        /* \"#utility.yul\":4141:4144   */\n      dup3\n        /* \"#utility.yul\":4134:4168   */\n      mstore\n        /* \"#utility.yul\":4075:4174   */\n      pop\n      pop\n      jump\t// out\n        /* \"#utility.yul\":4244:4921   */\n    tag_86:\n        /* \"#utility.yul\":4377:4381   */\n      0x60\n        /* \"#utility.yul\":4372:4375   */\n      dup3\n        /* \"#utility.yul\":4368:4382   */\n      add\n        /* \"#utility.yul\":4469:4473   */\n      0x00\n        /* \"#utility.yul\":4462:4467   */\n      dup3\n        /* \"#utility.yul\":4458:4474   */\n      add\n        /* \"#utility.yul\":4452:4475   */\n      mload\n        /* \"#utility.yul\":4488:4551   */\n      tag_165\n        /* \"#utility.yul\":4545:4549   */\n      0x00\n        /* \"#utility.yul\":4540:4543   */\n      dup6\n        /* \"#utility.yul\":4536:4550   */\n      add\n        /* \"#utility.yul\":4522:4534   */\n      dup3\n        /* \"#utility.yul\":4488:4551   */\n      tag_83\n      jump\t// in\n    tag_165:\n        /* \"#utility.yul\":4392:4561   */\n      pop\n        /* \"#utility.yul\":4647:4651   */\n      0x20\n        /* \"#utility.yul\":4640:4645   */\n      dup3\n        /* \"#utility.yul\":4636:4652   */\n      add\n        /* \"#utility.yul\":4630:4653   */\n      mload\n        /* \"#utility.yul\":4666:4729   */\n      tag_166\n        /* \"#utility.yul\":4723:4727   */\n      0x20\n        /* \"#utility.yul\":4718:4721   */\n      dup6\n        /* \"#utility.yul\":4714:4728   */\n      add\n        /* \"#utility.yul\":4700:4712   */\n      dup3\n        /* \"#utility.yul\":4666:4729   */\n      tag_84\n      jump\t// in\n    tag_166:\n        /* \"#utility.yul\":4571:4739   */\n      pop\n        /* \"#utility.yul\":4828:4832   */\n      0x40\n        /* \"#utility.yul\":4821:4826   */\n      dup3\n        /* \"#utility.yul\":4817:4833   */\n      add\n        /* \"#utility.yul\":4811:4834   */\n      mload\n        /* \"#utility.yul\":4847:4904   */\n      tag_167\n        /* \"#utility.yul\":4898:4902   */\n      0x40\n        /* \"#utility.yul\":4893:4896   */\n      dup6\n        /* \"#utility.yul\":4889:4903   */\n      add\n        /* \"#utility.yul\":4875:4887   */\n      dup3\n        /* \"#utility.yul\":4847:4904   */\n      tag_85\n      jump\t// in\n    tag_167:\n        /* \"#utility.yul\":4749:4914   */\n      pop\n        /* \"#utility.yul\":4346:4921   */\n      pop\n        /* \"#utility.yul\":4244:4921   */\n      pop\n      pop\n      jump\t// out\n        /* \"#utility.yul\":4927:5198   */\n    tag_87:\n        /* \"#utility.yul\":5042:5052   */\n      0x00\n        /* \"#utility.yul\":5063:5155   */\n      tag_169\n        /* \"#utility.yul\":5151:5154   */\n      dup4\n        /* \"#utility.yul\":5143:5149   */\n      dup4\n        /* \"#utility.yul\":5063:5155   */\n      tag_86\n      jump\t// in\n    tag_169:\n        /* \"#utility.yul\":5187:5191   */\n      0x60\n        /* \"#utility.yul\":5182:5185   */\n      dup4\n        /* \"#utility.yul\":5178:5192   */\n      add\n        /* \"#utility.yul\":5164:5192   */\n      swap1\n      pop\n        /* \"#utility.yul\":4927:5198   */\n      swap3\n      swap2\n      pop\n      pop\n      jump\t// out\n        /* \"#utility.yul\":5204:5340   */\n    tag_88:\n        /* \"#utility.yul\":5297:5301   */\n      0x00\n        /* \"#utility.yul\":5329:5333   */\n      0x20\n        /* \"#utility.yul\":5324:5327   */\n      dup3\n        /* \"#utility.yul\":5320:5334   */\n      add\n        /* \"#utility.yul\":5312:5334   */\n      swap1\n      pop\n        /* \"#utility.yul\":5204:5340   */\n      swap2\n      swap1\n      pop\n      jump\t// out\n        /* \"#utility.yul\":5414:6330   */\n    tag_89:\n        /* \"#utility.yul\":5579:5582   */\n      0x00\n        /* \"#utility.yul\":5608:5685   */\n      tag_172\n        /* \"#utility.yul\":5679:5684   */\n      dup3\n        /* \"#utility.yul\":5608:5685   */\n      tag_80\n      jump\t// in\n    tag_172:\n        /* \"#utility.yul\":5701:5810   */\n      tag_173\n        /* \"#utility.yul\":5803:5809   */\n      dup2\n        /* \"#utility.yul\":5798:5801   */\n      dup6\n        /* \"#utility.yul\":5701:5810   */\n      tag_81\n      jump\t// in\n    tag_173:\n        /* \"#utility.yul\":5694:5810   */\n      swap4\n      pop\n        /* \"#utility.yul\":5834:5913   */\n      tag_174\n        /* \"#utility.yul\":5907:5912   */\n      dup4\n        /* \"#utility.yul\":5834:5913   */\n      tag_82\n      jump\t// in\n    tag_174:\n        /* \"#utility.yul\":5936:5943   */\n      dup1\n        /* \"#utility.yul\":5967:5968   */\n      0x00\n        /* \"#utility.yul\":5952:6305   */\n    tag_175:\n        /* \"#utility.yul\":5977:5983   */\n      dup4\n        /* \"#utility.yul\":5974:5975   */\n      dup2\n        /* \"#utility.yul\":5971:5984   */\n      lt\n        /* \"#utility.yul\":5952:6305   */\n      iszero\n      tag_177\n      jumpi\n        /* \"#utility.yul\":6053:6059   */\n      dup2\n        /* \"#utility.yul\":6047:6060   */\n      mload\n        /* \"#utility.yul\":6080:6189   */\n      tag_178\n        /* \"#utility.yul\":6185:6188   */\n      dup9\n        /* \"#utility.yul\":6170:6183   */\n      dup3\n        /* \"#utility.yul\":6080:6189   */\n      tag_87\n      jump\t// in\n    tag_178:\n        /* \"#utility.yul\":6073:6189   */\n      swap8\n      pop\n        /* \"#utility.yul\":6212:6295   */\n      tag_179\n        /* \"#utility.yul\":6288:6294   */\n      dup4\n        /* \"#utility.yul\":6212:6295   */\n      tag_88\n      jump\t// in\n    tag_179:\n        /* \"#utility.yul\":6202:6295   */\n      swap3\n      pop\n        /* \"#utility.yul\":6012:6305   */\n      pop\n        /* \"#utility.yul\":5999:6000   */\n      0x01\n        /* \"#utility.yul\":5996:5997   */\n      dup2\n        /* \"#utility.yul\":5992:6001   */\n      add\n        /* \"#utility.yul\":5987:6001   */\n      swap1\n      pop\n        /* \"#utility.yul\":5952:6305   */\n      jump(tag_175)\n    tag_177:\n        /* \"#utility.yul\":5956:5970   */\n      pop\n        /* \"#utility.yul\":6321:6324   */\n      dup6\n        /* \"#utility.yul\":6314:6324   */\n      swap4\n      pop\n        /* \"#utility.yul\":5584:6330   */\n      pop\n      pop\n      pop\n        /* \"#utility.yul\":5414:6330   */\n      swap3\n      swap2\n      pop\n      pop\n      jump\t// out\n        /* \"#utility.yul\":6336:7334   */\n    tag_18:\n        /* \"#utility.yul\":6657:6661   */\n      0x00\n        /* \"#utility.yul\":6695:6698   */\n      0xa0\n        /* \"#utility.yul\":6684:6693   */\n      dup3\n        /* \"#utility.yul\":6680:6699   */\n      add\n        /* \"#utility.yul\":6672:6699   */\n      swap1\n      pop\n        /* \"#utility.yul\":6709:6780   */\n      tag_181\n        /* \"#utility.yul\":6777:6778   */\n      0x00\n        /* \"#utility.yul\":6766:6775   */\n      dup4\n        /* \"#utility.yul\":6762:6779   */\n      add\n        /* \"#utility.yul\":6753:6759   */\n      dup9\n        /* \"#utility.yul\":6709:6780   */\n      tag_71\n      jump\t// in\n    tag_181:\n        /* \"#utility.yul\":6827:6836   */\n      dup2\n        /* \"#utility.yul\":6821:6825   */\n      dup2\n        /* \"#utility.yul\":6817:6837   */\n      sub\n        /* \"#utility.yul\":6812:6814   */\n      0x20\n        /* \"#utility.yul\":6801:6810   */\n      dup4\n        /* \"#utility.yul\":6797:6815   */\n      add\n        /* \"#utility.yul\":6790:6838   */\n      mstore\n        /* \"#utility.yul\":6855:6933   */\n      tag_182\n        /* \"#utility.yul\":6928:6932   */\n      dup2\n        /* \"#utility.yul\":6919:6925   */\n      dup8\n        /* \"#utility.yul\":6855:6933   */\n      tag_76\n      jump\t// in\n    tag_182:\n        /* \"#utility.yul\":6847:6933   */\n      swap1\n      pop\n        /* \"#utility.yul\":6943:7015   */\n      tag_183\n        /* \"#utility.yul\":7011:7013   */\n      0x40\n        /* \"#utility.yul\":7000:7009   */\n      dup4\n        /* \"#utility.yul\":6996:7014   */\n      add\n        /* \"#utility.yul\":6987:6993   */\n      dup7\n        /* \"#utility.yul\":6943:7015   */\n      tag_79\n      jump\t// in\n    tag_183:\n        /* \"#utility.yul\":7025:7097   */\n      tag_184\n        /* \"#utility.yul\":7093:7095   */\n      0x60\n        /* \"#utility.yul\":7082:7091   */\n      dup4\n        /* \"#utility.yul\":7078:7096   */\n      add\n        /* \"#utility.yul\":7069:7075   */\n      dup6\n        /* \"#utility.yul\":7025:7097   */\n      tag_71\n      jump\t// in\n    tag_184:\n        /* \"#utility.yul\":7145:7154   */\n      dup2\n        /* \"#utility.yul\":7139:7143   */\n      dup2\n        /* \"#utility.yul\":7135:7155   */\n      sub\n        /* \"#utility.yul\":7129:7132   */\n      0x80\n        /* \"#utility.yul\":7118:7127   */\n      dup4\n        /* \"#utility.yul\":7114:7133   */\n      add\n        /* \"#utility.yul\":7107:7156   */\n      mstore\n        /* \"#utility.yul\":7173:7327   */\n      tag_185\n        /* \"#utility.yul\":7322:7326   */\n      dup2\n        /* \"#utility.yul\":7313:7319   */\n      dup5\n        /* \"#utility.yul\":7173:7327   */\n      tag_89\n      jump\t// in\n    tag_185:\n        /* \"#utility.yul\":7165:7327   */\n      swap1\n      pop\n        /* \"#utility.yul\":6336:7334   */\n      swap7\n      swap6\n      pop\n      pop\n      pop\n      pop\n      pop\n      pop\n      jump\t// out\n        /* \"#utility.yul\":7340:7562   */\n    tag_23:\n        /* \"#utility.yul\":7433:7437   */\n      0x00\n        /* \"#utility.yul\":7471:7473   */\n      0x20\n        /* \"#utility.yul\":7460:7469   */\n      dup3\n        /* \"#utility.yul\":7456:7474   */\n      add\n        /* \"#utility.yul\":7448:7474   */\n      swap1\n      pop\n        /* \"#utility.yul\":7484:7555   */\n      tag_187\n        /* \"#utility.yul\":7552:7553   */\n      0x00\n        /* \"#utility.yul\":7541:7550   */\n      dup4\n        /* \"#utility.yul\":7537:7554   */\n      add\n        /* \"#utility.yul\":7528:7534   */\n      dup5\n        /* \"#utility.yul\":7484:7555   */\n      tag_71\n      jump\t// in\n    tag_187:\n        /* \"#utility.yul\":7340:7562   */\n      swap3\n      swap2\n      pop\n      pop\n      jump\t// out\n        /* \"#utility.yul\":7568:7685   */\n    tag_90:\n        /* \"#utility.yul\":7677:7678   */\n      0x00\n        /* \"#utility.yul\":7674:7675   */\n      dup1\n        /* \"#utility.yul\":7667:7679   */\n      revert\n        /* \"#utility.yul\":7691:7808   */\n    tag_91:\n        /* \"#utility.yul\":7800:7801   */\n      0x00\n        /* \"#utility.yul\":7797:7798   */\n      dup1\n        /* \"#utility.yul\":7790:7802   */\n      revert\n        /* \"#utility.yul\":7814:7994   */\n    tag_92:\n        /* \"#utility.yul\":7862:7939   */\n      0x4e487b7100000000000000000000000000000000000000000000000000000000\n        /* \"#utility.yul\":7859:7860   */\n      0x00\n        /* \"#utility.yul\":7852:7940   */\n      mstore\n        /* \"#utility.yul\":7959:7963   */\n      0x41\n        /* \"#utility.yul\":7956:7957   */\n      0x04\n        /* \"#utility.yul\":7949:7964   */\n      mstore\n        /* \"#utility.yul\":7983:7987   */\n      0x24\n        /* \"#utility.yul\":7980:7981   */\n      0x00\n        /* \"#utility.yul\":7973:7988   */\n      revert\n        /* \"#utility.yul\":8000:8281   */\n    tag_93:\n        /* \"#utility.yul\":8083:8110   */\n      tag_192\n        /* \"#utility.yul\":8105:8109   */\n      dup3\n        /* \"#utility.yul\":8083:8110   */\n      tag_75\n      jump\t// in\n    tag_192:\n        /* \"#utility.yul\":8075:8081   */\n      dup2\n        /* \"#utility.yul\":8071:8111   */\n      add\n        /* \"#utility.yul\":8213:8219   */\n      dup2\n        /* \"#utility.yul\":8201:8211   */\n      dup2\n        /* \"#utility.yul\":8198:8220   */\n      lt\n        /* \"#utility.yul\":8177:8195   */\n      0xffffffffffffffff\n        /* \"#utility.yul\":8165:8175   */\n      dup3\n        /* \"#utility.yul\":8162:8196   */\n      gt\n        /* \"#utility.yul\":8159:8221   */\n      or\n        /* \"#utility.yul\":8156:8244   */\n      iszero\n      tag_193\n      jumpi\n        /* \"#utility.yul\":8224:8242   */\n      tag_194\n      tag_92\n      jump\t// in\n    tag_194:\n        /* \"#utility.yul\":8156:8244   */\n    tag_193:\n        /* \"#utility.yul\":8264:8274   */\n      dup1\n        /* \"#utility.yul\":8260:8262   */\n      0x40\n        /* \"#utility.yul\":8253:8275   */\n      mstore\n        /* \"#utility.yul\":8043:8281   */\n      pop\n        /* \"#utility.yul\":8000:8281   */\n      pop\n      pop\n      jump\t// out\n        /* \"#utility.yul\":8287:8416   */\n    tag_94:\n        /* \"#utility.yul\":8321:8327   */\n      0x00\n        /* \"#utility.yul\":8348:8368   */\n      tag_196\n      tag_63\n      jump\t// in\n    tag_196:\n        /* \"#utility.yul\":8338:8368   */\n      swap1\n      pop\n        /* \"#utility.yul\":8377:8410   */\n      tag_197\n        /* \"#utility.yul\":8405:8409   */\n      dup3\n        /* \"#utility.yul\":8397:8403   */\n      dup3\n        /* \"#utility.yul\":8377:8410   */\n      tag_93\n      jump\t// in\n    tag_197:\n        /* \"#utility.yul\":8287:8416   */\n      swap2\n      swap1\n      pop\n      jump\t// out\n        /* \"#utility.yul\":8422:8730   */\n    tag_95:\n        /* \"#utility.yul\":8484:8488   */\n      0x00\n        /* \"#utility.yul\":8574:8592   */\n      0xffffffffffffffff\n        /* \"#utility.yul\":8566:8572   */\n      dup3\n        /* \"#utility.yul\":8563:8593   */\n      gt\n        /* \"#utility.yul\":8560:8616   */\n      iszero\n      tag_199\n      jumpi\n        /* \"#utility.yul\":8596:8614   */\n      tag_200\n      tag_92\n      jump\t// in\n    tag_200:\n        /* \"#utility.yul\":8560:8616   */\n    tag_199:\n        /* \"#utility.yul\":8634:8663   */\n      tag_201\n        /* \"#utility.yul\":8656:8662   */\n      dup3\n        /* \"#utility.yul\":8634:8663   */\n      tag_75\n      jump\t// in\n    tag_201:\n        /* \"#utility.yul\":8626:8663   */\n      swap1\n      pop\n        /* \"#utility.yul\":8718:8722   */\n      0x20\n        /* \"#utility.yul\":8712:8716   */\n      dup2\n        /* \"#utility.yul\":8708:8723   */\n      add\n        /* \"#utility.yul\":8700:8723   */\n      swap1\n      pop\n        /* \"#utility.yul\":8422:8730   */\n      swap2\n      swap1\n      pop\n      jump\t// out\n        /* \"#utility.yul\":8736:8884   */\n    tag_96:\n        /* \"#utility.yul\":8834:8840   */\n      dup3\n        /* \"#utility.yul\":8829:8832   */\n      dup2\n        /* \"#utility.yul\":8824:8827   */\n      dup4\n        /* \"#utility.yul\":8811:8841   */\n      calldatacopy\n        /* \"#utility.yul\":8875:8876   */\n      0x00\n        /* \"#utility.yul\":8866:8872   */\n      dup4\n        /* \"#utility.yul\":8861:8864   */\n      dup4\n        /* \"#utility.yul\":8857:8873   */\n      add\n        /* \"#utility.yul\":8850:8877   */\n      mstore\n        /* \"#utility.yul\":8736:8884   */\n      pop\n      pop\n      pop\n      jump\t// out\n        /* \"#utility.yul\":8890:9315   */\n    tag_97:\n        /* \"#utility.yul\":8968:8973   */\n      0x00\n        /* \"#utility.yul\":8993:9059   */\n      tag_204\n        /* \"#utility.yul\":9009:9058   */\n      tag_205\n        /* \"#utility.yul\":9051:9057   */\n      dup5\n        /* \"#utility.yul\":9009:9058   */\n      tag_95\n      jump\t// in\n    tag_205:\n        /* \"#utility.yul\":8993:9059   */\n      tag_94\n      jump\t// in\n    tag_204:\n        /* \"#utility.yul\":8984:9059   */\n      swap1\n      pop\n        /* \"#utility.yul\":9082:9088   */\n      dup3\n        /* \"#utility.yul\":9075:9080   */\n      dup2\n        /* \"#utility.yul\":9068:9089   */\n      mstore\n        /* \"#utility.yul\":9120:9124   */\n      0x20\n        /* \"#utility.yul\":9113:9118   */\n      dup2\n        /* \"#utility.yul\":9109:9125   */\n      add\n        /* \"#utility.yul\":9158:9161   */\n      dup5\n        /* \"#utility.yul\":9149:9155   */\n      dup5\n        /* \"#utility.yul\":9144:9147   */\n      dup5\n        /* \"#utility.yul\":9140:9156   */\n      add\n        /* \"#utility.yul\":9137:9162   */\n      gt\n        /* \"#utility.yul\":9134:9246   */\n      iszero\n      tag_206\n      jumpi\n        /* \"#utility.yul\":9165:9244   */\n      tag_207\n      tag_91\n      jump\t// in\n    tag_207:\n        /* \"#utility.yul\":9134:9246   */\n    tag_206:\n        /* \"#utility.yul\":9255:9309   */\n      tag_208\n        /* \"#utility.yul\":9302:9308   */\n      dup5\n        /* \"#utility.yul\":9297:9300   */\n      dup3\n        /* \"#utility.yul\":9292:9295   */\n      dup6\n        /* \"#utility.yul\":9255:9309   */\n      tag_96\n      jump\t// in\n    tag_208:\n        /* \"#utility.yul\":8974:9315   */\n      pop\n        /* \"#utility.yul\":8890:9315   */\n      swap4\n      swap3\n      pop\n      pop\n      pop\n      jump\t// out\n        /* \"#utility.yul\":9335:9675   */\n    tag_98:\n        /* \"#utility.yul\":9391:9396   */\n      0x00\n        /* \"#utility.yul\":9440:9443   */\n      dup3\n        /* \"#utility.yul\":9433:9437   */\n      0x1f\n        /* \"#utility.yul\":9425:9431   */\n      dup4\n        /* \"#utility.yul\":9421:9438   */\n      add\n        /* \"#utility.yul\":9417:9444   */\n      slt\n        /* \"#utility.yul\":9407:9529   */\n      tag_210\n      jumpi\n        /* \"#utility.yul\":9448:9527   */\n      tag_211\n      tag_90\n      jump\t// in\n    tag_211:\n        /* \"#utility.yul\":9407:9529   */\n    tag_210:\n        /* \"#utility.yul\":9565:9571   */\n      dup2\n        /* \"#utility.yul\":9552:9572   */\n      calldataload\n        /* \"#utility.yul\":9590:9669   */\n      tag_212\n        /* \"#utility.yul\":9665:9668   */\n      dup5\n        /* \"#utility.yul\":9657:9663   */\n      dup3\n        /* \"#utility.yul\":9650:9654   */\n      0x20\n        /* \"#utility.yul\":9642:9648   */\n      dup7\n        /* \"#utility.yul\":9638:9655   */\n      add\n        /* \"#utility.yul\":9590:9669   */\n      tag_97\n      jump\t// in\n    tag_212:\n        /* \"#utility.yul\":9581:9669   */\n      swap2\n      pop\n        /* \"#utility.yul\":9397:9675   */\n      pop\n        /* \"#utility.yul\":9335:9675   */\n      swap3\n      swap2\n      pop\n      pop\n      jump\t// out\n        /* \"#utility.yul\":9681:10335   */\n    tag_26:\n        /* \"#utility.yul\":9759:9765   */\n      0x00\n        /* \"#utility.yul\":9767:9773   */\n      dup1\n        /* \"#utility.yul\":9816:9818   */\n      0x40\n        /* \"#utility.yul\":9804:9813   */\n      dup4\n        /* \"#utility.yul\":9795:9802   */\n      dup6\n        /* \"#utility.yul\":9791:9814   */\n      sub\n        /* \"#utility.yul\":9787:9819   */\n      slt\n        /* \"#utility.yul\":9784:9903   */\n      iszero\n      tag_214\n      jumpi\n        /* \"#utility.yul\":9822:9901   */\n      tag_215\n      tag_64\n      jump\t// in\n    tag_215:\n        /* \"#utility.yul\":9784:9903   */\n    tag_214:\n        /* \"#utility.yul\":9970:9971   */\n      0x00\n        /* \"#utility.yul\":9959:9968   */\n      dup4\n        /* \"#utility.yul\":9955:9972   */\n      add\n        /* \"#utility.yul\":9942:9973   */\n      calldataload\n        /* \"#utility.yul\":10000:10018   */\n      0xffffffffffffffff\n        /* \"#utility.yul\":9992:9998   */\n      dup2\n        /* \"#utility.yul\":9989:10019   */\n      gt\n        /* \"#utility.yul\":9986:10103   */\n      iszero\n      tag_216\n      jumpi\n        /* \"#utility.yul\":10022:10101   */\n      tag_217\n      tag_65\n      jump\t// in\n    tag_217:\n        /* \"#utility.yul\":9986:10103   */\n    tag_216:\n        /* \"#utility.yul\":10127:10190   */\n      tag_218\n        /* \"#utility.yul\":10182:10189   */\n      dup6\n        /* \"#utility.yul\":10173:10179   */\n      dup3\n        /* \"#utility.yul\":10162:10171   */\n      dup7\n        /* \"#utility.yul\":10158:10180   */\n      add\n        /* \"#utility.yul\":10127:10190   */\n      tag_98\n      jump\t// in\n    tag_218:\n        /* \"#utility.yul\":10117:10190   */\n      swap3\n      pop\n        /* \"#utility.yul\":9913:10200   */\n      pop\n        /* \"#utility.yul\":10239:10241   */\n      0x20\n        /* \"#utility.yul\":10265:10318   */\n      tag_219\n        /* \"#utility.yul\":10310:10317   */\n      dup6\n        /* \"#utility.yul\":10301:10307   */\n      dup3\n        /* \"#utility.yul\":10290:10299   */\n      dup7\n        /* \"#utility.yul\":10286:10308   */\n      add\n        /* \"#utility.yul\":10265:10318   */\n      tag_68\n      jump\t// in\n    tag_219:\n        /* \"#utility.yul\":10255:10318   */\n      swap2\n      pop\n        /* \"#utility.yul\":10210:10328   */\n      pop\n        /* \"#utility.yul\":9681:10335   */\n      swap3\n      pop\n      swap3\n      swap1\n      pop\n      jump\t// out\n        /* \"#utility.yul\":10341:10521   */\n    tag_32:\n        /* \"#utility.yul\":10389:10466   */\n      0x4e487b7100000000000000000000000000000000000000000000000000000000\n        /* \"#utility.yul\":10386:10387   */\n      0x00\n        /* \"#utility.yul\":10379:10467   */\n      mstore\n        /* \"#utility.yul\":10486:10490   */\n      0x32\n        /* \"#utility.yul\":10483:10484   */\n      0x04\n        /* \"#utility.yul\":10476:10491   */\n      mstore\n        /* \"#utility.yul\":10510:10514   */\n      0x24\n        /* \"#utility.yul\":10507:10508   */\n      0x00\n        /* \"#utility.yul\":10500:10515   */\n      revert\n        /* \"#utility.yul\":10527:10707   */\n    tag_99:\n        /* \"#utility.yul\":10575:10652   */\n      0x4e487b7100000000000000000000000000000000000000000000000000000000\n        /* \"#utility.yul\":10572:10573   */\n      0x00\n        /* \"#utility.yul\":10565:10653   */\n      mstore\n        /* \"#utility.yul\":10672:10676   */\n      0x22\n        /* \"#utility.yul\":10669:10670   */\n      0x04\n        /* \"#utility.yul\":10662:10677   */\n      mstore\n        /* \"#utility.yul\":10696:10700   */\n      0x24\n        /* \"#utility.yul\":10693:10694   */\n      0x00\n        /* \"#utility.yul\":10686:10701   */\n      revert\n        /* \"#utility.yul\":10713:11033   */\n    tag_42:\n        /* \"#utility.yul\":10757:10763   */\n      0x00\n        /* \"#utility.yul\":10794:10795   */\n      0x02\n        /* \"#utility.yul\":10788:10792   */\n      dup3\n        /* \"#utility.yul\":10784:10796   */\n      div\n        /* \"#utility.yul\":10774:10796   */\n      swap1\n      pop\n        /* \"#utility.yul\":10841:10842   */\n      0x01\n        /* \"#utility.yul\":10835:10839   */\n      dup3\n        /* \"#utility.yul\":10831:10843   */\n      and\n        /* \"#utility.yul\":10862:10880   */\n      dup1\n        /* \"#utility.yul\":10852:10933   */\n      tag_223\n      jumpi\n        /* \"#utility.yul\":10918:10922   */\n      0x7f\n        /* \"#utility.yul\":10910:10916   */\n      dup3\n        /* \"#utility.yul\":10906:10923   */\n      and\n        /* \"#utility.yul\":10896:10923   */\n      swap2\n      pop\n        /* \"#utility.yul\":10852:10933   */\n    tag_223:\n        /* \"#utility.yul\":10980:10982   */\n      0x20\n        /* \"#utility.yul\":10972:10978   */\n      dup3\n        /* \"#utility.yul\":10969:10983   */\n      lt\n        /* \"#utility.yul\":10949:10967   */\n      dup2\n        /* \"#utility.yul\":10946:10984   */\n      sub\n        /* \"#utility.yul\":10943:11027   */\n      tag_224\n      jumpi\n        /* \"#utility.yul\":10999:11017   */\n      tag_225\n      tag_99\n      jump\t// in\n    tag_225:\n        /* \"#utility.yul\":10943:11027   */\n    tag_224:\n        /* \"#utility.yul\":10764:11033   */\n      pop\n        /* \"#utility.yul\":10713:11033   */\n      swap2\n      swap1\n      pop\n      jump\t// out\n        /* \"#utility.yul\":11039:11180   */\n    tag_100:\n        /* \"#utility.yul\":11088:11092   */\n      0x00\n        /* \"#utility.yul\":11111:11114   */\n      dup2\n        /* \"#utility.yul\":11103:11114   */\n      swap1\n      pop\n        /* \"#utility.yul\":11134:11137   */\n      dup2\n        /* \"#utility.yul\":11131:11132   */\n      0x00\n        /* \"#utility.yul\":11124:11138   */\n      mstore\n        /* \"#utility.yul\":11168:11172   */\n      0x20\n        /* \"#utility.yul\":11165:11166   */\n      0x00\n        /* \"#utility.yul\":11155:11173   */\n      keccak256\n        /* \"#utility.yul\":11147:11173   */\n      swap1\n      pop\n        /* \"#utility.yul\":11039:11180   */\n      swap2\n      swap1\n      pop\n      jump\t// out\n        /* \"#utility.yul\":11186:11279   */\n    tag_101:\n        /* \"#utility.yul\":11223:11229   */\n      0x00\n        /* \"#utility.yul\":11270:11272   */\n      0x20\n        /* \"#utility.yul\":11265:11267   */\n      0x1f\n        /* \"#utility.yul\":11258:11263   */\n      dup4\n        /* \"#utility.yul\":11254:11268   */\n      add\n        /* \"#utility.yul\":11250:11273   */\n      div\n        /* \"#utility.yul\":11240:11273   */\n      swap1\n      pop\n        /* \"#utility.yul\":11186:11279   */\n      swap2\n      swap1\n      pop\n      jump\t// out\n        /* \"#utility.yul\":11285:11392   */\n    tag_102:\n        /* \"#utility.yul\":11329:11337   */\n      0x00\n        /* \"#utility.yul\":11379:11384   */\n      dup3\n        /* \"#utility.yul\":11373:11377   */\n      dup3\n        /* \"#utility.yul\":11369:11385   */\n      shl\n        /* \"#utility.yul\":11348:11385   */\n      swap1\n      pop\n        /* \"#utility.yul\":11285:11392   */\n      swap3\n      swap2\n      pop\n      pop\n      jump\t// out\n        /* \"#utility.yul\":11398:11791   */\n    tag_103:\n        /* \"#utility.yul\":11467:11473   */\n      0x00\n        /* \"#utility.yul\":11517:11518   */\n      0x08\n        /* \"#utility.yul\":11505:11515   */\n      dup4\n        /* \"#utility.yul\":11501:11519   */\n      mul\n        /* \"#utility.yul\":11540:11637   */\n      tag_230\n        /* \"#utility.yul\":11570:11636   */\n      0xffffffffffffffffffffffffffffffffffffffffffffffffffffffffffffffff\n        /* \"#utility.yul\":11559:11568   */\n      dup3\n        /* \"#utility.yul\":11540:11637   */\n      tag_102\n      jump\t// in\n    tag_230:\n        /* \"#utility.yul\":11658:11697   */\n      tag_231\n        /* \"#utility.yul\":11688:11696   */\n      dup7\n        /* \"#utility.yul\":11677:11686   */\n      dup4\n        /* \"#utility.yul\":11658:11697   */\n      tag_102\n      jump\t// in\n    tag_231:\n        /* \"#utility.yul\":11646:11697   */\n      swap6\n      pop\n        /* \"#utility.yul\":11730:11734   */\n      dup1\n        /* \"#utility.yul\":11726:11735   */\n      not\n        /* \"#utility.yul\":11719:11724   */\n      dup5\n        /* \"#utility.yul\":11715:11736   */\n      and\n        /* \"#utility.yul\":11706:11736   */\n      swap4\n      pop\n        /* \"#utility.yul\":11779:11783   */\n      dup1\n        /* \"#utility.yul\":11769:11777   */\n      dup7\n        /* \"#utility.yul\":11765:11784   */\n      and\n        /* \"#utility.yul\":11758:11763   */\n      dup5\n        /* \"#utility.yul\":11755:11785   */\n      or\n        /* \"#utility.yul\":11745:11785   */\n      swap3\n      pop\n        /* \"#utility.yul\":11474:11791   */\n      pop\n      pop\n        /* \"#utility.yul\":11398:11791   */\n      swap4\n      swap3\n      pop\n      pop\n      pop\n      jump\t// out\n        /* \"#utility.yul\":11797:11857   */\n    tag_104:\n        /* \"#utility.yul\":11825:11828   */\n      0x00\n        /* \"#utility.yul\":11846:11851   */\n      dup2\n        /* \"#utility.yul\":11839:11851   */\n      swap1\n      pop\n        /* \"#utility.yul\":11797:11857   */\n      swap2\n      swap1\n      pop\n      jump\t// out\n        /* \"#utility.yul\":11863:12005   */\n    tag_105:\n        /* \"#utility.yul\":11913:11922   */\n      0x00\n        /* \"#utility.yul\":11946:11999   */\n      tag_234\n        /* \"#utility.yul\":11964:11998   */\n      tag_235\n        /* \"#utility.yul\":11973:11997   */\n      tag_236\n        /* \"#utility.yul\":11991:11996   */\n      dup5\n        /* \"#utility.yul\":11973:11997   */\n      tag_66\n      jump\t// in\n    tag_236:\n        /* \"#utility.yul\":11964:11998   */\n      tag_104\n      jump\t// in\n    tag_235:\n        /* \"#utility.yul\":11946:11999   */\n      tag_66\n      jump\t// in\n    tag_234:\n        /* \"#utility.yul\":11933:11999   */\n      swap1\n      pop\n        /* \"#utility.yul\":11863:12005   */\n      swap2\n      swap1\n      pop\n      jump\t// out\n        /* \"#utility.yul\":12011:12086   */\n    tag_106:\n        /* \"#utility.yul\":12054:12057   */\n      0x00\n        /* \"#utility.yul\":12075:12080   */\n      dup2\n        /* \"#utility.yul\":12068:12080   */\n      swap1\n      pop\n        /* \"#utility.yul\":12011:12086   */\n      swap2\n      swap1\n      pop\n      jump\t// out\n        /* \"#utility.yul\":12092:12361   */\n    tag_107:\n        /* \"#utility.yul\":12202:12241   */\n      tag_239\n        /* \"#utility.yul\":12233:12240   */\n      dup4\n        /* \"#utility.yul\":12202:12241   */\n      tag_105\n      jump\t// in\n    tag_239:\n        /* \"#utility.yul\":12263:12354   */\n      tag_240\n        /* \"#utility.yul\":12312:12353   */\n      tag_241\n        /* \"#utility.yul\":12336:12352   */\n      dup3\n        /* \"#utility.yul\":12312:12353   */\n      tag_106\n      jump\t// in\n    tag_241:\n        /* \"#utility.yul\":12304:12310   */\n      dup5\n        /* \"#utility.yul\":12297:12301   */\n      dup5\n        /* \"#utility.yul\":12291:12302   */\n      sload\n        /* \"#utility.yul\":12263:12354   */\n      tag_103\n      jump\t// in\n    tag_240:\n        /* \"#utility.yul\":12257:12261   */\n      dup3\n        /* \"#utility.yul\":12250:12355   */\n      sstore\n        /* \"#utility.yul\":12168:12361   */\n      pop\n        /* \"#utility.yul\":12092:12361   */\n      pop\n      pop\n      pop\n      jump\t// out\n        /* \"#utility.yul\":12367:12440   */\n    tag_108:\n        /* \"#utility.yul\":12412:12415   */\n      0x00\n        /* \"#utility.yul\":12367:12440   */\n      swap1\n      jump\t// out\n        /* \"#utility.yul\":12446:12635   */\n    tag_109:\n        /* \"#utility.yul\":12523:12555   */\n      tag_244\n      tag_108\n      jump\t// in\n    tag_244:\n        /* \"#utility.yul\":12564:12629   */\n      tag_245\n        /* \"#utility.yul\":12622:12628   */\n      dup2\n        /* \"#utility.yul\":12614:12620   */\n      dup5\n        /* \"#utility.yul\":12608:12612   */\n      dup5\n        /* \"#utility.yul\":12564:12629   */\n      tag_107\n      jump\t// in\n    tag_245:\n        /* \"#utility.yul\":12499:12635   */\n      pop\n        /* \"#utility.yul\":12446:12635   */\n      pop\n      pop\n      jump\t// out\n        /* \"#utility.yul\":12641:12827   */\n    tag_110:\n        /* \"#utility.yul\":12701:12821   */\n    tag_247:\n        /* \"#utility.yul\":12718:12721   */\n      dup2\n        /* \"#utility.yul\":12711:12716   */\n      dup2\n        /* \"#utility.yul\":12708:12722   */\n      lt\n        /* \"#utility.yul\":12701:12821   */\n      iszero\n      tag_249\n      jumpi\n        /* \"#utility.yul\":12772:12811   */\n      tag_250\n        /* \"#utility.yul\":12809:12810   */\n      0x00\n        /* \"#utility.yul\":12802:12807   */\n      dup3\n        /* \"#utility.yul\":12772:12811   */\n      tag_109\n      jump\t// in\n    tag_250:\n        /* \"#utility.yul\":12745:12746   */\n      0x01\n        /* \"#utility.yul\":12738:12743   */\n      dup2\n        /* \"#utility.yul\":12734:12747   */\n      add\n        /* \"#utility.yul\":12725:12747   */\n      swap1\n      pop\n        /* \"#utility.yul\":12701:12821   */\n      jump(tag_247)\n    tag_249:\n        /* \"#utility.yul\":12641:12827   */\n      pop\n      pop\n      jump\t// out\n        /* \"#utility.yul\":12833:13376   */\n    tag_111:\n        /* \"#utility.yul\":12934:12936   */\n      0x1f\n        /* \"#utility.yul\":12929:12932   */\n      dup3\n        /* \"#utility.yul\":12926:12937   */\n      gt\n        /* \"#utility.yul\":12923:13369   */\n      iszero\n      tag_252\n      jumpi\n        /* \"#utility.yul\":12968:13006   */\n      tag_253\n        /* \"#utility.yul\":13000:13005   */\n      dup2\n        /* \"#utility.yul\":12968:13006   */\n      tag_100\n      jump\t// in\n    tag_253:\n        /* \"#utility.yul\":13052:13081   */\n      tag_254\n        /* \"#utility.yul\":13070:13080   */\n      dup5\n        /* \"#utility.yul\":13052:13081   */\n      tag_101\n      jump\t// in\n    tag_254:\n        /* \"#utility.yul\":13042:13050   */\n      dup2\n        /* \"#utility.yul\":13038:13082   */\n      add\n        /* \"#utility.yul\":13235:13237   */\n      0x20\n        /* \"#utility.yul\":13223:13233   */\n      dup6\n        /* \"#utility.yul\":13220:13238   */\n      lt\n        /* \"#utility.yul\":13217:13266   */\n      iszero\n      tag_255\n      jumpi\n        /* \"#utility.yul\":13256:13264   */\n      dup2\n        /* \"#utility.yul\":13241:13264   */\n      swap1\n      pop\n        /* \"#utility.yul\":13217:13266   */\n    tag_255:\n        /* \"#utility.yul\":13279:13359   */\n      tag_256\n        /* \"#utility.yul\":13335:13357   */\n      tag_257\n        /* \"#utility.yul\":13353:13356   */\n      dup6\n        /* \"#utility.yul\":13335:13357   */\n      tag_101\n      jump\t// in\n    tag_257:\n        /* \"#utility.yul\":13325:13333   */\n      dup4\n        /* \"#utility.yul\":13321:13358   */\n      add\n        /* \"#utility.yul\":13308:13319   */\n      dup3\n        /* \"#utility.yul\":13279:13359   */\n      tag_110\n      jump\t// in\n    tag_256:\n        /* \"#utility.yul\":12938:13369   */\n      pop\n      pop\n        /* \"#utility.yul\":12923:13369   */\n    tag_252:\n        /* \"#utility.yul\":12833:13376   */\n      pop\n      pop\n      pop\n      jump\t// out\n        /* \"#utility.yul\":13382:13499   */\n    tag_112:\n        /* \"#utility.yul\":13436:13444   */\n      0x00\n        /* \"#utility.yul\":13486:13491   */\n      dup3\n        /* \"#utility.yul\":13480:13484   */\n      dup3\n        /* \"#utility.yul\":13476:13492   */\n      shr\n        /* \"#utility.yul\":13455:13492   */\n      swap1\n      pop\n        /* \"#utility.yul\":13382:13499   */\n      swap3\n      swap2\n      pop\n      pop\n      jump\t// out\n        /* \"#utility.yul\":13505:13674   */\n    tag_113:\n        /* \"#utility.yul\":13549:13555   */\n      0x00\n        /* \"#utility.yul\":13582:13633   */\n      tag_260\n        /* \"#utility.yul\":13630:13631   */\n      0x00\n        /* \"#utility.yul\":13626:13632   */\n      not\n        /* \"#utility.yul\":13618:13623   */\n      dup5\n        /* \"#utility.yul\":13615:13616   */\n      0x08\n        /* \"#utility.yul\":13611:13624   */\n      mul\n        /* \"#utility.yul\":13582:13633   */\n      tag_112\n      jump\t// in\n    tag_260:\n        /* \"#utility.yul\":13578:13634   */\n      not\n        /* \"#utility.yul\":13663:13667   */\n      dup1\n        /* \"#utility.yul\":13657:13661   */\n      dup4\n        /* \"#utility.yul\":13653:13668   */\n      and\n        /* \"#utility.yul\":13643:13668   */\n      swap2\n      pop\n        /* \"#utility.yul\":13556:13674   */\n      pop\n        /* \"#utility.yul\":13505:13674   */\n      swap3\n      swap2\n      pop\n      pop\n      jump\t// out\n        /* \"#utility.yul\":13679:13974   */\n    tag_114:\n        /* \"#utility.yul\":13755:13759   */\n      0x00\n        /* \"#utility.yul\":13901:13930   */\n      tag_262\n        /* \"#utility.yul\":13926:13929   */\n      dup4\n        /* \"#utility.yul\":13920:13924   */\n      dup4\n        /* \"#utility.yul\":13901:13930   */\n      tag_113\n      jump\t// in\n    tag_262:\n        /* \"#utility.yul\":13893:13930   */\n      swap2\n      pop\n        /* \"#utility.yul\":13963:13966   */\n      dup3\n        /* \"#utility.yul\":13960:13961   */\n      0x02\n        /* \"#utility.yul\":13956:13967   */\n      mul\n        /* \"#utility.yul\":13950:13954   */\n      dup3\n        /* \"#utility.yul\":13947:13968   */\n      or\n        /* \"#utility.yul\":13939:13968   */\n      swap1\n      pop\n        /* \"#utility.yul\":13679:13974   */\n      swap3\n      swap2\n      pop\n      pop\n      jump\t// out\n        /* \"#utility.yul\":13979:15374   */\n    tag_62:\n        /* \"#utility.yul\":14096:14133   */\n      tag_264\n        /* \"#utility.yul\":14129:14132   */\n      dup3\n        /* \"#utility.yul\":14096:14133   */\n      tag_72\n      jump\t// in\n    tag_264:\n        /* \"#utility.yul\":14198:14216   */\n      0xffffffffffffffff\n        /* \"#utility.yul\":14190:14196   */\n      dup2\n        /* \"#utility.yul\":14187:14217   */\n      gt\n        /* \"#utility.yul\":14184:14240   */\n      iszero\n      tag_265\n      jumpi\n        /* \"#utility.yul\":14220:14238   */\n      tag_266\n      tag_92\n      jump\t// in\n    tag_266:\n        /* \"#utility.yul\":14184:14240   */\n    tag_265:\n        /* \"#utility.yul\":14264:14302   */\n      tag_267\n        /* \"#utility.yul\":14296:14300   */\n      dup3\n        /* \"#utility.yul\":14290:14301   */\n      sload\n        /* \"#utility.yul\":14264:14302   */\n      tag_42\n      jump\t// in\n    tag_267:\n        /* \"#utility.yul\":14349:14416   */\n      tag_268\n        /* \"#utility.yul\":14409:14415   */\n      dup3\n        /* \"#utility.yul\":14401:14407   */\n      dup3\n        /* \"#utility.yul\":14395:14399   */\n      dup6\n        /* \"#utility.yul\":14349:14416   */\n      tag_111\n      jump\t// in\n    tag_268:\n        /* \"#utility.yul\":14443:14444   */\n      0x00\n        /* \"#utility.yul\":14467:14471   */\n      0x20\n        /* \"#utility.yul\":14454:14471   */\n      swap1\n      pop\n        /* \"#utility.yul\":14499:14501   */\n      0x1f\n        /* \"#utility.yul\":14491:14497   */\n      dup4\n        /* \"#utility.yul\":14488:14502   */\n      gt\n        /* \"#utility.yul\":14516:14517   */\n      0x01\n        /* \"#utility.yul\":14511:15129   */\n      dup2\n      eq\n      tag_270\n      jumpi\n        /* \"#utility.yul\":15173:15174   */\n      0x00\n        /* \"#utility.yul\":15190:15196   */\n      dup5\n        /* \"#utility.yul\":15187:15264   */\n      iszero\n      tag_271\n      jumpi\n        /* \"#utility.yul\":15239:15248   */\n      dup3\n        /* \"#utility.yul\":15234:15237   */\n      dup8\n        /* \"#utility.yul\":15230:15249   */\n      add\n        /* \"#utility.yul\":15224:15250   */\n      mload\n        /* \"#utility.yul\":15215:15250   */\n      swap1\n      pop\n        /* \"#utility.yul\":15187:15264   */\n    tag_271:\n        /* \"#utility.yul\":15290:15357   */\n      tag_272\n        /* \"#utility.yul\":15350:15356   */\n      dup6\n        /* \"#utility.yul\":15343:15348   */\n      dup3\n        /* \"#utility.yul\":15290:15357   */\n      tag_114\n      jump\t// in\n    tag_272:\n        /* \"#utility.yul\":15284:15288   */\n      dup7\n        /* \"#utility.yul\":15277:15358   */\n      sstore\n        /* \"#utility.yul\":15146:15368   */\n      pop\n        /* \"#utility.yul\":14481:15368   */\n      jump(tag_269)\n        /* \"#utility.yul\":14511:15129   */\n    tag_270:\n        /* \"#utility.yul\":14563:14567   */\n      0x1f\n        /* \"#utility.yul\":14559:14568   */\n      not\n        /* \"#utility.yul\":14551:14557   */\n      dup5\n        /* \"#utility.yul\":14547:14569   */\n      and\n        /* \"#utility.yul\":14597:14634   */\n      tag_273\n        /* \"#utility.yul\":14629:14633   */\n      dup7\n        /* \"#utility.yul\":14597:14634   */\n      tag_100\n      jump\t// in\n    tag_273:\n        /* \"#utility.yul\":14656:14657   */\n      0x00\n        /* \"#utility.yul\":14670:14878   */\n    tag_274:\n        /* \"#utility.yul\":14684:14691   */\n      dup3\n        /* \"#utility.yul\":14681:14682   */\n      dup2\n        /* \"#utility.yul\":14678:14692   */\n      lt\n        /* \"#utility.yul\":14670:14878   */\n      iszero\n      tag_276\n      jumpi\n        /* \"#utility.yul\":14763:14772   */\n      dup5\n        /* \"#utility.yul\":14758:14761   */\n      dup10\n        /* \"#utility.yul\":14754:14773   */\n      add\n        /* \"#utility.yul\":14748:14774   */\n      mload\n        /* \"#utility.yul\":14740:14746   */\n      dup3\n        /* \"#utility.yul\":14733:14775   */\n      sstore\n        /* \"#utility.yul\":14814:14815   */\n      0x01\n        /* \"#utility.yul\":14806:14812   */\n      dup3\n        /* \"#utility.yul\":14802:14816   */\n      add\n        /* \"#utility.yul\":14792:14816   */\n      swap2\n      pop\n        /* \"#utility.yul\":14861:14863   */\n      0x20\n        /* \"#utility.yul\":14850:14859   */\n      dup6\n        /* \"#utility.yul\":14846:14864   */\n      add\n        /* \"#utility.yul\":14833:14864   */\n      swap5\n      pop\n        /* \"#utility.yul\":14707:14711   */\n      0x20\n        /* \"#utility.yul\":14704:14705   */\n      dup2\n        /* \"#utility.yul\":14700:14712   */\n      add\n        /* \"#utility.yul\":14695:14712   */\n      swap1\n      pop\n        /* \"#utility.yul\":14670:14878   */\n      jump(tag_274)\n    tag_276:\n        /* \"#utility.yul\":14906:14912   */\n      dup7\n        /* \"#utility.yul\":14897:14904   */\n      dup4\n        /* \"#utility.yul\":14894:14913   */\n      lt\n        /* \"#utility.yul\":14891:15070   */\n      iszero\n      tag_277\n      jumpi\n        /* \"#utility.yul\":14964:14973   */\n      dup5\n        /* \"#utility.yul\":14959:14962   */\n      dup10\n        /* \"#utility.yul\":14955:14974   */\n      add\n        /* \"#utility.yul\":14949:14975   */\n      mload\n        /* \"#utility.yul\":15007:15055   */\n      tag_278\n        /* \"#utility.yul\":15049:15053   */\n      0x1f\n        /* \"#utility.yul\":15041:15047   */\n      dup10\n        /* \"#utility.yul\":15037:15054   */\n      and\n        /* \"#utility.yul\":15026:15035   */\n      dup3\n        /* \"#utility.yul\":15007:15055   */\n      tag_113\n      jump\t// in\n    tag_278:\n        /* \"#utility.yul\":14999:15005   */\n      dup4\n        /* \"#utility.yul\":14992:15056   */\n      sstore\n        /* \"#utility.yul\":14914:15070   */\n      pop\n        /* \"#utility.yul\":14891:15070   */\n    tag_277:\n        /* \"#utility.yul\":15116:15117   */\n      0x01\n        /* \"#utility.yul\":15112:15113   */\n      0x02\n        /* \"#utility.yul\":15104:15110   */\n      dup9\n        /* \"#utility.yul\":15100:15114   */\n      mul\n        /* \"#utility.yul\":15096:15118   */\n      add\n        /* \"#utility.yul\":15090:15094   */\n      dup9\n        /* \"#utility.yul\":15083:15119   */\n      sstore\n        /* \"#utility.yul\":14518:15129   */\n      pop\n      pop\n      pop\n        /* \"#utility.yul\":14481:15368   */\n    tag_269:\n      pop\n        /* \"#utility.yul\":14071:15374   */\n      pop\n      pop\n      pop\n        /* \"#utility.yul\":13979:15374   */\n      pop\n      pop\n      jump\t// out\n\n    auxdata: 0xa2646970667358221220a2d304d630ce099c3706a2ec275204a4dc0324ffe0f5d120e38e1838d4794e5564736f6c634300081a0033\n}\n",
				"bytecode": {
					"linkReferences": {},
					"object": "6080604052348015600e575f80fd5b50610cad8061001c5f395ff3fe608060405234801561000f575f80fd5b506004361061004a575f3560e01c8063134fe3dc1461004e5780631d65e77e1461007e5780636e17e240146100b2578063851e0a7f146100e2575b5f80fd5b61006860048036038101906100639190610514565b610112565b604051610075919061056c565b60405180910390f35b61009860048036038101906100939190610585565b610184565b6040516100a9959493929190610783565b60405180910390f35b6100cc60048036038101906100c79190610585565b610350565b6040516100d991906107e2565b60405180910390f35b6100fc60048036038101906100f79190610927565b610421565b60405161010991906107e2565b60405180910390f35b5f806001848154811061012857610127610981565b5b905f5260205f20906005020190505f81600401848154811061014d5761014c610981565b5b905f5260205f209060020201905060018160010160146101000a81548160ff02191690831515021790555060019250505092915050565b5f60605f8060605f600187815481106101a05761019f610981565b5b905f5260205f2090600502019050805f015481600101826002015f9054906101000a900473ffffffffffffffffffffffffffffffffffffffff168360030154846004018380546101ef906109db565b80601f016020809104026020016040519081016040528092919081815260200182805461021b906109db565b80156102665780601f1061023d57610100808354040283529160200191610266565b820191905f5260205f20905b81548152906001019060200180831161024957829003601f168201915b5050505050935080805480602002602001604051908101604052809291908181526020015f905b82821015610336578382905f5260205f2090600202016040518060600160405290815f8201548152602001600182015f9054906101000a900473ffffffffffffffffffffffffffffffffffffffff1673ffffffffffffffffffffffffffffffffffffffff1673ffffffffffffffffffffffffffffffffffffffff1681526020016001820160149054906101000a900460ff1615151515815250508152602001906001019061028d565b505050509050955095509550955095505091939590929450565b5f805f60028054905003610366575f905061036f565b60028054905090505b5f6001848154811061038457610383610981565b5b905f5260205f20906005020160040160018160018154018082558091505003905f5260205f209060020201905081815f018190555033816001015f6101000a81548173ffffffffffffffffffffffffffffffffffffffff021916908373ffffffffffffffffffffffffffffffffffffffff1602179055505f8160010160146101000a81548160ff0219169083151502179055508192505050919050565b5f805f60018054905003610437575f9050610440565b60018054905090505b5f6001808160018154018082558091505003905f5260205f209060050201905081815f0181905550848160010190816104799190610ba8565b5033816002015f6101000a81548173ffffffffffffffffffffffffffffffffffffffff021916908373ffffffffffffffffffffffffffffffffffffffff160217905550838160030181905550819250505092915050565b5f604051905090565b5f80fd5b5f80fd5b5f819050919050565b6104f3816104e1565b81146104fd575f80fd5b50565b5f8135905061050e816104ea565b92915050565b5f806040838503121561052a576105296104d9565b5b5f61053785828601610500565b925050602061054885828601610500565b9150509250929050565b5f8115159050919050565b61056681610552565b82525050565b5f60208201905061057f5f83018461055d565b92915050565b5f6020828403121561059a576105996104d9565b5b5f6105a784828501610500565b91505092915050565b6105b9816104e1565b82525050565b5f81519050919050565b5f82825260208201905092915050565b8281835e5f83830152505050565b5f601f19601f8301169050919050565b5f610601826105bf565b61060b81856105c9565b935061061b8185602086016105d9565b610624816105e7565b840191505092915050565b5f73ffffffffffffffffffffffffffffffffffffffff82169050919050565b5f6106588261062f565b9050919050565b6106688161064e565b82525050565b5f81519050919050565b5f82825260208201905092915050565b5f819050602082019050919050565b6106a0816104e1565b82525050565b6106af8161064e565b82525050565b6106be81610552565b82525050565b606082015f8201516106d85f850182610697565b5060208201516106eb60208501826106a6565b5060408201516106fe60408501826106b5565b50505050565b5f61070f83836106c4565b60608301905092915050565b5f602082019050919050565b5f6107318261066e565b61073b8185610678565b935061074683610688565b805f5b8381101561077657815161075d8882610704565b97506107688361071b565b925050600181019050610749565b5085935050505092915050565b5f60a0820190506107965f8301886105b0565b81810360208301526107a881876105f7565b90506107b7604083018661065f565b6107c460608301856105b0565b81810360808301526107d68184610727565b90509695505050505050565b5f6020820190506107f55f8301846105b0565b92915050565b5f80fd5b5f80fd5b7f4e487b71000000000000000000000000000000000000000000000000000000005f52604160045260245ffd5b610839826105e7565b810181811067ffffffffffffffff8211171561085857610857610803565b5b80604052505050565b5f61086a6104d0565b90506108768282610830565b919050565b5f67ffffffffffffffff82111561089557610894610803565b5b61089e826105e7565b9050602081019050919050565b828183375f83830152505050565b5f6108cb6108c68461087b565b610861565b9050828152602081018484840111156108e7576108e66107ff565b5b6108f28482856108ab565b509392505050565b5f82601f83011261090e5761090d6107fb565b5b813561091e8482602086016108b9565b91505092915050565b5f806040838503121561093d5761093c6104d9565b5b5f83013567ffffffffffffffff81111561095a576109596104dd565b5b610966858286016108fa565b925050602061097785828601610500565b9150509250929050565b7f4e487b71000000000000000000000000000000000000000000000000000000005f52603260045260245ffd5b7f4e487b71000000000000000000000000000000000000000000000000000000005f52602260045260245ffd5b5f60028204905060018216806109f257607f821691505b602082108103610a0557610a046109ae565b5b50919050565b5f819050815f5260205f209050919050565b5f6020601f8301049050919050565b5f82821b905092915050565b5f60088302610a677fffffffffffffffffffffffffffffffffffffffffffffffffffffffffffffffff82610a2c565b610a718683610a2c565b95508019841693508086168417925050509392505050565b5f819050919050565b5f610aac610aa7610aa2846104e1565b610a89565b6104e1565b9050919050565b5f819050919050565b610ac583610a92565b610ad9610ad182610ab3565b848454610a38565b825550505050565b5f90565b610aed610ae1565b610af8818484610abc565b505050565b5b81811015610b1b57610b105f82610ae5565b600181019050610afe565b5050565b601f821115610b6057610b3181610a0b565b610b3a84610a1d565b81016020851015610b49578190505b610b5d610b5585610a1d565b830182610afd565b50505b505050565b5f82821c905092915050565b5f610b805f1984600802610b65565b1980831691505092915050565b5f610b988383610b71565b9150826002028217905092915050565b610bb1826105bf565b67ffffffffffffffff811115610bca57610bc9610803565b5b610bd482546109db565b610bdf828285610b1f565b5f60209050601f831160018114610c10575f8415610bfe578287015190505b610c088582610b8d565b865550610c6f565b601f198416610c1e86610a0b565b5f5b82811015610c4557848901518255600182019150602085019450602081019050610c20565b86831015610c625784890151610c5e601f891682610b71565b8355505b6001600288020188555050505b50505050505056fea2646970667358221220a2d304d630ce099c3706a2ec275204a4dc0324ffe0f5d120e38e1838d4794e5564736f6c634300081a0033",
					"opcodes": "PUSH1 0x80 PUSH1 0x40 MSTORE CALLVALUE DUP1 ISZERO PUSH1 0xE JUMPI PUSH0 DUP1 REVERT JUMPDEST POP PUSH2 0xCAD DUP1 PUSH2 0x1C PUSH0 CODECOPY PUSH0 RETURN INVALID PUSH1 0x80 PUSH1 0x40 MSTORE CALLVALUE DUP1 ISZERO PUSH2 0xF JUMPI PUSH0 DUP1 REVERT JUMPDEST POP PUSH1 0x4 CALLDATASIZE LT PUSH2 0x4A JUMPI PUSH0 CALLDATALOAD PUSH1 0xE0 SHR DUP1 PUSH4 0x134FE3DC EQ PUSH2 0x4E JUMPI DUP1 PUSH4 0x1D65E77E EQ PUSH2 0x7E JUMPI DUP1 PUSH4 0x6E17E240 EQ PUSH2 0xB2 JUMPI DUP1 PUSH4 0x851E0A7F EQ PUSH2 0xE2 JUMPI JUMPDEST PUSH0 DUP1 REVERT JUMPDEST PUSH2 0x68 PUSH1 0x4 DUP1 CALLDATASIZE SUB DUP2 ADD SWAP1 PUSH2 0x63 SWAP2 SWAP1 PUSH2 0x514 JUMP JUMPDEST PUSH2 0x112 JUMP JUMPDEST PUSH1 0x40 MLOAD PUSH2 0x75 SWAP2 SWAP1 PUSH2 0x56C JUMP JUMPDEST PUSH1 0x40 MLOAD DUP1 SWAP2 SUB SWAP1 RETURN JUMPDEST PUSH2 0x98 PUSH1 0x4 DUP1 CALLDATASIZE SUB DUP2 ADD SWAP1 PUSH2 0x93 SWAP2 SWAP1 PUSH2 0x585 JUMP JUMPDEST PUSH2 0x184 JUMP JUMPDEST PUSH1 0x40 MLOAD PUSH2 0xA9 SWAP6 SWAP5 SWAP4 SWAP3 SWAP2 SWAP1 PUSH2 0x783 JUMP JUMPDEST PUSH1 0x40 MLOAD DUP1 SWAP2 SUB SWAP1 RETURN JUMPDEST PUSH2 0xCC PUSH1 0x4 DUP1 CALLDATASIZE SUB DUP2 ADD SWAP1 PUSH2 0xC7 SWAP2 SWAP1 PUSH2 0x585 JUMP JUMPDEST PUSH2 0x350 JUMP JUMPDEST PUSH1 0x40 MLOAD PUSH2 0xD9 SWAP2 SWAP1 PUSH2 0x7E2 JUMP JUMPDEST PUSH1 0x40 MLOAD DUP1 SWAP2 SUB SWAP1 RETURN JUMPDEST PUSH2 0xFC PUSH1 0x4 DUP1 CALLDATASIZE SUB DUP2 ADD SWAP1 PUSH2 0xF7 SWAP2 SWAP1 PUSH2 0x927 JUMP JUMPDEST PUSH2 0x421 JUMP JUMPDEST PUSH1 0x40 MLOAD PUSH2 0x109 SWAP2 SWAP1 PUSH2 0x7E2 JUMP JUMPDEST PUSH1 0x40 MLOAD DUP1 SWAP2 SUB SWAP1 RETURN JUMPDEST PUSH0 DUP1 PUSH1 0x1 DUP5 DUP2 SLOAD DUP2 LT PUSH2 0x128 JUMPI PUSH2 0x127 PUSH2 0x981 JUMP JUMPDEST JUMPDEST SWAP1 PUSH0 MSTORE PUSH1 0x20 PUSH0 KECCAK256 SWAP1 PUSH1 0x5 MUL ADD SWAP1 POP PUSH0 DUP2 PUSH1 0x4 ADD DUP5 DUP2 SLOAD DUP2 LT PUSH2 0x14D JUMPI PUSH2 0x14C PUSH2 0x981 JUMP JUMPDEST JUMPDEST SWAP1 PUSH0 MSTORE PUSH1 0x20 PUSH0 KECCAK256 SWAP1 PUSH1 0x2 MUL ADD SWAP1 POP PUSH1 0x1 DUP2 PUSH1 0x1 ADD PUSH1 0x14 PUSH2 0x100 EXP DUP2 SLOAD DUP2 PUSH1 0xFF MUL NOT AND SWAP1 DUP4 ISZERO ISZERO MUL OR SWAP1 SSTORE POP PUSH1 0x1 SWAP3 POP POP POP SWAP3 SWAP2 POP POP JUMP JUMPDEST PUSH0 PUSH1 0x60 PUSH0 DUP1 PUSH1 0x60 PUSH0 PUSH1 0x1 DUP8 DUP2 SLOAD DUP2 LT PUSH2 0x1A0 JUMPI PUSH2 0x19F PUSH2 0x981 JUMP JUMPDEST JUMPDEST SWAP1 PUSH0 MSTORE PUSH1 0x20 PUSH0 KECCAK256 SWAP1 PUSH1 0x5 MUL ADD SWAP1 POP DUP1 PUSH0 ADD SLOAD DUP2 PUSH1 0x1 ADD DUP3 PUSH1 0x2 ADD PUSH0 SWAP1 SLOAD SWAP1 PUSH2 0x100 EXP SWAP1 DIV PUSH20 0xFFFFFFFFFFFFFFFFFFFFFFFFFFFFFFFFFFFFFFFF AND DUP4 PUSH1 0x3 ADD SLOAD DUP5 PUSH1 0x4 ADD DUP4 DUP1 SLOAD PUSH2 0x1EF SWAP1 PUSH2 0x9DB JUMP JUMPDEST DUP1 PUSH1 0x1F ADD PUSH1 0x20 DUP1 SWAP2 DIV MUL PUSH1 0x20 ADD PUSH1 0x40 MLOAD SWAP1 DUP2 ADD PUSH1 0x40 MSTORE DUP1 SWAP3 SWAP2 SWAP1 DUP2 DUP2 MSTORE PUSH1 0x20 ADD DUP3 DUP1 SLOAD PUSH2 0x21B SWAP1 PUSH2 0x9DB JUMP JUMPDEST DUP1 ISZERO PUSH2 0x266 JUMPI DUP1 PUSH1 0x1F LT PUSH2 0x23D JUMPI PUSH2 0x100 DUP1 DUP4 SLOAD DIV MUL DUP4 MSTORE SWAP2 PUSH1 0x20 ADD SWAP2 PUSH2 0x266 JUMP JUMPDEST DUP3 ADD SWAP2 SWAP1 PUSH0 MSTORE PUSH1 0x20 PUSH0 KECCAK256 SWAP1 JUMPDEST DUP2 SLOAD DUP2 MSTORE SWAP1 PUSH1 0x1 ADD SWAP1 PUSH1 0x20 ADD DUP1 DUP4 GT PUSH2 0x249 JUMPI DUP3 SWAP1 SUB PUSH1 0x1F AND DUP3 ADD SWAP2 JUMPDEST POP POP POP POP POP SWAP4 POP DUP1 DUP1 SLOAD DUP1 PUSH1 0x20 MUL PUSH1 0x20 ADD PUSH1 0x40 MLOAD SWAP1 DUP2 ADD PUSH1 0x40 MSTORE DUP1 SWAP3 SWAP2 SWAP1 DUP2 DUP2 MSTORE PUSH1 0x20 ADD PUSH0 SWAP1 JUMPDEST DUP3 DUP3 LT ISZERO PUSH2 0x336 JUMPI DUP4 DUP3 SWAP1 PUSH0 MSTORE PUSH1 0x20 PUSH0 KECCAK256 SWAP1 PUSH1 0x2 MUL ADD PUSH1 0x40 MLOAD DUP1 PUSH1 0x60 ADD PUSH1 0x40 MSTORE SWAP1 DUP2 PUSH0 DUP3 ADD SLOAD DUP2 MSTORE PUSH1 0x20 ADD PUSH1 0x1 DUP3 ADD PUSH0 SWAP1 SLOAD SWAP1 PUSH2 0x100 EXP SWAP1 DIV PUSH20 0xFFFFFFFFFFFFFFFFFFFFFFFFFFFFFFFFFFFFFFFF AND PUSH20 0xFFFFFFFFFFFFFFFFFFFFFFFFFFFFFFFFFFFFFFFF AND PUSH20 0xFFFFFFFFFFFFFFFFFFFFFFFFFFFFFFFFFFFFFFFF AND DUP2 MSTORE PUSH1 0x20 ADD PUSH1 0x1 DUP3 ADD PUSH1 0x14 SWAP1 SLOAD SWAP1 PUSH2 0x100 EXP SWAP1 DIV PUSH1 0xFF AND ISZERO ISZERO ISZERO ISZERO DUP2 MSTORE POP POP DUP2 MSTORE PUSH1 0x20 ADD SWAP1 PUSH1 0x1 ADD SWAP1 PUSH2 0x28D JUMP JUMPDEST POP POP POP POP SWAP1 POP SWAP6 POP SWAP6 POP SWAP6 POP SWAP6 POP SWAP6 POP POP SWAP2 SWAP4 SWAP6 SWAP1 SWAP3 SWAP5 POP JUMP JUMPDEST PUSH0 DUP1 PUSH0 PUSH1 0x2 DUP1 SLOAD SWAP1 POP SUB PUSH2 0x366 JUMPI PUSH0 SWAP1 POP PUSH2 0x36F JUMP JUMPDEST PUSH1 0x2 DUP1 SLOAD SWAP1 POP SWAP1 POP JUMPDEST PUSH0 PUSH1 0x1 DUP5 DUP2 SLOAD DUP2 LT PUSH2 0x384 JUMPI PUSH2 0x383 PUSH2 0x981 JUMP JUMPDEST JUMPDEST SWAP1 PUSH0 MSTORE PUSH1 0x20 PUSH0 KECCAK256 SWAP1 PUSH1 0x5 MUL ADD PUSH1 0x4 ADD PUSH1 0x1 DUP2 PUSH1 0x1 DUP2 SLOAD ADD DUP1 DUP3 SSTORE DUP1 SWAP2 POP POP SUB SWAP1 PUSH0 MSTORE PUSH1 0x20 PUSH0 KECCAK256 SWAP1 PUSH1 0x2 MUL ADD SWAP1 POP DUP2 DUP2 PUSH0 ADD DUP2 SWAP1 SSTORE POP CALLER DUP2 PUSH1 0x1 ADD PUSH0 PUSH2 0x100 EXP DUP2 SLOAD DUP2 PUSH20 0xFFFFFFFFFFFFFFFFFFFFFFFFFFFFFFFFFFFFFFFF MUL NOT AND SWAP1 DUP4 PUSH20 0xFFFFFFFFFFFFFFFFFFFFFFFFFFFFFFFFFFFFFFFF AND MUL OR SWAP1 SSTORE POP PUSH0 DUP2 PUSH1 0x1 ADD PUSH1 0x14 PUSH2 0x100 EXP DUP2 SLOAD DUP2 PUSH1 0xFF MUL NOT AND SWAP1 DUP4 ISZERO ISZERO MUL OR SWAP1 SSTORE POP DUP2 SWAP3 POP POP POP SWAP2 SWAP1 POP JUMP JUMPDEST PUSH0 DUP1 PUSH0 PUSH1 0x1 DUP1 SLOAD SWAP1 POP SUB PUSH2 0x437 JUMPI PUSH0 SWAP1 POP PUSH2 0x440 JUMP JUMPDEST PUSH1 0x1 DUP1 SLOAD SWAP1 POP SWAP1 POP JUMPDEST PUSH0 PUSH1 0x1 DUP1 DUP2 PUSH1 0x1 DUP2 SLOAD ADD DUP1 DUP3 SSTORE DUP1 SWAP2 POP POP SUB SWAP1 PUSH0 MSTORE PUSH1 0x20 PUSH0 KECCAK256 SWAP1 PUSH1 0x5 MUL ADD SWAP1 POP DUP2 DUP2 PUSH0 ADD DUP2 SWAP1 SSTORE POP DUP5 DUP2 PUSH1 0x1 ADD SWAP1 DUP2 PUSH2 0x479 SWAP2 SWAP1 PUSH2 0xBA8 JUMP JUMPDEST POP CALLER DUP2 PUSH1 0x2 ADD PUSH0 PUSH2 0x100 EXP DUP2 SLOAD DUP2 PUSH20 0xFFFFFFFFFFFFFFFFFFFFFFFFFFFFFFFFFFFFFFFF MUL NOT AND SWAP1 DUP4 PUSH20 0xFFFFFFFFFFFFFFFFFFFFFFFFFFFFFFFFFFFFFFFF AND MUL OR SWAP1 SSTORE POP DUP4 DUP2 PUSH1 0x3 ADD DUP2 SWAP1 SSTORE POP DUP2 SWAP3 POP POP POP SWAP3 SWAP2 POP POP JUMP JUMPDEST PUSH0 PUSH1 0x40 MLOAD SWAP1 POP SWAP1 JUMP JUMPDEST PUSH0 DUP1 REVERT JUMPDEST PUSH0 DUP1 REVERT JUMPDEST PUSH0 DUP2 SWAP1 POP SWAP2 SWAP1 POP JUMP JUMPDEST PUSH2 0x4F3 DUP2 PUSH2 0x4E1 JUMP JUMPDEST DUP2 EQ PUSH2 0x4FD JUMPI PUSH0 DUP1 REVERT JUMPDEST POP JUMP JUMPDEST PUSH0 DUP2 CALLDATALOAD SWAP1 POP PUSH2 0x50E DUP2 PUSH2 0x4EA JUMP JUMPDEST SWAP3 SWAP2 POP POP JUMP JUMPDEST PUSH0 DUP1 PUSH1 0x40 DUP4 DUP6 SUB SLT ISZERO PUSH2 0x52A JUMPI PUSH2 0x529 PUSH2 0x4D9 JUMP JUMPDEST JUMPDEST PUSH0 PUSH2 0x537 DUP6 DUP3 DUP7 ADD PUSH2 0x500 JUMP JUMPDEST SWAP3 POP POP PUSH1 0x20 PUSH2 0x548 DUP6 DUP3 DUP7 ADD PUSH2 0x500 JUMP JUMPDEST SWAP2 POP POP SWAP3 POP SWAP3 SWAP1 POP JUMP JUMPDEST PUSH0 DUP2 ISZERO ISZERO SWAP1 POP SWAP2 SWAP1 POP JUMP JUMPDEST PUSH2 0x566 DUP2 PUSH2 0x552 JUMP JUMPDEST DUP3 MSTORE POP POP JUMP JUMPDEST PUSH0 PUSH1 0x20 DUP3 ADD SWAP1 POP PUSH2 0x57F PUSH0 DUP4 ADD DUP5 PUSH2 0x55D JUMP JUMPDEST SWAP3 SWAP2 POP POP JUMP JUMPDEST PUSH0 PUSH1 0x20 DUP3 DUP5 SUB SLT ISZERO PUSH2 0x59A JUMPI PUSH2 0x599 PUSH2 0x4D9 JUMP JUMPDEST JUMPDEST PUSH0 PUSH2 0x5A7 DUP5 DUP3 DUP6 ADD PUSH2 0x500 JUMP JUMPDEST SWAP2 POP POP SWAP3 SWAP2 POP POP JUMP JUMPDEST PUSH2 0x5B9 DUP2 PUSH2 0x4E1 JUMP JUMPDEST DUP3 MSTORE POP POP JUMP JUMPDEST PUSH0 DUP2 MLOAD SWAP1 POP SWAP2 SWAP1 POP JUMP JUMPDEST PUSH0 DUP3 DUP3 MSTORE PUSH1 0x20 DUP3 ADD SWAP1 POP SWAP3 SWAP2 POP POP JUMP JUMPDEST DUP3 DUP2 DUP4 MCOPY PUSH0 DUP4 DUP4 ADD MSTORE POP POP POP JUMP JUMPDEST PUSH0 PUSH1 0x1F NOT PUSH1 0x1F DUP4 ADD AND SWAP1 POP SWAP2 SWAP1 POP JUMP JUMPDEST PUSH0 PUSH2 0x601 DUP3 PUSH2 0x5BF JUMP JUMPDEST PUSH2 0x60B DUP2 DUP6 PUSH2 0x5C9 JUMP JUMPDEST SWAP4 POP PUSH2 0x61B DUP2 DUP6 PUSH1 0x20 DUP7 ADD PUSH2 0x5D9 JUMP JUMPDEST PUSH2 0x624 DUP2 PUSH2 0x5E7 JUMP JUMPDEST DUP5 ADD SWAP2 POP POP SWAP3 SWAP2 POP POP JUMP JUMPDEST PUSH0 PUSH20 0xFFFFFFFFFFFFFFFFFFFFFFFFFFFFFFFFFFFFFFFF DUP3 AND SWAP1 POP SWAP2 SWAP1 POP JUMP JUMPDEST PUSH0 PUSH2 0x658 DUP3 PUSH2 0x62F JUMP JUMPDEST SWAP1 POP SWAP2 SWAP1 POP JUMP JUMPDEST PUSH2 0x668 DUP2 PUSH2 0x64E JUMP JUMPDEST DUP3 MSTORE POP POP JUMP JUMPDEST PUSH0 DUP2 MLOAD SWAP1 POP SWAP2 SWAP1 POP JUMP JUMPDEST PUSH0 DUP3 DUP3 MSTORE PUSH1 0x20 DUP3 ADD SWAP1 POP SWAP3 SWAP2 POP POP JUMP JUMPDEST PUSH0 DUP2 SWAP1 POP PUSH1 0x20 DUP3 ADD SWAP1 POP SWAP2 SWAP1 POP JUMP JUMPDEST PUSH2 0x6A0 DUP2 PUSH2 0x4E1 JUMP JUMPDEST DUP3 MSTORE POP POP JUMP JUMPDEST PUSH2 0x6AF DUP2 PUSH2 0x64E JUMP JUMPDEST DUP3 MSTORE POP POP JUMP JUMPDEST PUSH2 0x6BE DUP2 PUSH2 0x552 JUMP JUMPDEST DUP3 MSTORE POP POP JUMP JUMPDEST PUSH1 0x60 DUP3 ADD PUSH0 DUP3 ADD MLOAD PUSH2 0x6D8 PUSH0 DUP6 ADD DUP3 PUSH2 0x697 JUMP JUMPDEST POP PUSH1 0x20 DUP3 ADD MLOAD PUSH2 0x6EB PUSH1 0x20 DUP6 ADD DUP3 PUSH2 0x6A6 JUMP JUMPDEST POP PUSH1 0x40 DUP3 ADD MLOAD PUSH2 0x6FE PUSH1 0x40 DUP6 ADD DUP3 PUSH2 0x6B5 JUMP JUMPDEST POP POP POP POP JUMP JUMPDEST PUSH0 PUSH2 0x70F DUP4 DUP4 PUSH2 0x6C4 JUMP JUMPDEST PUSH1 0x60 DUP4 ADD SWAP1 POP SWAP3 SWAP2 POP POP JUMP JUMPDEST PUSH0 PUSH1 0x20 DUP3 ADD SWAP1 POP SWAP2 SWAP1 POP JUMP JUMPDEST PUSH0 PUSH2 0x731 DUP3 PUSH2 0x66E JUMP JUMPDEST PUSH2 0x73B DUP2 DUP6 PUSH2 0x678 JUMP JUMPDEST SWAP4 POP PUSH2 0x746 DUP4 PUSH2 0x688 JUMP JUMPDEST DUP1 PUSH0 JUMPDEST DUP4 DUP2 LT ISZERO PUSH2 0x776 JUMPI DUP2 MLOAD PUSH2 0x75D DUP9 DUP3 PUSH2 0x704 JUMP JUMPDEST SWAP8 POP PUSH2 0x768 DUP4 PUSH2 0x71B JUMP JUMPDEST SWAP3 POP POP PUSH1 0x1 DUP2 ADD SWAP1 POP PUSH2 0x749 JUMP JUMPDEST POP DUP6 SWAP4 POP POP POP POP SWAP3 SWAP2 POP POP JUMP JUMPDEST PUSH0 PUSH1 0xA0 DUP3 ADD SWAP1 POP PUSH2 0x796 PUSH0 DUP4 ADD DUP9 PUSH2 0x5B0 JUMP JUMPDEST DUP2 DUP2 SUB PUSH1 0x20 DUP4 ADD MSTORE PUSH2 0x7A8 DUP2 DUP8 PUSH2 0x5F7 JUMP JUMPDEST SWAP1 POP PUSH2 0x7B7 PUSH1 0x40 DUP4 ADD DUP7 PUSH2 0x65F JUMP JUMPDEST PUSH2 0x7C4 PUSH1 0x60 DUP4 ADD DUP6 PUSH2 0x5B0 JUMP JUMPDEST DUP2 DUP2 SUB PUSH1 0x80 DUP4 ADD MSTORE PUSH2 0x7D6 DUP2 DUP5 PUSH2 0x727 JUMP JUMPDEST SWAP1 POP SWAP7 SWAP6 POP POP POP POP POP POP JUMP JUMPDEST PUSH0 PUSH1 0x20 DUP3 ADD SWAP1 POP PUSH2 0x7F5 PUSH0 DUP4 ADD DUP5 PUSH2 0x5B0 JUMP JUMPDEST SWAP3 SWAP2 POP POP JUMP JUMPDEST PUSH0 DUP1 REVERT JUMPDEST PUSH0 DUP1 REVERT JUMPDEST PUSH32 0x4E487B7100000000000000000000000000000000000000000000000000000000 PUSH0 MSTORE PUSH1 0x41 PUSH1 0x4 MSTORE PUSH1 0x24 PUSH0 REVERT JUMPDEST PUSH2 0x839 DUP3 PUSH2 0x5E7 JUMP JUMPDEST DUP2 ADD DUP2 DUP2 LT PUSH8 0xFFFFFFFFFFFFFFFF DUP3 GT OR ISZERO PUSH2 0x858 JUMPI PUSH2 0x857 PUSH2 0x803 JUMP JUMPDEST JUMPDEST DUP1 PUSH1 0x40 MSTORE POP POP POP JUMP JUMPDEST PUSH0 PUSH2 0x86A PUSH2 0x4D0 JUMP JUMPDEST SWAP1 POP PUSH2 0x876 DUP3 DUP3 PUSH2 0x830 JUMP JUMPDEST SWAP2 SWAP1 POP JUMP JUMPDEST PUSH0 PUSH8 0xFFFFFFFFFFFFFFFF DUP3 GT ISZERO PUSH2 0x895 JUMPI PUSH2 0x894 PUSH2 0x803 JUMP JUMPDEST JUMPDEST PUSH2 0x89E DUP3 PUSH2 0x5E7 JUMP JUMPDEST SWAP1 POP PUSH1 0x20 DUP2 ADD SWAP1 POP SWAP2 SWAP1 POP JUMP JUMPDEST DUP3 DUP2 DUP4 CALLDATACOPY PUSH0 DUP4 DUP4 ADD MSTORE POP POP POP JUMP JUMPDEST PUSH0 PUSH2 0x8CB PUSH2 0x8C6 DUP5 PUSH2 0x87B JUMP JUMPDEST PUSH2 0x861 JUMP JUMPDEST SWAP1 POP DUP3 DUP2 MSTORE PUSH1 0x20 DUP2 ADD DUP5 DUP5 DUP5 ADD GT ISZERO PUSH2 0x8E7 JUMPI PUSH2 0x8E6 PUSH2 0x7FF JUMP JUMPDEST JUMPDEST PUSH2 0x8F2 DUP5 DUP3 DUP6 PUSH2 0x8AB JUMP JUMPDEST POP SWAP4 SWAP3 POP POP POP JUMP JUMPDEST PUSH0 DUP3 PUSH1 0x1F DUP4 ADD SLT PUSH2 0x90E JUMPI PUSH2 0x90D PUSH2 0x7FB JUMP JUMPDEST JUMPDEST DUP2 CALLDATALOAD PUSH2 0x91E DUP5 DUP3 PUSH1 0x20 DUP7 ADD PUSH2 0x8B9 JUMP JUMPDEST SWAP2 POP POP SWAP3 SWAP2 POP POP JUMP JUMPDEST PUSH0 DUP1 PUSH1 0x40 DUP4 DUP6 SUB SLT ISZERO PUSH2 0x93D JUMPI PUSH2 0x93C PUSH2 0x4D9 JUMP JUMPDEST JUMPDEST PUSH0 DUP4 ADD CALLDATALOAD PUSH8 0xFFFFFFFFFFFFFFFF DUP2 GT ISZERO PUSH2 0x95A JUMPI PUSH2 0x959 PUSH2 0x4DD JUMP JUMPDEST JUMPDEST PUSH2 0x966 DUP6 DUP3 DUP7 ADD PUSH2 0x8FA JUMP JUMPDEST SWAP3 POP POP PUSH1 0x20 PUSH2 0x977 DUP6 DUP3 DUP7 ADD PUSH2 0x500 JUMP JUMPDEST SWAP2 POP POP SWAP3 POP SWAP3 SWAP1 POP JUMP JUMPDEST PUSH32 0x4E487B7100000000000000000000000000000000000000000000000000000000 PUSH0 MSTORE PUSH1 0x32 PUSH1 0x4 MSTORE PUSH1 0x24 PUSH0 REVERT JUMPDEST PUSH32 0x4E487B7100000000000000000000000000000000000000000000000000000000 PUSH0 MSTORE PUSH1 0x22 PUSH1 0x4 MSTORE PUSH1 0x24 PUSH0 REVERT JUMPDEST PUSH0 PUSH1 0x2 DUP3 DIV SWAP1 POP PUSH1 0x1 DUP3 AND DUP1 PUSH2 0x9F2 JUMPI PUSH1 0x7F DUP3 AND SWAP2 POP JUMPDEST PUSH1 0x20 DUP3 LT DUP2 SUB PUSH2 0xA05 JUMPI PUSH2 0xA04 PUSH2 0x9AE JUMP JUMPDEST JUMPDEST POP SWAP2 SWAP1 POP JUMP JUMPDEST PUSH0 DUP2 SWAP1 POP DUP2 PUSH0 MSTORE PUSH1 0x20 PUSH0 KECCAK256 SWAP1 POP SWAP2 SWAP1 POP JUMP JUMPDEST PUSH0 PUSH1 0x20 PUSH1 0x1F DUP4 ADD DIV SWAP1 POP SWAP2 SWAP1 POP JUMP JUMPDEST PUSH0 DUP3 DUP3 SHL SWAP1 POP SWAP3 SWAP2 POP POP JUMP JUMPDEST PUSH0 PUSH1 0x8 DUP4 MUL PUSH2 0xA67 PUSH32 0xFFFFFFFFFFFFFFFFFFFFFFFFFFFFFFFFFFFFFFFFFFFFFFFFFFFFFFFFFFFFFFFF DUP3 PUSH2 0xA2C JUMP JUMPDEST PUSH2 0xA71 DUP7 DUP4 PUSH2 0xA2C JUMP JUMPDEST SWAP6 POP DUP1 NOT DUP5 AND SWAP4 POP DUP1 DUP7 AND DUP5 OR SWAP3 POP POP POP SWAP4 SWAP3 POP POP POP JUMP JUMPDEST PUSH0 DUP2 SWAP1 POP SWAP2 SWAP1 POP JUMP JUMPDEST PUSH0 PUSH2 0xAAC PUSH2 0xAA7 PUSH2 0xAA2 DUP5 PUSH2 0x4E1 JUMP JUMPDEST PUSH2 0xA89 JUMP JUMPDEST PUSH2 0x4E1 JUMP JUMPDEST SWAP1 POP SWAP2 SWAP1 POP JUMP JUMPDEST PUSH0 DUP2 SWAP1 POP SWAP2 SWAP1 POP JUMP JUMPDEST PUSH2 0xAC5 DUP4 PUSH2 0xA92 JUMP JUMPDEST PUSH2 0xAD9 PUSH2 0xAD1 DUP3 PUSH2 0xAB3 JUMP JUMPDEST DUP5 DUP5 SLOAD PUSH2 0xA38 JUMP JUMPDEST DUP3 SSTORE POP POP POP POP JUMP JUMPDEST PUSH0 SWAP1 JUMP JUMPDEST PUSH2 0xAED PUSH2 0xAE1 JUMP JUMPDEST PUSH2 0xAF8 DUP2 DUP5 DUP5 PUSH2 0xABC JUMP JUMPDEST POP POP POP JUMP JUMPDEST JUMPDEST DUP2 DUP2 LT ISZERO PUSH2 0xB1B JUMPI PUSH2 0xB10 PUSH0 DUP3 PUSH2 0xAE5 JUMP JUMPDEST PUSH1 0x1 DUP2 ADD SWAP1 POP PUSH2 0xAFE JUMP JUMPDEST POP POP JUMP JUMPDEST PUSH1 0x1F DUP3 GT ISZERO PUSH2 0xB60 JUMPI PUSH2 0xB31 DUP2 PUSH2 0xA0B JUMP JUMPDEST PUSH2 0xB3A DUP5 PUSH2 0xA1D JUMP JUMPDEST DUP2 ADD PUSH1 0x20 DUP6 LT ISZERO PUSH2 0xB49 JUMPI DUP2 SWAP1 POP JUMPDEST PUSH2 0xB5D PUSH2 0xB55 DUP6 PUSH2 0xA1D JUMP JUMPDEST DUP4 ADD DUP3 PUSH2 0xAFD JUMP JUMPDEST POP POP JUMPDEST POP POP POP JUMP JUMPDEST PUSH0 DUP3 DUP3 SHR SWAP1 POP SWAP3 SWAP2 POP POP JUMP JUMPDEST PUSH0 PUSH2 0xB80 PUSH0 NOT DUP5 PUSH1 0x8 MUL PUSH2 0xB65 JUMP JUMPDEST NOT DUP1 DUP4 AND SWAP2 POP POP SWAP3 SWAP2 POP POP JUMP JUMPDEST PUSH0 PUSH2 0xB98 DUP4 DUP4 PUSH2 0xB71 JUMP JUMPDEST SWAP2 POP DUP3 PUSH1 0x2 MUL DUP3 OR SWAP1 POP SWAP3 SWAP2 POP POP JUMP JUMPDEST PUSH2 0xBB1 DUP3 PUSH2 0x5BF JUMP JUMPDEST PUSH8 0xFFFFFFFFFFFFFFFF DUP2 GT ISZERO PUSH2 0xBCA JUMPI PUSH2 0xBC9 PUSH2 0x803 JUMP JUMPDEST JUMPDEST PUSH2 0xBD4 DUP3 SLOAD PUSH2 0x9DB JUMP JUMPDEST PUSH2 0xBDF DUP3 DUP3 DUP6 PUSH2 0xB1F JUMP JUMPDEST PUSH0 PUSH1 0x20 SWAP1 POP PUSH1 0x1F DUP4 GT PUSH1 0x1 DUP2 EQ PUSH2 0xC10 JUMPI PUSH0 DUP5 ISZERO PUSH2 0xBFE JUMPI DUP3 DUP8 ADD MLOAD SWAP1 POP JUMPDEST PUSH2 0xC08 DUP6 DUP3 PUSH2 0xB8D JUMP JUMPDEST DUP7 SSTORE POP PUSH2 0xC6F JUMP JUMPDEST PUSH1 0x1F NOT DUP5 AND PUSH2 0xC1E DUP7 PUSH2 0xA0B JUMP JUMPDEST PUSH0 JUMPDEST DUP3 DUP2 LT ISZERO PUSH2 0xC45 JUMPI DUP5 DUP10 ADD MLOAD DUP3 SSTORE PUSH1 0x1 DUP3 ADD SWAP2 POP PUSH1 0x20 DUP6 ADD SWAP5 POP PUSH1 0x20 DUP2 ADD SWAP1 POP PUSH2 0xC20 JUMP JUMPDEST DUP7 DUP4 LT ISZERO PUSH2 0xC62 JUMPI DUP5 DUP10 ADD MLOAD PUSH2 0xC5E PUSH1 0x1F DUP10 AND DUP3 PUSH2 0xB71 JUMP JUMPDEST DUP4 SSTORE POP JUMPDEST PUSH1 0x1 PUSH1 0x2 DUP9 MUL ADD DUP9 SSTORE POP POP POP JUMPDEST POP POP POP POP POP POP JUMP INVALID LOG2 PUSH5 0x6970667358 0x22 SLT KECCAK256 LOG2 0xD3 DIV 0xD6 ADDRESS 0xCE MULMOD SWAP13 CALLDATACOPY MOD LOG2 0xEC 0x27 MSTORE DIV LOG4 0xDC SUB 0x24 SELFDESTRUCT 0xE0 CREATE2 0xD1 KECCAK256 0xE3 DUP15 XOR CODESIZE 0xD4 PUSH26 0x4E5564736F6C634300081A003300000000000000000000000000 "
				},
				"gasEstimates": {
					"creation": {
						"codeDepositCost": "649000",
						"executionCost": "681",
						"totalCost": "649681"
					},
					"external": {
						"deployTask(string,uint256)": "infinite",
						"getTask(uint256)": "infinite",
						"uploadDataset(uint256)": "infinite",
						"verifyDataset(uint256,uint256)": "infinite"
					}
				},
				"methodIdentifiers": {
					"deployTask(string,uint256)": "851e0a7f",
					"getTask(uint256)": "1d65e77e",
					"uploadDataset(uint256)": "6e17e240",
					"verifyDataset(uint256,uint256)": "134fe3dc"
				}
			},
			"storageLayout": {
				"storage": [
					{
						"astId": 6,
						"contract": "contracts/DataPunk/newDataPunk.sol:NewDataPunk",
						"label": "TaskDataset",
						"offset": 0,
						"slot": "0",
						"type": "t_mapping(t_uint256,t_struct(Task)19_storage)"
					},
					{
						"astId": 30,
						"contract": "contracts/DataPunk/newDataPunk.sol:NewDataPunk",
						"label": "tasks",
						"offset": 0,
						"slot": "1",
						"type": "t_array(t_struct(Task)19_storage)dyn_storage"
					},
					{
						"astId": 34,
						"contract": "contracts/DataPunk/newDataPunk.sol:NewDataPunk",
						"label": "datasets",
						"offset": 0,
						"slot": "2",
						"type": "t_array(t_struct(Dataset)26_storage)dyn_storage"
					}
				],
				"types": {
					"t_address": {
						"encoding": "inplace",
						"label": "address",
						"numberOfBytes": "20"
					},
					"t_array(t_struct(Dataset)26_storage)dyn_storage": {
						"base": "t_struct(Dataset)26_storage",
						"encoding": "dynamic_array",
						"label": "struct NewDataPunk.Dataset[]",
						"numberOfBytes": "32"
					},
					"t_array(t_struct(Task)19_storage)dyn_storage": {
						"base": "t_struct(Task)19_storage",
						"encoding": "dynamic_array",
						"label": "struct NewDataPunk.Task[]",
						"numberOfBytes": "32"
					},
					"t_bool": {
						"encoding": "inplace",
						"label": "bool",
						"numberOfBytes": "1"
					},
					"t_mapping(t_uint256,t_struct(Task)19_storage)": {
						"encoding": "mapping",
						"key": "t_uint256",
						"label": "mapping(uint256 => struct NewDataPunk.Task)",
						"numberOfBytes": "32",
						"value": "t_struct(Task)19_storage"
					},
					"t_string_storage": {
						"encoding": "bytes",
						"label": "string",
						"numberOfBytes": "32"
					},
					"t_struct(Dataset)26_storage": {
						"encoding": "inplace",
						"label": "struct NewDataPunk.Dataset",
						"members": [
							{
								"astId": 21,
								"contract": "contracts/DataPunk/newDataPunk.sol:NewDataPunk",
								"label": "datasetId",
								"offset": 0,
								"slot": "0",
								"type": "t_uint256"
							},
							{
								"astId": 23,
								"contract": "contracts/DataPunk/newDataPunk.sol:NewDataPunk",
								"label": "uploader",
								"offset": 0,
								"slot": "1",
								"type": "t_address"
							},
							{
								"astId": 25,
								"contract": "contracts/DataPunk/newDataPunk.sol:NewDataPunk",
								"label": "isValidated",
								"offset": 20,
								"slot": "1",
								"type": "t_bool"
							}
						],
						"numberOfBytes": "64"
					},
					"t_struct(Task)19_storage": {
						"encoding": "inplace",
						"label": "struct NewDataPunk.Task",
						"members": [
							{
								"astId": 8,
								"contract": "contracts/DataPunk/newDataPunk.sol:NewDataPunk",
								"label": "taskId",
								"offset": 0,
								"slot": "0",
								"type": "t_uint256"
							},
							{
								"astId": 10,
								"contract": "contracts/DataPunk/newDataPunk.sol:NewDataPunk",
								"label": "taskName",
								"offset": 0,
								"slot": "1",
								"type": "t_string_storage"
							},
							{
								"astId": 12,
								"contract": "contracts/DataPunk/newDataPunk.sol:NewDataPunk",
								"label": "publisher",
								"offset": 0,
								"slot": "2",
								"type": "t_address"
							},
							{
								"astId": 14,
								"contract": "contracts/DataPunk/newDataPunk.sol:NewDataPunk",
								"label": "reward",
								"offset": 0,
								"slot": "3",
								"type": "t_uint256"
							},
							{
								"astId": 18,
								"contract": "contracts/DataPunk/newDataPunk.sol:NewDataPunk",
								"label": "datasets",
								"offset": 0,
								"slot": "4",
								"type": "t_array(t_struct(Dataset)26_storage)dyn_storage"
							}
						],
						"numberOfBytes": "160"
					},
					"t_uint256": {
						"encoding": "inplace",
						"label": "uint256",
						"numberOfBytes": "32"
					}
				}
			},
			"userdoc": {
				"kind": "user",
				"methods": {},
				"version": 1
			}
		}
	}
}