{
	"contracts/DataPunk/DataPunk.sol": {
		"DataPunk": {
			"abi": [
				{
					"inputs": [],
					"stateMutability": "nonpayable",
					"type": "constructor"
				},
				{
					"inputs": [],
					"name": "dataPunkCoinInter",
					"outputs": [
						{
							"internalType": "contract DataPunkCoinInter",
							"name": "",
							"type": "address"
						}
					],
					"stateMutability": "view",
					"type": "function"
				},
				{
					"inputs": [
						{
							"internalType": "string",
							"name": "name",
							"type": "string"
						},
						{
							"internalType": "uint256",
							"name": "reward",
							"type": "uint256"
						}
					],
					"name": "deployTask",
					"outputs": [
						{
							"internalType": "uint256",
							"name": "",
							"type": "uint256"
						}
					],
					"stateMutability": "nonpayable",
					"type": "function"
				},
				{
					"inputs": [],
					"name": "getDataPunkCoinInterAddress",
					"outputs": [
						{
							"internalType": "address",
							"name": "",
							"type": "address"
						}
					],
					"stateMutability": "view",
					"type": "function"
				},
				{
					"inputs": [
						{
							"internalType": "uint256",
							"name": "taskId",
							"type": "uint256"
						}
					],
					"name": "getTask",
					"outputs": [
						{
							"internalType": "uint256",
							"name": "",
							"type": "uint256"
						},
						{
							"internalType": "string",
							"name": "",
							"type": "string"
						},
						{
							"internalType": "address",
							"name": "",
							"type": "address"
						},
						{
							"internalType": "uint256",
							"name": "",
							"type": "uint256"
						},
						{
							"components": [
								{
									"internalType": "uint256",
									"name": "datasetId",
									"type": "uint256"
								},
								{
									"internalType": "address",
									"name": "uploader",
									"type": "address"
								},
								{
									"internalType": "bool",
									"name": "isValidated",
									"type": "bool"
								},
								{
									"internalType": "address",
									"name": "validator",
									"type": "address"
								}
							],
							"internalType": "struct DataPunk.Dataset[]",
							"name": "",
							"type": "tuple[]"
						}
					],
					"stateMutability": "view",
					"type": "function"
				},
				{
					"inputs": [
						{
							"internalType": "uint256",
							"name": "amount",
							"type": "uint256"
						},
						{
							"internalType": "uint256",
							"name": "taskId",
							"type": "uint256"
						},
						{
							"internalType": "uint256",
							"name": "datasetId",
							"type": "uint256"
						},
						{
							"internalType": "bool",
							"name": "challengeStatus",
							"type": "bool"
						}
					],
					"name": "raiseChallenge",
					"outputs": [
						{
							"internalType": "bool",
							"name": "",
							"type": "bool"
						}
					],
					"stateMutability": "nonpayable",
					"type": "function"
				},
				{
					"inputs": [
						{
							"internalType": "address",
							"name": "recipient",
							"type": "address"
						},
						{
							"internalType": "uint256",
							"name": "amount",
							"type": "uint256"
						}
					],
					"name": "transferToken",
					"outputs": [],
					"stateMutability": "nonpayable",
					"type": "function"
				},
				{
					"inputs": [
						{
							"internalType": "uint256",
							"name": "taskId",
							"type": "uint256"
						}
					],
					"name": "uploadDataset",
					"outputs": [
						{
							"internalType": "uint256",
							"name": "",
							"type": "uint256"
						}
					],
					"stateMutability": "nonpayable",
					"type": "function"
				},
				{
					"inputs": [
						{
							"internalType": "uint256",
							"name": "taskId",
							"type": "uint256"
						},
						{
							"internalType": "uint256",
							"name": "datasetId",
							"type": "uint256"
						}
					],
					"name": "verifyDataset",
					"outputs": [
						{
							"internalType": "bool",
							"name": "",
							"type": "bool"
						}
					],
					"stateMutability": "payable",
					"type": "function"
				}
			],
			"devdoc": {
				"kind": "dev",
				"methods": {},
				"version": 1
			},
			"evm": {
				"assembly": "    /* \"contracts/DataPunk/DataPunk.sol\":93:3629  contract DataPunk {... */\n  mstore(0x40, 0x80)\n    /* \"contracts/DataPunk/DataPunk.sol\":610:684  constructor() {... */\n  callvalue\n  dup1\n  iszero\n  tag_1\n  jumpi\n  0x00\n  dup1\n  revert\ntag_1:\n  pop\n    /* \"contracts/DataPunk/DataPunk.sol\":654:677  new DataPunkCoinInter() */\n  mload(0x40)\n  tag_4\n  swap1\n  tag_5\n  jump\t// in\ntag_4:\n  mload(0x40)\n  dup1\n  swap2\n  sub\n  swap1\n  0x00\n  create\n  dup1\n  iszero\n  dup1\n  iszero\n  tag_6\n  jumpi\n  returndatasize\n  0x00\n  dup1\n  returndatacopy\n  revert(0x00, returndatasize)\ntag_6:\n  pop\n    /* \"contracts/DataPunk/DataPunk.sol\":634:651  dataPunkCoinInter */\n  0x00\n  dup1\n    /* \"contracts/DataPunk/DataPunk.sol\":634:677  dataPunkCoinInter = new DataPunkCoinInter() */\n  0x0100\n  exp\n  dup2\n  sload\n  dup2\n  0xffffffffffffffffffffffffffffffffffffffff\n  mul\n  not\n  and\n  swap1\n  dup4\n  0xffffffffffffffffffffffffffffffffffffffff\n  and\n  mul\n  or\n  swap1\n  sstore\n  pop\n    /* \"contracts/DataPunk/DataPunk.sol\":93:3629  contract DataPunk {... */\n  jump(tag_7)\ntag_5:\n  dataSize(sub_1)\n  dup1\n  dataOffset(sub_1)\n  dup4\n  codecopy\n  add\n  swap1\n  jump\t// out\ntag_7:\n  dataSize(sub_0)\n  dup1\n  dataOffset(sub_0)\n  0x00\n  codecopy\n  0x00\n  return\nstop\n\nsub_0: assembly {\n        /* \"contracts/DataPunk/DataPunk.sol\":93:3629  contract DataPunk {... */\n      mstore(0x40, 0x80)\n      jumpi(tag_1, lt(calldatasize, 0x04))\n      shr(0xe0, calldataload(0x00))\n      dup1\n      0x4fa86ca5\n      gt\n      tag_10\n      jumpi\n      dup1\n      0x4fa86ca5\n      eq\n      tag_6\n      jumpi\n      dup1\n      0x6e17e240\n      eq\n      tag_7\n      jumpi\n      dup1\n      0x851e0a7f\n      eq\n      tag_8\n      jumpi\n      dup1\n      0xe13fdf36\n      eq\n      tag_9\n      jumpi\n      jump(tag_1)\n    tag_10:\n      dup1\n      0x1072cbea\n      eq\n      tag_2\n      jumpi\n      dup1\n      0x134fe3dc\n      eq\n      tag_3\n      jumpi\n      dup1\n      0x1d65e77e\n      eq\n      tag_4\n      jumpi\n      dup1\n      0x20cfd795\n      eq\n      tag_5\n      jumpi\n    tag_1:\n      0x00\n      dup1\n      revert\n        /* \"contracts/DataPunk/DataPunk.sol\":3095:3442  function transferToken(address recipient, uint256 amount) public {... */\n    tag_2:\n      callvalue\n      dup1\n      iszero\n      tag_11\n      jumpi\n      0x00\n      dup1\n      revert\n    tag_11:\n      pop\n      tag_12\n      0x04\n      dup1\n      calldatasize\n      sub\n      dup2\n      add\n      swap1\n      tag_13\n      swap2\n      swap1\n      tag_14\n      jump\t// in\n    tag_13:\n      tag_15\n      jump\t// in\n    tag_12:\n      stop\n        /* \"contracts/DataPunk/DataPunk.sol\":2793:3089  function verifyDataset(uint256 taskId, uint256 datasetId) public payable returns (bool) {... */\n    tag_3:\n      tag_16\n      0x04\n      dup1\n      calldatasize\n      sub\n      dup2\n      add\n      swap1\n      tag_17\n      swap2\n      swap1\n      tag_18\n      jump\t// in\n    tag_17:\n      tag_19\n      jump\t// in\n    tag_16:\n      mload(0x40)\n      tag_20\n      swap2\n      swap1\n      tag_21\n      jump\t// in\n    tag_20:\n      mload(0x40)\n      dup1\n      swap2\n      sub\n      swap1\n      return\n        /* \"contracts/DataPunk/DataPunk.sol\":690:943  function getTask(uint256 taskId) public view returns (uint256, string memory, address, uint256, Dataset[] memory) {... */\n    tag_4:\n      callvalue\n      dup1\n      iszero\n      tag_22\n      jumpi\n      0x00\n      dup1\n      revert\n    tag_22:\n      pop\n      tag_23\n      0x04\n      dup1\n      calldatasize\n      sub\n      dup2\n      add\n      swap1\n      tag_24\n      swap2\n      swap1\n      tag_25\n      jump\t// in\n    tag_24:\n      tag_26\n      jump\t// in\n    tag_23:\n      mload(0x40)\n      tag_27\n      swap6\n      swap5\n      swap4\n      swap3\n      swap2\n      swap1\n      tag_28\n      jump\t// in\n    tag_27:\n      mload(0x40)\n      dup1\n      swap2\n      sub\n      swap1\n      return\n        /* \"contracts/DataPunk/DataPunk.sol\":137:179  DataPunkCoinInter public dataPunkCoinInter */\n    tag_5:\n      callvalue\n      dup1\n      iszero\n      tag_29\n      jumpi\n      0x00\n      dup1\n      revert\n    tag_29:\n      pop\n      tag_30\n      tag_31\n      jump\t// in\n    tag_30:\n      mload(0x40)\n      tag_32\n      swap2\n      swap1\n      tag_33\n      jump\t// in\n    tag_32:\n      mload(0x40)\n      dup1\n      swap2\n      sub\n      swap1\n      return\n        /* \"contracts/DataPunk/DataPunk.sol\":1510:2207  function raiseChallenge(uint256 amount, uint256 taskId, uint256 datasetId, bool challengeStatus) public returns (bool) {... */\n    tag_6:\n      callvalue\n      dup1\n      iszero\n      tag_34\n      jumpi\n      0x00\n      dup1\n      revert\n    tag_34:\n      pop\n      tag_35\n      0x04\n      dup1\n      calldatasize\n      sub\n      dup2\n      add\n      swap1\n      tag_36\n      swap2\n      swap1\n      tag_37\n      jump\t// in\n    tag_36:\n      tag_38\n      jump\t// in\n    tag_35:\n      mload(0x40)\n      tag_39\n      swap2\n      swap1\n      tag_21\n      jump\t// in\n    tag_39:\n      mload(0x40)\n      dup1\n      swap2\n      sub\n      swap1\n      return\n        /* \"contracts/DataPunk/DataPunk.sol\":2253:2754  function uploadDataset(uint256 taskId) public returns (uint256) {... */\n    tag_7:\n      callvalue\n      dup1\n      iszero\n      tag_40\n      jumpi\n      0x00\n      dup1\n      revert\n    tag_40:\n      pop\n      tag_41\n      0x04\n      dup1\n      calldatasize\n      sub\n      dup2\n      add\n      swap1\n      tag_42\n      swap2\n      swap1\n      tag_25\n      jump\t// in\n    tag_42:\n      tag_43\n      jump\t// in\n    tag_41:\n      mload(0x40)\n      tag_44\n      swap2\n      swap1\n      tag_45\n      jump\t// in\n    tag_44:\n      mload(0x40)\n      dup1\n      swap2\n      sub\n      swap1\n      return\n        /* \"contracts/DataPunk/DataPunk.sol\":985:1474  function deployTask(string memory name, uint256 reward) public returns (uint256) {... */\n    tag_8:\n      callvalue\n      dup1\n      iszero\n      tag_46\n      jumpi\n      0x00\n      dup1\n      revert\n    tag_46:\n      pop\n      tag_47\n      0x04\n      dup1\n      calldatasize\n      sub\n      dup2\n      add\n      swap1\n      tag_48\n      swap2\n      swap1\n      tag_49\n      jump\t// in\n    tag_48:\n      tag_50\n      jump\t// in\n    tag_47:\n      mload(0x40)\n      tag_51\n      swap2\n      swap1\n      tag_45\n      jump\t// in\n    tag_51:\n      mload(0x40)\n      dup1\n      swap2\n      sub\n      swap1\n      return\n        /* \"contracts/DataPunk/DataPunk.sol\":3508:3627  function getDataPunkCoinInterAddress() public view returns (address) {... */\n    tag_9:\n      callvalue\n      dup1\n      iszero\n      tag_52\n      jumpi\n      0x00\n      dup1\n      revert\n    tag_52:\n      pop\n      tag_53\n      tag_54\n      jump\t// in\n    tag_53:\n      mload(0x40)\n      tag_55\n      swap2\n      swap1\n      tag_56\n      jump\t// in\n    tag_55:\n      mload(0x40)\n      dup1\n      swap2\n      sub\n      swap1\n      return\n        /* \"contracts/DataPunk/DataPunk.sol\":3095:3442  function transferToken(address recipient, uint256 amount) public {... */\n    tag_15:\n        /* \"contracts/DataPunk/DataPunk.sol\":3208:3231  DataPunkCoinInter token */\n      0x00\n        /* \"contracts/DataPunk/DataPunk.sol\":3252:3269  dataPunkCoinInter */\n      dup1\n      0x00\n      swap1\n      sload\n      swap1\n      0x0100\n      exp\n      swap1\n      div\n      0xffffffffffffffffffffffffffffffffffffffff\n      and\n        /* \"contracts/DataPunk/DataPunk.sol\":3208:3270  DataPunkCoinInter token = DataPunkCoinInter(dataPunkCoinInter) */\n      swap1\n      pop\n        /* \"contracts/DataPunk/DataPunk.sol\":3327:3339  bool success */\n      0x00\n        /* \"contracts/DataPunk/DataPunk.sol\":3342:3347  token */\n      dup2\n        /* \"contracts/DataPunk/DataPunk.sol\":3342:3356  token.transfer */\n      0xffffffffffffffffffffffffffffffffffffffff\n      and\n      0xa9059cbb\n        /* \"contracts/DataPunk/DataPunk.sol\":3357:3366  recipient */\n      dup6\n        /* \"contracts/DataPunk/DataPunk.sol\":3368:3374  amount */\n      dup6\n        /* \"contracts/DataPunk/DataPunk.sol\":3342:3375  token.transfer(recipient, amount) */\n      mload(0x40)\n      dup4\n      0xffffffff\n      and\n      0xe0\n      shl\n      dup2\n      mstore\n      0x04\n      add\n      tag_58\n      swap3\n      swap2\n      swap1\n      tag_59\n      jump\t// in\n    tag_58:\n      0x20\n      mload(0x40)\n      dup1\n      dup4\n      sub\n      dup2\n      0x00\n      dup8\n      gas\n      call\n      iszero\n      dup1\n      iszero\n      tag_61\n      jumpi\n      returndatasize\n      0x00\n      dup1\n      returndatacopy\n      revert(0x00, returndatasize)\n    tag_61:\n      pop\n      pop\n      pop\n      pop\n      mload(0x40)\n      returndatasize\n      not(0x1f)\n      0x1f\n      dup3\n      add\n      and\n      dup3\n      add\n      dup1\n      0x40\n      mstore\n      pop\n      dup2\n      add\n      swap1\n      tag_62\n      swap2\n      swap1\n      tag_63\n      jump\t// in\n    tag_62:\n        /* \"contracts/DataPunk/DataPunk.sol\":3327:3375  bool success = token.transfer(recipient, amount) */\n      swap1\n      pop\n        /* \"contracts/DataPunk/DataPunk.sol\":3402:3409  success */\n      dup1\n        /* \"contracts/DataPunk/DataPunk.sol\":3394:3435  require(success, \"Token transfer failed\") */\n      tag_64\n      jumpi\n      mload(0x40)\n      0x08c379a000000000000000000000000000000000000000000000000000000000\n      dup2\n      mstore\n      0x04\n      add\n      tag_65\n      swap1\n      tag_66\n      jump\t// in\n    tag_65:\n      mload(0x40)\n      dup1\n      swap2\n      sub\n      swap1\n      revert\n    tag_64:\n        /* \"contracts/DataPunk/DataPunk.sol\":3160:3442  {... */\n      pop\n      pop\n        /* \"contracts/DataPunk/DataPunk.sol\":3095:3442  function transferToken(address recipient, uint256 amount) public {... */\n      pop\n      pop\n      jump\t// out\n        /* \"contracts/DataPunk/DataPunk.sol\":2793:3089  function verifyDataset(uint256 taskId, uint256 datasetId) public payable returns (bool) {... */\n    tag_19:\n        /* \"contracts/DataPunk/DataPunk.sol\":2875:2879  bool */\n      0x00\n        /* \"contracts/DataPunk/DataPunk.sol\":2891:2908  Task storage task */\n      dup1\n        /* \"contracts/DataPunk/DataPunk.sol\":2911:2916  tasks */\n      0x01\n        /* \"contracts/DataPunk/DataPunk.sol\":2917:2923  taskId */\n      dup5\n        /* \"contracts/DataPunk/DataPunk.sol\":2911:2924  tasks[taskId] */\n      dup2\n      sload\n      dup2\n      lt\n      tag_68\n      jumpi\n      tag_69\n      tag_70\n      jump\t// in\n    tag_69:\n    tag_68:\n      swap1\n      0x00\n      mstore\n      keccak256(0x00, 0x20)\n      swap1\n      0x05\n      mul\n      add\n        /* \"contracts/DataPunk/DataPunk.sol\":2891:2924  Task storage task = tasks[taskId] */\n      swap1\n      pop\n        /* \"contracts/DataPunk/DataPunk.sol\":2934:2957  Dataset storage dataset */\n      0x00\n        /* \"contracts/DataPunk/DataPunk.sol\":2960:2964  task */\n      dup2\n        /* \"contracts/DataPunk/DataPunk.sol\":2960:2973  task.datasets */\n      0x04\n      add\n        /* \"contracts/DataPunk/DataPunk.sol\":2974:2983  datasetId */\n      dup5\n        /* \"contracts/DataPunk/DataPunk.sol\":2960:2984  task.datasets[datasetId] */\n      dup2\n      sload\n      dup2\n      lt\n      tag_72\n      jumpi\n      tag_73\n      tag_70\n      jump\t// in\n    tag_73:\n    tag_72:\n      swap1\n      0x00\n      mstore\n      keccak256(0x00, 0x20)\n      swap1\n      0x03\n      mul\n      add\n        /* \"contracts/DataPunk/DataPunk.sol\":2934:2984  Dataset storage dataset = task.datasets[datasetId] */\n      swap1\n      pop\n        /* \"contracts/DataPunk/DataPunk.sol\":3016:3020  true */\n      0x01\n        /* \"contracts/DataPunk/DataPunk.sol\":2994:3001  dataset */\n      dup2\n        /* \"contracts/DataPunk/DataPunk.sol\":2994:3013  dataset.isValidated */\n      0x01\n      add\n      0x14\n        /* \"contracts/DataPunk/DataPunk.sol\":2994:3020  dataset.isValidated = true */\n      0x0100\n      exp\n      dup2\n      sload\n      dup2\n      0xff\n      mul\n      not\n      and\n      swap1\n      dup4\n      iszero\n      iszero\n      mul\n      or\n      swap1\n      sstore\n      pop\n        /* \"contracts/DataPunk/DataPunk.sol\":3050:3060  msg.sender */\n      caller\n        /* \"contracts/DataPunk/DataPunk.sol\":3030:3037  dataset */\n      dup2\n        /* \"contracts/DataPunk/DataPunk.sol\":3030:3047  dataset.validator */\n      0x02\n      add\n      0x00\n        /* \"contracts/DataPunk/DataPunk.sol\":3030:3060  dataset.validator = msg.sender */\n      0x0100\n      exp\n      dup2\n      sload\n      dup2\n      0xffffffffffffffffffffffffffffffffffffffff\n      mul\n      not\n      and\n      swap1\n      dup4\n      0xffffffffffffffffffffffffffffffffffffffff\n      and\n      mul\n      or\n      swap1\n      sstore\n      pop\n        /* \"contracts/DataPunk/DataPunk.sol\":3078:3082  true */\n      0x01\n        /* \"contracts/DataPunk/DataPunk.sol\":3071:3082  return true */\n      swap3\n      pop\n      pop\n      pop\n        /* \"contracts/DataPunk/DataPunk.sol\":2793:3089  function verifyDataset(uint256 taskId, uint256 datasetId) public payable returns (bool) {... */\n      swap3\n      swap2\n      pop\n      pop\n      jump\t// out\n        /* \"contracts/DataPunk/DataPunk.sol\":690:943  function getTask(uint256 taskId) public view returns (uint256, string memory, address, uint256, Dataset[] memory) {... */\n    tag_26:\n        /* \"contracts/DataPunk/DataPunk.sol\":744:751  uint256 */\n      0x00\n        /* \"contracts/DataPunk/DataPunk.sol\":753:766  string memory */\n      0x60\n        /* \"contracts/DataPunk/DataPunk.sol\":768:775  address */\n      0x00\n        /* \"contracts/DataPunk/DataPunk.sol\":777:784  uint256 */\n      dup1\n        /* \"contracts/DataPunk/DataPunk.sol\":786:802  Dataset[] memory */\n      0x60\n        /* \"contracts/DataPunk/DataPunk.sol\":814:831  Task storage task */\n      0x00\n        /* \"contracts/DataPunk/DataPunk.sol\":834:839  tasks */\n      0x01\n        /* \"contracts/DataPunk/DataPunk.sol\":840:846  taskId */\n      dup8\n        /* \"contracts/DataPunk/DataPunk.sol\":834:847  tasks[taskId] */\n      dup2\n      sload\n      dup2\n      lt\n      tag_76\n      jumpi\n      tag_77\n      tag_70\n      jump\t// in\n    tag_77:\n    tag_76:\n      swap1\n      0x00\n      mstore\n      keccak256(0x00, 0x20)\n      swap1\n      0x05\n      mul\n      add\n        /* \"contracts/DataPunk/DataPunk.sol\":814:847  Task storage task = tasks[taskId] */\n      swap1\n      pop\n        /* \"contracts/DataPunk/DataPunk.sol\":865:869  task */\n      dup1\n        /* \"contracts/DataPunk/DataPunk.sol\":865:876  task.taskId */\n      0x00\n      add\n      sload\n        /* \"contracts/DataPunk/DataPunk.sol\":878:882  task */\n      dup2\n        /* \"contracts/DataPunk/DataPunk.sol\":878:891  task.taskName */\n      0x01\n      add\n        /* \"contracts/DataPunk/DataPunk.sol\":893:897  task */\n      dup3\n        /* \"contracts/DataPunk/DataPunk.sol\":893:907  task.publisher */\n      0x02\n      add\n      0x00\n      swap1\n      sload\n      swap1\n      0x0100\n      exp\n      swap1\n      div\n      0xffffffffffffffffffffffffffffffffffffffff\n      and\n        /* \"contracts/DataPunk/DataPunk.sol\":909:913  task */\n      dup4\n        /* \"contracts/DataPunk/DataPunk.sol\":909:920  task.reward */\n      0x03\n      add\n      sload\n        /* \"contracts/DataPunk/DataPunk.sol\":922:926  task */\n      dup5\n        /* \"contracts/DataPunk/DataPunk.sol\":922:935  task.datasets */\n      0x04\n      add\n        /* \"contracts/DataPunk/DataPunk.sol\":857:936  return (task.taskId, task.taskName, task.publisher, task.reward, task.datasets) */\n      dup4\n      dup1\n      sload\n      tag_79\n      swap1\n      tag_80\n      jump\t// in\n    tag_79:\n      dup1\n      0x1f\n      add\n      0x20\n      dup1\n      swap2\n      div\n      mul\n      0x20\n      add\n      mload(0x40)\n      swap1\n      dup2\n      add\n      0x40\n      mstore\n      dup1\n      swap3\n      swap2\n      swap1\n      dup2\n      dup2\n      mstore\n      0x20\n      add\n      dup3\n      dup1\n      sload\n      tag_81\n      swap1\n      tag_80\n      jump\t// in\n    tag_81:\n      dup1\n      iszero\n      tag_82\n      jumpi\n      dup1\n      0x1f\n      lt\n      tag_83\n      jumpi\n      0x0100\n      dup1\n      dup4\n      sload\n      div\n      mul\n      dup4\n      mstore\n      swap2\n      0x20\n      add\n      swap2\n      jump(tag_82)\n    tag_83:\n      dup3\n      add\n      swap2\n      swap1\n      0x00\n      mstore\n      keccak256(0x00, 0x20)\n      swap1\n    tag_84:\n      dup2\n      sload\n      dup2\n      mstore\n      swap1\n      0x01\n      add\n      swap1\n      0x20\n      add\n      dup1\n      dup4\n      gt\n      tag_84\n      jumpi\n      dup3\n      swap1\n      sub\n      0x1f\n      and\n      dup3\n      add\n      swap2\n    tag_82:\n      pop\n      pop\n      pop\n      pop\n      pop\n      swap4\n      pop\n      dup1\n      dup1\n      sload\n      dup1\n      0x20\n      mul\n      0x20\n      add\n      mload(0x40)\n      swap1\n      dup2\n      add\n      0x40\n      mstore\n      dup1\n      swap3\n      swap2\n      swap1\n      dup2\n      dup2\n      mstore\n      0x20\n      add\n      0x00\n      swap1\n    tag_85:\n      dup3\n      dup3\n      lt\n      iszero\n      tag_86\n      jumpi\n      dup4\n      dup3\n      swap1\n      0x00\n      mstore\n      keccak256(0x00, 0x20)\n      swap1\n      0x03\n      mul\n      add\n      mload(0x40)\n      dup1\n      0x80\n      add\n      0x40\n      mstore\n      swap1\n      dup2\n      0x00\n      dup3\n      add\n      sload\n      dup2\n      mstore\n      0x20\n      add\n      0x01\n      dup3\n      add\n      0x00\n      swap1\n      sload\n      swap1\n      0x0100\n      exp\n      swap1\n      div\n      0xffffffffffffffffffffffffffffffffffffffff\n      and\n      0xffffffffffffffffffffffffffffffffffffffff\n      and\n      0xffffffffffffffffffffffffffffffffffffffff\n      and\n      dup2\n      mstore\n      0x20\n      add\n      0x01\n      dup3\n      add\n      0x14\n      swap1\n      sload\n      swap1\n      0x0100\n      exp\n      swap1\n      div\n      0xff\n      and\n      iszero\n      iszero\n      iszero\n      iszero\n      dup2\n      mstore\n      0x20\n      add\n      0x02\n      dup3\n      add\n      0x00\n      swap1\n      sload\n      swap1\n      0x0100\n      exp\n      swap1\n      div\n      0xffffffffffffffffffffffffffffffffffffffff\n      and\n      0xffffffffffffffffffffffffffffffffffffffff\n      and\n      0xffffffffffffffffffffffffffffffffffffffff\n      and\n      dup2\n      mstore\n      pop\n      pop\n      dup2\n      mstore\n      0x20\n      add\n      swap1\n      0x01\n      add\n      swap1\n      jump(tag_85)\n    tag_86:\n      pop\n      pop\n      pop\n      pop\n      swap1\n      pop\n      swap6\n      pop\n      swap6\n      pop\n      swap6\n      pop\n      swap6\n      pop\n      swap6\n      pop\n      pop\n        /* \"contracts/DataPunk/DataPunk.sol\":690:943  function getTask(uint256 taskId) public view returns (uint256, string memory, address, uint256, Dataset[] memory) {... */\n      swap2\n      swap4\n      swap6\n      swap1\n      swap3\n      swap5\n      pop\n      jump\t// out\n        /* \"contracts/DataPunk/DataPunk.sol\":137:179  DataPunkCoinInter public dataPunkCoinInter */\n    tag_31:\n      0x00\n      dup1\n      sload\n      swap1\n      0x0100\n      exp\n      swap1\n      div\n      0xffffffffffffffffffffffffffffffffffffffff\n      and\n      dup2\n      jump\t// out\n        /* \"contracts/DataPunk/DataPunk.sol\":1510:2207  function raiseChallenge(uint256 amount, uint256 taskId, uint256 datasetId, bool challengeStatus) public returns (bool) {... */\n    tag_38:\n        /* \"contracts/DataPunk/DataPunk.sol\":1623:1627  bool */\n      0x00\n        /* \"contracts/DataPunk/DataPunk.sol\":1639:1656  Task storage task */\n      dup1\n        /* \"contracts/DataPunk/DataPunk.sol\":1659:1664  tasks */\n      0x01\n        /* \"contracts/DataPunk/DataPunk.sol\":1665:1671  taskId */\n      dup6\n        /* \"contracts/DataPunk/DataPunk.sol\":1659:1672  tasks[taskId] */\n      dup2\n      sload\n      dup2\n      lt\n      tag_89\n      jumpi\n      tag_90\n      tag_70\n      jump\t// in\n    tag_90:\n    tag_89:\n      swap1\n      0x00\n      mstore\n      keccak256(0x00, 0x20)\n      swap1\n      0x05\n      mul\n      add\n        /* \"contracts/DataPunk/DataPunk.sol\":1639:1672  Task storage task = tasks[taskId] */\n      swap1\n      pop\n        /* \"contracts/DataPunk/DataPunk.sol\":1682:1705  Dataset storage dataset */\n      0x00\n        /* \"contracts/DataPunk/DataPunk.sol\":1708:1712  task */\n      dup2\n        /* \"contracts/DataPunk/DataPunk.sol\":1708:1721  task.datasets */\n      0x04\n      add\n        /* \"contracts/DataPunk/DataPunk.sol\":1722:1731  datasetId */\n      dup6\n        /* \"contracts/DataPunk/DataPunk.sol\":1708:1732  task.datasets[datasetId] */\n      dup2\n      sload\n      dup2\n      lt\n      tag_92\n      jumpi\n      tag_93\n      tag_70\n      jump\t// in\n    tag_93:\n    tag_92:\n      swap1\n      0x00\n      mstore\n      keccak256(0x00, 0x20)\n      swap1\n      0x03\n      mul\n      add\n        /* \"contracts/DataPunk/DataPunk.sol\":1682:1732  Dataset storage dataset = task.datasets[datasetId] */\n      swap1\n      pop\n        /* \"contracts/DataPunk/DataPunk.sol\":1764:1779  challengeStatus */\n      dup4\n        /* \"contracts/DataPunk/DataPunk.sol\":1742:1749  dataset */\n      dup2\n        /* \"contracts/DataPunk/DataPunk.sol\":1742:1761  dataset.isValidated */\n      0x01\n      add\n      0x14\n        /* \"contracts/DataPunk/DataPunk.sol\":1742:1779  dataset.isValidated = challengeStatus */\n      0x0100\n      exp\n      dup2\n      sload\n      dup2\n      0xff\n      mul\n      not\n      and\n      swap1\n      dup4\n      iszero\n      iszero\n      mul\n      or\n      swap1\n      sstore\n      pop\n        /* \"contracts/DataPunk/DataPunk.sol\":1789:1806  address publisher */\n      0x00\n        /* \"contracts/DataPunk/DataPunk.sol\":1809:1813  task */\n      dup3\n        /* \"contracts/DataPunk/DataPunk.sol\":1809:1823  task.publisher */\n      0x02\n      add\n      0x00\n      swap1\n      sload\n      swap1\n      0x0100\n      exp\n      swap1\n      div\n      0xffffffffffffffffffffffffffffffffffffffff\n      and\n        /* \"contracts/DataPunk/DataPunk.sol\":1789:1823  address publisher = task.publisher */\n      swap1\n      pop\n        /* \"contracts/DataPunk/DataPunk.sol\":1833:1849  address uploader */\n      0x00\n        /* \"contracts/DataPunk/DataPunk.sol\":1852:1859  dataset */\n      dup3\n        /* \"contracts/DataPunk/DataPunk.sol\":1852:1868  dataset.uploader */\n      0x01\n      add\n      0x00\n      swap1\n      sload\n      swap1\n      0x0100\n      exp\n      swap1\n      div\n      0xffffffffffffffffffffffffffffffffffffffff\n      and\n        /* \"contracts/DataPunk/DataPunk.sol\":1833:1868  address uploader = dataset.uploader */\n      swap1\n      pop\n        /* \"contracts/DataPunk/DataPunk.sol\":1926:1930  true */\n      0x01\n        /* \"contracts/DataPunk/DataPunk.sol\":1907:1930  challengeStatus == true */\n      iszero\n      iszero\n        /* \"contracts/DataPunk/DataPunk.sol\":1907:1922  challengeStatus */\n      dup7\n        /* \"contracts/DataPunk/DataPunk.sol\":1907:1930  challengeStatus == true */\n      iszero\n      iszero\n      sub\n        /* \"contracts/DataPunk/DataPunk.sol\":1903:2179  if (challengeStatus == true) {... */\n      tag_95\n      jumpi\n        /* \"contracts/DataPunk/DataPunk.sol\":2011:2042  transferToken(uploader, amount) */\n      tag_96\n        /* \"contracts/DataPunk/DataPunk.sol\":2025:2033  uploader */\n      dup2\n        /* \"contracts/DataPunk/DataPunk.sol\":2035:2041  amount */\n      dup11\n        /* \"contracts/DataPunk/DataPunk.sol\":2011:2024  transferToken */\n      tag_15\n        /* \"contracts/DataPunk/DataPunk.sol\":2011:2042  transferToken(uploader, amount) */\n      jump\t// in\n    tag_96:\n        /* \"contracts/DataPunk/DataPunk.sol\":1903:2179  if (challengeStatus == true) {... */\n      jump(tag_97)\n    tag_95:\n        /* \"contracts/DataPunk/DataPunk.sol\":2136:2168  transferToken(publisher, amount) */\n      tag_98\n        /* \"contracts/DataPunk/DataPunk.sol\":2150:2159  publisher */\n      dup3\n        /* \"contracts/DataPunk/DataPunk.sol\":2161:2167  amount */\n      dup11\n        /* \"contracts/DataPunk/DataPunk.sol\":2136:2149  transferToken */\n      tag_15\n        /* \"contracts/DataPunk/DataPunk.sol\":2136:2168  transferToken(publisher, amount) */\n      jump\t// in\n    tag_98:\n        /* \"contracts/DataPunk/DataPunk.sol\":1903:2179  if (challengeStatus == true) {... */\n    tag_97:\n        /* \"contracts/DataPunk/DataPunk.sol\":2196:2200  true */\n      0x01\n        /* \"contracts/DataPunk/DataPunk.sol\":2189:2200  return true */\n      swap5\n      pop\n      pop\n      pop\n      pop\n      pop\n        /* \"contracts/DataPunk/DataPunk.sol\":1510:2207  function raiseChallenge(uint256 amount, uint256 taskId, uint256 datasetId, bool challengeStatus) public returns (bool) {... */\n      swap5\n      swap4\n      pop\n      pop\n      pop\n      pop\n      jump\t// out\n        /* \"contracts/DataPunk/DataPunk.sol\":2253:2754  function uploadDataset(uint256 taskId) public returns (uint256) {... */\n    tag_43:\n        /* \"contracts/DataPunk/DataPunk.sol\":2308:2315  uint256 */\n      0x00\n        /* \"contracts/DataPunk/DataPunk.sol\":2327:2344  uint256 datasetId */\n      dup1\n        /* \"contracts/DataPunk/DataPunk.sol\":2377:2378  0 */\n      0x00\n        /* \"contracts/DataPunk/DataPunk.sol\":2358:2366  datasets */\n      0x02\n        /* \"contracts/DataPunk/DataPunk.sol\":2358:2373  datasets.length */\n      dup1\n      sload\n      swap1\n      pop\n        /* \"contracts/DataPunk/DataPunk.sol\":2358:2378  datasets.length == 0 */\n      sub\n        /* \"contracts/DataPunk/DataPunk.sol\":2354:2476  if (datasets.length == 0) {... */\n      tag_100\n      jumpi\n        /* \"contracts/DataPunk/DataPunk.sol\":2406:2407  0 */\n      0x00\n        /* \"contracts/DataPunk/DataPunk.sol\":2394:2407  datasetId = 0 */\n      swap1\n      pop\n        /* \"contracts/DataPunk/DataPunk.sol\":2354:2476  if (datasets.length == 0) {... */\n      jump(tag_101)\n    tag_100:\n        /* \"contracts/DataPunk/DataPunk.sol\":2450:2458  datasets */\n      0x02\n        /* \"contracts/DataPunk/DataPunk.sol\":2450:2465  datasets.length */\n      dup1\n      sload\n      swap1\n      pop\n        /* \"contracts/DataPunk/DataPunk.sol\":2438:2465  datasetId = datasets.length */\n      swap1\n      pop\n        /* \"contracts/DataPunk/DataPunk.sol\":2354:2476  if (datasets.length == 0) {... */\n    tag_101:\n        /* \"contracts/DataPunk/DataPunk.sol\":2537:2563  Dataset storage newDataset */\n      0x00\n        /* \"contracts/DataPunk/DataPunk.sol\":2566:2571  tasks */\n      0x01\n        /* \"contracts/DataPunk/DataPunk.sol\":2572:2578  taskId */\n      dup5\n        /* \"contracts/DataPunk/DataPunk.sol\":2566:2579  tasks[taskId] */\n      dup2\n      sload\n      dup2\n      lt\n      tag_102\n      jumpi\n      tag_103\n      tag_70\n      jump\t// in\n    tag_103:\n    tag_102:\n      swap1\n      0x00\n      mstore\n      keccak256(0x00, 0x20)\n      swap1\n      0x05\n      mul\n      add\n        /* \"contracts/DataPunk/DataPunk.sol\":2566:2588  tasks[taskId].datasets */\n      0x04\n      add\n        /* \"contracts/DataPunk/DataPunk.sol\":2566:2595  tasks[taskId].datasets.push() */\n      0x01\n      dup2\n      0x01\n      dup2\n      sload\n      add\n      dup1\n      dup3\n      sstore\n      dup1\n      swap2\n      pop\n      pop\n      sub\n      swap1\n      0x00\n      mstore\n      keccak256(0x00, 0x20)\n      swap1\n      0x03\n      mul\n      add\n        /* \"contracts/DataPunk/DataPunk.sol\":2537:2595  Dataset storage newDataset = tasks[taskId].datasets.push() */\n      swap1\n      pop\n        /* \"contracts/DataPunk/DataPunk.sol\":2629:2638  datasetId */\n      dup2\n        /* \"contracts/DataPunk/DataPunk.sol\":2606:2616  newDataset */\n      dup2\n        /* \"contracts/DataPunk/DataPunk.sol\":2606:2626  newDataset.datasetId */\n      0x00\n      add\n        /* \"contracts/DataPunk/DataPunk.sol\":2606:2638  newDataset.datasetId = datasetId */\n      dup2\n      swap1\n      sstore\n      pop\n        /* \"contracts/DataPunk/DataPunk.sol\":2670:2680  msg.sender */\n      caller\n        /* \"contracts/DataPunk/DataPunk.sol\":2648:2658  newDataset */\n      dup2\n        /* \"contracts/DataPunk/DataPunk.sol\":2648:2667  newDataset.uploader */\n      0x01\n      add\n      0x00\n        /* \"contracts/DataPunk/DataPunk.sol\":2648:2680  newDataset.uploader = msg.sender */\n      0x0100\n      exp\n      dup2\n      sload\n      dup2\n      0xffffffffffffffffffffffffffffffffffffffff\n      mul\n      not\n      and\n      swap1\n      dup4\n      0xffffffffffffffffffffffffffffffffffffffff\n      and\n      mul\n      or\n      swap1\n      sstore\n      pop\n        /* \"contracts/DataPunk/DataPunk.sol\":2715:2720  false */\n      0x00\n        /* \"contracts/DataPunk/DataPunk.sol\":2690:2700  newDataset */\n      dup2\n        /* \"contracts/DataPunk/DataPunk.sol\":2690:2712  newDataset.isValidated */\n      0x01\n      add\n      0x14\n        /* \"contracts/DataPunk/DataPunk.sol\":2690:2720  newDataset.isValidated = false */\n      0x0100\n      exp\n      dup2\n      sload\n      dup2\n      0xff\n      mul\n      not\n      and\n      swap1\n      dup4\n      iszero\n      iszero\n      mul\n      or\n      swap1\n      sstore\n      pop\n        /* \"contracts/DataPunk/DataPunk.sol\":2738:2747  datasetId */\n      dup2\n        /* \"contracts/DataPunk/DataPunk.sol\":2731:2747  return datasetId */\n      swap3\n      pop\n      pop\n      pop\n        /* \"contracts/DataPunk/DataPunk.sol\":2253:2754  function uploadDataset(uint256 taskId) public returns (uint256) {... */\n      swap2\n      swap1\n      pop\n      jump\t// out\n        /* \"contracts/DataPunk/DataPunk.sol\":985:1474  function deployTask(string memory name, uint256 reward) public returns (uint256) {... */\n    tag_50:\n        /* \"contracts/DataPunk/DataPunk.sol\":1057:1064  uint256 */\n      0x00\n        /* \"contracts/DataPunk/DataPunk.sol\":1076:1090  uint256 taskId */\n      dup1\n        /* \"contracts/DataPunk/DataPunk.sol\":1120:1121  0 */\n      0x00\n        /* \"contracts/DataPunk/DataPunk.sol\":1104:1109  tasks */\n      0x01\n        /* \"contracts/DataPunk/DataPunk.sol\":1104:1116  tasks.length */\n      dup1\n      sload\n      swap1\n      pop\n        /* \"contracts/DataPunk/DataPunk.sol\":1104:1121  tasks.length == 0 */\n      sub\n        /* \"contracts/DataPunk/DataPunk.sol\":1100:1210  if (tasks.length == 0) {... */\n      tag_107\n      jumpi\n        /* \"contracts/DataPunk/DataPunk.sol\":1146:1147  0 */\n      0x00\n        /* \"contracts/DataPunk/DataPunk.sol\":1137:1147  taskId = 0 */\n      swap1\n      pop\n        /* \"contracts/DataPunk/DataPunk.sol\":1100:1210  if (tasks.length == 0) {... */\n      jump(tag_108)\n    tag_107:\n        /* \"contracts/DataPunk/DataPunk.sol\":1187:1192  tasks */\n      0x01\n        /* \"contracts/DataPunk/DataPunk.sol\":1187:1199  tasks.length */\n      dup1\n      sload\n      swap1\n      pop\n        /* \"contracts/DataPunk/DataPunk.sol\":1178:1199  taskId = tasks.length */\n      swap1\n      pop\n        /* \"contracts/DataPunk/DataPunk.sol\":1100:1210  if (tasks.length == 0) {... */\n    tag_108:\n        /* \"contracts/DataPunk/DataPunk.sol\":1268:1288  Task storage newTask */\n      0x00\n        /* \"contracts/DataPunk/DataPunk.sol\":1291:1296  tasks */\n      0x01\n        /* \"contracts/DataPunk/DataPunk.sol\":1291:1303  tasks.push() */\n      dup1\n      dup2\n      0x01\n      dup2\n      sload\n      add\n      dup1\n      dup3\n      sstore\n      dup1\n      swap2\n      pop\n      pop\n      sub\n      swap1\n      0x00\n      mstore\n      keccak256(0x00, 0x20)\n      swap1\n      0x05\n      mul\n      add\n        /* \"contracts/DataPunk/DataPunk.sol\":1268:1303  Task storage newTask = tasks.push() */\n      swap1\n      pop\n        /* \"contracts/DataPunk/DataPunk.sol\":1331:1337  taskId */\n      dup2\n        /* \"contracts/DataPunk/DataPunk.sol\":1314:1321  newTask */\n      dup2\n        /* \"contracts/DataPunk/DataPunk.sol\":1314:1328  newTask.taskId */\n      0x00\n      add\n        /* \"contracts/DataPunk/DataPunk.sol\":1314:1337  newTask.taskId = taskId */\n      dup2\n      swap1\n      sstore\n      pop\n        /* \"contracts/DataPunk/DataPunk.sol\":1366:1370  name */\n      dup5\n        /* \"contracts/DataPunk/DataPunk.sol\":1347:1354  newTask */\n      dup2\n        /* \"contracts/DataPunk/DataPunk.sol\":1347:1363  newTask.taskName */\n      0x01\n      add\n        /* \"contracts/DataPunk/DataPunk.sol\":1347:1370  newTask.taskName = name */\n      swap1\n      dup2\n      tag_110\n      swap2\n      swap1\n      tag_111\n      jump\t// in\n    tag_110:\n      pop\n        /* \"contracts/DataPunk/DataPunk.sol\":1400:1410  msg.sender */\n      caller\n        /* \"contracts/DataPunk/DataPunk.sol\":1380:1387  newTask */\n      dup2\n        /* \"contracts/DataPunk/DataPunk.sol\":1380:1397  newTask.publisher */\n      0x02\n      add\n      0x00\n        /* \"contracts/DataPunk/DataPunk.sol\":1380:1410  newTask.publisher = msg.sender */\n      0x0100\n      exp\n      dup2\n      sload\n      dup2\n      0xffffffffffffffffffffffffffffffffffffffff\n      mul\n      not\n      and\n      swap1\n      dup4\n      0xffffffffffffffffffffffffffffffffffffffff\n      and\n      mul\n      or\n      swap1\n      sstore\n      pop\n        /* \"contracts/DataPunk/DataPunk.sol\":1437:1443  reward */\n      dup4\n        /* \"contracts/DataPunk/DataPunk.sol\":1420:1427  newTask */\n      dup2\n        /* \"contracts/DataPunk/DataPunk.sol\":1420:1434  newTask.reward */\n      0x03\n      add\n        /* \"contracts/DataPunk/DataPunk.sol\":1420:1443  newTask.reward = reward */\n      dup2\n      swap1\n      sstore\n      pop\n        /* \"contracts/DataPunk/DataPunk.sol\":1461:1467  taskId */\n      dup2\n        /* \"contracts/DataPunk/DataPunk.sol\":1454:1467  return taskId */\n      swap3\n      pop\n      pop\n      pop\n        /* \"contracts/DataPunk/DataPunk.sol\":985:1474  function deployTask(string memory name, uint256 reward) public returns (uint256) {... */\n      swap3\n      swap2\n      pop\n      pop\n      jump\t// out\n        /* \"contracts/DataPunk/DataPunk.sol\":3508:3627  function getDataPunkCoinInterAddress() public view returns (address) {... */\n    tag_54:\n        /* \"contracts/DataPunk/DataPunk.sol\":3568:3575  address */\n      0x00\n        /* \"contracts/DataPunk/DataPunk.sol\":3602:3619  dataPunkCoinInter */\n      dup1\n      0x00\n      swap1\n      sload\n      swap1\n      0x0100\n      exp\n      swap1\n      div\n      0xffffffffffffffffffffffffffffffffffffffff\n      and\n        /* \"contracts/DataPunk/DataPunk.sol\":3587:3620  return address(dataPunkCoinInter) */\n      swap1\n      pop\n        /* \"contracts/DataPunk/DataPunk.sol\":3508:3627  function getDataPunkCoinInterAddress() public view returns (address) {... */\n      swap1\n      jump\t// out\n        /* \"#utility.yul\":7:82   */\n    tag_113:\n        /* \"#utility.yul\":40:46   */\n      0x00\n        /* \"#utility.yul\":73:75   */\n      0x40\n        /* \"#utility.yul\":67:76   */\n      mload\n        /* \"#utility.yul\":57:76   */\n      swap1\n      pop\n        /* \"#utility.yul\":7:82   */\n      swap1\n      jump\t// out\n        /* \"#utility.yul\":88:205   */\n    tag_114:\n        /* \"#utility.yul\":197:198   */\n      0x00\n        /* \"#utility.yul\":194:195   */\n      dup1\n        /* \"#utility.yul\":187:199   */\n      revert\n        /* \"#utility.yul\":211:328   */\n    tag_115:\n        /* \"#utility.yul\":320:321   */\n      0x00\n        /* \"#utility.yul\":317:318   */\n      dup1\n        /* \"#utility.yul\":310:322   */\n      revert\n        /* \"#utility.yul\":334:460   */\n    tag_116:\n        /* \"#utility.yul\":371:378   */\n      0x00\n        /* \"#utility.yul\":411:453   */\n      0xffffffffffffffffffffffffffffffffffffffff\n        /* \"#utility.yul\":404:409   */\n      dup3\n        /* \"#utility.yul\":400:454   */\n      and\n        /* \"#utility.yul\":389:454   */\n      swap1\n      pop\n        /* \"#utility.yul\":334:460   */\n      swap2\n      swap1\n      pop\n      jump\t// out\n        /* \"#utility.yul\":466:562   */\n    tag_117:\n        /* \"#utility.yul\":503:510   */\n      0x00\n        /* \"#utility.yul\":532:556   */\n      tag_182\n        /* \"#utility.yul\":550:555   */\n      dup3\n        /* \"#utility.yul\":532:556   */\n      tag_116\n      jump\t// in\n    tag_182:\n        /* \"#utility.yul\":521:556   */\n      swap1\n      pop\n        /* \"#utility.yul\":466:562   */\n      swap2\n      swap1\n      pop\n      jump\t// out\n        /* \"#utility.yul\":568:690   */\n    tag_118:\n        /* \"#utility.yul\":641:665   */\n      tag_184\n        /* \"#utility.yul\":659:664   */\n      dup2\n        /* \"#utility.yul\":641:665   */\n      tag_117\n      jump\t// in\n    tag_184:\n        /* \"#utility.yul\":634:639   */\n      dup2\n        /* \"#utility.yul\":631:666   */\n      eq\n        /* \"#utility.yul\":621:684   */\n      tag_185\n      jumpi\n        /* \"#utility.yul\":680:681   */\n      0x00\n        /* \"#utility.yul\":677:678   */\n      dup1\n        /* \"#utility.yul\":670:682   */\n      revert\n        /* \"#utility.yul\":621:684   */\n    tag_185:\n        /* \"#utility.yul\":568:690   */\n      pop\n      jump\t// out\n        /* \"#utility.yul\":696:835   */\n    tag_119:\n        /* \"#utility.yul\":742:747   */\n      0x00\n        /* \"#utility.yul\":780:786   */\n      dup2\n        /* \"#utility.yul\":767:787   */\n      calldataload\n        /* \"#utility.yul\":758:787   */\n      swap1\n      pop\n        /* \"#utility.yul\":796:829   */\n      tag_187\n        /* \"#utility.yul\":823:828   */\n      dup2\n        /* \"#utility.yul\":796:829   */\n      tag_118\n      jump\t// in\n    tag_187:\n        /* \"#utility.yul\":696:835   */\n      swap3\n      swap2\n      pop\n      pop\n      jump\t// out\n        /* \"#utility.yul\":841:918   */\n    tag_120:\n        /* \"#utility.yul\":878:885   */\n      0x00\n        /* \"#utility.yul\":907:912   */\n      dup2\n        /* \"#utility.yul\":896:912   */\n      swap1\n      pop\n        /* \"#utility.yul\":841:918   */\n      swap2\n      swap1\n      pop\n      jump\t// out\n        /* \"#utility.yul\":924:1046   */\n    tag_121:\n        /* \"#utility.yul\":997:1021   */\n      tag_190\n        /* \"#utility.yul\":1015:1020   */\n      dup2\n        /* \"#utility.yul\":997:1021   */\n      tag_120\n      jump\t// in\n    tag_190:\n        /* \"#utility.yul\":990:995   */\n      dup2\n        /* \"#utility.yul\":987:1022   */\n      eq\n        /* \"#utility.yul\":977:1040   */\n      tag_191\n      jumpi\n        /* \"#utility.yul\":1036:1037   */\n      0x00\n        /* \"#utility.yul\":1033:1034   */\n      dup1\n        /* \"#utility.yul\":1026:1038   */\n      revert\n        /* \"#utility.yul\":977:1040   */\n    tag_191:\n        /* \"#utility.yul\":924:1046   */\n      pop\n      jump\t// out\n        /* \"#utility.yul\":1052:1191   */\n    tag_122:\n        /* \"#utility.yul\":1098:1103   */\n      0x00\n        /* \"#utility.yul\":1136:1142   */\n      dup2\n        /* \"#utility.yul\":1123:1143   */\n      calldataload\n        /* \"#utility.yul\":1114:1143   */\n      swap1\n      pop\n        /* \"#utility.yul\":1152:1185   */\n      tag_193\n        /* \"#utility.yul\":1179:1184   */\n      dup2\n        /* \"#utility.yul\":1152:1185   */\n      tag_121\n      jump\t// in\n    tag_193:\n        /* \"#utility.yul\":1052:1191   */\n      swap3\n      swap2\n      pop\n      pop\n      jump\t// out\n        /* \"#utility.yul\":1197:1671   */\n    tag_14:\n        /* \"#utility.yul\":1265:1271   */\n      0x00\n        /* \"#utility.yul\":1273:1279   */\n      dup1\n        /* \"#utility.yul\":1322:1324   */\n      0x40\n        /* \"#utility.yul\":1310:1319   */\n      dup4\n        /* \"#utility.yul\":1301:1308   */\n      dup6\n        /* \"#utility.yul\":1297:1320   */\n      sub\n        /* \"#utility.yul\":1293:1325   */\n      slt\n        /* \"#utility.yul\":1290:1409   */\n      iszero\n      tag_195\n      jumpi\n        /* \"#utility.yul\":1328:1407   */\n      tag_196\n      tag_114\n      jump\t// in\n    tag_196:\n        /* \"#utility.yul\":1290:1409   */\n    tag_195:\n        /* \"#utility.yul\":1448:1449   */\n      0x00\n        /* \"#utility.yul\":1473:1526   */\n      tag_197\n        /* \"#utility.yul\":1518:1525   */\n      dup6\n        /* \"#utility.yul\":1509:1515   */\n      dup3\n        /* \"#utility.yul\":1498:1507   */\n      dup7\n        /* \"#utility.yul\":1494:1516   */\n      add\n        /* \"#utility.yul\":1473:1526   */\n      tag_119\n      jump\t// in\n    tag_197:\n        /* \"#utility.yul\":1463:1526   */\n      swap3\n      pop\n        /* \"#utility.yul\":1419:1536   */\n      pop\n        /* \"#utility.yul\":1575:1577   */\n      0x20\n        /* \"#utility.yul\":1601:1654   */\n      tag_198\n        /* \"#utility.yul\":1646:1653   */\n      dup6\n        /* \"#utility.yul\":1637:1643   */\n      dup3\n        /* \"#utility.yul\":1626:1635   */\n      dup7\n        /* \"#utility.yul\":1622:1644   */\n      add\n        /* \"#utility.yul\":1601:1654   */\n      tag_122\n      jump\t// in\n    tag_198:\n        /* \"#utility.yul\":1591:1654   */\n      swap2\n      pop\n        /* \"#utility.yul\":1546:1664   */\n      pop\n        /* \"#utility.yul\":1197:1671   */\n      swap3\n      pop\n      swap3\n      swap1\n      pop\n      jump\t// out\n        /* \"#utility.yul\":1677:2151   */\n    tag_18:\n        /* \"#utility.yul\":1745:1751   */\n      0x00\n        /* \"#utility.yul\":1753:1759   */\n      dup1\n        /* \"#utility.yul\":1802:1804   */\n      0x40\n        /* \"#utility.yul\":1790:1799   */\n      dup4\n        /* \"#utility.yul\":1781:1788   */\n      dup6\n        /* \"#utility.yul\":1777:1800   */\n      sub\n        /* \"#utility.yul\":1773:1805   */\n      slt\n        /* \"#utility.yul\":1770:1889   */\n      iszero\n      tag_200\n      jumpi\n        /* \"#utility.yul\":1808:1887   */\n      tag_201\n      tag_114\n      jump\t// in\n    tag_201:\n        /* \"#utility.yul\":1770:1889   */\n    tag_200:\n        /* \"#utility.yul\":1928:1929   */\n      0x00\n        /* \"#utility.yul\":1953:2006   */\n      tag_202\n        /* \"#utility.yul\":1998:2005   */\n      dup6\n        /* \"#utility.yul\":1989:1995   */\n      dup3\n        /* \"#utility.yul\":1978:1987   */\n      dup7\n        /* \"#utility.yul\":1974:1996   */\n      add\n        /* \"#utility.yul\":1953:2006   */\n      tag_122\n      jump\t// in\n    tag_202:\n        /* \"#utility.yul\":1943:2006   */\n      swap3\n      pop\n        /* \"#utility.yul\":1899:2016   */\n      pop\n        /* \"#utility.yul\":2055:2057   */\n      0x20\n        /* \"#utility.yul\":2081:2134   */\n      tag_203\n        /* \"#utility.yul\":2126:2133   */\n      dup6\n        /* \"#utility.yul\":2117:2123   */\n      dup3\n        /* \"#utility.yul\":2106:2115   */\n      dup7\n        /* \"#utility.yul\":2102:2124   */\n      add\n        /* \"#utility.yul\":2081:2134   */\n      tag_122\n      jump\t// in\n    tag_203:\n        /* \"#utility.yul\":2071:2134   */\n      swap2\n      pop\n        /* \"#utility.yul\":2026:2144   */\n      pop\n        /* \"#utility.yul\":1677:2151   */\n      swap3\n      pop\n      swap3\n      swap1\n      pop\n      jump\t// out\n        /* \"#utility.yul\":2157:2247   */\n    tag_123:\n        /* \"#utility.yul\":2191:2198   */\n      0x00\n        /* \"#utility.yul\":2234:2239   */\n      dup2\n        /* \"#utility.yul\":2227:2240   */\n      iszero\n        /* \"#utility.yul\":2220:2241   */\n      iszero\n        /* \"#utility.yul\":2209:2241   */\n      swap1\n      pop\n        /* \"#utility.yul\":2157:2247   */\n      swap2\n      swap1\n      pop\n      jump\t// out\n        /* \"#utility.yul\":2253:2362   */\n    tag_124:\n        /* \"#utility.yul\":2334:2355   */\n      tag_206\n        /* \"#utility.yul\":2349:2354   */\n      dup2\n        /* \"#utility.yul\":2334:2355   */\n      tag_123\n      jump\t// in\n    tag_206:\n        /* \"#utility.yul\":2329:2332   */\n      dup3\n        /* \"#utility.yul\":2322:2356   */\n      mstore\n        /* \"#utility.yul\":2253:2362   */\n      pop\n      pop\n      jump\t// out\n        /* \"#utility.yul\":2368:2578   */\n    tag_21:\n        /* \"#utility.yul\":2455:2459   */\n      0x00\n        /* \"#utility.yul\":2493:2495   */\n      0x20\n        /* \"#utility.yul\":2482:2491   */\n      dup3\n        /* \"#utility.yul\":2478:2496   */\n      add\n        /* \"#utility.yul\":2470:2496   */\n      swap1\n      pop\n        /* \"#utility.yul\":2506:2571   */\n      tag_208\n        /* \"#utility.yul\":2568:2569   */\n      0x00\n        /* \"#utility.yul\":2557:2566   */\n      dup4\n        /* \"#utility.yul\":2553:2570   */\n      add\n        /* \"#utility.yul\":2544:2550   */\n      dup5\n        /* \"#utility.yul\":2506:2571   */\n      tag_124\n      jump\t// in\n    tag_208:\n        /* \"#utility.yul\":2368:2578   */\n      swap3\n      swap2\n      pop\n      pop\n      jump\t// out\n        /* \"#utility.yul\":2584:2913   */\n    tag_25:\n        /* \"#utility.yul\":2643:2649   */\n      0x00\n        /* \"#utility.yul\":2692:2694   */\n      0x20\n        /* \"#utility.yul\":2680:2689   */\n      dup3\n        /* \"#utility.yul\":2671:2678   */\n      dup5\n        /* \"#utility.yul\":2667:2690   */\n      sub\n        /* \"#utility.yul\":2663:2695   */\n      slt\n        /* \"#utility.yul\":2660:2779   */\n      iszero\n      tag_210\n      jumpi\n        /* \"#utility.yul\":2698:2777   */\n      tag_211\n      tag_114\n      jump\t// in\n    tag_211:\n        /* \"#utility.yul\":2660:2779   */\n    tag_210:\n        /* \"#utility.yul\":2818:2819   */\n      0x00\n        /* \"#utility.yul\":2843:2896   */\n      tag_212\n        /* \"#utility.yul\":2888:2895   */\n      dup5\n        /* \"#utility.yul\":2879:2885   */\n      dup3\n        /* \"#utility.yul\":2868:2877   */\n      dup6\n        /* \"#utility.yul\":2864:2886   */\n      add\n        /* \"#utility.yul\":2843:2896   */\n      tag_122\n      jump\t// in\n    tag_212:\n        /* \"#utility.yul\":2833:2896   */\n      swap2\n      pop\n        /* \"#utility.yul\":2789:2906   */\n      pop\n        /* \"#utility.yul\":2584:2913   */\n      swap3\n      swap2\n      pop\n      pop\n      jump\t// out\n        /* \"#utility.yul\":2919:3037   */\n    tag_125:\n        /* \"#utility.yul\":3006:3030   */\n      tag_214\n        /* \"#utility.yul\":3024:3029   */\n      dup2\n        /* \"#utility.yul\":3006:3030   */\n      tag_120\n      jump\t// in\n    tag_214:\n        /* \"#utility.yul\":3001:3004   */\n      dup3\n        /* \"#utility.yul\":2994:3031   */\n      mstore\n        /* \"#utility.yul\":2919:3037   */\n      pop\n      pop\n      jump\t// out\n        /* \"#utility.yul\":3043:3142   */\n    tag_126:\n        /* \"#utility.yul\":3095:3101   */\n      0x00\n        /* \"#utility.yul\":3129:3134   */\n      dup2\n        /* \"#utility.yul\":3123:3135   */\n      mload\n        /* \"#utility.yul\":3113:3135   */\n      swap1\n      pop\n        /* \"#utility.yul\":3043:3142   */\n      swap2\n      swap1\n      pop\n      jump\t// out\n        /* \"#utility.yul\":3148:3317   */\n    tag_127:\n        /* \"#utility.yul\":3232:3243   */\n      0x00\n        /* \"#utility.yul\":3266:3272   */\n      dup3\n        /* \"#utility.yul\":3261:3264   */\n      dup3\n        /* \"#utility.yul\":3254:3273   */\n      mstore\n        /* \"#utility.yul\":3306:3310   */\n      0x20\n        /* \"#utility.yul\":3301:3304   */\n      dup3\n        /* \"#utility.yul\":3297:3311   */\n      add\n        /* \"#utility.yul\":3282:3311   */\n      swap1\n      pop\n        /* \"#utility.yul\":3148:3317   */\n      swap3\n      swap2\n      pop\n      pop\n      jump\t// out\n        /* \"#utility.yul\":3323:3462   */\n    tag_128:\n        /* \"#utility.yul\":3412:3418   */\n      dup3\n        /* \"#utility.yul\":3407:3410   */\n      dup2\n        /* \"#utility.yul\":3402:3405   */\n      dup4\n        /* \"#utility.yul\":3396:3419   */\n      mcopy\n        /* \"#utility.yul\":3453:3454   */\n      0x00\n        /* \"#utility.yul\":3444:3450   */\n      dup4\n        /* \"#utility.yul\":3439:3442   */\n      dup4\n        /* \"#utility.yul\":3435:3451   */\n      add\n        /* \"#utility.yul\":3428:3455   */\n      mstore\n        /* \"#utility.yul\":3323:3462   */\n      pop\n      pop\n      pop\n      jump\t// out\n        /* \"#utility.yul\":3468:3570   */\n    tag_129:\n        /* \"#utility.yul\":3509:3515   */\n      0x00\n        /* \"#utility.yul\":3560:3562   */\n      0x1f\n        /* \"#utility.yul\":3556:3563   */\n      not\n        /* \"#utility.yul\":3551:3553   */\n      0x1f\n        /* \"#utility.yul\":3544:3549   */\n      dup4\n        /* \"#utility.yul\":3540:3554   */\n      add\n        /* \"#utility.yul\":3536:3564   */\n      and\n        /* \"#utility.yul\":3526:3564   */\n      swap1\n      pop\n        /* \"#utility.yul\":3468:3570   */\n      swap2\n      swap1\n      pop\n      jump\t// out\n        /* \"#utility.yul\":3576:3953   */\n    tag_130:\n        /* \"#utility.yul\":3664:3667   */\n      0x00\n        /* \"#utility.yul\":3692:3731   */\n      tag_220\n        /* \"#utility.yul\":3725:3730   */\n      dup3\n        /* \"#utility.yul\":3692:3731   */\n      tag_126\n      jump\t// in\n    tag_220:\n        /* \"#utility.yul\":3747:3818   */\n      tag_221\n        /* \"#utility.yul\":3811:3817   */\n      dup2\n        /* \"#utility.yul\":3806:3809   */\n      dup6\n        /* \"#utility.yul\":3747:3818   */\n      tag_127\n      jump\t// in\n    tag_221:\n        /* \"#utility.yul\":3740:3818   */\n      swap4\n      pop\n        /* \"#utility.yul\":3827:3892   */\n      tag_222\n        /* \"#utility.yul\":3885:3891   */\n      dup2\n        /* \"#utility.yul\":3880:3883   */\n      dup6\n        /* \"#utility.yul\":3873:3877   */\n      0x20\n        /* \"#utility.yul\":3866:3871   */\n      dup7\n        /* \"#utility.yul\":3862:3878   */\n      add\n        /* \"#utility.yul\":3827:3892   */\n      tag_128\n      jump\t// in\n    tag_222:\n        /* \"#utility.yul\":3917:3946   */\n      tag_223\n        /* \"#utility.yul\":3939:3945   */\n      dup2\n        /* \"#utility.yul\":3917:3946   */\n      tag_129\n      jump\t// in\n    tag_223:\n        /* \"#utility.yul\":3912:3915   */\n      dup5\n        /* \"#utility.yul\":3908:3947   */\n      add\n        /* \"#utility.yul\":3901:3947   */\n      swap2\n      pop\n        /* \"#utility.yul\":3668:3953   */\n      pop\n        /* \"#utility.yul\":3576:3953   */\n      swap3\n      swap2\n      pop\n      pop\n      jump\t// out\n        /* \"#utility.yul\":3959:4077   */\n    tag_131:\n        /* \"#utility.yul\":4046:4070   */\n      tag_225\n        /* \"#utility.yul\":4064:4069   */\n      dup2\n        /* \"#utility.yul\":4046:4070   */\n      tag_117\n      jump\t// in\n    tag_225:\n        /* \"#utility.yul\":4041:4044   */\n      dup3\n        /* \"#utility.yul\":4034:4071   */\n      mstore\n        /* \"#utility.yul\":3959:4077   */\n      pop\n      pop\n      jump\t// out\n        /* \"#utility.yul\":4083:4221   */\n    tag_132:\n        /* \"#utility.yul\":4174:4180   */\n      0x00\n        /* \"#utility.yul\":4208:4213   */\n      dup2\n        /* \"#utility.yul\":4202:4214   */\n      mload\n        /* \"#utility.yul\":4192:4214   */\n      swap1\n      pop\n        /* \"#utility.yul\":4083:4221   */\n      swap2\n      swap1\n      pop\n      jump\t// out\n        /* \"#utility.yul\":4227:4435   */\n    tag_133:\n        /* \"#utility.yul\":4350:4361   */\n      0x00\n        /* \"#utility.yul\":4384:4390   */\n      dup3\n        /* \"#utility.yul\":4379:4382   */\n      dup3\n        /* \"#utility.yul\":4372:4391   */\n      mstore\n        /* \"#utility.yul\":4424:4428   */\n      0x20\n        /* \"#utility.yul\":4419:4422   */\n      dup3\n        /* \"#utility.yul\":4415:4429   */\n      add\n        /* \"#utility.yul\":4400:4429   */\n      swap1\n      pop\n        /* \"#utility.yul\":4227:4435   */\n      swap3\n      swap2\n      pop\n      pop\n      jump\t// out\n        /* \"#utility.yul\":4441:4597   */\n    tag_134:\n        /* \"#utility.yul\":4532:4536   */\n      0x00\n        /* \"#utility.yul\":4555:4558   */\n      dup2\n        /* \"#utility.yul\":4547:4558   */\n      swap1\n      pop\n        /* \"#utility.yul\":4585:4589   */\n      0x20\n        /* \"#utility.yul\":4580:4583   */\n      dup3\n        /* \"#utility.yul\":4576:4590   */\n      add\n        /* \"#utility.yul\":4568:4590   */\n      swap1\n      pop\n        /* \"#utility.yul\":4441:4597   */\n      swap2\n      swap1\n      pop\n      jump\t// out\n        /* \"#utility.yul\":4603:4711   */\n    tag_135:\n        /* \"#utility.yul\":4680:4704   */\n      tag_230\n        /* \"#utility.yul\":4698:4703   */\n      dup2\n        /* \"#utility.yul\":4680:4704   */\n      tag_120\n      jump\t// in\n    tag_230:\n        /* \"#utility.yul\":4675:4678   */\n      dup3\n        /* \"#utility.yul\":4668:4705   */\n      mstore\n        /* \"#utility.yul\":4603:4711   */\n      pop\n      pop\n      jump\t// out\n        /* \"#utility.yul\":4717:4825   */\n    tag_136:\n        /* \"#utility.yul\":4794:4818   */\n      tag_232\n        /* \"#utility.yul\":4812:4817   */\n      dup2\n        /* \"#utility.yul\":4794:4818   */\n      tag_117\n      jump\t// in\n    tag_232:\n        /* \"#utility.yul\":4789:4792   */\n      dup3\n        /* \"#utility.yul\":4782:4819   */\n      mstore\n        /* \"#utility.yul\":4717:4825   */\n      pop\n      pop\n      jump\t// out\n        /* \"#utility.yul\":4831:4930   */\n    tag_137:\n        /* \"#utility.yul\":4902:4923   */\n      tag_234\n        /* \"#utility.yul\":4917:4922   */\n      dup2\n        /* \"#utility.yul\":4902:4923   */\n      tag_123\n      jump\t// in\n    tag_234:\n        /* \"#utility.yul\":4897:4900   */\n      dup3\n        /* \"#utility.yul\":4890:4924   */\n      mstore\n        /* \"#utility.yul\":4831:4930   */\n      pop\n      pop\n      jump\t// out\n        /* \"#utility.yul\":4994:5852   */\n    tag_138:\n        /* \"#utility.yul\":5129:5133   */\n      0x80\n        /* \"#utility.yul\":5124:5127   */\n      dup3\n        /* \"#utility.yul\":5120:5134   */\n      add\n        /* \"#utility.yul\":5221:5225   */\n      0x00\n        /* \"#utility.yul\":5214:5219   */\n      dup3\n        /* \"#utility.yul\":5210:5226   */\n      add\n        /* \"#utility.yul\":5204:5227   */\n      mload\n        /* \"#utility.yul\":5240:5303   */\n      tag_236\n        /* \"#utility.yul\":5297:5301   */\n      0x00\n        /* \"#utility.yul\":5292:5295   */\n      dup6\n        /* \"#utility.yul\":5288:5302   */\n      add\n        /* \"#utility.yul\":5274:5286   */\n      dup3\n        /* \"#utility.yul\":5240:5303   */\n      tag_135\n      jump\t// in\n    tag_236:\n        /* \"#utility.yul\":5144:5313   */\n      pop\n        /* \"#utility.yul\":5399:5403   */\n      0x20\n        /* \"#utility.yul\":5392:5397   */\n      dup3\n        /* \"#utility.yul\":5388:5404   */\n      add\n        /* \"#utility.yul\":5382:5405   */\n      mload\n        /* \"#utility.yul\":5418:5481   */\n      tag_237\n        /* \"#utility.yul\":5475:5479   */\n      0x20\n        /* \"#utility.yul\":5470:5473   */\n      dup6\n        /* \"#utility.yul\":5466:5480   */\n      add\n        /* \"#utility.yul\":5452:5464   */\n      dup3\n        /* \"#utility.yul\":5418:5481   */\n      tag_136\n      jump\t// in\n    tag_237:\n        /* \"#utility.yul\":5323:5491   */\n      pop\n        /* \"#utility.yul\":5580:5584   */\n      0x40\n        /* \"#utility.yul\":5573:5578   */\n      dup3\n        /* \"#utility.yul\":5569:5585   */\n      add\n        /* \"#utility.yul\":5563:5586   */\n      mload\n        /* \"#utility.yul\":5599:5656   */\n      tag_238\n        /* \"#utility.yul\":5650:5654   */\n      0x40\n        /* \"#utility.yul\":5645:5648   */\n      dup6\n        /* \"#utility.yul\":5641:5655   */\n      add\n        /* \"#utility.yul\":5627:5639   */\n      dup3\n        /* \"#utility.yul\":5599:5656   */\n      tag_137\n      jump\t// in\n    tag_238:\n        /* \"#utility.yul\":5501:5666   */\n      pop\n        /* \"#utility.yul\":5753:5757   */\n      0x60\n        /* \"#utility.yul\":5746:5751   */\n      dup3\n        /* \"#utility.yul\":5742:5758   */\n      add\n        /* \"#utility.yul\":5736:5759   */\n      mload\n        /* \"#utility.yul\":5772:5835   */\n      tag_239\n        /* \"#utility.yul\":5829:5833   */\n      0x60\n        /* \"#utility.yul\":5824:5827   */\n      dup6\n        /* \"#utility.yul\":5820:5834   */\n      add\n        /* \"#utility.yul\":5806:5818   */\n      dup3\n        /* \"#utility.yul\":5772:5835   */\n      tag_136\n      jump\t// in\n    tag_239:\n        /* \"#utility.yul\":5676:5845   */\n      pop\n        /* \"#utility.yul\":5098:5852   */\n      pop\n        /* \"#utility.yul\":4994:5852   */\n      pop\n      pop\n      jump\t// out\n        /* \"#utility.yul\":5858:6133   */\n    tag_139:\n        /* \"#utility.yul\":5975:5985   */\n      0x00\n        /* \"#utility.yul\":5996:6090   */\n      tag_241\n        /* \"#utility.yul\":6086:6089   */\n      dup4\n        /* \"#utility.yul\":6078:6084   */\n      dup4\n        /* \"#utility.yul\":5996:6090   */\n      tag_138\n      jump\t// in\n    tag_241:\n        /* \"#utility.yul\":6122:6126   */\n      0x80\n        /* \"#utility.yul\":6117:6120   */\n      dup4\n        /* \"#utility.yul\":6113:6127   */\n      add\n        /* \"#utility.yul\":6099:6127   */\n      swap1\n      pop\n        /* \"#utility.yul\":5858:6133   */\n      swap3\n      swap2\n      pop\n      pop\n      jump\t// out\n        /* \"#utility.yul\":6139:6276   */\n    tag_140:\n        /* \"#utility.yul\":6233:6237   */\n      0x00\n        /* \"#utility.yul\":6265:6269   */\n      0x20\n        /* \"#utility.yul\":6260:6263   */\n      dup3\n        /* \"#utility.yul\":6256:6270   */\n      add\n        /* \"#utility.yul\":6248:6270   */\n      swap1\n      pop\n        /* \"#utility.yul\":6139:6276   */\n      swap2\n      swap1\n      pop\n      jump\t// out\n        /* \"#utility.yul\":6344:7268   */\n    tag_141:\n        /* \"#utility.yul\":6511:6514   */\n      0x00\n        /* \"#utility.yul\":6540:6618   */\n      tag_244\n        /* \"#utility.yul\":6612:6617   */\n      dup3\n        /* \"#utility.yul\":6540:6618   */\n      tag_132\n      jump\t// in\n    tag_244:\n        /* \"#utility.yul\":6634:6744   */\n      tag_245\n        /* \"#utility.yul\":6737:6743   */\n      dup2\n        /* \"#utility.yul\":6732:6735   */\n      dup6\n        /* \"#utility.yul\":6634:6744   */\n      tag_133\n      jump\t// in\n    tag_245:\n        /* \"#utility.yul\":6627:6744   */\n      swap4\n      pop\n        /* \"#utility.yul\":6768:6848   */\n      tag_246\n        /* \"#utility.yul\":6842:6847   */\n      dup4\n        /* \"#utility.yul\":6768:6848   */\n      tag_134\n      jump\t// in\n    tag_246:\n        /* \"#utility.yul\":6871:6878   */\n      dup1\n        /* \"#utility.yul\":6902:6903   */\n      0x00\n        /* \"#utility.yul\":6887:7243   */\n    tag_247:\n        /* \"#utility.yul\":6912:6918   */\n      dup4\n        /* \"#utility.yul\":6909:6910   */\n      dup2\n        /* \"#utility.yul\":6906:6919   */\n      lt\n        /* \"#utility.yul\":6887:7243   */\n      iszero\n      tag_249\n      jumpi\n        /* \"#utility.yul\":6988:6994   */\n      dup2\n        /* \"#utility.yul\":6982:6995   */\n      mload\n        /* \"#utility.yul\":7015:7126   */\n      tag_250\n        /* \"#utility.yul\":7122:7125   */\n      dup9\n        /* \"#utility.yul\":7107:7120   */\n      dup3\n        /* \"#utility.yul\":7015:7126   */\n      tag_139\n      jump\t// in\n    tag_250:\n        /* \"#utility.yul\":7008:7126   */\n      swap8\n      pop\n        /* \"#utility.yul\":7149:7233   */\n      tag_251\n        /* \"#utility.yul\":7226:7232   */\n      dup4\n        /* \"#utility.yul\":7149:7233   */\n      tag_140\n      jump\t// in\n    tag_251:\n        /* \"#utility.yul\":7139:7233   */\n      swap3\n      pop\n        /* \"#utility.yul\":6947:7243   */\n      pop\n        /* \"#utility.yul\":6934:6935   */\n      0x01\n        /* \"#utility.yul\":6931:6932   */\n      dup2\n        /* \"#utility.yul\":6927:6936   */\n      add\n        /* \"#utility.yul\":6922:6936   */\n      swap1\n      pop\n        /* \"#utility.yul\":6887:7243   */\n      jump(tag_247)\n    tag_249:\n        /* \"#utility.yul\":6891:6905   */\n      pop\n        /* \"#utility.yul\":7259:7262   */\n      dup6\n        /* \"#utility.yul\":7252:7262   */\n      swap4\n      pop\n        /* \"#utility.yul\":6516:7268   */\n      pop\n      pop\n      pop\n        /* \"#utility.yul\":6344:7268   */\n      swap3\n      swap2\n      pop\n      pop\n      jump\t// out\n        /* \"#utility.yul\":7274:8276   */\n    tag_28:\n        /* \"#utility.yul\":7597:7601   */\n      0x00\n        /* \"#utility.yul\":7635:7638   */\n      0xa0\n        /* \"#utility.yul\":7624:7633   */\n      dup3\n        /* \"#utility.yul\":7620:7639   */\n      add\n        /* \"#utility.yul\":7612:7639   */\n      swap1\n      pop\n        /* \"#utility.yul\":7649:7720   */\n      tag_253\n        /* \"#utility.yul\":7717:7718   */\n      0x00\n        /* \"#utility.yul\":7706:7715   */\n      dup4\n        /* \"#utility.yul\":7702:7719   */\n      add\n        /* \"#utility.yul\":7693:7699   */\n      dup9\n        /* \"#utility.yul\":7649:7720   */\n      tag_125\n      jump\t// in\n    tag_253:\n        /* \"#utility.yul\":7767:7776   */\n      dup2\n        /* \"#utility.yul\":7761:7765   */\n      dup2\n        /* \"#utility.yul\":7757:7777   */\n      sub\n        /* \"#utility.yul\":7752:7754   */\n      0x20\n        /* \"#utility.yul\":7741:7750   */\n      dup4\n        /* \"#utility.yul\":7737:7755   */\n      add\n        /* \"#utility.yul\":7730:7778   */\n      mstore\n        /* \"#utility.yul\":7795:7873   */\n      tag_254\n        /* \"#utility.yul\":7868:7872   */\n      dup2\n        /* \"#utility.yul\":7859:7865   */\n      dup8\n        /* \"#utility.yul\":7795:7873   */\n      tag_130\n      jump\t// in\n    tag_254:\n        /* \"#utility.yul\":7787:7873   */\n      swap1\n      pop\n        /* \"#utility.yul\":7883:7955   */\n      tag_255\n        /* \"#utility.yul\":7951:7953   */\n      0x40\n        /* \"#utility.yul\":7940:7949   */\n      dup4\n        /* \"#utility.yul\":7936:7954   */\n      add\n        /* \"#utility.yul\":7927:7933   */\n      dup7\n        /* \"#utility.yul\":7883:7955   */\n      tag_131\n      jump\t// in\n    tag_255:\n        /* \"#utility.yul\":7965:8037   */\n      tag_256\n        /* \"#utility.yul\":8033:8035   */\n      0x60\n        /* \"#utility.yul\":8022:8031   */\n      dup4\n        /* \"#utility.yul\":8018:8036   */\n      add\n        /* \"#utility.yul\":8009:8015   */\n      dup6\n        /* \"#utility.yul\":7965:8037   */\n      tag_125\n      jump\t// in\n    tag_256:\n        /* \"#utility.yul\":8085:8094   */\n      dup2\n        /* \"#utility.yul\":8079:8083   */\n      dup2\n        /* \"#utility.yul\":8075:8095   */\n      sub\n        /* \"#utility.yul\":8069:8072   */\n      0x80\n        /* \"#utility.yul\":8058:8067   */\n      dup4\n        /* \"#utility.yul\":8054:8073   */\n      add\n        /* \"#utility.yul\":8047:8096   */\n      mstore\n        /* \"#utility.yul\":8113:8269   */\n      tag_257\n        /* \"#utility.yul\":8264:8268   */\n      dup2\n        /* \"#utility.yul\":8255:8261   */\n      dup5\n        /* \"#utility.yul\":8113:8269   */\n      tag_141\n      jump\t// in\n    tag_257:\n        /* \"#utility.yul\":8105:8269   */\n      swap1\n      pop\n        /* \"#utility.yul\":7274:8276   */\n      swap7\n      swap6\n      pop\n      pop\n      pop\n      pop\n      pop\n      pop\n      jump\t// out\n        /* \"#utility.yul\":8282:8342   */\n    tag_142:\n        /* \"#utility.yul\":8310:8313   */\n      0x00\n        /* \"#utility.yul\":8331:8336   */\n      dup2\n        /* \"#utility.yul\":8324:8336   */\n      swap1\n      pop\n        /* \"#utility.yul\":8282:8342   */\n      swap2\n      swap1\n      pop\n      jump\t// out\n        /* \"#utility.yul\":8348:8490   */\n    tag_143:\n        /* \"#utility.yul\":8398:8407   */\n      0x00\n        /* \"#utility.yul\":8431:8484   */\n      tag_260\n        /* \"#utility.yul\":8449:8483   */\n      tag_261\n        /* \"#utility.yul\":8458:8482   */\n      tag_262\n        /* \"#utility.yul\":8476:8481   */\n      dup5\n        /* \"#utility.yul\":8458:8482   */\n      tag_116\n      jump\t// in\n    tag_262:\n        /* \"#utility.yul\":8449:8483   */\n      tag_142\n      jump\t// in\n    tag_261:\n        /* \"#utility.yul\":8431:8484   */\n      tag_116\n      jump\t// in\n    tag_260:\n        /* \"#utility.yul\":8418:8484   */\n      swap1\n      pop\n        /* \"#utility.yul\":8348:8490   */\n      swap2\n      swap1\n      pop\n      jump\t// out\n        /* \"#utility.yul\":8496:8622   */\n    tag_144:\n        /* \"#utility.yul\":8546:8555   */\n      0x00\n        /* \"#utility.yul\":8579:8616   */\n      tag_264\n        /* \"#utility.yul\":8610:8615   */\n      dup3\n        /* \"#utility.yul\":8579:8616   */\n      tag_143\n      jump\t// in\n    tag_264:\n        /* \"#utility.yul\":8566:8616   */\n      swap1\n      pop\n        /* \"#utility.yul\":8496:8622   */\n      swap2\n      swap1\n      pop\n      jump\t// out\n        /* \"#utility.yul\":8628:8780   */\n    tag_145:\n        /* \"#utility.yul\":8704:8713   */\n      0x00\n        /* \"#utility.yul\":8737:8774   */\n      tag_266\n        /* \"#utility.yul\":8768:8773   */\n      dup3\n        /* \"#utility.yul\":8737:8774   */\n      tag_144\n      jump\t// in\n    tag_266:\n        /* \"#utility.yul\":8724:8774   */\n      swap1\n      pop\n        /* \"#utility.yul\":8628:8780   */\n      swap2\n      swap1\n      pop\n      jump\t// out\n        /* \"#utility.yul\":8786:8969   */\n    tag_146:\n        /* \"#utility.yul\":8899:8962   */\n      tag_268\n        /* \"#utility.yul\":8956:8961   */\n      dup2\n        /* \"#utility.yul\":8899:8962   */\n      tag_145\n      jump\t// in\n    tag_268:\n        /* \"#utility.yul\":8894:8897   */\n      dup3\n        /* \"#utility.yul\":8887:8963   */\n      mstore\n        /* \"#utility.yul\":8786:8969   */\n      pop\n      pop\n      jump\t// out\n        /* \"#utility.yul\":8975:9249   */\n    tag_33:\n        /* \"#utility.yul\":9094:9098   */\n      0x00\n        /* \"#utility.yul\":9132:9134   */\n      0x20\n        /* \"#utility.yul\":9121:9130   */\n      dup3\n        /* \"#utility.yul\":9117:9135   */\n      add\n        /* \"#utility.yul\":9109:9135   */\n      swap1\n      pop\n        /* \"#utility.yul\":9145:9242   */\n      tag_270\n        /* \"#utility.yul\":9239:9240   */\n      0x00\n        /* \"#utility.yul\":9228:9237   */\n      dup4\n        /* \"#utility.yul\":9224:9241   */\n      add\n        /* \"#utility.yul\":9215:9221   */\n      dup5\n        /* \"#utility.yul\":9145:9242   */\n      tag_146\n      jump\t// in\n    tag_270:\n        /* \"#utility.yul\":8975:9249   */\n      swap3\n      swap2\n      pop\n      pop\n      jump\t// out\n        /* \"#utility.yul\":9255:9371   */\n    tag_147:\n        /* \"#utility.yul\":9325:9346   */\n      tag_272\n        /* \"#utility.yul\":9340:9345   */\n      dup2\n        /* \"#utility.yul\":9325:9346   */\n      tag_123\n      jump\t// in\n    tag_272:\n        /* \"#utility.yul\":9318:9323   */\n      dup2\n        /* \"#utility.yul\":9315:9347   */\n      eq\n        /* \"#utility.yul\":9305:9365   */\n      tag_273\n      jumpi\n        /* \"#utility.yul\":9361:9362   */\n      0x00\n        /* \"#utility.yul\":9358:9359   */\n      dup1\n        /* \"#utility.yul\":9351:9363   */\n      revert\n        /* \"#utility.yul\":9305:9365   */\n    tag_273:\n        /* \"#utility.yul\":9255:9371   */\n      pop\n      jump\t// out\n        /* \"#utility.yul\":9377:9510   */\n    tag_148:\n        /* \"#utility.yul\":9420:9425   */\n      0x00\n        /* \"#utility.yul\":9458:9464   */\n      dup2\n        /* \"#utility.yul\":9445:9465   */\n      calldataload\n        /* \"#utility.yul\":9436:9465   */\n      swap1\n      pop\n        /* \"#utility.yul\":9474:9504   */\n      tag_275\n        /* \"#utility.yul\":9498:9503   */\n      dup2\n        /* \"#utility.yul\":9474:9504   */\n      tag_147\n      jump\t// in\n    tag_275:\n        /* \"#utility.yul\":9377:9510   */\n      swap3\n      swap2\n      pop\n      pop\n      jump\t// out\n        /* \"#utility.yul\":9516:10275   */\n    tag_37:\n        /* \"#utility.yul\":9599:9605   */\n      0x00\n        /* \"#utility.yul\":9607:9613   */\n      dup1\n        /* \"#utility.yul\":9615:9621   */\n      0x00\n        /* \"#utility.yul\":9623:9629   */\n      dup1\n        /* \"#utility.yul\":9672:9675   */\n      0x80\n        /* \"#utility.yul\":9660:9669   */\n      dup6\n        /* \"#utility.yul\":9651:9658   */\n      dup8\n        /* \"#utility.yul\":9647:9670   */\n      sub\n        /* \"#utility.yul\":9643:9676   */\n      slt\n        /* \"#utility.yul\":9640:9760   */\n      iszero\n      tag_277\n      jumpi\n        /* \"#utility.yul\":9679:9758   */\n      tag_278\n      tag_114\n      jump\t// in\n    tag_278:\n        /* \"#utility.yul\":9640:9760   */\n    tag_277:\n        /* \"#utility.yul\":9799:9800   */\n      0x00\n        /* \"#utility.yul\":9824:9877   */\n      tag_279\n        /* \"#utility.yul\":9869:9876   */\n      dup8\n        /* \"#utility.yul\":9860:9866   */\n      dup3\n        /* \"#utility.yul\":9849:9858   */\n      dup9\n        /* \"#utility.yul\":9845:9867   */\n      add\n        /* \"#utility.yul\":9824:9877   */\n      tag_122\n      jump\t// in\n    tag_279:\n        /* \"#utility.yul\":9814:9877   */\n      swap5\n      pop\n        /* \"#utility.yul\":9770:9887   */\n      pop\n        /* \"#utility.yul\":9926:9928   */\n      0x20\n        /* \"#utility.yul\":9952:10005   */\n      tag_280\n        /* \"#utility.yul\":9997:10004   */\n      dup8\n        /* \"#utility.yul\":9988:9994   */\n      dup3\n        /* \"#utility.yul\":9977:9986   */\n      dup9\n        /* \"#utility.yul\":9973:9995   */\n      add\n        /* \"#utility.yul\":9952:10005   */\n      tag_122\n      jump\t// in\n    tag_280:\n        /* \"#utility.yul\":9942:10005   */\n      swap4\n      pop\n        /* \"#utility.yul\":9897:10015   */\n      pop\n        /* \"#utility.yul\":10054:10056   */\n      0x40\n        /* \"#utility.yul\":10080:10133   */\n      tag_281\n        /* \"#utility.yul\":10125:10132   */\n      dup8\n        /* \"#utility.yul\":10116:10122   */\n      dup3\n        /* \"#utility.yul\":10105:10114   */\n      dup9\n        /* \"#utility.yul\":10101:10123   */\n      add\n        /* \"#utility.yul\":10080:10133   */\n      tag_122\n      jump\t// in\n    tag_281:\n        /* \"#utility.yul\":10070:10133   */\n      swap3\n      pop\n        /* \"#utility.yul\":10025:10143   */\n      pop\n        /* \"#utility.yul\":10182:10184   */\n      0x60\n        /* \"#utility.yul\":10208:10258   */\n      tag_282\n        /* \"#utility.yul\":10250:10257   */\n      dup8\n        /* \"#utility.yul\":10241:10247   */\n      dup3\n        /* \"#utility.yul\":10230:10239   */\n      dup9\n        /* \"#utility.yul\":10226:10248   */\n      add\n        /* \"#utility.yul\":10208:10258   */\n      tag_148\n      jump\t// in\n    tag_282:\n        /* \"#utility.yul\":10198:10258   */\n      swap2\n      pop\n        /* \"#utility.yul\":10153:10268   */\n      pop\n        /* \"#utility.yul\":9516:10275   */\n      swap3\n      swap6\n      swap2\n      swap5\n      pop\n      swap3\n      pop\n      jump\t// out\n        /* \"#utility.yul\":10281:10503   */\n    tag_45:\n        /* \"#utility.yul\":10374:10378   */\n      0x00\n        /* \"#utility.yul\":10412:10414   */\n      0x20\n        /* \"#utility.yul\":10401:10410   */\n      dup3\n        /* \"#utility.yul\":10397:10415   */\n      add\n        /* \"#utility.yul\":10389:10415   */\n      swap1\n      pop\n        /* \"#utility.yul\":10425:10496   */\n      tag_284\n        /* \"#utility.yul\":10493:10494   */\n      0x00\n        /* \"#utility.yul\":10482:10491   */\n      dup4\n        /* \"#utility.yul\":10478:10495   */\n      add\n        /* \"#utility.yul\":10469:10475   */\n      dup5\n        /* \"#utility.yul\":10425:10496   */\n      tag_125\n      jump\t// in\n    tag_284:\n        /* \"#utility.yul\":10281:10503   */\n      swap3\n      swap2\n      pop\n      pop\n      jump\t// out\n        /* \"#utility.yul\":10509:10626   */\n    tag_149:\n        /* \"#utility.yul\":10618:10619   */\n      0x00\n        /* \"#utility.yul\":10615:10616   */\n      dup1\n        /* \"#utility.yul\":10608:10620   */\n      revert\n        /* \"#utility.yul\":10632:10749   */\n    tag_150:\n        /* \"#utility.yul\":10741:10742   */\n      0x00\n        /* \"#utility.yul\":10738:10739   */\n      dup1\n        /* \"#utility.yul\":10731:10743   */\n      revert\n        /* \"#utility.yul\":10755:10935   */\n    tag_151:\n        /* \"#utility.yul\":10803:10880   */\n      0x4e487b7100000000000000000000000000000000000000000000000000000000\n        /* \"#utility.yul\":10800:10801   */\n      0x00\n        /* \"#utility.yul\":10793:10881   */\n      mstore\n        /* \"#utility.yul\":10900:10904   */\n      0x41\n        /* \"#utility.yul\":10897:10898   */\n      0x04\n        /* \"#utility.yul\":10890:10905   */\n      mstore\n        /* \"#utility.yul\":10924:10928   */\n      0x24\n        /* \"#utility.yul\":10921:10922   */\n      0x00\n        /* \"#utility.yul\":10914:10929   */\n      revert\n        /* \"#utility.yul\":10941:11222   */\n    tag_152:\n        /* \"#utility.yul\":11024:11051   */\n      tag_289\n        /* \"#utility.yul\":11046:11050   */\n      dup3\n        /* \"#utility.yul\":11024:11051   */\n      tag_129\n      jump\t// in\n    tag_289:\n        /* \"#utility.yul\":11016:11022   */\n      dup2\n        /* \"#utility.yul\":11012:11052   */\n      add\n        /* \"#utility.yul\":11154:11160   */\n      dup2\n        /* \"#utility.yul\":11142:11152   */\n      dup2\n        /* \"#utility.yul\":11139:11161   */\n      lt\n        /* \"#utility.yul\":11118:11136   */\n      0xffffffffffffffff\n        /* \"#utility.yul\":11106:11116   */\n      dup3\n        /* \"#utility.yul\":11103:11137   */\n      gt\n        /* \"#utility.yul\":11100:11162   */\n      or\n        /* \"#utility.yul\":11097:11185   */\n      iszero\n      tag_290\n      jumpi\n        /* \"#utility.yul\":11165:11183   */\n      tag_291\n      tag_151\n      jump\t// in\n    tag_291:\n        /* \"#utility.yul\":11097:11185   */\n    tag_290:\n        /* \"#utility.yul\":11205:11215   */\n      dup1\n        /* \"#utility.yul\":11201:11203   */\n      0x40\n        /* \"#utility.yul\":11194:11216   */\n      mstore\n        /* \"#utility.yul\":10984:11222   */\n      pop\n        /* \"#utility.yul\":10941:11222   */\n      pop\n      pop\n      jump\t// out\n        /* \"#utility.yul\":11228:11357   */\n    tag_153:\n        /* \"#utility.yul\":11262:11268   */\n      0x00\n        /* \"#utility.yul\":11289:11309   */\n      tag_293\n      tag_113\n      jump\t// in\n    tag_293:\n        /* \"#utility.yul\":11279:11309   */\n      swap1\n      pop\n        /* \"#utility.yul\":11318:11351   */\n      tag_294\n        /* \"#utility.yul\":11346:11350   */\n      dup3\n        /* \"#utility.yul\":11338:11344   */\n      dup3\n        /* \"#utility.yul\":11318:11351   */\n      tag_152\n      jump\t// in\n    tag_294:\n        /* \"#utility.yul\":11228:11357   */\n      swap2\n      swap1\n      pop\n      jump\t// out\n        /* \"#utility.yul\":11363:11671   */\n    tag_154:\n        /* \"#utility.yul\":11425:11429   */\n      0x00\n        /* \"#utility.yul\":11515:11533   */\n      0xffffffffffffffff\n        /* \"#utility.yul\":11507:11513   */\n      dup3\n        /* \"#utility.yul\":11504:11534   */\n      gt\n        /* \"#utility.yul\":11501:11557   */\n      iszero\n      tag_296\n      jumpi\n        /* \"#utility.yul\":11537:11555   */\n      tag_297\n      tag_151\n      jump\t// in\n    tag_297:\n        /* \"#utility.yul\":11501:11557   */\n    tag_296:\n        /* \"#utility.yul\":11575:11604   */\n      tag_298\n        /* \"#utility.yul\":11597:11603   */\n      dup3\n        /* \"#utility.yul\":11575:11604   */\n      tag_129\n      jump\t// in\n    tag_298:\n        /* \"#utility.yul\":11567:11604   */\n      swap1\n      pop\n        /* \"#utility.yul\":11659:11663   */\n      0x20\n        /* \"#utility.yul\":11653:11657   */\n      dup2\n        /* \"#utility.yul\":11649:11664   */\n      add\n        /* \"#utility.yul\":11641:11664   */\n      swap1\n      pop\n        /* \"#utility.yul\":11363:11671   */\n      swap2\n      swap1\n      pop\n      jump\t// out\n        /* \"#utility.yul\":11677:11825   */\n    tag_155:\n        /* \"#utility.yul\":11775:11781   */\n      dup3\n        /* \"#utility.yul\":11770:11773   */\n      dup2\n        /* \"#utility.yul\":11765:11768   */\n      dup4\n        /* \"#utility.yul\":11752:11782   */\n      calldatacopy\n        /* \"#utility.yul\":11816:11817   */\n      0x00\n        /* \"#utility.yul\":11807:11813   */\n      dup4\n        /* \"#utility.yul\":11802:11805   */\n      dup4\n        /* \"#utility.yul\":11798:11814   */\n      add\n        /* \"#utility.yul\":11791:11818   */\n      mstore\n        /* \"#utility.yul\":11677:11825   */\n      pop\n      pop\n      pop\n      jump\t// out\n        /* \"#utility.yul\":11831:12256   */\n    tag_156:\n        /* \"#utility.yul\":11909:11914   */\n      0x00\n        /* \"#utility.yul\":11934:12000   */\n      tag_301\n        /* \"#utility.yul\":11950:11999   */\n      tag_302\n        /* \"#utility.yul\":11992:11998   */\n      dup5\n        /* \"#utility.yul\":11950:11999   */\n      tag_154\n      jump\t// in\n    tag_302:\n        /* \"#utility.yul\":11934:12000   */\n      tag_153\n      jump\t// in\n    tag_301:\n        /* \"#utility.yul\":11925:12000   */\n      swap1\n      pop\n        /* \"#utility.yul\":12023:12029   */\n      dup3\n        /* \"#utility.yul\":12016:12021   */\n      dup2\n        /* \"#utility.yul\":12009:12030   */\n      mstore\n        /* \"#utility.yul\":12061:12065   */\n      0x20\n        /* \"#utility.yul\":12054:12059   */\n      dup2\n        /* \"#utility.yul\":12050:12066   */\n      add\n        /* \"#utility.yul\":12099:12102   */\n      dup5\n        /* \"#utility.yul\":12090:12096   */\n      dup5\n        /* \"#utility.yul\":12085:12088   */\n      dup5\n        /* \"#utility.yul\":12081:12097   */\n      add\n        /* \"#utility.yul\":12078:12103   */\n      gt\n        /* \"#utility.yul\":12075:12187   */\n      iszero\n      tag_303\n      jumpi\n        /* \"#utility.yul\":12106:12185   */\n      tag_304\n      tag_150\n      jump\t// in\n    tag_304:\n        /* \"#utility.yul\":12075:12187   */\n    tag_303:\n        /* \"#utility.yul\":12196:12250   */\n      tag_305\n        /* \"#utility.yul\":12243:12249   */\n      dup5\n        /* \"#utility.yul\":12238:12241   */\n      dup3\n        /* \"#utility.yul\":12233:12236   */\n      dup6\n        /* \"#utility.yul\":12196:12250   */\n      tag_155\n      jump\t// in\n    tag_305:\n        /* \"#utility.yul\":11915:12256   */\n      pop\n        /* \"#utility.yul\":11831:12256   */\n      swap4\n      swap3\n      pop\n      pop\n      pop\n      jump\t// out\n        /* \"#utility.yul\":12276:12616   */\n    tag_157:\n        /* \"#utility.yul\":12332:12337   */\n      0x00\n        /* \"#utility.yul\":12381:12384   */\n      dup3\n        /* \"#utility.yul\":12374:12378   */\n      0x1f\n        /* \"#utility.yul\":12366:12372   */\n      dup4\n        /* \"#utility.yul\":12362:12379   */\n      add\n        /* \"#utility.yul\":12358:12385   */\n      slt\n        /* \"#utility.yul\":12348:12470   */\n      tag_307\n      jumpi\n        /* \"#utility.yul\":12389:12468   */\n      tag_308\n      tag_149\n      jump\t// in\n    tag_308:\n        /* \"#utility.yul\":12348:12470   */\n    tag_307:\n        /* \"#utility.yul\":12506:12512   */\n      dup2\n        /* \"#utility.yul\":12493:12513   */\n      calldataload\n        /* \"#utility.yul\":12531:12610   */\n      tag_309\n        /* \"#utility.yul\":12606:12609   */\n      dup5\n        /* \"#utility.yul\":12598:12604   */\n      dup3\n        /* \"#utility.yul\":12591:12595   */\n      0x20\n        /* \"#utility.yul\":12583:12589   */\n      dup7\n        /* \"#utility.yul\":12579:12596   */\n      add\n        /* \"#utility.yul\":12531:12610   */\n      tag_156\n      jump\t// in\n    tag_309:\n        /* \"#utility.yul\":12522:12610   */\n      swap2\n      pop\n        /* \"#utility.yul\":12338:12616   */\n      pop\n        /* \"#utility.yul\":12276:12616   */\n      swap3\n      swap2\n      pop\n      pop\n      jump\t// out\n        /* \"#utility.yul\":12622:13276   */\n    tag_49:\n        /* \"#utility.yul\":12700:12706   */\n      0x00\n        /* \"#utility.yul\":12708:12714   */\n      dup1\n        /* \"#utility.yul\":12757:12759   */\n      0x40\n        /* \"#utility.yul\":12745:12754   */\n      dup4\n        /* \"#utility.yul\":12736:12743   */\n      dup6\n        /* \"#utility.yul\":12732:12755   */\n      sub\n        /* \"#utility.yul\":12728:12760   */\n      slt\n        /* \"#utility.yul\":12725:12844   */\n      iszero\n      tag_311\n      jumpi\n        /* \"#utility.yul\":12763:12842   */\n      tag_312\n      tag_114\n      jump\t// in\n    tag_312:\n        /* \"#utility.yul\":12725:12844   */\n    tag_311:\n        /* \"#utility.yul\":12911:12912   */\n      0x00\n        /* \"#utility.yul\":12900:12909   */\n      dup4\n        /* \"#utility.yul\":12896:12913   */\n      add\n        /* \"#utility.yul\":12883:12914   */\n      calldataload\n        /* \"#utility.yul\":12941:12959   */\n      0xffffffffffffffff\n        /* \"#utility.yul\":12933:12939   */\n      dup2\n        /* \"#utility.yul\":12930:12960   */\n      gt\n        /* \"#utility.yul\":12927:13044   */\n      iszero\n      tag_313\n      jumpi\n        /* \"#utility.yul\":12963:13042   */\n      tag_314\n      tag_115\n      jump\t// in\n    tag_314:\n        /* \"#utility.yul\":12927:13044   */\n    tag_313:\n        /* \"#utility.yul\":13068:13131   */\n      tag_315\n        /* \"#utility.yul\":13123:13130   */\n      dup6\n        /* \"#utility.yul\":13114:13120   */\n      dup3\n        /* \"#utility.yul\":13103:13112   */\n      dup7\n        /* \"#utility.yul\":13099:13121   */\n      add\n        /* \"#utility.yul\":13068:13131   */\n      tag_157\n      jump\t// in\n    tag_315:\n        /* \"#utility.yul\":13058:13131   */\n      swap3\n      pop\n        /* \"#utility.yul\":12854:13141   */\n      pop\n        /* \"#utility.yul\":13180:13182   */\n      0x20\n        /* \"#utility.yul\":13206:13259   */\n      tag_316\n        /* \"#utility.yul\":13251:13258   */\n      dup6\n        /* \"#utility.yul\":13242:13248   */\n      dup3\n        /* \"#utility.yul\":13231:13240   */\n      dup7\n        /* \"#utility.yul\":13227:13249   */\n      add\n        /* \"#utility.yul\":13206:13259   */\n      tag_122\n      jump\t// in\n    tag_316:\n        /* \"#utility.yul\":13196:13259   */\n      swap2\n      pop\n        /* \"#utility.yul\":13151:13269   */\n      pop\n        /* \"#utility.yul\":12622:13276   */\n      swap3\n      pop\n      swap3\n      swap1\n      pop\n      jump\t// out\n        /* \"#utility.yul\":13282:13504   */\n    tag_56:\n        /* \"#utility.yul\":13375:13379   */\n      0x00\n        /* \"#utility.yul\":13413:13415   */\n      0x20\n        /* \"#utility.yul\":13402:13411   */\n      dup3\n        /* \"#utility.yul\":13398:13416   */\n      add\n        /* \"#utility.yul\":13390:13416   */\n      swap1\n      pop\n        /* \"#utility.yul\":13426:13497   */\n      tag_318\n        /* \"#utility.yul\":13494:13495   */\n      0x00\n        /* \"#utility.yul\":13483:13492   */\n      dup4\n        /* \"#utility.yul\":13479:13496   */\n      add\n        /* \"#utility.yul\":13470:13476   */\n      dup5\n        /* \"#utility.yul\":13426:13497   */\n      tag_131\n      jump\t// in\n    tag_318:\n        /* \"#utility.yul\":13282:13504   */\n      swap3\n      swap2\n      pop\n      pop\n      jump\t// out\n        /* \"#utility.yul\":13510:13842   */\n    tag_59:\n        /* \"#utility.yul\":13631:13635   */\n      0x00\n        /* \"#utility.yul\":13669:13671   */\n      0x40\n        /* \"#utility.yul\":13658:13667   */\n      dup3\n        /* \"#utility.yul\":13654:13672   */\n      add\n        /* \"#utility.yul\":13646:13672   */\n      swap1\n      pop\n        /* \"#utility.yul\":13682:13753   */\n      tag_320\n        /* \"#utility.yul\":13750:13751   */\n      0x00\n        /* \"#utility.yul\":13739:13748   */\n      dup4\n        /* \"#utility.yul\":13735:13752   */\n      add\n        /* \"#utility.yul\":13726:13732   */\n      dup6\n        /* \"#utility.yul\":13682:13753   */\n      tag_131\n      jump\t// in\n    tag_320:\n        /* \"#utility.yul\":13763:13835   */\n      tag_321\n        /* \"#utility.yul\":13831:13833   */\n      0x20\n        /* \"#utility.yul\":13820:13829   */\n      dup4\n        /* \"#utility.yul\":13816:13834   */\n      add\n        /* \"#utility.yul\":13807:13813   */\n      dup5\n        /* \"#utility.yul\":13763:13835   */\n      tag_125\n      jump\t// in\n    tag_321:\n        /* \"#utility.yul\":13510:13842   */\n      swap4\n      swap3\n      pop\n      pop\n      pop\n      jump\t// out\n        /* \"#utility.yul\":13848:13985   */\n    tag_158:\n        /* \"#utility.yul\":13902:13907   */\n      0x00\n        /* \"#utility.yul\":13933:13939   */\n      dup2\n        /* \"#utility.yul\":13927:13940   */\n      mload\n        /* \"#utility.yul\":13918:13940   */\n      swap1\n      pop\n        /* \"#utility.yul\":13949:13979   */\n      tag_323\n        /* \"#utility.yul\":13973:13978   */\n      dup2\n        /* \"#utility.yul\":13949:13979   */\n      tag_147\n      jump\t// in\n    tag_323:\n        /* \"#utility.yul\":13848:13985   */\n      swap3\n      swap2\n      pop\n      pop\n      jump\t// out\n        /* \"#utility.yul\":13991:14336   */\n    tag_63:\n        /* \"#utility.yul\":14058:14064   */\n      0x00\n        /* \"#utility.yul\":14107:14109   */\n      0x20\n        /* \"#utility.yul\":14095:14104   */\n      dup3\n        /* \"#utility.yul\":14086:14093   */\n      dup5\n        /* \"#utility.yul\":14082:14105   */\n      sub\n        /* \"#utility.yul\":14078:14110   */\n      slt\n        /* \"#utility.yul\":14075:14194   */\n      iszero\n      tag_325\n      jumpi\n        /* \"#utility.yul\":14113:14192   */\n      tag_326\n      tag_114\n      jump\t// in\n    tag_326:\n        /* \"#utility.yul\":14075:14194   */\n    tag_325:\n        /* \"#utility.yul\":14233:14234   */\n      0x00\n        /* \"#utility.yul\":14258:14319   */\n      tag_327\n        /* \"#utility.yul\":14311:14318   */\n      dup5\n        /* \"#utility.yul\":14302:14308   */\n      dup3\n        /* \"#utility.yul\":14291:14300   */\n      dup6\n        /* \"#utility.yul\":14287:14309   */\n      add\n        /* \"#utility.yul\":14258:14319   */\n      tag_158\n      jump\t// in\n    tag_327:\n        /* \"#utility.yul\":14248:14319   */\n      swap2\n      pop\n        /* \"#utility.yul\":14204:14329   */\n      pop\n        /* \"#utility.yul\":13991:14336   */\n      swap3\n      swap2\n      pop\n      pop\n      jump\t// out\n        /* \"#utility.yul\":14342:14513   */\n    tag_159:\n        /* \"#utility.yul\":14482:14505   */\n      0x546f6b656e207472616e73666572206661696c65640000000000000000000000\n        /* \"#utility.yul\":14478:14479   */\n      0x00\n        /* \"#utility.yul\":14470:14476   */\n      dup3\n        /* \"#utility.yul\":14466:14480   */\n      add\n        /* \"#utility.yul\":14459:14506   */\n      mstore\n        /* \"#utility.yul\":14342:14513   */\n      pop\n      jump\t// out\n        /* \"#utility.yul\":14519:14885   */\n    tag_160:\n        /* \"#utility.yul\":14661:14664   */\n      0x00\n        /* \"#utility.yul\":14682:14749   */\n      tag_330\n        /* \"#utility.yul\":14746:14748   */\n      0x15\n        /* \"#utility.yul\":14741:14744   */\n      dup4\n        /* \"#utility.yul\":14682:14749   */\n      tag_127\n      jump\t// in\n    tag_330:\n        /* \"#utility.yul\":14675:14749   */\n      swap2\n      pop\n        /* \"#utility.yul\":14758:14851   */\n      tag_331\n        /* \"#utility.yul\":14847:14850   */\n      dup3\n        /* \"#utility.yul\":14758:14851   */\n      tag_159\n      jump\t// in\n    tag_331:\n        /* \"#utility.yul\":14876:14878   */\n      0x20\n        /* \"#utility.yul\":14871:14874   */\n      dup3\n        /* \"#utility.yul\":14867:14879   */\n      add\n        /* \"#utility.yul\":14860:14879   */\n      swap1\n      pop\n        /* \"#utility.yul\":14519:14885   */\n      swap2\n      swap1\n      pop\n      jump\t// out\n        /* \"#utility.yul\":14891:15310   */\n    tag_66:\n        /* \"#utility.yul\":15057:15061   */\n      0x00\n        /* \"#utility.yul\":15095:15097   */\n      0x20\n        /* \"#utility.yul\":15084:15093   */\n      dup3\n        /* \"#utility.yul\":15080:15098   */\n      add\n        /* \"#utility.yul\":15072:15098   */\n      swap1\n      pop\n        /* \"#utility.yul\":15144:15153   */\n      dup2\n        /* \"#utility.yul\":15138:15142   */\n      dup2\n        /* \"#utility.yul\":15134:15154   */\n      sub\n        /* \"#utility.yul\":15130:15131   */\n      0x00\n        /* \"#utility.yul\":15119:15128   */\n      dup4\n        /* \"#utility.yul\":15115:15132   */\n      add\n        /* \"#utility.yul\":15108:15155   */\n      mstore\n        /* \"#utility.yul\":15172:15303   */\n      tag_333\n        /* \"#utility.yul\":15298:15302   */\n      dup2\n        /* \"#utility.yul\":15172:15303   */\n      tag_160\n      jump\t// in\n    tag_333:\n        /* \"#utility.yul\":15164:15303   */\n      swap1\n      pop\n        /* \"#utility.yul\":14891:15310   */\n      swap2\n      swap1\n      pop\n      jump\t// out\n        /* \"#utility.yul\":15316:15496   */\n    tag_70:\n        /* \"#utility.yul\":15364:15441   */\n      0x4e487b7100000000000000000000000000000000000000000000000000000000\n        /* \"#utility.yul\":15361:15362   */\n      0x00\n        /* \"#utility.yul\":15354:15442   */\n      mstore\n        /* \"#utility.yul\":15461:15465   */\n      0x32\n        /* \"#utility.yul\":15458:15459   */\n      0x04\n        /* \"#utility.yul\":15451:15466   */\n      mstore\n        /* \"#utility.yul\":15485:15489   */\n      0x24\n        /* \"#utility.yul\":15482:15483   */\n      0x00\n        /* \"#utility.yul\":15475:15490   */\n      revert\n        /* \"#utility.yul\":15502:15682   */\n    tag_161:\n        /* \"#utility.yul\":15550:15627   */\n      0x4e487b7100000000000000000000000000000000000000000000000000000000\n        /* \"#utility.yul\":15547:15548   */\n      0x00\n        /* \"#utility.yul\":15540:15628   */\n      mstore\n        /* \"#utility.yul\":15647:15651   */\n      0x22\n        /* \"#utility.yul\":15644:15645   */\n      0x04\n        /* \"#utility.yul\":15637:15652   */\n      mstore\n        /* \"#utility.yul\":15671:15675   */\n      0x24\n        /* \"#utility.yul\":15668:15669   */\n      0x00\n        /* \"#utility.yul\":15661:15676   */\n      revert\n        /* \"#utility.yul\":15688:16008   */\n    tag_80:\n        /* \"#utility.yul\":15732:15738   */\n      0x00\n        /* \"#utility.yul\":15769:15770   */\n      0x02\n        /* \"#utility.yul\":15763:15767   */\n      dup3\n        /* \"#utility.yul\":15759:15771   */\n      div\n        /* \"#utility.yul\":15749:15771   */\n      swap1\n      pop\n        /* \"#utility.yul\":15816:15817   */\n      0x01\n        /* \"#utility.yul\":15810:15814   */\n      dup3\n        /* \"#utility.yul\":15806:15818   */\n      and\n        /* \"#utility.yul\":15837:15855   */\n      dup1\n        /* \"#utility.yul\":15827:15908   */\n      tag_337\n      jumpi\n        /* \"#utility.yul\":15893:15897   */\n      0x7f\n        /* \"#utility.yul\":15885:15891   */\n      dup3\n        /* \"#utility.yul\":15881:15898   */\n      and\n        /* \"#utility.yul\":15871:15898   */\n      swap2\n      pop\n        /* \"#utility.yul\":15827:15908   */\n    tag_337:\n        /* \"#utility.yul\":15955:15957   */\n      0x20\n        /* \"#utility.yul\":15947:15953   */\n      dup3\n        /* \"#utility.yul\":15944:15958   */\n      lt\n        /* \"#utility.yul\":15924:15942   */\n      dup2\n        /* \"#utility.yul\":15921:15959   */\n      sub\n        /* \"#utility.yul\":15918:16002   */\n      tag_338\n      jumpi\n        /* \"#utility.yul\":15974:15992   */\n      tag_339\n      tag_161\n      jump\t// in\n    tag_339:\n        /* \"#utility.yul\":15918:16002   */\n    tag_338:\n        /* \"#utility.yul\":15739:16008   */\n      pop\n        /* \"#utility.yul\":15688:16008   */\n      swap2\n      swap1\n      pop\n      jump\t// out\n        /* \"#utility.yul\":16014:16155   */\n    tag_162:\n        /* \"#utility.yul\":16063:16067   */\n      0x00\n        /* \"#utility.yul\":16086:16089   */\n      dup2\n        /* \"#utility.yul\":16078:16089   */\n      swap1\n      pop\n        /* \"#utility.yul\":16109:16112   */\n      dup2\n        /* \"#utility.yul\":16106:16107   */\n      0x00\n        /* \"#utility.yul\":16099:16113   */\n      mstore\n        /* \"#utility.yul\":16143:16147   */\n      0x20\n        /* \"#utility.yul\":16140:16141   */\n      0x00\n        /* \"#utility.yul\":16130:16148   */\n      keccak256\n        /* \"#utility.yul\":16122:16148   */\n      swap1\n      pop\n        /* \"#utility.yul\":16014:16155   */\n      swap2\n      swap1\n      pop\n      jump\t// out\n        /* \"#utility.yul\":16161:16254   */\n    tag_163:\n        /* \"#utility.yul\":16198:16204   */\n      0x00\n        /* \"#utility.yul\":16245:16247   */\n      0x20\n        /* \"#utility.yul\":16240:16242   */\n      0x1f\n        /* \"#utility.yul\":16233:16238   */\n      dup4\n        /* \"#utility.yul\":16229:16243   */\n      add\n        /* \"#utility.yul\":16225:16248   */\n      div\n        /* \"#utility.yul\":16215:16248   */\n      swap1\n      pop\n        /* \"#utility.yul\":16161:16254   */\n      swap2\n      swap1\n      pop\n      jump\t// out\n        /* \"#utility.yul\":16260:16367   */\n    tag_164:\n        /* \"#utility.yul\":16304:16312   */\n      0x00\n        /* \"#utility.yul\":16354:16359   */\n      dup3\n        /* \"#utility.yul\":16348:16352   */\n      dup3\n        /* \"#utility.yul\":16344:16360   */\n      shl\n        /* \"#utility.yul\":16323:16360   */\n      swap1\n      pop\n        /* \"#utility.yul\":16260:16367   */\n      swap3\n      swap2\n      pop\n      pop\n      jump\t// out\n        /* \"#utility.yul\":16373:16766   */\n    tag_165:\n        /* \"#utility.yul\":16442:16448   */\n      0x00\n        /* \"#utility.yul\":16492:16493   */\n      0x08\n        /* \"#utility.yul\":16480:16490   */\n      dup4\n        /* \"#utility.yul\":16476:16494   */\n      mul\n        /* \"#utility.yul\":16515:16612   */\n      tag_344\n        /* \"#utility.yul\":16545:16611   */\n      0xffffffffffffffffffffffffffffffffffffffffffffffffffffffffffffffff\n        /* \"#utility.yul\":16534:16543   */\n      dup3\n        /* \"#utility.yul\":16515:16612   */\n      tag_164\n      jump\t// in\n    tag_344:\n        /* \"#utility.yul\":16633:16672   */\n      tag_345\n        /* \"#utility.yul\":16663:16671   */\n      dup7\n        /* \"#utility.yul\":16652:16661   */\n      dup4\n        /* \"#utility.yul\":16633:16672   */\n      tag_164\n      jump\t// in\n    tag_345:\n        /* \"#utility.yul\":16621:16672   */\n      swap6\n      pop\n        /* \"#utility.yul\":16705:16709   */\n      dup1\n        /* \"#utility.yul\":16701:16710   */\n      not\n        /* \"#utility.yul\":16694:16699   */\n      dup5\n        /* \"#utility.yul\":16690:16711   */\n      and\n        /* \"#utility.yul\":16681:16711   */\n      swap4\n      pop\n        /* \"#utility.yul\":16754:16758   */\n      dup1\n        /* \"#utility.yul\":16744:16752   */\n      dup7\n        /* \"#utility.yul\":16740:16759   */\n      and\n        /* \"#utility.yul\":16733:16738   */\n      dup5\n        /* \"#utility.yul\":16730:16760   */\n      or\n        /* \"#utility.yul\":16720:16760   */\n      swap3\n      pop\n        /* \"#utility.yul\":16449:16766   */\n      pop\n      pop\n        /* \"#utility.yul\":16373:16766   */\n      swap4\n      swap3\n      pop\n      pop\n      pop\n      jump\t// out\n        /* \"#utility.yul\":16772:16914   */\n    tag_166:\n        /* \"#utility.yul\":16822:16831   */\n      0x00\n        /* \"#utility.yul\":16855:16908   */\n      tag_347\n        /* \"#utility.yul\":16873:16907   */\n      tag_348\n        /* \"#utility.yul\":16882:16906   */\n      tag_349\n        /* \"#utility.yul\":16900:16905   */\n      dup5\n        /* \"#utility.yul\":16882:16906   */\n      tag_120\n      jump\t// in\n    tag_349:\n        /* \"#utility.yul\":16873:16907   */\n      tag_142\n      jump\t// in\n    tag_348:\n        /* \"#utility.yul\":16855:16908   */\n      tag_120\n      jump\t// in\n    tag_347:\n        /* \"#utility.yul\":16842:16908   */\n      swap1\n      pop\n        /* \"#utility.yul\":16772:16914   */\n      swap2\n      swap1\n      pop\n      jump\t// out\n        /* \"#utility.yul\":16920:16995   */\n    tag_167:\n        /* \"#utility.yul\":16963:16966   */\n      0x00\n        /* \"#utility.yul\":16984:16989   */\n      dup2\n        /* \"#utility.yul\":16977:16989   */\n      swap1\n      pop\n        /* \"#utility.yul\":16920:16995   */\n      swap2\n      swap1\n      pop\n      jump\t// out\n        /* \"#utility.yul\":17001:17270   */\n    tag_168:\n        /* \"#utility.yul\":17111:17150   */\n      tag_352\n        /* \"#utility.yul\":17142:17149   */\n      dup4\n        /* \"#utility.yul\":17111:17150   */\n      tag_166\n      jump\t// in\n    tag_352:\n        /* \"#utility.yul\":17172:17263   */\n      tag_353\n        /* \"#utility.yul\":17221:17262   */\n      tag_354\n        /* \"#utility.yul\":17245:17261   */\n      dup3\n        /* \"#utility.yul\":17221:17262   */\n      tag_167\n      jump\t// in\n    tag_354:\n        /* \"#utility.yul\":17213:17219   */\n      dup5\n        /* \"#utility.yul\":17206:17210   */\n      dup5\n        /* \"#utility.yul\":17200:17211   */\n      sload\n        /* \"#utility.yul\":17172:17263   */\n      tag_165\n      jump\t// in\n    tag_353:\n        /* \"#utility.yul\":17166:17170   */\n      dup3\n        /* \"#utility.yul\":17159:17264   */\n      sstore\n        /* \"#utility.yul\":17077:17270   */\n      pop\n        /* \"#utility.yul\":17001:17270   */\n      pop\n      pop\n      pop\n      jump\t// out\n        /* \"#utility.yul\":17276:17349   */\n    tag_169:\n        /* \"#utility.yul\":17321:17324   */\n      0x00\n        /* \"#utility.yul\":17276:17349   */\n      swap1\n      jump\t// out\n        /* \"#utility.yul\":17355:17544   */\n    tag_170:\n        /* \"#utility.yul\":17432:17464   */\n      tag_357\n      tag_169\n      jump\t// in\n    tag_357:\n        /* \"#utility.yul\":17473:17538   */\n      tag_358\n        /* \"#utility.yul\":17531:17537   */\n      dup2\n        /* \"#utility.yul\":17523:17529   */\n      dup5\n        /* \"#utility.yul\":17517:17521   */\n      dup5\n        /* \"#utility.yul\":17473:17538   */\n      tag_168\n      jump\t// in\n    tag_358:\n        /* \"#utility.yul\":17408:17544   */\n      pop\n        /* \"#utility.yul\":17355:17544   */\n      pop\n      pop\n      jump\t// out\n        /* \"#utility.yul\":17550:17736   */\n    tag_171:\n        /* \"#utility.yul\":17610:17730   */\n    tag_360:\n        /* \"#utility.yul\":17627:17630   */\n      dup2\n        /* \"#utility.yul\":17620:17625   */\n      dup2\n        /* \"#utility.yul\":17617:17631   */\n      lt\n        /* \"#utility.yul\":17610:17730   */\n      iszero\n      tag_362\n      jumpi\n        /* \"#utility.yul\":17681:17720   */\n      tag_363\n        /* \"#utility.yul\":17718:17719   */\n      0x00\n        /* \"#utility.yul\":17711:17716   */\n      dup3\n        /* \"#utility.yul\":17681:17720   */\n      tag_170\n      jump\t// in\n    tag_363:\n        /* \"#utility.yul\":17654:17655   */\n      0x01\n        /* \"#utility.yul\":17647:17652   */\n      dup2\n        /* \"#utility.yul\":17643:17656   */\n      add\n        /* \"#utility.yul\":17634:17656   */\n      swap1\n      pop\n        /* \"#utility.yul\":17610:17730   */\n      jump(tag_360)\n    tag_362:\n        /* \"#utility.yul\":17550:17736   */\n      pop\n      pop\n      jump\t// out\n        /* \"#utility.yul\":17742:18285   */\n    tag_172:\n        /* \"#utility.yul\":17843:17845   */\n      0x1f\n        /* \"#utility.yul\":17838:17841   */\n      dup3\n        /* \"#utility.yul\":17835:17846   */\n      gt\n        /* \"#utility.yul\":17832:18278   */\n      iszero\n      tag_365\n      jumpi\n        /* \"#utility.yul\":17877:17915   */\n      tag_366\n        /* \"#utility.yul\":17909:17914   */\n      dup2\n        /* \"#utility.yul\":17877:17915   */\n      tag_162\n      jump\t// in\n    tag_366:\n        /* \"#utility.yul\":17961:17990   */\n      tag_367\n        /* \"#utility.yul\":17979:17989   */\n      dup5\n        /* \"#utility.yul\":17961:17990   */\n      tag_163\n      jump\t// in\n    tag_367:\n        /* \"#utility.yul\":17951:17959   */\n      dup2\n        /* \"#utility.yul\":17947:17991   */\n      add\n        /* \"#utility.yul\":18144:18146   */\n      0x20\n        /* \"#utility.yul\":18132:18142   */\n      dup6\n        /* \"#utility.yul\":18129:18147   */\n      lt\n        /* \"#utility.yul\":18126:18175   */\n      iszero\n      tag_368\n      jumpi\n        /* \"#utility.yul\":18165:18173   */\n      dup2\n        /* \"#utility.yul\":18150:18173   */\n      swap1\n      pop\n        /* \"#utility.yul\":18126:18175   */\n    tag_368:\n        /* \"#utility.yul\":18188:18268   */\n      tag_369\n        /* \"#utility.yul\":18244:18266   */\n      tag_370\n        /* \"#utility.yul\":18262:18265   */\n      dup6\n        /* \"#utility.yul\":18244:18266   */\n      tag_163\n      jump\t// in\n    tag_370:\n        /* \"#utility.yul\":18234:18242   */\n      dup4\n        /* \"#utility.yul\":18230:18267   */\n      add\n        /* \"#utility.yul\":18217:18228   */\n      dup3\n        /* \"#utility.yul\":18188:18268   */\n      tag_171\n      jump\t// in\n    tag_369:\n        /* \"#utility.yul\":17847:18278   */\n      pop\n      pop\n        /* \"#utility.yul\":17832:18278   */\n    tag_365:\n        /* \"#utility.yul\":17742:18285   */\n      pop\n      pop\n      pop\n      jump\t// out\n        /* \"#utility.yul\":18291:18408   */\n    tag_173:\n        /* \"#utility.yul\":18345:18353   */\n      0x00\n        /* \"#utility.yul\":18395:18400   */\n      dup3\n        /* \"#utility.yul\":18389:18393   */\n      dup3\n        /* \"#utility.yul\":18385:18401   */\n      shr\n        /* \"#utility.yul\":18364:18401   */\n      swap1\n      pop\n        /* \"#utility.yul\":18291:18408   */\n      swap3\n      swap2\n      pop\n      pop\n      jump\t// out\n        /* \"#utility.yul\":18414:18583   */\n    tag_174:\n        /* \"#utility.yul\":18458:18464   */\n      0x00\n        /* \"#utility.yul\":18491:18542   */\n      tag_373\n        /* \"#utility.yul\":18539:18540   */\n      0x00\n        /* \"#utility.yul\":18535:18541   */\n      not\n        /* \"#utility.yul\":18527:18532   */\n      dup5\n        /* \"#utility.yul\":18524:18525   */\n      0x08\n        /* \"#utility.yul\":18520:18533   */\n      mul\n        /* \"#utility.yul\":18491:18542   */\n      tag_173\n      jump\t// in\n    tag_373:\n        /* \"#utility.yul\":18487:18543   */\n      not\n        /* \"#utility.yul\":18572:18576   */\n      dup1\n        /* \"#utility.yul\":18566:18570   */\n      dup4\n        /* \"#utility.yul\":18562:18577   */\n      and\n        /* \"#utility.yul\":18552:18577   */\n      swap2\n      pop\n        /* \"#utility.yul\":18465:18583   */\n      pop\n        /* \"#utility.yul\":18414:18583   */\n      swap3\n      swap2\n      pop\n      pop\n      jump\t// out\n        /* \"#utility.yul\":18588:18883   */\n    tag_175:\n        /* \"#utility.yul\":18664:18668   */\n      0x00\n        /* \"#utility.yul\":18810:18839   */\n      tag_375\n        /* \"#utility.yul\":18835:18838   */\n      dup4\n        /* \"#utility.yul\":18829:18833   */\n      dup4\n        /* \"#utility.yul\":18810:18839   */\n      tag_174\n      jump\t// in\n    tag_375:\n        /* \"#utility.yul\":18802:18839   */\n      swap2\n      pop\n        /* \"#utility.yul\":18872:18875   */\n      dup3\n        /* \"#utility.yul\":18869:18870   */\n      0x02\n        /* \"#utility.yul\":18865:18876   */\n      mul\n        /* \"#utility.yul\":18859:18863   */\n      dup3\n        /* \"#utility.yul\":18856:18877   */\n      or\n        /* \"#utility.yul\":18848:18877   */\n      swap1\n      pop\n        /* \"#utility.yul\":18588:18883   */\n      swap3\n      swap2\n      pop\n      pop\n      jump\t// out\n        /* \"#utility.yul\":18888:20283   */\n    tag_111:\n        /* \"#utility.yul\":19005:19042   */\n      tag_377\n        /* \"#utility.yul\":19038:19041   */\n      dup3\n        /* \"#utility.yul\":19005:19042   */\n      tag_126\n      jump\t// in\n    tag_377:\n        /* \"#utility.yul\":19107:19125   */\n      0xffffffffffffffff\n        /* \"#utility.yul\":19099:19105   */\n      dup2\n        /* \"#utility.yul\":19096:19126   */\n      gt\n        /* \"#utility.yul\":19093:19149   */\n      iszero\n      tag_378\n      jumpi\n        /* \"#utility.yul\":19129:19147   */\n      tag_379\n      tag_151\n      jump\t// in\n    tag_379:\n        /* \"#utility.yul\":19093:19149   */\n    tag_378:\n        /* \"#utility.yul\":19173:19211   */\n      tag_380\n        /* \"#utility.yul\":19205:19209   */\n      dup3\n        /* \"#utility.yul\":19199:19210   */\n      sload\n        /* \"#utility.yul\":19173:19211   */\n      tag_80\n      jump\t// in\n    tag_380:\n        /* \"#utility.yul\":19258:19325   */\n      tag_381\n        /* \"#utility.yul\":19318:19324   */\n      dup3\n        /* \"#utility.yul\":19310:19316   */\n      dup3\n        /* \"#utility.yul\":19304:19308   */\n      dup6\n        /* \"#utility.yul\":19258:19325   */\n      tag_172\n      jump\t// in\n    tag_381:\n        /* \"#utility.yul\":19352:19353   */\n      0x00\n        /* \"#utility.yul\":19376:19380   */\n      0x20\n        /* \"#utility.yul\":19363:19380   */\n      swap1\n      pop\n        /* \"#utility.yul\":19408:19410   */\n      0x1f\n        /* \"#utility.yul\":19400:19406   */\n      dup4\n        /* \"#utility.yul\":19397:19411   */\n      gt\n        /* \"#utility.yul\":19425:19426   */\n      0x01\n        /* \"#utility.yul\":19420:20038   */\n      dup2\n      eq\n      tag_383\n      jumpi\n        /* \"#utility.yul\":20082:20083   */\n      0x00\n        /* \"#utility.yul\":20099:20105   */\n      dup5\n        /* \"#utility.yul\":20096:20173   */\n      iszero\n      tag_384\n      jumpi\n        /* \"#utility.yul\":20148:20157   */\n      dup3\n        /* \"#utility.yul\":20143:20146   */\n      dup8\n        /* \"#utility.yul\":20139:20158   */\n      add\n        /* \"#utility.yul\":20133:20159   */\n      mload\n        /* \"#utility.yul\":20124:20159   */\n      swap1\n      pop\n        /* \"#utility.yul\":20096:20173   */\n    tag_384:\n        /* \"#utility.yul\":20199:20266   */\n      tag_385\n        /* \"#utility.yul\":20259:20265   */\n      dup6\n        /* \"#utility.yul\":20252:20257   */\n      dup3\n        /* \"#utility.yul\":20199:20266   */\n      tag_175\n      jump\t// in\n    tag_385:\n        /* \"#utility.yul\":20193:20197   */\n      dup7\n        /* \"#utility.yul\":20186:20267   */\n      sstore\n        /* \"#utility.yul\":20055:20277   */\n      pop\n        /* \"#utility.yul\":19390:20277   */\n      jump(tag_382)\n        /* \"#utility.yul\":19420:20038   */\n    tag_383:\n        /* \"#utility.yul\":19472:19476   */\n      0x1f\n        /* \"#utility.yul\":19468:19477   */\n      not\n        /* \"#utility.yul\":19460:19466   */\n      dup5\n        /* \"#utility.yul\":19456:19478   */\n      and\n        /* \"#utility.yul\":19506:19543   */\n      tag_386\n        /* \"#utility.yul\":19538:19542   */\n      dup7\n        /* \"#utility.yul\":19506:19543   */\n      tag_162\n      jump\t// in\n    tag_386:\n        /* \"#utility.yul\":19565:19566   */\n      0x00\n        /* \"#utility.yul\":19579:19787   */\n    tag_387:\n        /* \"#utility.yul\":19593:19600   */\n      dup3\n        /* \"#utility.yul\":19590:19591   */\n      dup2\n        /* \"#utility.yul\":19587:19601   */\n      lt\n        /* \"#utility.yul\":19579:19787   */\n      iszero\n      tag_389\n      jumpi\n        /* \"#utility.yul\":19672:19681   */\n      dup5\n        /* \"#utility.yul\":19667:19670   */\n      dup10\n        /* \"#utility.yul\":19663:19682   */\n      add\n        /* \"#utility.yul\":19657:19683   */\n      mload\n        /* \"#utility.yul\":19649:19655   */\n      dup3\n        /* \"#utility.yul\":19642:19684   */\n      sstore\n        /* \"#utility.yul\":19723:19724   */\n      0x01\n        /* \"#utility.yul\":19715:19721   */\n      dup3\n        /* \"#utility.yul\":19711:19725   */\n      add\n        /* \"#utility.yul\":19701:19725   */\n      swap2\n      pop\n        /* \"#utility.yul\":19770:19772   */\n      0x20\n        /* \"#utility.yul\":19759:19768   */\n      dup6\n        /* \"#utility.yul\":19755:19773   */\n      add\n        /* \"#utility.yul\":19742:19773   */\n      swap5\n      pop\n        /* \"#utility.yul\":19616:19620   */\n      0x20\n        /* \"#utility.yul\":19613:19614   */\n      dup2\n        /* \"#utility.yul\":19609:19621   */\n      add\n        /* \"#utility.yul\":19604:19621   */\n      swap1\n      pop\n        /* \"#utility.yul\":19579:19787   */\n      jump(tag_387)\n    tag_389:\n        /* \"#utility.yul\":19815:19821   */\n      dup7\n        /* \"#utility.yul\":19806:19813   */\n      dup4\n        /* \"#utility.yul\":19803:19822   */\n      lt\n        /* \"#utility.yul\":19800:19979   */\n      iszero\n      tag_390\n      jumpi\n        /* \"#utility.yul\":19873:19882   */\n      dup5\n        /* \"#utility.yul\":19868:19871   */\n      dup10\n        /* \"#utility.yul\":19864:19883   */\n      add\n        /* \"#utility.yul\":19858:19884   */\n      mload\n        /* \"#utility.yul\":19916:19964   */\n      tag_391\n        /* \"#utility.yul\":19958:19962   */\n      0x1f\n        /* \"#utility.yul\":19950:19956   */\n      dup10\n        /* \"#utility.yul\":19946:19963   */\n      and\n        /* \"#utility.yul\":19935:19944   */\n      dup3\n        /* \"#utility.yul\":19916:19964   */\n      tag_174\n      jump\t// in\n    tag_391:\n        /* \"#utility.yul\":19908:19914   */\n      dup4\n        /* \"#utility.yul\":19901:19965   */\n      sstore\n        /* \"#utility.yul\":19823:19979   */\n      pop\n        /* \"#utility.yul\":19800:19979   */\n    tag_390:\n        /* \"#utility.yul\":20025:20026   */\n      0x01\n        /* \"#utility.yul\":20021:20022   */\n      0x02\n        /* \"#utility.yul\":20013:20019   */\n      dup9\n        /* \"#utility.yul\":20009:20023   */\n      mul\n        /* \"#utility.yul\":20005:20027   */\n      add\n        /* \"#utility.yul\":19999:20003   */\n      dup9\n        /* \"#utility.yul\":19992:20028   */\n      sstore\n        /* \"#utility.yul\":19427:20038   */\n      pop\n      pop\n      pop\n        /* \"#utility.yul\":19390:20277   */\n    tag_382:\n      pop\n        /* \"#utility.yul\":18980:20283   */\n      pop\n      pop\n      pop\n        /* \"#utility.yul\":18888:20283   */\n      pop\n      pop\n      jump\t// out\n\n    auxdata: 0xa264697066735822122080f7f40e18da4aa06879f784161439fa76a51afb2f10dd7c71ceb84293a11df564736f6c634300081a0033\n}\n\nsub_1: assembly {\n        /* \"contracts/DataPunk/DataPunkCoinInter.sol\":183:754  contract DataPunkCoinInter is ERC20{... */\n      mstore(0x40, 0x80)\n        /* \"contracts/DataPunk/DataPunkCoinInter.sol\":329:330  2 */\n      0x02\n        /* \"contracts/DataPunk/DataPunkCoinInter.sol\":303:330  uint8 private _decimals = 2 */\n      0x05\n      exp(0x0100, 0x00)\n      dup2\n      sload\n      dup2\n      0xff\n      mul\n      not\n      and\n      swap1\n      dup4\n      0xff\n      and\n      mul\n      or\n      swap1\n      sstore\n      pop\n        /* \"contracts/DataPunk/DataPunkCoinInter.sol\":445:602  constructor() ERC20(\"DataPunk Coin\", \"DPC\") {... */\n      callvalue\n      dup1\n      iszero\n      tag_1\n      jumpi\n      0x00\n      dup1\n      revert\n    tag_1:\n      pop\n        /* \"@openzeppelin/contracts/token/ERC20/ERC20.sol\":1896:2009  constructor(string memory name_, string memory symbol_) {... */\n      mload(0x40)\n      dup1\n      0x40\n      add\n      0x40\n      mstore\n      dup1\n      0x0d\n      dup2\n      mstore\n      0x20\n      add\n      0x4461746150756e6b20436f696e00000000000000000000000000000000000000\n      dup2\n      mstore\n      pop\n      mload(0x40)\n      dup1\n      0x40\n      add\n      0x40\n      mstore\n      dup1\n      0x03\n      dup2\n      mstore\n      0x20\n      add\n      0x4450430000000000000000000000000000000000000000000000000000000000\n      dup2\n      mstore\n      pop\n        /* \"@openzeppelin/contracts/token/ERC20/ERC20.sol\":1970:1975  name_ */\n      dup2\n        /* \"@openzeppelin/contracts/token/ERC20/ERC20.sol\":1962:1967  _name */\n      0x03\n        /* \"@openzeppelin/contracts/token/ERC20/ERC20.sol\":1962:1975  _name = name_ */\n      swap1\n      dup2\n      tag_5\n      swap2\n      swap1\n      tag_6\n      jump\t// in\n    tag_5:\n      pop\n        /* \"@openzeppelin/contracts/token/ERC20/ERC20.sol\":1995:2002  symbol_ */\n      dup1\n        /* \"@openzeppelin/contracts/token/ERC20/ERC20.sol\":1985:1992  _symbol */\n      0x04\n        /* \"@openzeppelin/contracts/token/ERC20/ERC20.sol\":1985:2002  _symbol = symbol_ */\n      swap1\n      dup2\n      tag_7\n      swap2\n      swap1\n      tag_6\n      jump\t// in\n    tag_7:\n      pop\n        /* \"@openzeppelin/contracts/token/ERC20/ERC20.sol\":1896:2009  constructor(string memory name_, string memory symbol_) {... */\n      pop\n      pop\n        /* \"contracts/DataPunk/DataPunkCoinInter.sol\":548:595  _mint(msg.sender, 100 * 10**uint256(_decimals)) */\n      tag_9\n        /* \"contracts/DataPunk/DataPunkCoinInter.sol\":554:564  msg.sender */\n      caller\n        /* \"contracts/DataPunk/DataPunkCoinInter.sol\":584:593  _decimals */\n      0x05\n      0x00\n      swap1\n      sload\n      swap1\n      0x0100\n      exp\n      swap1\n      div\n      0xff\n      and\n        /* \"contracts/DataPunk/DataPunkCoinInter.sol\":576:594  uint256(_decimals) */\n      0xff\n      and\n        /* \"contracts/DataPunk/DataPunkCoinInter.sol\":572:574  10 */\n      0x0a\n        /* \"contracts/DataPunk/DataPunkCoinInter.sol\":572:594  10**uint256(_decimals) */\n      tag_10\n      swap2\n      swap1\n      tag_11\n      jump\t// in\n    tag_10:\n        /* \"contracts/DataPunk/DataPunkCoinInter.sol\":566:569  100 */\n      0x64\n        /* \"contracts/DataPunk/DataPunkCoinInter.sol\":566:594  100 * 10**uint256(_decimals) */\n      tag_12\n      swap2\n      swap1\n      tag_13\n      jump\t// in\n    tag_12:\n        /* \"contracts/DataPunk/DataPunkCoinInter.sol\":548:553  _mint */\n      shl(0x20, tag_14)\n        /* \"contracts/DataPunk/DataPunkCoinInter.sol\":548:595  _mint(msg.sender, 100 * 10**uint256(_decimals)) */\n      0x20\n      shr\n      jump\t// in\n    tag_9:\n        /* \"contracts/DataPunk/DataPunkCoinInter.sol\":183:754  contract DataPunkCoinInter is ERC20{... */\n      jump(tag_15)\n        /* \"@openzeppelin/contracts/token/ERC20/ERC20.sol\":7721:7929  function _mint(address account, uint256 value) internal {... */\n    tag_14:\n        /* \"@openzeppelin/contracts/token/ERC20/ERC20.sol\":7810:7811  0 */\n      0x00\n        /* \"@openzeppelin/contracts/token/ERC20/ERC20.sol\":7791:7812  account == address(0) */\n      0xffffffffffffffffffffffffffffffffffffffff\n      and\n        /* \"@openzeppelin/contracts/token/ERC20/ERC20.sol\":7791:7798  account */\n      dup3\n        /* \"@openzeppelin/contracts/token/ERC20/ERC20.sol\":7791:7812  account == address(0) */\n      0xffffffffffffffffffffffffffffffffffffffff\n      and\n      sub\n        /* \"@openzeppelin/contracts/token/ERC20/ERC20.sol\":7787:7878  if (account == address(0)) {... */\n      tag_17\n      jumpi\n        /* \"@openzeppelin/contracts/token/ERC20/ERC20.sol\":7864:7865  0 */\n      0x00\n        /* \"@openzeppelin/contracts/token/ERC20/ERC20.sol\":7835:7867  ERC20InvalidReceiver(address(0)) */\n      mload(0x40)\n      0xec442f0500000000000000000000000000000000000000000000000000000000\n      dup2\n      mstore\n      0x04\n      add\n      tag_18\n      swap2\n      swap1\n      tag_19\n      jump\t// in\n    tag_18:\n      mload(0x40)\n      dup1\n      swap2\n      sub\n      swap1\n      revert\n        /* \"@openzeppelin/contracts/token/ERC20/ERC20.sol\":7787:7878  if (account == address(0)) {... */\n    tag_17:\n        /* \"@openzeppelin/contracts/token/ERC20/ERC20.sol\":7887:7922  _update(address(0), account, value) */\n      tag_20\n        /* \"@openzeppelin/contracts/token/ERC20/ERC20.sol\":7903:7904  0 */\n      0x00\n        /* \"@openzeppelin/contracts/token/ERC20/ERC20.sol\":7907:7914  account */\n      dup4\n        /* \"@openzeppelin/contracts/token/ERC20/ERC20.sol\":7916:7921  value */\n      dup4\n        /* \"@openzeppelin/contracts/token/ERC20/ERC20.sol\":7887:7894  _update */\n      shl(0x20, tag_21)\n        /* \"@openzeppelin/contracts/token/ERC20/ERC20.sol\":7887:7922  _update(address(0), account, value) */\n      0x20\n      shr\n      jump\t// in\n    tag_20:\n        /* \"@openzeppelin/contracts/token/ERC20/ERC20.sol\":7721:7929  function _mint(address account, uint256 value) internal {... */\n      pop\n      pop\n      jump\t// out\n        /* \"@openzeppelin/contracts/token/ERC20/ERC20.sol\":6271:7378  function _update(address from, address to, uint256 value) internal virtual {... */\n    tag_21:\n        /* \"@openzeppelin/contracts/token/ERC20/ERC20.sol\":6376:6377  0 */\n      0x00\n        /* \"@openzeppelin/contracts/token/ERC20/ERC20.sol\":6360:6378  from == address(0) */\n      0xffffffffffffffffffffffffffffffffffffffff\n      and\n        /* \"@openzeppelin/contracts/token/ERC20/ERC20.sol\":6360:6364  from */\n      dup4\n        /* \"@openzeppelin/contracts/token/ERC20/ERC20.sol\":6360:6378  from == address(0) */\n      0xffffffffffffffffffffffffffffffffffffffff\n      and\n      sub\n        /* \"@openzeppelin/contracts/token/ERC20/ERC20.sol\":6356:6896  if (from == address(0)) {... */\n      tag_23\n      jumpi\n        /* \"@openzeppelin/contracts/token/ERC20/ERC20.sol\":6512:6517  value */\n      dup1\n        /* \"@openzeppelin/contracts/token/ERC20/ERC20.sol\":6496:6508  _totalSupply */\n      0x02\n      0x00\n        /* \"@openzeppelin/contracts/token/ERC20/ERC20.sol\":6496:6517  _totalSupply += value */\n      dup3\n      dup3\n      sload\n      tag_24\n      swap2\n      swap1\n      tag_25\n      jump\t// in\n    tag_24:\n      swap3\n      pop\n      pop\n      dup2\n      swap1\n      sstore\n      pop\n        /* \"@openzeppelin/contracts/token/ERC20/ERC20.sol\":6356:6896  if (from == address(0)) {... */\n      jump(tag_26)\n    tag_23:\n        /* \"@openzeppelin/contracts/token/ERC20/ERC20.sol\":6548:6567  uint256 fromBalance */\n      0x00\n        /* \"@openzeppelin/contracts/token/ERC20/ERC20.sol\":6570:6579  _balances */\n      dup1\n        /* \"@openzeppelin/contracts/token/ERC20/ERC20.sol\":6570:6585  _balances[from] */\n      0x00\n        /* \"@openzeppelin/contracts/token/ERC20/ERC20.sol\":6580:6584  from */\n      dup6\n        /* \"@openzeppelin/contracts/token/ERC20/ERC20.sol\":6570:6585  _balances[from] */\n      0xffffffffffffffffffffffffffffffffffffffff\n      and\n      0xffffffffffffffffffffffffffffffffffffffff\n      and\n      dup2\n      mstore\n      0x20\n      add\n      swap1\n      dup2\n      mstore\n      0x20\n      add\n      0x00\n      keccak256\n      sload\n        /* \"@openzeppelin/contracts/token/ERC20/ERC20.sol\":6548:6585  uint256 fromBalance = _balances[from] */\n      swap1\n      pop\n        /* \"@openzeppelin/contracts/token/ERC20/ERC20.sol\":6617:6622  value */\n      dup2\n        /* \"@openzeppelin/contracts/token/ERC20/ERC20.sol\":6603:6614  fromBalance */\n      dup2\n        /* \"@openzeppelin/contracts/token/ERC20/ERC20.sol\":6603:6622  fromBalance < value */\n      lt\n        /* \"@openzeppelin/contracts/token/ERC20/ERC20.sol\":6599:6714  if (fromBalance < value) {... */\n      iszero\n      tag_27\n      jumpi\n        /* \"@openzeppelin/contracts/token/ERC20/ERC20.sol\":6674:6678  from */\n      dup4\n        /* \"@openzeppelin/contracts/token/ERC20/ERC20.sol\":6680:6691  fromBalance */\n      dup2\n        /* \"@openzeppelin/contracts/token/ERC20/ERC20.sol\":6693:6698  value */\n      dup4\n        /* \"@openzeppelin/contracts/token/ERC20/ERC20.sol\":6649:6699  ERC20InsufficientBalance(from, fromBalance, value) */\n      mload(0x40)\n      0xe450d38c00000000000000000000000000000000000000000000000000000000\n      dup2\n      mstore\n      0x04\n      add\n      tag_28\n      swap4\n      swap3\n      swap2\n      swap1\n      tag_29\n      jump\t// in\n    tag_28:\n      mload(0x40)\n      dup1\n      swap2\n      sub\n      swap1\n      revert\n        /* \"@openzeppelin/contracts/token/ERC20/ERC20.sol\":6599:6714  if (fromBalance < value) {... */\n    tag_27:\n        /* \"@openzeppelin/contracts/token/ERC20/ERC20.sol\":6866:6871  value */\n      dup2\n        /* \"@openzeppelin/contracts/token/ERC20/ERC20.sol\":6852:6863  fromBalance */\n      dup2\n        /* \"@openzeppelin/contracts/token/ERC20/ERC20.sol\":6852:6871  fromBalance - value */\n      sub\n        /* \"@openzeppelin/contracts/token/ERC20/ERC20.sol\":6834:6843  _balances */\n      0x00\n        /* \"@openzeppelin/contracts/token/ERC20/ERC20.sol\":6834:6849  _balances[from] */\n      dup1\n        /* \"@openzeppelin/contracts/token/ERC20/ERC20.sol\":6844:6848  from */\n      dup7\n        /* \"@openzeppelin/contracts/token/ERC20/ERC20.sol\":6834:6849  _balances[from] */\n      0xffffffffffffffffffffffffffffffffffffffff\n      and\n      0xffffffffffffffffffffffffffffffffffffffff\n      and\n      dup2\n      mstore\n      0x20\n      add\n      swap1\n      dup2\n      mstore\n      0x20\n      add\n      0x00\n      keccak256\n        /* \"@openzeppelin/contracts/token/ERC20/ERC20.sol\":6834:6871  _balances[from] = fromBalance - value */\n      dup2\n      swap1\n      sstore\n      pop\n        /* \"@openzeppelin/contracts/token/ERC20/ERC20.sol\":6534:6896  {... */\n      pop\n        /* \"@openzeppelin/contracts/token/ERC20/ERC20.sol\":6356:6896  if (from == address(0)) {... */\n    tag_26:\n        /* \"@openzeppelin/contracts/token/ERC20/ERC20.sol\":6924:6925  0 */\n      0x00\n        /* \"@openzeppelin/contracts/token/ERC20/ERC20.sol\":6910:6926  to == address(0) */\n      0xffffffffffffffffffffffffffffffffffffffff\n      and\n        /* \"@openzeppelin/contracts/token/ERC20/ERC20.sol\":6910:6912  to */\n      dup3\n        /* \"@openzeppelin/contracts/token/ERC20/ERC20.sol\":6910:6926  to == address(0) */\n      0xffffffffffffffffffffffffffffffffffffffff\n      and\n      sub\n        /* \"@openzeppelin/contracts/token/ERC20/ERC20.sol\":6906:7331  if (to == address(0)) {... */\n      tag_30\n      jumpi\n        /* \"@openzeppelin/contracts/token/ERC20/ERC20.sol\":7089:7094  value */\n      dup1\n        /* \"@openzeppelin/contracts/token/ERC20/ERC20.sol\":7073:7085  _totalSupply */\n      0x02\n      0x00\n        /* \"@openzeppelin/contracts/token/ERC20/ERC20.sol\":7073:7094  _totalSupply -= value */\n      dup3\n      dup3\n      sload\n      sub\n      swap3\n      pop\n      pop\n      dup2\n      swap1\n      sstore\n      pop\n        /* \"@openzeppelin/contracts/token/ERC20/ERC20.sol\":6906:7331  if (to == address(0)) {... */\n      jump(tag_31)\n    tag_30:\n        /* \"@openzeppelin/contracts/token/ERC20/ERC20.sol\":7301:7306  value */\n      dup1\n        /* \"@openzeppelin/contracts/token/ERC20/ERC20.sol\":7284:7293  _balances */\n      0x00\n        /* \"@openzeppelin/contracts/token/ERC20/ERC20.sol\":7284:7297  _balances[to] */\n      dup1\n        /* \"@openzeppelin/contracts/token/ERC20/ERC20.sol\":7294:7296  to */\n      dup5\n        /* \"@openzeppelin/contracts/token/ERC20/ERC20.sol\":7284:7297  _balances[to] */\n      0xffffffffffffffffffffffffffffffffffffffff\n      and\n      0xffffffffffffffffffffffffffffffffffffffff\n      and\n      dup2\n      mstore\n      0x20\n      add\n      swap1\n      dup2\n      mstore\n      0x20\n      add\n      0x00\n      keccak256\n      0x00\n        /* \"@openzeppelin/contracts/token/ERC20/ERC20.sol\":7284:7306  _balances[to] += value */\n      dup3\n      dup3\n      sload\n      add\n      swap3\n      pop\n      pop\n      dup2\n      swap1\n      sstore\n      pop\n        /* \"@openzeppelin/contracts/token/ERC20/ERC20.sol\":6906:7331  if (to == address(0)) {... */\n    tag_31:\n        /* \"@openzeppelin/contracts/token/ERC20/ERC20.sol\":7361:7363  to */\n      dup2\n        /* \"@openzeppelin/contracts/token/ERC20/ERC20.sol\":7346:7371  Transfer(from, to, value) */\n      0xffffffffffffffffffffffffffffffffffffffff\n      and\n        /* \"@openzeppelin/contracts/token/ERC20/ERC20.sol\":7355:7359  from */\n      dup4\n        /* \"@openzeppelin/contracts/token/ERC20/ERC20.sol\":7346:7371  Transfer(from, to, value) */\n      0xffffffffffffffffffffffffffffffffffffffff\n      and\n      0xddf252ad1be2c89b69c2b068fc378daa952ba7f163c4a11628f55a4df523b3ef\n        /* \"@openzeppelin/contracts/token/ERC20/ERC20.sol\":7365:7370  value */\n      dup4\n        /* \"@openzeppelin/contracts/token/ERC20/ERC20.sol\":7346:7371  Transfer(from, to, value) */\n      mload(0x40)\n      tag_32\n      swap2\n      swap1\n      tag_33\n      jump\t// in\n    tag_32:\n      mload(0x40)\n      dup1\n      swap2\n      sub\n      swap1\n      log3\n        /* \"@openzeppelin/contracts/token/ERC20/ERC20.sol\":6271:7378  function _update(address from, address to, uint256 value) internal virtual {... */\n      pop\n      pop\n      pop\n      jump\t// out\n        /* \"#utility.yul\":7:106   */\n    tag_34:\n        /* \"#utility.yul\":59:65   */\n      0x00\n        /* \"#utility.yul\":93:98   */\n      dup2\n        /* \"#utility.yul\":87:99   */\n      mload\n        /* \"#utility.yul\":77:99   */\n      swap1\n      pop\n        /* \"#utility.yul\":7:106   */\n      swap2\n      swap1\n      pop\n      jump\t// out\n        /* \"#utility.yul\":112:292   */\n    tag_35:\n        /* \"#utility.yul\":160:237   */\n      0x4e487b7100000000000000000000000000000000000000000000000000000000\n        /* \"#utility.yul\":157:158   */\n      0x00\n        /* \"#utility.yul\":150:238   */\n      mstore\n        /* \"#utility.yul\":257:261   */\n      0x41\n        /* \"#utility.yul\":254:255   */\n      0x04\n        /* \"#utility.yul\":247:262   */\n      mstore\n        /* \"#utility.yul\":281:285   */\n      0x24\n        /* \"#utility.yul\":278:279   */\n      0x00\n        /* \"#utility.yul\":271:286   */\n      revert\n        /* \"#utility.yul\":298:478   */\n    tag_36:\n        /* \"#utility.yul\":346:423   */\n      0x4e487b7100000000000000000000000000000000000000000000000000000000\n        /* \"#utility.yul\":343:344   */\n      0x00\n        /* \"#utility.yul\":336:424   */\n      mstore\n        /* \"#utility.yul\":443:447   */\n      0x22\n        /* \"#utility.yul\":440:441   */\n      0x04\n        /* \"#utility.yul\":433:448   */\n      mstore\n        /* \"#utility.yul\":467:471   */\n      0x24\n        /* \"#utility.yul\":464:465   */\n      0x00\n        /* \"#utility.yul\":457:472   */\n      revert\n        /* \"#utility.yul\":484:804   */\n    tag_37:\n        /* \"#utility.yul\":528:534   */\n      0x00\n        /* \"#utility.yul\":565:566   */\n      0x02\n        /* \"#utility.yul\":559:563   */\n      dup3\n        /* \"#utility.yul\":555:567   */\n      div\n        /* \"#utility.yul\":545:567   */\n      swap1\n      pop\n        /* \"#utility.yul\":612:613   */\n      0x01\n        /* \"#utility.yul\":606:610   */\n      dup3\n        /* \"#utility.yul\":602:614   */\n      and\n        /* \"#utility.yul\":633:651   */\n      dup1\n        /* \"#utility.yul\":623:704   */\n      tag_67\n      jumpi\n        /* \"#utility.yul\":689:693   */\n      0x7f\n        /* \"#utility.yul\":681:687   */\n      dup3\n        /* \"#utility.yul\":677:694   */\n      and\n        /* \"#utility.yul\":667:694   */\n      swap2\n      pop\n        /* \"#utility.yul\":623:704   */\n    tag_67:\n        /* \"#utility.yul\":751:753   */\n      0x20\n        /* \"#utility.yul\":743:749   */\n      dup3\n        /* \"#utility.yul\":740:754   */\n      lt\n        /* \"#utility.yul\":720:738   */\n      dup2\n        /* \"#utility.yul\":717:755   */\n      sub\n        /* \"#utility.yul\":714:798   */\n      tag_68\n      jumpi\n        /* \"#utility.yul\":770:788   */\n      tag_69\n      tag_36\n      jump\t// in\n    tag_69:\n        /* \"#utility.yul\":714:798   */\n    tag_68:\n        /* \"#utility.yul\":535:804   */\n      pop\n        /* \"#utility.yul\":484:804   */\n      swap2\n      swap1\n      pop\n      jump\t// out\n        /* \"#utility.yul\":810:951   */\n    tag_38:\n        /* \"#utility.yul\":859:863   */\n      0x00\n        /* \"#utility.yul\":882:885   */\n      dup2\n        /* \"#utility.yul\":874:885   */\n      swap1\n      pop\n        /* \"#utility.yul\":905:908   */\n      dup2\n        /* \"#utility.yul\":902:903   */\n      0x00\n        /* \"#utility.yul\":895:909   */\n      mstore\n        /* \"#utility.yul\":939:943   */\n      0x20\n        /* \"#utility.yul\":936:937   */\n      0x00\n        /* \"#utility.yul\":926:944   */\n      keccak256\n        /* \"#utility.yul\":918:944   */\n      swap1\n      pop\n        /* \"#utility.yul\":810:951   */\n      swap2\n      swap1\n      pop\n      jump\t// out\n        /* \"#utility.yul\":957:1050   */\n    tag_39:\n        /* \"#utility.yul\":994:1000   */\n      0x00\n        /* \"#utility.yul\":1041:1043   */\n      0x20\n        /* \"#utility.yul\":1036:1038   */\n      0x1f\n        /* \"#utility.yul\":1029:1034   */\n      dup4\n        /* \"#utility.yul\":1025:1039   */\n      add\n        /* \"#utility.yul\":1021:1044   */\n      div\n        /* \"#utility.yul\":1011:1044   */\n      swap1\n      pop\n        /* \"#utility.yul\":957:1050   */\n      swap2\n      swap1\n      pop\n      jump\t// out\n        /* \"#utility.yul\":1056:1163   */\n    tag_40:\n        /* \"#utility.yul\":1100:1108   */\n      0x00\n        /* \"#utility.yul\":1150:1155   */\n      dup3\n        /* \"#utility.yul\":1144:1148   */\n      dup3\n        /* \"#utility.yul\":1140:1156   */\n      shl\n        /* \"#utility.yul\":1119:1156   */\n      swap1\n      pop\n        /* \"#utility.yul\":1056:1163   */\n      swap3\n      swap2\n      pop\n      pop\n      jump\t// out\n        /* \"#utility.yul\":1169:1562   */\n    tag_41:\n        /* \"#utility.yul\":1238:1244   */\n      0x00\n        /* \"#utility.yul\":1288:1289   */\n      0x08\n        /* \"#utility.yul\":1276:1286   */\n      dup4\n        /* \"#utility.yul\":1272:1290   */\n      mul\n        /* \"#utility.yul\":1311:1408   */\n      tag_74\n        /* \"#utility.yul\":1341:1407   */\n      0xffffffffffffffffffffffffffffffffffffffffffffffffffffffffffffffff\n        /* \"#utility.yul\":1330:1339   */\n      dup3\n        /* \"#utility.yul\":1311:1408   */\n      tag_40\n      jump\t// in\n    tag_74:\n        /* \"#utility.yul\":1429:1468   */\n      tag_75\n        /* \"#utility.yul\":1459:1467   */\n      dup7\n        /* \"#utility.yul\":1448:1457   */\n      dup4\n        /* \"#utility.yul\":1429:1468   */\n      tag_40\n      jump\t// in\n    tag_75:\n        /* \"#utility.yul\":1417:1468   */\n      swap6\n      pop\n        /* \"#utility.yul\":1501:1505   */\n      dup1\n        /* \"#utility.yul\":1497:1506   */\n      not\n        /* \"#utility.yul\":1490:1495   */\n      dup5\n        /* \"#utility.yul\":1486:1507   */\n      and\n        /* \"#utility.yul\":1477:1507   */\n      swap4\n      pop\n        /* \"#utility.yul\":1550:1554   */\n      dup1\n        /* \"#utility.yul\":1540:1548   */\n      dup7\n        /* \"#utility.yul\":1536:1555   */\n      and\n        /* \"#utility.yul\":1529:1534   */\n      dup5\n        /* \"#utility.yul\":1526:1556   */\n      or\n        /* \"#utility.yul\":1516:1556   */\n      swap3\n      pop\n        /* \"#utility.yul\":1245:1562   */\n      pop\n      pop\n        /* \"#utility.yul\":1169:1562   */\n      swap4\n      swap3\n      pop\n      pop\n      pop\n      jump\t// out\n        /* \"#utility.yul\":1568:1645   */\n    tag_42:\n        /* \"#utility.yul\":1605:1612   */\n      0x00\n        /* \"#utility.yul\":1634:1639   */\n      dup2\n        /* \"#utility.yul\":1623:1639   */\n      swap1\n      pop\n        /* \"#utility.yul\":1568:1645   */\n      swap2\n      swap1\n      pop\n      jump\t// out\n        /* \"#utility.yul\":1651:1711   */\n    tag_43:\n        /* \"#utility.yul\":1679:1682   */\n      0x00\n        /* \"#utility.yul\":1700:1705   */\n      dup2\n        /* \"#utility.yul\":1693:1705   */\n      swap1\n      pop\n        /* \"#utility.yul\":1651:1711   */\n      swap2\n      swap1\n      pop\n      jump\t// out\n        /* \"#utility.yul\":1717:1859   */\n    tag_44:\n        /* \"#utility.yul\":1767:1776   */\n      0x00\n        /* \"#utility.yul\":1800:1853   */\n      tag_79\n        /* \"#utility.yul\":1818:1852   */\n      tag_80\n        /* \"#utility.yul\":1827:1851   */\n      tag_81\n        /* \"#utility.yul\":1845:1850   */\n      dup5\n        /* \"#utility.yul\":1827:1851   */\n      tag_42\n      jump\t// in\n    tag_81:\n        /* \"#utility.yul\":1818:1852   */\n      tag_43\n      jump\t// in\n    tag_80:\n        /* \"#utility.yul\":1800:1853   */\n      tag_42\n      jump\t// in\n    tag_79:\n        /* \"#utility.yul\":1787:1853   */\n      swap1\n      pop\n        /* \"#utility.yul\":1717:1859   */\n      swap2\n      swap1\n      pop\n      jump\t// out\n        /* \"#utility.yul\":1865:1940   */\n    tag_45:\n        /* \"#utility.yul\":1908:1911   */\n      0x00\n        /* \"#utility.yul\":1929:1934   */\n      dup2\n        /* \"#utility.yul\":1922:1934   */\n      swap1\n      pop\n        /* \"#utility.yul\":1865:1940   */\n      swap2\n      swap1\n      pop\n      jump\t// out\n        /* \"#utility.yul\":1946:2215   */\n    tag_46:\n        /* \"#utility.yul\":2056:2095   */\n      tag_84\n        /* \"#utility.yul\":2087:2094   */\n      dup4\n        /* \"#utility.yul\":2056:2095   */\n      tag_44\n      jump\t// in\n    tag_84:\n        /* \"#utility.yul\":2117:2208   */\n      tag_85\n        /* \"#utility.yul\":2166:2207   */\n      tag_86\n        /* \"#utility.yul\":2190:2206   */\n      dup3\n        /* \"#utility.yul\":2166:2207   */\n      tag_45\n      jump\t// in\n    tag_86:\n        /* \"#utility.yul\":2158:2164   */\n      dup5\n        /* \"#utility.yul\":2151:2155   */\n      dup5\n        /* \"#utility.yul\":2145:2156   */\n      sload\n        /* \"#utility.yul\":2117:2208   */\n      tag_41\n      jump\t// in\n    tag_85:\n        /* \"#utility.yul\":2111:2115   */\n      dup3\n        /* \"#utility.yul\":2104:2209   */\n      sstore\n        /* \"#utility.yul\":2022:2215   */\n      pop\n        /* \"#utility.yul\":1946:2215   */\n      pop\n      pop\n      pop\n      jump\t// out\n        /* \"#utility.yul\":2221:2294   */\n    tag_47:\n        /* \"#utility.yul\":2266:2269   */\n      0x00\n        /* \"#utility.yul\":2221:2294   */\n      swap1\n      jump\t// out\n        /* \"#utility.yul\":2300:2489   */\n    tag_48:\n        /* \"#utility.yul\":2377:2409   */\n      tag_89\n      tag_47\n      jump\t// in\n    tag_89:\n        /* \"#utility.yul\":2418:2483   */\n      tag_90\n        /* \"#utility.yul\":2476:2482   */\n      dup2\n        /* \"#utility.yul\":2468:2474   */\n      dup5\n        /* \"#utility.yul\":2462:2466   */\n      dup5\n        /* \"#utility.yul\":2418:2483   */\n      tag_46\n      jump\t// in\n    tag_90:\n        /* \"#utility.yul\":2353:2489   */\n      pop\n        /* \"#utility.yul\":2300:2489   */\n      pop\n      pop\n      jump\t// out\n        /* \"#utility.yul\":2495:2681   */\n    tag_49:\n        /* \"#utility.yul\":2555:2675   */\n    tag_92:\n        /* \"#utility.yul\":2572:2575   */\n      dup2\n        /* \"#utility.yul\":2565:2570   */\n      dup2\n        /* \"#utility.yul\":2562:2576   */\n      lt\n        /* \"#utility.yul\":2555:2675   */\n      iszero\n      tag_94\n      jumpi\n        /* \"#utility.yul\":2626:2665   */\n      tag_95\n        /* \"#utility.yul\":2663:2664   */\n      0x00\n        /* \"#utility.yul\":2656:2661   */\n      dup3\n        /* \"#utility.yul\":2626:2665   */\n      tag_48\n      jump\t// in\n    tag_95:\n        /* \"#utility.yul\":2599:2600   */\n      0x01\n        /* \"#utility.yul\":2592:2597   */\n      dup2\n        /* \"#utility.yul\":2588:2601   */\n      add\n        /* \"#utility.yul\":2579:2601   */\n      swap1\n      pop\n        /* \"#utility.yul\":2555:2675   */\n      jump(tag_92)\n    tag_94:\n        /* \"#utility.yul\":2495:2681   */\n      pop\n      pop\n      jump\t// out\n        /* \"#utility.yul\":2687:3230   */\n    tag_50:\n        /* \"#utility.yul\":2788:2790   */\n      0x1f\n        /* \"#utility.yul\":2783:2786   */\n      dup3\n        /* \"#utility.yul\":2780:2791   */\n      gt\n        /* \"#utility.yul\":2777:3223   */\n      iszero\n      tag_97\n      jumpi\n        /* \"#utility.yul\":2822:2860   */\n      tag_98\n        /* \"#utility.yul\":2854:2859   */\n      dup2\n        /* \"#utility.yul\":2822:2860   */\n      tag_38\n      jump\t// in\n    tag_98:\n        /* \"#utility.yul\":2906:2935   */\n      tag_99\n        /* \"#utility.yul\":2924:2934   */\n      dup5\n        /* \"#utility.yul\":2906:2935   */\n      tag_39\n      jump\t// in\n    tag_99:\n        /* \"#utility.yul\":2896:2904   */\n      dup2\n        /* \"#utility.yul\":2892:2936   */\n      add\n        /* \"#utility.yul\":3089:3091   */\n      0x20\n        /* \"#utility.yul\":3077:3087   */\n      dup6\n        /* \"#utility.yul\":3074:3092   */\n      lt\n        /* \"#utility.yul\":3071:3120   */\n      iszero\n      tag_100\n      jumpi\n        /* \"#utility.yul\":3110:3118   */\n      dup2\n        /* \"#utility.yul\":3095:3118   */\n      swap1\n      pop\n        /* \"#utility.yul\":3071:3120   */\n    tag_100:\n        /* \"#utility.yul\":3133:3213   */\n      tag_101\n        /* \"#utility.yul\":3189:3211   */\n      tag_102\n        /* \"#utility.yul\":3207:3210   */\n      dup6\n        /* \"#utility.yul\":3189:3211   */\n      tag_39\n      jump\t// in\n    tag_102:\n        /* \"#utility.yul\":3179:3187   */\n      dup4\n        /* \"#utility.yul\":3175:3212   */\n      add\n        /* \"#utility.yul\":3162:3173   */\n      dup3\n        /* \"#utility.yul\":3133:3213   */\n      tag_49\n      jump\t// in\n    tag_101:\n        /* \"#utility.yul\":2792:3223   */\n      pop\n      pop\n        /* \"#utility.yul\":2777:3223   */\n    tag_97:\n        /* \"#utility.yul\":2687:3230   */\n      pop\n      pop\n      pop\n      jump\t// out\n        /* \"#utility.yul\":3236:3353   */\n    tag_51:\n        /* \"#utility.yul\":3290:3298   */\n      0x00\n        /* \"#utility.yul\":3340:3345   */\n      dup3\n        /* \"#utility.yul\":3334:3338   */\n      dup3\n        /* \"#utility.yul\":3330:3346   */\n      shr\n        /* \"#utility.yul\":3309:3346   */\n      swap1\n      pop\n        /* \"#utility.yul\":3236:3353   */\n      swap3\n      swap2\n      pop\n      pop\n      jump\t// out\n        /* \"#utility.yul\":3359:3528   */\n    tag_52:\n        /* \"#utility.yul\":3403:3409   */\n      0x00\n        /* \"#utility.yul\":3436:3487   */\n      tag_105\n        /* \"#utility.yul\":3484:3485   */\n      0x00\n        /* \"#utility.yul\":3480:3486   */\n      not\n        /* \"#utility.yul\":3472:3477   */\n      dup5\n        /* \"#utility.yul\":3469:3470   */\n      0x08\n        /* \"#utility.yul\":3465:3478   */\n      mul\n        /* \"#utility.yul\":3436:3487   */\n      tag_51\n      jump\t// in\n    tag_105:\n        /* \"#utility.yul\":3432:3488   */\n      not\n        /* \"#utility.yul\":3517:3521   */\n      dup1\n        /* \"#utility.yul\":3511:3515   */\n      dup4\n        /* \"#utility.yul\":3507:3522   */\n      and\n        /* \"#utility.yul\":3497:3522   */\n      swap2\n      pop\n        /* \"#utility.yul\":3410:3528   */\n      pop\n        /* \"#utility.yul\":3359:3528   */\n      swap3\n      swap2\n      pop\n      pop\n      jump\t// out\n        /* \"#utility.yul\":3533:3828   */\n    tag_53:\n        /* \"#utility.yul\":3609:3613   */\n      0x00\n        /* \"#utility.yul\":3755:3784   */\n      tag_107\n        /* \"#utility.yul\":3780:3783   */\n      dup4\n        /* \"#utility.yul\":3774:3778   */\n      dup4\n        /* \"#utility.yul\":3755:3784   */\n      tag_52\n      jump\t// in\n    tag_107:\n        /* \"#utility.yul\":3747:3784   */\n      swap2\n      pop\n        /* \"#utility.yul\":3817:3820   */\n      dup3\n        /* \"#utility.yul\":3814:3815   */\n      0x02\n        /* \"#utility.yul\":3810:3821   */\n      mul\n        /* \"#utility.yul\":3804:3808   */\n      dup3\n        /* \"#utility.yul\":3801:3822   */\n      or\n        /* \"#utility.yul\":3793:3822   */\n      swap1\n      pop\n        /* \"#utility.yul\":3533:3828   */\n      swap3\n      swap2\n      pop\n      pop\n      jump\t// out\n        /* \"#utility.yul\":3833:5228   */\n    tag_6:\n        /* \"#utility.yul\":3950:3987   */\n      tag_109\n        /* \"#utility.yul\":3983:3986   */\n      dup3\n        /* \"#utility.yul\":3950:3987   */\n      tag_34\n      jump\t// in\n    tag_109:\n        /* \"#utility.yul\":4052:4070   */\n      0xffffffffffffffff\n        /* \"#utility.yul\":4044:4050   */\n      dup2\n        /* \"#utility.yul\":4041:4071   */\n      gt\n        /* \"#utility.yul\":4038:4094   */\n      iszero\n      tag_110\n      jumpi\n        /* \"#utility.yul\":4074:4092   */\n      tag_111\n      tag_35\n      jump\t// in\n    tag_111:\n        /* \"#utility.yul\":4038:4094   */\n    tag_110:\n        /* \"#utility.yul\":4118:4156   */\n      tag_112\n        /* \"#utility.yul\":4150:4154   */\n      dup3\n        /* \"#utility.yul\":4144:4155   */\n      sload\n        /* \"#utility.yul\":4118:4156   */\n      tag_37\n      jump\t// in\n    tag_112:\n        /* \"#utility.yul\":4203:4270   */\n      tag_113\n        /* \"#utility.yul\":4263:4269   */\n      dup3\n        /* \"#utility.yul\":4255:4261   */\n      dup3\n        /* \"#utility.yul\":4249:4253   */\n      dup6\n        /* \"#utility.yul\":4203:4270   */\n      tag_50\n      jump\t// in\n    tag_113:\n        /* \"#utility.yul\":4297:4298   */\n      0x00\n        /* \"#utility.yul\":4321:4325   */\n      0x20\n        /* \"#utility.yul\":4308:4325   */\n      swap1\n      pop\n        /* \"#utility.yul\":4353:4355   */\n      0x1f\n        /* \"#utility.yul\":4345:4351   */\n      dup4\n        /* \"#utility.yul\":4342:4356   */\n      gt\n        /* \"#utility.yul\":4370:4371   */\n      0x01\n        /* \"#utility.yul\":4365:4983   */\n      dup2\n      eq\n      tag_115\n      jumpi\n        /* \"#utility.yul\":5027:5028   */\n      0x00\n        /* \"#utility.yul\":5044:5050   */\n      dup5\n        /* \"#utility.yul\":5041:5118   */\n      iszero\n      tag_116\n      jumpi\n        /* \"#utility.yul\":5093:5102   */\n      dup3\n        /* \"#utility.yul\":5088:5091   */\n      dup8\n        /* \"#utility.yul\":5084:5103   */\n      add\n        /* \"#utility.yul\":5078:5104   */\n      mload\n        /* \"#utility.yul\":5069:5104   */\n      swap1\n      pop\n        /* \"#utility.yul\":5041:5118   */\n    tag_116:\n        /* \"#utility.yul\":5144:5211   */\n      tag_117\n        /* \"#utility.yul\":5204:5210   */\n      dup6\n        /* \"#utility.yul\":5197:5202   */\n      dup3\n        /* \"#utility.yul\":5144:5211   */\n      tag_53\n      jump\t// in\n    tag_117:\n        /* \"#utility.yul\":5138:5142   */\n      dup7\n        /* \"#utility.yul\":5131:5212   */\n      sstore\n        /* \"#utility.yul\":5000:5222   */\n      pop\n        /* \"#utility.yul\":4335:5222   */\n      jump(tag_114)\n        /* \"#utility.yul\":4365:4983   */\n    tag_115:\n        /* \"#utility.yul\":4417:4421   */\n      0x1f\n        /* \"#utility.yul\":4413:4422   */\n      not\n        /* \"#utility.yul\":4405:4411   */\n      dup5\n        /* \"#utility.yul\":4401:4423   */\n      and\n        /* \"#utility.yul\":4451:4488   */\n      tag_118\n        /* \"#utility.yul\":4483:4487   */\n      dup7\n        /* \"#utility.yul\":4451:4488   */\n      tag_38\n      jump\t// in\n    tag_118:\n        /* \"#utility.yul\":4510:4511   */\n      0x00\n        /* \"#utility.yul\":4524:4732   */\n    tag_119:\n        /* \"#utility.yul\":4538:4545   */\n      dup3\n        /* \"#utility.yul\":4535:4536   */\n      dup2\n        /* \"#utility.yul\":4532:4546   */\n      lt\n        /* \"#utility.yul\":4524:4732   */\n      iszero\n      tag_121\n      jumpi\n        /* \"#utility.yul\":4617:4626   */\n      dup5\n        /* \"#utility.yul\":4612:4615   */\n      dup10\n        /* \"#utility.yul\":4608:4627   */\n      add\n        /* \"#utility.yul\":4602:4628   */\n      mload\n        /* \"#utility.yul\":4594:4600   */\n      dup3\n        /* \"#utility.yul\":4587:4629   */\n      sstore\n        /* \"#utility.yul\":4668:4669   */\n      0x01\n        /* \"#utility.yul\":4660:4666   */\n      dup3\n        /* \"#utility.yul\":4656:4670   */\n      add\n        /* \"#utility.yul\":4646:4670   */\n      swap2\n      pop\n        /* \"#utility.yul\":4715:4717   */\n      0x20\n        /* \"#utility.yul\":4704:4713   */\n      dup6\n        /* \"#utility.yul\":4700:4718   */\n      add\n        /* \"#utility.yul\":4687:4718   */\n      swap5\n      pop\n        /* \"#utility.yul\":4561:4565   */\n      0x20\n        /* \"#utility.yul\":4558:4559   */\n      dup2\n        /* \"#utility.yul\":4554:4566   */\n      add\n        /* \"#utility.yul\":4549:4566   */\n      swap1\n      pop\n        /* \"#utility.yul\":4524:4732   */\n      jump(tag_119)\n    tag_121:\n        /* \"#utility.yul\":4760:4766   */\n      dup7\n        /* \"#utility.yul\":4751:4758   */\n      dup4\n        /* \"#utility.yul\":4748:4767   */\n      lt\n        /* \"#utility.yul\":4745:4924   */\n      iszero\n      tag_122\n      jumpi\n        /* \"#utility.yul\":4818:4827   */\n      dup5\n        /* \"#utility.yul\":4813:4816   */\n      dup10\n        /* \"#utility.yul\":4809:4828   */\n      add\n        /* \"#utility.yul\":4803:4829   */\n      mload\n        /* \"#utility.yul\":4861:4909   */\n      tag_123\n        /* \"#utility.yul\":4903:4907   */\n      0x1f\n        /* \"#utility.yul\":4895:4901   */\n      dup10\n        /* \"#utility.yul\":4891:4908   */\n      and\n        /* \"#utility.yul\":4880:4889   */\n      dup3\n        /* \"#utility.yul\":4861:4909   */\n      tag_52\n      jump\t// in\n    tag_123:\n        /* \"#utility.yul\":4853:4859   */\n      dup4\n        /* \"#utility.yul\":4846:4910   */\n      sstore\n        /* \"#utility.yul\":4768:4924   */\n      pop\n        /* \"#utility.yul\":4745:4924   */\n    tag_122:\n        /* \"#utility.yul\":4970:4971   */\n      0x01\n        /* \"#utility.yul\":4966:4967   */\n      0x02\n        /* \"#utility.yul\":4958:4964   */\n      dup9\n        /* \"#utility.yul\":4954:4968   */\n      mul\n        /* \"#utility.yul\":4950:4972   */\n      add\n        /* \"#utility.yul\":4944:4948   */\n      dup9\n        /* \"#utility.yul\":4937:4973   */\n      sstore\n        /* \"#utility.yul\":4372:4983   */\n      pop\n      pop\n      pop\n        /* \"#utility.yul\":4335:5222   */\n    tag_114:\n      pop\n        /* \"#utility.yul\":3925:5228   */\n      pop\n      pop\n      pop\n        /* \"#utility.yul\":3833:5228   */\n      pop\n      pop\n      jump\t// out\n        /* \"#utility.yul\":5234:5414   */\n    tag_54:\n        /* \"#utility.yul\":5282:5359   */\n      0x4e487b7100000000000000000000000000000000000000000000000000000000\n        /* \"#utility.yul\":5279:5280   */\n      0x00\n        /* \"#utility.yul\":5272:5360   */\n      mstore\n        /* \"#utility.yul\":5379:5383   */\n      0x11\n        /* \"#utility.yul\":5376:5377   */\n      0x04\n        /* \"#utility.yul\":5369:5384   */\n      mstore\n        /* \"#utility.yul\":5403:5407   */\n      0x24\n        /* \"#utility.yul\":5400:5401   */\n      0x00\n        /* \"#utility.yul\":5393:5408   */\n      revert\n        /* \"#utility.yul\":5420:5522   */\n    tag_55:\n        /* \"#utility.yul\":5462:5470   */\n      0x00\n        /* \"#utility.yul\":5509:5514   */\n      dup2\n        /* \"#utility.yul\":5506:5507   */\n      0x01\n        /* \"#utility.yul\":5502:5515   */\n      shr\n        /* \"#utility.yul\":5481:5515   */\n      swap1\n      pop\n        /* \"#utility.yul\":5420:5522   */\n      swap2\n      swap1\n      pop\n      jump\t// out\n        /* \"#utility.yul\":5528:6376   */\n    tag_56:\n        /* \"#utility.yul\":5589:5594   */\n      0x00\n        /* \"#utility.yul\":5596:5600   */\n      dup1\n        /* \"#utility.yul\":5620:5626   */\n      dup3\n        /* \"#utility.yul\":5611:5626   */\n      swap2\n      pop\n        /* \"#utility.yul\":5644:5649   */\n      dup4\n        /* \"#utility.yul\":5635:5649   */\n      swap1\n      pop\n        /* \"#utility.yul\":5658:6370   */\n    tag_127:\n        /* \"#utility.yul\":5679:5680   */\n      0x01\n        /* \"#utility.yul\":5669:5677   */\n      dup6\n        /* \"#utility.yul\":5666:5681   */\n      gt\n        /* \"#utility.yul\":5658:6370   */\n      iszero\n      tag_129\n      jumpi\n        /* \"#utility.yul\":5774:5778   */\n      dup1\n        /* \"#utility.yul\":5769:5772   */\n      dup7\n        /* \"#utility.yul\":5765:5779   */\n      div\n        /* \"#utility.yul\":5759:5763   */\n      dup2\n        /* \"#utility.yul\":5756:5780   */\n      gt\n        /* \"#utility.yul\":5753:5803   */\n      iszero\n      tag_130\n      jumpi\n        /* \"#utility.yul\":5783:5801   */\n      tag_131\n      tag_54\n      jump\t// in\n    tag_131:\n        /* \"#utility.yul\":5753:5803   */\n    tag_130:\n        /* \"#utility.yul\":5833:5834   */\n      0x01\n        /* \"#utility.yul\":5823:5831   */\n      dup6\n        /* \"#utility.yul\":5819:5835   */\n      and\n        /* \"#utility.yul\":5816:6267   */\n      iszero\n      tag_132\n      jumpi\n        /* \"#utility.yul\":6248:6252   */\n      dup1\n        /* \"#utility.yul\":6241:6246   */\n      dup3\n        /* \"#utility.yul\":6237:6253   */\n      mul\n        /* \"#utility.yul\":6228:6253   */\n      swap2\n      pop\n        /* \"#utility.yul\":5816:6267   */\n    tag_132:\n        /* \"#utility.yul\":6298:6302   */\n      dup1\n        /* \"#utility.yul\":6292:6296   */\n      dup2\n        /* \"#utility.yul\":6288:6303   */\n      mul\n        /* \"#utility.yul\":6280:6303   */\n      swap1\n      pop\n        /* \"#utility.yul\":6328:6360   */\n      tag_133\n        /* \"#utility.yul\":6351:6359   */\n      dup6\n        /* \"#utility.yul\":6328:6360   */\n      tag_55\n      jump\t// in\n    tag_133:\n        /* \"#utility.yul\":6316:6360   */\n      swap5\n      pop\n        /* \"#utility.yul\":5658:6370   */\n      jump(tag_127)\n    tag_129:\n        /* \"#utility.yul\":5528:6376   */\n      swap5\n      pop\n      swap5\n      swap3\n      pop\n      pop\n      pop\n      jump\t// out\n        /* \"#utility.yul\":6382:7455   */\n    tag_57:\n        /* \"#utility.yul\":6436:6441   */\n      0x00\n        /* \"#utility.yul\":6627:6635   */\n      dup3\n        /* \"#utility.yul\":6617:6657   */\n      tag_135\n      jumpi\n        /* \"#utility.yul\":6648:6649   */\n      0x01\n        /* \"#utility.yul\":6639:6649   */\n      swap1\n      pop\n        /* \"#utility.yul\":6650:6655   */\n      jump(tag_134)\n        /* \"#utility.yul\":6617:6657   */\n    tag_135:\n        /* \"#utility.yul\":6676:6680   */\n      dup2\n        /* \"#utility.yul\":6666:6702   */\n      tag_136\n      jumpi\n        /* \"#utility.yul\":6693:6694   */\n      0x00\n        /* \"#utility.yul\":6684:6694   */\n      swap1\n      pop\n        /* \"#utility.yul\":6695:6700   */\n      jump(tag_134)\n        /* \"#utility.yul\":6666:6702   */\n    tag_136:\n        /* \"#utility.yul\":6762:6766   */\n      dup2\n        /* \"#utility.yul\":6810:6811   */\n      0x01\n        /* \"#utility.yul\":6805:6832   */\n      dup2\n      eq\n      tag_138\n      jumpi\n        /* \"#utility.yul\":6846:6847   */\n      0x02\n        /* \"#utility.yul\":6841:7032   */\n      dup2\n      eq\n      tag_139\n      jumpi\n        /* \"#utility.yul\":6755:7032   */\n      jump(tag_137)\n        /* \"#utility.yul\":6805:6832   */\n    tag_138:\n        /* \"#utility.yul\":6823:6824   */\n      0x01\n        /* \"#utility.yul\":6814:6824   */\n      swap2\n      pop\n        /* \"#utility.yul\":6825:6830   */\n      pop\n      jump(tag_134)\n        /* \"#utility.yul\":6841:7032   */\n    tag_139:\n        /* \"#utility.yul\":6886:6889   */\n      0xff\n        /* \"#utility.yul\":6876:6884   */\n      dup5\n        /* \"#utility.yul\":6873:6890   */\n      gt\n        /* \"#utility.yul\":6870:6913   */\n      iszero\n      tag_140\n      jumpi\n        /* \"#utility.yul\":6893:6911   */\n      tag_141\n      tag_54\n      jump\t// in\n    tag_141:\n        /* \"#utility.yul\":6870:6913   */\n    tag_140:\n        /* \"#utility.yul\":6942:6950   */\n      dup4\n        /* \"#utility.yul\":6939:6940   */\n      0x02\n        /* \"#utility.yul\":6935:6951   */\n      exp\n        /* \"#utility.yul\":6926:6951   */\n      swap2\n      pop\n        /* \"#utility.yul\":6977:6980   */\n      dup5\n        /* \"#utility.yul\":6970:6975   */\n      dup3\n        /* \"#utility.yul\":6967:6981   */\n      gt\n        /* \"#utility.yul\":6964:7004   */\n      iszero\n      tag_142\n      jumpi\n        /* \"#utility.yul\":6984:7002   */\n      tag_143\n      tag_54\n      jump\t// in\n    tag_143:\n        /* \"#utility.yul\":6964:7004   */\n    tag_142:\n        /* \"#utility.yul\":7017:7022   */\n      pop\n      jump(tag_134)\n        /* \"#utility.yul\":6755:7032   */\n    tag_137:\n      pop\n        /* \"#utility.yul\":7141:7143   */\n      0x20\n        /* \"#utility.yul\":7131:7139   */\n      dup4\n        /* \"#utility.yul\":7128:7144   */\n      lt\n        /* \"#utility.yul\":7122:7125   */\n      0x0133\n        /* \"#utility.yul\":7116:7120   */\n      dup4\n        /* \"#utility.yul\":7113:7126   */\n      lt\n        /* \"#utility.yul\":7109:7145   */\n      and\n        /* \"#utility.yul\":7091:7093   */\n      0x4e\n        /* \"#utility.yul\":7081:7089   */\n      dup5\n        /* \"#utility.yul\":7078:7094   */\n      lt\n        /* \"#utility.yul\":7073:7075   */\n      0x0b\n        /* \"#utility.yul\":7067:7071   */\n      dup5\n        /* \"#utility.yul\":7064:7076   */\n      lt\n        /* \"#utility.yul\":7060:7095   */\n      and\n        /* \"#utility.yul\":7044:7155   */\n      or\n        /* \"#utility.yul\":7041:7287   */\n      iszero\n      tag_144\n      jumpi\n        /* \"#utility.yul\":7197:7205   */\n      dup3\n        /* \"#utility.yul\":7191:7195   */\n      dup3\n        /* \"#utility.yul\":7187:7206   */\n      exp\n        /* \"#utility.yul\":7178:7206   */\n      swap1\n      pop\n        /* \"#utility.yul\":7232:7235   */\n      dup4\n        /* \"#utility.yul\":7225:7230   */\n      dup2\n        /* \"#utility.yul\":7222:7236   */\n      gt\n        /* \"#utility.yul\":7219:7259   */\n      iszero\n      tag_145\n      jumpi\n        /* \"#utility.yul\":7239:7257   */\n      tag_146\n      tag_54\n      jump\t// in\n    tag_146:\n        /* \"#utility.yul\":7219:7259   */\n    tag_145:\n        /* \"#utility.yul\":7272:7277   */\n      jump(tag_134)\n        /* \"#utility.yul\":7041:7287   */\n    tag_144:\n        /* \"#utility.yul\":7312:7354   */\n      tag_147\n        /* \"#utility.yul\":7350:7353   */\n      dup5\n        /* \"#utility.yul\":7340:7348   */\n      dup5\n        /* \"#utility.yul\":7334:7338   */\n      dup5\n        /* \"#utility.yul\":7331:7332   */\n      0x01\n        /* \"#utility.yul\":7312:7354   */\n      tag_56\n      jump\t// in\n    tag_147:\n        /* \"#utility.yul\":7297:7354   */\n      swap3\n      pop\n      swap1\n      pop\n        /* \"#utility.yul\":7386:7390   */\n      dup2\n        /* \"#utility.yul\":7381:7384   */\n      dup5\n        /* \"#utility.yul\":7377:7391   */\n      div\n        /* \"#utility.yul\":7370:7375   */\n      dup2\n        /* \"#utility.yul\":7367:7392   */\n      gt\n        /* \"#utility.yul\":7364:7415   */\n      iszero\n      tag_148\n      jumpi\n        /* \"#utility.yul\":7395:7413   */\n      tag_149\n      tag_54\n      jump\t// in\n    tag_149:\n        /* \"#utility.yul\":7364:7415   */\n    tag_148:\n        /* \"#utility.yul\":7444:7448   */\n      dup2\n        /* \"#utility.yul\":7437:7442   */\n      dup2\n        /* \"#utility.yul\":7433:7449   */\n      mul\n        /* \"#utility.yul\":7424:7449   */\n      swap1\n      pop\n        /* \"#utility.yul\":6382:7455   */\n    tag_134:\n      swap4\n      swap3\n      pop\n      pop\n      pop\n      jump\t// out\n        /* \"#utility.yul\":7461:7746   */\n    tag_11:\n        /* \"#utility.yul\":7521:7526   */\n      0x00\n        /* \"#utility.yul\":7545:7568   */\n      tag_151\n        /* \"#utility.yul\":7563:7567   */\n      dup3\n        /* \"#utility.yul\":7545:7568   */\n      tag_42\n      jump\t// in\n    tag_151:\n        /* \"#utility.yul\":7537:7568   */\n      swap2\n      pop\n        /* \"#utility.yul\":7589:7616   */\n      tag_152\n        /* \"#utility.yul\":7607:7615   */\n      dup4\n        /* \"#utility.yul\":7589:7616   */\n      tag_42\n      jump\t// in\n    tag_152:\n        /* \"#utility.yul\":7577:7616   */\n      swap3\n      pop\n        /* \"#utility.yul\":7635:7739   */\n      tag_153\n        /* \"#utility.yul\":7672:7738   */\n      0xffffffffffffffffffffffffffffffffffffffffffffffffffffffffffffffff\n        /* \"#utility.yul\":7662:7670   */\n      dup5\n        /* \"#utility.yul\":7656:7660   */\n      dup5\n        /* \"#utility.yul\":7635:7739   */\n      tag_57\n      jump\t// in\n    tag_153:\n        /* \"#utility.yul\":7626:7739   */\n      swap1\n      pop\n        /* \"#utility.yul\":7461:7746   */\n      swap3\n      swap2\n      pop\n      pop\n      jump\t// out\n        /* \"#utility.yul\":7752:8162   */\n    tag_13:\n        /* \"#utility.yul\":7792:7799   */\n      0x00\n        /* \"#utility.yul\":7815:7835   */\n      tag_155\n        /* \"#utility.yul\":7833:7834   */\n      dup3\n        /* \"#utility.yul\":7815:7835   */\n      tag_42\n      jump\t// in\n    tag_155:\n        /* \"#utility.yul\":7810:7835   */\n      swap2\n      pop\n        /* \"#utility.yul\":7849:7869   */\n      tag_156\n        /* \"#utility.yul\":7867:7868   */\n      dup4\n        /* \"#utility.yul\":7849:7869   */\n      tag_42\n      jump\t// in\n    tag_156:\n        /* \"#utility.yul\":7844:7869   */\n      swap3\n      pop\n        /* \"#utility.yul\":7904:7905   */\n      dup3\n        /* \"#utility.yul\":7901:7902   */\n      dup3\n        /* \"#utility.yul\":7897:7906   */\n      mul\n        /* \"#utility.yul\":7926:7956   */\n      tag_157\n        /* \"#utility.yul\":7944:7955   */\n      dup2\n        /* \"#utility.yul\":7926:7956   */\n      tag_42\n      jump\t// in\n    tag_157:\n        /* \"#utility.yul\":7915:7956   */\n      swap2\n      pop\n        /* \"#utility.yul\":8105:8106   */\n      dup3\n        /* \"#utility.yul\":8096:8103   */\n      dup3\n        /* \"#utility.yul\":8092:8107   */\n      div\n        /* \"#utility.yul\":8089:8090   */\n      dup5\n        /* \"#utility.yul\":8086:8108   */\n      eq\n        /* \"#utility.yul\":8066:8067   */\n      dup4\n        /* \"#utility.yul\":8059:8068   */\n      iszero\n        /* \"#utility.yul\":8039:8122   */\n      or\n        /* \"#utility.yul\":8016:8155   */\n      tag_158\n      jumpi\n        /* \"#utility.yul\":8135:8153   */\n      tag_159\n      tag_54\n      jump\t// in\n    tag_159:\n        /* \"#utility.yul\":8016:8155   */\n    tag_158:\n        /* \"#utility.yul\":7800:8162   */\n      pop\n        /* \"#utility.yul\":7752:8162   */\n      swap3\n      swap2\n      pop\n      pop\n      jump\t// out\n        /* \"#utility.yul\":8168:8294   */\n    tag_58:\n        /* \"#utility.yul\":8205:8212   */\n      0x00\n        /* \"#utility.yul\":8245:8287   */\n      0xffffffffffffffffffffffffffffffffffffffff\n        /* \"#utility.yul\":8238:8243   */\n      dup3\n        /* \"#utility.yul\":8234:8288   */\n      and\n        /* \"#utility.yul\":8223:8288   */\n      swap1\n      pop\n        /* \"#utility.yul\":8168:8294   */\n      swap2\n      swap1\n      pop\n      jump\t// out\n        /* \"#utility.yul\":8300:8396   */\n    tag_59:\n        /* \"#utility.yul\":8337:8344   */\n      0x00\n        /* \"#utility.yul\":8366:8390   */\n      tag_162\n        /* \"#utility.yul\":8384:8389   */\n      dup3\n        /* \"#utility.yul\":8366:8390   */\n      tag_58\n      jump\t// in\n    tag_162:\n        /* \"#utility.yul\":8355:8390   */\n      swap1\n      pop\n        /* \"#utility.yul\":8300:8396   */\n      swap2\n      swap1\n      pop\n      jump\t// out\n        /* \"#utility.yul\":8402:8520   */\n    tag_60:\n        /* \"#utility.yul\":8489:8513   */\n      tag_164\n        /* \"#utility.yul\":8507:8512   */\n      dup2\n        /* \"#utility.yul\":8489:8513   */\n      tag_59\n      jump\t// in\n    tag_164:\n        /* \"#utility.yul\":8484:8487   */\n      dup3\n        /* \"#utility.yul\":8477:8514   */\n      mstore\n        /* \"#utility.yul\":8402:8520   */\n      pop\n      pop\n      jump\t// out\n        /* \"#utility.yul\":8526:8748   */\n    tag_19:\n        /* \"#utility.yul\":8619:8623   */\n      0x00\n        /* \"#utility.yul\":8657:8659   */\n      0x20\n        /* \"#utility.yul\":8646:8655   */\n      dup3\n        /* \"#utility.yul\":8642:8660   */\n      add\n        /* \"#utility.yul\":8634:8660   */\n      swap1\n      pop\n        /* \"#utility.yul\":8670:8741   */\n      tag_166\n        /* \"#utility.yul\":8738:8739   */\n      0x00\n        /* \"#utility.yul\":8727:8736   */\n      dup4\n        /* \"#utility.yul\":8723:8740   */\n      add\n        /* \"#utility.yul\":8714:8720   */\n      dup5\n        /* \"#utility.yul\":8670:8741   */\n      tag_60\n      jump\t// in\n    tag_166:\n        /* \"#utility.yul\":8526:8748   */\n      swap3\n      swap2\n      pop\n      pop\n      jump\t// out\n        /* \"#utility.yul\":8754:8945   */\n    tag_25:\n        /* \"#utility.yul\":8794:8797   */\n      0x00\n        /* \"#utility.yul\":8813:8833   */\n      tag_168\n        /* \"#utility.yul\":8831:8832   */\n      dup3\n        /* \"#utility.yul\":8813:8833   */\n      tag_42\n      jump\t// in\n    tag_168:\n        /* \"#utility.yul\":8808:8833   */\n      swap2\n      pop\n        /* \"#utility.yul\":8847:8867   */\n      tag_169\n        /* \"#utility.yul\":8865:8866   */\n      dup4\n        /* \"#utility.yul\":8847:8867   */\n      tag_42\n      jump\t// in\n    tag_169:\n        /* \"#utility.yul\":8842:8867   */\n      swap3\n      pop\n        /* \"#utility.yul\":8890:8891   */\n      dup3\n        /* \"#utility.yul\":8887:8888   */\n      dup3\n        /* \"#utility.yul\":8883:8892   */\n      add\n        /* \"#utility.yul\":8876:8892   */\n      swap1\n      pop\n        /* \"#utility.yul\":8911:8914   */\n      dup1\n        /* \"#utility.yul\":8908:8909   */\n      dup3\n        /* \"#utility.yul\":8905:8915   */\n      gt\n        /* \"#utility.yul\":8902:8938   */\n      iszero\n      tag_170\n      jumpi\n        /* \"#utility.yul\":8918:8936   */\n      tag_171\n      tag_54\n      jump\t// in\n    tag_171:\n        /* \"#utility.yul\":8902:8938   */\n    tag_170:\n        /* \"#utility.yul\":8754:8945   */\n      swap3\n      swap2\n      pop\n      pop\n      jump\t// out\n        /* \"#utility.yul\":8951:9069   */\n    tag_61:\n        /* \"#utility.yul\":9038:9062   */\n      tag_173\n        /* \"#utility.yul\":9056:9061   */\n      dup2\n        /* \"#utility.yul\":9038:9062   */\n      tag_42\n      jump\t// in\n    tag_173:\n        /* \"#utility.yul\":9033:9036   */\n      dup3\n        /* \"#utility.yul\":9026:9063   */\n      mstore\n        /* \"#utility.yul\":8951:9069   */\n      pop\n      pop\n      jump\t// out\n        /* \"#utility.yul\":9075:9517   */\n    tag_29:\n        /* \"#utility.yul\":9224:9228   */\n      0x00\n        /* \"#utility.yul\":9262:9264   */\n      0x60\n        /* \"#utility.yul\":9251:9260   */\n      dup3\n        /* \"#utility.yul\":9247:9265   */\n      add\n        /* \"#utility.yul\":9239:9265   */\n      swap1\n      pop\n        /* \"#utility.yul\":9275:9346   */\n      tag_175\n        /* \"#utility.yul\":9343:9344   */\n      0x00\n        /* \"#utility.yul\":9332:9341   */\n      dup4\n        /* \"#utility.yul\":9328:9345   */\n      add\n        /* \"#utility.yul\":9319:9325   */\n      dup7\n        /* \"#utility.yul\":9275:9346   */\n      tag_60\n      jump\t// in\n    tag_175:\n        /* \"#utility.yul\":9356:9428   */\n      tag_176\n        /* \"#utility.yul\":9424:9426   */\n      0x20\n        /* \"#utility.yul\":9413:9422   */\n      dup4\n        /* \"#utility.yul\":9409:9427   */\n      add\n        /* \"#utility.yul\":9400:9406   */\n      dup6\n        /* \"#utility.yul\":9356:9428   */\n      tag_61\n      jump\t// in\n    tag_176:\n        /* \"#utility.yul\":9438:9510   */\n      tag_177\n        /* \"#utility.yul\":9506:9508   */\n      0x40\n        /* \"#utility.yul\":9495:9504   */\n      dup4\n        /* \"#utility.yul\":9491:9509   */\n      add\n        /* \"#utility.yul\":9482:9488   */\n      dup5\n        /* \"#utility.yul\":9438:9510   */\n      tag_61\n      jump\t// in\n    tag_177:\n        /* \"#utility.yul\":9075:9517   */\n      swap5\n      swap4\n      pop\n      pop\n      pop\n      pop\n      jump\t// out\n        /* \"#utility.yul\":9523:9745   */\n    tag_33:\n        /* \"#utility.yul\":9616:9620   */\n      0x00\n        /* \"#utility.yul\":9654:9656   */\n      0x20\n        /* \"#utility.yul\":9643:9652   */\n      dup3\n        /* \"#utility.yul\":9639:9657   */\n      add\n        /* \"#utility.yul\":9631:9657   */\n      swap1\n      pop\n        /* \"#utility.yul\":9667:9738   */\n      tag_179\n        /* \"#utility.yul\":9735:9736   */\n      0x00\n        /* \"#utility.yul\":9724:9733   */\n      dup4\n        /* \"#utility.yul\":9720:9737   */\n      add\n        /* \"#utility.yul\":9711:9717   */\n      dup5\n        /* \"#utility.yul\":9667:9738   */\n      tag_61\n      jump\t// in\n    tag_179:\n        /* \"#utility.yul\":9523:9745   */\n      swap3\n      swap2\n      pop\n      pop\n      jump\t// out\n        /* \"contracts/DataPunk/DataPunkCoinInter.sol\":183:754  contract DataPunkCoinInter is ERC20{... */\n    tag_15:\n      dataSize(sub_0)\n      dup1\n      dataOffset(sub_0)\n      0x00\n      codecopy\n      0x00\n      return\n    stop\n\n    sub_0: assembly {\n            /* \"contracts/DataPunk/DataPunkCoinInter.sol\":183:754  contract DataPunkCoinInter is ERC20{... */\n          mstore(0x40, 0x80)\n          callvalue\n          dup1\n          iszero\n          tag_1\n          jumpi\n          0x00\n          dup1\n          revert\n        tag_1:\n          pop\n          jumpi(tag_2, lt(calldatasize, 0x04))\n          shr(0xe0, calldataload(0x00))\n          dup1\n          0x313ce567\n          gt\n          tag_12\n          jumpi\n          dup1\n          0x313ce567\n          eq\n          tag_7\n          jumpi\n          dup1\n          0x70a08231\n          eq\n          tag_8\n          jumpi\n          dup1\n          0x95d89b41\n          eq\n          tag_9\n          jumpi\n          dup1\n          0xa9059cbb\n          eq\n          tag_10\n          jumpi\n          dup1\n          0xdd62ed3e\n          eq\n          tag_11\n          jumpi\n          jump(tag_2)\n        tag_12:\n          dup1\n          0x06fdde03\n          eq\n          tag_3\n          jumpi\n          dup1\n          0x095ea7b3\n          eq\n          tag_4\n          jumpi\n          dup1\n          0x18160ddd\n          eq\n          tag_5\n          jumpi\n          dup1\n          0x23b872dd\n          eq\n          tag_6\n          jumpi\n        tag_2:\n          0x00\n          dup1\n          revert\n            /* \"@openzeppelin/contracts/token/ERC20/ERC20.sol\":2074:2163  function name() public view virtual returns (string memory) {... */\n        tag_3:\n          tag_13\n          tag_14\n          jump\t// in\n        tag_13:\n          mload(0x40)\n          tag_15\n          swap2\n          swap1\n          tag_16\n          jump\t// in\n        tag_15:\n          mload(0x40)\n          dup1\n          swap2\n          sub\n          swap1\n          return\n            /* \"@openzeppelin/contracts/token/ERC20/ERC20.sol\":4293:4479  function approve(address spender, uint256 value) public virtual returns (bool) {... */\n        tag_4:\n          tag_17\n          0x04\n          dup1\n          calldatasize\n          sub\n          dup2\n          add\n          swap1\n          tag_18\n          swap2\n          swap1\n          tag_19\n          jump\t// in\n        tag_18:\n          tag_20\n          jump\t// in\n        tag_17:\n          mload(0x40)\n          tag_21\n          swap2\n          swap1\n          tag_22\n          jump\t// in\n        tag_21:\n          mload(0x40)\n          dup1\n          swap2\n          sub\n          swap1\n          return\n            /* \"@openzeppelin/contracts/token/ERC20/ERC20.sol\":3144:3241  function totalSupply() public view virtual returns (uint256) {... */\n        tag_5:\n          tag_23\n          tag_24\n          jump\t// in\n        tag_23:\n          mload(0x40)\n          tag_25\n          swap2\n          swap1\n          tag_26\n          jump\t// in\n        tag_25:\n          mload(0x40)\n          dup1\n          swap2\n          sub\n          swap1\n          return\n            /* \"@openzeppelin/contracts/token/ERC20/ERC20.sol\":5039:5283  function transferFrom(address from, address to, uint256 value) public virtual returns (bool) {... */\n        tag_6:\n          tag_27\n          0x04\n          dup1\n          calldatasize\n          sub\n          dup2\n          add\n          swap1\n          tag_28\n          swap2\n          swap1\n          tag_29\n          jump\t// in\n        tag_28:\n          tag_30\n          jump\t// in\n        tag_27:\n          mload(0x40)\n          tag_31\n          swap2\n          swap1\n          tag_22\n          jump\t// in\n        tag_31:\n          mload(0x40)\n          dup1\n          swap2\n          sub\n          swap1\n          return\n            /* \"contracts/DataPunk/DataPunkCoinInter.sol\":654:752  function decimals() public view virtual override returns (uint8) {... */\n        tag_7:\n          tag_32\n          tag_33\n          jump\t// in\n        tag_32:\n          mload(0x40)\n          tag_34\n          swap2\n          swap1\n          tag_35\n          jump\t// in\n        tag_34:\n          mload(0x40)\n          dup1\n          swap2\n          sub\n          swap1\n          return\n            /* \"@openzeppelin/contracts/token/ERC20/ERC20.sol\":3299:3415  function balanceOf(address account) public view virtual returns (uint256) {... */\n        tag_8:\n          tag_36\n          0x04\n          dup1\n          calldatasize\n          sub\n          dup2\n          add\n          swap1\n          tag_37\n          swap2\n          swap1\n          tag_38\n          jump\t// in\n        tag_37:\n          tag_39\n          jump\t// in\n        tag_36:\n          mload(0x40)\n          tag_40\n          swap2\n          swap1\n          tag_26\n          jump\t// in\n        tag_40:\n          mload(0x40)\n          dup1\n          swap2\n          sub\n          swap1\n          return\n            /* \"@openzeppelin/contracts/token/ERC20/ERC20.sol\":2276:2369  function symbol() public view virtual returns (string memory) {... */\n        tag_9:\n          tag_41\n          tag_42\n          jump\t// in\n        tag_41:\n          mload(0x40)\n          tag_43\n          swap2\n          swap1\n          tag_16\n          jump\t// in\n        tag_43:\n          mload(0x40)\n          dup1\n          swap2\n          sub\n          swap1\n          return\n            /* \"@openzeppelin/contracts/token/ERC20/ERC20.sol\":3610:3788  function transfer(address to, uint256 value) public virtual returns (bool) {... */\n        tag_10:\n          tag_44\n          0x04\n          dup1\n          calldatasize\n          sub\n          dup2\n          add\n          swap1\n          tag_45\n          swap2\n          swap1\n          tag_19\n          jump\t// in\n        tag_45:\n          tag_46\n          jump\t// in\n        tag_44:\n          mload(0x40)\n          tag_47\n          swap2\n          swap1\n          tag_22\n          jump\t// in\n        tag_47:\n          mload(0x40)\n          dup1\n          swap2\n          sub\n          swap1\n          return\n            /* \"@openzeppelin/contracts/token/ERC20/ERC20.sol\":3846:3986  function allowance(address owner, address spender) public view virtual returns (uint256) {... */\n        tag_11:\n          tag_48\n          0x04\n          dup1\n          calldatasize\n          sub\n          dup2\n          add\n          swap1\n          tag_49\n          swap2\n          swap1\n          tag_50\n          jump\t// in\n        tag_49:\n          tag_51\n          jump\t// in\n        tag_48:\n          mload(0x40)\n          tag_52\n          swap2\n          swap1\n          tag_26\n          jump\t// in\n        tag_52:\n          mload(0x40)\n          dup1\n          swap2\n          sub\n          swap1\n          return\n            /* \"@openzeppelin/contracts/token/ERC20/ERC20.sol\":2074:2163  function name() public view virtual returns (string memory) {... */\n        tag_14:\n            /* \"@openzeppelin/contracts/token/ERC20/ERC20.sol\":2119:2132  string memory */\n          0x60\n            /* \"@openzeppelin/contracts/token/ERC20/ERC20.sol\":2151:2156  _name */\n          0x03\n            /* \"@openzeppelin/contracts/token/ERC20/ERC20.sol\":2144:2156  return _name */\n          dup1\n          sload\n          tag_54\n          swap1\n          tag_55\n          jump\t// in\n        tag_54:\n          dup1\n          0x1f\n          add\n          0x20\n          dup1\n          swap2\n          div\n          mul\n          0x20\n          add\n          mload(0x40)\n          swap1\n          dup2\n          add\n          0x40\n          mstore\n          dup1\n          swap3\n          swap2\n          swap1\n          dup2\n          dup2\n          mstore\n          0x20\n          add\n          dup3\n          dup1\n          sload\n          tag_56\n          swap1\n          tag_55\n          jump\t// in\n        tag_56:\n          dup1\n          iszero\n          tag_57\n          jumpi\n          dup1\n          0x1f\n          lt\n          tag_58\n          jumpi\n          0x0100\n          dup1\n          dup4\n          sload\n          div\n          mul\n          dup4\n          mstore\n          swap2\n          0x20\n          add\n          swap2\n          jump(tag_57)\n        tag_58:\n          dup3\n          add\n          swap2\n          swap1\n          0x00\n          mstore\n          keccak256(0x00, 0x20)\n          swap1\n        tag_59:\n          dup2\n          sload\n          dup2\n          mstore\n          swap1\n          0x01\n          add\n          swap1\n          0x20\n          add\n          dup1\n          dup4\n          gt\n          tag_59\n          jumpi\n          dup3\n          swap1\n          sub\n          0x1f\n          and\n          dup3\n          add\n          swap2\n        tag_57:\n          pop\n          pop\n          pop\n          pop\n          pop\n          swap1\n          pop\n            /* \"@openzeppelin/contracts/token/ERC20/ERC20.sol\":2074:2163  function name() public view virtual returns (string memory) {... */\n          swap1\n          jump\t// out\n            /* \"@openzeppelin/contracts/token/ERC20/ERC20.sol\":4293:4479  function approve(address spender, uint256 value) public virtual returns (bool) {... */\n        tag_20:\n            /* \"@openzeppelin/contracts/token/ERC20/ERC20.sol\":4366:4370  bool */\n          0x00\n            /* \"@openzeppelin/contracts/token/ERC20/ERC20.sol\":4382:4395  address owner */\n          dup1\n            /* \"@openzeppelin/contracts/token/ERC20/ERC20.sol\":4398:4410  _msgSender() */\n          tag_61\n            /* \"@openzeppelin/contracts/token/ERC20/ERC20.sol\":4398:4408  _msgSender */\n          tag_62\n            /* \"@openzeppelin/contracts/token/ERC20/ERC20.sol\":4398:4410  _msgSender() */\n          jump\t// in\n        tag_61:\n            /* \"@openzeppelin/contracts/token/ERC20/ERC20.sol\":4382:4410  address owner = _msgSender() */\n          swap1\n          pop\n            /* \"@openzeppelin/contracts/token/ERC20/ERC20.sol\":4420:4451  _approve(owner, spender, value) */\n          tag_63\n            /* \"@openzeppelin/contracts/token/ERC20/ERC20.sol\":4429:4434  owner */\n          dup2\n            /* \"@openzeppelin/contracts/token/ERC20/ERC20.sol\":4436:4443  spender */\n          dup6\n            /* \"@openzeppelin/contracts/token/ERC20/ERC20.sol\":4445:4450  value */\n          dup6\n            /* \"@openzeppelin/contracts/token/ERC20/ERC20.sol\":4420:4428  _approve */\n          tag_64\n            /* \"@openzeppelin/contracts/token/ERC20/ERC20.sol\":4420:4451  _approve(owner, spender, value) */\n          jump\t// in\n        tag_63:\n            /* \"@openzeppelin/contracts/token/ERC20/ERC20.sol\":4468:4472  true */\n          0x01\n            /* \"@openzeppelin/contracts/token/ERC20/ERC20.sol\":4461:4472  return true */\n          swap2\n          pop\n          pop\n            /* \"@openzeppelin/contracts/token/ERC20/ERC20.sol\":4293:4479  function approve(address spender, uint256 value) public virtual returns (bool) {... */\n          swap3\n          swap2\n          pop\n          pop\n          jump\t// out\n            /* \"@openzeppelin/contracts/token/ERC20/ERC20.sol\":3144:3241  function totalSupply() public view virtual returns (uint256) {... */\n        tag_24:\n            /* \"@openzeppelin/contracts/token/ERC20/ERC20.sol\":3196:3203  uint256 */\n          0x00\n            /* \"@openzeppelin/contracts/token/ERC20/ERC20.sol\":3222:3234  _totalSupply */\n          sload(0x02)\n            /* \"@openzeppelin/contracts/token/ERC20/ERC20.sol\":3215:3234  return _totalSupply */\n          swap1\n          pop\n            /* \"@openzeppelin/contracts/token/ERC20/ERC20.sol\":3144:3241  function totalSupply() public view virtual returns (uint256) {... */\n          swap1\n          jump\t// out\n            /* \"@openzeppelin/contracts/token/ERC20/ERC20.sol\":5039:5283  function transferFrom(address from, address to, uint256 value) public virtual returns (bool) {... */\n        tag_30:\n            /* \"@openzeppelin/contracts/token/ERC20/ERC20.sol\":5126:5130  bool */\n          0x00\n            /* \"@openzeppelin/contracts/token/ERC20/ERC20.sol\":5142:5157  address spender */\n          dup1\n            /* \"@openzeppelin/contracts/token/ERC20/ERC20.sol\":5160:5172  _msgSender() */\n          tag_67\n            /* \"@openzeppelin/contracts/token/ERC20/ERC20.sol\":5160:5170  _msgSender */\n          tag_62\n            /* \"@openzeppelin/contracts/token/ERC20/ERC20.sol\":5160:5172  _msgSender() */\n          jump\t// in\n        tag_67:\n            /* \"@openzeppelin/contracts/token/ERC20/ERC20.sol\":5142:5172  address spender = _msgSender() */\n          swap1\n          pop\n            /* \"@openzeppelin/contracts/token/ERC20/ERC20.sol\":5182:5219  _spendAllowance(from, spender, value) */\n          tag_68\n            /* \"@openzeppelin/contracts/token/ERC20/ERC20.sol\":5198:5202  from */\n          dup6\n            /* \"@openzeppelin/contracts/token/ERC20/ERC20.sol\":5204:5211  spender */\n          dup3\n            /* \"@openzeppelin/contracts/token/ERC20/ERC20.sol\":5213:5218  value */\n          dup6\n            /* \"@openzeppelin/contracts/token/ERC20/ERC20.sol\":5182:5197  _spendAllowance */\n          tag_69\n            /* \"@openzeppelin/contracts/token/ERC20/ERC20.sol\":5182:5219  _spendAllowance(from, spender, value) */\n          jump\t// in\n        tag_68:\n            /* \"@openzeppelin/contracts/token/ERC20/ERC20.sol\":5229:5255  _transfer(from, to, value) */\n          tag_70\n            /* \"@openzeppelin/contracts/token/ERC20/ERC20.sol\":5239:5243  from */\n          dup6\n            /* \"@openzeppelin/contracts/token/ERC20/ERC20.sol\":5245:5247  to */\n          dup6\n            /* \"@openzeppelin/contracts/token/ERC20/ERC20.sol\":5249:5254  value */\n          dup6\n            /* \"@openzeppelin/contracts/token/ERC20/ERC20.sol\":5229:5238  _transfer */\n          tag_71\n            /* \"@openzeppelin/contracts/token/ERC20/ERC20.sol\":5229:5255  _transfer(from, to, value) */\n          jump\t// in\n        tag_70:\n            /* \"@openzeppelin/contracts/token/ERC20/ERC20.sol\":5272:5276  true */\n          0x01\n            /* \"@openzeppelin/contracts/token/ERC20/ERC20.sol\":5265:5276  return true */\n          swap2\n          pop\n          pop\n            /* \"@openzeppelin/contracts/token/ERC20/ERC20.sol\":5039:5283  function transferFrom(address from, address to, uint256 value) public virtual returns (bool) {... */\n          swap4\n          swap3\n          pop\n          pop\n          pop\n          jump\t// out\n            /* \"contracts/DataPunk/DataPunkCoinInter.sol\":654:752  function decimals() public view virtual override returns (uint8) {... */\n        tag_33:\n            /* \"contracts/DataPunk/DataPunkCoinInter.sol\":712:717  uint8 */\n          0x00\n            /* \"contracts/DataPunk/DataPunkCoinInter.sol\":736:745  _decimals */\n          0x05\n          0x00\n          swap1\n          sload\n          swap1\n          0x0100\n          exp\n          swap1\n          div\n          0xff\n          and\n            /* \"contracts/DataPunk/DataPunkCoinInter.sol\":729:745  return _decimals */\n          swap1\n          pop\n            /* \"contracts/DataPunk/DataPunkCoinInter.sol\":654:752  function decimals() public view virtual override returns (uint8) {... */\n          swap1\n          jump\t// out\n            /* \"@openzeppelin/contracts/token/ERC20/ERC20.sol\":3299:3415  function balanceOf(address account) public view virtual returns (uint256) {... */\n        tag_39:\n            /* \"@openzeppelin/contracts/token/ERC20/ERC20.sol\":3364:3371  uint256 */\n          0x00\n            /* \"@openzeppelin/contracts/token/ERC20/ERC20.sol\":3390:3399  _balances */\n          dup1\n            /* \"@openzeppelin/contracts/token/ERC20/ERC20.sol\":3390:3408  _balances[account] */\n          0x00\n            /* \"@openzeppelin/contracts/token/ERC20/ERC20.sol\":3400:3407  account */\n          dup4\n            /* \"@openzeppelin/contracts/token/ERC20/ERC20.sol\":3390:3408  _balances[account] */\n          0xffffffffffffffffffffffffffffffffffffffff\n          and\n          0xffffffffffffffffffffffffffffffffffffffff\n          and\n          dup2\n          mstore\n          0x20\n          add\n          swap1\n          dup2\n          mstore\n          0x20\n          add\n          0x00\n          keccak256\n          sload\n            /* \"@openzeppelin/contracts/token/ERC20/ERC20.sol\":3383:3408  return _balances[account] */\n          swap1\n          pop\n            /* \"@openzeppelin/contracts/token/ERC20/ERC20.sol\":3299:3415  function balanceOf(address account) public view virtual returns (uint256) {... */\n          swap2\n          swap1\n          pop\n          jump\t// out\n            /* \"@openzeppelin/contracts/token/ERC20/ERC20.sol\":2276:2369  function symbol() public view virtual returns (string memory) {... */\n        tag_42:\n            /* \"@openzeppelin/contracts/token/ERC20/ERC20.sol\":2323:2336  string memory */\n          0x60\n            /* \"@openzeppelin/contracts/token/ERC20/ERC20.sol\":2355:2362  _symbol */\n          0x04\n            /* \"@openzeppelin/contracts/token/ERC20/ERC20.sol\":2348:2362  return _symbol */\n          dup1\n          sload\n          tag_75\n          swap1\n          tag_55\n          jump\t// in\n        tag_75:\n          dup1\n          0x1f\n          add\n          0x20\n          dup1\n          swap2\n          div\n          mul\n          0x20\n          add\n          mload(0x40)\n          swap1\n          dup2\n          add\n          0x40\n          mstore\n          dup1\n          swap3\n          swap2\n          swap1\n          dup2\n          dup2\n          mstore\n          0x20\n          add\n          dup3\n          dup1\n          sload\n          tag_76\n          swap1\n          tag_55\n          jump\t// in\n        tag_76:\n          dup1\n          iszero\n          tag_77\n          jumpi\n          dup1\n          0x1f\n          lt\n          tag_78\n          jumpi\n          0x0100\n          dup1\n          dup4\n          sload\n          div\n          mul\n          dup4\n          mstore\n          swap2\n          0x20\n          add\n          swap2\n          jump(tag_77)\n        tag_78:\n          dup3\n          add\n          swap2\n          swap1\n          0x00\n          mstore\n          keccak256(0x00, 0x20)\n          swap1\n        tag_79:\n          dup2\n          sload\n          dup2\n          mstore\n          swap1\n          0x01\n          add\n          swap1\n          0x20\n          add\n          dup1\n          dup4\n          gt\n          tag_79\n          jumpi\n          dup3\n          swap1\n          sub\n          0x1f\n          and\n          dup3\n          add\n          swap2\n        tag_77:\n          pop\n          pop\n          pop\n          pop\n          pop\n          swap1\n          pop\n            /* \"@openzeppelin/contracts/token/ERC20/ERC20.sol\":2276:2369  function symbol() public view virtual returns (string memory) {... */\n          swap1\n          jump\t// out\n            /* \"@openzeppelin/contracts/token/ERC20/ERC20.sol\":3610:3788  function transfer(address to, uint256 value) public virtual returns (bool) {... */\n        tag_46:\n            /* \"@openzeppelin/contracts/token/ERC20/ERC20.sol\":3679:3683  bool */\n          0x00\n            /* \"@openzeppelin/contracts/token/ERC20/ERC20.sol\":3695:3708  address owner */\n          dup1\n            /* \"@openzeppelin/contracts/token/ERC20/ERC20.sol\":3711:3723  _msgSender() */\n          tag_81\n            /* \"@openzeppelin/contracts/token/ERC20/ERC20.sol\":3711:3721  _msgSender */\n          tag_62\n            /* \"@openzeppelin/contracts/token/ERC20/ERC20.sol\":3711:3723  _msgSender() */\n          jump\t// in\n        tag_81:\n            /* \"@openzeppelin/contracts/token/ERC20/ERC20.sol\":3695:3723  address owner = _msgSender() */\n          swap1\n          pop\n            /* \"@openzeppelin/contracts/token/ERC20/ERC20.sol\":3733:3760  _transfer(owner, to, value) */\n          tag_82\n            /* \"@openzeppelin/contracts/token/ERC20/ERC20.sol\":3743:3748  owner */\n          dup2\n            /* \"@openzeppelin/contracts/token/ERC20/ERC20.sol\":3750:3752  to */\n          dup6\n            /* \"@openzeppelin/contracts/token/ERC20/ERC20.sol\":3754:3759  value */\n          dup6\n            /* \"@openzeppelin/contracts/token/ERC20/ERC20.sol\":3733:3742  _transfer */\n          tag_71\n            /* \"@openzeppelin/contracts/token/ERC20/ERC20.sol\":3733:3760  _transfer(owner, to, value) */\n          jump\t// in\n        tag_82:\n            /* \"@openzeppelin/contracts/token/ERC20/ERC20.sol\":3777:3781  true */\n          0x01\n            /* \"@openzeppelin/contracts/token/ERC20/ERC20.sol\":3770:3781  return true */\n          swap2\n          pop\n          pop\n            /* \"@openzeppelin/contracts/token/ERC20/ERC20.sol\":3610:3788  function transfer(address to, uint256 value) public virtual returns (bool) {... */\n          swap3\n          swap2\n          pop\n          pop\n          jump\t// out\n            /* \"@openzeppelin/contracts/token/ERC20/ERC20.sol\":3846:3986  function allowance(address owner, address spender) public view virtual returns (uint256) {... */\n        tag_51:\n            /* \"@openzeppelin/contracts/token/ERC20/ERC20.sol\":3926:3933  uint256 */\n          0x00\n            /* \"@openzeppelin/contracts/token/ERC20/ERC20.sol\":3952:3963  _allowances */\n          0x01\n            /* \"@openzeppelin/contracts/token/ERC20/ERC20.sol\":3952:3970  _allowances[owner] */\n          0x00\n            /* \"@openzeppelin/contracts/token/ERC20/ERC20.sol\":3964:3969  owner */\n          dup5\n            /* \"@openzeppelin/contracts/token/ERC20/ERC20.sol\":3952:3970  _allowances[owner] */\n          0xffffffffffffffffffffffffffffffffffffffff\n          and\n          0xffffffffffffffffffffffffffffffffffffffff\n          and\n          dup2\n          mstore\n          0x20\n          add\n          swap1\n          dup2\n          mstore\n          0x20\n          add\n          0x00\n          keccak256\n            /* \"@openzeppelin/contracts/token/ERC20/ERC20.sol\":3952:3979  _allowances[owner][spender] */\n          0x00\n            /* \"@openzeppelin/contracts/token/ERC20/ERC20.sol\":3971:3978  spender */\n          dup4\n            /* \"@openzeppelin/contracts/token/ERC20/ERC20.sol\":3952:3979  _allowances[owner][spender] */\n          0xffffffffffffffffffffffffffffffffffffffff\n          and\n          0xffffffffffffffffffffffffffffffffffffffff\n          and\n          dup2\n          mstore\n          0x20\n          add\n          swap1\n          dup2\n          mstore\n          0x20\n          add\n          0x00\n          keccak256\n          sload\n            /* \"@openzeppelin/contracts/token/ERC20/ERC20.sol\":3945:3979  return _allowances[owner][spender] */\n          swap1\n          pop\n            /* \"@openzeppelin/contracts/token/ERC20/ERC20.sol\":3846:3986  function allowance(address owner, address spender) public view virtual returns (uint256) {... */\n          swap3\n          swap2\n          pop\n          pop\n          jump\t// out\n            /* \"@openzeppelin/contracts/utils/Context.sol\":656:752  function _msgSender() internal view virtual returns (address) {... */\n        tag_62:\n            /* \"@openzeppelin/contracts/utils/Context.sol\":709:716  address */\n          0x00\n            /* \"@openzeppelin/contracts/utils/Context.sol\":735:745  msg.sender */\n          caller\n            /* \"@openzeppelin/contracts/utils/Context.sol\":728:745  return msg.sender */\n          swap1\n          pop\n            /* \"@openzeppelin/contracts/utils/Context.sol\":656:752  function _msgSender() internal view virtual returns (address) {... */\n          swap1\n          jump\t// out\n            /* \"@openzeppelin/contracts/token/ERC20/ERC20.sol\":8989:9117  function _approve(address owner, address spender, uint256 value) internal {... */\n        tag_64:\n            /* \"@openzeppelin/contracts/token/ERC20/ERC20.sol\":9073:9110  _approve(owner, spender, value, true) */\n          tag_86\n            /* \"@openzeppelin/contracts/token/ERC20/ERC20.sol\":9082:9087  owner */\n          dup4\n            /* \"@openzeppelin/contracts/token/ERC20/ERC20.sol\":9089:9096  spender */\n          dup4\n            /* \"@openzeppelin/contracts/token/ERC20/ERC20.sol\":9098:9103  value */\n          dup4\n            /* \"@openzeppelin/contracts/token/ERC20/ERC20.sol\":9105:9109  true */\n          0x01\n            /* \"@openzeppelin/contracts/token/ERC20/ERC20.sol\":9073:9081  _approve */\n          tag_87\n            /* \"@openzeppelin/contracts/token/ERC20/ERC20.sol\":9073:9110  _approve(owner, spender, value, true) */\n          jump\t// in\n        tag_86:\n            /* \"@openzeppelin/contracts/token/ERC20/ERC20.sol\":8989:9117  function _approve(address owner, address spender, uint256 value) internal {... */\n          pop\n          pop\n          pop\n          jump\t// out\n            /* \"@openzeppelin/contracts/token/ERC20/ERC20.sol\":10663:11140  function _spendAllowance(address owner, address spender, uint256 value) internal virtual {... */\n        tag_69:\n            /* \"@openzeppelin/contracts/token/ERC20/ERC20.sol\":10762:10786  uint256 currentAllowance */\n          0x00\n            /* \"@openzeppelin/contracts/token/ERC20/ERC20.sol\":10789:10814  allowance(owner, spender) */\n          tag_89\n            /* \"@openzeppelin/contracts/token/ERC20/ERC20.sol\":10799:10804  owner */\n          dup5\n            /* \"@openzeppelin/contracts/token/ERC20/ERC20.sol\":10806:10813  spender */\n          dup5\n            /* \"@openzeppelin/contracts/token/ERC20/ERC20.sol\":10789:10798  allowance */\n          tag_51\n            /* \"@openzeppelin/contracts/token/ERC20/ERC20.sol\":10789:10814  allowance(owner, spender) */\n          jump\t// in\n        tag_89:\n            /* \"@openzeppelin/contracts/token/ERC20/ERC20.sol\":10762:10814  uint256 currentAllowance = allowance(owner, spender) */\n          swap1\n          pop\n            /* \"@openzeppelin/contracts/token/ERC20/ERC20.sol\":10848:10865  type(uint256).max */\n          0xffffffffffffffffffffffffffffffffffffffffffffffffffffffffffffffff\n            /* \"@openzeppelin/contracts/token/ERC20/ERC20.sol\":10828:10844  currentAllowance */\n          dup2\n            /* \"@openzeppelin/contracts/token/ERC20/ERC20.sol\":10828:10865  currentAllowance != type(uint256).max */\n          eq\n            /* \"@openzeppelin/contracts/token/ERC20/ERC20.sol\":10824:11134  if (currentAllowance != type(uint256).max) {... */\n          tag_90\n          jumpi\n            /* \"@openzeppelin/contracts/token/ERC20/ERC20.sol\":10904:10909  value */\n          dup2\n            /* \"@openzeppelin/contracts/token/ERC20/ERC20.sol\":10885:10901  currentAllowance */\n          dup2\n            /* \"@openzeppelin/contracts/token/ERC20/ERC20.sol\":10885:10909  currentAllowance < value */\n          lt\n            /* \"@openzeppelin/contracts/token/ERC20/ERC20.sol\":10881:11011  if (currentAllowance < value) {... */\n          iszero\n          tag_91\n          jumpi\n            /* \"@openzeppelin/contracts/token/ERC20/ERC20.sol\":10963:10970  spender */\n          dup3\n            /* \"@openzeppelin/contracts/token/ERC20/ERC20.sol\":10972:10988  currentAllowance */\n          dup2\n            /* \"@openzeppelin/contracts/token/ERC20/ERC20.sol\":10990:10995  value */\n          dup4\n            /* \"@openzeppelin/contracts/token/ERC20/ERC20.sol\":10936:10996  ERC20InsufficientAllowance(spender, currentAllowance, value) */\n          mload(0x40)\n          0xfb8f41b200000000000000000000000000000000000000000000000000000000\n          dup2\n          mstore\n          0x04\n          add\n          tag_92\n          swap4\n          swap3\n          swap2\n          swap1\n          tag_93\n          jump\t// in\n        tag_92:\n          mload(0x40)\n          dup1\n          swap2\n          sub\n          swap1\n          revert\n            /* \"@openzeppelin/contracts/token/ERC20/ERC20.sol\":10881:11011  if (currentAllowance < value) {... */\n        tag_91:\n            /* \"@openzeppelin/contracts/token/ERC20/ERC20.sol\":11052:11109  _approve(owner, spender, currentAllowance - value, false) */\n          tag_94\n            /* \"@openzeppelin/contracts/token/ERC20/ERC20.sol\":11061:11066  owner */\n          dup5\n            /* \"@openzeppelin/contracts/token/ERC20/ERC20.sol\":11068:11075  spender */\n          dup5\n            /* \"@openzeppelin/contracts/token/ERC20/ERC20.sol\":11096:11101  value */\n          dup5\n            /* \"@openzeppelin/contracts/token/ERC20/ERC20.sol\":11077:11093  currentAllowance */\n          dup5\n            /* \"@openzeppelin/contracts/token/ERC20/ERC20.sol\":11077:11101  currentAllowance - value */\n          sub\n            /* \"@openzeppelin/contracts/token/ERC20/ERC20.sol\":11103:11108  false */\n          0x00\n            /* \"@openzeppelin/contracts/token/ERC20/ERC20.sol\":11052:11060  _approve */\n          tag_87\n            /* \"@openzeppelin/contracts/token/ERC20/ERC20.sol\":11052:11109  _approve(owner, spender, currentAllowance - value, false) */\n          jump\t// in\n        tag_94:\n            /* \"@openzeppelin/contracts/token/ERC20/ERC20.sol\":10824:11134  if (currentAllowance != type(uint256).max) {... */\n        tag_90:\n            /* \"@openzeppelin/contracts/token/ERC20/ERC20.sol\":10752:11140  {... */\n          pop\n            /* \"@openzeppelin/contracts/token/ERC20/ERC20.sol\":10663:11140  function _spendAllowance(address owner, address spender, uint256 value) internal virtual {... */\n          pop\n          pop\n          pop\n          jump\t// out\n            /* \"@openzeppelin/contracts/token/ERC20/ERC20.sol\":5656:5956  function _transfer(address from, address to, uint256 value) internal {... */\n        tag_71:\n            /* \"@openzeppelin/contracts/token/ERC20/ERC20.sol\":5755:5756  0 */\n          0x00\n            /* \"@openzeppelin/contracts/token/ERC20/ERC20.sol\":5739:5757  from == address(0) */\n          0xffffffffffffffffffffffffffffffffffffffff\n          and\n            /* \"@openzeppelin/contracts/token/ERC20/ERC20.sol\":5739:5743  from */\n          dup4\n            /* \"@openzeppelin/contracts/token/ERC20/ERC20.sol\":5739:5757  from == address(0) */\n          0xffffffffffffffffffffffffffffffffffffffff\n          and\n          sub\n            /* \"@openzeppelin/contracts/token/ERC20/ERC20.sol\":5735:5821  if (from == address(0)) {... */\n          tag_96\n          jumpi\n            /* \"@openzeppelin/contracts/token/ERC20/ERC20.sol\":5807:5808  0 */\n          0x00\n            /* \"@openzeppelin/contracts/token/ERC20/ERC20.sol\":5780:5810  ERC20InvalidSender(address(0)) */\n          mload(0x40)\n          0x96c6fd1e00000000000000000000000000000000000000000000000000000000\n          dup2\n          mstore\n          0x04\n          add\n          tag_97\n          swap2\n          swap1\n          tag_98\n          jump\t// in\n        tag_97:\n          mload(0x40)\n          dup1\n          swap2\n          sub\n          swap1\n          revert\n            /* \"@openzeppelin/contracts/token/ERC20/ERC20.sol\":5735:5821  if (from == address(0)) {... */\n        tag_96:\n            /* \"@openzeppelin/contracts/token/ERC20/ERC20.sol\":5848:5849  0 */\n          0x00\n            /* \"@openzeppelin/contracts/token/ERC20/ERC20.sol\":5834:5850  to == address(0) */\n          0xffffffffffffffffffffffffffffffffffffffff\n          and\n            /* \"@openzeppelin/contracts/token/ERC20/ERC20.sol\":5834:5836  to */\n          dup3\n            /* \"@openzeppelin/contracts/token/ERC20/ERC20.sol\":5834:5850  to == address(0) */\n          0xffffffffffffffffffffffffffffffffffffffff\n          and\n          sub\n            /* \"@openzeppelin/contracts/token/ERC20/ERC20.sol\":5830:5916  if (to == address(0)) {... */\n          tag_99\n          jumpi\n            /* \"@openzeppelin/contracts/token/ERC20/ERC20.sol\":5902:5903  0 */\n          0x00\n            /* \"@openzeppelin/contracts/token/ERC20/ERC20.sol\":5873:5905  ERC20InvalidReceiver(address(0)) */\n          mload(0x40)\n          0xec442f0500000000000000000000000000000000000000000000000000000000\n          dup2\n          mstore\n          0x04\n          add\n          tag_100\n          swap2\n          swap1\n          tag_98\n          jump\t// in\n        tag_100:\n          mload(0x40)\n          dup1\n          swap2\n          sub\n          swap1\n          revert\n            /* \"@openzeppelin/contracts/token/ERC20/ERC20.sol\":5830:5916  if (to == address(0)) {... */\n        tag_99:\n            /* \"@openzeppelin/contracts/token/ERC20/ERC20.sol\":5925:5949  _update(from, to, value) */\n          tag_101\n            /* \"@openzeppelin/contracts/token/ERC20/ERC20.sol\":5933:5937  from */\n          dup4\n            /* \"@openzeppelin/contracts/token/ERC20/ERC20.sol\":5939:5941  to */\n          dup4\n            /* \"@openzeppelin/contracts/token/ERC20/ERC20.sol\":5943:5948  value */\n          dup4\n            /* \"@openzeppelin/contracts/token/ERC20/ERC20.sol\":5925:5932  _update */\n          tag_102\n            /* \"@openzeppelin/contracts/token/ERC20/ERC20.sol\":5925:5949  _update(from, to, value) */\n          jump\t// in\n        tag_101:\n            /* \"@openzeppelin/contracts/token/ERC20/ERC20.sol\":5656:5956  function _transfer(address from, address to, uint256 value) internal {... */\n          pop\n          pop\n          pop\n          jump\t// out\n            /* \"@openzeppelin/contracts/token/ERC20/ERC20.sol\":9949:10381  function _approve(address owner, address spender, uint256 value, bool emitEvent) internal virtual {... */\n        tag_87:\n            /* \"@openzeppelin/contracts/token/ERC20/ERC20.sol\":10078:10079  0 */\n          0x00\n            /* \"@openzeppelin/contracts/token/ERC20/ERC20.sol\":10061:10080  owner == address(0) */\n          0xffffffffffffffffffffffffffffffffffffffff\n          and\n            /* \"@openzeppelin/contracts/token/ERC20/ERC20.sol\":10061:10066  owner */\n          dup5\n            /* \"@openzeppelin/contracts/token/ERC20/ERC20.sol\":10061:10080  owner == address(0) */\n          0xffffffffffffffffffffffffffffffffffffffff\n          and\n          sub\n            /* \"@openzeppelin/contracts/token/ERC20/ERC20.sol\":10057:10146  if (owner == address(0)) {... */\n          tag_104\n          jumpi\n            /* \"@openzeppelin/contracts/token/ERC20/ERC20.sol\":10132:10133  0 */\n          0x00\n            /* \"@openzeppelin/contracts/token/ERC20/ERC20.sol\":10103:10135  ERC20InvalidApprover(address(0)) */\n          mload(0x40)\n          0xe602df0500000000000000000000000000000000000000000000000000000000\n          dup2\n          mstore\n          0x04\n          add\n          tag_105\n          swap2\n          swap1\n          tag_98\n          jump\t// in\n        tag_105:\n          mload(0x40)\n          dup1\n          swap2\n          sub\n          swap1\n          revert\n            /* \"@openzeppelin/contracts/token/ERC20/ERC20.sol\":10057:10146  if (owner == address(0)) {... */\n        tag_104:\n            /* \"@openzeppelin/contracts/token/ERC20/ERC20.sol\":10178:10179  0 */\n          0x00\n            /* \"@openzeppelin/contracts/token/ERC20/ERC20.sol\":10159:10180  spender == address(0) */\n          0xffffffffffffffffffffffffffffffffffffffff\n          and\n            /* \"@openzeppelin/contracts/token/ERC20/ERC20.sol\":10159:10166  spender */\n          dup4\n            /* \"@openzeppelin/contracts/token/ERC20/ERC20.sol\":10159:10180  spender == address(0) */\n          0xffffffffffffffffffffffffffffffffffffffff\n          and\n          sub\n            /* \"@openzeppelin/contracts/token/ERC20/ERC20.sol\":10155:10245  if (spender == address(0)) {... */\n          tag_106\n          jumpi\n            /* \"@openzeppelin/contracts/token/ERC20/ERC20.sol\":10231:10232  0 */\n          0x00\n            /* \"@openzeppelin/contracts/token/ERC20/ERC20.sol\":10203:10234  ERC20InvalidSpender(address(0)) */\n          mload(0x40)\n          0x94280d6200000000000000000000000000000000000000000000000000000000\n          dup2\n          mstore\n          0x04\n          add\n          tag_107\n          swap2\n          swap1\n          tag_98\n          jump\t// in\n        tag_107:\n          mload(0x40)\n          dup1\n          swap2\n          sub\n          swap1\n          revert\n            /* \"@openzeppelin/contracts/token/ERC20/ERC20.sol\":10155:10245  if (spender == address(0)) {... */\n        tag_106:\n            /* \"@openzeppelin/contracts/token/ERC20/ERC20.sol\":10284:10289  value */\n          dup2\n            /* \"@openzeppelin/contracts/token/ERC20/ERC20.sol\":10254:10265  _allowances */\n          0x01\n            /* \"@openzeppelin/contracts/token/ERC20/ERC20.sol\":10254:10272  _allowances[owner] */\n          0x00\n            /* \"@openzeppelin/contracts/token/ERC20/ERC20.sol\":10266:10271  owner */\n          dup7\n            /* \"@openzeppelin/contracts/token/ERC20/ERC20.sol\":10254:10272  _allowances[owner] */\n          0xffffffffffffffffffffffffffffffffffffffff\n          and\n          0xffffffffffffffffffffffffffffffffffffffff\n          and\n          dup2\n          mstore\n          0x20\n          add\n          swap1\n          dup2\n          mstore\n          0x20\n          add\n          0x00\n          keccak256\n            /* \"@openzeppelin/contracts/token/ERC20/ERC20.sol\":10254:10281  _allowances[owner][spender] */\n          0x00\n            /* \"@openzeppelin/contracts/token/ERC20/ERC20.sol\":10273:10280  spender */\n          dup6\n            /* \"@openzeppelin/contracts/token/ERC20/ERC20.sol\":10254:10281  _allowances[owner][spender] */\n          0xffffffffffffffffffffffffffffffffffffffff\n          and\n          0xffffffffffffffffffffffffffffffffffffffff\n          and\n          dup2\n          mstore\n          0x20\n          add\n          swap1\n          dup2\n          mstore\n          0x20\n          add\n          0x00\n          keccak256\n            /* \"@openzeppelin/contracts/token/ERC20/ERC20.sol\":10254:10289  _allowances[owner][spender] = value */\n          dup2\n          swap1\n          sstore\n          pop\n            /* \"@openzeppelin/contracts/token/ERC20/ERC20.sol\":10303:10312  emitEvent */\n          dup1\n            /* \"@openzeppelin/contracts/token/ERC20/ERC20.sol\":10299:10375  if (emitEvent) {... */\n          iszero\n          tag_108\n          jumpi\n            /* \"@openzeppelin/contracts/token/ERC20/ERC20.sol\":10349:10356  spender */\n          dup3\n            /* \"@openzeppelin/contracts/token/ERC20/ERC20.sol\":10333:10364  Approval(owner, spender, value) */\n          0xffffffffffffffffffffffffffffffffffffffff\n          and\n            /* \"@openzeppelin/contracts/token/ERC20/ERC20.sol\":10342:10347  owner */\n          dup5\n            /* \"@openzeppelin/contracts/token/ERC20/ERC20.sol\":10333:10364  Approval(owner, spender, value) */\n          0xffffffffffffffffffffffffffffffffffffffff\n          and\n          0x8c5be1e5ebec7d5bd14f71427d1e84f3dd0314c0f7b2291e5b200ac8c7c3b925\n            /* \"@openzeppelin/contracts/token/ERC20/ERC20.sol\":10358:10363  value */\n          dup5\n            /* \"@openzeppelin/contracts/token/ERC20/ERC20.sol\":10333:10364  Approval(owner, spender, value) */\n          mload(0x40)\n          tag_109\n          swap2\n          swap1\n          tag_26\n          jump\t// in\n        tag_109:\n          mload(0x40)\n          dup1\n          swap2\n          sub\n          swap1\n          log3\n            /* \"@openzeppelin/contracts/token/ERC20/ERC20.sol\":10299:10375  if (emitEvent) {... */\n        tag_108:\n            /* \"@openzeppelin/contracts/token/ERC20/ERC20.sol\":9949:10381  function _approve(address owner, address spender, uint256 value, bool emitEvent) internal virtual {... */\n          pop\n          pop\n          pop\n          pop\n          jump\t// out\n            /* \"@openzeppelin/contracts/token/ERC20/ERC20.sol\":6271:7378  function _update(address from, address to, uint256 value) internal virtual {... */\n        tag_102:\n            /* \"@openzeppelin/contracts/token/ERC20/ERC20.sol\":6376:6377  0 */\n          0x00\n            /* \"@openzeppelin/contracts/token/ERC20/ERC20.sol\":6360:6378  from == address(0) */\n          0xffffffffffffffffffffffffffffffffffffffff\n          and\n            /* \"@openzeppelin/contracts/token/ERC20/ERC20.sol\":6360:6364  from */\n          dup4\n            /* \"@openzeppelin/contracts/token/ERC20/ERC20.sol\":6360:6378  from == address(0) */\n          0xffffffffffffffffffffffffffffffffffffffff\n          and\n          sub\n            /* \"@openzeppelin/contracts/token/ERC20/ERC20.sol\":6356:6896  if (from == address(0)) {... */\n          tag_111\n          jumpi\n            /* \"@openzeppelin/contracts/token/ERC20/ERC20.sol\":6512:6517  value */\n          dup1\n            /* \"@openzeppelin/contracts/token/ERC20/ERC20.sol\":6496:6508  _totalSupply */\n          0x02\n          0x00\n            /* \"@openzeppelin/contracts/token/ERC20/ERC20.sol\":6496:6517  _totalSupply += value */\n          dup3\n          dup3\n          sload\n          tag_112\n          swap2\n          swap1\n          tag_113\n          jump\t// in\n        tag_112:\n          swap3\n          pop\n          pop\n          dup2\n          swap1\n          sstore\n          pop\n            /* \"@openzeppelin/contracts/token/ERC20/ERC20.sol\":6356:6896  if (from == address(0)) {... */\n          jump(tag_114)\n        tag_111:\n            /* \"@openzeppelin/contracts/token/ERC20/ERC20.sol\":6548:6567  uint256 fromBalance */\n          0x00\n            /* \"@openzeppelin/contracts/token/ERC20/ERC20.sol\":6570:6579  _balances */\n          dup1\n            /* \"@openzeppelin/contracts/token/ERC20/ERC20.sol\":6570:6585  _balances[from] */\n          0x00\n            /* \"@openzeppelin/contracts/token/ERC20/ERC20.sol\":6580:6584  from */\n          dup6\n            /* \"@openzeppelin/contracts/token/ERC20/ERC20.sol\":6570:6585  _balances[from] */\n          0xffffffffffffffffffffffffffffffffffffffff\n          and\n          0xffffffffffffffffffffffffffffffffffffffff\n          and\n          dup2\n          mstore\n          0x20\n          add\n          swap1\n          dup2\n          mstore\n          0x20\n          add\n          0x00\n          keccak256\n          sload\n            /* \"@openzeppelin/contracts/token/ERC20/ERC20.sol\":6548:6585  uint256 fromBalance = _balances[from] */\n          swap1\n          pop\n            /* \"@openzeppelin/contracts/token/ERC20/ERC20.sol\":6617:6622  value */\n          dup2\n            /* \"@openzeppelin/contracts/token/ERC20/ERC20.sol\":6603:6614  fromBalance */\n          dup2\n            /* \"@openzeppelin/contracts/token/ERC20/ERC20.sol\":6603:6622  fromBalance < value */\n          lt\n            /* \"@openzeppelin/contracts/token/ERC20/ERC20.sol\":6599:6714  if (fromBalance < value) {... */\n          iszero\n          tag_115\n          jumpi\n            /* \"@openzeppelin/contracts/token/ERC20/ERC20.sol\":6674:6678  from */\n          dup4\n            /* \"@openzeppelin/contracts/token/ERC20/ERC20.sol\":6680:6691  fromBalance */\n          dup2\n            /* \"@openzeppelin/contracts/token/ERC20/ERC20.sol\":6693:6698  value */\n          dup4\n            /* \"@openzeppelin/contracts/token/ERC20/ERC20.sol\":6649:6699  ERC20InsufficientBalance(from, fromBalance, value) */\n          mload(0x40)\n          0xe450d38c00000000000000000000000000000000000000000000000000000000\n          dup2\n          mstore\n          0x04\n          add\n          tag_116\n          swap4\n          swap3\n          swap2\n          swap1\n          tag_93\n          jump\t// in\n        tag_116:\n          mload(0x40)\n          dup1\n          swap2\n          sub\n          swap1\n          revert\n            /* \"@openzeppelin/contracts/token/ERC20/ERC20.sol\":6599:6714  if (fromBalance < value) {... */\n        tag_115:\n            /* \"@openzeppelin/contracts/token/ERC20/ERC20.sol\":6866:6871  value */\n          dup2\n            /* \"@openzeppelin/contracts/token/ERC20/ERC20.sol\":6852:6863  fromBalance */\n          dup2\n            /* \"@openzeppelin/contracts/token/ERC20/ERC20.sol\":6852:6871  fromBalance - value */\n          sub\n            /* \"@openzeppelin/contracts/token/ERC20/ERC20.sol\":6834:6843  _balances */\n          0x00\n            /* \"@openzeppelin/contracts/token/ERC20/ERC20.sol\":6834:6849  _balances[from] */\n          dup1\n            /* \"@openzeppelin/contracts/token/ERC20/ERC20.sol\":6844:6848  from */\n          dup7\n            /* \"@openzeppelin/contracts/token/ERC20/ERC20.sol\":6834:6849  _balances[from] */\n          0xffffffffffffffffffffffffffffffffffffffff\n          and\n          0xffffffffffffffffffffffffffffffffffffffff\n          and\n          dup2\n          mstore\n          0x20\n          add\n          swap1\n          dup2\n          mstore\n          0x20\n          add\n          0x00\n          keccak256\n            /* \"@openzeppelin/contracts/token/ERC20/ERC20.sol\":6834:6871  _balances[from] = fromBalance - value */\n          dup2\n          swap1\n          sstore\n          pop\n            /* \"@openzeppelin/contracts/token/ERC20/ERC20.sol\":6534:6896  {... */\n          pop\n            /* \"@openzeppelin/contracts/token/ERC20/ERC20.sol\":6356:6896  if (from == address(0)) {... */\n        tag_114:\n            /* \"@openzeppelin/contracts/token/ERC20/ERC20.sol\":6924:6925  0 */\n          0x00\n            /* \"@openzeppelin/contracts/token/ERC20/ERC20.sol\":6910:6926  to == address(0) */\n          0xffffffffffffffffffffffffffffffffffffffff\n          and\n            /* \"@openzeppelin/contracts/token/ERC20/ERC20.sol\":6910:6912  to */\n          dup3\n            /* \"@openzeppelin/contracts/token/ERC20/ERC20.sol\":6910:6926  to == address(0) */\n          0xffffffffffffffffffffffffffffffffffffffff\n          and\n          sub\n            /* \"@openzeppelin/contracts/token/ERC20/ERC20.sol\":6906:7331  if (to == address(0)) {... */\n          tag_117\n          jumpi\n            /* \"@openzeppelin/contracts/token/ERC20/ERC20.sol\":7089:7094  value */\n          dup1\n            /* \"@openzeppelin/contracts/token/ERC20/ERC20.sol\":7073:7085  _totalSupply */\n          0x02\n          0x00\n            /* \"@openzeppelin/contracts/token/ERC20/ERC20.sol\":7073:7094  _totalSupply -= value */\n          dup3\n          dup3\n          sload\n          sub\n          swap3\n          pop\n          pop\n          dup2\n          swap1\n          sstore\n          pop\n            /* \"@openzeppelin/contracts/token/ERC20/ERC20.sol\":6906:7331  if (to == address(0)) {... */\n          jump(tag_118)\n        tag_117:\n            /* \"@openzeppelin/contracts/token/ERC20/ERC20.sol\":7301:7306  value */\n          dup1\n            /* \"@openzeppelin/contracts/token/ERC20/ERC20.sol\":7284:7293  _balances */\n          0x00\n            /* \"@openzeppelin/contracts/token/ERC20/ERC20.sol\":7284:7297  _balances[to] */\n          dup1\n            /* \"@openzeppelin/contracts/token/ERC20/ERC20.sol\":7294:7296  to */\n          dup5\n            /* \"@openzeppelin/contracts/token/ERC20/ERC20.sol\":7284:7297  _balances[to] */\n          0xffffffffffffffffffffffffffffffffffffffff\n          and\n          0xffffffffffffffffffffffffffffffffffffffff\n          and\n          dup2\n          mstore\n          0x20\n          add\n          swap1\n          dup2\n          mstore\n          0x20\n          add\n          0x00\n          keccak256\n          0x00\n            /* \"@openzeppelin/contracts/token/ERC20/ERC20.sol\":7284:7306  _balances[to] += value */\n          dup3\n          dup3\n          sload\n          add\n          swap3\n          pop\n          pop\n          dup2\n          swap1\n          sstore\n          pop\n            /* \"@openzeppelin/contracts/token/ERC20/ERC20.sol\":6906:7331  if (to == address(0)) {... */\n        tag_118:\n            /* \"@openzeppelin/contracts/token/ERC20/ERC20.sol\":7361:7363  to */\n          dup2\n            /* \"@openzeppelin/contracts/token/ERC20/ERC20.sol\":7346:7371  Transfer(from, to, value) */\n          0xffffffffffffffffffffffffffffffffffffffff\n          and\n            /* \"@openzeppelin/contracts/token/ERC20/ERC20.sol\":7355:7359  from */\n          dup4\n            /* \"@openzeppelin/contracts/token/ERC20/ERC20.sol\":7346:7371  Transfer(from, to, value) */\n          0xffffffffffffffffffffffffffffffffffffffff\n          and\n          0xddf252ad1be2c89b69c2b068fc378daa952ba7f163c4a11628f55a4df523b3ef\n            /* \"@openzeppelin/contracts/token/ERC20/ERC20.sol\":7365:7370  value */\n          dup4\n            /* \"@openzeppelin/contracts/token/ERC20/ERC20.sol\":7346:7371  Transfer(from, to, value) */\n          mload(0x40)\n          tag_119\n          swap2\n          swap1\n          tag_26\n          jump\t// in\n        tag_119:\n          mload(0x40)\n          dup1\n          swap2\n          sub\n          swap1\n          log3\n            /* \"@openzeppelin/contracts/token/ERC20/ERC20.sol\":6271:7378  function _update(address from, address to, uint256 value) internal virtual {... */\n          pop\n          pop\n          pop\n          jump\t// out\n            /* \"#utility.yul\":7:106   */\n        tag_120:\n            /* \"#utility.yul\":59:65   */\n          0x00\n            /* \"#utility.yul\":93:98   */\n          dup2\n            /* \"#utility.yul\":87:99   */\n          mload\n            /* \"#utility.yul\":77:99   */\n          swap1\n          pop\n            /* \"#utility.yul\":7:106   */\n          swap2\n          swap1\n          pop\n          jump\t// out\n            /* \"#utility.yul\":112:281   */\n        tag_121:\n            /* \"#utility.yul\":196:207   */\n          0x00\n            /* \"#utility.yul\":230:236   */\n          dup3\n            /* \"#utility.yul\":225:228   */\n          dup3\n            /* \"#utility.yul\":218:237   */\n          mstore\n            /* \"#utility.yul\":270:274   */\n          0x20\n            /* \"#utility.yul\":265:268   */\n          dup3\n            /* \"#utility.yul\":261:275   */\n          add\n            /* \"#utility.yul\":246:275   */\n          swap1\n          pop\n            /* \"#utility.yul\":112:281   */\n          swap3\n          swap2\n          pop\n          pop\n          jump\t// out\n            /* \"#utility.yul\":287:426   */\n        tag_122:\n            /* \"#utility.yul\":376:382   */\n          dup3\n            /* \"#utility.yul\":371:374   */\n          dup2\n            /* \"#utility.yul\":366:369   */\n          dup4\n            /* \"#utility.yul\":360:383   */\n          mcopy\n            /* \"#utility.yul\":417:418   */\n          0x00\n            /* \"#utility.yul\":408:414   */\n          dup4\n            /* \"#utility.yul\":403:406   */\n          dup4\n            /* \"#utility.yul\":399:415   */\n          add\n            /* \"#utility.yul\":392:419   */\n          mstore\n            /* \"#utility.yul\":287:426   */\n          pop\n          pop\n          pop\n          jump\t// out\n            /* \"#utility.yul\":432:534   */\n        tag_123:\n            /* \"#utility.yul\":473:479   */\n          0x00\n            /* \"#utility.yul\":524:526   */\n          0x1f\n            /* \"#utility.yul\":520:527   */\n          not\n            /* \"#utility.yul\":515:517   */\n          0x1f\n            /* \"#utility.yul\":508:513   */\n          dup4\n            /* \"#utility.yul\":504:518   */\n          add\n            /* \"#utility.yul\":500:528   */\n          and\n            /* \"#utility.yul\":490:528   */\n          swap1\n          pop\n            /* \"#utility.yul\":432:534   */\n          swap2\n          swap1\n          pop\n          jump\t// out\n            /* \"#utility.yul\":540:917   */\n        tag_124:\n            /* \"#utility.yul\":628:631   */\n          0x00\n            /* \"#utility.yul\":656:695   */\n          tag_149\n            /* \"#utility.yul\":689:694   */\n          dup3\n            /* \"#utility.yul\":656:695   */\n          tag_120\n          jump\t// in\n        tag_149:\n            /* \"#utility.yul\":711:782   */\n          tag_150\n            /* \"#utility.yul\":775:781   */\n          dup2\n            /* \"#utility.yul\":770:773   */\n          dup6\n            /* \"#utility.yul\":711:782   */\n          tag_121\n          jump\t// in\n        tag_150:\n            /* \"#utility.yul\":704:782   */\n          swap4\n          pop\n            /* \"#utility.yul\":791:856   */\n          tag_151\n            /* \"#utility.yul\":849:855   */\n          dup2\n            /* \"#utility.yul\":844:847   */\n          dup6\n            /* \"#utility.yul\":837:841   */\n          0x20\n            /* \"#utility.yul\":830:835   */\n          dup7\n            /* \"#utility.yul\":826:842   */\n          add\n            /* \"#utility.yul\":791:856   */\n          tag_122\n          jump\t// in\n        tag_151:\n            /* \"#utility.yul\":881:910   */\n          tag_152\n            /* \"#utility.yul\":903:909   */\n          dup2\n            /* \"#utility.yul\":881:910   */\n          tag_123\n          jump\t// in\n        tag_152:\n            /* \"#utility.yul\":876:879   */\n          dup5\n            /* \"#utility.yul\":872:911   */\n          add\n            /* \"#utility.yul\":865:911   */\n          swap2\n          pop\n            /* \"#utility.yul\":632:917   */\n          pop\n            /* \"#utility.yul\":540:917   */\n          swap3\n          swap2\n          pop\n          pop\n          jump\t// out\n            /* \"#utility.yul\":923:1236   */\n        tag_16:\n            /* \"#utility.yul\":1036:1040   */\n          0x00\n            /* \"#utility.yul\":1074:1076   */\n          0x20\n            /* \"#utility.yul\":1063:1072   */\n          dup3\n            /* \"#utility.yul\":1059:1077   */\n          add\n            /* \"#utility.yul\":1051:1077   */\n          swap1\n          pop\n            /* \"#utility.yul\":1123:1132   */\n          dup2\n            /* \"#utility.yul\":1117:1121   */\n          dup2\n            /* \"#utility.yul\":1113:1133   */\n          sub\n            /* \"#utility.yul\":1109:1110   */\n          0x00\n            /* \"#utility.yul\":1098:1107   */\n          dup4\n            /* \"#utility.yul\":1094:1111   */\n          add\n            /* \"#utility.yul\":1087:1134   */\n          mstore\n            /* \"#utility.yul\":1151:1229   */\n          tag_154\n            /* \"#utility.yul\":1224:1228   */\n          dup2\n            /* \"#utility.yul\":1215:1221   */\n          dup5\n            /* \"#utility.yul\":1151:1229   */\n          tag_124\n          jump\t// in\n        tag_154:\n            /* \"#utility.yul\":1143:1229   */\n          swap1\n          pop\n            /* \"#utility.yul\":923:1236   */\n          swap3\n          swap2\n          pop\n          pop\n          jump\t// out\n            /* \"#utility.yul\":1323:1440   */\n        tag_126:\n            /* \"#utility.yul\":1432:1433   */\n          0x00\n            /* \"#utility.yul\":1429:1430   */\n          dup1\n            /* \"#utility.yul\":1422:1434   */\n          revert\n            /* \"#utility.yul\":1569:1695   */\n        tag_128:\n            /* \"#utility.yul\":1606:1613   */\n          0x00\n            /* \"#utility.yul\":1646:1688   */\n          0xffffffffffffffffffffffffffffffffffffffff\n            /* \"#utility.yul\":1639:1644   */\n          dup3\n            /* \"#utility.yul\":1635:1689   */\n          and\n            /* \"#utility.yul\":1624:1689   */\n          swap1\n          pop\n            /* \"#utility.yul\":1569:1695   */\n          swap2\n          swap1\n          pop\n          jump\t// out\n            /* \"#utility.yul\":1701:1797   */\n        tag_129:\n            /* \"#utility.yul\":1738:1745   */\n          0x00\n            /* \"#utility.yul\":1767:1791   */\n          tag_160\n            /* \"#utility.yul\":1785:1790   */\n          dup3\n            /* \"#utility.yul\":1767:1791   */\n          tag_128\n          jump\t// in\n        tag_160:\n            /* \"#utility.yul\":1756:1791   */\n          swap1\n          pop\n            /* \"#utility.yul\":1701:1797   */\n          swap2\n          swap1\n          pop\n          jump\t// out\n            /* \"#utility.yul\":1803:1925   */\n        tag_130:\n            /* \"#utility.yul\":1876:1900   */\n          tag_162\n            /* \"#utility.yul\":1894:1899   */\n          dup2\n            /* \"#utility.yul\":1876:1900   */\n          tag_129\n          jump\t// in\n        tag_162:\n            /* \"#utility.yul\":1869:1874   */\n          dup2\n            /* \"#utility.yul\":1866:1901   */\n          eq\n            /* \"#utility.yul\":1856:1919   */\n          tag_163\n          jumpi\n            /* \"#utility.yul\":1915:1916   */\n          0x00\n            /* \"#utility.yul\":1912:1913   */\n          dup1\n            /* \"#utility.yul\":1905:1917   */\n          revert\n            /* \"#utility.yul\":1856:1919   */\n        tag_163:\n            /* \"#utility.yul\":1803:1925   */\n          pop\n          jump\t// out\n            /* \"#utility.yul\":1931:2070   */\n        tag_131:\n            /* \"#utility.yul\":1977:1982   */\n          0x00\n            /* \"#utility.yul\":2015:2021   */\n          dup2\n            /* \"#utility.yul\":2002:2022   */\n          calldataload\n            /* \"#utility.yul\":1993:2022   */\n          swap1\n          pop\n            /* \"#utility.yul\":2031:2064   */\n          tag_165\n            /* \"#utility.yul\":2058:2063   */\n          dup2\n            /* \"#utility.yul\":2031:2064   */\n          tag_130\n          jump\t// in\n        tag_165:\n            /* \"#utility.yul\":1931:2070   */\n          swap3\n          swap2\n          pop\n          pop\n          jump\t// out\n            /* \"#utility.yul\":2076:2153   */\n        tag_132:\n            /* \"#utility.yul\":2113:2120   */\n          0x00\n            /* \"#utility.yul\":2142:2147   */\n          dup2\n            /* \"#utility.yul\":2131:2147   */\n          swap1\n          pop\n            /* \"#utility.yul\":2076:2153   */\n          swap2\n          swap1\n          pop\n          jump\t// out\n            /* \"#utility.yul\":2159:2281   */\n        tag_133:\n            /* \"#utility.yul\":2232:2256   */\n          tag_168\n            /* \"#utility.yul\":2250:2255   */\n          dup2\n            /* \"#utility.yul\":2232:2256   */\n          tag_132\n          jump\t// in\n        tag_168:\n            /* \"#utility.yul\":2225:2230   */\n          dup2\n            /* \"#utility.yul\":2222:2257   */\n          eq\n            /* \"#utility.yul\":2212:2275   */\n          tag_169\n          jumpi\n            /* \"#utility.yul\":2271:2272   */\n          0x00\n            /* \"#utility.yul\":2268:2269   */\n          dup1\n            /* \"#utility.yul\":2261:2273   */\n          revert\n            /* \"#utility.yul\":2212:2275   */\n        tag_169:\n            /* \"#utility.yul\":2159:2281   */\n          pop\n          jump\t// out\n            /* \"#utility.yul\":2287:2426   */\n        tag_134:\n            /* \"#utility.yul\":2333:2338   */\n          0x00\n            /* \"#utility.yul\":2371:2377   */\n          dup2\n            /* \"#utility.yul\":2358:2378   */\n          calldataload\n            /* \"#utility.yul\":2349:2378   */\n          swap1\n          pop\n            /* \"#utility.yul\":2387:2420   */\n          tag_171\n            /* \"#utility.yul\":2414:2419   */\n          dup2\n            /* \"#utility.yul\":2387:2420   */\n          tag_133\n          jump\t// in\n        tag_171:\n            /* \"#utility.yul\":2287:2426   */\n          swap3\n          swap2\n          pop\n          pop\n          jump\t// out\n            /* \"#utility.yul\":2432:2906   */\n        tag_19:\n            /* \"#utility.yul\":2500:2506   */\n          0x00\n            /* \"#utility.yul\":2508:2514   */\n          dup1\n            /* \"#utility.yul\":2557:2559   */\n          0x40\n            /* \"#utility.yul\":2545:2554   */\n          dup4\n            /* \"#utility.yul\":2536:2543   */\n          dup6\n            /* \"#utility.yul\":2532:2555   */\n          sub\n            /* \"#utility.yul\":2528:2560   */\n          slt\n            /* \"#utility.yul\":2525:2644   */\n          iszero\n          tag_173\n          jumpi\n            /* \"#utility.yul\":2563:2642   */\n          tag_174\n          tag_126\n          jump\t// in\n        tag_174:\n            /* \"#utility.yul\":2525:2644   */\n        tag_173:\n            /* \"#utility.yul\":2683:2684   */\n          0x00\n            /* \"#utility.yul\":2708:2761   */\n          tag_175\n            /* \"#utility.yul\":2753:2760   */\n          dup6\n            /* \"#utility.yul\":2744:2750   */\n          dup3\n            /* \"#utility.yul\":2733:2742   */\n          dup7\n            /* \"#utility.yul\":2729:2751   */\n          add\n            /* \"#utility.yul\":2708:2761   */\n          tag_131\n          jump\t// in\n        tag_175:\n            /* \"#utility.yul\":2698:2761   */\n          swap3\n          pop\n            /* \"#utility.yul\":2654:2771   */\n          pop\n            /* \"#utility.yul\":2810:2812   */\n          0x20\n            /* \"#utility.yul\":2836:2889   */\n          tag_176\n            /* \"#utility.yul\":2881:2888   */\n          dup6\n            /* \"#utility.yul\":2872:2878   */\n          dup3\n            /* \"#utility.yul\":2861:2870   */\n          dup7\n            /* \"#utility.yul\":2857:2879   */\n          add\n            /* \"#utility.yul\":2836:2889   */\n          tag_134\n          jump\t// in\n        tag_176:\n            /* \"#utility.yul\":2826:2889   */\n          swap2\n          pop\n            /* \"#utility.yul\":2781:2899   */\n          pop\n            /* \"#utility.yul\":2432:2906   */\n          swap3\n          pop\n          swap3\n          swap1\n          pop\n          jump\t// out\n            /* \"#utility.yul\":2912:3002   */\n        tag_135:\n            /* \"#utility.yul\":2946:2953   */\n          0x00\n            /* \"#utility.yul\":2989:2994   */\n          dup2\n            /* \"#utility.yul\":2982:2995   */\n          iszero\n            /* \"#utility.yul\":2975:2996   */\n          iszero\n            /* \"#utility.yul\":2964:2996   */\n          swap1\n          pop\n            /* \"#utility.yul\":2912:3002   */\n          swap2\n          swap1\n          pop\n          jump\t// out\n            /* \"#utility.yul\":3008:3117   */\n        tag_136:\n            /* \"#utility.yul\":3089:3110   */\n          tag_179\n            /* \"#utility.yul\":3104:3109   */\n          dup2\n            /* \"#utility.yul\":3089:3110   */\n          tag_135\n          jump\t// in\n        tag_179:\n            /* \"#utility.yul\":3084:3087   */\n          dup3\n            /* \"#utility.yul\":3077:3111   */\n          mstore\n            /* \"#utility.yul\":3008:3117   */\n          pop\n          pop\n          jump\t// out\n            /* \"#utility.yul\":3123:3333   */\n        tag_22:\n            /* \"#utility.yul\":3210:3214   */\n          0x00\n            /* \"#utility.yul\":3248:3250   */\n          0x20\n            /* \"#utility.yul\":3237:3246   */\n          dup3\n            /* \"#utility.yul\":3233:3251   */\n          add\n            /* \"#utility.yul\":3225:3251   */\n          swap1\n          pop\n            /* \"#utility.yul\":3261:3326   */\n          tag_181\n            /* \"#utility.yul\":3323:3324   */\n          0x00\n            /* \"#utility.yul\":3312:3321   */\n          dup4\n            /* \"#utility.yul\":3308:3325   */\n          add\n            /* \"#utility.yul\":3299:3305   */\n          dup5\n            /* \"#utility.yul\":3261:3326   */\n          tag_136\n          jump\t// in\n        tag_181:\n            /* \"#utility.yul\":3123:3333   */\n          swap3\n          swap2\n          pop\n          pop\n          jump\t// out\n            /* \"#utility.yul\":3339:3457   */\n        tag_137:\n            /* \"#utility.yul\":3426:3450   */\n          tag_183\n            /* \"#utility.yul\":3444:3449   */\n          dup2\n            /* \"#utility.yul\":3426:3450   */\n          tag_132\n          jump\t// in\n        tag_183:\n            /* \"#utility.yul\":3421:3424   */\n          dup3\n            /* \"#utility.yul\":3414:3451   */\n          mstore\n            /* \"#utility.yul\":3339:3457   */\n          pop\n          pop\n          jump\t// out\n            /* \"#utility.yul\":3463:3685   */\n        tag_26:\n            /* \"#utility.yul\":3556:3560   */\n          0x00\n            /* \"#utility.yul\":3594:3596   */\n          0x20\n            /* \"#utility.yul\":3583:3592   */\n          dup3\n            /* \"#utility.yul\":3579:3597   */\n          add\n            /* \"#utility.yul\":3571:3597   */\n          swap1\n          pop\n            /* \"#utility.yul\":3607:3678   */\n          tag_185\n            /* \"#utility.yul\":3675:3676   */\n          0x00\n            /* \"#utility.yul\":3664:3673   */\n          dup4\n            /* \"#utility.yul\":3660:3677   */\n          add\n            /* \"#utility.yul\":3651:3657   */\n          dup5\n            /* \"#utility.yul\":3607:3678   */\n          tag_137\n          jump\t// in\n        tag_185:\n            /* \"#utility.yul\":3463:3685   */\n          swap3\n          swap2\n          pop\n          pop\n          jump\t// out\n            /* \"#utility.yul\":3691:4310   */\n        tag_29:\n            /* \"#utility.yul\":3768:3774   */\n          0x00\n            /* \"#utility.yul\":3776:3782   */\n          dup1\n            /* \"#utility.yul\":3784:3790   */\n          0x00\n            /* \"#utility.yul\":3833:3835   */\n          0x60\n            /* \"#utility.yul\":3821:3830   */\n          dup5\n            /* \"#utility.yul\":3812:3819   */\n          dup7\n            /* \"#utility.yul\":3808:3831   */\n          sub\n            /* \"#utility.yul\":3804:3836   */\n          slt\n            /* \"#utility.yul\":3801:3920   */\n          iszero\n          tag_187\n          jumpi\n            /* \"#utility.yul\":3839:3918   */\n          tag_188\n          tag_126\n          jump\t// in\n        tag_188:\n            /* \"#utility.yul\":3801:3920   */\n        tag_187:\n            /* \"#utility.yul\":3959:3960   */\n          0x00\n            /* \"#utility.yul\":3984:4037   */\n          tag_189\n            /* \"#utility.yul\":4029:4036   */\n          dup7\n            /* \"#utility.yul\":4020:4026   */\n          dup3\n            /* \"#utility.yul\":4009:4018   */\n          dup8\n            /* \"#utility.yul\":4005:4027   */\n          add\n            /* \"#utility.yul\":3984:4037   */\n          tag_131\n          jump\t// in\n        tag_189:\n            /* \"#utility.yul\":3974:4037   */\n          swap4\n          pop\n            /* \"#utility.yul\":3930:4047   */\n          pop\n            /* \"#utility.yul\":4086:4088   */\n          0x20\n            /* \"#utility.yul\":4112:4165   */\n          tag_190\n            /* \"#utility.yul\":4157:4164   */\n          dup7\n            /* \"#utility.yul\":4148:4154   */\n          dup3\n            /* \"#utility.yul\":4137:4146   */\n          dup8\n            /* \"#utility.yul\":4133:4155   */\n          add\n            /* \"#utility.yul\":4112:4165   */\n          tag_131\n          jump\t// in\n        tag_190:\n            /* \"#utility.yul\":4102:4165   */\n          swap3\n          pop\n            /* \"#utility.yul\":4057:4175   */\n          pop\n            /* \"#utility.yul\":4214:4216   */\n          0x40\n            /* \"#utility.yul\":4240:4293   */\n          tag_191\n            /* \"#utility.yul\":4285:4292   */\n          dup7\n            /* \"#utility.yul\":4276:4282   */\n          dup3\n            /* \"#utility.yul\":4265:4274   */\n          dup8\n            /* \"#utility.yul\":4261:4283   */\n          add\n            /* \"#utility.yul\":4240:4293   */\n          tag_134\n          jump\t// in\n        tag_191:\n            /* \"#utility.yul\":4230:4293   */\n          swap2\n          pop\n            /* \"#utility.yul\":4185:4303   */\n          pop\n            /* \"#utility.yul\":3691:4310   */\n          swap3\n          pop\n          swap3\n          pop\n          swap3\n          jump\t// out\n            /* \"#utility.yul\":4316:4402   */\n        tag_138:\n            /* \"#utility.yul\":4351:4358   */\n          0x00\n            /* \"#utility.yul\":4391:4395   */\n          0xff\n            /* \"#utility.yul\":4384:4389   */\n          dup3\n            /* \"#utility.yul\":4380:4396   */\n          and\n            /* \"#utility.yul\":4369:4396   */\n          swap1\n          pop\n            /* \"#utility.yul\":4316:4402   */\n          swap2\n          swap1\n          pop\n          jump\t// out\n            /* \"#utility.yul\":4408:4520   */\n        tag_139:\n            /* \"#utility.yul\":4491:4513   */\n          tag_194\n            /* \"#utility.yul\":4507:4512   */\n          dup2\n            /* \"#utility.yul\":4491:4513   */\n          tag_138\n          jump\t// in\n        tag_194:\n            /* \"#utility.yul\":4486:4489   */\n          dup3\n            /* \"#utility.yul\":4479:4514   */\n          mstore\n            /* \"#utility.yul\":4408:4520   */\n          pop\n          pop\n          jump\t// out\n            /* \"#utility.yul\":4526:4740   */\n        tag_35:\n            /* \"#utility.yul\":4615:4619   */\n          0x00\n            /* \"#utility.yul\":4653:4655   */\n          0x20\n            /* \"#utility.yul\":4642:4651   */\n          dup3\n            /* \"#utility.yul\":4638:4656   */\n          add\n            /* \"#utility.yul\":4630:4656   */\n          swap1\n          pop\n            /* \"#utility.yul\":4666:4733   */\n          tag_196\n            /* \"#utility.yul\":4730:4731   */\n          0x00\n            /* \"#utility.yul\":4719:4728   */\n          dup4\n            /* \"#utility.yul\":4715:4732   */\n          add\n            /* \"#utility.yul\":4706:4712   */\n          dup5\n            /* \"#utility.yul\":4666:4733   */\n          tag_139\n          jump\t// in\n        tag_196:\n            /* \"#utility.yul\":4526:4740   */\n          swap3\n          swap2\n          pop\n          pop\n          jump\t// out\n            /* \"#utility.yul\":4746:5075   */\n        tag_38:\n            /* \"#utility.yul\":4805:4811   */\n          0x00\n            /* \"#utility.yul\":4854:4856   */\n          0x20\n            /* \"#utility.yul\":4842:4851   */\n          dup3\n            /* \"#utility.yul\":4833:4840   */\n          dup5\n            /* \"#utility.yul\":4829:4852   */\n          sub\n            /* \"#utility.yul\":4825:4857   */\n          slt\n            /* \"#utility.yul\":4822:4941   */\n          iszero\n          tag_198\n          jumpi\n            /* \"#utility.yul\":4860:4939   */\n          tag_199\n          tag_126\n          jump\t// in\n        tag_199:\n            /* \"#utility.yul\":4822:4941   */\n        tag_198:\n            /* \"#utility.yul\":4980:4981   */\n          0x00\n            /* \"#utility.yul\":5005:5058   */\n          tag_200\n            /* \"#utility.yul\":5050:5057   */\n          dup5\n            /* \"#utility.yul\":5041:5047   */\n          dup3\n            /* \"#utility.yul\":5030:5039   */\n          dup6\n            /* \"#utility.yul\":5026:5048   */\n          add\n            /* \"#utility.yul\":5005:5058   */\n          tag_131\n          jump\t// in\n        tag_200:\n            /* \"#utility.yul\":4995:5058   */\n          swap2\n          pop\n            /* \"#utility.yul\":4951:5068   */\n          pop\n            /* \"#utility.yul\":4746:5075   */\n          swap3\n          swap2\n          pop\n          pop\n          jump\t// out\n            /* \"#utility.yul\":5081:5555   */\n        tag_50:\n            /* \"#utility.yul\":5149:5155   */\n          0x00\n            /* \"#utility.yul\":5157:5163   */\n          dup1\n            /* \"#utility.yul\":5206:5208   */\n          0x40\n            /* \"#utility.yul\":5194:5203   */\n          dup4\n            /* \"#utility.yul\":5185:5192   */\n          dup6\n            /* \"#utility.yul\":5181:5204   */\n          sub\n            /* \"#utility.yul\":5177:5209   */\n          slt\n            /* \"#utility.yul\":5174:5293   */\n          iszero\n          tag_202\n          jumpi\n            /* \"#utility.yul\":5212:5291   */\n          tag_203\n          tag_126\n          jump\t// in\n        tag_203:\n            /* \"#utility.yul\":5174:5293   */\n        tag_202:\n            /* \"#utility.yul\":5332:5333   */\n          0x00\n            /* \"#utility.yul\":5357:5410   */\n          tag_204\n            /* \"#utility.yul\":5402:5409   */\n          dup6\n            /* \"#utility.yul\":5393:5399   */\n          dup3\n            /* \"#utility.yul\":5382:5391   */\n          dup7\n            /* \"#utility.yul\":5378:5400   */\n          add\n            /* \"#utility.yul\":5357:5410   */\n          tag_131\n          jump\t// in\n        tag_204:\n            /* \"#utility.yul\":5347:5410   */\n          swap3\n          pop\n            /* \"#utility.yul\":5303:5420   */\n          pop\n            /* \"#utility.yul\":5459:5461   */\n          0x20\n            /* \"#utility.yul\":5485:5538   */\n          tag_205\n            /* \"#utility.yul\":5530:5537   */\n          dup6\n            /* \"#utility.yul\":5521:5527   */\n          dup3\n            /* \"#utility.yul\":5510:5519   */\n          dup7\n            /* \"#utility.yul\":5506:5528   */\n          add\n            /* \"#utility.yul\":5485:5538   */\n          tag_131\n          jump\t// in\n        tag_205:\n            /* \"#utility.yul\":5475:5538   */\n          swap2\n          pop\n            /* \"#utility.yul\":5430:5548   */\n          pop\n            /* \"#utility.yul\":5081:5555   */\n          swap3\n          pop\n          swap3\n          swap1\n          pop\n          jump\t// out\n            /* \"#utility.yul\":5561:5741   */\n        tag_140:\n            /* \"#utility.yul\":5609:5686   */\n          0x4e487b7100000000000000000000000000000000000000000000000000000000\n            /* \"#utility.yul\":5606:5607   */\n          0x00\n            /* \"#utility.yul\":5599:5687   */\n          mstore\n            /* \"#utility.yul\":5706:5710   */\n          0x22\n            /* \"#utility.yul\":5703:5704   */\n          0x04\n            /* \"#utility.yul\":5696:5711   */\n          mstore\n            /* \"#utility.yul\":5730:5734   */\n          0x24\n            /* \"#utility.yul\":5727:5728   */\n          0x00\n            /* \"#utility.yul\":5720:5735   */\n          revert\n            /* \"#utility.yul\":5747:6067   */\n        tag_55:\n            /* \"#utility.yul\":5791:5797   */\n          0x00\n            /* \"#utility.yul\":5828:5829   */\n          0x02\n            /* \"#utility.yul\":5822:5826   */\n          dup3\n            /* \"#utility.yul\":5818:5830   */\n          div\n            /* \"#utility.yul\":5808:5830   */\n          swap1\n          pop\n            /* \"#utility.yul\":5875:5876   */\n          0x01\n            /* \"#utility.yul\":5869:5873   */\n          dup3\n            /* \"#utility.yul\":5865:5877   */\n          and\n            /* \"#utility.yul\":5896:5914   */\n          dup1\n            /* \"#utility.yul\":5886:5967   */\n          tag_208\n          jumpi\n            /* \"#utility.yul\":5952:5956   */\n          0x7f\n            /* \"#utility.yul\":5944:5950   */\n          dup3\n            /* \"#utility.yul\":5940:5957   */\n          and\n            /* \"#utility.yul\":5930:5957   */\n          swap2\n          pop\n            /* \"#utility.yul\":5886:5967   */\n        tag_208:\n            /* \"#utility.yul\":6014:6016   */\n          0x20\n            /* \"#utility.yul\":6006:6012   */\n          dup3\n            /* \"#utility.yul\":6003:6017   */\n          lt\n            /* \"#utility.yul\":5983:6001   */\n          dup2\n            /* \"#utility.yul\":5980:6018   */\n          sub\n            /* \"#utility.yul\":5977:6061   */\n          tag_209\n          jumpi\n            /* \"#utility.yul\":6033:6051   */\n          tag_210\n          tag_140\n          jump\t// in\n        tag_210:\n            /* \"#utility.yul\":5977:6061   */\n        tag_209:\n            /* \"#utility.yul\":5798:6067   */\n          pop\n            /* \"#utility.yul\":5747:6067   */\n          swap2\n          swap1\n          pop\n          jump\t// out\n            /* \"#utility.yul\":6073:6191   */\n        tag_141:\n            /* \"#utility.yul\":6160:6184   */\n          tag_212\n            /* \"#utility.yul\":6178:6183   */\n          dup2\n            /* \"#utility.yul\":6160:6184   */\n          tag_129\n          jump\t// in\n        tag_212:\n            /* \"#utility.yul\":6155:6158   */\n          dup3\n            /* \"#utility.yul\":6148:6185   */\n          mstore\n            /* \"#utility.yul\":6073:6191   */\n          pop\n          pop\n          jump\t// out\n            /* \"#utility.yul\":6197:6639   */\n        tag_93:\n            /* \"#utility.yul\":6346:6350   */\n          0x00\n            /* \"#utility.yul\":6384:6386   */\n          0x60\n            /* \"#utility.yul\":6373:6382   */\n          dup3\n            /* \"#utility.yul\":6369:6387   */\n          add\n            /* \"#utility.yul\":6361:6387   */\n          swap1\n          pop\n            /* \"#utility.yul\":6397:6468   */\n          tag_214\n            /* \"#utility.yul\":6465:6466   */\n          0x00\n            /* \"#utility.yul\":6454:6463   */\n          dup4\n            /* \"#utility.yul\":6450:6467   */\n          add\n            /* \"#utility.yul\":6441:6447   */\n          dup7\n            /* \"#utility.yul\":6397:6468   */\n          tag_141\n          jump\t// in\n        tag_214:\n            /* \"#utility.yul\":6478:6550   */\n          tag_215\n            /* \"#utility.yul\":6546:6548   */\n          0x20\n            /* \"#utility.yul\":6535:6544   */\n          dup4\n            /* \"#utility.yul\":6531:6549   */\n          add\n            /* \"#utility.yul\":6522:6528   */\n          dup6\n            /* \"#utility.yul\":6478:6550   */\n          tag_137\n          jump\t// in\n        tag_215:\n            /* \"#utility.yul\":6560:6632   */\n          tag_216\n            /* \"#utility.yul\":6628:6630   */\n          0x40\n            /* \"#utility.yul\":6617:6626   */\n          dup4\n            /* \"#utility.yul\":6613:6631   */\n          add\n            /* \"#utility.yul\":6604:6610   */\n          dup5\n            /* \"#utility.yul\":6560:6632   */\n          tag_137\n          jump\t// in\n        tag_216:\n            /* \"#utility.yul\":6197:6639   */\n          swap5\n          swap4\n          pop\n          pop\n          pop\n          pop\n          jump\t// out\n            /* \"#utility.yul\":6645:6867   */\n        tag_98:\n            /* \"#utility.yul\":6738:6742   */\n          0x00\n            /* \"#utility.yul\":6776:6778   */\n          0x20\n            /* \"#utility.yul\":6765:6774   */\n          dup3\n            /* \"#utility.yul\":6761:6779   */\n          add\n            /* \"#utility.yul\":6753:6779   */\n          swap1\n          pop\n            /* \"#utility.yul\":6789:6860   */\n          tag_218\n            /* \"#utility.yul\":6857:6858   */\n          0x00\n            /* \"#utility.yul\":6846:6855   */\n          dup4\n            /* \"#utility.yul\":6842:6859   */\n          add\n            /* \"#utility.yul\":6833:6839   */\n          dup5\n            /* \"#utility.yul\":6789:6860   */\n          tag_141\n          jump\t// in\n        tag_218:\n            /* \"#utility.yul\":6645:6867   */\n          swap3\n          swap2\n          pop\n          pop\n          jump\t// out\n            /* \"#utility.yul\":6873:7053   */\n        tag_142:\n            /* \"#utility.yul\":6921:6998   */\n          0x4e487b7100000000000000000000000000000000000000000000000000000000\n            /* \"#utility.yul\":6918:6919   */\n          0x00\n            /* \"#utility.yul\":6911:6999   */\n          mstore\n            /* \"#utility.yul\":7018:7022   */\n          0x11\n            /* \"#utility.yul\":7015:7016   */\n          0x04\n            /* \"#utility.yul\":7008:7023   */\n          mstore\n            /* \"#utility.yul\":7042:7046   */\n          0x24\n            /* \"#utility.yul\":7039:7040   */\n          0x00\n            /* \"#utility.yul\":7032:7047   */\n          revert\n            /* \"#utility.yul\":7059:7250   */\n        tag_113:\n            /* \"#utility.yul\":7099:7102   */\n          0x00\n            /* \"#utility.yul\":7118:7138   */\n          tag_221\n            /* \"#utility.yul\":7136:7137   */\n          dup3\n            /* \"#utility.yul\":7118:7138   */\n          tag_132\n          jump\t// in\n        tag_221:\n            /* \"#utility.yul\":7113:7138   */\n          swap2\n          pop\n            /* \"#utility.yul\":7152:7172   */\n          tag_222\n            /* \"#utility.yul\":7170:7171   */\n          dup4\n            /* \"#utility.yul\":7152:7172   */\n          tag_132\n          jump\t// in\n        tag_222:\n            /* \"#utility.yul\":7147:7172   */\n          swap3\n          pop\n            /* \"#utility.yul\":7195:7196   */\n          dup3\n            /* \"#utility.yul\":7192:7193   */\n          dup3\n            /* \"#utility.yul\":7188:7197   */\n          add\n            /* \"#utility.yul\":7181:7197   */\n          swap1\n          pop\n            /* \"#utility.yul\":7216:7219   */\n          dup1\n            /* \"#utility.yul\":7213:7214   */\n          dup3\n            /* \"#utility.yul\":7210:7220   */\n          gt\n            /* \"#utility.yul\":7207:7243   */\n          iszero\n          tag_223\n          jumpi\n            /* \"#utility.yul\":7223:7241   */\n          tag_224\n          tag_142\n          jump\t// in\n        tag_224:\n            /* \"#utility.yul\":7207:7243   */\n        tag_223:\n            /* \"#utility.yul\":7059:7250   */\n          swap3\n          swap2\n          pop\n          pop\n          jump\t// out\n\n        auxdata: 0xa264697066735822122082d7cb1aaf2631c760556b2bd581b4cc697e73c9fed9b12b4832be4427d33b1564736f6c634300081a0033\n    }\n}\n",
				"bytecode": {
					"linkReferences": {},
					"object": "6080604052348015600e575f80fd5b506040516019906074565b604051809103905ff0801580156031573d5f803e3d5ffd5b505f806101000a81548173ffffffffffffffffffffffffffffffffffffffff021916908373ffffffffffffffffffffffffffffffffffffffff1602179055506081565b6117688061135483390190565b6112c68061008e5f395ff3fe60806040526004361061007a575f3560e01c80634fa86ca51161004d5780634fa86ca5146101405780636e17e2401461017c578063851e0a7f146101b8578063e13fdf36146101f45761007a565b80631072cbea1461007e578063134fe3dc146100a65780631d65e77e146100d657806320cfd79514610116575b5f80fd5b348015610089575f80fd5b506100a4600480360381019061009f919061092c565b61021e565b005b6100c060048036038101906100bb919061096a565b610306565b6040516100cd91906109c2565b60405180910390f35b3480156100e1575f80fd5b506100fc60048036038101906100f791906109db565b6103ba565b60405161010d959493929190610bbc565b60405180910390f35b348015610121575f80fd5b5061012a6105db565b6040516101379190610c76565b60405180910390f35b34801561014b575f80fd5b5061016660048036038101906101619190610cb9565b6105fe565b60405161017391906109c2565b60405180910390f35b348015610187575f80fd5b506101a2600480360381019061019d91906109db565b6106e7565b6040516101af9190610d1d565b60405180910390f35b3480156101c3575f80fd5b506101de60048036038101906101d99190610e62565b6107b8565b6040516101eb9190610d1d565b60405180910390f35b3480156101ff575f80fd5b50610208610867565b6040516102159190610ebc565b60405180910390f35b5f805f9054906101000a900473ffffffffffffffffffffffffffffffffffffffff1690505f8173ffffffffffffffffffffffffffffffffffffffff1663a9059cbb85856040518363ffffffff1660e01b815260040161027e929190610ed5565b6020604051808303815f875af115801561029a573d5f803e3d5ffd5b505050506040513d601f19601f820116820180604052508101906102be9190610f10565b905080610300576040517f08c379a00000000000000000000000000000000000000000000000000000000081526004016102f790610f85565b60405180910390fd5b50505050565b5f806001848154811061031c5761031b610fa3565b5b905f5260205f20906005020190505f81600401848154811061034157610340610fa3565b5b905f5260205f209060030201905060018160010160146101000a81548160ff02191690831515021790555033816002015f6101000a81548173ffffffffffffffffffffffffffffffffffffffff021916908373ffffffffffffffffffffffffffffffffffffffff16021790555060019250505092915050565b5f60605f8060605f600187815481106103d6576103d5610fa3565b5b905f5260205f2090600502019050805f015481600101826002015f9054906101000a900473ffffffffffffffffffffffffffffffffffffffff1683600301548460040183805461042590610ffd565b80601f016020809104026020016040519081016040528092919081815260200182805461045190610ffd565b801561049c5780601f106104735761010080835404028352916020019161049c565b820191905f5260205f20905b81548152906001019060200180831161047f57829003601f168201915b5050505050935080805480602002602001604051908101604052809291908181526020015f905b828210156105c1578382905f5260205f2090600302016040518060800160405290815f8201548152602001600182015f9054906101000a900473ffffffffffffffffffffffffffffffffffffffff1673ffffffffffffffffffffffffffffffffffffffff1673ffffffffffffffffffffffffffffffffffffffff1681526020016001820160149054906101000a900460ff16151515158152602001600282015f9054906101000a900473ffffffffffffffffffffffffffffffffffffffff1673ffffffffffffffffffffffffffffffffffffffff1673ffffffffffffffffffffffffffffffffffffffff1681525050815260200190600101906104c3565b505050509050955095509550955095505091939590929450565b5f8054906101000a900473ffffffffffffffffffffffffffffffffffffffff1681565b5f806001858154811061061457610613610fa3565b5b905f5260205f20906005020190505f81600401858154811061063957610638610fa3565b5b905f5260205f2090600302019050838160010160146101000a81548160ff0219169083151502179055505f826002015f9054906101000a900473ffffffffffffffffffffffffffffffffffffffff1690505f826001015f9054906101000a900473ffffffffffffffffffffffffffffffffffffffff16905060011515861515036106cc576106c7818a61021e565b6106d7565b6106d6828a61021e565b5b6001945050505050949350505050565b5f805f600280549050036106fd575f9050610706565b60028054905090505b5f6001848154811061071b5761071a610fa3565b5b905f5260205f20906005020160040160018160018154018082558091505003905f5260205f209060030201905081815f018190555033816001015f6101000a81548173ffffffffffffffffffffffffffffffffffffffff021916908373ffffffffffffffffffffffffffffffffffffffff1602179055505f8160010160146101000a81548160ff0219169083151502179055508192505050919050565b5f805f600180549050036107ce575f90506107d7565b60018054905090505b5f6001808160018154018082558091505003905f5260205f209060050201905081815f01819055508481600101908161081091906111c1565b5033816002015f6101000a81548173ffffffffffffffffffffffffffffffffffffffff021916908373ffffffffffffffffffffffffffffffffffffffff160217905550838160030181905550819250505092915050565b5f805f9054906101000a900473ffffffffffffffffffffffffffffffffffffffff16905090565b5f604051905090565b5f80fd5b5f80fd5b5f73ffffffffffffffffffffffffffffffffffffffff82169050919050565b5f6108c88261089f565b9050919050565b6108d8816108be565b81146108e2575f80fd5b50565b5f813590506108f3816108cf565b92915050565b5f819050919050565b61090b816108f9565b8114610915575f80fd5b50565b5f8135905061092681610902565b92915050565b5f806040838503121561094257610941610897565b5b5f61094f858286016108e5565b925050602061096085828601610918565b9150509250929050565b5f80604083850312156109805761097f610897565b5b5f61098d85828601610918565b925050602061099e85828601610918565b9150509250929050565b5f8115159050919050565b6109bc816109a8565b82525050565b5f6020820190506109d55f8301846109b3565b92915050565b5f602082840312156109f0576109ef610897565b5b5f6109fd84828501610918565b91505092915050565b610a0f816108f9565b82525050565b5f81519050919050565b5f82825260208201905092915050565b8281835e5f83830152505050565b5f601f19601f8301169050919050565b5f610a5782610a15565b610a618185610a1f565b9350610a71818560208601610a2f565b610a7a81610a3d565b840191505092915050565b610a8e816108be565b82525050565b5f81519050919050565b5f82825260208201905092915050565b5f819050602082019050919050565b610ac6816108f9565b82525050565b610ad5816108be565b82525050565b610ae4816109a8565b82525050565b608082015f820151610afe5f850182610abd565b506020820151610b116020850182610acc565b506040820151610b246040850182610adb565b506060820151610b376060850182610acc565b50505050565b5f610b488383610aea565b60808301905092915050565b5f602082019050919050565b5f610b6a82610a94565b610b748185610a9e565b9350610b7f83610aae565b805f5b83811015610baf578151610b968882610b3d565b9750610ba183610b54565b925050600181019050610b82565b5085935050505092915050565b5f60a082019050610bcf5f830188610a06565b8181036020830152610be18187610a4d565b9050610bf06040830186610a85565b610bfd6060830185610a06565b8181036080830152610c0f8184610b60565b90509695505050505050565b5f819050919050565b5f610c3e610c39610c348461089f565b610c1b565b61089f565b9050919050565b5f610c4f82610c24565b9050919050565b5f610c6082610c45565b9050919050565b610c7081610c56565b82525050565b5f602082019050610c895f830184610c67565b92915050565b610c98816109a8565b8114610ca2575f80fd5b50565b5f81359050610cb381610c8f565b92915050565b5f805f8060808587031215610cd157610cd0610897565b5b5f610cde87828801610918565b9450506020610cef87828801610918565b9350506040610d0087828801610918565b9250506060610d1187828801610ca5565b91505092959194509250565b5f602082019050610d305f830184610a06565b92915050565b5f80fd5b5f80fd5b7f4e487b71000000000000000000000000000000000000000000000000000000005f52604160045260245ffd5b610d7482610a3d565b810181811067ffffffffffffffff82111715610d9357610d92610d3e565b5b80604052505050565b5f610da561088e565b9050610db18282610d6b565b919050565b5f67ffffffffffffffff821115610dd057610dcf610d3e565b5b610dd982610a3d565b9050602081019050919050565b828183375f83830152505050565b5f610e06610e0184610db6565b610d9c565b905082815260208101848484011115610e2257610e21610d3a565b5b610e2d848285610de6565b509392505050565b5f82601f830112610e4957610e48610d36565b5b8135610e59848260208601610df4565b91505092915050565b5f8060408385031215610e7857610e77610897565b5b5f83013567ffffffffffffffff811115610e9557610e9461089b565b5b610ea185828601610e35565b9250506020610eb285828601610918565b9150509250929050565b5f602082019050610ecf5f830184610a85565b92915050565b5f604082019050610ee85f830185610a85565b610ef56020830184610a06565b9392505050565b5f81519050610f0a81610c8f565b92915050565b5f60208284031215610f2557610f24610897565b5b5f610f3284828501610efc565b91505092915050565b7f546f6b656e207472616e73666572206661696c656400000000000000000000005f82015250565b5f610f6f601583610a1f565b9150610f7a82610f3b565b602082019050919050565b5f6020820190508181035f830152610f9c81610f63565b9050919050565b7f4e487b71000000000000000000000000000000000000000000000000000000005f52603260045260245ffd5b7f4e487b71000000000000000000000000000000000000000000000000000000005f52602260045260245ffd5b5f600282049050600182168061101457607f821691505b60208210810361102757611026610fd0565b5b50919050565b5f819050815f5260205f209050919050565b5f6020601f8301049050919050565b5f82821b905092915050565b5f600883026110897fffffffffffffffffffffffffffffffffffffffffffffffffffffffffffffffff8261104e565b611093868361104e565b95508019841693508086168417925050509392505050565b5f6110c56110c06110bb846108f9565b610c1b565b6108f9565b9050919050565b5f819050919050565b6110de836110ab565b6110f26110ea826110cc565b84845461105a565b825550505050565b5f90565b6111066110fa565b6111118184846110d5565b505050565b5b81811015611134576111295f826110fe565b600181019050611117565b5050565b601f8211156111795761114a8161102d565b6111538461103f565b81016020851015611162578190505b61117661116e8561103f565b830182611116565b50505b505050565b5f82821c905092915050565b5f6111995f198460080261117e565b1980831691505092915050565b5f6111b1838361118a565b9150826002028217905092915050565b6111ca82610a15565b67ffffffffffffffff8111156111e3576111e2610d3e565b5b6111ed8254610ffd565b6111f8828285611138565b5f60209050601f831160018114611229575f8415611217578287015190505b61122185826111a6565b865550611288565b601f1984166112378661102d565b5f5b8281101561125e57848901518255600182019150602085019450602081019050611239565b8683101561127b5784890151611277601f89168261118a565b8355505b6001600288020188555050505b50505050505056fea264697066735822122080f7f40e18da4aa06879f784161439fa76a51afb2f10dd7c71ceb84293a11df564736f6c634300081a00336080604052600260055f6101000a81548160ff021916908360ff16021790555034801561002a575f80fd5b506040518060400160405280600d81526020017f4461746150756e6b20436f696e000000000000000000000000000000000000008152506040518060400160405280600381526020017f445043000000000000000000000000000000000000000000000000000000000081525081600390816100a691906105cf565b5080600490816100b691906105cf565b5050506100f23360055f9054906101000a900460ff1660ff16600a6100db91906107fa565b60646100e79190610844565b6100f760201b60201c565b61096d565b5f73ffffffffffffffffffffffffffffffffffffffff168273ffffffffffffffffffffffffffffffffffffffff1603610167575f6040517fec442f0500000000000000000000000000000000000000000000000000000000815260040161015e91906108c4565b60405180910390fd5b6101785f838361017c60201b60201c565b5050565b5f73ffffffffffffffffffffffffffffffffffffffff168373ffffffffffffffffffffffffffffffffffffffff16036101cc578060025f8282546101c091906108dd565b9250508190555061029a565b5f805f8573ffffffffffffffffffffffffffffffffffffffff1673ffffffffffffffffffffffffffffffffffffffff1681526020019081526020015f2054905081811015610255578381836040517fe450d38c00000000000000000000000000000000000000000000000000000000815260040161024c9392919061091f565b60405180910390fd5b8181035f808673ffffffffffffffffffffffffffffffffffffffff1673ffffffffffffffffffffffffffffffffffffffff1681526020019081526020015f2081905550505b5f73ffffffffffffffffffffffffffffffffffffffff168273ffffffffffffffffffffffffffffffffffffffff16036102e1578060025f828254039250508190555061032b565b805f808473ffffffffffffffffffffffffffffffffffffffff1673ffffffffffffffffffffffffffffffffffffffff1681526020019081526020015f205f82825401925050819055505b8173ffffffffffffffffffffffffffffffffffffffff168373ffffffffffffffffffffffffffffffffffffffff167fddf252ad1be2c89b69c2b068fc378daa952ba7f163c4a11628f55a4df523b3ef836040516103889190610954565b60405180910390a3505050565b5f81519050919050565b7f4e487b71000000000000000000000000000000000000000000000000000000005f52604160045260245ffd5b7f4e487b71000000000000000000000000000000000000000000000000000000005f52602260045260245ffd5b5f600282049050600182168061041057607f821691505b602082108103610423576104226103cc565b5b50919050565b5f819050815f5260205f209050919050565b5f6020601f8301049050919050565b5f82821b905092915050565b5f600883026104857fffffffffffffffffffffffffffffffffffffffffffffffffffffffffffffffff8261044a565b61048f868361044a565b95508019841693508086168417925050509392505050565b5f819050919050565b5f819050919050565b5f6104d36104ce6104c9846104a7565b6104b0565b6104a7565b9050919050565b5f819050919050565b6104ec836104b9565b6105006104f8826104da565b848454610456565b825550505050565b5f90565b610514610508565b61051f8184846104e3565b505050565b5b81811015610542576105375f8261050c565b600181019050610525565b5050565b601f8211156105875761055881610429565b6105618461043b565b81016020851015610570578190505b61058461057c8561043b565b830182610524565b50505b505050565b5f82821c905092915050565b5f6105a75f198460080261058c565b1980831691505092915050565b5f6105bf8383610598565b9150826002028217905092915050565b6105d882610395565b67ffffffffffffffff8111156105f1576105f061039f565b5b6105fb82546103f9565b610606828285610546565b5f60209050601f831160018114610637575f8415610625578287015190505b61062f85826105b4565b865550610696565b601f19841661064586610429565b5f5b8281101561066c57848901518255600182019150602085019450602081019050610647565b868310156106895784890151610685601f891682610598565b8355505b6001600288020188555050505b505050505050565b7f4e487b71000000000000000000000000000000000000000000000000000000005f52601160045260245ffd5b5f8160011c9050919050565b5f808291508390505b6001851115610720578086048111156106fc576106fb61069e565b5b600185161561070b5780820291505b8081029050610719856106cb565b94506106e0565b94509492505050565b5f8261073857600190506107f3565b81610745575f90506107f3565b816001811461075b576002811461076557610794565b60019150506107f3565b60ff8411156107775761077661069e565b5b8360020a91508482111561078e5761078d61069e565b5b506107f3565b5060208310610133831016604e8410600b84101617156107c95782820a9050838111156107c4576107c361069e565b5b6107f3565b6107d684848460016106d7565b925090508184048111156107ed576107ec61069e565b5b81810290505b9392505050565b5f610804826104a7565b915061080f836104a7565b925061083c7fffffffffffffffffffffffffffffffffffffffffffffffffffffffffffffffff8484610729565b905092915050565b5f61084e826104a7565b9150610859836104a7565b9250828202610867816104a7565b9150828204841483151761087e5761087d61069e565b5b5092915050565b5f73ffffffffffffffffffffffffffffffffffffffff82169050919050565b5f6108ae82610885565b9050919050565b6108be816108a4565b82525050565b5f6020820190506108d75f8301846108b5565b92915050565b5f6108e7826104a7565b91506108f2836104a7565b925082820190508082111561090a5761090961069e565b5b92915050565b610919816104a7565b82525050565b5f6060820190506109325f8301866108b5565b61093f6020830185610910565b61094c6040830184610910565b949350505050565b5f6020820190506109675f830184610910565b92915050565b610dee8061097a5f395ff3fe608060405234801561000f575f80fd5b5060043610610091575f3560e01c8063313ce56711610064578063313ce5671461013157806370a082311461014f57806395d89b411461017f578063a9059cbb1461019d578063dd62ed3e146101cd57610091565b806306fdde0314610095578063095ea7b3146100b357806318160ddd146100e357806323b872dd14610101575b5f80fd5b61009d6101fd565b6040516100aa9190610a67565b60405180910390f35b6100cd60048036038101906100c89190610b18565b61028d565b6040516100da9190610b70565b60405180910390f35b6100eb6102af565b6040516100f89190610b98565b60405180910390f35b61011b60048036038101906101169190610bb1565b6102b8565b6040516101289190610b70565b60405180910390f35b6101396102e6565b6040516101469190610c1c565b60405180910390f35b61016960048036038101906101649190610c35565b6102fb565b6040516101769190610b98565b60405180910390f35b610187610340565b6040516101949190610a67565b60405180910390f35b6101b760048036038101906101b29190610b18565b6103d0565b6040516101c49190610b70565b60405180910390f35b6101e760048036038101906101e29190610c60565b6103f2565b6040516101f49190610b98565b60405180910390f35b60606003805461020c90610ccb565b80601f016020809104026020016040519081016040528092919081815260200182805461023890610ccb565b80156102835780601f1061025a57610100808354040283529160200191610283565b820191905f5260205f20905b81548152906001019060200180831161026657829003601f168201915b5050505050905090565b5f80610297610474565b90506102a481858561047b565b600191505092915050565b5f600254905090565b5f806102c2610474565b90506102cf85828561048d565b6102da85858561051f565b60019150509392505050565b5f60055f9054906101000a900460ff16905090565b5f805f8373ffffffffffffffffffffffffffffffffffffffff1673ffffffffffffffffffffffffffffffffffffffff1681526020019081526020015f20549050919050565b60606004805461034f90610ccb565b80601f016020809104026020016040519081016040528092919081815260200182805461037b90610ccb565b80156103c65780601f1061039d576101008083540402835291602001916103c6565b820191905f5260205f20905b8154815290600101906020018083116103a957829003601f168201915b5050505050905090565b5f806103da610474565b90506103e781858561051f565b600191505092915050565b5f60015f8473ffffffffffffffffffffffffffffffffffffffff1673ffffffffffffffffffffffffffffffffffffffff1681526020019081526020015f205f8373ffffffffffffffffffffffffffffffffffffffff1673ffffffffffffffffffffffffffffffffffffffff1681526020019081526020015f2054905092915050565b5f33905090565b610488838383600161060f565b505050565b5f61049884846103f2565b90507fffffffffffffffffffffffffffffffffffffffffffffffffffffffffffffffff8114610519578181101561050a578281836040517ffb8f41b200000000000000000000000000000000000000000000000000000000815260040161050193929190610d0a565b60405180910390fd5b61051884848484035f61060f565b5b50505050565b5f73ffffffffffffffffffffffffffffffffffffffff168373ffffffffffffffffffffffffffffffffffffffff160361058f575f6040517f96c6fd1e0000000000000000000000000000000000000000000000000000000081526004016105869190610d3f565b60405180910390fd5b5f73ffffffffffffffffffffffffffffffffffffffff168273ffffffffffffffffffffffffffffffffffffffff16036105ff575f6040517fec442f050000000000000000000000000000000000000000000000000000000081526004016105f69190610d3f565b60405180910390fd5b61060a8383836107de565b505050565b5f73ffffffffffffffffffffffffffffffffffffffff168473ffffffffffffffffffffffffffffffffffffffff160361067f575f6040517fe602df050000000000000000000000000000000000000000000000000000000081526004016106769190610d3f565b60405180910390fd5b5f73ffffffffffffffffffffffffffffffffffffffff168373ffffffffffffffffffffffffffffffffffffffff16036106ef575f6040517f94280d620000000000000000000000000000000000000000000000000000000081526004016106e69190610d3f565b60405180910390fd5b8160015f8673ffffffffffffffffffffffffffffffffffffffff1673ffffffffffffffffffffffffffffffffffffffff1681526020019081526020015f205f8573ffffffffffffffffffffffffffffffffffffffff1673ffffffffffffffffffffffffffffffffffffffff1681526020019081526020015f208190555080156107d8578273ffffffffffffffffffffffffffffffffffffffff168473ffffffffffffffffffffffffffffffffffffffff167f8c5be1e5ebec7d5bd14f71427d1e84f3dd0314c0f7b2291e5b200ac8c7c3b925846040516107cf9190610b98565b60405180910390a35b50505050565b5f73ffffffffffffffffffffffffffffffffffffffff168373ffffffffffffffffffffffffffffffffffffffff160361082e578060025f8282546108229190610d85565b925050819055506108fc565b5f805f8573ffffffffffffffffffffffffffffffffffffffff1673ffffffffffffffffffffffffffffffffffffffff1681526020019081526020015f20549050818110156108b7578381836040517fe450d38c0000000000000000000000000000000000000000000000000000000081526004016108ae93929190610d0a565b60405180910390fd5b8181035f808673ffffffffffffffffffffffffffffffffffffffff1673ffffffffffffffffffffffffffffffffffffffff1681526020019081526020015f2081905550505b5f73ffffffffffffffffffffffffffffffffffffffff168273ffffffffffffffffffffffffffffffffffffffff1603610943578060025f828254039250508190555061098d565b805f808473ffffffffffffffffffffffffffffffffffffffff1673ffffffffffffffffffffffffffffffffffffffff1681526020019081526020015f205f82825401925050819055505b8173ffffffffffffffffffffffffffffffffffffffff168373ffffffffffffffffffffffffffffffffffffffff167fddf252ad1be2c89b69c2b068fc378daa952ba7f163c4a11628f55a4df523b3ef836040516109ea9190610b98565b60405180910390a3505050565b5f81519050919050565b5f82825260208201905092915050565b8281835e5f83830152505050565b5f601f19601f8301169050919050565b5f610a39826109f7565b610a438185610a01565b9350610a53818560208601610a11565b610a5c81610a1f565b840191505092915050565b5f6020820190508181035f830152610a7f8184610a2f565b905092915050565b5f80fd5b5f73ffffffffffffffffffffffffffffffffffffffff82169050919050565b5f610ab482610a8b565b9050919050565b610ac481610aaa565b8114610ace575f80fd5b50565b5f81359050610adf81610abb565b92915050565b5f819050919050565b610af781610ae5565b8114610b01575f80fd5b50565b5f81359050610b1281610aee565b92915050565b5f8060408385031215610b2e57610b2d610a87565b5b5f610b3b85828601610ad1565b9250506020610b4c85828601610b04565b9150509250929050565b5f8115159050919050565b610b6a81610b56565b82525050565b5f602082019050610b835f830184610b61565b92915050565b610b9281610ae5565b82525050565b5f602082019050610bab5f830184610b89565b92915050565b5f805f60608486031215610bc857610bc7610a87565b5b5f610bd586828701610ad1565b9350506020610be686828701610ad1565b9250506040610bf786828701610b04565b9150509250925092565b5f60ff82169050919050565b610c1681610c01565b82525050565b5f602082019050610c2f5f830184610c0d565b92915050565b5f60208284031215610c4a57610c49610a87565b5b5f610c5784828501610ad1565b91505092915050565b5f8060408385031215610c7657610c75610a87565b5b5f610c8385828601610ad1565b9250506020610c9485828601610ad1565b9150509250929050565b7f4e487b71000000000000000000000000000000000000000000000000000000005f52602260045260245ffd5b5f6002820490506001821680610ce257607f821691505b602082108103610cf557610cf4610c9e565b5b50919050565b610d0481610aaa565b82525050565b5f606082019050610d1d5f830186610cfb565b610d2a6020830185610b89565b610d376040830184610b89565b949350505050565b5f602082019050610d525f830184610cfb565b92915050565b7f4e487b71000000000000000000000000000000000000000000000000000000005f52601160045260245ffd5b5f610d8f82610ae5565b9150610d9a83610ae5565b9250828201905080821115610db257610db1610d58565b5b9291505056fea264697066735822122082d7cb1aaf2631c760556b2bd581b4cc697e73c9fed9b12b4832be4427d33b1564736f6c634300081a0033",
					"opcodes": "PUSH1 0x80 PUSH1 0x40 MSTORE CALLVALUE DUP1 ISZERO PUSH1 0xE JUMPI PUSH0 DUP1 REVERT JUMPDEST POP PUSH1 0x40 MLOAD PUSH1 0x19 SWAP1 PUSH1 0x74 JUMP JUMPDEST PUSH1 0x40 MLOAD DUP1 SWAP2 SUB SWAP1 PUSH0 CREATE DUP1 ISZERO DUP1 ISZERO PUSH1 0x31 JUMPI RETURNDATASIZE PUSH0 DUP1 RETURNDATACOPY RETURNDATASIZE PUSH0 REVERT JUMPDEST POP PUSH0 DUP1 PUSH2 0x100 EXP DUP2 SLOAD DUP2 PUSH20 0xFFFFFFFFFFFFFFFFFFFFFFFFFFFFFFFFFFFFFFFF MUL NOT AND SWAP1 DUP4 PUSH20 0xFFFFFFFFFFFFFFFFFFFFFFFFFFFFFFFFFFFFFFFF AND MUL OR SWAP1 SSTORE POP PUSH1 0x81 JUMP JUMPDEST PUSH2 0x1768 DUP1 PUSH2 0x1354 DUP4 CODECOPY ADD SWAP1 JUMP JUMPDEST PUSH2 0x12C6 DUP1 PUSH2 0x8E PUSH0 CODECOPY PUSH0 RETURN INVALID PUSH1 0x80 PUSH1 0x40 MSTORE PUSH1 0x4 CALLDATASIZE LT PUSH2 0x7A JUMPI PUSH0 CALLDATALOAD PUSH1 0xE0 SHR DUP1 PUSH4 0x4FA86CA5 GT PUSH2 0x4D JUMPI DUP1 PUSH4 0x4FA86CA5 EQ PUSH2 0x140 JUMPI DUP1 PUSH4 0x6E17E240 EQ PUSH2 0x17C JUMPI DUP1 PUSH4 0x851E0A7F EQ PUSH2 0x1B8 JUMPI DUP1 PUSH4 0xE13FDF36 EQ PUSH2 0x1F4 JUMPI PUSH2 0x7A JUMP JUMPDEST DUP1 PUSH4 0x1072CBEA EQ PUSH2 0x7E JUMPI DUP1 PUSH4 0x134FE3DC EQ PUSH2 0xA6 JUMPI DUP1 PUSH4 0x1D65E77E EQ PUSH2 0xD6 JUMPI DUP1 PUSH4 0x20CFD795 EQ PUSH2 0x116 JUMPI JUMPDEST PUSH0 DUP1 REVERT JUMPDEST CALLVALUE DUP1 ISZERO PUSH2 0x89 JUMPI PUSH0 DUP1 REVERT JUMPDEST POP PUSH2 0xA4 PUSH1 0x4 DUP1 CALLDATASIZE SUB DUP2 ADD SWAP1 PUSH2 0x9F SWAP2 SWAP1 PUSH2 0x92C JUMP JUMPDEST PUSH2 0x21E JUMP JUMPDEST STOP JUMPDEST PUSH2 0xC0 PUSH1 0x4 DUP1 CALLDATASIZE SUB DUP2 ADD SWAP1 PUSH2 0xBB SWAP2 SWAP1 PUSH2 0x96A JUMP JUMPDEST PUSH2 0x306 JUMP JUMPDEST PUSH1 0x40 MLOAD PUSH2 0xCD SWAP2 SWAP1 PUSH2 0x9C2 JUMP JUMPDEST PUSH1 0x40 MLOAD DUP1 SWAP2 SUB SWAP1 RETURN JUMPDEST CALLVALUE DUP1 ISZERO PUSH2 0xE1 JUMPI PUSH0 DUP1 REVERT JUMPDEST POP PUSH2 0xFC PUSH1 0x4 DUP1 CALLDATASIZE SUB DUP2 ADD SWAP1 PUSH2 0xF7 SWAP2 SWAP1 PUSH2 0x9DB JUMP JUMPDEST PUSH2 0x3BA JUMP JUMPDEST PUSH1 0x40 MLOAD PUSH2 0x10D SWAP6 SWAP5 SWAP4 SWAP3 SWAP2 SWAP1 PUSH2 0xBBC JUMP JUMPDEST PUSH1 0x40 MLOAD DUP1 SWAP2 SUB SWAP1 RETURN JUMPDEST CALLVALUE DUP1 ISZERO PUSH2 0x121 JUMPI PUSH0 DUP1 REVERT JUMPDEST POP PUSH2 0x12A PUSH2 0x5DB JUMP JUMPDEST PUSH1 0x40 MLOAD PUSH2 0x137 SWAP2 SWAP1 PUSH2 0xC76 JUMP JUMPDEST PUSH1 0x40 MLOAD DUP1 SWAP2 SUB SWAP1 RETURN JUMPDEST CALLVALUE DUP1 ISZERO PUSH2 0x14B JUMPI PUSH0 DUP1 REVERT JUMPDEST POP PUSH2 0x166 PUSH1 0x4 DUP1 CALLDATASIZE SUB DUP2 ADD SWAP1 PUSH2 0x161 SWAP2 SWAP1 PUSH2 0xCB9 JUMP JUMPDEST PUSH2 0x5FE JUMP JUMPDEST PUSH1 0x40 MLOAD PUSH2 0x173 SWAP2 SWAP1 PUSH2 0x9C2 JUMP JUMPDEST PUSH1 0x40 MLOAD DUP1 SWAP2 SUB SWAP1 RETURN JUMPDEST CALLVALUE DUP1 ISZERO PUSH2 0x187 JUMPI PUSH0 DUP1 REVERT JUMPDEST POP PUSH2 0x1A2 PUSH1 0x4 DUP1 CALLDATASIZE SUB DUP2 ADD SWAP1 PUSH2 0x19D SWAP2 SWAP1 PUSH2 0x9DB JUMP JUMPDEST PUSH2 0x6E7 JUMP JUMPDEST PUSH1 0x40 MLOAD PUSH2 0x1AF SWAP2 SWAP1 PUSH2 0xD1D JUMP JUMPDEST PUSH1 0x40 MLOAD DUP1 SWAP2 SUB SWAP1 RETURN JUMPDEST CALLVALUE DUP1 ISZERO PUSH2 0x1C3 JUMPI PUSH0 DUP1 REVERT JUMPDEST POP PUSH2 0x1DE PUSH1 0x4 DUP1 CALLDATASIZE SUB DUP2 ADD SWAP1 PUSH2 0x1D9 SWAP2 SWAP1 PUSH2 0xE62 JUMP JUMPDEST PUSH2 0x7B8 JUMP JUMPDEST PUSH1 0x40 MLOAD PUSH2 0x1EB SWAP2 SWAP1 PUSH2 0xD1D JUMP JUMPDEST PUSH1 0x40 MLOAD DUP1 SWAP2 SUB SWAP1 RETURN JUMPDEST CALLVALUE DUP1 ISZERO PUSH2 0x1FF JUMPI PUSH0 DUP1 REVERT JUMPDEST POP PUSH2 0x208 PUSH2 0x867 JUMP JUMPDEST PUSH1 0x40 MLOAD PUSH2 0x215 SWAP2 SWAP1 PUSH2 0xEBC JUMP JUMPDEST PUSH1 0x40 MLOAD DUP1 SWAP2 SUB SWAP1 RETURN JUMPDEST PUSH0 DUP1 PUSH0 SWAP1 SLOAD SWAP1 PUSH2 0x100 EXP SWAP1 DIV PUSH20 0xFFFFFFFFFFFFFFFFFFFFFFFFFFFFFFFFFFFFFFFF AND SWAP1 POP PUSH0 DUP2 PUSH20 0xFFFFFFFFFFFFFFFFFFFFFFFFFFFFFFFFFFFFFFFF AND PUSH4 0xA9059CBB DUP6 DUP6 PUSH1 0x40 MLOAD DUP4 PUSH4 0xFFFFFFFF AND PUSH1 0xE0 SHL DUP2 MSTORE PUSH1 0x4 ADD PUSH2 0x27E SWAP3 SWAP2 SWAP1 PUSH2 0xED5 JUMP JUMPDEST PUSH1 0x20 PUSH1 0x40 MLOAD DUP1 DUP4 SUB DUP2 PUSH0 DUP8 GAS CALL ISZERO DUP1 ISZERO PUSH2 0x29A JUMPI RETURNDATASIZE PUSH0 DUP1 RETURNDATACOPY RETURNDATASIZE PUSH0 REVERT JUMPDEST POP POP POP POP PUSH1 0x40 MLOAD RETURNDATASIZE PUSH1 0x1F NOT PUSH1 0x1F DUP3 ADD AND DUP3 ADD DUP1 PUSH1 0x40 MSTORE POP DUP2 ADD SWAP1 PUSH2 0x2BE SWAP2 SWAP1 PUSH2 0xF10 JUMP JUMPDEST SWAP1 POP DUP1 PUSH2 0x300 JUMPI PUSH1 0x40 MLOAD PUSH32 0x8C379A000000000000000000000000000000000000000000000000000000000 DUP2 MSTORE PUSH1 0x4 ADD PUSH2 0x2F7 SWAP1 PUSH2 0xF85 JUMP JUMPDEST PUSH1 0x40 MLOAD DUP1 SWAP2 SUB SWAP1 REVERT JUMPDEST POP POP POP POP JUMP JUMPDEST PUSH0 DUP1 PUSH1 0x1 DUP5 DUP2 SLOAD DUP2 LT PUSH2 0x31C JUMPI PUSH2 0x31B PUSH2 0xFA3 JUMP JUMPDEST JUMPDEST SWAP1 PUSH0 MSTORE PUSH1 0x20 PUSH0 KECCAK256 SWAP1 PUSH1 0x5 MUL ADD SWAP1 POP PUSH0 DUP2 PUSH1 0x4 ADD DUP5 DUP2 SLOAD DUP2 LT PUSH2 0x341 JUMPI PUSH2 0x340 PUSH2 0xFA3 JUMP JUMPDEST JUMPDEST SWAP1 PUSH0 MSTORE PUSH1 0x20 PUSH0 KECCAK256 SWAP1 PUSH1 0x3 MUL ADD SWAP1 POP PUSH1 0x1 DUP2 PUSH1 0x1 ADD PUSH1 0x14 PUSH2 0x100 EXP DUP2 SLOAD DUP2 PUSH1 0xFF MUL NOT AND SWAP1 DUP4 ISZERO ISZERO MUL OR SWAP1 SSTORE POP CALLER DUP2 PUSH1 0x2 ADD PUSH0 PUSH2 0x100 EXP DUP2 SLOAD DUP2 PUSH20 0xFFFFFFFFFFFFFFFFFFFFFFFFFFFFFFFFFFFFFFFF MUL NOT AND SWAP1 DUP4 PUSH20 0xFFFFFFFFFFFFFFFFFFFFFFFFFFFFFFFFFFFFFFFF AND MUL OR SWAP1 SSTORE POP PUSH1 0x1 SWAP3 POP POP POP SWAP3 SWAP2 POP POP JUMP JUMPDEST PUSH0 PUSH1 0x60 PUSH0 DUP1 PUSH1 0x60 PUSH0 PUSH1 0x1 DUP8 DUP2 SLOAD DUP2 LT PUSH2 0x3D6 JUMPI PUSH2 0x3D5 PUSH2 0xFA3 JUMP JUMPDEST JUMPDEST SWAP1 PUSH0 MSTORE PUSH1 0x20 PUSH0 KECCAK256 SWAP1 PUSH1 0x5 MUL ADD SWAP1 POP DUP1 PUSH0 ADD SLOAD DUP2 PUSH1 0x1 ADD DUP3 PUSH1 0x2 ADD PUSH0 SWAP1 SLOAD SWAP1 PUSH2 0x100 EXP SWAP1 DIV PUSH20 0xFFFFFFFFFFFFFFFFFFFFFFFFFFFFFFFFFFFFFFFF AND DUP4 PUSH1 0x3 ADD SLOAD DUP5 PUSH1 0x4 ADD DUP4 DUP1 SLOAD PUSH2 0x425 SWAP1 PUSH2 0xFFD JUMP JUMPDEST DUP1 PUSH1 0x1F ADD PUSH1 0x20 DUP1 SWAP2 DIV MUL PUSH1 0x20 ADD PUSH1 0x40 MLOAD SWAP1 DUP2 ADD PUSH1 0x40 MSTORE DUP1 SWAP3 SWAP2 SWAP1 DUP2 DUP2 MSTORE PUSH1 0x20 ADD DUP3 DUP1 SLOAD PUSH2 0x451 SWAP1 PUSH2 0xFFD JUMP JUMPDEST DUP1 ISZERO PUSH2 0x49C JUMPI DUP1 PUSH1 0x1F LT PUSH2 0x473 JUMPI PUSH2 0x100 DUP1 DUP4 SLOAD DIV MUL DUP4 MSTORE SWAP2 PUSH1 0x20 ADD SWAP2 PUSH2 0x49C JUMP JUMPDEST DUP3 ADD SWAP2 SWAP1 PUSH0 MSTORE PUSH1 0x20 PUSH0 KECCAK256 SWAP1 JUMPDEST DUP2 SLOAD DUP2 MSTORE SWAP1 PUSH1 0x1 ADD SWAP1 PUSH1 0x20 ADD DUP1 DUP4 GT PUSH2 0x47F JUMPI DUP3 SWAP1 SUB PUSH1 0x1F AND DUP3 ADD SWAP2 JUMPDEST POP POP POP POP POP SWAP4 POP DUP1 DUP1 SLOAD DUP1 PUSH1 0x20 MUL PUSH1 0x20 ADD PUSH1 0x40 MLOAD SWAP1 DUP2 ADD PUSH1 0x40 MSTORE DUP1 SWAP3 SWAP2 SWAP1 DUP2 DUP2 MSTORE PUSH1 0x20 ADD PUSH0 SWAP1 JUMPDEST DUP3 DUP3 LT ISZERO PUSH2 0x5C1 JUMPI DUP4 DUP3 SWAP1 PUSH0 MSTORE PUSH1 0x20 PUSH0 KECCAK256 SWAP1 PUSH1 0x3 MUL ADD PUSH1 0x40 MLOAD DUP1 PUSH1 0x80 ADD PUSH1 0x40 MSTORE SWAP1 DUP2 PUSH0 DUP3 ADD SLOAD DUP2 MSTORE PUSH1 0x20 ADD PUSH1 0x1 DUP3 ADD PUSH0 SWAP1 SLOAD SWAP1 PUSH2 0x100 EXP SWAP1 DIV PUSH20 0xFFFFFFFFFFFFFFFFFFFFFFFFFFFFFFFFFFFFFFFF AND PUSH20 0xFFFFFFFFFFFFFFFFFFFFFFFFFFFFFFFFFFFFFFFF AND PUSH20 0xFFFFFFFFFFFFFFFFFFFFFFFFFFFFFFFFFFFFFFFF AND DUP2 MSTORE PUSH1 0x20 ADD PUSH1 0x1 DUP3 ADD PUSH1 0x14 SWAP1 SLOAD SWAP1 PUSH2 0x100 EXP SWAP1 DIV PUSH1 0xFF AND ISZERO ISZERO ISZERO ISZERO DUP2 MSTORE PUSH1 0x20 ADD PUSH1 0x2 DUP3 ADD PUSH0 SWAP1 SLOAD SWAP1 PUSH2 0x100 EXP SWAP1 DIV PUSH20 0xFFFFFFFFFFFFFFFFFFFFFFFFFFFFFFFFFFFFFFFF AND PUSH20 0xFFFFFFFFFFFFFFFFFFFFFFFFFFFFFFFFFFFFFFFF AND PUSH20 0xFFFFFFFFFFFFFFFFFFFFFFFFFFFFFFFFFFFFFFFF AND DUP2 MSTORE POP POP DUP2 MSTORE PUSH1 0x20 ADD SWAP1 PUSH1 0x1 ADD SWAP1 PUSH2 0x4C3 JUMP JUMPDEST POP POP POP POP SWAP1 POP SWAP6 POP SWAP6 POP SWAP6 POP SWAP6 POP SWAP6 POP POP SWAP2 SWAP4 SWAP6 SWAP1 SWAP3 SWAP5 POP JUMP JUMPDEST PUSH0 DUP1 SLOAD SWAP1 PUSH2 0x100 EXP SWAP1 DIV PUSH20 0xFFFFFFFFFFFFFFFFFFFFFFFFFFFFFFFFFFFFFFFF AND DUP2 JUMP JUMPDEST PUSH0 DUP1 PUSH1 0x1 DUP6 DUP2 SLOAD DUP2 LT PUSH2 0x614 JUMPI PUSH2 0x613 PUSH2 0xFA3 JUMP JUMPDEST JUMPDEST SWAP1 PUSH0 MSTORE PUSH1 0x20 PUSH0 KECCAK256 SWAP1 PUSH1 0x5 MUL ADD SWAP1 POP PUSH0 DUP2 PUSH1 0x4 ADD DUP6 DUP2 SLOAD DUP2 LT PUSH2 0x639 JUMPI PUSH2 0x638 PUSH2 0xFA3 JUMP JUMPDEST JUMPDEST SWAP1 PUSH0 MSTORE PUSH1 0x20 PUSH0 KECCAK256 SWAP1 PUSH1 0x3 MUL ADD SWAP1 POP DUP4 DUP2 PUSH1 0x1 ADD PUSH1 0x14 PUSH2 0x100 EXP DUP2 SLOAD DUP2 PUSH1 0xFF MUL NOT AND SWAP1 DUP4 ISZERO ISZERO MUL OR SWAP1 SSTORE POP PUSH0 DUP3 PUSH1 0x2 ADD PUSH0 SWAP1 SLOAD SWAP1 PUSH2 0x100 EXP SWAP1 DIV PUSH20 0xFFFFFFFFFFFFFFFFFFFFFFFFFFFFFFFFFFFFFFFF AND SWAP1 POP PUSH0 DUP3 PUSH1 0x1 ADD PUSH0 SWAP1 SLOAD SWAP1 PUSH2 0x100 EXP SWAP1 DIV PUSH20 0xFFFFFFFFFFFFFFFFFFFFFFFFFFFFFFFFFFFFFFFF AND SWAP1 POP PUSH1 0x1 ISZERO ISZERO DUP7 ISZERO ISZERO SUB PUSH2 0x6CC JUMPI PUSH2 0x6C7 DUP2 DUP11 PUSH2 0x21E JUMP JUMPDEST PUSH2 0x6D7 JUMP JUMPDEST PUSH2 0x6D6 DUP3 DUP11 PUSH2 0x21E JUMP JUMPDEST JUMPDEST PUSH1 0x1 SWAP5 POP POP POP POP POP SWAP5 SWAP4 POP POP POP POP JUMP JUMPDEST PUSH0 DUP1 PUSH0 PUSH1 0x2 DUP1 SLOAD SWAP1 POP SUB PUSH2 0x6FD JUMPI PUSH0 SWAP1 POP PUSH2 0x706 JUMP JUMPDEST PUSH1 0x2 DUP1 SLOAD SWAP1 POP SWAP1 POP JUMPDEST PUSH0 PUSH1 0x1 DUP5 DUP2 SLOAD DUP2 LT PUSH2 0x71B JUMPI PUSH2 0x71A PUSH2 0xFA3 JUMP JUMPDEST JUMPDEST SWAP1 PUSH0 MSTORE PUSH1 0x20 PUSH0 KECCAK256 SWAP1 PUSH1 0x5 MUL ADD PUSH1 0x4 ADD PUSH1 0x1 DUP2 PUSH1 0x1 DUP2 SLOAD ADD DUP1 DUP3 SSTORE DUP1 SWAP2 POP POP SUB SWAP1 PUSH0 MSTORE PUSH1 0x20 PUSH0 KECCAK256 SWAP1 PUSH1 0x3 MUL ADD SWAP1 POP DUP2 DUP2 PUSH0 ADD DUP2 SWAP1 SSTORE POP CALLER DUP2 PUSH1 0x1 ADD PUSH0 PUSH2 0x100 EXP DUP2 SLOAD DUP2 PUSH20 0xFFFFFFFFFFFFFFFFFFFFFFFFFFFFFFFFFFFFFFFF MUL NOT AND SWAP1 DUP4 PUSH20 0xFFFFFFFFFFFFFFFFFFFFFFFFFFFFFFFFFFFFFFFF AND MUL OR SWAP1 SSTORE POP PUSH0 DUP2 PUSH1 0x1 ADD PUSH1 0x14 PUSH2 0x100 EXP DUP2 SLOAD DUP2 PUSH1 0xFF MUL NOT AND SWAP1 DUP4 ISZERO ISZERO MUL OR SWAP1 SSTORE POP DUP2 SWAP3 POP POP POP SWAP2 SWAP1 POP JUMP JUMPDEST PUSH0 DUP1 PUSH0 PUSH1 0x1 DUP1 SLOAD SWAP1 POP SUB PUSH2 0x7CE JUMPI PUSH0 SWAP1 POP PUSH2 0x7D7 JUMP JUMPDEST PUSH1 0x1 DUP1 SLOAD SWAP1 POP SWAP1 POP JUMPDEST PUSH0 PUSH1 0x1 DUP1 DUP2 PUSH1 0x1 DUP2 SLOAD ADD DUP1 DUP3 SSTORE DUP1 SWAP2 POP POP SUB SWAP1 PUSH0 MSTORE PUSH1 0x20 PUSH0 KECCAK256 SWAP1 PUSH1 0x5 MUL ADD SWAP1 POP DUP2 DUP2 PUSH0 ADD DUP2 SWAP1 SSTORE POP DUP5 DUP2 PUSH1 0x1 ADD SWAP1 DUP2 PUSH2 0x810 SWAP2 SWAP1 PUSH2 0x11C1 JUMP JUMPDEST POP CALLER DUP2 PUSH1 0x2 ADD PUSH0 PUSH2 0x100 EXP DUP2 SLOAD DUP2 PUSH20 0xFFFFFFFFFFFFFFFFFFFFFFFFFFFFFFFFFFFFFFFF MUL NOT AND SWAP1 DUP4 PUSH20 0xFFFFFFFFFFFFFFFFFFFFFFFFFFFFFFFFFFFFFFFF AND MUL OR SWAP1 SSTORE POP DUP4 DUP2 PUSH1 0x3 ADD DUP2 SWAP1 SSTORE POP DUP2 SWAP3 POP POP POP SWAP3 SWAP2 POP POP JUMP JUMPDEST PUSH0 DUP1 PUSH0 SWAP1 SLOAD SWAP1 PUSH2 0x100 EXP SWAP1 DIV PUSH20 0xFFFFFFFFFFFFFFFFFFFFFFFFFFFFFFFFFFFFFFFF AND SWAP1 POP SWAP1 JUMP JUMPDEST PUSH0 PUSH1 0x40 MLOAD SWAP1 POP SWAP1 JUMP JUMPDEST PUSH0 DUP1 REVERT JUMPDEST PUSH0 DUP1 REVERT JUMPDEST PUSH0 PUSH20 0xFFFFFFFFFFFFFFFFFFFFFFFFFFFFFFFFFFFFFFFF DUP3 AND SWAP1 POP SWAP2 SWAP1 POP JUMP JUMPDEST PUSH0 PUSH2 0x8C8 DUP3 PUSH2 0x89F JUMP JUMPDEST SWAP1 POP SWAP2 SWAP1 POP JUMP JUMPDEST PUSH2 0x8D8 DUP2 PUSH2 0x8BE JUMP JUMPDEST DUP2 EQ PUSH2 0x8E2 JUMPI PUSH0 DUP1 REVERT JUMPDEST POP JUMP JUMPDEST PUSH0 DUP2 CALLDATALOAD SWAP1 POP PUSH2 0x8F3 DUP2 PUSH2 0x8CF JUMP JUMPDEST SWAP3 SWAP2 POP POP JUMP JUMPDEST PUSH0 DUP2 SWAP1 POP SWAP2 SWAP1 POP JUMP JUMPDEST PUSH2 0x90B DUP2 PUSH2 0x8F9 JUMP JUMPDEST DUP2 EQ PUSH2 0x915 JUMPI PUSH0 DUP1 REVERT JUMPDEST POP JUMP JUMPDEST PUSH0 DUP2 CALLDATALOAD SWAP1 POP PUSH2 0x926 DUP2 PUSH2 0x902 JUMP JUMPDEST SWAP3 SWAP2 POP POP JUMP JUMPDEST PUSH0 DUP1 PUSH1 0x40 DUP4 DUP6 SUB SLT ISZERO PUSH2 0x942 JUMPI PUSH2 0x941 PUSH2 0x897 JUMP JUMPDEST JUMPDEST PUSH0 PUSH2 0x94F DUP6 DUP3 DUP7 ADD PUSH2 0x8E5 JUMP JUMPDEST SWAP3 POP POP PUSH1 0x20 PUSH2 0x960 DUP6 DUP3 DUP7 ADD PUSH2 0x918 JUMP JUMPDEST SWAP2 POP POP SWAP3 POP SWAP3 SWAP1 POP JUMP JUMPDEST PUSH0 DUP1 PUSH1 0x40 DUP4 DUP6 SUB SLT ISZERO PUSH2 0x980 JUMPI PUSH2 0x97F PUSH2 0x897 JUMP JUMPDEST JUMPDEST PUSH0 PUSH2 0x98D DUP6 DUP3 DUP7 ADD PUSH2 0x918 JUMP JUMPDEST SWAP3 POP POP PUSH1 0x20 PUSH2 0x99E DUP6 DUP3 DUP7 ADD PUSH2 0x918 JUMP JUMPDEST SWAP2 POP POP SWAP3 POP SWAP3 SWAP1 POP JUMP JUMPDEST PUSH0 DUP2 ISZERO ISZERO SWAP1 POP SWAP2 SWAP1 POP JUMP JUMPDEST PUSH2 0x9BC DUP2 PUSH2 0x9A8 JUMP JUMPDEST DUP3 MSTORE POP POP JUMP JUMPDEST PUSH0 PUSH1 0x20 DUP3 ADD SWAP1 POP PUSH2 0x9D5 PUSH0 DUP4 ADD DUP5 PUSH2 0x9B3 JUMP JUMPDEST SWAP3 SWAP2 POP POP JUMP JUMPDEST PUSH0 PUSH1 0x20 DUP3 DUP5 SUB SLT ISZERO PUSH2 0x9F0 JUMPI PUSH2 0x9EF PUSH2 0x897 JUMP JUMPDEST JUMPDEST PUSH0 PUSH2 0x9FD DUP5 DUP3 DUP6 ADD PUSH2 0x918 JUMP JUMPDEST SWAP2 POP POP SWAP3 SWAP2 POP POP JUMP JUMPDEST PUSH2 0xA0F DUP2 PUSH2 0x8F9 JUMP JUMPDEST DUP3 MSTORE POP POP JUMP JUMPDEST PUSH0 DUP2 MLOAD SWAP1 POP SWAP2 SWAP1 POP JUMP JUMPDEST PUSH0 DUP3 DUP3 MSTORE PUSH1 0x20 DUP3 ADD SWAP1 POP SWAP3 SWAP2 POP POP JUMP JUMPDEST DUP3 DUP2 DUP4 MCOPY PUSH0 DUP4 DUP4 ADD MSTORE POP POP POP JUMP JUMPDEST PUSH0 PUSH1 0x1F NOT PUSH1 0x1F DUP4 ADD AND SWAP1 POP SWAP2 SWAP1 POP JUMP JUMPDEST PUSH0 PUSH2 0xA57 DUP3 PUSH2 0xA15 JUMP JUMPDEST PUSH2 0xA61 DUP2 DUP6 PUSH2 0xA1F JUMP JUMPDEST SWAP4 POP PUSH2 0xA71 DUP2 DUP6 PUSH1 0x20 DUP7 ADD PUSH2 0xA2F JUMP JUMPDEST PUSH2 0xA7A DUP2 PUSH2 0xA3D JUMP JUMPDEST DUP5 ADD SWAP2 POP POP SWAP3 SWAP2 POP POP JUMP JUMPDEST PUSH2 0xA8E DUP2 PUSH2 0x8BE JUMP JUMPDEST DUP3 MSTORE POP POP JUMP JUMPDEST PUSH0 DUP2 MLOAD SWAP1 POP SWAP2 SWAP1 POP JUMP JUMPDEST PUSH0 DUP3 DUP3 MSTORE PUSH1 0x20 DUP3 ADD SWAP1 POP SWAP3 SWAP2 POP POP JUMP JUMPDEST PUSH0 DUP2 SWAP1 POP PUSH1 0x20 DUP3 ADD SWAP1 POP SWAP2 SWAP1 POP JUMP JUMPDEST PUSH2 0xAC6 DUP2 PUSH2 0x8F9 JUMP JUMPDEST DUP3 MSTORE POP POP JUMP JUMPDEST PUSH2 0xAD5 DUP2 PUSH2 0x8BE JUMP JUMPDEST DUP3 MSTORE POP POP JUMP JUMPDEST PUSH2 0xAE4 DUP2 PUSH2 0x9A8 JUMP JUMPDEST DUP3 MSTORE POP POP JUMP JUMPDEST PUSH1 0x80 DUP3 ADD PUSH0 DUP3 ADD MLOAD PUSH2 0xAFE PUSH0 DUP6 ADD DUP3 PUSH2 0xABD JUMP JUMPDEST POP PUSH1 0x20 DUP3 ADD MLOAD PUSH2 0xB11 PUSH1 0x20 DUP6 ADD DUP3 PUSH2 0xACC JUMP JUMPDEST POP PUSH1 0x40 DUP3 ADD MLOAD PUSH2 0xB24 PUSH1 0x40 DUP6 ADD DUP3 PUSH2 0xADB JUMP JUMPDEST POP PUSH1 0x60 DUP3 ADD MLOAD PUSH2 0xB37 PUSH1 0x60 DUP6 ADD DUP3 PUSH2 0xACC JUMP JUMPDEST POP POP POP POP JUMP JUMPDEST PUSH0 PUSH2 0xB48 DUP4 DUP4 PUSH2 0xAEA JUMP JUMPDEST PUSH1 0x80 DUP4 ADD SWAP1 POP SWAP3 SWAP2 POP POP JUMP JUMPDEST PUSH0 PUSH1 0x20 DUP3 ADD SWAP1 POP SWAP2 SWAP1 POP JUMP JUMPDEST PUSH0 PUSH2 0xB6A DUP3 PUSH2 0xA94 JUMP JUMPDEST PUSH2 0xB74 DUP2 DUP6 PUSH2 0xA9E JUMP JUMPDEST SWAP4 POP PUSH2 0xB7F DUP4 PUSH2 0xAAE JUMP JUMPDEST DUP1 PUSH0 JUMPDEST DUP4 DUP2 LT ISZERO PUSH2 0xBAF JUMPI DUP2 MLOAD PUSH2 0xB96 DUP9 DUP3 PUSH2 0xB3D JUMP JUMPDEST SWAP8 POP PUSH2 0xBA1 DUP4 PUSH2 0xB54 JUMP JUMPDEST SWAP3 POP POP PUSH1 0x1 DUP2 ADD SWAP1 POP PUSH2 0xB82 JUMP JUMPDEST POP DUP6 SWAP4 POP POP POP POP SWAP3 SWAP2 POP POP JUMP JUMPDEST PUSH0 PUSH1 0xA0 DUP3 ADD SWAP1 POP PUSH2 0xBCF PUSH0 DUP4 ADD DUP9 PUSH2 0xA06 JUMP JUMPDEST DUP2 DUP2 SUB PUSH1 0x20 DUP4 ADD MSTORE PUSH2 0xBE1 DUP2 DUP8 PUSH2 0xA4D JUMP JUMPDEST SWAP1 POP PUSH2 0xBF0 PUSH1 0x40 DUP4 ADD DUP7 PUSH2 0xA85 JUMP JUMPDEST PUSH2 0xBFD PUSH1 0x60 DUP4 ADD DUP6 PUSH2 0xA06 JUMP JUMPDEST DUP2 DUP2 SUB PUSH1 0x80 DUP4 ADD MSTORE PUSH2 0xC0F DUP2 DUP5 PUSH2 0xB60 JUMP JUMPDEST SWAP1 POP SWAP7 SWAP6 POP POP POP POP POP POP JUMP JUMPDEST PUSH0 DUP2 SWAP1 POP SWAP2 SWAP1 POP JUMP JUMPDEST PUSH0 PUSH2 0xC3E PUSH2 0xC39 PUSH2 0xC34 DUP5 PUSH2 0x89F JUMP JUMPDEST PUSH2 0xC1B JUMP JUMPDEST PUSH2 0x89F JUMP JUMPDEST SWAP1 POP SWAP2 SWAP1 POP JUMP JUMPDEST PUSH0 PUSH2 0xC4F DUP3 PUSH2 0xC24 JUMP JUMPDEST SWAP1 POP SWAP2 SWAP1 POP JUMP JUMPDEST PUSH0 PUSH2 0xC60 DUP3 PUSH2 0xC45 JUMP JUMPDEST SWAP1 POP SWAP2 SWAP1 POP JUMP JUMPDEST PUSH2 0xC70 DUP2 PUSH2 0xC56 JUMP JUMPDEST DUP3 MSTORE POP POP JUMP JUMPDEST PUSH0 PUSH1 0x20 DUP3 ADD SWAP1 POP PUSH2 0xC89 PUSH0 DUP4 ADD DUP5 PUSH2 0xC67 JUMP JUMPDEST SWAP3 SWAP2 POP POP JUMP JUMPDEST PUSH2 0xC98 DUP2 PUSH2 0x9A8 JUMP JUMPDEST DUP2 EQ PUSH2 0xCA2 JUMPI PUSH0 DUP1 REVERT JUMPDEST POP JUMP JUMPDEST PUSH0 DUP2 CALLDATALOAD SWAP1 POP PUSH2 0xCB3 DUP2 PUSH2 0xC8F JUMP JUMPDEST SWAP3 SWAP2 POP POP JUMP JUMPDEST PUSH0 DUP1 PUSH0 DUP1 PUSH1 0x80 DUP6 DUP8 SUB SLT ISZERO PUSH2 0xCD1 JUMPI PUSH2 0xCD0 PUSH2 0x897 JUMP JUMPDEST JUMPDEST PUSH0 PUSH2 0xCDE DUP8 DUP3 DUP9 ADD PUSH2 0x918 JUMP JUMPDEST SWAP5 POP POP PUSH1 0x20 PUSH2 0xCEF DUP8 DUP3 DUP9 ADD PUSH2 0x918 JUMP JUMPDEST SWAP4 POP POP PUSH1 0x40 PUSH2 0xD00 DUP8 DUP3 DUP9 ADD PUSH2 0x918 JUMP JUMPDEST SWAP3 POP POP PUSH1 0x60 PUSH2 0xD11 DUP8 DUP3 DUP9 ADD PUSH2 0xCA5 JUMP JUMPDEST SWAP2 POP POP SWAP3 SWAP6 SWAP2 SWAP5 POP SWAP3 POP JUMP JUMPDEST PUSH0 PUSH1 0x20 DUP3 ADD SWAP1 POP PUSH2 0xD30 PUSH0 DUP4 ADD DUP5 PUSH2 0xA06 JUMP JUMPDEST SWAP3 SWAP2 POP POP JUMP JUMPDEST PUSH0 DUP1 REVERT JUMPDEST PUSH0 DUP1 REVERT JUMPDEST PUSH32 0x4E487B7100000000000000000000000000000000000000000000000000000000 PUSH0 MSTORE PUSH1 0x41 PUSH1 0x4 MSTORE PUSH1 0x24 PUSH0 REVERT JUMPDEST PUSH2 0xD74 DUP3 PUSH2 0xA3D JUMP JUMPDEST DUP2 ADD DUP2 DUP2 LT PUSH8 0xFFFFFFFFFFFFFFFF DUP3 GT OR ISZERO PUSH2 0xD93 JUMPI PUSH2 0xD92 PUSH2 0xD3E JUMP JUMPDEST JUMPDEST DUP1 PUSH1 0x40 MSTORE POP POP POP JUMP JUMPDEST PUSH0 PUSH2 0xDA5 PUSH2 0x88E JUMP JUMPDEST SWAP1 POP PUSH2 0xDB1 DUP3 DUP3 PUSH2 0xD6B JUMP JUMPDEST SWAP2 SWAP1 POP JUMP JUMPDEST PUSH0 PUSH8 0xFFFFFFFFFFFFFFFF DUP3 GT ISZERO PUSH2 0xDD0 JUMPI PUSH2 0xDCF PUSH2 0xD3E JUMP JUMPDEST JUMPDEST PUSH2 0xDD9 DUP3 PUSH2 0xA3D JUMP JUMPDEST SWAP1 POP PUSH1 0x20 DUP2 ADD SWAP1 POP SWAP2 SWAP1 POP JUMP JUMPDEST DUP3 DUP2 DUP4 CALLDATACOPY PUSH0 DUP4 DUP4 ADD MSTORE POP POP POP JUMP JUMPDEST PUSH0 PUSH2 0xE06 PUSH2 0xE01 DUP5 PUSH2 0xDB6 JUMP JUMPDEST PUSH2 0xD9C JUMP JUMPDEST SWAP1 POP DUP3 DUP2 MSTORE PUSH1 0x20 DUP2 ADD DUP5 DUP5 DUP5 ADD GT ISZERO PUSH2 0xE22 JUMPI PUSH2 0xE21 PUSH2 0xD3A JUMP JUMPDEST JUMPDEST PUSH2 0xE2D DUP5 DUP3 DUP6 PUSH2 0xDE6 JUMP JUMPDEST POP SWAP4 SWAP3 POP POP POP JUMP JUMPDEST PUSH0 DUP3 PUSH1 0x1F DUP4 ADD SLT PUSH2 0xE49 JUMPI PUSH2 0xE48 PUSH2 0xD36 JUMP JUMPDEST JUMPDEST DUP2 CALLDATALOAD PUSH2 0xE59 DUP5 DUP3 PUSH1 0x20 DUP7 ADD PUSH2 0xDF4 JUMP JUMPDEST SWAP2 POP POP SWAP3 SWAP2 POP POP JUMP JUMPDEST PUSH0 DUP1 PUSH1 0x40 DUP4 DUP6 SUB SLT ISZERO PUSH2 0xE78 JUMPI PUSH2 0xE77 PUSH2 0x897 JUMP JUMPDEST JUMPDEST PUSH0 DUP4 ADD CALLDATALOAD PUSH8 0xFFFFFFFFFFFFFFFF DUP2 GT ISZERO PUSH2 0xE95 JUMPI PUSH2 0xE94 PUSH2 0x89B JUMP JUMPDEST JUMPDEST PUSH2 0xEA1 DUP6 DUP3 DUP7 ADD PUSH2 0xE35 JUMP JUMPDEST SWAP3 POP POP PUSH1 0x20 PUSH2 0xEB2 DUP6 DUP3 DUP7 ADD PUSH2 0x918 JUMP JUMPDEST SWAP2 POP POP SWAP3 POP SWAP3 SWAP1 POP JUMP JUMPDEST PUSH0 PUSH1 0x20 DUP3 ADD SWAP1 POP PUSH2 0xECF PUSH0 DUP4 ADD DUP5 PUSH2 0xA85 JUMP JUMPDEST SWAP3 SWAP2 POP POP JUMP JUMPDEST PUSH0 PUSH1 0x40 DUP3 ADD SWAP1 POP PUSH2 0xEE8 PUSH0 DUP4 ADD DUP6 PUSH2 0xA85 JUMP JUMPDEST PUSH2 0xEF5 PUSH1 0x20 DUP4 ADD DUP5 PUSH2 0xA06 JUMP JUMPDEST SWAP4 SWAP3 POP POP POP JUMP JUMPDEST PUSH0 DUP2 MLOAD SWAP1 POP PUSH2 0xF0A DUP2 PUSH2 0xC8F JUMP JUMPDEST SWAP3 SWAP2 POP POP JUMP JUMPDEST PUSH0 PUSH1 0x20 DUP3 DUP5 SUB SLT ISZERO PUSH2 0xF25 JUMPI PUSH2 0xF24 PUSH2 0x897 JUMP JUMPDEST JUMPDEST PUSH0 PUSH2 0xF32 DUP5 DUP3 DUP6 ADD PUSH2 0xEFC JUMP JUMPDEST SWAP2 POP POP SWAP3 SWAP2 POP POP JUMP JUMPDEST PUSH32 0x546F6B656E207472616E73666572206661696C65640000000000000000000000 PUSH0 DUP3 ADD MSTORE POP JUMP JUMPDEST PUSH0 PUSH2 0xF6F PUSH1 0x15 DUP4 PUSH2 0xA1F JUMP JUMPDEST SWAP2 POP PUSH2 0xF7A DUP3 PUSH2 0xF3B JUMP JUMPDEST PUSH1 0x20 DUP3 ADD SWAP1 POP SWAP2 SWAP1 POP JUMP JUMPDEST PUSH0 PUSH1 0x20 DUP3 ADD SWAP1 POP DUP2 DUP2 SUB PUSH0 DUP4 ADD MSTORE PUSH2 0xF9C DUP2 PUSH2 0xF63 JUMP JUMPDEST SWAP1 POP SWAP2 SWAP1 POP JUMP JUMPDEST PUSH32 0x4E487B7100000000000000000000000000000000000000000000000000000000 PUSH0 MSTORE PUSH1 0x32 PUSH1 0x4 MSTORE PUSH1 0x24 PUSH0 REVERT JUMPDEST PUSH32 0x4E487B7100000000000000000000000000000000000000000000000000000000 PUSH0 MSTORE PUSH1 0x22 PUSH1 0x4 MSTORE PUSH1 0x24 PUSH0 REVERT JUMPDEST PUSH0 PUSH1 0x2 DUP3 DIV SWAP1 POP PUSH1 0x1 DUP3 AND DUP1 PUSH2 0x1014 JUMPI PUSH1 0x7F DUP3 AND SWAP2 POP JUMPDEST PUSH1 0x20 DUP3 LT DUP2 SUB PUSH2 0x1027 JUMPI PUSH2 0x1026 PUSH2 0xFD0 JUMP JUMPDEST JUMPDEST POP SWAP2 SWAP1 POP JUMP JUMPDEST PUSH0 DUP2 SWAP1 POP DUP2 PUSH0 MSTORE PUSH1 0x20 PUSH0 KECCAK256 SWAP1 POP SWAP2 SWAP1 POP JUMP JUMPDEST PUSH0 PUSH1 0x20 PUSH1 0x1F DUP4 ADD DIV SWAP1 POP SWAP2 SWAP1 POP JUMP JUMPDEST PUSH0 DUP3 DUP3 SHL SWAP1 POP SWAP3 SWAP2 POP POP JUMP JUMPDEST PUSH0 PUSH1 0x8 DUP4 MUL PUSH2 0x1089 PUSH32 0xFFFFFFFFFFFFFFFFFFFFFFFFFFFFFFFFFFFFFFFFFFFFFFFFFFFFFFFFFFFFFFFF DUP3 PUSH2 0x104E JUMP JUMPDEST PUSH2 0x1093 DUP7 DUP4 PUSH2 0x104E JUMP JUMPDEST SWAP6 POP DUP1 NOT DUP5 AND SWAP4 POP DUP1 DUP7 AND DUP5 OR SWAP3 POP POP POP SWAP4 SWAP3 POP POP POP JUMP JUMPDEST PUSH0 PUSH2 0x10C5 PUSH2 0x10C0 PUSH2 0x10BB DUP5 PUSH2 0x8F9 JUMP JUMPDEST PUSH2 0xC1B JUMP JUMPDEST PUSH2 0x8F9 JUMP JUMPDEST SWAP1 POP SWAP2 SWAP1 POP JUMP JUMPDEST PUSH0 DUP2 SWAP1 POP SWAP2 SWAP1 POP JUMP JUMPDEST PUSH2 0x10DE DUP4 PUSH2 0x10AB JUMP JUMPDEST PUSH2 0x10F2 PUSH2 0x10EA DUP3 PUSH2 0x10CC JUMP JUMPDEST DUP5 DUP5 SLOAD PUSH2 0x105A JUMP JUMPDEST DUP3 SSTORE POP POP POP POP JUMP JUMPDEST PUSH0 SWAP1 JUMP JUMPDEST PUSH2 0x1106 PUSH2 0x10FA JUMP JUMPDEST PUSH2 0x1111 DUP2 DUP5 DUP5 PUSH2 0x10D5 JUMP JUMPDEST POP POP POP JUMP JUMPDEST JUMPDEST DUP2 DUP2 LT ISZERO PUSH2 0x1134 JUMPI PUSH2 0x1129 PUSH0 DUP3 PUSH2 0x10FE JUMP JUMPDEST PUSH1 0x1 DUP2 ADD SWAP1 POP PUSH2 0x1117 JUMP JUMPDEST POP POP JUMP JUMPDEST PUSH1 0x1F DUP3 GT ISZERO PUSH2 0x1179 JUMPI PUSH2 0x114A DUP2 PUSH2 0x102D JUMP JUMPDEST PUSH2 0x1153 DUP5 PUSH2 0x103F JUMP JUMPDEST DUP2 ADD PUSH1 0x20 DUP6 LT ISZERO PUSH2 0x1162 JUMPI DUP2 SWAP1 POP JUMPDEST PUSH2 0x1176 PUSH2 0x116E DUP6 PUSH2 0x103F JUMP JUMPDEST DUP4 ADD DUP3 PUSH2 0x1116 JUMP JUMPDEST POP POP JUMPDEST POP POP POP JUMP JUMPDEST PUSH0 DUP3 DUP3 SHR SWAP1 POP SWAP3 SWAP2 POP POP JUMP JUMPDEST PUSH0 PUSH2 0x1199 PUSH0 NOT DUP5 PUSH1 0x8 MUL PUSH2 0x117E JUMP JUMPDEST NOT DUP1 DUP4 AND SWAP2 POP POP SWAP3 SWAP2 POP POP JUMP JUMPDEST PUSH0 PUSH2 0x11B1 DUP4 DUP4 PUSH2 0x118A JUMP JUMPDEST SWAP2 POP DUP3 PUSH1 0x2 MUL DUP3 OR SWAP1 POP SWAP3 SWAP2 POP POP JUMP JUMPDEST PUSH2 0x11CA DUP3 PUSH2 0xA15 JUMP JUMPDEST PUSH8 0xFFFFFFFFFFFFFFFF DUP2 GT ISZERO PUSH2 0x11E3 JUMPI PUSH2 0x11E2 PUSH2 0xD3E JUMP JUMPDEST JUMPDEST PUSH2 0x11ED DUP3 SLOAD PUSH2 0xFFD JUMP JUMPDEST PUSH2 0x11F8 DUP3 DUP3 DUP6 PUSH2 0x1138 JUMP JUMPDEST PUSH0 PUSH1 0x20 SWAP1 POP PUSH1 0x1F DUP4 GT PUSH1 0x1 DUP2 EQ PUSH2 0x1229 JUMPI PUSH0 DUP5 ISZERO PUSH2 0x1217 JUMPI DUP3 DUP8 ADD MLOAD SWAP1 POP JUMPDEST PUSH2 0x1221 DUP6 DUP3 PUSH2 0x11A6 JUMP JUMPDEST DUP7 SSTORE POP PUSH2 0x1288 JUMP JUMPDEST PUSH1 0x1F NOT DUP5 AND PUSH2 0x1237 DUP7 PUSH2 0x102D JUMP JUMPDEST PUSH0 JUMPDEST DUP3 DUP2 LT ISZERO PUSH2 0x125E JUMPI DUP5 DUP10 ADD MLOAD DUP3 SSTORE PUSH1 0x1 DUP3 ADD SWAP2 POP PUSH1 0x20 DUP6 ADD SWAP5 POP PUSH1 0x20 DUP2 ADD SWAP1 POP PUSH2 0x1239 JUMP JUMPDEST DUP7 DUP4 LT ISZERO PUSH2 0x127B JUMPI DUP5 DUP10 ADD MLOAD PUSH2 0x1277 PUSH1 0x1F DUP10 AND DUP3 PUSH2 0x118A JUMP JUMPDEST DUP4 SSTORE POP JUMPDEST PUSH1 0x1 PUSH1 0x2 DUP9 MUL ADD DUP9 SSTORE POP POP POP JUMPDEST POP POP POP POP POP POP JUMP INVALID LOG2 PUSH5 0x6970667358 0x22 SLT KECCAK256 DUP1 0xF7 DELEGATECALL 0xE XOR 0xDA BLOBBASEFEE LOG0 PUSH9 0x79F784161439FA76A5 BYTE 0xFB 0x2F LT 0xDD PUSH29 0x71CEB84293A11DF564736F6C634300081A00336080604052600260055F PUSH2 0x100 EXP DUP2 SLOAD DUP2 PUSH1 0xFF MUL NOT AND SWAP1 DUP4 PUSH1 0xFF AND MUL OR SWAP1 SSTORE POP CALLVALUE DUP1 ISZERO PUSH2 0x2A JUMPI PUSH0 DUP1 REVERT JUMPDEST POP PUSH1 0x40 MLOAD DUP1 PUSH1 0x40 ADD PUSH1 0x40 MSTORE DUP1 PUSH1 0xD DUP2 MSTORE PUSH1 0x20 ADD PUSH32 0x4461746150756E6B20436F696E00000000000000000000000000000000000000 DUP2 MSTORE POP PUSH1 0x40 MLOAD DUP1 PUSH1 0x40 ADD PUSH1 0x40 MSTORE DUP1 PUSH1 0x3 DUP2 MSTORE PUSH1 0x20 ADD PUSH32 0x4450430000000000000000000000000000000000000000000000000000000000 DUP2 MSTORE POP DUP2 PUSH1 0x3 SWAP1 DUP2 PUSH2 0xA6 SWAP2 SWAP1 PUSH2 0x5CF JUMP JUMPDEST POP DUP1 PUSH1 0x4 SWAP1 DUP2 PUSH2 0xB6 SWAP2 SWAP1 PUSH2 0x5CF JUMP JUMPDEST POP POP POP PUSH2 0xF2 CALLER PUSH1 0x5 PUSH0 SWAP1 SLOAD SWAP1 PUSH2 0x100 EXP SWAP1 DIV PUSH1 0xFF AND PUSH1 0xFF AND PUSH1 0xA PUSH2 0xDB SWAP2 SWAP1 PUSH2 0x7FA JUMP JUMPDEST PUSH1 0x64 PUSH2 0xE7 SWAP2 SWAP1 PUSH2 0x844 JUMP JUMPDEST PUSH2 0xF7 PUSH1 0x20 SHL PUSH1 0x20 SHR JUMP JUMPDEST PUSH2 0x96D JUMP JUMPDEST PUSH0 PUSH20 0xFFFFFFFFFFFFFFFFFFFFFFFFFFFFFFFFFFFFFFFF AND DUP3 PUSH20 0xFFFFFFFFFFFFFFFFFFFFFFFFFFFFFFFFFFFFFFFF AND SUB PUSH2 0x167 JUMPI PUSH0 PUSH1 0x40 MLOAD PUSH32 0xEC442F0500000000000000000000000000000000000000000000000000000000 DUP2 MSTORE PUSH1 0x4 ADD PUSH2 0x15E SWAP2 SWAP1 PUSH2 0x8C4 JUMP JUMPDEST PUSH1 0x40 MLOAD DUP1 SWAP2 SUB SWAP1 REVERT JUMPDEST PUSH2 0x178 PUSH0 DUP4 DUP4 PUSH2 0x17C PUSH1 0x20 SHL PUSH1 0x20 SHR JUMP JUMPDEST POP POP JUMP JUMPDEST PUSH0 PUSH20 0xFFFFFFFFFFFFFFFFFFFFFFFFFFFFFFFFFFFFFFFF AND DUP4 PUSH20 0xFFFFFFFFFFFFFFFFFFFFFFFFFFFFFFFFFFFFFFFF AND SUB PUSH2 0x1CC JUMPI DUP1 PUSH1 0x2 PUSH0 DUP3 DUP3 SLOAD PUSH2 0x1C0 SWAP2 SWAP1 PUSH2 0x8DD JUMP JUMPDEST SWAP3 POP POP DUP2 SWAP1 SSTORE POP PUSH2 0x29A JUMP JUMPDEST PUSH0 DUP1 PUSH0 DUP6 PUSH20 0xFFFFFFFFFFFFFFFFFFFFFFFFFFFFFFFFFFFFFFFF AND PUSH20 0xFFFFFFFFFFFFFFFFFFFFFFFFFFFFFFFFFFFFFFFF AND DUP2 MSTORE PUSH1 0x20 ADD SWAP1 DUP2 MSTORE PUSH1 0x20 ADD PUSH0 KECCAK256 SLOAD SWAP1 POP DUP2 DUP2 LT ISZERO PUSH2 0x255 JUMPI DUP4 DUP2 DUP4 PUSH1 0x40 MLOAD PUSH32 0xE450D38C00000000000000000000000000000000000000000000000000000000 DUP2 MSTORE PUSH1 0x4 ADD PUSH2 0x24C SWAP4 SWAP3 SWAP2 SWAP1 PUSH2 0x91F JUMP JUMPDEST PUSH1 0x40 MLOAD DUP1 SWAP2 SUB SWAP1 REVERT JUMPDEST DUP2 DUP2 SUB PUSH0 DUP1 DUP7 PUSH20 0xFFFFFFFFFFFFFFFFFFFFFFFFFFFFFFFFFFFFFFFF AND PUSH20 0xFFFFFFFFFFFFFFFFFFFFFFFFFFFFFFFFFFFFFFFF AND DUP2 MSTORE PUSH1 0x20 ADD SWAP1 DUP2 MSTORE PUSH1 0x20 ADD PUSH0 KECCAK256 DUP2 SWAP1 SSTORE POP POP JUMPDEST PUSH0 PUSH20 0xFFFFFFFFFFFFFFFFFFFFFFFFFFFFFFFFFFFFFFFF AND DUP3 PUSH20 0xFFFFFFFFFFFFFFFFFFFFFFFFFFFFFFFFFFFFFFFF AND SUB PUSH2 0x2E1 JUMPI DUP1 PUSH1 0x2 PUSH0 DUP3 DUP3 SLOAD SUB SWAP3 POP POP DUP2 SWAP1 SSTORE POP PUSH2 0x32B JUMP JUMPDEST DUP1 PUSH0 DUP1 DUP5 PUSH20 0xFFFFFFFFFFFFFFFFFFFFFFFFFFFFFFFFFFFFFFFF AND PUSH20 0xFFFFFFFFFFFFFFFFFFFFFFFFFFFFFFFFFFFFFFFF AND DUP2 MSTORE PUSH1 0x20 ADD SWAP1 DUP2 MSTORE PUSH1 0x20 ADD PUSH0 KECCAK256 PUSH0 DUP3 DUP3 SLOAD ADD SWAP3 POP POP DUP2 SWAP1 SSTORE POP JUMPDEST DUP2 PUSH20 0xFFFFFFFFFFFFFFFFFFFFFFFFFFFFFFFFFFFFFFFF AND DUP4 PUSH20 0xFFFFFFFFFFFFFFFFFFFFFFFFFFFFFFFFFFFFFFFF AND PUSH32 0xDDF252AD1BE2C89B69C2B068FC378DAA952BA7F163C4A11628F55A4DF523B3EF DUP4 PUSH1 0x40 MLOAD PUSH2 0x388 SWAP2 SWAP1 PUSH2 0x954 JUMP JUMPDEST PUSH1 0x40 MLOAD DUP1 SWAP2 SUB SWAP1 LOG3 POP POP POP JUMP JUMPDEST PUSH0 DUP2 MLOAD SWAP1 POP SWAP2 SWAP1 POP JUMP JUMPDEST PUSH32 0x4E487B7100000000000000000000000000000000000000000000000000000000 PUSH0 MSTORE PUSH1 0x41 PUSH1 0x4 MSTORE PUSH1 0x24 PUSH0 REVERT JUMPDEST PUSH32 0x4E487B7100000000000000000000000000000000000000000000000000000000 PUSH0 MSTORE PUSH1 0x22 PUSH1 0x4 MSTORE PUSH1 0x24 PUSH0 REVERT JUMPDEST PUSH0 PUSH1 0x2 DUP3 DIV SWAP1 POP PUSH1 0x1 DUP3 AND DUP1 PUSH2 0x410 JUMPI PUSH1 0x7F DUP3 AND SWAP2 POP JUMPDEST PUSH1 0x20 DUP3 LT DUP2 SUB PUSH2 0x423 JUMPI PUSH2 0x422 PUSH2 0x3CC JUMP JUMPDEST JUMPDEST POP SWAP2 SWAP1 POP JUMP JUMPDEST PUSH0 DUP2 SWAP1 POP DUP2 PUSH0 MSTORE PUSH1 0x20 PUSH0 KECCAK256 SWAP1 POP SWAP2 SWAP1 POP JUMP JUMPDEST PUSH0 PUSH1 0x20 PUSH1 0x1F DUP4 ADD DIV SWAP1 POP SWAP2 SWAP1 POP JUMP JUMPDEST PUSH0 DUP3 DUP3 SHL SWAP1 POP SWAP3 SWAP2 POP POP JUMP JUMPDEST PUSH0 PUSH1 0x8 DUP4 MUL PUSH2 0x485 PUSH32 0xFFFFFFFFFFFFFFFFFFFFFFFFFFFFFFFFFFFFFFFFFFFFFFFFFFFFFFFFFFFFFFFF DUP3 PUSH2 0x44A JUMP JUMPDEST PUSH2 0x48F DUP7 DUP4 PUSH2 0x44A JUMP JUMPDEST SWAP6 POP DUP1 NOT DUP5 AND SWAP4 POP DUP1 DUP7 AND DUP5 OR SWAP3 POP POP POP SWAP4 SWAP3 POP POP POP JUMP JUMPDEST PUSH0 DUP2 SWAP1 POP SWAP2 SWAP1 POP JUMP JUMPDEST PUSH0 DUP2 SWAP1 POP SWAP2 SWAP1 POP JUMP JUMPDEST PUSH0 PUSH2 0x4D3 PUSH2 0x4CE PUSH2 0x4C9 DUP5 PUSH2 0x4A7 JUMP JUMPDEST PUSH2 0x4B0 JUMP JUMPDEST PUSH2 0x4A7 JUMP JUMPDEST SWAP1 POP SWAP2 SWAP1 POP JUMP JUMPDEST PUSH0 DUP2 SWAP1 POP SWAP2 SWAP1 POP JUMP JUMPDEST PUSH2 0x4EC DUP4 PUSH2 0x4B9 JUMP JUMPDEST PUSH2 0x500 PUSH2 0x4F8 DUP3 PUSH2 0x4DA JUMP JUMPDEST DUP5 DUP5 SLOAD PUSH2 0x456 JUMP JUMPDEST DUP3 SSTORE POP POP POP POP JUMP JUMPDEST PUSH0 SWAP1 JUMP JUMPDEST PUSH2 0x514 PUSH2 0x508 JUMP JUMPDEST PUSH2 0x51F DUP2 DUP5 DUP5 PUSH2 0x4E3 JUMP JUMPDEST POP POP POP JUMP JUMPDEST JUMPDEST DUP2 DUP2 LT ISZERO PUSH2 0x542 JUMPI PUSH2 0x537 PUSH0 DUP3 PUSH2 0x50C JUMP JUMPDEST PUSH1 0x1 DUP2 ADD SWAP1 POP PUSH2 0x525 JUMP JUMPDEST POP POP JUMP JUMPDEST PUSH1 0x1F DUP3 GT ISZERO PUSH2 0x587 JUMPI PUSH2 0x558 DUP2 PUSH2 0x429 JUMP JUMPDEST PUSH2 0x561 DUP5 PUSH2 0x43B JUMP JUMPDEST DUP2 ADD PUSH1 0x20 DUP6 LT ISZERO PUSH2 0x570 JUMPI DUP2 SWAP1 POP JUMPDEST PUSH2 0x584 PUSH2 0x57C DUP6 PUSH2 0x43B JUMP JUMPDEST DUP4 ADD DUP3 PUSH2 0x524 JUMP JUMPDEST POP POP JUMPDEST POP POP POP JUMP JUMPDEST PUSH0 DUP3 DUP3 SHR SWAP1 POP SWAP3 SWAP2 POP POP JUMP JUMPDEST PUSH0 PUSH2 0x5A7 PUSH0 NOT DUP5 PUSH1 0x8 MUL PUSH2 0x58C JUMP JUMPDEST NOT DUP1 DUP4 AND SWAP2 POP POP SWAP3 SWAP2 POP POP JUMP JUMPDEST PUSH0 PUSH2 0x5BF DUP4 DUP4 PUSH2 0x598 JUMP JUMPDEST SWAP2 POP DUP3 PUSH1 0x2 MUL DUP3 OR SWAP1 POP SWAP3 SWAP2 POP POP JUMP JUMPDEST PUSH2 0x5D8 DUP3 PUSH2 0x395 JUMP JUMPDEST PUSH8 0xFFFFFFFFFFFFFFFF DUP2 GT ISZERO PUSH2 0x5F1 JUMPI PUSH2 0x5F0 PUSH2 0x39F JUMP JUMPDEST JUMPDEST PUSH2 0x5FB DUP3 SLOAD PUSH2 0x3F9 JUMP JUMPDEST PUSH2 0x606 DUP3 DUP3 DUP6 PUSH2 0x546 JUMP JUMPDEST PUSH0 PUSH1 0x20 SWAP1 POP PUSH1 0x1F DUP4 GT PUSH1 0x1 DUP2 EQ PUSH2 0x637 JUMPI PUSH0 DUP5 ISZERO PUSH2 0x625 JUMPI DUP3 DUP8 ADD MLOAD SWAP1 POP JUMPDEST PUSH2 0x62F DUP6 DUP3 PUSH2 0x5B4 JUMP JUMPDEST DUP7 SSTORE POP PUSH2 0x696 JUMP JUMPDEST PUSH1 0x1F NOT DUP5 AND PUSH2 0x645 DUP7 PUSH2 0x429 JUMP JUMPDEST PUSH0 JUMPDEST DUP3 DUP2 LT ISZERO PUSH2 0x66C JUMPI DUP5 DUP10 ADD MLOAD DUP3 SSTORE PUSH1 0x1 DUP3 ADD SWAP2 POP PUSH1 0x20 DUP6 ADD SWAP5 POP PUSH1 0x20 DUP2 ADD SWAP1 POP PUSH2 0x647 JUMP JUMPDEST DUP7 DUP4 LT ISZERO PUSH2 0x689 JUMPI DUP5 DUP10 ADD MLOAD PUSH2 0x685 PUSH1 0x1F DUP10 AND DUP3 PUSH2 0x598 JUMP JUMPDEST DUP4 SSTORE POP JUMPDEST PUSH1 0x1 PUSH1 0x2 DUP9 MUL ADD DUP9 SSTORE POP POP POP JUMPDEST POP POP POP POP POP POP JUMP JUMPDEST PUSH32 0x4E487B7100000000000000000000000000000000000000000000000000000000 PUSH0 MSTORE PUSH1 0x11 PUSH1 0x4 MSTORE PUSH1 0x24 PUSH0 REVERT JUMPDEST PUSH0 DUP2 PUSH1 0x1 SHR SWAP1 POP SWAP2 SWAP1 POP JUMP JUMPDEST PUSH0 DUP1 DUP3 SWAP2 POP DUP4 SWAP1 POP JUMPDEST PUSH1 0x1 DUP6 GT ISZERO PUSH2 0x720 JUMPI DUP1 DUP7 DIV DUP2 GT ISZERO PUSH2 0x6FC JUMPI PUSH2 0x6FB PUSH2 0x69E JUMP JUMPDEST JUMPDEST PUSH1 0x1 DUP6 AND ISZERO PUSH2 0x70B JUMPI DUP1 DUP3 MUL SWAP2 POP JUMPDEST DUP1 DUP2 MUL SWAP1 POP PUSH2 0x719 DUP6 PUSH2 0x6CB JUMP JUMPDEST SWAP5 POP PUSH2 0x6E0 JUMP JUMPDEST SWAP5 POP SWAP5 SWAP3 POP POP POP JUMP JUMPDEST PUSH0 DUP3 PUSH2 0x738 JUMPI PUSH1 0x1 SWAP1 POP PUSH2 0x7F3 JUMP JUMPDEST DUP2 PUSH2 0x745 JUMPI PUSH0 SWAP1 POP PUSH2 0x7F3 JUMP JUMPDEST DUP2 PUSH1 0x1 DUP2 EQ PUSH2 0x75B JUMPI PUSH1 0x2 DUP2 EQ PUSH2 0x765 JUMPI PUSH2 0x794 JUMP JUMPDEST PUSH1 0x1 SWAP2 POP POP PUSH2 0x7F3 JUMP JUMPDEST PUSH1 0xFF DUP5 GT ISZERO PUSH2 0x777 JUMPI PUSH2 0x776 PUSH2 0x69E JUMP JUMPDEST JUMPDEST DUP4 PUSH1 0x2 EXP SWAP2 POP DUP5 DUP3 GT ISZERO PUSH2 0x78E JUMPI PUSH2 0x78D PUSH2 0x69E JUMP JUMPDEST JUMPDEST POP PUSH2 0x7F3 JUMP JUMPDEST POP PUSH1 0x20 DUP4 LT PUSH2 0x133 DUP4 LT AND PUSH1 0x4E DUP5 LT PUSH1 0xB DUP5 LT AND OR ISZERO PUSH2 0x7C9 JUMPI DUP3 DUP3 EXP SWAP1 POP DUP4 DUP2 GT ISZERO PUSH2 0x7C4 JUMPI PUSH2 0x7C3 PUSH2 0x69E JUMP JUMPDEST JUMPDEST PUSH2 0x7F3 JUMP JUMPDEST PUSH2 0x7D6 DUP5 DUP5 DUP5 PUSH1 0x1 PUSH2 0x6D7 JUMP JUMPDEST SWAP3 POP SWAP1 POP DUP2 DUP5 DIV DUP2 GT ISZERO PUSH2 0x7ED JUMPI PUSH2 0x7EC PUSH2 0x69E JUMP JUMPDEST JUMPDEST DUP2 DUP2 MUL SWAP1 POP JUMPDEST SWAP4 SWAP3 POP POP POP JUMP JUMPDEST PUSH0 PUSH2 0x804 DUP3 PUSH2 0x4A7 JUMP JUMPDEST SWAP2 POP PUSH2 0x80F DUP4 PUSH2 0x4A7 JUMP JUMPDEST SWAP3 POP PUSH2 0x83C PUSH32 0xFFFFFFFFFFFFFFFFFFFFFFFFFFFFFFFFFFFFFFFFFFFFFFFFFFFFFFFFFFFFFFFF DUP5 DUP5 PUSH2 0x729 JUMP JUMPDEST SWAP1 POP SWAP3 SWAP2 POP POP JUMP JUMPDEST PUSH0 PUSH2 0x84E DUP3 PUSH2 0x4A7 JUMP JUMPDEST SWAP2 POP PUSH2 0x859 DUP4 PUSH2 0x4A7 JUMP JUMPDEST SWAP3 POP DUP3 DUP3 MUL PUSH2 0x867 DUP2 PUSH2 0x4A7 JUMP JUMPDEST SWAP2 POP DUP3 DUP3 DIV DUP5 EQ DUP4 ISZERO OR PUSH2 0x87E JUMPI PUSH2 0x87D PUSH2 0x69E JUMP JUMPDEST JUMPDEST POP SWAP3 SWAP2 POP POP JUMP JUMPDEST PUSH0 PUSH20 0xFFFFFFFFFFFFFFFFFFFFFFFFFFFFFFFFFFFFFFFF DUP3 AND SWAP1 POP SWAP2 SWAP1 POP JUMP JUMPDEST PUSH0 PUSH2 0x8AE DUP3 PUSH2 0x885 JUMP JUMPDEST SWAP1 POP SWAP2 SWAP1 POP JUMP JUMPDEST PUSH2 0x8BE DUP2 PUSH2 0x8A4 JUMP JUMPDEST DUP3 MSTORE POP POP JUMP JUMPDEST PUSH0 PUSH1 0x20 DUP3 ADD SWAP1 POP PUSH2 0x8D7 PUSH0 DUP4 ADD DUP5 PUSH2 0x8B5 JUMP JUMPDEST SWAP3 SWAP2 POP POP JUMP JUMPDEST PUSH0 PUSH2 0x8E7 DUP3 PUSH2 0x4A7 JUMP JUMPDEST SWAP2 POP PUSH2 0x8F2 DUP4 PUSH2 0x4A7 JUMP JUMPDEST SWAP3 POP DUP3 DUP3 ADD SWAP1 POP DUP1 DUP3 GT ISZERO PUSH2 0x90A JUMPI PUSH2 0x909 PUSH2 0x69E JUMP JUMPDEST JUMPDEST SWAP3 SWAP2 POP POP JUMP JUMPDEST PUSH2 0x919 DUP2 PUSH2 0x4A7 JUMP JUMPDEST DUP3 MSTORE POP POP JUMP JUMPDEST PUSH0 PUSH1 0x60 DUP3 ADD SWAP1 POP PUSH2 0x932 PUSH0 DUP4 ADD DUP7 PUSH2 0x8B5 JUMP JUMPDEST PUSH2 0x93F PUSH1 0x20 DUP4 ADD DUP6 PUSH2 0x910 JUMP JUMPDEST PUSH2 0x94C PUSH1 0x40 DUP4 ADD DUP5 PUSH2 0x910 JUMP JUMPDEST SWAP5 SWAP4 POP POP POP POP JUMP JUMPDEST PUSH0 PUSH1 0x20 DUP3 ADD SWAP1 POP PUSH2 0x967 PUSH0 DUP4 ADD DUP5 PUSH2 0x910 JUMP JUMPDEST SWAP3 SWAP2 POP POP JUMP JUMPDEST PUSH2 0xDEE DUP1 PUSH2 0x97A PUSH0 CODECOPY PUSH0 RETURN INVALID PUSH1 0x80 PUSH1 0x40 MSTORE CALLVALUE DUP1 ISZERO PUSH2 0xF JUMPI PUSH0 DUP1 REVERT JUMPDEST POP PUSH1 0x4 CALLDATASIZE LT PUSH2 0x91 JUMPI PUSH0 CALLDATALOAD PUSH1 0xE0 SHR DUP1 PUSH4 0x313CE567 GT PUSH2 0x64 JUMPI DUP1 PUSH4 0x313CE567 EQ PUSH2 0x131 JUMPI DUP1 PUSH4 0x70A08231 EQ PUSH2 0x14F JUMPI DUP1 PUSH4 0x95D89B41 EQ PUSH2 0x17F JUMPI DUP1 PUSH4 0xA9059CBB EQ PUSH2 0x19D JUMPI DUP1 PUSH4 0xDD62ED3E EQ PUSH2 0x1CD JUMPI PUSH2 0x91 JUMP JUMPDEST DUP1 PUSH4 0x6FDDE03 EQ PUSH2 0x95 JUMPI DUP1 PUSH4 0x95EA7B3 EQ PUSH2 0xB3 JUMPI DUP1 PUSH4 0x18160DDD EQ PUSH2 0xE3 JUMPI DUP1 PUSH4 0x23B872DD EQ PUSH2 0x101 JUMPI JUMPDEST PUSH0 DUP1 REVERT JUMPDEST PUSH2 0x9D PUSH2 0x1FD JUMP JUMPDEST PUSH1 0x40 MLOAD PUSH2 0xAA SWAP2 SWAP1 PUSH2 0xA67 JUMP JUMPDEST PUSH1 0x40 MLOAD DUP1 SWAP2 SUB SWAP1 RETURN JUMPDEST PUSH2 0xCD PUSH1 0x4 DUP1 CALLDATASIZE SUB DUP2 ADD SWAP1 PUSH2 0xC8 SWAP2 SWAP1 PUSH2 0xB18 JUMP JUMPDEST PUSH2 0x28D JUMP JUMPDEST PUSH1 0x40 MLOAD PUSH2 0xDA SWAP2 SWAP1 PUSH2 0xB70 JUMP JUMPDEST PUSH1 0x40 MLOAD DUP1 SWAP2 SUB SWAP1 RETURN JUMPDEST PUSH2 0xEB PUSH2 0x2AF JUMP JUMPDEST PUSH1 0x40 MLOAD PUSH2 0xF8 SWAP2 SWAP1 PUSH2 0xB98 JUMP JUMPDEST PUSH1 0x40 MLOAD DUP1 SWAP2 SUB SWAP1 RETURN JUMPDEST PUSH2 0x11B PUSH1 0x4 DUP1 CALLDATASIZE SUB DUP2 ADD SWAP1 PUSH2 0x116 SWAP2 SWAP1 PUSH2 0xBB1 JUMP JUMPDEST PUSH2 0x2B8 JUMP JUMPDEST PUSH1 0x40 MLOAD PUSH2 0x128 SWAP2 SWAP1 PUSH2 0xB70 JUMP JUMPDEST PUSH1 0x40 MLOAD DUP1 SWAP2 SUB SWAP1 RETURN JUMPDEST PUSH2 0x139 PUSH2 0x2E6 JUMP JUMPDEST PUSH1 0x40 MLOAD PUSH2 0x146 SWAP2 SWAP1 PUSH2 0xC1C JUMP JUMPDEST PUSH1 0x40 MLOAD DUP1 SWAP2 SUB SWAP1 RETURN JUMPDEST PUSH2 0x169 PUSH1 0x4 DUP1 CALLDATASIZE SUB DUP2 ADD SWAP1 PUSH2 0x164 SWAP2 SWAP1 PUSH2 0xC35 JUMP JUMPDEST PUSH2 0x2FB JUMP JUMPDEST PUSH1 0x40 MLOAD PUSH2 0x176 SWAP2 SWAP1 PUSH2 0xB98 JUMP JUMPDEST PUSH1 0x40 MLOAD DUP1 SWAP2 SUB SWAP1 RETURN JUMPDEST PUSH2 0x187 PUSH2 0x340 JUMP JUMPDEST PUSH1 0x40 MLOAD PUSH2 0x194 SWAP2 SWAP1 PUSH2 0xA67 JUMP JUMPDEST PUSH1 0x40 MLOAD DUP1 SWAP2 SUB SWAP1 RETURN JUMPDEST PUSH2 0x1B7 PUSH1 0x4 DUP1 CALLDATASIZE SUB DUP2 ADD SWAP1 PUSH2 0x1B2 SWAP2 SWAP1 PUSH2 0xB18 JUMP JUMPDEST PUSH2 0x3D0 JUMP JUMPDEST PUSH1 0x40 MLOAD PUSH2 0x1C4 SWAP2 SWAP1 PUSH2 0xB70 JUMP JUMPDEST PUSH1 0x40 MLOAD DUP1 SWAP2 SUB SWAP1 RETURN JUMPDEST PUSH2 0x1E7 PUSH1 0x4 DUP1 CALLDATASIZE SUB DUP2 ADD SWAP1 PUSH2 0x1E2 SWAP2 SWAP1 PUSH2 0xC60 JUMP JUMPDEST PUSH2 0x3F2 JUMP JUMPDEST PUSH1 0x40 MLOAD PUSH2 0x1F4 SWAP2 SWAP1 PUSH2 0xB98 JUMP JUMPDEST PUSH1 0x40 MLOAD DUP1 SWAP2 SUB SWAP1 RETURN JUMPDEST PUSH1 0x60 PUSH1 0x3 DUP1 SLOAD PUSH2 0x20C SWAP1 PUSH2 0xCCB JUMP JUMPDEST DUP1 PUSH1 0x1F ADD PUSH1 0x20 DUP1 SWAP2 DIV MUL PUSH1 0x20 ADD PUSH1 0x40 MLOAD SWAP1 DUP2 ADD PUSH1 0x40 MSTORE DUP1 SWAP3 SWAP2 SWAP1 DUP2 DUP2 MSTORE PUSH1 0x20 ADD DUP3 DUP1 SLOAD PUSH2 0x238 SWAP1 PUSH2 0xCCB JUMP JUMPDEST DUP1 ISZERO PUSH2 0x283 JUMPI DUP1 PUSH1 0x1F LT PUSH2 0x25A JUMPI PUSH2 0x100 DUP1 DUP4 SLOAD DIV MUL DUP4 MSTORE SWAP2 PUSH1 0x20 ADD SWAP2 PUSH2 0x283 JUMP JUMPDEST DUP3 ADD SWAP2 SWAP1 PUSH0 MSTORE PUSH1 0x20 PUSH0 KECCAK256 SWAP1 JUMPDEST DUP2 SLOAD DUP2 MSTORE SWAP1 PUSH1 0x1 ADD SWAP1 PUSH1 0x20 ADD DUP1 DUP4 GT PUSH2 0x266 JUMPI DUP3 SWAP1 SUB PUSH1 0x1F AND DUP3 ADD SWAP2 JUMPDEST POP POP POP POP POP SWAP1 POP SWAP1 JUMP JUMPDEST PUSH0 DUP1 PUSH2 0x297 PUSH2 0x474 JUMP JUMPDEST SWAP1 POP PUSH2 0x2A4 DUP2 DUP6 DUP6 PUSH2 0x47B JUMP JUMPDEST PUSH1 0x1 SWAP2 POP POP SWAP3 SWAP2 POP POP JUMP JUMPDEST PUSH0 PUSH1 0x2 SLOAD SWAP1 POP SWAP1 JUMP JUMPDEST PUSH0 DUP1 PUSH2 0x2C2 PUSH2 0x474 JUMP JUMPDEST SWAP1 POP PUSH2 0x2CF DUP6 DUP3 DUP6 PUSH2 0x48D JUMP JUMPDEST PUSH2 0x2DA DUP6 DUP6 DUP6 PUSH2 0x51F JUMP JUMPDEST PUSH1 0x1 SWAP2 POP POP SWAP4 SWAP3 POP POP POP JUMP JUMPDEST PUSH0 PUSH1 0x5 PUSH0 SWAP1 SLOAD SWAP1 PUSH2 0x100 EXP SWAP1 DIV PUSH1 0xFF AND SWAP1 POP SWAP1 JUMP JUMPDEST PUSH0 DUP1 PUSH0 DUP4 PUSH20 0xFFFFFFFFFFFFFFFFFFFFFFFFFFFFFFFFFFFFFFFF AND PUSH20 0xFFFFFFFFFFFFFFFFFFFFFFFFFFFFFFFFFFFFFFFF AND DUP2 MSTORE PUSH1 0x20 ADD SWAP1 DUP2 MSTORE PUSH1 0x20 ADD PUSH0 KECCAK256 SLOAD SWAP1 POP SWAP2 SWAP1 POP JUMP JUMPDEST PUSH1 0x60 PUSH1 0x4 DUP1 SLOAD PUSH2 0x34F SWAP1 PUSH2 0xCCB JUMP JUMPDEST DUP1 PUSH1 0x1F ADD PUSH1 0x20 DUP1 SWAP2 DIV MUL PUSH1 0x20 ADD PUSH1 0x40 MLOAD SWAP1 DUP2 ADD PUSH1 0x40 MSTORE DUP1 SWAP3 SWAP2 SWAP1 DUP2 DUP2 MSTORE PUSH1 0x20 ADD DUP3 DUP1 SLOAD PUSH2 0x37B SWAP1 PUSH2 0xCCB JUMP JUMPDEST DUP1 ISZERO PUSH2 0x3C6 JUMPI DUP1 PUSH1 0x1F LT PUSH2 0x39D JUMPI PUSH2 0x100 DUP1 DUP4 SLOAD DIV MUL DUP4 MSTORE SWAP2 PUSH1 0x20 ADD SWAP2 PUSH2 0x3C6 JUMP JUMPDEST DUP3 ADD SWAP2 SWAP1 PUSH0 MSTORE PUSH1 0x20 PUSH0 KECCAK256 SWAP1 JUMPDEST DUP2 SLOAD DUP2 MSTORE SWAP1 PUSH1 0x1 ADD SWAP1 PUSH1 0x20 ADD DUP1 DUP4 GT PUSH2 0x3A9 JUMPI DUP3 SWAP1 SUB PUSH1 0x1F AND DUP3 ADD SWAP2 JUMPDEST POP POP POP POP POP SWAP1 POP SWAP1 JUMP JUMPDEST PUSH0 DUP1 PUSH2 0x3DA PUSH2 0x474 JUMP JUMPDEST SWAP1 POP PUSH2 0x3E7 DUP2 DUP6 DUP6 PUSH2 0x51F JUMP JUMPDEST PUSH1 0x1 SWAP2 POP POP SWAP3 SWAP2 POP POP JUMP JUMPDEST PUSH0 PUSH1 0x1 PUSH0 DUP5 PUSH20 0xFFFFFFFFFFFFFFFFFFFFFFFFFFFFFFFFFFFFFFFF AND PUSH20 0xFFFFFFFFFFFFFFFFFFFFFFFFFFFFFFFFFFFFFFFF AND DUP2 MSTORE PUSH1 0x20 ADD SWAP1 DUP2 MSTORE PUSH1 0x20 ADD PUSH0 KECCAK256 PUSH0 DUP4 PUSH20 0xFFFFFFFFFFFFFFFFFFFFFFFFFFFFFFFFFFFFFFFF AND PUSH20 0xFFFFFFFFFFFFFFFFFFFFFFFFFFFFFFFFFFFFFFFF AND DUP2 MSTORE PUSH1 0x20 ADD SWAP1 DUP2 MSTORE PUSH1 0x20 ADD PUSH0 KECCAK256 SLOAD SWAP1 POP SWAP3 SWAP2 POP POP JUMP JUMPDEST PUSH0 CALLER SWAP1 POP SWAP1 JUMP JUMPDEST PUSH2 0x488 DUP4 DUP4 DUP4 PUSH1 0x1 PUSH2 0x60F JUMP JUMPDEST POP POP POP JUMP JUMPDEST PUSH0 PUSH2 0x498 DUP5 DUP5 PUSH2 0x3F2 JUMP JUMPDEST SWAP1 POP PUSH32 0xFFFFFFFFFFFFFFFFFFFFFFFFFFFFFFFFFFFFFFFFFFFFFFFFFFFFFFFFFFFFFFFF DUP2 EQ PUSH2 0x519 JUMPI DUP2 DUP2 LT ISZERO PUSH2 0x50A JUMPI DUP3 DUP2 DUP4 PUSH1 0x40 MLOAD PUSH32 0xFB8F41B200000000000000000000000000000000000000000000000000000000 DUP2 MSTORE PUSH1 0x4 ADD PUSH2 0x501 SWAP4 SWAP3 SWAP2 SWAP1 PUSH2 0xD0A JUMP JUMPDEST PUSH1 0x40 MLOAD DUP1 SWAP2 SUB SWAP1 REVERT JUMPDEST PUSH2 0x518 DUP5 DUP5 DUP5 DUP5 SUB PUSH0 PUSH2 0x60F JUMP JUMPDEST JUMPDEST POP POP POP POP JUMP JUMPDEST PUSH0 PUSH20 0xFFFFFFFFFFFFFFFFFFFFFFFFFFFFFFFFFFFFFFFF AND DUP4 PUSH20 0xFFFFFFFFFFFFFFFFFFFFFFFFFFFFFFFFFFFFFFFF AND SUB PUSH2 0x58F JUMPI PUSH0 PUSH1 0x40 MLOAD PUSH32 0x96C6FD1E00000000000000000000000000000000000000000000000000000000 DUP2 MSTORE PUSH1 0x4 ADD PUSH2 0x586 SWAP2 SWAP1 PUSH2 0xD3F JUMP JUMPDEST PUSH1 0x40 MLOAD DUP1 SWAP2 SUB SWAP1 REVERT JUMPDEST PUSH0 PUSH20 0xFFFFFFFFFFFFFFFFFFFFFFFFFFFFFFFFFFFFFFFF AND DUP3 PUSH20 0xFFFFFFFFFFFFFFFFFFFFFFFFFFFFFFFFFFFFFFFF AND SUB PUSH2 0x5FF JUMPI PUSH0 PUSH1 0x40 MLOAD PUSH32 0xEC442F0500000000000000000000000000000000000000000000000000000000 DUP2 MSTORE PUSH1 0x4 ADD PUSH2 0x5F6 SWAP2 SWAP1 PUSH2 0xD3F JUMP JUMPDEST PUSH1 0x40 MLOAD DUP1 SWAP2 SUB SWAP1 REVERT JUMPDEST PUSH2 0x60A DUP4 DUP4 DUP4 PUSH2 0x7DE JUMP JUMPDEST POP POP POP JUMP JUMPDEST PUSH0 PUSH20 0xFFFFFFFFFFFFFFFFFFFFFFFFFFFFFFFFFFFFFFFF AND DUP5 PUSH20 0xFFFFFFFFFFFFFFFFFFFFFFFFFFFFFFFFFFFFFFFF AND SUB PUSH2 0x67F JUMPI PUSH0 PUSH1 0x40 MLOAD PUSH32 0xE602DF0500000000000000000000000000000000000000000000000000000000 DUP2 MSTORE PUSH1 0x4 ADD PUSH2 0x676 SWAP2 SWAP1 PUSH2 0xD3F JUMP JUMPDEST PUSH1 0x40 MLOAD DUP1 SWAP2 SUB SWAP1 REVERT JUMPDEST PUSH0 PUSH20 0xFFFFFFFFFFFFFFFFFFFFFFFFFFFFFFFFFFFFFFFF AND DUP4 PUSH20 0xFFFFFFFFFFFFFFFFFFFFFFFFFFFFFFFFFFFFFFFF AND SUB PUSH2 0x6EF JUMPI PUSH0 PUSH1 0x40 MLOAD PUSH32 0x94280D6200000000000000000000000000000000000000000000000000000000 DUP2 MSTORE PUSH1 0x4 ADD PUSH2 0x6E6 SWAP2 SWAP1 PUSH2 0xD3F JUMP JUMPDEST PUSH1 0x40 MLOAD DUP1 SWAP2 SUB SWAP1 REVERT JUMPDEST DUP2 PUSH1 0x1 PUSH0 DUP7 PUSH20 0xFFFFFFFFFFFFFFFFFFFFFFFFFFFFFFFFFFFFFFFF AND PUSH20 0xFFFFFFFFFFFFFFFFFFFFFFFFFFFFFFFFFFFFFFFF AND DUP2 MSTORE PUSH1 0x20 ADD SWAP1 DUP2 MSTORE PUSH1 0x20 ADD PUSH0 KECCAK256 PUSH0 DUP6 PUSH20 0xFFFFFFFFFFFFFFFFFFFFFFFFFFFFFFFFFFFFFFFF AND PUSH20 0xFFFFFFFFFFFFFFFFFFFFFFFFFFFFFFFFFFFFFFFF AND DUP2 MSTORE PUSH1 0x20 ADD SWAP1 DUP2 MSTORE PUSH1 0x20 ADD PUSH0 KECCAK256 DUP2 SWAP1 SSTORE POP DUP1 ISZERO PUSH2 0x7D8 JUMPI DUP3 PUSH20 0xFFFFFFFFFFFFFFFFFFFFFFFFFFFFFFFFFFFFFFFF AND DUP5 PUSH20 0xFFFFFFFFFFFFFFFFFFFFFFFFFFFFFFFFFFFFFFFF AND PUSH32 0x8C5BE1E5EBEC7D5BD14F71427D1E84F3DD0314C0F7B2291E5B200AC8C7C3B925 DUP5 PUSH1 0x40 MLOAD PUSH2 0x7CF SWAP2 SWAP1 PUSH2 0xB98 JUMP JUMPDEST PUSH1 0x40 MLOAD DUP1 SWAP2 SUB SWAP1 LOG3 JUMPDEST POP POP POP POP JUMP JUMPDEST PUSH0 PUSH20 0xFFFFFFFFFFFFFFFFFFFFFFFFFFFFFFFFFFFFFFFF AND DUP4 PUSH20 0xFFFFFFFFFFFFFFFFFFFFFFFFFFFFFFFFFFFFFFFF AND SUB PUSH2 0x82E JUMPI DUP1 PUSH1 0x2 PUSH0 DUP3 DUP3 SLOAD PUSH2 0x822 SWAP2 SWAP1 PUSH2 0xD85 JUMP JUMPDEST SWAP3 POP POP DUP2 SWAP1 SSTORE POP PUSH2 0x8FC JUMP JUMPDEST PUSH0 DUP1 PUSH0 DUP6 PUSH20 0xFFFFFFFFFFFFFFFFFFFFFFFFFFFFFFFFFFFFFFFF AND PUSH20 0xFFFFFFFFFFFFFFFFFFFFFFFFFFFFFFFFFFFFFFFF AND DUP2 MSTORE PUSH1 0x20 ADD SWAP1 DUP2 MSTORE PUSH1 0x20 ADD PUSH0 KECCAK256 SLOAD SWAP1 POP DUP2 DUP2 LT ISZERO PUSH2 0x8B7 JUMPI DUP4 DUP2 DUP4 PUSH1 0x40 MLOAD PUSH32 0xE450D38C00000000000000000000000000000000000000000000000000000000 DUP2 MSTORE PUSH1 0x4 ADD PUSH2 0x8AE SWAP4 SWAP3 SWAP2 SWAP1 PUSH2 0xD0A JUMP JUMPDEST PUSH1 0x40 MLOAD DUP1 SWAP2 SUB SWAP1 REVERT JUMPDEST DUP2 DUP2 SUB PUSH0 DUP1 DUP7 PUSH20 0xFFFFFFFFFFFFFFFFFFFFFFFFFFFFFFFFFFFFFFFF AND PUSH20 0xFFFFFFFFFFFFFFFFFFFFFFFFFFFFFFFFFFFFFFFF AND DUP2 MSTORE PUSH1 0x20 ADD SWAP1 DUP2 MSTORE PUSH1 0x20 ADD PUSH0 KECCAK256 DUP2 SWAP1 SSTORE POP POP JUMPDEST PUSH0 PUSH20 0xFFFFFFFFFFFFFFFFFFFFFFFFFFFFFFFFFFFFFFFF AND DUP3 PUSH20 0xFFFFFFFFFFFFFFFFFFFFFFFFFFFFFFFFFFFFFFFF AND SUB PUSH2 0x943 JUMPI DUP1 PUSH1 0x2 PUSH0 DUP3 DUP3 SLOAD SUB SWAP3 POP POP DUP2 SWAP1 SSTORE POP PUSH2 0x98D JUMP JUMPDEST DUP1 PUSH0 DUP1 DUP5 PUSH20 0xFFFFFFFFFFFFFFFFFFFFFFFFFFFFFFFFFFFFFFFF AND PUSH20 0xFFFFFFFFFFFFFFFFFFFFFFFFFFFFFFFFFFFFFFFF AND DUP2 MSTORE PUSH1 0x20 ADD SWAP1 DUP2 MSTORE PUSH1 0x20 ADD PUSH0 KECCAK256 PUSH0 DUP3 DUP3 SLOAD ADD SWAP3 POP POP DUP2 SWAP1 SSTORE POP JUMPDEST DUP2 PUSH20 0xFFFFFFFFFFFFFFFFFFFFFFFFFFFFFFFFFFFFFFFF AND DUP4 PUSH20 0xFFFFFFFFFFFFFFFFFFFFFFFFFFFFFFFFFFFFFFFF AND PUSH32 0xDDF252AD1BE2C89B69C2B068FC378DAA952BA7F163C4A11628F55A4DF523B3EF DUP4 PUSH1 0x40 MLOAD PUSH2 0x9EA SWAP2 SWAP1 PUSH2 0xB98 JUMP JUMPDEST PUSH1 0x40 MLOAD DUP1 SWAP2 SUB SWAP1 LOG3 POP POP POP JUMP JUMPDEST PUSH0 DUP2 MLOAD SWAP1 POP SWAP2 SWAP1 POP JUMP JUMPDEST PUSH0 DUP3 DUP3 MSTORE PUSH1 0x20 DUP3 ADD SWAP1 POP SWAP3 SWAP2 POP POP JUMP JUMPDEST DUP3 DUP2 DUP4 MCOPY PUSH0 DUP4 DUP4 ADD MSTORE POP POP POP JUMP JUMPDEST PUSH0 PUSH1 0x1F NOT PUSH1 0x1F DUP4 ADD AND SWAP1 POP SWAP2 SWAP1 POP JUMP JUMPDEST PUSH0 PUSH2 0xA39 DUP3 PUSH2 0x9F7 JUMP JUMPDEST PUSH2 0xA43 DUP2 DUP6 PUSH2 0xA01 JUMP JUMPDEST SWAP4 POP PUSH2 0xA53 DUP2 DUP6 PUSH1 0x20 DUP7 ADD PUSH2 0xA11 JUMP JUMPDEST PUSH2 0xA5C DUP2 PUSH2 0xA1F JUMP JUMPDEST DUP5 ADD SWAP2 POP POP SWAP3 SWAP2 POP POP JUMP JUMPDEST PUSH0 PUSH1 0x20 DUP3 ADD SWAP1 POP DUP2 DUP2 SUB PUSH0 DUP4 ADD MSTORE PUSH2 0xA7F DUP2 DUP5 PUSH2 0xA2F JUMP JUMPDEST SWAP1 POP SWAP3 SWAP2 POP POP JUMP JUMPDEST PUSH0 DUP1 REVERT JUMPDEST PUSH0 PUSH20 0xFFFFFFFFFFFFFFFFFFFFFFFFFFFFFFFFFFFFFFFF DUP3 AND SWAP1 POP SWAP2 SWAP1 POP JUMP JUMPDEST PUSH0 PUSH2 0xAB4 DUP3 PUSH2 0xA8B JUMP JUMPDEST SWAP1 POP SWAP2 SWAP1 POP JUMP JUMPDEST PUSH2 0xAC4 DUP2 PUSH2 0xAAA JUMP JUMPDEST DUP2 EQ PUSH2 0xACE JUMPI PUSH0 DUP1 REVERT JUMPDEST POP JUMP JUMPDEST PUSH0 DUP2 CALLDATALOAD SWAP1 POP PUSH2 0xADF DUP2 PUSH2 0xABB JUMP JUMPDEST SWAP3 SWAP2 POP POP JUMP JUMPDEST PUSH0 DUP2 SWAP1 POP SWAP2 SWAP1 POP JUMP JUMPDEST PUSH2 0xAF7 DUP2 PUSH2 0xAE5 JUMP JUMPDEST DUP2 EQ PUSH2 0xB01 JUMPI PUSH0 DUP1 REVERT JUMPDEST POP JUMP JUMPDEST PUSH0 DUP2 CALLDATALOAD SWAP1 POP PUSH2 0xB12 DUP2 PUSH2 0xAEE JUMP JUMPDEST SWAP3 SWAP2 POP POP JUMP JUMPDEST PUSH0 DUP1 PUSH1 0x40 DUP4 DUP6 SUB SLT ISZERO PUSH2 0xB2E JUMPI PUSH2 0xB2D PUSH2 0xA87 JUMP JUMPDEST JUMPDEST PUSH0 PUSH2 0xB3B DUP6 DUP3 DUP7 ADD PUSH2 0xAD1 JUMP JUMPDEST SWAP3 POP POP PUSH1 0x20 PUSH2 0xB4C DUP6 DUP3 DUP7 ADD PUSH2 0xB04 JUMP JUMPDEST SWAP2 POP POP SWAP3 POP SWAP3 SWAP1 POP JUMP JUMPDEST PUSH0 DUP2 ISZERO ISZERO SWAP1 POP SWAP2 SWAP1 POP JUMP JUMPDEST PUSH2 0xB6A DUP2 PUSH2 0xB56 JUMP JUMPDEST DUP3 MSTORE POP POP JUMP JUMPDEST PUSH0 PUSH1 0x20 DUP3 ADD SWAP1 POP PUSH2 0xB83 PUSH0 DUP4 ADD DUP5 PUSH2 0xB61 JUMP JUMPDEST SWAP3 SWAP2 POP POP JUMP JUMPDEST PUSH2 0xB92 DUP2 PUSH2 0xAE5 JUMP JUMPDEST DUP3 MSTORE POP POP JUMP JUMPDEST PUSH0 PUSH1 0x20 DUP3 ADD SWAP1 POP PUSH2 0xBAB PUSH0 DUP4 ADD DUP5 PUSH2 0xB89 JUMP JUMPDEST SWAP3 SWAP2 POP POP JUMP JUMPDEST PUSH0 DUP1 PUSH0 PUSH1 0x60 DUP5 DUP7 SUB SLT ISZERO PUSH2 0xBC8 JUMPI PUSH2 0xBC7 PUSH2 0xA87 JUMP JUMPDEST JUMPDEST PUSH0 PUSH2 0xBD5 DUP7 DUP3 DUP8 ADD PUSH2 0xAD1 JUMP JUMPDEST SWAP4 POP POP PUSH1 0x20 PUSH2 0xBE6 DUP7 DUP3 DUP8 ADD PUSH2 0xAD1 JUMP JUMPDEST SWAP3 POP POP PUSH1 0x40 PUSH2 0xBF7 DUP7 DUP3 DUP8 ADD PUSH2 0xB04 JUMP JUMPDEST SWAP2 POP POP SWAP3 POP SWAP3 POP SWAP3 JUMP JUMPDEST PUSH0 PUSH1 0xFF DUP3 AND SWAP1 POP SWAP2 SWAP1 POP JUMP JUMPDEST PUSH2 0xC16 DUP2 PUSH2 0xC01 JUMP JUMPDEST DUP3 MSTORE POP POP JUMP JUMPDEST PUSH0 PUSH1 0x20 DUP3 ADD SWAP1 POP PUSH2 0xC2F PUSH0 DUP4 ADD DUP5 PUSH2 0xC0D JUMP JUMPDEST SWAP3 SWAP2 POP POP JUMP JUMPDEST PUSH0 PUSH1 0x20 DUP3 DUP5 SUB SLT ISZERO PUSH2 0xC4A JUMPI PUSH2 0xC49 PUSH2 0xA87 JUMP JUMPDEST JUMPDEST PUSH0 PUSH2 0xC57 DUP5 DUP3 DUP6 ADD PUSH2 0xAD1 JUMP JUMPDEST SWAP2 POP POP SWAP3 SWAP2 POP POP JUMP JUMPDEST PUSH0 DUP1 PUSH1 0x40 DUP4 DUP6 SUB SLT ISZERO PUSH2 0xC76 JUMPI PUSH2 0xC75 PUSH2 0xA87 JUMP JUMPDEST JUMPDEST PUSH0 PUSH2 0xC83 DUP6 DUP3 DUP7 ADD PUSH2 0xAD1 JUMP JUMPDEST SWAP3 POP POP PUSH1 0x20 PUSH2 0xC94 DUP6 DUP3 DUP7 ADD PUSH2 0xAD1 JUMP JUMPDEST SWAP2 POP POP SWAP3 POP SWAP3 SWAP1 POP JUMP JUMPDEST PUSH32 0x4E487B7100000000000000000000000000000000000000000000000000000000 PUSH0 MSTORE PUSH1 0x22 PUSH1 0x4 MSTORE PUSH1 0x24 PUSH0 REVERT JUMPDEST PUSH0 PUSH1 0x2 DUP3 DIV SWAP1 POP PUSH1 0x1 DUP3 AND DUP1 PUSH2 0xCE2 JUMPI PUSH1 0x7F DUP3 AND SWAP2 POP JUMPDEST PUSH1 0x20 DUP3 LT DUP2 SUB PUSH2 0xCF5 JUMPI PUSH2 0xCF4 PUSH2 0xC9E JUMP JUMPDEST JUMPDEST POP SWAP2 SWAP1 POP JUMP JUMPDEST PUSH2 0xD04 DUP2 PUSH2 0xAAA JUMP JUMPDEST DUP3 MSTORE POP POP JUMP JUMPDEST PUSH0 PUSH1 0x60 DUP3 ADD SWAP1 POP PUSH2 0xD1D PUSH0 DUP4 ADD DUP7 PUSH2 0xCFB JUMP JUMPDEST PUSH2 0xD2A PUSH1 0x20 DUP4 ADD DUP6 PUSH2 0xB89 JUMP JUMPDEST PUSH2 0xD37 PUSH1 0x40 DUP4 ADD DUP5 PUSH2 0xB89 JUMP JUMPDEST SWAP5 SWAP4 POP POP POP POP JUMP JUMPDEST PUSH0 PUSH1 0x20 DUP3 ADD SWAP1 POP PUSH2 0xD52 PUSH0 DUP4 ADD DUP5 PUSH2 0xCFB JUMP JUMPDEST SWAP3 SWAP2 POP POP JUMP JUMPDEST PUSH32 0x4E487B7100000000000000000000000000000000000000000000000000000000 PUSH0 MSTORE PUSH1 0x11 PUSH1 0x4 MSTORE PUSH1 0x24 PUSH0 REVERT JUMPDEST PUSH0 PUSH2 0xD8F DUP3 PUSH2 0xAE5 JUMP JUMPDEST SWAP2 POP PUSH2 0xD9A DUP4 PUSH2 0xAE5 JUMP JUMPDEST SWAP3 POP DUP3 DUP3 ADD SWAP1 POP DUP1 DUP3 GT ISZERO PUSH2 0xDB2 JUMPI PUSH2 0xDB1 PUSH2 0xD58 JUMP JUMPDEST JUMPDEST SWAP3 SWAP2 POP POP JUMP INVALID LOG2 PUSH5 0x6970667358 0x22 SLT KECCAK256 DUP3 0xD7 0xCB BYTE 0xAF 0x26 BALANCE 0xC7 PUSH1 0x55 PUSH12 0x2BD581B4CC697E73C9FED9B1 0x2B BASEFEE ORIGIN 0xBE PREVRANDAO 0x27 0xD3 EXTCODESIZE ISZERO PUSH5 0x736F6C6343 STOP ADDMOD BYTE STOP CALLER "
				},
				"gasEstimates": {
					"creation": {
						"codeDepositCost": "961200",
						"executionCost": "infinite",
						"totalCost": "infinite"
					},
					"external": {
						"dataPunkCoinInter()": "infinite",
						"deployTask(string,uint256)": "infinite",
						"getDataPunkCoinInterAddress()": "2581",
						"getTask(uint256)": "infinite",
						"raiseChallenge(uint256,uint256,uint256,bool)": "infinite",
						"transferToken(address,uint256)": "infinite",
						"uploadDataset(uint256)": "infinite",
						"verifyDataset(uint256,uint256)": "infinite"
					}
				},
				"methodIdentifiers": {
					"dataPunkCoinInter()": "20cfd795",
					"deployTask(string,uint256)": "851e0a7f",
					"getDataPunkCoinInterAddress()": "e13fdf36",
					"getTask(uint256)": "1d65e77e",
					"raiseChallenge(uint256,uint256,uint256,bool)": "4fa86ca5",
					"transferToken(address,uint256)": "1072cbea",
					"uploadDataset(uint256)": "6e17e240",
					"verifyDataset(uint256,uint256)": "134fe3dc"
				}
			},
			"storageLayout": {
				"storage": [
					{
						"astId": 791,
						"contract": "contracts/DataPunk/DataPunk.sol:DataPunk",
						"label": "dataPunkCoinInter",
						"offset": 0,
						"slot": "0",
						"type": "t_contract(DataPunkCoinInter)1172"
					},
					{
						"astId": 817,
						"contract": "contracts/DataPunk/DataPunk.sol:DataPunk",
						"label": "tasks",
						"offset": 0,
						"slot": "1",
						"type": "t_array(t_struct(Task)804_storage)dyn_storage"
					},
					{
						"astId": 821,
						"contract": "contracts/DataPunk/DataPunk.sol:DataPunk",
						"label": "datasets",
						"offset": 0,
						"slot": "2",
						"type": "t_array(t_struct(Dataset)813_storage)dyn_storage"
					}
				],
				"types": {
					"t_address": {
						"encoding": "inplace",
						"label": "address",
						"numberOfBytes": "20"
					},
					"t_array(t_struct(Dataset)813_storage)dyn_storage": {
						"base": "t_struct(Dataset)813_storage",
						"encoding": "dynamic_array",
						"label": "struct DataPunk.Dataset[]",
						"numberOfBytes": "32"
					},
					"t_array(t_struct(Task)804_storage)dyn_storage": {
						"base": "t_struct(Task)804_storage",
						"encoding": "dynamic_array",
						"label": "struct DataPunk.Task[]",
						"numberOfBytes": "32"
					},
					"t_bool": {
						"encoding": "inplace",
						"label": "bool",
						"numberOfBytes": "1"
					},
					"t_contract(DataPunkCoinInter)1172": {
						"encoding": "inplace",
						"label": "contract DataPunkCoinInter",
						"numberOfBytes": "20"
					},
					"t_string_storage": {
						"encoding": "bytes",
						"label": "string",
						"numberOfBytes": "32"
					},
					"t_struct(Dataset)813_storage": {
						"encoding": "inplace",
						"label": "struct DataPunk.Dataset",
						"members": [
							{
								"astId": 806,
								"contract": "contracts/DataPunk/DataPunk.sol:DataPunk",
								"label": "datasetId",
								"offset": 0,
								"slot": "0",
								"type": "t_uint256"
							},
							{
								"astId": 808,
								"contract": "contracts/DataPunk/DataPunk.sol:DataPunk",
								"label": "uploader",
								"offset": 0,
								"slot": "1",
								"type": "t_address"
							},
							{
								"astId": 810,
								"contract": "contracts/DataPunk/DataPunk.sol:DataPunk",
								"label": "isValidated",
								"offset": 20,
								"slot": "1",
								"type": "t_bool"
							},
							{
								"astId": 812,
								"contract": "contracts/DataPunk/DataPunk.sol:DataPunk",
								"label": "validator",
								"offset": 0,
								"slot": "2",
								"type": "t_address"
							}
						],
						"numberOfBytes": "96"
					},
					"t_struct(Task)804_storage": {
						"encoding": "inplace",
						"label": "struct DataPunk.Task",
						"members": [
							{
								"astId": 793,
								"contract": "contracts/DataPunk/DataPunk.sol:DataPunk",
								"label": "taskId",
								"offset": 0,
								"slot": "0",
								"type": "t_uint256"
							},
							{
								"astId": 795,
								"contract": "contracts/DataPunk/DataPunk.sol:DataPunk",
								"label": "taskName",
								"offset": 0,
								"slot": "1",
								"type": "t_string_storage"
							},
							{
								"astId": 797,
								"contract": "contracts/DataPunk/DataPunk.sol:DataPunk",
								"label": "publisher",
								"offset": 0,
								"slot": "2",
								"type": "t_address"
							},
							{
								"astId": 799,
								"contract": "contracts/DataPunk/DataPunk.sol:DataPunk",
								"label": "reward",
								"offset": 0,
								"slot": "3",
								"type": "t_uint256"
							},
							{
								"astId": 803,
								"contract": "contracts/DataPunk/DataPunk.sol:DataPunk",
								"label": "datasets",
								"offset": 0,
								"slot": "4",
								"type": "t_array(t_struct(Dataset)813_storage)dyn_storage"
							}
						],
						"numberOfBytes": "160"
					},
					"t_uint256": {
						"encoding": "inplace",
						"label": "uint256",
						"numberOfBytes": "32"
					}
				}
			},
			"userdoc": {
				"kind": "user",
				"methods": {},
				"version": 1
			}
		}
	}
}