{
	"contracts/DataPunk/DataPunk.sol": {
		"DataPunk": {
			"abi": [
				{
					"inputs": [],
					"stateMutability": "nonpayable",
					"type": "constructor"
				},
				{
					"anonymous": false,
					"inputs": [
						{
							"indexed": false,
							"internalType": "address",
							"name": "tokenAddress",
							"type": "address"
						}
					],
					"name": "DataPunkCoinDeployed",
					"type": "event"
				},
				{
					"anonymous": false,
					"inputs": [
						{
							"indexed": true,
							"internalType": "uint256",
							"name": "datasetId",
							"type": "uint256"
						},
						{
							"indexed": true,
							"internalType": "address",
							"name": "maker",
							"type": "address"
						},
						{
							"indexed": false,
							"internalType": "uint256",
							"name": "cost",
							"type": "uint256"
						}
					],
					"name": "DatasetMaked",
					"type": "event"
				},
				{
					"anonymous": false,
					"inputs": [
						{
							"indexed": true,
							"internalType": "uint256",
							"name": "datasetId",
							"type": "uint256"
						},
						{
							"indexed": true,
							"internalType": "address",
							"name": "purchaser",
							"type": "address"
						},
						{
							"indexed": false,
							"internalType": "uint256",
							"name": "cost",
							"type": "uint256"
						}
					],
					"name": "DatasetPurchased",
					"type": "event"
				},
				{
					"anonymous": false,
					"inputs": [
						{
							"indexed": true,
							"internalType": "uint256",
							"name": "datasetId",
							"type": "uint256"
						},
						{
							"indexed": true,
							"internalType": "address",
							"name": "creator",
							"type": "address"
						},
						{
							"indexed": false,
							"internalType": "uint256",
							"name": "reward",
							"type": "uint256"
						}
					],
					"name": "DatasetUpload",
					"type": "event"
				},
				{
					"anonymous": false,
					"inputs": [
						{
							"indexed": true,
							"internalType": "uint256",
							"name": "datasetId",
							"type": "uint256"
						},
						{
							"indexed": true,
							"internalType": "address",
							"name": "validator",
							"type": "address"
						},
						{
							"indexed": false,
							"internalType": "uint256",
							"name": "reward",
							"type": "uint256"
						}
					],
					"name": "DatasetValidated",
					"type": "event"
				},
				{
					"anonymous": false,
					"inputs": [
						{
							"indexed": true,
							"internalType": "address",
							"name": "validator",
							"type": "address"
						}
					],
					"name": "ValidatorRegistered",
					"type": "event"
				},
				{
					"inputs": [
						{
							"internalType": "address",
							"name": "",
							"type": "address"
						},
						{
							"internalType": "address",
							"name": "",
							"type": "address"
						}
					],
					"name": "allowance",
					"outputs": [
						{
							"internalType": "uint256",
							"name": "",
							"type": "uint256"
						}
					],
					"stateMutability": "view",
					"type": "function"
				},
				{
					"inputs": [
						{
							"internalType": "address",
							"name": "",
							"type": "address"
						}
					],
					"name": "balanceOf",
					"outputs": [
						{
							"internalType": "uint256",
							"name": "",
							"type": "uint256"
						}
					],
					"stateMutability": "view",
					"type": "function"
				},
				{
					"inputs": [
						{
							"internalType": "uint256",
							"name": "",
							"type": "uint256"
						}
					],
					"name": "datasets",
					"outputs": [
						{
							"internalType": "address",
							"name": "creator",
							"type": "address"
						},
						{
							"internalType": "uint256",
							"name": "price",
							"type": "uint256"
						},
						{
							"internalType": "uint256",
							"name": "validationReward",
							"type": "uint256"
						},
						{
							"internalType": "bool",
							"name": "isValidated",
							"type": "bool"
						}
					],
					"stateMutability": "view",
					"type": "function"
				},
				{
					"inputs": [],
					"name": "deployDataPunkCoin",
					"outputs": [],
					"stateMutability": "nonpayable",
					"type": "function"
				},
				{
					"inputs": [],
					"name": "dpkContractAddress",
					"outputs": [
						{
							"internalType": "address",
							"name": "",
							"type": "address"
						}
					],
					"stateMutability": "view",
					"type": "function"
				},
				{
					"inputs": [],
					"name": "getAllDatasets",
					"outputs": [
						{
							"internalType": "address[]",
							"name": "creators",
							"type": "address[]"
						},
						{
							"internalType": "uint256[]",
							"name": "prices",
							"type": "uint256[]"
						},
						{
							"internalType": "uint256[]",
							"name": "validationRewards",
							"type": "uint256[]"
						},
						{
							"internalType": "bool[]",
							"name": "isValidatedFlags",
							"type": "bool[]"
						}
					],
					"stateMutability": "view",
					"type": "function"
				},
				{
					"inputs": [],
					"name": "getAllValidators",
					"outputs": [
						{
							"internalType": "address[]",
							"name": "",
							"type": "address[]"
						}
					],
					"stateMutability": "view",
					"type": "function"
				},
				{
					"inputs": [
						{
							"internalType": "address",
							"name": "account",
							"type": "address"
						}
					],
					"name": "getDPCBalanceOf",
					"outputs": [
						{
							"internalType": "uint256",
							"name": "",
							"type": "uint256"
						}
					],
					"stateMutability": "view",
					"type": "function"
				},
				{
					"inputs": [],
					"name": "getDPCSupply",
					"outputs": [
						{
							"internalType": "uint256",
							"name": "",
							"type": "uint256"
						}
					],
					"stateMutability": "view",
					"type": "function"
				},
				{
					"inputs": [],
					"name": "isDataPunkCoinDeployed",
					"outputs": [
						{
							"internalType": "bool",
							"name": "",
							"type": "bool"
						}
					],
					"stateMutability": "view",
					"type": "function"
				},
				{
					"inputs": [],
					"name": "makeDatasePrice",
					"outputs": [
						{
							"internalType": "uint256",
							"name": "",
							"type": "uint256"
						}
					],
					"stateMutability": "view",
					"type": "function"
				},
				{
					"inputs": [
						{
							"internalType": "uint256",
							"name": "price",
							"type": "uint256"
						},
						{
							"internalType": "uint256",
							"name": "validationReward",
							"type": "uint256"
						}
					],
					"name": "makeDataset",
					"outputs": [],
					"stateMutability": "nonpayable",
					"type": "function"
				},
				{
					"inputs": [],
					"name": "owner",
					"outputs": [
						{
							"internalType": "address",
							"name": "",
							"type": "address"
						}
					],
					"stateMutability": "view",
					"type": "function"
				},
				{
					"inputs": [
						{
							"internalType": "uint256",
							"name": "",
							"type": "uint256"
						}
					],
					"name": "publicValidators",
					"outputs": [
						{
							"internalType": "address",
							"name": "",
							"type": "address"
						}
					],
					"stateMutability": "view",
					"type": "function"
				},
				{
					"inputs": [
						{
							"internalType": "uint256",
							"name": "datasetId",
							"type": "uint256"
						}
					],
					"name": "purchaseDataset",
					"outputs": [],
					"stateMutability": "nonpayable",
					"type": "function"
				},
				{
					"inputs": [],
					"name": "registerAsValidator",
					"outputs": [],
					"stateMutability": "nonpayable",
					"type": "function"
				},
				{
					"inputs": [
						{
							"internalType": "uint256",
							"name": "price",
							"type": "uint256"
						},
						{
							"internalType": "uint256",
							"name": "validationReward",
							"type": "uint256"
						}
					],
					"name": "updateDataset",
					"outputs": [
						{
							"internalType": "uint256",
							"name": "",
							"type": "uint256"
						}
					],
					"stateMutability": "nonpayable",
					"type": "function"
				},
				{
					"inputs": [
						{
							"internalType": "uint256",
							"name": "datasetId",
							"type": "uint256"
						}
					],
					"name": "validateDataset",
					"outputs": [],
					"stateMutability": "nonpayable",
					"type": "function"
				}
			],
			"devdoc": {
				"kind": "dev",
				"methods": {},
				"version": 1
			},
			"evm": {
				"assembly": "    /* \"contracts/DataPunk/DataPunk.sol\":243:7263  contract DataPunk {... */\n  mstore(0x40, 0xc0)\n    /* \"contracts/DataPunk/DataPunk.sol\":371:376  false */\n  0x00\n    /* \"contracts/DataPunk/DataPunk.sol\":334:376  bool public isDataPunkCoinDeployed = false */\n  0x01\n  exp(0x0100, 0x14)\n  dup2\n  sload\n  dup2\n  0xff\n  mul\n  not\n  and\n  swap1\n  dup4\n  iszero\n  iszero\n  mul\n  or\n  swap1\n  sstore\n  pop\n    /* \"contracts/DataPunk/DataPunk.sol\":415:417  10 */\n  0x0a\n    /* \"contracts/DataPunk/DataPunk.sol\":382:417  uint256 public makeDatasePrice = 10 */\n  0x02\n  sstore\n    /* \"contracts/DataPunk/DataPunk.sol\":495:498  100 */\n  0x64\n    /* \"contracts/DataPunk/DataPunk.sol\":462:498  uint256 immutable UPDATAREWARD = 100 */\n  0x80\n  swap1\n  dup2\n  mstore\n  pop\n    /* \"contracts/DataPunk/DataPunk.sol\":534:546  100 * 10**18 */\n  0x056bc75e2d63100000\n    /* \"contracts/DataPunk/DataPunk.sol\":504:546  uint256 immutable SUMSUPPLY = 100 * 10**18 */\n  0xa0\n  swap1\n  dup2\n  mstore\n  pop\n    /* \"contracts/DataPunk/DataPunk.sol\":1458:1561  constructor() {... */\n  callvalue\n  dup1\n  iszero\n  tag_1\n  jumpi\n  0x00\n  dup1\n  revert\ntag_1:\n  pop\n    /* \"contracts/DataPunk/DataPunk.sol\":1544:1554  msg.sender */\n  caller\n    /* \"contracts/DataPunk/DataPunk.sol\":1535:1541  _owner */\n  0x00\n  dup1\n    /* \"contracts/DataPunk/DataPunk.sol\":1535:1554  _owner = msg.sender */\n  0x0100\n  exp\n  dup2\n  sload\n  dup2\n  0xffffffffffffffffffffffffffffffffffffffff\n  mul\n  not\n  and\n  swap1\n  dup4\n  0xffffffffffffffffffffffffffffffffffffffff\n  and\n  mul\n  or\n  swap1\n  sstore\n  pop\n    /* \"contracts/DataPunk/DataPunk.sol\":243:7263  contract DataPunk {... */\n  mload(0x80)\n  mload(0xa0)\n  codecopy(0x00, dataOffset(sub_0), dataSize(sub_0))\n  0x00\n  assignImmutable(\"0x81e080ffc23e8b8d44dd829bc823229e92b893eb1d8f624419d3f5682eb97fc3\")\n  0x00\n  assignImmutable(\"0x8fef2229291b68be841adf029e58b87f39ba144b2d3b0af1760243d0a9bc6a1c\")\n  return(0x00, dataSize(sub_0))\nstop\n\nsub_0: assembly {\n        /* \"contracts/DataPunk/DataPunk.sol\":243:7263  contract DataPunk {... */\n      mstore(0x40, 0x80)\n      callvalue\n      dup1\n      iszero\n      tag_1\n      jumpi\n      0x00\n      dup1\n      revert\n    tag_1:\n      pop\n      jumpi(tag_2, lt(calldatasize, 0x04))\n      shr(0xe0, calldataload(0x00))\n      dup1\n      0x8da5cb5b\n      gt\n      tag_21\n      jumpi\n      dup1\n      0xc76cc728\n      gt\n      tag_22\n      jumpi\n      dup1\n      0xc76cc728\n      eq\n      tag_16\n      jumpi\n      dup1\n      0xdd62ed3e\n      eq\n      tag_17\n      jumpi\n      dup1\n      0xeb97ffa2\n      eq\n      tag_18\n      jumpi\n      dup1\n      0xf0acd184\n      eq\n      tag_19\n      jumpi\n      dup1\n      0xf3513a37\n      eq\n      tag_20\n      jumpi\n      jump(tag_2)\n    tag_22:\n      dup1\n      0x8da5cb5b\n      eq\n      tag_12\n      jumpi\n      dup1\n      0x90d64271\n      eq\n      tag_13\n      jumpi\n      dup1\n      0xa6359308\n      eq\n      tag_14\n      jumpi\n      dup1\n      0xb79ed5c1\n      eq\n      tag_15\n      jumpi\n      jump(tag_2)\n    tag_21:\n      dup1\n      0x4d72cd12\n      gt\n      tag_23\n      jumpi\n      dup1\n      0x4d72cd12\n      eq\n      tag_7\n      jumpi\n      dup1\n      0x70a08231\n      eq\n      tag_8\n      jumpi\n      dup1\n      0x7ac64245\n      eq\n      tag_9\n      jumpi\n      dup1\n      0x7c1a4bcd\n      eq\n      tag_10\n      jumpi\n      dup1\n      0x7da0a948\n      eq\n      tag_11\n      jumpi\n      jump(tag_2)\n    tag_23:\n      dup1\n      0x1cff85e1\n      eq\n      tag_3\n      jumpi\n      dup1\n      0x204b317b\n      eq\n      tag_4\n      jumpi\n      dup1\n      0x3b103d33\n      eq\n      tag_5\n      jumpi\n      dup1\n      0x49ee56f9\n      eq\n      tag_6\n      jumpi\n    tag_2:\n      0x00\n      dup1\n      revert\n        /* \"contracts/DataPunk/DataPunk.sol\":1358:1383  Dataset[] public datasets */\n    tag_3:\n      tag_24\n      0x04\n      dup1\n      calldatasize\n      sub\n      dup2\n      add\n      swap1\n      tag_25\n      swap2\n      swap1\n      tag_26\n      jump\t// in\n    tag_25:\n      tag_27\n      jump\t// in\n    tag_24:\n      mload(0x40)\n      tag_28\n      swap5\n      swap4\n      swap3\n      swap2\n      swap1\n      tag_29\n      jump\t// in\n    tag_28:\n      mload(0x40)\n      dup1\n      swap2\n      sub\n      swap1\n      return\n        /* \"contracts/DataPunk/DataPunk.sol\":5144:5787  function makeDataset(uint256 price, uint256 validationReward) public {... */\n    tag_4:\n      tag_30\n      0x04\n      dup1\n      calldatasize\n      sub\n      dup2\n      add\n      swap1\n      tag_31\n      swap2\n      swap1\n      tag_32\n      jump\t// in\n    tag_31:\n      tag_33\n      jump\t// in\n    tag_30:\n      stop\n        /* \"contracts/DataPunk/DataPunk.sol\":3898:4575  function updateDataset(uint256 price, uint256 validationReward) public returns (uint256) {... */\n    tag_5:\n      tag_34\n      0x04\n      dup1\n      calldatasize\n      sub\n      dup2\n      add\n      swap1\n      tag_35\n      swap2\n      swap1\n      tag_32\n      jump\t// in\n    tag_35:\n      tag_36\n      jump\t// in\n    tag_34:\n      mload(0x40)\n      tag_37\n      swap2\n      swap1\n      tag_38\n      jump\t// in\n    tag_37:\n      mload(0x40)\n      dup1\n      swap2\n      sub\n      swap1\n      return\n        /* \"contracts/DataPunk/DataPunk.sol\":4613:5115  function purchaseDataset(uint256 datasetId) public {... */\n    tag_6:\n      tag_39\n      0x04\n      dup1\n      calldatasize\n      sub\n      dup2\n      add\n      swap1\n      tag_40\n      swap2\n      swap1\n      tag_26\n      jump\t// in\n    tag_40:\n      tag_41\n      jump\t// in\n    tag_39:\n      stop\n        /* \"contracts/DataPunk/DataPunk.sol\":2582:3433  function getAllDatasets() public view returns (... */\n    tag_7:\n      tag_42\n      tag_43\n      jump\t// in\n    tag_42:\n      mload(0x40)\n      tag_44\n      swap5\n      swap4\n      swap3\n      swap2\n      swap1\n      tag_45\n      jump\t// in\n    tag_44:\n      mload(0x40)\n      dup1\n      swap2\n      sub\n      swap1\n      return\n        /* \"contracts/DataPunk/DataPunk.sol\":553:597  mapping(address => uint256) public balanceOf */\n    tag_8:\n      tag_46\n      0x04\n      dup1\n      calldatasize\n      sub\n      dup2\n      add\n      swap1\n      tag_47\n      swap2\n      swap1\n      tag_48\n      jump\t// in\n    tag_47:\n      tag_49\n      jump\t// in\n    tag_46:\n      mload(0x40)\n      tag_50\n      swap2\n      swap1\n      tag_38\n      jump\t// in\n    tag_50:\n      mload(0x40)\n      dup1\n      swap2\n      sub\n      swap1\n      return\n        /* \"contracts/DataPunk/DataPunk.sol\":423:456  address[] public publicValidators */\n    tag_9:\n      tag_51\n      0x04\n      dup1\n      calldatasize\n      sub\n      dup2\n      add\n      swap1\n      tag_52\n      swap2\n      swap1\n      tag_26\n      jump\t// in\n    tag_52:\n      tag_53\n      jump\t// in\n    tag_51:\n      mload(0x40)\n      tag_54\n      swap2\n      swap1\n      tag_55\n      jump\t// in\n    tag_54:\n      mload(0x40)\n      dup1\n      swap2\n      sub\n      swap1\n      return\n        /* \"contracts/DataPunk/DataPunk.sol\":3737:3863  function getDPCBalanceOf(address account) public view returns (uint256) {... */\n    tag_10:\n      tag_56\n      0x04\n      dup1\n      calldatasize\n      sub\n      dup2\n      add\n      swap1\n      tag_57\n      swap2\n      swap1\n      tag_48\n      jump\t// in\n    tag_57:\n      tag_58\n      jump\t// in\n    tag_56:\n      mload(0x40)\n      tag_59\n      swap2\n      swap1\n      tag_38\n      jump\t// in\n    tag_59:\n      mload(0x40)\n      dup1\n      swap2\n      sub\n      swap1\n      return\n        /* \"contracts/DataPunk/DataPunk.sol\":382:417  uint256 public makeDatasePrice = 10 */\n    tag_11:\n      tag_60\n      tag_61\n      jump\t// in\n    tag_60:\n      mload(0x40)\n      tag_62\n      swap2\n      swap1\n      tag_38\n      jump\t// in\n    tag_62:\n      mload(0x40)\n      dup1\n      swap2\n      sub\n      swap1\n      return\n        /* \"contracts/DataPunk/DataPunk.sol\":3483:3568  function owner() public view virtual returns (address) {... */\n    tag_12:\n      tag_63\n      tag_64\n      jump\t// in\n    tag_63:\n      mload(0x40)\n      tag_65\n      swap2\n      swap1\n      tag_55\n      jump\t// in\n    tag_65:\n      mload(0x40)\n      dup1\n      swap2\n      sub\n      swap1\n      return\n        /* \"contracts/DataPunk/DataPunk.sol\":334:376  bool public isDataPunkCoinDeployed = false */\n    tag_13:\n      tag_66\n      tag_67\n      jump\t// in\n    tag_66:\n      mload(0x40)\n      tag_68\n      swap2\n      swap1\n      tag_69\n      jump\t// in\n    tag_68:\n      mload(0x40)\n      dup1\n      swap2\n      sub\n      swap1\n      return\n        /* \"contracts/DataPunk/DataPunk.sol\":6003:7261  function validateDataset(uint256 datasetId) public {... */\n    tag_14:\n      tag_70\n      0x04\n      dup1\n      calldatasize\n      sub\n      dup2\n      add\n      swap1\n      tag_71\n      swap2\n      swap1\n      tag_26\n      jump\t// in\n    tag_71:\n      tag_72\n      jump\t// in\n    tag_70:\n      stop\n        /* \"contracts/DataPunk/DataPunk.sol\":295:328  address public dpkContractAddress */\n    tag_15:\n      tag_73\n      tag_74\n      jump\t// in\n    tag_73:\n      mload(0x40)\n      tag_75\n      swap2\n      swap1\n      tag_55\n      jump\t// in\n    tag_75:\n      mload(0x40)\n      dup1\n      swap2\n      sub\n      swap1\n      return\n        /* \"contracts/DataPunk/DataPunk.sol\":1883:2390  function deployDataPunkCoin() public onlyOwner {... */\n    tag_16:\n      tag_76\n      tag_77\n      jump\t// in\n    tag_76:\n      stop\n        /* \"contracts/DataPunk/DataPunk.sol\":603:667  mapping(address => mapping(address => uint256)) public allowance */\n    tag_17:\n      tag_78\n      0x04\n      dup1\n      calldatasize\n      sub\n      dup2\n      add\n      swap1\n      tag_79\n      swap2\n      swap1\n      tag_80\n      jump\t// in\n    tag_79:\n      tag_81\n      jump\t// in\n    tag_78:\n      mload(0x40)\n      tag_82\n      swap2\n      swap1\n      tag_38\n      jump\t// in\n    tag_82:\n      mload(0x40)\n      dup1\n      swap2\n      sub\n      swap1\n      return\n        /* \"contracts/DataPunk/DataPunk.sol\":3598:3701  function getDPCSupply() public view returns (uint256) {... */\n    tag_18:\n      tag_83\n      tag_84\n      jump\t// in\n    tag_83:\n      mload(0x40)\n      tag_85\n      swap2\n      swap1\n      tag_38\n      jump\t// in\n    tag_85:\n      mload(0x40)\n      dup1\n      swap2\n      sub\n      swap1\n      return\n        /* \"contracts/DataPunk/DataPunk.sol\":5840:5974  function registerAsValidator() public {... */\n    tag_19:\n      tag_86\n      tag_87\n      jump\t// in\n    tag_86:\n      stop\n        /* \"contracts/DataPunk/DataPunk.sol\":2434:2541  function getAllValidators() public view returns (address[] memory) {... */\n    tag_20:\n      tag_88\n      tag_89\n      jump\t// in\n    tag_88:\n      mload(0x40)\n      tag_90\n      swap2\n      swap1\n      tag_91\n      jump\t// in\n    tag_90:\n      mload(0x40)\n      dup1\n      swap2\n      sub\n      swap1\n      return\n        /* \"contracts/DataPunk/DataPunk.sol\":1358:1383  Dataset[] public datasets */\n    tag_27:\n      0x06\n      dup2\n      dup2\n      sload\n      dup2\n      lt\n      tag_92\n      jumpi\n      0x00\n      dup1\n      revert\n    tag_92:\n      swap1\n      0x00\n      mstore\n      keccak256(0x00, 0x20)\n      swap1\n      0x05\n      mul\n      add\n      0x00\n      swap2\n      pop\n      swap1\n      pop\n      dup1\n      0x00\n      add\n      0x00\n      swap1\n      sload\n      swap1\n      0x0100\n      exp\n      swap1\n      div\n      0xffffffffffffffffffffffffffffffffffffffff\n      and\n      swap1\n      dup1\n      0x01\n      add\n      sload\n      swap1\n      dup1\n      0x02\n      add\n      sload\n      swap1\n      dup1\n      0x04\n      add\n      0x00\n      swap1\n      sload\n      swap1\n      0x0100\n      exp\n      swap1\n      div\n      0xff\n      and\n      swap1\n      pop\n      dup5\n      jump\t// out\n        /* \"contracts/DataPunk/DataPunk.sol\":5144:5787  function makeDataset(uint256 price, uint256 validationReward) public {... */\n    tag_33:\n        /* \"contracts/DataPunk/DataPunk.sol\":5339:5366  address[] memory emptyArray */\n      0x60\n        /* \"contracts/DataPunk/DataPunk.sol\":5376:5384  datasets */\n      0x06\n        /* \"contracts/DataPunk/DataPunk.sol\":5390:5583  Dataset({... */\n      mload(0x40)\n      dup1\n      0xa0\n      add\n      0x40\n      mstore\n      dup1\n        /* \"contracts/DataPunk/DataPunk.sol\":5421:5431  msg.sender */\n      caller\n        /* \"contracts/DataPunk/DataPunk.sol\":5390:5583  Dataset({... */\n      0xffffffffffffffffffffffffffffffffffffffff\n      and\n      dup2\n      mstore\n      0x20\n      add\n        /* \"contracts/DataPunk/DataPunk.sol\":5452:5457  price */\n      dup6\n        /* \"contracts/DataPunk/DataPunk.sol\":5390:5583  Dataset({... */\n      dup2\n      mstore\n      0x20\n      add\n        /* \"contracts/DataPunk/DataPunk.sol\":5489:5505  validationReward */\n      dup5\n        /* \"contracts/DataPunk/DataPunk.sol\":5390:5583  Dataset({... */\n      dup2\n      mstore\n      0x20\n      add\n        /* \"contracts/DataPunk/DataPunk.sol\":5531:5541  emptyArray */\n      dup4\n        /* \"contracts/DataPunk/DataPunk.sol\":5390:5583  Dataset({... */\n      dup2\n      mstore\n      0x20\n      add\n        /* \"contracts/DataPunk/DataPunk.sol\":5568:5572  true */\n      0x01\n        /* \"contracts/DataPunk/DataPunk.sol\":5390:5583  Dataset({... */\n      iszero\n      iszero\n      dup2\n      mstore\n      pop\n        /* \"contracts/DataPunk/DataPunk.sol\":5376:5584  datasets.push(Dataset({... */\n      swap1\n      dup1\n      0x01\n      dup2\n      sload\n      add\n      dup1\n      dup3\n      sstore\n      dup1\n      swap2\n      pop\n      pop\n      0x01\n      swap1\n      sub\n      swap1\n      0x00\n      mstore\n      keccak256(0x00, 0x20)\n      swap1\n      0x05\n      mul\n      add\n      0x00\n      swap1\n      swap2\n      swap1\n      swap2\n      swap1\n      swap2\n      pop\n      0x00\n      dup3\n      add\n      mload\n      dup2\n      0x00\n      add\n      exp(0x0100, 0x00)\n      dup2\n      sload\n      dup2\n      0xffffffffffffffffffffffffffffffffffffffff\n      mul\n      not\n      and\n      swap1\n      dup4\n      0xffffffffffffffffffffffffffffffffffffffff\n      and\n      mul\n      or\n      swap1\n      sstore\n      pop\n      0x20\n      dup3\n      add\n      mload\n      dup2\n      0x01\n      add\n      sstore\n      0x40\n      dup3\n      add\n      mload\n      dup2\n      0x02\n      add\n      sstore\n      0x60\n      dup3\n      add\n      mload\n      dup2\n      0x03\n      add\n      swap1\n      dup1\n      mload\n      swap1\n      0x20\n      add\n      swap1\n      tag_96\n      swap3\n      swap2\n      swap1\n      tag_97\n      jump\t// in\n    tag_96:\n      pop\n      0x80\n      dup3\n      add\n      mload\n      dup2\n      0x04\n      add\n      exp(0x0100, 0x00)\n      dup2\n      sload\n      dup2\n      0xff\n      mul\n      not\n      and\n      swap1\n      dup4\n      iszero\n      iszero\n      mul\n      or\n      swap1\n      sstore\n      pop\n      pop\n      pop\n        /* \"contracts/DataPunk/DataPunk.sol\":5594:5611  uint256 datasetId */\n      0x00\n        /* \"contracts/DataPunk/DataPunk.sol\":5632:5633  1 */\n      0x01\n        /* \"contracts/DataPunk/DataPunk.sol\":5614:5622  datasets */\n      0x06\n        /* \"contracts/DataPunk/DataPunk.sol\":5614:5629  datasets.length */\n      dup1\n      sload\n      swap1\n      pop\n        /* \"contracts/DataPunk/DataPunk.sol\":5614:5633  datasets.length - 1 */\n      tag_98\n      swap2\n      swap1\n      tag_99\n      jump\t// in\n    tag_98:\n        /* \"contracts/DataPunk/DataPunk.sol\":5594:5633  uint256 datasetId = datasets.length - 1 */\n      swap1\n      pop\n        /* \"contracts/DataPunk/DataPunk.sol\":5752:5762  msg.sender */\n      caller\n        /* \"contracts/DataPunk/DataPunk.sol\":5728:5780  DatasetMaked(datasetId, msg.sender, makeDatasePrice) */\n      0xffffffffffffffffffffffffffffffffffffffff\n      and\n        /* \"contracts/DataPunk/DataPunk.sol\":5741:5750  datasetId */\n      dup2\n        /* \"contracts/DataPunk/DataPunk.sol\":5728:5780  DatasetMaked(datasetId, msg.sender, makeDatasePrice) */\n      0x571a5dfc09c77bbe59e7a00b078fec1a53f090e992ccacde1856dab24624c968\n        /* \"contracts/DataPunk/DataPunk.sol\":5764:5779  makeDatasePrice */\n      sload(0x02)\n        /* \"contracts/DataPunk/DataPunk.sol\":5728:5780  DatasetMaked(datasetId, msg.sender, makeDatasePrice) */\n      mload(0x40)\n      tag_100\n      swap2\n      swap1\n      tag_38\n      jump\t// in\n    tag_100:\n      mload(0x40)\n      dup1\n      swap2\n      sub\n      swap1\n      log3\n        /* \"contracts/DataPunk/DataPunk.sol\":5213:5787  {... */\n      pop\n      pop\n        /* \"contracts/DataPunk/DataPunk.sol\":5144:5787  function makeDataset(uint256 price, uint256 validationReward) public {... */\n      pop\n      pop\n      jump\t// out\n        /* \"contracts/DataPunk/DataPunk.sol\":3898:4575  function updateDataset(uint256 price, uint256 validationReward) public returns (uint256) {... */\n    tag_36:\n        /* \"contracts/DataPunk/DataPunk.sol\":3978:3985  uint256 */\n      0x00\n        /* \"contracts/DataPunk/DataPunk.sol\":3997:4024  address[] memory emptyArray */\n      0x60\n        /* \"contracts/DataPunk/DataPunk.sol\":4034:4042  datasets */\n      0x06\n        /* \"contracts/DataPunk/DataPunk.sol\":4048:4242  Dataset({... */\n      mload(0x40)\n      dup1\n      0xa0\n      add\n      0x40\n      mstore\n      dup1\n        /* \"contracts/DataPunk/DataPunk.sol\":4079:4089  msg.sender */\n      caller\n        /* \"contracts/DataPunk/DataPunk.sol\":4048:4242  Dataset({... */\n      0xffffffffffffffffffffffffffffffffffffffff\n      and\n      dup2\n      mstore\n      0x20\n      add\n        /* \"contracts/DataPunk/DataPunk.sol\":4110:4115  price */\n      dup7\n        /* \"contracts/DataPunk/DataPunk.sol\":4048:4242  Dataset({... */\n      dup2\n      mstore\n      0x20\n      add\n        /* \"contracts/DataPunk/DataPunk.sol\":4147:4163  validationReward */\n      dup6\n        /* \"contracts/DataPunk/DataPunk.sol\":4048:4242  Dataset({... */\n      dup2\n      mstore\n      0x20\n      add\n        /* \"contracts/DataPunk/DataPunk.sol\":4189:4199  emptyArray */\n      dup4\n        /* \"contracts/DataPunk/DataPunk.sol\":4048:4242  Dataset({... */\n      dup2\n      mstore\n      0x20\n      add\n        /* \"contracts/DataPunk/DataPunk.sol\":4226:4231  false */\n      0x00\n        /* \"contracts/DataPunk/DataPunk.sol\":4048:4242  Dataset({... */\n      iszero\n      iszero\n      dup2\n      mstore\n      pop\n        /* \"contracts/DataPunk/DataPunk.sol\":4034:4243  datasets.push(Dataset({... */\n      swap1\n      dup1\n      0x01\n      dup2\n      sload\n      add\n      dup1\n      dup3\n      sstore\n      dup1\n      swap2\n      pop\n      pop\n      0x01\n      swap1\n      sub\n      swap1\n      0x00\n      mstore\n      keccak256(0x00, 0x20)\n      swap1\n      0x05\n      mul\n      add\n      0x00\n      swap1\n      swap2\n      swap1\n      swap2\n      swap1\n      swap2\n      pop\n      0x00\n      dup3\n      add\n      mload\n      dup2\n      0x00\n      add\n      exp(0x0100, 0x00)\n      dup2\n      sload\n      dup2\n      0xffffffffffffffffffffffffffffffffffffffff\n      mul\n      not\n      and\n      swap1\n      dup4\n      0xffffffffffffffffffffffffffffffffffffffff\n      and\n      mul\n      or\n      swap1\n      sstore\n      pop\n      0x20\n      dup3\n      add\n      mload\n      dup2\n      0x01\n      add\n      sstore\n      0x40\n      dup3\n      add\n      mload\n      dup2\n      0x02\n      add\n      sstore\n      0x60\n      dup3\n      add\n      mload\n      dup2\n      0x03\n      add\n      swap1\n      dup1\n      mload\n      swap1\n      0x20\n      add\n      swap1\n      tag_103\n      swap3\n      swap2\n      swap1\n      tag_97\n      jump\t// in\n    tag_103:\n      pop\n      0x80\n      dup3\n      add\n      mload\n      dup2\n      0x04\n      add\n      exp(0x0100, 0x00)\n      dup2\n      sload\n      dup2\n      0xff\n      mul\n      not\n      and\n      swap1\n      dup4\n      iszero\n      iszero\n      mul\n      or\n      swap1\n      sstore\n      pop\n      pop\n      pop\n        /* \"contracts/DataPunk/DataPunk.sol\":4253:4270  uint256 datasetId */\n      0x00\n        /* \"contracts/DataPunk/DataPunk.sol\":4291:4292  1 */\n      0x01\n        /* \"contracts/DataPunk/DataPunk.sol\":4273:4281  datasets */\n      0x06\n        /* \"contracts/DataPunk/DataPunk.sol\":4273:4288  datasets.length */\n      dup1\n      sload\n      swap1\n      pop\n        /* \"contracts/DataPunk/DataPunk.sol\":4273:4292  datasets.length - 1 */\n      tag_104\n      swap2\n      swap1\n      tag_99\n      jump\t// in\n    tag_104:\n        /* \"contracts/DataPunk/DataPunk.sol\":4253:4292  uint256 datasetId = datasets.length - 1 */\n      swap1\n      pop\n        /* \"contracts/DataPunk/DataPunk.sol\":4524:4534  msg.sender */\n      caller\n        /* \"contracts/DataPunk/DataPunk.sol\":4499:4542  DatasetUpload(datasetId, msg.sender, price) */\n      0xffffffffffffffffffffffffffffffffffffffff\n      and\n        /* \"contracts/DataPunk/DataPunk.sol\":4513:4522  datasetId */\n      dup2\n        /* \"contracts/DataPunk/DataPunk.sol\":4499:4542  DatasetUpload(datasetId, msg.sender, price) */\n      0xf18e92c00977b9ca5951f9775e5cf053c54bdaec0794874261786ee3e9460ebd\n        /* \"contracts/DataPunk/DataPunk.sol\":4536:4541  price */\n      dup8\n        /* \"contracts/DataPunk/DataPunk.sol\":4499:4542  DatasetUpload(datasetId, msg.sender, price) */\n      mload(0x40)\n      tag_105\n      swap2\n      swap1\n      tag_38\n      jump\t// in\n    tag_105:\n      mload(0x40)\n      dup1\n      swap2\n      sub\n      swap1\n      log3\n        /* \"contracts/DataPunk/DataPunk.sol\":4559:4568  datasetId */\n      dup1\n        /* \"contracts/DataPunk/DataPunk.sol\":4552:4568  return datasetId */\n      swap3\n      pop\n      pop\n      pop\n        /* \"contracts/DataPunk/DataPunk.sol\":3898:4575  function updateDataset(uint256 price, uint256 validationReward) public returns (uint256) {... */\n      swap3\n      swap2\n      pop\n      pop\n      jump\t// out\n        /* \"contracts/DataPunk/DataPunk.sol\":4613:5115  function purchaseDataset(uint256 datasetId) public {... */\n    tag_41:\n        /* \"contracts/DataPunk/DataPunk.sol\":4674:4697  Dataset storage dataset */\n      0x00\n        /* \"contracts/DataPunk/DataPunk.sol\":4700:4708  datasets */\n      0x06\n        /* \"contracts/DataPunk/DataPunk.sol\":4709:4718  datasetId */\n      dup3\n        /* \"contracts/DataPunk/DataPunk.sol\":4700:4719  datasets[datasetId] */\n      dup2\n      sload\n      dup2\n      lt\n      tag_107\n      jumpi\n      tag_108\n      tag_109\n      jump\t// in\n    tag_108:\n    tag_107:\n      swap1\n      0x00\n      mstore\n      keccak256(0x00, 0x20)\n      swap1\n      0x05\n      mul\n      add\n        /* \"contracts/DataPunk/DataPunk.sol\":4674:4719  Dataset storage dataset = datasets[datasetId] */\n      swap1\n      pop\n        /* \"contracts/DataPunk/DataPunk.sol\":4856:4863  dataset */\n      dup1\n        /* \"contracts/DataPunk/DataPunk.sol\":4856:4871  dataset.creator */\n      0x00\n      add\n      0x00\n      swap1\n      sload\n      swap1\n      0x0100\n      exp\n      swap1\n      div\n      0xffffffffffffffffffffffffffffffffffffffff\n      and\n        /* \"contracts/DataPunk/DataPunk.sol\":4842:4871  msg.sender != dataset.creator */\n      0xffffffffffffffffffffffffffffffffffffffff\n      and\n        /* \"contracts/DataPunk/DataPunk.sol\":4842:4852  msg.sender */\n      caller\n        /* \"contracts/DataPunk/DataPunk.sol\":4842:4871  msg.sender != dataset.creator */\n      0xffffffffffffffffffffffffffffffffffffffff\n      and\n      sub\n        /* \"contracts/DataPunk/DataPunk.sol\":4834:4900  require(msg.sender != dataset.creator, \"Cannot buy yours dataset\") */\n      tag_111\n      jumpi\n      mload(0x40)\n      0x08c379a000000000000000000000000000000000000000000000000000000000\n      dup2\n      mstore\n      0x04\n      add\n      tag_112\n      swap1\n      tag_113\n      jump\t// in\n    tag_112:\n      mload(0x40)\n      dup1\n      swap2\n      sub\n      swap1\n      revert\n    tag_111:\n        /* \"contracts/DataPunk/DataPunk.sol\":5082:5092  msg.sender */\n      caller\n        /* \"contracts/DataPunk/DataPunk.sol\":5054:5108  DatasetPurchased(datasetId, msg.sender, dataset.price) */\n      0xffffffffffffffffffffffffffffffffffffffff\n      and\n        /* \"contracts/DataPunk/DataPunk.sol\":5071:5080  datasetId */\n      dup3\n        /* \"contracts/DataPunk/DataPunk.sol\":5054:5108  DatasetPurchased(datasetId, msg.sender, dataset.price) */\n      0x313d5c7bf54e15a1b7dc24a51b097c6458663a33e7a4be386f80fea411dcda65\n        /* \"contracts/DataPunk/DataPunk.sol\":5094:5101  dataset */\n      dup4\n        /* \"contracts/DataPunk/DataPunk.sol\":5094:5107  dataset.price */\n      0x01\n      add\n      sload\n        /* \"contracts/DataPunk/DataPunk.sol\":5054:5108  DatasetPurchased(datasetId, msg.sender, dataset.price) */\n      mload(0x40)\n      tag_114\n      swap2\n      swap1\n      tag_38\n      jump\t// in\n    tag_114:\n      mload(0x40)\n      dup1\n      swap2\n      sub\n      swap1\n      log3\n        /* \"contracts/DataPunk/DataPunk.sol\":4664:5115  {... */\n      pop\n        /* \"contracts/DataPunk/DataPunk.sol\":4613:5115  function purchaseDataset(uint256 datasetId) public {... */\n      pop\n      jump\t// out\n        /* \"contracts/DataPunk/DataPunk.sol\":2582:3433  function getAllDatasets() public view returns (... */\n    tag_43:\n        /* \"contracts/DataPunk/DataPunk.sol\":2638:2663  address[] memory creators */\n      0x60\n        /* \"contracts/DataPunk/DataPunk.sol\":2673:2696  uint256[] memory prices */\n      dup1\n        /* \"contracts/DataPunk/DataPunk.sol\":2706:2740  uint256[] memory validationRewards */\n      0x60\n        /* \"contracts/DataPunk/DataPunk.sol\":2750:2780  bool[] memory isValidatedFlags */\n      dup1\n        /* \"contracts/DataPunk/DataPunk.sol\":2797:2817  uint256 datasetCount */\n      0x00\n        /* \"contracts/DataPunk/DataPunk.sol\":2820:2828  datasets */\n      0x06\n        /* \"contracts/DataPunk/DataPunk.sol\":2820:2835  datasets.length */\n      dup1\n      sload\n      swap1\n      pop\n        /* \"contracts/DataPunk/DataPunk.sol\":2797:2835  uint256 datasetCount = datasets.length */\n      swap1\n      pop\n        /* \"contracts/DataPunk/DataPunk.sol\":2871:2883  datasetCount */\n      dup1\n        /* \"contracts/DataPunk/DataPunk.sol\":2857:2884  new address[](datasetCount) */\n      0xffffffffffffffff\n      dup2\n      gt\n      iszero\n      tag_116\n      jumpi\n      tag_117\n      tag_118\n      jump\t// in\n    tag_117:\n    tag_116:\n      mload(0x40)\n      swap1\n      dup1\n      dup3\n      mstore\n      dup1\n      0x20\n      mul\n      0x20\n      add\n      dup3\n      add\n      0x40\n      mstore\n      dup1\n      iszero\n      tag_119\n      jumpi\n      dup2\n      0x20\n      add\n      0x20\n      dup3\n      mul\n      dup1\n      calldatasize\n      dup4\n      calldatacopy\n      dup1\n      dup3\n      add\n      swap2\n      pop\n      pop\n      swap1\n      pop\n    tag_119:\n      pop\n        /* \"contracts/DataPunk/DataPunk.sol\":2846:2884  creators = new address[](datasetCount) */\n      swap5\n      pop\n        /* \"contracts/DataPunk/DataPunk.sol\":2917:2929  datasetCount */\n      dup1\n        /* \"contracts/DataPunk/DataPunk.sol\":2903:2930  new uint256[](datasetCount) */\n      0xffffffffffffffff\n      dup2\n      gt\n      iszero\n      tag_120\n      jumpi\n      tag_121\n      tag_118\n      jump\t// in\n    tag_121:\n    tag_120:\n      mload(0x40)\n      swap1\n      dup1\n      dup3\n      mstore\n      dup1\n      0x20\n      mul\n      0x20\n      add\n      dup3\n      add\n      0x40\n      mstore\n      dup1\n      iszero\n      tag_122\n      jumpi\n      dup2\n      0x20\n      add\n      0x20\n      dup3\n      mul\n      dup1\n      calldatasize\n      dup4\n      calldatacopy\n      dup1\n      dup3\n      add\n      swap2\n      pop\n      pop\n      swap1\n      pop\n    tag_122:\n      pop\n        /* \"contracts/DataPunk/DataPunk.sol\":2894:2930  prices = new uint256[](datasetCount) */\n      swap4\n      pop\n        /* \"contracts/DataPunk/DataPunk.sol\":2974:2986  datasetCount */\n      dup1\n        /* \"contracts/DataPunk/DataPunk.sol\":2960:2987  new uint256[](datasetCount) */\n      0xffffffffffffffff\n      dup2\n      gt\n      iszero\n      tag_123\n      jumpi\n      tag_124\n      tag_118\n      jump\t// in\n    tag_124:\n    tag_123:\n      mload(0x40)\n      swap1\n      dup1\n      dup3\n      mstore\n      dup1\n      0x20\n      mul\n      0x20\n      add\n      dup3\n      add\n      0x40\n      mstore\n      dup1\n      iszero\n      tag_125\n      jumpi\n      dup2\n      0x20\n      add\n      0x20\n      dup3\n      mul\n      dup1\n      calldatasize\n      dup4\n      calldatacopy\n      dup1\n      dup3\n      add\n      swap2\n      pop\n      pop\n      swap1\n      pop\n    tag_125:\n      pop\n        /* \"contracts/DataPunk/DataPunk.sol\":2940:2987  validationRewards = new uint256[](datasetCount) */\n      swap3\n      pop\n        /* \"contracts/DataPunk/DataPunk.sol\":3027:3039  datasetCount */\n      dup1\n        /* \"contracts/DataPunk/DataPunk.sol\":3016:3040  new bool[](datasetCount) */\n      0xffffffffffffffff\n      dup2\n      gt\n      iszero\n      tag_126\n      jumpi\n      tag_127\n      tag_118\n      jump\t// in\n    tag_127:\n    tag_126:\n      mload(0x40)\n      swap1\n      dup1\n      dup3\n      mstore\n      dup1\n      0x20\n      mul\n      0x20\n      add\n      dup3\n      add\n      0x40\n      mstore\n      dup1\n      iszero\n      tag_128\n      jumpi\n      dup2\n      0x20\n      add\n      0x20\n      dup3\n      mul\n      dup1\n      calldatasize\n      dup4\n      calldatacopy\n      dup1\n      dup3\n      add\n      swap2\n      pop\n      pop\n      swap1\n      pop\n    tag_128:\n      pop\n        /* \"contracts/DataPunk/DataPunk.sol\":2997:3040  isValidatedFlags = new bool[](datasetCount) */\n      swap2\n      pop\n        /* \"contracts/DataPunk/DataPunk.sol\":3056:3065  uint256 i */\n      0x00\n        /* \"contracts/DataPunk/DataPunk.sol\":3051:3354  for (uint256 i = 0; i < datasetCount; i++) {... */\n    tag_129:\n        /* \"contracts/DataPunk/DataPunk.sol\":3075:3087  datasetCount */\n      dup2\n        /* \"contracts/DataPunk/DataPunk.sol\":3071:3072  i */\n      dup2\n        /* \"contracts/DataPunk/DataPunk.sol\":3071:3087  i < datasetCount */\n      lt\n        /* \"contracts/DataPunk/DataPunk.sol\":3051:3354  for (uint256 i = 0; i < datasetCount; i++) {... */\n      iszero\n      tag_130\n      jumpi\n        /* \"contracts/DataPunk/DataPunk.sol\":3108:3131  Dataset storage dataset */\n      0x00\n        /* \"contracts/DataPunk/DataPunk.sol\":3134:3142  datasets */\n      0x06\n        /* \"contracts/DataPunk/DataPunk.sol\":3143:3144  i */\n      dup3\n        /* \"contracts/DataPunk/DataPunk.sol\":3134:3145  datasets[i] */\n      dup2\n      sload\n      dup2\n      lt\n      tag_132\n      jumpi\n      tag_133\n      tag_109\n      jump\t// in\n    tag_133:\n    tag_132:\n      swap1\n      0x00\n      mstore\n      keccak256(0x00, 0x20)\n      swap1\n      0x05\n      mul\n      add\n        /* \"contracts/DataPunk/DataPunk.sol\":3108:3145  Dataset storage dataset = datasets[i] */\n      swap1\n      pop\n        /* \"contracts/DataPunk/DataPunk.sol\":3173:3180  dataset */\n      dup1\n        /* \"contracts/DataPunk/DataPunk.sol\":3173:3188  dataset.creator */\n      0x00\n      add\n      0x00\n      swap1\n      sload\n      swap1\n      0x0100\n      exp\n      swap1\n      div\n      0xffffffffffffffffffffffffffffffffffffffff\n      and\n        /* \"contracts/DataPunk/DataPunk.sol\":3159:3167  creators */\n      dup8\n        /* \"contracts/DataPunk/DataPunk.sol\":3168:3169  i */\n      dup4\n        /* \"contracts/DataPunk/DataPunk.sol\":3159:3170  creators[i] */\n      dup2\n      mload\n      dup2\n      lt\n      tag_135\n      jumpi\n      tag_136\n      tag_109\n      jump\t// in\n    tag_136:\n    tag_135:\n      0x20\n      mul\n      0x20\n      add\n      add\n        /* \"contracts/DataPunk/DataPunk.sol\":3159:3188  creators[i] = dataset.creator */\n      swap1\n      0xffffffffffffffffffffffffffffffffffffffff\n      and\n      swap1\n      dup2\n      0xffffffffffffffffffffffffffffffffffffffff\n      and\n      dup2\n      mstore\n      pop\n      pop\n        /* \"contracts/DataPunk/DataPunk.sol\":3214:3221  dataset */\n      dup1\n        /* \"contracts/DataPunk/DataPunk.sol\":3214:3227  dataset.price */\n      0x01\n      add\n      sload\n        /* \"contracts/DataPunk/DataPunk.sol\":3202:3208  prices */\n      dup7\n        /* \"contracts/DataPunk/DataPunk.sol\":3209:3210  i */\n      dup4\n        /* \"contracts/DataPunk/DataPunk.sol\":3202:3211  prices[i] */\n      dup2\n      mload\n      dup2\n      lt\n      tag_137\n      jumpi\n      tag_138\n      tag_109\n      jump\t// in\n    tag_138:\n    tag_137:\n      0x20\n      mul\n      0x20\n      add\n      add\n        /* \"contracts/DataPunk/DataPunk.sol\":3202:3227  prices[i] = dataset.price */\n      dup2\n      dup2\n      mstore\n      pop\n      pop\n        /* \"contracts/DataPunk/DataPunk.sol\":3264:3271  dataset */\n      dup1\n        /* \"contracts/DataPunk/DataPunk.sol\":3264:3288  dataset.validationReward */\n      0x02\n      add\n      sload\n        /* \"contracts/DataPunk/DataPunk.sol\":3241:3258  validationRewards */\n      dup6\n        /* \"contracts/DataPunk/DataPunk.sol\":3259:3260  i */\n      dup4\n        /* \"contracts/DataPunk/DataPunk.sol\":3241:3261  validationRewards[i] */\n      dup2\n      mload\n      dup2\n      lt\n      tag_139\n      jumpi\n      tag_140\n      tag_109\n      jump\t// in\n    tag_140:\n    tag_139:\n      0x20\n      mul\n      0x20\n      add\n      add\n        /* \"contracts/DataPunk/DataPunk.sol\":3241:3288  validationRewards[i] = dataset.validationReward */\n      dup2\n      dup2\n      mstore\n      pop\n      pop\n        /* \"contracts/DataPunk/DataPunk.sol\":3324:3331  dataset */\n      dup1\n        /* \"contracts/DataPunk/DataPunk.sol\":3324:3343  dataset.isValidated */\n      0x04\n      add\n      0x00\n      swap1\n      sload\n      swap1\n      0x0100\n      exp\n      swap1\n      div\n      0xff\n      and\n        /* \"contracts/DataPunk/DataPunk.sol\":3302:3318  isValidatedFlags */\n      dup5\n        /* \"contracts/DataPunk/DataPunk.sol\":3319:3320  i */\n      dup4\n        /* \"contracts/DataPunk/DataPunk.sol\":3302:3321  isValidatedFlags[i] */\n      dup2\n      mload\n      dup2\n      lt\n      tag_141\n      jumpi\n      tag_142\n      tag_109\n      jump\t// in\n    tag_142:\n    tag_141:\n      0x20\n      mul\n      0x20\n      add\n      add\n        /* \"contracts/DataPunk/DataPunk.sol\":3302:3343  isValidatedFlags[i] = dataset.isValidated */\n      swap1\n      iszero\n      iszero\n      swap1\n      dup2\n      iszero\n      iszero\n      dup2\n      mstore\n      pop\n      pop\n        /* \"contracts/DataPunk/DataPunk.sol\":3094:3354  {... */\n      pop\n        /* \"contracts/DataPunk/DataPunk.sol\":3089:3092  i++ */\n      dup1\n      dup1\n      0x01\n      add\n      swap2\n      pop\n      pop\n        /* \"contracts/DataPunk/DataPunk.sol\":3051:3354  for (uint256 i = 0; i < datasetCount; i++) {... */\n      jump(tag_129)\n    tag_130:\n      pop\n        /* \"contracts/DataPunk/DataPunk.sol\":3364:3426  return (creators, prices, validationRewards, isValidatedFlags) */\n      pop\n        /* \"contracts/DataPunk/DataPunk.sol\":2582:3433  function getAllDatasets() public view returns (... */\n      swap1\n      swap2\n      swap3\n      swap4\n      jump\t// out\n        /* \"contracts/DataPunk/DataPunk.sol\":553:597  mapping(address => uint256) public balanceOf */\n    tag_49:\n      mstore(0x20, 0x04)\n      dup1\n      0x00\n      mstore\n      keccak256(0x00, 0x40)\n      0x00\n      swap2\n      pop\n      swap1\n      pop\n      sload\n      dup2\n      jump\t// out\n        /* \"contracts/DataPunk/DataPunk.sol\":423:456  address[] public publicValidators */\n    tag_53:\n      0x03\n      dup2\n      dup2\n      sload\n      dup2\n      lt\n      tag_143\n      jumpi\n      0x00\n      dup1\n      revert\n    tag_143:\n      swap1\n      0x00\n      mstore\n      keccak256(0x00, 0x20)\n      add\n      0x00\n      swap2\n      pop\n      sload\n      swap1\n      0x0100\n      exp\n      swap1\n      div\n      0xffffffffffffffffffffffffffffffffffffffff\n      and\n      dup2\n      jump\t// out\n        /* \"contracts/DataPunk/DataPunk.sol\":3737:3863  function getDPCBalanceOf(address account) public view returns (uint256) {... */\n    tag_58:\n        /* \"contracts/DataPunk/DataPunk.sol\":3800:3807  uint256 */\n      0x00\n        /* \"contracts/DataPunk/DataPunk.sol\":3737:3863  function getDPCBalanceOf(address account) public view returns (uint256) {... */\n      swap2\n      swap1\n      pop\n      jump\t// out\n        /* \"contracts/DataPunk/DataPunk.sol\":382:417  uint256 public makeDatasePrice = 10 */\n    tag_61:\n      sload(0x02)\n      dup2\n      jump\t// out\n        /* \"contracts/DataPunk/DataPunk.sol\":3483:3568  function owner() public view virtual returns (address) {... */\n    tag_64:\n        /* \"contracts/DataPunk/DataPunk.sol\":3529:3536  address */\n      0x00\n        /* \"contracts/DataPunk/DataPunk.sol\":3555:3561  _owner */\n      dup1\n      0x00\n      swap1\n      sload\n      swap1\n      0x0100\n      exp\n      swap1\n      div\n      0xffffffffffffffffffffffffffffffffffffffff\n      and\n        /* \"contracts/DataPunk/DataPunk.sol\":3548:3561  return _owner */\n      swap1\n      pop\n        /* \"contracts/DataPunk/DataPunk.sol\":3483:3568  function owner() public view virtual returns (address) {... */\n      swap1\n      jump\t// out\n        /* \"contracts/DataPunk/DataPunk.sol\":334:376  bool public isDataPunkCoinDeployed = false */\n    tag_67:\n      0x01\n      0x14\n      swap1\n      sload\n      swap1\n      0x0100\n      exp\n      swap1\n      div\n      0xff\n      and\n      dup2\n      jump\t// out\n        /* \"contracts/DataPunk/DataPunk.sol\":6003:7261  function validateDataset(uint256 datasetId) public {... */\n    tag_72:\n        /* \"contracts/DataPunk/DataPunk.sol\":6064:6087  Dataset storage dataset */\n      0x00\n        /* \"contracts/DataPunk/DataPunk.sol\":6090:6098  datasets */\n      0x06\n        /* \"contracts/DataPunk/DataPunk.sol\":6099:6108  datasetId */\n      dup3\n        /* \"contracts/DataPunk/DataPunk.sol\":6090:6109  datasets[datasetId] */\n      dup2\n      sload\n      dup2\n      lt\n      tag_148\n      jumpi\n      tag_149\n      tag_109\n      jump\t// in\n    tag_149:\n    tag_148:\n      swap1\n      0x00\n      mstore\n      keccak256(0x00, 0x20)\n      swap1\n      0x05\n      mul\n      add\n        /* \"contracts/DataPunk/DataPunk.sol\":6064:6109  Dataset storage dataset = datasets[datasetId] */\n      swap1\n      pop\n        /* \"contracts/DataPunk/DataPunk.sol\":6128:6135  dataset */\n      dup1\n        /* \"contracts/DataPunk/DataPunk.sol\":6128:6147  dataset.isValidated */\n      0x04\n      add\n      0x00\n      swap1\n      sload\n      swap1\n      0x0100\n      exp\n      swap1\n      div\n      0xff\n      and\n        /* \"contracts/DataPunk/DataPunk.sol\":6127:6147  !dataset.isValidated */\n      iszero\n        /* \"contracts/DataPunk/DataPunk.sol\":6119:6177  require(!dataset.isValidated, \"Dataset already validated\") */\n      tag_151\n      jumpi\n      mload(0x40)\n      0x08c379a000000000000000000000000000000000000000000000000000000000\n      dup2\n      mstore\n      0x04\n      add\n      tag_152\n      swap1\n      tag_153\n      jump\t// in\n    tag_152:\n      mload(0x40)\n      dup1\n      swap2\n      sub\n      swap1\n      revert\n    tag_151:\n        /* \"contracts/DataPunk/DataPunk.sol\":6245:6261  bool isValidator */\n      0x00\n        /* \"contracts/DataPunk/DataPunk.sol\":6284:6290  uint i */\n      dup1\n        /* \"contracts/DataPunk/DataPunk.sol\":6279:6467  for (uint i = 0; i < publicValidators.length; i++) {... */\n    tag_154:\n        /* \"contracts/DataPunk/DataPunk.sol\":6300:6316  publicValidators */\n      0x03\n        /* \"contracts/DataPunk/DataPunk.sol\":6300:6323  publicValidators.length */\n      dup1\n      sload\n      swap1\n      pop\n        /* \"contracts/DataPunk/DataPunk.sol\":6296:6297  i */\n      dup2\n        /* \"contracts/DataPunk/DataPunk.sol\":6296:6323  i < publicValidators.length */\n      lt\n        /* \"contracts/DataPunk/DataPunk.sol\":6279:6467  for (uint i = 0; i < publicValidators.length; i++) {... */\n      iszero\n      tag_155\n      jumpi\n        /* \"contracts/DataPunk/DataPunk.sol\":6371:6381  msg.sender */\n      caller\n        /* \"contracts/DataPunk/DataPunk.sol\":6348:6381  publicValidators[i] == msg.sender */\n      0xffffffffffffffffffffffffffffffffffffffff\n      and\n        /* \"contracts/DataPunk/DataPunk.sol\":6348:6364  publicValidators */\n      0x03\n        /* \"contracts/DataPunk/DataPunk.sol\":6365:6366  i */\n      dup3\n        /* \"contracts/DataPunk/DataPunk.sol\":6348:6367  publicValidators[i] */\n      dup2\n      sload\n      dup2\n      lt\n      tag_157\n      jumpi\n      tag_158\n      tag_109\n      jump\t// in\n    tag_158:\n    tag_157:\n      swap1\n      0x00\n      mstore\n      keccak256(0x00, 0x20)\n      add\n      0x00\n      swap1\n      sload\n      swap1\n      0x0100\n      exp\n      swap1\n      div\n      0xffffffffffffffffffffffffffffffffffffffff\n      and\n        /* \"contracts/DataPunk/DataPunk.sol\":6348:6381  publicValidators[i] == msg.sender */\n      0xffffffffffffffffffffffffffffffffffffffff\n      and\n      sub\n        /* \"contracts/DataPunk/DataPunk.sol\":6344:6457  if (publicValidators[i] == msg.sender) {... */\n      tag_160\n      jumpi\n        /* \"contracts/DataPunk/DataPunk.sol\":6415:6419  true */\n      0x01\n        /* \"contracts/DataPunk/DataPunk.sol\":6401:6419  isValidator = true */\n      swap2\n      pop\n        /* \"contracts/DataPunk/DataPunk.sol\":6437:6442  break */\n      jump(tag_155)\n        /* \"contracts/DataPunk/DataPunk.sol\":6344:6457  if (publicValidators[i] == msg.sender) {... */\n    tag_160:\n        /* \"contracts/DataPunk/DataPunk.sol\":6325:6328  i++ */\n      dup1\n      dup1\n      0x01\n      add\n      swap2\n      pop\n      pop\n        /* \"contracts/DataPunk/DataPunk.sol\":6279:6467  for (uint i = 0; i < publicValidators.length; i++) {... */\n      jump(tag_154)\n    tag_155:\n      pop\n        /* \"contracts/DataPunk/DataPunk.sol\":6484:6495  isValidator */\n      dup1\n        /* \"contracts/DataPunk/DataPunk.sol\":6476:6534  require(isValidator, \"You must be a registered validator\") */\n      tag_161\n      jumpi\n      mload(0x40)\n      0x08c379a000000000000000000000000000000000000000000000000000000000\n      dup2\n      mstore\n      0x04\n      add\n      tag_162\n      swap1\n      tag_163\n      jump\t// in\n    tag_162:\n      mload(0x40)\n      dup1\n      swap2\n      sub\n      swap1\n      revert\n    tag_161:\n        /* \"contracts/DataPunk/DataPunk.sol\":6623:6630  dataset */\n      dup2\n        /* \"contracts/DataPunk/DataPunk.sol\":6623:6638  dataset.creator */\n      0x00\n      add\n      0x00\n      swap1\n      sload\n      swap1\n      0x0100\n      exp\n      swap1\n      div\n      0xffffffffffffffffffffffffffffffffffffffff\n      and\n        /* \"contracts/DataPunk/DataPunk.sol\":6609:6638  msg.sender != dataset.creator */\n      0xffffffffffffffffffffffffffffffffffffffff\n      and\n        /* \"contracts/DataPunk/DataPunk.sol\":6609:6619  msg.sender */\n      caller\n        /* \"contracts/DataPunk/DataPunk.sol\":6609:6638  msg.sender != dataset.creator */\n      0xffffffffffffffffffffffffffffffffffffffff\n      and\n      sub\n        /* \"contracts/DataPunk/DataPunk.sol\":6601:6674  require(msg.sender != dataset.creator, \"Validator cannot be the creator\") */\n      tag_164\n      jumpi\n      mload(0x40)\n      0x08c379a000000000000000000000000000000000000000000000000000000000\n      dup2\n      mstore\n      0x04\n      add\n      tag_165\n      swap1\n      tag_166\n      jump\t// in\n    tag_165:\n      mload(0x40)\n      dup1\n      swap2\n      sub\n      swap1\n      revert\n    tag_164:\n        /* \"contracts/DataPunk/DataPunk.sol\":6745:6752  dataset */\n      dup2\n        /* \"contracts/DataPunk/DataPunk.sol\":6745:6763  dataset.validators */\n      0x03\n      add\n        /* \"contracts/DataPunk/DataPunk.sol\":6769:6779  msg.sender */\n      caller\n        /* \"contracts/DataPunk/DataPunk.sol\":6745:6780  dataset.validators.push(msg.sender) */\n      swap1\n      dup1\n      0x01\n      dup2\n      sload\n      add\n      dup1\n      dup3\n      sstore\n      dup1\n      swap2\n      pop\n      pop\n      0x01\n      swap1\n      sub\n      swap1\n      0x00\n      mstore\n      keccak256(0x00, 0x20)\n      add\n      0x00\n      swap1\n      swap2\n      swap1\n      swap2\n      swap1\n      swap2\n      0x0100\n      exp\n      dup2\n      sload\n      dup2\n      0xffffffffffffffffffffffffffffffffffffffff\n      mul\n      not\n      and\n      swap1\n      dup4\n      0xffffffffffffffffffffffffffffffffffffffff\n      and\n      mul\n      or\n      swap1\n      sstore\n      pop\n        /* \"contracts/DataPunk/DataPunk.sol\":6956:6960  true */\n      0x01\n        /* \"contracts/DataPunk/DataPunk.sol\":6934:6941  dataset */\n      dup3\n        /* \"contracts/DataPunk/DataPunk.sol\":6934:6953  dataset.isValidated */\n      0x04\n      add\n      0x00\n        /* \"contracts/DataPunk/DataPunk.sol\":6934:6960  dataset.isValidated = true */\n      0x0100\n      exp\n      dup2\n      sload\n      dup2\n      0xff\n      mul\n      not\n      and\n      swap1\n      dup4\n      iszero\n      iszero\n      mul\n      or\n      swap1\n      sstore\n      pop\n        /* \"contracts/DataPunk/DataPunk.sol\":7217:7227  msg.sender */\n      caller\n        /* \"contracts/DataPunk/DataPunk.sol\":7189:7254  DatasetValidated(datasetId, msg.sender, dataset.validationReward) */\n      0xffffffffffffffffffffffffffffffffffffffff\n      and\n        /* \"contracts/DataPunk/DataPunk.sol\":7206:7215  datasetId */\n      dup4\n        /* \"contracts/DataPunk/DataPunk.sol\":7189:7254  DatasetValidated(datasetId, msg.sender, dataset.validationReward) */\n      0x1dc73a35285fda24d55673e615930ad58eab11f47d6838526ffbd7d2c1847af4\n        /* \"contracts/DataPunk/DataPunk.sol\":7229:7236  dataset */\n      dup5\n        /* \"contracts/DataPunk/DataPunk.sol\":7229:7253  dataset.validationReward */\n      0x02\n      add\n      sload\n        /* \"contracts/DataPunk/DataPunk.sol\":7189:7254  DatasetValidated(datasetId, msg.sender, dataset.validationReward) */\n      mload(0x40)\n      tag_168\n      swap2\n      swap1\n      tag_38\n      jump\t// in\n    tag_168:\n      mload(0x40)\n      dup1\n      swap2\n      sub\n      swap1\n      log3\n        /* \"contracts/DataPunk/DataPunk.sol\":6054:7261  {... */\n      pop\n      pop\n        /* \"contracts/DataPunk/DataPunk.sol\":6003:7261  function validateDataset(uint256 datasetId) public {... */\n      pop\n      jump\t// out\n        /* \"contracts/DataPunk/DataPunk.sol\":295:328  address public dpkContractAddress */\n    tag_74:\n      0x01\n      0x00\n      swap1\n      sload\n      swap1\n      0x0100\n      exp\n      swap1\n      div\n      0xffffffffffffffffffffffffffffffffffffffff\n      and\n      dup2\n      jump\t// out\n        /* \"contracts/DataPunk/DataPunk.sol\":1883:2390  function deployDataPunkCoin() public onlyOwner {... */\n    tag_77:\n        /* \"contracts/DataPunk/DataPunk.sol\":1736:1746  msg.sender */\n      caller\n        /* \"contracts/DataPunk/DataPunk.sol\":1725:1746  owner() == msg.sender */\n      0xffffffffffffffffffffffffffffffffffffffff\n      and\n        /* \"contracts/DataPunk/DataPunk.sol\":1725:1732  owner() */\n      tag_170\n        /* \"contracts/DataPunk/DataPunk.sol\":1725:1730  owner */\n      tag_64\n        /* \"contracts/DataPunk/DataPunk.sol\":1725:1732  owner() */\n      jump\t// in\n    tag_170:\n        /* \"contracts/DataPunk/DataPunk.sol\":1725:1746  owner() == msg.sender */\n      0xffffffffffffffffffffffffffffffffffffffff\n      and\n      eq\n        /* \"contracts/DataPunk/DataPunk.sol\":1717:1783  require(owner() == msg.sender, \"Ownable: caller is not the owner\") */\n      tag_171\n      jumpi\n      mload(0x40)\n      0x08c379a000000000000000000000000000000000000000000000000000000000\n      dup2\n      mstore\n      0x04\n      add\n      tag_172\n      swap1\n      tag_173\n      jump\t// in\n    tag_172:\n      mload(0x40)\n      dup1\n      swap2\n      sub\n      swap1\n      revert\n    tag_171:\n        /* \"contracts/DataPunk/DataPunk.sol\":1949:1971  isDataPunkCoinDeployed */\n      0x01\n      0x14\n      swap1\n      sload\n      swap1\n      0x0100\n      exp\n      swap1\n      div\n      0xff\n      and\n        /* \"contracts/DataPunk/DataPunk.sol\":1948:1971  !isDataPunkCoinDeployed */\n      iszero\n        /* \"contracts/DataPunk/DataPunk.sol\":1940:2014  require(!isDataPunkCoinDeployed, \"DataPunkCoin has already been deployed\") */\n      tag_175\n      jumpi\n      mload(0x40)\n      0x08c379a000000000000000000000000000000000000000000000000000000000\n      dup2\n      mstore\n      0x04\n      add\n      tag_176\n      swap1\n      tag_177\n      jump\t// in\n    tag_176:\n      mload(0x40)\n      dup1\n      swap2\n      sub\n      swap1\n      revert\n    tag_175:\n        /* \"contracts/DataPunk/DataPunk.sol\":2063:2087  DataPunkCoin dpcContract */\n      0x00\n        /* \"contracts/DataPunk/DataPunk.sol\":2090:2108  new DataPunkCoin() */\n      mload(0x40)\n      tag_178\n      swap1\n      tag_179\n      jump\t// in\n    tag_178:\n      mload(0x40)\n      dup1\n      swap2\n      sub\n      swap1\n      0x00\n      create\n      dup1\n      iszero\n      dup1\n      iszero\n      tag_180\n      jumpi\n      returndatasize\n      0x00\n      dup1\n      returndatacopy\n      revert(0x00, returndatasize)\n    tag_180:\n      pop\n        /* \"contracts/DataPunk/DataPunk.sol\":2063:2108  DataPunkCoin dpcContract = new DataPunkCoin() */\n      swap1\n      pop\n        /* \"contracts/DataPunk/DataPunk.sol\":2148:2159  dpcContract */\n      dup1\n        /* \"contracts/DataPunk/DataPunk.sol\":2119:2137  dpkContractAddress */\n      0x01\n      0x00\n        /* \"contracts/DataPunk/DataPunk.sol\":2119:2160  dpkContractAddress = address(dpcContract) */\n      0x0100\n      exp\n      dup2\n      sload\n      dup2\n      0xffffffffffffffffffffffffffffffffffffffff\n      mul\n      not\n      and\n      swap1\n      dup4\n      0xffffffffffffffffffffffffffffffffffffffff\n      and\n      mul\n      or\n      swap1\n      sstore\n      pop\n        /* \"contracts/DataPunk/DataPunk.sol\":2283:2287  true */\n      0x01\n        /* \"contracts/DataPunk/DataPunk.sol\":2258:2280  isDataPunkCoinDeployed */\n      dup1\n      0x14\n        /* \"contracts/DataPunk/DataPunk.sol\":2258:2287  isDataPunkCoinDeployed = true */\n      0x0100\n      exp\n      dup2\n      sload\n      dup2\n      0xff\n      mul\n      not\n      and\n      swap1\n      dup4\n      iszero\n      iszero\n      mul\n      or\n      swap1\n      sstore\n      pop\n        /* \"contracts/DataPunk/DataPunk.sol\":2343:2383  DataPunkCoinDeployed(dpkContractAddress) */\n      0x5a328b2a6ca99d3f214e0a041dcd254e948aa9a2e1b8b97233531b6a1d1872c9\n        /* \"contracts/DataPunk/DataPunk.sol\":2364:2382  dpkContractAddress */\n      0x01\n      0x00\n      swap1\n      sload\n      swap1\n      0x0100\n      exp\n      swap1\n      div\n      0xffffffffffffffffffffffffffffffffffffffff\n      and\n        /* \"contracts/DataPunk/DataPunk.sol\":2343:2383  DataPunkCoinDeployed(dpkContractAddress) */\n      mload(0x40)\n      tag_181\n      swap2\n      swap1\n      tag_55\n      jump\t// in\n    tag_181:\n      mload(0x40)\n      dup1\n      swap2\n      sub\n      swap1\n      log1\n        /* \"contracts/DataPunk/DataPunk.sol\":1930:2390  {... */\n      pop\n        /* \"contracts/DataPunk/DataPunk.sol\":1883:2390  function deployDataPunkCoin() public onlyOwner {... */\n      jump\t// out\n        /* \"contracts/DataPunk/DataPunk.sol\":603:667  mapping(address => mapping(address => uint256)) public allowance */\n    tag_81:\n      mstore(0x20, 0x05)\n      dup2\n      0x00\n      mstore\n      mstore(0x20, keccak256(0x00, 0x40))\n      dup1\n      0x00\n      mstore\n      keccak256(0x00, 0x40)\n      0x00\n      swap2\n      pop\n      swap2\n      pop\n      pop\n      sload\n      dup2\n      jump\t// out\n        /* \"contracts/DataPunk/DataPunk.sol\":3598:3701  function getDPCSupply() public view returns (uint256) {... */\n    tag_84:\n        /* \"contracts/DataPunk/DataPunk.sol\":3643:3650  uint256 */\n      0x00\n        /* \"contracts/DataPunk/DataPunk.sol\":3598:3701  function getDPCSupply() public view returns (uint256) {... */\n      swap1\n      jump\t// out\n        /* \"contracts/DataPunk/DataPunk.sol\":5840:5974  function registerAsValidator() public {... */\n    tag_87:\n        /* \"contracts/DataPunk/DataPunk.sol\":5888:5904  publicValidators */\n      0x03\n        /* \"contracts/DataPunk/DataPunk.sol\":5910:5920  msg.sender */\n      caller\n        /* \"contracts/DataPunk/DataPunk.sol\":5888:5921  publicValidators.push(msg.sender) */\n      swap1\n      dup1\n      0x01\n      dup2\n      sload\n      add\n      dup1\n      dup3\n      sstore\n      dup1\n      swap2\n      pop\n      pop\n      0x01\n      swap1\n      sub\n      swap1\n      0x00\n      mstore\n      keccak256(0x00, 0x20)\n      add\n      0x00\n      swap1\n      swap2\n      swap1\n      swap2\n      swap1\n      swap2\n      0x0100\n      exp\n      dup2\n      sload\n      dup2\n      0xffffffffffffffffffffffffffffffffffffffff\n      mul\n      not\n      and\n      swap1\n      dup4\n      0xffffffffffffffffffffffffffffffffffffffff\n      and\n      mul\n      or\n      swap1\n      sstore\n      pop\n        /* \"contracts/DataPunk/DataPunk.sol\":5956:5966  msg.sender */\n      caller\n        /* \"contracts/DataPunk/DataPunk.sol\":5936:5967  ValidatorRegistered(msg.sender) */\n      0xffffffffffffffffffffffffffffffffffffffff\n      and\n      0xd09501348473474a20c772c79c653e1fd7e8b437e418fe235d277d2c88853251\n      mload(0x40)\n      mload(0x40)\n      dup1\n      swap2\n      sub\n      swap1\n      log2\n        /* \"contracts/DataPunk/DataPunk.sol\":5840:5974  function registerAsValidator() public {... */\n      jump\t// out\n        /* \"contracts/DataPunk/DataPunk.sol\":2434:2541  function getAllValidators() public view returns (address[] memory) {... */\n    tag_89:\n        /* \"contracts/DataPunk/DataPunk.sol\":2483:2499  address[] memory */\n      0x60\n        /* \"contracts/DataPunk/DataPunk.sol\":2518:2534  publicValidators */\n      0x03\n        /* \"contracts/DataPunk/DataPunk.sol\":2511:2534  return publicValidators */\n      dup1\n      sload\n      dup1\n      0x20\n      mul\n      0x20\n      add\n      mload(0x40)\n      swap1\n      dup2\n      add\n      0x40\n      mstore\n      dup1\n      swap3\n      swap2\n      swap1\n      dup2\n      dup2\n      mstore\n      0x20\n      add\n      dup3\n      dup1\n      sload\n      dup1\n      iszero\n      tag_186\n      jumpi\n      0x20\n      mul\n      dup3\n      add\n      swap2\n      swap1\n      0x00\n      mstore\n      keccak256(0x00, 0x20)\n      swap1\n    tag_187:\n      dup2\n      0x00\n      swap1\n      sload\n      swap1\n      0x0100\n      exp\n      swap1\n      div\n      0xffffffffffffffffffffffffffffffffffffffff\n      and\n      0xffffffffffffffffffffffffffffffffffffffff\n      and\n      dup2\n      mstore\n      0x20\n      add\n      swap1\n      0x01\n      add\n      swap1\n      dup1\n      dup4\n      gt\n      tag_187\n      jumpi\n    tag_186:\n      pop\n      pop\n      pop\n      pop\n      pop\n      swap1\n      pop\n        /* \"contracts/DataPunk/DataPunk.sol\":2434:2541  function getAllValidators() public view returns (address[] memory) {... */\n      swap1\n      jump\t// out\n    tag_97:\n      dup3\n      dup1\n      sload\n      dup3\n      dup3\n      sstore\n      swap1\n      0x00\n      mstore\n      keccak256(0x00, 0x20)\n      swap1\n      dup2\n      add\n      swap3\n      dup3\n      iszero\n      tag_188\n      jumpi\n      swap2\n      0x20\n      mul\n      dup3\n      add\n    tag_189:\n      dup3\n      dup2\n      gt\n      iszero\n      tag_190\n      jumpi\n      dup3\n      mload\n      dup3\n      exp(0x0100, 0x00)\n      dup2\n      sload\n      dup2\n      0xffffffffffffffffffffffffffffffffffffffff\n      mul\n      not\n      and\n      swap1\n      dup4\n      0xffffffffffffffffffffffffffffffffffffffff\n      and\n      mul\n      or\n      swap1\n      sstore\n      pop\n      swap2\n      0x20\n      add\n      swap2\n      swap1\n      0x01\n      add\n      swap1\n      jump(tag_189)\n    tag_190:\n    tag_188:\n      pop\n      swap1\n      pop\n      tag_191\n      swap2\n      swap1\n      tag_192\n      jump\t// in\n    tag_191:\n      pop\n      swap1\n      jump\t// out\n    tag_179:\n      dataSize(sub_0)\n      dup1\n      dataOffset(sub_0)\n      dup4\n      codecopy\n      add\n      swap1\n      jump\t// out\n    tag_192:\n    tag_193:\n      dup1\n      dup3\n      gt\n      iszero\n      tag_194\n      jumpi\n      0x00\n      dup2\n      0x00\n      swap1\n      sstore\n      pop\n      0x01\n      add\n      jump(tag_193)\n    tag_194:\n      pop\n      swap1\n      jump\t// out\n        /* \"#utility.yul\":88:205   */\n    tag_196:\n        /* \"#utility.yul\":197:198   */\n      0x00\n        /* \"#utility.yul\":194:195   */\n      dup1\n        /* \"#utility.yul\":187:199   */\n      revert\n        /* \"#utility.yul\":334:411   */\n    tag_198:\n        /* \"#utility.yul\":371:378   */\n      0x00\n        /* \"#utility.yul\":400:405   */\n      dup2\n        /* \"#utility.yul\":389:405   */\n      swap1\n      pop\n        /* \"#utility.yul\":334:411   */\n      swap2\n      swap1\n      pop\n      jump\t// out\n        /* \"#utility.yul\":417:539   */\n    tag_199:\n        /* \"#utility.yul\":490:514   */\n      tag_250\n        /* \"#utility.yul\":508:513   */\n      dup2\n        /* \"#utility.yul\":490:514   */\n      tag_198\n      jump\t// in\n    tag_250:\n        /* \"#utility.yul\":483:488   */\n      dup2\n        /* \"#utility.yul\":480:515   */\n      eq\n        /* \"#utility.yul\":470:533   */\n      tag_251\n      jumpi\n        /* \"#utility.yul\":529:530   */\n      0x00\n        /* \"#utility.yul\":526:527   */\n      dup1\n        /* \"#utility.yul\":519:531   */\n      revert\n        /* \"#utility.yul\":470:533   */\n    tag_251:\n        /* \"#utility.yul\":417:539   */\n      pop\n      jump\t// out\n        /* \"#utility.yul\":545:684   */\n    tag_200:\n        /* \"#utility.yul\":591:596   */\n      0x00\n        /* \"#utility.yul\":629:635   */\n      dup2\n        /* \"#utility.yul\":616:636   */\n      calldataload\n        /* \"#utility.yul\":607:636   */\n      swap1\n      pop\n        /* \"#utility.yul\":645:678   */\n      tag_253\n        /* \"#utility.yul\":672:677   */\n      dup2\n        /* \"#utility.yul\":645:678   */\n      tag_199\n      jump\t// in\n    tag_253:\n        /* \"#utility.yul\":545:684   */\n      swap3\n      swap2\n      pop\n      pop\n      jump\t// out\n        /* \"#utility.yul\":690:1019   */\n    tag_26:\n        /* \"#utility.yul\":749:755   */\n      0x00\n        /* \"#utility.yul\":798:800   */\n      0x20\n        /* \"#utility.yul\":786:795   */\n      dup3\n        /* \"#utility.yul\":777:784   */\n      dup5\n        /* \"#utility.yul\":773:796   */\n      sub\n        /* \"#utility.yul\":769:801   */\n      slt\n        /* \"#utility.yul\":766:885   */\n      iszero\n      tag_255\n      jumpi\n        /* \"#utility.yul\":804:883   */\n      tag_256\n      tag_196\n      jump\t// in\n    tag_256:\n        /* \"#utility.yul\":766:885   */\n    tag_255:\n        /* \"#utility.yul\":924:925   */\n      0x00\n        /* \"#utility.yul\":949:1002   */\n      tag_257\n        /* \"#utility.yul\":994:1001   */\n      dup5\n        /* \"#utility.yul\":985:991   */\n      dup3\n        /* \"#utility.yul\":974:983   */\n      dup6\n        /* \"#utility.yul\":970:992   */\n      add\n        /* \"#utility.yul\":949:1002   */\n      tag_200\n      jump\t// in\n    tag_257:\n        /* \"#utility.yul\":939:1002   */\n      swap2\n      pop\n        /* \"#utility.yul\":895:1012   */\n      pop\n        /* \"#utility.yul\":690:1019   */\n      swap3\n      swap2\n      pop\n      pop\n      jump\t// out\n        /* \"#utility.yul\":1025:1151   */\n    tag_201:\n        /* \"#utility.yul\":1062:1069   */\n      0x00\n        /* \"#utility.yul\":1102:1144   */\n      0xffffffffffffffffffffffffffffffffffffffff\n        /* \"#utility.yul\":1095:1100   */\n      dup3\n        /* \"#utility.yul\":1091:1145   */\n      and\n        /* \"#utility.yul\":1080:1145   */\n      swap1\n      pop\n        /* \"#utility.yul\":1025:1151   */\n      swap2\n      swap1\n      pop\n      jump\t// out\n        /* \"#utility.yul\":1157:1253   */\n    tag_202:\n        /* \"#utility.yul\":1194:1201   */\n      0x00\n        /* \"#utility.yul\":1223:1247   */\n      tag_260\n        /* \"#utility.yul\":1241:1246   */\n      dup3\n        /* \"#utility.yul\":1223:1247   */\n      tag_201\n      jump\t// in\n    tag_260:\n        /* \"#utility.yul\":1212:1247   */\n      swap1\n      pop\n        /* \"#utility.yul\":1157:1253   */\n      swap2\n      swap1\n      pop\n      jump\t// out\n        /* \"#utility.yul\":1259:1377   */\n    tag_203:\n        /* \"#utility.yul\":1346:1370   */\n      tag_262\n        /* \"#utility.yul\":1364:1369   */\n      dup2\n        /* \"#utility.yul\":1346:1370   */\n      tag_202\n      jump\t// in\n    tag_262:\n        /* \"#utility.yul\":1341:1344   */\n      dup3\n        /* \"#utility.yul\":1334:1371   */\n      mstore\n        /* \"#utility.yul\":1259:1377   */\n      pop\n      pop\n      jump\t// out\n        /* \"#utility.yul\":1383:1501   */\n    tag_204:\n        /* \"#utility.yul\":1470:1494   */\n      tag_264\n        /* \"#utility.yul\":1488:1493   */\n      dup2\n        /* \"#utility.yul\":1470:1494   */\n      tag_198\n      jump\t// in\n    tag_264:\n        /* \"#utility.yul\":1465:1468   */\n      dup3\n        /* \"#utility.yul\":1458:1495   */\n      mstore\n        /* \"#utility.yul\":1383:1501   */\n      pop\n      pop\n      jump\t// out\n        /* \"#utility.yul\":1507:1597   */\n    tag_205:\n        /* \"#utility.yul\":1541:1548   */\n      0x00\n        /* \"#utility.yul\":1584:1589   */\n      dup2\n        /* \"#utility.yul\":1577:1590   */\n      iszero\n        /* \"#utility.yul\":1570:1591   */\n      iszero\n        /* \"#utility.yul\":1559:1591   */\n      swap1\n      pop\n        /* \"#utility.yul\":1507:1597   */\n      swap2\n      swap1\n      pop\n      jump\t// out\n        /* \"#utility.yul\":1603:1712   */\n    tag_206:\n        /* \"#utility.yul\":1684:1705   */\n      tag_267\n        /* \"#utility.yul\":1699:1704   */\n      dup2\n        /* \"#utility.yul\":1684:1705   */\n      tag_205\n      jump\t// in\n    tag_267:\n        /* \"#utility.yul\":1679:1682   */\n      dup3\n        /* \"#utility.yul\":1672:1706   */\n      mstore\n        /* \"#utility.yul\":1603:1712   */\n      pop\n      pop\n      jump\t// out\n        /* \"#utility.yul\":1718:2259   */\n    tag_29:\n        /* \"#utility.yul\":1889:1893   */\n      0x00\n        /* \"#utility.yul\":1927:1930   */\n      0x80\n        /* \"#utility.yul\":1916:1925   */\n      dup3\n        /* \"#utility.yul\":1912:1931   */\n      add\n        /* \"#utility.yul\":1904:1931   */\n      swap1\n      pop\n        /* \"#utility.yul\":1941:2012   */\n      tag_269\n        /* \"#utility.yul\":2009:2010   */\n      0x00\n        /* \"#utility.yul\":1998:2007   */\n      dup4\n        /* \"#utility.yul\":1994:2011   */\n      add\n        /* \"#utility.yul\":1985:1991   */\n      dup8\n        /* \"#utility.yul\":1941:2012   */\n      tag_203\n      jump\t// in\n    tag_269:\n        /* \"#utility.yul\":2022:2094   */\n      tag_270\n        /* \"#utility.yul\":2090:2092   */\n      0x20\n        /* \"#utility.yul\":2079:2088   */\n      dup4\n        /* \"#utility.yul\":2075:2093   */\n      add\n        /* \"#utility.yul\":2066:2072   */\n      dup7\n        /* \"#utility.yul\":2022:2094   */\n      tag_204\n      jump\t// in\n    tag_270:\n        /* \"#utility.yul\":2104:2176   */\n      tag_271\n        /* \"#utility.yul\":2172:2174   */\n      0x40\n        /* \"#utility.yul\":2161:2170   */\n      dup4\n        /* \"#utility.yul\":2157:2175   */\n      add\n        /* \"#utility.yul\":2148:2154   */\n      dup6\n        /* \"#utility.yul\":2104:2176   */\n      tag_204\n      jump\t// in\n    tag_271:\n        /* \"#utility.yul\":2186:2252   */\n      tag_272\n        /* \"#utility.yul\":2248:2250   */\n      0x60\n        /* \"#utility.yul\":2237:2246   */\n      dup4\n        /* \"#utility.yul\":2233:2251   */\n      add\n        /* \"#utility.yul\":2224:2230   */\n      dup5\n        /* \"#utility.yul\":2186:2252   */\n      tag_206\n      jump\t// in\n    tag_272:\n        /* \"#utility.yul\":1718:2259   */\n      swap6\n      swap5\n      pop\n      pop\n      pop\n      pop\n      pop\n      jump\t// out\n        /* \"#utility.yul\":2265:2739   */\n    tag_32:\n        /* \"#utility.yul\":2333:2339   */\n      0x00\n        /* \"#utility.yul\":2341:2347   */\n      dup1\n        /* \"#utility.yul\":2390:2392   */\n      0x40\n        /* \"#utility.yul\":2378:2387   */\n      dup4\n        /* \"#utility.yul\":2369:2376   */\n      dup6\n        /* \"#utility.yul\":2365:2388   */\n      sub\n        /* \"#utility.yul\":2361:2393   */\n      slt\n        /* \"#utility.yul\":2358:2477   */\n      iszero\n      tag_274\n      jumpi\n        /* \"#utility.yul\":2396:2475   */\n      tag_275\n      tag_196\n      jump\t// in\n    tag_275:\n        /* \"#utility.yul\":2358:2477   */\n    tag_274:\n        /* \"#utility.yul\":2516:2517   */\n      0x00\n        /* \"#utility.yul\":2541:2594   */\n      tag_276\n        /* \"#utility.yul\":2586:2593   */\n      dup6\n        /* \"#utility.yul\":2577:2583   */\n      dup3\n        /* \"#utility.yul\":2566:2575   */\n      dup7\n        /* \"#utility.yul\":2562:2584   */\n      add\n        /* \"#utility.yul\":2541:2594   */\n      tag_200\n      jump\t// in\n    tag_276:\n        /* \"#utility.yul\":2531:2594   */\n      swap3\n      pop\n        /* \"#utility.yul\":2487:2604   */\n      pop\n        /* \"#utility.yul\":2643:2645   */\n      0x20\n        /* \"#utility.yul\":2669:2722   */\n      tag_277\n        /* \"#utility.yul\":2714:2721   */\n      dup6\n        /* \"#utility.yul\":2705:2711   */\n      dup3\n        /* \"#utility.yul\":2694:2703   */\n      dup7\n        /* \"#utility.yul\":2690:2712   */\n      add\n        /* \"#utility.yul\":2669:2722   */\n      tag_200\n      jump\t// in\n    tag_277:\n        /* \"#utility.yul\":2659:2722   */\n      swap2\n      pop\n        /* \"#utility.yul\":2614:2732   */\n      pop\n        /* \"#utility.yul\":2265:2739   */\n      swap3\n      pop\n      swap3\n      swap1\n      pop\n      jump\t// out\n        /* \"#utility.yul\":2745:2967   */\n    tag_38:\n        /* \"#utility.yul\":2838:2842   */\n      0x00\n        /* \"#utility.yul\":2876:2878   */\n      0x20\n        /* \"#utility.yul\":2865:2874   */\n      dup3\n        /* \"#utility.yul\":2861:2879   */\n      add\n        /* \"#utility.yul\":2853:2879   */\n      swap1\n      pop\n        /* \"#utility.yul\":2889:2960   */\n      tag_279\n        /* \"#utility.yul\":2957:2958   */\n      0x00\n        /* \"#utility.yul\":2946:2955   */\n      dup4\n        /* \"#utility.yul\":2942:2959   */\n      add\n        /* \"#utility.yul\":2933:2939   */\n      dup5\n        /* \"#utility.yul\":2889:2960   */\n      tag_204\n      jump\t// in\n    tag_279:\n        /* \"#utility.yul\":2745:2967   */\n      swap3\n      swap2\n      pop\n      pop\n      jump\t// out\n        /* \"#utility.yul\":2973:3087   */\n    tag_207:\n        /* \"#utility.yul\":3040:3046   */\n      0x00\n        /* \"#utility.yul\":3074:3079   */\n      dup2\n        /* \"#utility.yul\":3068:3080   */\n      mload\n        /* \"#utility.yul\":3058:3080   */\n      swap1\n      pop\n        /* \"#utility.yul\":2973:3087   */\n      swap2\n      swap1\n      pop\n      jump\t// out\n        /* \"#utility.yul\":3093:3277   */\n    tag_208:\n        /* \"#utility.yul\":3192:3203   */\n      0x00\n        /* \"#utility.yul\":3226:3232   */\n      dup3\n        /* \"#utility.yul\":3221:3224   */\n      dup3\n        /* \"#utility.yul\":3214:3233   */\n      mstore\n        /* \"#utility.yul\":3266:3270   */\n      0x20\n        /* \"#utility.yul\":3261:3264   */\n      dup3\n        /* \"#utility.yul\":3257:3271   */\n      add\n        /* \"#utility.yul\":3242:3271   */\n      swap1\n      pop\n        /* \"#utility.yul\":3093:3277   */\n      swap3\n      swap2\n      pop\n      pop\n      jump\t// out\n        /* \"#utility.yul\":3283:3415   */\n    tag_209:\n        /* \"#utility.yul\":3350:3354   */\n      0x00\n        /* \"#utility.yul\":3373:3376   */\n      dup2\n        /* \"#utility.yul\":3365:3376   */\n      swap1\n      pop\n        /* \"#utility.yul\":3403:3407   */\n      0x20\n        /* \"#utility.yul\":3398:3401   */\n      dup3\n        /* \"#utility.yul\":3394:3408   */\n      add\n        /* \"#utility.yul\":3386:3408   */\n      swap1\n      pop\n        /* \"#utility.yul\":3283:3415   */\n      swap2\n      swap1\n      pop\n      jump\t// out\n        /* \"#utility.yul\":3421:3529   */\n    tag_210:\n        /* \"#utility.yul\":3498:3522   */\n      tag_284\n        /* \"#utility.yul\":3516:3521   */\n      dup2\n        /* \"#utility.yul\":3498:3522   */\n      tag_202\n      jump\t// in\n    tag_284:\n        /* \"#utility.yul\":3493:3496   */\n      dup3\n        /* \"#utility.yul\":3486:3523   */\n      mstore\n        /* \"#utility.yul\":3421:3529   */\n      pop\n      pop\n      jump\t// out\n        /* \"#utility.yul\":3535:3714   */\n    tag_211:\n        /* \"#utility.yul\":3604:3614   */\n      0x00\n        /* \"#utility.yul\":3625:3671   */\n      tag_286\n        /* \"#utility.yul\":3667:3670   */\n      dup4\n        /* \"#utility.yul\":3659:3665   */\n      dup4\n        /* \"#utility.yul\":3625:3671   */\n      tag_210\n      jump\t// in\n    tag_286:\n        /* \"#utility.yul\":3703:3707   */\n      0x20\n        /* \"#utility.yul\":3698:3701   */\n      dup4\n        /* \"#utility.yul\":3694:3708   */\n      add\n        /* \"#utility.yul\":3680:3708   */\n      swap1\n      pop\n        /* \"#utility.yul\":3535:3714   */\n      swap3\n      swap2\n      pop\n      pop\n      jump\t// out\n        /* \"#utility.yul\":3720:3833   */\n    tag_212:\n        /* \"#utility.yul\":3790:3794   */\n      0x00\n        /* \"#utility.yul\":3822:3826   */\n      0x20\n        /* \"#utility.yul\":3817:3820   */\n      dup3\n        /* \"#utility.yul\":3813:3827   */\n      add\n        /* \"#utility.yul\":3805:3827   */\n      swap1\n      pop\n        /* \"#utility.yul\":3720:3833   */\n      swap2\n      swap1\n      pop\n      jump\t// out\n        /* \"#utility.yul\":3869:4601   */\n    tag_213:\n        /* \"#utility.yul\":3988:3991   */\n      0x00\n        /* \"#utility.yul\":4017:4071   */\n      tag_289\n        /* \"#utility.yul\":4065:4070   */\n      dup3\n        /* \"#utility.yul\":4017:4071   */\n      tag_207\n      jump\t// in\n    tag_289:\n        /* \"#utility.yul\":4087:4173   */\n      tag_290\n        /* \"#utility.yul\":4166:4172   */\n      dup2\n        /* \"#utility.yul\":4161:4164   */\n      dup6\n        /* \"#utility.yul\":4087:4173   */\n      tag_208\n      jump\t// in\n    tag_290:\n        /* \"#utility.yul\":4080:4173   */\n      swap4\n      pop\n        /* \"#utility.yul\":4197:4253   */\n      tag_291\n        /* \"#utility.yul\":4247:4252   */\n      dup4\n        /* \"#utility.yul\":4197:4253   */\n      tag_209\n      jump\t// in\n    tag_291:\n        /* \"#utility.yul\":4276:4283   */\n      dup1\n        /* \"#utility.yul\":4307:4308   */\n      0x00\n        /* \"#utility.yul\":4292:4576   */\n    tag_292:\n        /* \"#utility.yul\":4317:4323   */\n      dup4\n        /* \"#utility.yul\":4314:4315   */\n      dup2\n        /* \"#utility.yul\":4311:4324   */\n      lt\n        /* \"#utility.yul\":4292:4576   */\n      iszero\n      tag_294\n      jumpi\n        /* \"#utility.yul\":4393:4399   */\n      dup2\n        /* \"#utility.yul\":4387:4400   */\n      mload\n        /* \"#utility.yul\":4420:4483   */\n      tag_295\n        /* \"#utility.yul\":4479:4482   */\n      dup9\n        /* \"#utility.yul\":4464:4477   */\n      dup3\n        /* \"#utility.yul\":4420:4483   */\n      tag_211\n      jump\t// in\n    tag_295:\n        /* \"#utility.yul\":4413:4483   */\n      swap8\n      pop\n        /* \"#utility.yul\":4506:4566   */\n      tag_296\n        /* \"#utility.yul\":4559:4565   */\n      dup4\n        /* \"#utility.yul\":4506:4566   */\n      tag_212\n      jump\t// in\n    tag_296:\n        /* \"#utility.yul\":4496:4566   */\n      swap3\n      pop\n        /* \"#utility.yul\":4352:4576   */\n      pop\n        /* \"#utility.yul\":4339:4340   */\n      0x01\n        /* \"#utility.yul\":4336:4337   */\n      dup2\n        /* \"#utility.yul\":4332:4341   */\n      add\n        /* \"#utility.yul\":4327:4341   */\n      swap1\n      pop\n        /* \"#utility.yul\":4292:4576   */\n      jump(tag_292)\n    tag_294:\n        /* \"#utility.yul\":4296:4310   */\n      pop\n        /* \"#utility.yul\":4592:4595   */\n      dup6\n        /* \"#utility.yul\":4585:4595   */\n      swap4\n      pop\n        /* \"#utility.yul\":3993:4601   */\n      pop\n      pop\n      pop\n        /* \"#utility.yul\":3869:4601   */\n      swap3\n      swap2\n      pop\n      pop\n      jump\t// out\n        /* \"#utility.yul\":4607:4721   */\n    tag_214:\n        /* \"#utility.yul\":4674:4680   */\n      0x00\n        /* \"#utility.yul\":4708:4713   */\n      dup2\n        /* \"#utility.yul\":4702:4714   */\n      mload\n        /* \"#utility.yul\":4692:4714   */\n      swap1\n      pop\n        /* \"#utility.yul\":4607:4721   */\n      swap2\n      swap1\n      pop\n      jump\t// out\n        /* \"#utility.yul\":4727:4911   */\n    tag_215:\n        /* \"#utility.yul\":4826:4837   */\n      0x00\n        /* \"#utility.yul\":4860:4866   */\n      dup3\n        /* \"#utility.yul\":4855:4858   */\n      dup3\n        /* \"#utility.yul\":4848:4867   */\n      mstore\n        /* \"#utility.yul\":4900:4904   */\n      0x20\n        /* \"#utility.yul\":4895:4898   */\n      dup3\n        /* \"#utility.yul\":4891:4905   */\n      add\n        /* \"#utility.yul\":4876:4905   */\n      swap1\n      pop\n        /* \"#utility.yul\":4727:4911   */\n      swap3\n      swap2\n      pop\n      pop\n      jump\t// out\n        /* \"#utility.yul\":4917:5049   */\n    tag_216:\n        /* \"#utility.yul\":4984:4988   */\n      0x00\n        /* \"#utility.yul\":5007:5010   */\n      dup2\n        /* \"#utility.yul\":4999:5010   */\n      swap1\n      pop\n        /* \"#utility.yul\":5037:5041   */\n      0x20\n        /* \"#utility.yul\":5032:5035   */\n      dup3\n        /* \"#utility.yul\":5028:5042   */\n      add\n        /* \"#utility.yul\":5020:5042   */\n      swap1\n      pop\n        /* \"#utility.yul\":4917:5049   */\n      swap2\n      swap1\n      pop\n      jump\t// out\n        /* \"#utility.yul\":5055:5163   */\n    tag_217:\n        /* \"#utility.yul\":5132:5156   */\n      tag_301\n        /* \"#utility.yul\":5150:5155   */\n      dup2\n        /* \"#utility.yul\":5132:5156   */\n      tag_198\n      jump\t// in\n    tag_301:\n        /* \"#utility.yul\":5127:5130   */\n      dup3\n        /* \"#utility.yul\":5120:5157   */\n      mstore\n        /* \"#utility.yul\":5055:5163   */\n      pop\n      pop\n      jump\t// out\n        /* \"#utility.yul\":5169:5348   */\n    tag_218:\n        /* \"#utility.yul\":5238:5248   */\n      0x00\n        /* \"#utility.yul\":5259:5305   */\n      tag_303\n        /* \"#utility.yul\":5301:5304   */\n      dup4\n        /* \"#utility.yul\":5293:5299   */\n      dup4\n        /* \"#utility.yul\":5259:5305   */\n      tag_217\n      jump\t// in\n    tag_303:\n        /* \"#utility.yul\":5337:5341   */\n      0x20\n        /* \"#utility.yul\":5332:5335   */\n      dup4\n        /* \"#utility.yul\":5328:5342   */\n      add\n        /* \"#utility.yul\":5314:5342   */\n      swap1\n      pop\n        /* \"#utility.yul\":5169:5348   */\n      swap3\n      swap2\n      pop\n      pop\n      jump\t// out\n        /* \"#utility.yul\":5354:5467   */\n    tag_219:\n        /* \"#utility.yul\":5424:5428   */\n      0x00\n        /* \"#utility.yul\":5456:5460   */\n      0x20\n        /* \"#utility.yul\":5451:5454   */\n      dup3\n        /* \"#utility.yul\":5447:5461   */\n      add\n        /* \"#utility.yul\":5439:5461   */\n      swap1\n      pop\n        /* \"#utility.yul\":5354:5467   */\n      swap2\n      swap1\n      pop\n      jump\t// out\n        /* \"#utility.yul\":5503:6235   */\n    tag_220:\n        /* \"#utility.yul\":5622:5625   */\n      0x00\n        /* \"#utility.yul\":5651:5705   */\n      tag_306\n        /* \"#utility.yul\":5699:5704   */\n      dup3\n        /* \"#utility.yul\":5651:5705   */\n      tag_214\n      jump\t// in\n    tag_306:\n        /* \"#utility.yul\":5721:5807   */\n      tag_307\n        /* \"#utility.yul\":5800:5806   */\n      dup2\n        /* \"#utility.yul\":5795:5798   */\n      dup6\n        /* \"#utility.yul\":5721:5807   */\n      tag_215\n      jump\t// in\n    tag_307:\n        /* \"#utility.yul\":5714:5807   */\n      swap4\n      pop\n        /* \"#utility.yul\":5831:5887   */\n      tag_308\n        /* \"#utility.yul\":5881:5886   */\n      dup4\n        /* \"#utility.yul\":5831:5887   */\n      tag_216\n      jump\t// in\n    tag_308:\n        /* \"#utility.yul\":5910:5917   */\n      dup1\n        /* \"#utility.yul\":5941:5942   */\n      0x00\n        /* \"#utility.yul\":5926:6210   */\n    tag_309:\n        /* \"#utility.yul\":5951:5957   */\n      dup4\n        /* \"#utility.yul\":5948:5949   */\n      dup2\n        /* \"#utility.yul\":5945:5958   */\n      lt\n        /* \"#utility.yul\":5926:6210   */\n      iszero\n      tag_311\n      jumpi\n        /* \"#utility.yul\":6027:6033   */\n      dup2\n        /* \"#utility.yul\":6021:6034   */\n      mload\n        /* \"#utility.yul\":6054:6117   */\n      tag_312\n        /* \"#utility.yul\":6113:6116   */\n      dup9\n        /* \"#utility.yul\":6098:6111   */\n      dup3\n        /* \"#utility.yul\":6054:6117   */\n      tag_218\n      jump\t// in\n    tag_312:\n        /* \"#utility.yul\":6047:6117   */\n      swap8\n      pop\n        /* \"#utility.yul\":6140:6200   */\n      tag_313\n        /* \"#utility.yul\":6193:6199   */\n      dup4\n        /* \"#utility.yul\":6140:6200   */\n      tag_219\n      jump\t// in\n    tag_313:\n        /* \"#utility.yul\":6130:6200   */\n      swap3\n      pop\n        /* \"#utility.yul\":5986:6210   */\n      pop\n        /* \"#utility.yul\":5973:5974   */\n      0x01\n        /* \"#utility.yul\":5970:5971   */\n      dup2\n        /* \"#utility.yul\":5966:5975   */\n      add\n        /* \"#utility.yul\":5961:5975   */\n      swap1\n      pop\n        /* \"#utility.yul\":5926:6210   */\n      jump(tag_309)\n    tag_311:\n        /* \"#utility.yul\":5930:5944   */\n      pop\n        /* \"#utility.yul\":6226:6229   */\n      dup6\n        /* \"#utility.yul\":6219:6229   */\n      swap4\n      pop\n        /* \"#utility.yul\":5627:6235   */\n      pop\n      pop\n      pop\n        /* \"#utility.yul\":5503:6235   */\n      swap3\n      swap2\n      pop\n      pop\n      jump\t// out\n        /* \"#utility.yul\":6241:6352   */\n    tag_221:\n        /* \"#utility.yul\":6305:6311   */\n      0x00\n        /* \"#utility.yul\":6339:6344   */\n      dup2\n        /* \"#utility.yul\":6333:6345   */\n      mload\n        /* \"#utility.yul\":6323:6345   */\n      swap1\n      pop\n        /* \"#utility.yul\":6241:6352   */\n      swap2\n      swap1\n      pop\n      jump\t// out\n        /* \"#utility.yul\":6358:6539   */\n    tag_222:\n        /* \"#utility.yul\":6454:6465   */\n      0x00\n        /* \"#utility.yul\":6488:6494   */\n      dup3\n        /* \"#utility.yul\":6483:6486   */\n      dup3\n        /* \"#utility.yul\":6476:6495   */\n      mstore\n        /* \"#utility.yul\":6528:6532   */\n      0x20\n        /* \"#utility.yul\":6523:6526   */\n      dup3\n        /* \"#utility.yul\":6519:6533   */\n      add\n        /* \"#utility.yul\":6504:6533   */\n      swap1\n      pop\n        /* \"#utility.yul\":6358:6539   */\n      swap3\n      swap2\n      pop\n      pop\n      jump\t// out\n        /* \"#utility.yul\":6545:6674   */\n    tag_223:\n        /* \"#utility.yul\":6609:6613   */\n      0x00\n        /* \"#utility.yul\":6632:6635   */\n      dup2\n        /* \"#utility.yul\":6624:6635   */\n      swap1\n      pop\n        /* \"#utility.yul\":6662:6666   */\n      0x20\n        /* \"#utility.yul\":6657:6660   */\n      dup3\n        /* \"#utility.yul\":6653:6667   */\n      add\n        /* \"#utility.yul\":6645:6667   */\n      swap1\n      pop\n        /* \"#utility.yul\":6545:6674   */\n      swap2\n      swap1\n      pop\n      jump\t// out\n        /* \"#utility.yul\":6680:6779   */\n    tag_224:\n        /* \"#utility.yul\":6751:6772   */\n      tag_318\n        /* \"#utility.yul\":6766:6771   */\n      dup2\n        /* \"#utility.yul\":6751:6772   */\n      tag_205\n      jump\t// in\n    tag_318:\n        /* \"#utility.yul\":6746:6749   */\n      dup3\n        /* \"#utility.yul\":6739:6773   */\n      mstore\n        /* \"#utility.yul\":6680:6779   */\n      pop\n      pop\n      jump\t// out\n        /* \"#utility.yul\":6785:6952   */\n    tag_225:\n        /* \"#utility.yul\":6848:6858   */\n      0x00\n        /* \"#utility.yul\":6869:6909   */\n      tag_320\n        /* \"#utility.yul\":6905:6908   */\n      dup4\n        /* \"#utility.yul\":6897:6903   */\n      dup4\n        /* \"#utility.yul\":6869:6909   */\n      tag_224\n      jump\t// in\n    tag_320:\n        /* \"#utility.yul\":6941:6945   */\n      0x20\n        /* \"#utility.yul\":6936:6939   */\n      dup4\n        /* \"#utility.yul\":6932:6946   */\n      add\n        /* \"#utility.yul\":6918:6946   */\n      swap1\n      pop\n        /* \"#utility.yul\":6785:6952   */\n      swap3\n      swap2\n      pop\n      pop\n      jump\t// out\n        /* \"#utility.yul\":6958:7068   */\n    tag_226:\n        /* \"#utility.yul\":7025:7029   */\n      0x00\n        /* \"#utility.yul\":7057:7061   */\n      0x20\n        /* \"#utility.yul\":7052:7055   */\n      dup3\n        /* \"#utility.yul\":7048:7062   */\n      add\n        /* \"#utility.yul\":7040:7062   */\n      swap1\n      pop\n        /* \"#utility.yul\":6958:7068   */\n      swap2\n      swap1\n      pop\n      jump\t// out\n        /* \"#utility.yul\":7098:7806   */\n    tag_227:\n        /* \"#utility.yul\":7211:7214   */\n      0x00\n        /* \"#utility.yul\":7240:7291   */\n      tag_323\n        /* \"#utility.yul\":7285:7290   */\n      dup3\n        /* \"#utility.yul\":7240:7291   */\n      tag_221\n      jump\t// in\n    tag_323:\n        /* \"#utility.yul\":7307:7390   */\n      tag_324\n        /* \"#utility.yul\":7383:7389   */\n      dup2\n        /* \"#utility.yul\":7378:7381   */\n      dup6\n        /* \"#utility.yul\":7307:7390   */\n      tag_222\n      jump\t// in\n    tag_324:\n        /* \"#utility.yul\":7300:7390   */\n      swap4\n      pop\n        /* \"#utility.yul\":7414:7467   */\n      tag_325\n        /* \"#utility.yul\":7461:7466   */\n      dup4\n        /* \"#utility.yul\":7414:7467   */\n      tag_223\n      jump\t// in\n    tag_325:\n        /* \"#utility.yul\":7490:7497   */\n      dup1\n        /* \"#utility.yul\":7521:7522   */\n      0x00\n        /* \"#utility.yul\":7506:7781   */\n    tag_326:\n        /* \"#utility.yul\":7531:7537   */\n      dup4\n        /* \"#utility.yul\":7528:7529   */\n      dup2\n        /* \"#utility.yul\":7525:7538   */\n      lt\n        /* \"#utility.yul\":7506:7781   */\n      iszero\n      tag_328\n      jumpi\n        /* \"#utility.yul\":7607:7613   */\n      dup2\n        /* \"#utility.yul\":7601:7614   */\n      mload\n        /* \"#utility.yul\":7634:7691   */\n      tag_329\n        /* \"#utility.yul\":7687:7690   */\n      dup9\n        /* \"#utility.yul\":7672:7685   */\n      dup3\n        /* \"#utility.yul\":7634:7691   */\n      tag_225\n      jump\t// in\n    tag_329:\n        /* \"#utility.yul\":7627:7691   */\n      swap8\n      pop\n        /* \"#utility.yul\":7714:7771   */\n      tag_330\n        /* \"#utility.yul\":7764:7770   */\n      dup4\n        /* \"#utility.yul\":7714:7771   */\n      tag_226\n      jump\t// in\n    tag_330:\n        /* \"#utility.yul\":7704:7771   */\n      swap3\n      pop\n        /* \"#utility.yul\":7566:7781   */\n      pop\n        /* \"#utility.yul\":7553:7554   */\n      0x01\n        /* \"#utility.yul\":7550:7551   */\n      dup2\n        /* \"#utility.yul\":7546:7555   */\n      add\n        /* \"#utility.yul\":7541:7555   */\n      swap1\n      pop\n        /* \"#utility.yul\":7506:7781   */\n      jump(tag_326)\n    tag_328:\n        /* \"#utility.yul\":7510:7524   */\n      pop\n        /* \"#utility.yul\":7797:7800   */\n      dup6\n        /* \"#utility.yul\":7790:7800   */\n      swap4\n      pop\n        /* \"#utility.yul\":7216:7806   */\n      pop\n      pop\n      pop\n        /* \"#utility.yul\":7098:7806   */\n      swap3\n      swap2\n      pop\n      pop\n      jump\t// out\n        /* \"#utility.yul\":7812:8957   */\n    tag_45:\n        /* \"#utility.yul\":8183:8187   */\n      0x00\n        /* \"#utility.yul\":8221:8224   */\n      0x80\n        /* \"#utility.yul\":8210:8219   */\n      dup3\n        /* \"#utility.yul\":8206:8225   */\n      add\n        /* \"#utility.yul\":8198:8225   */\n      swap1\n      pop\n        /* \"#utility.yul\":8271:8280   */\n      dup2\n        /* \"#utility.yul\":8265:8269   */\n      dup2\n        /* \"#utility.yul\":8261:8281   */\n      sub\n        /* \"#utility.yul\":8257:8258   */\n      0x00\n        /* \"#utility.yul\":8246:8255   */\n      dup4\n        /* \"#utility.yul\":8242:8259   */\n      add\n        /* \"#utility.yul\":8235:8282   */\n      mstore\n        /* \"#utility.yul\":8299:8407   */\n      tag_332\n        /* \"#utility.yul\":8402:8406   */\n      dup2\n        /* \"#utility.yul\":8393:8399   */\n      dup8\n        /* \"#utility.yul\":8299:8407   */\n      tag_213\n      jump\t// in\n    tag_332:\n        /* \"#utility.yul\":8291:8407   */\n      swap1\n      pop\n        /* \"#utility.yul\":8454:8463   */\n      dup2\n        /* \"#utility.yul\":8448:8452   */\n      dup2\n        /* \"#utility.yul\":8444:8464   */\n      sub\n        /* \"#utility.yul\":8439:8441   */\n      0x20\n        /* \"#utility.yul\":8428:8437   */\n      dup4\n        /* \"#utility.yul\":8424:8442   */\n      add\n        /* \"#utility.yul\":8417:8465   */\n      mstore\n        /* \"#utility.yul\":8482:8590   */\n      tag_333\n        /* \"#utility.yul\":8585:8589   */\n      dup2\n        /* \"#utility.yul\":8576:8582   */\n      dup7\n        /* \"#utility.yul\":8482:8590   */\n      tag_220\n      jump\t// in\n    tag_333:\n        /* \"#utility.yul\":8474:8590   */\n      swap1\n      pop\n        /* \"#utility.yul\":8637:8646   */\n      dup2\n        /* \"#utility.yul\":8631:8635   */\n      dup2\n        /* \"#utility.yul\":8627:8647   */\n      sub\n        /* \"#utility.yul\":8622:8624   */\n      0x40\n        /* \"#utility.yul\":8611:8620   */\n      dup4\n        /* \"#utility.yul\":8607:8625   */\n      add\n        /* \"#utility.yul\":8600:8648   */\n      mstore\n        /* \"#utility.yul\":8665:8773   */\n      tag_334\n        /* \"#utility.yul\":8768:8772   */\n      dup2\n        /* \"#utility.yul\":8759:8765   */\n      dup6\n        /* \"#utility.yul\":8665:8773   */\n      tag_220\n      jump\t// in\n    tag_334:\n        /* \"#utility.yul\":8657:8773   */\n      swap1\n      pop\n        /* \"#utility.yul\":8820:8829   */\n      dup2\n        /* \"#utility.yul\":8814:8818   */\n      dup2\n        /* \"#utility.yul\":8810:8830   */\n      sub\n        /* \"#utility.yul\":8805:8807   */\n      0x60\n        /* \"#utility.yul\":8794:8803   */\n      dup4\n        /* \"#utility.yul\":8790:8808   */\n      add\n        /* \"#utility.yul\":8783:8831   */\n      mstore\n        /* \"#utility.yul\":8848:8950   */\n      tag_335\n        /* \"#utility.yul\":8945:8949   */\n      dup2\n        /* \"#utility.yul\":8936:8942   */\n      dup5\n        /* \"#utility.yul\":8848:8950   */\n      tag_227\n      jump\t// in\n    tag_335:\n        /* \"#utility.yul\":8840:8950   */\n      swap1\n      pop\n        /* \"#utility.yul\":7812:8957   */\n      swap6\n      swap5\n      pop\n      pop\n      pop\n      pop\n      pop\n      jump\t// out\n        /* \"#utility.yul\":8963:9085   */\n    tag_228:\n        /* \"#utility.yul\":9036:9060   */\n      tag_337\n        /* \"#utility.yul\":9054:9059   */\n      dup2\n        /* \"#utility.yul\":9036:9060   */\n      tag_202\n      jump\t// in\n    tag_337:\n        /* \"#utility.yul\":9029:9034   */\n      dup2\n        /* \"#utility.yul\":9026:9061   */\n      eq\n        /* \"#utility.yul\":9016:9079   */\n      tag_338\n      jumpi\n        /* \"#utility.yul\":9075:9076   */\n      0x00\n        /* \"#utility.yul\":9072:9073   */\n      dup1\n        /* \"#utility.yul\":9065:9077   */\n      revert\n        /* \"#utility.yul\":9016:9079   */\n    tag_338:\n        /* \"#utility.yul\":8963:9085   */\n      pop\n      jump\t// out\n        /* \"#utility.yul\":9091:9230   */\n    tag_229:\n        /* \"#utility.yul\":9137:9142   */\n      0x00\n        /* \"#utility.yul\":9175:9181   */\n      dup2\n        /* \"#utility.yul\":9162:9182   */\n      calldataload\n        /* \"#utility.yul\":9153:9182   */\n      swap1\n      pop\n        /* \"#utility.yul\":9191:9224   */\n      tag_340\n        /* \"#utility.yul\":9218:9223   */\n      dup2\n        /* \"#utility.yul\":9191:9224   */\n      tag_228\n      jump\t// in\n    tag_340:\n        /* \"#utility.yul\":9091:9230   */\n      swap3\n      swap2\n      pop\n      pop\n      jump\t// out\n        /* \"#utility.yul\":9236:9565   */\n    tag_48:\n        /* \"#utility.yul\":9295:9301   */\n      0x00\n        /* \"#utility.yul\":9344:9346   */\n      0x20\n        /* \"#utility.yul\":9332:9341   */\n      dup3\n        /* \"#utility.yul\":9323:9330   */\n      dup5\n        /* \"#utility.yul\":9319:9342   */\n      sub\n        /* \"#utility.yul\":9315:9347   */\n      slt\n        /* \"#utility.yul\":9312:9431   */\n      iszero\n      tag_342\n      jumpi\n        /* \"#utility.yul\":9350:9429   */\n      tag_343\n      tag_196\n      jump\t// in\n    tag_343:\n        /* \"#utility.yul\":9312:9431   */\n    tag_342:\n        /* \"#utility.yul\":9470:9471   */\n      0x00\n        /* \"#utility.yul\":9495:9548   */\n      tag_344\n        /* \"#utility.yul\":9540:9547   */\n      dup5\n        /* \"#utility.yul\":9531:9537   */\n      dup3\n        /* \"#utility.yul\":9520:9529   */\n      dup6\n        /* \"#utility.yul\":9516:9538   */\n      add\n        /* \"#utility.yul\":9495:9548   */\n      tag_229\n      jump\t// in\n    tag_344:\n        /* \"#utility.yul\":9485:9548   */\n      swap2\n      pop\n        /* \"#utility.yul\":9441:9558   */\n      pop\n        /* \"#utility.yul\":9236:9565   */\n      swap3\n      swap2\n      pop\n      pop\n      jump\t// out\n        /* \"#utility.yul\":9571:9793   */\n    tag_55:\n        /* \"#utility.yul\":9664:9668   */\n      0x00\n        /* \"#utility.yul\":9702:9704   */\n      0x20\n        /* \"#utility.yul\":9691:9700   */\n      dup3\n        /* \"#utility.yul\":9687:9705   */\n      add\n        /* \"#utility.yul\":9679:9705   */\n      swap1\n      pop\n        /* \"#utility.yul\":9715:9786   */\n      tag_346\n        /* \"#utility.yul\":9783:9784   */\n      0x00\n        /* \"#utility.yul\":9772:9781   */\n      dup4\n        /* \"#utility.yul\":9768:9785   */\n      add\n        /* \"#utility.yul\":9759:9765   */\n      dup5\n        /* \"#utility.yul\":9715:9786   */\n      tag_203\n      jump\t// in\n    tag_346:\n        /* \"#utility.yul\":9571:9793   */\n      swap3\n      swap2\n      pop\n      pop\n      jump\t// out\n        /* \"#utility.yul\":9799:10009   */\n    tag_69:\n        /* \"#utility.yul\":9886:9890   */\n      0x00\n        /* \"#utility.yul\":9924:9926   */\n      0x20\n        /* \"#utility.yul\":9913:9922   */\n      dup3\n        /* \"#utility.yul\":9909:9927   */\n      add\n        /* \"#utility.yul\":9901:9927   */\n      swap1\n      pop\n        /* \"#utility.yul\":9937:10002   */\n      tag_348\n        /* \"#utility.yul\":9999:10000   */\n      0x00\n        /* \"#utility.yul\":9988:9997   */\n      dup4\n        /* \"#utility.yul\":9984:10001   */\n      add\n        /* \"#utility.yul\":9975:9981   */\n      dup5\n        /* \"#utility.yul\":9937:10002   */\n      tag_206\n      jump\t// in\n    tag_348:\n        /* \"#utility.yul\":9799:10009   */\n      swap3\n      swap2\n      pop\n      pop\n      jump\t// out\n        /* \"#utility.yul\":10015:10489   */\n    tag_80:\n        /* \"#utility.yul\":10083:10089   */\n      0x00\n        /* \"#utility.yul\":10091:10097   */\n      dup1\n        /* \"#utility.yul\":10140:10142   */\n      0x40\n        /* \"#utility.yul\":10128:10137   */\n      dup4\n        /* \"#utility.yul\":10119:10126   */\n      dup6\n        /* \"#utility.yul\":10115:10138   */\n      sub\n        /* \"#utility.yul\":10111:10143   */\n      slt\n        /* \"#utility.yul\":10108:10227   */\n      iszero\n      tag_350\n      jumpi\n        /* \"#utility.yul\":10146:10225   */\n      tag_351\n      tag_196\n      jump\t// in\n    tag_351:\n        /* \"#utility.yul\":10108:10227   */\n    tag_350:\n        /* \"#utility.yul\":10266:10267   */\n      0x00\n        /* \"#utility.yul\":10291:10344   */\n      tag_352\n        /* \"#utility.yul\":10336:10343   */\n      dup6\n        /* \"#utility.yul\":10327:10333   */\n      dup3\n        /* \"#utility.yul\":10316:10325   */\n      dup7\n        /* \"#utility.yul\":10312:10334   */\n      add\n        /* \"#utility.yul\":10291:10344   */\n      tag_229\n      jump\t// in\n    tag_352:\n        /* \"#utility.yul\":10281:10344   */\n      swap3\n      pop\n        /* \"#utility.yul\":10237:10354   */\n      pop\n        /* \"#utility.yul\":10393:10395   */\n      0x20\n        /* \"#utility.yul\":10419:10472   */\n      tag_353\n        /* \"#utility.yul\":10464:10471   */\n      dup6\n        /* \"#utility.yul\":10455:10461   */\n      dup3\n        /* \"#utility.yul\":10444:10453   */\n      dup7\n        /* \"#utility.yul\":10440:10462   */\n      add\n        /* \"#utility.yul\":10419:10472   */\n      tag_229\n      jump\t// in\n    tag_353:\n        /* \"#utility.yul\":10409:10472   */\n      swap2\n      pop\n        /* \"#utility.yul\":10364:10482   */\n      pop\n        /* \"#utility.yul\":10015:10489   */\n      swap3\n      pop\n      swap3\n      swap1\n      pop\n      jump\t// out\n        /* \"#utility.yul\":10495:10868   */\n    tag_91:\n        /* \"#utility.yul\":10638:10642   */\n      0x00\n        /* \"#utility.yul\":10676:10678   */\n      0x20\n        /* \"#utility.yul\":10665:10674   */\n      dup3\n        /* \"#utility.yul\":10661:10679   */\n      add\n        /* \"#utility.yul\":10653:10679   */\n      swap1\n      pop\n        /* \"#utility.yul\":10725:10734   */\n      dup2\n        /* \"#utility.yul\":10719:10723   */\n      dup2\n        /* \"#utility.yul\":10715:10735   */\n      sub\n        /* \"#utility.yul\":10711:10712   */\n      0x00\n        /* \"#utility.yul\":10700:10709   */\n      dup4\n        /* \"#utility.yul\":10696:10713   */\n      add\n        /* \"#utility.yul\":10689:10736   */\n      mstore\n        /* \"#utility.yul\":10753:10861   */\n      tag_355\n        /* \"#utility.yul\":10856:10860   */\n      dup2\n        /* \"#utility.yul\":10847:10853   */\n      dup5\n        /* \"#utility.yul\":10753:10861   */\n      tag_213\n      jump\t// in\n    tag_355:\n        /* \"#utility.yul\":10745:10861   */\n      swap1\n      pop\n        /* \"#utility.yul\":10495:10868   */\n      swap3\n      swap2\n      pop\n      pop\n      jump\t// out\n        /* \"#utility.yul\":10874:11054   */\n    tag_230:\n        /* \"#utility.yul\":10922:10999   */\n      0x4e487b7100000000000000000000000000000000000000000000000000000000\n        /* \"#utility.yul\":10919:10920   */\n      0x00\n        /* \"#utility.yul\":10912:11000   */\n      mstore\n        /* \"#utility.yul\":11019:11023   */\n      0x11\n        /* \"#utility.yul\":11016:11017   */\n      0x04\n        /* \"#utility.yul\":11009:11024   */\n      mstore\n        /* \"#utility.yul\":11043:11047   */\n      0x24\n        /* \"#utility.yul\":11040:11041   */\n      0x00\n        /* \"#utility.yul\":11033:11048   */\n      revert\n        /* \"#utility.yul\":11060:11254   */\n    tag_99:\n        /* \"#utility.yul\":11100:11104   */\n      0x00\n        /* \"#utility.yul\":11120:11140   */\n      tag_358\n        /* \"#utility.yul\":11138:11139   */\n      dup3\n        /* \"#utility.yul\":11120:11140   */\n      tag_198\n      jump\t// in\n    tag_358:\n        /* \"#utility.yul\":11115:11140   */\n      swap2\n      pop\n        /* \"#utility.yul\":11154:11174   */\n      tag_359\n        /* \"#utility.yul\":11172:11173   */\n      dup4\n        /* \"#utility.yul\":11154:11174   */\n      tag_198\n      jump\t// in\n    tag_359:\n        /* \"#utility.yul\":11149:11174   */\n      swap3\n      pop\n        /* \"#utility.yul\":11198:11199   */\n      dup3\n        /* \"#utility.yul\":11195:11196   */\n      dup3\n        /* \"#utility.yul\":11191:11200   */\n      sub\n        /* \"#utility.yul\":11183:11200   */\n      swap1\n      pop\n        /* \"#utility.yul\":11222:11223   */\n      dup2\n        /* \"#utility.yul\":11216:11220   */\n      dup2\n        /* \"#utility.yul\":11213:11224   */\n      gt\n        /* \"#utility.yul\":11210:11247   */\n      iszero\n      tag_360\n      jumpi\n        /* \"#utility.yul\":11227:11245   */\n      tag_361\n      tag_230\n      jump\t// in\n    tag_361:\n        /* \"#utility.yul\":11210:11247   */\n    tag_360:\n        /* \"#utility.yul\":11060:11254   */\n      swap3\n      swap2\n      pop\n      pop\n      jump\t// out\n        /* \"#utility.yul\":11260:11440   */\n    tag_109:\n        /* \"#utility.yul\":11308:11385   */\n      0x4e487b7100000000000000000000000000000000000000000000000000000000\n        /* \"#utility.yul\":11305:11306   */\n      0x00\n        /* \"#utility.yul\":11298:11386   */\n      mstore\n        /* \"#utility.yul\":11405:11409   */\n      0x32\n        /* \"#utility.yul\":11402:11403   */\n      0x04\n        /* \"#utility.yul\":11395:11410   */\n      mstore\n        /* \"#utility.yul\":11429:11433   */\n      0x24\n        /* \"#utility.yul\":11426:11427   */\n      0x00\n        /* \"#utility.yul\":11419:11434   */\n      revert\n        /* \"#utility.yul\":11446:11615   */\n    tag_231:\n        /* \"#utility.yul\":11530:11541   */\n      0x00\n        /* \"#utility.yul\":11564:11570   */\n      dup3\n        /* \"#utility.yul\":11559:11562   */\n      dup3\n        /* \"#utility.yul\":11552:11571   */\n      mstore\n        /* \"#utility.yul\":11604:11608   */\n      0x20\n        /* \"#utility.yul\":11599:11602   */\n      dup3\n        /* \"#utility.yul\":11595:11609   */\n      add\n        /* \"#utility.yul\":11580:11609   */\n      swap1\n      pop\n        /* \"#utility.yul\":11446:11615   */\n      swap3\n      swap2\n      pop\n      pop\n      jump\t// out\n        /* \"#utility.yul\":11621:11795   */\n    tag_232:\n        /* \"#utility.yul\":11761:11787   */\n      0x43616e6e6f742062757920796f75727320646174617365740000000000000000\n        /* \"#utility.yul\":11757:11758   */\n      0x00\n        /* \"#utility.yul\":11749:11755   */\n      dup3\n        /* \"#utility.yul\":11745:11759   */\n      add\n        /* \"#utility.yul\":11738:11788   */\n      mstore\n        /* \"#utility.yul\":11621:11795   */\n      pop\n      jump\t// out\n        /* \"#utility.yul\":11801:12167   */\n    tag_233:\n        /* \"#utility.yul\":11943:11946   */\n      0x00\n        /* \"#utility.yul\":11964:12031   */\n      tag_366\n        /* \"#utility.yul\":12028:12030   */\n      0x18\n        /* \"#utility.yul\":12023:12026   */\n      dup4\n        /* \"#utility.yul\":11964:12031   */\n      tag_231\n      jump\t// in\n    tag_366:\n        /* \"#utility.yul\":11957:12031   */\n      swap2\n      pop\n        /* \"#utility.yul\":12040:12133   */\n      tag_367\n        /* \"#utility.yul\":12129:12132   */\n      dup3\n        /* \"#utility.yul\":12040:12133   */\n      tag_232\n      jump\t// in\n    tag_367:\n        /* \"#utility.yul\":12158:12160   */\n      0x20\n        /* \"#utility.yul\":12153:12156   */\n      dup3\n        /* \"#utility.yul\":12149:12161   */\n      add\n        /* \"#utility.yul\":12142:12161   */\n      swap1\n      pop\n        /* \"#utility.yul\":11801:12167   */\n      swap2\n      swap1\n      pop\n      jump\t// out\n        /* \"#utility.yul\":12173:12592   */\n    tag_113:\n        /* \"#utility.yul\":12339:12343   */\n      0x00\n        /* \"#utility.yul\":12377:12379   */\n      0x20\n        /* \"#utility.yul\":12366:12375   */\n      dup3\n        /* \"#utility.yul\":12362:12380   */\n      add\n        /* \"#utility.yul\":12354:12380   */\n      swap1\n      pop\n        /* \"#utility.yul\":12426:12435   */\n      dup2\n        /* \"#utility.yul\":12420:12424   */\n      dup2\n        /* \"#utility.yul\":12416:12436   */\n      sub\n        /* \"#utility.yul\":12412:12413   */\n      0x00\n        /* \"#utility.yul\":12401:12410   */\n      dup4\n        /* \"#utility.yul\":12397:12414   */\n      add\n        /* \"#utility.yul\":12390:12437   */\n      mstore\n        /* \"#utility.yul\":12454:12585   */\n      tag_369\n        /* \"#utility.yul\":12580:12584   */\n      dup2\n        /* \"#utility.yul\":12454:12585   */\n      tag_233\n      jump\t// in\n    tag_369:\n        /* \"#utility.yul\":12446:12585   */\n      swap1\n      pop\n        /* \"#utility.yul\":12173:12592   */\n      swap2\n      swap1\n      pop\n      jump\t// out\n        /* \"#utility.yul\":12598:12778   */\n    tag_118:\n        /* \"#utility.yul\":12646:12723   */\n      0x4e487b7100000000000000000000000000000000000000000000000000000000\n        /* \"#utility.yul\":12643:12644   */\n      0x00\n        /* \"#utility.yul\":12636:12724   */\n      mstore\n        /* \"#utility.yul\":12743:12747   */\n      0x41\n        /* \"#utility.yul\":12740:12741   */\n      0x04\n        /* \"#utility.yul\":12733:12748   */\n      mstore\n        /* \"#utility.yul\":12767:12771   */\n      0x24\n        /* \"#utility.yul\":12764:12765   */\n      0x00\n        /* \"#utility.yul\":12757:12772   */\n      revert\n        /* \"#utility.yul\":12784:12959   */\n    tag_234:\n        /* \"#utility.yul\":12924:12951   */\n      0x4461746173657420616c72656164792076616c69646174656400000000000000\n        /* \"#utility.yul\":12920:12921   */\n      0x00\n        /* \"#utility.yul\":12912:12918   */\n      dup3\n        /* \"#utility.yul\":12908:12922   */\n      add\n        /* \"#utility.yul\":12901:12952   */\n      mstore\n        /* \"#utility.yul\":12784:12959   */\n      pop\n      jump\t// out\n        /* \"#utility.yul\":12965:13331   */\n    tag_235:\n        /* \"#utility.yul\":13107:13110   */\n      0x00\n        /* \"#utility.yul\":13128:13195   */\n      tag_373\n        /* \"#utility.yul\":13192:13194   */\n      0x19\n        /* \"#utility.yul\":13187:13190   */\n      dup4\n        /* \"#utility.yul\":13128:13195   */\n      tag_231\n      jump\t// in\n    tag_373:\n        /* \"#utility.yul\":13121:13195   */\n      swap2\n      pop\n        /* \"#utility.yul\":13204:13297   */\n      tag_374\n        /* \"#utility.yul\":13293:13296   */\n      dup3\n        /* \"#utility.yul\":13204:13297   */\n      tag_234\n      jump\t// in\n    tag_374:\n        /* \"#utility.yul\":13322:13324   */\n      0x20\n        /* \"#utility.yul\":13317:13320   */\n      dup3\n        /* \"#utility.yul\":13313:13325   */\n      add\n        /* \"#utility.yul\":13306:13325   */\n      swap1\n      pop\n        /* \"#utility.yul\":12965:13331   */\n      swap2\n      swap1\n      pop\n      jump\t// out\n        /* \"#utility.yul\":13337:13756   */\n    tag_153:\n        /* \"#utility.yul\":13503:13507   */\n      0x00\n        /* \"#utility.yul\":13541:13543   */\n      0x20\n        /* \"#utility.yul\":13530:13539   */\n      dup3\n        /* \"#utility.yul\":13526:13544   */\n      add\n        /* \"#utility.yul\":13518:13544   */\n      swap1\n      pop\n        /* \"#utility.yul\":13590:13599   */\n      dup2\n        /* \"#utility.yul\":13584:13588   */\n      dup2\n        /* \"#utility.yul\":13580:13600   */\n      sub\n        /* \"#utility.yul\":13576:13577   */\n      0x00\n        /* \"#utility.yul\":13565:13574   */\n      dup4\n        /* \"#utility.yul\":13561:13578   */\n      add\n        /* \"#utility.yul\":13554:13601   */\n      mstore\n        /* \"#utility.yul\":13618:13749   */\n      tag_376\n        /* \"#utility.yul\":13744:13748   */\n      dup2\n        /* \"#utility.yul\":13618:13749   */\n      tag_235\n      jump\t// in\n    tag_376:\n        /* \"#utility.yul\":13610:13749   */\n      swap1\n      pop\n        /* \"#utility.yul\":13337:13756   */\n      swap2\n      swap1\n      pop\n      jump\t// out\n        /* \"#utility.yul\":13762:13983   */\n    tag_236:\n        /* \"#utility.yul\":13902:13936   */\n      0x596f75206d757374206265206120726567697374657265642076616c69646174\n        /* \"#utility.yul\":13898:13899   */\n      0x00\n        /* \"#utility.yul\":13890:13896   */\n      dup3\n        /* \"#utility.yul\":13886:13900   */\n      add\n        /* \"#utility.yul\":13879:13937   */\n      mstore\n        /* \"#utility.yul\":13971:13975   */\n      0x6f72000000000000000000000000000000000000000000000000000000000000\n        /* \"#utility.yul\":13966:13968   */\n      0x20\n        /* \"#utility.yul\":13958:13964   */\n      dup3\n        /* \"#utility.yul\":13954:13969   */\n      add\n        /* \"#utility.yul\":13947:13976   */\n      mstore\n        /* \"#utility.yul\":13762:13983   */\n      pop\n      jump\t// out\n        /* \"#utility.yul\":13989:14355   */\n    tag_237:\n        /* \"#utility.yul\":14131:14134   */\n      0x00\n        /* \"#utility.yul\":14152:14219   */\n      tag_379\n        /* \"#utility.yul\":14216:14218   */\n      0x22\n        /* \"#utility.yul\":14211:14214   */\n      dup4\n        /* \"#utility.yul\":14152:14219   */\n      tag_231\n      jump\t// in\n    tag_379:\n        /* \"#utility.yul\":14145:14219   */\n      swap2\n      pop\n        /* \"#utility.yul\":14228:14321   */\n      tag_380\n        /* \"#utility.yul\":14317:14320   */\n      dup3\n        /* \"#utility.yul\":14228:14321   */\n      tag_236\n      jump\t// in\n    tag_380:\n        /* \"#utility.yul\":14346:14348   */\n      0x40\n        /* \"#utility.yul\":14341:14344   */\n      dup3\n        /* \"#utility.yul\":14337:14349   */\n      add\n        /* \"#utility.yul\":14330:14349   */\n      swap1\n      pop\n        /* \"#utility.yul\":13989:14355   */\n      swap2\n      swap1\n      pop\n      jump\t// out\n        /* \"#utility.yul\":14361:14780   */\n    tag_163:\n        /* \"#utility.yul\":14527:14531   */\n      0x00\n        /* \"#utility.yul\":14565:14567   */\n      0x20\n        /* \"#utility.yul\":14554:14563   */\n      dup3\n        /* \"#utility.yul\":14550:14568   */\n      add\n        /* \"#utility.yul\":14542:14568   */\n      swap1\n      pop\n        /* \"#utility.yul\":14614:14623   */\n      dup2\n        /* \"#utility.yul\":14608:14612   */\n      dup2\n        /* \"#utility.yul\":14604:14624   */\n      sub\n        /* \"#utility.yul\":14600:14601   */\n      0x00\n        /* \"#utility.yul\":14589:14598   */\n      dup4\n        /* \"#utility.yul\":14585:14602   */\n      add\n        /* \"#utility.yul\":14578:14625   */\n      mstore\n        /* \"#utility.yul\":14642:14773   */\n      tag_382\n        /* \"#utility.yul\":14768:14772   */\n      dup2\n        /* \"#utility.yul\":14642:14773   */\n      tag_237\n      jump\t// in\n    tag_382:\n        /* \"#utility.yul\":14634:14773   */\n      swap1\n      pop\n        /* \"#utility.yul\":14361:14780   */\n      swap2\n      swap1\n      pop\n      jump\t// out\n        /* \"#utility.yul\":14786:14967   */\n    tag_238:\n        /* \"#utility.yul\":14926:14959   */\n      0x56616c696461746f722063616e6e6f74206265207468652063726561746f7200\n        /* \"#utility.yul\":14922:14923   */\n      0x00\n        /* \"#utility.yul\":14914:14920   */\n      dup3\n        /* \"#utility.yul\":14910:14924   */\n      add\n        /* \"#utility.yul\":14903:14960   */\n      mstore\n        /* \"#utility.yul\":14786:14967   */\n      pop\n      jump\t// out\n        /* \"#utility.yul\":14973:15339   */\n    tag_239:\n        /* \"#utility.yul\":15115:15118   */\n      0x00\n        /* \"#utility.yul\":15136:15203   */\n      tag_385\n        /* \"#utility.yul\":15200:15202   */\n      0x1f\n        /* \"#utility.yul\":15195:15198   */\n      dup4\n        /* \"#utility.yul\":15136:15203   */\n      tag_231\n      jump\t// in\n    tag_385:\n        /* \"#utility.yul\":15129:15203   */\n      swap2\n      pop\n        /* \"#utility.yul\":15212:15305   */\n      tag_386\n        /* \"#utility.yul\":15301:15304   */\n      dup3\n        /* \"#utility.yul\":15212:15305   */\n      tag_238\n      jump\t// in\n    tag_386:\n        /* \"#utility.yul\":15330:15332   */\n      0x20\n        /* \"#utility.yul\":15325:15328   */\n      dup3\n        /* \"#utility.yul\":15321:15333   */\n      add\n        /* \"#utility.yul\":15314:15333   */\n      swap1\n      pop\n        /* \"#utility.yul\":14973:15339   */\n      swap2\n      swap1\n      pop\n      jump\t// out\n        /* \"#utility.yul\":15345:15764   */\n    tag_166:\n        /* \"#utility.yul\":15511:15515   */\n      0x00\n        /* \"#utility.yul\":15549:15551   */\n      0x20\n        /* \"#utility.yul\":15538:15547   */\n      dup3\n        /* \"#utility.yul\":15534:15552   */\n      add\n        /* \"#utility.yul\":15526:15552   */\n      swap1\n      pop\n        /* \"#utility.yul\":15598:15607   */\n      dup2\n        /* \"#utility.yul\":15592:15596   */\n      dup2\n        /* \"#utility.yul\":15588:15608   */\n      sub\n        /* \"#utility.yul\":15584:15585   */\n      0x00\n        /* \"#utility.yul\":15573:15582   */\n      dup4\n        /* \"#utility.yul\":15569:15586   */\n      add\n        /* \"#utility.yul\":15562:15609   */\n      mstore\n        /* \"#utility.yul\":15626:15757   */\n      tag_388\n        /* \"#utility.yul\":15752:15756   */\n      dup2\n        /* \"#utility.yul\":15626:15757   */\n      tag_239\n      jump\t// in\n    tag_388:\n        /* \"#utility.yul\":15618:15757   */\n      swap1\n      pop\n        /* \"#utility.yul\":15345:15764   */\n      swap2\n      swap1\n      pop\n      jump\t// out\n        /* \"#utility.yul\":15770:15952   */\n    tag_240:\n        /* \"#utility.yul\":15910:15944   */\n      0x4f776e61626c653a2063616c6c6572206973206e6f7420746865206f776e6572\n        /* \"#utility.yul\":15906:15907   */\n      0x00\n        /* \"#utility.yul\":15898:15904   */\n      dup3\n        /* \"#utility.yul\":15894:15908   */\n      add\n        /* \"#utility.yul\":15887:15945   */\n      mstore\n        /* \"#utility.yul\":15770:15952   */\n      pop\n      jump\t// out\n        /* \"#utility.yul\":15958:16324   */\n    tag_241:\n        /* \"#utility.yul\":16100:16103   */\n      0x00\n        /* \"#utility.yul\":16121:16188   */\n      tag_391\n        /* \"#utility.yul\":16185:16187   */\n      0x20\n        /* \"#utility.yul\":16180:16183   */\n      dup4\n        /* \"#utility.yul\":16121:16188   */\n      tag_231\n      jump\t// in\n    tag_391:\n        /* \"#utility.yul\":16114:16188   */\n      swap2\n      pop\n        /* \"#utility.yul\":16197:16290   */\n      tag_392\n        /* \"#utility.yul\":16286:16289   */\n      dup3\n        /* \"#utility.yul\":16197:16290   */\n      tag_240\n      jump\t// in\n    tag_392:\n        /* \"#utility.yul\":16315:16317   */\n      0x20\n        /* \"#utility.yul\":16310:16313   */\n      dup3\n        /* \"#utility.yul\":16306:16318   */\n      add\n        /* \"#utility.yul\":16299:16318   */\n      swap1\n      pop\n        /* \"#utility.yul\":15958:16324   */\n      swap2\n      swap1\n      pop\n      jump\t// out\n        /* \"#utility.yul\":16330:16749   */\n    tag_173:\n        /* \"#utility.yul\":16496:16500   */\n      0x00\n        /* \"#utility.yul\":16534:16536   */\n      0x20\n        /* \"#utility.yul\":16523:16532   */\n      dup3\n        /* \"#utility.yul\":16519:16537   */\n      add\n        /* \"#utility.yul\":16511:16537   */\n      swap1\n      pop\n        /* \"#utility.yul\":16583:16592   */\n      dup2\n        /* \"#utility.yul\":16577:16581   */\n      dup2\n        /* \"#utility.yul\":16573:16593   */\n      sub\n        /* \"#utility.yul\":16569:16570   */\n      0x00\n        /* \"#utility.yul\":16558:16567   */\n      dup4\n        /* \"#utility.yul\":16554:16571   */\n      add\n        /* \"#utility.yul\":16547:16594   */\n      mstore\n        /* \"#utility.yul\":16611:16742   */\n      tag_394\n        /* \"#utility.yul\":16737:16741   */\n      dup2\n        /* \"#utility.yul\":16611:16742   */\n      tag_241\n      jump\t// in\n    tag_394:\n        /* \"#utility.yul\":16603:16742   */\n      swap1\n      pop\n        /* \"#utility.yul\":16330:16749   */\n      swap2\n      swap1\n      pop\n      jump\t// out\n        /* \"#utility.yul\":16755:16980   */\n    tag_242:\n        /* \"#utility.yul\":16895:16929   */\n      0x4461746150756e6b436f696e2068617320616c7265616479206265656e206465\n        /* \"#utility.yul\":16891:16892   */\n      0x00\n        /* \"#utility.yul\":16883:16889   */\n      dup3\n        /* \"#utility.yul\":16879:16893   */\n      add\n        /* \"#utility.yul\":16872:16930   */\n      mstore\n        /* \"#utility.yul\":16964:16972   */\n      0x706c6f7965640000000000000000000000000000000000000000000000000000\n        /* \"#utility.yul\":16959:16961   */\n      0x20\n        /* \"#utility.yul\":16951:16957   */\n      dup3\n        /* \"#utility.yul\":16947:16962   */\n      add\n        /* \"#utility.yul\":16940:16973   */\n      mstore\n        /* \"#utility.yul\":16755:16980   */\n      pop\n      jump\t// out\n        /* \"#utility.yul\":16986:17352   */\n    tag_243:\n        /* \"#utility.yul\":17128:17131   */\n      0x00\n        /* \"#utility.yul\":17149:17216   */\n      tag_397\n        /* \"#utility.yul\":17213:17215   */\n      0x26\n        /* \"#utility.yul\":17208:17211   */\n      dup4\n        /* \"#utility.yul\":17149:17216   */\n      tag_231\n      jump\t// in\n    tag_397:\n        /* \"#utility.yul\":17142:17216   */\n      swap2\n      pop\n        /* \"#utility.yul\":17225:17318   */\n      tag_398\n        /* \"#utility.yul\":17314:17317   */\n      dup3\n        /* \"#utility.yul\":17225:17318   */\n      tag_242\n      jump\t// in\n    tag_398:\n        /* \"#utility.yul\":17343:17345   */\n      0x40\n        /* \"#utility.yul\":17338:17341   */\n      dup3\n        /* \"#utility.yul\":17334:17346   */\n      add\n        /* \"#utility.yul\":17327:17346   */\n      swap1\n      pop\n        /* \"#utility.yul\":16986:17352   */\n      swap2\n      swap1\n      pop\n      jump\t// out\n        /* \"#utility.yul\":17358:17777   */\n    tag_177:\n        /* \"#utility.yul\":17524:17528   */\n      0x00\n        /* \"#utility.yul\":17562:17564   */\n      0x20\n        /* \"#utility.yul\":17551:17560   */\n      dup3\n        /* \"#utility.yul\":17547:17565   */\n      add\n        /* \"#utility.yul\":17539:17565   */\n      swap1\n      pop\n        /* \"#utility.yul\":17611:17620   */\n      dup2\n        /* \"#utility.yul\":17605:17609   */\n      dup2\n        /* \"#utility.yul\":17601:17621   */\n      sub\n        /* \"#utility.yul\":17597:17598   */\n      0x00\n        /* \"#utility.yul\":17586:17595   */\n      dup4\n        /* \"#utility.yul\":17582:17599   */\n      add\n        /* \"#utility.yul\":17575:17622   */\n      mstore\n        /* \"#utility.yul\":17639:17770   */\n      tag_400\n        /* \"#utility.yul\":17765:17769   */\n      dup2\n        /* \"#utility.yul\":17639:17770   */\n      tag_243\n      jump\t// in\n    tag_400:\n        /* \"#utility.yul\":17631:17770   */\n      swap1\n      pop\n        /* \"#utility.yul\":17358:17777   */\n      swap2\n      swap1\n      pop\n      jump\t// out\n    stop\n\n    sub_0: assembly {\n            /* \"contracts/DataPunk/DataPunkCoin.sol\":101:4551  contract DataPunkCoin {... */\n          mstore(0x40, 0x80)\n            /* \"contracts/DataPunk/DataPunkCoin.sol\":361:371  100*10**18 */\n          0x056bc75e2d63100000\n            /* \"contracts/DataPunk/DataPunkCoin.sol\":330:372  uint256 _totalSupply = uint256(100*10**18) */\n          0x00\n          sstore\n            /* \"contracts/DataPunk/DataPunkCoin.sol\":891:1025  constructor() {... */\n          callvalue\n          dup1\n          iszero\n          tag_1\n          jumpi\n          0x00\n          dup1\n          revert\n        tag_1:\n          pop\n            /* \"contracts/DataPunk/DataPunkCoin.sol\":1006:1018  _totalSupply */\n          sload(0x00)\n            /* \"contracts/DataPunk/DataPunkCoin.sol\":983:991  balances */\n          0x01\n            /* \"contracts/DataPunk/DataPunkCoin.sol\":983:1003  balances[msg.sender] */\n          0x00\n            /* \"contracts/DataPunk/DataPunkCoin.sol\":992:1002  msg.sender */\n          caller\n            /* \"contracts/DataPunk/DataPunkCoin.sol\":983:1003  balances[msg.sender] */\n          0xffffffffffffffffffffffffffffffffffffffff\n          and\n          0xffffffffffffffffffffffffffffffffffffffff\n          and\n          dup2\n          mstore\n          0x20\n          add\n          swap1\n          dup2\n          mstore\n          0x20\n          add\n          0x00\n          keccak256\n            /* \"contracts/DataPunk/DataPunkCoin.sol\":983:1018  balances[msg.sender] = _totalSupply */\n          dup2\n          swap1\n          sstore\n          pop\n            /* \"contracts/DataPunk/DataPunkCoin.sol\":101:4551  contract DataPunkCoin {... */\n          dataSize(sub_0)\n          dup1\n          dataOffset(sub_0)\n          0x00\n          codecopy\n          0x00\n          return\n        stop\n\n        sub_0: assembly {\n                /* \"contracts/DataPunk/DataPunkCoin.sol\":101:4551  contract DataPunkCoin {... */\n              mstore(0x40, 0x80)\n              callvalue\n              dup1\n              iszero\n              tag_1\n              jumpi\n              0x00\n              dup1\n              revert\n            tag_1:\n              pop\n              jumpi(tag_2, lt(calldatasize, 0x04))\n              shr(0xe0, calldataload(0x00))\n              dup1\n              0x313ce567\n              gt\n              tag_12\n              jumpi\n              dup1\n              0x313ce567\n              eq\n              tag_7\n              jumpi\n              dup1\n              0x70a08231\n              eq\n              tag_8\n              jumpi\n              dup1\n              0x95d89b41\n              eq\n              tag_9\n              jumpi\n              dup1\n              0xa9059cbb\n              eq\n              tag_10\n              jumpi\n              dup1\n              0xdd62ed3e\n              eq\n              tag_11\n              jumpi\n              jump(tag_2)\n            tag_12:\n              dup1\n              0x06fdde03\n              eq\n              tag_3\n              jumpi\n              dup1\n              0x095ea7b3\n              eq\n              tag_4\n              jumpi\n              dup1\n              0x18160ddd\n              eq\n              tag_5\n              jumpi\n              dup1\n              0x23b872dd\n              eq\n              tag_6\n              jumpi\n            tag_2:\n              0x00\n              dup1\n              revert\n                /* \"contracts/DataPunk/DataPunkCoin.sol\":129:174  string public constant name = \"DataPunk Coin\" */\n            tag_3:\n              tag_13\n              tag_14\n              jump\t// in\n            tag_13:\n              mload(0x40)\n              tag_15\n              swap2\n              swap1\n              tag_16\n              jump\t// in\n            tag_15:\n              mload(0x40)\n              dup1\n              swap2\n              sub\n              swap1\n              return\n                /* \"contracts/DataPunk/DataPunkCoin.sol\":2774:3176  function approve(address spender, uint256 amount) external returns (bool){... */\n            tag_4:\n              tag_17\n              0x04\n              dup1\n              calldatasize\n              sub\n              dup2\n              add\n              swap1\n              tag_18\n              swap2\n              swap1\n              tag_19\n              jump\t// in\n            tag_18:\n              tag_20\n              jump\t// in\n            tag_17:\n              mload(0x40)\n              tag_21\n              swap2\n              swap1\n              tag_22\n              jump\t// in\n            tag_21:\n              mload(0x40)\n              dup1\n              swap2\n              sub\n              swap1\n              return\n                /* \"contracts/DataPunk/DataPunkCoin.sol\":1066:1157  function totalSupply() external view returns (uint256) {... */\n            tag_5:\n              tag_23\n              tag_24\n              jump\t// in\n            tag_23:\n              mload(0x40)\n              tag_25\n              swap2\n              swap1\n              tag_26\n              jump\t// in\n            tag_25:\n              mload(0x40)\n              dup1\n              swap2\n              sub\n              swap1\n              return\n                /* \"contracts/DataPunk/DataPunkCoin.sol\":3276:4549  function transferFrom(address sender, address recipient, uint256 amount) ... */\n            tag_6:\n              tag_27\n              0x04\n              dup1\n              calldatasize\n              sub\n              dup2\n              add\n              swap1\n              tag_28\n              swap2\n              swap1\n              tag_29\n              jump\t// in\n            tag_28:\n              tag_30\n              jump\t// in\n            tag_27:\n              mload(0x40)\n              tag_31\n              swap2\n              swap1\n              tag_22\n              jump\t// in\n            tag_31:\n              mload(0x40)\n              dup1\n              swap2\n              sub\n              swap1\n              return\n                /* \"contracts/DataPunk/DataPunkCoin.sol\":255:290  uint8 public constant decimals = 18 */\n            tag_7:\n              tag_32\n              tag_33\n              jump\t// in\n            tag_32:\n              mload(0x40)\n              tag_34\n              swap2\n              swap1\n              tag_35\n              jump\t// in\n            tag_34:\n              mload(0x40)\n              dup1\n              swap2\n              sub\n              swap1\n              return\n                /* \"contracts/DataPunk/DataPunkCoin.sol\":1211:1478  function balanceOf(address account) external view returns (uint256) {... */\n            tag_8:\n              tag_36\n              0x04\n              dup1\n              calldatasize\n              sub\n              dup2\n              add\n              swap1\n              tag_37\n              swap2\n              swap1\n              tag_38\n              jump\t// in\n            tag_37:\n              tag_39\n              jump\t// in\n            tag_36:\n              mload(0x40)\n              tag_40\n              swap2\n              swap1\n              tag_26\n              jump\t// in\n            tag_40:\n              mload(0x40)\n              dup1\n              swap2\n              sub\n              swap1\n              return\n                /* \"contracts/DataPunk/DataPunkCoin.sol\":196:233  string public constant symbol = \"DPC\" */\n            tag_9:\n              tag_41\n              tag_42\n              jump\t// in\n            tag_41:\n              mload(0x40)\n              tag_43\n              swap2\n              swap1\n              tag_16\n              jump\t// in\n            tag_43:\n              mload(0x40)\n              dup1\n              swap2\n              sub\n              swap1\n              return\n                /* \"contracts/DataPunk/DataPunkCoin.sol\":1562:2316  function transfer(address recipient, uint256 amount) external returns (bool) {... */\n            tag_10:\n              tag_44\n              0x04\n              dup1\n              calldatasize\n              sub\n              dup2\n              add\n              swap1\n              tag_45\n              swap2\n              swap1\n              tag_19\n              jump\t// in\n            tag_45:\n              tag_46\n              jump\t// in\n            tag_44:\n              mload(0x40)\n              tag_47\n              swap2\n              swap1\n              tag_22\n              jump\t// in\n            tag_47:\n              mload(0x40)\n              dup1\n              swap2\n              sub\n              swap1\n              return\n                /* \"contracts/DataPunk/DataPunkCoin.sol\":2400:2683  function allowance(address owner, address spender)... */\n            tag_11:\n              tag_48\n              0x04\n              dup1\n              calldatasize\n              sub\n              dup2\n              add\n              swap1\n              tag_49\n              swap2\n              swap1\n              tag_50\n              jump\t// in\n            tag_49:\n              tag_51\n              jump\t// in\n            tag_48:\n              mload(0x40)\n              tag_52\n              swap2\n              swap1\n              tag_26\n              jump\t// in\n            tag_52:\n              mload(0x40)\n              dup1\n              swap2\n              sub\n              swap1\n              return\n                /* \"contracts/DataPunk/DataPunkCoin.sol\":129:174  string public constant name = \"DataPunk Coin\" */\n            tag_14:\n              mload(0x40)\n              dup1\n              0x40\n              add\n              0x40\n              mstore\n              dup1\n              0x0d\n              dup2\n              mstore\n              0x20\n              add\n              0x4461746150756e6b20436f696e00000000000000000000000000000000000000\n              dup2\n              mstore\n              pop\n              dup2\n              jump\t// out\n                /* \"contracts/DataPunk/DataPunkCoin.sol\":2774:3176  function approve(address spender, uint256 amount) external returns (bool){... */\n            tag_20:\n                /* \"contracts/DataPunk/DataPunkCoin.sol\":2842:2846  bool */\n              0x00\n                /* \"contracts/DataPunk/DataPunkCoin.sol\":2972:2978  amount */\n              dup2\n                /* \"contracts/DataPunk/DataPunkCoin.sol\":2938:2948  allowances */\n              0x02\n                /* \"contracts/DataPunk/DataPunkCoin.sol\":2938:2960  allowances[msg.sender] */\n              0x00\n                /* \"contracts/DataPunk/DataPunkCoin.sol\":2949:2959  msg.sender */\n              caller\n                /* \"contracts/DataPunk/DataPunkCoin.sol\":2938:2960  allowances[msg.sender] */\n              0xffffffffffffffffffffffffffffffffffffffff\n              and\n              0xffffffffffffffffffffffffffffffffffffffff\n              and\n              dup2\n              mstore\n              0x20\n              add\n              swap1\n              dup2\n              mstore\n              0x20\n              add\n              0x00\n              keccak256\n                /* \"contracts/DataPunk/DataPunkCoin.sol\":2938:2969  allowances[msg.sender][spender] */\n              0x00\n                /* \"contracts/DataPunk/DataPunkCoin.sol\":2961:2968  spender */\n              dup6\n                /* \"contracts/DataPunk/DataPunkCoin.sol\":2938:2969  allowances[msg.sender][spender] */\n              0xffffffffffffffffffffffffffffffffffffffff\n              and\n              0xffffffffffffffffffffffffffffffffffffffff\n              and\n              dup2\n              mstore\n              0x20\n              add\n              swap1\n              dup2\n              mstore\n              0x20\n              add\n              0x00\n              keccak256\n                /* \"contracts/DataPunk/DataPunkCoin.sol\":2938:2978  allowances[msg.sender][spender] = amount */\n              dup2\n              swap1\n              sstore\n              pop\n                /* \"contracts/DataPunk/DataPunkCoin.sol\":3096:3103  spender */\n              dup3\n                /* \"contracts/DataPunk/DataPunkCoin.sol\":3075:3112  Approval(msg.sender, spender, amount) */\n              0xffffffffffffffffffffffffffffffffffffffff\n              and\n                /* \"contracts/DataPunk/DataPunkCoin.sol\":3084:3094  msg.sender */\n              caller\n                /* \"contracts/DataPunk/DataPunkCoin.sol\":3075:3112  Approval(msg.sender, spender, amount) */\n              0xffffffffffffffffffffffffffffffffffffffff\n              and\n              0x8c5be1e5ebec7d5bd14f71427d1e84f3dd0314c0f7b2291e5b200ac8c7c3b925\n                /* \"contracts/DataPunk/DataPunkCoin.sol\":3105:3111  amount */\n              dup5\n                /* \"contracts/DataPunk/DataPunkCoin.sol\":3075:3112  Approval(msg.sender, spender, amount) */\n              mload(0x40)\n              tag_54\n              swap2\n              swap1\n              tag_26\n              jump\t// in\n            tag_54:\n              mload(0x40)\n              dup1\n              swap2\n              sub\n              swap1\n              log3\n                /* \"contracts/DataPunk/DataPunkCoin.sol\":3165:3169  true */\n              0x01\n                /* \"contracts/DataPunk/DataPunkCoin.sol\":3158:3169  return true */\n              swap1\n              pop\n                /* \"contracts/DataPunk/DataPunkCoin.sol\":2774:3176  function approve(address spender, uint256 amount) external returns (bool){... */\n              swap3\n              swap2\n              pop\n              pop\n              jump\t// out\n                /* \"contracts/DataPunk/DataPunkCoin.sol\":1066:1157  function totalSupply() external view returns (uint256) {... */\n            tag_24:\n                /* \"contracts/DataPunk/DataPunkCoin.sol\":1112:1119  uint256 */\n              0x00\n                /* \"contracts/DataPunk/DataPunkCoin.sol\":1138:1150  _totalSupply */\n              dup1\n              sload\n                /* \"contracts/DataPunk/DataPunkCoin.sol\":1131:1150  return _totalSupply */\n              swap1\n              pop\n                /* \"contracts/DataPunk/DataPunkCoin.sol\":1066:1157  function totalSupply() external view returns (uint256) {... */\n              swap1\n              jump\t// out\n                /* \"contracts/DataPunk/DataPunkCoin.sol\":3276:4549  function transferFrom(address sender, address recipient, uint256 amount) ... */\n            tag_30:\n                /* \"contracts/DataPunk/DataPunkCoin.sol\":3376:3380  bool */\n              0x00\n                /* \"contracts/DataPunk/DataPunkCoin.sol\":3472:3473  0 */\n              dup1\n                /* \"contracts/DataPunk/DataPunkCoin.sol\":3451:3474  recipient != address(0) */\n              0xffffffffffffffffffffffffffffffffffffffff\n              and\n                /* \"contracts/DataPunk/DataPunkCoin.sol\":3451:3460  recipient */\n              dup4\n                /* \"contracts/DataPunk/DataPunkCoin.sol\":3451:3474  recipient != address(0) */\n              0xffffffffffffffffffffffffffffffffffffffff\n              and\n              sub\n                /* \"contracts/DataPunk/DataPunkCoin.sol\":3443:3524  require(recipient != address(0),... */\n              tag_57\n              jumpi\n              mload(0x40)\n              0x08c379a000000000000000000000000000000000000000000000000000000000\n              dup2\n              mstore\n              0x04\n              add\n              tag_58\n              swap1\n              tag_59\n              jump\t// in\n            tag_58:\n              mload(0x40)\n              dup1\n              swap2\n              sub\n              swap1\n              revert\n            tag_57:\n                /* \"contracts/DataPunk/DataPunkCoin.sol\":3622:3628  amount */\n              dup2\n                /* \"contracts/DataPunk/DataPunkCoin.sol\":3602:3610  balances */\n              0x01\n                /* \"contracts/DataPunk/DataPunkCoin.sol\":3602:3618  balances[sender] */\n              0x00\n                /* \"contracts/DataPunk/DataPunkCoin.sol\":3611:3617  sender */\n              dup7\n                /* \"contracts/DataPunk/DataPunkCoin.sol\":3602:3618  balances[sender] */\n              0xffffffffffffffffffffffffffffffffffffffff\n              and\n              0xffffffffffffffffffffffffffffffffffffffff\n              and\n              dup2\n              mstore\n              0x20\n              add\n              swap1\n              dup2\n              mstore\n              0x20\n              add\n              0x00\n              keccak256\n              sload\n                /* \"contracts/DataPunk/DataPunkCoin.sol\":3602:3628  balances[sender] >= amount */\n              lt\n              iszero\n                /* \"contracts/DataPunk/DataPunkCoin.sol\":3594:3686  require(balances[sender] >= amount, ... */\n              tag_60\n              jumpi\n              mload(0x40)\n              0x08c379a000000000000000000000000000000000000000000000000000000000\n              dup2\n              mstore\n              0x04\n              add\n              tag_61\n              swap1\n              tag_62\n              jump\t// in\n            tag_61:\n              mload(0x40)\n              dup1\n              swap2\n              sub\n              swap1\n              revert\n            tag_60:\n                /* \"contracts/DataPunk/DataPunkCoin.sol\":3756:3779  uint256 senderAllowance */\n              0x00\n                /* \"contracts/DataPunk/DataPunkCoin.sol\":3782:3792  allowances */\n              0x02\n                /* \"contracts/DataPunk/DataPunkCoin.sol\":3782:3800  allowances[sender] */\n              0x00\n                /* \"contracts/DataPunk/DataPunkCoin.sol\":3793:3799  sender */\n              dup7\n                /* \"contracts/DataPunk/DataPunkCoin.sol\":3782:3800  allowances[sender] */\n              0xffffffffffffffffffffffffffffffffffffffff\n              and\n              0xffffffffffffffffffffffffffffffffffffffff\n              and\n              dup2\n              mstore\n              0x20\n              add\n              swap1\n              dup2\n              mstore\n              0x20\n              add\n              0x00\n              keccak256\n                /* \"contracts/DataPunk/DataPunkCoin.sol\":3782:3812  allowances[sender][msg.sender] */\n              0x00\n                /* \"contracts/DataPunk/DataPunkCoin.sol\":3801:3811  msg.sender */\n              caller\n                /* \"contracts/DataPunk/DataPunkCoin.sol\":3782:3812  allowances[sender][msg.sender] */\n              0xffffffffffffffffffffffffffffffffffffffff\n              and\n              0xffffffffffffffffffffffffffffffffffffffff\n              and\n              dup2\n              mstore\n              0x20\n              add\n              swap1\n              dup2\n              mstore\n              0x20\n              add\n              0x00\n              keccak256\n              sload\n                /* \"contracts/DataPunk/DataPunkCoin.sol\":3756:3812  uint256 senderAllowance = allowances[sender][msg.sender] */\n              swap1\n              pop\n                /* \"contracts/DataPunk/DataPunkCoin.sol\":3903:3909  amount */\n              dup3\n                /* \"contracts/DataPunk/DataPunkCoin.sol\":3884:3899  senderAllowance */\n              dup2\n                /* \"contracts/DataPunk/DataPunkCoin.sol\":3884:3909  senderAllowance >= amount */\n              lt\n              iszero\n                /* \"contracts/DataPunk/DataPunkCoin.sol\":3876:3943  require(senderAllowance >= amount, \"ERC20: insufficient allowance\") */\n              tag_63\n              jumpi\n              mload(0x40)\n              0x08c379a000000000000000000000000000000000000000000000000000000000\n              dup2\n              mstore\n              0x04\n              add\n              tag_64\n              swap1\n              tag_65\n              jump\t// in\n            tag_64:\n              mload(0x40)\n              dup1\n              swap2\n              sub\n              swap1\n              revert\n            tag_63:\n                /* \"contracts/DataPunk/DataPunkCoin.sol\":4015:4021  amount */\n              dup3\n                /* \"contracts/DataPunk/DataPunkCoin.sol\":3995:4003  balances */\n              0x01\n                /* \"contracts/DataPunk/DataPunkCoin.sol\":3995:4011  balances[sender] */\n              0x00\n                /* \"contracts/DataPunk/DataPunkCoin.sol\":4004:4010  sender */\n              dup8\n                /* \"contracts/DataPunk/DataPunkCoin.sol\":3995:4011  balances[sender] */\n              0xffffffffffffffffffffffffffffffffffffffff\n              and\n              0xffffffffffffffffffffffffffffffffffffffff\n              and\n              dup2\n              mstore\n              0x20\n              add\n              swap1\n              dup2\n              mstore\n              0x20\n              add\n              0x00\n              keccak256\n              0x00\n                /* \"contracts/DataPunk/DataPunkCoin.sol\":3995:4021  balances[sender] -= amount */\n              dup3\n              dup3\n              sload\n              tag_66\n              swap2\n              swap1\n              tag_67\n              jump\t// in\n            tag_66:\n              swap3\n              pop\n              pop\n              dup2\n              swap1\n              sstore\n              pop\n                /* \"contracts/DataPunk/DataPunkCoin.sol\":4096:4102  amount */\n              dup3\n                /* \"contracts/DataPunk/DataPunkCoin.sol\":4073:4081  balances */\n              0x01\n                /* \"contracts/DataPunk/DataPunkCoin.sol\":4073:4092  balances[recipient] */\n              0x00\n                /* \"contracts/DataPunk/DataPunkCoin.sol\":4082:4091  recipient */\n              dup7\n                /* \"contracts/DataPunk/DataPunkCoin.sol\":4073:4092  balances[recipient] */\n              0xffffffffffffffffffffffffffffffffffffffff\n              and\n              0xffffffffffffffffffffffffffffffffffffffff\n              and\n              dup2\n              mstore\n              0x20\n              add\n              swap1\n              dup2\n              mstore\n              0x20\n              add\n              0x00\n              keccak256\n              0x00\n                /* \"contracts/DataPunk/DataPunkCoin.sol\":4073:4102  balances[recipient] += amount */\n              dup3\n              dup3\n              sload\n              tag_68\n              swap2\n              swap1\n              tag_69\n              jump\t// in\n            tag_68:\n              swap3\n              pop\n              pop\n              dup2\n              swap1\n              sstore\n              pop\n                /* \"contracts/DataPunk/DataPunkCoin.sol\":4135:4152  type(uint256).max */\n              0xffffffffffffffffffffffffffffffffffffffffffffffffffffffffffffffff\n                /* \"contracts/DataPunk/DataPunkCoin.sol\":4116:4131  senderAllowance */\n              dup2\n                /* \"contracts/DataPunk/DataPunkCoin.sol\":4116:4152  senderAllowance != type(uint256).max */\n              eq\n                /* \"contracts/DataPunk/DataPunkCoin.sol\":4112:4486  if (senderAllowance != type(uint256).max) {... */\n              tag_70\n              jumpi\n                /* \"contracts/DataPunk/DataPunkCoin.sol\":4228:4248  uint256 newAllowance */\n              0x00\n                /* \"contracts/DataPunk/DataPunkCoin.sol\":4269:4275  amount */\n              dup4\n                /* \"contracts/DataPunk/DataPunkCoin.sol\":4251:4266  senderAllowance */\n              dup3\n                /* \"contracts/DataPunk/DataPunkCoin.sol\":4251:4275  senderAllowance - amount */\n              tag_71\n              swap2\n              swap1\n              tag_67\n              jump\t// in\n            tag_71:\n                /* \"contracts/DataPunk/DataPunkCoin.sol\":4228:4275  uint256 newAllowance = senderAllowance - amount */\n              swap1\n              pop\n                /* \"contracts/DataPunk/DataPunkCoin.sol\":4320:4332  newAllowance */\n              dup1\n                /* \"contracts/DataPunk/DataPunkCoin.sol\":4287:4297  allowances */\n              0x02\n                /* \"contracts/DataPunk/DataPunkCoin.sol\":4287:4305  allowances[sender] */\n              0x00\n                /* \"contracts/DataPunk/DataPunkCoin.sol\":4298:4304  sender */\n              dup9\n                /* \"contracts/DataPunk/DataPunkCoin.sol\":4287:4305  allowances[sender] */\n              0xffffffffffffffffffffffffffffffffffffffff\n              and\n              0xffffffffffffffffffffffffffffffffffffffff\n              and\n              dup2\n              mstore\n              0x20\n              add\n              swap1\n              dup2\n              mstore\n              0x20\n              add\n              0x00\n              keccak256\n                /* \"contracts/DataPunk/DataPunkCoin.sol\":4287:4317  allowances[sender][msg.sender] */\n              0x00\n                /* \"contracts/DataPunk/DataPunkCoin.sol\":4306:4316  msg.sender */\n              caller\n                /* \"contracts/DataPunk/DataPunkCoin.sol\":4287:4317  allowances[sender][msg.sender] */\n              0xffffffffffffffffffffffffffffffffffffffff\n              and\n              0xffffffffffffffffffffffffffffffffffffffff\n              and\n              dup2\n              mstore\n              0x20\n              add\n              swap1\n              dup2\n              mstore\n              0x20\n              add\n              0x00\n              keccak256\n                /* \"contracts/DataPunk/DataPunkCoin.sol\":4287:4332  allowances[sender][msg.sender] = newAllowance */\n              dup2\n              swap1\n              sstore\n              pop\n                /* \"contracts/DataPunk/DataPunkCoin.sol\":4450:4460  msg.sender */\n              caller\n                /* \"contracts/DataPunk/DataPunkCoin.sol\":4433:4475  Approval(sender, msg.sender, newAllowance) */\n              0xffffffffffffffffffffffffffffffffffffffff\n              and\n                /* \"contracts/DataPunk/DataPunkCoin.sol\":4442:4448  sender */\n              dup7\n                /* \"contracts/DataPunk/DataPunkCoin.sol\":4433:4475  Approval(sender, msg.sender, newAllowance) */\n              0xffffffffffffffffffffffffffffffffffffffff\n              and\n              0x8c5be1e5ebec7d5bd14f71427d1e84f3dd0314c0f7b2291e5b200ac8c7c3b925\n                /* \"contracts/DataPunk/DataPunkCoin.sol\":4462:4474  newAllowance */\n              dup4\n                /* \"contracts/DataPunk/DataPunkCoin.sol\":4433:4475  Approval(sender, msg.sender, newAllowance) */\n              mload(0x40)\n              tag_72\n              swap2\n              swap1\n              tag_26\n              jump\t// in\n            tag_72:\n              mload(0x40)\n              dup1\n              swap2\n              sub\n              swap1\n              log3\n                /* \"contracts/DataPunk/DataPunkCoin.sol\":4154:4486  {... */\n              pop\n                /* \"contracts/DataPunk/DataPunkCoin.sol\":4112:4486  if (senderAllowance != type(uint256).max) {... */\n            tag_70:\n                /* \"contracts/DataPunk/DataPunkCoin.sol\":4538:4542  true */\n              0x01\n                /* \"contracts/DataPunk/DataPunkCoin.sol\":4531:4542  return true */\n              swap2\n              pop\n              pop\n                /* \"contracts/DataPunk/DataPunkCoin.sol\":3276:4549  function transferFrom(address sender, address recipient, uint256 amount) ... */\n              swap4\n              swap3\n              pop\n              pop\n              pop\n              jump\t// out\n                /* \"contracts/DataPunk/DataPunkCoin.sol\":255:290  uint8 public constant decimals = 18 */\n            tag_33:\n                /* \"contracts/DataPunk/DataPunkCoin.sol\":288:290  18 */\n              0x12\n                /* \"contracts/DataPunk/DataPunkCoin.sol\":255:290  uint8 public constant decimals = 18 */\n              dup2\n              jump\t// out\n                /* \"contracts/DataPunk/DataPunkCoin.sol\":1211:1478  function balanceOf(address account) external view returns (uint256) {... */\n            tag_39:\n                /* \"contracts/DataPunk/DataPunkCoin.sol\":1270:1277  uint256 */\n              0x00\n                /* \"contracts/DataPunk/DataPunkCoin.sol\":1454:1462  balances */\n              0x01\n                /* \"contracts/DataPunk/DataPunkCoin.sol\":1454:1471  balances[account] */\n              0x00\n                /* \"contracts/DataPunk/DataPunkCoin.sol\":1463:1470  account */\n              dup4\n                /* \"contracts/DataPunk/DataPunkCoin.sol\":1454:1471  balances[account] */\n              0xffffffffffffffffffffffffffffffffffffffff\n              and\n              0xffffffffffffffffffffffffffffffffffffffff\n              and\n              dup2\n              mstore\n              0x20\n              add\n              swap1\n              dup2\n              mstore\n              0x20\n              add\n              0x00\n              keccak256\n              sload\n                /* \"contracts/DataPunk/DataPunkCoin.sol\":1447:1471  return balances[account] */\n              swap1\n              pop\n                /* \"contracts/DataPunk/DataPunkCoin.sol\":1211:1478  function balanceOf(address account) external view returns (uint256) {... */\n              swap2\n              swap1\n              pop\n              jump\t// out\n                /* \"contracts/DataPunk/DataPunkCoin.sol\":196:233  string public constant symbol = \"DPC\" */\n            tag_42:\n              mload(0x40)\n              dup1\n              0x40\n              add\n              0x40\n              mstore\n              dup1\n              0x03\n              dup2\n              mstore\n              0x20\n              add\n              0x4450430000000000000000000000000000000000000000000000000000000000\n              dup2\n              mstore\n              pop\n              dup2\n              jump\t// out\n                /* \"contracts/DataPunk/DataPunkCoin.sol\":1562:2316  function transfer(address recipient, uint256 amount) external returns (bool) {... */\n            tag_46:\n                /* \"contracts/DataPunk/DataPunkCoin.sol\":1633:1637  bool */\n              0x00\n                /* \"contracts/DataPunk/DataPunkCoin.sol\":1729:1730  0 */\n              dup1\n                /* \"contracts/DataPunk/DataPunkCoin.sol\":1708:1731  recipient != address(0) */\n              0xffffffffffffffffffffffffffffffffffffffff\n              and\n                /* \"contracts/DataPunk/DataPunkCoin.sol\":1708:1717  recipient */\n              dup4\n                /* \"contracts/DataPunk/DataPunkCoin.sol\":1708:1731  recipient != address(0) */\n              0xffffffffffffffffffffffffffffffffffffffff\n              and\n              sub\n                /* \"contracts/DataPunk/DataPunkCoin.sol\":1700:1781  require(recipient != address(0),... */\n              tag_75\n              jumpi\n              mload(0x40)\n              0x08c379a000000000000000000000000000000000000000000000000000000000\n              dup2\n              mstore\n              0x04\n              add\n              tag_76\n              swap1\n              tag_59\n              jump\t// in\n            tag_76:\n              mload(0x40)\n              dup1\n              swap2\n              sub\n              swap1\n              revert\n            tag_75:\n                /* \"contracts/DataPunk/DataPunkCoin.sol\":1898:1904  amount */\n              dup2\n                /* \"contracts/DataPunk/DataPunkCoin.sol\":1874:1882  balances */\n              0x01\n                /* \"contracts/DataPunk/DataPunkCoin.sol\":1874:1894  balances[msg.sender] */\n              0x00\n                /* \"contracts/DataPunk/DataPunkCoin.sol\":1883:1893  msg.sender */\n              caller\n                /* \"contracts/DataPunk/DataPunkCoin.sol\":1874:1894  balances[msg.sender] */\n              0xffffffffffffffffffffffffffffffffffffffff\n              and\n              0xffffffffffffffffffffffffffffffffffffffff\n              and\n              dup2\n              mstore\n              0x20\n              add\n              swap1\n              dup2\n              mstore\n              0x20\n              add\n              0x00\n              keccak256\n              sload\n                /* \"contracts/DataPunk/DataPunkCoin.sol\":1874:1904  balances[msg.sender] >= amount */\n              lt\n              iszero\n                /* \"contracts/DataPunk/DataPunkCoin.sol\":1866:1959  require(balances[msg.sender] >= amount, ... */\n              tag_77\n              jumpi\n              mload(0x40)\n              0x08c379a000000000000000000000000000000000000000000000000000000000\n              dup2\n              mstore\n              0x04\n              add\n              tag_78\n              swap1\n              tag_79\n              jump\t// in\n            tag_78:\n              mload(0x40)\n              dup1\n              swap2\n              sub\n              swap1\n              revert\n            tag_77:\n                /* \"contracts/DataPunk/DataPunkCoin.sol\":2035:2041  amount */\n              dup2\n                /* \"contracts/DataPunk/DataPunkCoin.sol\":2011:2019  balances */\n              0x01\n                /* \"contracts/DataPunk/DataPunkCoin.sol\":2011:2031  balances[msg.sender] */\n              0x00\n                /* \"contracts/DataPunk/DataPunkCoin.sol\":2020:2030  msg.sender */\n              caller\n                /* \"contracts/DataPunk/DataPunkCoin.sol\":2011:2031  balances[msg.sender] */\n              0xffffffffffffffffffffffffffffffffffffffff\n              and\n              0xffffffffffffffffffffffffffffffffffffffff\n              and\n              dup2\n              mstore\n              0x20\n              add\n              swap1\n              dup2\n              mstore\n              0x20\n              add\n              0x00\n              keccak256\n              0x00\n                /* \"contracts/DataPunk/DataPunkCoin.sol\":2011:2041  balances[msg.sender] -= amount */\n              dup3\n              dup3\n              sload\n              tag_80\n              swap2\n              swap1\n              tag_67\n              jump\t// in\n            tag_80:\n              swap3\n              pop\n              pop\n              dup2\n              swap1\n              sstore\n              pop\n                /* \"contracts/DataPunk/DataPunkCoin.sol\":2116:2122  amount */\n              dup2\n                /* \"contracts/DataPunk/DataPunkCoin.sol\":2093:2101  balances */\n              0x01\n                /* \"contracts/DataPunk/DataPunkCoin.sol\":2093:2112  balances[recipient] */\n              0x00\n                /* \"contracts/DataPunk/DataPunkCoin.sol\":2102:2111  recipient */\n              dup6\n                /* \"contracts/DataPunk/DataPunkCoin.sol\":2093:2112  balances[recipient] */\n              0xffffffffffffffffffffffffffffffffffffffff\n              and\n              0xffffffffffffffffffffffffffffffffffffffff\n              and\n              dup2\n              mstore\n              0x20\n              add\n              swap1\n              dup2\n              mstore\n              0x20\n              add\n              0x00\n              keccak256\n              0x00\n                /* \"contracts/DataPunk/DataPunkCoin.sol\":2093:2122  balances[recipient] += amount */\n              dup3\n              dup3\n              sload\n              tag_81\n              swap2\n              swap1\n              tag_69\n              jump\t// in\n            tag_81:\n              swap3\n              pop\n              pop\n              dup2\n              swap1\n              sstore\n              pop\n                /* \"contracts/DataPunk/DataPunkCoin.sol\":2234:2243  recipient */\n              dup3\n                /* \"contracts/DataPunk/DataPunkCoin.sol\":2213:2252  Transfer(msg.sender, recipient, amount) */\n              0xffffffffffffffffffffffffffffffffffffffff\n              and\n                /* \"contracts/DataPunk/DataPunkCoin.sol\":2222:2232  msg.sender */\n              caller\n                /* \"contracts/DataPunk/DataPunkCoin.sol\":2213:2252  Transfer(msg.sender, recipient, amount) */\n              0xffffffffffffffffffffffffffffffffffffffff\n              and\n              0xddf252ad1be2c89b69c2b068fc378daa952ba7f163c4a11628f55a4df523b3ef\n                /* \"contracts/DataPunk/DataPunkCoin.sol\":2245:2251  amount */\n              dup5\n                /* \"contracts/DataPunk/DataPunkCoin.sol\":2213:2252  Transfer(msg.sender, recipient, amount) */\n              mload(0x40)\n              tag_82\n              swap2\n              swap1\n              tag_26\n              jump\t// in\n            tag_82:\n              mload(0x40)\n              dup1\n              swap2\n              sub\n              swap1\n              log3\n                /* \"contracts/DataPunk/DataPunkCoin.sol\":2305:2309  true */\n              0x01\n                /* \"contracts/DataPunk/DataPunkCoin.sol\":2298:2309  return true */\n              swap1\n              pop\n                /* \"contracts/DataPunk/DataPunkCoin.sol\":1562:2316  function transfer(address recipient, uint256 amount) external returns (bool) {... */\n              swap3\n              swap2\n              pop\n              pop\n              jump\t// out\n                /* \"contracts/DataPunk/DataPunkCoin.sol\":2400:2683  function allowance(address owner, address spender)... */\n            tag_51:\n                /* \"contracts/DataPunk/DataPunkCoin.sol\":2482:2489  uint256 */\n              0x00\n                /* \"contracts/DataPunk/DataPunkCoin.sol\":2650:2660  allowances */\n              0x02\n                /* \"contracts/DataPunk/DataPunkCoin.sol\":2650:2667  allowances[owner] */\n              0x00\n                /* \"contracts/DataPunk/DataPunkCoin.sol\":2661:2666  owner */\n              dup5\n                /* \"contracts/DataPunk/DataPunkCoin.sol\":2650:2667  allowances[owner] */\n              0xffffffffffffffffffffffffffffffffffffffff\n              and\n              0xffffffffffffffffffffffffffffffffffffffff\n              and\n              dup2\n              mstore\n              0x20\n              add\n              swap1\n              dup2\n              mstore\n              0x20\n              add\n              0x00\n              keccak256\n                /* \"contracts/DataPunk/DataPunkCoin.sol\":2650:2676  allowances[owner][spender] */\n              0x00\n                /* \"contracts/DataPunk/DataPunkCoin.sol\":2668:2675  spender */\n              dup4\n                /* \"contracts/DataPunk/DataPunkCoin.sol\":2650:2676  allowances[owner][spender] */\n              0xffffffffffffffffffffffffffffffffffffffff\n              and\n              0xffffffffffffffffffffffffffffffffffffffff\n              and\n              dup2\n              mstore\n              0x20\n              add\n              swap1\n              dup2\n              mstore\n              0x20\n              add\n              0x00\n              keccak256\n              sload\n                /* \"contracts/DataPunk/DataPunkCoin.sol\":2643:2676  return allowances[owner][spender] */\n              swap1\n              pop\n                /* \"contracts/DataPunk/DataPunkCoin.sol\":2400:2683  function allowance(address owner, address spender)... */\n              swap3\n              swap2\n              pop\n              pop\n              jump\t// out\n                /* \"#utility.yul\":7:106   */\n            tag_84:\n                /* \"#utility.yul\":59:65   */\n              0x00\n                /* \"#utility.yul\":93:98   */\n              dup2\n                /* \"#utility.yul\":87:99   */\n              mload\n                /* \"#utility.yul\":77:99   */\n              swap1\n              pop\n                /* \"#utility.yul\":7:106   */\n              swap2\n              swap1\n              pop\n              jump\t// out\n                /* \"#utility.yul\":112:281   */\n            tag_85:\n                /* \"#utility.yul\":196:207   */\n              0x00\n                /* \"#utility.yul\":230:236   */\n              dup3\n                /* \"#utility.yul\":225:228   */\n              dup3\n                /* \"#utility.yul\":218:237   */\n              mstore\n                /* \"#utility.yul\":270:274   */\n              0x20\n                /* \"#utility.yul\":265:268   */\n              dup3\n                /* \"#utility.yul\":261:275   */\n              add\n                /* \"#utility.yul\":246:275   */\n              swap1\n              pop\n                /* \"#utility.yul\":112:281   */\n              swap3\n              swap2\n              pop\n              pop\n              jump\t// out\n                /* \"#utility.yul\":287:426   */\n            tag_86:\n                /* \"#utility.yul\":376:382   */\n              dup3\n                /* \"#utility.yul\":371:374   */\n              dup2\n                /* \"#utility.yul\":366:369   */\n              dup4\n                /* \"#utility.yul\":360:383   */\n              mcopy\n                /* \"#utility.yul\":417:418   */\n              0x00\n                /* \"#utility.yul\":408:414   */\n              dup4\n                /* \"#utility.yul\":403:406   */\n              dup4\n                /* \"#utility.yul\":399:415   */\n              add\n                /* \"#utility.yul\":392:419   */\n              mstore\n                /* \"#utility.yul\":287:426   */\n              pop\n              pop\n              pop\n              jump\t// out\n                /* \"#utility.yul\":432:534   */\n            tag_87:\n                /* \"#utility.yul\":473:479   */\n              0x00\n                /* \"#utility.yul\":524:526   */\n              0x1f\n                /* \"#utility.yul\":520:527   */\n              not\n                /* \"#utility.yul\":515:517   */\n              0x1f\n                /* \"#utility.yul\":508:513   */\n              dup4\n                /* \"#utility.yul\":504:518   */\n              add\n                /* \"#utility.yul\":500:528   */\n              and\n                /* \"#utility.yul\":490:528   */\n              swap1\n              pop\n                /* \"#utility.yul\":432:534   */\n              swap2\n              swap1\n              pop\n              jump\t// out\n                /* \"#utility.yul\":540:917   */\n            tag_88:\n                /* \"#utility.yul\":628:631   */\n              0x00\n                /* \"#utility.yul\":656:695   */\n              tag_119\n                /* \"#utility.yul\":689:694   */\n              dup3\n                /* \"#utility.yul\":656:695   */\n              tag_84\n              jump\t// in\n            tag_119:\n                /* \"#utility.yul\":711:782   */\n              tag_120\n                /* \"#utility.yul\":775:781   */\n              dup2\n                /* \"#utility.yul\":770:773   */\n              dup6\n                /* \"#utility.yul\":711:782   */\n              tag_85\n              jump\t// in\n            tag_120:\n                /* \"#utility.yul\":704:782   */\n              swap4\n              pop\n                /* \"#utility.yul\":791:856   */\n              tag_121\n                /* \"#utility.yul\":849:855   */\n              dup2\n                /* \"#utility.yul\":844:847   */\n              dup6\n                /* \"#utility.yul\":837:841   */\n              0x20\n                /* \"#utility.yul\":830:835   */\n              dup7\n                /* \"#utility.yul\":826:842   */\n              add\n                /* \"#utility.yul\":791:856   */\n              tag_86\n              jump\t// in\n            tag_121:\n                /* \"#utility.yul\":881:910   */\n              tag_122\n                /* \"#utility.yul\":903:909   */\n              dup2\n                /* \"#utility.yul\":881:910   */\n              tag_87\n              jump\t// in\n            tag_122:\n                /* \"#utility.yul\":876:879   */\n              dup5\n                /* \"#utility.yul\":872:911   */\n              add\n                /* \"#utility.yul\":865:911   */\n              swap2\n              pop\n                /* \"#utility.yul\":632:917   */\n              pop\n                /* \"#utility.yul\":540:917   */\n              swap3\n              swap2\n              pop\n              pop\n              jump\t// out\n                /* \"#utility.yul\":923:1236   */\n            tag_16:\n                /* \"#utility.yul\":1036:1040   */\n              0x00\n                /* \"#utility.yul\":1074:1076   */\n              0x20\n                /* \"#utility.yul\":1063:1072   */\n              dup3\n                /* \"#utility.yul\":1059:1077   */\n              add\n                /* \"#utility.yul\":1051:1077   */\n              swap1\n              pop\n                /* \"#utility.yul\":1123:1132   */\n              dup2\n                /* \"#utility.yul\":1117:1121   */\n              dup2\n                /* \"#utility.yul\":1113:1133   */\n              sub\n                /* \"#utility.yul\":1109:1110   */\n              0x00\n                /* \"#utility.yul\":1098:1107   */\n              dup4\n                /* \"#utility.yul\":1094:1111   */\n              add\n                /* \"#utility.yul\":1087:1134   */\n              mstore\n                /* \"#utility.yul\":1151:1229   */\n              tag_124\n                /* \"#utility.yul\":1224:1228   */\n              dup2\n                /* \"#utility.yul\":1215:1221   */\n              dup5\n                /* \"#utility.yul\":1151:1229   */\n              tag_88\n              jump\t// in\n            tag_124:\n                /* \"#utility.yul\":1143:1229   */\n              swap1\n              pop\n                /* \"#utility.yul\":923:1236   */\n              swap3\n              swap2\n              pop\n              pop\n              jump\t// out\n                /* \"#utility.yul\":1323:1440   */\n            tag_90:\n                /* \"#utility.yul\":1432:1433   */\n              0x00\n                /* \"#utility.yul\":1429:1430   */\n              dup1\n                /* \"#utility.yul\":1422:1434   */\n              revert\n                /* \"#utility.yul\":1569:1695   */\n            tag_92:\n                /* \"#utility.yul\":1606:1613   */\n              0x00\n                /* \"#utility.yul\":1646:1688   */\n              0xffffffffffffffffffffffffffffffffffffffff\n                /* \"#utility.yul\":1639:1644   */\n              dup3\n                /* \"#utility.yul\":1635:1689   */\n              and\n                /* \"#utility.yul\":1624:1689   */\n              swap1\n              pop\n                /* \"#utility.yul\":1569:1695   */\n              swap2\n              swap1\n              pop\n              jump\t// out\n                /* \"#utility.yul\":1701:1797   */\n            tag_93:\n                /* \"#utility.yul\":1738:1745   */\n              0x00\n                /* \"#utility.yul\":1767:1791   */\n              tag_130\n                /* \"#utility.yul\":1785:1790   */\n              dup3\n                /* \"#utility.yul\":1767:1791   */\n              tag_92\n              jump\t// in\n            tag_130:\n                /* \"#utility.yul\":1756:1791   */\n              swap1\n              pop\n                /* \"#utility.yul\":1701:1797   */\n              swap2\n              swap1\n              pop\n              jump\t// out\n                /* \"#utility.yul\":1803:1925   */\n            tag_94:\n                /* \"#utility.yul\":1876:1900   */\n              tag_132\n                /* \"#utility.yul\":1894:1899   */\n              dup2\n                /* \"#utility.yul\":1876:1900   */\n              tag_93\n              jump\t// in\n            tag_132:\n                /* \"#utility.yul\":1869:1874   */\n              dup2\n                /* \"#utility.yul\":1866:1901   */\n              eq\n                /* \"#utility.yul\":1856:1919   */\n              tag_133\n              jumpi\n                /* \"#utility.yul\":1915:1916   */\n              0x00\n                /* \"#utility.yul\":1912:1913   */\n              dup1\n                /* \"#utility.yul\":1905:1917   */\n              revert\n                /* \"#utility.yul\":1856:1919   */\n            tag_133:\n                /* \"#utility.yul\":1803:1925   */\n              pop\n              jump\t// out\n                /* \"#utility.yul\":1931:2070   */\n            tag_95:\n                /* \"#utility.yul\":1977:1982   */\n              0x00\n                /* \"#utility.yul\":2015:2021   */\n              dup2\n                /* \"#utility.yul\":2002:2022   */\n              calldataload\n                /* \"#utility.yul\":1993:2022   */\n              swap1\n              pop\n                /* \"#utility.yul\":2031:2064   */\n              tag_135\n                /* \"#utility.yul\":2058:2063   */\n              dup2\n                /* \"#utility.yul\":2031:2064   */\n              tag_94\n              jump\t// in\n            tag_135:\n                /* \"#utility.yul\":1931:2070   */\n              swap3\n              swap2\n              pop\n              pop\n              jump\t// out\n                /* \"#utility.yul\":2076:2153   */\n            tag_96:\n                /* \"#utility.yul\":2113:2120   */\n              0x00\n                /* \"#utility.yul\":2142:2147   */\n              dup2\n                /* \"#utility.yul\":2131:2147   */\n              swap1\n              pop\n                /* \"#utility.yul\":2076:2153   */\n              swap2\n              swap1\n              pop\n              jump\t// out\n                /* \"#utility.yul\":2159:2281   */\n            tag_97:\n                /* \"#utility.yul\":2232:2256   */\n              tag_138\n                /* \"#utility.yul\":2250:2255   */\n              dup2\n                /* \"#utility.yul\":2232:2256   */\n              tag_96\n              jump\t// in\n            tag_138:\n                /* \"#utility.yul\":2225:2230   */\n              dup2\n                /* \"#utility.yul\":2222:2257   */\n              eq\n                /* \"#utility.yul\":2212:2275   */\n              tag_139\n              jumpi\n                /* \"#utility.yul\":2271:2272   */\n              0x00\n                /* \"#utility.yul\":2268:2269   */\n              dup1\n                /* \"#utility.yul\":2261:2273   */\n              revert\n                /* \"#utility.yul\":2212:2275   */\n            tag_139:\n                /* \"#utility.yul\":2159:2281   */\n              pop\n              jump\t// out\n                /* \"#utility.yul\":2287:2426   */\n            tag_98:\n                /* \"#utility.yul\":2333:2338   */\n              0x00\n                /* \"#utility.yul\":2371:2377   */\n              dup2\n                /* \"#utility.yul\":2358:2378   */\n              calldataload\n                /* \"#utility.yul\":2349:2378   */\n              swap1\n              pop\n                /* \"#utility.yul\":2387:2420   */\n              tag_141\n                /* \"#utility.yul\":2414:2419   */\n              dup2\n                /* \"#utility.yul\":2387:2420   */\n              tag_97\n              jump\t// in\n            tag_141:\n                /* \"#utility.yul\":2287:2426   */\n              swap3\n              swap2\n              pop\n              pop\n              jump\t// out\n                /* \"#utility.yul\":2432:2906   */\n            tag_19:\n                /* \"#utility.yul\":2500:2506   */\n              0x00\n                /* \"#utility.yul\":2508:2514   */\n              dup1\n                /* \"#utility.yul\":2557:2559   */\n              0x40\n                /* \"#utility.yul\":2545:2554   */\n              dup4\n                /* \"#utility.yul\":2536:2543   */\n              dup6\n                /* \"#utility.yul\":2532:2555   */\n              sub\n                /* \"#utility.yul\":2528:2560   */\n              slt\n                /* \"#utility.yul\":2525:2644   */\n              iszero\n              tag_143\n              jumpi\n                /* \"#utility.yul\":2563:2642   */\n              tag_144\n              tag_90\n              jump\t// in\n            tag_144:\n                /* \"#utility.yul\":2525:2644   */\n            tag_143:\n                /* \"#utility.yul\":2683:2684   */\n              0x00\n                /* \"#utility.yul\":2708:2761   */\n              tag_145\n                /* \"#utility.yul\":2753:2760   */\n              dup6\n                /* \"#utility.yul\":2744:2750   */\n              dup3\n                /* \"#utility.yul\":2733:2742   */\n              dup7\n                /* \"#utility.yul\":2729:2751   */\n              add\n                /* \"#utility.yul\":2708:2761   */\n              tag_95\n              jump\t// in\n            tag_145:\n                /* \"#utility.yul\":2698:2761   */\n              swap3\n              pop\n                /* \"#utility.yul\":2654:2771   */\n              pop\n                /* \"#utility.yul\":2810:2812   */\n              0x20\n                /* \"#utility.yul\":2836:2889   */\n              tag_146\n                /* \"#utility.yul\":2881:2888   */\n              dup6\n                /* \"#utility.yul\":2872:2878   */\n              dup3\n                /* \"#utility.yul\":2861:2870   */\n              dup7\n                /* \"#utility.yul\":2857:2879   */\n              add\n                /* \"#utility.yul\":2836:2889   */\n              tag_98\n              jump\t// in\n            tag_146:\n                /* \"#utility.yul\":2826:2889   */\n              swap2\n              pop\n                /* \"#utility.yul\":2781:2899   */\n              pop\n                /* \"#utility.yul\":2432:2906   */\n              swap3\n              pop\n              swap3\n              swap1\n              pop\n              jump\t// out\n                /* \"#utility.yul\":2912:3002   */\n            tag_99:\n                /* \"#utility.yul\":2946:2953   */\n              0x00\n                /* \"#utility.yul\":2989:2994   */\n              dup2\n                /* \"#utility.yul\":2982:2995   */\n              iszero\n                /* \"#utility.yul\":2975:2996   */\n              iszero\n                /* \"#utility.yul\":2964:2996   */\n              swap1\n              pop\n                /* \"#utility.yul\":2912:3002   */\n              swap2\n              swap1\n              pop\n              jump\t// out\n                /* \"#utility.yul\":3008:3117   */\n            tag_100:\n                /* \"#utility.yul\":3089:3110   */\n              tag_149\n                /* \"#utility.yul\":3104:3109   */\n              dup2\n                /* \"#utility.yul\":3089:3110   */\n              tag_99\n              jump\t// in\n            tag_149:\n                /* \"#utility.yul\":3084:3087   */\n              dup3\n                /* \"#utility.yul\":3077:3111   */\n              mstore\n                /* \"#utility.yul\":3008:3117   */\n              pop\n              pop\n              jump\t// out\n                /* \"#utility.yul\":3123:3333   */\n            tag_22:\n                /* \"#utility.yul\":3210:3214   */\n              0x00\n                /* \"#utility.yul\":3248:3250   */\n              0x20\n                /* \"#utility.yul\":3237:3246   */\n              dup3\n                /* \"#utility.yul\":3233:3251   */\n              add\n                /* \"#utility.yul\":3225:3251   */\n              swap1\n              pop\n                /* \"#utility.yul\":3261:3326   */\n              tag_151\n                /* \"#utility.yul\":3323:3324   */\n              0x00\n                /* \"#utility.yul\":3312:3321   */\n              dup4\n                /* \"#utility.yul\":3308:3325   */\n              add\n                /* \"#utility.yul\":3299:3305   */\n              dup5\n                /* \"#utility.yul\":3261:3326   */\n              tag_100\n              jump\t// in\n            tag_151:\n                /* \"#utility.yul\":3123:3333   */\n              swap3\n              swap2\n              pop\n              pop\n              jump\t// out\n                /* \"#utility.yul\":3339:3457   */\n            tag_101:\n                /* \"#utility.yul\":3426:3450   */\n              tag_153\n                /* \"#utility.yul\":3444:3449   */\n              dup2\n                /* \"#utility.yul\":3426:3450   */\n              tag_96\n              jump\t// in\n            tag_153:\n                /* \"#utility.yul\":3421:3424   */\n              dup3\n                /* \"#utility.yul\":3414:3451   */\n              mstore\n                /* \"#utility.yul\":3339:3457   */\n              pop\n              pop\n              jump\t// out\n                /* \"#utility.yul\":3463:3685   */\n            tag_26:\n                /* \"#utility.yul\":3556:3560   */\n              0x00\n                /* \"#utility.yul\":3594:3596   */\n              0x20\n                /* \"#utility.yul\":3583:3592   */\n              dup3\n                /* \"#utility.yul\":3579:3597   */\n              add\n                /* \"#utility.yul\":3571:3597   */\n              swap1\n              pop\n                /* \"#utility.yul\":3607:3678   */\n              tag_155\n                /* \"#utility.yul\":3675:3676   */\n              0x00\n                /* \"#utility.yul\":3664:3673   */\n              dup4\n                /* \"#utility.yul\":3660:3677   */\n              add\n                /* \"#utility.yul\":3651:3657   */\n              dup5\n                /* \"#utility.yul\":3607:3678   */\n              tag_101\n              jump\t// in\n            tag_155:\n                /* \"#utility.yul\":3463:3685   */\n              swap3\n              swap2\n              pop\n              pop\n              jump\t// out\n                /* \"#utility.yul\":3691:4310   */\n            tag_29:\n                /* \"#utility.yul\":3768:3774   */\n              0x00\n                /* \"#utility.yul\":3776:3782   */\n              dup1\n                /* \"#utility.yul\":3784:3790   */\n              0x00\n                /* \"#utility.yul\":3833:3835   */\n              0x60\n                /* \"#utility.yul\":3821:3830   */\n              dup5\n                /* \"#utility.yul\":3812:3819   */\n              dup7\n                /* \"#utility.yul\":3808:3831   */\n              sub\n                /* \"#utility.yul\":3804:3836   */\n              slt\n                /* \"#utility.yul\":3801:3920   */\n              iszero\n              tag_157\n              jumpi\n                /* \"#utility.yul\":3839:3918   */\n              tag_158\n              tag_90\n              jump\t// in\n            tag_158:\n                /* \"#utility.yul\":3801:3920   */\n            tag_157:\n                /* \"#utility.yul\":3959:3960   */\n              0x00\n                /* \"#utility.yul\":3984:4037   */\n              tag_159\n                /* \"#utility.yul\":4029:4036   */\n              dup7\n                /* \"#utility.yul\":4020:4026   */\n              dup3\n                /* \"#utility.yul\":4009:4018   */\n              dup8\n                /* \"#utility.yul\":4005:4027   */\n              add\n                /* \"#utility.yul\":3984:4037   */\n              tag_95\n              jump\t// in\n            tag_159:\n                /* \"#utility.yul\":3974:4037   */\n              swap4\n              pop\n                /* \"#utility.yul\":3930:4047   */\n              pop\n                /* \"#utility.yul\":4086:4088   */\n              0x20\n                /* \"#utility.yul\":4112:4165   */\n              tag_160\n                /* \"#utility.yul\":4157:4164   */\n              dup7\n                /* \"#utility.yul\":4148:4154   */\n              dup3\n                /* \"#utility.yul\":4137:4146   */\n              dup8\n                /* \"#utility.yul\":4133:4155   */\n              add\n                /* \"#utility.yul\":4112:4165   */\n              tag_95\n              jump\t// in\n            tag_160:\n                /* \"#utility.yul\":4102:4165   */\n              swap3\n              pop\n                /* \"#utility.yul\":4057:4175   */\n              pop\n                /* \"#utility.yul\":4214:4216   */\n              0x40\n                /* \"#utility.yul\":4240:4293   */\n              tag_161\n                /* \"#utility.yul\":4285:4292   */\n              dup7\n                /* \"#utility.yul\":4276:4282   */\n              dup3\n                /* \"#utility.yul\":4265:4274   */\n              dup8\n                /* \"#utility.yul\":4261:4283   */\n              add\n                /* \"#utility.yul\":4240:4293   */\n              tag_98\n              jump\t// in\n            tag_161:\n                /* \"#utility.yul\":4230:4293   */\n              swap2\n              pop\n                /* \"#utility.yul\":4185:4303   */\n              pop\n                /* \"#utility.yul\":3691:4310   */\n              swap3\n              pop\n              swap3\n              pop\n              swap3\n              jump\t// out\n                /* \"#utility.yul\":4316:4402   */\n            tag_102:\n                /* \"#utility.yul\":4351:4358   */\n              0x00\n                /* \"#utility.yul\":4391:4395   */\n              0xff\n                /* \"#utility.yul\":4384:4389   */\n              dup3\n                /* \"#utility.yul\":4380:4396   */\n              and\n                /* \"#utility.yul\":4369:4396   */\n              swap1\n              pop\n                /* \"#utility.yul\":4316:4402   */\n              swap2\n              swap1\n              pop\n              jump\t// out\n                /* \"#utility.yul\":4408:4520   */\n            tag_103:\n                /* \"#utility.yul\":4491:4513   */\n              tag_164\n                /* \"#utility.yul\":4507:4512   */\n              dup2\n                /* \"#utility.yul\":4491:4513   */\n              tag_102\n              jump\t// in\n            tag_164:\n                /* \"#utility.yul\":4486:4489   */\n              dup3\n                /* \"#utility.yul\":4479:4514   */\n              mstore\n                /* \"#utility.yul\":4408:4520   */\n              pop\n              pop\n              jump\t// out\n                /* \"#utility.yul\":4526:4740   */\n            tag_35:\n                /* \"#utility.yul\":4615:4619   */\n              0x00\n                /* \"#utility.yul\":4653:4655   */\n              0x20\n                /* \"#utility.yul\":4642:4651   */\n              dup3\n                /* \"#utility.yul\":4638:4656   */\n              add\n                /* \"#utility.yul\":4630:4656   */\n              swap1\n              pop\n                /* \"#utility.yul\":4666:4733   */\n              tag_166\n                /* \"#utility.yul\":4730:4731   */\n              0x00\n                /* \"#utility.yul\":4719:4728   */\n              dup4\n                /* \"#utility.yul\":4715:4732   */\n              add\n                /* \"#utility.yul\":4706:4712   */\n              dup5\n                /* \"#utility.yul\":4666:4733   */\n              tag_103\n              jump\t// in\n            tag_166:\n                /* \"#utility.yul\":4526:4740   */\n              swap3\n              swap2\n              pop\n              pop\n              jump\t// out\n                /* \"#utility.yul\":4746:5075   */\n            tag_38:\n                /* \"#utility.yul\":4805:4811   */\n              0x00\n                /* \"#utility.yul\":4854:4856   */\n              0x20\n                /* \"#utility.yul\":4842:4851   */\n              dup3\n                /* \"#utility.yul\":4833:4840   */\n              dup5\n                /* \"#utility.yul\":4829:4852   */\n              sub\n                /* \"#utility.yul\":4825:4857   */\n              slt\n                /* \"#utility.yul\":4822:4941   */\n              iszero\n              tag_168\n              jumpi\n                /* \"#utility.yul\":4860:4939   */\n              tag_169\n              tag_90\n              jump\t// in\n            tag_169:\n                /* \"#utility.yul\":4822:4941   */\n            tag_168:\n                /* \"#utility.yul\":4980:4981   */\n              0x00\n                /* \"#utility.yul\":5005:5058   */\n              tag_170\n                /* \"#utility.yul\":5050:5057   */\n              dup5\n                /* \"#utility.yul\":5041:5047   */\n              dup3\n                /* \"#utility.yul\":5030:5039   */\n              dup6\n                /* \"#utility.yul\":5026:5048   */\n              add\n                /* \"#utility.yul\":5005:5058   */\n              tag_95\n              jump\t// in\n            tag_170:\n                /* \"#utility.yul\":4995:5058   */\n              swap2\n              pop\n                /* \"#utility.yul\":4951:5068   */\n              pop\n                /* \"#utility.yul\":4746:5075   */\n              swap3\n              swap2\n              pop\n              pop\n              jump\t// out\n                /* \"#utility.yul\":5081:5555   */\n            tag_50:\n                /* \"#utility.yul\":5149:5155   */\n              0x00\n                /* \"#utility.yul\":5157:5163   */\n              dup1\n                /* \"#utility.yul\":5206:5208   */\n              0x40\n                /* \"#utility.yul\":5194:5203   */\n              dup4\n                /* \"#utility.yul\":5185:5192   */\n              dup6\n                /* \"#utility.yul\":5181:5204   */\n              sub\n                /* \"#utility.yul\":5177:5209   */\n              slt\n                /* \"#utility.yul\":5174:5293   */\n              iszero\n              tag_172\n              jumpi\n                /* \"#utility.yul\":5212:5291   */\n              tag_173\n              tag_90\n              jump\t// in\n            tag_173:\n                /* \"#utility.yul\":5174:5293   */\n            tag_172:\n                /* \"#utility.yul\":5332:5333   */\n              0x00\n                /* \"#utility.yul\":5357:5410   */\n              tag_174\n                /* \"#utility.yul\":5402:5409   */\n              dup6\n                /* \"#utility.yul\":5393:5399   */\n              dup3\n                /* \"#utility.yul\":5382:5391   */\n              dup7\n                /* \"#utility.yul\":5378:5400   */\n              add\n                /* \"#utility.yul\":5357:5410   */\n              tag_95\n              jump\t// in\n            tag_174:\n                /* \"#utility.yul\":5347:5410   */\n              swap3\n              pop\n                /* \"#utility.yul\":5303:5420   */\n              pop\n                /* \"#utility.yul\":5459:5461   */\n              0x20\n                /* \"#utility.yul\":5485:5538   */\n              tag_175\n                /* \"#utility.yul\":5530:5537   */\n              dup6\n                /* \"#utility.yul\":5521:5527   */\n              dup3\n                /* \"#utility.yul\":5510:5519   */\n              dup7\n                /* \"#utility.yul\":5506:5528   */\n              add\n                /* \"#utility.yul\":5485:5538   */\n              tag_95\n              jump\t// in\n            tag_175:\n                /* \"#utility.yul\":5475:5538   */\n              swap2\n              pop\n                /* \"#utility.yul\":5430:5548   */\n              pop\n                /* \"#utility.yul\":5081:5555   */\n              swap3\n              pop\n              swap3\n              swap1\n              pop\n              jump\t// out\n                /* \"#utility.yul\":5561:5783   */\n            tag_104:\n                /* \"#utility.yul\":5701:5735   */\n              0x45524332303a207472616e7366657220746f20746865207a65726f2061646472\n                /* \"#utility.yul\":5697:5698   */\n              0x00\n                /* \"#utility.yul\":5689:5695   */\n              dup3\n                /* \"#utility.yul\":5685:5699   */\n              add\n                /* \"#utility.yul\":5678:5736   */\n              mstore\n                /* \"#utility.yul\":5770:5775   */\n              0x6573730000000000000000000000000000000000000000000000000000000000\n                /* \"#utility.yul\":5765:5767   */\n              0x20\n                /* \"#utility.yul\":5757:5763   */\n              dup3\n                /* \"#utility.yul\":5753:5768   */\n              add\n                /* \"#utility.yul\":5746:5776   */\n              mstore\n                /* \"#utility.yul\":5561:5783   */\n              pop\n              jump\t// out\n                /* \"#utility.yul\":5789:6155   */\n            tag_105:\n                /* \"#utility.yul\":5931:5934   */\n              0x00\n                /* \"#utility.yul\":5952:6019   */\n              tag_178\n                /* \"#utility.yul\":6016:6018   */\n              0x23\n                /* \"#utility.yul\":6011:6014   */\n              dup4\n                /* \"#utility.yul\":5952:6019   */\n              tag_85\n              jump\t// in\n            tag_178:\n                /* \"#utility.yul\":5945:6019   */\n              swap2\n              pop\n                /* \"#utility.yul\":6028:6121   */\n              tag_179\n                /* \"#utility.yul\":6117:6120   */\n              dup3\n                /* \"#utility.yul\":6028:6121   */\n              tag_104\n              jump\t// in\n            tag_179:\n                /* \"#utility.yul\":6146:6148   */\n              0x40\n                /* \"#utility.yul\":6141:6144   */\n              dup3\n                /* \"#utility.yul\":6137:6149   */\n              add\n                /* \"#utility.yul\":6130:6149   */\n              swap1\n              pop\n                /* \"#utility.yul\":5789:6155   */\n              swap2\n              swap1\n              pop\n              jump\t// out\n                /* \"#utility.yul\":6161:6580   */\n            tag_59:\n                /* \"#utility.yul\":6327:6331   */\n              0x00\n                /* \"#utility.yul\":6365:6367   */\n              0x20\n                /* \"#utility.yul\":6354:6363   */\n              dup3\n                /* \"#utility.yul\":6350:6368   */\n              add\n                /* \"#utility.yul\":6342:6368   */\n              swap1\n              pop\n                /* \"#utility.yul\":6414:6423   */\n              dup2\n                /* \"#utility.yul\":6408:6412   */\n              dup2\n                /* \"#utility.yul\":6404:6424   */\n              sub\n                /* \"#utility.yul\":6400:6401   */\n              0x00\n                /* \"#utility.yul\":6389:6398   */\n              dup4\n                /* \"#utility.yul\":6385:6402   */\n              add\n                /* \"#utility.yul\":6378:6425   */\n              mstore\n                /* \"#utility.yul\":6442:6573   */\n              tag_181\n                /* \"#utility.yul\":6568:6572   */\n              dup2\n                /* \"#utility.yul\":6442:6573   */\n              tag_105\n              jump\t// in\n            tag_181:\n                /* \"#utility.yul\":6434:6573   */\n              swap1\n              pop\n                /* \"#utility.yul\":6161:6580   */\n              swap2\n              swap1\n              pop\n              jump\t// out\n                /* \"#utility.yul\":6586:6815   */\n            tag_106:\n                /* \"#utility.yul\":6726:6760   */\n              0x45524332303a207472616e7366657246726f6d20616d6f756e74206578636565\n                /* \"#utility.yul\":6722:6723   */\n              0x00\n                /* \"#utility.yul\":6714:6720   */\n              dup3\n                /* \"#utility.yul\":6710:6724   */\n              add\n                /* \"#utility.yul\":6703:6761   */\n              mstore\n                /* \"#utility.yul\":6795:6807   */\n              0x64732062616c616e636500000000000000000000000000000000000000000000\n                /* \"#utility.yul\":6790:6792   */\n              0x20\n                /* \"#utility.yul\":6782:6788   */\n              dup3\n                /* \"#utility.yul\":6778:6793   */\n              add\n                /* \"#utility.yul\":6771:6808   */\n              mstore\n                /* \"#utility.yul\":6586:6815   */\n              pop\n              jump\t// out\n                /* \"#utility.yul\":6821:7187   */\n            tag_107:\n                /* \"#utility.yul\":6963:6966   */\n              0x00\n                /* \"#utility.yul\":6984:7051   */\n              tag_184\n                /* \"#utility.yul\":7048:7050   */\n              0x2a\n                /* \"#utility.yul\":7043:7046   */\n              dup4\n                /* \"#utility.yul\":6984:7051   */\n              tag_85\n              jump\t// in\n            tag_184:\n                /* \"#utility.yul\":6977:7051   */\n              swap2\n              pop\n                /* \"#utility.yul\":7060:7153   */\n              tag_185\n                /* \"#utility.yul\":7149:7152   */\n              dup3\n                /* \"#utility.yul\":7060:7153   */\n              tag_106\n              jump\t// in\n            tag_185:\n                /* \"#utility.yul\":7178:7180   */\n              0x40\n                /* \"#utility.yul\":7173:7176   */\n              dup3\n                /* \"#utility.yul\":7169:7181   */\n              add\n                /* \"#utility.yul\":7162:7181   */\n              swap1\n              pop\n                /* \"#utility.yul\":6821:7187   */\n              swap2\n              swap1\n              pop\n              jump\t// out\n                /* \"#utility.yul\":7193:7612   */\n            tag_62:\n                /* \"#utility.yul\":7359:7363   */\n              0x00\n                /* \"#utility.yul\":7397:7399   */\n              0x20\n                /* \"#utility.yul\":7386:7395   */\n              dup3\n                /* \"#utility.yul\":7382:7400   */\n              add\n                /* \"#utility.yul\":7374:7400   */\n              swap1\n              pop\n                /* \"#utility.yul\":7446:7455   */\n              dup2\n                /* \"#utility.yul\":7440:7444   */\n              dup2\n                /* \"#utility.yul\":7436:7456   */\n              sub\n                /* \"#utility.yul\":7432:7433   */\n              0x00\n                /* \"#utility.yul\":7421:7430   */\n              dup4\n                /* \"#utility.yul\":7417:7434   */\n              add\n                /* \"#utility.yul\":7410:7457   */\n              mstore\n                /* \"#utility.yul\":7474:7605   */\n              tag_187\n                /* \"#utility.yul\":7600:7604   */\n              dup2\n                /* \"#utility.yul\":7474:7605   */\n              tag_107\n              jump\t// in\n            tag_187:\n                /* \"#utility.yul\":7466:7605   */\n              swap1\n              pop\n                /* \"#utility.yul\":7193:7612   */\n              swap2\n              swap1\n              pop\n              jump\t// out\n                /* \"#utility.yul\":7618:7797   */\n            tag_108:\n                /* \"#utility.yul\":7758:7789   */\n              0x45524332303a20696e73756666696369656e7420616c6c6f77616e6365000000\n                /* \"#utility.yul\":7754:7755   */\n              0x00\n                /* \"#utility.yul\":7746:7752   */\n              dup3\n                /* \"#utility.yul\":7742:7756   */\n              add\n                /* \"#utility.yul\":7735:7790   */\n              mstore\n                /* \"#utility.yul\":7618:7797   */\n              pop\n              jump\t// out\n                /* \"#utility.yul\":7803:8169   */\n            tag_109:\n                /* \"#utility.yul\":7945:7948   */\n              0x00\n                /* \"#utility.yul\":7966:8033   */\n              tag_190\n                /* \"#utility.yul\":8030:8032   */\n              0x1d\n                /* \"#utility.yul\":8025:8028   */\n              dup4\n                /* \"#utility.yul\":7966:8033   */\n              tag_85\n              jump\t// in\n            tag_190:\n                /* \"#utility.yul\":7959:8033   */\n              swap2\n              pop\n                /* \"#utility.yul\":8042:8135   */\n              tag_191\n                /* \"#utility.yul\":8131:8134   */\n              dup3\n                /* \"#utility.yul\":8042:8135   */\n              tag_108\n              jump\t// in\n            tag_191:\n                /* \"#utility.yul\":8160:8162   */\n              0x20\n                /* \"#utility.yul\":8155:8158   */\n              dup3\n                /* \"#utility.yul\":8151:8163   */\n              add\n                /* \"#utility.yul\":8144:8163   */\n              swap1\n              pop\n                /* \"#utility.yul\":7803:8169   */\n              swap2\n              swap1\n              pop\n              jump\t// out\n                /* \"#utility.yul\":8175:8594   */\n            tag_65:\n                /* \"#utility.yul\":8341:8345   */\n              0x00\n                /* \"#utility.yul\":8379:8381   */\n              0x20\n                /* \"#utility.yul\":8368:8377   */\n              dup3\n                /* \"#utility.yul\":8364:8382   */\n              add\n                /* \"#utility.yul\":8356:8382   */\n              swap1\n              pop\n                /* \"#utility.yul\":8428:8437   */\n              dup2\n                /* \"#utility.yul\":8422:8426   */\n              dup2\n                /* \"#utility.yul\":8418:8438   */\n              sub\n                /* \"#utility.yul\":8414:8415   */\n              0x00\n                /* \"#utility.yul\":8403:8412   */\n              dup4\n                /* \"#utility.yul\":8399:8416   */\n              add\n                /* \"#utility.yul\":8392:8439   */\n              mstore\n                /* \"#utility.yul\":8456:8587   */\n              tag_193\n                /* \"#utility.yul\":8582:8586   */\n              dup2\n                /* \"#utility.yul\":8456:8587   */\n              tag_109\n              jump\t// in\n            tag_193:\n                /* \"#utility.yul\":8448:8587   */\n              swap1\n              pop\n                /* \"#utility.yul\":8175:8594   */\n              swap2\n              swap1\n              pop\n              jump\t// out\n                /* \"#utility.yul\":8600:8780   */\n            tag_110:\n                /* \"#utility.yul\":8648:8725   */\n              0x4e487b7100000000000000000000000000000000000000000000000000000000\n                /* \"#utility.yul\":8645:8646   */\n              0x00\n                /* \"#utility.yul\":8638:8726   */\n              mstore\n                /* \"#utility.yul\":8745:8749   */\n              0x11\n                /* \"#utility.yul\":8742:8743   */\n              0x04\n                /* \"#utility.yul\":8735:8750   */\n              mstore\n                /* \"#utility.yul\":8769:8773   */\n              0x24\n                /* \"#utility.yul\":8766:8767   */\n              0x00\n                /* \"#utility.yul\":8759:8774   */\n              revert\n                /* \"#utility.yul\":8786:8980   */\n            tag_67:\n                /* \"#utility.yul\":8826:8830   */\n              0x00\n                /* \"#utility.yul\":8846:8866   */\n              tag_196\n                /* \"#utility.yul\":8864:8865   */\n              dup3\n                /* \"#utility.yul\":8846:8866   */\n              tag_96\n              jump\t// in\n            tag_196:\n                /* \"#utility.yul\":8841:8866   */\n              swap2\n              pop\n                /* \"#utility.yul\":8880:8900   */\n              tag_197\n                /* \"#utility.yul\":8898:8899   */\n              dup4\n                /* \"#utility.yul\":8880:8900   */\n              tag_96\n              jump\t// in\n            tag_197:\n                /* \"#utility.yul\":8875:8900   */\n              swap3\n              pop\n                /* \"#utility.yul\":8924:8925   */\n              dup3\n                /* \"#utility.yul\":8921:8922   */\n              dup3\n                /* \"#utility.yul\":8917:8926   */\n              sub\n                /* \"#utility.yul\":8909:8926   */\n              swap1\n              pop\n                /* \"#utility.yul\":8948:8949   */\n              dup2\n                /* \"#utility.yul\":8942:8946   */\n              dup2\n                /* \"#utility.yul\":8939:8950   */\n              gt\n                /* \"#utility.yul\":8936:8973   */\n              iszero\n              tag_198\n              jumpi\n                /* \"#utility.yul\":8953:8971   */\n              tag_199\n              tag_110\n              jump\t// in\n            tag_199:\n                /* \"#utility.yul\":8936:8973   */\n            tag_198:\n                /* \"#utility.yul\":8786:8980   */\n              swap3\n              swap2\n              pop\n              pop\n              jump\t// out\n                /* \"#utility.yul\":8986:9177   */\n            tag_69:\n                /* \"#utility.yul\":9026:9029   */\n              0x00\n                /* \"#utility.yul\":9045:9065   */\n              tag_201\n                /* \"#utility.yul\":9063:9064   */\n              dup3\n                /* \"#utility.yul\":9045:9065   */\n              tag_96\n              jump\t// in\n            tag_201:\n                /* \"#utility.yul\":9040:9065   */\n              swap2\n              pop\n                /* \"#utility.yul\":9079:9099   */\n              tag_202\n                /* \"#utility.yul\":9097:9098   */\n              dup4\n                /* \"#utility.yul\":9079:9099   */\n              tag_96\n              jump\t// in\n            tag_202:\n                /* \"#utility.yul\":9074:9099   */\n              swap3\n              pop\n                /* \"#utility.yul\":9122:9123   */\n              dup3\n                /* \"#utility.yul\":9119:9120   */\n              dup3\n                /* \"#utility.yul\":9115:9124   */\n              add\n                /* \"#utility.yul\":9108:9124   */\n              swap1\n              pop\n                /* \"#utility.yul\":9143:9146   */\n              dup1\n                /* \"#utility.yul\":9140:9141   */\n              dup3\n                /* \"#utility.yul\":9137:9147   */\n              gt\n                /* \"#utility.yul\":9134:9170   */\n              iszero\n              tag_203\n              jumpi\n                /* \"#utility.yul\":9150:9168   */\n              tag_204\n              tag_110\n              jump\t// in\n            tag_204:\n                /* \"#utility.yul\":9134:9170   */\n            tag_203:\n                /* \"#utility.yul\":8986:9177   */\n              swap3\n              swap2\n              pop\n              pop\n              jump\t// out\n                /* \"#utility.yul\":9183:9408   */\n            tag_111:\n                /* \"#utility.yul\":9323:9357   */\n              0x45524332303a207472616e7366657220616d6f756e7420657863656564732062\n                /* \"#utility.yul\":9319:9320   */\n              0x00\n                /* \"#utility.yul\":9311:9317   */\n              dup3\n                /* \"#utility.yul\":9307:9321   */\n              add\n                /* \"#utility.yul\":9300:9358   */\n              mstore\n                /* \"#utility.yul\":9392:9400   */\n              0x616c616e63650000000000000000000000000000000000000000000000000000\n                /* \"#utility.yul\":9387:9389   */\n              0x20\n                /* \"#utility.yul\":9379:9385   */\n              dup3\n                /* \"#utility.yul\":9375:9390   */\n              add\n                /* \"#utility.yul\":9368:9401   */\n              mstore\n                /* \"#utility.yul\":9183:9408   */\n              pop\n              jump\t// out\n                /* \"#utility.yul\":9414:9780   */\n            tag_112:\n                /* \"#utility.yul\":9556:9559   */\n              0x00\n                /* \"#utility.yul\":9577:9644   */\n              tag_207\n                /* \"#utility.yul\":9641:9643   */\n              0x26\n                /* \"#utility.yul\":9636:9639   */\n              dup4\n                /* \"#utility.yul\":9577:9644   */\n              tag_85\n              jump\t// in\n            tag_207:\n                /* \"#utility.yul\":9570:9644   */\n              swap2\n              pop\n                /* \"#utility.yul\":9653:9746   */\n              tag_208\n                /* \"#utility.yul\":9742:9745   */\n              dup3\n                /* \"#utility.yul\":9653:9746   */\n              tag_111\n              jump\t// in\n            tag_208:\n                /* \"#utility.yul\":9771:9773   */\n              0x40\n                /* \"#utility.yul\":9766:9769   */\n              dup3\n                /* \"#utility.yul\":9762:9774   */\n              add\n                /* \"#utility.yul\":9755:9774   */\n              swap1\n              pop\n                /* \"#utility.yul\":9414:9780   */\n              swap2\n              swap1\n              pop\n              jump\t// out\n                /* \"#utility.yul\":9786:10205   */\n            tag_79:\n                /* \"#utility.yul\":9952:9956   */\n              0x00\n                /* \"#utility.yul\":9990:9992   */\n              0x20\n                /* \"#utility.yul\":9979:9988   */\n              dup3\n                /* \"#utility.yul\":9975:9993   */\n              add\n                /* \"#utility.yul\":9967:9993   */\n              swap1\n              pop\n                /* \"#utility.yul\":10039:10048   */\n              dup2\n                /* \"#utility.yul\":10033:10037   */\n              dup2\n                /* \"#utility.yul\":10029:10049   */\n              sub\n                /* \"#utility.yul\":10025:10026   */\n              0x00\n                /* \"#utility.yul\":10014:10023   */\n              dup4\n                /* \"#utility.yul\":10010:10027   */\n              add\n                /* \"#utility.yul\":10003:10050   */\n              mstore\n                /* \"#utility.yul\":10067:10198   */\n              tag_210\n                /* \"#utility.yul\":10193:10197   */\n              dup2\n                /* \"#utility.yul\":10067:10198   */\n              tag_112\n              jump\t// in\n            tag_210:\n                /* \"#utility.yul\":10059:10198   */\n              swap1\n              pop\n                /* \"#utility.yul\":9786:10205   */\n              swap2\n              swap1\n              pop\n              jump\t// out\n\n            auxdata: 0xa26469706673582212204e5bc693e78b08e1126130ba892b2f7593d067ea01edad78758c5f496444f26364736f6c634300081a0033\n        }\n    }\n\n    auxdata: 0xa2646970667358221220f9d8e77fa91c97b77b7cad9fd493083319deaacb100470e98bae47770963d6b864736f6c634300081a0033\n}\n",
				"bytecode": {
					"linkReferences": {},
					"object": "60c06040525f600160146101000a81548160ff021916908315150217905550600a600255606460809081525068056bc75e2d6310000060a0908152503480156045575f80fd5b50335f806101000a81548173ffffffffffffffffffffffffffffffffffffffff021916908373ffffffffffffffffffffffffffffffffffffffff16021790555060805160a0516129646100a05f395f50505f50506129645ff3fe608060405234801561000f575f80fd5b5060043610610114575f3560e01c80638da5cb5b116100a0578063c76cc7281161006f578063c76cc728146102f8578063dd62ed3e14610302578063eb97ffa214610332578063f0acd18414610350578063f3513a371461035a57610114565b80638da5cb5b1461028257806390d64271146102a0578063a6359308146102be578063b79ed5c1146102da57610114565b80634d72cd12116100e75780634d72cd12146101b357806370a08231146101d45780637ac64245146102045780637c1a4bcd146102345780637da0a9481461026457610114565b80631cff85e114610118578063204b317b1461014b5780633b103d331461016757806349ee56f914610197575b5f80fd5b610132600480360381019061012d9190611176565b610378565b6040516101429493929190611209565b60405180910390f35b6101656004803603810190610160919061124c565b6103de565b005b610181600480360381019061017c919061124c565b61054a565b60405161018e919061128a565b60405180910390f35b6101b160048036038101906101ac9190611176565b6106b9565b005b6101bb6107c3565b6040516101cb94939291906114c8565b60405180910390f35b6101ee60048036038101906101e99190611551565b610a2f565b6040516101fb919061128a565b60405180910390f35b61021e60048036038101906102199190611176565b610a44565b60405161022b919061157c565b60405180910390f35b61024e60048036038101906102499190611551565b610a7f565b60405161025b919061128a565b60405180910390f35b61026c610a85565b604051610279919061128a565b60405180910390f35b61028a610a8b565b604051610297919061157c565b60405180910390f35b6102a8610ab2565b6040516102b59190611595565b60405180910390f35b6102d860048036038101906102d39190611176565b610ac5565b005b6102e2610d74565b6040516102ef919061157c565b60405180910390f35b610300610d99565b005b61031c600480360381019061031791906115ae565b610f3c565b604051610329919061128a565b60405180910390f35b61033a610f5c565b604051610347919061128a565b60405180910390f35b610358610f60565b005b610362611005565b60405161036f91906115ec565b60405180910390f35b60068181548110610387575f80fd5b905f5260205f2090600502015f91509050805f015f9054906101000a900473ffffffffffffffffffffffffffffffffffffffff1690806001015490806002015490806004015f9054906101000a900460ff16905084565b606060066040518060a001604052803373ffffffffffffffffffffffffffffffffffffffff16815260200185815260200184815260200183815260200160011515815250908060018154018082558091505060019003905f5260205f2090600502015f909190919091505f820151815f015f6101000a81548173ffffffffffffffffffffffffffffffffffffffff021916908373ffffffffffffffffffffffffffffffffffffffff160217905550602082015181600101556040820151816002015560608201518160030190805190602001906104bc929190611090565b506080820151816004015f6101000a81548160ff02191690831515021790555050505f60016006805490506104f19190611639565b90503373ffffffffffffffffffffffffffffffffffffffff16817f571a5dfc09c77bbe59e7a00b078fec1a53f090e992ccacde1856dab24624c96860025460405161053c919061128a565b60405180910390a350505050565b5f606060066040518060a001604052803373ffffffffffffffffffffffffffffffffffffffff1681526020018681526020018581526020018381526020015f1515815250908060018154018082558091505060019003905f5260205f2090600502015f909190919091505f820151815f015f6101000a81548173ffffffffffffffffffffffffffffffffffffffff021916908373ffffffffffffffffffffffffffffffffffffffff16021790555060208201518160010155604082015181600201556060820151816003019080519060200190610628929190611090565b506080820151816004015f6101000a81548160ff02191690831515021790555050505f600160068054905061065d9190611639565b90503373ffffffffffffffffffffffffffffffffffffffff16817ff18e92c00977b9ca5951f9775e5cf053c54bdaec0794874261786ee3e9460ebd876040516106a6919061128a565b60405180910390a3809250505092915050565b5f600682815481106106ce576106cd61166c565b5b905f5260205f2090600502019050805f015f9054906101000a900473ffffffffffffffffffffffffffffffffffffffff1673ffffffffffffffffffffffffffffffffffffffff163373ffffffffffffffffffffffffffffffffffffffff160361076c576040517f08c379a0000000000000000000000000000000000000000000000000000000008152600401610763906116f3565b60405180910390fd5b3373ffffffffffffffffffffffffffffffffffffffff16827f313d5c7bf54e15a1b7dc24a51b097c6458663a33e7a4be386f80fea411dcda6583600101546040516107b7919061128a565b60405180910390a35050565b6060806060805f60068054905090508067ffffffffffffffff8111156107ec576107eb611711565b5b60405190808252806020026020018201604052801561081a5781602001602082028036833780820191505090505b5094508067ffffffffffffffff81111561083757610836611711565b5b6040519080825280602002602001820160405280156108655781602001602082028036833780820191505090505b5093508067ffffffffffffffff81111561088257610881611711565b5b6040519080825280602002602001820160405280156108b05781602001602082028036833780820191505090505b5092508067ffffffffffffffff8111156108cd576108cc611711565b5b6040519080825280602002602001820160405280156108fb5781602001602082028036833780820191505090505b5091505f5b81811015610a27575f6006828154811061091d5761091c61166c565b5b905f5260205f2090600502019050805f015f9054906101000a900473ffffffffffffffffffffffffffffffffffffffff168783815181106109615761096061166c565b5b602002602001019073ffffffffffffffffffffffffffffffffffffffff16908173ffffffffffffffffffffffffffffffffffffffff168152505080600101548683815181106109b3576109b261166c565b5b60200260200101818152505080600201548583815181106109d7576109d661166c565b5b602002602001018181525050806004015f9054906101000a900460ff16848381518110610a0757610a0661166c565b5b602002602001019015159081151581525050508080600101915050610900565b505090919293565b6004602052805f5260405f205f915090505481565b60038181548110610a53575f80fd5b905f5260205f20015f915054906101000a900473ffffffffffffffffffffffffffffffffffffffff1681565b5f919050565b60025481565b5f805f9054906101000a900473ffffffffffffffffffffffffffffffffffffffff16905090565b600160149054906101000a900460ff1681565b5f60068281548110610ada57610ad961166c565b5b905f5260205f2090600502019050806004015f9054906101000a900460ff1615610b39576040517f08c379a0000000000000000000000000000000000000000000000000000000008152600401610b3090611788565b60405180910390fd5b5f805b600380549050811015610bcd573373ffffffffffffffffffffffffffffffffffffffff1660038281548110610b7457610b7361166c565b5b905f5260205f20015f9054906101000a900473ffffffffffffffffffffffffffffffffffffffff1673ffffffffffffffffffffffffffffffffffffffff1603610bc05760019150610bcd565b8080600101915050610b3c565b5080610c0e576040517f08c379a0000000000000000000000000000000000000000000000000000000008152600401610c0590611816565b60405180910390fd5b815f015f9054906101000a900473ffffffffffffffffffffffffffffffffffffffff1673ffffffffffffffffffffffffffffffffffffffff163373ffffffffffffffffffffffffffffffffffffffff1603610c9e576040517f08c379a0000000000000000000000000000000000000000000000000000000008152600401610c959061187e565b60405180910390fd5b8160030133908060018154018082558091505060019003905f5260205f20015f9091909190916101000a81548173ffffffffffffffffffffffffffffffffffffffff021916908373ffffffffffffffffffffffffffffffffffffffff1602179055506001826004015f6101000a81548160ff0219169083151502179055503373ffffffffffffffffffffffffffffffffffffffff16837f1dc73a35285fda24d55673e615930ad58eab11f47d6838526ffbd7d2c1847af48460020154604051610d67919061128a565b60405180910390a3505050565b60015f9054906101000a900473ffffffffffffffffffffffffffffffffffffffff1681565b3373ffffffffffffffffffffffffffffffffffffffff16610db8610a8b565b73ffffffffffffffffffffffffffffffffffffffff1614610e0e576040517f08c379a0000000000000000000000000000000000000000000000000000000008152600401610e05906118e6565b60405180910390fd5b600160149054906101000a900460ff1615610e5e576040517f08c379a0000000000000000000000000000000000000000000000000000000008152600401610e5590611974565b60405180910390fd5b5f604051610e6b90611117565b604051809103905ff080158015610e84573d5f803e3d5ffd5b5090508060015f6101000a81548173ffffffffffffffffffffffffffffffffffffffff021916908373ffffffffffffffffffffffffffffffffffffffff16021790555060018060146101000a81548160ff0219169083151502179055507f5a328b2a6ca99d3f214e0a041dcd254e948aa9a2e1b8b97233531b6a1d1872c960015f9054906101000a900473ffffffffffffffffffffffffffffffffffffffff16604051610f31919061157c565b60405180910390a150565b6005602052815f5260405f20602052805f5260405f205f91509150505481565b5f90565b600333908060018154018082558091505060019003905f5260205f20015f9091909190916101000a81548173ffffffffffffffffffffffffffffffffffffffff021916908373ffffffffffffffffffffffffffffffffffffffff1602179055503373ffffffffffffffffffffffffffffffffffffffff167fd09501348473474a20c772c79c653e1fd7e8b437e418fe235d277d2c8885325160405160405180910390a2565b6060600380548060200260200160405190810160405280929190818152602001828054801561108657602002820191905f5260205f20905b815f9054906101000a900473ffffffffffffffffffffffffffffffffffffffff1673ffffffffffffffffffffffffffffffffffffffff168152602001906001019080831161103d575b5050505050905090565b828054828255905f5260205f20908101928215611106579160200282015b82811115611105578251825f6101000a81548173ffffffffffffffffffffffffffffffffffffffff021916908373ffffffffffffffffffffffffffffffffffffffff160217905550916020019190600101906110ae565b5b5090506111139190611124565b5090565b610f9c8061199383390190565b5b8082111561113b575f815f905550600101611125565b5090565b5f80fd5b5f819050919050565b61115581611143565b811461115f575f80fd5b50565b5f813590506111708161114c565b92915050565b5f6020828403121561118b5761118a61113f565b5b5f61119884828501611162565b91505092915050565b5f73ffffffffffffffffffffffffffffffffffffffff82169050919050565b5f6111ca826111a1565b9050919050565b6111da816111c0565b82525050565b6111e981611143565b82525050565b5f8115159050919050565b611203816111ef565b82525050565b5f60808201905061121c5f8301876111d1565b61122960208301866111e0565b61123660408301856111e0565b61124360608301846111fa565b95945050505050565b5f80604083850312156112625761126161113f565b5b5f61126f85828601611162565b925050602061128085828601611162565b9150509250929050565b5f60208201905061129d5f8301846111e0565b92915050565b5f81519050919050565b5f82825260208201905092915050565b5f819050602082019050919050565b6112d5816111c0565b82525050565b5f6112e683836112cc565b60208301905092915050565b5f602082019050919050565b5f611308826112a3565b61131281856112ad565b935061131d836112bd565b805f5b8381101561134d57815161133488826112db565b975061133f836112f2565b925050600181019050611320565b5085935050505092915050565b5f81519050919050565b5f82825260208201905092915050565b5f819050602082019050919050565b61138c81611143565b82525050565b5f61139d8383611383565b60208301905092915050565b5f602082019050919050565b5f6113bf8261135a565b6113c98185611364565b93506113d483611374565b805f5b838110156114045781516113eb8882611392565b97506113f6836113a9565b9250506001810190506113d7565b5085935050505092915050565b5f81519050919050565b5f82825260208201905092915050565b5f819050602082019050919050565b611443816111ef565b82525050565b5f611454838361143a565b60208301905092915050565b5f602082019050919050565b5f61147682611411565b611480818561141b565b935061148b8361142b565b805f5b838110156114bb5781516114a28882611449565b97506114ad83611460565b92505060018101905061148e565b5085935050505092915050565b5f6080820190508181035f8301526114e081876112fe565b905081810360208301526114f481866113b5565b9050818103604083015261150881856113b5565b9050818103606083015261151c818461146c565b905095945050505050565b611530816111c0565b811461153a575f80fd5b50565b5f8135905061154b81611527565b92915050565b5f602082840312156115665761156561113f565b5b5f6115738482850161153d565b91505092915050565b5f60208201905061158f5f8301846111d1565b92915050565b5f6020820190506115a85f8301846111fa565b92915050565b5f80604083850312156115c4576115c361113f565b5b5f6115d18582860161153d565b92505060206115e28582860161153d565b9150509250929050565b5f6020820190508181035f83015261160481846112fe565b905092915050565b7f4e487b71000000000000000000000000000000000000000000000000000000005f52601160045260245ffd5b5f61164382611143565b915061164e83611143565b92508282039050818111156116665761166561160c565b5b92915050565b7f4e487b71000000000000000000000000000000000000000000000000000000005f52603260045260245ffd5b5f82825260208201905092915050565b7f43616e6e6f742062757920796f757273206461746173657400000000000000005f82015250565b5f6116dd601883611699565b91506116e8826116a9565b602082019050919050565b5f6020820190508181035f83015261170a816116d1565b9050919050565b7f4e487b71000000000000000000000000000000000000000000000000000000005f52604160045260245ffd5b7f4461746173657420616c72656164792076616c696461746564000000000000005f82015250565b5f611772601983611699565b915061177d8261173e565b602082019050919050565b5f6020820190508181035f83015261179f81611766565b9050919050565b7f596f75206d757374206265206120726567697374657265642076616c696461745f8201527f6f72000000000000000000000000000000000000000000000000000000000000602082015250565b5f611800602283611699565b915061180b826117a6565b604082019050919050565b5f6020820190508181035f83015261182d816117f4565b9050919050565b7f56616c696461746f722063616e6e6f74206265207468652063726561746f72005f82015250565b5f611868601f83611699565b915061187382611834565b602082019050919050565b5f6020820190508181035f8301526118958161185c565b9050919050565b7f4f776e61626c653a2063616c6c6572206973206e6f7420746865206f776e65725f82015250565b5f6118d0602083611699565b91506118db8261189c565b602082019050919050565b5f6020820190508181035f8301526118fd816118c4565b9050919050565b7f4461746150756e6b436f696e2068617320616c7265616479206265656e2064655f8201527f706c6f7965640000000000000000000000000000000000000000000000000000602082015250565b5f61195e602683611699565b915061196982611904565b604082019050919050565b5f6020820190508181035f83015261198b81611952565b905091905056fe608060405268056bc75e2d631000005f55348015601a575f80fd5b505f5460015f3373ffffffffffffffffffffffffffffffffffffffff1673ffffffffffffffffffffffffffffffffffffffff1681526020019081526020015f2081905550610f318061006b5f395ff3fe608060405234801561000f575f80fd5b5060043610610091575f3560e01c8063313ce56711610064578063313ce5671461013157806370a082311461014f57806395d89b411461017f578063a9059cbb1461019d578063dd62ed3e146101cd57610091565b806306fdde0314610095578063095ea7b3146100b357806318160ddd146100e357806323b872dd14610101575b5f80fd5b61009d6101fd565b6040516100aa9190610a1f565b60405180910390f35b6100cd60048036038101906100c89190610ad0565b610236565b6040516100da9190610b28565b60405180910390f35b6100eb610323565b6040516100f89190610b50565b60405180910390f35b61011b60048036038101906101169190610b69565b61032b565b6040516101289190610b28565b60405180910390f35b6101396106a5565b6040516101469190610bd4565b60405180910390f35b61016960048036038101906101649190610bed565b6106aa565b6040516101769190610b50565b60405180910390f35b6101876106f0565b6040516101949190610a1f565b60405180910390f35b6101b760048036038101906101b29190610ad0565b610729565b6040516101c49190610b28565b60405180910390f35b6101e760048036038101906101e29190610c18565b61092d565b6040516101f49190610b50565b60405180910390f35b6040518060400160405280600d81526020017f4461746150756e6b20436f696e0000000000000000000000000000000000000081525081565b5f8160025f3373ffffffffffffffffffffffffffffffffffffffff1673ffffffffffffffffffffffffffffffffffffffff1681526020019081526020015f205f8573ffffffffffffffffffffffffffffffffffffffff1673ffffffffffffffffffffffffffffffffffffffff1681526020019081526020015f20819055508273ffffffffffffffffffffffffffffffffffffffff163373ffffffffffffffffffffffffffffffffffffffff167f8c5be1e5ebec7d5bd14f71427d1e84f3dd0314c0f7b2291e5b200ac8c7c3b925846040516103119190610b50565b60405180910390a36001905092915050565b5f8054905090565b5f8073ffffffffffffffffffffffffffffffffffffffff168373ffffffffffffffffffffffffffffffffffffffff160361039a576040517f08c379a000000000000000000000000000000000000000000000000000000000815260040161039190610cc6565b60405180910390fd5b8160015f8673ffffffffffffffffffffffffffffffffffffffff1673ffffffffffffffffffffffffffffffffffffffff1681526020019081526020015f2054101561041a576040517f08c379a000000000000000000000000000000000000000000000000000000000815260040161041190610d54565b60405180910390fd5b5f60025f8673ffffffffffffffffffffffffffffffffffffffff1673ffffffffffffffffffffffffffffffffffffffff1681526020019081526020015f205f3373ffffffffffffffffffffffffffffffffffffffff1673ffffffffffffffffffffffffffffffffffffffff1681526020019081526020015f20549050828110156104d9576040517f08c379a00000000000000000000000000000000000000000000000000000000081526004016104d090610dbc565b60405180910390fd5b8260015f8773ffffffffffffffffffffffffffffffffffffffff1673ffffffffffffffffffffffffffffffffffffffff1681526020019081526020015f205f8282546105259190610e07565b925050819055508260015f8673ffffffffffffffffffffffffffffffffffffffff1673ffffffffffffffffffffffffffffffffffffffff1681526020019081526020015f205f8282546105789190610e3a565b925050819055507fffffffffffffffffffffffffffffffffffffffffffffffffffffffffffffffff8114610699575f83826105b39190610e07565b90508060025f8873ffffffffffffffffffffffffffffffffffffffff1673ffffffffffffffffffffffffffffffffffffffff1681526020019081526020015f205f3373ffffffffffffffffffffffffffffffffffffffff1673ffffffffffffffffffffffffffffffffffffffff1681526020019081526020015f20819055503373ffffffffffffffffffffffffffffffffffffffff168673ffffffffffffffffffffffffffffffffffffffff167f8c5be1e5ebec7d5bd14f71427d1e84f3dd0314c0f7b2291e5b200ac8c7c3b9258360405161068f9190610b50565b60405180910390a3505b60019150509392505050565b601281565b5f60015f8373ffffffffffffffffffffffffffffffffffffffff1673ffffffffffffffffffffffffffffffffffffffff1681526020019081526020015f20549050919050565b6040518060400160405280600381526020017f445043000000000000000000000000000000000000000000000000000000000081525081565b5f8073ffffffffffffffffffffffffffffffffffffffff168373ffffffffffffffffffffffffffffffffffffffff1603610798576040517f08c379a000000000000000000000000000000000000000000000000000000000815260040161078f90610cc6565b60405180910390fd5b8160015f3373ffffffffffffffffffffffffffffffffffffffff1673ffffffffffffffffffffffffffffffffffffffff1681526020019081526020015f20541015610818576040517f08c379a000000000000000000000000000000000000000000000000000000000815260040161080f90610edd565b60405180910390fd5b8160015f3373ffffffffffffffffffffffffffffffffffffffff1673ffffffffffffffffffffffffffffffffffffffff1681526020019081526020015f205f8282546108649190610e07565b925050819055508160015f8573ffffffffffffffffffffffffffffffffffffffff1673ffffffffffffffffffffffffffffffffffffffff1681526020019081526020015f205f8282546108b79190610e3a565b925050819055508273ffffffffffffffffffffffffffffffffffffffff163373ffffffffffffffffffffffffffffffffffffffff167fddf252ad1be2c89b69c2b068fc378daa952ba7f163c4a11628f55a4df523b3ef8460405161091b9190610b50565b60405180910390a36001905092915050565b5f60025f8473ffffffffffffffffffffffffffffffffffffffff1673ffffffffffffffffffffffffffffffffffffffff1681526020019081526020015f205f8373ffffffffffffffffffffffffffffffffffffffff1673ffffffffffffffffffffffffffffffffffffffff1681526020019081526020015f2054905092915050565b5f81519050919050565b5f82825260208201905092915050565b8281835e5f83830152505050565b5f601f19601f8301169050919050565b5f6109f1826109af565b6109fb81856109b9565b9350610a0b8185602086016109c9565b610a14816109d7565b840191505092915050565b5f6020820190508181035f830152610a3781846109e7565b905092915050565b5f80fd5b5f73ffffffffffffffffffffffffffffffffffffffff82169050919050565b5f610a6c82610a43565b9050919050565b610a7c81610a62565b8114610a86575f80fd5b50565b5f81359050610a9781610a73565b92915050565b5f819050919050565b610aaf81610a9d565b8114610ab9575f80fd5b50565b5f81359050610aca81610aa6565b92915050565b5f8060408385031215610ae657610ae5610a3f565b5b5f610af385828601610a89565b9250506020610b0485828601610abc565b9150509250929050565b5f8115159050919050565b610b2281610b0e565b82525050565b5f602082019050610b3b5f830184610b19565b92915050565b610b4a81610a9d565b82525050565b5f602082019050610b635f830184610b41565b92915050565b5f805f60608486031215610b8057610b7f610a3f565b5b5f610b8d86828701610a89565b9350506020610b9e86828701610a89565b9250506040610baf86828701610abc565b9150509250925092565b5f60ff82169050919050565b610bce81610bb9565b82525050565b5f602082019050610be75f830184610bc5565b92915050565b5f60208284031215610c0257610c01610a3f565b5b5f610c0f84828501610a89565b91505092915050565b5f8060408385031215610c2e57610c2d610a3f565b5b5f610c3b85828601610a89565b9250506020610c4c85828601610a89565b9150509250929050565b7f45524332303a207472616e7366657220746f20746865207a65726f20616464725f8201527f6573730000000000000000000000000000000000000000000000000000000000602082015250565b5f610cb06023836109b9565b9150610cbb82610c56565b604082019050919050565b5f6020820190508181035f830152610cdd81610ca4565b9050919050565b7f45524332303a207472616e7366657246726f6d20616d6f756e742065786365655f8201527f64732062616c616e636500000000000000000000000000000000000000000000602082015250565b5f610d3e602a836109b9565b9150610d4982610ce4565b604082019050919050565b5f6020820190508181035f830152610d6b81610d32565b9050919050565b7f45524332303a20696e73756666696369656e7420616c6c6f77616e63650000005f82015250565b5f610da6601d836109b9565b9150610db182610d72565b602082019050919050565b5f6020820190508181035f830152610dd381610d9a565b9050919050565b7f4e487b71000000000000000000000000000000000000000000000000000000005f52601160045260245ffd5b5f610e1182610a9d565b9150610e1c83610a9d565b9250828203905081811115610e3457610e33610dda565b5b92915050565b5f610e4482610a9d565b9150610e4f83610a9d565b9250828201905080821115610e6757610e66610dda565b5b92915050565b7f45524332303a207472616e7366657220616d6f756e74206578636565647320625f8201527f616c616e63650000000000000000000000000000000000000000000000000000602082015250565b5f610ec76026836109b9565b9150610ed282610e6d565b604082019050919050565b5f6020820190508181035f830152610ef481610ebb565b905091905056fea26469706673582212204e5bc693e78b08e1126130ba892b2f7593d067ea01edad78758c5f496444f26364736f6c634300081a0033a2646970667358221220f9d8e77fa91c97b77b7cad9fd493083319deaacb100470e98bae47770963d6b864736f6c634300081a0033",
					"opcodes": "PUSH1 0xC0 PUSH1 0x40 MSTORE PUSH0 PUSH1 0x1 PUSH1 0x14 PUSH2 0x100 EXP DUP2 SLOAD DUP2 PUSH1 0xFF MUL NOT AND SWAP1 DUP4 ISZERO ISZERO MUL OR SWAP1 SSTORE POP PUSH1 0xA PUSH1 0x2 SSTORE PUSH1 0x64 PUSH1 0x80 SWAP1 DUP2 MSTORE POP PUSH9 0x56BC75E2D63100000 PUSH1 0xA0 SWAP1 DUP2 MSTORE POP CALLVALUE DUP1 ISZERO PUSH1 0x45 JUMPI PUSH0 DUP1 REVERT JUMPDEST POP CALLER PUSH0 DUP1 PUSH2 0x100 EXP DUP2 SLOAD DUP2 PUSH20 0xFFFFFFFFFFFFFFFFFFFFFFFFFFFFFFFFFFFFFFFF MUL NOT AND SWAP1 DUP4 PUSH20 0xFFFFFFFFFFFFFFFFFFFFFFFFFFFFFFFFFFFFFFFF AND MUL OR SWAP1 SSTORE POP PUSH1 0x80 MLOAD PUSH1 0xA0 MLOAD PUSH2 0x2964 PUSH2 0xA0 PUSH0 CODECOPY PUSH0 POP POP PUSH0 POP POP PUSH2 0x2964 PUSH0 RETURN INVALID PUSH1 0x80 PUSH1 0x40 MSTORE CALLVALUE DUP1 ISZERO PUSH2 0xF JUMPI PUSH0 DUP1 REVERT JUMPDEST POP PUSH1 0x4 CALLDATASIZE LT PUSH2 0x114 JUMPI PUSH0 CALLDATALOAD PUSH1 0xE0 SHR DUP1 PUSH4 0x8DA5CB5B GT PUSH2 0xA0 JUMPI DUP1 PUSH4 0xC76CC728 GT PUSH2 0x6F JUMPI DUP1 PUSH4 0xC76CC728 EQ PUSH2 0x2F8 JUMPI DUP1 PUSH4 0xDD62ED3E EQ PUSH2 0x302 JUMPI DUP1 PUSH4 0xEB97FFA2 EQ PUSH2 0x332 JUMPI DUP1 PUSH4 0xF0ACD184 EQ PUSH2 0x350 JUMPI DUP1 PUSH4 0xF3513A37 EQ PUSH2 0x35A JUMPI PUSH2 0x114 JUMP JUMPDEST DUP1 PUSH4 0x8DA5CB5B EQ PUSH2 0x282 JUMPI DUP1 PUSH4 0x90D64271 EQ PUSH2 0x2A0 JUMPI DUP1 PUSH4 0xA6359308 EQ PUSH2 0x2BE JUMPI DUP1 PUSH4 0xB79ED5C1 EQ PUSH2 0x2DA JUMPI PUSH2 0x114 JUMP JUMPDEST DUP1 PUSH4 0x4D72CD12 GT PUSH2 0xE7 JUMPI DUP1 PUSH4 0x4D72CD12 EQ PUSH2 0x1B3 JUMPI DUP1 PUSH4 0x70A08231 EQ PUSH2 0x1D4 JUMPI DUP1 PUSH4 0x7AC64245 EQ PUSH2 0x204 JUMPI DUP1 PUSH4 0x7C1A4BCD EQ PUSH2 0x234 JUMPI DUP1 PUSH4 0x7DA0A948 EQ PUSH2 0x264 JUMPI PUSH2 0x114 JUMP JUMPDEST DUP1 PUSH4 0x1CFF85E1 EQ PUSH2 0x118 JUMPI DUP1 PUSH4 0x204B317B EQ PUSH2 0x14B JUMPI DUP1 PUSH4 0x3B103D33 EQ PUSH2 0x167 JUMPI DUP1 PUSH4 0x49EE56F9 EQ PUSH2 0x197 JUMPI JUMPDEST PUSH0 DUP1 REVERT JUMPDEST PUSH2 0x132 PUSH1 0x4 DUP1 CALLDATASIZE SUB DUP2 ADD SWAP1 PUSH2 0x12D SWAP2 SWAP1 PUSH2 0x1176 JUMP JUMPDEST PUSH2 0x378 JUMP JUMPDEST PUSH1 0x40 MLOAD PUSH2 0x142 SWAP5 SWAP4 SWAP3 SWAP2 SWAP1 PUSH2 0x1209 JUMP JUMPDEST PUSH1 0x40 MLOAD DUP1 SWAP2 SUB SWAP1 RETURN JUMPDEST PUSH2 0x165 PUSH1 0x4 DUP1 CALLDATASIZE SUB DUP2 ADD SWAP1 PUSH2 0x160 SWAP2 SWAP1 PUSH2 0x124C JUMP JUMPDEST PUSH2 0x3DE JUMP JUMPDEST STOP JUMPDEST PUSH2 0x181 PUSH1 0x4 DUP1 CALLDATASIZE SUB DUP2 ADD SWAP1 PUSH2 0x17C SWAP2 SWAP1 PUSH2 0x124C JUMP JUMPDEST PUSH2 0x54A JUMP JUMPDEST PUSH1 0x40 MLOAD PUSH2 0x18E SWAP2 SWAP1 PUSH2 0x128A JUMP JUMPDEST PUSH1 0x40 MLOAD DUP1 SWAP2 SUB SWAP1 RETURN JUMPDEST PUSH2 0x1B1 PUSH1 0x4 DUP1 CALLDATASIZE SUB DUP2 ADD SWAP1 PUSH2 0x1AC SWAP2 SWAP1 PUSH2 0x1176 JUMP JUMPDEST PUSH2 0x6B9 JUMP JUMPDEST STOP JUMPDEST PUSH2 0x1BB PUSH2 0x7C3 JUMP JUMPDEST PUSH1 0x40 MLOAD PUSH2 0x1CB SWAP5 SWAP4 SWAP3 SWAP2 SWAP1 PUSH2 0x14C8 JUMP JUMPDEST PUSH1 0x40 MLOAD DUP1 SWAP2 SUB SWAP1 RETURN JUMPDEST PUSH2 0x1EE PUSH1 0x4 DUP1 CALLDATASIZE SUB DUP2 ADD SWAP1 PUSH2 0x1E9 SWAP2 SWAP1 PUSH2 0x1551 JUMP JUMPDEST PUSH2 0xA2F JUMP JUMPDEST PUSH1 0x40 MLOAD PUSH2 0x1FB SWAP2 SWAP1 PUSH2 0x128A JUMP JUMPDEST PUSH1 0x40 MLOAD DUP1 SWAP2 SUB SWAP1 RETURN JUMPDEST PUSH2 0x21E PUSH1 0x4 DUP1 CALLDATASIZE SUB DUP2 ADD SWAP1 PUSH2 0x219 SWAP2 SWAP1 PUSH2 0x1176 JUMP JUMPDEST PUSH2 0xA44 JUMP JUMPDEST PUSH1 0x40 MLOAD PUSH2 0x22B SWAP2 SWAP1 PUSH2 0x157C JUMP JUMPDEST PUSH1 0x40 MLOAD DUP1 SWAP2 SUB SWAP1 RETURN JUMPDEST PUSH2 0x24E PUSH1 0x4 DUP1 CALLDATASIZE SUB DUP2 ADD SWAP1 PUSH2 0x249 SWAP2 SWAP1 PUSH2 0x1551 JUMP JUMPDEST PUSH2 0xA7F JUMP JUMPDEST PUSH1 0x40 MLOAD PUSH2 0x25B SWAP2 SWAP1 PUSH2 0x128A JUMP JUMPDEST PUSH1 0x40 MLOAD DUP1 SWAP2 SUB SWAP1 RETURN JUMPDEST PUSH2 0x26C PUSH2 0xA85 JUMP JUMPDEST PUSH1 0x40 MLOAD PUSH2 0x279 SWAP2 SWAP1 PUSH2 0x128A JUMP JUMPDEST PUSH1 0x40 MLOAD DUP1 SWAP2 SUB SWAP1 RETURN JUMPDEST PUSH2 0x28A PUSH2 0xA8B JUMP JUMPDEST PUSH1 0x40 MLOAD PUSH2 0x297 SWAP2 SWAP1 PUSH2 0x157C JUMP JUMPDEST PUSH1 0x40 MLOAD DUP1 SWAP2 SUB SWAP1 RETURN JUMPDEST PUSH2 0x2A8 PUSH2 0xAB2 JUMP JUMPDEST PUSH1 0x40 MLOAD PUSH2 0x2B5 SWAP2 SWAP1 PUSH2 0x1595 JUMP JUMPDEST PUSH1 0x40 MLOAD DUP1 SWAP2 SUB SWAP1 RETURN JUMPDEST PUSH2 0x2D8 PUSH1 0x4 DUP1 CALLDATASIZE SUB DUP2 ADD SWAP1 PUSH2 0x2D3 SWAP2 SWAP1 PUSH2 0x1176 JUMP JUMPDEST PUSH2 0xAC5 JUMP JUMPDEST STOP JUMPDEST PUSH2 0x2E2 PUSH2 0xD74 JUMP JUMPDEST PUSH1 0x40 MLOAD PUSH2 0x2EF SWAP2 SWAP1 PUSH2 0x157C JUMP JUMPDEST PUSH1 0x40 MLOAD DUP1 SWAP2 SUB SWAP1 RETURN JUMPDEST PUSH2 0x300 PUSH2 0xD99 JUMP JUMPDEST STOP JUMPDEST PUSH2 0x31C PUSH1 0x4 DUP1 CALLDATASIZE SUB DUP2 ADD SWAP1 PUSH2 0x317 SWAP2 SWAP1 PUSH2 0x15AE JUMP JUMPDEST PUSH2 0xF3C JUMP JUMPDEST PUSH1 0x40 MLOAD PUSH2 0x329 SWAP2 SWAP1 PUSH2 0x128A JUMP JUMPDEST PUSH1 0x40 MLOAD DUP1 SWAP2 SUB SWAP1 RETURN JUMPDEST PUSH2 0x33A PUSH2 0xF5C JUMP JUMPDEST PUSH1 0x40 MLOAD PUSH2 0x347 SWAP2 SWAP1 PUSH2 0x128A JUMP JUMPDEST PUSH1 0x40 MLOAD DUP1 SWAP2 SUB SWAP1 RETURN JUMPDEST PUSH2 0x358 PUSH2 0xF60 JUMP JUMPDEST STOP JUMPDEST PUSH2 0x362 PUSH2 0x1005 JUMP JUMPDEST PUSH1 0x40 MLOAD PUSH2 0x36F SWAP2 SWAP1 PUSH2 0x15EC JUMP JUMPDEST PUSH1 0x40 MLOAD DUP1 SWAP2 SUB SWAP1 RETURN JUMPDEST PUSH1 0x6 DUP2 DUP2 SLOAD DUP2 LT PUSH2 0x387 JUMPI PUSH0 DUP1 REVERT JUMPDEST SWAP1 PUSH0 MSTORE PUSH1 0x20 PUSH0 KECCAK256 SWAP1 PUSH1 0x5 MUL ADD PUSH0 SWAP2 POP SWAP1 POP DUP1 PUSH0 ADD PUSH0 SWAP1 SLOAD SWAP1 PUSH2 0x100 EXP SWAP1 DIV PUSH20 0xFFFFFFFFFFFFFFFFFFFFFFFFFFFFFFFFFFFFFFFF AND SWAP1 DUP1 PUSH1 0x1 ADD SLOAD SWAP1 DUP1 PUSH1 0x2 ADD SLOAD SWAP1 DUP1 PUSH1 0x4 ADD PUSH0 SWAP1 SLOAD SWAP1 PUSH2 0x100 EXP SWAP1 DIV PUSH1 0xFF AND SWAP1 POP DUP5 JUMP JUMPDEST PUSH1 0x60 PUSH1 0x6 PUSH1 0x40 MLOAD DUP1 PUSH1 0xA0 ADD PUSH1 0x40 MSTORE DUP1 CALLER PUSH20 0xFFFFFFFFFFFFFFFFFFFFFFFFFFFFFFFFFFFFFFFF AND DUP2 MSTORE PUSH1 0x20 ADD DUP6 DUP2 MSTORE PUSH1 0x20 ADD DUP5 DUP2 MSTORE PUSH1 0x20 ADD DUP4 DUP2 MSTORE PUSH1 0x20 ADD PUSH1 0x1 ISZERO ISZERO DUP2 MSTORE POP SWAP1 DUP1 PUSH1 0x1 DUP2 SLOAD ADD DUP1 DUP3 SSTORE DUP1 SWAP2 POP POP PUSH1 0x1 SWAP1 SUB SWAP1 PUSH0 MSTORE PUSH1 0x20 PUSH0 KECCAK256 SWAP1 PUSH1 0x5 MUL ADD PUSH0 SWAP1 SWAP2 SWAP1 SWAP2 SWAP1 SWAP2 POP PUSH0 DUP3 ADD MLOAD DUP2 PUSH0 ADD PUSH0 PUSH2 0x100 EXP DUP2 SLOAD DUP2 PUSH20 0xFFFFFFFFFFFFFFFFFFFFFFFFFFFFFFFFFFFFFFFF MUL NOT AND SWAP1 DUP4 PUSH20 0xFFFFFFFFFFFFFFFFFFFFFFFFFFFFFFFFFFFFFFFF AND MUL OR SWAP1 SSTORE POP PUSH1 0x20 DUP3 ADD MLOAD DUP2 PUSH1 0x1 ADD SSTORE PUSH1 0x40 DUP3 ADD MLOAD DUP2 PUSH1 0x2 ADD SSTORE PUSH1 0x60 DUP3 ADD MLOAD DUP2 PUSH1 0x3 ADD SWAP1 DUP1 MLOAD SWAP1 PUSH1 0x20 ADD SWAP1 PUSH2 0x4BC SWAP3 SWAP2 SWAP1 PUSH2 0x1090 JUMP JUMPDEST POP PUSH1 0x80 DUP3 ADD MLOAD DUP2 PUSH1 0x4 ADD PUSH0 PUSH2 0x100 EXP DUP2 SLOAD DUP2 PUSH1 0xFF MUL NOT AND SWAP1 DUP4 ISZERO ISZERO MUL OR SWAP1 SSTORE POP POP POP PUSH0 PUSH1 0x1 PUSH1 0x6 DUP1 SLOAD SWAP1 POP PUSH2 0x4F1 SWAP2 SWAP1 PUSH2 0x1639 JUMP JUMPDEST SWAP1 POP CALLER PUSH20 0xFFFFFFFFFFFFFFFFFFFFFFFFFFFFFFFFFFFFFFFF AND DUP2 PUSH32 0x571A5DFC09C77BBE59E7A00B078FEC1A53F090E992CCACDE1856DAB24624C968 PUSH1 0x2 SLOAD PUSH1 0x40 MLOAD PUSH2 0x53C SWAP2 SWAP1 PUSH2 0x128A JUMP JUMPDEST PUSH1 0x40 MLOAD DUP1 SWAP2 SUB SWAP1 LOG3 POP POP POP POP JUMP JUMPDEST PUSH0 PUSH1 0x60 PUSH1 0x6 PUSH1 0x40 MLOAD DUP1 PUSH1 0xA0 ADD PUSH1 0x40 MSTORE DUP1 CALLER PUSH20 0xFFFFFFFFFFFFFFFFFFFFFFFFFFFFFFFFFFFFFFFF AND DUP2 MSTORE PUSH1 0x20 ADD DUP7 DUP2 MSTORE PUSH1 0x20 ADD DUP6 DUP2 MSTORE PUSH1 0x20 ADD DUP4 DUP2 MSTORE PUSH1 0x20 ADD PUSH0 ISZERO ISZERO DUP2 MSTORE POP SWAP1 DUP1 PUSH1 0x1 DUP2 SLOAD ADD DUP1 DUP3 SSTORE DUP1 SWAP2 POP POP PUSH1 0x1 SWAP1 SUB SWAP1 PUSH0 MSTORE PUSH1 0x20 PUSH0 KECCAK256 SWAP1 PUSH1 0x5 MUL ADD PUSH0 SWAP1 SWAP2 SWAP1 SWAP2 SWAP1 SWAP2 POP PUSH0 DUP3 ADD MLOAD DUP2 PUSH0 ADD PUSH0 PUSH2 0x100 EXP DUP2 SLOAD DUP2 PUSH20 0xFFFFFFFFFFFFFFFFFFFFFFFFFFFFFFFFFFFFFFFF MUL NOT AND SWAP1 DUP4 PUSH20 0xFFFFFFFFFFFFFFFFFFFFFFFFFFFFFFFFFFFFFFFF AND MUL OR SWAP1 SSTORE POP PUSH1 0x20 DUP3 ADD MLOAD DUP2 PUSH1 0x1 ADD SSTORE PUSH1 0x40 DUP3 ADD MLOAD DUP2 PUSH1 0x2 ADD SSTORE PUSH1 0x60 DUP3 ADD MLOAD DUP2 PUSH1 0x3 ADD SWAP1 DUP1 MLOAD SWAP1 PUSH1 0x20 ADD SWAP1 PUSH2 0x628 SWAP3 SWAP2 SWAP1 PUSH2 0x1090 JUMP JUMPDEST POP PUSH1 0x80 DUP3 ADD MLOAD DUP2 PUSH1 0x4 ADD PUSH0 PUSH2 0x100 EXP DUP2 SLOAD DUP2 PUSH1 0xFF MUL NOT AND SWAP1 DUP4 ISZERO ISZERO MUL OR SWAP1 SSTORE POP POP POP PUSH0 PUSH1 0x1 PUSH1 0x6 DUP1 SLOAD SWAP1 POP PUSH2 0x65D SWAP2 SWAP1 PUSH2 0x1639 JUMP JUMPDEST SWAP1 POP CALLER PUSH20 0xFFFFFFFFFFFFFFFFFFFFFFFFFFFFFFFFFFFFFFFF AND DUP2 PUSH32 0xF18E92C00977B9CA5951F9775E5CF053C54BDAEC0794874261786EE3E9460EBD DUP8 PUSH1 0x40 MLOAD PUSH2 0x6A6 SWAP2 SWAP1 PUSH2 0x128A JUMP JUMPDEST PUSH1 0x40 MLOAD DUP1 SWAP2 SUB SWAP1 LOG3 DUP1 SWAP3 POP POP POP SWAP3 SWAP2 POP POP JUMP JUMPDEST PUSH0 PUSH1 0x6 DUP3 DUP2 SLOAD DUP2 LT PUSH2 0x6CE JUMPI PUSH2 0x6CD PUSH2 0x166C JUMP JUMPDEST JUMPDEST SWAP1 PUSH0 MSTORE PUSH1 0x20 PUSH0 KECCAK256 SWAP1 PUSH1 0x5 MUL ADD SWAP1 POP DUP1 PUSH0 ADD PUSH0 SWAP1 SLOAD SWAP1 PUSH2 0x100 EXP SWAP1 DIV PUSH20 0xFFFFFFFFFFFFFFFFFFFFFFFFFFFFFFFFFFFFFFFF AND PUSH20 0xFFFFFFFFFFFFFFFFFFFFFFFFFFFFFFFFFFFFFFFF AND CALLER PUSH20 0xFFFFFFFFFFFFFFFFFFFFFFFFFFFFFFFFFFFFFFFF AND SUB PUSH2 0x76C JUMPI PUSH1 0x40 MLOAD PUSH32 0x8C379A000000000000000000000000000000000000000000000000000000000 DUP2 MSTORE PUSH1 0x4 ADD PUSH2 0x763 SWAP1 PUSH2 0x16F3 JUMP JUMPDEST PUSH1 0x40 MLOAD DUP1 SWAP2 SUB SWAP1 REVERT JUMPDEST CALLER PUSH20 0xFFFFFFFFFFFFFFFFFFFFFFFFFFFFFFFFFFFFFFFF AND DUP3 PUSH32 0x313D5C7BF54E15A1B7DC24A51B097C6458663A33E7A4BE386F80FEA411DCDA65 DUP4 PUSH1 0x1 ADD SLOAD PUSH1 0x40 MLOAD PUSH2 0x7B7 SWAP2 SWAP1 PUSH2 0x128A JUMP JUMPDEST PUSH1 0x40 MLOAD DUP1 SWAP2 SUB SWAP1 LOG3 POP POP JUMP JUMPDEST PUSH1 0x60 DUP1 PUSH1 0x60 DUP1 PUSH0 PUSH1 0x6 DUP1 SLOAD SWAP1 POP SWAP1 POP DUP1 PUSH8 0xFFFFFFFFFFFFFFFF DUP2 GT ISZERO PUSH2 0x7EC JUMPI PUSH2 0x7EB PUSH2 0x1711 JUMP JUMPDEST JUMPDEST PUSH1 0x40 MLOAD SWAP1 DUP1 DUP3 MSTORE DUP1 PUSH1 0x20 MUL PUSH1 0x20 ADD DUP3 ADD PUSH1 0x40 MSTORE DUP1 ISZERO PUSH2 0x81A JUMPI DUP2 PUSH1 0x20 ADD PUSH1 0x20 DUP3 MUL DUP1 CALLDATASIZE DUP4 CALLDATACOPY DUP1 DUP3 ADD SWAP2 POP POP SWAP1 POP JUMPDEST POP SWAP5 POP DUP1 PUSH8 0xFFFFFFFFFFFFFFFF DUP2 GT ISZERO PUSH2 0x837 JUMPI PUSH2 0x836 PUSH2 0x1711 JUMP JUMPDEST JUMPDEST PUSH1 0x40 MLOAD SWAP1 DUP1 DUP3 MSTORE DUP1 PUSH1 0x20 MUL PUSH1 0x20 ADD DUP3 ADD PUSH1 0x40 MSTORE DUP1 ISZERO PUSH2 0x865 JUMPI DUP2 PUSH1 0x20 ADD PUSH1 0x20 DUP3 MUL DUP1 CALLDATASIZE DUP4 CALLDATACOPY DUP1 DUP3 ADD SWAP2 POP POP SWAP1 POP JUMPDEST POP SWAP4 POP DUP1 PUSH8 0xFFFFFFFFFFFFFFFF DUP2 GT ISZERO PUSH2 0x882 JUMPI PUSH2 0x881 PUSH2 0x1711 JUMP JUMPDEST JUMPDEST PUSH1 0x40 MLOAD SWAP1 DUP1 DUP3 MSTORE DUP1 PUSH1 0x20 MUL PUSH1 0x20 ADD DUP3 ADD PUSH1 0x40 MSTORE DUP1 ISZERO PUSH2 0x8B0 JUMPI DUP2 PUSH1 0x20 ADD PUSH1 0x20 DUP3 MUL DUP1 CALLDATASIZE DUP4 CALLDATACOPY DUP1 DUP3 ADD SWAP2 POP POP SWAP1 POP JUMPDEST POP SWAP3 POP DUP1 PUSH8 0xFFFFFFFFFFFFFFFF DUP2 GT ISZERO PUSH2 0x8CD JUMPI PUSH2 0x8CC PUSH2 0x1711 JUMP JUMPDEST JUMPDEST PUSH1 0x40 MLOAD SWAP1 DUP1 DUP3 MSTORE DUP1 PUSH1 0x20 MUL PUSH1 0x20 ADD DUP3 ADD PUSH1 0x40 MSTORE DUP1 ISZERO PUSH2 0x8FB JUMPI DUP2 PUSH1 0x20 ADD PUSH1 0x20 DUP3 MUL DUP1 CALLDATASIZE DUP4 CALLDATACOPY DUP1 DUP3 ADD SWAP2 POP POP SWAP1 POP JUMPDEST POP SWAP2 POP PUSH0 JUMPDEST DUP2 DUP2 LT ISZERO PUSH2 0xA27 JUMPI PUSH0 PUSH1 0x6 DUP3 DUP2 SLOAD DUP2 LT PUSH2 0x91D JUMPI PUSH2 0x91C PUSH2 0x166C JUMP JUMPDEST JUMPDEST SWAP1 PUSH0 MSTORE PUSH1 0x20 PUSH0 KECCAK256 SWAP1 PUSH1 0x5 MUL ADD SWAP1 POP DUP1 PUSH0 ADD PUSH0 SWAP1 SLOAD SWAP1 PUSH2 0x100 EXP SWAP1 DIV PUSH20 0xFFFFFFFFFFFFFFFFFFFFFFFFFFFFFFFFFFFFFFFF AND DUP8 DUP4 DUP2 MLOAD DUP2 LT PUSH2 0x961 JUMPI PUSH2 0x960 PUSH2 0x166C JUMP JUMPDEST JUMPDEST PUSH1 0x20 MUL PUSH1 0x20 ADD ADD SWAP1 PUSH20 0xFFFFFFFFFFFFFFFFFFFFFFFFFFFFFFFFFFFFFFFF AND SWAP1 DUP2 PUSH20 0xFFFFFFFFFFFFFFFFFFFFFFFFFFFFFFFFFFFFFFFF AND DUP2 MSTORE POP POP DUP1 PUSH1 0x1 ADD SLOAD DUP7 DUP4 DUP2 MLOAD DUP2 LT PUSH2 0x9B3 JUMPI PUSH2 0x9B2 PUSH2 0x166C JUMP JUMPDEST JUMPDEST PUSH1 0x20 MUL PUSH1 0x20 ADD ADD DUP2 DUP2 MSTORE POP POP DUP1 PUSH1 0x2 ADD SLOAD DUP6 DUP4 DUP2 MLOAD DUP2 LT PUSH2 0x9D7 JUMPI PUSH2 0x9D6 PUSH2 0x166C JUMP JUMPDEST JUMPDEST PUSH1 0x20 MUL PUSH1 0x20 ADD ADD DUP2 DUP2 MSTORE POP POP DUP1 PUSH1 0x4 ADD PUSH0 SWAP1 SLOAD SWAP1 PUSH2 0x100 EXP SWAP1 DIV PUSH1 0xFF AND DUP5 DUP4 DUP2 MLOAD DUP2 LT PUSH2 0xA07 JUMPI PUSH2 0xA06 PUSH2 0x166C JUMP JUMPDEST JUMPDEST PUSH1 0x20 MUL PUSH1 0x20 ADD ADD SWAP1 ISZERO ISZERO SWAP1 DUP2 ISZERO ISZERO DUP2 MSTORE POP POP POP DUP1 DUP1 PUSH1 0x1 ADD SWAP2 POP POP PUSH2 0x900 JUMP JUMPDEST POP POP SWAP1 SWAP2 SWAP3 SWAP4 JUMP JUMPDEST PUSH1 0x4 PUSH1 0x20 MSTORE DUP1 PUSH0 MSTORE PUSH1 0x40 PUSH0 KECCAK256 PUSH0 SWAP2 POP SWAP1 POP SLOAD DUP2 JUMP JUMPDEST PUSH1 0x3 DUP2 DUP2 SLOAD DUP2 LT PUSH2 0xA53 JUMPI PUSH0 DUP1 REVERT JUMPDEST SWAP1 PUSH0 MSTORE PUSH1 0x20 PUSH0 KECCAK256 ADD PUSH0 SWAP2 POP SLOAD SWAP1 PUSH2 0x100 EXP SWAP1 DIV PUSH20 0xFFFFFFFFFFFFFFFFFFFFFFFFFFFFFFFFFFFFFFFF AND DUP2 JUMP JUMPDEST PUSH0 SWAP2 SWAP1 POP JUMP JUMPDEST PUSH1 0x2 SLOAD DUP2 JUMP JUMPDEST PUSH0 DUP1 PUSH0 SWAP1 SLOAD SWAP1 PUSH2 0x100 EXP SWAP1 DIV PUSH20 0xFFFFFFFFFFFFFFFFFFFFFFFFFFFFFFFFFFFFFFFF AND SWAP1 POP SWAP1 JUMP JUMPDEST PUSH1 0x1 PUSH1 0x14 SWAP1 SLOAD SWAP1 PUSH2 0x100 EXP SWAP1 DIV PUSH1 0xFF AND DUP2 JUMP JUMPDEST PUSH0 PUSH1 0x6 DUP3 DUP2 SLOAD DUP2 LT PUSH2 0xADA JUMPI PUSH2 0xAD9 PUSH2 0x166C JUMP JUMPDEST JUMPDEST SWAP1 PUSH0 MSTORE PUSH1 0x20 PUSH0 KECCAK256 SWAP1 PUSH1 0x5 MUL ADD SWAP1 POP DUP1 PUSH1 0x4 ADD PUSH0 SWAP1 SLOAD SWAP1 PUSH2 0x100 EXP SWAP1 DIV PUSH1 0xFF AND ISZERO PUSH2 0xB39 JUMPI PUSH1 0x40 MLOAD PUSH32 0x8C379A000000000000000000000000000000000000000000000000000000000 DUP2 MSTORE PUSH1 0x4 ADD PUSH2 0xB30 SWAP1 PUSH2 0x1788 JUMP JUMPDEST PUSH1 0x40 MLOAD DUP1 SWAP2 SUB SWAP1 REVERT JUMPDEST PUSH0 DUP1 JUMPDEST PUSH1 0x3 DUP1 SLOAD SWAP1 POP DUP2 LT ISZERO PUSH2 0xBCD JUMPI CALLER PUSH20 0xFFFFFFFFFFFFFFFFFFFFFFFFFFFFFFFFFFFFFFFF AND PUSH1 0x3 DUP3 DUP2 SLOAD DUP2 LT PUSH2 0xB74 JUMPI PUSH2 0xB73 PUSH2 0x166C JUMP JUMPDEST JUMPDEST SWAP1 PUSH0 MSTORE PUSH1 0x20 PUSH0 KECCAK256 ADD PUSH0 SWAP1 SLOAD SWAP1 PUSH2 0x100 EXP SWAP1 DIV PUSH20 0xFFFFFFFFFFFFFFFFFFFFFFFFFFFFFFFFFFFFFFFF AND PUSH20 0xFFFFFFFFFFFFFFFFFFFFFFFFFFFFFFFFFFFFFFFF AND SUB PUSH2 0xBC0 JUMPI PUSH1 0x1 SWAP2 POP PUSH2 0xBCD JUMP JUMPDEST DUP1 DUP1 PUSH1 0x1 ADD SWAP2 POP POP PUSH2 0xB3C JUMP JUMPDEST POP DUP1 PUSH2 0xC0E JUMPI PUSH1 0x40 MLOAD PUSH32 0x8C379A000000000000000000000000000000000000000000000000000000000 DUP2 MSTORE PUSH1 0x4 ADD PUSH2 0xC05 SWAP1 PUSH2 0x1816 JUMP JUMPDEST PUSH1 0x40 MLOAD DUP1 SWAP2 SUB SWAP1 REVERT JUMPDEST DUP2 PUSH0 ADD PUSH0 SWAP1 SLOAD SWAP1 PUSH2 0x100 EXP SWAP1 DIV PUSH20 0xFFFFFFFFFFFFFFFFFFFFFFFFFFFFFFFFFFFFFFFF AND PUSH20 0xFFFFFFFFFFFFFFFFFFFFFFFFFFFFFFFFFFFFFFFF AND CALLER PUSH20 0xFFFFFFFFFFFFFFFFFFFFFFFFFFFFFFFFFFFFFFFF AND SUB PUSH2 0xC9E JUMPI PUSH1 0x40 MLOAD PUSH32 0x8C379A000000000000000000000000000000000000000000000000000000000 DUP2 MSTORE PUSH1 0x4 ADD PUSH2 0xC95 SWAP1 PUSH2 0x187E JUMP JUMPDEST PUSH1 0x40 MLOAD DUP1 SWAP2 SUB SWAP1 REVERT JUMPDEST DUP2 PUSH1 0x3 ADD CALLER SWAP1 DUP1 PUSH1 0x1 DUP2 SLOAD ADD DUP1 DUP3 SSTORE DUP1 SWAP2 POP POP PUSH1 0x1 SWAP1 SUB SWAP1 PUSH0 MSTORE PUSH1 0x20 PUSH0 KECCAK256 ADD PUSH0 SWAP1 SWAP2 SWAP1 SWAP2 SWAP1 SWAP2 PUSH2 0x100 EXP DUP2 SLOAD DUP2 PUSH20 0xFFFFFFFFFFFFFFFFFFFFFFFFFFFFFFFFFFFFFFFF MUL NOT AND SWAP1 DUP4 PUSH20 0xFFFFFFFFFFFFFFFFFFFFFFFFFFFFFFFFFFFFFFFF AND MUL OR SWAP1 SSTORE POP PUSH1 0x1 DUP3 PUSH1 0x4 ADD PUSH0 PUSH2 0x100 EXP DUP2 SLOAD DUP2 PUSH1 0xFF MUL NOT AND SWAP1 DUP4 ISZERO ISZERO MUL OR SWAP1 SSTORE POP CALLER PUSH20 0xFFFFFFFFFFFFFFFFFFFFFFFFFFFFFFFFFFFFFFFF AND DUP4 PUSH32 0x1DC73A35285FDA24D55673E615930AD58EAB11F47D6838526FFBD7D2C1847AF4 DUP5 PUSH1 0x2 ADD SLOAD PUSH1 0x40 MLOAD PUSH2 0xD67 SWAP2 SWAP1 PUSH2 0x128A JUMP JUMPDEST PUSH1 0x40 MLOAD DUP1 SWAP2 SUB SWAP1 LOG3 POP POP POP JUMP JUMPDEST PUSH1 0x1 PUSH0 SWAP1 SLOAD SWAP1 PUSH2 0x100 EXP SWAP1 DIV PUSH20 0xFFFFFFFFFFFFFFFFFFFFFFFFFFFFFFFFFFFFFFFF AND DUP2 JUMP JUMPDEST CALLER PUSH20 0xFFFFFFFFFFFFFFFFFFFFFFFFFFFFFFFFFFFFFFFF AND PUSH2 0xDB8 PUSH2 0xA8B JUMP JUMPDEST PUSH20 0xFFFFFFFFFFFFFFFFFFFFFFFFFFFFFFFFFFFFFFFF AND EQ PUSH2 0xE0E JUMPI PUSH1 0x40 MLOAD PUSH32 0x8C379A000000000000000000000000000000000000000000000000000000000 DUP2 MSTORE PUSH1 0x4 ADD PUSH2 0xE05 SWAP1 PUSH2 0x18E6 JUMP JUMPDEST PUSH1 0x40 MLOAD DUP1 SWAP2 SUB SWAP1 REVERT JUMPDEST PUSH1 0x1 PUSH1 0x14 SWAP1 SLOAD SWAP1 PUSH2 0x100 EXP SWAP1 DIV PUSH1 0xFF AND ISZERO PUSH2 0xE5E JUMPI PUSH1 0x40 MLOAD PUSH32 0x8C379A000000000000000000000000000000000000000000000000000000000 DUP2 MSTORE PUSH1 0x4 ADD PUSH2 0xE55 SWAP1 PUSH2 0x1974 JUMP JUMPDEST PUSH1 0x40 MLOAD DUP1 SWAP2 SUB SWAP1 REVERT JUMPDEST PUSH0 PUSH1 0x40 MLOAD PUSH2 0xE6B SWAP1 PUSH2 0x1117 JUMP JUMPDEST PUSH1 0x40 MLOAD DUP1 SWAP2 SUB SWAP1 PUSH0 CREATE DUP1 ISZERO DUP1 ISZERO PUSH2 0xE84 JUMPI RETURNDATASIZE PUSH0 DUP1 RETURNDATACOPY RETURNDATASIZE PUSH0 REVERT JUMPDEST POP SWAP1 POP DUP1 PUSH1 0x1 PUSH0 PUSH2 0x100 EXP DUP2 SLOAD DUP2 PUSH20 0xFFFFFFFFFFFFFFFFFFFFFFFFFFFFFFFFFFFFFFFF MUL NOT AND SWAP1 DUP4 PUSH20 0xFFFFFFFFFFFFFFFFFFFFFFFFFFFFFFFFFFFFFFFF AND MUL OR SWAP1 SSTORE POP PUSH1 0x1 DUP1 PUSH1 0x14 PUSH2 0x100 EXP DUP2 SLOAD DUP2 PUSH1 0xFF MUL NOT AND SWAP1 DUP4 ISZERO ISZERO MUL OR SWAP1 SSTORE POP PUSH32 0x5A328B2A6CA99D3F214E0A041DCD254E948AA9A2E1B8B97233531B6A1D1872C9 PUSH1 0x1 PUSH0 SWAP1 SLOAD SWAP1 PUSH2 0x100 EXP SWAP1 DIV PUSH20 0xFFFFFFFFFFFFFFFFFFFFFFFFFFFFFFFFFFFFFFFF AND PUSH1 0x40 MLOAD PUSH2 0xF31 SWAP2 SWAP1 PUSH2 0x157C JUMP JUMPDEST PUSH1 0x40 MLOAD DUP1 SWAP2 SUB SWAP1 LOG1 POP JUMP JUMPDEST PUSH1 0x5 PUSH1 0x20 MSTORE DUP2 PUSH0 MSTORE PUSH1 0x40 PUSH0 KECCAK256 PUSH1 0x20 MSTORE DUP1 PUSH0 MSTORE PUSH1 0x40 PUSH0 KECCAK256 PUSH0 SWAP2 POP SWAP2 POP POP SLOAD DUP2 JUMP JUMPDEST PUSH0 SWAP1 JUMP JUMPDEST PUSH1 0x3 CALLER SWAP1 DUP1 PUSH1 0x1 DUP2 SLOAD ADD DUP1 DUP3 SSTORE DUP1 SWAP2 POP POP PUSH1 0x1 SWAP1 SUB SWAP1 PUSH0 MSTORE PUSH1 0x20 PUSH0 KECCAK256 ADD PUSH0 SWAP1 SWAP2 SWAP1 SWAP2 SWAP1 SWAP2 PUSH2 0x100 EXP DUP2 SLOAD DUP2 PUSH20 0xFFFFFFFFFFFFFFFFFFFFFFFFFFFFFFFFFFFFFFFF MUL NOT AND SWAP1 DUP4 PUSH20 0xFFFFFFFFFFFFFFFFFFFFFFFFFFFFFFFFFFFFFFFF AND MUL OR SWAP1 SSTORE POP CALLER PUSH20 0xFFFFFFFFFFFFFFFFFFFFFFFFFFFFFFFFFFFFFFFF AND PUSH32 0xD09501348473474A20C772C79C653E1FD7E8B437E418FE235D277D2C88853251 PUSH1 0x40 MLOAD PUSH1 0x40 MLOAD DUP1 SWAP2 SUB SWAP1 LOG2 JUMP JUMPDEST PUSH1 0x60 PUSH1 0x3 DUP1 SLOAD DUP1 PUSH1 0x20 MUL PUSH1 0x20 ADD PUSH1 0x40 MLOAD SWAP1 DUP2 ADD PUSH1 0x40 MSTORE DUP1 SWAP3 SWAP2 SWAP1 DUP2 DUP2 MSTORE PUSH1 0x20 ADD DUP3 DUP1 SLOAD DUP1 ISZERO PUSH2 0x1086 JUMPI PUSH1 0x20 MUL DUP3 ADD SWAP2 SWAP1 PUSH0 MSTORE PUSH1 0x20 PUSH0 KECCAK256 SWAP1 JUMPDEST DUP2 PUSH0 SWAP1 SLOAD SWAP1 PUSH2 0x100 EXP SWAP1 DIV PUSH20 0xFFFFFFFFFFFFFFFFFFFFFFFFFFFFFFFFFFFFFFFF AND PUSH20 0xFFFFFFFFFFFFFFFFFFFFFFFFFFFFFFFFFFFFFFFF AND DUP2 MSTORE PUSH1 0x20 ADD SWAP1 PUSH1 0x1 ADD SWAP1 DUP1 DUP4 GT PUSH2 0x103D JUMPI JUMPDEST POP POP POP POP POP SWAP1 POP SWAP1 JUMP JUMPDEST DUP3 DUP1 SLOAD DUP3 DUP3 SSTORE SWAP1 PUSH0 MSTORE PUSH1 0x20 PUSH0 KECCAK256 SWAP1 DUP2 ADD SWAP3 DUP3 ISZERO PUSH2 0x1106 JUMPI SWAP2 PUSH1 0x20 MUL DUP3 ADD JUMPDEST DUP3 DUP2 GT ISZERO PUSH2 0x1105 JUMPI DUP3 MLOAD DUP3 PUSH0 PUSH2 0x100 EXP DUP2 SLOAD DUP2 PUSH20 0xFFFFFFFFFFFFFFFFFFFFFFFFFFFFFFFFFFFFFFFF MUL NOT AND SWAP1 DUP4 PUSH20 0xFFFFFFFFFFFFFFFFFFFFFFFFFFFFFFFFFFFFFFFF AND MUL OR SWAP1 SSTORE POP SWAP2 PUSH1 0x20 ADD SWAP2 SWAP1 PUSH1 0x1 ADD SWAP1 PUSH2 0x10AE JUMP JUMPDEST JUMPDEST POP SWAP1 POP PUSH2 0x1113 SWAP2 SWAP1 PUSH2 0x1124 JUMP JUMPDEST POP SWAP1 JUMP JUMPDEST PUSH2 0xF9C DUP1 PUSH2 0x1993 DUP4 CODECOPY ADD SWAP1 JUMP JUMPDEST JUMPDEST DUP1 DUP3 GT ISZERO PUSH2 0x113B JUMPI PUSH0 DUP2 PUSH0 SWAP1 SSTORE POP PUSH1 0x1 ADD PUSH2 0x1125 JUMP JUMPDEST POP SWAP1 JUMP JUMPDEST PUSH0 DUP1 REVERT JUMPDEST PUSH0 DUP2 SWAP1 POP SWAP2 SWAP1 POP JUMP JUMPDEST PUSH2 0x1155 DUP2 PUSH2 0x1143 JUMP JUMPDEST DUP2 EQ PUSH2 0x115F JUMPI PUSH0 DUP1 REVERT JUMPDEST POP JUMP JUMPDEST PUSH0 DUP2 CALLDATALOAD SWAP1 POP PUSH2 0x1170 DUP2 PUSH2 0x114C JUMP JUMPDEST SWAP3 SWAP2 POP POP JUMP JUMPDEST PUSH0 PUSH1 0x20 DUP3 DUP5 SUB SLT ISZERO PUSH2 0x118B JUMPI PUSH2 0x118A PUSH2 0x113F JUMP JUMPDEST JUMPDEST PUSH0 PUSH2 0x1198 DUP5 DUP3 DUP6 ADD PUSH2 0x1162 JUMP JUMPDEST SWAP2 POP POP SWAP3 SWAP2 POP POP JUMP JUMPDEST PUSH0 PUSH20 0xFFFFFFFFFFFFFFFFFFFFFFFFFFFFFFFFFFFFFFFF DUP3 AND SWAP1 POP SWAP2 SWAP1 POP JUMP JUMPDEST PUSH0 PUSH2 0x11CA DUP3 PUSH2 0x11A1 JUMP JUMPDEST SWAP1 POP SWAP2 SWAP1 POP JUMP JUMPDEST PUSH2 0x11DA DUP2 PUSH2 0x11C0 JUMP JUMPDEST DUP3 MSTORE POP POP JUMP JUMPDEST PUSH2 0x11E9 DUP2 PUSH2 0x1143 JUMP JUMPDEST DUP3 MSTORE POP POP JUMP JUMPDEST PUSH0 DUP2 ISZERO ISZERO SWAP1 POP SWAP2 SWAP1 POP JUMP JUMPDEST PUSH2 0x1203 DUP2 PUSH2 0x11EF JUMP JUMPDEST DUP3 MSTORE POP POP JUMP JUMPDEST PUSH0 PUSH1 0x80 DUP3 ADD SWAP1 POP PUSH2 0x121C PUSH0 DUP4 ADD DUP8 PUSH2 0x11D1 JUMP JUMPDEST PUSH2 0x1229 PUSH1 0x20 DUP4 ADD DUP7 PUSH2 0x11E0 JUMP JUMPDEST PUSH2 0x1236 PUSH1 0x40 DUP4 ADD DUP6 PUSH2 0x11E0 JUMP JUMPDEST PUSH2 0x1243 PUSH1 0x60 DUP4 ADD DUP5 PUSH2 0x11FA JUMP JUMPDEST SWAP6 SWAP5 POP POP POP POP POP JUMP JUMPDEST PUSH0 DUP1 PUSH1 0x40 DUP4 DUP6 SUB SLT ISZERO PUSH2 0x1262 JUMPI PUSH2 0x1261 PUSH2 0x113F JUMP JUMPDEST JUMPDEST PUSH0 PUSH2 0x126F DUP6 DUP3 DUP7 ADD PUSH2 0x1162 JUMP JUMPDEST SWAP3 POP POP PUSH1 0x20 PUSH2 0x1280 DUP6 DUP3 DUP7 ADD PUSH2 0x1162 JUMP JUMPDEST SWAP2 POP POP SWAP3 POP SWAP3 SWAP1 POP JUMP JUMPDEST PUSH0 PUSH1 0x20 DUP3 ADD SWAP1 POP PUSH2 0x129D PUSH0 DUP4 ADD DUP5 PUSH2 0x11E0 JUMP JUMPDEST SWAP3 SWAP2 POP POP JUMP JUMPDEST PUSH0 DUP2 MLOAD SWAP1 POP SWAP2 SWAP1 POP JUMP JUMPDEST PUSH0 DUP3 DUP3 MSTORE PUSH1 0x20 DUP3 ADD SWAP1 POP SWAP3 SWAP2 POP POP JUMP JUMPDEST PUSH0 DUP2 SWAP1 POP PUSH1 0x20 DUP3 ADD SWAP1 POP SWAP2 SWAP1 POP JUMP JUMPDEST PUSH2 0x12D5 DUP2 PUSH2 0x11C0 JUMP JUMPDEST DUP3 MSTORE POP POP JUMP JUMPDEST PUSH0 PUSH2 0x12E6 DUP4 DUP4 PUSH2 0x12CC JUMP JUMPDEST PUSH1 0x20 DUP4 ADD SWAP1 POP SWAP3 SWAP2 POP POP JUMP JUMPDEST PUSH0 PUSH1 0x20 DUP3 ADD SWAP1 POP SWAP2 SWAP1 POP JUMP JUMPDEST PUSH0 PUSH2 0x1308 DUP3 PUSH2 0x12A3 JUMP JUMPDEST PUSH2 0x1312 DUP2 DUP6 PUSH2 0x12AD JUMP JUMPDEST SWAP4 POP PUSH2 0x131D DUP4 PUSH2 0x12BD JUMP JUMPDEST DUP1 PUSH0 JUMPDEST DUP4 DUP2 LT ISZERO PUSH2 0x134D JUMPI DUP2 MLOAD PUSH2 0x1334 DUP9 DUP3 PUSH2 0x12DB JUMP JUMPDEST SWAP8 POP PUSH2 0x133F DUP4 PUSH2 0x12F2 JUMP JUMPDEST SWAP3 POP POP PUSH1 0x1 DUP2 ADD SWAP1 POP PUSH2 0x1320 JUMP JUMPDEST POP DUP6 SWAP4 POP POP POP POP SWAP3 SWAP2 POP POP JUMP JUMPDEST PUSH0 DUP2 MLOAD SWAP1 POP SWAP2 SWAP1 POP JUMP JUMPDEST PUSH0 DUP3 DUP3 MSTORE PUSH1 0x20 DUP3 ADD SWAP1 POP SWAP3 SWAP2 POP POP JUMP JUMPDEST PUSH0 DUP2 SWAP1 POP PUSH1 0x20 DUP3 ADD SWAP1 POP SWAP2 SWAP1 POP JUMP JUMPDEST PUSH2 0x138C DUP2 PUSH2 0x1143 JUMP JUMPDEST DUP3 MSTORE POP POP JUMP JUMPDEST PUSH0 PUSH2 0x139D DUP4 DUP4 PUSH2 0x1383 JUMP JUMPDEST PUSH1 0x20 DUP4 ADD SWAP1 POP SWAP3 SWAP2 POP POP JUMP JUMPDEST PUSH0 PUSH1 0x20 DUP3 ADD SWAP1 POP SWAP2 SWAP1 POP JUMP JUMPDEST PUSH0 PUSH2 0x13BF DUP3 PUSH2 0x135A JUMP JUMPDEST PUSH2 0x13C9 DUP2 DUP6 PUSH2 0x1364 JUMP JUMPDEST SWAP4 POP PUSH2 0x13D4 DUP4 PUSH2 0x1374 JUMP JUMPDEST DUP1 PUSH0 JUMPDEST DUP4 DUP2 LT ISZERO PUSH2 0x1404 JUMPI DUP2 MLOAD PUSH2 0x13EB DUP9 DUP3 PUSH2 0x1392 JUMP JUMPDEST SWAP8 POP PUSH2 0x13F6 DUP4 PUSH2 0x13A9 JUMP JUMPDEST SWAP3 POP POP PUSH1 0x1 DUP2 ADD SWAP1 POP PUSH2 0x13D7 JUMP JUMPDEST POP DUP6 SWAP4 POP POP POP POP SWAP3 SWAP2 POP POP JUMP JUMPDEST PUSH0 DUP2 MLOAD SWAP1 POP SWAP2 SWAP1 POP JUMP JUMPDEST PUSH0 DUP3 DUP3 MSTORE PUSH1 0x20 DUP3 ADD SWAP1 POP SWAP3 SWAP2 POP POP JUMP JUMPDEST PUSH0 DUP2 SWAP1 POP PUSH1 0x20 DUP3 ADD SWAP1 POP SWAP2 SWAP1 POP JUMP JUMPDEST PUSH2 0x1443 DUP2 PUSH2 0x11EF JUMP JUMPDEST DUP3 MSTORE POP POP JUMP JUMPDEST PUSH0 PUSH2 0x1454 DUP4 DUP4 PUSH2 0x143A JUMP JUMPDEST PUSH1 0x20 DUP4 ADD SWAP1 POP SWAP3 SWAP2 POP POP JUMP JUMPDEST PUSH0 PUSH1 0x20 DUP3 ADD SWAP1 POP SWAP2 SWAP1 POP JUMP JUMPDEST PUSH0 PUSH2 0x1476 DUP3 PUSH2 0x1411 JUMP JUMPDEST PUSH2 0x1480 DUP2 DUP6 PUSH2 0x141B JUMP JUMPDEST SWAP4 POP PUSH2 0x148B DUP4 PUSH2 0x142B JUMP JUMPDEST DUP1 PUSH0 JUMPDEST DUP4 DUP2 LT ISZERO PUSH2 0x14BB JUMPI DUP2 MLOAD PUSH2 0x14A2 DUP9 DUP3 PUSH2 0x1449 JUMP JUMPDEST SWAP8 POP PUSH2 0x14AD DUP4 PUSH2 0x1460 JUMP JUMPDEST SWAP3 POP POP PUSH1 0x1 DUP2 ADD SWAP1 POP PUSH2 0x148E JUMP JUMPDEST POP DUP6 SWAP4 POP POP POP POP SWAP3 SWAP2 POP POP JUMP JUMPDEST PUSH0 PUSH1 0x80 DUP3 ADD SWAP1 POP DUP2 DUP2 SUB PUSH0 DUP4 ADD MSTORE PUSH2 0x14E0 DUP2 DUP8 PUSH2 0x12FE JUMP JUMPDEST SWAP1 POP DUP2 DUP2 SUB PUSH1 0x20 DUP4 ADD MSTORE PUSH2 0x14F4 DUP2 DUP7 PUSH2 0x13B5 JUMP JUMPDEST SWAP1 POP DUP2 DUP2 SUB PUSH1 0x40 DUP4 ADD MSTORE PUSH2 0x1508 DUP2 DUP6 PUSH2 0x13B5 JUMP JUMPDEST SWAP1 POP DUP2 DUP2 SUB PUSH1 0x60 DUP4 ADD MSTORE PUSH2 0x151C DUP2 DUP5 PUSH2 0x146C JUMP JUMPDEST SWAP1 POP SWAP6 SWAP5 POP POP POP POP POP JUMP JUMPDEST PUSH2 0x1530 DUP2 PUSH2 0x11C0 JUMP JUMPDEST DUP2 EQ PUSH2 0x153A JUMPI PUSH0 DUP1 REVERT JUMPDEST POP JUMP JUMPDEST PUSH0 DUP2 CALLDATALOAD SWAP1 POP PUSH2 0x154B DUP2 PUSH2 0x1527 JUMP JUMPDEST SWAP3 SWAP2 POP POP JUMP JUMPDEST PUSH0 PUSH1 0x20 DUP3 DUP5 SUB SLT ISZERO PUSH2 0x1566 JUMPI PUSH2 0x1565 PUSH2 0x113F JUMP JUMPDEST JUMPDEST PUSH0 PUSH2 0x1573 DUP5 DUP3 DUP6 ADD PUSH2 0x153D JUMP JUMPDEST SWAP2 POP POP SWAP3 SWAP2 POP POP JUMP JUMPDEST PUSH0 PUSH1 0x20 DUP3 ADD SWAP1 POP PUSH2 0x158F PUSH0 DUP4 ADD DUP5 PUSH2 0x11D1 JUMP JUMPDEST SWAP3 SWAP2 POP POP JUMP JUMPDEST PUSH0 PUSH1 0x20 DUP3 ADD SWAP1 POP PUSH2 0x15A8 PUSH0 DUP4 ADD DUP5 PUSH2 0x11FA JUMP JUMPDEST SWAP3 SWAP2 POP POP JUMP JUMPDEST PUSH0 DUP1 PUSH1 0x40 DUP4 DUP6 SUB SLT ISZERO PUSH2 0x15C4 JUMPI PUSH2 0x15C3 PUSH2 0x113F JUMP JUMPDEST JUMPDEST PUSH0 PUSH2 0x15D1 DUP6 DUP3 DUP7 ADD PUSH2 0x153D JUMP JUMPDEST SWAP3 POP POP PUSH1 0x20 PUSH2 0x15E2 DUP6 DUP3 DUP7 ADD PUSH2 0x153D JUMP JUMPDEST SWAP2 POP POP SWAP3 POP SWAP3 SWAP1 POP JUMP JUMPDEST PUSH0 PUSH1 0x20 DUP3 ADD SWAP1 POP DUP2 DUP2 SUB PUSH0 DUP4 ADD MSTORE PUSH2 0x1604 DUP2 DUP5 PUSH2 0x12FE JUMP JUMPDEST SWAP1 POP SWAP3 SWAP2 POP POP JUMP JUMPDEST PUSH32 0x4E487B7100000000000000000000000000000000000000000000000000000000 PUSH0 MSTORE PUSH1 0x11 PUSH1 0x4 MSTORE PUSH1 0x24 PUSH0 REVERT JUMPDEST PUSH0 PUSH2 0x1643 DUP3 PUSH2 0x1143 JUMP JUMPDEST SWAP2 POP PUSH2 0x164E DUP4 PUSH2 0x1143 JUMP JUMPDEST SWAP3 POP DUP3 DUP3 SUB SWAP1 POP DUP2 DUP2 GT ISZERO PUSH2 0x1666 JUMPI PUSH2 0x1665 PUSH2 0x160C JUMP JUMPDEST JUMPDEST SWAP3 SWAP2 POP POP JUMP JUMPDEST PUSH32 0x4E487B7100000000000000000000000000000000000000000000000000000000 PUSH0 MSTORE PUSH1 0x32 PUSH1 0x4 MSTORE PUSH1 0x24 PUSH0 REVERT JUMPDEST PUSH0 DUP3 DUP3 MSTORE PUSH1 0x20 DUP3 ADD SWAP1 POP SWAP3 SWAP2 POP POP JUMP JUMPDEST PUSH32 0x43616E6E6F742062757920796F75727320646174617365740000000000000000 PUSH0 DUP3 ADD MSTORE POP JUMP JUMPDEST PUSH0 PUSH2 0x16DD PUSH1 0x18 DUP4 PUSH2 0x1699 JUMP JUMPDEST SWAP2 POP PUSH2 0x16E8 DUP3 PUSH2 0x16A9 JUMP JUMPDEST PUSH1 0x20 DUP3 ADD SWAP1 POP SWAP2 SWAP1 POP JUMP JUMPDEST PUSH0 PUSH1 0x20 DUP3 ADD SWAP1 POP DUP2 DUP2 SUB PUSH0 DUP4 ADD MSTORE PUSH2 0x170A DUP2 PUSH2 0x16D1 JUMP JUMPDEST SWAP1 POP SWAP2 SWAP1 POP JUMP JUMPDEST PUSH32 0x4E487B7100000000000000000000000000000000000000000000000000000000 PUSH0 MSTORE PUSH1 0x41 PUSH1 0x4 MSTORE PUSH1 0x24 PUSH0 REVERT JUMPDEST PUSH32 0x4461746173657420616C72656164792076616C69646174656400000000000000 PUSH0 DUP3 ADD MSTORE POP JUMP JUMPDEST PUSH0 PUSH2 0x1772 PUSH1 0x19 DUP4 PUSH2 0x1699 JUMP JUMPDEST SWAP2 POP PUSH2 0x177D DUP3 PUSH2 0x173E JUMP JUMPDEST PUSH1 0x20 DUP3 ADD SWAP1 POP SWAP2 SWAP1 POP JUMP JUMPDEST PUSH0 PUSH1 0x20 DUP3 ADD SWAP1 POP DUP2 DUP2 SUB PUSH0 DUP4 ADD MSTORE PUSH2 0x179F DUP2 PUSH2 0x1766 JUMP JUMPDEST SWAP1 POP SWAP2 SWAP1 POP JUMP JUMPDEST PUSH32 0x596F75206D757374206265206120726567697374657265642076616C69646174 PUSH0 DUP3 ADD MSTORE PUSH32 0x6F72000000000000000000000000000000000000000000000000000000000000 PUSH1 0x20 DUP3 ADD MSTORE POP JUMP JUMPDEST PUSH0 PUSH2 0x1800 PUSH1 0x22 DUP4 PUSH2 0x1699 JUMP JUMPDEST SWAP2 POP PUSH2 0x180B DUP3 PUSH2 0x17A6 JUMP JUMPDEST PUSH1 0x40 DUP3 ADD SWAP1 POP SWAP2 SWAP1 POP JUMP JUMPDEST PUSH0 PUSH1 0x20 DUP3 ADD SWAP1 POP DUP2 DUP2 SUB PUSH0 DUP4 ADD MSTORE PUSH2 0x182D DUP2 PUSH2 0x17F4 JUMP JUMPDEST SWAP1 POP SWAP2 SWAP1 POP JUMP JUMPDEST PUSH32 0x56616C696461746F722063616E6E6F74206265207468652063726561746F7200 PUSH0 DUP3 ADD MSTORE POP JUMP JUMPDEST PUSH0 PUSH2 0x1868 PUSH1 0x1F DUP4 PUSH2 0x1699 JUMP JUMPDEST SWAP2 POP PUSH2 0x1873 DUP3 PUSH2 0x1834 JUMP JUMPDEST PUSH1 0x20 DUP3 ADD SWAP1 POP SWAP2 SWAP1 POP JUMP JUMPDEST PUSH0 PUSH1 0x20 DUP3 ADD SWAP1 POP DUP2 DUP2 SUB PUSH0 DUP4 ADD MSTORE PUSH2 0x1895 DUP2 PUSH2 0x185C JUMP JUMPDEST SWAP1 POP SWAP2 SWAP1 POP JUMP JUMPDEST PUSH32 0x4F776E61626C653A2063616C6C6572206973206E6F7420746865206F776E6572 PUSH0 DUP3 ADD MSTORE POP JUMP JUMPDEST PUSH0 PUSH2 0x18D0 PUSH1 0x20 DUP4 PUSH2 0x1699 JUMP JUMPDEST SWAP2 POP PUSH2 0x18DB DUP3 PUSH2 0x189C JUMP JUMPDEST PUSH1 0x20 DUP3 ADD SWAP1 POP SWAP2 SWAP1 POP JUMP JUMPDEST PUSH0 PUSH1 0x20 DUP3 ADD SWAP1 POP DUP2 DUP2 SUB PUSH0 DUP4 ADD MSTORE PUSH2 0x18FD DUP2 PUSH2 0x18C4 JUMP JUMPDEST SWAP1 POP SWAP2 SWAP1 POP JUMP JUMPDEST PUSH32 0x4461746150756E6B436F696E2068617320616C7265616479206265656E206465 PUSH0 DUP3 ADD MSTORE PUSH32 0x706C6F7965640000000000000000000000000000000000000000000000000000 PUSH1 0x20 DUP3 ADD MSTORE POP JUMP JUMPDEST PUSH0 PUSH2 0x195E PUSH1 0x26 DUP4 PUSH2 0x1699 JUMP JUMPDEST SWAP2 POP PUSH2 0x1969 DUP3 PUSH2 0x1904 JUMP JUMPDEST PUSH1 0x40 DUP3 ADD SWAP1 POP SWAP2 SWAP1 POP JUMP JUMPDEST PUSH0 PUSH1 0x20 DUP3 ADD SWAP1 POP DUP2 DUP2 SUB PUSH0 DUP4 ADD MSTORE PUSH2 0x198B DUP2 PUSH2 0x1952 JUMP JUMPDEST SWAP1 POP SWAP2 SWAP1 POP JUMP INVALID PUSH1 0x80 PUSH1 0x40 MSTORE PUSH9 0x56BC75E2D63100000 PUSH0 SSTORE CALLVALUE DUP1 ISZERO PUSH1 0x1A JUMPI PUSH0 DUP1 REVERT JUMPDEST POP PUSH0 SLOAD PUSH1 0x1 PUSH0 CALLER PUSH20 0xFFFFFFFFFFFFFFFFFFFFFFFFFFFFFFFFFFFFFFFF AND PUSH20 0xFFFFFFFFFFFFFFFFFFFFFFFFFFFFFFFFFFFFFFFF AND DUP2 MSTORE PUSH1 0x20 ADD SWAP1 DUP2 MSTORE PUSH1 0x20 ADD PUSH0 KECCAK256 DUP2 SWAP1 SSTORE POP PUSH2 0xF31 DUP1 PUSH2 0x6B PUSH0 CODECOPY PUSH0 RETURN INVALID PUSH1 0x80 PUSH1 0x40 MSTORE CALLVALUE DUP1 ISZERO PUSH2 0xF JUMPI PUSH0 DUP1 REVERT JUMPDEST POP PUSH1 0x4 CALLDATASIZE LT PUSH2 0x91 JUMPI PUSH0 CALLDATALOAD PUSH1 0xE0 SHR DUP1 PUSH4 0x313CE567 GT PUSH2 0x64 JUMPI DUP1 PUSH4 0x313CE567 EQ PUSH2 0x131 JUMPI DUP1 PUSH4 0x70A08231 EQ PUSH2 0x14F JUMPI DUP1 PUSH4 0x95D89B41 EQ PUSH2 0x17F JUMPI DUP1 PUSH4 0xA9059CBB EQ PUSH2 0x19D JUMPI DUP1 PUSH4 0xDD62ED3E EQ PUSH2 0x1CD JUMPI PUSH2 0x91 JUMP JUMPDEST DUP1 PUSH4 0x6FDDE03 EQ PUSH2 0x95 JUMPI DUP1 PUSH4 0x95EA7B3 EQ PUSH2 0xB3 JUMPI DUP1 PUSH4 0x18160DDD EQ PUSH2 0xE3 JUMPI DUP1 PUSH4 0x23B872DD EQ PUSH2 0x101 JUMPI JUMPDEST PUSH0 DUP1 REVERT JUMPDEST PUSH2 0x9D PUSH2 0x1FD JUMP JUMPDEST PUSH1 0x40 MLOAD PUSH2 0xAA SWAP2 SWAP1 PUSH2 0xA1F JUMP JUMPDEST PUSH1 0x40 MLOAD DUP1 SWAP2 SUB SWAP1 RETURN JUMPDEST PUSH2 0xCD PUSH1 0x4 DUP1 CALLDATASIZE SUB DUP2 ADD SWAP1 PUSH2 0xC8 SWAP2 SWAP1 PUSH2 0xAD0 JUMP JUMPDEST PUSH2 0x236 JUMP JUMPDEST PUSH1 0x40 MLOAD PUSH2 0xDA SWAP2 SWAP1 PUSH2 0xB28 JUMP JUMPDEST PUSH1 0x40 MLOAD DUP1 SWAP2 SUB SWAP1 RETURN JUMPDEST PUSH2 0xEB PUSH2 0x323 JUMP JUMPDEST PUSH1 0x40 MLOAD PUSH2 0xF8 SWAP2 SWAP1 PUSH2 0xB50 JUMP JUMPDEST PUSH1 0x40 MLOAD DUP1 SWAP2 SUB SWAP1 RETURN JUMPDEST PUSH2 0x11B PUSH1 0x4 DUP1 CALLDATASIZE SUB DUP2 ADD SWAP1 PUSH2 0x116 SWAP2 SWAP1 PUSH2 0xB69 JUMP JUMPDEST PUSH2 0x32B JUMP JUMPDEST PUSH1 0x40 MLOAD PUSH2 0x128 SWAP2 SWAP1 PUSH2 0xB28 JUMP JUMPDEST PUSH1 0x40 MLOAD DUP1 SWAP2 SUB SWAP1 RETURN JUMPDEST PUSH2 0x139 PUSH2 0x6A5 JUMP JUMPDEST PUSH1 0x40 MLOAD PUSH2 0x146 SWAP2 SWAP1 PUSH2 0xBD4 JUMP JUMPDEST PUSH1 0x40 MLOAD DUP1 SWAP2 SUB SWAP1 RETURN JUMPDEST PUSH2 0x169 PUSH1 0x4 DUP1 CALLDATASIZE SUB DUP2 ADD SWAP1 PUSH2 0x164 SWAP2 SWAP1 PUSH2 0xBED JUMP JUMPDEST PUSH2 0x6AA JUMP JUMPDEST PUSH1 0x40 MLOAD PUSH2 0x176 SWAP2 SWAP1 PUSH2 0xB50 JUMP JUMPDEST PUSH1 0x40 MLOAD DUP1 SWAP2 SUB SWAP1 RETURN JUMPDEST PUSH2 0x187 PUSH2 0x6F0 JUMP JUMPDEST PUSH1 0x40 MLOAD PUSH2 0x194 SWAP2 SWAP1 PUSH2 0xA1F JUMP JUMPDEST PUSH1 0x40 MLOAD DUP1 SWAP2 SUB SWAP1 RETURN JUMPDEST PUSH2 0x1B7 PUSH1 0x4 DUP1 CALLDATASIZE SUB DUP2 ADD SWAP1 PUSH2 0x1B2 SWAP2 SWAP1 PUSH2 0xAD0 JUMP JUMPDEST PUSH2 0x729 JUMP JUMPDEST PUSH1 0x40 MLOAD PUSH2 0x1C4 SWAP2 SWAP1 PUSH2 0xB28 JUMP JUMPDEST PUSH1 0x40 MLOAD DUP1 SWAP2 SUB SWAP1 RETURN JUMPDEST PUSH2 0x1E7 PUSH1 0x4 DUP1 CALLDATASIZE SUB DUP2 ADD SWAP1 PUSH2 0x1E2 SWAP2 SWAP1 PUSH2 0xC18 JUMP JUMPDEST PUSH2 0x92D JUMP JUMPDEST PUSH1 0x40 MLOAD PUSH2 0x1F4 SWAP2 SWAP1 PUSH2 0xB50 JUMP JUMPDEST PUSH1 0x40 MLOAD DUP1 SWAP2 SUB SWAP1 RETURN JUMPDEST PUSH1 0x40 MLOAD DUP1 PUSH1 0x40 ADD PUSH1 0x40 MSTORE DUP1 PUSH1 0xD DUP2 MSTORE PUSH1 0x20 ADD PUSH32 0x4461746150756E6B20436F696E00000000000000000000000000000000000000 DUP2 MSTORE POP DUP2 JUMP JUMPDEST PUSH0 DUP2 PUSH1 0x2 PUSH0 CALLER PUSH20 0xFFFFFFFFFFFFFFFFFFFFFFFFFFFFFFFFFFFFFFFF AND PUSH20 0xFFFFFFFFFFFFFFFFFFFFFFFFFFFFFFFFFFFFFFFF AND DUP2 MSTORE PUSH1 0x20 ADD SWAP1 DUP2 MSTORE PUSH1 0x20 ADD PUSH0 KECCAK256 PUSH0 DUP6 PUSH20 0xFFFFFFFFFFFFFFFFFFFFFFFFFFFFFFFFFFFFFFFF AND PUSH20 0xFFFFFFFFFFFFFFFFFFFFFFFFFFFFFFFFFFFFFFFF AND DUP2 MSTORE PUSH1 0x20 ADD SWAP1 DUP2 MSTORE PUSH1 0x20 ADD PUSH0 KECCAK256 DUP2 SWAP1 SSTORE POP DUP3 PUSH20 0xFFFFFFFFFFFFFFFFFFFFFFFFFFFFFFFFFFFFFFFF AND CALLER PUSH20 0xFFFFFFFFFFFFFFFFFFFFFFFFFFFFFFFFFFFFFFFF AND PUSH32 0x8C5BE1E5EBEC7D5BD14F71427D1E84F3DD0314C0F7B2291E5B200AC8C7C3B925 DUP5 PUSH1 0x40 MLOAD PUSH2 0x311 SWAP2 SWAP1 PUSH2 0xB50 JUMP JUMPDEST PUSH1 0x40 MLOAD DUP1 SWAP2 SUB SWAP1 LOG3 PUSH1 0x1 SWAP1 POP SWAP3 SWAP2 POP POP JUMP JUMPDEST PUSH0 DUP1 SLOAD SWAP1 POP SWAP1 JUMP JUMPDEST PUSH0 DUP1 PUSH20 0xFFFFFFFFFFFFFFFFFFFFFFFFFFFFFFFFFFFFFFFF AND DUP4 PUSH20 0xFFFFFFFFFFFFFFFFFFFFFFFFFFFFFFFFFFFFFFFF AND SUB PUSH2 0x39A JUMPI PUSH1 0x40 MLOAD PUSH32 0x8C379A000000000000000000000000000000000000000000000000000000000 DUP2 MSTORE PUSH1 0x4 ADD PUSH2 0x391 SWAP1 PUSH2 0xCC6 JUMP JUMPDEST PUSH1 0x40 MLOAD DUP1 SWAP2 SUB SWAP1 REVERT JUMPDEST DUP2 PUSH1 0x1 PUSH0 DUP7 PUSH20 0xFFFFFFFFFFFFFFFFFFFFFFFFFFFFFFFFFFFFFFFF AND PUSH20 0xFFFFFFFFFFFFFFFFFFFFFFFFFFFFFFFFFFFFFFFF AND DUP2 MSTORE PUSH1 0x20 ADD SWAP1 DUP2 MSTORE PUSH1 0x20 ADD PUSH0 KECCAK256 SLOAD LT ISZERO PUSH2 0x41A JUMPI PUSH1 0x40 MLOAD PUSH32 0x8C379A000000000000000000000000000000000000000000000000000000000 DUP2 MSTORE PUSH1 0x4 ADD PUSH2 0x411 SWAP1 PUSH2 0xD54 JUMP JUMPDEST PUSH1 0x40 MLOAD DUP1 SWAP2 SUB SWAP1 REVERT JUMPDEST PUSH0 PUSH1 0x2 PUSH0 DUP7 PUSH20 0xFFFFFFFFFFFFFFFFFFFFFFFFFFFFFFFFFFFFFFFF AND PUSH20 0xFFFFFFFFFFFFFFFFFFFFFFFFFFFFFFFFFFFFFFFF AND DUP2 MSTORE PUSH1 0x20 ADD SWAP1 DUP2 MSTORE PUSH1 0x20 ADD PUSH0 KECCAK256 PUSH0 CALLER PUSH20 0xFFFFFFFFFFFFFFFFFFFFFFFFFFFFFFFFFFFFFFFF AND PUSH20 0xFFFFFFFFFFFFFFFFFFFFFFFFFFFFFFFFFFFFFFFF AND DUP2 MSTORE PUSH1 0x20 ADD SWAP1 DUP2 MSTORE PUSH1 0x20 ADD PUSH0 KECCAK256 SLOAD SWAP1 POP DUP3 DUP2 LT ISZERO PUSH2 0x4D9 JUMPI PUSH1 0x40 MLOAD PUSH32 0x8C379A000000000000000000000000000000000000000000000000000000000 DUP2 MSTORE PUSH1 0x4 ADD PUSH2 0x4D0 SWAP1 PUSH2 0xDBC JUMP JUMPDEST PUSH1 0x40 MLOAD DUP1 SWAP2 SUB SWAP1 REVERT JUMPDEST DUP3 PUSH1 0x1 PUSH0 DUP8 PUSH20 0xFFFFFFFFFFFFFFFFFFFFFFFFFFFFFFFFFFFFFFFF AND PUSH20 0xFFFFFFFFFFFFFFFFFFFFFFFFFFFFFFFFFFFFFFFF AND DUP2 MSTORE PUSH1 0x20 ADD SWAP1 DUP2 MSTORE PUSH1 0x20 ADD PUSH0 KECCAK256 PUSH0 DUP3 DUP3 SLOAD PUSH2 0x525 SWAP2 SWAP1 PUSH2 0xE07 JUMP JUMPDEST SWAP3 POP POP DUP2 SWAP1 SSTORE POP DUP3 PUSH1 0x1 PUSH0 DUP7 PUSH20 0xFFFFFFFFFFFFFFFFFFFFFFFFFFFFFFFFFFFFFFFF AND PUSH20 0xFFFFFFFFFFFFFFFFFFFFFFFFFFFFFFFFFFFFFFFF AND DUP2 MSTORE PUSH1 0x20 ADD SWAP1 DUP2 MSTORE PUSH1 0x20 ADD PUSH0 KECCAK256 PUSH0 DUP3 DUP3 SLOAD PUSH2 0x578 SWAP2 SWAP1 PUSH2 0xE3A JUMP JUMPDEST SWAP3 POP POP DUP2 SWAP1 SSTORE POP PUSH32 0xFFFFFFFFFFFFFFFFFFFFFFFFFFFFFFFFFFFFFFFFFFFFFFFFFFFFFFFFFFFFFFFF DUP2 EQ PUSH2 0x699 JUMPI PUSH0 DUP4 DUP3 PUSH2 0x5B3 SWAP2 SWAP1 PUSH2 0xE07 JUMP JUMPDEST SWAP1 POP DUP1 PUSH1 0x2 PUSH0 DUP9 PUSH20 0xFFFFFFFFFFFFFFFFFFFFFFFFFFFFFFFFFFFFFFFF AND PUSH20 0xFFFFFFFFFFFFFFFFFFFFFFFFFFFFFFFFFFFFFFFF AND DUP2 MSTORE PUSH1 0x20 ADD SWAP1 DUP2 MSTORE PUSH1 0x20 ADD PUSH0 KECCAK256 PUSH0 CALLER PUSH20 0xFFFFFFFFFFFFFFFFFFFFFFFFFFFFFFFFFFFFFFFF AND PUSH20 0xFFFFFFFFFFFFFFFFFFFFFFFFFFFFFFFFFFFFFFFF AND DUP2 MSTORE PUSH1 0x20 ADD SWAP1 DUP2 MSTORE PUSH1 0x20 ADD PUSH0 KECCAK256 DUP2 SWAP1 SSTORE POP CALLER PUSH20 0xFFFFFFFFFFFFFFFFFFFFFFFFFFFFFFFFFFFFFFFF AND DUP7 PUSH20 0xFFFFFFFFFFFFFFFFFFFFFFFFFFFFFFFFFFFFFFFF AND PUSH32 0x8C5BE1E5EBEC7D5BD14F71427D1E84F3DD0314C0F7B2291E5B200AC8C7C3B925 DUP4 PUSH1 0x40 MLOAD PUSH2 0x68F SWAP2 SWAP1 PUSH2 0xB50 JUMP JUMPDEST PUSH1 0x40 MLOAD DUP1 SWAP2 SUB SWAP1 LOG3 POP JUMPDEST PUSH1 0x1 SWAP2 POP POP SWAP4 SWAP3 POP POP POP JUMP JUMPDEST PUSH1 0x12 DUP2 JUMP JUMPDEST PUSH0 PUSH1 0x1 PUSH0 DUP4 PUSH20 0xFFFFFFFFFFFFFFFFFFFFFFFFFFFFFFFFFFFFFFFF AND PUSH20 0xFFFFFFFFFFFFFFFFFFFFFFFFFFFFFFFFFFFFFFFF AND DUP2 MSTORE PUSH1 0x20 ADD SWAP1 DUP2 MSTORE PUSH1 0x20 ADD PUSH0 KECCAK256 SLOAD SWAP1 POP SWAP2 SWAP1 POP JUMP JUMPDEST PUSH1 0x40 MLOAD DUP1 PUSH1 0x40 ADD PUSH1 0x40 MSTORE DUP1 PUSH1 0x3 DUP2 MSTORE PUSH1 0x20 ADD PUSH32 0x4450430000000000000000000000000000000000000000000000000000000000 DUP2 MSTORE POP DUP2 JUMP JUMPDEST PUSH0 DUP1 PUSH20 0xFFFFFFFFFFFFFFFFFFFFFFFFFFFFFFFFFFFFFFFF AND DUP4 PUSH20 0xFFFFFFFFFFFFFFFFFFFFFFFFFFFFFFFFFFFFFFFF AND SUB PUSH2 0x798 JUMPI PUSH1 0x40 MLOAD PUSH32 0x8C379A000000000000000000000000000000000000000000000000000000000 DUP2 MSTORE PUSH1 0x4 ADD PUSH2 0x78F SWAP1 PUSH2 0xCC6 JUMP JUMPDEST PUSH1 0x40 MLOAD DUP1 SWAP2 SUB SWAP1 REVERT JUMPDEST DUP2 PUSH1 0x1 PUSH0 CALLER PUSH20 0xFFFFFFFFFFFFFFFFFFFFFFFFFFFFFFFFFFFFFFFF AND PUSH20 0xFFFFFFFFFFFFFFFFFFFFFFFFFFFFFFFFFFFFFFFF AND DUP2 MSTORE PUSH1 0x20 ADD SWAP1 DUP2 MSTORE PUSH1 0x20 ADD PUSH0 KECCAK256 SLOAD LT ISZERO PUSH2 0x818 JUMPI PUSH1 0x40 MLOAD PUSH32 0x8C379A000000000000000000000000000000000000000000000000000000000 DUP2 MSTORE PUSH1 0x4 ADD PUSH2 0x80F SWAP1 PUSH2 0xEDD JUMP JUMPDEST PUSH1 0x40 MLOAD DUP1 SWAP2 SUB SWAP1 REVERT JUMPDEST DUP2 PUSH1 0x1 PUSH0 CALLER PUSH20 0xFFFFFFFFFFFFFFFFFFFFFFFFFFFFFFFFFFFFFFFF AND PUSH20 0xFFFFFFFFFFFFFFFFFFFFFFFFFFFFFFFFFFFFFFFF AND DUP2 MSTORE PUSH1 0x20 ADD SWAP1 DUP2 MSTORE PUSH1 0x20 ADD PUSH0 KECCAK256 PUSH0 DUP3 DUP3 SLOAD PUSH2 0x864 SWAP2 SWAP1 PUSH2 0xE07 JUMP JUMPDEST SWAP3 POP POP DUP2 SWAP1 SSTORE POP DUP2 PUSH1 0x1 PUSH0 DUP6 PUSH20 0xFFFFFFFFFFFFFFFFFFFFFFFFFFFFFFFFFFFFFFFF AND PUSH20 0xFFFFFFFFFFFFFFFFFFFFFFFFFFFFFFFFFFFFFFFF AND DUP2 MSTORE PUSH1 0x20 ADD SWAP1 DUP2 MSTORE PUSH1 0x20 ADD PUSH0 KECCAK256 PUSH0 DUP3 DUP3 SLOAD PUSH2 0x8B7 SWAP2 SWAP1 PUSH2 0xE3A JUMP JUMPDEST SWAP3 POP POP DUP2 SWAP1 SSTORE POP DUP3 PUSH20 0xFFFFFFFFFFFFFFFFFFFFFFFFFFFFFFFFFFFFFFFF AND CALLER PUSH20 0xFFFFFFFFFFFFFFFFFFFFFFFFFFFFFFFFFFFFFFFF AND PUSH32 0xDDF252AD1BE2C89B69C2B068FC378DAA952BA7F163C4A11628F55A4DF523B3EF DUP5 PUSH1 0x40 MLOAD PUSH2 0x91B SWAP2 SWAP1 PUSH2 0xB50 JUMP JUMPDEST PUSH1 0x40 MLOAD DUP1 SWAP2 SUB SWAP1 LOG3 PUSH1 0x1 SWAP1 POP SWAP3 SWAP2 POP POP JUMP JUMPDEST PUSH0 PUSH1 0x2 PUSH0 DUP5 PUSH20 0xFFFFFFFFFFFFFFFFFFFFFFFFFFFFFFFFFFFFFFFF AND PUSH20 0xFFFFFFFFFFFFFFFFFFFFFFFFFFFFFFFFFFFFFFFF AND DUP2 MSTORE PUSH1 0x20 ADD SWAP1 DUP2 MSTORE PUSH1 0x20 ADD PUSH0 KECCAK256 PUSH0 DUP4 PUSH20 0xFFFFFFFFFFFFFFFFFFFFFFFFFFFFFFFFFFFFFFFF AND PUSH20 0xFFFFFFFFFFFFFFFFFFFFFFFFFFFFFFFFFFFFFFFF AND DUP2 MSTORE PUSH1 0x20 ADD SWAP1 DUP2 MSTORE PUSH1 0x20 ADD PUSH0 KECCAK256 SLOAD SWAP1 POP SWAP3 SWAP2 POP POP JUMP JUMPDEST PUSH0 DUP2 MLOAD SWAP1 POP SWAP2 SWAP1 POP JUMP JUMPDEST PUSH0 DUP3 DUP3 MSTORE PUSH1 0x20 DUP3 ADD SWAP1 POP SWAP3 SWAP2 POP POP JUMP JUMPDEST DUP3 DUP2 DUP4 MCOPY PUSH0 DUP4 DUP4 ADD MSTORE POP POP POP JUMP JUMPDEST PUSH0 PUSH1 0x1F NOT PUSH1 0x1F DUP4 ADD AND SWAP1 POP SWAP2 SWAP1 POP JUMP JUMPDEST PUSH0 PUSH2 0x9F1 DUP3 PUSH2 0x9AF JUMP JUMPDEST PUSH2 0x9FB DUP2 DUP6 PUSH2 0x9B9 JUMP JUMPDEST SWAP4 POP PUSH2 0xA0B DUP2 DUP6 PUSH1 0x20 DUP7 ADD PUSH2 0x9C9 JUMP JUMPDEST PUSH2 0xA14 DUP2 PUSH2 0x9D7 JUMP JUMPDEST DUP5 ADD SWAP2 POP POP SWAP3 SWAP2 POP POP JUMP JUMPDEST PUSH0 PUSH1 0x20 DUP3 ADD SWAP1 POP DUP2 DUP2 SUB PUSH0 DUP4 ADD MSTORE PUSH2 0xA37 DUP2 DUP5 PUSH2 0x9E7 JUMP JUMPDEST SWAP1 POP SWAP3 SWAP2 POP POP JUMP JUMPDEST PUSH0 DUP1 REVERT JUMPDEST PUSH0 PUSH20 0xFFFFFFFFFFFFFFFFFFFFFFFFFFFFFFFFFFFFFFFF DUP3 AND SWAP1 POP SWAP2 SWAP1 POP JUMP JUMPDEST PUSH0 PUSH2 0xA6C DUP3 PUSH2 0xA43 JUMP JUMPDEST SWAP1 POP SWAP2 SWAP1 POP JUMP JUMPDEST PUSH2 0xA7C DUP2 PUSH2 0xA62 JUMP JUMPDEST DUP2 EQ PUSH2 0xA86 JUMPI PUSH0 DUP1 REVERT JUMPDEST POP JUMP JUMPDEST PUSH0 DUP2 CALLDATALOAD SWAP1 POP PUSH2 0xA97 DUP2 PUSH2 0xA73 JUMP JUMPDEST SWAP3 SWAP2 POP POP JUMP JUMPDEST PUSH0 DUP2 SWAP1 POP SWAP2 SWAP1 POP JUMP JUMPDEST PUSH2 0xAAF DUP2 PUSH2 0xA9D JUMP JUMPDEST DUP2 EQ PUSH2 0xAB9 JUMPI PUSH0 DUP1 REVERT JUMPDEST POP JUMP JUMPDEST PUSH0 DUP2 CALLDATALOAD SWAP1 POP PUSH2 0xACA DUP2 PUSH2 0xAA6 JUMP JUMPDEST SWAP3 SWAP2 POP POP JUMP JUMPDEST PUSH0 DUP1 PUSH1 0x40 DUP4 DUP6 SUB SLT ISZERO PUSH2 0xAE6 JUMPI PUSH2 0xAE5 PUSH2 0xA3F JUMP JUMPDEST JUMPDEST PUSH0 PUSH2 0xAF3 DUP6 DUP3 DUP7 ADD PUSH2 0xA89 JUMP JUMPDEST SWAP3 POP POP PUSH1 0x20 PUSH2 0xB04 DUP6 DUP3 DUP7 ADD PUSH2 0xABC JUMP JUMPDEST SWAP2 POP POP SWAP3 POP SWAP3 SWAP1 POP JUMP JUMPDEST PUSH0 DUP2 ISZERO ISZERO SWAP1 POP SWAP2 SWAP1 POP JUMP JUMPDEST PUSH2 0xB22 DUP2 PUSH2 0xB0E JUMP JUMPDEST DUP3 MSTORE POP POP JUMP JUMPDEST PUSH0 PUSH1 0x20 DUP3 ADD SWAP1 POP PUSH2 0xB3B PUSH0 DUP4 ADD DUP5 PUSH2 0xB19 JUMP JUMPDEST SWAP3 SWAP2 POP POP JUMP JUMPDEST PUSH2 0xB4A DUP2 PUSH2 0xA9D JUMP JUMPDEST DUP3 MSTORE POP POP JUMP JUMPDEST PUSH0 PUSH1 0x20 DUP3 ADD SWAP1 POP PUSH2 0xB63 PUSH0 DUP4 ADD DUP5 PUSH2 0xB41 JUMP JUMPDEST SWAP3 SWAP2 POP POP JUMP JUMPDEST PUSH0 DUP1 PUSH0 PUSH1 0x60 DUP5 DUP7 SUB SLT ISZERO PUSH2 0xB80 JUMPI PUSH2 0xB7F PUSH2 0xA3F JUMP JUMPDEST JUMPDEST PUSH0 PUSH2 0xB8D DUP7 DUP3 DUP8 ADD PUSH2 0xA89 JUMP JUMPDEST SWAP4 POP POP PUSH1 0x20 PUSH2 0xB9E DUP7 DUP3 DUP8 ADD PUSH2 0xA89 JUMP JUMPDEST SWAP3 POP POP PUSH1 0x40 PUSH2 0xBAF DUP7 DUP3 DUP8 ADD PUSH2 0xABC JUMP JUMPDEST SWAP2 POP POP SWAP3 POP SWAP3 POP SWAP3 JUMP JUMPDEST PUSH0 PUSH1 0xFF DUP3 AND SWAP1 POP SWAP2 SWAP1 POP JUMP JUMPDEST PUSH2 0xBCE DUP2 PUSH2 0xBB9 JUMP JUMPDEST DUP3 MSTORE POP POP JUMP JUMPDEST PUSH0 PUSH1 0x20 DUP3 ADD SWAP1 POP PUSH2 0xBE7 PUSH0 DUP4 ADD DUP5 PUSH2 0xBC5 JUMP JUMPDEST SWAP3 SWAP2 POP POP JUMP JUMPDEST PUSH0 PUSH1 0x20 DUP3 DUP5 SUB SLT ISZERO PUSH2 0xC02 JUMPI PUSH2 0xC01 PUSH2 0xA3F JUMP JUMPDEST JUMPDEST PUSH0 PUSH2 0xC0F DUP5 DUP3 DUP6 ADD PUSH2 0xA89 JUMP JUMPDEST SWAP2 POP POP SWAP3 SWAP2 POP POP JUMP JUMPDEST PUSH0 DUP1 PUSH1 0x40 DUP4 DUP6 SUB SLT ISZERO PUSH2 0xC2E JUMPI PUSH2 0xC2D PUSH2 0xA3F JUMP JUMPDEST JUMPDEST PUSH0 PUSH2 0xC3B DUP6 DUP3 DUP7 ADD PUSH2 0xA89 JUMP JUMPDEST SWAP3 POP POP PUSH1 0x20 PUSH2 0xC4C DUP6 DUP3 DUP7 ADD PUSH2 0xA89 JUMP JUMPDEST SWAP2 POP POP SWAP3 POP SWAP3 SWAP1 POP JUMP JUMPDEST PUSH32 0x45524332303A207472616E7366657220746F20746865207A65726F2061646472 PUSH0 DUP3 ADD MSTORE PUSH32 0x6573730000000000000000000000000000000000000000000000000000000000 PUSH1 0x20 DUP3 ADD MSTORE POP JUMP JUMPDEST PUSH0 PUSH2 0xCB0 PUSH1 0x23 DUP4 PUSH2 0x9B9 JUMP JUMPDEST SWAP2 POP PUSH2 0xCBB DUP3 PUSH2 0xC56 JUMP JUMPDEST PUSH1 0x40 DUP3 ADD SWAP1 POP SWAP2 SWAP1 POP JUMP JUMPDEST PUSH0 PUSH1 0x20 DUP3 ADD SWAP1 POP DUP2 DUP2 SUB PUSH0 DUP4 ADD MSTORE PUSH2 0xCDD DUP2 PUSH2 0xCA4 JUMP JUMPDEST SWAP1 POP SWAP2 SWAP1 POP JUMP JUMPDEST PUSH32 0x45524332303A207472616E7366657246726F6D20616D6F756E74206578636565 PUSH0 DUP3 ADD MSTORE PUSH32 0x64732062616C616E636500000000000000000000000000000000000000000000 PUSH1 0x20 DUP3 ADD MSTORE POP JUMP JUMPDEST PUSH0 PUSH2 0xD3E PUSH1 0x2A DUP4 PUSH2 0x9B9 JUMP JUMPDEST SWAP2 POP PUSH2 0xD49 DUP3 PUSH2 0xCE4 JUMP JUMPDEST PUSH1 0x40 DUP3 ADD SWAP1 POP SWAP2 SWAP1 POP JUMP JUMPDEST PUSH0 PUSH1 0x20 DUP3 ADD SWAP1 POP DUP2 DUP2 SUB PUSH0 DUP4 ADD MSTORE PUSH2 0xD6B DUP2 PUSH2 0xD32 JUMP JUMPDEST SWAP1 POP SWAP2 SWAP1 POP JUMP JUMPDEST PUSH32 0x45524332303A20696E73756666696369656E7420616C6C6F77616E6365000000 PUSH0 DUP3 ADD MSTORE POP JUMP JUMPDEST PUSH0 PUSH2 0xDA6 PUSH1 0x1D DUP4 PUSH2 0x9B9 JUMP JUMPDEST SWAP2 POP PUSH2 0xDB1 DUP3 PUSH2 0xD72 JUMP JUMPDEST PUSH1 0x20 DUP3 ADD SWAP1 POP SWAP2 SWAP1 POP JUMP JUMPDEST PUSH0 PUSH1 0x20 DUP3 ADD SWAP1 POP DUP2 DUP2 SUB PUSH0 DUP4 ADD MSTORE PUSH2 0xDD3 DUP2 PUSH2 0xD9A JUMP JUMPDEST SWAP1 POP SWAP2 SWAP1 POP JUMP JUMPDEST PUSH32 0x4E487B7100000000000000000000000000000000000000000000000000000000 PUSH0 MSTORE PUSH1 0x11 PUSH1 0x4 MSTORE PUSH1 0x24 PUSH0 REVERT JUMPDEST PUSH0 PUSH2 0xE11 DUP3 PUSH2 0xA9D JUMP JUMPDEST SWAP2 POP PUSH2 0xE1C DUP4 PUSH2 0xA9D JUMP JUMPDEST SWAP3 POP DUP3 DUP3 SUB SWAP1 POP DUP2 DUP2 GT ISZERO PUSH2 0xE34 JUMPI PUSH2 0xE33 PUSH2 0xDDA JUMP JUMPDEST JUMPDEST SWAP3 SWAP2 POP POP JUMP JUMPDEST PUSH0 PUSH2 0xE44 DUP3 PUSH2 0xA9D JUMP JUMPDEST SWAP2 POP PUSH2 0xE4F DUP4 PUSH2 0xA9D JUMP JUMPDEST SWAP3 POP DUP3 DUP3 ADD SWAP1 POP DUP1 DUP3 GT ISZERO PUSH2 0xE67 JUMPI PUSH2 0xE66 PUSH2 0xDDA JUMP JUMPDEST JUMPDEST SWAP3 SWAP2 POP POP JUMP JUMPDEST PUSH32 0x45524332303A207472616E7366657220616D6F756E7420657863656564732062 PUSH0 DUP3 ADD MSTORE PUSH32 0x616C616E63650000000000000000000000000000000000000000000000000000 PUSH1 0x20 DUP3 ADD MSTORE POP JUMP JUMPDEST PUSH0 PUSH2 0xEC7 PUSH1 0x26 DUP4 PUSH2 0x9B9 JUMP JUMPDEST SWAP2 POP PUSH2 0xED2 DUP3 PUSH2 0xE6D JUMP JUMPDEST PUSH1 0x40 DUP3 ADD SWAP1 POP SWAP2 SWAP1 POP JUMP JUMPDEST PUSH0 PUSH1 0x20 DUP3 ADD SWAP1 POP DUP2 DUP2 SUB PUSH0 DUP4 ADD MSTORE PUSH2 0xEF4 DUP2 PUSH2 0xEBB JUMP JUMPDEST SWAP1 POP SWAP2 SWAP1 POP JUMP INVALID LOG2 PUSH5 0x6970667358 0x22 SLT KECCAK256 0x4E JUMPDEST 0xC6 SWAP4 0xE7 DUP12 ADDMOD 0xE1 SLT PUSH2 0x30BA DUP10 0x2B 0x2F PUSH22 0x93D067EA01EDAD78758C5F496444F26364736F6C6343 STOP ADDMOD BYTE STOP CALLER LOG2 PUSH5 0x6970667358 0x22 SLT KECCAK256 0xF9 0xD8 0xE7 PUSH32 0xA91C97B77B7CAD9FD493083319DEAACB100470E98BAE47770963D6B864736F6C PUSH4 0x4300081A STOP CALLER "
				},
				"gasEstimates": {
					"creation": {
						"codeDepositCost": "2119200",
						"executionCost": "infinite",
						"totalCost": "infinite"
					},
					"external": {
						"allowance(address,address)": "infinite",
						"balanceOf(address)": "2847",
						"datasets(uint256)": "infinite",
						"deployDataPunkCoin()": "infinite",
						"dpkContractAddress()": "2597",
						"getAllDatasets()": "infinite",
						"getAllValidators()": "infinite",
						"getDPCBalanceOf(address)": "722",
						"getDPCSupply()": "390",
						"isDataPunkCoinDeployed()": "2562",
						"makeDatasePrice()": "2536",
						"makeDataset(uint256,uint256)": "infinite",
						"owner()": "2538",
						"publicValidators(uint256)": "5011",
						"purchaseDataset(uint256)": "infinite",
						"registerAsValidator()": "49966",
						"updateDataset(uint256,uint256)": "infinite",
						"validateDataset(uint256)": "infinite"
					}
				},
				"methodIdentifiers": {
					"allowance(address,address)": "dd62ed3e",
					"balanceOf(address)": "70a08231",
					"datasets(uint256)": "1cff85e1",
					"deployDataPunkCoin()": "c76cc728",
					"dpkContractAddress()": "b79ed5c1",
					"getAllDatasets()": "4d72cd12",
					"getAllValidators()": "f3513a37",
					"getDPCBalanceOf(address)": "7c1a4bcd",
					"getDPCSupply()": "eb97ffa2",
					"isDataPunkCoinDeployed()": "90d64271",
					"makeDatasePrice()": "7da0a948",
					"makeDataset(uint256,uint256)": "204b317b",
					"owner()": "8da5cb5b",
					"publicValidators(uint256)": "7ac64245",
					"purchaseDataset(uint256)": "49ee56f9",
					"registerAsValidator()": "f0acd184",
					"updateDataset(uint256,uint256)": "3b103d33",
					"validateDataset(uint256)": "a6359308"
				}
			},
			"storageLayout": {
				"storage": [
					{
						"astId": 4,
						"contract": "contracts/DataPunk/DataPunk.sol:DataPunk",
						"label": "_owner",
						"offset": 0,
						"slot": "0",
						"type": "t_address"
					},
					{
						"astId": 6,
						"contract": "contracts/DataPunk/DataPunk.sol:DataPunk",
						"label": "dpkContractAddress",
						"offset": 0,
						"slot": "1",
						"type": "t_address"
					},
					{
						"astId": 9,
						"contract": "contracts/DataPunk/DataPunk.sol:DataPunk",
						"label": "isDataPunkCoinDeployed",
						"offset": 20,
						"slot": "1",
						"type": "t_bool"
					},
					{
						"astId": 12,
						"contract": "contracts/DataPunk/DataPunk.sol:DataPunk",
						"label": "makeDatasePrice",
						"offset": 0,
						"slot": "2",
						"type": "t_uint256"
					},
					{
						"astId": 15,
						"contract": "contracts/DataPunk/DataPunk.sol:DataPunk",
						"label": "publicValidators",
						"offset": 0,
						"slot": "3",
						"type": "t_array(t_address)dyn_storage"
					},
					{
						"astId": 29,
						"contract": "contracts/DataPunk/DataPunk.sol:DataPunk",
						"label": "balanceOf",
						"offset": 0,
						"slot": "4",
						"type": "t_mapping(t_address,t_uint256)"
					},
					{
						"astId": 35,
						"contract": "contracts/DataPunk/DataPunk.sol:DataPunk",
						"label": "allowance",
						"offset": 0,
						"slot": "5",
						"type": "t_mapping(t_address,t_mapping(t_address,t_uint256))"
					},
					{
						"astId": 91,
						"contract": "contracts/DataPunk/DataPunk.sol:DataPunk",
						"label": "datasets",
						"offset": 0,
						"slot": "6",
						"type": "t_array(t_struct(Dataset)87_storage)dyn_storage"
					}
				],
				"types": {
					"t_address": {
						"encoding": "inplace",
						"label": "address",
						"numberOfBytes": "20"
					},
					"t_array(t_address)dyn_storage": {
						"base": "t_address",
						"encoding": "dynamic_array",
						"label": "address[]",
						"numberOfBytes": "32"
					},
					"t_array(t_struct(Dataset)87_storage)dyn_storage": {
						"base": "t_struct(Dataset)87_storage",
						"encoding": "dynamic_array",
						"label": "struct DataPunk.Dataset[]",
						"numberOfBytes": "32"
					},
					"t_bool": {
						"encoding": "inplace",
						"label": "bool",
						"numberOfBytes": "1"
					},
					"t_mapping(t_address,t_mapping(t_address,t_uint256))": {
						"encoding": "mapping",
						"key": "t_address",
						"label": "mapping(address => mapping(address => uint256))",
						"numberOfBytes": "32",
						"value": "t_mapping(t_address,t_uint256)"
					},
					"t_mapping(t_address,t_uint256)": {
						"encoding": "mapping",
						"key": "t_address",
						"label": "mapping(address => uint256)",
						"numberOfBytes": "32",
						"value": "t_uint256"
					},
					"t_struct(Dataset)87_storage": {
						"encoding": "inplace",
						"label": "struct DataPunk.Dataset",
						"members": [
							{
								"astId": 77,
								"contract": "contracts/DataPunk/DataPunk.sol:DataPunk",
								"label": "creator",
								"offset": 0,
								"slot": "0",
								"type": "t_address"
							},
							{
								"astId": 79,
								"contract": "contracts/DataPunk/DataPunk.sol:DataPunk",
								"label": "price",
								"offset": 0,
								"slot": "1",
								"type": "t_uint256"
							},
							{
								"astId": 81,
								"contract": "contracts/DataPunk/DataPunk.sol:DataPunk",
								"label": "validationReward",
								"offset": 0,
								"slot": "2",
								"type": "t_uint256"
							},
							{
								"astId": 84,
								"contract": "contracts/DataPunk/DataPunk.sol:DataPunk",
								"label": "validators",
								"offset": 0,
								"slot": "3",
								"type": "t_array(t_address)dyn_storage"
							},
							{
								"astId": 86,
								"contract": "contracts/DataPunk/DataPunk.sol:DataPunk",
								"label": "isValidated",
								"offset": 0,
								"slot": "4",
								"type": "t_bool"
							}
						],
						"numberOfBytes": "160"
					},
					"t_uint256": {
						"encoding": "inplace",
						"label": "uint256",
						"numberOfBytes": "32"
					}
				}
			},
			"userdoc": {
				"kind": "user",
				"methods": {},
				"version": 1
			}
		}
	}
}