{
	"contracts/DataPunk/DataPunk.sol": {
		"DataPunk": {
			"abi": [
				{
					"inputs": [
						{
							"internalType": "string",
							"name": "name",
							"type": "string"
						},
						{
							"internalType": "uint256",
							"name": "reward",
							"type": "uint256"
						}
					],
					"name": "deployTask",
					"outputs": [
						{
							"internalType": "uint256",
							"name": "",
							"type": "uint256"
						}
					],
					"stateMutability": "nonpayable",
					"type": "function"
				},
				{
					"inputs": [
						{
							"internalType": "uint256",
							"name": "taskId",
							"type": "uint256"
						}
					],
					"name": "getTask",
					"outputs": [
						{
							"internalType": "uint256",
							"name": "",
							"type": "uint256"
						},
						{
							"internalType": "string",
							"name": "",
							"type": "string"
						},
						{
							"internalType": "address",
							"name": "",
							"type": "address"
						},
						{
							"internalType": "uint256",
							"name": "",
							"type": "uint256"
						},
						{
							"components": [
								{
									"internalType": "uint256",
									"name": "datasetId",
									"type": "uint256"
								},
								{
									"internalType": "address",
									"name": "uploader",
									"type": "address"
								},
								{
									"internalType": "bool",
									"name": "isValidated",
									"type": "bool"
								},
								{
									"internalType": "address",
									"name": "validator",
									"type": "address"
								}
							],
							"internalType": "struct DataPunk.Dataset[]",
							"name": "",
							"type": "tuple[]"
						}
					],
					"stateMutability": "view",
					"type": "function"
				},
				{
					"inputs": [
						{
							"internalType": "address",
							"name": "tokenId",
							"type": "address"
						},
						{
							"internalType": "uint256",
							"name": "amount",
							"type": "uint256"
						},
						{
							"internalType": "uint256",
							"name": "taskId",
							"type": "uint256"
						},
						{
							"internalType": "uint256",
							"name": "datasetId",
							"type": "uint256"
						},
						{
							"internalType": "bool",
							"name": "challengeStatus",
							"type": "bool"
						}
					],
					"name": "raiseChallenge",
					"outputs": [
						{
							"internalType": "bool",
							"name": "",
							"type": "bool"
						}
					],
					"stateMutability": "nonpayable",
					"type": "function"
				},
				{
					"inputs": [
						{
							"internalType": "address",
							"name": "tokenAddress",
							"type": "address"
						},
						{
							"internalType": "address",
							"name": "recipient",
							"type": "address"
						},
						{
							"internalType": "uint256",
							"name": "amount",
							"type": "uint256"
						}
					],
					"name": "transferToken",
					"outputs": [],
					"stateMutability": "nonpayable",
					"type": "function"
				},
				{
					"inputs": [
						{
							"internalType": "uint256",
							"name": "taskId",
							"type": "uint256"
						}
					],
					"name": "uploadDataset",
					"outputs": [
						{
							"internalType": "uint256",
							"name": "",
							"type": "uint256"
						}
					],
					"stateMutability": "nonpayable",
					"type": "function"
				},
				{
					"inputs": [
						{
							"internalType": "uint256",
							"name": "taskId",
							"type": "uint256"
						},
						{
							"internalType": "uint256",
							"name": "datasetId",
							"type": "uint256"
						}
					],
					"name": "verifyDataset",
					"outputs": [
						{
							"internalType": "bool",
							"name": "",
							"type": "bool"
						}
					],
					"stateMutability": "payable",
					"type": "function"
				}
			],
			"devdoc": {
				"kind": "dev",
				"methods": {},
				"version": 1
			},
			"evm": {
				"assembly": "    /* \"contracts/DataPunk/DataPunk.sol\":205:3445  contract DataPunk {... */\n  mstore(0x40, 0x80)\n  callvalue\n  dup1\n  iszero\n  tag_1\n  jumpi\n  0x00\n  dup1\n  revert\ntag_1:\n  pop\n  dataSize(sub_0)\n  dup1\n  dataOffset(sub_0)\n  0x00\n  codecopy\n  0x00\n  return\nstop\n\nsub_0: assembly {\n        /* \"contracts/DataPunk/DataPunk.sol\":205:3445  contract DataPunk {... */\n      mstore(0x40, 0x80)\n      jumpi(tag_1, lt(calldatasize, 0x04))\n      shr(0xe0, calldataload(0x00))\n      dup1\n      0x134fe3dc\n      eq\n      tag_2\n      jumpi\n      dup1\n      0x1d65e77e\n      eq\n      tag_3\n      jumpi\n      dup1\n      0x2bb4f55e\n      eq\n      tag_4\n      jumpi\n      dup1\n      0x6e17e240\n      eq\n      tag_5\n      jumpi\n      dup1\n      0x851e0a7f\n      eq\n      tag_6\n      jumpi\n      dup1\n      0xf5537ede\n      eq\n      tag_7\n      jumpi\n    tag_1:\n      0x00\n      dup1\n      revert\n        /* \"contracts/DataPunk/DataPunk.sol\":2791:3087  function verifyDataset(uint256 taskId, uint256 datasetId) public payable returns (bool) {... */\n    tag_2:\n      tag_8\n      0x04\n      dup1\n      calldatasize\n      sub\n      dup2\n      add\n      swap1\n      tag_9\n      swap2\n      swap1\n      tag_10\n      jump\t// in\n    tag_9:\n      tag_11\n      jump\t// in\n    tag_8:\n      mload(0x40)\n      tag_12\n      swap2\n      swap1\n      tag_13\n      jump\t// in\n    tag_12:\n      mload(0x40)\n      dup1\n      swap2\n      sub\n      swap1\n      return\n        /* \"contracts/DataPunk/DataPunk.sol\":653:906  function getTask(uint256 taskId) public view returns (uint256, string memory, address, uint256, Dataset[] memory) {... */\n    tag_3:\n      callvalue\n      dup1\n      iszero\n      tag_14\n      jumpi\n      0x00\n      dup1\n      revert\n    tag_14:\n      pop\n      tag_15\n      0x04\n      dup1\n      calldatasize\n      sub\n      dup2\n      add\n      swap1\n      tag_16\n      swap2\n      swap1\n      tag_17\n      jump\t// in\n    tag_16:\n      tag_18\n      jump\t// in\n    tag_15:\n      mload(0x40)\n      tag_19\n      swap6\n      swap5\n      swap4\n      swap3\n      swap2\n      swap1\n      tag_20\n      jump\t// in\n    tag_19:\n      mload(0x40)\n      dup1\n      swap2\n      sub\n      swap1\n      return\n        /* \"contracts/DataPunk/DataPunk.sol\":1473:2205  function raiseChallenge(address tokenId, uint256 amount, uint256 taskId, uint256 datasetId, bool challengeStatus) public returns (bool) {... */\n    tag_4:\n      callvalue\n      dup1\n      iszero\n      tag_21\n      jumpi\n      0x00\n      dup1\n      revert\n    tag_21:\n      pop\n      tag_22\n      0x04\n      dup1\n      calldatasize\n      sub\n      dup2\n      add\n      swap1\n      tag_23\n      swap2\n      swap1\n      tag_24\n      jump\t// in\n    tag_23:\n      tag_25\n      jump\t// in\n    tag_22:\n      mload(0x40)\n      tag_26\n      swap2\n      swap1\n      tag_13\n      jump\t// in\n    tag_26:\n      mload(0x40)\n      dup1\n      swap2\n      sub\n      swap1\n      return\n        /* \"contracts/DataPunk/DataPunk.sol\":2251:2752  function uploadDataset(uint256 taskId) public returns (uint256) {... */\n    tag_5:\n      callvalue\n      dup1\n      iszero\n      tag_27\n      jumpi\n      0x00\n      dup1\n      revert\n    tag_27:\n      pop\n      tag_28\n      0x04\n      dup1\n      calldatasize\n      sub\n      dup2\n      add\n      swap1\n      tag_29\n      swap2\n      swap1\n      tag_17\n      jump\t// in\n    tag_29:\n      tag_30\n      jump\t// in\n    tag_28:\n      mload(0x40)\n      tag_31\n      swap2\n      swap1\n      tag_32\n      jump\t// in\n    tag_31:\n      mload(0x40)\n      dup1\n      swap2\n      sub\n      swap1\n      return\n        /* \"contracts/DataPunk/DataPunk.sol\":948:1437  function deployTask(string memory name, uint256 reward) public returns (uint256) {... */\n    tag_6:\n      callvalue\n      dup1\n      iszero\n      tag_33\n      jumpi\n      0x00\n      dup1\n      revert\n    tag_33:\n      pop\n      tag_34\n      0x04\n      dup1\n      calldatasize\n      sub\n      dup2\n      add\n      swap1\n      tag_35\n      swap2\n      swap1\n      tag_36\n      jump\t// in\n    tag_35:\n      tag_37\n      jump\t// in\n    tag_34:\n      mload(0x40)\n      tag_38\n      swap2\n      swap1\n      tag_32\n      jump\t// in\n    tag_38:\n      mload(0x40)\n      dup1\n      swap2\n      sub\n      swap1\n      return\n        /* \"contracts/DataPunk/DataPunk.sol\":3093:3443  function transferToken(address tokenAddress, address recipient, uint256 amount) public {... */\n    tag_7:\n      callvalue\n      dup1\n      iszero\n      tag_39\n      jumpi\n      0x00\n      dup1\n      revert\n    tag_39:\n      pop\n      tag_40\n      0x04\n      dup1\n      calldatasize\n      sub\n      dup2\n      add\n      swap1\n      tag_41\n      swap2\n      swap1\n      tag_42\n      jump\t// in\n    tag_41:\n      tag_43\n      jump\t// in\n    tag_40:\n      stop\n        /* \"contracts/DataPunk/DataPunk.sol\":2791:3087  function verifyDataset(uint256 taskId, uint256 datasetId) public payable returns (bool) {... */\n    tag_11:\n        /* \"contracts/DataPunk/DataPunk.sol\":2873:2877  bool */\n      0x00\n        /* \"contracts/DataPunk/DataPunk.sol\":2889:2906  Task storage task */\n      dup1\n        /* \"contracts/DataPunk/DataPunk.sol\":2909:2914  tasks */\n      0x00\n        /* \"contracts/DataPunk/DataPunk.sol\":2915:2921  taskId */\n      dup5\n        /* \"contracts/DataPunk/DataPunk.sol\":2909:2922  tasks[taskId] */\n      dup2\n      sload\n      dup2\n      lt\n      tag_45\n      jumpi\n      tag_46\n      tag_47\n      jump\t// in\n    tag_46:\n    tag_45:\n      swap1\n      0x00\n      mstore\n      keccak256(0x00, 0x20)\n      swap1\n      0x05\n      mul\n      add\n        /* \"contracts/DataPunk/DataPunk.sol\":2889:2922  Task storage task = tasks[taskId] */\n      swap1\n      pop\n        /* \"contracts/DataPunk/DataPunk.sol\":2932:2955  Dataset storage dataset */\n      0x00\n        /* \"contracts/DataPunk/DataPunk.sol\":2958:2962  task */\n      dup2\n        /* \"contracts/DataPunk/DataPunk.sol\":2958:2971  task.datasets */\n      0x04\n      add\n        /* \"contracts/DataPunk/DataPunk.sol\":2972:2981  datasetId */\n      dup5\n        /* \"contracts/DataPunk/DataPunk.sol\":2958:2982  task.datasets[datasetId] */\n      dup2\n      sload\n      dup2\n      lt\n      tag_49\n      jumpi\n      tag_50\n      tag_47\n      jump\t// in\n    tag_50:\n    tag_49:\n      swap1\n      0x00\n      mstore\n      keccak256(0x00, 0x20)\n      swap1\n      0x03\n      mul\n      add\n        /* \"contracts/DataPunk/DataPunk.sol\":2932:2982  Dataset storage dataset = task.datasets[datasetId] */\n      swap1\n      pop\n        /* \"contracts/DataPunk/DataPunk.sol\":3014:3018  true */\n      0x01\n        /* \"contracts/DataPunk/DataPunk.sol\":2992:2999  dataset */\n      dup2\n        /* \"contracts/DataPunk/DataPunk.sol\":2992:3011  dataset.isValidated */\n      0x01\n      add\n      0x14\n        /* \"contracts/DataPunk/DataPunk.sol\":2992:3018  dataset.isValidated = true */\n      0x0100\n      exp\n      dup2\n      sload\n      dup2\n      0xff\n      mul\n      not\n      and\n      swap1\n      dup4\n      iszero\n      iszero\n      mul\n      or\n      swap1\n      sstore\n      pop\n        /* \"contracts/DataPunk/DataPunk.sol\":3048:3058  msg.sender */\n      caller\n        /* \"contracts/DataPunk/DataPunk.sol\":3028:3035  dataset */\n      dup2\n        /* \"contracts/DataPunk/DataPunk.sol\":3028:3045  dataset.validator */\n      0x02\n      add\n      0x00\n        /* \"contracts/DataPunk/DataPunk.sol\":3028:3058  dataset.validator = msg.sender */\n      0x0100\n      exp\n      dup2\n      sload\n      dup2\n      0xffffffffffffffffffffffffffffffffffffffff\n      mul\n      not\n      and\n      swap1\n      dup4\n      0xffffffffffffffffffffffffffffffffffffffff\n      and\n      mul\n      or\n      swap1\n      sstore\n      pop\n        /* \"contracts/DataPunk/DataPunk.sol\":3076:3080  true */\n      0x01\n        /* \"contracts/DataPunk/DataPunk.sol\":3069:3080  return true */\n      swap3\n      pop\n      pop\n      pop\n        /* \"contracts/DataPunk/DataPunk.sol\":2791:3087  function verifyDataset(uint256 taskId, uint256 datasetId) public payable returns (bool) {... */\n      swap3\n      swap2\n      pop\n      pop\n      jump\t// out\n        /* \"contracts/DataPunk/DataPunk.sol\":653:906  function getTask(uint256 taskId) public view returns (uint256, string memory, address, uint256, Dataset[] memory) {... */\n    tag_18:\n        /* \"contracts/DataPunk/DataPunk.sol\":707:714  uint256 */\n      0x00\n        /* \"contracts/DataPunk/DataPunk.sol\":716:729  string memory */\n      0x60\n        /* \"contracts/DataPunk/DataPunk.sol\":731:738  address */\n      0x00\n        /* \"contracts/DataPunk/DataPunk.sol\":740:747  uint256 */\n      dup1\n        /* \"contracts/DataPunk/DataPunk.sol\":749:765  Dataset[] memory */\n      0x60\n        /* \"contracts/DataPunk/DataPunk.sol\":777:794  Task storage task */\n      0x00\n        /* \"contracts/DataPunk/DataPunk.sol\":797:802  tasks */\n      dup1\n        /* \"contracts/DataPunk/DataPunk.sol\":803:809  taskId */\n      dup8\n        /* \"contracts/DataPunk/DataPunk.sol\":797:810  tasks[taskId] */\n      dup2\n      sload\n      dup2\n      lt\n      tag_53\n      jumpi\n      tag_54\n      tag_47\n      jump\t// in\n    tag_54:\n    tag_53:\n      swap1\n      0x00\n      mstore\n      keccak256(0x00, 0x20)\n      swap1\n      0x05\n      mul\n      add\n        /* \"contracts/DataPunk/DataPunk.sol\":777:810  Task storage task = tasks[taskId] */\n      swap1\n      pop\n        /* \"contracts/DataPunk/DataPunk.sol\":828:832  task */\n      dup1\n        /* \"contracts/DataPunk/DataPunk.sol\":828:839  task.taskId */\n      0x00\n      add\n      sload\n        /* \"contracts/DataPunk/DataPunk.sol\":841:845  task */\n      dup2\n        /* \"contracts/DataPunk/DataPunk.sol\":841:854  task.taskName */\n      0x01\n      add\n        /* \"contracts/DataPunk/DataPunk.sol\":856:860  task */\n      dup3\n        /* \"contracts/DataPunk/DataPunk.sol\":856:870  task.publisher */\n      0x02\n      add\n      0x00\n      swap1\n      sload\n      swap1\n      0x0100\n      exp\n      swap1\n      div\n      0xffffffffffffffffffffffffffffffffffffffff\n      and\n        /* \"contracts/DataPunk/DataPunk.sol\":872:876  task */\n      dup4\n        /* \"contracts/DataPunk/DataPunk.sol\":872:883  task.reward */\n      0x03\n      add\n      sload\n        /* \"contracts/DataPunk/DataPunk.sol\":885:889  task */\n      dup5\n        /* \"contracts/DataPunk/DataPunk.sol\":885:898  task.datasets */\n      0x04\n      add\n        /* \"contracts/DataPunk/DataPunk.sol\":820:899  return (task.taskId, task.taskName, task.publisher, task.reward, task.datasets) */\n      dup4\n      dup1\n      sload\n      tag_56\n      swap1\n      tag_57\n      jump\t// in\n    tag_56:\n      dup1\n      0x1f\n      add\n      0x20\n      dup1\n      swap2\n      div\n      mul\n      0x20\n      add\n      mload(0x40)\n      swap1\n      dup2\n      add\n      0x40\n      mstore\n      dup1\n      swap3\n      swap2\n      swap1\n      dup2\n      dup2\n      mstore\n      0x20\n      add\n      dup3\n      dup1\n      sload\n      tag_58\n      swap1\n      tag_57\n      jump\t// in\n    tag_58:\n      dup1\n      iszero\n      tag_59\n      jumpi\n      dup1\n      0x1f\n      lt\n      tag_60\n      jumpi\n      0x0100\n      dup1\n      dup4\n      sload\n      div\n      mul\n      dup4\n      mstore\n      swap2\n      0x20\n      add\n      swap2\n      jump(tag_59)\n    tag_60:\n      dup3\n      add\n      swap2\n      swap1\n      0x00\n      mstore\n      keccak256(0x00, 0x20)\n      swap1\n    tag_61:\n      dup2\n      sload\n      dup2\n      mstore\n      swap1\n      0x01\n      add\n      swap1\n      0x20\n      add\n      dup1\n      dup4\n      gt\n      tag_61\n      jumpi\n      dup3\n      swap1\n      sub\n      0x1f\n      and\n      dup3\n      add\n      swap2\n    tag_59:\n      pop\n      pop\n      pop\n      pop\n      pop\n      swap4\n      pop\n      dup1\n      dup1\n      sload\n      dup1\n      0x20\n      mul\n      0x20\n      add\n      mload(0x40)\n      swap1\n      dup2\n      add\n      0x40\n      mstore\n      dup1\n      swap3\n      swap2\n      swap1\n      dup2\n      dup2\n      mstore\n      0x20\n      add\n      0x00\n      swap1\n    tag_62:\n      dup3\n      dup3\n      lt\n      iszero\n      tag_63\n      jumpi\n      dup4\n      dup3\n      swap1\n      0x00\n      mstore\n      keccak256(0x00, 0x20)\n      swap1\n      0x03\n      mul\n      add\n      mload(0x40)\n      dup1\n      0x80\n      add\n      0x40\n      mstore\n      swap1\n      dup2\n      0x00\n      dup3\n      add\n      sload\n      dup2\n      mstore\n      0x20\n      add\n      0x01\n      dup3\n      add\n      0x00\n      swap1\n      sload\n      swap1\n      0x0100\n      exp\n      swap1\n      div\n      0xffffffffffffffffffffffffffffffffffffffff\n      and\n      0xffffffffffffffffffffffffffffffffffffffff\n      and\n      0xffffffffffffffffffffffffffffffffffffffff\n      and\n      dup2\n      mstore\n      0x20\n      add\n      0x01\n      dup3\n      add\n      0x14\n      swap1\n      sload\n      swap1\n      0x0100\n      exp\n      swap1\n      div\n      0xff\n      and\n      iszero\n      iszero\n      iszero\n      iszero\n      dup2\n      mstore\n      0x20\n      add\n      0x02\n      dup3\n      add\n      0x00\n      swap1\n      sload\n      swap1\n      0x0100\n      exp\n      swap1\n      div\n      0xffffffffffffffffffffffffffffffffffffffff\n      and\n      0xffffffffffffffffffffffffffffffffffffffff\n      and\n      0xffffffffffffffffffffffffffffffffffffffff\n      and\n      dup2\n      mstore\n      pop\n      pop\n      dup2\n      mstore\n      0x20\n      add\n      swap1\n      0x01\n      add\n      swap1\n      jump(tag_62)\n    tag_63:\n      pop\n      pop\n      pop\n      pop\n      swap1\n      pop\n      swap6\n      pop\n      swap6\n      pop\n      swap6\n      pop\n      swap6\n      pop\n      swap6\n      pop\n      pop\n        /* \"contracts/DataPunk/DataPunk.sol\":653:906  function getTask(uint256 taskId) public view returns (uint256, string memory, address, uint256, Dataset[] memory) {... */\n      swap2\n      swap4\n      swap6\n      swap1\n      swap3\n      swap5\n      pop\n      jump\t// out\n        /* \"contracts/DataPunk/DataPunk.sol\":1473:2205  function raiseChallenge(address tokenId, uint256 amount, uint256 taskId, uint256 datasetId, bool challengeStatus) public returns (bool) {... */\n    tag_25:\n        /* \"contracts/DataPunk/DataPunk.sol\":1603:1607  bool */\n      0x00\n        /* \"contracts/DataPunk/DataPunk.sol\":1619:1636  Task storage task */\n      dup1\n        /* \"contracts/DataPunk/DataPunk.sol\":1639:1644  tasks */\n      0x00\n        /* \"contracts/DataPunk/DataPunk.sol\":1645:1651  taskId */\n      dup6\n        /* \"contracts/DataPunk/DataPunk.sol\":1639:1652  tasks[taskId] */\n      dup2\n      sload\n      dup2\n      lt\n      tag_66\n      jumpi\n      tag_67\n      tag_47\n      jump\t// in\n    tag_67:\n    tag_66:\n      swap1\n      0x00\n      mstore\n      keccak256(0x00, 0x20)\n      swap1\n      0x05\n      mul\n      add\n        /* \"contracts/DataPunk/DataPunk.sol\":1619:1652  Task storage task = tasks[taskId] */\n      swap1\n      pop\n        /* \"contracts/DataPunk/DataPunk.sol\":1662:1685  Dataset storage dataset */\n      0x00\n        /* \"contracts/DataPunk/DataPunk.sol\":1688:1692  task */\n      dup2\n        /* \"contracts/DataPunk/DataPunk.sol\":1688:1701  task.datasets */\n      0x04\n      add\n        /* \"contracts/DataPunk/DataPunk.sol\":1702:1711  datasetId */\n      dup6\n        /* \"contracts/DataPunk/DataPunk.sol\":1688:1712  task.datasets[datasetId] */\n      dup2\n      sload\n      dup2\n      lt\n      tag_69\n      jumpi\n      tag_70\n      tag_47\n      jump\t// in\n    tag_70:\n    tag_69:\n      swap1\n      0x00\n      mstore\n      keccak256(0x00, 0x20)\n      swap1\n      0x03\n      mul\n      add\n        /* \"contracts/DataPunk/DataPunk.sol\":1662:1712  Dataset storage dataset = task.datasets[datasetId] */\n      swap1\n      pop\n        /* \"contracts/DataPunk/DataPunk.sol\":1744:1759  challengeStatus */\n      dup4\n        /* \"contracts/DataPunk/DataPunk.sol\":1722:1729  dataset */\n      dup2\n        /* \"contracts/DataPunk/DataPunk.sol\":1722:1741  dataset.isValidated */\n      0x01\n      add\n      0x14\n        /* \"contracts/DataPunk/DataPunk.sol\":1722:1759  dataset.isValidated = challengeStatus */\n      0x0100\n      exp\n      dup2\n      sload\n      dup2\n      0xff\n      mul\n      not\n      and\n      swap1\n      dup4\n      iszero\n      iszero\n      mul\n      or\n      swap1\n      sstore\n      pop\n        /* \"contracts/DataPunk/DataPunk.sol\":1769:1786  address publisher */\n      0x00\n        /* \"contracts/DataPunk/DataPunk.sol\":1789:1793  task */\n      dup3\n        /* \"contracts/DataPunk/DataPunk.sol\":1789:1803  task.publisher */\n      0x02\n      add\n      0x00\n      swap1\n      sload\n      swap1\n      0x0100\n      exp\n      swap1\n      div\n      0xffffffffffffffffffffffffffffffffffffffff\n      and\n        /* \"contracts/DataPunk/DataPunk.sol\":1769:1803  address publisher = task.publisher */\n      swap1\n      pop\n        /* \"contracts/DataPunk/DataPunk.sol\":1813:1829  address uploader */\n      0x00\n        /* \"contracts/DataPunk/DataPunk.sol\":1832:1839  dataset */\n      dup3\n        /* \"contracts/DataPunk/DataPunk.sol\":1832:1848  dataset.uploader */\n      0x01\n      add\n      0x00\n      swap1\n      sload\n      swap1\n      0x0100\n      exp\n      swap1\n      div\n      0xffffffffffffffffffffffffffffffffffffffff\n      and\n        /* \"contracts/DataPunk/DataPunk.sol\":1813:1848  address uploader = dataset.uploader */\n      swap1\n      pop\n        /* \"contracts/DataPunk/DataPunk.sol\":1906:1910  true */\n      0x01\n        /* \"contracts/DataPunk/DataPunk.sol\":1887:1910  challengeStatus == true */\n      iszero\n      iszero\n        /* \"contracts/DataPunk/DataPunk.sol\":1887:1902  challengeStatus */\n      dup7\n        /* \"contracts/DataPunk/DataPunk.sol\":1887:1910  challengeStatus == true */\n      iszero\n      iszero\n      sub\n        /* \"contracts/DataPunk/DataPunk.sol\":1883:2177  if (challengeStatus == true) {... */\n      tag_72\n      jumpi\n        /* \"contracts/DataPunk/DataPunk.sol\":1991:2031  transferToken(tokenId, uploader, amount) */\n      tag_73\n        /* \"contracts/DataPunk/DataPunk.sol\":2005:2012  tokenId */\n      dup11\n        /* \"contracts/DataPunk/DataPunk.sol\":2014:2022  uploader */\n      dup3\n        /* \"contracts/DataPunk/DataPunk.sol\":2024:2030  amount */\n      dup12\n        /* \"contracts/DataPunk/DataPunk.sol\":1991:2004  transferToken */\n      tag_43\n        /* \"contracts/DataPunk/DataPunk.sol\":1991:2031  transferToken(tokenId, uploader, amount) */\n      jump\t// in\n    tag_73:\n        /* \"contracts/DataPunk/DataPunk.sol\":1883:2177  if (challengeStatus == true) {... */\n      jump(tag_74)\n    tag_72:\n        /* \"contracts/DataPunk/DataPunk.sol\":2125:2166  transferToken(tokenId, publisher, amount) */\n      tag_75\n        /* \"contracts/DataPunk/DataPunk.sol\":2139:2146  tokenId */\n      dup11\n        /* \"contracts/DataPunk/DataPunk.sol\":2148:2157  publisher */\n      dup4\n        /* \"contracts/DataPunk/DataPunk.sol\":2159:2165  amount */\n      dup12\n        /* \"contracts/DataPunk/DataPunk.sol\":2125:2138  transferToken */\n      tag_43\n        /* \"contracts/DataPunk/DataPunk.sol\":2125:2166  transferToken(tokenId, publisher, amount) */\n      jump\t// in\n    tag_75:\n        /* \"contracts/DataPunk/DataPunk.sol\":1883:2177  if (challengeStatus == true) {... */\n    tag_74:\n        /* \"contracts/DataPunk/DataPunk.sol\":2194:2198  true */\n      0x01\n        /* \"contracts/DataPunk/DataPunk.sol\":2187:2198  return true */\n      swap5\n      pop\n      pop\n      pop\n      pop\n      pop\n        /* \"contracts/DataPunk/DataPunk.sol\":1473:2205  function raiseChallenge(address tokenId, uint256 amount, uint256 taskId, uint256 datasetId, bool challengeStatus) public returns (bool) {... */\n      swap6\n      swap5\n      pop\n      pop\n      pop\n      pop\n      pop\n      jump\t// out\n        /* \"contracts/DataPunk/DataPunk.sol\":2251:2752  function uploadDataset(uint256 taskId) public returns (uint256) {... */\n    tag_30:\n        /* \"contracts/DataPunk/DataPunk.sol\":2306:2313  uint256 */\n      0x00\n        /* \"contracts/DataPunk/DataPunk.sol\":2325:2342  uint256 datasetId */\n      dup1\n        /* \"contracts/DataPunk/DataPunk.sol\":2375:2376  0 */\n      0x00\n        /* \"contracts/DataPunk/DataPunk.sol\":2356:2364  datasets */\n      0x01\n        /* \"contracts/DataPunk/DataPunk.sol\":2356:2371  datasets.length */\n      dup1\n      sload\n      swap1\n      pop\n        /* \"contracts/DataPunk/DataPunk.sol\":2356:2376  datasets.length == 0 */\n      sub\n        /* \"contracts/DataPunk/DataPunk.sol\":2352:2474  if (datasets.length == 0) {... */\n      tag_77\n      jumpi\n        /* \"contracts/DataPunk/DataPunk.sol\":2404:2405  0 */\n      0x00\n        /* \"contracts/DataPunk/DataPunk.sol\":2392:2405  datasetId = 0 */\n      swap1\n      pop\n        /* \"contracts/DataPunk/DataPunk.sol\":2352:2474  if (datasets.length == 0) {... */\n      jump(tag_78)\n    tag_77:\n        /* \"contracts/DataPunk/DataPunk.sol\":2448:2456  datasets */\n      0x01\n        /* \"contracts/DataPunk/DataPunk.sol\":2448:2463  datasets.length */\n      dup1\n      sload\n      swap1\n      pop\n        /* \"contracts/DataPunk/DataPunk.sol\":2436:2463  datasetId = datasets.length */\n      swap1\n      pop\n        /* \"contracts/DataPunk/DataPunk.sol\":2352:2474  if (datasets.length == 0) {... */\n    tag_78:\n        /* \"contracts/DataPunk/DataPunk.sol\":2535:2561  Dataset storage newDataset */\n      0x00\n        /* \"contracts/DataPunk/DataPunk.sol\":2564:2569  tasks */\n      dup1\n        /* \"contracts/DataPunk/DataPunk.sol\":2570:2576  taskId */\n      dup5\n        /* \"contracts/DataPunk/DataPunk.sol\":2564:2577  tasks[taskId] */\n      dup2\n      sload\n      dup2\n      lt\n      tag_79\n      jumpi\n      tag_80\n      tag_47\n      jump\t// in\n    tag_80:\n    tag_79:\n      swap1\n      0x00\n      mstore\n      keccak256(0x00, 0x20)\n      swap1\n      0x05\n      mul\n      add\n        /* \"contracts/DataPunk/DataPunk.sol\":2564:2586  tasks[taskId].datasets */\n      0x04\n      add\n        /* \"contracts/DataPunk/DataPunk.sol\":2564:2593  tasks[taskId].datasets.push() */\n      0x01\n      dup2\n      0x01\n      dup2\n      sload\n      add\n      dup1\n      dup3\n      sstore\n      dup1\n      swap2\n      pop\n      pop\n      sub\n      swap1\n      0x00\n      mstore\n      keccak256(0x00, 0x20)\n      swap1\n      0x03\n      mul\n      add\n        /* \"contracts/DataPunk/DataPunk.sol\":2535:2593  Dataset storage newDataset = tasks[taskId].datasets.push() */\n      swap1\n      pop\n        /* \"contracts/DataPunk/DataPunk.sol\":2627:2636  datasetId */\n      dup2\n        /* \"contracts/DataPunk/DataPunk.sol\":2604:2614  newDataset */\n      dup2\n        /* \"contracts/DataPunk/DataPunk.sol\":2604:2624  newDataset.datasetId */\n      0x00\n      add\n        /* \"contracts/DataPunk/DataPunk.sol\":2604:2636  newDataset.datasetId = datasetId */\n      dup2\n      swap1\n      sstore\n      pop\n        /* \"contracts/DataPunk/DataPunk.sol\":2668:2678  msg.sender */\n      caller\n        /* \"contracts/DataPunk/DataPunk.sol\":2646:2656  newDataset */\n      dup2\n        /* \"contracts/DataPunk/DataPunk.sol\":2646:2665  newDataset.uploader */\n      0x01\n      add\n      0x00\n        /* \"contracts/DataPunk/DataPunk.sol\":2646:2678  newDataset.uploader = msg.sender */\n      0x0100\n      exp\n      dup2\n      sload\n      dup2\n      0xffffffffffffffffffffffffffffffffffffffff\n      mul\n      not\n      and\n      swap1\n      dup4\n      0xffffffffffffffffffffffffffffffffffffffff\n      and\n      mul\n      or\n      swap1\n      sstore\n      pop\n        /* \"contracts/DataPunk/DataPunk.sol\":2713:2718  false */\n      0x00\n        /* \"contracts/DataPunk/DataPunk.sol\":2688:2698  newDataset */\n      dup2\n        /* \"contracts/DataPunk/DataPunk.sol\":2688:2710  newDataset.isValidated */\n      0x01\n      add\n      0x14\n        /* \"contracts/DataPunk/DataPunk.sol\":2688:2718  newDataset.isValidated = false */\n      0x0100\n      exp\n      dup2\n      sload\n      dup2\n      0xff\n      mul\n      not\n      and\n      swap1\n      dup4\n      iszero\n      iszero\n      mul\n      or\n      swap1\n      sstore\n      pop\n        /* \"contracts/DataPunk/DataPunk.sol\":2736:2745  datasetId */\n      dup2\n        /* \"contracts/DataPunk/DataPunk.sol\":2729:2745  return datasetId */\n      swap3\n      pop\n      pop\n      pop\n        /* \"contracts/DataPunk/DataPunk.sol\":2251:2752  function uploadDataset(uint256 taskId) public returns (uint256) {... */\n      swap2\n      swap1\n      pop\n      jump\t// out\n        /* \"contracts/DataPunk/DataPunk.sol\":948:1437  function deployTask(string memory name, uint256 reward) public returns (uint256) {... */\n    tag_37:\n        /* \"contracts/DataPunk/DataPunk.sol\":1020:1027  uint256 */\n      0x00\n        /* \"contracts/DataPunk/DataPunk.sol\":1039:1053  uint256 taskId */\n      dup1\n        /* \"contracts/DataPunk/DataPunk.sol\":1083:1084  0 */\n      0x00\n        /* \"contracts/DataPunk/DataPunk.sol\":1067:1072  tasks */\n      dup1\n        /* \"contracts/DataPunk/DataPunk.sol\":1067:1079  tasks.length */\n      dup1\n      sload\n      swap1\n      pop\n        /* \"contracts/DataPunk/DataPunk.sol\":1067:1084  tasks.length == 0 */\n      sub\n        /* \"contracts/DataPunk/DataPunk.sol\":1063:1173  if (tasks.length == 0) {... */\n      tag_84\n      jumpi\n        /* \"contracts/DataPunk/DataPunk.sol\":1109:1110  0 */\n      0x00\n        /* \"contracts/DataPunk/DataPunk.sol\":1100:1110  taskId = 0 */\n      swap1\n      pop\n        /* \"contracts/DataPunk/DataPunk.sol\":1063:1173  if (tasks.length == 0) {... */\n      jump(tag_85)\n    tag_84:\n        /* \"contracts/DataPunk/DataPunk.sol\":1150:1155  tasks */\n      0x00\n        /* \"contracts/DataPunk/DataPunk.sol\":1150:1162  tasks.length */\n      dup1\n      sload\n      swap1\n      pop\n        /* \"contracts/DataPunk/DataPunk.sol\":1141:1162  taskId = tasks.length */\n      swap1\n      pop\n        /* \"contracts/DataPunk/DataPunk.sol\":1063:1173  if (tasks.length == 0) {... */\n    tag_85:\n        /* \"contracts/DataPunk/DataPunk.sol\":1231:1251  Task storage newTask */\n      0x00\n        /* \"contracts/DataPunk/DataPunk.sol\":1254:1259  tasks */\n      dup1\n        /* \"contracts/DataPunk/DataPunk.sol\":1254:1266  tasks.push() */\n      0x01\n      dup2\n      0x01\n      dup2\n      sload\n      add\n      dup1\n      dup3\n      sstore\n      dup1\n      swap2\n      pop\n      pop\n      sub\n      swap1\n      0x00\n      mstore\n      keccak256(0x00, 0x20)\n      swap1\n      0x05\n      mul\n      add\n        /* \"contracts/DataPunk/DataPunk.sol\":1231:1266  Task storage newTask = tasks.push() */\n      swap1\n      pop\n        /* \"contracts/DataPunk/DataPunk.sol\":1294:1300  taskId */\n      dup2\n        /* \"contracts/DataPunk/DataPunk.sol\":1277:1284  newTask */\n      dup2\n        /* \"contracts/DataPunk/DataPunk.sol\":1277:1291  newTask.taskId */\n      0x00\n      add\n        /* \"contracts/DataPunk/DataPunk.sol\":1277:1300  newTask.taskId = taskId */\n      dup2\n      swap1\n      sstore\n      pop\n        /* \"contracts/DataPunk/DataPunk.sol\":1329:1333  name */\n      dup5\n        /* \"contracts/DataPunk/DataPunk.sol\":1310:1317  newTask */\n      dup2\n        /* \"contracts/DataPunk/DataPunk.sol\":1310:1326  newTask.taskName */\n      0x01\n      add\n        /* \"contracts/DataPunk/DataPunk.sol\":1310:1333  newTask.taskName = name */\n      swap1\n      dup2\n      tag_87\n      swap2\n      swap1\n      tag_88\n      jump\t// in\n    tag_87:\n      pop\n        /* \"contracts/DataPunk/DataPunk.sol\":1363:1373  msg.sender */\n      caller\n        /* \"contracts/DataPunk/DataPunk.sol\":1343:1350  newTask */\n      dup2\n        /* \"contracts/DataPunk/DataPunk.sol\":1343:1360  newTask.publisher */\n      0x02\n      add\n      0x00\n        /* \"contracts/DataPunk/DataPunk.sol\":1343:1373  newTask.publisher = msg.sender */\n      0x0100\n      exp\n      dup2\n      sload\n      dup2\n      0xffffffffffffffffffffffffffffffffffffffff\n      mul\n      not\n      and\n      swap1\n      dup4\n      0xffffffffffffffffffffffffffffffffffffffff\n      and\n      mul\n      or\n      swap1\n      sstore\n      pop\n        /* \"contracts/DataPunk/DataPunk.sol\":1400:1406  reward */\n      dup4\n        /* \"contracts/DataPunk/DataPunk.sol\":1383:1390  newTask */\n      dup2\n        /* \"contracts/DataPunk/DataPunk.sol\":1383:1397  newTask.reward */\n      0x03\n      add\n        /* \"contracts/DataPunk/DataPunk.sol\":1383:1406  newTask.reward = reward */\n      dup2\n      swap1\n      sstore\n      pop\n        /* \"contracts/DataPunk/DataPunk.sol\":1424:1430  taskId */\n      dup2\n        /* \"contracts/DataPunk/DataPunk.sol\":1417:1430  return taskId */\n      swap3\n      pop\n      pop\n      pop\n        /* \"contracts/DataPunk/DataPunk.sol\":948:1437  function deployTask(string memory name, uint256 reward) public returns (uint256) {... */\n      swap3\n      swap2\n      pop\n      pop\n      jump\t// out\n        /* \"contracts/DataPunk/DataPunk.sol\":3093:3443  function transferToken(address tokenAddress, address recipient, uint256 amount) public {... */\n    tag_43:\n        /* \"contracts/DataPunk/DataPunk.sol\":3228:3240  IERC20 token */\n      0x00\n        /* \"contracts/DataPunk/DataPunk.sol\":3250:3262  tokenAddress */\n      dup4\n        /* \"contracts/DataPunk/DataPunk.sol\":3228:3263  IERC20 token = IERC20(tokenAddress) */\n      swap1\n      pop\n        /* \"contracts/DataPunk/DataPunk.sol\":3328:3340  bool success */\n      0x00\n        /* \"contracts/DataPunk/DataPunk.sol\":3343:3348  token */\n      dup2\n        /* \"contracts/DataPunk/DataPunk.sol\":3343:3357  token.transfer */\n      0xffffffffffffffffffffffffffffffffffffffff\n      and\n      0xa9059cbb\n        /* \"contracts/DataPunk/DataPunk.sol\":3358:3367  recipient */\n      dup6\n        /* \"contracts/DataPunk/DataPunk.sol\":3369:3375  amount */\n      dup6\n        /* \"contracts/DataPunk/DataPunk.sol\":3343:3376  token.transfer(recipient, amount) */\n      mload(0x40)\n      dup4\n      0xffffffff\n      and\n      0xe0\n      shl\n      dup2\n      mstore\n      0x04\n      add\n      tag_90\n      swap3\n      swap2\n      swap1\n      tag_91\n      jump\t// in\n    tag_90:\n      0x20\n      mload(0x40)\n      dup1\n      dup4\n      sub\n      dup2\n      0x00\n      dup8\n      gas\n      call\n      iszero\n      dup1\n      iszero\n      tag_93\n      jumpi\n      returndatasize\n      0x00\n      dup1\n      returndatacopy\n      revert(0x00, returndatasize)\n    tag_93:\n      pop\n      pop\n      pop\n      pop\n      mload(0x40)\n      returndatasize\n      not(0x1f)\n      0x1f\n      dup3\n      add\n      and\n      dup3\n      add\n      dup1\n      0x40\n      mstore\n      pop\n      dup2\n      add\n      swap1\n      tag_94\n      swap2\n      swap1\n      tag_95\n      jump\t// in\n    tag_94:\n        /* \"contracts/DataPunk/DataPunk.sol\":3328:3376  bool success = token.transfer(recipient, amount) */\n      swap1\n      pop\n        /* \"contracts/DataPunk/DataPunk.sol\":3403:3410  success */\n      dup1\n        /* \"contracts/DataPunk/DataPunk.sol\":3395:3436  require(success, \"Token transfer failed\") */\n      tag_96\n      jumpi\n      mload(0x40)\n      0x08c379a000000000000000000000000000000000000000000000000000000000\n      dup2\n      mstore\n      0x04\n      add\n      tag_97\n      swap1\n      tag_98\n      jump\t// in\n    tag_97:\n      mload(0x40)\n      dup1\n      swap2\n      sub\n      swap1\n      revert\n    tag_96:\n        /* \"contracts/DataPunk/DataPunk.sol\":3180:3443  {... */\n      pop\n      pop\n        /* \"contracts/DataPunk/DataPunk.sol\":3093:3443  function transferToken(address tokenAddress, address recipient, uint256 amount) public {... */\n      pop\n      pop\n      pop\n      jump\t// out\n        /* \"#utility.yul\":7:82   */\n    tag_99:\n        /* \"#utility.yul\":40:46   */\n      0x00\n        /* \"#utility.yul\":73:75   */\n      0x40\n        /* \"#utility.yul\":67:76   */\n      mload\n        /* \"#utility.yul\":57:76   */\n      swap1\n      pop\n        /* \"#utility.yul\":7:82   */\n      swap1\n      jump\t// out\n        /* \"#utility.yul\":88:205   */\n    tag_100:\n        /* \"#utility.yul\":197:198   */\n      0x00\n        /* \"#utility.yul\":194:195   */\n      dup1\n        /* \"#utility.yul\":187:199   */\n      revert\n        /* \"#utility.yul\":211:328   */\n    tag_101:\n        /* \"#utility.yul\":320:321   */\n      0x00\n        /* \"#utility.yul\":317:318   */\n      dup1\n        /* \"#utility.yul\":310:322   */\n      revert\n        /* \"#utility.yul\":334:411   */\n    tag_102:\n        /* \"#utility.yul\":371:378   */\n      0x00\n        /* \"#utility.yul\":400:405   */\n      dup2\n        /* \"#utility.yul\":389:405   */\n      swap1\n      pop\n        /* \"#utility.yul\":334:411   */\n      swap2\n      swap1\n      pop\n      jump\t// out\n        /* \"#utility.yul\":417:539   */\n    tag_103:\n        /* \"#utility.yul\":490:514   */\n      tag_164\n        /* \"#utility.yul\":508:513   */\n      dup2\n        /* \"#utility.yul\":490:514   */\n      tag_102\n      jump\t// in\n    tag_164:\n        /* \"#utility.yul\":483:488   */\n      dup2\n        /* \"#utility.yul\":480:515   */\n      eq\n        /* \"#utility.yul\":470:533   */\n      tag_165\n      jumpi\n        /* \"#utility.yul\":529:530   */\n      0x00\n        /* \"#utility.yul\":526:527   */\n      dup1\n        /* \"#utility.yul\":519:531   */\n      revert\n        /* \"#utility.yul\":470:533   */\n    tag_165:\n        /* \"#utility.yul\":417:539   */\n      pop\n      jump\t// out\n        /* \"#utility.yul\":545:684   */\n    tag_104:\n        /* \"#utility.yul\":591:596   */\n      0x00\n        /* \"#utility.yul\":629:635   */\n      dup2\n        /* \"#utility.yul\":616:636   */\n      calldataload\n        /* \"#utility.yul\":607:636   */\n      swap1\n      pop\n        /* \"#utility.yul\":645:678   */\n      tag_167\n        /* \"#utility.yul\":672:677   */\n      dup2\n        /* \"#utility.yul\":645:678   */\n      tag_103\n      jump\t// in\n    tag_167:\n        /* \"#utility.yul\":545:684   */\n      swap3\n      swap2\n      pop\n      pop\n      jump\t// out\n        /* \"#utility.yul\":690:1164   */\n    tag_10:\n        /* \"#utility.yul\":758:764   */\n      0x00\n        /* \"#utility.yul\":766:772   */\n      dup1\n        /* \"#utility.yul\":815:817   */\n      0x40\n        /* \"#utility.yul\":803:812   */\n      dup4\n        /* \"#utility.yul\":794:801   */\n      dup6\n        /* \"#utility.yul\":790:813   */\n      sub\n        /* \"#utility.yul\":786:818   */\n      slt\n        /* \"#utility.yul\":783:902   */\n      iszero\n      tag_169\n      jumpi\n        /* \"#utility.yul\":821:900   */\n      tag_170\n      tag_100\n      jump\t// in\n    tag_170:\n        /* \"#utility.yul\":783:902   */\n    tag_169:\n        /* \"#utility.yul\":941:942   */\n      0x00\n        /* \"#utility.yul\":966:1019   */\n      tag_171\n        /* \"#utility.yul\":1011:1018   */\n      dup6\n        /* \"#utility.yul\":1002:1008   */\n      dup3\n        /* \"#utility.yul\":991:1000   */\n      dup7\n        /* \"#utility.yul\":987:1009   */\n      add\n        /* \"#utility.yul\":966:1019   */\n      tag_104\n      jump\t// in\n    tag_171:\n        /* \"#utility.yul\":956:1019   */\n      swap3\n      pop\n        /* \"#utility.yul\":912:1029   */\n      pop\n        /* \"#utility.yul\":1068:1070   */\n      0x20\n        /* \"#utility.yul\":1094:1147   */\n      tag_172\n        /* \"#utility.yul\":1139:1146   */\n      dup6\n        /* \"#utility.yul\":1130:1136   */\n      dup3\n        /* \"#utility.yul\":1119:1128   */\n      dup7\n        /* \"#utility.yul\":1115:1137   */\n      add\n        /* \"#utility.yul\":1094:1147   */\n      tag_104\n      jump\t// in\n    tag_172:\n        /* \"#utility.yul\":1084:1147   */\n      swap2\n      pop\n        /* \"#utility.yul\":1039:1157   */\n      pop\n        /* \"#utility.yul\":690:1164   */\n      swap3\n      pop\n      swap3\n      swap1\n      pop\n      jump\t// out\n        /* \"#utility.yul\":1170:1260   */\n    tag_105:\n        /* \"#utility.yul\":1204:1211   */\n      0x00\n        /* \"#utility.yul\":1247:1252   */\n      dup2\n        /* \"#utility.yul\":1240:1253   */\n      iszero\n        /* \"#utility.yul\":1233:1254   */\n      iszero\n        /* \"#utility.yul\":1222:1254   */\n      swap1\n      pop\n        /* \"#utility.yul\":1170:1260   */\n      swap2\n      swap1\n      pop\n      jump\t// out\n        /* \"#utility.yul\":1266:1375   */\n    tag_106:\n        /* \"#utility.yul\":1347:1368   */\n      tag_175\n        /* \"#utility.yul\":1362:1367   */\n      dup2\n        /* \"#utility.yul\":1347:1368   */\n      tag_105\n      jump\t// in\n    tag_175:\n        /* \"#utility.yul\":1342:1345   */\n      dup3\n        /* \"#utility.yul\":1335:1369   */\n      mstore\n        /* \"#utility.yul\":1266:1375   */\n      pop\n      pop\n      jump\t// out\n        /* \"#utility.yul\":1381:1591   */\n    tag_13:\n        /* \"#utility.yul\":1468:1472   */\n      0x00\n        /* \"#utility.yul\":1506:1508   */\n      0x20\n        /* \"#utility.yul\":1495:1504   */\n      dup3\n        /* \"#utility.yul\":1491:1509   */\n      add\n        /* \"#utility.yul\":1483:1509   */\n      swap1\n      pop\n        /* \"#utility.yul\":1519:1584   */\n      tag_177\n        /* \"#utility.yul\":1581:1582   */\n      0x00\n        /* \"#utility.yul\":1570:1579   */\n      dup4\n        /* \"#utility.yul\":1566:1583   */\n      add\n        /* \"#utility.yul\":1557:1563   */\n      dup5\n        /* \"#utility.yul\":1519:1584   */\n      tag_106\n      jump\t// in\n    tag_177:\n        /* \"#utility.yul\":1381:1591   */\n      swap3\n      swap2\n      pop\n      pop\n      jump\t// out\n        /* \"#utility.yul\":1597:1926   */\n    tag_17:\n        /* \"#utility.yul\":1656:1662   */\n      0x00\n        /* \"#utility.yul\":1705:1707   */\n      0x20\n        /* \"#utility.yul\":1693:1702   */\n      dup3\n        /* \"#utility.yul\":1684:1691   */\n      dup5\n        /* \"#utility.yul\":1680:1703   */\n      sub\n        /* \"#utility.yul\":1676:1708   */\n      slt\n        /* \"#utility.yul\":1673:1792   */\n      iszero\n      tag_179\n      jumpi\n        /* \"#utility.yul\":1711:1790   */\n      tag_180\n      tag_100\n      jump\t// in\n    tag_180:\n        /* \"#utility.yul\":1673:1792   */\n    tag_179:\n        /* \"#utility.yul\":1831:1832   */\n      0x00\n        /* \"#utility.yul\":1856:1909   */\n      tag_181\n        /* \"#utility.yul\":1901:1908   */\n      dup5\n        /* \"#utility.yul\":1892:1898   */\n      dup3\n        /* \"#utility.yul\":1881:1890   */\n      dup6\n        /* \"#utility.yul\":1877:1899   */\n      add\n        /* \"#utility.yul\":1856:1909   */\n      tag_104\n      jump\t// in\n    tag_181:\n        /* \"#utility.yul\":1846:1909   */\n      swap2\n      pop\n        /* \"#utility.yul\":1802:1919   */\n      pop\n        /* \"#utility.yul\":1597:1926   */\n      swap3\n      swap2\n      pop\n      pop\n      jump\t// out\n        /* \"#utility.yul\":1932:2050   */\n    tag_107:\n        /* \"#utility.yul\":2019:2043   */\n      tag_183\n        /* \"#utility.yul\":2037:2042   */\n      dup2\n        /* \"#utility.yul\":2019:2043   */\n      tag_102\n      jump\t// in\n    tag_183:\n        /* \"#utility.yul\":2014:2017   */\n      dup3\n        /* \"#utility.yul\":2007:2044   */\n      mstore\n        /* \"#utility.yul\":1932:2050   */\n      pop\n      pop\n      jump\t// out\n        /* \"#utility.yul\":2056:2155   */\n    tag_108:\n        /* \"#utility.yul\":2108:2114   */\n      0x00\n        /* \"#utility.yul\":2142:2147   */\n      dup2\n        /* \"#utility.yul\":2136:2148   */\n      mload\n        /* \"#utility.yul\":2126:2148   */\n      swap1\n      pop\n        /* \"#utility.yul\":2056:2155   */\n      swap2\n      swap1\n      pop\n      jump\t// out\n        /* \"#utility.yul\":2161:2330   */\n    tag_109:\n        /* \"#utility.yul\":2245:2256   */\n      0x00\n        /* \"#utility.yul\":2279:2285   */\n      dup3\n        /* \"#utility.yul\":2274:2277   */\n      dup3\n        /* \"#utility.yul\":2267:2286   */\n      mstore\n        /* \"#utility.yul\":2319:2323   */\n      0x20\n        /* \"#utility.yul\":2314:2317   */\n      dup3\n        /* \"#utility.yul\":2310:2324   */\n      add\n        /* \"#utility.yul\":2295:2324   */\n      swap1\n      pop\n        /* \"#utility.yul\":2161:2330   */\n      swap3\n      swap2\n      pop\n      pop\n      jump\t// out\n        /* \"#utility.yul\":2336:2475   */\n    tag_110:\n        /* \"#utility.yul\":2425:2431   */\n      dup3\n        /* \"#utility.yul\":2420:2423   */\n      dup2\n        /* \"#utility.yul\":2415:2418   */\n      dup4\n        /* \"#utility.yul\":2409:2432   */\n      mcopy\n        /* \"#utility.yul\":2466:2467   */\n      0x00\n        /* \"#utility.yul\":2457:2463   */\n      dup4\n        /* \"#utility.yul\":2452:2455   */\n      dup4\n        /* \"#utility.yul\":2448:2464   */\n      add\n        /* \"#utility.yul\":2441:2468   */\n      mstore\n        /* \"#utility.yul\":2336:2475   */\n      pop\n      pop\n      pop\n      jump\t// out\n        /* \"#utility.yul\":2481:2583   */\n    tag_111:\n        /* \"#utility.yul\":2522:2528   */\n      0x00\n        /* \"#utility.yul\":2573:2575   */\n      0x1f\n        /* \"#utility.yul\":2569:2576   */\n      not\n        /* \"#utility.yul\":2564:2566   */\n      0x1f\n        /* \"#utility.yul\":2557:2562   */\n      dup4\n        /* \"#utility.yul\":2553:2567   */\n      add\n        /* \"#utility.yul\":2549:2577   */\n      and\n        /* \"#utility.yul\":2539:2577   */\n      swap1\n      pop\n        /* \"#utility.yul\":2481:2583   */\n      swap2\n      swap1\n      pop\n      jump\t// out\n        /* \"#utility.yul\":2589:2966   */\n    tag_112:\n        /* \"#utility.yul\":2677:2680   */\n      0x00\n        /* \"#utility.yul\":2705:2744   */\n      tag_189\n        /* \"#utility.yul\":2738:2743   */\n      dup3\n        /* \"#utility.yul\":2705:2744   */\n      tag_108\n      jump\t// in\n    tag_189:\n        /* \"#utility.yul\":2760:2831   */\n      tag_190\n        /* \"#utility.yul\":2824:2830   */\n      dup2\n        /* \"#utility.yul\":2819:2822   */\n      dup6\n        /* \"#utility.yul\":2760:2831   */\n      tag_109\n      jump\t// in\n    tag_190:\n        /* \"#utility.yul\":2753:2831   */\n      swap4\n      pop\n        /* \"#utility.yul\":2840:2905   */\n      tag_191\n        /* \"#utility.yul\":2898:2904   */\n      dup2\n        /* \"#utility.yul\":2893:2896   */\n      dup6\n        /* \"#utility.yul\":2886:2890   */\n      0x20\n        /* \"#utility.yul\":2879:2884   */\n      dup7\n        /* \"#utility.yul\":2875:2891   */\n      add\n        /* \"#utility.yul\":2840:2905   */\n      tag_110\n      jump\t// in\n    tag_191:\n        /* \"#utility.yul\":2930:2959   */\n      tag_192\n        /* \"#utility.yul\":2952:2958   */\n      dup2\n        /* \"#utility.yul\":2930:2959   */\n      tag_111\n      jump\t// in\n    tag_192:\n        /* \"#utility.yul\":2925:2928   */\n      dup5\n        /* \"#utility.yul\":2921:2960   */\n      add\n        /* \"#utility.yul\":2914:2960   */\n      swap2\n      pop\n        /* \"#utility.yul\":2681:2966   */\n      pop\n        /* \"#utility.yul\":2589:2966   */\n      swap3\n      swap2\n      pop\n      pop\n      jump\t// out\n        /* \"#utility.yul\":2972:3098   */\n    tag_113:\n        /* \"#utility.yul\":3009:3016   */\n      0x00\n        /* \"#utility.yul\":3049:3091   */\n      0xffffffffffffffffffffffffffffffffffffffff\n        /* \"#utility.yul\":3042:3047   */\n      dup3\n        /* \"#utility.yul\":3038:3092   */\n      and\n        /* \"#utility.yul\":3027:3092   */\n      swap1\n      pop\n        /* \"#utility.yul\":2972:3098   */\n      swap2\n      swap1\n      pop\n      jump\t// out\n        /* \"#utility.yul\":3104:3200   */\n    tag_114:\n        /* \"#utility.yul\":3141:3148   */\n      0x00\n        /* \"#utility.yul\":3170:3194   */\n      tag_195\n        /* \"#utility.yul\":3188:3193   */\n      dup3\n        /* \"#utility.yul\":3170:3194   */\n      tag_113\n      jump\t// in\n    tag_195:\n        /* \"#utility.yul\":3159:3194   */\n      swap1\n      pop\n        /* \"#utility.yul\":3104:3200   */\n      swap2\n      swap1\n      pop\n      jump\t// out\n        /* \"#utility.yul\":3206:3324   */\n    tag_115:\n        /* \"#utility.yul\":3293:3317   */\n      tag_197\n        /* \"#utility.yul\":3311:3316   */\n      dup2\n        /* \"#utility.yul\":3293:3317   */\n      tag_114\n      jump\t// in\n    tag_197:\n        /* \"#utility.yul\":3288:3291   */\n      dup3\n        /* \"#utility.yul\":3281:3318   */\n      mstore\n        /* \"#utility.yul\":3206:3324   */\n      pop\n      pop\n      jump\t// out\n        /* \"#utility.yul\":3330:3467   */\n    tag_116:\n        /* \"#utility.yul\":3420:3426   */\n      0x00\n        /* \"#utility.yul\":3454:3459   */\n      dup2\n        /* \"#utility.yul\":3448:3460   */\n      mload\n        /* \"#utility.yul\":3438:3460   */\n      swap1\n      pop\n        /* \"#utility.yul\":3330:3467   */\n      swap2\n      swap1\n      pop\n      jump\t// out\n        /* \"#utility.yul\":3473:3680   */\n    tag_117:\n        /* \"#utility.yul\":3595:3606   */\n      0x00\n        /* \"#utility.yul\":3629:3635   */\n      dup3\n        /* \"#utility.yul\":3624:3627   */\n      dup3\n        /* \"#utility.yul\":3617:3636   */\n      mstore\n        /* \"#utility.yul\":3669:3673   */\n      0x20\n        /* \"#utility.yul\":3664:3667   */\n      dup3\n        /* \"#utility.yul\":3660:3674   */\n      add\n        /* \"#utility.yul\":3645:3674   */\n      swap1\n      pop\n        /* \"#utility.yul\":3473:3680   */\n      swap3\n      swap2\n      pop\n      pop\n      jump\t// out\n        /* \"#utility.yul\":3686:3841   */\n    tag_118:\n        /* \"#utility.yul\":3776:3780   */\n      0x00\n        /* \"#utility.yul\":3799:3802   */\n      dup2\n        /* \"#utility.yul\":3791:3802   */\n      swap1\n      pop\n        /* \"#utility.yul\":3829:3833   */\n      0x20\n        /* \"#utility.yul\":3824:3827   */\n      dup3\n        /* \"#utility.yul\":3820:3834   */\n      add\n        /* \"#utility.yul\":3812:3834   */\n      swap1\n      pop\n        /* \"#utility.yul\":3686:3841   */\n      swap2\n      swap1\n      pop\n      jump\t// out\n        /* \"#utility.yul\":3847:3955   */\n    tag_119:\n        /* \"#utility.yul\":3924:3948   */\n      tag_202\n        /* \"#utility.yul\":3942:3947   */\n      dup2\n        /* \"#utility.yul\":3924:3948   */\n      tag_102\n      jump\t// in\n    tag_202:\n        /* \"#utility.yul\":3919:3922   */\n      dup3\n        /* \"#utility.yul\":3912:3949   */\n      mstore\n        /* \"#utility.yul\":3847:3955   */\n      pop\n      pop\n      jump\t// out\n        /* \"#utility.yul\":3961:4069   */\n    tag_120:\n        /* \"#utility.yul\":4038:4062   */\n      tag_204\n        /* \"#utility.yul\":4056:4061   */\n      dup2\n        /* \"#utility.yul\":4038:4062   */\n      tag_114\n      jump\t// in\n    tag_204:\n        /* \"#utility.yul\":4033:4036   */\n      dup3\n        /* \"#utility.yul\":4026:4063   */\n      mstore\n        /* \"#utility.yul\":3961:4069   */\n      pop\n      pop\n      jump\t// out\n        /* \"#utility.yul\":4075:4174   */\n    tag_121:\n        /* \"#utility.yul\":4146:4167   */\n      tag_206\n        /* \"#utility.yul\":4161:4166   */\n      dup2\n        /* \"#utility.yul\":4146:4167   */\n      tag_105\n      jump\t// in\n    tag_206:\n        /* \"#utility.yul\":4141:4144   */\n      dup3\n        /* \"#utility.yul\":4134:4168   */\n      mstore\n        /* \"#utility.yul\":4075:4174   */\n      pop\n      pop\n      jump\t// out\n        /* \"#utility.yul\":4238:5094   */\n    tag_122:\n        /* \"#utility.yul\":4371:4375   */\n      0x80\n        /* \"#utility.yul\":4366:4369   */\n      dup3\n        /* \"#utility.yul\":4362:4376   */\n      add\n        /* \"#utility.yul\":4463:4467   */\n      0x00\n        /* \"#utility.yul\":4456:4461   */\n      dup3\n        /* \"#utility.yul\":4452:4468   */\n      add\n        /* \"#utility.yul\":4446:4469   */\n      mload\n        /* \"#utility.yul\":4482:4545   */\n      tag_208\n        /* \"#utility.yul\":4539:4543   */\n      0x00\n        /* \"#utility.yul\":4534:4537   */\n      dup6\n        /* \"#utility.yul\":4530:4544   */\n      add\n        /* \"#utility.yul\":4516:4528   */\n      dup3\n        /* \"#utility.yul\":4482:4545   */\n      tag_119\n      jump\t// in\n    tag_208:\n        /* \"#utility.yul\":4386:4555   */\n      pop\n        /* \"#utility.yul\":4641:4645   */\n      0x20\n        /* \"#utility.yul\":4634:4639   */\n      dup3\n        /* \"#utility.yul\":4630:4646   */\n      add\n        /* \"#utility.yul\":4624:4647   */\n      mload\n        /* \"#utility.yul\":4660:4723   */\n      tag_209\n        /* \"#utility.yul\":4717:4721   */\n      0x20\n        /* \"#utility.yul\":4712:4715   */\n      dup6\n        /* \"#utility.yul\":4708:4722   */\n      add\n        /* \"#utility.yul\":4694:4706   */\n      dup3\n        /* \"#utility.yul\":4660:4723   */\n      tag_120\n      jump\t// in\n    tag_209:\n        /* \"#utility.yul\":4565:4733   */\n      pop\n        /* \"#utility.yul\":4822:4826   */\n      0x40\n        /* \"#utility.yul\":4815:4820   */\n      dup3\n        /* \"#utility.yul\":4811:4827   */\n      add\n        /* \"#utility.yul\":4805:4828   */\n      mload\n        /* \"#utility.yul\":4841:4898   */\n      tag_210\n        /* \"#utility.yul\":4892:4896   */\n      0x40\n        /* \"#utility.yul\":4887:4890   */\n      dup6\n        /* \"#utility.yul\":4883:4897   */\n      add\n        /* \"#utility.yul\":4869:4881   */\n      dup3\n        /* \"#utility.yul\":4841:4898   */\n      tag_121\n      jump\t// in\n    tag_210:\n        /* \"#utility.yul\":4743:4908   */\n      pop\n        /* \"#utility.yul\":4995:4999   */\n      0x60\n        /* \"#utility.yul\":4988:4993   */\n      dup3\n        /* \"#utility.yul\":4984:5000   */\n      add\n        /* \"#utility.yul\":4978:5001   */\n      mload\n        /* \"#utility.yul\":5014:5077   */\n      tag_211\n        /* \"#utility.yul\":5071:5075   */\n      0x60\n        /* \"#utility.yul\":5066:5069   */\n      dup6\n        /* \"#utility.yul\":5062:5076   */\n      add\n        /* \"#utility.yul\":5048:5060   */\n      dup3\n        /* \"#utility.yul\":5014:5077   */\n      tag_120\n      jump\t// in\n    tag_211:\n        /* \"#utility.yul\":4918:5087   */\n      pop\n        /* \"#utility.yul\":4340:5094   */\n      pop\n        /* \"#utility.yul\":4238:5094   */\n      pop\n      pop\n      jump\t// out\n        /* \"#utility.yul\":5100:5371   */\n    tag_123:\n        /* \"#utility.yul\":5215:5225   */\n      0x00\n        /* \"#utility.yul\":5236:5328   */\n      tag_213\n        /* \"#utility.yul\":5324:5327   */\n      dup4\n        /* \"#utility.yul\":5316:5322   */\n      dup4\n        /* \"#utility.yul\":5236:5328   */\n      tag_122\n      jump\t// in\n    tag_213:\n        /* \"#utility.yul\":5360:5364   */\n      0x80\n        /* \"#utility.yul\":5355:5358   */\n      dup4\n        /* \"#utility.yul\":5351:5365   */\n      add\n        /* \"#utility.yul\":5337:5365   */\n      swap1\n      pop\n        /* \"#utility.yul\":5100:5371   */\n      swap3\n      swap2\n      pop\n      pop\n      jump\t// out\n        /* \"#utility.yul\":5377:5513   */\n    tag_124:\n        /* \"#utility.yul\":5470:5474   */\n      0x00\n        /* \"#utility.yul\":5502:5506   */\n      0x20\n        /* \"#utility.yul\":5497:5500   */\n      dup3\n        /* \"#utility.yul\":5493:5507   */\n      add\n        /* \"#utility.yul\":5485:5507   */\n      swap1\n      pop\n        /* \"#utility.yul\":5377:5513   */\n      swap2\n      swap1\n      pop\n      jump\t// out\n        /* \"#utility.yul\":5581:6497   */\n    tag_125:\n        /* \"#utility.yul\":5746:5749   */\n      0x00\n        /* \"#utility.yul\":5775:5852   */\n      tag_216\n        /* \"#utility.yul\":5846:5851   */\n      dup3\n        /* \"#utility.yul\":5775:5852   */\n      tag_116\n      jump\t// in\n    tag_216:\n        /* \"#utility.yul\":5868:5977   */\n      tag_217\n        /* \"#utility.yul\":5970:5976   */\n      dup2\n        /* \"#utility.yul\":5965:5968   */\n      dup6\n        /* \"#utility.yul\":5868:5977   */\n      tag_117\n      jump\t// in\n    tag_217:\n        /* \"#utility.yul\":5861:5977   */\n      swap4\n      pop\n        /* \"#utility.yul\":6001:6080   */\n      tag_218\n        /* \"#utility.yul\":6074:6079   */\n      dup4\n        /* \"#utility.yul\":6001:6080   */\n      tag_118\n      jump\t// in\n    tag_218:\n        /* \"#utility.yul\":6103:6110   */\n      dup1\n        /* \"#utility.yul\":6134:6135   */\n      0x00\n        /* \"#utility.yul\":6119:6472   */\n    tag_219:\n        /* \"#utility.yul\":6144:6150   */\n      dup4\n        /* \"#utility.yul\":6141:6142   */\n      dup2\n        /* \"#utility.yul\":6138:6151   */\n      lt\n        /* \"#utility.yul\":6119:6472   */\n      iszero\n      tag_221\n      jumpi\n        /* \"#utility.yul\":6220:6226   */\n      dup2\n        /* \"#utility.yul\":6214:6227   */\n      mload\n        /* \"#utility.yul\":6247:6356   */\n      tag_222\n        /* \"#utility.yul\":6352:6355   */\n      dup9\n        /* \"#utility.yul\":6337:6350   */\n      dup3\n        /* \"#utility.yul\":6247:6356   */\n      tag_123\n      jump\t// in\n    tag_222:\n        /* \"#utility.yul\":6240:6356   */\n      swap8\n      pop\n        /* \"#utility.yul\":6379:6462   */\n      tag_223\n        /* \"#utility.yul\":6455:6461   */\n      dup4\n        /* \"#utility.yul\":6379:6462   */\n      tag_124\n      jump\t// in\n    tag_223:\n        /* \"#utility.yul\":6369:6462   */\n      swap3\n      pop\n        /* \"#utility.yul\":6179:6472   */\n      pop\n        /* \"#utility.yul\":6166:6167   */\n      0x01\n        /* \"#utility.yul\":6163:6164   */\n      dup2\n        /* \"#utility.yul\":6159:6168   */\n      add\n        /* \"#utility.yul\":6154:6168   */\n      swap1\n      pop\n        /* \"#utility.yul\":6119:6472   */\n      jump(tag_219)\n    tag_221:\n        /* \"#utility.yul\":6123:6137   */\n      pop\n        /* \"#utility.yul\":6488:6491   */\n      dup6\n        /* \"#utility.yul\":6481:6491   */\n      swap4\n      pop\n        /* \"#utility.yul\":5751:6497   */\n      pop\n      pop\n      pop\n        /* \"#utility.yul\":5581:6497   */\n      swap3\n      swap2\n      pop\n      pop\n      jump\t// out\n        /* \"#utility.yul\":6503:7501   */\n    tag_20:\n        /* \"#utility.yul\":6824:6828   */\n      0x00\n        /* \"#utility.yul\":6862:6865   */\n      0xa0\n        /* \"#utility.yul\":6851:6860   */\n      dup3\n        /* \"#utility.yul\":6847:6866   */\n      add\n        /* \"#utility.yul\":6839:6866   */\n      swap1\n      pop\n        /* \"#utility.yul\":6876:6947   */\n      tag_225\n        /* \"#utility.yul\":6944:6945   */\n      0x00\n        /* \"#utility.yul\":6933:6942   */\n      dup4\n        /* \"#utility.yul\":6929:6946   */\n      add\n        /* \"#utility.yul\":6920:6926   */\n      dup9\n        /* \"#utility.yul\":6876:6947   */\n      tag_107\n      jump\t// in\n    tag_225:\n        /* \"#utility.yul\":6994:7003   */\n      dup2\n        /* \"#utility.yul\":6988:6992   */\n      dup2\n        /* \"#utility.yul\":6984:7004   */\n      sub\n        /* \"#utility.yul\":6979:6981   */\n      0x20\n        /* \"#utility.yul\":6968:6977   */\n      dup4\n        /* \"#utility.yul\":6964:6982   */\n      add\n        /* \"#utility.yul\":6957:7005   */\n      mstore\n        /* \"#utility.yul\":7022:7100   */\n      tag_226\n        /* \"#utility.yul\":7095:7099   */\n      dup2\n        /* \"#utility.yul\":7086:7092   */\n      dup8\n        /* \"#utility.yul\":7022:7100   */\n      tag_112\n      jump\t// in\n    tag_226:\n        /* \"#utility.yul\":7014:7100   */\n      swap1\n      pop\n        /* \"#utility.yul\":7110:7182   */\n      tag_227\n        /* \"#utility.yul\":7178:7180   */\n      0x40\n        /* \"#utility.yul\":7167:7176   */\n      dup4\n        /* \"#utility.yul\":7163:7181   */\n      add\n        /* \"#utility.yul\":7154:7160   */\n      dup7\n        /* \"#utility.yul\":7110:7182   */\n      tag_115\n      jump\t// in\n    tag_227:\n        /* \"#utility.yul\":7192:7264   */\n      tag_228\n        /* \"#utility.yul\":7260:7262   */\n      0x60\n        /* \"#utility.yul\":7249:7258   */\n      dup4\n        /* \"#utility.yul\":7245:7263   */\n      add\n        /* \"#utility.yul\":7236:7242   */\n      dup6\n        /* \"#utility.yul\":7192:7264   */\n      tag_107\n      jump\t// in\n    tag_228:\n        /* \"#utility.yul\":7312:7321   */\n      dup2\n        /* \"#utility.yul\":7306:7310   */\n      dup2\n        /* \"#utility.yul\":7302:7322   */\n      sub\n        /* \"#utility.yul\":7296:7299   */\n      0x80\n        /* \"#utility.yul\":7285:7294   */\n      dup4\n        /* \"#utility.yul\":7281:7300   */\n      add\n        /* \"#utility.yul\":7274:7323   */\n      mstore\n        /* \"#utility.yul\":7340:7494   */\n      tag_229\n        /* \"#utility.yul\":7489:7493   */\n      dup2\n        /* \"#utility.yul\":7480:7486   */\n      dup5\n        /* \"#utility.yul\":7340:7494   */\n      tag_125\n      jump\t// in\n    tag_229:\n        /* \"#utility.yul\":7332:7494   */\n      swap1\n      pop\n        /* \"#utility.yul\":6503:7501   */\n      swap7\n      swap6\n      pop\n      pop\n      pop\n      pop\n      pop\n      pop\n      jump\t// out\n        /* \"#utility.yul\":7507:7629   */\n    tag_126:\n        /* \"#utility.yul\":7580:7604   */\n      tag_231\n        /* \"#utility.yul\":7598:7603   */\n      dup2\n        /* \"#utility.yul\":7580:7604   */\n      tag_114\n      jump\t// in\n    tag_231:\n        /* \"#utility.yul\":7573:7578   */\n      dup2\n        /* \"#utility.yul\":7570:7605   */\n      eq\n        /* \"#utility.yul\":7560:7623   */\n      tag_232\n      jumpi\n        /* \"#utility.yul\":7619:7620   */\n      0x00\n        /* \"#utility.yul\":7616:7617   */\n      dup1\n        /* \"#utility.yul\":7609:7621   */\n      revert\n        /* \"#utility.yul\":7560:7623   */\n    tag_232:\n        /* \"#utility.yul\":7507:7629   */\n      pop\n      jump\t// out\n        /* \"#utility.yul\":7635:7774   */\n    tag_127:\n        /* \"#utility.yul\":7681:7686   */\n      0x00\n        /* \"#utility.yul\":7719:7725   */\n      dup2\n        /* \"#utility.yul\":7706:7726   */\n      calldataload\n        /* \"#utility.yul\":7697:7726   */\n      swap1\n      pop\n        /* \"#utility.yul\":7735:7768   */\n      tag_234\n        /* \"#utility.yul\":7762:7767   */\n      dup2\n        /* \"#utility.yul\":7735:7768   */\n      tag_126\n      jump\t// in\n    tag_234:\n        /* \"#utility.yul\":7635:7774   */\n      swap3\n      swap2\n      pop\n      pop\n      jump\t// out\n        /* \"#utility.yul\":7780:7896   */\n    tag_128:\n        /* \"#utility.yul\":7850:7871   */\n      tag_236\n        /* \"#utility.yul\":7865:7870   */\n      dup2\n        /* \"#utility.yul\":7850:7871   */\n      tag_105\n      jump\t// in\n    tag_236:\n        /* \"#utility.yul\":7843:7848   */\n      dup2\n        /* \"#utility.yul\":7840:7872   */\n      eq\n        /* \"#utility.yul\":7830:7890   */\n      tag_237\n      jumpi\n        /* \"#utility.yul\":7886:7887   */\n      0x00\n        /* \"#utility.yul\":7883:7884   */\n      dup1\n        /* \"#utility.yul\":7876:7888   */\n      revert\n        /* \"#utility.yul\":7830:7890   */\n    tag_237:\n        /* \"#utility.yul\":7780:7896   */\n      pop\n      jump\t// out\n        /* \"#utility.yul\":7902:8035   */\n    tag_129:\n        /* \"#utility.yul\":7945:7950   */\n      0x00\n        /* \"#utility.yul\":7983:7989   */\n      dup2\n        /* \"#utility.yul\":7970:7990   */\n      calldataload\n        /* \"#utility.yul\":7961:7990   */\n      swap1\n      pop\n        /* \"#utility.yul\":7999:8029   */\n      tag_239\n        /* \"#utility.yul\":8023:8028   */\n      dup2\n        /* \"#utility.yul\":7999:8029   */\n      tag_128\n      jump\t// in\n    tag_239:\n        /* \"#utility.yul\":7902:8035   */\n      swap3\n      swap2\n      pop\n      pop\n      jump\t// out\n        /* \"#utility.yul\":8041:8946   */\n    tag_24:\n        /* \"#utility.yul\":8133:8139   */\n      0x00\n        /* \"#utility.yul\":8141:8147   */\n      dup1\n        /* \"#utility.yul\":8149:8155   */\n      0x00\n        /* \"#utility.yul\":8157:8163   */\n      dup1\n        /* \"#utility.yul\":8165:8171   */\n      0x00\n        /* \"#utility.yul\":8214:8217   */\n      0xa0\n        /* \"#utility.yul\":8202:8211   */\n      dup7\n        /* \"#utility.yul\":8193:8200   */\n      dup9\n        /* \"#utility.yul\":8189:8212   */\n      sub\n        /* \"#utility.yul\":8185:8218   */\n      slt\n        /* \"#utility.yul\":8182:8302   */\n      iszero\n      tag_241\n      jumpi\n        /* \"#utility.yul\":8221:8300   */\n      tag_242\n      tag_100\n      jump\t// in\n    tag_242:\n        /* \"#utility.yul\":8182:8302   */\n    tag_241:\n        /* \"#utility.yul\":8341:8342   */\n      0x00\n        /* \"#utility.yul\":8366:8419   */\n      tag_243\n        /* \"#utility.yul\":8411:8418   */\n      dup9\n        /* \"#utility.yul\":8402:8408   */\n      dup3\n        /* \"#utility.yul\":8391:8400   */\n      dup10\n        /* \"#utility.yul\":8387:8409   */\n      add\n        /* \"#utility.yul\":8366:8419   */\n      tag_127\n      jump\t// in\n    tag_243:\n        /* \"#utility.yul\":8356:8419   */\n      swap6\n      pop\n        /* \"#utility.yul\":8312:8429   */\n      pop\n        /* \"#utility.yul\":8468:8470   */\n      0x20\n        /* \"#utility.yul\":8494:8547   */\n      tag_244\n        /* \"#utility.yul\":8539:8546   */\n      dup9\n        /* \"#utility.yul\":8530:8536   */\n      dup3\n        /* \"#utility.yul\":8519:8528   */\n      dup10\n        /* \"#utility.yul\":8515:8537   */\n      add\n        /* \"#utility.yul\":8494:8547   */\n      tag_104\n      jump\t// in\n    tag_244:\n        /* \"#utility.yul\":8484:8547   */\n      swap5\n      pop\n        /* \"#utility.yul\":8439:8557   */\n      pop\n        /* \"#utility.yul\":8596:8598   */\n      0x40\n        /* \"#utility.yul\":8622:8675   */\n      tag_245\n        /* \"#utility.yul\":8667:8674   */\n      dup9\n        /* \"#utility.yul\":8658:8664   */\n      dup3\n        /* \"#utility.yul\":8647:8656   */\n      dup10\n        /* \"#utility.yul\":8643:8665   */\n      add\n        /* \"#utility.yul\":8622:8675   */\n      tag_104\n      jump\t// in\n    tag_245:\n        /* \"#utility.yul\":8612:8675   */\n      swap4\n      pop\n        /* \"#utility.yul\":8567:8685   */\n      pop\n        /* \"#utility.yul\":8724:8726   */\n      0x60\n        /* \"#utility.yul\":8750:8803   */\n      tag_246\n        /* \"#utility.yul\":8795:8802   */\n      dup9\n        /* \"#utility.yul\":8786:8792   */\n      dup3\n        /* \"#utility.yul\":8775:8784   */\n      dup10\n        /* \"#utility.yul\":8771:8793   */\n      add\n        /* \"#utility.yul\":8750:8803   */\n      tag_104\n      jump\t// in\n    tag_246:\n        /* \"#utility.yul\":8740:8803   */\n      swap3\n      pop\n        /* \"#utility.yul\":8695:8813   */\n      pop\n        /* \"#utility.yul\":8852:8855   */\n      0x80\n        /* \"#utility.yul\":8879:8929   */\n      tag_247\n        /* \"#utility.yul\":8921:8928   */\n      dup9\n        /* \"#utility.yul\":8912:8918   */\n      dup3\n        /* \"#utility.yul\":8901:8910   */\n      dup10\n        /* \"#utility.yul\":8897:8919   */\n      add\n        /* \"#utility.yul\":8879:8929   */\n      tag_129\n      jump\t// in\n    tag_247:\n        /* \"#utility.yul\":8869:8929   */\n      swap2\n      pop\n        /* \"#utility.yul\":8823:8939   */\n      pop\n        /* \"#utility.yul\":8041:8946   */\n      swap3\n      swap6\n      pop\n      swap3\n      swap6\n      swap1\n      swap4\n      pop\n      jump\t// out\n        /* \"#utility.yul\":8952:9174   */\n    tag_32:\n        /* \"#utility.yul\":9045:9049   */\n      0x00\n        /* \"#utility.yul\":9083:9085   */\n      0x20\n        /* \"#utility.yul\":9072:9081   */\n      dup3\n        /* \"#utility.yul\":9068:9086   */\n      add\n        /* \"#utility.yul\":9060:9086   */\n      swap1\n      pop\n        /* \"#utility.yul\":9096:9167   */\n      tag_249\n        /* \"#utility.yul\":9164:9165   */\n      0x00\n        /* \"#utility.yul\":9153:9162   */\n      dup4\n        /* \"#utility.yul\":9149:9166   */\n      add\n        /* \"#utility.yul\":9140:9146   */\n      dup5\n        /* \"#utility.yul\":9096:9167   */\n      tag_107\n      jump\t// in\n    tag_249:\n        /* \"#utility.yul\":8952:9174   */\n      swap3\n      swap2\n      pop\n      pop\n      jump\t// out\n        /* \"#utility.yul\":9180:9297   */\n    tag_130:\n        /* \"#utility.yul\":9289:9290   */\n      0x00\n        /* \"#utility.yul\":9286:9287   */\n      dup1\n        /* \"#utility.yul\":9279:9291   */\n      revert\n        /* \"#utility.yul\":9303:9420   */\n    tag_131:\n        /* \"#utility.yul\":9412:9413   */\n      0x00\n        /* \"#utility.yul\":9409:9410   */\n      dup1\n        /* \"#utility.yul\":9402:9414   */\n      revert\n        /* \"#utility.yul\":9426:9606   */\n    tag_132:\n        /* \"#utility.yul\":9474:9551   */\n      0x4e487b7100000000000000000000000000000000000000000000000000000000\n        /* \"#utility.yul\":9471:9472   */\n      0x00\n        /* \"#utility.yul\":9464:9552   */\n      mstore\n        /* \"#utility.yul\":9571:9575   */\n      0x41\n        /* \"#utility.yul\":9568:9569   */\n      0x04\n        /* \"#utility.yul\":9561:9576   */\n      mstore\n        /* \"#utility.yul\":9595:9599   */\n      0x24\n        /* \"#utility.yul\":9592:9593   */\n      0x00\n        /* \"#utility.yul\":9585:9600   */\n      revert\n        /* \"#utility.yul\":9612:9893   */\n    tag_133:\n        /* \"#utility.yul\":9695:9722   */\n      tag_254\n        /* \"#utility.yul\":9717:9721   */\n      dup3\n        /* \"#utility.yul\":9695:9722   */\n      tag_111\n      jump\t// in\n    tag_254:\n        /* \"#utility.yul\":9687:9693   */\n      dup2\n        /* \"#utility.yul\":9683:9723   */\n      add\n        /* \"#utility.yul\":9825:9831   */\n      dup2\n        /* \"#utility.yul\":9813:9823   */\n      dup2\n        /* \"#utility.yul\":9810:9832   */\n      lt\n        /* \"#utility.yul\":9789:9807   */\n      0xffffffffffffffff\n        /* \"#utility.yul\":9777:9787   */\n      dup3\n        /* \"#utility.yul\":9774:9808   */\n      gt\n        /* \"#utility.yul\":9771:9833   */\n      or\n        /* \"#utility.yul\":9768:9856   */\n      iszero\n      tag_255\n      jumpi\n        /* \"#utility.yul\":9836:9854   */\n      tag_256\n      tag_132\n      jump\t// in\n    tag_256:\n        /* \"#utility.yul\":9768:9856   */\n    tag_255:\n        /* \"#utility.yul\":9876:9886   */\n      dup1\n        /* \"#utility.yul\":9872:9874   */\n      0x40\n        /* \"#utility.yul\":9865:9887   */\n      mstore\n        /* \"#utility.yul\":9655:9893   */\n      pop\n        /* \"#utility.yul\":9612:9893   */\n      pop\n      pop\n      jump\t// out\n        /* \"#utility.yul\":9899:10028   */\n    tag_134:\n        /* \"#utility.yul\":9933:9939   */\n      0x00\n        /* \"#utility.yul\":9960:9980   */\n      tag_258\n      tag_99\n      jump\t// in\n    tag_258:\n        /* \"#utility.yul\":9950:9980   */\n      swap1\n      pop\n        /* \"#utility.yul\":9989:10022   */\n      tag_259\n        /* \"#utility.yul\":10017:10021   */\n      dup3\n        /* \"#utility.yul\":10009:10015   */\n      dup3\n        /* \"#utility.yul\":9989:10022   */\n      tag_133\n      jump\t// in\n    tag_259:\n        /* \"#utility.yul\":9899:10028   */\n      swap2\n      swap1\n      pop\n      jump\t// out\n        /* \"#utility.yul\":10034:10342   */\n    tag_135:\n        /* \"#utility.yul\":10096:10100   */\n      0x00\n        /* \"#utility.yul\":10186:10204   */\n      0xffffffffffffffff\n        /* \"#utility.yul\":10178:10184   */\n      dup3\n        /* \"#utility.yul\":10175:10205   */\n      gt\n        /* \"#utility.yul\":10172:10228   */\n      iszero\n      tag_261\n      jumpi\n        /* \"#utility.yul\":10208:10226   */\n      tag_262\n      tag_132\n      jump\t// in\n    tag_262:\n        /* \"#utility.yul\":10172:10228   */\n    tag_261:\n        /* \"#utility.yul\":10246:10275   */\n      tag_263\n        /* \"#utility.yul\":10268:10274   */\n      dup3\n        /* \"#utility.yul\":10246:10275   */\n      tag_111\n      jump\t// in\n    tag_263:\n        /* \"#utility.yul\":10238:10275   */\n      swap1\n      pop\n        /* \"#utility.yul\":10330:10334   */\n      0x20\n        /* \"#utility.yul\":10324:10328   */\n      dup2\n        /* \"#utility.yul\":10320:10335   */\n      add\n        /* \"#utility.yul\":10312:10335   */\n      swap1\n      pop\n        /* \"#utility.yul\":10034:10342   */\n      swap2\n      swap1\n      pop\n      jump\t// out\n        /* \"#utility.yul\":10348:10496   */\n    tag_136:\n        /* \"#utility.yul\":10446:10452   */\n      dup3\n        /* \"#utility.yul\":10441:10444   */\n      dup2\n        /* \"#utility.yul\":10436:10439   */\n      dup4\n        /* \"#utility.yul\":10423:10453   */\n      calldatacopy\n        /* \"#utility.yul\":10487:10488   */\n      0x00\n        /* \"#utility.yul\":10478:10484   */\n      dup4\n        /* \"#utility.yul\":10473:10476   */\n      dup4\n        /* \"#utility.yul\":10469:10485   */\n      add\n        /* \"#utility.yul\":10462:10489   */\n      mstore\n        /* \"#utility.yul\":10348:10496   */\n      pop\n      pop\n      pop\n      jump\t// out\n        /* \"#utility.yul\":10502:10927   */\n    tag_137:\n        /* \"#utility.yul\":10580:10585   */\n      0x00\n        /* \"#utility.yul\":10605:10671   */\n      tag_266\n        /* \"#utility.yul\":10621:10670   */\n      tag_267\n        /* \"#utility.yul\":10663:10669   */\n      dup5\n        /* \"#utility.yul\":10621:10670   */\n      tag_135\n      jump\t// in\n    tag_267:\n        /* \"#utility.yul\":10605:10671   */\n      tag_134\n      jump\t// in\n    tag_266:\n        /* \"#utility.yul\":10596:10671   */\n      swap1\n      pop\n        /* \"#utility.yul\":10694:10700   */\n      dup3\n        /* \"#utility.yul\":10687:10692   */\n      dup2\n        /* \"#utility.yul\":10680:10701   */\n      mstore\n        /* \"#utility.yul\":10732:10736   */\n      0x20\n        /* \"#utility.yul\":10725:10730   */\n      dup2\n        /* \"#utility.yul\":10721:10737   */\n      add\n        /* \"#utility.yul\":10770:10773   */\n      dup5\n        /* \"#utility.yul\":10761:10767   */\n      dup5\n        /* \"#utility.yul\":10756:10759   */\n      dup5\n        /* \"#utility.yul\":10752:10768   */\n      add\n        /* \"#utility.yul\":10749:10774   */\n      gt\n        /* \"#utility.yul\":10746:10858   */\n      iszero\n      tag_268\n      jumpi\n        /* \"#utility.yul\":10777:10856   */\n      tag_269\n      tag_131\n      jump\t// in\n    tag_269:\n        /* \"#utility.yul\":10746:10858   */\n    tag_268:\n        /* \"#utility.yul\":10867:10921   */\n      tag_270\n        /* \"#utility.yul\":10914:10920   */\n      dup5\n        /* \"#utility.yul\":10909:10912   */\n      dup3\n        /* \"#utility.yul\":10904:10907   */\n      dup6\n        /* \"#utility.yul\":10867:10921   */\n      tag_136\n      jump\t// in\n    tag_270:\n        /* \"#utility.yul\":10586:10927   */\n      pop\n        /* \"#utility.yul\":10502:10927   */\n      swap4\n      swap3\n      pop\n      pop\n      pop\n      jump\t// out\n        /* \"#utility.yul\":10947:11287   */\n    tag_138:\n        /* \"#utility.yul\":11003:11008   */\n      0x00\n        /* \"#utility.yul\":11052:11055   */\n      dup3\n        /* \"#utility.yul\":11045:11049   */\n      0x1f\n        /* \"#utility.yul\":11037:11043   */\n      dup4\n        /* \"#utility.yul\":11033:11050   */\n      add\n        /* \"#utility.yul\":11029:11056   */\n      slt\n        /* \"#utility.yul\":11019:11141   */\n      tag_272\n      jumpi\n        /* \"#utility.yul\":11060:11139   */\n      tag_273\n      tag_130\n      jump\t// in\n    tag_273:\n        /* \"#utility.yul\":11019:11141   */\n    tag_272:\n        /* \"#utility.yul\":11177:11183   */\n      dup2\n        /* \"#utility.yul\":11164:11184   */\n      calldataload\n        /* \"#utility.yul\":11202:11281   */\n      tag_274\n        /* \"#utility.yul\":11277:11280   */\n      dup5\n        /* \"#utility.yul\":11269:11275   */\n      dup3\n        /* \"#utility.yul\":11262:11266   */\n      0x20\n        /* \"#utility.yul\":11254:11260   */\n      dup7\n        /* \"#utility.yul\":11250:11267   */\n      add\n        /* \"#utility.yul\":11202:11281   */\n      tag_137\n      jump\t// in\n    tag_274:\n        /* \"#utility.yul\":11193:11281   */\n      swap2\n      pop\n        /* \"#utility.yul\":11009:11287   */\n      pop\n        /* \"#utility.yul\":10947:11287   */\n      swap3\n      swap2\n      pop\n      pop\n      jump\t// out\n        /* \"#utility.yul\":11293:11947   */\n    tag_36:\n        /* \"#utility.yul\":11371:11377   */\n      0x00\n        /* \"#utility.yul\":11379:11385   */\n      dup1\n        /* \"#utility.yul\":11428:11430   */\n      0x40\n        /* \"#utility.yul\":11416:11425   */\n      dup4\n        /* \"#utility.yul\":11407:11414   */\n      dup6\n        /* \"#utility.yul\":11403:11426   */\n      sub\n        /* \"#utility.yul\":11399:11431   */\n      slt\n        /* \"#utility.yul\":11396:11515   */\n      iszero\n      tag_276\n      jumpi\n        /* \"#utility.yul\":11434:11513   */\n      tag_277\n      tag_100\n      jump\t// in\n    tag_277:\n        /* \"#utility.yul\":11396:11515   */\n    tag_276:\n        /* \"#utility.yul\":11582:11583   */\n      0x00\n        /* \"#utility.yul\":11571:11580   */\n      dup4\n        /* \"#utility.yul\":11567:11584   */\n      add\n        /* \"#utility.yul\":11554:11585   */\n      calldataload\n        /* \"#utility.yul\":11612:11630   */\n      0xffffffffffffffff\n        /* \"#utility.yul\":11604:11610   */\n      dup2\n        /* \"#utility.yul\":11601:11631   */\n      gt\n        /* \"#utility.yul\":11598:11715   */\n      iszero\n      tag_278\n      jumpi\n        /* \"#utility.yul\":11634:11713   */\n      tag_279\n      tag_101\n      jump\t// in\n    tag_279:\n        /* \"#utility.yul\":11598:11715   */\n    tag_278:\n        /* \"#utility.yul\":11739:11802   */\n      tag_280\n        /* \"#utility.yul\":11794:11801   */\n      dup6\n        /* \"#utility.yul\":11785:11791   */\n      dup3\n        /* \"#utility.yul\":11774:11783   */\n      dup7\n        /* \"#utility.yul\":11770:11792   */\n      add\n        /* \"#utility.yul\":11739:11802   */\n      tag_138\n      jump\t// in\n    tag_280:\n        /* \"#utility.yul\":11729:11802   */\n      swap3\n      pop\n        /* \"#utility.yul\":11525:11812   */\n      pop\n        /* \"#utility.yul\":11851:11853   */\n      0x20\n        /* \"#utility.yul\":11877:11930   */\n      tag_281\n        /* \"#utility.yul\":11922:11929   */\n      dup6\n        /* \"#utility.yul\":11913:11919   */\n      dup3\n        /* \"#utility.yul\":11902:11911   */\n      dup7\n        /* \"#utility.yul\":11898:11920   */\n      add\n        /* \"#utility.yul\":11877:11930   */\n      tag_104\n      jump\t// in\n    tag_281:\n        /* \"#utility.yul\":11867:11930   */\n      swap2\n      pop\n        /* \"#utility.yul\":11822:11940   */\n      pop\n        /* \"#utility.yul\":11293:11947   */\n      swap3\n      pop\n      swap3\n      swap1\n      pop\n      jump\t// out\n        /* \"#utility.yul\":11953:12572   */\n    tag_42:\n        /* \"#utility.yul\":12030:12036   */\n      0x00\n        /* \"#utility.yul\":12038:12044   */\n      dup1\n        /* \"#utility.yul\":12046:12052   */\n      0x00\n        /* \"#utility.yul\":12095:12097   */\n      0x60\n        /* \"#utility.yul\":12083:12092   */\n      dup5\n        /* \"#utility.yul\":12074:12081   */\n      dup7\n        /* \"#utility.yul\":12070:12093   */\n      sub\n        /* \"#utility.yul\":12066:12098   */\n      slt\n        /* \"#utility.yul\":12063:12182   */\n      iszero\n      tag_283\n      jumpi\n        /* \"#utility.yul\":12101:12180   */\n      tag_284\n      tag_100\n      jump\t// in\n    tag_284:\n        /* \"#utility.yul\":12063:12182   */\n    tag_283:\n        /* \"#utility.yul\":12221:12222   */\n      0x00\n        /* \"#utility.yul\":12246:12299   */\n      tag_285\n        /* \"#utility.yul\":12291:12298   */\n      dup7\n        /* \"#utility.yul\":12282:12288   */\n      dup3\n        /* \"#utility.yul\":12271:12280   */\n      dup8\n        /* \"#utility.yul\":12267:12289   */\n      add\n        /* \"#utility.yul\":12246:12299   */\n      tag_127\n      jump\t// in\n    tag_285:\n        /* \"#utility.yul\":12236:12299   */\n      swap4\n      pop\n        /* \"#utility.yul\":12192:12309   */\n      pop\n        /* \"#utility.yul\":12348:12350   */\n      0x20\n        /* \"#utility.yul\":12374:12427   */\n      tag_286\n        /* \"#utility.yul\":12419:12426   */\n      dup7\n        /* \"#utility.yul\":12410:12416   */\n      dup3\n        /* \"#utility.yul\":12399:12408   */\n      dup8\n        /* \"#utility.yul\":12395:12417   */\n      add\n        /* \"#utility.yul\":12374:12427   */\n      tag_127\n      jump\t// in\n    tag_286:\n        /* \"#utility.yul\":12364:12427   */\n      swap3\n      pop\n        /* \"#utility.yul\":12319:12437   */\n      pop\n        /* \"#utility.yul\":12476:12478   */\n      0x40\n        /* \"#utility.yul\":12502:12555   */\n      tag_287\n        /* \"#utility.yul\":12547:12554   */\n      dup7\n        /* \"#utility.yul\":12538:12544   */\n      dup3\n        /* \"#utility.yul\":12527:12536   */\n      dup8\n        /* \"#utility.yul\":12523:12545   */\n      add\n        /* \"#utility.yul\":12502:12555   */\n      tag_104\n      jump\t// in\n    tag_287:\n        /* \"#utility.yul\":12492:12555   */\n      swap2\n      pop\n        /* \"#utility.yul\":12447:12565   */\n      pop\n        /* \"#utility.yul\":11953:12572   */\n      swap3\n      pop\n      swap3\n      pop\n      swap3\n      jump\t// out\n        /* \"#utility.yul\":12578:12758   */\n    tag_47:\n        /* \"#utility.yul\":12626:12703   */\n      0x4e487b7100000000000000000000000000000000000000000000000000000000\n        /* \"#utility.yul\":12623:12624   */\n      0x00\n        /* \"#utility.yul\":12616:12704   */\n      mstore\n        /* \"#utility.yul\":12723:12727   */\n      0x32\n        /* \"#utility.yul\":12720:12721   */\n      0x04\n        /* \"#utility.yul\":12713:12728   */\n      mstore\n        /* \"#utility.yul\":12747:12751   */\n      0x24\n        /* \"#utility.yul\":12744:12745   */\n      0x00\n        /* \"#utility.yul\":12737:12752   */\n      revert\n        /* \"#utility.yul\":12764:12944   */\n    tag_139:\n        /* \"#utility.yul\":12812:12889   */\n      0x4e487b7100000000000000000000000000000000000000000000000000000000\n        /* \"#utility.yul\":12809:12810   */\n      0x00\n        /* \"#utility.yul\":12802:12890   */\n      mstore\n        /* \"#utility.yul\":12909:12913   */\n      0x22\n        /* \"#utility.yul\":12906:12907   */\n      0x04\n        /* \"#utility.yul\":12899:12914   */\n      mstore\n        /* \"#utility.yul\":12933:12937   */\n      0x24\n        /* \"#utility.yul\":12930:12931   */\n      0x00\n        /* \"#utility.yul\":12923:12938   */\n      revert\n        /* \"#utility.yul\":12950:13270   */\n    tag_57:\n        /* \"#utility.yul\":12994:13000   */\n      0x00\n        /* \"#utility.yul\":13031:13032   */\n      0x02\n        /* \"#utility.yul\":13025:13029   */\n      dup3\n        /* \"#utility.yul\":13021:13033   */\n      div\n        /* \"#utility.yul\":13011:13033   */\n      swap1\n      pop\n        /* \"#utility.yul\":13078:13079   */\n      0x01\n        /* \"#utility.yul\":13072:13076   */\n      dup3\n        /* \"#utility.yul\":13068:13080   */\n      and\n        /* \"#utility.yul\":13099:13117   */\n      dup1\n        /* \"#utility.yul\":13089:13170   */\n      tag_291\n      jumpi\n        /* \"#utility.yul\":13155:13159   */\n      0x7f\n        /* \"#utility.yul\":13147:13153   */\n      dup3\n        /* \"#utility.yul\":13143:13160   */\n      and\n        /* \"#utility.yul\":13133:13160   */\n      swap2\n      pop\n        /* \"#utility.yul\":13089:13170   */\n    tag_291:\n        /* \"#utility.yul\":13217:13219   */\n      0x20\n        /* \"#utility.yul\":13209:13215   */\n      dup3\n        /* \"#utility.yul\":13206:13220   */\n      lt\n        /* \"#utility.yul\":13186:13204   */\n      dup2\n        /* \"#utility.yul\":13183:13221   */\n      sub\n        /* \"#utility.yul\":13180:13264   */\n      tag_292\n      jumpi\n        /* \"#utility.yul\":13236:13254   */\n      tag_293\n      tag_139\n      jump\t// in\n    tag_293:\n        /* \"#utility.yul\":13180:13264   */\n    tag_292:\n        /* \"#utility.yul\":13001:13270   */\n      pop\n        /* \"#utility.yul\":12950:13270   */\n      swap2\n      swap1\n      pop\n      jump\t// out\n        /* \"#utility.yul\":13276:13417   */\n    tag_140:\n        /* \"#utility.yul\":13325:13329   */\n      0x00\n        /* \"#utility.yul\":13348:13351   */\n      dup2\n        /* \"#utility.yul\":13340:13351   */\n      swap1\n      pop\n        /* \"#utility.yul\":13371:13374   */\n      dup2\n        /* \"#utility.yul\":13368:13369   */\n      0x00\n        /* \"#utility.yul\":13361:13375   */\n      mstore\n        /* \"#utility.yul\":13405:13409   */\n      0x20\n        /* \"#utility.yul\":13402:13403   */\n      0x00\n        /* \"#utility.yul\":13392:13410   */\n      keccak256\n        /* \"#utility.yul\":13384:13410   */\n      swap1\n      pop\n        /* \"#utility.yul\":13276:13417   */\n      swap2\n      swap1\n      pop\n      jump\t// out\n        /* \"#utility.yul\":13423:13516   */\n    tag_141:\n        /* \"#utility.yul\":13460:13466   */\n      0x00\n        /* \"#utility.yul\":13507:13509   */\n      0x20\n        /* \"#utility.yul\":13502:13504   */\n      0x1f\n        /* \"#utility.yul\":13495:13500   */\n      dup4\n        /* \"#utility.yul\":13491:13505   */\n      add\n        /* \"#utility.yul\":13487:13510   */\n      div\n        /* \"#utility.yul\":13477:13510   */\n      swap1\n      pop\n        /* \"#utility.yul\":13423:13516   */\n      swap2\n      swap1\n      pop\n      jump\t// out\n        /* \"#utility.yul\":13522:13629   */\n    tag_142:\n        /* \"#utility.yul\":13566:13574   */\n      0x00\n        /* \"#utility.yul\":13616:13621   */\n      dup3\n        /* \"#utility.yul\":13610:13614   */\n      dup3\n        /* \"#utility.yul\":13606:13622   */\n      shl\n        /* \"#utility.yul\":13585:13622   */\n      swap1\n      pop\n        /* \"#utility.yul\":13522:13629   */\n      swap3\n      swap2\n      pop\n      pop\n      jump\t// out\n        /* \"#utility.yul\":13635:14028   */\n    tag_143:\n        /* \"#utility.yul\":13704:13710   */\n      0x00\n        /* \"#utility.yul\":13754:13755   */\n      0x08\n        /* \"#utility.yul\":13742:13752   */\n      dup4\n        /* \"#utility.yul\":13738:13756   */\n      mul\n        /* \"#utility.yul\":13777:13874   */\n      tag_298\n        /* \"#utility.yul\":13807:13873   */\n      0xffffffffffffffffffffffffffffffffffffffffffffffffffffffffffffffff\n        /* \"#utility.yul\":13796:13805   */\n      dup3\n        /* \"#utility.yul\":13777:13874   */\n      tag_142\n      jump\t// in\n    tag_298:\n        /* \"#utility.yul\":13895:13934   */\n      tag_299\n        /* \"#utility.yul\":13925:13933   */\n      dup7\n        /* \"#utility.yul\":13914:13923   */\n      dup4\n        /* \"#utility.yul\":13895:13934   */\n      tag_142\n      jump\t// in\n    tag_299:\n        /* \"#utility.yul\":13883:13934   */\n      swap6\n      pop\n        /* \"#utility.yul\":13967:13971   */\n      dup1\n        /* \"#utility.yul\":13963:13972   */\n      not\n        /* \"#utility.yul\":13956:13961   */\n      dup5\n        /* \"#utility.yul\":13952:13973   */\n      and\n        /* \"#utility.yul\":13943:13973   */\n      swap4\n      pop\n        /* \"#utility.yul\":14016:14020   */\n      dup1\n        /* \"#utility.yul\":14006:14014   */\n      dup7\n        /* \"#utility.yul\":14002:14021   */\n      and\n        /* \"#utility.yul\":13995:14000   */\n      dup5\n        /* \"#utility.yul\":13992:14022   */\n      or\n        /* \"#utility.yul\":13982:14022   */\n      swap3\n      pop\n        /* \"#utility.yul\":13711:14028   */\n      pop\n      pop\n        /* \"#utility.yul\":13635:14028   */\n      swap4\n      swap3\n      pop\n      pop\n      pop\n      jump\t// out\n        /* \"#utility.yul\":14034:14094   */\n    tag_144:\n        /* \"#utility.yul\":14062:14065   */\n      0x00\n        /* \"#utility.yul\":14083:14088   */\n      dup2\n        /* \"#utility.yul\":14076:14088   */\n      swap1\n      pop\n        /* \"#utility.yul\":14034:14094   */\n      swap2\n      swap1\n      pop\n      jump\t// out\n        /* \"#utility.yul\":14100:14242   */\n    tag_145:\n        /* \"#utility.yul\":14150:14159   */\n      0x00\n        /* \"#utility.yul\":14183:14236   */\n      tag_302\n        /* \"#utility.yul\":14201:14235   */\n      tag_303\n        /* \"#utility.yul\":14210:14234   */\n      tag_304\n        /* \"#utility.yul\":14228:14233   */\n      dup5\n        /* \"#utility.yul\":14210:14234   */\n      tag_102\n      jump\t// in\n    tag_304:\n        /* \"#utility.yul\":14201:14235   */\n      tag_144\n      jump\t// in\n    tag_303:\n        /* \"#utility.yul\":14183:14236   */\n      tag_102\n      jump\t// in\n    tag_302:\n        /* \"#utility.yul\":14170:14236   */\n      swap1\n      pop\n        /* \"#utility.yul\":14100:14242   */\n      swap2\n      swap1\n      pop\n      jump\t// out\n        /* \"#utility.yul\":14248:14323   */\n    tag_146:\n        /* \"#utility.yul\":14291:14294   */\n      0x00\n        /* \"#utility.yul\":14312:14317   */\n      dup2\n        /* \"#utility.yul\":14305:14317   */\n      swap1\n      pop\n        /* \"#utility.yul\":14248:14323   */\n      swap2\n      swap1\n      pop\n      jump\t// out\n        /* \"#utility.yul\":14329:14598   */\n    tag_147:\n        /* \"#utility.yul\":14439:14478   */\n      tag_307\n        /* \"#utility.yul\":14470:14477   */\n      dup4\n        /* \"#utility.yul\":14439:14478   */\n      tag_145\n      jump\t// in\n    tag_307:\n        /* \"#utility.yul\":14500:14591   */\n      tag_308\n        /* \"#utility.yul\":14549:14590   */\n      tag_309\n        /* \"#utility.yul\":14573:14589   */\n      dup3\n        /* \"#utility.yul\":14549:14590   */\n      tag_146\n      jump\t// in\n    tag_309:\n        /* \"#utility.yul\":14541:14547   */\n      dup5\n        /* \"#utility.yul\":14534:14538   */\n      dup5\n        /* \"#utility.yul\":14528:14539   */\n      sload\n        /* \"#utility.yul\":14500:14591   */\n      tag_143\n      jump\t// in\n    tag_308:\n        /* \"#utility.yul\":14494:14498   */\n      dup3\n        /* \"#utility.yul\":14487:14592   */\n      sstore\n        /* \"#utility.yul\":14405:14598   */\n      pop\n        /* \"#utility.yul\":14329:14598   */\n      pop\n      pop\n      pop\n      jump\t// out\n        /* \"#utility.yul\":14604:14677   */\n    tag_148:\n        /* \"#utility.yul\":14649:14652   */\n      0x00\n        /* \"#utility.yul\":14604:14677   */\n      swap1\n      jump\t// out\n        /* \"#utility.yul\":14683:14872   */\n    tag_149:\n        /* \"#utility.yul\":14760:14792   */\n      tag_312\n      tag_148\n      jump\t// in\n    tag_312:\n        /* \"#utility.yul\":14801:14866   */\n      tag_313\n        /* \"#utility.yul\":14859:14865   */\n      dup2\n        /* \"#utility.yul\":14851:14857   */\n      dup5\n        /* \"#utility.yul\":14845:14849   */\n      dup5\n        /* \"#utility.yul\":14801:14866   */\n      tag_147\n      jump\t// in\n    tag_313:\n        /* \"#utility.yul\":14736:14872   */\n      pop\n        /* \"#utility.yul\":14683:14872   */\n      pop\n      pop\n      jump\t// out\n        /* \"#utility.yul\":14878:15064   */\n    tag_150:\n        /* \"#utility.yul\":14938:15058   */\n    tag_315:\n        /* \"#utility.yul\":14955:14958   */\n      dup2\n        /* \"#utility.yul\":14948:14953   */\n      dup2\n        /* \"#utility.yul\":14945:14959   */\n      lt\n        /* \"#utility.yul\":14938:15058   */\n      iszero\n      tag_317\n      jumpi\n        /* \"#utility.yul\":15009:15048   */\n      tag_318\n        /* \"#utility.yul\":15046:15047   */\n      0x00\n        /* \"#utility.yul\":15039:15044   */\n      dup3\n        /* \"#utility.yul\":15009:15048   */\n      tag_149\n      jump\t// in\n    tag_318:\n        /* \"#utility.yul\":14982:14983   */\n      0x01\n        /* \"#utility.yul\":14975:14980   */\n      dup2\n        /* \"#utility.yul\":14971:14984   */\n      add\n        /* \"#utility.yul\":14962:14984   */\n      swap1\n      pop\n        /* \"#utility.yul\":14938:15058   */\n      jump(tag_315)\n    tag_317:\n        /* \"#utility.yul\":14878:15064   */\n      pop\n      pop\n      jump\t// out\n        /* \"#utility.yul\":15070:15613   */\n    tag_151:\n        /* \"#utility.yul\":15171:15173   */\n      0x1f\n        /* \"#utility.yul\":15166:15169   */\n      dup3\n        /* \"#utility.yul\":15163:15174   */\n      gt\n        /* \"#utility.yul\":15160:15606   */\n      iszero\n      tag_320\n      jumpi\n        /* \"#utility.yul\":15205:15243   */\n      tag_321\n        /* \"#utility.yul\":15237:15242   */\n      dup2\n        /* \"#utility.yul\":15205:15243   */\n      tag_140\n      jump\t// in\n    tag_321:\n        /* \"#utility.yul\":15289:15318   */\n      tag_322\n        /* \"#utility.yul\":15307:15317   */\n      dup5\n        /* \"#utility.yul\":15289:15318   */\n      tag_141\n      jump\t// in\n    tag_322:\n        /* \"#utility.yul\":15279:15287   */\n      dup2\n        /* \"#utility.yul\":15275:15319   */\n      add\n        /* \"#utility.yul\":15472:15474   */\n      0x20\n        /* \"#utility.yul\":15460:15470   */\n      dup6\n        /* \"#utility.yul\":15457:15475   */\n      lt\n        /* \"#utility.yul\":15454:15503   */\n      iszero\n      tag_323\n      jumpi\n        /* \"#utility.yul\":15493:15501   */\n      dup2\n        /* \"#utility.yul\":15478:15501   */\n      swap1\n      pop\n        /* \"#utility.yul\":15454:15503   */\n    tag_323:\n        /* \"#utility.yul\":15516:15596   */\n      tag_324\n        /* \"#utility.yul\":15572:15594   */\n      tag_325\n        /* \"#utility.yul\":15590:15593   */\n      dup6\n        /* \"#utility.yul\":15572:15594   */\n      tag_141\n      jump\t// in\n    tag_325:\n        /* \"#utility.yul\":15562:15570   */\n      dup4\n        /* \"#utility.yul\":15558:15595   */\n      add\n        /* \"#utility.yul\":15545:15556   */\n      dup3\n        /* \"#utility.yul\":15516:15596   */\n      tag_150\n      jump\t// in\n    tag_324:\n        /* \"#utility.yul\":15175:15606   */\n      pop\n      pop\n        /* \"#utility.yul\":15160:15606   */\n    tag_320:\n        /* \"#utility.yul\":15070:15613   */\n      pop\n      pop\n      pop\n      jump\t// out\n        /* \"#utility.yul\":15619:15736   */\n    tag_152:\n        /* \"#utility.yul\":15673:15681   */\n      0x00\n        /* \"#utility.yul\":15723:15728   */\n      dup3\n        /* \"#utility.yul\":15717:15721   */\n      dup3\n        /* \"#utility.yul\":15713:15729   */\n      shr\n        /* \"#utility.yul\":15692:15729   */\n      swap1\n      pop\n        /* \"#utility.yul\":15619:15736   */\n      swap3\n      swap2\n      pop\n      pop\n      jump\t// out\n        /* \"#utility.yul\":15742:15911   */\n    tag_153:\n        /* \"#utility.yul\":15786:15792   */\n      0x00\n        /* \"#utility.yul\":15819:15870   */\n      tag_328\n        /* \"#utility.yul\":15867:15868   */\n      0x00\n        /* \"#utility.yul\":15863:15869   */\n      not\n        /* \"#utility.yul\":15855:15860   */\n      dup5\n        /* \"#utility.yul\":15852:15853   */\n      0x08\n        /* \"#utility.yul\":15848:15861   */\n      mul\n        /* \"#utility.yul\":15819:15870   */\n      tag_152\n      jump\t// in\n    tag_328:\n        /* \"#utility.yul\":15815:15871   */\n      not\n        /* \"#utility.yul\":15900:15904   */\n      dup1\n        /* \"#utility.yul\":15894:15898   */\n      dup4\n        /* \"#utility.yul\":15890:15905   */\n      and\n        /* \"#utility.yul\":15880:15905   */\n      swap2\n      pop\n        /* \"#utility.yul\":15793:15911   */\n      pop\n        /* \"#utility.yul\":15742:15911   */\n      swap3\n      swap2\n      pop\n      pop\n      jump\t// out\n        /* \"#utility.yul\":15916:16211   */\n    tag_154:\n        /* \"#utility.yul\":15992:15996   */\n      0x00\n        /* \"#utility.yul\":16138:16167   */\n      tag_330\n        /* \"#utility.yul\":16163:16166   */\n      dup4\n        /* \"#utility.yul\":16157:16161   */\n      dup4\n        /* \"#utility.yul\":16138:16167   */\n      tag_153\n      jump\t// in\n    tag_330:\n        /* \"#utility.yul\":16130:16167   */\n      swap2\n      pop\n        /* \"#utility.yul\":16200:16203   */\n      dup3\n        /* \"#utility.yul\":16197:16198   */\n      0x02\n        /* \"#utility.yul\":16193:16204   */\n      mul\n        /* \"#utility.yul\":16187:16191   */\n      dup3\n        /* \"#utility.yul\":16184:16205   */\n      or\n        /* \"#utility.yul\":16176:16205   */\n      swap1\n      pop\n        /* \"#utility.yul\":15916:16211   */\n      swap3\n      swap2\n      pop\n      pop\n      jump\t// out\n        /* \"#utility.yul\":16216:17611   */\n    tag_88:\n        /* \"#utility.yul\":16333:16370   */\n      tag_332\n        /* \"#utility.yul\":16366:16369   */\n      dup3\n        /* \"#utility.yul\":16333:16370   */\n      tag_108\n      jump\t// in\n    tag_332:\n        /* \"#utility.yul\":16435:16453   */\n      0xffffffffffffffff\n        /* \"#utility.yul\":16427:16433   */\n      dup2\n        /* \"#utility.yul\":16424:16454   */\n      gt\n        /* \"#utility.yul\":16421:16477   */\n      iszero\n      tag_333\n      jumpi\n        /* \"#utility.yul\":16457:16475   */\n      tag_334\n      tag_132\n      jump\t// in\n    tag_334:\n        /* \"#utility.yul\":16421:16477   */\n    tag_333:\n        /* \"#utility.yul\":16501:16539   */\n      tag_335\n        /* \"#utility.yul\":16533:16537   */\n      dup3\n        /* \"#utility.yul\":16527:16538   */\n      sload\n        /* \"#utility.yul\":16501:16539   */\n      tag_57\n      jump\t// in\n    tag_335:\n        /* \"#utility.yul\":16586:16653   */\n      tag_336\n        /* \"#utility.yul\":16646:16652   */\n      dup3\n        /* \"#utility.yul\":16638:16644   */\n      dup3\n        /* \"#utility.yul\":16632:16636   */\n      dup6\n        /* \"#utility.yul\":16586:16653   */\n      tag_151\n      jump\t// in\n    tag_336:\n        /* \"#utility.yul\":16680:16681   */\n      0x00\n        /* \"#utility.yul\":16704:16708   */\n      0x20\n        /* \"#utility.yul\":16691:16708   */\n      swap1\n      pop\n        /* \"#utility.yul\":16736:16738   */\n      0x1f\n        /* \"#utility.yul\":16728:16734   */\n      dup4\n        /* \"#utility.yul\":16725:16739   */\n      gt\n        /* \"#utility.yul\":16753:16754   */\n      0x01\n        /* \"#utility.yul\":16748:17366   */\n      dup2\n      eq\n      tag_338\n      jumpi\n        /* \"#utility.yul\":17410:17411   */\n      0x00\n        /* \"#utility.yul\":17427:17433   */\n      dup5\n        /* \"#utility.yul\":17424:17501   */\n      iszero\n      tag_339\n      jumpi\n        /* \"#utility.yul\":17476:17485   */\n      dup3\n        /* \"#utility.yul\":17471:17474   */\n      dup8\n        /* \"#utility.yul\":17467:17486   */\n      add\n        /* \"#utility.yul\":17461:17487   */\n      mload\n        /* \"#utility.yul\":17452:17487   */\n      swap1\n      pop\n        /* \"#utility.yul\":17424:17501   */\n    tag_339:\n        /* \"#utility.yul\":17527:17594   */\n      tag_340\n        /* \"#utility.yul\":17587:17593   */\n      dup6\n        /* \"#utility.yul\":17580:17585   */\n      dup3\n        /* \"#utility.yul\":17527:17594   */\n      tag_154\n      jump\t// in\n    tag_340:\n        /* \"#utility.yul\":17521:17525   */\n      dup7\n        /* \"#utility.yul\":17514:17595   */\n      sstore\n        /* \"#utility.yul\":17383:17605   */\n      pop\n        /* \"#utility.yul\":16718:17605   */\n      jump(tag_337)\n        /* \"#utility.yul\":16748:17366   */\n    tag_338:\n        /* \"#utility.yul\":16800:16804   */\n      0x1f\n        /* \"#utility.yul\":16796:16805   */\n      not\n        /* \"#utility.yul\":16788:16794   */\n      dup5\n        /* \"#utility.yul\":16784:16806   */\n      and\n        /* \"#utility.yul\":16834:16871   */\n      tag_341\n        /* \"#utility.yul\":16866:16870   */\n      dup7\n        /* \"#utility.yul\":16834:16871   */\n      tag_140\n      jump\t// in\n    tag_341:\n        /* \"#utility.yul\":16893:16894   */\n      0x00\n        /* \"#utility.yul\":16907:17115   */\n    tag_342:\n        /* \"#utility.yul\":16921:16928   */\n      dup3\n        /* \"#utility.yul\":16918:16919   */\n      dup2\n        /* \"#utility.yul\":16915:16929   */\n      lt\n        /* \"#utility.yul\":16907:17115   */\n      iszero\n      tag_344\n      jumpi\n        /* \"#utility.yul\":17000:17009   */\n      dup5\n        /* \"#utility.yul\":16995:16998   */\n      dup10\n        /* \"#utility.yul\":16991:17010   */\n      add\n        /* \"#utility.yul\":16985:17011   */\n      mload\n        /* \"#utility.yul\":16977:16983   */\n      dup3\n        /* \"#utility.yul\":16970:17012   */\n      sstore\n        /* \"#utility.yul\":17051:17052   */\n      0x01\n        /* \"#utility.yul\":17043:17049   */\n      dup3\n        /* \"#utility.yul\":17039:17053   */\n      add\n        /* \"#utility.yul\":17029:17053   */\n      swap2\n      pop\n        /* \"#utility.yul\":17098:17100   */\n      0x20\n        /* \"#utility.yul\":17087:17096   */\n      dup6\n        /* \"#utility.yul\":17083:17101   */\n      add\n        /* \"#utility.yul\":17070:17101   */\n      swap5\n      pop\n        /* \"#utility.yul\":16944:16948   */\n      0x20\n        /* \"#utility.yul\":16941:16942   */\n      dup2\n        /* \"#utility.yul\":16937:16949   */\n      add\n        /* \"#utility.yul\":16932:16949   */\n      swap1\n      pop\n        /* \"#utility.yul\":16907:17115   */\n      jump(tag_342)\n    tag_344:\n        /* \"#utility.yul\":17143:17149   */\n      dup7\n        /* \"#utility.yul\":17134:17141   */\n      dup4\n        /* \"#utility.yul\":17131:17150   */\n      lt\n        /* \"#utility.yul\":17128:17307   */\n      iszero\n      tag_345\n      jumpi\n        /* \"#utility.yul\":17201:17210   */\n      dup5\n        /* \"#utility.yul\":17196:17199   */\n      dup10\n        /* \"#utility.yul\":17192:17211   */\n      add\n        /* \"#utility.yul\":17186:17212   */\n      mload\n        /* \"#utility.yul\":17244:17292   */\n      tag_346\n        /* \"#utility.yul\":17286:17290   */\n      0x1f\n        /* \"#utility.yul\":17278:17284   */\n      dup10\n        /* \"#utility.yul\":17274:17291   */\n      and\n        /* \"#utility.yul\":17263:17272   */\n      dup3\n        /* \"#utility.yul\":17244:17292   */\n      tag_153\n      jump\t// in\n    tag_346:\n        /* \"#utility.yul\":17236:17242   */\n      dup4\n        /* \"#utility.yul\":17229:17293   */\n      sstore\n        /* \"#utility.yul\":17151:17307   */\n      pop\n        /* \"#utility.yul\":17128:17307   */\n    tag_345:\n        /* \"#utility.yul\":17353:17354   */\n      0x01\n        /* \"#utility.yul\":17349:17350   */\n      0x02\n        /* \"#utility.yul\":17341:17347   */\n      dup9\n        /* \"#utility.yul\":17337:17351   */\n      mul\n        /* \"#utility.yul\":17333:17355   */\n      add\n        /* \"#utility.yul\":17327:17331   */\n      dup9\n        /* \"#utility.yul\":17320:17356   */\n      sstore\n        /* \"#utility.yul\":16755:17366   */\n      pop\n      pop\n      pop\n        /* \"#utility.yul\":16718:17605   */\n    tag_337:\n      pop\n        /* \"#utility.yul\":16308:17611   */\n      pop\n      pop\n      pop\n        /* \"#utility.yul\":16216:17611   */\n      pop\n      pop\n      jump\t// out\n        /* \"#utility.yul\":17617:17949   */\n    tag_91:\n        /* \"#utility.yul\":17738:17742   */\n      0x00\n        /* \"#utility.yul\":17776:17778   */\n      0x40\n        /* \"#utility.yul\":17765:17774   */\n      dup3\n        /* \"#utility.yul\":17761:17779   */\n      add\n        /* \"#utility.yul\":17753:17779   */\n      swap1\n      pop\n        /* \"#utility.yul\":17789:17860   */\n      tag_348\n        /* \"#utility.yul\":17857:17858   */\n      0x00\n        /* \"#utility.yul\":17846:17855   */\n      dup4\n        /* \"#utility.yul\":17842:17859   */\n      add\n        /* \"#utility.yul\":17833:17839   */\n      dup6\n        /* \"#utility.yul\":17789:17860   */\n      tag_115\n      jump\t// in\n    tag_348:\n        /* \"#utility.yul\":17870:17942   */\n      tag_349\n        /* \"#utility.yul\":17938:17940   */\n      0x20\n        /* \"#utility.yul\":17927:17936   */\n      dup4\n        /* \"#utility.yul\":17923:17941   */\n      add\n        /* \"#utility.yul\":17914:17920   */\n      dup5\n        /* \"#utility.yul\":17870:17942   */\n      tag_107\n      jump\t// in\n    tag_349:\n        /* \"#utility.yul\":17617:17949   */\n      swap4\n      swap3\n      pop\n      pop\n      pop\n      jump\t// out\n        /* \"#utility.yul\":17955:18092   */\n    tag_155:\n        /* \"#utility.yul\":18009:18014   */\n      0x00\n        /* \"#utility.yul\":18040:18046   */\n      dup2\n        /* \"#utility.yul\":18034:18047   */\n      mload\n        /* \"#utility.yul\":18025:18047   */\n      swap1\n      pop\n        /* \"#utility.yul\":18056:18086   */\n      tag_351\n        /* \"#utility.yul\":18080:18085   */\n      dup2\n        /* \"#utility.yul\":18056:18086   */\n      tag_128\n      jump\t// in\n    tag_351:\n        /* \"#utility.yul\":17955:18092   */\n      swap3\n      swap2\n      pop\n      pop\n      jump\t// out\n        /* \"#utility.yul\":18098:18443   */\n    tag_95:\n        /* \"#utility.yul\":18165:18171   */\n      0x00\n        /* \"#utility.yul\":18214:18216   */\n      0x20\n        /* \"#utility.yul\":18202:18211   */\n      dup3\n        /* \"#utility.yul\":18193:18200   */\n      dup5\n        /* \"#utility.yul\":18189:18212   */\n      sub\n        /* \"#utility.yul\":18185:18217   */\n      slt\n        /* \"#utility.yul\":18182:18301   */\n      iszero\n      tag_353\n      jumpi\n        /* \"#utility.yul\":18220:18299   */\n      tag_354\n      tag_100\n      jump\t// in\n    tag_354:\n        /* \"#utility.yul\":18182:18301   */\n    tag_353:\n        /* \"#utility.yul\":18340:18341   */\n      0x00\n        /* \"#utility.yul\":18365:18426   */\n      tag_355\n        /* \"#utility.yul\":18418:18425   */\n      dup5\n        /* \"#utility.yul\":18409:18415   */\n      dup3\n        /* \"#utility.yul\":18398:18407   */\n      dup6\n        /* \"#utility.yul\":18394:18416   */\n      add\n        /* \"#utility.yul\":18365:18426   */\n      tag_155\n      jump\t// in\n    tag_355:\n        /* \"#utility.yul\":18355:18426   */\n      swap2\n      pop\n        /* \"#utility.yul\":18311:18436   */\n      pop\n        /* \"#utility.yul\":18098:18443   */\n      swap3\n      swap2\n      pop\n      pop\n      jump\t// out\n        /* \"#utility.yul\":18449:18620   */\n    tag_156:\n        /* \"#utility.yul\":18589:18612   */\n      0x546f6b656e207472616e73666572206661696c65640000000000000000000000\n        /* \"#utility.yul\":18585:18586   */\n      0x00\n        /* \"#utility.yul\":18577:18583   */\n      dup3\n        /* \"#utility.yul\":18573:18587   */\n      add\n        /* \"#utility.yul\":18566:18613   */\n      mstore\n        /* \"#utility.yul\":18449:18620   */\n      pop\n      jump\t// out\n        /* \"#utility.yul\":18626:18992   */\n    tag_157:\n        /* \"#utility.yul\":18768:18771   */\n      0x00\n        /* \"#utility.yul\":18789:18856   */\n      tag_358\n        /* \"#utility.yul\":18853:18855   */\n      0x15\n        /* \"#utility.yul\":18848:18851   */\n      dup4\n        /* \"#utility.yul\":18789:18856   */\n      tag_109\n      jump\t// in\n    tag_358:\n        /* \"#utility.yul\":18782:18856   */\n      swap2\n      pop\n        /* \"#utility.yul\":18865:18958   */\n      tag_359\n        /* \"#utility.yul\":18954:18957   */\n      dup3\n        /* \"#utility.yul\":18865:18958   */\n      tag_156\n      jump\t// in\n    tag_359:\n        /* \"#utility.yul\":18983:18985   */\n      0x20\n        /* \"#utility.yul\":18978:18981   */\n      dup3\n        /* \"#utility.yul\":18974:18986   */\n      add\n        /* \"#utility.yul\":18967:18986   */\n      swap1\n      pop\n        /* \"#utility.yul\":18626:18992   */\n      swap2\n      swap1\n      pop\n      jump\t// out\n        /* \"#utility.yul\":18998:19417   */\n    tag_98:\n        /* \"#utility.yul\":19164:19168   */\n      0x00\n        /* \"#utility.yul\":19202:19204   */\n      0x20\n        /* \"#utility.yul\":19191:19200   */\n      dup3\n        /* \"#utility.yul\":19187:19205   */\n      add\n        /* \"#utility.yul\":19179:19205   */\n      swap1\n      pop\n        /* \"#utility.yul\":19251:19260   */\n      dup2\n        /* \"#utility.yul\":19245:19249   */\n      dup2\n        /* \"#utility.yul\":19241:19261   */\n      sub\n        /* \"#utility.yul\":19237:19238   */\n      0x00\n        /* \"#utility.yul\":19226:19235   */\n      dup4\n        /* \"#utility.yul\":19222:19239   */\n      add\n        /* \"#utility.yul\":19215:19262   */\n      mstore\n        /* \"#utility.yul\":19279:19410   */\n      tag_361\n        /* \"#utility.yul\":19405:19409   */\n      dup2\n        /* \"#utility.yul\":19279:19410   */\n      tag_157\n      jump\t// in\n    tag_361:\n        /* \"#utility.yul\":19271:19410   */\n      swap1\n      pop\n        /* \"#utility.yul\":18998:19417   */\n      swap2\n      swap1\n      pop\n      jump\t// out\n\n    auxdata: 0xa26469706673582212204cb61cd5dec681d665dc5349c49cea7b25043a4b0ec989c677febd2f288d903264736f6c634300081a0033\n}\n",
				"bytecode": {
					"linkReferences": {},
					"object": "6080604052348015600e575f80fd5b506111818061001c5f395ff3fe608060405260043610610054575f3560e01c8063134fe3dc146100585780631d65e77e146100885780632bb4f55e146100c85780636e17e24014610104578063851e0a7f14610140578063f5537ede1461017c575b5f80fd5b610072600480360381019061006d91906107ec565b6101a4565b60405161007f9190610844565b60405180910390f35b348015610093575f80fd5b506100ae60048036038101906100a9919061085d565b610257565b6040516100bf959493929190610a6e565b60405180910390f35b3480156100d3575f80fd5b506100ee60048036038101906100e99190610b21565b610477565b6040516100fb9190610844565b60405180910390f35b34801561010f575f80fd5b5061012a6004803603810190610125919061085d565b610562565b6040516101379190610b98565b60405180910390f35b34801561014b575f80fd5b5061016660048036038101906101619190610cdd565b610632565b6040516101739190610b98565b60405180910390f35b348015610187575f80fd5b506101a2600480360381019061019d9190610d37565b6106df565b005b5f805f84815481106101b9576101b8610d87565b5b905f5260205f20906005020190505f8160040184815481106101de576101dd610d87565b5b905f5260205f209060030201905060018160010160146101000a81548160ff02191690831515021790555033816002015f6101000a81548173ffffffffffffffffffffffffffffffffffffffff021916908373ffffffffffffffffffffffffffffffffffffffff16021790555060019250505092915050565b5f60605f8060605f80878154811061027257610271610d87565b5b905f5260205f2090600502019050805f015481600101826002015f9054906101000a900473ffffffffffffffffffffffffffffffffffffffff168360030154846004018380546102c190610de1565b80601f01602080910402602001604051908101604052809291908181526020018280546102ed90610de1565b80156103385780601f1061030f57610100808354040283529160200191610338565b820191905f5260205f20905b81548152906001019060200180831161031b57829003601f168201915b5050505050935080805480602002602001604051908101604052809291908181526020015f905b8282101561045d578382905f5260205f2090600302016040518060800160405290815f8201548152602001600182015f9054906101000a900473ffffffffffffffffffffffffffffffffffffffff1673ffffffffffffffffffffffffffffffffffffffff1673ffffffffffffffffffffffffffffffffffffffff1681526020016001820160149054906101000a900460ff16151515158152602001600282015f9054906101000a900473ffffffffffffffffffffffffffffffffffffffff1673ffffffffffffffffffffffffffffffffffffffff1673ffffffffffffffffffffffffffffffffffffffff16815250508152602001906001019061035f565b505050509050955095509550955095505091939590929450565b5f805f858154811061048c5761048b610d87565b5b905f5260205f20906005020190505f8160040185815481106104b1576104b0610d87565b5b905f5260205f2090600302019050838160010160146101000a81548160ff0219169083151502179055505f826002015f9054906101000a900473ffffffffffffffffffffffffffffffffffffffff1690505f826001015f9054906101000a900473ffffffffffffffffffffffffffffffffffffffff1690506001151586151503610545576105408a828b6106df565b610551565b6105508a838b6106df565b5b600194505050505095945050505050565b5f805f60018054905003610578575f9050610581565b60018054905090505b5f80848154811061059557610594610d87565b5b905f5260205f20906005020160040160018160018154018082558091505003905f5260205f209060030201905081815f018190555033816001015f6101000a81548173ffffffffffffffffffffffffffffffffffffffff021916908373ffffffffffffffffffffffffffffffffffffffff1602179055505f8160010160146101000a81548160ff0219169083151502179055508192505050919050565b5f805f808054905003610647575f905061064f565b5f8054905090505b5f8060018160018154018082558091505003905f5260205f209060050201905081815f0181905550848160010190816106889190610fae565b5033816002015f6101000a81548173ffffffffffffffffffffffffffffffffffffffff021916908373ffffffffffffffffffffffffffffffffffffffff160217905550838160030181905550819250505092915050565b5f8390505f8173ffffffffffffffffffffffffffffffffffffffff1663a9059cbb85856040518363ffffffff1660e01b815260040161071f92919061107d565b6020604051808303815f875af115801561073b573d5f803e3d5ffd5b505050506040513d601f19601f8201168201806040525081019061075f91906110b8565b9050806107a1576040517f08c379a00000000000000000000000000000000000000000000000000000000081526004016107989061112d565b60405180910390fd5b5050505050565b5f604051905090565b5f80fd5b5f80fd5b5f819050919050565b6107cb816107b9565b81146107d5575f80fd5b50565b5f813590506107e6816107c2565b92915050565b5f8060408385031215610802576108016107b1565b5b5f61080f858286016107d8565b9250506020610820858286016107d8565b9150509250929050565b5f8115159050919050565b61083e8161082a565b82525050565b5f6020820190506108575f830184610835565b92915050565b5f60208284031215610872576108716107b1565b5b5f61087f848285016107d8565b91505092915050565b610891816107b9565b82525050565b5f81519050919050565b5f82825260208201905092915050565b8281835e5f83830152505050565b5f601f19601f8301169050919050565b5f6108d982610897565b6108e381856108a1565b93506108f38185602086016108b1565b6108fc816108bf565b840191505092915050565b5f73ffffffffffffffffffffffffffffffffffffffff82169050919050565b5f61093082610907565b9050919050565b61094081610926565b82525050565b5f81519050919050565b5f82825260208201905092915050565b5f819050602082019050919050565b610978816107b9565b82525050565b61098781610926565b82525050565b6109968161082a565b82525050565b608082015f8201516109b05f85018261096f565b5060208201516109c3602085018261097e565b5060408201516109d6604085018261098d565b5060608201516109e9606085018261097e565b50505050565b5f6109fa838361099c565b60808301905092915050565b5f602082019050919050565b5f610a1c82610946565b610a268185610950565b9350610a3183610960565b805f5b83811015610a61578151610a4888826109ef565b9750610a5383610a06565b925050600181019050610a34565b5085935050505092915050565b5f60a082019050610a815f830188610888565b8181036020830152610a9381876108cf565b9050610aa26040830186610937565b610aaf6060830185610888565b8181036080830152610ac18184610a12565b90509695505050505050565b610ad681610926565b8114610ae0575f80fd5b50565b5f81359050610af181610acd565b92915050565b610b008161082a565b8114610b0a575f80fd5b50565b5f81359050610b1b81610af7565b92915050565b5f805f805f60a08688031215610b3a57610b396107b1565b5b5f610b4788828901610ae3565b9550506020610b58888289016107d8565b9450506040610b69888289016107d8565b9350506060610b7a888289016107d8565b9250506080610b8b88828901610b0d565b9150509295509295909350565b5f602082019050610bab5f830184610888565b92915050565b5f80fd5b5f80fd5b7f4e487b71000000000000000000000000000000000000000000000000000000005f52604160045260245ffd5b610bef826108bf565b810181811067ffffffffffffffff82111715610c0e57610c0d610bb9565b5b80604052505050565b5f610c206107a8565b9050610c2c8282610be6565b919050565b5f67ffffffffffffffff821115610c4b57610c4a610bb9565b5b610c54826108bf565b9050602081019050919050565b828183375f83830152505050565b5f610c81610c7c84610c31565b610c17565b905082815260208101848484011115610c9d57610c9c610bb5565b5b610ca8848285610c61565b509392505050565b5f82601f830112610cc457610cc3610bb1565b5b8135610cd4848260208601610c6f565b91505092915050565b5f8060408385031215610cf357610cf26107b1565b5b5f83013567ffffffffffffffff811115610d1057610d0f6107b5565b5b610d1c85828601610cb0565b9250506020610d2d858286016107d8565b9150509250929050565b5f805f60608486031215610d4e57610d4d6107b1565b5b5f610d5b86828701610ae3565b9350506020610d6c86828701610ae3565b9250506040610d7d868287016107d8565b9150509250925092565b7f4e487b71000000000000000000000000000000000000000000000000000000005f52603260045260245ffd5b7f4e487b71000000000000000000000000000000000000000000000000000000005f52602260045260245ffd5b5f6002820490506001821680610df857607f821691505b602082108103610e0b57610e0a610db4565b5b50919050565b5f819050815f5260205f209050919050565b5f6020601f8301049050919050565b5f82821b905092915050565b5f60088302610e6d7fffffffffffffffffffffffffffffffffffffffffffffffffffffffffffffffff82610e32565b610e778683610e32565b95508019841693508086168417925050509392505050565b5f819050919050565b5f610eb2610ead610ea8846107b9565b610e8f565b6107b9565b9050919050565b5f819050919050565b610ecb83610e98565b610edf610ed782610eb9565b848454610e3e565b825550505050565b5f90565b610ef3610ee7565b610efe818484610ec2565b505050565b5b81811015610f2157610f165f82610eeb565b600181019050610f04565b5050565b601f821115610f6657610f3781610e11565b610f4084610e23565b81016020851015610f4f578190505b610f63610f5b85610e23565b830182610f03565b50505b505050565b5f82821c905092915050565b5f610f865f1984600802610f6b565b1980831691505092915050565b5f610f9e8383610f77565b9150826002028217905092915050565b610fb782610897565b67ffffffffffffffff811115610fd057610fcf610bb9565b5b610fda8254610de1565b610fe5828285610f25565b5f60209050601f831160018114611016575f8415611004578287015190505b61100e8582610f93565b865550611075565b601f19841661102486610e11565b5f5b8281101561104b57848901518255600182019150602085019450602081019050611026565b868310156110685784890151611064601f891682610f77565b8355505b6001600288020188555050505b505050505050565b5f6040820190506110905f830185610937565b61109d6020830184610888565b9392505050565b5f815190506110b281610af7565b92915050565b5f602082840312156110cd576110cc6107b1565b5b5f6110da848285016110a4565b91505092915050565b7f546f6b656e207472616e73666572206661696c656400000000000000000000005f82015250565b5f6111176015836108a1565b9150611122826110e3565b602082019050919050565b5f6020820190508181035f8301526111448161110b565b905091905056fea26469706673582212204cb61cd5dec681d665dc5349c49cea7b25043a4b0ec989c677febd2f288d903264736f6c634300081a0033",
					"opcodes": "PUSH1 0x80 PUSH1 0x40 MSTORE CALLVALUE DUP1 ISZERO PUSH1 0xE JUMPI PUSH0 DUP1 REVERT JUMPDEST POP PUSH2 0x1181 DUP1 PUSH2 0x1C PUSH0 CODECOPY PUSH0 RETURN INVALID PUSH1 0x80 PUSH1 0x40 MSTORE PUSH1 0x4 CALLDATASIZE LT PUSH2 0x54 JUMPI PUSH0 CALLDATALOAD PUSH1 0xE0 SHR DUP1 PUSH4 0x134FE3DC EQ PUSH2 0x58 JUMPI DUP1 PUSH4 0x1D65E77E EQ PUSH2 0x88 JUMPI DUP1 PUSH4 0x2BB4F55E EQ PUSH2 0xC8 JUMPI DUP1 PUSH4 0x6E17E240 EQ PUSH2 0x104 JUMPI DUP1 PUSH4 0x851E0A7F EQ PUSH2 0x140 JUMPI DUP1 PUSH4 0xF5537EDE EQ PUSH2 0x17C JUMPI JUMPDEST PUSH0 DUP1 REVERT JUMPDEST PUSH2 0x72 PUSH1 0x4 DUP1 CALLDATASIZE SUB DUP2 ADD SWAP1 PUSH2 0x6D SWAP2 SWAP1 PUSH2 0x7EC JUMP JUMPDEST PUSH2 0x1A4 JUMP JUMPDEST PUSH1 0x40 MLOAD PUSH2 0x7F SWAP2 SWAP1 PUSH2 0x844 JUMP JUMPDEST PUSH1 0x40 MLOAD DUP1 SWAP2 SUB SWAP1 RETURN JUMPDEST CALLVALUE DUP1 ISZERO PUSH2 0x93 JUMPI PUSH0 DUP1 REVERT JUMPDEST POP PUSH2 0xAE PUSH1 0x4 DUP1 CALLDATASIZE SUB DUP2 ADD SWAP1 PUSH2 0xA9 SWAP2 SWAP1 PUSH2 0x85D JUMP JUMPDEST PUSH2 0x257 JUMP JUMPDEST PUSH1 0x40 MLOAD PUSH2 0xBF SWAP6 SWAP5 SWAP4 SWAP3 SWAP2 SWAP1 PUSH2 0xA6E JUMP JUMPDEST PUSH1 0x40 MLOAD DUP1 SWAP2 SUB SWAP1 RETURN JUMPDEST CALLVALUE DUP1 ISZERO PUSH2 0xD3 JUMPI PUSH0 DUP1 REVERT JUMPDEST POP PUSH2 0xEE PUSH1 0x4 DUP1 CALLDATASIZE SUB DUP2 ADD SWAP1 PUSH2 0xE9 SWAP2 SWAP1 PUSH2 0xB21 JUMP JUMPDEST PUSH2 0x477 JUMP JUMPDEST PUSH1 0x40 MLOAD PUSH2 0xFB SWAP2 SWAP1 PUSH2 0x844 JUMP JUMPDEST PUSH1 0x40 MLOAD DUP1 SWAP2 SUB SWAP1 RETURN JUMPDEST CALLVALUE DUP1 ISZERO PUSH2 0x10F JUMPI PUSH0 DUP1 REVERT JUMPDEST POP PUSH2 0x12A PUSH1 0x4 DUP1 CALLDATASIZE SUB DUP2 ADD SWAP1 PUSH2 0x125 SWAP2 SWAP1 PUSH2 0x85D JUMP JUMPDEST PUSH2 0x562 JUMP JUMPDEST PUSH1 0x40 MLOAD PUSH2 0x137 SWAP2 SWAP1 PUSH2 0xB98 JUMP JUMPDEST PUSH1 0x40 MLOAD DUP1 SWAP2 SUB SWAP1 RETURN JUMPDEST CALLVALUE DUP1 ISZERO PUSH2 0x14B JUMPI PUSH0 DUP1 REVERT JUMPDEST POP PUSH2 0x166 PUSH1 0x4 DUP1 CALLDATASIZE SUB DUP2 ADD SWAP1 PUSH2 0x161 SWAP2 SWAP1 PUSH2 0xCDD JUMP JUMPDEST PUSH2 0x632 JUMP JUMPDEST PUSH1 0x40 MLOAD PUSH2 0x173 SWAP2 SWAP1 PUSH2 0xB98 JUMP JUMPDEST PUSH1 0x40 MLOAD DUP1 SWAP2 SUB SWAP1 RETURN JUMPDEST CALLVALUE DUP1 ISZERO PUSH2 0x187 JUMPI PUSH0 DUP1 REVERT JUMPDEST POP PUSH2 0x1A2 PUSH1 0x4 DUP1 CALLDATASIZE SUB DUP2 ADD SWAP1 PUSH2 0x19D SWAP2 SWAP1 PUSH2 0xD37 JUMP JUMPDEST PUSH2 0x6DF JUMP JUMPDEST STOP JUMPDEST PUSH0 DUP1 PUSH0 DUP5 DUP2 SLOAD DUP2 LT PUSH2 0x1B9 JUMPI PUSH2 0x1B8 PUSH2 0xD87 JUMP JUMPDEST JUMPDEST SWAP1 PUSH0 MSTORE PUSH1 0x20 PUSH0 KECCAK256 SWAP1 PUSH1 0x5 MUL ADD SWAP1 POP PUSH0 DUP2 PUSH1 0x4 ADD DUP5 DUP2 SLOAD DUP2 LT PUSH2 0x1DE JUMPI PUSH2 0x1DD PUSH2 0xD87 JUMP JUMPDEST JUMPDEST SWAP1 PUSH0 MSTORE PUSH1 0x20 PUSH0 KECCAK256 SWAP1 PUSH1 0x3 MUL ADD SWAP1 POP PUSH1 0x1 DUP2 PUSH1 0x1 ADD PUSH1 0x14 PUSH2 0x100 EXP DUP2 SLOAD DUP2 PUSH1 0xFF MUL NOT AND SWAP1 DUP4 ISZERO ISZERO MUL OR SWAP1 SSTORE POP CALLER DUP2 PUSH1 0x2 ADD PUSH0 PUSH2 0x100 EXP DUP2 SLOAD DUP2 PUSH20 0xFFFFFFFFFFFFFFFFFFFFFFFFFFFFFFFFFFFFFFFF MUL NOT AND SWAP1 DUP4 PUSH20 0xFFFFFFFFFFFFFFFFFFFFFFFFFFFFFFFFFFFFFFFF AND MUL OR SWAP1 SSTORE POP PUSH1 0x1 SWAP3 POP POP POP SWAP3 SWAP2 POP POP JUMP JUMPDEST PUSH0 PUSH1 0x60 PUSH0 DUP1 PUSH1 0x60 PUSH0 DUP1 DUP8 DUP2 SLOAD DUP2 LT PUSH2 0x272 JUMPI PUSH2 0x271 PUSH2 0xD87 JUMP JUMPDEST JUMPDEST SWAP1 PUSH0 MSTORE PUSH1 0x20 PUSH0 KECCAK256 SWAP1 PUSH1 0x5 MUL ADD SWAP1 POP DUP1 PUSH0 ADD SLOAD DUP2 PUSH1 0x1 ADD DUP3 PUSH1 0x2 ADD PUSH0 SWAP1 SLOAD SWAP1 PUSH2 0x100 EXP SWAP1 DIV PUSH20 0xFFFFFFFFFFFFFFFFFFFFFFFFFFFFFFFFFFFFFFFF AND DUP4 PUSH1 0x3 ADD SLOAD DUP5 PUSH1 0x4 ADD DUP4 DUP1 SLOAD PUSH2 0x2C1 SWAP1 PUSH2 0xDE1 JUMP JUMPDEST DUP1 PUSH1 0x1F ADD PUSH1 0x20 DUP1 SWAP2 DIV MUL PUSH1 0x20 ADD PUSH1 0x40 MLOAD SWAP1 DUP2 ADD PUSH1 0x40 MSTORE DUP1 SWAP3 SWAP2 SWAP1 DUP2 DUP2 MSTORE PUSH1 0x20 ADD DUP3 DUP1 SLOAD PUSH2 0x2ED SWAP1 PUSH2 0xDE1 JUMP JUMPDEST DUP1 ISZERO PUSH2 0x338 JUMPI DUP1 PUSH1 0x1F LT PUSH2 0x30F JUMPI PUSH2 0x100 DUP1 DUP4 SLOAD DIV MUL DUP4 MSTORE SWAP2 PUSH1 0x20 ADD SWAP2 PUSH2 0x338 JUMP JUMPDEST DUP3 ADD SWAP2 SWAP1 PUSH0 MSTORE PUSH1 0x20 PUSH0 KECCAK256 SWAP1 JUMPDEST DUP2 SLOAD DUP2 MSTORE SWAP1 PUSH1 0x1 ADD SWAP1 PUSH1 0x20 ADD DUP1 DUP4 GT PUSH2 0x31B JUMPI DUP3 SWAP1 SUB PUSH1 0x1F AND DUP3 ADD SWAP2 JUMPDEST POP POP POP POP POP SWAP4 POP DUP1 DUP1 SLOAD DUP1 PUSH1 0x20 MUL PUSH1 0x20 ADD PUSH1 0x40 MLOAD SWAP1 DUP2 ADD PUSH1 0x40 MSTORE DUP1 SWAP3 SWAP2 SWAP1 DUP2 DUP2 MSTORE PUSH1 0x20 ADD PUSH0 SWAP1 JUMPDEST DUP3 DUP3 LT ISZERO PUSH2 0x45D JUMPI DUP4 DUP3 SWAP1 PUSH0 MSTORE PUSH1 0x20 PUSH0 KECCAK256 SWAP1 PUSH1 0x3 MUL ADD PUSH1 0x40 MLOAD DUP1 PUSH1 0x80 ADD PUSH1 0x40 MSTORE SWAP1 DUP2 PUSH0 DUP3 ADD SLOAD DUP2 MSTORE PUSH1 0x20 ADD PUSH1 0x1 DUP3 ADD PUSH0 SWAP1 SLOAD SWAP1 PUSH2 0x100 EXP SWAP1 DIV PUSH20 0xFFFFFFFFFFFFFFFFFFFFFFFFFFFFFFFFFFFFFFFF AND PUSH20 0xFFFFFFFFFFFFFFFFFFFFFFFFFFFFFFFFFFFFFFFF AND PUSH20 0xFFFFFFFFFFFFFFFFFFFFFFFFFFFFFFFFFFFFFFFF AND DUP2 MSTORE PUSH1 0x20 ADD PUSH1 0x1 DUP3 ADD PUSH1 0x14 SWAP1 SLOAD SWAP1 PUSH2 0x100 EXP SWAP1 DIV PUSH1 0xFF AND ISZERO ISZERO ISZERO ISZERO DUP2 MSTORE PUSH1 0x20 ADD PUSH1 0x2 DUP3 ADD PUSH0 SWAP1 SLOAD SWAP1 PUSH2 0x100 EXP SWAP1 DIV PUSH20 0xFFFFFFFFFFFFFFFFFFFFFFFFFFFFFFFFFFFFFFFF AND PUSH20 0xFFFFFFFFFFFFFFFFFFFFFFFFFFFFFFFFFFFFFFFF AND PUSH20 0xFFFFFFFFFFFFFFFFFFFFFFFFFFFFFFFFFFFFFFFF AND DUP2 MSTORE POP POP DUP2 MSTORE PUSH1 0x20 ADD SWAP1 PUSH1 0x1 ADD SWAP1 PUSH2 0x35F JUMP JUMPDEST POP POP POP POP SWAP1 POP SWAP6 POP SWAP6 POP SWAP6 POP SWAP6 POP SWAP6 POP POP SWAP2 SWAP4 SWAP6 SWAP1 SWAP3 SWAP5 POP JUMP JUMPDEST PUSH0 DUP1 PUSH0 DUP6 DUP2 SLOAD DUP2 LT PUSH2 0x48C JUMPI PUSH2 0x48B PUSH2 0xD87 JUMP JUMPDEST JUMPDEST SWAP1 PUSH0 MSTORE PUSH1 0x20 PUSH0 KECCAK256 SWAP1 PUSH1 0x5 MUL ADD SWAP1 POP PUSH0 DUP2 PUSH1 0x4 ADD DUP6 DUP2 SLOAD DUP2 LT PUSH2 0x4B1 JUMPI PUSH2 0x4B0 PUSH2 0xD87 JUMP JUMPDEST JUMPDEST SWAP1 PUSH0 MSTORE PUSH1 0x20 PUSH0 KECCAK256 SWAP1 PUSH1 0x3 MUL ADD SWAP1 POP DUP4 DUP2 PUSH1 0x1 ADD PUSH1 0x14 PUSH2 0x100 EXP DUP2 SLOAD DUP2 PUSH1 0xFF MUL NOT AND SWAP1 DUP4 ISZERO ISZERO MUL OR SWAP1 SSTORE POP PUSH0 DUP3 PUSH1 0x2 ADD PUSH0 SWAP1 SLOAD SWAP1 PUSH2 0x100 EXP SWAP1 DIV PUSH20 0xFFFFFFFFFFFFFFFFFFFFFFFFFFFFFFFFFFFFFFFF AND SWAP1 POP PUSH0 DUP3 PUSH1 0x1 ADD PUSH0 SWAP1 SLOAD SWAP1 PUSH2 0x100 EXP SWAP1 DIV PUSH20 0xFFFFFFFFFFFFFFFFFFFFFFFFFFFFFFFFFFFFFFFF AND SWAP1 POP PUSH1 0x1 ISZERO ISZERO DUP7 ISZERO ISZERO SUB PUSH2 0x545 JUMPI PUSH2 0x540 DUP11 DUP3 DUP12 PUSH2 0x6DF JUMP JUMPDEST PUSH2 0x551 JUMP JUMPDEST PUSH2 0x550 DUP11 DUP4 DUP12 PUSH2 0x6DF JUMP JUMPDEST JUMPDEST PUSH1 0x1 SWAP5 POP POP POP POP POP SWAP6 SWAP5 POP POP POP POP POP JUMP JUMPDEST PUSH0 DUP1 PUSH0 PUSH1 0x1 DUP1 SLOAD SWAP1 POP SUB PUSH2 0x578 JUMPI PUSH0 SWAP1 POP PUSH2 0x581 JUMP JUMPDEST PUSH1 0x1 DUP1 SLOAD SWAP1 POP SWAP1 POP JUMPDEST PUSH0 DUP1 DUP5 DUP2 SLOAD DUP2 LT PUSH2 0x595 JUMPI PUSH2 0x594 PUSH2 0xD87 JUMP JUMPDEST JUMPDEST SWAP1 PUSH0 MSTORE PUSH1 0x20 PUSH0 KECCAK256 SWAP1 PUSH1 0x5 MUL ADD PUSH1 0x4 ADD PUSH1 0x1 DUP2 PUSH1 0x1 DUP2 SLOAD ADD DUP1 DUP3 SSTORE DUP1 SWAP2 POP POP SUB SWAP1 PUSH0 MSTORE PUSH1 0x20 PUSH0 KECCAK256 SWAP1 PUSH1 0x3 MUL ADD SWAP1 POP DUP2 DUP2 PUSH0 ADD DUP2 SWAP1 SSTORE POP CALLER DUP2 PUSH1 0x1 ADD PUSH0 PUSH2 0x100 EXP DUP2 SLOAD DUP2 PUSH20 0xFFFFFFFFFFFFFFFFFFFFFFFFFFFFFFFFFFFFFFFF MUL NOT AND SWAP1 DUP4 PUSH20 0xFFFFFFFFFFFFFFFFFFFFFFFFFFFFFFFFFFFFFFFF AND MUL OR SWAP1 SSTORE POP PUSH0 DUP2 PUSH1 0x1 ADD PUSH1 0x14 PUSH2 0x100 EXP DUP2 SLOAD DUP2 PUSH1 0xFF MUL NOT AND SWAP1 DUP4 ISZERO ISZERO MUL OR SWAP1 SSTORE POP DUP2 SWAP3 POP POP POP SWAP2 SWAP1 POP JUMP JUMPDEST PUSH0 DUP1 PUSH0 DUP1 DUP1 SLOAD SWAP1 POP SUB PUSH2 0x647 JUMPI PUSH0 SWAP1 POP PUSH2 0x64F JUMP JUMPDEST PUSH0 DUP1 SLOAD SWAP1 POP SWAP1 POP JUMPDEST PUSH0 DUP1 PUSH1 0x1 DUP2 PUSH1 0x1 DUP2 SLOAD ADD DUP1 DUP3 SSTORE DUP1 SWAP2 POP POP SUB SWAP1 PUSH0 MSTORE PUSH1 0x20 PUSH0 KECCAK256 SWAP1 PUSH1 0x5 MUL ADD SWAP1 POP DUP2 DUP2 PUSH0 ADD DUP2 SWAP1 SSTORE POP DUP5 DUP2 PUSH1 0x1 ADD SWAP1 DUP2 PUSH2 0x688 SWAP2 SWAP1 PUSH2 0xFAE JUMP JUMPDEST POP CALLER DUP2 PUSH1 0x2 ADD PUSH0 PUSH2 0x100 EXP DUP2 SLOAD DUP2 PUSH20 0xFFFFFFFFFFFFFFFFFFFFFFFFFFFFFFFFFFFFFFFF MUL NOT AND SWAP1 DUP4 PUSH20 0xFFFFFFFFFFFFFFFFFFFFFFFFFFFFFFFFFFFFFFFF AND MUL OR SWAP1 SSTORE POP DUP4 DUP2 PUSH1 0x3 ADD DUP2 SWAP1 SSTORE POP DUP2 SWAP3 POP POP POP SWAP3 SWAP2 POP POP JUMP JUMPDEST PUSH0 DUP4 SWAP1 POP PUSH0 DUP2 PUSH20 0xFFFFFFFFFFFFFFFFFFFFFFFFFFFFFFFFFFFFFFFF AND PUSH4 0xA9059CBB DUP6 DUP6 PUSH1 0x40 MLOAD DUP4 PUSH4 0xFFFFFFFF AND PUSH1 0xE0 SHL DUP2 MSTORE PUSH1 0x4 ADD PUSH2 0x71F SWAP3 SWAP2 SWAP1 PUSH2 0x107D JUMP JUMPDEST PUSH1 0x20 PUSH1 0x40 MLOAD DUP1 DUP4 SUB DUP2 PUSH0 DUP8 GAS CALL ISZERO DUP1 ISZERO PUSH2 0x73B JUMPI RETURNDATASIZE PUSH0 DUP1 RETURNDATACOPY RETURNDATASIZE PUSH0 REVERT JUMPDEST POP POP POP POP PUSH1 0x40 MLOAD RETURNDATASIZE PUSH1 0x1F NOT PUSH1 0x1F DUP3 ADD AND DUP3 ADD DUP1 PUSH1 0x40 MSTORE POP DUP2 ADD SWAP1 PUSH2 0x75F SWAP2 SWAP1 PUSH2 0x10B8 JUMP JUMPDEST SWAP1 POP DUP1 PUSH2 0x7A1 JUMPI PUSH1 0x40 MLOAD PUSH32 0x8C379A000000000000000000000000000000000000000000000000000000000 DUP2 MSTORE PUSH1 0x4 ADD PUSH2 0x798 SWAP1 PUSH2 0x112D JUMP JUMPDEST PUSH1 0x40 MLOAD DUP1 SWAP2 SUB SWAP1 REVERT JUMPDEST POP POP POP POP POP JUMP JUMPDEST PUSH0 PUSH1 0x40 MLOAD SWAP1 POP SWAP1 JUMP JUMPDEST PUSH0 DUP1 REVERT JUMPDEST PUSH0 DUP1 REVERT JUMPDEST PUSH0 DUP2 SWAP1 POP SWAP2 SWAP1 POP JUMP JUMPDEST PUSH2 0x7CB DUP2 PUSH2 0x7B9 JUMP JUMPDEST DUP2 EQ PUSH2 0x7D5 JUMPI PUSH0 DUP1 REVERT JUMPDEST POP JUMP JUMPDEST PUSH0 DUP2 CALLDATALOAD SWAP1 POP PUSH2 0x7E6 DUP2 PUSH2 0x7C2 JUMP JUMPDEST SWAP3 SWAP2 POP POP JUMP JUMPDEST PUSH0 DUP1 PUSH1 0x40 DUP4 DUP6 SUB SLT ISZERO PUSH2 0x802 JUMPI PUSH2 0x801 PUSH2 0x7B1 JUMP JUMPDEST JUMPDEST PUSH0 PUSH2 0x80F DUP6 DUP3 DUP7 ADD PUSH2 0x7D8 JUMP JUMPDEST SWAP3 POP POP PUSH1 0x20 PUSH2 0x820 DUP6 DUP3 DUP7 ADD PUSH2 0x7D8 JUMP JUMPDEST SWAP2 POP POP SWAP3 POP SWAP3 SWAP1 POP JUMP JUMPDEST PUSH0 DUP2 ISZERO ISZERO SWAP1 POP SWAP2 SWAP1 POP JUMP JUMPDEST PUSH2 0x83E DUP2 PUSH2 0x82A JUMP JUMPDEST DUP3 MSTORE POP POP JUMP JUMPDEST PUSH0 PUSH1 0x20 DUP3 ADD SWAP1 POP PUSH2 0x857 PUSH0 DUP4 ADD DUP5 PUSH2 0x835 JUMP JUMPDEST SWAP3 SWAP2 POP POP JUMP JUMPDEST PUSH0 PUSH1 0x20 DUP3 DUP5 SUB SLT ISZERO PUSH2 0x872 JUMPI PUSH2 0x871 PUSH2 0x7B1 JUMP JUMPDEST JUMPDEST PUSH0 PUSH2 0x87F DUP5 DUP3 DUP6 ADD PUSH2 0x7D8 JUMP JUMPDEST SWAP2 POP POP SWAP3 SWAP2 POP POP JUMP JUMPDEST PUSH2 0x891 DUP2 PUSH2 0x7B9 JUMP JUMPDEST DUP3 MSTORE POP POP JUMP JUMPDEST PUSH0 DUP2 MLOAD SWAP1 POP SWAP2 SWAP1 POP JUMP JUMPDEST PUSH0 DUP3 DUP3 MSTORE PUSH1 0x20 DUP3 ADD SWAP1 POP SWAP3 SWAP2 POP POP JUMP JUMPDEST DUP3 DUP2 DUP4 MCOPY PUSH0 DUP4 DUP4 ADD MSTORE POP POP POP JUMP JUMPDEST PUSH0 PUSH1 0x1F NOT PUSH1 0x1F DUP4 ADD AND SWAP1 POP SWAP2 SWAP1 POP JUMP JUMPDEST PUSH0 PUSH2 0x8D9 DUP3 PUSH2 0x897 JUMP JUMPDEST PUSH2 0x8E3 DUP2 DUP6 PUSH2 0x8A1 JUMP JUMPDEST SWAP4 POP PUSH2 0x8F3 DUP2 DUP6 PUSH1 0x20 DUP7 ADD PUSH2 0x8B1 JUMP JUMPDEST PUSH2 0x8FC DUP2 PUSH2 0x8BF JUMP JUMPDEST DUP5 ADD SWAP2 POP POP SWAP3 SWAP2 POP POP JUMP JUMPDEST PUSH0 PUSH20 0xFFFFFFFFFFFFFFFFFFFFFFFFFFFFFFFFFFFFFFFF DUP3 AND SWAP1 POP SWAP2 SWAP1 POP JUMP JUMPDEST PUSH0 PUSH2 0x930 DUP3 PUSH2 0x907 JUMP JUMPDEST SWAP1 POP SWAP2 SWAP1 POP JUMP JUMPDEST PUSH2 0x940 DUP2 PUSH2 0x926 JUMP JUMPDEST DUP3 MSTORE POP POP JUMP JUMPDEST PUSH0 DUP2 MLOAD SWAP1 POP SWAP2 SWAP1 POP JUMP JUMPDEST PUSH0 DUP3 DUP3 MSTORE PUSH1 0x20 DUP3 ADD SWAP1 POP SWAP3 SWAP2 POP POP JUMP JUMPDEST PUSH0 DUP2 SWAP1 POP PUSH1 0x20 DUP3 ADD SWAP1 POP SWAP2 SWAP1 POP JUMP JUMPDEST PUSH2 0x978 DUP2 PUSH2 0x7B9 JUMP JUMPDEST DUP3 MSTORE POP POP JUMP JUMPDEST PUSH2 0x987 DUP2 PUSH2 0x926 JUMP JUMPDEST DUP3 MSTORE POP POP JUMP JUMPDEST PUSH2 0x996 DUP2 PUSH2 0x82A JUMP JUMPDEST DUP3 MSTORE POP POP JUMP JUMPDEST PUSH1 0x80 DUP3 ADD PUSH0 DUP3 ADD MLOAD PUSH2 0x9B0 PUSH0 DUP6 ADD DUP3 PUSH2 0x96F JUMP JUMPDEST POP PUSH1 0x20 DUP3 ADD MLOAD PUSH2 0x9C3 PUSH1 0x20 DUP6 ADD DUP3 PUSH2 0x97E JUMP JUMPDEST POP PUSH1 0x40 DUP3 ADD MLOAD PUSH2 0x9D6 PUSH1 0x40 DUP6 ADD DUP3 PUSH2 0x98D JUMP JUMPDEST POP PUSH1 0x60 DUP3 ADD MLOAD PUSH2 0x9E9 PUSH1 0x60 DUP6 ADD DUP3 PUSH2 0x97E JUMP JUMPDEST POP POP POP POP JUMP JUMPDEST PUSH0 PUSH2 0x9FA DUP4 DUP4 PUSH2 0x99C JUMP JUMPDEST PUSH1 0x80 DUP4 ADD SWAP1 POP SWAP3 SWAP2 POP POP JUMP JUMPDEST PUSH0 PUSH1 0x20 DUP3 ADD SWAP1 POP SWAP2 SWAP1 POP JUMP JUMPDEST PUSH0 PUSH2 0xA1C DUP3 PUSH2 0x946 JUMP JUMPDEST PUSH2 0xA26 DUP2 DUP6 PUSH2 0x950 JUMP JUMPDEST SWAP4 POP PUSH2 0xA31 DUP4 PUSH2 0x960 JUMP JUMPDEST DUP1 PUSH0 JUMPDEST DUP4 DUP2 LT ISZERO PUSH2 0xA61 JUMPI DUP2 MLOAD PUSH2 0xA48 DUP9 DUP3 PUSH2 0x9EF JUMP JUMPDEST SWAP8 POP PUSH2 0xA53 DUP4 PUSH2 0xA06 JUMP JUMPDEST SWAP3 POP POP PUSH1 0x1 DUP2 ADD SWAP1 POP PUSH2 0xA34 JUMP JUMPDEST POP DUP6 SWAP4 POP POP POP POP SWAP3 SWAP2 POP POP JUMP JUMPDEST PUSH0 PUSH1 0xA0 DUP3 ADD SWAP1 POP PUSH2 0xA81 PUSH0 DUP4 ADD DUP9 PUSH2 0x888 JUMP JUMPDEST DUP2 DUP2 SUB PUSH1 0x20 DUP4 ADD MSTORE PUSH2 0xA93 DUP2 DUP8 PUSH2 0x8CF JUMP JUMPDEST SWAP1 POP PUSH2 0xAA2 PUSH1 0x40 DUP4 ADD DUP7 PUSH2 0x937 JUMP JUMPDEST PUSH2 0xAAF PUSH1 0x60 DUP4 ADD DUP6 PUSH2 0x888 JUMP JUMPDEST DUP2 DUP2 SUB PUSH1 0x80 DUP4 ADD MSTORE PUSH2 0xAC1 DUP2 DUP5 PUSH2 0xA12 JUMP JUMPDEST SWAP1 POP SWAP7 SWAP6 POP POP POP POP POP POP JUMP JUMPDEST PUSH2 0xAD6 DUP2 PUSH2 0x926 JUMP JUMPDEST DUP2 EQ PUSH2 0xAE0 JUMPI PUSH0 DUP1 REVERT JUMPDEST POP JUMP JUMPDEST PUSH0 DUP2 CALLDATALOAD SWAP1 POP PUSH2 0xAF1 DUP2 PUSH2 0xACD JUMP JUMPDEST SWAP3 SWAP2 POP POP JUMP JUMPDEST PUSH2 0xB00 DUP2 PUSH2 0x82A JUMP JUMPDEST DUP2 EQ PUSH2 0xB0A JUMPI PUSH0 DUP1 REVERT JUMPDEST POP JUMP JUMPDEST PUSH0 DUP2 CALLDATALOAD SWAP1 POP PUSH2 0xB1B DUP2 PUSH2 0xAF7 JUMP JUMPDEST SWAP3 SWAP2 POP POP JUMP JUMPDEST PUSH0 DUP1 PUSH0 DUP1 PUSH0 PUSH1 0xA0 DUP7 DUP9 SUB SLT ISZERO PUSH2 0xB3A JUMPI PUSH2 0xB39 PUSH2 0x7B1 JUMP JUMPDEST JUMPDEST PUSH0 PUSH2 0xB47 DUP9 DUP3 DUP10 ADD PUSH2 0xAE3 JUMP JUMPDEST SWAP6 POP POP PUSH1 0x20 PUSH2 0xB58 DUP9 DUP3 DUP10 ADD PUSH2 0x7D8 JUMP JUMPDEST SWAP5 POP POP PUSH1 0x40 PUSH2 0xB69 DUP9 DUP3 DUP10 ADD PUSH2 0x7D8 JUMP JUMPDEST SWAP4 POP POP PUSH1 0x60 PUSH2 0xB7A DUP9 DUP3 DUP10 ADD PUSH2 0x7D8 JUMP JUMPDEST SWAP3 POP POP PUSH1 0x80 PUSH2 0xB8B DUP9 DUP3 DUP10 ADD PUSH2 0xB0D JUMP JUMPDEST SWAP2 POP POP SWAP3 SWAP6 POP SWAP3 SWAP6 SWAP1 SWAP4 POP JUMP JUMPDEST PUSH0 PUSH1 0x20 DUP3 ADD SWAP1 POP PUSH2 0xBAB PUSH0 DUP4 ADD DUP5 PUSH2 0x888 JUMP JUMPDEST SWAP3 SWAP2 POP POP JUMP JUMPDEST PUSH0 DUP1 REVERT JUMPDEST PUSH0 DUP1 REVERT JUMPDEST PUSH32 0x4E487B7100000000000000000000000000000000000000000000000000000000 PUSH0 MSTORE PUSH1 0x41 PUSH1 0x4 MSTORE PUSH1 0x24 PUSH0 REVERT JUMPDEST PUSH2 0xBEF DUP3 PUSH2 0x8BF JUMP JUMPDEST DUP2 ADD DUP2 DUP2 LT PUSH8 0xFFFFFFFFFFFFFFFF DUP3 GT OR ISZERO PUSH2 0xC0E JUMPI PUSH2 0xC0D PUSH2 0xBB9 JUMP JUMPDEST JUMPDEST DUP1 PUSH1 0x40 MSTORE POP POP POP JUMP JUMPDEST PUSH0 PUSH2 0xC20 PUSH2 0x7A8 JUMP JUMPDEST SWAP1 POP PUSH2 0xC2C DUP3 DUP3 PUSH2 0xBE6 JUMP JUMPDEST SWAP2 SWAP1 POP JUMP JUMPDEST PUSH0 PUSH8 0xFFFFFFFFFFFFFFFF DUP3 GT ISZERO PUSH2 0xC4B JUMPI PUSH2 0xC4A PUSH2 0xBB9 JUMP JUMPDEST JUMPDEST PUSH2 0xC54 DUP3 PUSH2 0x8BF JUMP JUMPDEST SWAP1 POP PUSH1 0x20 DUP2 ADD SWAP1 POP SWAP2 SWAP1 POP JUMP JUMPDEST DUP3 DUP2 DUP4 CALLDATACOPY PUSH0 DUP4 DUP4 ADD MSTORE POP POP POP JUMP JUMPDEST PUSH0 PUSH2 0xC81 PUSH2 0xC7C DUP5 PUSH2 0xC31 JUMP JUMPDEST PUSH2 0xC17 JUMP JUMPDEST SWAP1 POP DUP3 DUP2 MSTORE PUSH1 0x20 DUP2 ADD DUP5 DUP5 DUP5 ADD GT ISZERO PUSH2 0xC9D JUMPI PUSH2 0xC9C PUSH2 0xBB5 JUMP JUMPDEST JUMPDEST PUSH2 0xCA8 DUP5 DUP3 DUP6 PUSH2 0xC61 JUMP JUMPDEST POP SWAP4 SWAP3 POP POP POP JUMP JUMPDEST PUSH0 DUP3 PUSH1 0x1F DUP4 ADD SLT PUSH2 0xCC4 JUMPI PUSH2 0xCC3 PUSH2 0xBB1 JUMP JUMPDEST JUMPDEST DUP2 CALLDATALOAD PUSH2 0xCD4 DUP5 DUP3 PUSH1 0x20 DUP7 ADD PUSH2 0xC6F JUMP JUMPDEST SWAP2 POP POP SWAP3 SWAP2 POP POP JUMP JUMPDEST PUSH0 DUP1 PUSH1 0x40 DUP4 DUP6 SUB SLT ISZERO PUSH2 0xCF3 JUMPI PUSH2 0xCF2 PUSH2 0x7B1 JUMP JUMPDEST JUMPDEST PUSH0 DUP4 ADD CALLDATALOAD PUSH8 0xFFFFFFFFFFFFFFFF DUP2 GT ISZERO PUSH2 0xD10 JUMPI PUSH2 0xD0F PUSH2 0x7B5 JUMP JUMPDEST JUMPDEST PUSH2 0xD1C DUP6 DUP3 DUP7 ADD PUSH2 0xCB0 JUMP JUMPDEST SWAP3 POP POP PUSH1 0x20 PUSH2 0xD2D DUP6 DUP3 DUP7 ADD PUSH2 0x7D8 JUMP JUMPDEST SWAP2 POP POP SWAP3 POP SWAP3 SWAP1 POP JUMP JUMPDEST PUSH0 DUP1 PUSH0 PUSH1 0x60 DUP5 DUP7 SUB SLT ISZERO PUSH2 0xD4E JUMPI PUSH2 0xD4D PUSH2 0x7B1 JUMP JUMPDEST JUMPDEST PUSH0 PUSH2 0xD5B DUP7 DUP3 DUP8 ADD PUSH2 0xAE3 JUMP JUMPDEST SWAP4 POP POP PUSH1 0x20 PUSH2 0xD6C DUP7 DUP3 DUP8 ADD PUSH2 0xAE3 JUMP JUMPDEST SWAP3 POP POP PUSH1 0x40 PUSH2 0xD7D DUP7 DUP3 DUP8 ADD PUSH2 0x7D8 JUMP JUMPDEST SWAP2 POP POP SWAP3 POP SWAP3 POP SWAP3 JUMP JUMPDEST PUSH32 0x4E487B7100000000000000000000000000000000000000000000000000000000 PUSH0 MSTORE PUSH1 0x32 PUSH1 0x4 MSTORE PUSH1 0x24 PUSH0 REVERT JUMPDEST PUSH32 0x4E487B7100000000000000000000000000000000000000000000000000000000 PUSH0 MSTORE PUSH1 0x22 PUSH1 0x4 MSTORE PUSH1 0x24 PUSH0 REVERT JUMPDEST PUSH0 PUSH1 0x2 DUP3 DIV SWAP1 POP PUSH1 0x1 DUP3 AND DUP1 PUSH2 0xDF8 JUMPI PUSH1 0x7F DUP3 AND SWAP2 POP JUMPDEST PUSH1 0x20 DUP3 LT DUP2 SUB PUSH2 0xE0B JUMPI PUSH2 0xE0A PUSH2 0xDB4 JUMP JUMPDEST JUMPDEST POP SWAP2 SWAP1 POP JUMP JUMPDEST PUSH0 DUP2 SWAP1 POP DUP2 PUSH0 MSTORE PUSH1 0x20 PUSH0 KECCAK256 SWAP1 POP SWAP2 SWAP1 POP JUMP JUMPDEST PUSH0 PUSH1 0x20 PUSH1 0x1F DUP4 ADD DIV SWAP1 POP SWAP2 SWAP1 POP JUMP JUMPDEST PUSH0 DUP3 DUP3 SHL SWAP1 POP SWAP3 SWAP2 POP POP JUMP JUMPDEST PUSH0 PUSH1 0x8 DUP4 MUL PUSH2 0xE6D PUSH32 0xFFFFFFFFFFFFFFFFFFFFFFFFFFFFFFFFFFFFFFFFFFFFFFFFFFFFFFFFFFFFFFFF DUP3 PUSH2 0xE32 JUMP JUMPDEST PUSH2 0xE77 DUP7 DUP4 PUSH2 0xE32 JUMP JUMPDEST SWAP6 POP DUP1 NOT DUP5 AND SWAP4 POP DUP1 DUP7 AND DUP5 OR SWAP3 POP POP POP SWAP4 SWAP3 POP POP POP JUMP JUMPDEST PUSH0 DUP2 SWAP1 POP SWAP2 SWAP1 POP JUMP JUMPDEST PUSH0 PUSH2 0xEB2 PUSH2 0xEAD PUSH2 0xEA8 DUP5 PUSH2 0x7B9 JUMP JUMPDEST PUSH2 0xE8F JUMP JUMPDEST PUSH2 0x7B9 JUMP JUMPDEST SWAP1 POP SWAP2 SWAP1 POP JUMP JUMPDEST PUSH0 DUP2 SWAP1 POP SWAP2 SWAP1 POP JUMP JUMPDEST PUSH2 0xECB DUP4 PUSH2 0xE98 JUMP JUMPDEST PUSH2 0xEDF PUSH2 0xED7 DUP3 PUSH2 0xEB9 JUMP JUMPDEST DUP5 DUP5 SLOAD PUSH2 0xE3E JUMP JUMPDEST DUP3 SSTORE POP POP POP POP JUMP JUMPDEST PUSH0 SWAP1 JUMP JUMPDEST PUSH2 0xEF3 PUSH2 0xEE7 JUMP JUMPDEST PUSH2 0xEFE DUP2 DUP5 DUP5 PUSH2 0xEC2 JUMP JUMPDEST POP POP POP JUMP JUMPDEST JUMPDEST DUP2 DUP2 LT ISZERO PUSH2 0xF21 JUMPI PUSH2 0xF16 PUSH0 DUP3 PUSH2 0xEEB JUMP JUMPDEST PUSH1 0x1 DUP2 ADD SWAP1 POP PUSH2 0xF04 JUMP JUMPDEST POP POP JUMP JUMPDEST PUSH1 0x1F DUP3 GT ISZERO PUSH2 0xF66 JUMPI PUSH2 0xF37 DUP2 PUSH2 0xE11 JUMP JUMPDEST PUSH2 0xF40 DUP5 PUSH2 0xE23 JUMP JUMPDEST DUP2 ADD PUSH1 0x20 DUP6 LT ISZERO PUSH2 0xF4F JUMPI DUP2 SWAP1 POP JUMPDEST PUSH2 0xF63 PUSH2 0xF5B DUP6 PUSH2 0xE23 JUMP JUMPDEST DUP4 ADD DUP3 PUSH2 0xF03 JUMP JUMPDEST POP POP JUMPDEST POP POP POP JUMP JUMPDEST PUSH0 DUP3 DUP3 SHR SWAP1 POP SWAP3 SWAP2 POP POP JUMP JUMPDEST PUSH0 PUSH2 0xF86 PUSH0 NOT DUP5 PUSH1 0x8 MUL PUSH2 0xF6B JUMP JUMPDEST NOT DUP1 DUP4 AND SWAP2 POP POP SWAP3 SWAP2 POP POP JUMP JUMPDEST PUSH0 PUSH2 0xF9E DUP4 DUP4 PUSH2 0xF77 JUMP JUMPDEST SWAP2 POP DUP3 PUSH1 0x2 MUL DUP3 OR SWAP1 POP SWAP3 SWAP2 POP POP JUMP JUMPDEST PUSH2 0xFB7 DUP3 PUSH2 0x897 JUMP JUMPDEST PUSH8 0xFFFFFFFFFFFFFFFF DUP2 GT ISZERO PUSH2 0xFD0 JUMPI PUSH2 0xFCF PUSH2 0xBB9 JUMP JUMPDEST JUMPDEST PUSH2 0xFDA DUP3 SLOAD PUSH2 0xDE1 JUMP JUMPDEST PUSH2 0xFE5 DUP3 DUP3 DUP6 PUSH2 0xF25 JUMP JUMPDEST PUSH0 PUSH1 0x20 SWAP1 POP PUSH1 0x1F DUP4 GT PUSH1 0x1 DUP2 EQ PUSH2 0x1016 JUMPI PUSH0 DUP5 ISZERO PUSH2 0x1004 JUMPI DUP3 DUP8 ADD MLOAD SWAP1 POP JUMPDEST PUSH2 0x100E DUP6 DUP3 PUSH2 0xF93 JUMP JUMPDEST DUP7 SSTORE POP PUSH2 0x1075 JUMP JUMPDEST PUSH1 0x1F NOT DUP5 AND PUSH2 0x1024 DUP7 PUSH2 0xE11 JUMP JUMPDEST PUSH0 JUMPDEST DUP3 DUP2 LT ISZERO PUSH2 0x104B JUMPI DUP5 DUP10 ADD MLOAD DUP3 SSTORE PUSH1 0x1 DUP3 ADD SWAP2 POP PUSH1 0x20 DUP6 ADD SWAP5 POP PUSH1 0x20 DUP2 ADD SWAP1 POP PUSH2 0x1026 JUMP JUMPDEST DUP7 DUP4 LT ISZERO PUSH2 0x1068 JUMPI DUP5 DUP10 ADD MLOAD PUSH2 0x1064 PUSH1 0x1F DUP10 AND DUP3 PUSH2 0xF77 JUMP JUMPDEST DUP4 SSTORE POP JUMPDEST PUSH1 0x1 PUSH1 0x2 DUP9 MUL ADD DUP9 SSTORE POP POP POP JUMPDEST POP POP POP POP POP POP JUMP JUMPDEST PUSH0 PUSH1 0x40 DUP3 ADD SWAP1 POP PUSH2 0x1090 PUSH0 DUP4 ADD DUP6 PUSH2 0x937 JUMP JUMPDEST PUSH2 0x109D PUSH1 0x20 DUP4 ADD DUP5 PUSH2 0x888 JUMP JUMPDEST SWAP4 SWAP3 POP POP POP JUMP JUMPDEST PUSH0 DUP2 MLOAD SWAP1 POP PUSH2 0x10B2 DUP2 PUSH2 0xAF7 JUMP JUMPDEST SWAP3 SWAP2 POP POP JUMP JUMPDEST PUSH0 PUSH1 0x20 DUP3 DUP5 SUB SLT ISZERO PUSH2 0x10CD JUMPI PUSH2 0x10CC PUSH2 0x7B1 JUMP JUMPDEST JUMPDEST PUSH0 PUSH2 0x10DA DUP5 DUP3 DUP6 ADD PUSH2 0x10A4 JUMP JUMPDEST SWAP2 POP POP SWAP3 SWAP2 POP POP JUMP JUMPDEST PUSH32 0x546F6B656E207472616E73666572206661696C65640000000000000000000000 PUSH0 DUP3 ADD MSTORE POP JUMP JUMPDEST PUSH0 PUSH2 0x1117 PUSH1 0x15 DUP4 PUSH2 0x8A1 JUMP JUMPDEST SWAP2 POP PUSH2 0x1122 DUP3 PUSH2 0x10E3 JUMP JUMPDEST PUSH1 0x20 DUP3 ADD SWAP1 POP SWAP2 SWAP1 POP JUMP JUMPDEST PUSH0 PUSH1 0x20 DUP3 ADD SWAP1 POP DUP2 DUP2 SUB PUSH0 DUP4 ADD MSTORE PUSH2 0x1144 DUP2 PUSH2 0x110B JUMP JUMPDEST SWAP1 POP SWAP2 SWAP1 POP JUMP INVALID LOG2 PUSH5 0x6970667358 0x22 SLT KECCAK256 0x4C 0xB6 SHR 0xD5 0xDE 0xC6 DUP2 0xD6 PUSH6 0xDC5349C49CEA PUSH28 0x25043A4B0EC989C677FEBD2F288D903264736F6C634300081A003300 "
				},
				"gasEstimates": {
					"creation": {
						"codeDepositCost": "896200",
						"executionCost": "933",
						"totalCost": "897133"
					},
					"external": {
						"deployTask(string,uint256)": "infinite",
						"getTask(uint256)": "infinite",
						"raiseChallenge(address,uint256,uint256,uint256,bool)": "infinite",
						"transferToken(address,address,uint256)": "infinite",
						"uploadDataset(uint256)": "infinite",
						"verifyDataset(uint256,uint256)": "infinite"
					}
				},
				"methodIdentifiers": {
					"deployTask(string,uint256)": "851e0a7f",
					"getTask(uint256)": "1d65e77e",
					"raiseChallenge(address,uint256,uint256,uint256,bool)": "2bb4f55e",
					"transferToken(address,address,uint256)": "f5537ede",
					"uploadDataset(uint256)": "6e17e240",
					"verifyDataset(uint256,uint256)": "134fe3dc"
				}
			},
			"storageLayout": {
				"storage": [
					{
						"astId": 37,
						"contract": "contracts/DataPunk/DataPunk.sol:DataPunk",
						"label": "tasks",
						"offset": 0,
						"slot": "0",
						"type": "t_array(t_struct(Task)24_storage)dyn_storage"
					},
					{
						"astId": 41,
						"contract": "contracts/DataPunk/DataPunk.sol:DataPunk",
						"label": "datasets",
						"offset": 0,
						"slot": "1",
						"type": "t_array(t_struct(Dataset)33_storage)dyn_storage"
					}
				],
				"types": {
					"t_address": {
						"encoding": "inplace",
						"label": "address",
						"numberOfBytes": "20"
					},
					"t_array(t_struct(Dataset)33_storage)dyn_storage": {
						"base": "t_struct(Dataset)33_storage",
						"encoding": "dynamic_array",
						"label": "struct DataPunk.Dataset[]",
						"numberOfBytes": "32"
					},
					"t_array(t_struct(Task)24_storage)dyn_storage": {
						"base": "t_struct(Task)24_storage",
						"encoding": "dynamic_array",
						"label": "struct DataPunk.Task[]",
						"numberOfBytes": "32"
					},
					"t_bool": {
						"encoding": "inplace",
						"label": "bool",
						"numberOfBytes": "1"
					},
					"t_string_storage": {
						"encoding": "bytes",
						"label": "string",
						"numberOfBytes": "32"
					},
					"t_struct(Dataset)33_storage": {
						"encoding": "inplace",
						"label": "struct DataPunk.Dataset",
						"members": [
							{
								"astId": 26,
								"contract": "contracts/DataPunk/DataPunk.sol:DataPunk",
								"label": "datasetId",
								"offset": 0,
								"slot": "0",
								"type": "t_uint256"
							},
							{
								"astId": 28,
								"contract": "contracts/DataPunk/DataPunk.sol:DataPunk",
								"label": "uploader",
								"offset": 0,
								"slot": "1",
								"type": "t_address"
							},
							{
								"astId": 30,
								"contract": "contracts/DataPunk/DataPunk.sol:DataPunk",
								"label": "isValidated",
								"offset": 20,
								"slot": "1",
								"type": "t_bool"
							},
							{
								"astId": 32,
								"contract": "contracts/DataPunk/DataPunk.sol:DataPunk",
								"label": "validator",
								"offset": 0,
								"slot": "2",
								"type": "t_address"
							}
						],
						"numberOfBytes": "96"
					},
					"t_struct(Task)24_storage": {
						"encoding": "inplace",
						"label": "struct DataPunk.Task",
						"members": [
							{
								"astId": 13,
								"contract": "contracts/DataPunk/DataPunk.sol:DataPunk",
								"label": "taskId",
								"offset": 0,
								"slot": "0",
								"type": "t_uint256"
							},
							{
								"astId": 15,
								"contract": "contracts/DataPunk/DataPunk.sol:DataPunk",
								"label": "taskName",
								"offset": 0,
								"slot": "1",
								"type": "t_string_storage"
							},
							{
								"astId": 17,
								"contract": "contracts/DataPunk/DataPunk.sol:DataPunk",
								"label": "publisher",
								"offset": 0,
								"slot": "2",
								"type": "t_address"
							},
							{
								"astId": 19,
								"contract": "contracts/DataPunk/DataPunk.sol:DataPunk",
								"label": "reward",
								"offset": 0,
								"slot": "3",
								"type": "t_uint256"
							},
							{
								"astId": 23,
								"contract": "contracts/DataPunk/DataPunk.sol:DataPunk",
								"label": "datasets",
								"offset": 0,
								"slot": "4",
								"type": "t_array(t_struct(Dataset)33_storage)dyn_storage"
							}
						],
						"numberOfBytes": "160"
					},
					"t_uint256": {
						"encoding": "inplace",
						"label": "uint256",
						"numberOfBytes": "32"
					}
				}
			},
			"userdoc": {
				"kind": "user",
				"methods": {},
				"version": 1
			}
		}
	}
}